{
  "_format": "hh-sol-artifact-1",
  "contractName": "ServiceRegistry",
  "sourceName": "contracts/ServiceRegistry.sol",
  "abi": [
    {
      "inputs": [],
      "stateMutability": "nonpayable",
      "type": "constructor"
    },
    {
      "anonymous": false,
      "inputs": [
        {
          "indexed": false,
          "internalType": "address",
          "name": "previousAdmin",
          "type": "address"
        },
        {
          "indexed": false,
          "internalType": "address",
          "name": "newAdmin",
          "type": "address"
        }
      ],
      "name": "AdminChanged",
      "type": "event"
    },
    {
      "anonymous": false,
      "inputs": [
        {
          "indexed": false,
          "internalType": "address",
          "name": "_tokenAddress",
          "type": "address"
        },
        {
          "indexed": false,
          "internalType": "bool",
          "name": "_status",
          "type": "bool"
        }
      ],
      "name": "AllowedTokenListUpdated",
      "type": "event"
    },
    {
      "anonymous": false,
      "inputs": [
        {
          "indexed": true,
          "internalType": "address",
          "name": "beacon",
          "type": "address"
        }
      ],
      "name": "BeaconUpgraded",
      "type": "event"
    },
    {
      "anonymous": false,
      "inputs": [
        {
          "indexed": false,
          "internalType": "uint8",
          "name": "version",
          "type": "uint8"
        }
      ],
      "name": "Initialized",
      "type": "event"
    },
    {
      "anonymous": false,
      "inputs": [
        {
          "indexed": true,
          "internalType": "address",
          "name": "previousOwner",
          "type": "address"
        },
        {
          "indexed": true,
          "internalType": "address",
          "name": "newOwner",
          "type": "address"
        }
      ],
      "name": "OwnershipTransferred",
      "type": "event"
    },
    {
      "anonymous": false,
      "inputs": [
        {
          "indexed": false,
          "internalType": "uint256",
          "name": "serviceId",
          "type": "uint256"
        },
        {
          "indexed": false,
          "internalType": "uint256",
          "name": "sellerId",
          "type": "uint256"
        },
        {
          "indexed": false,
          "internalType": "string",
          "name": "proposalDataUri",
          "type": "string"
        },
        {
          "indexed": false,
          "internalType": "enum ServiceRegistry.ProposalStatus",
          "name": "status",
          "type": "uint8"
        },
        {
          "indexed": false,
          "internalType": "address",
          "name": "rateToken",
          "type": "address"
        },
        {
          "indexed": false,
          "internalType": "uint256",
          "name": "rateAmount",
          "type": "uint256"
        },
        {
          "indexed": false,
          "internalType": "uint16",
          "name": "platformId",
          "type": "uint16"
        }
      ],
      "name": "ProposalCreated",
      "type": "event"
    },
    {
      "anonymous": false,
      "inputs": [
        {
          "indexed": false,
          "internalType": "uint256",
          "name": "serviceId",
          "type": "uint256"
        },
        {
          "indexed": false,
          "internalType": "uint256",
          "name": "sellerId",
          "type": "uint256"
        }
      ],
      "name": "ProposalRejected",
      "type": "event"
    },
    {
      "anonymous": false,
      "inputs": [
        {
          "indexed": false,
          "internalType": "uint256",
          "name": "serviceId",
          "type": "uint256"
        },
        {
          "indexed": false,
          "internalType": "uint256",
          "name": "sellerId",
          "type": "uint256"
        },
        {
          "indexed": false,
          "internalType": "string",
          "name": "proposalDataUri",
          "type": "string"
        },
        {
          "indexed": false,
          "internalType": "address",
          "name": "rateToken",
          "type": "address"
        },
        {
          "indexed": false,
          "internalType": "uint256",
          "name": "rateAmount",
          "type": "uint256"
        }
      ],
      "name": "ProposalUpdated",
      "type": "event"
    },
    {
      "anonymous": false,
      "inputs": [
        {
          "indexed": false,
          "internalType": "uint256",
          "name": "serviceId",
          "type": "uint256"
        },
        {
          "indexed": false,
          "internalType": "uint256",
          "name": "sellerId",
          "type": "uint256"
        }
      ],
      "name": "ProposalValidated",
      "type": "event"
    },
    {
      "anonymous": false,
      "inputs": [
        {
          "indexed": true,
          "internalType": "bytes32",
          "name": "role",
          "type": "bytes32"
        },
        {
          "indexed": true,
          "internalType": "bytes32",
          "name": "previousAdminRole",
          "type": "bytes32"
        },
        {
          "indexed": true,
          "internalType": "bytes32",
          "name": "newAdminRole",
          "type": "bytes32"
        }
      ],
      "name": "RoleAdminChanged",
      "type": "event"
    },
    {
      "anonymous": false,
      "inputs": [
        {
          "indexed": true,
          "internalType": "bytes32",
          "name": "role",
          "type": "bytes32"
        },
        {
          "indexed": true,
          "internalType": "address",
          "name": "account",
          "type": "address"
        },
        {
          "indexed": true,
          "internalType": "address",
          "name": "sender",
          "type": "address"
        }
      ],
      "name": "RoleGranted",
      "type": "event"
    },
    {
      "anonymous": false,
      "inputs": [
        {
          "indexed": true,
          "internalType": "bytes32",
          "name": "role",
          "type": "bytes32"
        },
        {
          "indexed": true,
          "internalType": "address",
          "name": "account",
          "type": "address"
        },
        {
          "indexed": true,
          "internalType": "address",
          "name": "sender",
          "type": "address"
        }
      ],
      "name": "RoleRevoked",
      "type": "event"
    },
    {
      "anonymous": false,
      "inputs": [
        {
          "indexed": false,
          "internalType": "uint256",
          "name": "id",
          "type": "uint256"
        },
        {
          "indexed": false,
          "internalType": "uint256",
          "name": "buyerId",
          "type": "uint256"
        },
        {
          "indexed": false,
          "internalType": "uint256",
          "name": "sellerId",
          "type": "uint256"
        },
        {
          "indexed": false,
          "internalType": "uint256",
          "name": "initiatorId",
          "type": "uint256"
        },
        {
          "indexed": false,
          "internalType": "uint256",
          "name": "platformId",
          "type": "uint256"
        }
      ],
      "name": "ServiceCreated",
      "type": "event"
    },
    {
      "anonymous": false,
      "inputs": [
        {
          "indexed": false,
          "internalType": "uint256",
          "name": "id",
          "type": "uint256"
        },
        {
          "indexed": false,
          "internalType": "string",
          "name": "serviceDataUri",
          "type": "string"
        }
      ],
      "name": "ServiceDataCreated",
      "type": "event"
    },
    {
      "anonymous": false,
      "inputs": [
        {
          "indexed": true,
          "internalType": "uint256",
          "name": "id",
          "type": "uint256"
        },
        {
          "indexed": false,
          "internalType": "string",
          "name": "newServiceDataUri",
          "type": "string"
        }
      ],
      "name": "ServiceDetailedUpdated",
      "type": "event"
    },
    {
      "anonymous": false,
      "inputs": [
        {
          "indexed": false,
          "internalType": "address",
          "name": "forwarder",
          "type": "address"
        }
      ],
      "name": "TrustedForwarderAdded",
      "type": "event"
    },
    {
      "anonymous": false,
      "inputs": [
        {
          "indexed": false,
          "internalType": "address",
          "name": "forwarder",
          "type": "address"
        }
      ],
      "name": "TrustedForwarderRemoved",
      "type": "event"
    },
    {
      "anonymous": false,
      "inputs": [
        {
          "indexed": true,
          "internalType": "address",
          "name": "implementation",
          "type": "address"
        }
      ],
      "name": "Upgraded",
      "type": "event"
    },
    {
      "inputs": [],
      "name": "DEFAULT_ADMIN_ROLE",
      "outputs": [
        {
          "internalType": "bytes32",
          "name": "",
          "type": "bytes32"
        }
      ],
      "stateMutability": "view",
      "type": "function"
    },
    {
      "inputs": [],
      "name": "ESCROW_ROLE",
      "outputs": [
        {
          "internalType": "bytes32",
          "name": "",
          "type": "bytes32"
        }
      ],
      "stateMutability": "view",
      "type": "function"
    },
    {
      "inputs": [
        {
          "internalType": "address",
          "name": "_forwarder",
          "type": "address"
        }
      ],
      "name": "addTrustedForwarder",
      "outputs": [],
      "stateMutability": "nonpayable",
      "type": "function"
    },
    {
      "inputs": [
        {
          "internalType": "uint256",
          "name": "_serviceId",
          "type": "uint256"
        },
        {
          "internalType": "uint256",
          "name": "_proposalId",
          "type": "uint256"
        },
        {
          "internalType": "uint256",
          "name": "_transactionId",
          "type": "uint256"
        }
      ],
      "name": "afterDeposit",
      "outputs": [],
      "stateMutability": "nonpayable",
      "type": "function"
    },
    {
      "inputs": [
        {
          "internalType": "uint256",
          "name": "_serviceId",
          "type": "uint256"
        }
      ],
      "name": "afterFullPayment",
      "outputs": [],
      "stateMutability": "nonpayable",
      "type": "function"
    },
    {
      "inputs": [
        {
          "internalType": "address",
          "name": "",
          "type": "address"
        }
      ],
      "name": "allowedTokenList",
      "outputs": [
        {
          "internalType": "bool",
          "name": "",
          "type": "bool"
        }
      ],
      "stateMutability": "view",
      "type": "function"
    },
    {
      "inputs": [
        {
          "internalType": "uint256",
          "name": "_platformId",
          "type": "uint256"
        },
        {
          "internalType": "string",
          "name": "_serviceDataUri",
          "type": "string"
        }
      ],
      "name": "createOpenServiceFromBuyer",
      "outputs": [
        {
          "internalType": "uint256",
          "name": "",
          "type": "uint256"
        }
      ],
      "stateMutability": "nonpayable",
      "type": "function"
    },
    {
      "inputs": [
        {
          "internalType": "uint256",
          "name": "_serviceId",
          "type": "uint256"
        },
        {
          "internalType": "address",
          "name": "_rateToken",
          "type": "address"
        },
        {
          "internalType": "uint256",
          "name": "_rateAmount",
          "type": "uint256"
        },
        {
          "internalType": "uint16",
          "name": "_platformId",
          "type": "uint16"
        },
        {
          "internalType": "string",
          "name": "_proposalDataUri",
          "type": "string"
        }
      ],
      "name": "createProposal",
      "outputs": [],
      "stateMutability": "nonpayable",
      "type": "function"
    },
    {
      "inputs": [
        {
          "internalType": "uint256",
          "name": "_serviceId",
          "type": "uint256"
        },
        {
          "internalType": "uint256",
          "name": "_proposalId",
          "type": "uint256"
        }
      ],
      "name": "getProposal",
      "outputs": [
        {
          "components": [
            {
              "internalType": "enum ServiceRegistry.ProposalStatus",
              "name": "status",
              "type": "uint8"
            },
            {
              "internalType": "uint256",
              "name": "sellerId",
              "type": "uint256"
            },
            {
              "internalType": "address",
              "name": "rateToken",
              "type": "address"
            },
            {
              "internalType": "uint256",
              "name": "rateAmount",
              "type": "uint256"
            },
            {
              "internalType": "uint16",
              "name": "platformId",
              "type": "uint16"
            },
            {
              "internalType": "string",
              "name": "proposalDataUri",
              "type": "string"
            }
          ],
          "internalType": "struct ServiceRegistry.Proposal",
          "name": "",
          "type": "tuple"
        }
      ],
      "stateMutability": "view",
      "type": "function"
    },
    {
      "inputs": [
        {
          "internalType": "bytes32",
          "name": "role",
          "type": "bytes32"
        }
      ],
      "name": "getRoleAdmin",
      "outputs": [
        {
          "internalType": "bytes32",
          "name": "",
          "type": "bytes32"
        }
      ],
      "stateMutability": "view",
      "type": "function"
    },
    {
      "inputs": [
        {
          "internalType": "uint256",
          "name": "_serviceId",
          "type": "uint256"
        }
      ],
      "name": "getService",
      "outputs": [
        {
          "components": [
            {
              "internalType": "enum ServiceRegistry.Status",
              "name": "status",
              "type": "uint8"
            },
            {
              "internalType": "uint256",
              "name": "buyerId",
              "type": "uint256"
            },
            {
              "internalType": "uint256",
              "name": "sellerId",
              "type": "uint256"
            },
            {
              "internalType": "uint256",
              "name": "initiatorId",
              "type": "uint256"
            },
            {
              "internalType": "string",
              "name": "serviceDataUri",
              "type": "string"
            },
            {
              "internalType": "uint256",
              "name": "countProposals",
              "type": "uint256"
            },
            {
              "internalType": "uint256",
              "name": "transactionId",
              "type": "uint256"
            },
            {
              "internalType": "uint256",
              "name": "platformId",
              "type": "uint256"
            }
          ],
          "internalType": "struct ServiceRegistry.Service",
          "name": "",
          "type": "tuple"
        }
      ],
      "stateMutability": "view",
      "type": "function"
    },
    {
      "inputs": [
        {
          "internalType": "bytes32",
          "name": "role",
          "type": "bytes32"
        },
        {
          "internalType": "address",
          "name": "account",
          "type": "address"
        }
      ],
      "name": "grantRole",
      "outputs": [],
      "stateMutability": "nonpayable",
      "type": "function"
    },
    {
      "inputs": [
        {
          "internalType": "bytes32",
          "name": "role",
          "type": "bytes32"
        },
        {
          "internalType": "address",
          "name": "account",
          "type": "address"
        }
      ],
      "name": "hasRole",
      "outputs": [
        {
          "internalType": "bool",
          "name": "",
          "type": "bool"
        }
      ],
      "stateMutability": "view",
      "type": "function"
    },
    {
      "inputs": [
        {
          "internalType": "address",
          "name": "_talentLayerIdAddress",
          "type": "address"
        },
        {
          "internalType": "address",
          "name": "_talentLayerPlatformIdAddress",
          "type": "address"
        }
      ],
      "name": "initialize",
      "outputs": [],
      "stateMutability": "nonpayable",
      "type": "function"
    },
    {
      "inputs": [
        {
          "internalType": "address",
          "name": "_tokenAddress",
          "type": "address"
        }
      ],
      "name": "isTokenAllowed",
      "outputs": [
        {
          "internalType": "bool",
          "name": "",
          "type": "bool"
        }
      ],
      "stateMutability": "view",
      "type": "function"
    },
    {
      "inputs": [
        {
          "internalType": "address",
          "name": "forwarder",
          "type": "address"
        }
      ],
      "name": "isTrustedForwarder",
      "outputs": [
        {
          "internalType": "bool",
          "name": "",
          "type": "bool"
        }
      ],
      "stateMutability": "view",
      "type": "function"
    },
    {
      "inputs": [],
      "name": "nextServiceId",
      "outputs": [
        {
          "internalType": "uint256",
          "name": "",
          "type": "uint256"
        }
      ],
      "stateMutability": "view",
      "type": "function"
    },
    {
      "inputs": [],
      "name": "owner",
      "outputs": [
        {
          "internalType": "address",
          "name": "",
          "type": "address"
        }
      ],
      "stateMutability": "view",
      "type": "function"
    },
    {
      "inputs": [
        {
          "internalType": "uint256",
          "name": "",
          "type": "uint256"
        },
        {
          "internalType": "uint256",
          "name": "",
          "type": "uint256"
        }
      ],
      "name": "proposals",
      "outputs": [
        {
          "internalType": "enum ServiceRegistry.ProposalStatus",
          "name": "status",
          "type": "uint8"
        },
        {
          "internalType": "uint256",
          "name": "sellerId",
          "type": "uint256"
        },
        {
          "internalType": "address",
          "name": "rateToken",
          "type": "address"
        },
        {
          "internalType": "uint256",
          "name": "rateAmount",
          "type": "uint256"
        },
        {
          "internalType": "uint16",
          "name": "platformId",
          "type": "uint16"
        },
        {
          "internalType": "string",
          "name": "proposalDataUri",
          "type": "string"
        }
      ],
      "stateMutability": "view",
      "type": "function"
    },
    {
      "inputs": [],
      "name": "proxiableUUID",
      "outputs": [
        {
          "internalType": "bytes32",
          "name": "",
          "type": "bytes32"
        }
      ],
      "stateMutability": "view",
      "type": "function"
    },
    {
      "inputs": [
        {
          "internalType": "uint256",
          "name": "_serviceId",
          "type": "uint256"
        },
        {
          "internalType": "uint256",
          "name": "_proposalId",
          "type": "uint256"
        }
      ],
      "name": "rejectProposal",
      "outputs": [],
      "stateMutability": "nonpayable",
      "type": "function"
    },
    {
      "inputs": [
        {
          "internalType": "address",
          "name": "_forwarder",
          "type": "address"
        }
      ],
      "name": "removeTrustedForwarder",
      "outputs": [],
      "stateMutability": "nonpayable",
      "type": "function"
    },
    {
      "inputs": [],
      "name": "renounceOwnership",
      "outputs": [],
      "stateMutability": "nonpayable",
      "type": "function"
    },
    {
      "inputs": [
        {
          "internalType": "bytes32",
          "name": "role",
          "type": "bytes32"
        },
        {
          "internalType": "address",
          "name": "account",
          "type": "address"
        }
      ],
      "name": "renounceRole",
      "outputs": [],
      "stateMutability": "nonpayable",
      "type": "function"
    },
    {
      "inputs": [
        {
          "internalType": "bytes32",
          "name": "role",
          "type": "bytes32"
        },
        {
          "internalType": "address",
          "name": "account",
          "type": "address"
        }
      ],
      "name": "revokeRole",
      "outputs": [],
      "stateMutability": "nonpayable",
      "type": "function"
    },
    {
      "inputs": [
        {
          "internalType": "uint256",
          "name": "",
          "type": "uint256"
        }
      ],
      "name": "services",
      "outputs": [
        {
          "internalType": "enum ServiceRegistry.Status",
          "name": "status",
          "type": "uint8"
        },
        {
          "internalType": "uint256",
          "name": "buyerId",
          "type": "uint256"
        },
        {
          "internalType": "uint256",
          "name": "sellerId",
          "type": "uint256"
        },
        {
          "internalType": "uint256",
          "name": "initiatorId",
          "type": "uint256"
        },
        {
          "internalType": "string",
          "name": "serviceDataUri",
          "type": "string"
        },
        {
          "internalType": "uint256",
          "name": "countProposals",
          "type": "uint256"
        },
        {
          "internalType": "uint256",
          "name": "transactionId",
          "type": "uint256"
        },
        {
          "internalType": "uint256",
          "name": "platformId",
          "type": "uint256"
        }
      ],
      "stateMutability": "view",
      "type": "function"
    },
    {
      "inputs": [
        {
          "internalType": "bytes4",
          "name": "interfaceId",
          "type": "bytes4"
        }
      ],
      "name": "supportsInterface",
      "outputs": [
        {
          "internalType": "bool",
          "name": "",
          "type": "bool"
        }
      ],
      "stateMutability": "view",
      "type": "function"
    },
    {
      "inputs": [],
      "name": "talentLayerPlatformIdContract",
      "outputs": [
        {
          "internalType": "contract ITalentLayerPlatformID",
          "name": "",
          "type": "address"
        }
      ],
      "stateMutability": "view",
      "type": "function"
    },
    {
      "inputs": [
        {
          "internalType": "address",
          "name": "newOwner",
          "type": "address"
        }
      ],
      "name": "transferOwnership",
      "outputs": [],
      "stateMutability": "nonpayable",
      "type": "function"
    },
    {
      "inputs": [
        {
          "internalType": "address",
          "name": "_tokenAddress",
          "type": "address"
        },
        {
          "internalType": "bool",
          "name": "_status",
          "type": "bool"
        }
      ],
      "name": "updateAllowedTokenList",
      "outputs": [],
      "stateMutability": "nonpayable",
      "type": "function"
    },
    {
      "inputs": [
        {
          "internalType": "uint256",
          "name": "_serviceId",
          "type": "uint256"
        },
        {
          "internalType": "address",
          "name": "_rateToken",
          "type": "address"
        },
        {
          "internalType": "uint256",
          "name": "_rateAmount",
          "type": "uint256"
        },
        {
          "internalType": "string",
          "name": "_proposalDataUri",
          "type": "string"
        }
      ],
      "name": "updateProposal",
      "outputs": [],
      "stateMutability": "nonpayable",
      "type": "function"
    },
    {
      "inputs": [
        {
          "internalType": "uint256",
          "name": "_serviceId",
          "type": "uint256"
        },
        {
          "internalType": "string",
          "name": "_newServiceDataUri",
          "type": "string"
        }
      ],
      "name": "updateServiceData",
      "outputs": [],
      "stateMutability": "nonpayable",
      "type": "function"
    },
    {
      "inputs": [
        {
          "internalType": "address",
          "name": "newImplementation",
          "type": "address"
        }
      ],
      "name": "upgradeTo",
      "outputs": [],
      "stateMutability": "nonpayable",
      "type": "function"
    },
    {
      "inputs": [
        {
          "internalType": "address",
          "name": "newImplementation",
          "type": "address"
        },
        {
          "internalType": "bytes",
          "name": "data",
          "type": "bytes"
        }
      ],
      "name": "upgradeToAndCall",
      "outputs": [],
      "stateMutability": "payable",
      "type": "function"
    },
    {
      "inputs": [
        {
          "internalType": "uint256",
          "name": "_serviceId",
          "type": "uint256"
        },
        {
          "internalType": "uint256",
          "name": "_proposalId",
          "type": "uint256"
        }
      ],
      "name": "validateProposal",
      "outputs": [],
      "stateMutability": "nonpayable",
      "type": "function"
    }
  ],
  "bytecode": "0x60a0604052306080523480156200001557600080fd5b506200002062000026565b620000e8565b600054610100900460ff1615620000935760405162461bcd60e51b815260206004820152602760248201527f496e697469616c697a61626c653a20636f6e747261637420697320696e697469604482015266616c697a696e6760c81b606482015260840160405180910390fd5b60005460ff9081161015620000e6576000805460ff191660ff9081179091556040519081527f7f26b83ff96e1f2b6a682f133852f6798a09c465da95921460cefb38474024989060200160405180910390a15b565b6080516137846200012060003960008181610878015281816108b801528181610d7a01528181610dba0152610e4901526137846000f3fe6080604052600436106102045760003560e01c8063715018a611610118578063c22c4f43116100a0578063ef0e239b1161006f578063ef0e239b14610658578063f2fde38b14610685578063f6bab047146106a5578063f6c53d9b146106c5578063f9eaee0d146106dc57600080fd5b8063c22c4f43146105b2578063c2cfee27146105e6578063c901677414610618578063d547741f1461063857600080fd5b8063a217fddf116100e7578063a217fddf14610510578063a7d5eaea14610525578063a8d9939d14610545578063aba2100914610565578063b7f2bd771461059257600080fd5b8063715018a61461048c57806371da85f9146104a15780638da5cb5b146104d257806391d14854146104f057600080fd5b8063477034da1161019b57806352d1902d1161016a57806352d1902d146103ca578063537e96fe146103df578063572b6c05146103ff5780635bdc75b0146104385780636ce76f301461045857600080fd5b8063477034da14610357578063485cc9551461037757806349c6559c146103975780634f1ef286146103b757600080fd5b80632f2ff15d116101d75780632f2ff15d146102d757806336568abe146102f75780633659cfe6146103175780633751d89c1461033757600080fd5b806301ffc9a7146102095780631499f9e61461023e578063248a9ca31461027757806326d00668146102b5575b600080fd5b34801561021557600080fd5b50610229610224366004612d30565b610716565b60405190151581526020015b60405180910390f35b34801561024a57600080fd5b506101305461025f906001600160a01b031681565b6040516001600160a01b039091168152602001610235565b34801561028357600080fd5b506102a7610292366004612d5a565b600090815260fc602052604090206001015490565b604051908152602001610235565b3480156102c157600080fd5b506102d56102d0366004612d8f565b61074d565b005b3480156102e357600080fd5b506102d56102f2366004612daa565b6107b0565b34801561030357600080fd5b506102d5610312366004612daa565b6107da565b34801561032357600080fd5b506102d5610332366004612d8f565b61086d565b34801561034357600080fd5b506102d5610352366004612d8f565b61094d565b34801561036357600080fd5b506102d5610372366004612dd6565b6109a6565b34801561038357600080fd5b506102d5610392366004612df8565b610bbc565b3480156103a357600080fd5b506102d56103b2366004612d5a565b610d28565b6102d56103c5366004612e38565b610d6f565b3480156103d657600080fd5b506102a7610e3c565b3480156103eb57600080fd5b506102d56103fa366004612f43565b610eef565b34801561040b57600080fd5b5061022961041a366004612d8f565b6001600160a01b031660009081526065602052604090205460ff1690565b34801561044457600080fd5b506102d5610453366004612dd6565b61130e565b34801561046457600080fd5b506102a77f2fdac322ee704ce09f0773f7f3f92eb98d5e7c836ee9c056cccd5f61041e5e3f81565b34801561049857600080fd5b506102d56114a8565b3480156104ad57600080fd5b506102296104bc366004612d8f565b6101336020526000908152604090205460ff1681565b3480156104de57600080fd5b506033546001600160a01b031661025f565b3480156104fc57600080fd5b5061022961050b366004612daa565b6114bc565b34801561051c57600080fd5b506102a7600081565b34801561053157600080fd5b506102d5610540366004612fc4565b6114e7565b34801561055157600080fd5b506102d5610560366004612ff0565b611560565b34801561057157600080fd5b50610585610580366004612dd6565b61183d565b60405161023591906130da565b34801561059e57600080fd5b506102a76105ad366004613142565b6119a8565b3480156105be57600080fd5b506105d26105cd366004612d5a565b611ab8565b60405161023598979695949392919061319e565b3480156105f257600080fd5b50610606610601366004612dd6565b611b88565b604051610235969594939291906131f2565b34801561062457600080fd5b506102d5610633366004613242565b611c68565b34801561064457600080fd5b506102d5610653366004612daa565b611d49565b34801561066457600080fd5b50610678610673366004612d5a565b611d6e565b604051610235919061327e565b34801561069157600080fd5b506102d56106a0366004612d8f565b611f26565b3480156106b157600080fd5b506102d56106c0366004613142565b611f9c565b3480156106d157600080fd5b506102a761012e5481565b3480156106e857600080fd5b506102296106f7366004612d8f565b6001600160a01b03166000908152610133602052604090205460ff1690565b60006001600160e01b03198216637965db0b60e01b148061074757506301ffc9a760e01b6001600160e01b03198316145b92915050565b6107556121f5565b6001600160a01b038116600081815260656020908152604091829020805460ff1916600117905590519182527f3ef8564460ada92419608d823c014975d98f8104d7d1e68c222967ac6814cd9791015b60405180910390a150565b600082815260fc60205260409020600101546107cb8161226e565b6107d5838361227f565b505050565b6107e2612306565b6001600160a01b0316816001600160a01b03161461085f5760405162461bcd60e51b815260206004820152602f60248201527f416363657373436f6e74726f6c3a2063616e206f6e6c792072656e6f756e636560448201526e103937b632b9903337b91039b2b63360891b60648201526084015b60405180910390fd5b6108698282612315565b5050565b306001600160a01b037f00000000000000000000000000000000000000000000000000000000000000001614156108b65760405162461bcd60e51b8152600401610856906132f6565b7f00000000000000000000000000000000000000000000000000000000000000006001600160a01b03166108ff600080516020613708833981519152546001600160a01b031690565b6001600160a01b0316146109255760405162461bcd60e51b815260040161085690613342565b61092e8161239a565b6040805160008082526020820190925261094a918391906123a2565b50565b6109556121f5565b6001600160a01b038116600081815260656020908152604091829020805460ff1916905590519182527fd2d636efcad0cea42e170256f4c5d8b1cd81e47b855557edaf44014e6cc4cee691016107a5565b61012f546000906001600160a01b031663438b63006109c3612306565b6040516001600160e01b031960e084901b1681526001600160a01b03909116600482015260240160206040518083038186803b158015610a0257600080fd5b505afa158015610a16573d6000803e3d6000fd5b505050506040513d601f19601f82011682018060405250810190610a3a919061338e565b905060008111610a5c5760405162461bcd60e51b8152600401610856906133a7565b60008381526101316020908152604080832061013283528184208685529092529091206001815460ff166002811115610a9757610a97613058565b1415610ab55760405162461bcd60e51b8152600401610856906133de565b6002815460ff166002811115610acd57610acd613058565b1415610b265760405162461bcd60e51b815260206004820152602260248201527f50726f706f73616c2068617320616c7265616479206265656e2072656a656374604482015261195960f21b6064820152608401610856565b81600101548314610b705760405162461bcd60e51b81526020600482015260146024820152732cb7ba93b932903737ba103a343290313abcb2b960611b6044820152606401610856565b805460ff1916600217815560408051868152602081018690527ffa74c17c82b1d1960368a621d45c9afe55e65c87a2c9fe612ac7e36c382b3f7891015b60405180910390a15050505050565b600054610100900460ff1615808015610bdc5750600054600160ff909116105b80610bf65750303b158015610bf6575060005460ff166001145b610c595760405162461bcd60e51b815260206004820152602e60248201527f496e697469616c697a61626c653a20636f6e747261637420697320616c72656160448201526d191e481a5b9a5d1a585b1a5e995960921b6064820152608401610856565b6000805460ff191660011790558015610c7c576000805461ff0019166101001790555b610c8461251c565b610c8c61254b565b610c9461254b565b610ca66000610ca1612306565b612572565b61012f80546001600160a01b038086166001600160a01b031992831617909255610130805492851692909116919091179055600161012e5580156107d5576000805461ff0019169055604051600181527f7f26b83ff96e1f2b6a682f133852f6798a09c465da95921460cefb38474024989060200160405180910390a1505050565b7f2fdac322ee704ce09f0773f7f3f92eb98d5e7c836ee9c056cccd5f61041e5e3f610d528161226e565b50600090815261013160205260409020805460ff19166002179055565b306001600160a01b037f0000000000000000000000000000000000000000000000000000000000000000161415610db85760405162461bcd60e51b8152600401610856906132f6565b7f00000000000000000000000000000000000000000000000000000000000000006001600160a01b0316610e01600080516020613708833981519152546001600160a01b031690565b6001600160a01b031614610e275760405162461bcd60e51b815260040161085690613342565b610e308261239a565b610869828260016123a2565b6000306001600160a01b037f00000000000000000000000000000000000000000000000000000000000000001614610edc5760405162461bcd60e51b815260206004820152603860248201527f555550535570677261646561626c653a206d757374206e6f742062652063616c60448201527f6c6564207468726f7567682064656c656761746563616c6c00000000000000006064820152608401610856565b5060008051602061370883398151915290565b61012f546000906001600160a01b031663438b6300610f0c612306565b6040516001600160e01b031960e084901b1681526001600160a01b03909116600482015260240160206040518083038186803b158015610f4b57600080fd5b505afa158015610f5f573d6000803e3d6000fd5b505050506040513d601f19601f82011682018060405250810190610f83919061338e565b905060008111610fa55760405162461bcd60e51b8152600401610856906133a7565b6001600160a01b0386166000908152610133602052604090205460ff1661100a5760405162461bcd60e51b8152602060048201526019602482015278151a1a5cc81d1bdad95b881a5cc81b9bdd08185b1b1bddd959603a1b6044820152606401610856565b6000878152610131602052604090206004815460ff16600481111561103157611031613058565b146110765760405162461bcd60e51b815260206004820152601560248201527414d95c9d9a58d9481a5cc81b9bdd081bdc195b9959605a1b6044820152606401610856565b6000888152610132602090815260408083208584529091529020600101548214156110fb5760405162461bcd60e51b815260206004820152602f60248201527f596f7520616c7265616479206372656174656420612070726f706f73616c206660448201526e6f722074686973207365727669636560881b6064820152608401610856565b81816001015414156111695760405162461bcd60e51b815260206004820152603160248201527f596f7520636f756c646e2774206372656174652070726f706f73616c20666f7260448201527020796f7572206f776e207365727669636560781b6064820152608401610856565b826111865760405162461bcd60e51b815260040161085690613421565b6005810180549060006111988361346e565b90915550506040805160c081019091528060008152602001838152602001886001600160a01b031681526020018781526020018661ffff16815260200185858080601f01602080910402602001604051908101604052809392919081815260200183838082843760009201829052509390945250508a81526101326020908152604080832087845290915290208251815491925090829060ff1916600183600281111561124757611247613058565b0217905550602082810151600183015560408301516002830180546001600160a01b0319166001600160a01b0390921691909117905560608301516003830155608083015160048301805461ffff191661ffff90921691909117905560a083015180516112ba9260058501920190612c23565b509050507fdc1ab3200caf17076f60a9fbf22ea5814644850fbb7be85a4c19f23bcdaa69378883868660008c8c8c6040516112fc9897969594939291906134b2565b60405180910390a15050505050505050565b61012f546000906001600160a01b031663438b630061132b612306565b6040516001600160e01b031960e084901b1681526001600160a01b03909116600482015260240160206040518083038186803b15801561136a57600080fd5b505afa15801561137e573d6000803e3d6000fd5b505050506040513d601f19601f820116820180604052508101906113a2919061338e565b9050600081116113c45760405162461bcd60e51b8152600401610856906133a7565b60008381526101316020908152604080832061013283528184208685529092529091206001815460ff1660028111156113ff576113ff613058565b141561141d5760405162461bcd60e51b8152600401610856906133de565b816001015483146114675760405162461bcd60e51b81526020600482015260146024820152732cb7ba93b932903737ba103a343290313abcb2b960611b6044820152606401610856565b805460ff1916600117815560408051868152602081018690527f03a3b4a747d115189175e375b6c6ccd9dcdacdf7b4369aa5d8c3b8afda8ca2959101610bad565b6114b06121f5565b6114ba600061257c565b565b600091825260fc602090815260408084206001600160a01b0393909316845291905290205460ff1690565b7f2fdac322ee704ce09f0773f7f3f92eb98d5e7c836ee9c056cccd5f61041e5e3f6115118161226e565b506000928352610131602090815260408085206101328352818620948652939091529092208154600160ff19918216811784558083015460028501556006909301939093558054909216179055565b61012f546000906001600160a01b031663438b630061157d612306565b6040516001600160e01b031960e084901b1681526001600160a01b03909116600482015260240160206040518083038186803b1580156115bc57600080fd5b505afa1580156115d0573d6000803e3d6000fd5b505050506040513d601f19601f820116820180604052508101906115f4919061338e565b9050600081116116165760405162461bcd60e51b8152600401610856906133a7565b6001600160a01b0385166000908152610133602052604090205460ff1661167b5760405162461bcd60e51b8152602060048201526019602482015278151a1a5cc81d1bdad95b881a5cc81b9bdd08185b1b1bddd959603a1b6044820152606401610856565b60008681526101316020908152604080832061013283528184208585529092529091206004825460ff1660048111156116b6576116b6613058565b146116fb5760405162461bcd60e51b815260206004820152601560248201527414d95c9d9a58d9481a5cc81b9bdd081bdc195b9959605a1b6044820152606401610856565b8281600101541461174e5760405162461bcd60e51b815260206004820152601f60248201527f546869732070726f706f73616c20646f65736e277420657869737420796574006044820152606401610856565b8361176b5760405162461bcd60e51b815260040161085690613421565b6001815460ff16600281111561178357611783613058565b14156117d15760405162461bcd60e51b815260206004820181905260248201527f546869732070726f706f73616c20697320616c726561647920757064617465646044820152606401610856565b6002810180546001600160a01b0319166001600160a01b03891617905560038101869055611803600582018686612ca7565b507f5cf385c7cf3e1609443b09191511540e030254887cccb510dfface4c041b6c55888487878b8b6040516112fc9695949392919061350d565b6118846040805160c0810190915280600081526020016000815260200160006001600160a01b0316815260200160008152602001600061ffff168152602001606081525090565b60008381526101326020908152604080832085845290915290819020815160c081019092528054829060ff1660028111156118c1576118c1613058565b60028111156118d2576118d2613058565b81526001820154602082015260028201546001600160a01b0316604082015260038201546060820152600482015461ffff16608082015260058201805460a09092019161191e9061354b565b80601f016020809104026020016040519081016040528092919081815260200182805461194a9061354b565b80156119975780601f1061196c57610100808354040283529160200191611997565b820191906000526020600020905b81548152906001019060200180831161197a57829003601f168201915b505050505081525050905092915050565b6101305460405162f577a560e81b8152600481018590526000916001600160a01b03169063f577a5009060240160006040518083038186803b1580156119ed57600080fd5b505afa158015611a01573d6000803e3d6000fd5b505061012f54600092506001600160a01b0316905063438b6300611a23612306565b6040516001600160e01b031960e084901b1681526001600160a01b03909116600482015260240160206040518083038186803b158015611a6257600080fd5b505afa158015611a76573d6000803e3d6000fd5b505050506040513d601f19601f82011682018060405250810190611a9a919061338e565b9050611aad60048283600088888b6125ce565b9150505b9392505050565b610131602052600090815260409020805460018201546002830154600384015460048501805460ff90951695939492939192611af39061354b565b80601f0160208091040260200160405190810160405280929190818152602001828054611b1f9061354b565b8015611b6c5780601f10611b4157610100808354040283529160200191611b6c565b820191906000526020600020905b815481529060010190602001808311611b4f57829003601f168201915b5050505050908060050154908060060154908060070154905088565b61013260209081526000928352604080842090915290825290208054600182015460028301546003840154600485015460058601805460ff9096169694956001600160a01b0390941694929361ffff9092169291611be59061354b565b80601f0160208091040260200160405190810160405280929190818152602001828054611c119061354b565b8015611c5e5780601f10611c3357610100808354040283529160200191611c5e565b820191906000526020600020905b815481529060010190602001808311611c4157829003601f168201915b5050505050905086565b611c706121f5565b6001600160a01b038216158015611c8657508015155b80611c9957506001600160a01b03821615155b611ce55760405162461bcd60e51b815260206004820152601d60248201527f4f776e65722063616e27742072656d6f7665204f7820616464726573730000006044820152606401610856565b6001600160a01b03821660008181526101336020908152604091829020805460ff19168515159081179091558251938452908301527fd138accc17a5df6552bf13624802a01fc56a160f1e6e6247743ccd07ed99a7c9910160405180910390a15050565b600082815260fc6020526040902060010154611d648161226e565b6107d58383612315565b611db76040805161010081019091528060008152602001600081526020016000815260200160008152602001606081526020016000815260200160008152602001600081525090565b61012e548210611e095760405162461bcd60e51b815260206004820152601a60248201527f54686973207365727669636520646f65736e27742065786973740000000000006044820152606401610856565b6000828152610131602052604090819020815161010081019092528054829060ff166004811115611e3c57611e3c613058565b6004811115611e4d57611e4d613058565b8152602001600182015481526020016002820154815260200160038201548152602001600482018054611e7f9061354b565b80601f0160208091040260200160405190810160405280929190818152602001828054611eab9061354b565b8015611ef85780601f10611ecd57610100808354040283529160200191611ef8565b820191906000526020600020905b815481529060010190602001808311611edb57829003601f168201915b5050505050815260200160058201548152602001600682015481526020016007820154815250509050919050565b611f2e6121f5565b6001600160a01b038116611f935760405162461bcd60e51b815260206004820152602660248201527f4f776e61626c653a206e6577206f776e657220697320746865207a65726f206160448201526564647265737360d01b6064820152608401610856565b61094a8161257c565b60008381526101316020526040902061012e548410611ffd5760405162461bcd60e51b815260206004820152601a60248201527f54686973207365727669636520646f65736e27742065786973740000000000006044820152606401610856565b6004815460ff16600481111561201557612015613058565b148061203657506000815460ff16600481111561203457612034613058565b145b6120945760405162461bcd60e51b815260206004820152602960248201527f53657276696365207374617475732073686f756c64206265206f70656e6564206044820152681bdc88199a5b1b195960ba1b6064820152608401610856565b61012f546001600160a01b031663438b63006120ae612306565b6040516001600160e01b031960e084901b1681526001600160a01b03909116600482015260240160206040518083038186803b1580156120ed57600080fd5b505afa158015612101573d6000803e3d6000fd5b505050506040513d601f19601f82011682018060405250810190612125919061338e565b8160030154146121895760405162461bcd60e51b815260206004820152602960248201527f4f6e6c792074686520696e69746961746f722063616e2075706461746520746860448201526865207365727669636560b81b6064820152608401610856565b816121a65760405162461bcd60e51b815260040161085690613421565b6121b4600482018484612ca7565b50837f1cae99404f615a4039d85b1009cb70622aae6d64f671e8b1b191d9269847d43e84846040516121e7929190613586565b60405180910390a250505050565b6121fd612306565b6001600160a01b03166122186033546001600160a01b031690565b6001600160a01b0316146114ba5760405162461bcd60e51b815260206004820181905260248201527f4f776e61626c653a2063616c6c6572206973206e6f7420746865206f776e65726044820152606401610856565b61094a8161227a612306565b612773565b61228982826114bc565b61086957600082815260fc602090815260408083206001600160a01b03851684529091529020805460ff191660011790556122c2612306565b6001600160a01b0316816001600160a01b0316837f2f8788117e7eff1d82e926ec794901d17c78024a50270940304540a733656f0d60405160405180910390a45050565b60006123106127cc565b905090565b61231f82826114bc565b1561086957600082815260fc602090815260408083206001600160a01b03851684529091529020805460ff19169055612356612306565b6001600160a01b0316816001600160a01b0316837ff6391f5c32d9c69d2a47ea670b442974b53935d1edc7fd64eb21e047a839171b60405160405180910390a45050565b61094a6121f5565b7f4910fdfa16fed3260ed0e7147f7cc6da11a60208b5b9406d12a635614ffd91435460ff16156123d5576107d583612805565b826001600160a01b03166352d1902d6040518163ffffffff1660e01b815260040160206040518083038186803b15801561240e57600080fd5b505afa92505050801561243e575060408051601f3d908101601f1916820190925261243b9181019061338e565b60015b6124a15760405162461bcd60e51b815260206004820152602e60248201527f45524331393637557067726164653a206e657720696d706c656d656e7461746960448201526d6f6e206973206e6f74205555505360901b6064820152608401610856565b60008051602061370883398151915281146125105760405162461bcd60e51b815260206004820152602960248201527f45524331393637557067726164653a20756e737570706f727465642070726f786044820152681a58589b195555525160ba1b6064820152608401610856565b506107d58383836128a1565b600054610100900460ff166125435760405162461bcd60e51b81526004016108569061359a565b6114ba6128cc565b600054610100900460ff166114ba5760405162461bcd60e51b81526004016108569061359a565b610869828261227f565b603380546001600160a01b038381166001600160a01b0319831681179093556040519116919082907f8be0079c531659141344cd1fd0a4f28419497f9722a3daafe3b4186f6b6457e090600090a35050565b60008087116125ef5760405162461bcd60e51b8152600401610856906133a7565b8585141561264a5760405162461bcd60e51b815260206004820152602260248201527f53656c6c657220616e642062757965722063616e2774206265207468652073616044820152616d6560f01b6064820152608401610856565b826126675760405162461bcd60e51b815260040161085690613421565b61012e8054908190600061267a8361346e565b909155505060008181526101316020526040902080548a90829060ff191660018360048111156126ac576126ac613058565b02179055506001810188905560028101879055600381018990556126d4600482018787612ca7565b506007810184905560408051838152602081018a9052908101889052606081018a9052608081018590527f9cd325e0ba2126728b21176b4b24c49c672e66820627759eedcab6b5dd7dac499060a00160405180910390a17f4874366e887bb729d49976a8f6751c4263d1668fd396db9b8d5f037895e7a74582878760405161275e939291906135e5565b60405180910390a15098975050505050505050565b61277d82826114bc565b6108695761278a81612903565b612795836020612915565b6040516020016127a69291906135ff565b60408051601f198184030181529082905262461bcd60e51b825261085691600401613674565b6000601436108015906127ee57503360009081526065602052604090205460ff165b15612800575060131936013560601c90565b503390565b6001600160a01b0381163b6128725760405162461bcd60e51b815260206004820152602d60248201527f455243313936373a206e657720696d706c656d656e746174696f6e206973206e60448201526c1bdd08184818dbdb9d1c9858dd609a1b6064820152608401610856565b60008051602061370883398151915280546001600160a01b0319166001600160a01b0392909216919091179055565b6128aa83612ab1565b6000825111806128b75750805b156107d5576128c68383612af1565b50505050565b600054610100900460ff166128f35760405162461bcd60e51b81526004016108569061359a565b6114ba6128fe612306565b61257c565b60606107476001600160a01b03831660145b60606000612924836002613687565b61292f9060026136a6565b67ffffffffffffffff81111561294757612947612e22565b6040519080825280601f01601f191660200182016040528015612971576020820181803683370190505b509050600360fc1b8160008151811061298c5761298c6136be565b60200101906001600160f81b031916908160001a905350600f60fb1b816001815181106129bb576129bb6136be565b60200101906001600160f81b031916908160001a90535060006129df846002613687565b6129ea9060016136a6565b90505b6001811115612a62576f181899199a1a9b1b9c1cb0b131b232b360811b85600f1660108110612a1e57612a1e6136be565b1a60f81b828281518110612a3457612a346136be565b60200101906001600160f81b031916908160001a90535060049490941c93612a5b816136d4565b90506129ed565b508315611ab15760405162461bcd60e51b815260206004820181905260248201527f537472696e67733a20686578206c656e67746820696e73756666696369656e746044820152606401610856565b612aba81612805565b6040516001600160a01b038216907fbc7cd75a20ee27fd9adebab32041f755214dbc6bffa90cc0225b39da2e5c2d3b90600090a250565b60606001600160a01b0383163b612b595760405162461bcd60e51b815260206004820152602660248201527f416464726573733a2064656c65676174652063616c6c20746f206e6f6e2d636f6044820152651b9d1c9858dd60d21b6064820152608401610856565b600080846001600160a01b031684604051612b7491906136eb565b600060405180830381855af49150503d8060008114612baf576040519150601f19603f3d011682016040523d82523d6000602084013e612bb4565b606091505b5091509150612bdc828260405180606001604052806027815260200161372860279139612be5565b95945050505050565b60608315612bf4575081611ab1565b611ab18383815115612c095781518083602001fd5b8060405162461bcd60e51b81526004016108569190613674565b828054612c2f9061354b565b90600052602060002090601f016020900481019282612c515760008555612c97565b82601f10612c6a57805160ff1916838001178555612c97565b82800160010185558215612c97579182015b82811115612c97578251825591602001919060010190612c7c565b50612ca3929150612d1b565b5090565b828054612cb39061354b565b90600052602060002090601f016020900481019282612cd55760008555612c97565b82601f10612cee5782800160ff19823516178555612c97565b82800160010185558215612c97579182015b82811115612c97578235825591602001919060010190612d00565b5b80821115612ca35760008155600101612d1c565b600060208284031215612d4257600080fd5b81356001600160e01b031981168114611ab157600080fd5b600060208284031215612d6c57600080fd5b5035919050565b80356001600160a01b0381168114612d8a57600080fd5b919050565b600060208284031215612da157600080fd5b611ab182612d73565b60008060408385031215612dbd57600080fd5b82359150612dcd60208401612d73565b90509250929050565b60008060408385031215612de957600080fd5b50508035926020909101359150565b60008060408385031215612e0b57600080fd5b612e1483612d73565b9150612dcd60208401612d73565b634e487b7160e01b600052604160045260246000fd5b60008060408385031215612e4b57600080fd5b612e5483612d73565b9150602083013567ffffffffffffffff80821115612e7157600080fd5b818501915085601f830112612e8557600080fd5b813581811115612e9757612e97612e22565b604051601f8201601f19908116603f01168101908382118183101715612ebf57612ebf612e22565b81604052828152886020848701011115612ed857600080fd5b8260208601602083013760006020848301015280955050505050509250929050565b60008083601f840112612f0c57600080fd5b50813567ffffffffffffffff811115612f2457600080fd5b602083019150836020828501011115612f3c57600080fd5b9250929050565b60008060008060008060a08789031215612f5c57600080fd5b86359550612f6c60208801612d73565b945060408701359350606087013561ffff81168114612f8a57600080fd5b9250608087013567ffffffffffffffff811115612fa657600080fd5b612fb289828a01612efa565b979a9699509497509295939492505050565b600080600060608486031215612fd957600080fd5b505081359360208301359350604090920135919050565b60008060008060006080868803121561300857600080fd5b8535945061301860208701612d73565b935060408601359250606086013567ffffffffffffffff81111561303b57600080fd5b61304788828901612efa565b969995985093965092949392505050565b634e487b7160e01b600052602160045260246000fd5b6003811061307e5761307e613058565b9052565b60005b8381101561309d578181015183820152602001613085565b838111156128c65750506000910152565b600081518084526130c6816020860160208601613082565b601f01601f19169290920160200192915050565b602081526130ec60208201835161306e565b6020820151604082015260018060a01b0360408301511660608201526060820151608082015261ffff60808301511660a0820152600060a083015160c08084015261313a60e08401826130ae565b949350505050565b60008060006040848603121561315757600080fd5b83359250602084013567ffffffffffffffff81111561317557600080fd5b61318186828701612efa565b9497909650939450505050565b6005811061307e5761307e613058565b60006101006131ad838c61318e565b8960208401528860408401528760608401528060808401526131d1818401886130ae565b60a0840196909652505060c081019290925260e09091015295945050505050565b6131fc818861306e565b85602082015260018060a01b038516604082015283606082015261ffff8316608082015260c060a0820152600061323660c08301846130ae565b98975050505050505050565b6000806040838503121561325557600080fd5b61325e83612d73565b91506020830135801515811461327357600080fd5b809150509250929050565b6020815261329060208201835161318e565b602082015160408201526040820151606082015260608201516080820152600060808301516101008060a08501526132cc6101208501836130ae565b915060a085015160c085015260c085015160e085015260e085015181850152508091505092915050565b6020808252602c908201527f46756e6374696f6e206d7573742062652063616c6c6564207468726f7567682060408201526b19195b1959d85d1958d85b1b60a21b606082015260800190565b6020808252602c908201527f46756e6374696f6e206d7573742062652063616c6c6564207468726f7567682060408201526b6163746976652070726f787960a01b606082015260800190565b6000602082840312156133a057600080fd5b5051919050565b6020808252601f908201527f596f752073686f756c64206861766520612054616c656e744c61796572496400604082015260600190565b60208082526023908201527f50726f706f73616c2068617320616c7265616479206265656e2076616c6964616040820152621d195960ea1b606082015260800190565b6020808252601f908201527f53686f756c642070726f7669646520612076616c696420495046532055524900604082015260600190565b634e487b7160e01b600052601160045260246000fd5b600060001982141561348257613482613458565b5060010190565b81835281816020850137506000828201602090810191909152601f909101601f19169091010190565b88815287602082015260e0604082015260006134d260e08301888a613489565b90506134e1606083018761306e565b6001600160a01b0394909416608082015260a081019290925261ffff1660c09091015295945050505050565b86815285602082015260a06040820152600061352d60a083018688613489565b6001600160a01b039490941660608301525060800152949350505050565b600181811c9082168061355f57607f821691505b6020821081141561358057634e487b7160e01b600052602260045260246000fd5b50919050565b60208152600061313a602083018486613489565b6020808252602b908201527f496e697469616c697a61626c653a20636f6e7472616374206973206e6f74206960408201526a6e697469616c697a696e6760a81b606082015260800190565b838152604060208201526000612bdc604083018486613489565b7f416363657373436f6e74726f6c3a206163636f756e7420000000000000000000815260008351613637816017850160208801613082565b7001034b99036b4b9b9b4b733903937b6329607d1b6017918401918201528351613668816028840160208801613082565b01602801949350505050565b602081526000611ab160208301846130ae565b60008160001904831182151516156136a1576136a1613458565b500290565b600082198211156136b9576136b9613458565b500190565b634e487b7160e01b600052603260045260246000fd5b6000816136e3576136e3613458565b506000190190565b600082516136fd818460208701613082565b919091019291505056fe360894a13ba1a3210667c828492db98dca3e2076cc3735a920a3ca505d382bbc416464726573733a206c6f772d6c6576656c2064656c65676174652063616c6c206661696c6564a264697066735822122006f6041cb80a94b82e0be31f7ce1812a4798258415418f5865da51315f63f8e164736f6c63430008090033",
  "linkReferences": {},
  "deployedLinkReferences": {}
}