{
  "_format": "hh-sol-artifact-1",
  "contractName": "ServiceRegistry",
  "sourceName": "contracts/ServiceRegistry.sol",
  "abi": [
    {
      "inputs": [],
      "stateMutability": "nonpayable",
      "type": "constructor"
    },
    {
      "anonymous": false,
      "inputs": [
        {
          "indexed": false,
          "internalType": "address",
          "name": "previousAdmin",
          "type": "address"
        },
        {
          "indexed": false,
          "internalType": "address",
          "name": "newAdmin",
          "type": "address"
        }
      ],
      "name": "AdminChanged",
      "type": "event"
    },
    {
      "anonymous": false,
      "inputs": [
        {
          "indexed": false,
          "internalType": "address",
          "name": "_tokenAddress",
          "type": "address"
        },
        {
          "indexed": false,
          "internalType": "bool",
          "name": "_status",
          "type": "bool"
        }
      ],
      "name": "AllowedTokenListUpdated",
      "type": "event"
    },
    {
      "anonymous": false,
      "inputs": [
        {
          "indexed": true,
          "internalType": "address",
          "name": "beacon",
          "type": "address"
        }
      ],
      "name": "BeaconUpgraded",
      "type": "event"
    },
    {
      "anonymous": false,
      "inputs": [
        {
          "indexed": false,
          "internalType": "uint8",
          "name": "version",
          "type": "uint8"
        }
      ],
      "name": "Initialized",
      "type": "event"
    },
    {
      "anonymous": false,
      "inputs": [
        {
          "indexed": true,
          "internalType": "address",
          "name": "previousOwner",
          "type": "address"
        },
        {
          "indexed": true,
          "internalType": "address",
          "name": "newOwner",
          "type": "address"
        }
      ],
      "name": "OwnershipTransferred",
      "type": "event"
    },
    {
      "anonymous": false,
      "inputs": [
        {
          "indexed": false,
          "internalType": "uint256",
          "name": "serviceId",
          "type": "uint256"
        },
        {
          "indexed": false,
          "internalType": "uint256",
          "name": "sellerId",
          "type": "uint256"
        },
        {
          "indexed": false,
          "internalType": "string",
          "name": "proposalDataUri",
          "type": "string"
        },
        {
          "indexed": false,
          "internalType": "enum ServiceRegistry.ProposalStatus",
          "name": "status",
          "type": "uint8"
        },
        {
          "indexed": false,
          "internalType": "address",
          "name": "rateToken",
          "type": "address"
        },
        {
          "indexed": false,
          "internalType": "uint256",
          "name": "rateAmount",
          "type": "uint256"
        },
        {
          "indexed": false,
          "internalType": "uint16",
          "name": "platformId",
          "type": "uint16"
        }
      ],
      "name": "ProposalCreated",
      "type": "event"
    },
    {
      "anonymous": false,
      "inputs": [
        {
          "indexed": false,
          "internalType": "uint256",
          "name": "serviceId",
          "type": "uint256"
        },
        {
          "indexed": false,
          "internalType": "uint256",
          "name": "sellerId",
          "type": "uint256"
        }
      ],
      "name": "ProposalRejected",
      "type": "event"
    },
    {
      "anonymous": false,
      "inputs": [
        {
          "indexed": false,
          "internalType": "uint256",
          "name": "serviceId",
          "type": "uint256"
        },
        {
          "indexed": false,
          "internalType": "uint256",
          "name": "sellerId",
          "type": "uint256"
        },
        {
          "indexed": false,
          "internalType": "string",
          "name": "proposalDataUri",
          "type": "string"
        },
        {
          "indexed": false,
          "internalType": "address",
          "name": "rateToken",
          "type": "address"
        },
        {
          "indexed": false,
          "internalType": "uint256",
          "name": "rateAmount",
          "type": "uint256"
        }
      ],
      "name": "ProposalUpdated",
      "type": "event"
    },
    {
      "anonymous": false,
      "inputs": [
        {
          "indexed": false,
          "internalType": "uint256",
          "name": "serviceId",
          "type": "uint256"
        },
        {
          "indexed": false,
          "internalType": "uint256",
          "name": "sellerId",
          "type": "uint256"
        }
      ],
      "name": "ProposalValidated",
      "type": "event"
    },
    {
      "anonymous": false,
      "inputs": [
        {
          "indexed": true,
          "internalType": "bytes32",
          "name": "role",
          "type": "bytes32"
        },
        {
          "indexed": true,
          "internalType": "bytes32",
          "name": "previousAdminRole",
          "type": "bytes32"
        },
        {
          "indexed": true,
          "internalType": "bytes32",
          "name": "newAdminRole",
          "type": "bytes32"
        }
      ],
      "name": "RoleAdminChanged",
      "type": "event"
    },
    {
      "anonymous": false,
      "inputs": [
        {
          "indexed": true,
          "internalType": "bytes32",
          "name": "role",
          "type": "bytes32"
        },
        {
          "indexed": true,
          "internalType": "address",
          "name": "account",
          "type": "address"
        },
        {
          "indexed": true,
          "internalType": "address",
          "name": "sender",
          "type": "address"
        }
      ],
      "name": "RoleGranted",
      "type": "event"
    },
    {
      "anonymous": false,
      "inputs": [
        {
          "indexed": true,
          "internalType": "bytes32",
          "name": "role",
          "type": "bytes32"
        },
        {
          "indexed": true,
          "internalType": "address",
          "name": "account",
          "type": "address"
        },
        {
          "indexed": true,
          "internalType": "address",
          "name": "sender",
          "type": "address"
        }
      ],
      "name": "RoleRevoked",
      "type": "event"
    },
    {
      "anonymous": false,
      "inputs": [
        {
          "indexed": false,
          "internalType": "uint256",
          "name": "id",
          "type": "uint256"
        }
      ],
      "name": "ServiceCancelled",
      "type": "event"
    },
    {
      "anonymous": false,
      "inputs": [
        {
          "indexed": false,
          "internalType": "uint256",
          "name": "id",
          "type": "uint256"
        },
        {
          "indexed": false,
          "internalType": "uint256",
          "name": "buyerId",
          "type": "uint256"
        },
        {
          "indexed": false,
          "internalType": "uint256",
          "name": "sellerId",
          "type": "uint256"
        },
        {
          "indexed": false,
          "internalType": "uint256",
          "name": "initiatorId",
          "type": "uint256"
        },
        {
          "indexed": false,
          "internalType": "uint256",
          "name": "platformId",
          "type": "uint256"
        }
      ],
      "name": "ServiceCreated",
      "type": "event"
    },
    {
      "anonymous": false,
      "inputs": [
        {
          "indexed": false,
          "internalType": "uint256",
          "name": "id",
          "type": "uint256"
        },
        {
          "indexed": false,
          "internalType": "string",
          "name": "serviceDataUri",
          "type": "string"
        }
      ],
      "name": "ServiceDataCreated",
      "type": "event"
    },
    {
      "anonymous": false,
      "inputs": [
        {
          "indexed": true,
          "internalType": "uint256",
          "name": "id",
          "type": "uint256"
        },
        {
          "indexed": false,
          "internalType": "string",
          "name": "newServiceDataUri",
          "type": "string"
        }
      ],
      "name": "ServiceDetailedUpdated",
      "type": "event"
    },
    {
      "anonymous": false,
      "inputs": [
        {
          "indexed": false,
          "internalType": "address",
          "name": "forwarder",
          "type": "address"
        }
      ],
      "name": "TrustedForwarderAdded",
      "type": "event"
    },
    {
      "anonymous": false,
      "inputs": [
        {
          "indexed": false,
          "internalType": "address",
          "name": "forwarder",
          "type": "address"
        }
      ],
      "name": "TrustedForwarderRemoved",
      "type": "event"
    },
    {
      "anonymous": false,
      "inputs": [
        {
          "indexed": true,
          "internalType": "address",
          "name": "implementation",
          "type": "address"
        }
      ],
      "name": "Upgraded",
      "type": "event"
    },
    {
      "inputs": [],
      "name": "DEFAULT_ADMIN_ROLE",
      "outputs": [
        {
          "internalType": "bytes32",
          "name": "",
          "type": "bytes32"
        }
      ],
      "stateMutability": "view",
      "type": "function"
    },
    {
      "inputs": [],
      "name": "ESCROW_ROLE",
      "outputs": [
        {
          "internalType": "bytes32",
          "name": "",
          "type": "bytes32"
        }
      ],
      "stateMutability": "view",
      "type": "function"
    },
    {
      "inputs": [
        {
          "internalType": "address",
          "name": "_forwarder",
          "type": "address"
        }
      ],
      "name": "addTrustedForwarder",
      "outputs": [],
      "stateMutability": "nonpayable",
      "type": "function"
    },
    {
      "inputs": [
        {
          "internalType": "uint256",
          "name": "_serviceId",
          "type": "uint256"
        },
        {
          "internalType": "uint256",
          "name": "_proposalId",
          "type": "uint256"
        },
        {
          "internalType": "uint256",
          "name": "_transactionId",
          "type": "uint256"
        }
      ],
      "name": "afterDeposit",
      "outputs": [],
      "stateMutability": "nonpayable",
      "type": "function"
    },
    {
      "inputs": [
        {
          "internalType": "uint256",
          "name": "_serviceId",
          "type": "uint256"
        }
      ],
      "name": "afterFullPayment",
      "outputs": [],
      "stateMutability": "nonpayable",
      "type": "function"
    },
    {
      "inputs": [
        {
          "internalType": "address",
          "name": "",
          "type": "address"
        }
      ],
      "name": "allowedTokenList",
      "outputs": [
        {
          "internalType": "bool",
          "name": "",
          "type": "bool"
        }
      ],
      "stateMutability": "view",
      "type": "function"
    },
    {
      "inputs": [
        {
          "internalType": "uint256",
          "name": "_serviceId",
          "type": "uint256"
        }
      ],
      "name": "cancelService",
      "outputs": [],
      "stateMutability": "nonpayable",
      "type": "function"
    },
    {
      "inputs": [
        {
          "internalType": "uint256",
          "name": "_tokenId",
          "type": "uint256"
        },
        {
          "internalType": "uint256",
          "name": "_platformId",
          "type": "uint256"
        },
        {
          "internalType": "string",
          "name": "_serviceDataUri",
          "type": "string"
        }
      ],
      "name": "createOpenServiceFromBuyer",
      "outputs": [
        {
          "internalType": "uint256",
          "name": "",
          "type": "uint256"
        }
      ],
      "stateMutability": "payable",
      "type": "function"
    },
    {
      "inputs": [
        {
          "internalType": "uint256",
          "name": "_tokenId",
          "type": "uint256"
        },
        {
          "internalType": "uint256",
          "name": "_serviceId",
          "type": "uint256"
        },
        {
          "internalType": "address",
          "name": "_rateToken",
          "type": "address"
        },
        {
          "internalType": "uint256",
          "name": "_rateAmount",
          "type": "uint256"
        },
        {
          "internalType": "uint16",
          "name": "_platformId",
          "type": "uint16"
        },
        {
          "internalType": "string",
          "name": "_proposalDataUri",
          "type": "string"
        }
      ],
      "name": "createProposal",
      "outputs": [],
      "stateMutability": "payable",
      "type": "function"
    },
    {
      "inputs": [
        {
          "internalType": "uint256",
          "name": "_serviceId",
          "type": "uint256"
        },
        {
          "internalType": "uint256",
          "name": "_proposalId",
          "type": "uint256"
        }
      ],
      "name": "getProposal",
      "outputs": [
        {
          "components": [
            {
              "internalType": "enum ServiceRegistry.ProposalStatus",
              "name": "status",
              "type": "uint8"
            },
            {
              "internalType": "uint256",
              "name": "sellerId",
              "type": "uint256"
            },
            {
              "internalType": "address",
              "name": "rateToken",
              "type": "address"
            },
            {
              "internalType": "uint256",
              "name": "rateAmount",
              "type": "uint256"
            },
            {
              "internalType": "uint16",
              "name": "platformId",
              "type": "uint16"
            },
            {
              "internalType": "string",
              "name": "proposalDataUri",
              "type": "string"
            }
          ],
          "internalType": "struct ServiceRegistry.Proposal",
          "name": "",
          "type": "tuple"
        }
      ],
      "stateMutability": "view",
      "type": "function"
    },
    {
      "inputs": [
        {
          "internalType": "bytes32",
          "name": "role",
          "type": "bytes32"
        }
      ],
      "name": "getRoleAdmin",
      "outputs": [
        {
          "internalType": "bytes32",
          "name": "",
          "type": "bytes32"
        }
      ],
      "stateMutability": "view",
      "type": "function"
    },
    {
      "inputs": [
        {
          "internalType": "uint256",
          "name": "_serviceId",
          "type": "uint256"
        }
      ],
      "name": "getService",
      "outputs": [
        {
          "components": [
            {
              "internalType": "enum ServiceRegistry.Status",
              "name": "status",
              "type": "uint8"
            },
            {
              "internalType": "uint256",
              "name": "buyerId",
              "type": "uint256"
            },
            {
              "internalType": "uint256",
              "name": "sellerId",
              "type": "uint256"
            },
            {
              "internalType": "uint256",
              "name": "initiatorId",
              "type": "uint256"
            },
            {
              "internalType": "string",
              "name": "serviceDataUri",
              "type": "string"
            },
            {
              "internalType": "uint256",
              "name": "countProposals",
              "type": "uint256"
            },
            {
              "internalType": "uint256",
              "name": "transactionId",
              "type": "uint256"
            },
            {
              "internalType": "uint256",
              "name": "platformId",
              "type": "uint256"
            }
          ],
          "internalType": "struct ServiceRegistry.Service",
          "name": "",
          "type": "tuple"
        }
      ],
      "stateMutability": "view",
      "type": "function"
    },
    {
      "inputs": [
        {
          "internalType": "bytes32",
          "name": "role",
          "type": "bytes32"
        },
        {
          "internalType": "address",
          "name": "account",
          "type": "address"
        }
      ],
      "name": "grantRole",
      "outputs": [],
      "stateMutability": "nonpayable",
      "type": "function"
    },
    {
      "inputs": [
        {
          "internalType": "bytes32",
          "name": "role",
          "type": "bytes32"
        },
        {
          "internalType": "address",
          "name": "account",
          "type": "address"
        }
      ],
      "name": "hasRole",
      "outputs": [
        {
          "internalType": "bool",
          "name": "",
          "type": "bool"
        }
      ],
      "stateMutability": "view",
      "type": "function"
    },
    {
      "inputs": [
        {
          "internalType": "address",
          "name": "_talentLayerIdAddress",
          "type": "address"
        },
        {
          "internalType": "address",
          "name": "_talentLayerPlatformIdAddress",
          "type": "address"
        }
      ],
      "name": "initialize",
      "outputs": [],
      "stateMutability": "nonpayable",
      "type": "function"
    },
    {
      "inputs": [
        {
          "internalType": "address",
          "name": "_tokenAddress",
          "type": "address"
        }
      ],
      "name": "isTokenAllowed",
      "outputs": [
        {
          "internalType": "bool",
          "name": "",
          "type": "bool"
        }
      ],
      "stateMutability": "view",
      "type": "function"
    },
    {
      "inputs": [
        {
          "internalType": "address",
          "name": "forwarder",
          "type": "address"
        }
      ],
      "name": "isTrustedForwarder",
      "outputs": [
        {
          "internalType": "bool",
          "name": "",
          "type": "bool"
        }
      ],
      "stateMutability": "view",
      "type": "function"
    },
    {
      "inputs": [],
      "name": "nextServiceId",
      "outputs": [
        {
          "internalType": "uint256",
          "name": "",
          "type": "uint256"
        }
      ],
      "stateMutability": "view",
      "type": "function"
    },
    {
      "inputs": [],
      "name": "owner",
      "outputs": [
        {
          "internalType": "address",
          "name": "",
          "type": "address"
        }
      ],
      "stateMutability": "view",
      "type": "function"
    },
    {
      "inputs": [
        {
          "internalType": "uint256",
          "name": "",
          "type": "uint256"
        },
        {
          "internalType": "uint256",
          "name": "",
          "type": "uint256"
        }
      ],
      "name": "proposals",
      "outputs": [
        {
          "internalType": "enum ServiceRegistry.ProposalStatus",
          "name": "status",
          "type": "uint8"
        },
        {
          "internalType": "uint256",
          "name": "sellerId",
          "type": "uint256"
        },
        {
          "internalType": "address",
          "name": "rateToken",
          "type": "address"
        },
        {
          "internalType": "uint256",
          "name": "rateAmount",
          "type": "uint256"
        },
        {
          "internalType": "uint16",
          "name": "platformId",
          "type": "uint16"
        },
        {
          "internalType": "string",
          "name": "proposalDataUri",
          "type": "string"
        }
      ],
      "stateMutability": "view",
      "type": "function"
    },
    {
      "inputs": [],
      "name": "proxiableUUID",
      "outputs": [
        {
          "internalType": "bytes32",
          "name": "",
          "type": "bytes32"
        }
      ],
      "stateMutability": "view",
      "type": "function"
    },
    {
      "inputs": [
        {
          "internalType": "uint256",
          "name": "_tokenId",
          "type": "uint256"
        },
        {
          "internalType": "uint256",
          "name": "_serviceId",
          "type": "uint256"
        },
        {
          "internalType": "uint256",
          "name": "_proposalId",
          "type": "uint256"
        }
      ],
      "name": "rejectProposal",
      "outputs": [],
      "stateMutability": "nonpayable",
      "type": "function"
    },
    {
      "inputs": [
        {
          "internalType": "address",
          "name": "_forwarder",
          "type": "address"
        }
      ],
      "name": "removeTrustedForwarder",
      "outputs": [],
      "stateMutability": "nonpayable",
      "type": "function"
    },
    {
      "inputs": [],
      "name": "renounceOwnership",
      "outputs": [],
      "stateMutability": "nonpayable",
      "type": "function"
    },
    {
      "inputs": [
        {
          "internalType": "bytes32",
          "name": "role",
          "type": "bytes32"
        },
        {
          "internalType": "address",
          "name": "account",
          "type": "address"
        }
      ],
      "name": "renounceRole",
      "outputs": [],
      "stateMutability": "nonpayable",
      "type": "function"
    },
    {
      "inputs": [
        {
          "internalType": "bytes32",
          "name": "role",
          "type": "bytes32"
        },
        {
          "internalType": "address",
          "name": "account",
          "type": "address"
        }
      ],
      "name": "revokeRole",
      "outputs": [],
      "stateMutability": "nonpayable",
      "type": "function"
    },
    {
      "inputs": [
        {
          "internalType": "uint256",
          "name": "",
          "type": "uint256"
        }
      ],
      "name": "services",
      "outputs": [
        {
          "internalType": "enum ServiceRegistry.Status",
          "name": "status",
          "type": "uint8"
        },
        {
          "internalType": "uint256",
          "name": "buyerId",
          "type": "uint256"
        },
        {
          "internalType": "uint256",
          "name": "sellerId",
          "type": "uint256"
        },
        {
          "internalType": "uint256",
          "name": "initiatorId",
          "type": "uint256"
        },
        {
          "internalType": "string",
          "name": "serviceDataUri",
          "type": "string"
        },
        {
          "internalType": "uint256",
          "name": "countProposals",
          "type": "uint256"
        },
        {
          "internalType": "uint256",
          "name": "transactionId",
          "type": "uint256"
        },
        {
          "internalType": "uint256",
          "name": "platformId",
          "type": "uint256"
        }
      ],
      "stateMutability": "view",
      "type": "function"
    },
    {
      "inputs": [
        {
          "internalType": "bytes4",
          "name": "interfaceId",
          "type": "bytes4"
        }
      ],
      "name": "supportsInterface",
      "outputs": [
        {
          "internalType": "bool",
          "name": "",
          "type": "bool"
        }
      ],
      "stateMutability": "view",
      "type": "function"
    },
    {
      "inputs": [],
      "name": "talentLayerPlatformIdContract",
      "outputs": [
        {
          "internalType": "contract ITalentLayerPlatformID",
          "name": "",
          "type": "address"
        }
      ],
      "stateMutability": "view",
      "type": "function"
    },
    {
      "inputs": [
        {
          "internalType": "address",
          "name": "newOwner",
          "type": "address"
        }
      ],
      "name": "transferOwnership",
      "outputs": [],
      "stateMutability": "nonpayable",
      "type": "function"
    },
    {
      "inputs": [
        {
          "internalType": "address",
          "name": "_tokenAddress",
          "type": "address"
        },
        {
          "internalType": "bool",
          "name": "_status",
          "type": "bool"
        }
      ],
      "name": "updateAllowedTokenList",
      "outputs": [],
      "stateMutability": "nonpayable",
      "type": "function"
    },
    {
      "inputs": [
        {
          "internalType": "uint256",
          "name": "_tokenId",
          "type": "uint256"
        },
        {
          "internalType": "uint256",
          "name": "_serviceId",
          "type": "uint256"
        },
        {
          "internalType": "address",
          "name": "_rateToken",
          "type": "address"
        },
        {
          "internalType": "uint256",
          "name": "_rateAmount",
          "type": "uint256"
        },
        {
          "internalType": "string",
          "name": "_proposalDataUri",
          "type": "string"
        }
      ],
      "name": "updateProposal",
      "outputs": [],
      "stateMutability": "nonpayable",
      "type": "function"
    },
    {
      "inputs": [
        {
          "internalType": "uint256",
          "name": "_tokenId",
          "type": "uint256"
        },
        {
          "internalType": "uint256",
          "name": "_serviceId",
          "type": "uint256"
        },
        {
          "internalType": "string",
          "name": "_newServiceDataUri",
          "type": "string"
        }
      ],
      "name": "updateServiceData",
      "outputs": [],
      "stateMutability": "nonpayable",
      "type": "function"
    },
    {
      "inputs": [
        {
          "internalType": "address",
          "name": "newImplementation",
          "type": "address"
        }
      ],
      "name": "upgradeTo",
      "outputs": [],
      "stateMutability": "nonpayable",
      "type": "function"
    },
    {
      "inputs": [
        {
          "internalType": "address",
          "name": "newImplementation",
          "type": "address"
        },
        {
          "internalType": "bytes",
          "name": "data",
          "type": "bytes"
        }
      ],
      "name": "upgradeToAndCall",
      "outputs": [],
      "stateMutability": "payable",
      "type": "function"
    }
  ],
  "bytecode": "0x60a0604052306080523480156200001557600080fd5b506200002062000026565b620000e8565b600054610100900460ff1615620000935760405162461bcd60e51b815260206004820152602760248201527f496e697469616c697a61626c653a20636f6e747261637420697320696e697469604482015266616c697a696e6760c81b606482015260840160405180910390fd5b60005460ff9081161015620000e6576000805460ff191660ff9081179091556040519081527f7f26b83ff96e1f2b6a682f133852f6798a09c465da95921460cefb38474024989060200160405180910390a15b565b6080516139a56200012060003960008181610ece01528181610f0e015281816111b9015281816111f9015261128801526139a56000f3fe6080604052600436106102045760003560e01c80636ce76f3011610118578063aba21009116100a0578063d547741f1161006f578063d547741f1461063e578063ef0e239b1461065e578063f2fde38b1461068b578063f6c53d9b146106ab578063f9eaee0d146106c257600080fd5b8063aba210091461058b578063c22c4f43146105b8578063c2cfee27146105ec578063c90167741461061e57600080fd5b806386326246116100e757806386326246146105055780638da5cb5b1461051857806391d1485414610536578063a217fddf14610556578063a7d5eaea1461056b57600080fd5b80636ce76f3014610478578063715018a6146104ac57806371da85f9146104c157806384b32943146104f257600080fd5b806336568abe1161019b57806349c6559c1161016a57806349c6559c146103d75780634f1ef286146103f757806352d1902d1461040a578063572b6c051461041f57806363a352391461045857600080fd5b806336568abe146103575780633659cfe6146103775780633751d89c14610397578063485cc955146103b757600080fd5b80631499f9e6116101d75780631499f9e6146102a0578063248a9ca3146102d957806326d00668146103175780632f2ff15d1461033757600080fd5b806301ffc9a7146102095780630927e5d41461023e5780630e06602514610260578063148031a114610280575b600080fd5b34801561021557600080fd5b50610229610224366004612da5565b6106fc565b60405190151581526020015b60405180910390f35b34801561024a57600080fd5b5061025e610259366004612dcf565b610733565b005b34801561026c57600080fd5b5061025e61027b366004612e44565b61097d565b34801561028c57600080fd5b5061025e61029b366004612e97565b610c04565b3480156102ac57600080fd5b50610130546102c1906001600160a01b031681565b6040516001600160a01b039091168152602001610235565b3480156102e557600080fd5b506103096102f4366004612e97565b600090815260fc602052604090206001015490565b604051908152602001610235565b34801561032357600080fd5b5061025e610332366004612ecc565b610da9565b34801561034357600080fd5b5061025e610352366004612ee7565b610e0c565b34801561036357600080fd5b5061025e610372366004612ee7565b610e36565b34801561038357600080fd5b5061025e610392366004612ecc565b610ec4565b3480156103a357600080fd5b5061025e6103b2366004612ecc565b610fa3565b3480156103c357600080fd5b5061025e6103d2366004612f13565b610ffc565b3480156103e357600080fd5b5061025e6103f2366004612e97565b611168565b61025e610405366004612f53565b6111af565b34801561041657600080fd5b5061030961127b565b34801561042b57600080fd5b5061022961043a366004612ecc565b6001600160a01b031660009081526065602052604090205460ff1690565b34801561046457600080fd5b5061025e610473366004613015565b61132e565b34801561048457600080fd5b506103097f2fdac322ee704ce09f0773f7f3f92eb98d5e7c836ee9c056cccd5f61041e5e3f81565b3480156104b857600080fd5b5061025e61160f565b3480156104cd57600080fd5b506102296104dc366004612ecc565b6101336020526000908152604090205460ff1681565b610309610500366004612e44565b611623565b61025e610513366004613086565b61179e565b34801561052457600080fd5b506033546001600160a01b03166102c1565b34801561054257600080fd5b50610229610551366004612ee7565b611c63565b34801561056257600080fd5b50610309600081565b34801561057757600080fd5b5061025e610586366004612dcf565b611c8e565b34801561059757600080fd5b506105ab6105a6366004613111565b611d07565b60405161023591906131ad565b3480156105c457600080fd5b506105d86105d3366004612e97565b611e72565b604051610235989796959493929190613225565b3480156105f857600080fd5b5061060c610607366004613111565b611f42565b60405161023596959493929190613279565b34801561062a57600080fd5b5061025e6106393660046132d7565b612022565b34801561064a57600080fd5b5061025e610659366004612ee7565b6120fc565b34801561066a57600080fd5b5061067e610679366004612e97565b612121565b604051610235919061330e565b34801561069757600080fd5b5061025e6106a6366004612ecc565b6122d9565b3480156106b757600080fd5b5061030961012e5481565b3480156106ce57600080fd5b506102296106dd366004612ecc565b6001600160a01b03166000908152610133602052604090205460ff1690565b60006001600160e01b03198216637965db0b60e01b148061072d57506301ffc9a760e01b6001600160e01b03198316145b92915050565b61012f5483906001600160a01b0316632fa117e58261075061234f565b6040516001600160e01b031960e085901b16815260048101929092526001600160a01b03166024820152604401602060405180830381865afa15801561079a573d6000803e3d6000fd5b505050506040513d601f19601f820116820180604052508101906107be9190613386565b6107e35760405162461bcd60e51b81526004016107da906133a3565b60405180910390fd5b60008381526101316020908152604080832061013283528184208685529092529091206001815460ff16600281111561081e5761081e613133565b036108775760405162461bcd60e51b815260206004820152602360248201527f50726f706f73616c2068617320616c7265616479206265656e2076616c6964616044820152621d195960ea1b60648201526084016107da565b6002815460ff16600281111561088f5761088f613133565b036108e75760405162461bcd60e51b815260206004820152602260248201527f50726f706f73616c2068617320616c7265616479206265656e2072656a656374604482015261195960f21b60648201526084016107da565b816001015486146109315760405162461bcd60e51b81526020600482015260146024820152732cb7ba93b932903737ba103a343290313abcb2b960611b60448201526064016107da565b805460ff1916600217815560408051868152602081018690527ffa74c17c82b1d1960368a621d45c9afe55e65c87a2c9fe612ac7e36c382b3f78910160405180910390a1505050505050565b61012f5484906001600160a01b0316632fa117e58261099a61234f565b6040516001600160e01b031960e085901b16815260048101929092526001600160a01b03166024820152604401602060405180830381865afa1580156109e4573d6000803e3d6000fd5b505050506040513d601f19601f82011682018060405250810190610a089190613386565b610a245760405162461bcd60e51b81526004016107da906133a3565b60008481526101316020526040902061012e548510610a855760405162461bcd60e51b815260206004820152601a60248201527f54686973207365727669636520646f65736e277420657869737400000000000060448201526064016107da565b6004815460ff166004811115610a9d57610a9d613133565b1480610abe57506000815460ff166004811115610abc57610abc613133565b145b610b1c5760405162461bcd60e51b815260206004820152602960248201527f53657276696365207374617475732073686f756c64206265206f70656e6564206044820152681bdc88199a5b1b195960ba1b60648201526084016107da565b80600301548614610b955760405162461bcd60e51b815260206004820152603760248201527f4f6e6c792074686520696e69746961746f72206f7220612064656c656761746560448201527f2063616e2075706461746520746865207365727669636500000000000000000060648201526084016107da565b82610bb25760405162461bcd60e51b81526004016107da906133d2565b60048101610bc1848683613491565b50847f1cae99404f615a4039d85b1009cb70622aae6d64f671e8b1b191d9269847d43e8585604051610bf492919061357b565b60405180910390a2505050505050565b600081815261013160205260409081902061012f549151631847c06b60e01b815233600482015290916001600160a01b031690631847c06b90602401602060405180830381865afa158015610c5d573d6000803e3d6000fd5b505050506040513d601f19601f82011682018060405250810190610c81919061358f565b816003015414610ce55760405162461bcd60e51b815260206004820152602960248201527f4f6e6c792074686520696e69746961746f722063616e2063616e63656c20746860448201526865207365727669636560b81b60648201526084016107da565b6004815460ff166004811115610cfd57610cfd613133565b14610d665760405162461bcd60e51b815260206004820152603360248201527f4f6e6c79207365727669636573207769746820746865206f70656e20737461746044820152721d5cc818d85b8818994818d85b98d95b1b1959606a1b60648201526084016107da565b805460ff191660031781556040518281527f853aa4be1ac86f37acfc91d42b57f1fe895205aa6f8f9b7caa77ca257049ab1a906020015b60405180910390a15050565b610db161235e565b6001600160a01b038116600081815260656020908152604091829020805460ff1916600117905590519182527f3ef8564460ada92419608d823c014975d98f8104d7d1e68c222967ac6814cd9791015b60405180910390a150565b600082815260fc6020526040902060010154610e27816123d7565b610e3183836123e8565b505050565b610e3e61234f565b6001600160a01b0316816001600160a01b031614610eb65760405162461bcd60e51b815260206004820152602f60248201527f416363657373436f6e74726f6c3a2063616e206f6e6c792072656e6f756e636560448201526e103937b632b9903337b91039b2b63360891b60648201526084016107da565b610ec0828261246f565b5050565b6001600160a01b037f0000000000000000000000000000000000000000000000000000000000000000163003610f0c5760405162461bcd60e51b81526004016107da906135a8565b7f00000000000000000000000000000000000000000000000000000000000000006001600160a01b0316610f55600080516020613929833981519152546001600160a01b031690565b6001600160a01b031614610f7b5760405162461bcd60e51b81526004016107da906135f4565b610f84816124f4565b60408051600080825260208201909252610fa0918391906124fc565b50565b610fab61235e565b6001600160a01b038116600081815260656020908152604091829020805460ff1916905590519182527fd2d636efcad0cea42e170256f4c5d8b1cd81e47b855557edaf44014e6cc4cee69101610e01565b600054610100900460ff161580801561101c5750600054600160ff909116105b806110365750303b158015611036575060005460ff166001145b6110995760405162461bcd60e51b815260206004820152602e60248201527f496e697469616c697a61626c653a20636f6e747261637420697320616c72656160448201526d191e481a5b9a5d1a585b1a5e995960921b60648201526084016107da565b6000805460ff1916600117905580156110bc576000805461ff0019166101001790555b6110c4612667565b6110cc612696565b6110d4612696565b6110e660006110e161234f565b6126bd565b61012f80546001600160a01b038086166001600160a01b031992831617909255610130805492851692909116919091179055600161012e558015610e31576000805461ff0019169055604051600181527f7f26b83ff96e1f2b6a682f133852f6798a09c465da95921460cefb38474024989060200160405180910390a1505050565b7f2fdac322ee704ce09f0773f7f3f92eb98d5e7c836ee9c056cccd5f61041e5e3f611192816123d7565b50600090815261013160205260409020805460ff19166002179055565b6001600160a01b037f00000000000000000000000000000000000000000000000000000000000000001630036111f75760405162461bcd60e51b81526004016107da906135a8565b7f00000000000000000000000000000000000000000000000000000000000000006001600160a01b0316611240600080516020613929833981519152546001600160a01b031690565b6001600160a01b0316146112665760405162461bcd60e51b81526004016107da906135f4565b61126f826124f4565b610ec0828260016124fc565b6000306001600160a01b037f0000000000000000000000000000000000000000000000000000000000000000161461131b5760405162461bcd60e51b815260206004820152603860248201527f555550535570677261646561626c653a206d757374206e6f742062652063616c60448201527f6c6564207468726f7567682064656c656761746563616c6c000000000000000060648201526084016107da565b5060008051602061392983398151915290565b61012f5486906001600160a01b0316632fa117e58261134b61234f565b6040516001600160e01b031960e085901b16815260048101929092526001600160a01b03166024820152604401602060405180830381865afa158015611395573d6000803e3d6000fd5b505050506040513d601f19601f820116820180604052508101906113b99190613386565b6113d55760405162461bcd60e51b81526004016107da906133a3565b6001600160a01b0385166000908152610133602052604090205460ff1661143a5760405162461bcd60e51b8152602060048201526019602482015278151a1a5cc81d1bdad95b881a5cc81b9bdd08185b1b1bddd959603a1b60448201526064016107da565b60008681526101316020908152604080832061013283528184208b85529092529091206004825460ff16600481111561147557611475613133565b146114ba5760405162461bcd60e51b815260206004820152601560248201527414d95c9d9a58d9481a5cc81b9bdd081bdc195b9959605a1b60448201526064016107da565b8881600101541461150d5760405162461bcd60e51b815260206004820152601f60248201527f546869732070726f706f73616c20646f65736e2774206578697374207965740060448201526064016107da565b8361152a5760405162461bcd60e51b81526004016107da906133d2565b6001815460ff16600281111561154257611542613133565b0361158f5760405162461bcd60e51b815260206004820181905260248201527f546869732070726f706f73616c20697320616c7265616479207570646174656460448201526064016107da565b6002810180546001600160a01b0319166001600160a01b03891617905560038101869055600581016115c2858783613491565b507f5cf385c7cf3e1609443b09191511540e030254887cccb510dfface4c041b6c55888a87878b8b6040516115fc96959493929190613640565b60405180910390a1505050505050505050565b61161761235e565b61162160006126c7565b565b61012f5460009085906001600160a01b0316632fa117e58261164361234f565b6040516001600160e01b031960e085901b16815260048101929092526001600160a01b03166024820152604401602060405180830381865afa15801561168d573d6000803e3d6000fd5b505050506040513d601f19601f820116820180604052508101906116b19190613386565b6116cd5760405162461bcd60e51b81526004016107da906133a3565b61013054604051638a98636360e01b8152600481018790526000916001600160a01b031690638a98636390602401602060405180830381865afa158015611718573d6000803e3d6000fd5b505050506040513d601f19601f8201168201806040525081019061173c919061358f565b90508034146117825760405162461bcd60e51b81526020600482015260126024820152714e6f6e2d6d61746368696e672066756e647360701b60448201526064016107da565b61179360048889600089898c612719565b979650505050505050565b61012f5487906001600160a01b0316632fa117e5826117bb61234f565b6040516001600160e01b031960e085901b16815260048101929092526001600160a01b03166024820152604401602060405180830381865afa158015611805573d6000803e3d6000fd5b505050506040513d601f19601f820116820180604052508101906118299190613386565b6118455760405162461bcd60e51b81526004016107da906133a3565b6001600160a01b0386166000908152610133602052604090205460ff166118aa5760405162461bcd60e51b8152602060048201526019602482015278151a1a5cc81d1bdad95b881a5cc81b9bdd08185b1b1bddd959603a1b60448201526064016107da565b61013054604051634a7ab1d560e01b815261ffff861660048201526000916001600160a01b031690634a7ab1d590602401602060405180830381865afa1580156118f8573d6000803e3d6000fd5b505050506040513d601f19601f8201168201806040525081019061191c919061358f565b90508034146119625760405162461bcd60e51b81526020600482015260126024820152714e6f6e2d6d61746368696e672066756e647360701b60448201526064016107da565b6000888152610131602052604090206004815460ff16600481111561198957611989613133565b146119ce5760405162461bcd60e51b815260206004820152601560248201527414d95c9d9a58d9481a5cc81b9bdd081bdc195b9959605a1b60448201526064016107da565b6000898152610132602090815260408083208d84529091529020600101548a9003611a535760405162461bcd60e51b815260206004820152602f60248201527f596f7520616c7265616479206372656174656420612070726f706f73616c206660448201526e6f722074686973207365727669636560881b60648201526084016107da565b89816001015403611ac05760405162461bcd60e51b815260206004820152603160248201527f596f7520636f756c646e2774206372656174652070726f706f73616c20666f7260448201527020796f7572206f776e207365727669636560781b60648201526084016107da565b83611add5760405162461bcd60e51b81526004016107da906133d2565b600581018054906000611aef83613694565b90915550506040805160c0810190915280600081526020018b8152602001896001600160a01b031681526020018881526020018761ffff16815260200186868080601f01602080910402602001604051908101604052809392919081815260200183838082843760009201829052509390945250508b8152610132602090815260408083208f845290915290208251815491925090829060ff19166001836002811115611b9e57611b9e613133565b02179055506020820151600182015560408201516002820180546001600160a01b0319166001600160a01b0390921691909117905560608201516003820155608082015160048201805461ffff191661ffff90921691909117905560a08201516005820190611c0d90826136ad565b509050507fdc1ab3200caf17076f60a9fbf22ea5814644850fbb7be85a4c19f23bcdaa6937898b878760008d8d8d604051611c4f98979695949392919061376d565b60405180910390a150505050505050505050565b600091825260fc602090815260408084206001600160a01b0393909316845291905290205460ff1690565b7f2fdac322ee704ce09f0773f7f3f92eb98d5e7c836ee9c056cccd5f61041e5e3f611cb8816123d7565b506000928352610131602090815260408085206101328352818620948652939091529092208154600160ff19918216811784558083015460028501556006909301939093558054909216179055565b611d4e6040805160c0810190915280600081526020016000815260200160006001600160a01b0316815260200160008152602001600061ffff168152602001606081525090565b60008381526101326020908152604080832085845290915290819020815160c081019092528054829060ff166002811115611d8b57611d8b613133565b6002811115611d9c57611d9c613133565b81526001820154602082015260028201546001600160a01b0316604082015260038201546060820152600482015461ffff16608082015260058201805460a090920191611de890613409565b80601f0160208091040260200160405190810160405280929190818152602001828054611e1490613409565b8015611e615780601f10611e3657610100808354040283529160200191611e61565b820191906000526020600020905b815481529060010190602001808311611e4457829003601f168201915b505050505081525050905092915050565b610131602052600090815260409020805460018201546002830154600384015460048501805460ff90951695939492939192611ead90613409565b80601f0160208091040260200160405190810160405280929190818152602001828054611ed990613409565b8015611f265780601f10611efb57610100808354040283529160200191611f26565b820191906000526020600020905b815481529060010190602001808311611f0957829003601f168201915b5050505050908060050154908060060154908060070154905088565b61013260209081526000928352604080842090915290825290208054600182015460028301546003840154600485015460058601805460ff9096169694956001600160a01b0390941694929361ffff9092169291611f9f90613409565b80601f0160208091040260200160405190810160405280929190818152602001828054611fcb90613409565b80156120185780601f10611fed57610100808354040283529160200191612018565b820191906000526020600020905b815481529060010190602001808311611ffb57829003601f168201915b5050505050905086565b61202a61235e565b6001600160a01b03821615801561204057508015155b8061205357506001600160a01b03821615155b61209f5760405162461bcd60e51b815260206004820152601d60248201527f4f776e65722063616e27742072656d6f7665204f78206164647265737300000060448201526064016107da565b6001600160a01b03821660008181526101336020908152604091829020805460ff19168515159081179091558251938452908301527fd138accc17a5df6552bf13624802a01fc56a160f1e6e6247743ccd07ed99a7c99101610d9d565b600082815260fc6020526040902060010154612117816123d7565b610e31838361246f565b61216a6040805161010081019091528060008152602001600081526020016000815260200160008152602001606081526020016000815260200160008152602001600081525090565b61012e5482106121bc5760405162461bcd60e51b815260206004820152601a60248201527f54686973207365727669636520646f65736e277420657869737400000000000060448201526064016107da565b6000828152610131602052604090819020815161010081019092528054829060ff1660048111156121ef576121ef613133565b600481111561220057612200613133565b815260200160018201548152602001600282015481526020016003820154815260200160048201805461223290613409565b80601f016020809104026020016040519081016040528092919081815260200182805461225e90613409565b80156122ab5780601f10612280576101008083540402835291602001916122ab565b820191906000526020600020905b81548152906001019060200180831161228e57829003601f168201915b5050505050815260200160058201548152602001600682015481526020016007820154815250509050919050565b6122e161235e565b6001600160a01b0381166123465760405162461bcd60e51b815260206004820152602660248201527f4f776e61626c653a206e6577206f776e657220697320746865207a65726f206160448201526564647265737360d01b60648201526084016107da565b610fa0816126c7565b60006123596128ee565b905090565b61236661234f565b6001600160a01b03166123816033546001600160a01b031690565b6001600160a01b0316146116215760405162461bcd60e51b815260206004820181905260248201527f4f776e61626c653a2063616c6c6572206973206e6f7420746865206f776e657260448201526064016107da565b610fa0816123e361234f565b612927565b6123f28282611c63565b610ec057600082815260fc602090815260408083206001600160a01b03851684529091529020805460ff1916600117905561242b61234f565b6001600160a01b0316816001600160a01b0316837f2f8788117e7eff1d82e926ec794901d17c78024a50270940304540a733656f0d60405160405180910390a45050565b6124798282611c63565b15610ec057600082815260fc602090815260408083206001600160a01b03851684529091529020805460ff191690556124b061234f565b6001600160a01b0316816001600160a01b0316837ff6391f5c32d9c69d2a47ea670b442974b53935d1edc7fd64eb21e047a839171b60405160405180910390a45050565b610fa061235e565b7f4910fdfa16fed3260ed0e7147f7cc6da11a60208b5b9406d12a635614ffd91435460ff161561252f57610e3183612980565b826001600160a01b03166352d1902d6040518163ffffffff1660e01b8152600401602060405180830381865afa925050508015612589575060408051601f3d908101601f191682019092526125869181019061358f565b60015b6125ec5760405162461bcd60e51b815260206004820152602e60248201527f45524331393637557067726164653a206e657720696d706c656d656e7461746960448201526d6f6e206973206e6f74205555505360901b60648201526084016107da565b600080516020613929833981519152811461265b5760405162461bcd60e51b815260206004820152602960248201527f45524331393637557067726164653a20756e737570706f727465642070726f786044820152681a58589b195555525160ba1b60648201526084016107da565b50610e31838383612a1c565b600054610100900460ff1661268e5760405162461bcd60e51b81526004016107da906137c8565b611621612a47565b600054610100900460ff166116215760405162461bcd60e51b81526004016107da906137c8565b610ec082826123e8565b603380546001600160a01b038381166001600160a01b0319831681179093556040519116919082907f8be0079c531659141344cd1fd0a4f28419497f9722a3daafe3b4186f6b6457e090600090a35050565b600080871161276a5760405162461bcd60e51b815260206004820152601f60248201527f596f752073686f756c64206861766520612054616c656e744c6179657249640060448201526064016107da565b8585036127c45760405162461bcd60e51b815260206004820152602260248201527f53656c6c657220616e642062757965722063616e2774206265207468652073616044820152616d6560f01b60648201526084016107da565b826127e15760405162461bcd60e51b81526004016107da906133d2565b61012e805490819060006127f483613694565b909155505060008181526101316020526040902080548a90829060ff1916600183600481111561282657612826613133565b02179055506001810188905560028101879055600381018990556004810161284f868883613491565b506007810184905560408051838152602081018a9052908101889052606081018a9052608081018590527f9cd325e0ba2126728b21176b4b24c49c672e66820627759eedcab6b5dd7dac499060a00160405180910390a17f4874366e887bb729d49976a8f6751c4263d1668fd396db9b8d5f037895e7a7458287876040516128d993929190613813565b60405180910390a15098975050505050505050565b60006014361080159061291057503360009081526065602052604090205460ff165b15612922575060131936013560601c90565b503390565b6129318282611c63565b610ec05761293e81612a7e565b612949836020612a90565b60405160200161295a92919061382d565b60408051601f198184030181529082905262461bcd60e51b82526107da916004016138a2565b6001600160a01b0381163b6129ed5760405162461bcd60e51b815260206004820152602d60248201527f455243313936373a206e657720696d706c656d656e746174696f6e206973206e60448201526c1bdd08184818dbdb9d1c9858dd609a1b60648201526084016107da565b60008051602061392983398151915280546001600160a01b0319166001600160a01b0392909216919091179055565b612a2583612c33565b600082511180612a325750805b15610e3157612a418383612c73565b50505050565b600054610100900460ff16612a6e5760405162461bcd60e51b81526004016107da906137c8565b611621612a7961234f565b6126c7565b606061072d6001600160a01b03831660145b60606000612a9f8360026138b5565b612aaa9060026138cc565b67ffffffffffffffff811115612ac257612ac2612f3d565b6040519080825280601f01601f191660200182016040528015612aec576020820181803683370190505b509050600360fc1b81600081518110612b0757612b076138df565b60200101906001600160f81b031916908160001a905350600f60fb1b81600181518110612b3657612b366138df565b60200101906001600160f81b031916908160001a9053506000612b5a8460026138b5565b612b659060016138cc565b90505b6001811115612bdd576f181899199a1a9b1b9c1cb0b131b232b360811b85600f1660108110612b9957612b996138df565b1a60f81b828281518110612baf57612baf6138df565b60200101906001600160f81b031916908160001a90535060049490941c93612bd6816138f5565b9050612b68565b508315612c2c5760405162461bcd60e51b815260206004820181905260248201527f537472696e67733a20686578206c656e67746820696e73756666696369656e7460448201526064016107da565b9392505050565b612c3c81612980565b6040516001600160a01b038216907fbc7cd75a20ee27fd9adebab32041f755214dbc6bffa90cc0225b39da2e5c2d3b90600090a250565b60606001600160a01b0383163b612cdb5760405162461bcd60e51b815260206004820152602660248201527f416464726573733a2064656c65676174652063616c6c20746f206e6f6e2d636f6044820152651b9d1c9858dd60d21b60648201526084016107da565b600080846001600160a01b031684604051612cf6919061390c565b600060405180830381855af49150503d8060008114612d31576040519150601f19603f3d011682016040523d82523d6000602084013e612d36565b606091505b5091509150612d5e828260405180606001604052806027815260200161394960279139612d67565b95945050505050565b60608315612d76575081612c2c565b612c2c8383815115612d8b5781518083602001fd5b8060405162461bcd60e51b81526004016107da91906138a2565b600060208284031215612db757600080fd5b81356001600160e01b031981168114612c2c57600080fd5b600080600060608486031215612de457600080fd5b505081359360208301359350604090920135919050565b60008083601f840112612e0d57600080fd5b50813567ffffffffffffffff811115612e2557600080fd5b602083019150836020828501011115612e3d57600080fd5b9250929050565b60008060008060608587031215612e5a57600080fd5b8435935060208501359250604085013567ffffffffffffffff811115612e7f57600080fd5b612e8b87828801612dfb565b95989497509550505050565b600060208284031215612ea957600080fd5b5035919050565b80356001600160a01b0381168114612ec757600080fd5b919050565b600060208284031215612ede57600080fd5b612c2c82612eb0565b60008060408385031215612efa57600080fd5b82359150612f0a60208401612eb0565b90509250929050565b60008060408385031215612f2657600080fd5b612f2f83612eb0565b9150612f0a60208401612eb0565b634e487b7160e01b600052604160045260246000fd5b60008060408385031215612f6657600080fd5b612f6f83612eb0565b9150602083013567ffffffffffffffff80821115612f8c57600080fd5b818501915085601f830112612fa057600080fd5b813581811115612fb257612fb2612f3d565b604051601f8201601f19908116603f01168101908382118183101715612fda57612fda612f3d565b81604052828152886020848701011115612ff357600080fd5b8260208601602083013760006020848301015280955050505050509250929050565b60008060008060008060a0878903121561302e57600080fd5b863595506020870135945061304560408801612eb0565b935060608701359250608087013567ffffffffffffffff81111561306857600080fd5b61307489828a01612dfb565b979a9699509497509295939492505050565b600080600080600080600060c0888a0312156130a157600080fd5b87359650602088013595506130b860408901612eb0565b945060608801359350608088013561ffff811681146130d657600080fd5b925060a088013567ffffffffffffffff8111156130f257600080fd5b6130fe8a828b01612dfb565b989b979a50959850939692959293505050565b6000806040838503121561312457600080fd5b50508035926020909101359150565b634e487b7160e01b600052602160045260246000fd5b6003811061315957613159613133565b9052565b60005b83811015613178578181015183820152602001613160565b50506000910152565b6000815180845261319981602086016020860161315d565b601f01601f19169290920160200192915050565b602081526131bf602082018351613149565b6020820151604082015260018060a01b0360408301511660608201526060820151608082015261ffff60808301511660a0820152600060a083015160c08084015261320d60e0840182613181565b949350505050565b6005811061315957613159613133565b6000610100613234838c613215565b89602084015288604084015287606084015280608084015261325881840188613181565b60a0840196909652505060c081019290925260e09091015295945050505050565b6132838188613149565b85602082015260018060a01b038516604082015283606082015261ffff8316608082015260c060a082015260006132bd60c0830184613181565b98975050505050505050565b8015158114610fa057600080fd5b600080604083850312156132ea57600080fd5b6132f383612eb0565b91506020830135613303816132c9565b809150509250929050565b60208152613320602082018351613215565b602082015160408201526040820151606082015260608201516080820152600060808301516101008060a085015261335c610120850183613181565b915060a085015160c085015260c085015160e085015260e085015181850152508091505092915050565b60006020828403121561339857600080fd5b8151612c2c816132c9565b6020808252601590820152744e6f74206f776e6572206f722064656c656761746560581b604082015260600190565b6020808252601f908201527f53686f756c642070726f7669646520612076616c696420495046532055524900604082015260600190565b600181811c9082168061341d57607f821691505b60208210810361343d57634e487b7160e01b600052602260045260246000fd5b50919050565b601f821115610e3157600081815260208120601f850160051c8101602086101561346a5750805b601f850160051c820191505b8181101561348957828155600101613476565b505050505050565b67ffffffffffffffff8311156134a9576134a9612f3d565b6134bd836134b78354613409565b83613443565b6000601f8411600181146134f157600085156134d95750838201355b600019600387901b1c1916600186901b17835561354b565b600083815260209020601f19861690835b828110156135225786850135825560209485019460019092019101613502565b508682101561353f5760001960f88860031b161c19848701351681555b505060018560011b0183555b5050505050565b81835281816020850137506000828201602090810191909152601f909101601f19169091010190565b60208152600061320d602083018486613552565b6000602082840312156135a157600080fd5b5051919050565b6020808252602c908201527f46756e6374696f6e206d7573742062652063616c6c6564207468726f7567682060408201526b19195b1959d85d1958d85b1b60a21b606082015260800190565b6020808252602c908201527f46756e6374696f6e206d7573742062652063616c6c6564207468726f7567682060408201526b6163746976652070726f787960a01b606082015260800190565b86815285602082015260a06040820152600061366060a083018688613552565b6001600160a01b039490941660608301525060800152949350505050565b634e487b7160e01b600052601160045260246000fd5b6000600182016136a6576136a661367e565b5060010190565b815167ffffffffffffffff8111156136c7576136c7612f3d565b6136db816136d58454613409565b84613443565b602080601f83116001811461371057600084156136f85750858301515b600019600386901b1c1916600185901b178555613489565b600085815260208120601f198616915b8281101561373f57888601518255948401946001909101908401613720565b508582101561375d5787850151600019600388901b60f8161c191681555b5050505050600190811b01905550565b88815287602082015260e06040820152600061378d60e08301888a613552565b905061379c6060830187613149565b6001600160a01b0394909416608082015260a081019290925261ffff1660c09091015295945050505050565b6020808252602b908201527f496e697469616c697a61626c653a20636f6e7472616374206973206e6f74206960408201526a6e697469616c697a696e6760a81b606082015260800190565b838152604060208201526000612d5e604083018486613552565b7f416363657373436f6e74726f6c3a206163636f756e742000000000000000000081526000835161386581601785016020880161315d565b7001034b99036b4b9b9b4b733903937b6329607d1b601791840191820152835161389681602884016020880161315d565b01602801949350505050565b602081526000612c2c6020830184613181565b808202811582820484141761072d5761072d61367e565b8082018082111561072d5761072d61367e565b634e487b7160e01b600052603260045260246000fd5b6000816139045761390461367e565b506000190190565b6000825161391e81846020870161315d565b919091019291505056fe360894a13ba1a3210667c828492db98dca3e2076cc3735a920a3ca505d382bbc416464726573733a206c6f772d6c6576656c2064656c65676174652063616c6c206661696c6564a2646970667358221220f55e095e88008719c011e2ea4c6d1a651478914d74639e9898db698982d6518e64736f6c63430008120033",
  "linkReferences": {},
  "deployedLinkReferences": {}
}