{
  "_format": "hh-sol-artifact-1",
  "contractName": "ServiceRegistry",
  "sourceName": "contracts/ServiceRegistry.sol",
  "abi": [
    {
      "inputs": [],
      "stateMutability": "nonpayable",
      "type": "constructor"
    },
    {
      "anonymous": false,
      "inputs": [
        {
          "indexed": false,
          "internalType": "address",
          "name": "previousAdmin",
          "type": "address"
        },
        {
          "indexed": false,
          "internalType": "address",
          "name": "newAdmin",
          "type": "address"
        }
      ],
      "name": "AdminChanged",
      "type": "event"
    },
    {
      "anonymous": false,
      "inputs": [
        {
          "indexed": true,
          "internalType": "address",
          "name": "beacon",
          "type": "address"
        }
      ],
      "name": "BeaconUpgraded",
      "type": "event"
    },
    {
      "anonymous": false,
      "inputs": [
        {
          "indexed": false,
          "internalType": "uint8",
          "name": "version",
          "type": "uint8"
        }
      ],
      "name": "Initialized",
      "type": "event"
    },
    {
      "anonymous": false,
      "inputs": [
        {
          "indexed": true,
          "internalType": "address",
          "name": "previousOwner",
          "type": "address"
        },
        {
          "indexed": true,
          "internalType": "address",
          "name": "newOwner",
          "type": "address"
        }
      ],
      "name": "OwnershipTransferred",
      "type": "event"
    },
    {
      "anonymous": false,
      "inputs": [
        {
          "indexed": false,
          "internalType": "uint256",
          "name": "serviceId",
          "type": "uint256"
        },
        {
          "indexed": false,
          "internalType": "uint256",
          "name": "sellerId",
          "type": "uint256"
        },
        {
          "indexed": false,
          "internalType": "string",
          "name": "proposalDataUri",
          "type": "string"
        },
        {
          "indexed": false,
          "internalType": "enum ServiceRegistry.ProposalStatus",
          "name": "status",
          "type": "uint8"
        },
        {
          "indexed": false,
          "internalType": "address",
          "name": "rateToken",
          "type": "address"
        },
        {
          "indexed": false,
          "internalType": "uint256",
          "name": "rateAmount",
          "type": "uint256"
        }
      ],
      "name": "ProposalCreated",
      "type": "event"
    },
    {
      "anonymous": false,
      "inputs": [
        {
          "indexed": false,
          "internalType": "uint256",
          "name": "serviceId",
          "type": "uint256"
        },
        {
          "indexed": false,
          "internalType": "uint256",
          "name": "sellerId",
          "type": "uint256"
        }
      ],
      "name": "ProposalRejected",
      "type": "event"
    },
    {
      "anonymous": false,
      "inputs": [
        {
          "indexed": false,
          "internalType": "uint256",
          "name": "serviceId",
          "type": "uint256"
        },
        {
          "indexed": false,
          "internalType": "uint256",
          "name": "sellerId",
          "type": "uint256"
        },
        {
          "indexed": false,
          "internalType": "string",
          "name": "proposalDataUri",
          "type": "string"
        },
        {
          "indexed": false,
          "internalType": "address",
          "name": "rateToken",
          "type": "address"
        },
        {
          "indexed": false,
          "internalType": "uint256",
          "name": "rateAmount",
          "type": "uint256"
        }
      ],
      "name": "ProposalUpdated",
      "type": "event"
    },
    {
      "anonymous": false,
      "inputs": [
        {
          "indexed": false,
          "internalType": "uint256",
          "name": "serviceId",
          "type": "uint256"
        },
        {
          "indexed": false,
          "internalType": "uint256",
          "name": "sellerId",
          "type": "uint256"
        }
      ],
      "name": "ProposalValidated",
      "type": "event"
    },
    {
      "anonymous": false,
      "inputs": [
        {
          "indexed": true,
          "internalType": "bytes32",
          "name": "role",
          "type": "bytes32"
        },
        {
          "indexed": true,
          "internalType": "bytes32",
          "name": "previousAdminRole",
          "type": "bytes32"
        },
        {
          "indexed": true,
          "internalType": "bytes32",
          "name": "newAdminRole",
          "type": "bytes32"
        }
      ],
      "name": "RoleAdminChanged",
      "type": "event"
    },
    {
      "anonymous": false,
      "inputs": [
        {
          "indexed": true,
          "internalType": "bytes32",
          "name": "role",
          "type": "bytes32"
        },
        {
          "indexed": true,
          "internalType": "address",
          "name": "account",
          "type": "address"
        },
        {
          "indexed": true,
          "internalType": "address",
          "name": "sender",
          "type": "address"
        }
      ],
      "name": "RoleGranted",
      "type": "event"
    },
    {
      "anonymous": false,
      "inputs": [
        {
          "indexed": true,
          "internalType": "bytes32",
          "name": "role",
          "type": "bytes32"
        },
        {
          "indexed": true,
          "internalType": "address",
          "name": "account",
          "type": "address"
        },
        {
          "indexed": true,
          "internalType": "address",
          "name": "sender",
          "type": "address"
        }
      ],
      "name": "RoleRevoked",
      "type": "event"
    },
    {
      "anonymous": false,
      "inputs": [
        {
          "indexed": false,
          "internalType": "uint256",
          "name": "id",
          "type": "uint256"
        },
        {
          "indexed": false,
          "internalType": "uint256",
          "name": "buyerId",
          "type": "uint256"
        },
        {
          "indexed": false,
          "internalType": "uint256",
          "name": "sellerId",
          "type": "uint256"
        },
        {
          "indexed": false,
          "internalType": "uint256",
          "name": "initiatorId",
          "type": "uint256"
        },
        {
          "indexed": false,
          "internalType": "uint256",
          "name": "platformId",
          "type": "uint256"
        }
      ],
      "name": "ServiceCreated",
      "type": "event"
    },
    {
      "anonymous": false,
      "inputs": [
        {
          "indexed": false,
          "internalType": "uint256",
          "name": "id",
          "type": "uint256"
        },
        {
          "indexed": false,
          "internalType": "string",
          "name": "serviceDataUri",
          "type": "string"
        }
      ],
      "name": "ServiceDataCreated",
      "type": "event"
    },
    {
      "anonymous": false,
      "inputs": [
        {
          "indexed": true,
          "internalType": "uint256",
          "name": "id",
          "type": "uint256"
        },
        {
          "indexed": false,
          "internalType": "string",
          "name": "newServiceDataUri",
          "type": "string"
        }
      ],
      "name": "ServiceDetailedUpdated",
      "type": "event"
    },
    {
      "anonymous": false,
      "inputs": [
        {
          "indexed": true,
          "internalType": "address",
          "name": "implementation",
          "type": "address"
        }
      ],
      "name": "Upgraded",
      "type": "event"
    },
    {
      "inputs": [],
      "name": "DEFAULT_ADMIN_ROLE",
      "outputs": [
        {
          "internalType": "bytes32",
          "name": "",
          "type": "bytes32"
        }
      ],
      "stateMutability": "view",
      "type": "function"
    },
    {
      "inputs": [],
      "name": "ESCROW_ROLE",
      "outputs": [
        {
          "internalType": "bytes32",
          "name": "",
          "type": "bytes32"
        }
      ],
      "stateMutability": "view",
      "type": "function"
    },
    {
      "inputs": [
        {
          "internalType": "uint256",
          "name": "_serviceId",
          "type": "uint256"
        },
        {
          "internalType": "uint256",
          "name": "_proposalId",
          "type": "uint256"
        },
        {
          "internalType": "uint256",
          "name": "_transactionId",
          "type": "uint256"
        }
      ],
      "name": "afterDeposit",
      "outputs": [],
      "stateMutability": "nonpayable",
      "type": "function"
    },
    {
      "inputs": [
        {
          "internalType": "uint256",
          "name": "_serviceId",
          "type": "uint256"
        }
      ],
      "name": "afterFullPayment",
      "outputs": [],
      "stateMutability": "nonpayable",
      "type": "function"
    },
    {
      "inputs": [
        {
          "internalType": "uint256",
          "name": "_platformId",
          "type": "uint256"
        },
        {
          "internalType": "string",
          "name": "_serviceDataUri",
          "type": "string"
        }
      ],
      "name": "createOpenServiceFromBuyer",
      "outputs": [
        {
          "internalType": "uint256",
          "name": "",
          "type": "uint256"
        }
      ],
      "stateMutability": "nonpayable",
      "type": "function"
    },
    {
      "inputs": [
        {
          "internalType": "uint256",
          "name": "_serviceId",
          "type": "uint256"
        },
        {
          "internalType": "address",
          "name": "_rateToken",
          "type": "address"
        },
        {
          "internalType": "uint256",
          "name": "_rateAmount",
          "type": "uint256"
        },
        {
          "internalType": "string",
          "name": "_proposalDataUri",
          "type": "string"
        }
      ],
      "name": "createProposal",
      "outputs": [],
      "stateMutability": "nonpayable",
      "type": "function"
    },
    {
      "inputs": [
        {
          "internalType": "uint256",
          "name": "_serviceId",
          "type": "uint256"
        },
        {
          "internalType": "uint256",
          "name": "_proposalId",
          "type": "uint256"
        }
      ],
      "name": "getProposal",
      "outputs": [
        {
          "components": [
            {
              "internalType": "enum ServiceRegistry.ProposalStatus",
              "name": "status",
              "type": "uint8"
            },
            {
              "internalType": "uint256",
              "name": "sellerId",
              "type": "uint256"
            },
            {
              "internalType": "address",
              "name": "rateToken",
              "type": "address"
            },
            {
              "internalType": "uint256",
              "name": "rateAmount",
              "type": "uint256"
            },
            {
              "internalType": "string",
              "name": "proposalDataUri",
              "type": "string"
            }
          ],
          "internalType": "struct ServiceRegistry.Proposal",
          "name": "",
          "type": "tuple"
        }
      ],
      "stateMutability": "view",
      "type": "function"
    },
    {
      "inputs": [
        {
          "internalType": "bytes32",
          "name": "role",
          "type": "bytes32"
        }
      ],
      "name": "getRoleAdmin",
      "outputs": [
        {
          "internalType": "bytes32",
          "name": "",
          "type": "bytes32"
        }
      ],
      "stateMutability": "view",
      "type": "function"
    },
    {
      "inputs": [
        {
          "internalType": "uint256",
          "name": "_serviceId",
          "type": "uint256"
        }
      ],
      "name": "getService",
      "outputs": [
        {
          "components": [
            {
              "internalType": "enum ServiceRegistry.Status",
              "name": "status",
              "type": "uint8"
            },
            {
              "internalType": "uint256",
              "name": "buyerId",
              "type": "uint256"
            },
            {
              "internalType": "uint256",
              "name": "sellerId",
              "type": "uint256"
            },
            {
              "internalType": "uint256",
              "name": "initiatorId",
              "type": "uint256"
            },
            {
              "internalType": "string",
              "name": "serviceDataUri",
              "type": "string"
            },
            {
              "internalType": "uint256",
              "name": "countProposals",
              "type": "uint256"
            },
            {
              "internalType": "uint256",
              "name": "transactionId",
              "type": "uint256"
            },
            {
              "internalType": "uint256",
              "name": "platformId",
              "type": "uint256"
            }
          ],
          "internalType": "struct ServiceRegistry.Service",
          "name": "",
          "type": "tuple"
        }
      ],
      "stateMutability": "view",
      "type": "function"
    },
    {
      "inputs": [
        {
          "internalType": "bytes32",
          "name": "role",
          "type": "bytes32"
        },
        {
          "internalType": "address",
          "name": "account",
          "type": "address"
        }
      ],
      "name": "grantRole",
      "outputs": [],
      "stateMutability": "nonpayable",
      "type": "function"
    },
    {
      "inputs": [
        {
          "internalType": "bytes32",
          "name": "role",
          "type": "bytes32"
        },
        {
          "internalType": "address",
          "name": "account",
          "type": "address"
        }
      ],
      "name": "hasRole",
      "outputs": [
        {
          "internalType": "bool",
          "name": "",
          "type": "bool"
        }
      ],
      "stateMutability": "view",
      "type": "function"
    },
    {
      "inputs": [
        {
          "internalType": "address",
          "name": "_talentLayerIdAddress",
          "type": "address"
        },
        {
          "internalType": "address",
          "name": "_talentLayerPlatformIdAddress",
          "type": "address"
        }
      ],
      "name": "initialize",
      "outputs": [],
      "stateMutability": "nonpayable",
      "type": "function"
    },
    {
      "inputs": [],
      "name": "nextServiceId",
      "outputs": [
        {
          "internalType": "uint256",
          "name": "",
          "type": "uint256"
        }
      ],
      "stateMutability": "view",
      "type": "function"
    },
    {
      "inputs": [],
      "name": "owner",
      "outputs": [
        {
          "internalType": "address",
          "name": "",
          "type": "address"
        }
      ],
      "stateMutability": "view",
      "type": "function"
    },
    {
      "inputs": [
        {
          "internalType": "uint256",
          "name": "",
          "type": "uint256"
        },
        {
          "internalType": "uint256",
          "name": "",
          "type": "uint256"
        }
      ],
      "name": "proposals",
      "outputs": [
        {
          "internalType": "enum ServiceRegistry.ProposalStatus",
          "name": "status",
          "type": "uint8"
        },
        {
          "internalType": "uint256",
          "name": "sellerId",
          "type": "uint256"
        },
        {
          "internalType": "address",
          "name": "rateToken",
          "type": "address"
        },
        {
          "internalType": "uint256",
          "name": "rateAmount",
          "type": "uint256"
        },
        {
          "internalType": "string",
          "name": "proposalDataUri",
          "type": "string"
        }
      ],
      "stateMutability": "view",
      "type": "function"
    },
    {
      "inputs": [],
      "name": "proxiableUUID",
      "outputs": [
        {
          "internalType": "bytes32",
          "name": "",
          "type": "bytes32"
        }
      ],
      "stateMutability": "view",
      "type": "function"
    },
    {
      "inputs": [
        {
          "internalType": "uint256",
          "name": "_serviceId",
          "type": "uint256"
        },
        {
          "internalType": "uint256",
          "name": "_proposalId",
          "type": "uint256"
        }
      ],
      "name": "rejectProposal",
      "outputs": [],
      "stateMutability": "nonpayable",
      "type": "function"
    },
    {
      "inputs": [],
      "name": "renounceOwnership",
      "outputs": [],
      "stateMutability": "nonpayable",
      "type": "function"
    },
    {
      "inputs": [
        {
          "internalType": "bytes32",
          "name": "role",
          "type": "bytes32"
        },
        {
          "internalType": "address",
          "name": "account",
          "type": "address"
        }
      ],
      "name": "renounceRole",
      "outputs": [],
      "stateMutability": "nonpayable",
      "type": "function"
    },
    {
      "inputs": [
        {
          "internalType": "bytes32",
          "name": "role",
          "type": "bytes32"
        },
        {
          "internalType": "address",
          "name": "account",
          "type": "address"
        }
      ],
      "name": "revokeRole",
      "outputs": [],
      "stateMutability": "nonpayable",
      "type": "function"
    },
    {
      "inputs": [
        {
          "internalType": "uint256",
          "name": "",
          "type": "uint256"
        }
      ],
      "name": "services",
      "outputs": [
        {
          "internalType": "enum ServiceRegistry.Status",
          "name": "status",
          "type": "uint8"
        },
        {
          "internalType": "uint256",
          "name": "buyerId",
          "type": "uint256"
        },
        {
          "internalType": "uint256",
          "name": "sellerId",
          "type": "uint256"
        },
        {
          "internalType": "uint256",
          "name": "initiatorId",
          "type": "uint256"
        },
        {
          "internalType": "string",
          "name": "serviceDataUri",
          "type": "string"
        },
        {
          "internalType": "uint256",
          "name": "countProposals",
          "type": "uint256"
        },
        {
          "internalType": "uint256",
          "name": "transactionId",
          "type": "uint256"
        },
        {
          "internalType": "uint256",
          "name": "platformId",
          "type": "uint256"
        }
      ],
      "stateMutability": "view",
      "type": "function"
    },
    {
      "inputs": [
        {
          "internalType": "bytes4",
          "name": "interfaceId",
          "type": "bytes4"
        }
      ],
      "name": "supportsInterface",
      "outputs": [
        {
          "internalType": "bool",
          "name": "",
          "type": "bool"
        }
      ],
      "stateMutability": "view",
      "type": "function"
    },
    {
      "inputs": [],
      "name": "talentLayerPlatformIdContract",
      "outputs": [
        {
          "internalType": "contract ITalentLayerPlatformID",
          "name": "",
          "type": "address"
        }
      ],
      "stateMutability": "view",
      "type": "function"
    },
    {
      "inputs": [
        {
          "internalType": "address",
          "name": "newOwner",
          "type": "address"
        }
      ],
      "name": "transferOwnership",
      "outputs": [],
      "stateMutability": "nonpayable",
      "type": "function"
    },
    {
      "inputs": [
        {
          "internalType": "uint256",
          "name": "_serviceId",
          "type": "uint256"
        },
        {
          "internalType": "address",
          "name": "_rateToken",
          "type": "address"
        },
        {
          "internalType": "uint256",
          "name": "_rateAmount",
          "type": "uint256"
        },
        {
          "internalType": "string",
          "name": "_proposalDataUri",
          "type": "string"
        }
      ],
      "name": "updateProposal",
      "outputs": [],
      "stateMutability": "nonpayable",
      "type": "function"
    },
    {
      "inputs": [
        {
          "internalType": "uint256",
          "name": "_serviceId",
          "type": "uint256"
        },
        {
          "internalType": "string",
          "name": "_newServiceDataUri",
          "type": "string"
        }
      ],
      "name": "updateServiceData",
      "outputs": [],
      "stateMutability": "nonpayable",
      "type": "function"
    },
    {
      "inputs": [
        {
          "internalType": "address",
          "name": "newImplementation",
          "type": "address"
        }
      ],
      "name": "upgradeTo",
      "outputs": [],
      "stateMutability": "nonpayable",
      "type": "function"
    },
    {
      "inputs": [
        {
          "internalType": "address",
          "name": "newImplementation",
          "type": "address"
        },
        {
          "internalType": "bytes",
          "name": "data",
          "type": "bytes"
        }
      ],
      "name": "upgradeToAndCall",
      "outputs": [],
      "stateMutability": "payable",
      "type": "function"
    },
    {
      "inputs": [
        {
          "internalType": "uint256",
          "name": "_serviceId",
          "type": "uint256"
        },
        {
          "internalType": "uint256",
          "name": "_proposalId",
          "type": "uint256"
        }
      ],
      "name": "validateProposal",
      "outputs": [],
      "stateMutability": "nonpayable",
      "type": "function"
    }
  ],
  "bytecode": "0x60a0604052306080523480156200001557600080fd5b50600054610100900460ff1615808015620000375750600054600160ff909116105b8062000067575062000054306200014160201b62001dba1760201c565b15801562000067575060005460ff166001145b620000cf5760405162461bcd60e51b815260206004820152602e60248201527f496e697469616c697a61626c653a20636f6e747261637420697320616c72656160448201526d191e481a5b9a5d1a585b1a5e995960921b606482015260840160405180910390fd5b6000805460ff191660011790558015620000f3576000805461ff0019166101001790555b80156200013a576000805461ff0019169055604051600181527f7f26b83ff96e1f2b6a682f133852f6798a09c465da95921460cefb38474024989060200160405180910390a15b5062000150565b6001600160a01b03163b151590565b6080516131e062000188600039600081816106be015281816106fe01528181610b4801528181610b880152610c1701526131e06000f3fe6080604052600436106101c25760003560e01c8063715018a6116100f7578063b7f2bd7711610095578063ef0e239b11610064578063ef0e239b1461054b578063f2fde38b14610578578063f6bab04714610598578063f6c53d9b146105b857600080fd5b8063b7f2bd77146104a6578063c22c4f43146104c6578063c2cfee27146104fa578063d547741f1461052b57600080fd5b8063a217fddf116100d1578063a217fddf14610424578063a7d5eaea14610439578063a8d9939d14610459578063aba210091461047957600080fd5b8063715018a6146103d15780638da5cb5b146103e657806391d148541461040457600080fd5b8063485cc9551161016457806352d1902d1161013e57806352d1902d146103485780635bdc75b01461035d5780635f03f4ba1461037d5780636ce76f301461039d57600080fd5b8063485cc955146102f557806349c6559c146103155780634f1ef2861461033557600080fd5b80632f2ff15d116101a05780632f2ff15d1461027357806336568abe146102955780633659cfe6146102b5578063477034da146102d557600080fd5b806301ffc9a7146101c75780631499f9e6146101fc578063248a9ca314610235575b600080fd5b3480156101d357600080fd5b506101e76101e2366004612870565b6105cf565b60405190151581526020015b60405180910390f35b34801561020857600080fd5b5061012f5461021d906001600160a01b031681565b6040516001600160a01b0390911681526020016101f3565b34801561024157600080fd5b5061026561025036600461289a565b600090815260fb602052604090206001015490565b6040519081526020016101f3565b34801561027f57600080fd5b5061029361028e3660046128cf565b610606565b005b3480156102a157600080fd5b506102936102b03660046128cf565b610630565b3480156102c157600080fd5b506102936102d03660046128fb565b6106b3565b3480156102e157600080fd5b506102936102f0366004612916565b610793565b34801561030157600080fd5b50610293610310366004612938565b610991565b34801561032157600080fd5b5061029361033036600461289a565b610af6565b610293610343366004612978565b610b3d565b34801561035457600080fd5b50610265610c0a565b34801561036957600080fd5b50610293610378366004612916565b610cbd565b34801561038957600080fd5b50610293610398366004612a83565b610e3f565b3480156103a957600080fd5b506102657f2fdac322ee704ce09f0773f7f3f92eb98d5e7c836ee9c056cccd5f61041e5e3f81565b3480156103dd57600080fd5b5061029361120c565b3480156103f257600080fd5b506097546001600160a01b031661021d565b34801561041057600080fd5b506101e761041f3660046128cf565b611220565b34801561043057600080fd5b50610265600081565b34801561044557600080fd5b50610293610454366004612aeb565b61124b565b34801561046557600080fd5b50610293610474366004612a83565b6112c4565b34801561048557600080fd5b50610499610494366004612916565b611536565b6040516101f39190612b99565b3480156104b257600080fd5b506102656104c1366004612bf3565b611688565b3480156104d257600080fd5b506104e66104e136600461289a565b611781565b6040516101f3989796959493929190612c4f565b34801561050657600080fd5b5061051a610515366004612916565b611851565b6040516101f3959493929190612ca3565b34801561053757600080fd5b506102936105463660046128cf565b611924565b34801561055757600080fd5b5061056b61056636600461289a565b611949565b6040516101f39190612ce8565b34801561058457600080fd5b506102936105933660046128fb565b611b01565b3480156105a457600080fd5b506102936105b3366004612bf3565b611b77565b3480156105c457600080fd5b5061026561012d5481565b60006001600160e01b03198216637965db0b60e01b148061060057506301ffc9a760e01b6001600160e01b03198316145b92915050565b600082815260fb602052604090206001015461062181611dc9565b61062b8383611dd3565b505050565b6001600160a01b03811633146106a55760405162461bcd60e51b815260206004820152602f60248201527f416363657373436f6e74726f6c3a2063616e206f6e6c792072656e6f756e636560448201526e103937b632b9903337b91039b2b63360891b60648201526084015b60405180910390fd5b6106af8282611e59565b5050565b306001600160a01b037f00000000000000000000000000000000000000000000000000000000000000001614156106fc5760405162461bcd60e51b815260040161069c90612d60565b7f00000000000000000000000000000000000000000000000000000000000000006001600160a01b0316610745600080516020613164833981519152546001600160a01b031690565b6001600160a01b03161461076b5760405162461bcd60e51b815260040161069c90612dac565b61077481611ec0565b6040805160008082526020820190925261079091839190611ec8565b50565b61012e5460405162438b6360e81b81523360048201526000916001600160a01b03169063438b63009060240160206040518083038186803b1580156107d757600080fd5b505afa1580156107eb573d6000803e3d6000fd5b505050506040513d601f19601f8201168201806040525081019061080f9190612df8565b9050600081116108315760405162461bcd60e51b815260040161069c90612e11565b60008381526101306020908152604080832061013183528184208685529092529091206001815460ff16600281111561086c5761086c612b17565b141561088a5760405162461bcd60e51b815260040161069c90612e48565b6002815460ff1660028111156108a2576108a2612b17565b14156108fb5760405162461bcd60e51b815260206004820152602260248201527f50726f706f73616c2068617320616c7265616479206265656e2072656a656374604482015261195960f21b606482015260840161069c565b816001015483146109455760405162461bcd60e51b81526020600482015260146024820152732cb7ba93b932903737ba103a343290313abcb2b960611b604482015260640161069c565b805460ff1916600217815560408051868152602081018690527ffa74c17c82b1d1960368a621d45c9afe55e65c87a2c9fe612ac7e36c382b3f7891015b60405180910390a15050505050565b600054610100900460ff16158080156109b15750600054600160ff909116105b806109cb5750303b1580156109cb575060005460ff166001145b610a2e5760405162461bcd60e51b815260206004820152602e60248201527f496e697469616c697a61626c653a20636f6e747261637420697320616c72656160448201526d191e481a5b9a5d1a585b1a5e995960921b606482015260840161069c565b6000805460ff191660011790558015610a51576000805461ff0019166101001790555b610a59612042565b610a61612071565b610a69612071565b610a74600033612098565b61012e80546001600160a01b038086166001600160a01b03199283161790925561012f805492851692909116919091179055600161012d55801561062b576000805461ff0019169055604051600181527f7f26b83ff96e1f2b6a682f133852f6798a09c465da95921460cefb38474024989060200160405180910390a1505050565b7f2fdac322ee704ce09f0773f7f3f92eb98d5e7c836ee9c056cccd5f61041e5e3f610b2081611dc9565b50600090815261013060205260409020805460ff19166002179055565b306001600160a01b037f0000000000000000000000000000000000000000000000000000000000000000161415610b865760405162461bcd60e51b815260040161069c90612d60565b7f00000000000000000000000000000000000000000000000000000000000000006001600160a01b0316610bcf600080516020613164833981519152546001600160a01b031690565b6001600160a01b031614610bf55760405162461bcd60e51b815260040161069c90612dac565b610bfe82611ec0565b6106af82826001611ec8565b6000306001600160a01b037f00000000000000000000000000000000000000000000000000000000000000001614610caa5760405162461bcd60e51b815260206004820152603860248201527f555550535570677261646561626c653a206d757374206e6f742062652063616c60448201527f6c6564207468726f7567682064656c656761746563616c6c0000000000000000606482015260840161069c565b5060008051602061316483398151915290565b61012e5460405162438b6360e81b81523360048201526000916001600160a01b03169063438b63009060240160206040518083038186803b158015610d0157600080fd5b505afa158015610d15573d6000803e3d6000fd5b505050506040513d601f19601f82011682018060405250810190610d399190612df8565b905060008111610d5b5760405162461bcd60e51b815260040161069c90612e11565b60008381526101306020908152604080832061013183528184208685529092529091206001815460ff166002811115610d9657610d96612b17565b1415610db45760405162461bcd60e51b815260040161069c90612e48565b81600101548314610dfe5760405162461bcd60e51b81526020600482015260146024820152732cb7ba93b932903737ba103a343290313abcb2b960611b604482015260640161069c565b805460ff1916600117815560408051868152602081018690527f03a3b4a747d115189175e375b6c6ccd9dcdacdf7b4369aa5d8c3b8afda8ca2959101610982565b61012e5460405162438b6360e81b81523360048201526000916001600160a01b03169063438b63009060240160206040518083038186803b158015610e8357600080fd5b505afa158015610e97573d6000803e3d6000fd5b505050506040513d601f19601f82011682018060405250810190610ebb9190612df8565b905060008111610edd5760405162461bcd60e51b815260040161069c90612e11565b6000868152610130602052604090206004815460ff166004811115610f0457610f04612b17565b14610f495760405162461bcd60e51b815260206004820152601560248201527414d95c9d9a58d9481a5cc81b9bdd081bdc195b9959605a1b604482015260640161069c565b600087815261013160209081526040808320858452909152902060010154821415610fce5760405162461bcd60e51b815260206004820152602f60248201527f596f7520616c7265616479206372656174656420612070726f706f73616c206660448201526e6f722074686973207365727669636560881b606482015260840161069c565b60288160050154106110225760405162461bcd60e51b815260206004820152601b60248201527f4d61782070726f706f73616c7320636f756e7420726561636865640000000000604482015260640161069c565b81816001015414156110905760405162461bcd60e51b815260206004820152603160248201527f596f7520636f756c646e2774206372656174652070726f706f73616c20666f7260448201527020796f7572206f776e207365727669636560781b606482015260840161069c565b826110ad5760405162461bcd60e51b815260040161069c90612e8b565b6005810180549060006110bf83612ed8565b90915550506040805160a081019091528060008152602001838152602001876001600160a01b0316815260200186815260200185858080601f01602080910402602001604051908101604052809392919081815260200183838082843760009201829052509390945250508981526101316020908152604080832087845290915290208251815491925090829060ff1916600183600281111561116457611164612b17565b0217905550602082810151600183015560408301516002830180546001600160a01b0319166001600160a01b0390921691909117905560608301516003830155608083015180516111bb9260048501920190612763565b509050507fd56b812321b2869d7d3fe7c8f52e85169e580ffc706d0c33ba13145fe39cd53c8783868660008b8b6040516111fb9796959493929190612f1c565b60405180910390a150505050505050565b6112146120a2565b61121e60006120fc565b565b600091825260fb602090815260408084206001600160a01b0393909316845291905290205460ff1690565b7f2fdac322ee704ce09f0773f7f3f92eb98d5e7c836ee9c056cccd5f61041e5e3f61127581611dc9565b506000928352610130602090815260408085206101318352818620948652939091529092208154600160ff19918216811784558083015460028501556006909301939093558054909216179055565b61012e5460405162438b6360e81b81523360048201526000916001600160a01b03169063438b63009060240160206040518083038186803b15801561130857600080fd5b505afa15801561131c573d6000803e3d6000fd5b505050506040513d601f19601f820116820180604052508101906113409190612df8565b9050600081116113625760405162461bcd60e51b815260040161069c90612e11565b60008681526101306020908152604080832061013183528184208585529092529091206004825460ff16600481111561139d5761139d612b17565b146113e25760405162461bcd60e51b815260206004820152601560248201527414d95c9d9a58d9481a5cc81b9bdd081bdc195b9959605a1b604482015260640161069c565b828160010154146114355760405162461bcd60e51b815260206004820152601f60248201527f546869732070726f706f73616c20646f65736e27742065786973742079657400604482015260640161069c565b836114525760405162461bcd60e51b815260040161069c90612e8b565b6001815460ff16600281111561146a5761146a612b17565b14156114b85760405162461bcd60e51b815260206004820181905260248201527f546869732070726f706f73616c20697320616c72656164792075706461746564604482015260640161069c565b6002810180546001600160a01b0319166001600160a01b038916179055600381018690556114ea6004820186866127e7565b507f5cf385c7cf3e1609443b09191511540e030254887cccb510dfface4c041b6c55888487878b8b60405161152496959493929190612f69565b60405180910390a15050505050505050565b6115726040805160a0810190915280600081526020016000815260200160006001600160a01b0316815260200160008152602001606081525090565b60008381526101316020908152604080832085845290915290819020815160a081019092528054829060ff1660028111156115af576115af612b17565b60028111156115c0576115c0612b17565b81526001820154602082015260028201546001600160a01b03166040820152600382015460608201526004820180546080909201916115fe90612fa7565b80601f016020809104026020016040519081016040528092919081815260200182805461162a90612fa7565b80156116775780601f1061164c57610100808354040283529160200191611677565b820191906000526020600020905b81548152906001019060200180831161165a57829003601f168201915b505050505081525050905092915050565b61012f5460405162f577a560e81b8152600481018590526000916001600160a01b03169063f577a5009060240160006040518083038186803b1580156116cd57600080fd5b505afa1580156116e1573d6000803e3d6000fd5b505061012e5460405162438b6360e81b8152336004820152600093506001600160a01b03909116915063438b63009060240160206040518083038186803b15801561172b57600080fd5b505afa15801561173f573d6000803e3d6000fd5b505050506040513d601f19601f820116820180604052508101906117639190612df8565b905061177660048283600088888b61214e565b9150505b9392505050565b610130602052600090815260409020805460018201546002830154600384015460048501805460ff909516959394929391926117bc90612fa7565b80601f01602080910402602001604051908101604052809291908181526020018280546117e890612fa7565b80156118355780601f1061180a57610100808354040283529160200191611835565b820191906000526020600020905b81548152906001019060200180831161181857829003601f168201915b5050505050908060050154908060060154908060070154905088565b6101316020908152600092835260408084209091529082529020805460018201546002830154600384015460048501805460ff9095169593946001600160a01b039093169391926118a190612fa7565b80601f01602080910402602001604051908101604052809291908181526020018280546118cd90612fa7565b801561191a5780601f106118ef5761010080835404028352916020019161191a565b820191906000526020600020905b8154815290600101906020018083116118fd57829003601f168201915b5050505050905085565b600082815260fb602052604090206001015461193f81611dc9565b61062b8383611e59565b6119926040805161010081019091528060008152602001600081526020016000815260200160008152602001606081526020016000815260200160008152602001600081525090565b61012d5482106119e45760405162461bcd60e51b815260206004820152601a60248201527f54686973207365727669636520646f65736e2774206578697374000000000000604482015260640161069c565b6000828152610130602052604090819020815161010081019092528054829060ff166004811115611a1757611a17612b17565b6004811115611a2857611a28612b17565b8152602001600182015481526020016002820154815260200160038201548152602001600482018054611a5a90612fa7565b80601f0160208091040260200160405190810160405280929190818152602001828054611a8690612fa7565b8015611ad35780601f10611aa857610100808354040283529160200191611ad3565b820191906000526020600020905b815481529060010190602001808311611ab657829003601f168201915b5050505050815260200160058201548152602001600682015481526020016007820154815250509050919050565b611b096120a2565b6001600160a01b038116611b6e5760405162461bcd60e51b815260206004820152602660248201527f4f776e61626c653a206e6577206f776e657220697320746865207a65726f206160448201526564647265737360d01b606482015260840161069c565b610790816120fc565b60008381526101306020526040902061012d548410611bd85760405162461bcd60e51b815260206004820152601a60248201527f54686973207365727669636520646f65736e2774206578697374000000000000604482015260640161069c565b6004815460ff166004811115611bf057611bf0612b17565b1480611c1157506000815460ff166004811115611c0f57611c0f612b17565b145b611c6f5760405162461bcd60e51b815260206004820152602960248201527f53657276696365207374617475732073686f756c64206265206f70656e6564206044820152681bdc88199a5b1b195960ba1b606482015260840161069c565b61012e5460405162438b6360e81b81523360048201526001600160a01b039091169063438b63009060240160206040518083038186803b158015611cb257600080fd5b505afa158015611cc6573d6000803e3d6000fd5b505050506040513d601f19601f82011682018060405250810190611cea9190612df8565b816003015414611d4e5760405162461bcd60e51b815260206004820152602960248201527f4f6e6c792074686520696e69746961746f722063616e2075706461746520746860448201526865207365727669636560b81b606482015260840161069c565b81611d6b5760405162461bcd60e51b815260040161069c90612e8b565b611d796004820184846127e7565b50837f1cae99404f615a4039d85b1009cb70622aae6d64f671e8b1b191d9269847d43e8484604051611dac929190612fe2565b60405180910390a250505050565b6001600160a01b03163b151590565b61079081336122f3565b611ddd8282611220565b6106af57600082815260fb602090815260408083206001600160a01b03851684529091529020805460ff19166001179055611e153390565b6001600160a01b0316816001600160a01b0316837f2f8788117e7eff1d82e926ec794901d17c78024a50270940304540a733656f0d60405160405180910390a45050565b611e638282611220565b156106af57600082815260fb602090815260408083206001600160a01b0385168085529252808320805460ff1916905551339285917ff6391f5c32d9c69d2a47ea670b442974b53935d1edc7fd64eb21e047a839171b9190a45050565b6107906120a2565b7f4910fdfa16fed3260ed0e7147f7cc6da11a60208b5b9406d12a635614ffd91435460ff1615611efb5761062b8361234c565b826001600160a01b03166352d1902d6040518163ffffffff1660e01b815260040160206040518083038186803b158015611f3457600080fd5b505afa925050508015611f64575060408051601f3d908101601f19168201909252611f6191810190612df8565b60015b611fc75760405162461bcd60e51b815260206004820152602e60248201527f45524331393637557067726164653a206e657720696d706c656d656e7461746960448201526d6f6e206973206e6f74205555505360901b606482015260840161069c565b60008051602061316483398151915281146120365760405162461bcd60e51b815260206004820152602960248201527f45524331393637557067726164653a20756e737570706f727465642070726f786044820152681a58589b195555525160ba1b606482015260840161069c565b5061062b8383836123e8565b600054610100900460ff166120695760405162461bcd60e51b815260040161069c90612ff6565b61121e612413565b600054610100900460ff1661121e5760405162461bcd60e51b815260040161069c90612ff6565b6106af8282611dd3565b6097546001600160a01b0316331461121e5760405162461bcd60e51b815260206004820181905260248201527f4f776e61626c653a2063616c6c6572206973206e6f7420746865206f776e6572604482015260640161069c565b609780546001600160a01b038381166001600160a01b0319831681179093556040519116919082907f8be0079c531659141344cd1fd0a4f28419497f9722a3daafe3b4186f6b6457e090600090a35050565b600080871161216f5760405162461bcd60e51b815260040161069c90612e11565b858514156121ca5760405162461bcd60e51b815260206004820152602260248201527f53656c6c657220616e642062757965722063616e2774206265207468652073616044820152616d6560f01b606482015260840161069c565b826121e75760405162461bcd60e51b815260040161069c90612e8b565b61012d805490819060006121fa83612ed8565b909155505060008181526101306020526040902080548a90829060ff1916600183600481111561222c5761222c612b17565b02179055506001810188905560028101879055600381018990556122546004820187876127e7565b506007810184905560408051838152602081018a9052908101889052606081018a9052608081018590527f9cd325e0ba2126728b21176b4b24c49c672e66820627759eedcab6b5dd7dac499060a00160405180910390a17f4874366e887bb729d49976a8f6751c4263d1668fd396db9b8d5f037895e7a7458287876040516122de93929190613041565b60405180910390a15098975050505050505050565b6122fd8282611220565b6106af5761230a81612443565b612315836020612455565b60405160200161232692919061305b565b60408051601f198184030181529082905262461bcd60e51b825261069c916004016130d0565b6001600160a01b0381163b6123b95760405162461bcd60e51b815260206004820152602d60248201527f455243313936373a206e657720696d706c656d656e746174696f6e206973206e60448201526c1bdd08184818dbdb9d1c9858dd609a1b606482015260840161069c565b60008051602061316483398151915280546001600160a01b0319166001600160a01b0392909216919091179055565b6123f1836125f1565b6000825111806123fe5750805b1561062b5761240d8383612631565b50505050565b600054610100900460ff1661243a5760405162461bcd60e51b815260040161069c90612ff6565b61121e336120fc565b60606106006001600160a01b03831660145b606060006124648360026130e3565b61246f906002613102565b67ffffffffffffffff81111561248757612487612962565b6040519080825280601f01601f1916602001820160405280156124b1576020820181803683370190505b509050600360fc1b816000815181106124cc576124cc61311a565b60200101906001600160f81b031916908160001a905350600f60fb1b816001815181106124fb576124fb61311a565b60200101906001600160f81b031916908160001a905350600061251f8460026130e3565b61252a906001613102565b90505b60018111156125a2576f181899199a1a9b1b9c1cb0b131b232b360811b85600f166010811061255e5761255e61311a565b1a60f81b8282815181106125745761257461311a565b60200101906001600160f81b031916908160001a90535060049490941c9361259b81613130565b905061252d565b50831561177a5760405162461bcd60e51b815260206004820181905260248201527f537472696e67733a20686578206c656e67746820696e73756666696369656e74604482015260640161069c565b6125fa8161234c565b6040516001600160a01b038216907fbc7cd75a20ee27fd9adebab32041f755214dbc6bffa90cc0225b39da2e5c2d3b90600090a250565b60606001600160a01b0383163b6126995760405162461bcd60e51b815260206004820152602660248201527f416464726573733a2064656c65676174652063616c6c20746f206e6f6e2d636f6044820152651b9d1c9858dd60d21b606482015260840161069c565b600080846001600160a01b0316846040516126b49190613147565b600060405180830381855af49150503d80600081146126ef576040519150601f19603f3d011682016040523d82523d6000602084013e6126f4565b606091505b509150915061271c828260405180606001604052806027815260200161318460279139612725565b95945050505050565b6060831561273457508161177a565b61177a83838151156127495781518083602001fd5b8060405162461bcd60e51b815260040161069c91906130d0565b82805461276f90612fa7565b90600052602060002090601f01602090048101928261279157600085556127d7565b82601f106127aa57805160ff19168380011785556127d7565b828001600101855582156127d7579182015b828111156127d75782518255916020019190600101906127bc565b506127e392915061285b565b5090565b8280546127f390612fa7565b90600052602060002090601f01602090048101928261281557600085556127d7565b82601f1061282e5782800160ff198235161785556127d7565b828001600101855582156127d7579182015b828111156127d7578235825591602001919060010190612840565b5b808211156127e3576000815560010161285c565b60006020828403121561288257600080fd5b81356001600160e01b03198116811461177a57600080fd5b6000602082840312156128ac57600080fd5b5035919050565b80356001600160a01b03811681146128ca57600080fd5b919050565b600080604083850312156128e257600080fd5b823591506128f2602084016128b3565b90509250929050565b60006020828403121561290d57600080fd5b61177a826128b3565b6000806040838503121561292957600080fd5b50508035926020909101359150565b6000806040838503121561294b57600080fd5b612954836128b3565b91506128f2602084016128b3565b634e487b7160e01b600052604160045260246000fd5b6000806040838503121561298b57600080fd5b612994836128b3565b9150602083013567ffffffffffffffff808211156129b157600080fd5b818501915085601f8301126129c557600080fd5b8135818111156129d7576129d7612962565b604051601f8201601f19908116603f011681019083821181831017156129ff576129ff612962565b81604052828152886020848701011115612a1857600080fd5b8260208601602083013760006020848301015280955050505050509250929050565b60008083601f840112612a4c57600080fd5b50813567ffffffffffffffff811115612a6457600080fd5b602083019150836020828501011115612a7c57600080fd5b9250929050565b600080600080600060808688031215612a9b57600080fd5b85359450612aab602087016128b3565b935060408601359250606086013567ffffffffffffffff811115612ace57600080fd5b612ada88828901612a3a565b969995985093965092949392505050565b600080600060608486031215612b0057600080fd5b505081359360208301359350604090920135919050565b634e487b7160e01b600052602160045260246000fd5b60038110612b3d57612b3d612b17565b9052565b60005b83811015612b5c578181015183820152602001612b44565b8381111561240d5750506000910152565b60008151808452612b85816020860160208601612b41565b601f01601f19169290920160200192915050565b60208152612bab602082018351612b2d565b6020820151604082015260018060a01b036040830151166060820152606082015160808201526000608083015160a080840152612beb60c0840182612b6d565b949350505050565b600080600060408486031215612c0857600080fd5b83359250602084013567ffffffffffffffff811115612c2657600080fd5b612c3286828701612a3a565b9497909650939450505050565b60058110612b3d57612b3d612b17565b6000610100612c5e838c612c3f565b896020840152886040840152876060840152806080840152612c8281840188612b6d565b60a0840196909652505060c081019290925260e09091015295945050505050565b612cad8187612b2d565b84602082015260018060a01b038416604082015282606082015260a060808201526000612cdd60a0830184612b6d565b979650505050505050565b60208152612cfa602082018351612c3f565b602082015160408201526040820151606082015260608201516080820152600060808301516101008060a0850152612d36610120850183612b6d565b915060a085015160c085015260c085015160e085015260e085015181850152508091505092915050565b6020808252602c908201527f46756e6374696f6e206d7573742062652063616c6c6564207468726f7567682060408201526b19195b1959d85d1958d85b1b60a21b606082015260800190565b6020808252602c908201527f46756e6374696f6e206d7573742062652063616c6c6564207468726f7567682060408201526b6163746976652070726f787960a01b606082015260800190565b600060208284031215612e0a57600080fd5b5051919050565b6020808252601f908201527f596f752073686f756c64206861766520612054616c656e744c61796572496400604082015260600190565b60208082526023908201527f50726f706f73616c2068617320616c7265616479206265656e2076616c6964616040820152621d195960ea1b606082015260800190565b6020808252601f908201527f53686f756c642070726f7669646520612076616c696420495046532055524900604082015260600190565b634e487b7160e01b600052601160045260246000fd5b6000600019821415612eec57612eec612ec2565b5060010190565b81835281816020850137506000828201602090810191909152601f909101601f19169091010190565b87815286602082015260c060408201526000612f3c60c083018789612ef3565b9050612f4b6060830186612b2d565b6001600160a01b0393909316608082015260a0015295945050505050565b86815285602082015260a060408201526000612f8960a083018688612ef3565b6001600160a01b039490941660608301525060800152949350505050565b600181811c90821680612fbb57607f821691505b60208210811415612fdc57634e487b7160e01b600052602260045260246000fd5b50919050565b602081526000612beb602083018486612ef3565b6020808252602b908201527f496e697469616c697a61626c653a20636f6e7472616374206973206e6f74206960408201526a6e697469616c697a696e6760a81b606082015260800190565b83815260406020820152600061271c604083018486612ef3565b7f416363657373436f6e74726f6c3a206163636f756e7420000000000000000000815260008351613093816017850160208801612b41565b7001034b99036b4b9b9b4b733903937b6329607d1b60179184019182015283516130c4816028840160208801612b41565b01602801949350505050565b60208152600061177a6020830184612b6d565b60008160001904831182151516156130fd576130fd612ec2565b500290565b6000821982111561311557613115612ec2565b500190565b634e487b7160e01b600052603260045260246000fd5b60008161313f5761313f612ec2565b506000190190565b60008251613159818460208701612b41565b919091019291505056fe360894a13ba1a3210667c828492db98dca3e2076cc3735a920a3ca505d382bbc416464726573733a206c6f772d6c6576656c2064656c65676174652063616c6c206661696c6564a264697066735822122089a4349ac0588718c872054a2489a1ddd060be6d3742f460f98a22a0325510dd64736f6c63430008090033",
  "linkReferences": {},
  "deployedLinkReferences": {}
}