{
  "_format": "hh-sol-artifact-1",
  "contractName": "ServiceRegistry",
  "sourceName": "contracts/ServiceRegistry.sol",
  "abi": [
    {
      "inputs": [
        {
          "internalType": "address",
          "name": "_talentLayerIdAddress",
          "type": "address"
        },
        {
          "internalType": "address",
          "name": "_talentLayerPlatformIdAddress",
          "type": "address"
        }
      ],
      "stateMutability": "nonpayable",
      "type": "constructor"
    },
    {
      "anonymous": false,
      "inputs": [
        {
          "indexed": false,
          "internalType": "uint256",
          "name": "serviceId",
          "type": "uint256"
        },
        {
          "indexed": false,
          "internalType": "uint256",
          "name": "sellerId",
          "type": "uint256"
        },
        {
          "indexed": false,
          "internalType": "string",
          "name": "proposalDataUri",
          "type": "string"
        },
        {
          "indexed": false,
          "internalType": "enum ServiceRegistry.ProposalStatus",
          "name": "status",
          "type": "uint8"
        },
        {
          "indexed": false,
          "internalType": "address",
          "name": "rateToken",
          "type": "address"
        },
        {
          "indexed": false,
          "internalType": "uint256",
          "name": "rateAmount",
          "type": "uint256"
        }
      ],
      "name": "ProposalCreated",
      "type": "event"
    },
    {
      "anonymous": false,
      "inputs": [
        {
          "indexed": false,
          "internalType": "uint256",
          "name": "serviceId",
          "type": "uint256"
        },
        {
          "indexed": false,
          "internalType": "uint256",
          "name": "sellerId",
          "type": "uint256"
        }
      ],
      "name": "ProposalRejected",
      "type": "event"
    },
    {
      "anonymous": false,
      "inputs": [
        {
          "indexed": false,
          "internalType": "uint256",
          "name": "serviceId",
          "type": "uint256"
        },
        {
          "indexed": false,
          "internalType": "uint256",
          "name": "sellerId",
          "type": "uint256"
        },
        {
          "indexed": false,
          "internalType": "string",
          "name": "proposalDataUri",
          "type": "string"
        },
        {
          "indexed": false,
          "internalType": "address",
          "name": "rateToken",
          "type": "address"
        },
        {
          "indexed": false,
          "internalType": "uint256",
          "name": "rateAmount",
          "type": "uint256"
        }
      ],
      "name": "ProposalUpdated",
      "type": "event"
    },
    {
      "anonymous": false,
      "inputs": [
        {
          "indexed": false,
          "internalType": "uint256",
          "name": "serviceId",
          "type": "uint256"
        },
        {
          "indexed": false,
          "internalType": "uint256",
          "name": "sellerId",
          "type": "uint256"
        }
      ],
      "name": "ProposalValidated",
      "type": "event"
    },
    {
      "anonymous": false,
      "inputs": [
        {
          "indexed": true,
          "internalType": "bytes32",
          "name": "role",
          "type": "bytes32"
        },
        {
          "indexed": true,
          "internalType": "bytes32",
          "name": "previousAdminRole",
          "type": "bytes32"
        },
        {
          "indexed": true,
          "internalType": "bytes32",
          "name": "newAdminRole",
          "type": "bytes32"
        }
      ],
      "name": "RoleAdminChanged",
      "type": "event"
    },
    {
      "anonymous": false,
      "inputs": [
        {
          "indexed": true,
          "internalType": "bytes32",
          "name": "role",
          "type": "bytes32"
        },
        {
          "indexed": true,
          "internalType": "address",
          "name": "account",
          "type": "address"
        },
        {
          "indexed": true,
          "internalType": "address",
          "name": "sender",
          "type": "address"
        }
      ],
      "name": "RoleGranted",
      "type": "event"
    },
    {
      "anonymous": false,
      "inputs": [
        {
          "indexed": true,
          "internalType": "bytes32",
          "name": "role",
          "type": "bytes32"
        },
        {
          "indexed": true,
          "internalType": "address",
          "name": "account",
          "type": "address"
        },
        {
          "indexed": true,
          "internalType": "address",
          "name": "sender",
          "type": "address"
        }
      ],
      "name": "RoleRevoked",
      "type": "event"
    },
    {
      "anonymous": false,
      "inputs": [
        {
          "indexed": false,
          "internalType": "uint256",
          "name": "id",
          "type": "uint256"
        },
        {
          "indexed": false,
          "internalType": "uint256",
          "name": "buyerId",
          "type": "uint256"
        },
        {
          "indexed": false,
          "internalType": "uint256",
          "name": "sellerId",
          "type": "uint256"
        },
        {
          "indexed": false,
          "internalType": "uint256",
          "name": "initiatorId",
          "type": "uint256"
        },
        {
          "indexed": false,
          "internalType": "uint256",
          "name": "platformId",
          "type": "uint256"
        }
      ],
      "name": "ServiceCreated",
      "type": "event"
    },
    {
      "anonymous": false,
      "inputs": [
        {
          "indexed": false,
          "internalType": "uint256",
          "name": "id",
          "type": "uint256"
        },
        {
          "indexed": false,
          "internalType": "string",
          "name": "serviceDataUri",
          "type": "string"
        }
      ],
      "name": "ServiceDataCreated",
      "type": "event"
    },
    {
      "anonymous": false,
      "inputs": [
        {
          "indexed": true,
          "internalType": "uint256",
          "name": "id",
          "type": "uint256"
        },
        {
          "indexed": false,
          "internalType": "string",
          "name": "newServiceDataUri",
          "type": "string"
        }
      ],
      "name": "ServiceDetailedUpdated",
      "type": "event"
    },
    {
      "inputs": [],
      "name": "DEFAULT_ADMIN_ROLE",
      "outputs": [
        {
          "internalType": "bytes32",
          "name": "",
          "type": "bytes32"
        }
      ],
      "stateMutability": "view",
      "type": "function"
    },
    {
      "inputs": [],
      "name": "ESCROW_ROLE",
      "outputs": [
        {
          "internalType": "bytes32",
          "name": "",
          "type": "bytes32"
        }
      ],
      "stateMutability": "view",
      "type": "function"
    },
    {
      "inputs": [
        {
          "internalType": "uint256",
          "name": "_serviceId",
          "type": "uint256"
        },
        {
          "internalType": "uint256",
          "name": "_proposalId",
          "type": "uint256"
        },
        {
          "internalType": "uint256",
          "name": "_transactionId",
          "type": "uint256"
        }
      ],
      "name": "afterDeposit",
      "outputs": [],
      "stateMutability": "nonpayable",
      "type": "function"
    },
    {
      "inputs": [
        {
          "internalType": "uint256",
          "name": "_serviceId",
          "type": "uint256"
        }
      ],
      "name": "afterFullPayment",
      "outputs": [],
      "stateMutability": "nonpayable",
      "type": "function"
    },
    {
      "inputs": [
        {
          "internalType": "uint256",
          "name": "_platformId",
          "type": "uint256"
        },
        {
          "internalType": "string",
          "name": "_serviceDataUri",
          "type": "string"
        }
      ],
      "name": "createOpenServiceFromBuyer",
      "outputs": [
        {
          "internalType": "uint256",
          "name": "",
          "type": "uint256"
        }
      ],
      "stateMutability": "nonpayable",
      "type": "function"
    },
    {
      "inputs": [
        {
          "internalType": "uint256",
          "name": "_serviceId",
          "type": "uint256"
        },
        {
          "internalType": "address",
          "name": "_rateToken",
          "type": "address"
        },
        {
          "internalType": "uint256",
          "name": "_rateAmount",
          "type": "uint256"
        },
        {
          "internalType": "string",
          "name": "_proposalDataUri",
          "type": "string"
        }
      ],
      "name": "createProposal",
      "outputs": [],
      "stateMutability": "nonpayable",
      "type": "function"
    },
    {
      "inputs": [
        {
          "internalType": "uint256",
          "name": "_serviceId",
          "type": "uint256"
        },
        {
          "internalType": "uint256",
          "name": "_proposalId",
          "type": "uint256"
        }
      ],
      "name": "getProposal",
      "outputs": [
        {
          "components": [
            {
              "internalType": "enum ServiceRegistry.ProposalStatus",
              "name": "status",
              "type": "uint8"
            },
            {
              "internalType": "uint256",
              "name": "sellerId",
              "type": "uint256"
            },
            {
              "internalType": "address",
              "name": "rateToken",
              "type": "address"
            },
            {
              "internalType": "uint256",
              "name": "rateAmount",
              "type": "uint256"
            },
            {
              "internalType": "string",
              "name": "proposalDataUri",
              "type": "string"
            }
          ],
          "internalType": "struct ServiceRegistry.Proposal",
          "name": "",
          "type": "tuple"
        }
      ],
      "stateMutability": "view",
      "type": "function"
    },
    {
      "inputs": [
        {
          "internalType": "bytes32",
          "name": "role",
          "type": "bytes32"
        }
      ],
      "name": "getRoleAdmin",
      "outputs": [
        {
          "internalType": "bytes32",
          "name": "",
          "type": "bytes32"
        }
      ],
      "stateMutability": "view",
      "type": "function"
    },
    {
      "inputs": [
        {
          "internalType": "uint256",
          "name": "_serviceId",
          "type": "uint256"
        }
      ],
      "name": "getService",
      "outputs": [
        {
          "components": [
            {
              "internalType": "enum ServiceRegistry.Status",
              "name": "status",
              "type": "uint8"
            },
            {
              "internalType": "uint256",
              "name": "buyerId",
              "type": "uint256"
            },
            {
              "internalType": "uint256",
              "name": "sellerId",
              "type": "uint256"
            },
            {
              "internalType": "uint256",
              "name": "initiatorId",
              "type": "uint256"
            },
            {
              "internalType": "string",
              "name": "serviceDataUri",
              "type": "string"
            },
            {
              "internalType": "uint256",
              "name": "countProposals",
              "type": "uint256"
            },
            {
              "internalType": "uint256",
              "name": "transactionId",
              "type": "uint256"
            },
            {
              "internalType": "uint256",
              "name": "platformId",
              "type": "uint256"
            }
          ],
          "internalType": "struct ServiceRegistry.Service",
          "name": "",
          "type": "tuple"
        }
      ],
      "stateMutability": "view",
      "type": "function"
    },
    {
      "inputs": [
        {
          "internalType": "bytes32",
          "name": "role",
          "type": "bytes32"
        },
        {
          "internalType": "address",
          "name": "account",
          "type": "address"
        }
      ],
      "name": "grantRole",
      "outputs": [],
      "stateMutability": "nonpayable",
      "type": "function"
    },
    {
      "inputs": [
        {
          "internalType": "bytes32",
          "name": "role",
          "type": "bytes32"
        },
        {
          "internalType": "address",
          "name": "account",
          "type": "address"
        }
      ],
      "name": "hasRole",
      "outputs": [
        {
          "internalType": "bool",
          "name": "",
          "type": "bool"
        }
      ],
      "stateMutability": "view",
      "type": "function"
    },
    {
      "inputs": [],
      "name": "nextServiceId",
      "outputs": [
        {
          "internalType": "uint256",
          "name": "",
          "type": "uint256"
        }
      ],
      "stateMutability": "view",
      "type": "function"
    },
    {
      "inputs": [
        {
          "internalType": "uint256",
          "name": "",
          "type": "uint256"
        },
        {
          "internalType": "uint256",
          "name": "",
          "type": "uint256"
        }
      ],
      "name": "proposals",
      "outputs": [
        {
          "internalType": "enum ServiceRegistry.ProposalStatus",
          "name": "status",
          "type": "uint8"
        },
        {
          "internalType": "uint256",
          "name": "sellerId",
          "type": "uint256"
        },
        {
          "internalType": "address",
          "name": "rateToken",
          "type": "address"
        },
        {
          "internalType": "uint256",
          "name": "rateAmount",
          "type": "uint256"
        },
        {
          "internalType": "string",
          "name": "proposalDataUri",
          "type": "string"
        }
      ],
      "stateMutability": "view",
      "type": "function"
    },
    {
      "inputs": [
        {
          "internalType": "uint256",
          "name": "_serviceId",
          "type": "uint256"
        },
        {
          "internalType": "uint256",
          "name": "_proposalId",
          "type": "uint256"
        }
      ],
      "name": "rejectProposal",
      "outputs": [],
      "stateMutability": "nonpayable",
      "type": "function"
    },
    {
      "inputs": [
        {
          "internalType": "bytes32",
          "name": "role",
          "type": "bytes32"
        },
        {
          "internalType": "address",
          "name": "account",
          "type": "address"
        }
      ],
      "name": "renounceRole",
      "outputs": [],
      "stateMutability": "nonpayable",
      "type": "function"
    },
    {
      "inputs": [
        {
          "internalType": "bytes32",
          "name": "role",
          "type": "bytes32"
        },
        {
          "internalType": "address",
          "name": "account",
          "type": "address"
        }
      ],
      "name": "revokeRole",
      "outputs": [],
      "stateMutability": "nonpayable",
      "type": "function"
    },
    {
      "inputs": [
        {
          "internalType": "uint256",
          "name": "",
          "type": "uint256"
        }
      ],
      "name": "services",
      "outputs": [
        {
          "internalType": "enum ServiceRegistry.Status",
          "name": "status",
          "type": "uint8"
        },
        {
          "internalType": "uint256",
          "name": "buyerId",
          "type": "uint256"
        },
        {
          "internalType": "uint256",
          "name": "sellerId",
          "type": "uint256"
        },
        {
          "internalType": "uint256",
          "name": "initiatorId",
          "type": "uint256"
        },
        {
          "internalType": "string",
          "name": "serviceDataUri",
          "type": "string"
        },
        {
          "internalType": "uint256",
          "name": "countProposals",
          "type": "uint256"
        },
        {
          "internalType": "uint256",
          "name": "transactionId",
          "type": "uint256"
        },
        {
          "internalType": "uint256",
          "name": "platformId",
          "type": "uint256"
        }
      ],
      "stateMutability": "view",
      "type": "function"
    },
    {
      "inputs": [
        {
          "internalType": "bytes4",
          "name": "interfaceId",
          "type": "bytes4"
        }
      ],
      "name": "supportsInterface",
      "outputs": [
        {
          "internalType": "bool",
          "name": "",
          "type": "bool"
        }
      ],
      "stateMutability": "view",
      "type": "function"
    },
    {
      "inputs": [],
      "name": "talentLayerPlatformIdContract",
      "outputs": [
        {
          "internalType": "contract ITalentLayerPlatformID",
          "name": "",
          "type": "address"
        }
      ],
      "stateMutability": "view",
      "type": "function"
    },
    {
      "inputs": [
        {
          "internalType": "uint256",
          "name": "_serviceId",
          "type": "uint256"
        },
        {
          "internalType": "address",
          "name": "_rateToken",
          "type": "address"
        },
        {
          "internalType": "uint256",
          "name": "_rateAmount",
          "type": "uint256"
        },
        {
          "internalType": "string",
          "name": "_proposalDataUri",
          "type": "string"
        }
      ],
      "name": "updateProposal",
      "outputs": [],
      "stateMutability": "nonpayable",
      "type": "function"
    },
    {
      "inputs": [
        {
          "internalType": "uint256",
          "name": "_serviceId",
          "type": "uint256"
        },
        {
          "internalType": "string",
          "name": "_newServiceDataUri",
          "type": "string"
        }
      ],
      "name": "updateServiceData",
      "outputs": [],
      "stateMutability": "nonpayable",
      "type": "function"
    },
    {
      "inputs": [
        {
          "internalType": "uint256",
          "name": "_serviceId",
          "type": "uint256"
        },
        {
          "internalType": "uint256",
          "name": "_proposalId",
          "type": "uint256"
        }
      ],
      "name": "validateProposal",
      "outputs": [],
      "stateMutability": "nonpayable",
      "type": "function"
    }
  ],
  "bytecode": "0x6080604052600180553480156200001557600080fd5b50604051620025643803806200256483398101604081905262000038916200014a565b600280546001600160a01b038085166001600160a01b0319928316179092556003805492841692909116919091179055620000756000336200007d565b505062000182565b6200008982826200008d565b5050565b6000828152602081815260408083206001600160a01b038516845290915290205460ff1662000089576000828152602081815260408083206001600160a01b03851684529091529020805460ff19166001179055620000e93390565b6001600160a01b0316816001600160a01b0316837f2f8788117e7eff1d82e926ec794901d17c78024a50270940304540a733656f0d60405160405180910390a45050565b80516001600160a01b03811681146200014557600080fd5b919050565b600080604083850312156200015e57600080fd5b62000169836200012d565b915062000179602084016200012d565b90509250929050565b6123d280620001926000396000f3fe608060405234801561001057600080fd5b50600436106101425760003560e01c8063a217fddf116100b8578063c22c4f431161007c578063c22c4f43146102da578063c2cfee2714610301578063d547741f14610325578063ef0e239b14610338578063f6bab04714610358578063f6c53d9b1461036b57600080fd5b8063a217fddf14610279578063a7d5eaea14610281578063a8d9939d14610294578063aba21009146102a7578063b7f2bd77146102c757600080fd5b8063477034da1161010a578063477034da146101f357806349c6559c146102065780635bdc75b0146102195780635f03f4ba1461022c5780636ce76f301461023f57806391d148541461026657600080fd5b806301ffc9a7146101475780631499f9e61461016f578063248a9ca31461019a5780632f2ff15d146101cb57806336568abe146101e0575b600080fd5b61015a610155366004611cab565b610374565b60405190151581526020015b60405180910390f35b600354610182906001600160a01b031681565b6040516001600160a01b039091168152602001610166565b6101bd6101a8366004611cd5565b60009081526020819052604090206001015490565b604051908152602001610166565b6101de6101d9366004611d0a565b6103ab565b005b6101de6101ee366004611d0a565b6103d5565b6101de610201366004611d36565b610458565b6101de610214366004611cd5565b610653565b6101de610227366004611d36565b610699565b6101de61023a366004611da1565b610818565b6101bd7f2fdac322ee704ce09f0773f7f3f92eb98d5e7c836ee9c056cccd5f61041e5e3f81565b61015a610274366004611d0a565b610be3565b6101bd600081565b6101de61028f366004611e09565b610c0c565b6101de6102a2366004611da1565b610c83565b6102ba6102b5366004611d36565b610ef1565b6040516101669190611ebb565b6101bd6102d5366004611f15565b611042565b6102ed6102e8366004611cd5565b611137565b604051610166989796959493929190611f71565b61031461030f366004611d36565b611206565b604051610166959493929190611fc5565b6101de610333366004611d0a565b6112d8565b61034b610346366004611cd5565b6112fd565b604051610166919061200a565b6101de610366366004611f15565b6114b6565b6101bd60015481565b60006001600160e01b03198216637965db0b60e01b14806103a557506301ffc9a760e01b6001600160e01b03198316145b92915050565b6000828152602081905260409020600101546103c6816116f6565b6103d08383611703565b505050565b6001600160a01b038116331461044a5760405162461bcd60e51b815260206004820152602f60248201527f416363657373436f6e74726f6c3a2063616e206f6e6c792072656e6f756e636560448201526e103937b632b9903337b91039b2b63360891b60648201526084015b60405180910390fd5b6104548282611787565b5050565b60025460405162438b6360e81b81523360048201526000916001600160a01b03169063438b63009060240160206040518083038186803b15801561049b57600080fd5b505afa1580156104af573d6000803e3d6000fd5b505050506040513d601f19601f820116820180604052508101906104d39190612082565b9050600081116104f55760405162461bcd60e51b81526004016104419061209b565b6000838152600460209081526040808320600583528184208685529092529091206001815460ff16600281111561052e5761052e611e35565b141561054c5760405162461bcd60e51b8152600401610441906120d2565b6002815460ff16600281111561056457610564611e35565b14156105bd5760405162461bcd60e51b815260206004820152602260248201527f50726f706f73616c2068617320616c7265616479206265656e2072656a656374604482015261195960f21b6064820152608401610441565b816001015483146106075760405162461bcd60e51b81526020600482015260146024820152732cb7ba93b932903737ba103a343290313abcb2b960611b6044820152606401610441565b805460ff1916600217815560408051868152602081018690527ffa74c17c82b1d1960368a621d45c9afe55e65c87a2c9fe612ac7e36c382b3f7891015b60405180910390a15050505050565b7f2fdac322ee704ce09f0773f7f3f92eb98d5e7c836ee9c056cccd5f61041e5e3f61067d816116f6565b506000908152600460205260409020805460ff19166002179055565b60025460405162438b6360e81b81523360048201526000916001600160a01b03169063438b63009060240160206040518083038186803b1580156106dc57600080fd5b505afa1580156106f0573d6000803e3d6000fd5b505050506040513d601f19601f820116820180604052508101906107149190612082565b9050600081116107365760405162461bcd60e51b81526004016104419061209b565b6000838152600460209081526040808320600583528184208685529092529091206001815460ff16600281111561076f5761076f611e35565b141561078d5760405162461bcd60e51b8152600401610441906120d2565b816001015483146107d75760405162461bcd60e51b81526020600482015260146024820152732cb7ba93b932903737ba103a343290313abcb2b960611b6044820152606401610441565b805460ff1916600117815560408051868152602081018690527f03a3b4a747d115189175e375b6c6ccd9dcdacdf7b4369aa5d8c3b8afda8ca2959101610644565b60025460405162438b6360e81b81523360048201526000916001600160a01b03169063438b63009060240160206040518083038186803b15801561085b57600080fd5b505afa15801561086f573d6000803e3d6000fd5b505050506040513d601f19601f820116820180604052508101906108939190612082565b9050600081116108b55760405162461bcd60e51b81526004016104419061209b565b600086815260046020819052604090912090815460ff1660048111156108dd576108dd611e35565b146109225760405162461bcd60e51b815260206004820152601560248201527414d95c9d9a58d9481a5cc81b9bdd081bdc195b9959605a1b6044820152606401610441565b60008781526005602090815260408083208584529091529020600101548214156109a65760405162461bcd60e51b815260206004820152602f60248201527f596f7520616c7265616479206372656174656420612070726f706f73616c206660448201526e6f722074686973207365727669636560881b6064820152608401610441565b60288160050154106109fa5760405162461bcd60e51b815260206004820152601b60248201527f4d61782070726f706f73616c7320636f756e74207265616368656400000000006044820152606401610441565b8181600101541415610a685760405162461bcd60e51b815260206004820152603160248201527f596f7520636f756c646e2774206372656174652070726f706f73616c20666f7260448201527020796f7572206f776e207365727669636560781b6064820152608401610441565b82610a855760405162461bcd60e51b815260040161044190612115565b600581018054906000610a9783612162565b90915550506040805160a081019091528060008152602001838152602001876001600160a01b0316815260200186815260200185858080601f016020809104026020016040519081016040528093929190818152602001838380828437600092018290525093909452505089815260056020908152604080832087845290915290208251815491925090829060ff19166001836002811115610b3b57610b3b611e35565b0217905550602082810151600183015560408301516002830180546001600160a01b0319166001600160a01b039092169190911790556060830151600383015560808301518051610b929260048501920190611b9e565b509050507fd56b812321b2869d7d3fe7c8f52e85169e580ffc706d0c33ba13145fe39cd53c8783868660008b8b604051610bd297969594939291906121a6565b60405180910390a150505050505050565b6000918252602082815260408084206001600160a01b0393909316845291905290205460ff1690565b7f2fdac322ee704ce09f0773f7f3f92eb98d5e7c836ee9c056cccd5f61041e5e3f610c36816116f6565b50600092835260046020908152604080852060058352818620948652939091529092208154600160ff19918216811784558083015460028501556006909301939093558054909216179055565b60025460405162438b6360e81b81523360048201526000916001600160a01b03169063438b63009060240160206040518083038186803b158015610cc657600080fd5b505afa158015610cda573d6000803e3d6000fd5b505050506040513d601f19601f82011682018060405250810190610cfe9190612082565b905060008111610d205760405162461bcd60e51b81526004016104419061209b565b60008681526004602081815260408084206005835281852086865290925290922090825460ff166004811115610d5857610d58611e35565b14610d9d5760405162461bcd60e51b815260206004820152601560248201527414d95c9d9a58d9481a5cc81b9bdd081bdc195b9959605a1b6044820152606401610441565b82816001015414610df05760405162461bcd60e51b815260206004820152601f60248201527f546869732070726f706f73616c20646f65736e277420657869737420796574006044820152606401610441565b83610e0d5760405162461bcd60e51b815260040161044190612115565b6001815460ff166002811115610e2557610e25611e35565b1415610e735760405162461bcd60e51b815260206004820181905260248201527f546869732070726f706f73616c20697320616c726561647920757064617465646044820152606401610441565b6002810180546001600160a01b0319166001600160a01b03891617905560038101869055610ea5600482018686611c22565b507f5cf385c7cf3e1609443b09191511540e030254887cccb510dfface4c041b6c55888487878b8b604051610edf969594939291906121f3565b60405180910390a15050505050505050565b610f2d6040805160a0810190915280600081526020016000815260200160006001600160a01b0316815260200160008152602001606081525090565b600083815260056020908152604080832085845290915290819020815160a081019092528054829060ff166002811115610f6957610f69611e35565b6002811115610f7a57610f7a611e35565b81526001820154602082015260028201546001600160a01b0316604082015260038201546060820152600482018054608090920191610fb890612231565b80601f0160208091040260200160405190810160405280929190818152602001828054610fe490612231565b80156110315780601f1061100657610100808354040283529160200191611031565b820191906000526020600020905b81548152906001019060200180831161101457829003601f168201915b505050505081525050905092915050565b60035460405162f577a560e81b8152600481018590526000916001600160a01b03169063f577a5009060240160006040518083038186803b15801561108657600080fd5b505afa15801561109a573d6000803e3d6000fd5b505060025460405162438b6360e81b8152336004820152600093506001600160a01b03909116915063438b63009060240160206040518083038186803b1580156110e357600080fd5b505afa1580156110f7573d6000803e3d6000fd5b505050506040513d601f19601f8201168201806040525081019061111b9190612082565b905061112e60048283600088888b6117ec565b95945050505050565b60046020819052600091825260409091208054600182015460028301546003840154948401805460ff909416959294919361117190612231565b80601f016020809104026020016040519081016040528092919081815260200182805461119d90612231565b80156111ea5780601f106111bf576101008083540402835291602001916111ea565b820191906000526020600020905b8154815290600101906020018083116111cd57829003601f168201915b5050505050908060050154908060060154908060070154905088565b60056020908152600092835260408084209091529082529020805460018201546002830154600384015460048501805460ff9095169593946001600160a01b0390931693919261125590612231565b80601f016020809104026020016040519081016040528092919081815260200182805461128190612231565b80156112ce5780601f106112a3576101008083540402835291602001916112ce565b820191906000526020600020905b8154815290600101906020018083116112b157829003601f168201915b5050505050905085565b6000828152602081905260409020600101546112f3816116f6565b6103d08383611787565b6113466040805161010081019091528060008152602001600081526020016000815260200160008152602001606081526020016000815260200160008152602001600081525090565b60015482106113975760405162461bcd60e51b815260206004820152601a60248201527f54686973207365727669636520646f65736e27742065786973740000000000006044820152606401610441565b6000828152600460208190526040918290208251610100810190935280549091839160ff16908111156113cc576113cc611e35565b60048111156113dd576113dd611e35565b815260200160018201548152602001600282015481526020016003820154815260200160048201805461140f90612231565b80601f016020809104026020016040519081016040528092919081815260200182805461143b90612231565b80156114885780601f1061145d57610100808354040283529160200191611488565b820191906000526020600020905b81548152906001019060200180831161146b57829003601f168201915b5050505050815260200160058201548152602001600682015481526020016007820154815250509050919050565b600083815260046020526040902060015484106115155760405162461bcd60e51b815260206004820152601a60248201527f54686973207365727669636520646f65736e27742065786973740000000000006044820152606401610441565b6004815460ff16600481111561152d5761152d611e35565b148061154e57506000815460ff16600481111561154c5761154c611e35565b145b6115ac5760405162461bcd60e51b815260206004820152602960248201527f53657276696365207374617475732073686f756c64206265206f70656e6564206044820152681bdc88199a5b1b195960ba1b6064820152608401610441565b60025460405162438b6360e81b81523360048201526001600160a01b039091169063438b63009060240160206040518083038186803b1580156115ee57600080fd5b505afa158015611602573d6000803e3d6000fd5b505050506040513d601f19601f820116820180604052508101906116269190612082565b81600301541461168a5760405162461bcd60e51b815260206004820152602960248201527f4f6e6c792074686520696e69746961746f722063616e2075706461746520746860448201526865207365727669636560b81b6064820152608401610441565b816116a75760405162461bcd60e51b815260040161044190612115565b6116b5600482018484611c22565b50837f1cae99404f615a4039d85b1009cb70622aae6d64f671e8b1b191d9269847d43e84846040516116e892919061226c565b60405180910390a250505050565b6117008133611997565b50565b61170d8282610be3565b610454576000828152602081815260408083206001600160a01b03851684529091529020805460ff191660011790556117433390565b6001600160a01b0316816001600160a01b0316837f2f8788117e7eff1d82e926ec794901d17c78024a50270940304540a733656f0d60405160405180910390a45050565b6117918282610be3565b15610454576000828152602081815260408083206001600160a01b0385168085529252808320805460ff1916905551339285917ff6391f5c32d9c69d2a47ea670b442974b53935d1edc7fd64eb21e047a839171b9190a45050565b600080871161180d5760405162461bcd60e51b81526004016104419061209b565b858514156118685760405162461bcd60e51b815260206004820152602260248201527f53656c6c657220616e642062757965722063616e2774206265207468652073616044820152616d6560f01b6064820152608401610441565b826118855760405162461bcd60e51b815260040161044190612115565b60018054908190600061189783612162565b90915550506000818152600460208190526040909120805490918b91839160ff199091169060019084908111156118d0576118d0611e35565b02179055506001810188905560028101879055600381018990556118f8600482018787611c22565b506007810184905560408051838152602081018a9052908101889052606081018a9052608081018590527f9cd325e0ba2126728b21176b4b24c49c672e66820627759eedcab6b5dd7dac499060a00160405180910390a17f4874366e887bb729d49976a8f6751c4263d1668fd396db9b8d5f037895e7a74582878760405161198293929190612280565b60405180910390a15098975050505050505050565b6119a18282610be3565b610454576119b9816001600160a01b031660146119fb565b6119c48360206119fb565b6040516020016119d592919061229a565b60408051601f198184030181529082905262461bcd60e51b82526104419160040161230f565b60606000611a0a836002612322565b611a15906002612341565b67ffffffffffffffff811115611a2d57611a2d612359565b6040519080825280601f01601f191660200182016040528015611a57576020820181803683370190505b509050600360fc1b81600081518110611a7257611a7261236f565b60200101906001600160f81b031916908160001a905350600f60fb1b81600181518110611aa157611aa161236f565b60200101906001600160f81b031916908160001a9053506000611ac5846002612322565b611ad0906001612341565b90505b6001811115611b48576f181899199a1a9b1b9c1cb0b131b232b360811b85600f1660108110611b0457611b0461236f565b1a60f81b828281518110611b1a57611b1a61236f565b60200101906001600160f81b031916908160001a90535060049490941c93611b4181612385565b9050611ad3565b508315611b975760405162461bcd60e51b815260206004820181905260248201527f537472696e67733a20686578206c656e67746820696e73756666696369656e746044820152606401610441565b9392505050565b828054611baa90612231565b90600052602060002090601f016020900481019282611bcc5760008555611c12565b82601f10611be557805160ff1916838001178555611c12565b82800160010185558215611c12579182015b82811115611c12578251825591602001919060010190611bf7565b50611c1e929150611c96565b5090565b828054611c2e90612231565b90600052602060002090601f016020900481019282611c505760008555611c12565b82601f10611c695782800160ff19823516178555611c12565b82800160010185558215611c12579182015b82811115611c12578235825591602001919060010190611c7b565b5b80821115611c1e5760008155600101611c97565b600060208284031215611cbd57600080fd5b81356001600160e01b031981168114611b9757600080fd5b600060208284031215611ce757600080fd5b5035919050565b80356001600160a01b0381168114611d0557600080fd5b919050565b60008060408385031215611d1d57600080fd5b82359150611d2d60208401611cee565b90509250929050565b60008060408385031215611d4957600080fd5b50508035926020909101359150565b60008083601f840112611d6a57600080fd5b50813567ffffffffffffffff811115611d8257600080fd5b602083019150836020828501011115611d9a57600080fd5b9250929050565b600080600080600060808688031215611db957600080fd5b85359450611dc960208701611cee565b935060408601359250606086013567ffffffffffffffff811115611dec57600080fd5b611df888828901611d58565b969995985093965092949392505050565b600080600060608486031215611e1e57600080fd5b505081359360208301359350604090920135919050565b634e487b7160e01b600052602160045260246000fd5b60038110611e5b57611e5b611e35565b9052565b60005b83811015611e7a578181015183820152602001611e62565b83811115611e89576000848401525b50505050565b60008151808452611ea7816020860160208601611e5f565b601f01601f19169290920160200192915050565b60208152611ecd602082018351611e4b565b6020820151604082015260018060a01b036040830151166060820152606082015160808201526000608083015160a080840152611f0d60c0840182611e8f565b949350505050565b600080600060408486031215611f2a57600080fd5b83359250602084013567ffffffffffffffff811115611f4857600080fd5b611f5486828701611d58565b9497909650939450505050565b60058110611e5b57611e5b611e35565b6000610100611f80838c611f61565b896020840152886040840152876060840152806080840152611fa481840188611e8f565b60a0840196909652505060c081019290925260e09091015295945050505050565b611fcf8187611e4b565b84602082015260018060a01b038416604082015282606082015260a060808201526000611fff60a0830184611e8f565b979650505050505050565b6020815261201c602082018351611f61565b602082015160408201526040820151606082015260608201516080820152600060808301516101008060a0850152612058610120850183611e8f565b915060a085015160c085015260c085015160e085015260e085015181850152508091505092915050565b60006020828403121561209457600080fd5b5051919050565b6020808252601f908201527f596f752073686f756c64206861766520612054616c656e744c61796572496400604082015260600190565b60208082526023908201527f50726f706f73616c2068617320616c7265616479206265656e2076616c6964616040820152621d195960ea1b606082015260800190565b6020808252601f908201527f53686f756c642070726f7669646520612076616c696420495046532055524900604082015260600190565b634e487b7160e01b600052601160045260246000fd5b60006000198214156121765761217661214c565b5060010190565b81835281816020850137506000828201602090810191909152601f909101601f19169091010190565b87815286602082015260c0604082015260006121c660c08301878961217d565b90506121d56060830186611e4b565b6001600160a01b0393909316608082015260a0015295945050505050565b86815285602082015260a06040820152600061221360a08301868861217d565b6001600160a01b039490941660608301525060800152949350505050565b600181811c9082168061224557607f821691505b6020821081141561226657634e487b7160e01b600052602260045260246000fd5b50919050565b602081526000611f0d60208301848661217d565b83815260406020820152600061112e60408301848661217d565b7f416363657373436f6e74726f6c3a206163636f756e74200000000000000000008152600083516122d2816017850160208801611e5f565b7001034b99036b4b9b9b4b733903937b6329607d1b6017918401918201528351612303816028840160208801611e5f565b01602801949350505050565b602081526000611b976020830184611e8f565b600081600019048311821515161561233c5761233c61214c565b500290565b600082198211156123545761235461214c565b500190565b634e487b7160e01b600052604160045260246000fd5b634e487b7160e01b600052603260045260246000fd5b6000816123945761239461214c565b50600019019056fea2646970667358221220141719ac1530c7d3c802158769b5509c1eb2e561a42de423db89aa29eb06e2dc64736f6c63430008090033",
  "linkReferences": {},
  "deployedLinkReferences": {}
}