{
  "_format": "hh-sol-artifact-1",
  "contractName": "ServiceRegistry",
  "sourceName": "contracts/ServiceRegistry.sol",
  "abi": [
    {
      "inputs": [
        {
          "internalType": "address",
          "name": "_talentLayerIdAddress",
          "type": "address"
        },
        {
          "internalType": "address",
          "name": "_talentLayerPlatformIdAddress",
          "type": "address"
        }
      ],
      "stateMutability": "nonpayable",
      "type": "constructor"
    },
    {
      "anonymous": false,
      "inputs": [
        {
          "indexed": false,
          "internalType": "uint256",
          "name": "serviceId",
          "type": "uint256"
        },
        {
          "indexed": false,
          "internalType": "uint256",
          "name": "sellerId",
          "type": "uint256"
        },
        {
          "indexed": false,
          "internalType": "string",
          "name": "proposalDataUri",
          "type": "string"
        },
        {
          "indexed": false,
          "internalType": "enum ServiceRegistry.ProposalStatus",
          "name": "status",
          "type": "uint8"
        },
        {
          "indexed": false,
          "internalType": "address",
          "name": "rateToken",
          "type": "address"
        },
        {
          "indexed": false,
          "internalType": "uint256",
          "name": "rateAmount",
          "type": "uint256"
        }
      ],
      "name": "ProposalCreated",
      "type": "event"
    },
    {
      "anonymous": false,
      "inputs": [
        {
          "indexed": false,
          "internalType": "uint256",
          "name": "serviceId",
          "type": "uint256"
        },
        {
          "indexed": false,
          "internalType": "uint256",
          "name": "sellerId",
          "type": "uint256"
        }
      ],
      "name": "ProposalRejected",
      "type": "event"
    },
    {
      "anonymous": false,
      "inputs": [
        {
          "indexed": false,
          "internalType": "uint256",
          "name": "serviceId",
          "type": "uint256"
        },
        {
          "indexed": false,
          "internalType": "uint256",
          "name": "sellerId",
          "type": "uint256"
        },
        {
          "indexed": false,
          "internalType": "string",
          "name": "proposalDataUri",
          "type": "string"
        },
        {
          "indexed": false,
          "internalType": "address",
          "name": "rateToken",
          "type": "address"
        },
        {
          "indexed": false,
          "internalType": "uint256",
          "name": "rateAmount",
          "type": "uint256"
        }
      ],
      "name": "ProposalUpdated",
      "type": "event"
    },
    {
      "anonymous": false,
      "inputs": [
        {
          "indexed": false,
          "internalType": "uint256",
          "name": "serviceId",
          "type": "uint256"
        },
        {
          "indexed": false,
          "internalType": "uint256",
          "name": "sellerId",
          "type": "uint256"
        }
      ],
      "name": "ProposalValidated",
      "type": "event"
    },
    {
      "anonymous": false,
      "inputs": [
        {
          "indexed": true,
          "internalType": "bytes32",
          "name": "role",
          "type": "bytes32"
        },
        {
          "indexed": true,
          "internalType": "bytes32",
          "name": "previousAdminRole",
          "type": "bytes32"
        },
        {
          "indexed": true,
          "internalType": "bytes32",
          "name": "newAdminRole",
          "type": "bytes32"
        }
      ],
      "name": "RoleAdminChanged",
      "type": "event"
    },
    {
      "anonymous": false,
      "inputs": [
        {
          "indexed": true,
          "internalType": "bytes32",
          "name": "role",
          "type": "bytes32"
        },
        {
          "indexed": true,
          "internalType": "address",
          "name": "account",
          "type": "address"
        },
        {
          "indexed": true,
          "internalType": "address",
          "name": "sender",
          "type": "address"
        }
      ],
      "name": "RoleGranted",
      "type": "event"
    },
    {
      "anonymous": false,
      "inputs": [
        {
          "indexed": true,
          "internalType": "bytes32",
          "name": "role",
          "type": "bytes32"
        },
        {
          "indexed": true,
          "internalType": "address",
          "name": "account",
          "type": "address"
        },
        {
          "indexed": true,
          "internalType": "address",
          "name": "sender",
          "type": "address"
        }
      ],
      "name": "RoleRevoked",
      "type": "event"
    },
    {
      "anonymous": false,
      "inputs": [
        {
          "indexed": false,
          "internalType": "uint256",
          "name": "id",
          "type": "uint256"
        },
        {
          "indexed": false,
          "internalType": "uint256",
          "name": "buyerId",
          "type": "uint256"
        },
        {
          "indexed": false,
          "internalType": "uint256",
          "name": "sellerId",
          "type": "uint256"
        },
        {
          "indexed": false,
          "internalType": "string",
          "name": "serviceDataUri",
          "type": "string"
        }
      ],
      "name": "ServiceConfirmed",
      "type": "event"
    },
    {
      "anonymous": false,
      "inputs": [
        {
          "indexed": false,
          "internalType": "uint256",
          "name": "id",
          "type": "uint256"
        },
        {
          "indexed": false,
          "internalType": "uint256",
          "name": "buyerId",
          "type": "uint256"
        },
        {
          "indexed": false,
          "internalType": "uint256",
          "name": "sellerId",
          "type": "uint256"
        },
        {
          "indexed": false,
          "internalType": "uint256",
          "name": "initiatorId",
          "type": "uint256"
        },
        {
          "indexed": false,
          "internalType": "uint256",
          "name": "platformId",
          "type": "uint256"
        }
      ],
      "name": "ServiceCreated",
      "type": "event"
    },
    {
      "anonymous": false,
      "inputs": [
        {
          "indexed": false,
          "internalType": "uint256",
          "name": "id",
          "type": "uint256"
        },
        {
          "indexed": false,
          "internalType": "string",
          "name": "serviceDataUri",
          "type": "string"
        }
      ],
      "name": "ServiceDataCreated",
      "type": "event"
    },
    {
      "anonymous": false,
      "inputs": [
        {
          "indexed": true,
          "internalType": "uint256",
          "name": "id",
          "type": "uint256"
        },
        {
          "indexed": false,
          "internalType": "string",
          "name": "newServiceDataUri",
          "type": "string"
        }
      ],
      "name": "ServiceDetailedUpdated",
      "type": "event"
    },
    {
      "anonymous": false,
      "inputs": [
        {
          "indexed": false,
          "internalType": "uint256",
          "name": "id",
          "type": "uint256"
        },
        {
          "indexed": false,
          "internalType": "uint256",
          "name": "buyerId",
          "type": "uint256"
        },
        {
          "indexed": false,
          "internalType": "uint256",
          "name": "sellerId",
          "type": "uint256"
        },
        {
          "indexed": false,
          "internalType": "string",
          "name": "serviceDataUri",
          "type": "string"
        }
      ],
      "name": "ServiceFinished",
      "type": "event"
    },
    {
      "anonymous": false,
      "inputs": [
        {
          "indexed": false,
          "internalType": "uint256",
          "name": "id",
          "type": "uint256"
        },
        {
          "indexed": false,
          "internalType": "uint256",
          "name": "buyerId",
          "type": "uint256"
        },
        {
          "indexed": false,
          "internalType": "uint256",
          "name": "sellerId",
          "type": "uint256"
        },
        {
          "indexed": false,
          "internalType": "string",
          "name": "serviceDataUri",
          "type": "string"
        }
      ],
      "name": "ServiceRejected",
      "type": "event"
    },
    {
      "anonymous": false,
      "inputs": [
        {
          "indexed": false,
          "internalType": "uint256",
          "name": "id",
          "type": "uint256"
        },
        {
          "indexed": false,
          "internalType": "uint256",
          "name": "sellerId",
          "type": "uint256"
        },
        {
          "indexed": false,
          "internalType": "enum ServiceRegistry.Status",
          "name": "status",
          "type": "uint8"
        }
      ],
      "name": "ServiceSellerAssigned",
      "type": "event"
    },
    {
      "inputs": [],
      "name": "DEFAULT_ADMIN_ROLE",
      "outputs": [
        {
          "internalType": "bytes32",
          "name": "",
          "type": "bytes32"
        }
      ],
      "stateMutability": "view",
      "type": "function"
    },
    {
      "inputs": [],
      "name": "ESCROW_ROLE",
      "outputs": [
        {
          "internalType": "bytes32",
          "name": "",
          "type": "bytes32"
        }
      ],
      "stateMutability": "view",
      "type": "function"
    },
    {
      "inputs": [
        {
          "internalType": "uint256",
          "name": "_serviceId",
          "type": "uint256"
        },
        {
          "internalType": "uint256",
          "name": "_proposalId",
          "type": "uint256"
        },
        {
          "internalType": "uint256",
          "name": "_transactionId",
          "type": "uint256"
        }
      ],
      "name": "afterDeposit",
      "outputs": [],
      "stateMutability": "nonpayable",
      "type": "function"
    },
    {
      "inputs": [
        {
          "internalType": "uint256",
          "name": "_serviceId",
          "type": "uint256"
        }
      ],
      "name": "afterFullPayment",
      "outputs": [],
      "stateMutability": "nonpayable",
      "type": "function"
    },
    {
      "inputs": [
        {
          "internalType": "uint256",
          "name": "_serviceId",
          "type": "uint256"
        },
        {
          "internalType": "uint256",
          "name": "_sellerId",
          "type": "uint256"
        }
      ],
      "name": "assignSellerToService",
      "outputs": [],
      "stateMutability": "nonpayable",
      "type": "function"
    },
    {
      "inputs": [
        {
          "internalType": "uint256",
          "name": "_serviceId",
          "type": "uint256"
        }
      ],
      "name": "confirmService",
      "outputs": [],
      "stateMutability": "nonpayable",
      "type": "function"
    },
    {
      "inputs": [
        {
          "internalType": "uint256",
          "name": "_platformId",
          "type": "uint256"
        },
        {
          "internalType": "string",
          "name": "_serviceDataUri",
          "type": "string"
        }
      ],
      "name": "createOpenServiceFromBuyer",
      "outputs": [
        {
          "internalType": "uint256",
          "name": "",
          "type": "uint256"
        }
      ],
      "stateMutability": "nonpayable",
      "type": "function"
    },
    {
      "inputs": [
        {
          "internalType": "uint256",
          "name": "_serviceId",
          "type": "uint256"
        },
        {
          "internalType": "address",
          "name": "_rateToken",
          "type": "address"
        },
        {
          "internalType": "uint256",
          "name": "_rateAmount",
          "type": "uint256"
        },
        {
          "internalType": "string",
          "name": "_proposalDataUri",
          "type": "string"
        }
      ],
      "name": "createProposal",
      "outputs": [],
      "stateMutability": "nonpayable",
      "type": "function"
    },
    {
      "inputs": [
        {
          "internalType": "uint256",
          "name": "_platformId",
          "type": "uint256"
        },
        {
          "internalType": "uint256",
          "name": "_sellerId",
          "type": "uint256"
        },
        {
          "internalType": "string",
          "name": "_serviceDataUri",
          "type": "string"
        }
      ],
      "name": "createServiceFromBuyer",
      "outputs": [
        {
          "internalType": "uint256",
          "name": "",
          "type": "uint256"
        }
      ],
      "stateMutability": "nonpayable",
      "type": "function"
    },
    {
      "inputs": [
        {
          "internalType": "uint256",
          "name": "_platformId",
          "type": "uint256"
        },
        {
          "internalType": "uint256",
          "name": "_buyerId",
          "type": "uint256"
        },
        {
          "internalType": "string",
          "name": "_serviceDataUri",
          "type": "string"
        }
      ],
      "name": "createServiceFromSeller",
      "outputs": [
        {
          "internalType": "uint256",
          "name": "",
          "type": "uint256"
        }
      ],
      "stateMutability": "nonpayable",
      "type": "function"
    },
    {
      "inputs": [
        {
          "internalType": "uint256",
          "name": "_serviceId",
          "type": "uint256"
        }
      ],
      "name": "finishService",
      "outputs": [],
      "stateMutability": "nonpayable",
      "type": "function"
    },
    {
      "inputs": [
        {
          "internalType": "uint256",
          "name": "_serviceId",
          "type": "uint256"
        },
        {
          "internalType": "uint256",
          "name": "_proposalId",
          "type": "uint256"
        }
      ],
      "name": "getProposal",
      "outputs": [
        {
          "components": [
            {
              "internalType": "enum ServiceRegistry.ProposalStatus",
              "name": "status",
              "type": "uint8"
            },
            {
              "internalType": "uint256",
              "name": "sellerId",
              "type": "uint256"
            },
            {
              "internalType": "address",
              "name": "rateToken",
              "type": "address"
            },
            {
              "internalType": "uint256",
              "name": "rateAmount",
              "type": "uint256"
            },
            {
              "internalType": "string",
              "name": "proposalDataUri",
              "type": "string"
            }
          ],
          "internalType": "struct ServiceRegistry.Proposal",
          "name": "",
          "type": "tuple"
        }
      ],
      "stateMutability": "view",
      "type": "function"
    },
    {
      "inputs": [
        {
          "internalType": "bytes32",
          "name": "role",
          "type": "bytes32"
        }
      ],
      "name": "getRoleAdmin",
      "outputs": [
        {
          "internalType": "bytes32",
          "name": "",
          "type": "bytes32"
        }
      ],
      "stateMutability": "view",
      "type": "function"
    },
    {
      "inputs": [
        {
          "internalType": "uint256",
          "name": "_serviceId",
          "type": "uint256"
        }
      ],
      "name": "getService",
      "outputs": [
        {
          "components": [
            {
              "internalType": "enum ServiceRegistry.Status",
              "name": "status",
              "type": "uint8"
            },
            {
              "internalType": "uint256",
              "name": "buyerId",
              "type": "uint256"
            },
            {
              "internalType": "uint256",
              "name": "sellerId",
              "type": "uint256"
            },
            {
              "internalType": "uint256",
              "name": "initiatorId",
              "type": "uint256"
            },
            {
              "internalType": "string",
              "name": "serviceDataUri",
              "type": "string"
            },
            {
              "internalType": "uint256",
              "name": "countProposals",
              "type": "uint256"
            },
            {
              "internalType": "uint256",
              "name": "transactionId",
              "type": "uint256"
            },
            {
              "internalType": "uint256",
              "name": "platformId",
              "type": "uint256"
            }
          ],
          "internalType": "struct ServiceRegistry.Service",
          "name": "",
          "type": "tuple"
        }
      ],
      "stateMutability": "view",
      "type": "function"
    },
    {
      "inputs": [
        {
          "internalType": "bytes32",
          "name": "role",
          "type": "bytes32"
        },
        {
          "internalType": "address",
          "name": "account",
          "type": "address"
        }
      ],
      "name": "grantRole",
      "outputs": [],
      "stateMutability": "nonpayable",
      "type": "function"
    },
    {
      "inputs": [
        {
          "internalType": "bytes32",
          "name": "role",
          "type": "bytes32"
        },
        {
          "internalType": "address",
          "name": "account",
          "type": "address"
        }
      ],
      "name": "hasRole",
      "outputs": [
        {
          "internalType": "bool",
          "name": "",
          "type": "bool"
        }
      ],
      "stateMutability": "view",
      "type": "function"
    },
    {
      "inputs": [],
      "name": "nextServiceId",
      "outputs": [
        {
          "internalType": "uint256",
          "name": "",
          "type": "uint256"
        }
      ],
      "stateMutability": "view",
      "type": "function"
    },
    {
      "inputs": [
        {
          "internalType": "uint256",
          "name": "",
          "type": "uint256"
        },
        {
          "internalType": "uint256",
          "name": "",
          "type": "uint256"
        }
      ],
      "name": "proposals",
      "outputs": [
        {
          "internalType": "enum ServiceRegistry.ProposalStatus",
          "name": "status",
          "type": "uint8"
        },
        {
          "internalType": "uint256",
          "name": "sellerId",
          "type": "uint256"
        },
        {
          "internalType": "address",
          "name": "rateToken",
          "type": "address"
        },
        {
          "internalType": "uint256",
          "name": "rateAmount",
          "type": "uint256"
        },
        {
          "internalType": "string",
          "name": "proposalDataUri",
          "type": "string"
        }
      ],
      "stateMutability": "view",
      "type": "function"
    },
    {
      "inputs": [
        {
          "internalType": "uint256",
          "name": "_serviceId",
          "type": "uint256"
        },
        {
          "internalType": "uint256",
          "name": "_proposalId",
          "type": "uint256"
        }
      ],
      "name": "rejectProposal",
      "outputs": [],
      "stateMutability": "nonpayable",
      "type": "function"
    },
    {
      "inputs": [
        {
          "internalType": "uint256",
          "name": "_serviceId",
          "type": "uint256"
        }
      ],
      "name": "rejectService",
      "outputs": [],
      "stateMutability": "nonpayable",
      "type": "function"
    },
    {
      "inputs": [
        {
          "internalType": "bytes32",
          "name": "role",
          "type": "bytes32"
        },
        {
          "internalType": "address",
          "name": "account",
          "type": "address"
        }
      ],
      "name": "renounceRole",
      "outputs": [],
      "stateMutability": "nonpayable",
      "type": "function"
    },
    {
      "inputs": [
        {
          "internalType": "bytes32",
          "name": "role",
          "type": "bytes32"
        },
        {
          "internalType": "address",
          "name": "account",
          "type": "address"
        }
      ],
      "name": "revokeRole",
      "outputs": [],
      "stateMutability": "nonpayable",
      "type": "function"
    },
    {
      "inputs": [
        {
          "internalType": "uint256",
          "name": "",
          "type": "uint256"
        }
      ],
      "name": "services",
      "outputs": [
        {
          "internalType": "enum ServiceRegistry.Status",
          "name": "status",
          "type": "uint8"
        },
        {
          "internalType": "uint256",
          "name": "buyerId",
          "type": "uint256"
        },
        {
          "internalType": "uint256",
          "name": "sellerId",
          "type": "uint256"
        },
        {
          "internalType": "uint256",
          "name": "initiatorId",
          "type": "uint256"
        },
        {
          "internalType": "string",
          "name": "serviceDataUri",
          "type": "string"
        },
        {
          "internalType": "uint256",
          "name": "countProposals",
          "type": "uint256"
        },
        {
          "internalType": "uint256",
          "name": "transactionId",
          "type": "uint256"
        },
        {
          "internalType": "uint256",
          "name": "platformId",
          "type": "uint256"
        }
      ],
      "stateMutability": "view",
      "type": "function"
    },
    {
      "inputs": [
        {
          "internalType": "bytes4",
          "name": "interfaceId",
          "type": "bytes4"
        }
      ],
      "name": "supportsInterface",
      "outputs": [
        {
          "internalType": "bool",
          "name": "",
          "type": "bool"
        }
      ],
      "stateMutability": "view",
      "type": "function"
    },
    {
      "inputs": [],
      "name": "talentLayerPlatformIdContract",
      "outputs": [
        {
          "internalType": "contract ITalentLayerPlatformID",
          "name": "",
          "type": "address"
        }
      ],
      "stateMutability": "view",
      "type": "function"
    },
    {
      "inputs": [
        {
          "internalType": "uint256",
          "name": "_serviceId",
          "type": "uint256"
        },
        {
          "internalType": "address",
          "name": "_rateToken",
          "type": "address"
        },
        {
          "internalType": "uint256",
          "name": "_rateAmount",
          "type": "uint256"
        },
        {
          "internalType": "string",
          "name": "_proposalDataUri",
          "type": "string"
        }
      ],
      "name": "updateProposal",
      "outputs": [],
      "stateMutability": "nonpayable",
      "type": "function"
    },
    {
      "inputs": [
        {
          "internalType": "uint256",
          "name": "_serviceId",
          "type": "uint256"
        },
        {
          "internalType": "string",
          "name": "_newServiceDataUri",
          "type": "string"
        }
      ],
      "name": "updateServiceData",
      "outputs": [],
      "stateMutability": "nonpayable",
      "type": "function"
    },
    {
      "inputs": [
        {
          "internalType": "uint256",
          "name": "_serviceId",
          "type": "uint256"
        },
        {
          "internalType": "uint256",
          "name": "_proposalId",
          "type": "uint256"
        }
      ],
      "name": "validateProposal",
      "outputs": [],
      "stateMutability": "nonpayable",
      "type": "function"
    }
  ],
  "bytecode": "0x6080604052600180553480156200001557600080fd5b50604051620031b8380380620031b883398101604081905262000038916200014a565b600280546001600160a01b038085166001600160a01b0319928316179092556003805492841692909116919091179055620000756000336200007d565b505062000182565b6200008982826200008d565b5050565b6000828152602081815260408083206001600160a01b038516845290915290205460ff1662000089576000828152602081815260408083206001600160a01b03851684529091529020805460ff19166001179055620000e93390565b6001600160a01b0316816001600160a01b0316837f2f8788117e7eff1d82e926ec794901d17c78024a50270940304540a733656f0d60405160405180910390a45050565b80516001600160a01b03811681146200014557600080fd5b919050565b600080604083850312156200015e57600080fd5b62000169836200012d565b915062000179602084016200012d565b90509250929050565b61302680620001926000396000f3fe608060405234801561001057600080fd5b50600436106101c45760003560e01c806386c4a1ae116100f9578063b7f2bd7711610097578063d547741f11610071578063d547741f14610419578063ef0e239b1461042c578063f6bab0471461044c578063f6c53d9b1461045f57600080fd5b8063b7f2bd77146103bb578063c22c4f43146103ce578063c2cfee27146103f557600080fd5b8063a7d5eaea116100d3578063a7d5eaea14610362578063a8d9939d14610375578063aba2100914610388578063b2548713146103a857600080fd5b806386c4a1ae1461033457806391d1485414610347578063a217fddf1461035a57600080fd5b806349c6559c116101665780635f03f4ba116101405780635f03f4ba146102d45780636ce76f30146102e757806372b8b4041461030e57806380e9f4ed1461032157600080fd5b806349c6559c1461029b578063572f9b39146102ae5780635bdc75b0146102c157600080fd5b8063248a9ca3116101a2578063248a9ca3146102315780632f2ff15d1461026257806336568abe14610275578063477034da1461028857600080fd5b806301ffc9a7146101c957806304c7c4c8146101f15780631499f9e614610206575b600080fd5b6101dc6101d7366004612755565b610468565b60405190151581526020015b60405180910390f35b6102046101ff36600461277f565b61049f565b005b600354610219906001600160a01b031681565b6040516001600160a01b0390911681526020016101e8565b61025461023f3660046127a1565b60009081526020819052604090206001015490565b6040519081526020016101e8565b6102046102703660046127d6565b6106fb565b6102046102833660046127d6565b610725565b61020461029636600461277f565b6107a3565b6102046102a93660046127a1565b61099e565b6102046102bc3660046127a1565b6109e4565b6102046102cf36600461277f565b610be6565b6102046102e236600461284b565b610d65565b6102547f2fdac322ee704ce09f0773f7f3f92eb98d5e7c836ee9c056cccd5f61041e5e3f81565b61020461031c3660046127a1565b611130565b61025461032f3660046128b3565b6112a1565b6102546103423660046128b3565b6113f3565b6101dc6103553660046127d6565b611539565b610254600081565b610204610370366004612906565b611562565b61020461038336600461284b565b6115d9565b61039b61039636600461277f565b611847565b6040516101e891906129b8565b6102046103b63660046127a1565b611998565b6102546103c9366004612a0a565b611b27565b6103e16103dc3660046127a1565b611c1c565b6040516101e8989796959493929190612a66565b61040861040336600461277f565b611ceb565b6040516101e8959493929190612aba565b6102046104273660046127d6565b611dbd565b61043f61043a3660046127a1565b611de2565b6040516101e89190612aff565b61020461045a366004612a0a565b611f9b565b61025460015481565b60006001600160e01b03198216637965db0b60e01b148061049957506301ffc9a760e01b6001600160e01b03198316145b92915050565b6000828152600460208190526040808320600254915162438b6360e81b8152339381019390935292916001600160a01b039091169063438b63009060240160206040518083038186803b1580156104f557600080fd5b505afa158015610509573d6000803e3d6000fd5b505050506040513d601f19601f8201168201806040525081019061052d9190612b77565b60025460405162f577a560e81b8152600481018690529192506001600160a01b03169063f577a5009060240160006040518083038186803b15801561057157600080fd5b505afa158015610585573d6000803e3d6000fd5b5060049250610592915050565b825460ff1660048111156105a8576105a8612932565b14806105c957506003825460ff1660048111156105c7576105c7612932565b145b6106265760405162461bcd60e51b8152602060048201526024808201527f536572766963652068617320746f206265204f70656e6564206f722052656a6560448201526318dd195960e21b60648201526084015b60405180910390fd5b816001015481146106855760405162461bcd60e51b815260206004820152602360248201527f596f75277265206e6f7420616e206275796572206f662074686973207365727660448201526269636560e81b606482015260840161061d565b81600101548314156106a95760405162461bcd60e51b815260040161061d90612b90565b60028201839055815460ff191682556040517f971e8551958753bddb720490981e7feefe759d725cdb641319cc21257bc17a15906106ed9086908690600090612bd2565b60405180910390a150505050565b600082815260208190526040902060010154610716816121db565b61072083836121e8565b505050565b6001600160a01b03811633146107955760405162461bcd60e51b815260206004820152602f60248201527f416363657373436f6e74726f6c3a2063616e206f6e6c792072656e6f756e636560448201526e103937b632b9903337b91039b2b63360891b606482015260840161061d565b61079f828261226c565b5050565b60025460405162438b6360e81b81523360048201526000916001600160a01b03169063438b63009060240160206040518083038186803b1580156107e657600080fd5b505afa1580156107fa573d6000803e3d6000fd5b505050506040513d601f19601f8201168201806040525081019061081e9190612b77565b9050600081116108405760405162461bcd60e51b815260040161061d90612bed565b6000838152600460209081526040808320600583528184208685529092529091206001815460ff16600281111561087957610879612932565b14156108975760405162461bcd60e51b815260040161061d90612c24565b6002815460ff1660028111156108af576108af612932565b14156109085760405162461bcd60e51b815260206004820152602260248201527f50726f706f73616c2068617320616c7265616479206265656e2072656a656374604482015261195960f21b606482015260840161061d565b816001015483146109525760405162461bcd60e51b81526020600482015260146024820152732cb7ba93b932903737ba103a343290313abcb2b960611b604482015260640161061d565b805460ff1916600217815560408051868152602081018690527ffa74c17c82b1d1960368a621d45c9afe55e65c87a2c9fe612ac7e36c382b3f7891015b60405180910390a15050505050565b7f2fdac322ee704ce09f0773f7f3f92eb98d5e7c836ee9c056cccd5f61041e5e3f6109c8816121db565b506000908152600460205260409020805460ff19166002179055565b6000818152600460208190526040808320600254915162438b6360e81b8152339381019390935292916001600160a01b039091169063438b63009060240160206040518083038186803b158015610a3a57600080fd5b505afa158015610a4e573d6000803e3d6000fd5b505050506040513d601f19601f82011682018060405250810190610a729190612b77565b90506000825460ff166004811115610a8c57610a8c612932565b14610ae45760405162461bcd60e51b815260206004820152602260248201527f536572766963652068617320616c7265616479206265656e20636f6e6669726d604482015261195960f21b606482015260840161061d565b8160010154811480610af95750816002015481145b610b155760405162461bcd60e51b815260040161061d90612c67565b8160030154811415610b8f5760405162461bcd60e51b815260206004820152603b60248201527f4f6e6c792074686520757365722077686f206469646e277420696e697461746560448201527f2074686520736572766963652063616e20636f6e6669726d2069740000000000606482015260840161061d565b815460ff19166001908117835582015460028301546040517f8382f22d8c9b56f3ce8ac2770ff186b1e2c121d65acfead76c2ff5baf707fbac92610bd99287926004880190612ce5565b60405180910390a1505050565b60025460405162438b6360e81b81523360048201526000916001600160a01b03169063438b63009060240160206040518083038186803b158015610c2957600080fd5b505afa158015610c3d573d6000803e3d6000fd5b505050506040513d601f19601f82011682018060405250810190610c619190612b77565b905060008111610c835760405162461bcd60e51b815260040161061d90612bed565b6000838152600460209081526040808320600583528184208685529092529091206001815460ff166002811115610cbc57610cbc612932565b1415610cda5760405162461bcd60e51b815260040161061d90612c24565b81600101548314610d245760405162461bcd60e51b81526020600482015260146024820152732cb7ba93b932903737ba103a343290313abcb2b960611b604482015260640161061d565b805460ff1916600117815560408051868152602081018690527f03a3b4a747d115189175e375b6c6ccd9dcdacdf7b4369aa5d8c3b8afda8ca295910161098f565b60025460405162438b6360e81b81523360048201526000916001600160a01b03169063438b63009060240160206040518083038186803b158015610da857600080fd5b505afa158015610dbc573d6000803e3d6000fd5b505050506040513d601f19601f82011682018060405250810190610de09190612b77565b905060008111610e025760405162461bcd60e51b815260040161061d90612bed565b600086815260046020819052604090912090815460ff166004811115610e2a57610e2a612932565b14610e6f5760405162461bcd60e51b815260206004820152601560248201527414d95c9d9a58d9481a5cc81b9bdd081bdc195b9959605a1b604482015260640161061d565b6000878152600560209081526040808320858452909152902060010154821415610ef35760405162461bcd60e51b815260206004820152602f60248201527f596f7520616c7265616479206372656174656420612070726f706f73616c206660448201526e6f722074686973207365727669636560881b606482015260840161061d565b6028816005015410610f475760405162461bcd60e51b815260206004820152601b60248201527f4d61782070726f706f73616c7320636f756e7420726561636865640000000000604482015260640161061d565b8181600101541415610fb55760405162461bcd60e51b815260206004820152603160248201527f596f7520636f756c646e2774206372656174652070726f706f73616c20666f7260448201527020796f7572206f776e207365727669636560781b606482015260840161061d565b82610fd25760405162461bcd60e51b815260040161061d90612da4565b600581018054906000610fe483612df1565b90915550506040805160a081019091528060008152602001838152602001876001600160a01b0316815260200186815260200185858080601f016020809104026020016040519081016040528093929190818152602001838380828437600092018290525093909452505089815260056020908152604080832087845290915290208251815491925090829060ff1916600183600281111561108857611088612932565b0217905550602082810151600183015560408301516002830180546001600160a01b0319166001600160a01b0390921691909117905560608301516003830155608083015180516110df9260048501920190612648565b509050507fd56b812321b2869d7d3fe7c8f52e85169e580ffc706d0c33ba13145fe39cd53c8783868660008b8b60405161111f9796959493929190612e35565b60405180910390a150505050505050565b6000818152600460208190526040808320600254915162438b6360e81b8152339381019390935292916001600160a01b039091169063438b63009060240160206040518083038186803b15801561118657600080fd5b505afa15801561119a573d6000803e3d6000fd5b505050506040513d601f19601f820116820180604052508101906111be9190612b77565b905081600101548114806111d55750816002015481145b6111f15760405162461bcd60e51b815260040161061d90612c67565b6001825460ff16600481111561120957611209612932565b146112565760405162461bcd60e51b815260206004820152601d60248201527f596f752063616e27742066696e69736820746869732073657276696365000000604482015260640161061d565b815460ff1916600290811783556001830154908301546040517fa7d8eb548357df7a0a878dfd462e7a4ed7f3afa661b45d5352f55d95e27cddbe92610bd99287926004880190612ce5565b60035460405162f577a560e81b8152600481018690526000916001600160a01b03169063f577a5009060240160006040518083038186803b1580156112e557600080fd5b505afa1580156112f9573d6000803e3d6000fd5b505060025460405162f577a560e81b8152600481018890526001600160a01b03909116925063f577a500915060240160006040518083038186803b15801561134057600080fd5b505afa158015611354573d6000803e3d6000fd5b505060025460405162438b6360e81b8152336004820152600093506001600160a01b03909116915063438b63009060240160206040518083038186803b15801561139d57600080fd5b505afa1580156113b1573d6000803e3d6000fd5b505050506040513d601f19601f820116820180604052508101906113d59190612b77565b90506113e7600082838888888c6122d1565b9150505b949350505050565b60035460405162f577a560e81b8152600481018690526000916001600160a01b03169063f577a5009060240160006040518083038186803b15801561143757600080fd5b505afa15801561144b573d6000803e3d6000fd5b505060025460405162f577a560e81b8152600481018890526001600160a01b03909116925063f577a500915060240160006040518083038186803b15801561149257600080fd5b505afa1580156114a6573d6000803e3d6000fd5b505060025460405162438b6360e81b8152336004820152600093506001600160a01b03909116915063438b63009060240160206040518083038186803b1580156114ef57600080fd5b505afa158015611503573d6000803e3d6000fd5b505050506040513d601f19601f820116820180604052508101906115279190612b77565b90506113e7600082878488888c6122d1565b6000918252602082815260408084206001600160a01b0393909316845291905290205460ff1690565b7f2fdac322ee704ce09f0773f7f3f92eb98d5e7c836ee9c056cccd5f61041e5e3f61158c816121db565b50600092835260046020908152604080852060058352818620948652939091529092208154600160ff19918216811784558083015460028501556006909301939093558054909216179055565b60025460405162438b6360e81b81523360048201526000916001600160a01b03169063438b63009060240160206040518083038186803b15801561161c57600080fd5b505afa158015611630573d6000803e3d6000fd5b505050506040513d601f19601f820116820180604052508101906116549190612b77565b9050600081116116765760405162461bcd60e51b815260040161061d90612bed565b60008681526004602081815260408084206005835281852086865290925290922090825460ff1660048111156116ae576116ae612932565b146116f35760405162461bcd60e51b815260206004820152601560248201527414d95c9d9a58d9481a5cc81b9bdd081bdc195b9959605a1b604482015260640161061d565b828160010154146117465760405162461bcd60e51b815260206004820152601f60248201527f546869732070726f706f73616c20646f65736e27742065786973742079657400604482015260640161061d565b836117635760405162461bcd60e51b815260040161061d90612da4565b6001815460ff16600281111561177b5761177b612932565b14156117c95760405162461bcd60e51b815260206004820181905260248201527f546869732070726f706f73616c20697320616c72656164792075706461746564604482015260640161061d565b6002810180546001600160a01b0319166001600160a01b038916179055600381018690556117fb6004820186866126cc565b507f5cf385c7cf3e1609443b09191511540e030254887cccb510dfface4c041b6c55888487878b8b60405161183596959493929190612e82565b60405180910390a15050505050505050565b6118836040805160a0810190915280600081526020016000815260200160006001600160a01b0316815260200160008152602001606081525090565b600083815260056020908152604080832085845290915290819020815160a081019092528054829060ff1660028111156118bf576118bf612932565b60028111156118d0576118d0612932565b81526001820154602082015260028201546001600160a01b031660408201526003820154606082015260048201805460809092019161190e90612caa565b80601f016020809104026020016040519081016040528092919081815260200182805461193a90612caa565b80156119875780601f1061195c57610100808354040283529160200191611987565b820191906000526020600020905b81548152906001019060200180831161196a57829003601f168201915b505050505081525050905092915050565b6000818152600460208190526040808320600254915162438b6360e81b8152339381019390935292916001600160a01b039091169063438b63009060240160206040518083038186803b1580156119ee57600080fd5b505afa158015611a02573d6000803e3d6000fd5b505050506040513d601f19601f82011682018060405250810190611a269190612b77565b90508160010154811480611a3d5750816002015481145b611a595760405162461bcd60e51b815260040161061d90612c67565b6000825460ff166004811115611a7157611a71612932565b1480611a9257506004825460ff166004811115611a9057611a90612932565b145b611ade5760405162461bcd60e51b815260206004820152601d60248201527f596f752063616e27742072656a65637420746869732073657276696365000000604482015260640161061d565b815460ff19166003178255600182015460028301546040517e896eda5a3e9278a06a993b36dc19aef976d54fcfcdcf5b7b053f67bdb6929592610bd99287926004880190612ce5565b60035460405162f577a560e81b8152600481018590526000916001600160a01b03169063f577a5009060240160006040518083038186803b158015611b6b57600080fd5b505afa158015611b7f573d6000803e3d6000fd5b505060025460405162438b6360e81b8152336004820152600093506001600160a01b03909116915063438b63009060240160206040518083038186803b158015611bc857600080fd5b505afa158015611bdc573d6000803e3d6000fd5b505050506040513d601f19601f82011682018060405250810190611c009190612b77565b9050611c1360048283600088888b6122d1565b95945050505050565b60046020819052600091825260409091208054600182015460028301546003840154948401805460ff9094169592949193611c5690612caa565b80601f0160208091040260200160405190810160405280929190818152602001828054611c8290612caa565b8015611ccf5780601f10611ca457610100808354040283529160200191611ccf565b820191906000526020600020905b815481529060010190602001808311611cb257829003601f168201915b5050505050908060050154908060060154908060070154905088565b60056020908152600092835260408084209091529082529020805460018201546002830154600384015460048501805460ff9095169593946001600160a01b03909316939192611d3a90612caa565b80601f0160208091040260200160405190810160405280929190818152602001828054611d6690612caa565b8015611db35780601f10611d8857610100808354040283529160200191611db3565b820191906000526020600020905b815481529060010190602001808311611d9657829003601f168201915b5050505050905085565b600082815260208190526040902060010154611dd8816121db565b610720838361226c565b611e2b6040805161010081019091528060008152602001600081526020016000815260200160008152602001606081526020016000815260200160008152602001600081525090565b6001548210611e7c5760405162461bcd60e51b815260206004820152601a60248201527f54686973207365727669636520646f65736e2774206578697374000000000000604482015260640161061d565b6000828152600460208190526040918290208251610100810190935280549091839160ff1690811115611eb157611eb1612932565b6004811115611ec257611ec2612932565b8152602001600182015481526020016002820154815260200160038201548152602001600482018054611ef490612caa565b80601f0160208091040260200160405190810160405280929190818152602001828054611f2090612caa565b8015611f6d5780601f10611f4257610100808354040283529160200191611f6d565b820191906000526020600020905b815481529060010190602001808311611f5057829003601f168201915b5050505050815260200160058201548152602001600682015481526020016007820154815250509050919050565b60008381526004602052604090206001548410611ffa5760405162461bcd60e51b815260206004820152601a60248201527f54686973207365727669636520646f65736e2774206578697374000000000000604482015260640161061d565b6004815460ff16600481111561201257612012612932565b148061203357506000815460ff16600481111561203157612031612932565b145b6120915760405162461bcd60e51b815260206004820152602960248201527f53657276696365207374617475732073686f756c64206265206f70656e6564206044820152681bdc88199a5b1b195960ba1b606482015260840161061d565b60025460405162438b6360e81b81523360048201526001600160a01b039091169063438b63009060240160206040518083038186803b1580156120d357600080fd5b505afa1580156120e7573d6000803e3d6000fd5b505050506040513d601f19601f8201168201806040525081019061210b9190612b77565b81600301541461216f5760405162461bcd60e51b815260206004820152602960248201527f4f6e6c792074686520696e69746961746f722063616e2075706461746520746860448201526865207365727669636560b81b606482015260840161061d565b8161218c5760405162461bcd60e51b815260040161061d90612da4565b61219a6004820184846126cc565b50837f1cae99404f615a4039d85b1009cb70622aae6d64f671e8b1b191d9269847d43e84846040516121cd929190612ec0565b60405180910390a250505050565b6121e58133612441565b50565b6121f28282611539565b61079f576000828152602081815260408083206001600160a01b03851684529091529020805460ff191660011790556122283390565b6001600160a01b0316816001600160a01b0316837f2f8788117e7eff1d82e926ec794901d17c78024a50270940304540a733656f0d60405160405180910390a45050565b6122768282611539565b1561079f576000828152602081815260408083206001600160a01b0385168085529252808320805460ff1916905551339285917ff6391f5c32d9c69d2a47ea670b442974b53935d1edc7fd64eb21e047a839171b9190a45050565b60008087116122f25760405162461bcd60e51b815260040161061d90612bed565b858514156123125760405162461bcd60e51b815260040161061d90612b90565b8261232f5760405162461bcd60e51b815260040161061d90612da4565b60018054908190600061234183612df1565b90915550506000818152600460208190526040909120805490918b91839160ff1990911690600190849081111561237a5761237a612932565b02179055506001810188905560028101879055600381018990556123a26004820187876126cc565b506007810184905560408051838152602081018a9052908101889052606081018a9052608081018590527f9cd325e0ba2126728b21176b4b24c49c672e66820627759eedcab6b5dd7dac499060a00160405180910390a17f4874366e887bb729d49976a8f6751c4263d1668fd396db9b8d5f037895e7a74582878760405161242c93929190612ed4565b60405180910390a15098975050505050505050565b61244b8282611539565b61079f57612463816001600160a01b031660146124a5565b61246e8360206124a5565b60405160200161247f929190612eee565b60408051601f198184030181529082905262461bcd60e51b825261061d91600401612f63565b606060006124b4836002612f76565b6124bf906002612f95565b67ffffffffffffffff8111156124d7576124d7612fad565b6040519080825280601f01601f191660200182016040528015612501576020820181803683370190505b509050600360fc1b8160008151811061251c5761251c612fc3565b60200101906001600160f81b031916908160001a905350600f60fb1b8160018151811061254b5761254b612fc3565b60200101906001600160f81b031916908160001a905350600061256f846002612f76565b61257a906001612f95565b90505b60018111156125f2576f181899199a1a9b1b9c1cb0b131b232b360811b85600f16601081106125ae576125ae612fc3565b1a60f81b8282815181106125c4576125c4612fc3565b60200101906001600160f81b031916908160001a90535060049490941c936125eb81612fd9565b905061257d565b5083156126415760405162461bcd60e51b815260206004820181905260248201527f537472696e67733a20686578206c656e67746820696e73756666696369656e74604482015260640161061d565b9392505050565b82805461265490612caa565b90600052602060002090601f01602090048101928261267657600085556126bc565b82601f1061268f57805160ff19168380011785556126bc565b828001600101855582156126bc579182015b828111156126bc5782518255916020019190600101906126a1565b506126c8929150612740565b5090565b8280546126d890612caa565b90600052602060002090601f0160209004810192826126fa57600085556126bc565b82601f106127135782800160ff198235161785556126bc565b828001600101855582156126bc579182015b828111156126bc578235825591602001919060010190612725565b5b808211156126c85760008155600101612741565b60006020828403121561276757600080fd5b81356001600160e01b03198116811461264157600080fd5b6000806040838503121561279257600080fd5b50508035926020909101359150565b6000602082840312156127b357600080fd5b5035919050565b80356001600160a01b03811681146127d157600080fd5b919050565b600080604083850312156127e957600080fd5b823591506127f9602084016127ba565b90509250929050565b60008083601f84011261281457600080fd5b50813567ffffffffffffffff81111561282c57600080fd5b60208301915083602082850101111561284457600080fd5b9250929050565b60008060008060006080868803121561286357600080fd5b85359450612873602087016127ba565b935060408601359250606086013567ffffffffffffffff81111561289657600080fd5b6128a288828901612802565b969995985093965092949392505050565b600080600080606085870312156128c957600080fd5b8435935060208501359250604085013567ffffffffffffffff8111156128ee57600080fd5b6128fa87828801612802565b95989497509550505050565b60008060006060848603121561291b57600080fd5b505081359360208301359350604090920135919050565b634e487b7160e01b600052602160045260246000fd5b6003811061295857612958612932565b9052565b60005b8381101561297757818101518382015260200161295f565b83811115612986576000848401525b50505050565b600081518084526129a481602086016020860161295c565b601f01601f19169290920160200192915050565b602081526129ca602082018351612948565b6020820151604082015260018060a01b036040830151166060820152606082015160808201526000608083015160a0808401526113eb60c084018261298c565b600080600060408486031215612a1f57600080fd5b83359250602084013567ffffffffffffffff811115612a3d57600080fd5b612a4986828701612802565b9497909650939450505050565b6005811061295857612958612932565b6000610100612a75838c612a56565b896020840152886040840152876060840152806080840152612a998184018861298c565b60a0840196909652505060c081019290925260e09091015295945050505050565b612ac48187612948565b84602082015260018060a01b038416604082015282606082015260a060808201526000612af460a083018461298c565b979650505050505050565b60208152612b11602082018351612a56565b602082015160408201526040820151606082015260608201516080820152600060808301516101008060a0850152612b4d61012085018361298c565b915060a085015160c085015260c085015160e085015260e085015181850152508091505092915050565b600060208284031215612b8957600080fd5b5051919050565b60208082526022908201527f53656c6c657220616e642062757965722063616e2774206265207468652073616040820152616d6560f01b606082015260800190565b83815260208101839052606081016113eb6040830184612a56565b6020808252601f908201527f596f752073686f756c64206861766520612054616c656e744c61796572496400604082015260600190565b60208082526023908201527f50726f706f73616c2068617320616c7265616479206265656e2076616c6964616040820152621d195960ea1b606082015260800190565b60208082526023908201527f596f75277265206e6f7420616e206163746f72206f662074686973207365727660408201526269636560e81b606082015260800190565b600181811c90821680612cbe57607f821691505b60208210811415612cdf57634e487b7160e01b600052602260045260246000fd5b50919050565b848152600060208581840152846040840152608060608401526000845481600182811c915080831680612d1957607f831692505b858310811415612d3757634e487b7160e01b85526022600452602485fd5b6080880183905260a08801818015612d565760018114612d6757612d92565b60ff19861682528782019650612d92565b60008b81526020902060005b86811015612d8c57815484820152908501908901612d73565b83019750505b50949c9b505050505050505050505050565b6020808252601f908201527f53686f756c642070726f7669646520612076616c696420495046532055524900604082015260600190565b634e487b7160e01b600052601160045260246000fd5b6000600019821415612e0557612e05612ddb565b5060010190565b81835281816020850137506000828201602090810191909152601f909101601f19169091010190565b87815286602082015260c060408201526000612e5560c083018789612e0c565b9050612e646060830186612948565b6001600160a01b0393909316608082015260a0015295945050505050565b86815285602082015260a060408201526000612ea260a083018688612e0c565b6001600160a01b039490941660608301525060800152949350505050565b6020815260006113eb602083018486612e0c565b838152604060208201526000611c13604083018486612e0c565b7f416363657373436f6e74726f6c3a206163636f756e7420000000000000000000815260008351612f2681601785016020880161295c565b7001034b99036b4b9b9b4b733903937b6329607d1b6017918401918201528351612f5781602884016020880161295c565b01602801949350505050565b602081526000612641602083018461298c565b6000816000190483118215151615612f9057612f90612ddb565b500290565b60008219821115612fa857612fa8612ddb565b500190565b634e487b7160e01b600052604160045260246000fd5b634e487b7160e01b600052603260045260246000fd5b600081612fe857612fe8612ddb565b50600019019056fea2646970667358221220408efa39aceddc70b6b47a07141f215b08c67b5c3f8501fc7525ca870bc9241a64736f6c63430008090033",
  "linkReferences": {},
  "deployedLinkReferences": {}
}