{
  "_format": "hh-sol-artifact-1",
  "contractName": "ServiceRegistry",
  "sourceName": "contracts/ServiceRegistry.sol",
  "abi": [
    {
      "inputs": [
        {
          "internalType": "address",
          "name": "_talentLayerIdAddress",
          "type": "address"
        },
        {
          "internalType": "address",
          "name": "_talentLayerPlatformIdAddress",
          "type": "address"
        }
      ],
      "stateMutability": "nonpayable",
      "type": "constructor"
    },
    {
      "anonymous": false,
      "inputs": [
        {
          "indexed": false,
          "internalType": "uint256",
          "name": "serviceId",
          "type": "uint256"
        },
        {
          "indexed": false,
          "internalType": "uint256",
          "name": "sellerId",
          "type": "uint256"
        },
        {
          "indexed": false,
          "internalType": "string",
          "name": "proposalDataUri",
          "type": "string"
        },
        {
          "indexed": false,
          "internalType": "enum ServiceRegistry.ProposalStatus",
          "name": "status",
          "type": "uint8"
        },
        {
          "indexed": false,
          "internalType": "address",
          "name": "rateToken",
          "type": "address"
        },
        {
          "indexed": false,
          "internalType": "uint256",
          "name": "rateAmount",
          "type": "uint256"
        }
      ],
      "name": "ProposalCreated",
      "type": "event"
    },
    {
      "anonymous": false,
      "inputs": [
        {
          "indexed": false,
          "internalType": "uint256",
          "name": "serviceId",
          "type": "uint256"
        },
        {
          "indexed": false,
          "internalType": "uint256",
          "name": "sellerId",
          "type": "uint256"
        }
      ],
      "name": "ProposalRejected",
      "type": "event"
    },
    {
      "anonymous": false,
      "inputs": [
        {
          "indexed": false,
          "internalType": "uint256",
          "name": "serviceId",
          "type": "uint256"
        },
        {
          "indexed": false,
          "internalType": "uint256",
          "name": "sellerId",
          "type": "uint256"
        },
        {
          "indexed": false,
          "internalType": "string",
          "name": "proposalDataUri",
          "type": "string"
        },
        {
          "indexed": false,
          "internalType": "address",
          "name": "rateToken",
          "type": "address"
        },
        {
          "indexed": false,
          "internalType": "uint256",
          "name": "rateAmount",
          "type": "uint256"
        }
      ],
      "name": "ProposalUpdated",
      "type": "event"
    },
    {
      "anonymous": false,
      "inputs": [
        {
          "indexed": false,
          "internalType": "uint256",
          "name": "serviceId",
          "type": "uint256"
        },
        {
          "indexed": false,
          "internalType": "uint256",
          "name": "sellerId",
          "type": "uint256"
        }
      ],
      "name": "ProposalValidated",
      "type": "event"
    },
    {
      "anonymous": false,
      "inputs": [
        {
          "indexed": true,
          "internalType": "bytes32",
          "name": "role",
          "type": "bytes32"
        },
        {
          "indexed": true,
          "internalType": "bytes32",
          "name": "previousAdminRole",
          "type": "bytes32"
        },
        {
          "indexed": true,
          "internalType": "bytes32",
          "name": "newAdminRole",
          "type": "bytes32"
        }
      ],
      "name": "RoleAdminChanged",
      "type": "event"
    },
    {
      "anonymous": false,
      "inputs": [
        {
          "indexed": true,
          "internalType": "bytes32",
          "name": "role",
          "type": "bytes32"
        },
        {
          "indexed": true,
          "internalType": "address",
          "name": "account",
          "type": "address"
        },
        {
          "indexed": true,
          "internalType": "address",
          "name": "sender",
          "type": "address"
        }
      ],
      "name": "RoleGranted",
      "type": "event"
    },
    {
      "anonymous": false,
      "inputs": [
        {
          "indexed": true,
          "internalType": "bytes32",
          "name": "role",
          "type": "bytes32"
        },
        {
          "indexed": true,
          "internalType": "address",
          "name": "account",
          "type": "address"
        },
        {
          "indexed": true,
          "internalType": "address",
          "name": "sender",
          "type": "address"
        }
      ],
      "name": "RoleRevoked",
      "type": "event"
    },
    {
      "anonymous": false,
      "inputs": [
        {
          "indexed": false,
          "internalType": "uint256",
          "name": "id",
          "type": "uint256"
        },
        {
          "indexed": false,
          "internalType": "uint256",
          "name": "buyerId",
          "type": "uint256"
        },
        {
          "indexed": false,
          "internalType": "uint256",
          "name": "sellerId",
          "type": "uint256"
        },
        {
          "indexed": false,
          "internalType": "string",
          "name": "serviceDataUri",
          "type": "string"
        }
      ],
      "name": "ServiceConfirmed",
      "type": "event"
    },
    {
      "anonymous": false,
      "inputs": [
        {
          "indexed": false,
          "internalType": "uint256",
          "name": "id",
          "type": "uint256"
        },
        {
          "indexed": false,
          "internalType": "uint256",
          "name": "buyerId",
          "type": "uint256"
        },
        {
          "indexed": false,
          "internalType": "uint256",
          "name": "sellerId",
          "type": "uint256"
        },
        {
          "indexed": false,
          "internalType": "uint256",
          "name": "initiatorId",
          "type": "uint256"
        },
        {
          "indexed": false,
          "internalType": "uint256",
          "name": "platformId",
          "type": "uint256"
        }
      ],
      "name": "ServiceCreated",
      "type": "event"
    },
    {
      "anonymous": false,
      "inputs": [
        {
          "indexed": false,
          "internalType": "uint256",
          "name": "id",
          "type": "uint256"
        },
        {
          "indexed": false,
          "internalType": "string",
          "name": "serviceDataUri",
          "type": "string"
        }
      ],
      "name": "ServiceDataCreated",
      "type": "event"
    },
    {
      "anonymous": false,
      "inputs": [
        {
          "indexed": true,
          "internalType": "uint256",
          "name": "id",
          "type": "uint256"
        },
        {
          "indexed": false,
          "internalType": "string",
          "name": "newServiceDataUri",
          "type": "string"
        }
      ],
      "name": "ServiceDetailedUpdated",
      "type": "event"
    },
    {
      "anonymous": false,
      "inputs": [
        {
          "indexed": false,
          "internalType": "uint256",
          "name": "id",
          "type": "uint256"
        },
        {
          "indexed": false,
          "internalType": "uint256",
          "name": "buyerId",
          "type": "uint256"
        },
        {
          "indexed": false,
          "internalType": "uint256",
          "name": "sellerId",
          "type": "uint256"
        },
        {
          "indexed": false,
          "internalType": "string",
          "name": "serviceDataUri",
          "type": "string"
        }
      ],
      "name": "ServiceFinished",
      "type": "event"
    },
    {
      "anonymous": false,
      "inputs": [
        {
          "indexed": false,
          "internalType": "uint256",
          "name": "id",
          "type": "uint256"
        },
        {
          "indexed": false,
          "internalType": "uint256",
          "name": "buyerId",
          "type": "uint256"
        },
        {
          "indexed": false,
          "internalType": "uint256",
          "name": "sellerId",
          "type": "uint256"
        },
        {
          "indexed": false,
          "internalType": "string",
          "name": "serviceDataUri",
          "type": "string"
        }
      ],
      "name": "ServiceRejected",
      "type": "event"
    },
    {
      "anonymous": false,
      "inputs": [
        {
          "indexed": false,
          "internalType": "uint256",
          "name": "id",
          "type": "uint256"
        },
        {
          "indexed": false,
          "internalType": "uint256",
          "name": "sellerId",
          "type": "uint256"
        },
        {
          "indexed": false,
          "internalType": "enum ServiceRegistry.Status",
          "name": "status",
          "type": "uint8"
        }
      ],
      "name": "ServiceSellerAssigned",
      "type": "event"
    },
    {
      "inputs": [],
      "name": "DEFAULT_ADMIN_ROLE",
      "outputs": [
        {
          "internalType": "bytes32",
          "name": "",
          "type": "bytes32"
        }
      ],
      "stateMutability": "view",
      "type": "function"
    },
    {
      "inputs": [],
      "name": "ESCROW_ROLE",
      "outputs": [
        {
          "internalType": "bytes32",
          "name": "",
          "type": "bytes32"
        }
      ],
      "stateMutability": "view",
      "type": "function"
    },
    {
      "inputs": [
        {
          "internalType": "uint256",
          "name": "_serviceId",
          "type": "uint256"
        },
        {
          "internalType": "uint256",
          "name": "_proposalId",
          "type": "uint256"
        },
        {
          "internalType": "uint256",
          "name": "_transactionId",
          "type": "uint256"
        }
      ],
      "name": "afterDeposit",
      "outputs": [],
      "stateMutability": "nonpayable",
      "type": "function"
    },
    {
      "inputs": [
        {
          "internalType": "uint256",
          "name": "_serviceId",
          "type": "uint256"
        }
      ],
      "name": "afterFullPayment",
      "outputs": [],
      "stateMutability": "nonpayable",
      "type": "function"
    },
    {
      "inputs": [
        {
          "internalType": "uint256",
          "name": "_serviceId",
          "type": "uint256"
        },
        {
          "internalType": "uint256",
          "name": "_sellerId",
          "type": "uint256"
        }
      ],
      "name": "assignSellerToService",
      "outputs": [],
      "stateMutability": "nonpayable",
      "type": "function"
    },
    {
      "inputs": [
        {
          "internalType": "uint256",
          "name": "_serviceId",
          "type": "uint256"
        }
      ],
      "name": "confirmService",
      "outputs": [],
      "stateMutability": "nonpayable",
      "type": "function"
    },
    {
      "inputs": [
        {
          "internalType": "uint256",
          "name": "_platformId",
          "type": "uint256"
        },
        {
          "internalType": "string",
          "name": "_serviceDataUri",
          "type": "string"
        }
      ],
      "name": "createOpenServiceFromBuyer",
      "outputs": [
        {
          "internalType": "uint256",
          "name": "",
          "type": "uint256"
        }
      ],
      "stateMutability": "nonpayable",
      "type": "function"
    },
    {
      "inputs": [
        {
          "internalType": "uint256",
          "name": "_serviceId",
          "type": "uint256"
        },
        {
          "internalType": "address",
          "name": "_rateToken",
          "type": "address"
        },
        {
          "internalType": "uint256",
          "name": "_rateAmount",
          "type": "uint256"
        },
        {
          "internalType": "string",
          "name": "_proposalDataUri",
          "type": "string"
        }
      ],
      "name": "createProposal",
      "outputs": [],
      "stateMutability": "nonpayable",
      "type": "function"
    },
    {
      "inputs": [
        {
          "internalType": "uint256",
          "name": "_platformId",
          "type": "uint256"
        },
        {
          "internalType": "uint256",
          "name": "_sellerId",
          "type": "uint256"
        },
        {
          "internalType": "string",
          "name": "_serviceDataUri",
          "type": "string"
        }
      ],
      "name": "createServiceFromBuyer",
      "outputs": [
        {
          "internalType": "uint256",
          "name": "",
          "type": "uint256"
        }
      ],
      "stateMutability": "nonpayable",
      "type": "function"
    },
    {
      "inputs": [
        {
          "internalType": "uint256",
          "name": "_platformId",
          "type": "uint256"
        },
        {
          "internalType": "uint256",
          "name": "_buyerId",
          "type": "uint256"
        },
        {
          "internalType": "string",
          "name": "_serviceDataUri",
          "type": "string"
        }
      ],
      "name": "createServiceFromSeller",
      "outputs": [
        {
          "internalType": "uint256",
          "name": "",
          "type": "uint256"
        }
      ],
      "stateMutability": "nonpayable",
      "type": "function"
    },
    {
      "inputs": [
        {
          "internalType": "uint256",
          "name": "_serviceId",
          "type": "uint256"
        }
      ],
      "name": "finishService",
      "outputs": [],
      "stateMutability": "nonpayable",
      "type": "function"
    },
    {
      "inputs": [
        {
          "internalType": "uint256",
          "name": "_serviceId",
          "type": "uint256"
        },
        {
          "internalType": "uint256",
          "name": "_proposalId",
          "type": "uint256"
        }
      ],
      "name": "getProposal",
      "outputs": [
        {
          "components": [
            {
              "internalType": "enum ServiceRegistry.ProposalStatus",
              "name": "status",
              "type": "uint8"
            },
            {
              "internalType": "uint256",
              "name": "sellerId",
              "type": "uint256"
            },
            {
              "internalType": "address",
              "name": "rateToken",
              "type": "address"
            },
            {
              "internalType": "uint256",
              "name": "rateAmount",
              "type": "uint256"
            },
            {
              "internalType": "string",
              "name": "proposalDataUri",
              "type": "string"
            }
          ],
          "internalType": "struct ServiceRegistry.Proposal",
          "name": "",
          "type": "tuple"
        }
      ],
      "stateMutability": "view",
      "type": "function"
    },
    {
      "inputs": [
        {
          "internalType": "bytes32",
          "name": "role",
          "type": "bytes32"
        }
      ],
      "name": "getRoleAdmin",
      "outputs": [
        {
          "internalType": "bytes32",
          "name": "",
          "type": "bytes32"
        }
      ],
      "stateMutability": "view",
      "type": "function"
    },
    {
      "inputs": [
        {
          "internalType": "uint256",
          "name": "_serviceId",
          "type": "uint256"
        }
      ],
      "name": "getService",
      "outputs": [
        {
          "components": [
            {
              "internalType": "enum ServiceRegistry.Status",
              "name": "status",
              "type": "uint8"
            },
            {
              "internalType": "uint256",
              "name": "buyerId",
              "type": "uint256"
            },
            {
              "internalType": "uint256",
              "name": "sellerId",
              "type": "uint256"
            },
            {
              "internalType": "uint256",
              "name": "initiatorId",
              "type": "uint256"
            },
            {
              "internalType": "string",
              "name": "serviceDataUri",
              "type": "string"
            },
            {
              "internalType": "uint256",
              "name": "countProposals",
              "type": "uint256"
            },
            {
              "internalType": "uint256",
              "name": "transactionId",
              "type": "uint256"
            },
            {
              "internalType": "uint256",
              "name": "platformId",
              "type": "uint256"
            }
          ],
          "internalType": "struct ServiceRegistry.Service",
          "name": "",
          "type": "tuple"
        }
      ],
      "stateMutability": "view",
      "type": "function"
    },
    {
      "inputs": [
        {
          "internalType": "bytes32",
          "name": "role",
          "type": "bytes32"
        },
        {
          "internalType": "address",
          "name": "account",
          "type": "address"
        }
      ],
      "name": "grantRole",
      "outputs": [],
      "stateMutability": "nonpayable",
      "type": "function"
    },
    {
      "inputs": [
        {
          "internalType": "bytes32",
          "name": "role",
          "type": "bytes32"
        },
        {
          "internalType": "address",
          "name": "account",
          "type": "address"
        }
      ],
      "name": "hasRole",
      "outputs": [
        {
          "internalType": "bool",
          "name": "",
          "type": "bool"
        }
      ],
      "stateMutability": "view",
      "type": "function"
    },
    {
      "inputs": [],
      "name": "nextServiceId",
      "outputs": [
        {
          "internalType": "uint256",
          "name": "",
          "type": "uint256"
        }
      ],
      "stateMutability": "view",
      "type": "function"
    },
    {
      "inputs": [
        {
          "internalType": "uint256",
          "name": "",
          "type": "uint256"
        },
        {
          "internalType": "uint256",
          "name": "",
          "type": "uint256"
        }
      ],
      "name": "proposals",
      "outputs": [
        {
          "internalType": "enum ServiceRegistry.ProposalStatus",
          "name": "status",
          "type": "uint8"
        },
        {
          "internalType": "uint256",
          "name": "sellerId",
          "type": "uint256"
        },
        {
          "internalType": "address",
          "name": "rateToken",
          "type": "address"
        },
        {
          "internalType": "uint256",
          "name": "rateAmount",
          "type": "uint256"
        },
        {
          "internalType": "string",
          "name": "proposalDataUri",
          "type": "string"
        }
      ],
      "stateMutability": "view",
      "type": "function"
    },
    {
      "inputs": [
        {
          "internalType": "uint256",
          "name": "_serviceId",
          "type": "uint256"
        },
        {
          "internalType": "uint256",
          "name": "_proposalId",
          "type": "uint256"
        }
      ],
      "name": "rejectProposal",
      "outputs": [],
      "stateMutability": "nonpayable",
      "type": "function"
    },
    {
      "inputs": [
        {
          "internalType": "uint256",
          "name": "_serviceId",
          "type": "uint256"
        }
      ],
      "name": "rejectService",
      "outputs": [],
      "stateMutability": "nonpayable",
      "type": "function"
    },
    {
      "inputs": [
        {
          "internalType": "bytes32",
          "name": "role",
          "type": "bytes32"
        },
        {
          "internalType": "address",
          "name": "account",
          "type": "address"
        }
      ],
      "name": "renounceRole",
      "outputs": [],
      "stateMutability": "nonpayable",
      "type": "function"
    },
    {
      "inputs": [
        {
          "internalType": "bytes32",
          "name": "role",
          "type": "bytes32"
        },
        {
          "internalType": "address",
          "name": "account",
          "type": "address"
        }
      ],
      "name": "revokeRole",
      "outputs": [],
      "stateMutability": "nonpayable",
      "type": "function"
    },
    {
      "inputs": [
        {
          "internalType": "uint256",
          "name": "",
          "type": "uint256"
        }
      ],
      "name": "services",
      "outputs": [
        {
          "internalType": "enum ServiceRegistry.Status",
          "name": "status",
          "type": "uint8"
        },
        {
          "internalType": "uint256",
          "name": "buyerId",
          "type": "uint256"
        },
        {
          "internalType": "uint256",
          "name": "sellerId",
          "type": "uint256"
        },
        {
          "internalType": "uint256",
          "name": "initiatorId",
          "type": "uint256"
        },
        {
          "internalType": "string",
          "name": "serviceDataUri",
          "type": "string"
        },
        {
          "internalType": "uint256",
          "name": "countProposals",
          "type": "uint256"
        },
        {
          "internalType": "uint256",
          "name": "transactionId",
          "type": "uint256"
        },
        {
          "internalType": "uint256",
          "name": "platformId",
          "type": "uint256"
        }
      ],
      "stateMutability": "view",
      "type": "function"
    },
    {
      "inputs": [
        {
          "internalType": "bytes4",
          "name": "interfaceId",
          "type": "bytes4"
        }
      ],
      "name": "supportsInterface",
      "outputs": [
        {
          "internalType": "bool",
          "name": "",
          "type": "bool"
        }
      ],
      "stateMutability": "view",
      "type": "function"
    },
    {
      "inputs": [],
      "name": "talentLayerPlatformIdContract",
      "outputs": [
        {
          "internalType": "contract ITalentLayerPlatformID",
          "name": "",
          "type": "address"
        }
      ],
      "stateMutability": "view",
      "type": "function"
    },
    {
      "inputs": [
        {
          "internalType": "uint256",
          "name": "_serviceId",
          "type": "uint256"
        },
        {
          "internalType": "address",
          "name": "_rateToken",
          "type": "address"
        },
        {
          "internalType": "uint256",
          "name": "_rateAmount",
          "type": "uint256"
        },
        {
          "internalType": "string",
          "name": "_proposalDataUri",
          "type": "string"
        }
      ],
      "name": "updateProposal",
      "outputs": [],
      "stateMutability": "nonpayable",
      "type": "function"
    },
    {
      "inputs": [
        {
          "internalType": "uint256",
          "name": "_serviceId",
          "type": "uint256"
        },
        {
          "internalType": "string",
          "name": "_newServiceDataUri",
          "type": "string"
        }
      ],
      "name": "updateServiceData",
      "outputs": [],
      "stateMutability": "nonpayable",
      "type": "function"
    },
    {
      "inputs": [
        {
          "internalType": "uint256",
          "name": "_serviceId",
          "type": "uint256"
        },
        {
          "internalType": "uint256",
          "name": "_proposalId",
          "type": "uint256"
        }
      ],
      "name": "validateProposal",
      "outputs": [],
      "stateMutability": "nonpayable",
      "type": "function"
    }
  ],
  "bytecode": "0x6080604052600180553480156200001557600080fd5b506040516200315b3803806200315b83398101604081905262000038916200014a565b600280546001600160a01b038085166001600160a01b0319928316179092556003805492841692909116919091179055620000756000336200007d565b505062000182565b6200008982826200008d565b5050565b6000828152602081815260408083206001600160a01b038516845290915290205460ff1662000089576000828152602081815260408083206001600160a01b03851684529091529020805460ff19166001179055620000e93390565b6001600160a01b0316816001600160a01b0316837f2f8788117e7eff1d82e926ec794901d17c78024a50270940304540a733656f0d60405160405180910390a45050565b80516001600160a01b03811681146200014557600080fd5b919050565b600080604083850312156200015e57600080fd5b62000169836200012d565b915062000179602084016200012d565b90509250929050565b612fc980620001926000396000f3fe608060405234801561001057600080fd5b50600436106101c45760003560e01c806386c4a1ae116100f9578063b7f2bd7711610097578063d547741f11610071578063d547741f14610419578063ef0e239b1461042c578063f6bab0471461044c578063f6c53d9b1461045f57600080fd5b8063b7f2bd77146103bb578063c22c4f43146103ce578063c2cfee27146103f557600080fd5b8063a7d5eaea116100d3578063a7d5eaea14610362578063a8d9939d14610375578063aba2100914610388578063b2548713146103a857600080fd5b806386c4a1ae1461033457806391d1485414610347578063a217fddf1461035a57600080fd5b806349c6559c116101665780635f03f4ba116101405780635f03f4ba146102d45780636ce76f30146102e757806372b8b4041461030e57806380e9f4ed1461032157600080fd5b806349c6559c1461029b578063572f9b39146102ae5780635bdc75b0146102c157600080fd5b8063248a9ca3116101a2578063248a9ca3146102315780632f2ff15d1461026257806336568abe14610275578063477034da1461028857600080fd5b806301ffc9a7146101c957806304c7c4c8146101f15780631499f9e614610206575b600080fd5b6101dc6101d73660046126f8565b610468565b60405190151581526020015b60405180910390f35b6102046101ff366004612722565b61049f565b005b600354610219906001600160a01b031681565b6040516001600160a01b0390911681526020016101e8565b61025461023f366004612744565b60009081526020819052604090206001015490565b6040519081526020016101e8565b610204610270366004612779565b61069a565b610204610283366004612779565b6106c4565b610204610296366004612722565b610742565b6102046102a9366004612744565b61093d565b6102046102bc366004612744565b610983565b6102046102cf366004612722565b610b85565b6102046102e23660046127ee565b610d04565b6102547f2fdac322ee704ce09f0773f7f3f92eb98d5e7c836ee9c056cccd5f61041e5e3f81565b61020461031c366004612744565b6110cf565b61025461032f366004612856565b611240565b610254610342366004612856565b611395565b6101dc610355366004612779565b6114dc565b610254600081565b6102046103703660046128a9565b611505565b6102046103833660046127ee565b61157c565b61039b610396366004612722565b6117ea565b6040516101e8919061295b565b6102046103b6366004612744565b61193b565b6102546103c93660046129ad565b611aca565b6103e16103dc366004612744565b611bbf565b6040516101e8989796959493929190612a09565b610408610403366004612722565b611c8e565b6040516101e8959493929190612a5d565b610204610427366004612779565b611d60565b61043f61043a366004612744565b611d85565b6040516101e89190612aa2565b61020461045a3660046129ad565b611f3e565b61025460015481565b60006001600160e01b03198216637965db0b60e01b148061049957506301ffc9a760e01b6001600160e01b03198316145b92915050565b6000828152600460208190526040808320600254915162438b6360e81b8152339381019390935292916001600160a01b039091169063438b63009060240160206040518083038186803b1580156104f557600080fd5b505afa158015610509573d6000803e3d6000fd5b505050506040513d601f19601f8201168201806040525081019061052d9190612b1a565b90506004825460ff166004811115610547576105476128d5565b148061056857506003825460ff166004811115610566576105666128d5565b145b6105c55760405162461bcd60e51b8152602060048201526024808201527f536572766963652068617320746f206265204f70656e6564206f722052656a6560448201526318dd195960e21b60648201526084015b60405180910390fd5b816001015481146106245760405162461bcd60e51b815260206004820152602360248201527f596f75277265206e6f7420616e206275796572206f662074686973207365727660448201526269636560e81b60648201526084016105bc565b81600101548314156106485760405162461bcd60e51b81526004016105bc90612b33565b60028201839055815460ff191682556040517f971e8551958753bddb720490981e7feefe759d725cdb641319cc21257bc17a159061068c9086908690600090612b75565b60405180910390a150505050565b6000828152602081905260409020600101546106b58161217e565b6106bf838361218b565b505050565b6001600160a01b03811633146107345760405162461bcd60e51b815260206004820152602f60248201527f416363657373436f6e74726f6c3a2063616e206f6e6c792072656e6f756e636560448201526e103937b632b9903337b91039b2b63360891b60648201526084016105bc565b61073e828261220f565b5050565b60025460405162438b6360e81b81523360048201526000916001600160a01b03169063438b63009060240160206040518083038186803b15801561078557600080fd5b505afa158015610799573d6000803e3d6000fd5b505050506040513d601f19601f820116820180604052508101906107bd9190612b1a565b9050600081116107df5760405162461bcd60e51b81526004016105bc90612b90565b6000838152600460209081526040808320600583528184208685529092529091206001815460ff166002811115610818576108186128d5565b14156108365760405162461bcd60e51b81526004016105bc90612bc7565b6002815460ff16600281111561084e5761084e6128d5565b14156108a75760405162461bcd60e51b815260206004820152602260248201527f50726f706f73616c2068617320616c7265616479206265656e2072656a656374604482015261195960f21b60648201526084016105bc565b816001015483146108f15760405162461bcd60e51b81526020600482015260146024820152732cb7ba93b932903737ba103a343290313abcb2b960611b60448201526064016105bc565b805460ff1916600217815560408051868152602081018690527ffa74c17c82b1d1960368a621d45c9afe55e65c87a2c9fe612ac7e36c382b3f7891015b60405180910390a15050505050565b7f2fdac322ee704ce09f0773f7f3f92eb98d5e7c836ee9c056cccd5f61041e5e3f6109678161217e565b506000908152600460205260409020805460ff19166002179055565b6000818152600460208190526040808320600254915162438b6360e81b8152339381019390935292916001600160a01b039091169063438b63009060240160206040518083038186803b1580156109d957600080fd5b505afa1580156109ed573d6000803e3d6000fd5b505050506040513d601f19601f82011682018060405250810190610a119190612b1a565b90506000825460ff166004811115610a2b57610a2b6128d5565b14610a835760405162461bcd60e51b815260206004820152602260248201527f536572766963652068617320616c7265616479206265656e20636f6e6669726d604482015261195960f21b60648201526084016105bc565b8160010154811480610a985750816002015481145b610ab45760405162461bcd60e51b81526004016105bc90612c0a565b8160030154811415610b2e5760405162461bcd60e51b815260206004820152603b60248201527f4f6e6c792074686520757365722077686f206469646e277420696e697461746560448201527f2074686520736572766963652063616e20636f6e6669726d206974000000000060648201526084016105bc565b815460ff19166001908117835582015460028301546040517f8382f22d8c9b56f3ce8ac2770ff186b1e2c121d65acfead76c2ff5baf707fbac92610b789287926004880190612c88565b60405180910390a1505050565b60025460405162438b6360e81b81523360048201526000916001600160a01b03169063438b63009060240160206040518083038186803b158015610bc857600080fd5b505afa158015610bdc573d6000803e3d6000fd5b505050506040513d601f19601f82011682018060405250810190610c009190612b1a565b905060008111610c225760405162461bcd60e51b81526004016105bc90612b90565b6000838152600460209081526040808320600583528184208685529092529091206001815460ff166002811115610c5b57610c5b6128d5565b1415610c795760405162461bcd60e51b81526004016105bc90612bc7565b81600101548314610cc35760405162461bcd60e51b81526020600482015260146024820152732cb7ba93b932903737ba103a343290313abcb2b960611b60448201526064016105bc565b805460ff1916600117815560408051868152602081018690527f03a3b4a747d115189175e375b6c6ccd9dcdacdf7b4369aa5d8c3b8afda8ca295910161092e565b60025460405162438b6360e81b81523360048201526000916001600160a01b03169063438b63009060240160206040518083038186803b158015610d4757600080fd5b505afa158015610d5b573d6000803e3d6000fd5b505050506040513d601f19601f82011682018060405250810190610d7f9190612b1a565b905060008111610da15760405162461bcd60e51b81526004016105bc90612b90565b600086815260046020819052604090912090815460ff166004811115610dc957610dc96128d5565b14610e0e5760405162461bcd60e51b815260206004820152601560248201527414d95c9d9a58d9481a5cc81b9bdd081bdc195b9959605a1b60448201526064016105bc565b6000878152600560209081526040808320858452909152902060010154821415610e925760405162461bcd60e51b815260206004820152602f60248201527f596f7520616c7265616479206372656174656420612070726f706f73616c206660448201526e6f722074686973207365727669636560881b60648201526084016105bc565b6028816005015410610ee65760405162461bcd60e51b815260206004820152601b60248201527f4d61782070726f706f73616c7320636f756e742072656163686564000000000060448201526064016105bc565b8181600101541415610f545760405162461bcd60e51b815260206004820152603160248201527f596f7520636f756c646e2774206372656174652070726f706f73616c20666f7260448201527020796f7572206f776e207365727669636560781b60648201526084016105bc565b82610f715760405162461bcd60e51b81526004016105bc90612d47565b600581018054906000610f8383612d94565b90915550506040805160a081019091528060008152602001838152602001876001600160a01b0316815260200186815260200185858080601f016020809104026020016040519081016040528093929190818152602001838380828437600092018290525093909452505089815260056020908152604080832087845290915290208251815491925090829060ff19166001836002811115611027576110276128d5565b0217905550602082810151600183015560408301516002830180546001600160a01b0319166001600160a01b03909216919091179055606083015160038301556080830151805161107e92600485019201906125eb565b509050507fd56b812321b2869d7d3fe7c8f52e85169e580ffc706d0c33ba13145fe39cd53c8783868660008b8b6040516110be9796959493929190612dd8565b60405180910390a150505050505050565b6000818152600460208190526040808320600254915162438b6360e81b8152339381019390935292916001600160a01b039091169063438b63009060240160206040518083038186803b15801561112557600080fd5b505afa158015611139573d6000803e3d6000fd5b505050506040513d601f19601f8201168201806040525081019061115d9190612b1a565b905081600101548114806111745750816002015481145b6111905760405162461bcd60e51b81526004016105bc90612c0a565b6001825460ff1660048111156111a8576111a86128d5565b146111f55760405162461bcd60e51b815260206004820152601d60248201527f596f752063616e27742066696e6973682074686973207365727669636500000060448201526064016105bc565b815460ff1916600290811783556001830154908301546040517fa7d8eb548357df7a0a878dfd462e7a4ed7f3afa661b45d5352f55d95e27cddbe92610b789287926004880190612c88565b600080841161129f5760405162461bcd60e51b815260206004820152602560248201527f53656c6c65722030206973206e6f7420612076616c69642054616c656e744c616044820152641e595c925960da1b60648201526084016105bc565b60035460405162f577a560e81b8152600481018790526001600160a01b039091169063f577a5009060240160006040518083038186803b1580156112e257600080fd5b505afa1580156112f6573d6000803e3d6000fd5b505060025460405162438b6360e81b8152336004820152600093506001600160a01b03909116915063438b63009060240160206040518083038186803b15801561133f57600080fd5b505afa158015611353573d6000803e3d6000fd5b505050506040513d601f19601f820116820180604052508101906113779190612b1a565b9050611389600082838888888c612274565b9150505b949350505050565b60008084116113f25760405162461bcd60e51b8152602060048201526024808201527f42757965722030206973206e6f7420612076616c69642054616c656e744c6179604482015263195c925960e21b60648201526084016105bc565b60035460405162f577a560e81b8152600481018790526001600160a01b039091169063f577a5009060240160006040518083038186803b15801561143557600080fd5b505afa158015611449573d6000803e3d6000fd5b505060025460405162438b6360e81b8152336004820152600093506001600160a01b03909116915063438b63009060240160206040518083038186803b15801561149257600080fd5b505afa1580156114a6573d6000803e3d6000fd5b505050506040513d601f19601f820116820180604052508101906114ca9190612b1a565b9050611389600082878488888c612274565b6000918252602082815260408084206001600160a01b0393909316845291905290205460ff1690565b7f2fdac322ee704ce09f0773f7f3f92eb98d5e7c836ee9c056cccd5f61041e5e3f61152f8161217e565b50600092835260046020908152604080852060058352818620948652939091529092208154600160ff19918216811784558083015460028501556006909301939093558054909216179055565b60025460405162438b6360e81b81523360048201526000916001600160a01b03169063438b63009060240160206040518083038186803b1580156115bf57600080fd5b505afa1580156115d3573d6000803e3d6000fd5b505050506040513d601f19601f820116820180604052508101906115f79190612b1a565b9050600081116116195760405162461bcd60e51b81526004016105bc90612b90565b60008681526004602081815260408084206005835281852086865290925290922090825460ff166004811115611651576116516128d5565b146116965760405162461bcd60e51b815260206004820152601560248201527414d95c9d9a58d9481a5cc81b9bdd081bdc195b9959605a1b60448201526064016105bc565b828160010154146116e95760405162461bcd60e51b815260206004820152601f60248201527f546869732070726f706f73616c20646f65736e2774206578697374207965740060448201526064016105bc565b836117065760405162461bcd60e51b81526004016105bc90612d47565b6001815460ff16600281111561171e5761171e6128d5565b141561176c5760405162461bcd60e51b815260206004820181905260248201527f546869732070726f706f73616c20697320616c7265616479207570646174656460448201526064016105bc565b6002810180546001600160a01b0319166001600160a01b0389161790556003810186905561179e60048201868661266f565b507f5cf385c7cf3e1609443b09191511540e030254887cccb510dfface4c041b6c55888487878b8b6040516117d896959493929190612e25565b60405180910390a15050505050505050565b6118266040805160a0810190915280600081526020016000815260200160006001600160a01b0316815260200160008152602001606081525090565b600083815260056020908152604080832085845290915290819020815160a081019092528054829060ff166002811115611862576118626128d5565b6002811115611873576118736128d5565b81526001820154602082015260028201546001600160a01b03166040820152600382015460608201526004820180546080909201916118b190612c4d565b80601f01602080910402602001604051908101604052809291908181526020018280546118dd90612c4d565b801561192a5780601f106118ff5761010080835404028352916020019161192a565b820191906000526020600020905b81548152906001019060200180831161190d57829003601f168201915b505050505081525050905092915050565b6000818152600460208190526040808320600254915162438b6360e81b8152339381019390935292916001600160a01b039091169063438b63009060240160206040518083038186803b15801561199157600080fd5b505afa1580156119a5573d6000803e3d6000fd5b505050506040513d601f19601f820116820180604052508101906119c99190612b1a565b905081600101548114806119e05750816002015481145b6119fc5760405162461bcd60e51b81526004016105bc90612c0a565b6000825460ff166004811115611a1457611a146128d5565b1480611a3557506004825460ff166004811115611a3357611a336128d5565b145b611a815760405162461bcd60e51b815260206004820152601d60248201527f596f752063616e27742072656a6563742074686973207365727669636500000060448201526064016105bc565b815460ff19166003178255600182015460028301546040517e896eda5a3e9278a06a993b36dc19aef976d54fcfcdcf5b7b053f67bdb6929592610b789287926004880190612c88565b60035460405162f577a560e81b8152600481018590526000916001600160a01b03169063f577a5009060240160006040518083038186803b158015611b0e57600080fd5b505afa158015611b22573d6000803e3d6000fd5b505060025460405162438b6360e81b8152336004820152600093506001600160a01b03909116915063438b63009060240160206040518083038186803b158015611b6b57600080fd5b505afa158015611b7f573d6000803e3d6000fd5b505050506040513d601f19601f82011682018060405250810190611ba39190612b1a565b9050611bb660048283600088888b612274565b95945050505050565b60046020819052600091825260409091208054600182015460028301546003840154948401805460ff9094169592949193611bf990612c4d565b80601f0160208091040260200160405190810160405280929190818152602001828054611c2590612c4d565b8015611c725780601f10611c4757610100808354040283529160200191611c72565b820191906000526020600020905b815481529060010190602001808311611c5557829003601f168201915b5050505050908060050154908060060154908060070154905088565b60056020908152600092835260408084209091529082529020805460018201546002830154600384015460048501805460ff9095169593946001600160a01b03909316939192611cdd90612c4d565b80601f0160208091040260200160405190810160405280929190818152602001828054611d0990612c4d565b8015611d565780601f10611d2b57610100808354040283529160200191611d56565b820191906000526020600020905b815481529060010190602001808311611d3957829003601f168201915b5050505050905085565b600082815260208190526040902060010154611d7b8161217e565b6106bf838361220f565b611dce6040805161010081019091528060008152602001600081526020016000815260200160008152602001606081526020016000815260200160008152602001600081525090565b6001548210611e1f5760405162461bcd60e51b815260206004820152601a60248201527f54686973207365727669636520646f65736e277420657869737400000000000060448201526064016105bc565b6000828152600460208190526040918290208251610100810190935280549091839160ff1690811115611e5457611e546128d5565b6004811115611e6557611e656128d5565b8152602001600182015481526020016002820154815260200160038201548152602001600482018054611e9790612c4d565b80601f0160208091040260200160405190810160405280929190818152602001828054611ec390612c4d565b8015611f105780601f10611ee557610100808354040283529160200191611f10565b820191906000526020600020905b815481529060010190602001808311611ef357829003601f168201915b5050505050815260200160058201548152602001600682015481526020016007820154815250509050919050565b60008381526004602052604090206001548410611f9d5760405162461bcd60e51b815260206004820152601a60248201527f54686973207365727669636520646f65736e277420657869737400000000000060448201526064016105bc565b6004815460ff166004811115611fb557611fb56128d5565b1480611fd657506000815460ff166004811115611fd457611fd46128d5565b145b6120345760405162461bcd60e51b815260206004820152602960248201527f53657276696365207374617475732073686f756c64206265206f70656e6564206044820152681bdc88199a5b1b195960ba1b60648201526084016105bc565b60025460405162438b6360e81b81523360048201526001600160a01b039091169063438b63009060240160206040518083038186803b15801561207657600080fd5b505afa15801561208a573d6000803e3d6000fd5b505050506040513d601f19601f820116820180604052508101906120ae9190612b1a565b8160030154146121125760405162461bcd60e51b815260206004820152602960248201527f4f6e6c792074686520696e69746961746f722063616e2075706461746520746860448201526865207365727669636560b81b60648201526084016105bc565b8161212f5760405162461bcd60e51b81526004016105bc90612d47565b61213d60048201848461266f565b50837f1cae99404f615a4039d85b1009cb70622aae6d64f671e8b1b191d9269847d43e8484604051612170929190612e63565b60405180910390a250505050565b61218881336123e4565b50565b61219582826114dc565b61073e576000828152602081815260408083206001600160a01b03851684529091529020805460ff191660011790556121cb3390565b6001600160a01b0316816001600160a01b0316837f2f8788117e7eff1d82e926ec794901d17c78024a50270940304540a733656f0d60405160405180910390a45050565b61221982826114dc565b1561073e576000828152602081815260408083206001600160a01b0385168085529252808320805460ff1916905551339285917ff6391f5c32d9c69d2a47ea670b442974b53935d1edc7fd64eb21e047a839171b9190a45050565b60008087116122955760405162461bcd60e51b81526004016105bc90612b90565b858514156122b55760405162461bcd60e51b81526004016105bc90612b33565b826122d25760405162461bcd60e51b81526004016105bc90612d47565b6001805490819060006122e483612d94565b90915550506000818152600460208190526040909120805490918b91839160ff1990911690600190849081111561231d5761231d6128d5565b021790555060018101889055600281018790556003810189905561234560048201878761266f565b506007810184905560408051838152602081018a9052908101889052606081018a9052608081018590527f9cd325e0ba2126728b21176b4b24c49c672e66820627759eedcab6b5dd7dac499060a00160405180910390a17f4874366e887bb729d49976a8f6751c4263d1668fd396db9b8d5f037895e7a7458287876040516123cf93929190612e77565b60405180910390a15098975050505050505050565b6123ee82826114dc565b61073e57612406816001600160a01b03166014612448565b612411836020612448565b604051602001612422929190612e91565b60408051601f198184030181529082905262461bcd60e51b82526105bc91600401612f06565b60606000612457836002612f19565b612462906002612f38565b67ffffffffffffffff81111561247a5761247a612f50565b6040519080825280601f01601f1916602001820160405280156124a4576020820181803683370190505b509050600360fc1b816000815181106124bf576124bf612f66565b60200101906001600160f81b031916908160001a905350600f60fb1b816001815181106124ee576124ee612f66565b60200101906001600160f81b031916908160001a9053506000612512846002612f19565b61251d906001612f38565b90505b6001811115612595576f181899199a1a9b1b9c1cb0b131b232b360811b85600f166010811061255157612551612f66565b1a60f81b82828151811061256757612567612f66565b60200101906001600160f81b031916908160001a90535060049490941c9361258e81612f7c565b9050612520565b5083156125e45760405162461bcd60e51b815260206004820181905260248201527f537472696e67733a20686578206c656e67746820696e73756666696369656e7460448201526064016105bc565b9392505050565b8280546125f790612c4d565b90600052602060002090601f016020900481019282612619576000855561265f565b82601f1061263257805160ff191683800117855561265f565b8280016001018555821561265f579182015b8281111561265f578251825591602001919060010190612644565b5061266b9291506126e3565b5090565b82805461267b90612c4d565b90600052602060002090601f01602090048101928261269d576000855561265f565b82601f106126b65782800160ff1982351617855561265f565b8280016001018555821561265f579182015b8281111561265f5782358255916020019190600101906126c8565b5b8082111561266b57600081556001016126e4565b60006020828403121561270a57600080fd5b81356001600160e01b0319811681146125e457600080fd5b6000806040838503121561273557600080fd5b50508035926020909101359150565b60006020828403121561275657600080fd5b5035919050565b80356001600160a01b038116811461277457600080fd5b919050565b6000806040838503121561278c57600080fd5b8235915061279c6020840161275d565b90509250929050565b60008083601f8401126127b757600080fd5b50813567ffffffffffffffff8111156127cf57600080fd5b6020830191508360208285010111156127e757600080fd5b9250929050565b60008060008060006080868803121561280657600080fd5b853594506128166020870161275d565b935060408601359250606086013567ffffffffffffffff81111561283957600080fd5b612845888289016127a5565b969995985093965092949392505050565b6000806000806060858703121561286c57600080fd5b8435935060208501359250604085013567ffffffffffffffff81111561289157600080fd5b61289d878288016127a5565b95989497509550505050565b6000806000606084860312156128be57600080fd5b505081359360208301359350604090920135919050565b634e487b7160e01b600052602160045260246000fd5b600381106128fb576128fb6128d5565b9052565b60005b8381101561291a578181015183820152602001612902565b83811115612929576000848401525b50505050565b600081518084526129478160208601602086016128ff565b601f01601f19169290920160200192915050565b6020815261296d6020820183516128eb565b6020820151604082015260018060a01b036040830151166060820152606082015160808201526000608083015160a08084015261138d60c084018261292f565b6000806000604084860312156129c257600080fd5b83359250602084013567ffffffffffffffff8111156129e057600080fd5b6129ec868287016127a5565b9497909650939450505050565b600581106128fb576128fb6128d5565b6000610100612a18838c6129f9565b896020840152886040840152876060840152806080840152612a3c8184018861292f565b60a0840196909652505060c081019290925260e09091015295945050505050565b612a6781876128eb565b84602082015260018060a01b038416604082015282606082015260a060808201526000612a9760a083018461292f565b979650505050505050565b60208152612ab46020820183516129f9565b602082015160408201526040820151606082015260608201516080820152600060808301516101008060a0850152612af061012085018361292f565b915060a085015160c085015260c085015160e085015260e085015181850152508091505092915050565b600060208284031215612b2c57600080fd5b5051919050565b60208082526022908201527f53656c6c657220616e642062757965722063616e2774206265207468652073616040820152616d6560f01b606082015260800190565b838152602081018390526060810161138d60408301846129f9565b6020808252601f908201527f596f752073686f756c64206861766520612054616c656e744c61796572496400604082015260600190565b60208082526023908201527f50726f706f73616c2068617320616c7265616479206265656e2076616c6964616040820152621d195960ea1b606082015260800190565b60208082526023908201527f596f75277265206e6f7420616e206163746f72206f662074686973207365727660408201526269636560e81b606082015260800190565b600181811c90821680612c6157607f821691505b60208210811415612c8257634e487b7160e01b600052602260045260246000fd5b50919050565b848152600060208581840152846040840152608060608401526000845481600182811c915080831680612cbc57607f831692505b858310811415612cda57634e487b7160e01b85526022600452602485fd5b6080880183905260a08801818015612cf95760018114612d0a57612d35565b60ff19861682528782019650612d35565b60008b81526020902060005b86811015612d2f57815484820152908501908901612d16565b83019750505b50949c9b505050505050505050505050565b6020808252601f908201527f53686f756c642070726f7669646520612076616c696420495046532055524900604082015260600190565b634e487b7160e01b600052601160045260246000fd5b6000600019821415612da857612da8612d7e565b5060010190565b81835281816020850137506000828201602090810191909152601f909101601f19169091010190565b87815286602082015260c060408201526000612df860c083018789612daf565b9050612e0760608301866128eb565b6001600160a01b0393909316608082015260a0015295945050505050565b86815285602082015260a060408201526000612e4560a083018688612daf565b6001600160a01b039490941660608301525060800152949350505050565b60208152600061138d602083018486612daf565b838152604060208201526000611bb6604083018486612daf565b7f416363657373436f6e74726f6c3a206163636f756e7420000000000000000000815260008351612ec98160178501602088016128ff565b7001034b99036b4b9b9b4b733903937b6329607d1b6017918401918201528351612efa8160288401602088016128ff565b01602801949350505050565b6020815260006125e4602083018461292f565b6000816000190483118215151615612f3357612f33612d7e565b500290565b60008219821115612f4b57612f4b612d7e565b500190565b634e487b7160e01b600052604160045260246000fd5b634e487b7160e01b600052603260045260246000fd5b600081612f8b57612f8b612d7e565b50600019019056fea264697066735822122005670676e9e547bc245c5c293a6e82d82a52bf095330a231cea53eeb4fca601e64736f6c63430008090033",
  "linkReferences": {},
  "deployedLinkReferences": {}
}