{
  "_format": "hh-sol-artifact-1",
  "contractName": "TalentLayerPlatformID",
  "sourceName": "contracts/TalentLayerPlatformID.sol",
  "abi": [
    {
      "inputs": [],
      "stateMutability": "nonpayable",
      "type": "constructor"
    },
    {
      "inputs": [],
      "name": "HandleContainsInvalidCharacters",
      "type": "error"
    },
    {
      "inputs": [],
      "name": "HandleFirstCharInvalid",
      "type": "error"
    },
    {
      "inputs": [],
      "name": "HandleLengthInvalid",
      "type": "error"
    },
    {
      "anonymous": false,
      "inputs": [
        {
          "indexed": false,
          "internalType": "address",
          "name": "previousAdmin",
          "type": "address"
        },
        {
          "indexed": false,
          "internalType": "address",
          "name": "newAdmin",
          "type": "address"
        }
      ],
      "name": "AdminChanged",
      "type": "event"
    },
    {
      "anonymous": false,
      "inputs": [
        {
          "indexed": true,
          "internalType": "address",
          "name": "owner",
          "type": "address"
        },
        {
          "indexed": true,
          "internalType": "address",
          "name": "approved",
          "type": "address"
        },
        {
          "indexed": true,
          "internalType": "uint256",
          "name": "tokenId",
          "type": "uint256"
        }
      ],
      "name": "Approval",
      "type": "event"
    },
    {
      "anonymous": false,
      "inputs": [
        {
          "indexed": true,
          "internalType": "address",
          "name": "owner",
          "type": "address"
        },
        {
          "indexed": true,
          "internalType": "address",
          "name": "operator",
          "type": "address"
        },
        {
          "indexed": false,
          "internalType": "bool",
          "name": "approved",
          "type": "bool"
        }
      ],
      "name": "ApprovalForAll",
      "type": "event"
    },
    {
      "anonymous": false,
      "inputs": [
        {
          "indexed": false,
          "internalType": "uint256",
          "name": "_platformId",
          "type": "uint256"
        },
        {
          "indexed": false,
          "internalType": "uint256",
          "name": "_arbitrationFeeTimeout",
          "type": "uint256"
        }
      ],
      "name": "ArbitrationFeeTimeoutUpdated",
      "type": "event"
    },
    {
      "anonymous": false,
      "inputs": [
        {
          "indexed": false,
          "internalType": "uint256",
          "name": "_platformId",
          "type": "uint256"
        },
        {
          "indexed": false,
          "internalType": "contract Arbitrator",
          "name": "_arbitrator",
          "type": "address"
        },
        {
          "indexed": false,
          "internalType": "bytes",
          "name": "_extraData",
          "type": "bytes"
        }
      ],
      "name": "ArbitratorUpdated",
      "type": "event"
    },
    {
      "anonymous": false,
      "inputs": [
        {
          "indexed": true,
          "internalType": "address",
          "name": "beacon",
          "type": "address"
        }
      ],
      "name": "BeaconUpgraded",
      "type": "event"
    },
    {
      "anonymous": false,
      "inputs": [
        {
          "indexed": true,
          "internalType": "uint256",
          "name": "_platformId",
          "type": "uint256"
        },
        {
          "indexed": false,
          "internalType": "string",
          "name": "_newCid",
          "type": "string"
        }
      ],
      "name": "CidUpdated",
      "type": "event"
    },
    {
      "anonymous": false,
      "inputs": [
        {
          "indexed": false,
          "internalType": "uint8",
          "name": "version",
          "type": "uint8"
        }
      ],
      "name": "Initialized",
      "type": "event"
    },
    {
      "anonymous": false,
      "inputs": [
        {
          "indexed": false,
          "internalType": "uint256",
          "name": "_minArbitrationFeeTimeout",
          "type": "uint256"
        }
      ],
      "name": "MinArbitrationFeeTimeoutUpdated",
      "type": "event"
    },
    {
      "anonymous": false,
      "inputs": [
        {
          "indexed": true,
          "internalType": "address",
          "name": "_platformOwnerAddress",
          "type": "address"
        },
        {
          "indexed": false,
          "internalType": "uint256",
          "name": "_platformId",
          "type": "uint256"
        },
        {
          "indexed": false,
          "internalType": "string",
          "name": "_platformName",
          "type": "string"
        },
        {
          "indexed": false,
          "internalType": "uint256",
          "name": "_fee",
          "type": "uint256"
        },
        {
          "indexed": false,
          "internalType": "uint256",
          "name": "_arbitrationFeeTimeout",
          "type": "uint256"
        }
      ],
      "name": "Mint",
      "type": "event"
    },
    {
      "anonymous": false,
      "inputs": [
        {
          "indexed": false,
          "internalType": "uint256",
          "name": "_mintFee",
          "type": "uint256"
        }
      ],
      "name": "MintFeeUpdated",
      "type": "event"
    },
    {
      "anonymous": false,
      "inputs": [
        {
          "indexed": false,
          "internalType": "enum TalentLayerPlatformID.MintStatus",
          "name": "_mintStatus",
          "type": "uint8"
        }
      ],
      "name": "MintStatusUpdated",
      "type": "event"
    },
    {
      "anonymous": false,
      "inputs": [
        {
          "indexed": false,
          "internalType": "uint256",
          "name": "_platformId",
          "type": "uint256"
        },
        {
          "indexed": false,
          "internalType": "uint16",
          "name": "_originServiceFeeRate",
          "type": "uint16"
        }
      ],
      "name": "OriginServiceFeeRateUpdated",
      "type": "event"
    },
    {
      "anonymous": false,
      "inputs": [
        {
          "indexed": false,
          "internalType": "uint256",
          "name": "_platformId",
          "type": "uint256"
        },
        {
          "indexed": false,
          "internalType": "uint16",
          "name": "_originValidatedProposalFeeRate",
          "type": "uint16"
        }
      ],
      "name": "OriginValidatedProposalFeeRateUpdated",
      "type": "event"
    },
    {
      "anonymous": false,
      "inputs": [
        {
          "indexed": false,
          "internalType": "uint256",
          "name": "_platformId",
          "type": "uint256"
        },
        {
          "indexed": false,
          "internalType": "uint256",
          "name": "_proposalPostingFee",
          "type": "uint256"
        }
      ],
      "name": "ProposalPostingFeeUpdated",
      "type": "event"
    },
    {
      "anonymous": false,
      "inputs": [
        {
          "indexed": true,
          "internalType": "bytes32",
          "name": "role",
          "type": "bytes32"
        },
        {
          "indexed": true,
          "internalType": "bytes32",
          "name": "previousAdminRole",
          "type": "bytes32"
        },
        {
          "indexed": true,
          "internalType": "bytes32",
          "name": "newAdminRole",
          "type": "bytes32"
        }
      ],
      "name": "RoleAdminChanged",
      "type": "event"
    },
    {
      "anonymous": false,
      "inputs": [
        {
          "indexed": true,
          "internalType": "bytes32",
          "name": "role",
          "type": "bytes32"
        },
        {
          "indexed": true,
          "internalType": "address",
          "name": "account",
          "type": "address"
        },
        {
          "indexed": true,
          "internalType": "address",
          "name": "sender",
          "type": "address"
        }
      ],
      "name": "RoleGranted",
      "type": "event"
    },
    {
      "anonymous": false,
      "inputs": [
        {
          "indexed": true,
          "internalType": "bytes32",
          "name": "role",
          "type": "bytes32"
        },
        {
          "indexed": true,
          "internalType": "address",
          "name": "account",
          "type": "address"
        },
        {
          "indexed": true,
          "internalType": "address",
          "name": "sender",
          "type": "address"
        }
      ],
      "name": "RoleRevoked",
      "type": "event"
    },
    {
      "anonymous": false,
      "inputs": [
        {
          "indexed": false,
          "internalType": "uint256",
          "name": "_platformId",
          "type": "uint256"
        },
        {
          "indexed": false,
          "internalType": "uint256",
          "name": "_servicePostingFee",
          "type": "uint256"
        }
      ],
      "name": "ServicePostingFeeUpdated",
      "type": "event"
    },
    {
      "anonymous": false,
      "inputs": [
        {
          "indexed": false,
          "internalType": "uint256",
          "name": "_platformId",
          "type": "uint256"
        },
        {
          "indexed": false,
          "internalType": "address",
          "name": "_signer",
          "type": "address"
        }
      ],
      "name": "SignerUpdated",
      "type": "event"
    },
    {
      "anonymous": false,
      "inputs": [
        {
          "indexed": true,
          "internalType": "address",
          "name": "from",
          "type": "address"
        },
        {
          "indexed": true,
          "internalType": "address",
          "name": "to",
          "type": "address"
        },
        {
          "indexed": true,
          "internalType": "uint256",
          "name": "tokenId",
          "type": "uint256"
        }
      ],
      "name": "Transfer",
      "type": "event"
    },
    {
      "anonymous": false,
      "inputs": [
        {
          "indexed": true,
          "internalType": "address",
          "name": "implementation",
          "type": "address"
        }
      ],
      "name": "Upgraded",
      "type": "event"
    },
    {
      "anonymous": false,
      "inputs": [
        {
          "indexed": true,
          "internalType": "address",
          "name": "_user",
          "type": "address"
        }
      ],
      "name": "UserWhitelisted",
      "type": "event"
    },
    {
      "inputs": [],
      "name": "DEFAULT_ADMIN_ROLE",
      "outputs": [
        {
          "internalType": "bytes32",
          "name": "",
          "type": "bytes32"
        }
      ],
      "stateMutability": "view",
      "type": "function"
    },
    {
      "inputs": [],
      "name": "MINT_ROLE",
      "outputs": [
        {
          "internalType": "bytes32",
          "name": "",
          "type": "bytes32"
        }
      ],
      "stateMutability": "view",
      "type": "function"
    },
    {
      "inputs": [],
      "name": "OWNER_ROLE",
      "outputs": [
        {
          "internalType": "bytes32",
          "name": "",
          "type": "bytes32"
        }
      ],
      "stateMutability": "view",
      "type": "function"
    },
    {
      "inputs": [
        {
          "internalType": "address",
          "name": "_arbitrator",
          "type": "address"
        },
        {
          "internalType": "bool",
          "name": "_isInternal",
          "type": "bool"
        }
      ],
      "name": "addArbitrator",
      "outputs": [],
      "stateMutability": "nonpayable",
      "type": "function"
    },
    {
      "inputs": [
        {
          "internalType": "address",
          "name": "to",
          "type": "address"
        },
        {
          "internalType": "uint256",
          "name": "tokenId",
          "type": "uint256"
        }
      ],
      "name": "approve",
      "outputs": [],
      "stateMutability": "nonpayable",
      "type": "function"
    },
    {
      "inputs": [
        {
          "internalType": "address",
          "name": "owner",
          "type": "address"
        }
      ],
      "name": "balanceOf",
      "outputs": [
        {
          "internalType": "uint256",
          "name": "",
          "type": "uint256"
        }
      ],
      "stateMutability": "view",
      "type": "function"
    },
    {
      "inputs": [
        {
          "internalType": "uint256",
          "name": "tokenId",
          "type": "uint256"
        }
      ],
      "name": "getApproved",
      "outputs": [
        {
          "internalType": "address",
          "name": "",
          "type": "address"
        }
      ],
      "stateMutability": "view",
      "type": "function"
    },
    {
      "inputs": [
        {
          "internalType": "uint256",
          "name": "_platformId",
          "type": "uint256"
        }
      ],
      "name": "getOriginServiceFeeRate",
      "outputs": [
        {
          "internalType": "uint16",
          "name": "",
          "type": "uint16"
        }
      ],
      "stateMutability": "view",
      "type": "function"
    },
    {
      "inputs": [
        {
          "internalType": "uint256",
          "name": "_platformId",
          "type": "uint256"
        }
      ],
      "name": "getOriginValidatedProposalFeeRate",
      "outputs": [
        {
          "internalType": "uint16",
          "name": "",
          "type": "uint16"
        }
      ],
      "stateMutability": "view",
      "type": "function"
    },
    {
      "inputs": [
        {
          "internalType": "uint256",
          "name": "_platformId",
          "type": "uint256"
        }
      ],
      "name": "getPlatform",
      "outputs": [
        {
          "components": [
            {
              "internalType": "uint256",
              "name": "id",
              "type": "uint256"
            },
            {
              "internalType": "string",
              "name": "name",
              "type": "string"
            },
            {
              "internalType": "string",
              "name": "dataUri",
              "type": "string"
            },
            {
              "internalType": "uint16",
              "name": "originServiceFeeRate",
              "type": "uint16"
            },
            {
              "internalType": "uint16",
              "name": "originValidatedProposalFeeRate",
              "type": "uint16"
            },
            {
              "internalType": "uint256",
              "name": "servicePostingFee",
              "type": "uint256"
            },
            {
              "internalType": "uint256",
              "name": "proposalPostingFee",
              "type": "uint256"
            },
            {
              "internalType": "contract Arbitrator",
              "name": "arbitrator",
              "type": "address"
            },
            {
              "internalType": "bytes",
              "name": "arbitratorExtraData",
              "type": "bytes"
            },
            {
              "internalType": "uint256",
              "name": "arbitrationFeeTimeout",
              "type": "uint256"
            },
            {
              "internalType": "address",
              "name": "signer",
              "type": "address"
            }
          ],
          "internalType": "struct TalentLayerPlatformID.Platform",
          "name": "",
          "type": "tuple"
        }
      ],
      "stateMutability": "view",
      "type": "function"
    },
    {
      "inputs": [
        {
          "internalType": "uint256",
          "name": "_platformId",
          "type": "uint256"
        }
      ],
      "name": "getProposalPostingFee",
      "outputs": [
        {
          "internalType": "uint256",
          "name": "",
          "type": "uint256"
        }
      ],
      "stateMutability": "view",
      "type": "function"
    },
    {
      "inputs": [
        {
          "internalType": "bytes32",
          "name": "role",
          "type": "bytes32"
        }
      ],
      "name": "getRoleAdmin",
      "outputs": [
        {
          "internalType": "bytes32",
          "name": "",
          "type": "bytes32"
        }
      ],
      "stateMutability": "view",
      "type": "function"
    },
    {
      "inputs": [
        {
          "internalType": "uint256",
          "name": "_platformId",
          "type": "uint256"
        }
      ],
      "name": "getServicePostingFee",
      "outputs": [
        {
          "internalType": "uint256",
          "name": "",
          "type": "uint256"
        }
      ],
      "stateMutability": "view",
      "type": "function"
    },
    {
      "inputs": [
        {
          "internalType": "uint256",
          "name": "_platformId",
          "type": "uint256"
        }
      ],
      "name": "getSigner",
      "outputs": [
        {
          "internalType": "address",
          "name": "",
          "type": "address"
        }
      ],
      "stateMutability": "view",
      "type": "function"
    },
    {
      "inputs": [
        {
          "internalType": "bytes32",
          "name": "role",
          "type": "bytes32"
        },
        {
          "internalType": "address",
          "name": "account",
          "type": "address"
        }
      ],
      "name": "grantRole",
      "outputs": [],
      "stateMutability": "nonpayable",
      "type": "function"
    },
    {
      "inputs": [
        {
          "internalType": "bytes32",
          "name": "role",
          "type": "bytes32"
        },
        {
          "internalType": "address",
          "name": "account",
          "type": "address"
        }
      ],
      "name": "hasRole",
      "outputs": [
        {
          "internalType": "bool",
          "name": "",
          "type": "bool"
        }
      ],
      "stateMutability": "view",
      "type": "function"
    },
    {
      "inputs": [
        {
          "internalType": "address",
          "name": "",
          "type": "address"
        }
      ],
      "name": "ids",
      "outputs": [
        {
          "internalType": "uint256",
          "name": "",
          "type": "uint256"
        }
      ],
      "stateMutability": "view",
      "type": "function"
    },
    {
      "inputs": [],
      "name": "initialize",
      "outputs": [],
      "stateMutability": "nonpayable",
      "type": "function"
    },
    {
      "inputs": [
        {
          "internalType": "address",
          "name": "",
          "type": "address"
        }
      ],
      "name": "internalArbitrators",
      "outputs": [
        {
          "internalType": "bool",
          "name": "",
          "type": "bool"
        }
      ],
      "stateMutability": "view",
      "type": "function"
    },
    {
      "inputs": [
        {
          "internalType": "address",
          "name": "owner",
          "type": "address"
        },
        {
          "internalType": "address",
          "name": "operator",
          "type": "address"
        }
      ],
      "name": "isApprovedForAll",
      "outputs": [
        {
          "internalType": "bool",
          "name": "",
          "type": "bool"
        }
      ],
      "stateMutability": "view",
      "type": "function"
    },
    {
      "inputs": [
        {
          "internalType": "uint256",
          "name": "_platformId",
          "type": "uint256"
        }
      ],
      "name": "isValid",
      "outputs": [],
      "stateMutability": "view",
      "type": "function"
    },
    {
      "inputs": [],
      "name": "minArbitrationFeeTimeout",
      "outputs": [
        {
          "internalType": "uint256",
          "name": "",
          "type": "uint256"
        }
      ],
      "stateMutability": "view",
      "type": "function"
    },
    {
      "inputs": [
        {
          "internalType": "string",
          "name": "_platformName",
          "type": "string"
        }
      ],
      "name": "mint",
      "outputs": [
        {
          "internalType": "uint256",
          "name": "",
          "type": "uint256"
        }
      ],
      "stateMutability": "payable",
      "type": "function"
    },
    {
      "inputs": [],
      "name": "mintFee",
      "outputs": [
        {
          "internalType": "uint256",
          "name": "",
          "type": "uint256"
        }
      ],
      "stateMutability": "view",
      "type": "function"
    },
    {
      "inputs": [
        {
          "internalType": "string",
          "name": "_platformName",
          "type": "string"
        },
        {
          "internalType": "address",
          "name": "_platformAddress",
          "type": "address"
        }
      ],
      "name": "mintForAddress",
      "outputs": [
        {
          "internalType": "uint256",
          "name": "",
          "type": "uint256"
        }
      ],
      "stateMutability": "payable",
      "type": "function"
    },
    {
      "inputs": [],
      "name": "mintStatus",
      "outputs": [
        {
          "internalType": "enum TalentLayerPlatformID.MintStatus",
          "name": "",
          "type": "uint8"
        }
      ],
      "stateMutability": "view",
      "type": "function"
    },
    {
      "inputs": [],
      "name": "name",
      "outputs": [
        {
          "internalType": "string",
          "name": "",
          "type": "string"
        }
      ],
      "stateMutability": "view",
      "type": "function"
    },
    {
      "inputs": [
        {
          "internalType": "address",
          "name": "_platformAddress",
          "type": "address"
        }
      ],
      "name": "numberMinted",
      "outputs": [
        {
          "internalType": "uint256",
          "name": "",
          "type": "uint256"
        }
      ],
      "stateMutability": "view",
      "type": "function"
    },
    {
      "inputs": [
        {
          "internalType": "uint256",
          "name": "tokenId",
          "type": "uint256"
        }
      ],
      "name": "ownerOf",
      "outputs": [
        {
          "internalType": "address",
          "name": "",
          "type": "address"
        }
      ],
      "stateMutability": "view",
      "type": "function"
    },
    {
      "inputs": [
        {
          "internalType": "uint256",
          "name": "",
          "type": "uint256"
        }
      ],
      "name": "platforms",
      "outputs": [
        {
          "internalType": "uint256",
          "name": "id",
          "type": "uint256"
        },
        {
          "internalType": "string",
          "name": "name",
          "type": "string"
        },
        {
          "internalType": "string",
          "name": "dataUri",
          "type": "string"
        },
        {
          "internalType": "uint16",
          "name": "originServiceFeeRate",
          "type": "uint16"
        },
        {
          "internalType": "uint16",
          "name": "originValidatedProposalFeeRate",
          "type": "uint16"
        },
        {
          "internalType": "uint256",
          "name": "servicePostingFee",
          "type": "uint256"
        },
        {
          "internalType": "uint256",
          "name": "proposalPostingFee",
          "type": "uint256"
        },
        {
          "internalType": "contract Arbitrator",
          "name": "arbitrator",
          "type": "address"
        },
        {
          "internalType": "bytes",
          "name": "arbitratorExtraData",
          "type": "bytes"
        },
        {
          "internalType": "uint256",
          "name": "arbitrationFeeTimeout",
          "type": "uint256"
        },
        {
          "internalType": "address",
          "name": "signer",
          "type": "address"
        }
      ],
      "stateMutability": "view",
      "type": "function"
    },
    {
      "inputs": [],
      "name": "proxiableUUID",
      "outputs": [
        {
          "internalType": "bytes32",
          "name": "",
          "type": "bytes32"
        }
      ],
      "stateMutability": "view",
      "type": "function"
    },
    {
      "inputs": [
        {
          "internalType": "address",
          "name": "_arbitrator",
          "type": "address"
        }
      ],
      "name": "removeArbitrator",
      "outputs": [],
      "stateMutability": "nonpayable",
      "type": "function"
    },
    {
      "inputs": [
        {
          "internalType": "bytes32",
          "name": "role",
          "type": "bytes32"
        },
        {
          "internalType": "address",
          "name": "account",
          "type": "address"
        }
      ],
      "name": "renounceRole",
      "outputs": [],
      "stateMutability": "nonpayable",
      "type": "function"
    },
    {
      "inputs": [
        {
          "internalType": "bytes32",
          "name": "role",
          "type": "bytes32"
        },
        {
          "internalType": "address",
          "name": "account",
          "type": "address"
        }
      ],
      "name": "revokeRole",
      "outputs": [],
      "stateMutability": "nonpayable",
      "type": "function"
    },
    {
      "inputs": [
        {
          "internalType": "address",
          "name": "from",
          "type": "address"
        },
        {
          "internalType": "address",
          "name": "to",
          "type": "address"
        },
        {
          "internalType": "uint256",
          "name": "tokenId",
          "type": "uint256"
        }
      ],
      "name": "safeTransferFrom",
      "outputs": [],
      "stateMutability": "nonpayable",
      "type": "function"
    },
    {
      "inputs": [
        {
          "internalType": "address",
          "name": "from",
          "type": "address"
        },
        {
          "internalType": "address",
          "name": "to",
          "type": "address"
        },
        {
          "internalType": "uint256",
          "name": "tokenId",
          "type": "uint256"
        },
        {
          "internalType": "bytes",
          "name": "data",
          "type": "bytes"
        }
      ],
      "name": "safeTransferFrom",
      "outputs": [],
      "stateMutability": "nonpayable",
      "type": "function"
    },
    {
      "inputs": [
        {
          "internalType": "address",
          "name": "operator",
          "type": "address"
        },
        {
          "internalType": "bool",
          "name": "approved",
          "type": "bool"
        }
      ],
      "name": "setApprovalForAll",
      "outputs": [],
      "stateMutability": "nonpayable",
      "type": "function"
    },
    {
      "inputs": [
        {
          "internalType": "bytes4",
          "name": "interfaceId",
          "type": "bytes4"
        }
      ],
      "name": "supportsInterface",
      "outputs": [
        {
          "internalType": "bool",
          "name": "",
          "type": "bool"
        }
      ],
      "stateMutability": "view",
      "type": "function"
    },
    {
      "inputs": [],
      "name": "symbol",
      "outputs": [
        {
          "internalType": "string",
          "name": "",
          "type": "string"
        }
      ],
      "stateMutability": "view",
      "type": "function"
    },
    {
      "inputs": [
        {
          "internalType": "string",
          "name": "",
          "type": "string"
        }
      ],
      "name": "takenNames",
      "outputs": [
        {
          "internalType": "bool",
          "name": "",
          "type": "bool"
        }
      ],
      "stateMutability": "view",
      "type": "function"
    },
    {
      "inputs": [
        {
          "internalType": "uint256",
          "name": "tokenId",
          "type": "uint256"
        }
      ],
      "name": "tokenURI",
      "outputs": [
        {
          "internalType": "string",
          "name": "",
          "type": "string"
        }
      ],
      "stateMutability": "view",
      "type": "function"
    },
    {
      "inputs": [],
      "name": "totalSupply",
      "outputs": [
        {
          "internalType": "uint256",
          "name": "",
          "type": "uint256"
        }
      ],
      "stateMutability": "view",
      "type": "function"
    },
    {
      "inputs": [
        {
          "internalType": "address",
          "name": "from",
          "type": "address"
        },
        {
          "internalType": "address",
          "name": "to",
          "type": "address"
        },
        {
          "internalType": "uint256",
          "name": "tokenId",
          "type": "uint256"
        }
      ],
      "name": "transferFrom",
      "outputs": [],
      "stateMutability": "nonpayable",
      "type": "function"
    },
    {
      "inputs": [
        {
          "internalType": "uint256",
          "name": "_platformId",
          "type": "uint256"
        },
        {
          "internalType": "uint256",
          "name": "_arbitrationFeeTimeout",
          "type": "uint256"
        }
      ],
      "name": "updateArbitrationFeeTimeout",
      "outputs": [],
      "stateMutability": "nonpayable",
      "type": "function"
    },
    {
      "inputs": [
        {
          "internalType": "uint256",
          "name": "_platformId",
          "type": "uint256"
        },
        {
          "internalType": "contract Arbitrator",
          "name": "_arbitrator",
          "type": "address"
        },
        {
          "internalType": "bytes",
          "name": "_extraData",
          "type": "bytes"
        }
      ],
      "name": "updateArbitrator",
      "outputs": [],
      "stateMutability": "nonpayable",
      "type": "function"
    },
    {
      "inputs": [
        {
          "internalType": "uint256",
          "name": "_minArbitrationFeeTimeout",
          "type": "uint256"
        }
      ],
      "name": "updateMinArbitrationFeeTimeout",
      "outputs": [],
      "stateMutability": "nonpayable",
      "type": "function"
    },
    {
      "inputs": [
        {
          "internalType": "uint256",
          "name": "_mintFee",
          "type": "uint256"
        }
      ],
      "name": "updateMintFee",
      "outputs": [],
      "stateMutability": "nonpayable",
      "type": "function"
    },
    {
      "inputs": [
        {
          "internalType": "enum TalentLayerPlatformID.MintStatus",
          "name": "_mintStatus",
          "type": "uint8"
        }
      ],
      "name": "updateMintStatus",
      "outputs": [],
      "stateMutability": "nonpayable",
      "type": "function"
    },
    {
      "inputs": [
        {
          "internalType": "uint256",
          "name": "_platformId",
          "type": "uint256"
        },
        {
          "internalType": "uint16",
          "name": "_originServiceFeeRate",
          "type": "uint16"
        }
      ],
      "name": "updateOriginServiceFeeRate",
      "outputs": [],
      "stateMutability": "nonpayable",
      "type": "function"
    },
    {
      "inputs": [
        {
          "internalType": "uint256",
          "name": "_platformId",
          "type": "uint256"
        },
        {
          "internalType": "uint16",
          "name": "_originValidatedProposalFeeRate",
          "type": "uint16"
        }
      ],
      "name": "updateOriginValidatedProposalFeeRate",
      "outputs": [],
      "stateMutability": "nonpayable",
      "type": "function"
    },
    {
      "inputs": [
        {
          "internalType": "uint256",
          "name": "_platformId",
          "type": "uint256"
        },
        {
          "internalType": "string",
          "name": "_newCid",
          "type": "string"
        }
      ],
      "name": "updateProfileData",
      "outputs": [],
      "stateMutability": "nonpayable",
      "type": "function"
    },
    {
      "inputs": [
        {
          "internalType": "uint256",
          "name": "_platformId",
          "type": "uint256"
        },
        {
          "internalType": "uint256",
          "name": "_proposalPostingFee",
          "type": "uint256"
        }
      ],
      "name": "updateProposalPostingFee",
      "outputs": [],
      "stateMutability": "nonpayable",
      "type": "function"
    },
    {
      "inputs": [
        {
          "internalType": "uint256",
          "name": "_platformId",
          "type": "uint256"
        },
        {
          "internalType": "uint256",
          "name": "_servicePostingFee",
          "type": "uint256"
        }
      ],
      "name": "updateServicePostingFee",
      "outputs": [],
      "stateMutability": "nonpayable",
      "type": "function"
    },
    {
      "inputs": [
        {
          "internalType": "uint256",
          "name": "_platformId",
          "type": "uint256"
        },
        {
          "internalType": "address",
          "name": "_signer",
          "type": "address"
        }
      ],
      "name": "updateSigner",
      "outputs": [],
      "stateMutability": "nonpayable",
      "type": "function"
    },
    {
      "inputs": [
        {
          "internalType": "address",
          "name": "newImplementation",
          "type": "address"
        }
      ],
      "name": "upgradeTo",
      "outputs": [],
      "stateMutability": "nonpayable",
      "type": "function"
    },
    {
      "inputs": [
        {
          "internalType": "address",
          "name": "newImplementation",
          "type": "address"
        },
        {
          "internalType": "bytes",
          "name": "data",
          "type": "bytes"
        }
      ],
      "name": "upgradeToAndCall",
      "outputs": [],
      "stateMutability": "payable",
      "type": "function"
    },
    {
      "inputs": [
        {
          "internalType": "address",
          "name": "",
          "type": "address"
        }
      ],
      "name": "validArbitrators",
      "outputs": [
        {
          "internalType": "bool",
          "name": "",
          "type": "bool"
        }
      ],
      "stateMutability": "view",
      "type": "function"
    },
    {
      "inputs": [
        {
          "internalType": "address",
          "name": "",
          "type": "address"
        }
      ],
      "name": "whitelist",
      "outputs": [
        {
          "internalType": "bool",
          "name": "",
          "type": "bool"
        }
      ],
      "stateMutability": "view",
      "type": "function"
    },
    {
      "inputs": [
        {
          "internalType": "address",
          "name": "_user",
          "type": "address"
        }
      ],
      "name": "whitelistUser",
      "outputs": [],
      "stateMutability": "nonpayable",
      "type": "function"
    },
    {
      "inputs": [],
      "name": "withdraw",
      "outputs": [],
      "stateMutability": "nonpayable",
      "type": "function"
    }
  ],
  "bytecode": "0x60a0604052306080523480156200001557600080fd5b506200002062000026565b620000e8565b600054610100900460ff1615620000935760405162461bcd60e51b815260206004820152602760248201527f496e697469616c697a61626c653a20636f6e747261637420697320696e697469604482015266616c697a696e6760c81b606482015260840160405180910390fd5b60005460ff9081161015620000e6576000805460ff191660ff9081179091556040519081527f7f26b83ff96e1f2b6a682f133852f6798a09c465da95921460cefb38474024989060200160405180910390a15b565b608051614f796200012060003960008181610f3a01528181610f7a015281816113c10152818161140101526114900152614f796000f3fe6080604052600436106103975760003560e01c80638e6e5397116101dc578063c6bf01ce11610102578063e58378bb116100a0578063f577a5001161006f578063f577a50014610b2b578063f6f3784414610b4b578063f905f15414610b62578063faa992d314610b8257600080fd5b8063e58378bb14610a7e578063e985e9c514610aa0578063e9a9c85014610ae9578063f160068f14610b0b57600080fd5b8063d547741f116100dc578063d547741f14610a0b578063d85d3d2714610a2b578063dc33e68114610a3e578063dce2263814610a5e57600080fd5b8063c6bf01ce146109ab578063c87b56dd146109cb578063cb8faafa146109eb57600080fd5b80639da3f8fd1161017a578063a4f524a911610149578063a4f524a914610927578063acd63f1b14610947578063b88d4fde14610978578063c37e154e1461099857600080fd5b80639da3f8fd1461088e578063a217fddf146108b6578063a22cb465146108cb578063a383c692146108eb57600080fd5b806395d89b41116101b657806395d89b4114610808578063973ad2701461081d57806399ded4441461083d5780639b19251a1461085d57600080fd5b80638e6e5397146107a85780638f283a86146107c857806391d14854146107e857600080fd5b80633d459389116102c15780634f1ef2861161025f57806370a082311161022e57806370a08231146107335780638129fc1c1461075357806384017e52146107685780638a9863631461078857600080fd5b80634f1ef286146106be57806352d1902d146106d15780635bd22c98146106e65780636352211e1461071357600080fd5b806342842e0e1161029b57806342842e0e1461062d57806348203b301461064d5780634a4c560d1461067e5780634a7ab1d51461069e57600080fd5b80633d459389146105cd5780633e6acfe0146105ed5780633ffefe4e1461060d57600080fd5b806318160ddd116103395780632f2ff15d116103085780632f2ff15d1461055857806336568abe146105785780633659cfe6146105985780633ccfd60b146105b857600080fd5b806318160ddd146104c55780631847c06b146104da57806323b872dd14610508578063248a9ca31461052857600080fd5b8063081812fc11610375578063081812fc14610415578063095ea7b31461044d57806311f821921461046d57806313966db5146104a057600080fd5b806301c32c851461039c57806301ffc9a7146103be57806306fdde03146103f3575b600080fd5b3480156103a857600080fd5b506103bc6103b7366004613bd0565b610bb9565b005b3480156103ca57600080fd5b506103de6103d9366004613bff565b610c02565b60405190151581526020015b60405180910390f35b3480156103ff57600080fd5b50610408610c22565b6040516103ea9190613c6c565b34801561042157600080fd5b50610435610430366004613bd0565b610cb4565b6040516001600160a01b0390911681526020016103ea565b34801561045957600080fd5b506103bc610468366004613c94565b610cdb565b34801561047957600080fd5b5061048d610488366004613bd0565b610df5565b60405161ffff90911681526020016103ea565b3480156104ac57600080fd5b506104b76101335481565b6040519081526020016103ea565b3480156104d157600080fd5b506104b7610e3f565b3480156104e657600080fd5b506104b76104f5366004613cc0565b6101326020526000908152604090205481565b34801561051457600080fd5b506103bc610523366004613cdd565b610e5c565b34801561053457600080fd5b506104b7610543366004613bd0565b60009081526097602052604090206001015490565b34801561056457600080fd5b506103bc610573366004613d1e565b610e8d565b34801561058457600080fd5b506103bc610593366004613d1e565b610eb2565b3480156105a457600080fd5b506103bc6105b3366004613cc0565b610f30565b3480156105c457600080fd5b506103bc61100f565b3480156105d957600080fd5b5061048d6105e8366004613bd0565b6110b2565b3480156105f957600080fd5b506103bc610608366004613df1565b611102565b34801561061957600080fd5b50610435610628366004613bd0565b6112a1565b34801561063957600080fd5b506103bc610648366004613cdd565b6112f0565b34801561065957600080fd5b506103de610668366004613cc0565b61012f6020526000908152604090205460ff1681565b34801561068a57600080fd5b506103bc610699366004613cc0565b61130b565b3480156106aa57600080fd5b506104b76106b9366004613bd0565b611371565b6103bc6106cc366004613e4a565b6113b7565b3480156106dd57600080fd5b506104b7611483565b3480156106f257600080fd5b50610706610701366004613bd0565b611536565b6040516103ea9190613e9a565b34801561071f57600080fd5b5061043561072e366004613bd0565b611827565b34801561073f57600080fd5b506104b761074e366004613cc0565b611887565b34801561075f57600080fd5b506103bc61190d565b34801561077457600080fd5b506103bc610783366004613bd0565b611b18565b34801561079457600080fd5b506104b76107a3366004613bd0565b611b59565b3480156107b457600080fd5b506103bc6107c3366004613f8f565b611b9f565b3480156107d457600080fd5b506103bc6107e3366004613d1e565b611c28565b3480156107f457600080fd5b506103de610803366004613d1e565b611cbb565b34801561081457600080fd5b50610408611ce6565b34801561082957600080fd5b506103bc610838366004613cc0565b611cf5565b34801561084957600080fd5b506103bc610858366004613f8f565b611d39565b34801561086957600080fd5b506103de610878366004613cc0565b6101306020526000908152604090205460ff1681565b34801561089a57600080fd5b50610136546108a99060ff1681565b6040516103ea9190613fd1565b3480156108c257600080fd5b506104b7600081565b3480156108d757600080fd5b506103bc6108e6366004613ff9565b611dcc565b3480156108f757600080fd5b506103de61090636600461402c565b805160208183018101805161012d8252928201919093012091525460ff1681565b34801561093357600080fd5b506103bc610942366004614061565b611dd7565b34801561095357600080fd5b506103de610962366004613cc0565b6101316020526000908152604090205460ff1681565b34801561098457600080fd5b506103bc610993366004614083565b611ec3565b6104b76109a6366004614138565b611efb565b3480156109b757600080fd5b506103bc6109c6366004614061565b61212f565b3480156109d757600080fd5b506104086109e6366004613bd0565b6121ab565b3480156109f757600080fd5b506103bc610a06366004613ff9565b6121b6565b348015610a1757600080fd5b506103bc610a26366004613d1e565b612207565b6104b7610a3936600461418f565b61222c565b348015610a4a57600080fd5b506104b7610a59366004613cc0565b61245a565b348015610a6a57600080fd5b506103bc610a79366004614061565b612465565b348015610a8a57600080fd5b506104b7600080516020614e7d83398151915281565b348015610aac57600080fd5b506103de610abb3660046141d1565b6001600160a01b039182166000908152606a6020908152604080832093909416825291909152205460ff1690565b348015610af557600080fd5b506104b7600080516020614efd83398151915281565b348015610b1757600080fd5b506103bc610b263660046141ff565b6124e1565b348015610b3757600080fd5b506103bc610b46366004613bd0565b6125a9565b348015610b5757600080fd5b506104b76101345481565b348015610b6e57600080fd5b506103bc610b7d366004614230565b6125d7565b348015610b8e57600080fd5b50610ba2610b9d366004613bd0565b612643565b6040516103ea9b9a99989796959493929190614251565b6000610bc481612850565b6101348290556040518281527fa39eb462f98ec2e2a17ca5c7f2a0a247d212213bf0c78a6e2a3df704911ef601906020015b60405180910390a15050565b6000610c0d8261285a565b80610c1c5750610c1c826128aa565b92915050565b606060658054610c31906142e9565b80601f0160208091040260200160405190810160405280929190818152602001828054610c5d906142e9565b8015610caa5780601f10610c7f57610100808354040283529160200191610caa565b820191906000526020600020905b815481529060010190602001808311610c8d57829003601f168201915b5050505050905090565b6000610cbf826128cf565b506000908152606960205260409020546001600160a01b031690565b6000610ce682611827565b9050806001600160a01b0316836001600160a01b031603610d585760405162461bcd60e51b815260206004820152602160248201527f4552433732313a20617070726f76616c20746f2063757272656e74206f776e656044820152603960f91b60648201526084015b60405180910390fd5b336001600160a01b0382161480610d745750610d748133610abb565b610de65760405162461bcd60e51b815260206004820152603d60248201527f4552433732313a20617070726f76652063616c6c6572206973206e6f7420746f60448201527f6b656e206f776e6572206f7220617070726f76656420666f7220616c6c0000006064820152608401610d4f565b610df0838361292e565b505050565b60008082118015610e0857506101355482105b610e245760405162461bcd60e51b8152600401610d4f90614323565b50600090815261012e602052604090206003015461ffff1690565b60006001610e4d6101355490565b610e579190614366565b905090565b610e66338261299c565b610e825760405162461bcd60e51b8152600401610d4f90614379565b610df0838383612a1b565b600082815260976020526040902060010154610ea881612850565b610df08383612a63565b6001600160a01b0381163314610f225760405162461bcd60e51b815260206004820152602f60248201527f416363657373436f6e74726f6c3a2063616e206f6e6c792072656e6f756e636560448201526e103937b632b9903337b91039b2b63360891b6064820152608401610d4f565b610f2c8282612ae9565b5050565b6001600160a01b037f0000000000000000000000000000000000000000000000000000000000000000163003610f785760405162461bcd60e51b8152600401610d4f906143c6565b7f00000000000000000000000000000000000000000000000000000000000000006001600160a01b0316610fc1600080516020614e9d833981519152546001600160a01b031690565b6001600160a01b031614610fe75760405162461bcd60e51b8152600401610d4f90614412565b610ff081612b50565b6040805160008082526020820190925261100c91839190612b68565b50565b600061101a81612850565b604051600090339047908381818185875af1925050503d806000811461105c576040519150601f19603f3d011682016040523d82523d6000602084013e611061565b606091505b5050905080610f2c5760405162461bcd60e51b815260206004820152601860248201527f4661696c656420746f20776974686472617720457468657200000000000000006044820152606401610d4f565b600080821180156110c557506101355482105b6110e15760405162461bcd60e51b8152600401610d4f90614323565b50600090815261012e602052604090206003015462010000900461ffff1690565b3361110c84611827565b6001600160a01b0316146111325760405162461bcd60e51b8152600401610d4f9061445e565b6001600160a01b038216600090815261012f602052604090205460ff166111ad5760405162461bcd60e51b815260206004820152602960248201527f5468652061646472657373206d757374206265206f6620612076616c69642061604482015268393134ba3930ba37b960b91b6064820152608401610d4f565b600083815261012e6020908152604080832060060180546001600160a01b0319166001600160a01b038716908117909155835261013190915290205460ff161561122d5760408051602081018590520160408051601f19818403018152918152600085815261012e602052206007019061122790826144e9565b5061124b565b600083815261012e6020526040902060070161124982826144e9565b505b7f4f1d179d53629f07a3ca3cde19840349df6dadc8fc11ac201c272ec77b8673d2838361012e6000878152602001908152602001600020600701604051611294939291906145a9565b60405180910390a1505050565b600080821180156112b457506101355482105b6112d05760405162461bcd60e51b8152600401610d4f90614323565b50600090815261012e60205260409020600901546001600160a01b031690565b610df083838360405180602001604052806000815250611ec3565b600080516020614e7d83398151915261132381612850565b6001600160a01b03821660008181526101306020526040808220805460ff19166001179055517f7409cb8e690bcd1487fd4fd27dad3fa92388d201ba6f953631d6d6b26299f8499190a25050565b6000808211801561138457506101355482105b6113a05760405162461bcd60e51b8152600401610d4f90614323565b50600090815261012e602052604090206005015490565b6001600160a01b037f00000000000000000000000000000000000000000000000000000000000000001630036113ff5760405162461bcd60e51b8152600401610d4f906143c6565b7f00000000000000000000000000000000000000000000000000000000000000006001600160a01b0316611448600080516020614e9d833981519152546001600160a01b031690565b6001600160a01b03161461146e5760405162461bcd60e51b8152600401610d4f90614412565b61147782612b50565b610f2c82826001612b68565b6000306001600160a01b037f000000000000000000000000000000000000000000000000000000000000000016146115235760405162461bcd60e51b815260206004820152603860248201527f555550535570677261646561626c653a206d757374206e6f742062652063616c60448201527f6c6564207468726f7567682064656c656761746563616c6c00000000000000006064820152608401610d4f565b50600080516020614e9d83398151915290565b6115ad604051806101600160405280600081526020016060815260200160608152602001600061ffff168152602001600061ffff168152602001600081526020016000815260200160006001600160a01b03168152602001606081526020016000815260200160006001600160a01b031681525090565b6000821180156115bf57506101355482105b6115db5760405162461bcd60e51b8152600401610d4f90614323565b61012e60008381526020019081526020016000206040518061016001604052908160008201548152602001600182018054611615906142e9565b80601f0160208091040260200160405190810160405280929190818152602001828054611641906142e9565b801561168e5780601f106116635761010080835404028352916020019161168e565b820191906000526020600020905b81548152906001019060200180831161167157829003601f168201915b505050505081526020016002820180546116a7906142e9565b80601f01602080910402602001604051908101604052809291908181526020018280546116d3906142e9565b80156117205780601f106116f557610100808354040283529160200191611720565b820191906000526020600020905b81548152906001019060200180831161170357829003601f168201915b5050509183525050600382015461ffff808216602084015262010000909104166040820152600482015460608201526005820154608082015260068201546001600160a01b031660a082015260078201805460c090920191611781906142e9565b80601f01602080910402602001604051908101604052809291908181526020018280546117ad906142e9565b80156117fa5780601f106117cf576101008083540402835291602001916117fa565b820191906000526020600020905b8154815290600101906020018083116117dd57829003601f168201915b5050509183525050600882015460208201526009909101546001600160a01b031660409091015292915050565b6000818152606760205260408120546001600160a01b031680610c1c5760405162461bcd60e51b8152602060048201526018602482015277115490cdcc8c4e881a5b9d985b1a59081d1bdad95b88125160421b6044820152606401610d4f565b60006001600160a01b0382166118f15760405162461bcd60e51b815260206004820152602960248201527f4552433732313a2061646472657373207a65726f206973206e6f7420612076616044820152683634b21037bbb732b960b91b6064820152608401610d4f565b506001600160a01b031660009081526068602052604090205490565b600054610100900460ff161580801561192d5750600054600160ff909116105b806119475750303b158015611947575060005460ff166001145b6119aa5760405162461bcd60e51b815260206004820152602e60248201527f496e697469616c697a61626c653a20636f6e747261637420697320616c72656160448201526d191e481a5b9a5d1a585b1a5e995960921b6064820152608401610d4f565b6000805460ff1916600117905580156119cd576000805461ff0019166101001790555b611a206040518060400160405280601581526020017415185b195b9d13185e595c941b185d199bdc9b5251605a1b815250604051806040016040528060048152602001631514125160e21b815250612cd3565b611a28612d04565b611a30612d04565b611a3b600033612d2d565b611a53600080516020614efd83398151915233612d2d565b611a6b600080516020614e7d83398151915233612d2d565b6000610133819055805261012f6020527fe9104285c6851efcbc5e0e70440200efbdcab556a1c8784776780f8bb44f2931805460ff19166001179055611ab362015180610bb9565b611ac261013580546001019055565b610136805460ff19166001179055801561100c576000805461ff0019169055604051600181527f7f26b83ff96e1f2b6a682f133852f6798a09c465da95921460cefb38474024989060200160405180910390a150565b6000611b2381612850565b6101338290556040518281527f38fbb1c8b109c430f0c030e7ed076cf5611a307773a4e8e365601e8f8bceaec690602001610bf6565b60008082118015611b6c57506101355482105b611b885760405162461bcd60e51b8152600401610d4f90614323565b50600090815261012e602052604090206004015490565b33611ba983611827565b6001600160a01b031614611bcf5760405162461bcd60e51b8152600401610d4f9061445e565b600082815261012e6020908152604091829020600301805461ffff191661ffff85169081179091558251858152918201527f03c3aa7c7830e29d1571bfe33dc72a8b8e0297dd6fdf26ef720dee976e21125a9101610bf6565b33611c3283611827565b6001600160a01b031614611c585760405162461bcd60e51b8152600401610d4f9061445e565b600082815261012e602090815260409182902060090180546001600160a01b0319166001600160a01b0385169081179091558251858152918201527f793c7e64f530286f5392e4266e68cf1d6d1f08a9c5494c8b916d4b86f546cb3e9101610bf6565b60009182526097602090815260408084206001600160a01b0393909316845291905290205460ff1690565b606060668054610c31906142e9565b6000611d0081612850565b506001600160a01b0316600090815261012f60209081526040808320805460ff1990811690915561013190925290912080549091169055565b33611d4383611827565b6001600160a01b031614611d695760405162461bcd60e51b8152600401610d4f9061445e565b600082815261012e6020908152604091829020600301805463ffff000019166201000061ffff8616908102919091179091558251858152918201527fffeae29561efc186d4d5241d242f7e2b4a76f114ea5de0db37fbd19c3b1913a59101610bf6565b610f2c338383612d37565b33611de183611827565b6001600160a01b031614611e075760405162461bcd60e51b8152600401610d4f9061445e565b61013454811015611e775760405162461bcd60e51b815260206004820152603460248201527f5468652074696d656f7574206d7573742062652067726561746572207468616e604482015273081d1a19481b5a5b9a5b5d5b481d1a5b595bdd5d60621b6064820152608401610d4f565b600082815261012e602090815260409182902060080183905581518481529081018390527face552c85eed7b5cf46330833e6f28b1f5ce696a4532e483192b5a64e4565e599101610bf6565b611ecd338361299c565b611ee95760405162461bcd60e51b8152600401610d4f90614379565b611ef584848484612e05565b50505050565b600083838360016101365460ff166002811115611f1a57611f1a613fbb565b1480611f3d575060026101365460ff166002811115611f3b57611f3b613fbb565b145b611f845760405162461bcd60e51b8152602060048201526018602482015277135a5b9d081cdd185d1d5cc81a5cc81b9bdd081d985b1a5960421b6044820152606401610d4f565b60016101365460ff166002811115611f9e57611f9e613fbb565b03611ffd57336000908152610130602052604090205460ff16611ffd5760405162461bcd60e51b8152602060048201526017602482015276165bdd48185c99481b9bdd081dda1a5d195b1a5cdd1959604a1b6044820152606401610d4f565b61013354341461201f5760405162461bcd60e51b8152600401610d4f9061464b565b6120288161245a565b156120455760405162461bcd60e51b8152600401610d4f9061468f565b61012d83836040516120589291906146d1565b9081526040519081900360200190205460ff16156120ad5760405162461bcd60e51b81526020600482015260126024820152712730b6b29030b63932b0b23c903a30b5b2b760711b6044820152606401610d4f565b6120b78383612e38565b600080516020614efd8339815191526120cf81612850565b6120e2866120dd6101355490565b61305a565b61212388888080601f0160208091040260200160405190810160405280939291908181526020018383808284376000920191909152508a9250613074915050565b98975050505050505050565b3361213983611827565b6001600160a01b03161461215f5760405162461bcd60e51b8152600401610d4f9061445e565b600082815261012e602090815260409182902060050183905581518481529081018390527f5cea455bfd7800a5b219f99906f1402cf18c09764b07b36821dc7285b86a77329101610bf6565b6060610c1c82613173565b60006121c181612850565b506001600160a01b03909116600090815261012f60209081526040808320805460ff19908116600117909155610131909252909120805492151592909116919091179055565b60008281526097602052604090206001015461222281612850565b610df08383612ae9565b600082823360016101365460ff16600281111561224b5761224b613fbb565b148061226e575060026101365460ff16600281111561226c5761226c613fbb565b145b6122b55760405162461bcd60e51b8152602060048201526018602482015277135a5b9d081cdd185d1d5cc81a5cc81b9bdd081d985b1a5960421b6044820152606401610d4f565b60016101365460ff1660028111156122cf576122cf613fbb565b0361232e57336000908152610130602052604090205460ff1661232e5760405162461bcd60e51b8152602060048201526017602482015276165bdd48185c99481b9bdd081dda1a5d195b1a5cdd1959604a1b6044820152606401610d4f565b6101335434146123505760405162461bcd60e51b8152600401610d4f9061464b565b6123598161245a565b156123765760405162461bcd60e51b8152600401610d4f9061468f565b61012d83836040516123899291906146d1565b9081526040519081900360200190205460ff16156123de5760405162461bcd60e51b81526020600482015260126024820152712730b6b29030b63932b0b23c903a30b5b2b760711b6044820152606401610d4f565b6123e88383612e38565b600080516020614efd83398151915261240081612850565b61240e336120dd6101355490565b61244f87878080601f016020809104026020016040519081016040528093929190818152602001838380828437600092019190915250339250613074915050565b979650505050505050565b6000610c1c82611887565b3361246f83611827565b6001600160a01b0316146124955760405162461bcd60e51b8152600401610d4f9061445e565b600082815261012e602090815260409182902060040183905581518481529081018390527fccc64c8fc3688d9eb2c0bb58ff0dfef1a8528bcc06528d991da400c83835838d9101610bf6565b336124eb83611827565b6001600160a01b0316146125115760405162461bcd60e51b8152600401610d4f9061445e565b8051602e146125505760405162461bcd60e51b815260206004820152600b60248201526a125b9d985b1a590818da5960aa1b6044820152606401610d4f565b600082815261012e6020526040902060020161256c82826144e9565b50817f613807bd6768f626264e7eb664a65ca99a0d930f8fd8a5b868491a592eb57f728260405161259d9190613c6c565b60405180910390a25050565b6000811180156125bb57506101355481105b61100c5760405162461bcd60e51b8152600401610d4f90614323565b600080516020614e7d8339815191526125ef81612850565b610136805483919060ff1916600183600281111561260f5761260f613fbb565b02179055507fbe5bfaa294dd4b792e98f2bcf8f597b2ead214107f9bc9e8392d6ec65e8d854f82604051610bf69190613fd1565b61012e6020526000908152604090208054600182018054919291612666906142e9565b80601f0160208091040260200160405190810160405280929190818152602001828054612692906142e9565b80156126df5780601f106126b4576101008083540402835291602001916126df565b820191906000526020600020905b8154815290600101906020018083116126c257829003601f168201915b5050505050908060020180546126f4906142e9565b80601f0160208091040260200160405190810160405280929190818152602001828054612720906142e9565b801561276d5780601f106127425761010080835404028352916020019161276d565b820191906000526020600020905b81548152906001019060200180831161275057829003601f168201915b505050506003830154600484015460058501546006860154600787018054969761ffff8087169862010000909704169650939492936001600160a01b03909216926127b7906142e9565b80601f01602080910402602001604051908101604052809291908181526020018280546127e3906142e9565b80156128305780601f1061280557610100808354040283529160200191612830565b820191906000526020600020905b81548152906001019060200180831161281357829003601f168201915b5050505060088301546009909301549192916001600160a01b031690508b565b61100c81336132a2565b60006001600160e01b031982166380ac58cd60e01b148061288b57506001600160e01b03198216635b5e139f60e01b145b80610c1c57506301ffc9a760e01b6001600160e01b0319831614610c1c565b60006001600160e01b03198216637965db0b60e01b1480610c1c5750610c1c8261285a565b6000818152606760205260409020546001600160a01b031661100c5760405162461bcd60e51b8152602060048201526018602482015277115490cdcc8c4e881a5b9d985b1a59081d1bdad95b88125160421b6044820152606401610d4f565b600081815260696020526040902080546001600160a01b0319166001600160a01b038416908117909155819061296382611827565b6001600160a01b03167f8c5be1e5ebec7d5bd14f71427d1e84f3dd0314c0f7b2291e5b200ac8c7c3b92560405160405180910390a45050565b6000806129a883611827565b9050806001600160a01b0316846001600160a01b031614806129ef57506001600160a01b038082166000908152606a602090815260408083209388168352929052205460ff165b80612a135750836001600160a01b0316612a0884610cb4565b6001600160a01b0316145b949350505050565b60405162461bcd60e51b815260206004820152601d60248201527f546f6b656e207472616e73666572206973206e6f7420616c6c6f7765640000006044820152606401610d4f565b612a6d8282611cbb565b610f2c5760008281526097602090815260408083206001600160a01b03851684529091529020805460ff19166001179055612aa53390565b6001600160a01b0316816001600160a01b0316837f2f8788117e7eff1d82e926ec794901d17c78024a50270940304540a733656f0d60405160405180910390a45050565b612af38282611cbb565b15610f2c5760008281526097602090815260408083206001600160a01b0385168085529252808320805460ff1916905551339285917ff6391f5c32d9c69d2a47ea670b442974b53935d1edc7fd64eb21e047a839171b9190a45050565b600080516020614e7d833981519152610f2c81612850565b7f4910fdfa16fed3260ed0e7147f7cc6da11a60208b5b9406d12a635614ffd91435460ff1615612b9b57610df0836132fb565b826001600160a01b03166352d1902d6040518163ffffffff1660e01b8152600401602060405180830381865afa925050508015612bf5575060408051601f3d908101601f19168201909252612bf2918101906146e1565b60015b612c585760405162461bcd60e51b815260206004820152602e60248201527f45524331393637557067726164653a206e657720696d706c656d656e7461746960448201526d6f6e206973206e6f74205555505360901b6064820152608401610d4f565b600080516020614e9d8339815191528114612cc75760405162461bcd60e51b815260206004820152602960248201527f45524331393637557067726164653a20756e737570706f727465642070726f786044820152681a58589b195555525160ba1b6064820152608401610d4f565b50610df0838383613397565b600054610100900460ff16612cfa5760405162461bcd60e51b8152600401610d4f906146fa565b610f2c82826133bc565b600054610100900460ff16612d2b5760405162461bcd60e51b8152600401610d4f906146fa565b565b610f2c8282612a63565b816001600160a01b0316836001600160a01b031603612d985760405162461bcd60e51b815260206004820152601960248201527f4552433732313a20617070726f766520746f2063616c6c6572000000000000006044820152606401610d4f565b6001600160a01b038381166000818152606a6020908152604080832094871680845294825291829020805460ff191686151590811790915591519182527f17307eab39ab6107e8899845ad3d59bd9653f200f220920489ca2b5937696c31910160405180910390a3505050565b612e10848484612a1b565b612e1c848484846133fc565b611ef55760405162461bcd60e51b8152600401610d4f90614745565b600082828080601f0160208091040260200160405190810160405280939291908181526020018383808284376000920191909152505082519293505060058210905080612e855750601f81115b15612ea357604051633eb64ab360e01b815260040160405180910390fd5b600084846000818110612eb857612eb8614797565b909101356001600160f81b031916915050602d60f81b811480612ee85750605f60f81b6001600160f81b03198216145b15612f0657604051632f2c22a760e11b815260040160405180910390fd5b60005b8281101561305257600360fc1b848281518110612f2857612f28614797565b01602001516001600160f81b0319161080612f665750603d60f91b848281518110612f5557612f55614797565b01602001516001600160f81b031916115b80612fc25750603960f81b848281518110612f8357612f83614797565b01602001516001600160f81b031916118015612fc25750606160f81b848281518110612fb157612fb1614797565b01602001516001600160f81b031916105b8015612ff35750838181518110612fdb57612fdb614797565b6020910101516001600160f81b031916602d60f81b14155b8015613024575083818151811061300c5761300c614797565b6020910101516001600160f81b031916605f60f81b14155b1561304257604051630bb7f19b60e21b815260040160405180910390fd5b61304b816147ad565b9050612f09565b505050505050565b610f2c8282604051806020016040528060008152506134fd565b6000806130816101355490565b905061309261013580546001019055565b600081815261012e60205260409020600181016130af86826144e9565b508181556101345460088201556009810180546001600160a01b0319166001600160a01b03861617905560405160019061012d906130ee9088906147e2565b908152604080519182900360209081018320805494151560ff19909516949094179093556001600160a01b0387166000818152610132909452922084905561013354610134547f8475f1ba3b06c1e11c870cbbf9753ca9a8292ea0b203262f682de476dc268f8c926131639287928b926147fe565b60405180910390a2509392505050565b600081815261012e6020908152604080832090516060939261319992600101910161482a565b60405160208183030381529060405290506000601461012e600086815260200190815260200160002060010180546131d0906142e9565b905011156131f85760405180604001604052806002815260200161034360f41b815250613214565b60405180604001604052806002815260200161036360f41b8152505b90506000613242828460405160200161322e9291906148ab565b604051602081830303815290604052613530565b6040516020016132529190614c23565b6040516020818303038152906040529050613279838260405160200161322e929190614c68565b6040516020016132899190614d05565b6040516020818303038152906040529350505050919050565b6132ac8282611cbb565b610f2c576132b981613683565b6132c4836020613695565b6040516020016132d5929190614d4a565b60408051601f198184030181529082905262461bcd60e51b8252610d4f91600401613c6c565b6001600160a01b0381163b6133685760405162461bcd60e51b815260206004820152602d60248201527f455243313936373a206e657720696d706c656d656e746174696f6e206973206e60448201526c1bdd08184818dbdb9d1c9858dd609a1b6064820152608401610d4f565b600080516020614e9d83398151915280546001600160a01b0319166001600160a01b0392909216919091179055565b6133a083613838565b6000825111806133ad5750805b15610df057611ef58383613878565b600054610100900460ff166133e35760405162461bcd60e51b8152600401610d4f906146fa565b60656133ef83826144e9565b506066610df082826144e9565b60006001600160a01b0384163b156134f257604051630a85bd0160e11b81526001600160a01b0385169063150b7a0290613440903390899088908890600401614dbf565b6020604051808303816000875af192505050801561347b575060408051601f3d908101601f1916820190925261347891810190614dfc565b60015b6134d8573d8080156134a9576040519150601f19603f3d011682016040523d82523d6000602084013e6134ae565b606091505b5080516000036134d05760405162461bcd60e51b8152600401610d4f90614745565b805181602001fd5b6001600160e01b031916630a85bd0160e11b149050612a13565b506001949350505050565b613507838361396c565b61351460008484846133fc565b610df05760405162461bcd60e51b8152600401610d4f90614745565b6060815160000361354f57505060408051602081019091526000815290565b6000604051806060016040528060408152602001614ebd604091399050600060038451600261357e9190614e19565b6135889190614e2c565b613593906004614e4e565b67ffffffffffffffff8111156135ab576135ab613d4e565b6040519080825280601f01601f1916602001820160405280156135d5576020820181803683370190505b509050600182016020820185865187015b80821015613641576003820191508151603f8160121c168501518453600184019350603f81600c1c168501518453600184019350603f8160061c168501518453600184019350603f81168501518453506001830192506135e6565b505060038651066001811461365d576002811461367057613678565b603d6001830353603d6002830353613678565b603d60018303535b509195945050505050565b6060610c1c6001600160a01b03831660145b606060006136a4836002614e4e565b6136af906002614e19565b67ffffffffffffffff8111156136c7576136c7613d4e565b6040519080825280601f01601f1916602001820160405280156136f1576020820181803683370190505b509050600360fc1b8160008151811061370c5761370c614797565b60200101906001600160f81b031916908160001a905350600f60fb1b8160018151811061373b5761373b614797565b60200101906001600160f81b031916908160001a905350600061375f846002614e4e565b61376a906001614e19565b90505b60018111156137e2576f181899199a1a9b1b9c1cb0b131b232b360811b85600f166010811061379e5761379e614797565b1a60f81b8282815181106137b4576137b4614797565b60200101906001600160f81b031916908160001a90535060049490941c936137db81614e65565b905061376d565b5083156138315760405162461bcd60e51b815260206004820181905260248201527f537472696e67733a20686578206c656e67746820696e73756666696369656e746044820152606401610d4f565b9392505050565b613841816132fb565b6040516001600160a01b038216907fbc7cd75a20ee27fd9adebab32041f755214dbc6bffa90cc0225b39da2e5c2d3b90600090a250565b60606001600160a01b0383163b6138e05760405162461bcd60e51b815260206004820152602660248201527f416464726573733a2064656c65676174652063616c6c20746f206e6f6e2d636f6044820152651b9d1c9858dd60d21b6064820152608401610d4f565b600080846001600160a01b0316846040516138fb91906147e2565b600060405180830381855af49150503d8060008114613936576040519150601f19603f3d011682016040523d82523d6000602084013e61393b565b606091505b50915091506139638282604051806060016040528060278152602001614f1d60279139613b05565b95945050505050565b6001600160a01b0382166139c25760405162461bcd60e51b815260206004820181905260248201527f4552433732313a206d696e7420746f20746865207a65726f20616464726573736044820152606401610d4f565b6000818152606760205260409020546001600160a01b031615613a275760405162461bcd60e51b815260206004820152601c60248201527f4552433732313a20746f6b656e20616c7265616479206d696e746564000000006044820152606401610d4f565b613a35600083836001613b1e565b6000818152606760205260409020546001600160a01b031615613a9a5760405162461bcd60e51b815260206004820152601c60248201527f4552433732313a20746f6b656e20616c7265616479206d696e746564000000006044820152606401610d4f565b6001600160a01b038216600081815260686020908152604080832080546001019055848352606790915280822080546001600160a01b0319168417905551839291907fddf252ad1be2c89b69c2b068fc378daa952ba7f163c4a11628f55a4df523b3ef908290a45050565b60608315613b14575081613831565b6138318383613ba6565b6001811115611ef5576001600160a01b03841615613b64576001600160a01b03841660009081526068602052604081208054839290613b5e908490614366565b90915550505b6001600160a01b03831615611ef5576001600160a01b03831660009081526068602052604081208054839290613b9b908490614e19565b909155505050505050565b815115613bb65781518083602001fd5b8060405162461bcd60e51b8152600401610d4f9190613c6c565b600060208284031215613be257600080fd5b5035919050565b6001600160e01b03198116811461100c57600080fd5b600060208284031215613c1157600080fd5b813561383181613be9565b60005b83811015613c37578181015183820152602001613c1f565b50506000910152565b60008151808452613c58816020860160208601613c1c565b601f01601f19169290920160200192915050565b6020815260006138316020830184613c40565b6001600160a01b038116811461100c57600080fd5b60008060408385031215613ca757600080fd5b8235613cb281613c7f565b946020939093013593505050565b600060208284031215613cd257600080fd5b813561383181613c7f565b600080600060608486031215613cf257600080fd5b8335613cfd81613c7f565b92506020840135613d0d81613c7f565b929592945050506040919091013590565b60008060408385031215613d3157600080fd5b823591506020830135613d4381613c7f565b809150509250929050565b634e487b7160e01b600052604160045260246000fd5b600082601f830112613d7557600080fd5b813567ffffffffffffffff80821115613d9057613d90613d4e565b604051601f8301601f19908116603f01168101908282118183101715613db857613db8613d4e565b81604052838152866020858801011115613dd157600080fd5b836020870160208301376000602085830101528094505050505092915050565b600080600060608486031215613e0657600080fd5b833592506020840135613e1881613c7f565b9150604084013567ffffffffffffffff811115613e3457600080fd5b613e4086828701613d64565b9150509250925092565b60008060408385031215613e5d57600080fd5b8235613e6881613c7f565b9150602083013567ffffffffffffffff811115613e8457600080fd5b613e9085828601613d64565b9150509250929050565b602081528151602082015260006020830151610160806040850152613ec3610180850183613c40565b91506040850151601f1980868503016060870152613ee18483613c40565b935060608701519150613efa608087018361ffff169052565b608087015161ffff811660a0880152915060a087015160c087015260c087015160e087015260e08701519150610100613f3d818801846001600160a01b03169052565b80880151925050610120818786030181880152613f5a8584613c40565b90880151610140888101919091528801516001600160a01b038116858901529094509150613f859050565b5090949350505050565b60008060408385031215613fa257600080fd5b82359150602083013561ffff81168114613d4357600080fd5b634e487b7160e01b600052602160045260246000fd5b6020810160038310613ff357634e487b7160e01b600052602160045260246000fd5b91905290565b6000806040838503121561400c57600080fd5b823561401781613c7f565b915060208301358015158114613d4357600080fd5b60006020828403121561403e57600080fd5b813567ffffffffffffffff81111561405557600080fd5b612a1384828501613d64565b6000806040838503121561407457600080fd5b50508035926020909101359150565b6000806000806080858703121561409957600080fd5b84356140a481613c7f565b935060208501356140b481613c7f565b925060408501359150606085013567ffffffffffffffff8111156140d757600080fd5b6140e387828801613d64565b91505092959194509250565b60008083601f84011261410157600080fd5b50813567ffffffffffffffff81111561411957600080fd5b60208301915083602082850101111561413157600080fd5b9250929050565b60008060006040848603121561414d57600080fd5b833567ffffffffffffffff81111561416457600080fd5b614170868287016140ef565b909450925050602084013561418481613c7f565b809150509250925092565b600080602083850312156141a257600080fd5b823567ffffffffffffffff8111156141b957600080fd5b6141c5858286016140ef565b90969095509350505050565b600080604083850312156141e457600080fd5b82356141ef81613c7f565b91506020830135613d4381613c7f565b6000806040838503121561421257600080fd5b82359150602083013567ffffffffffffffff811115613e8457600080fd5b60006020828403121561424257600080fd5b81356003811061383157600080fd5b60006101608d835280602084015261426b8184018e613c40565b9050828103604084015261427f818d613c40565b61ffff8c811660608601528b16608085015260a084018a905260c084018990526001600160a01b0388811660e08601528482036101008601529091506142c58288613c40565b92508561012085015280851661014085015250509c9b505050505050505050505050565b600181811c908216806142fd57607f821691505b60208210810361431d57634e487b7160e01b600052602260045260246000fd5b50919050565b602080825260139082015272125b9d985b1a59081c1b185d199bdc9b481251606a1b604082015260600190565b634e487b7160e01b600052601160045260246000fd5b81810381811115610c1c57610c1c614350565b6020808252602d908201527f4552433732313a2063616c6c6572206973206e6f7420746f6b656e206f776e6560408201526c1c881bdc88185c1c1c9bdd9959609a1b606082015260800190565b6020808252602c908201527f46756e6374696f6e206d7573742062652063616c6c6564207468726f7567682060408201526b19195b1959d85d1958d85b1b60a21b606082015260800190565b6020808252602c908201527f46756e6374696f6e206d7573742062652063616c6c6564207468726f7567682060408201526b6163746976652070726f787960a01b606082015260800190565b60208082526025908201527f596f75277265206e6f7420746865206f776e6572206f66207468697320706c6160408201526474666f726d60d81b606082015260800190565b601f821115610df057600081815260208120601f850160051c810160208610156144ca5750805b601f850160051c820191505b81811015613052578281556001016144d6565b815167ffffffffffffffff81111561450357614503613d4e565b6145178161451184546142e9565b846144a3565b602080601f83116001811461454c57600084156145345750858301515b600019600386901b1c1916600185901b178555613052565b600085815260208120601f198616915b8281101561457b5788860151825594840194600190910190840161455c565b50858210156145995787850151600019600388901b60f8161c191681555b5050505050600190811b01905550565b8381526000602060018060a01b0385168184015260606040840152600084546145d1816142e9565b80606087015260806001808416600081146145f3576001811461460d5761463b565b60ff1985168984015283151560051b89018301955061463b565b896000528660002060005b858110156146335781548b8201860152908301908801614618565b8a0184019650505b50939a9950505050505050505050565b60208082526024908201527f496e636f727265637420616d6f756e74206f662045544820666f72206d696e746040820152632066656560e01b606082015260800190565b60208082526022908201527f506c6174666f726d20616c726561647920686173206120506c6174666f726d20604082015261125160f21b606082015260800190565b8183823760009101908152919050565b6000602082840312156146f357600080fd5b5051919050565b6020808252602b908201527f496e697469616c697a61626c653a20636f6e7472616374206973206e6f74206960408201526a6e697469616c697a696e6760a81b606082015260800190565b60208082526032908201527f4552433732313a207472616e7366657220746f206e6f6e20455243373231526560408201527131b2b4bb32b91034b6b83632b6b2b73a32b960711b606082015260800190565b634e487b7160e01b600052603260045260246000fd5b6000600182016147bf576147bf614350565b5060010190565b600081516147d8818560208601613c1c565b9290920192915050565b600082516147f4818460208701613c1c565b9190910192915050565b8481526080602082015260006148176080830186613c40565b6040830194909452506060015292915050565b6000808354614838816142e9565b60018281168015614850576001811461486557614894565b60ff1984168752821515830287019450614894565b8760005260208060002060005b8581101561488b5781548a820152908401908201614872565b50505082870194505b5050620b9d1b60ea1b835250506003019392505050565b7f3c73766720786d6c6e733d22687474703a2f2f7777772e77332e6f72672f323081527f30302f737667222077696474683d2237323022206865696768743d223732302260208201527f3e3c726563742077696474683d223130302522206865696768743d223130302560408201527f222f3e3c73766720786d6c6e733d22687474703a2f2f7777772e77332e6f726760608201527f2f323030302f737667222077696474683d2231353022206865696768743d223160808201527f3530222076657273696f6e3d22312e32222076696577426f783d222d3230302060a08201527f2d353020313030302031303030223e3c706174682066696c6c3d22234646464660c08201527f46462220643d224d3236342e35203139302e3563302d31332e382031312e322d60e08201527f32352032352d3235483536386331332e3820302032352031312e3220323520326101008201527f357634393063302031332e382d31312e322032352d3235203235483238392e356101208201527f632d31332e3820302d32352d31312e322d32352d32357a222f3e3c70617468206101408201527f66696c6c3d22234646464646462220643d224d3236352036323463302d31332e6101608201527f382031312e322d32352032352d3235683534336331332e3820302032352031316101808201527f2e322032352032357635362e3563302031332e382d31312e322032352d3235206101a08201527f323548323930632d31332e3820302d32352d31312e322d32352d32357a222f3e6101c08201527f3c706174682066696c6c3d22234646464646462220643d224d30203139302e356101e08201527f63302d31332e382031312e322d32352032352d3235683534336331332e3820306102008201527f2032352031312e322032352032355632343763302031332e382d31312e3220326102208201527f352d3235203235483235632d31332e3820302d32352d31312e322d32352d32356102408201527f7a222f3e3c2f7376673e3c7465787420783d2233302220793d223637302220736102608201526b03a3cb6329e913337b73a1d160a51b6102808201526000612a13614c0a614c04614bdb61028c8601886147c6565b7f70782073616e732d73657269663b66696c6c3a23666666223e00000000000000815260190190565b856147c6565b6c1e17ba32bc3a1f1e17b9bb339f60991b8152600d0190565b7f646174613a696d6167652f7376672b786d6c3b6261736536342c000000000000815260008251614c5b81601a850160208701613c1c565b91909101601a0192915050565b683d913730b6b2911d1160b91b81528251600090614c8d816009850160208801613c1c565b6b1116101134b6b0b3b2911d1160a11b6009918401918201528351614cb9816015840160208801613c1c565b7f222c20226465736372697074696f6e223a202254616c656e74204c6179657220601592909101918201526c506c6174666f726d204944227d60981b6035820152604201949350505050565b7f646174613a6170706c69636174696f6e2f6a736f6e3b6261736536342c000000815260008251614d3d81601d850160208701613c1c565b91909101601d0192915050565b7f416363657373436f6e74726f6c3a206163636f756e7420000000000000000000815260008351614d82816017850160208801613c1c565b7001034b99036b4b9b9b4b733903937b6329607d1b6017918401918201528351614db3816028840160208801613c1c565b01602801949350505050565b6001600160a01b0385811682528416602082015260408101839052608060608201819052600090614df290830184613c40565b9695505050505050565b600060208284031215614e0e57600080fd5b815161383181613be9565b80820180821115610c1c57610c1c614350565b600082614e4957634e487b7160e01b600052601260045260246000fd5b500490565b8082028115828204841417610c1c57610c1c614350565b600081614e7457614e74614350565b50600019019056feb19546dff01e856fb3f010c267a7b1c60363cf8a4664e21cc89c26224620214e360894a13ba1a3210667c828492db98dca3e2076cc3735a920a3ca505d382bbc4142434445464748494a4b4c4d4e4f505152535455565758595a6162636465666768696a6b6c6d6e6f707172737475767778797a303132333435363738392b2f154c00819833dac601ee5ddded6fda79d9d8b506b911b3dbd54cdb95fe6c3686416464726573733a206c6f772d6c6576656c2064656c65676174652063616c6c206661696c6564a2646970667358221220f9315d5b641b82cb3ba8e68cad1a31f0debe9104c96f52642548ce48f0e0647764736f6c63430008110033",
  "linkReferences": {},
  "deployedLinkReferences": {}
}