{
  "_format": "hh-sol-artifact-1",
  "contractName": "TalentLayerEscrow",
  "sourceName": "contracts/TalentLayerEscrow.sol",
  "abi": [
    {
      "inputs": [],
      "stateMutability": "nonpayable",
      "type": "constructor"
    },
    {
      "anonymous": false,
      "inputs": [
        {
          "indexed": false,
          "internalType": "address",
          "name": "previousAdmin",
          "type": "address"
        },
        {
          "indexed": false,
          "internalType": "address",
          "name": "newAdmin",
          "type": "address"
        }
      ],
      "name": "AdminChanged",
      "type": "event"
    },
    {
      "anonymous": false,
      "inputs": [
        {
          "indexed": true,
          "internalType": "uint256",
          "name": "_transactionId",
          "type": "uint256"
        },
        {
          "indexed": false,
          "internalType": "enum TalentLayerEscrow.ArbitrationFeePaymentType",
          "name": "_paymentType",
          "type": "uint8"
        },
        {
          "indexed": false,
          "internalType": "enum TalentLayerEscrow.Party",
          "name": "_party",
          "type": "uint8"
        },
        {
          "indexed": false,
          "internalType": "uint256",
          "name": "_amount",
          "type": "uint256"
        }
      ],
      "name": "ArbitrationFeePayment",
      "type": "event"
    },
    {
      "anonymous": false,
      "inputs": [
        {
          "indexed": true,
          "internalType": "address",
          "name": "beacon",
          "type": "address"
        }
      ],
      "name": "BeaconUpgraded",
      "type": "event"
    },
    {
      "anonymous": false,
      "inputs": [
        {
          "indexed": true,
          "internalType": "contract Arbitrator",
          "name": "_arbitrator",
          "type": "address"
        },
        {
          "indexed": true,
          "internalType": "uint256",
          "name": "_disputeID",
          "type": "uint256"
        },
        {
          "indexed": false,
          "internalType": "uint256",
          "name": "_metaEvidenceID",
          "type": "uint256"
        },
        {
          "indexed": false,
          "internalType": "uint256",
          "name": "_evidenceGroupID",
          "type": "uint256"
        }
      ],
      "name": "Dispute",
      "type": "event"
    },
    {
      "anonymous": false,
      "inputs": [
        {
          "indexed": true,
          "internalType": "contract Arbitrator",
          "name": "_arbitrator",
          "type": "address"
        },
        {
          "indexed": true,
          "internalType": "uint256",
          "name": "_evidenceGroupID",
          "type": "uint256"
        },
        {
          "indexed": true,
          "internalType": "address",
          "name": "_party",
          "type": "address"
        },
        {
          "indexed": false,
          "internalType": "string",
          "name": "_evidence",
          "type": "string"
        }
      ],
      "name": "Evidence",
      "type": "event"
    },
    {
      "anonymous": false,
      "inputs": [
        {
          "indexed": true,
          "internalType": "uint256",
          "name": "_transactionId",
          "type": "uint256"
        },
        {
          "indexed": true,
          "internalType": "uint256",
          "name": "_partyId",
          "type": "uint256"
        },
        {
          "indexed": false,
          "internalType": "string",
          "name": "_evidenceUri",
          "type": "string"
        }
      ],
      "name": "EvidenceSubmitted",
      "type": "event"
    },
    {
      "anonymous": false,
      "inputs": [
        {
          "indexed": false,
          "internalType": "uint256",
          "name": "_platformId",
          "type": "uint256"
        },
        {
          "indexed": true,
          "internalType": "address",
          "name": "_token",
          "type": "address"
        },
        {
          "indexed": false,
          "internalType": "uint256",
          "name": "_amount",
          "type": "uint256"
        }
      ],
      "name": "FeesClaimed",
      "type": "event"
    },
    {
      "anonymous": false,
      "inputs": [
        {
          "indexed": true,
          "internalType": "uint256",
          "name": "_transactionId",
          "type": "uint256"
        },
        {
          "indexed": false,
          "internalType": "enum TalentLayerEscrow.Party",
          "name": "_party",
          "type": "uint8"
        }
      ],
      "name": "HasToPayFee",
      "type": "event"
    },
    {
      "anonymous": false,
      "inputs": [
        {
          "indexed": false,
          "internalType": "uint8",
          "name": "version",
          "type": "uint8"
        }
      ],
      "name": "Initialized",
      "type": "event"
    },
    {
      "anonymous": false,
      "inputs": [
        {
          "indexed": true,
          "internalType": "uint256",
          "name": "_metaEvidenceID",
          "type": "uint256"
        },
        {
          "indexed": false,
          "internalType": "string",
          "name": "_evidence",
          "type": "string"
        }
      ],
      "name": "MetaEvidence",
      "type": "event"
    },
    {
      "anonymous": false,
      "inputs": [
        {
          "indexed": false,
          "internalType": "uint256",
          "name": "_platformId",
          "type": "uint256"
        },
        {
          "indexed": false,
          "internalType": "uint256",
          "name": "_serviceId",
          "type": "uint256"
        },
        {
          "indexed": true,
          "internalType": "address",
          "name": "_token",
          "type": "address"
        },
        {
          "indexed": false,
          "internalType": "uint256",
          "name": "_amount",
          "type": "uint256"
        }
      ],
      "name": "OriginServiceFeeRateReleased",
      "type": "event"
    },
    {
      "anonymous": false,
      "inputs": [
        {
          "indexed": false,
          "internalType": "uint256",
          "name": "_platformId",
          "type": "uint256"
        },
        {
          "indexed": false,
          "internalType": "uint256",
          "name": "_serviceId",
          "type": "uint256"
        },
        {
          "indexed": true,
          "internalType": "address",
          "name": "_token",
          "type": "address"
        },
        {
          "indexed": false,
          "internalType": "uint256",
          "name": "_amount",
          "type": "uint256"
        }
      ],
      "name": "OriginValidatedProposalFeeRateReleased",
      "type": "event"
    },
    {
      "anonymous": false,
      "inputs": [
        {
          "indexed": true,
          "internalType": "address",
          "name": "previousOwner",
          "type": "address"
        },
        {
          "indexed": true,
          "internalType": "address",
          "name": "newOwner",
          "type": "address"
        }
      ],
      "name": "OwnershipTransferred",
      "type": "event"
    },
    {
      "anonymous": false,
      "inputs": [
        {
          "indexed": false,
          "internalType": "uint256",
          "name": "_transactionId",
          "type": "uint256"
        },
        {
          "indexed": false,
          "internalType": "enum TalentLayerEscrow.PaymentType",
          "name": "_paymentType",
          "type": "uint8"
        },
        {
          "indexed": false,
          "internalType": "address",
          "name": "_token",
          "type": "address"
        },
        {
          "indexed": false,
          "internalType": "uint256",
          "name": "_amount",
          "type": "uint256"
        },
        {
          "indexed": false,
          "internalType": "uint256",
          "name": "_serviceId",
          "type": "uint256"
        }
      ],
      "name": "Payment",
      "type": "event"
    },
    {
      "anonymous": false,
      "inputs": [
        {
          "indexed": false,
          "internalType": "uint256",
          "name": "_serviceId",
          "type": "uint256"
        }
      ],
      "name": "PaymentCompleted",
      "type": "event"
    },
    {
      "anonymous": false,
      "inputs": [
        {
          "indexed": false,
          "internalType": "uint16",
          "name": "_protocolEscrowFeeRate",
          "type": "uint16"
        }
      ],
      "name": "ProtocolEscrowFeeRateUpdated",
      "type": "event"
    },
    {
      "anonymous": false,
      "inputs": [
        {
          "indexed": true,
          "internalType": "contract Arbitrator",
          "name": "_arbitrator",
          "type": "address"
        },
        {
          "indexed": true,
          "internalType": "uint256",
          "name": "_disputeID",
          "type": "uint256"
        },
        {
          "indexed": false,
          "internalType": "uint256",
          "name": "_ruling",
          "type": "uint256"
        }
      ],
      "name": "Ruling",
      "type": "event"
    },
    {
      "anonymous": false,
      "inputs": [
        {
          "indexed": true,
          "internalType": "uint256",
          "name": "_transactionId",
          "type": "uint256"
        },
        {
          "indexed": false,
          "internalType": "uint256",
          "name": "_ruling",
          "type": "uint256"
        }
      ],
      "name": "RulingExecuted",
      "type": "event"
    },
    {
      "anonymous": false,
      "inputs": [
        {
          "indexed": false,
          "internalType": "uint256",
          "name": "_transactionId",
          "type": "uint256"
        },
        {
          "indexed": false,
          "internalType": "uint256",
          "name": "_senderId",
          "type": "uint256"
        },
        {
          "indexed": false,
          "internalType": "uint256",
          "name": "_receiverId",
          "type": "uint256"
        },
        {
          "indexed": false,
          "internalType": "address",
          "name": "_token",
          "type": "address"
        },
        {
          "indexed": false,
          "internalType": "uint256",
          "name": "_amount",
          "type": "uint256"
        },
        {
          "indexed": false,
          "internalType": "uint256",
          "name": "_serviceId",
          "type": "uint256"
        },
        {
          "indexed": false,
          "internalType": "uint256",
          "name": "_proposalId",
          "type": "uint256"
        },
        {
          "indexed": false,
          "internalType": "uint16",
          "name": "_protocolEscrowFeeRate",
          "type": "uint16"
        },
        {
          "indexed": false,
          "internalType": "uint16",
          "name": "_originServiceFeeRate",
          "type": "uint16"
        },
        {
          "indexed": false,
          "internalType": "uint16",
          "name": "_originValidatedProposalFeeRate",
          "type": "uint16"
        },
        {
          "indexed": false,
          "internalType": "contract Arbitrator",
          "name": "_arbitrator",
          "type": "address"
        },
        {
          "indexed": false,
          "internalType": "bytes",
          "name": "_arbitratorExtraData",
          "type": "bytes"
        },
        {
          "indexed": false,
          "internalType": "uint256",
          "name": "_arbitrationFeeTimeout",
          "type": "uint256"
        }
      ],
      "name": "TransactionCreated",
      "type": "event"
    },
    {
      "anonymous": false,
      "inputs": [
        {
          "indexed": false,
          "internalType": "address",
          "name": "forwarder",
          "type": "address"
        }
      ],
      "name": "TrustedForwarderAdded",
      "type": "event"
    },
    {
      "anonymous": false,
      "inputs": [
        {
          "indexed": false,
          "internalType": "address",
          "name": "forwarder",
          "type": "address"
        }
      ],
      "name": "TrustedForwarderRemoved",
      "type": "event"
    },
    {
      "anonymous": false,
      "inputs": [
        {
          "indexed": true,
          "internalType": "address",
          "name": "implementation",
          "type": "address"
        }
      ],
      "name": "Upgraded",
      "type": "event"
    },
    {
      "inputs": [
        {
          "internalType": "address",
          "name": "_forwarder",
          "type": "address"
        }
      ],
      "name": "addTrustedForwarder",
      "outputs": [],
      "stateMutability": "nonpayable",
      "type": "function"
    },
    {
      "inputs": [
        {
          "internalType": "uint256",
          "name": "_transactionId",
          "type": "uint256"
        }
      ],
      "name": "appeal",
      "outputs": [],
      "stateMutability": "payable",
      "type": "function"
    },
    {
      "inputs": [
        {
          "internalType": "uint256",
          "name": "_transactionId",
          "type": "uint256"
        }
      ],
      "name": "arbitrationFeeTimeout",
      "outputs": [],
      "stateMutability": "nonpayable",
      "type": "function"
    },
    {
      "inputs": [
        {
          "internalType": "uint256",
          "name": "_platformId",
          "type": "uint256"
        },
        {
          "internalType": "address",
          "name": "_tokenAddress",
          "type": "address"
        }
      ],
      "name": "claim",
      "outputs": [],
      "stateMutability": "nonpayable",
      "type": "function"
    },
    {
      "inputs": [
        {
          "internalType": "uint256",
          "name": "_platformId",
          "type": "uint256"
        }
      ],
      "name": "claimAll",
      "outputs": [],
      "stateMutability": "nonpayable",
      "type": "function"
    },
    {
      "inputs": [
        {
          "internalType": "uint256",
          "name": "_serviceId",
          "type": "uint256"
        },
        {
          "internalType": "uint256",
          "name": "_proposalId",
          "type": "uint256"
        },
        {
          "internalType": "string",
          "name": "_metaEvidence",
          "type": "string"
        },
        {
          "internalType": "string",
          "name": "_originDataUri",
          "type": "string"
        }
      ],
      "name": "createTransaction",
      "outputs": [
        {
          "internalType": "uint256",
          "name": "",
          "type": "uint256"
        }
      ],
      "stateMutability": "payable",
      "type": "function"
    },
    {
      "inputs": [
        {
          "internalType": "uint256",
          "name": "",
          "type": "uint256"
        }
      ],
      "name": "disputeIDtoTransactionID",
      "outputs": [
        {
          "internalType": "uint256",
          "name": "",
          "type": "uint256"
        }
      ],
      "stateMutability": "view",
      "type": "function"
    },
    {
      "inputs": [
        {
          "internalType": "address",
          "name": "_token",
          "type": "address"
        }
      ],
      "name": "getClaimableFeeBalance",
      "outputs": [
        {
          "internalType": "uint256",
          "name": "balance",
          "type": "uint256"
        }
      ],
      "stateMutability": "view",
      "type": "function"
    },
    {
      "inputs": [
        {
          "internalType": "uint256",
          "name": "_transactionId",
          "type": "uint256"
        }
      ],
      "name": "getTransactionDetails",
      "outputs": [
        {
          "components": [
            {
              "internalType": "uint256",
              "name": "id",
              "type": "uint256"
            },
            {
              "internalType": "address",
              "name": "sender",
              "type": "address"
            },
            {
              "internalType": "address",
              "name": "receiver",
              "type": "address"
            },
            {
              "internalType": "address",
              "name": "token",
              "type": "address"
            },
            {
              "internalType": "uint256",
              "name": "amount",
              "type": "uint256"
            },
            {
              "internalType": "uint256",
              "name": "releasedAmount",
              "type": "uint256"
            },
            {
              "internalType": "uint256",
              "name": "serviceId",
              "type": "uint256"
            },
            {
              "internalType": "uint256",
              "name": "proposalId",
              "type": "uint256"
            },
            {
              "internalType": "uint16",
              "name": "protocolEscrowFeeRate",
              "type": "uint16"
            },
            {
              "internalType": "uint16",
              "name": "originServiceFeeRate",
              "type": "uint16"
            },
            {
              "internalType": "uint16",
              "name": "originValidatedProposalFeeRate",
              "type": "uint16"
            },
            {
              "internalType": "contract Arbitrator",
              "name": "arbitrator",
              "type": "address"
            },
            {
              "internalType": "enum TalentLayerEscrow.Status",
              "name": "status",
              "type": "uint8"
            },
            {
              "internalType": "uint256",
              "name": "disputeId",
              "type": "uint256"
            },
            {
              "internalType": "uint256",
              "name": "senderFee",
              "type": "uint256"
            },
            {
              "internalType": "uint256",
              "name": "receiverFee",
              "type": "uint256"
            },
            {
              "internalType": "uint256",
              "name": "lastInteraction",
              "type": "uint256"
            },
            {
              "internalType": "bytes",
              "name": "arbitratorExtraData",
              "type": "bytes"
            },
            {
              "internalType": "uint256",
              "name": "arbitrationFeeTimeout",
              "type": "uint256"
            }
          ],
          "internalType": "struct TalentLayerEscrow.Transaction",
          "name": "",
          "type": "tuple"
        }
      ],
      "stateMutability": "view",
      "type": "function"
    },
    {
      "inputs": [
        {
          "internalType": "address",
          "name": "_talentLayerServiceAddress",
          "type": "address"
        },
        {
          "internalType": "address",
          "name": "_talentLayerIDAddress",
          "type": "address"
        },
        {
          "internalType": "address",
          "name": "_talentLayerPlatformIDAddress",
          "type": "address"
        },
        {
          "internalType": "address",
          "name": "_protocolWallet",
          "type": "address"
        }
      ],
      "name": "initialize",
      "outputs": [],
      "stateMutability": "nonpayable",
      "type": "function"
    },
    {
      "inputs": [
        {
          "internalType": "address",
          "name": "forwarder",
          "type": "address"
        }
      ],
      "name": "isTrustedForwarder",
      "outputs": [
        {
          "internalType": "bool",
          "name": "",
          "type": "bool"
        }
      ],
      "stateMutability": "view",
      "type": "function"
    },
    {
      "inputs": [],
      "name": "owner",
      "outputs": [
        {
          "internalType": "address",
          "name": "",
          "type": "address"
        }
      ],
      "stateMutability": "view",
      "type": "function"
    },
    {
      "inputs": [
        {
          "internalType": "uint256",
          "name": "_transactionId",
          "type": "uint256"
        }
      ],
      "name": "payArbitrationFeeByReceiver",
      "outputs": [],
      "stateMutability": "payable",
      "type": "function"
    },
    {
      "inputs": [
        {
          "internalType": "uint256",
          "name": "_transactionId",
          "type": "uint256"
        }
      ],
      "name": "payArbitrationFeeBySender",
      "outputs": [],
      "stateMutability": "payable",
      "type": "function"
    },
    {
      "inputs": [],
      "name": "protocolEscrowFeeRate",
      "outputs": [
        {
          "internalType": "uint16",
          "name": "",
          "type": "uint16"
        }
      ],
      "stateMutability": "view",
      "type": "function"
    },
    {
      "inputs": [],
      "name": "protocolWallet",
      "outputs": [
        {
          "internalType": "address payable",
          "name": "",
          "type": "address"
        }
      ],
      "stateMutability": "view",
      "type": "function"
    },
    {
      "inputs": [],
      "name": "proxiableUUID",
      "outputs": [
        {
          "internalType": "bytes32",
          "name": "",
          "type": "bytes32"
        }
      ],
      "stateMutability": "view",
      "type": "function"
    },
    {
      "inputs": [
        {
          "internalType": "uint256",
          "name": "_profileId",
          "type": "uint256"
        },
        {
          "internalType": "uint256",
          "name": "_transactionId",
          "type": "uint256"
        },
        {
          "internalType": "uint256",
          "name": "_amount",
          "type": "uint256"
        }
      ],
      "name": "reimburse",
      "outputs": [],
      "stateMutability": "nonpayable",
      "type": "function"
    },
    {
      "inputs": [
        {
          "internalType": "uint256",
          "name": "_profileId",
          "type": "uint256"
        },
        {
          "internalType": "uint256",
          "name": "_transactionId",
          "type": "uint256"
        },
        {
          "internalType": "uint256",
          "name": "_amount",
          "type": "uint256"
        }
      ],
      "name": "release",
      "outputs": [],
      "stateMutability": "nonpayable",
      "type": "function"
    },
    {
      "inputs": [
        {
          "internalType": "address",
          "name": "_forwarder",
          "type": "address"
        }
      ],
      "name": "removeTrustedForwarder",
      "outputs": [],
      "stateMutability": "nonpayable",
      "type": "function"
    },
    {
      "inputs": [],
      "name": "renounceOwnership",
      "outputs": [],
      "stateMutability": "nonpayable",
      "type": "function"
    },
    {
      "inputs": [
        {
          "internalType": "uint256",
          "name": "_disputeID",
          "type": "uint256"
        },
        {
          "internalType": "uint256",
          "name": "_ruling",
          "type": "uint256"
        }
      ],
      "name": "rule",
      "outputs": [],
      "stateMutability": "nonpayable",
      "type": "function"
    },
    {
      "inputs": [
        {
          "internalType": "uint256",
          "name": "_profileId",
          "type": "uint256"
        },
        {
          "internalType": "uint256",
          "name": "_transactionId",
          "type": "uint256"
        },
        {
          "internalType": "string",
          "name": "_evidence",
          "type": "string"
        }
      ],
      "name": "submitEvidence",
      "outputs": [],
      "stateMutability": "nonpayable",
      "type": "function"
    },
    {
      "inputs": [
        {
          "internalType": "address",
          "name": "newOwner",
          "type": "address"
        }
      ],
      "name": "transferOwnership",
      "outputs": [],
      "stateMutability": "nonpayable",
      "type": "function"
    },
    {
      "inputs": [
        {
          "internalType": "uint16",
          "name": "_protocolEscrowFeeRate",
          "type": "uint16"
        }
      ],
      "name": "updateProtocolEscrowFeeRate",
      "outputs": [],
      "stateMutability": "nonpayable",
      "type": "function"
    },
    {
      "inputs": [
        {
          "internalType": "address payable",
          "name": "_protocolWallet",
          "type": "address"
        }
      ],
      "name": "updateProtocolWallet",
      "outputs": [],
      "stateMutability": "nonpayable",
      "type": "function"
    },
    {
      "inputs": [
        {
          "internalType": "address",
          "name": "newImplementation",
          "type": "address"
        }
      ],
      "name": "upgradeTo",
      "outputs": [],
      "stateMutability": "nonpayable",
      "type": "function"
    },
    {
      "inputs": [
        {
          "internalType": "address",
          "name": "newImplementation",
          "type": "address"
        },
        {
          "internalType": "bytes",
          "name": "data",
          "type": "bytes"
        }
      ],
      "name": "upgradeToAndCall",
      "outputs": [],
      "stateMutability": "payable",
      "type": "function"
    }
  ],
  "bytecode": "0x60a0604052306080523480156200001557600080fd5b506200002062000026565b620000e8565b600054610100900460ff1615620000935760405162461bcd60e51b815260206004820152602760248201527f496e697469616c697a61626c653a20636f6e747261637420697320696e697469604482015266616c697a696e6760c81b606482015260840160405180910390fd5b60005460ff9081161015620000e6576000805460ff191660ff9081179091556040519081527f7f26b83ff96e1f2b6a682f133852f6798a09c465da95921460cefb38474024989060200160405180910390a15b565b608051614dab62000120600039600081816116290152818161166901528181611a1501528181611a550152611ae40152614dab6000f3fe6080604052600436106101b75760003560e01c80635a34257a116100ec5780638da5cb5b1161008a578063e308a09911610064578063e308a099146104e6578063eb63612d14610506578063f2fde38b14610526578063f8c8765e1461054657600080fd5b80638da5cb5b146104885780639dcc5daf146104a6578063ddd5e1b2146104c657600080fd5b8063715018a6116100c6578063715018a61461042d5780637b44cdb5146104425780637e69b7b0146104555780638b69fa0a1461046857600080fd5b80635a34257a146103c75780636930fd2a146103fc5780636e72b4521461041a57600080fd5b80633659cfe6116101595780633ab4a6a4116101335780633ab4a6a4146103365780634f1ef2861461035657806352d1902d14610369578063572b6c051461037e57600080fd5b80633659cfe6146102d65780633751d89c146102f65780633a1121cd1461031657600080fd5b806315734fe71161019557806315734fe71461025457806326d00668146102675780632fbe3b0314610289578063311a6c56146102b657600080fd5b806306d6e63f146101bc5780630a1a47d6146101f95780630fa683d314610227575b600080fd5b3480156101c857600080fd5b5060cf546101dc906001600160a01b031681565b6040516001600160a01b0390911681526020015b60405180910390f35b34801561020557600080fd5b50610219610214366004613e91565b610566565b6040519081526020016101f0565b34801561023357600080fd5b50610247610242366004613eae565b6106d0565b6040516101f09190613f41565b6102196102623660046141d7565b610a1d565b34801561027357600080fd5b50610287610282366004613e91565b61144e565b005b34801561029557600080fd5b506102196102a4366004613eae565b60d06020526000908152604090205481565b3480156102c257600080fd5b506102876102d136600461424e565b6114b1565b3480156102e257600080fd5b506102876102f1366004613e91565b61161f565b34801561030257600080fd5b50610287610311366004613e91565b6116fb565b34801561032257600080fd5b50610287610331366004614270565b611754565b34801561034257600080fd5b50610287610351366004613eae565b611855565b61028761036436600461429c565b611a0b565b34801561037557600080fd5b50610219611ad7565b34801561038a57600080fd5b506103b7610399366004613e91565b6001600160a01b031660009081526065602052604090205460ff1690565b60405190151581526020016101f0565b3480156103d357600080fd5b5060cf546103e990600160a01b900461ffff1681565b60405161ffff90911681526020016101f0565b34801561040857600080fd5b50610287610417366004613eae565b50565b610287610428366004613eae565b611b8a565b34801561043957600080fd5b50610287611e23565b610287610450366004613eae565b611e37565b610287610463366004613eae565b6120b1565b34801561047457600080fd5b50610287610483366004614300565b612169565b34801561049457600080fd5b506033546001600160a01b03166101dc565b3480156104b257600080fd5b506102876104c1366004614270565b6124cc565b3480156104d257600080fd5b506102876104e1366004614350565b6125b2565b3480156104f257600080fd5b50610287610501366004613e91565b6127bb565b34801561051257600080fd5b50610287610521366004614390565b6127e5565b34801561053257600080fd5b50610287610541366004613e91565b61283d565b34801561055257600080fd5b506102876105613660046143ad565b6128b3565b600080610571612a31565b9050806001600160a01b031661058f6033546001600160a01b031690565b6001600160a01b0316036105d95750506001600160a01b031660009081527f4239c2c8c3d9b94feb214b0f54d7c869ce1ceb63517be57644336cda4967a468602052604090205490565b60ce54604051631847c06b60e01b81526001600160a01b0383811660048301526000921690631847c06b90602401602060405180830381865afa158015610624573d6000803e3d6000fd5b505050506040513d601f19601f820116820180604052508101906106489190614409565b60ce5460405162f577a560e81b8152600481018390529192506001600160a01b03169063f577a5009060240160006040518083038186803b15801561068c57600080fd5b505afa1580156106a0573d6000803e3d6000fd5b50505060009182525060cb602090815260408083206001600160a01b039096168352949052929092205492915050565b61076a6040805161026081018252600080825260208201819052918101829052606081018290526080810182905260a0810182905260c0810182905260e0810182905261010081018290526101208101829052610140810182905261016081018290529061018082019081526020016000815260200160008152602001600081526020016000815260200160608152602001600081525090565b600082815260ca602090815260408083208151610260810183528154815260018201546001600160a01b039081169482019490945260028201548416928101929092526003810154831660608301526004808201546080840152600582015460a0840152600682015460c0840152600782015460e0840152600882015461ffff8082166101008601526201000082048116610120860152640100000000820416610140850152600160301b810490941661016084015291929091610180840191600160d01b900460ff169081111561084457610844613ec7565b600481111561085557610855613ec7565b815260200160098201548152602001600a8201548152602001600b8201548152602001600c8201548152602001600d8201805461089190614422565b80601f01602080910402602001604051908101604052809291908181526020018280546108bd90614422565b801561090a5780601f106108df5761010080835404028352916020019161090a565b820191906000526020600020905b8154815290600101906020018083116108ed57829003601f168201915b50505050508152602001600e82015481525050905061092860d15490565b8151106109755760405162461bcd60e51b8152602060048201526016602482015275125b9d985b1a59081d1c985b9cd858dd1a5bdb881a5960521b60448201526064015b60405180910390fd5b600061097f612a31565b905081602001516001600160a01b0316816001600160a01b031614806109ba575081604001516001600160a01b0316816001600160a01b0316145b610a165760405162461bcd60e51b815260206004820152602760248201527f596f7520617265206e6f742072656c6174656420746f2074686973207472616e60448201526639b0b1ba34b7b760c91b606482015260840161096c565b5092915050565b60cc5460405163ef0e239b60e01b81526004810186905260009182916001600160a01b039091169063ef0e239b90602401600060405180830381865afa158015610a6b573d6000803e3d6000fd5b505050506040513d6000823e601f3d908101601f19168201604052610a9391908101906144a9565b60cc5460405163aba2100960e01b815260048101899052602481018890529192506000916001600160a01b039091169063aba2100990604401600060405180830381865afa158015610ae9573d6000803e3d6000fd5b505050506040513d6000823e601f3d908101601f19168201604052610b119190810190614584565b60cd5460208401516040516331a9108f60e11b81529293506000926001600160a01b0390921691636352211e91610b4e9160040190815260200190565b602060405180830381865afa158015610b6b573d6000803e3d6000fd5b505050506040513d601f19601f82011682018060405250810190610b8f9190614645565b60cd5460208401516040516331a9108f60e11b81529293506000926001600160a01b0390921691636352211e91610bcc9160040190815260200190565b602060405180830381865afa158015610be9573d6000803e3d6000fd5b505050506040513d601f19601f82011682018060405250810190610c0d9190614645565b60ce5460a0860151604051630b7a459360e31b81529293506000926001600160a01b0390921691635bd22c9891610c4a9160040190815260200190565b600060405180830381865afa158015610c67573d6000803e3d6000fd5b505050506040513d6000823e601f3d908101601f19168201604052610c8f9190810190614662565b90506000846080015161ffff168660a0015103610cac5781610d26565b60ce546080860151604051630b7a459360e31b815261ffff90911660048201526001600160a01b0390911690635bd22c9890602401600060405180830381865afa158015610cfe573d6000803e3d6000fd5b505050506040513d6000823e601f3d908101601f19168201604052610d269190810190614662565b90506000610d41866060015184606001518460800151612a6a565b60408701519091506001600160a01b0316610d9f57803414610d9a5760405162461bcd60e51b81526020600482015260126024820152714e6f6e2d6d61746368696e672066756e647360701b604482015260640161096c565b610de2565b3415610de25760405162461bcd60e51b81526020600482015260126024820152714e6f6e2d6d61746368696e672066756e647360701b604482015260640161096c565b846001600160a01b0316610df4612a31565b6001600160a01b031614610e1a5760405162461bcd60e51b815260040161096c9061478e565b8a866020015114610e655760405162461bcd60e51b8152602060048201526015602482015274125b98dbdc9c9958dd081c1c9bdc1bdcd85b081251605a1b604482015260640161096c565b428660c001511015610eac5760405162461bcd60e51b815260206004820152601060248201526f141c9bdc1bdcd85b08195e1c1a5c995960821b604482015260640161096c565b600087516004811115610ec157610ec1613ec7565b14610f0e5760405162461bcd60e51b815260206004820152601760248201527f5365727669636520737461747573206e6f74206f70656e000000000000000000604482015260640161096c565b600086516001811115610f2357610f23613ec7565b14610f705760405162461bcd60e51b815260206004820152601b60248201527f50726f706f73616c20737461747573206e6f742070656e64696e670000000000604482015260640161096c565b8951602e14610faf5760405162461bcd60e51b815260206004820152600b60248201526a125b9d985b1a590818da5960aa1b604482015260640161096c565b88604051602001610fc091906147b5565b604051602081830303815290604052805190602001208660a00151604051602001610feb91906147b5565b604051602081830303815290604052805190602001201461104e5760405162461bcd60e51b815260206004820152601c60248201527f50726f706f73616c206461746155726920686173206368616e67656400000000604482015260640161096c565b600061105960d15490565b9050604051806102600160405280828152602001876001600160a01b03168152602001866001600160a01b0316815260200188604001516001600160a01b0316815260200188606001518152602001600081526020018e81526020018d815260200160cf60149054906101000a900461ffff1661ffff168152602001856060015161ffff168152602001846080015161ffff1681526020018560e001516001600160a01b031681526020016000600481111561111757611117613ec7565b8152600060208083018290526040808401839052606080850184905242608080870191909152610100808c015160a080890191909152610120808e015160c0998a01528a885260ca87529685902089518155958901516001870180546001600160a01b039283166001600160a01b031991821617909155958a01516002880180549183169188169190911790559389015160038701805491861691909616179094559087015160048086019190915592870151600585015594860151600684015560e086015160078401559385015160088301805494870151610140880151610160890151909716600160301b026601000000000000600160d01b031961ffff9889166401000000000216640100000000600160d01b0319928916620100000263ffffffff19909816989094169790971795909517949094161793909317808355610180850151919391929160ff60d01b1990911690600160d01b90849081111561128457611284613ec7565b02179055506101a082015160098201556101c0820151600a8201556101e0820151600b820155610200820151600c820155610220820151600d8201906112ca9082614817565b5061024082015181600e01559050506112e760d180546001019055565b60cc546040516353eaf57560e11b8152600481018f9052602481018e9052604481018390526001600160a01b039091169063a7d5eaea90606401600060405180830381600087803b15801561133b57600080fd5b505af115801561134f573d6000803e3d6000fd5b5050505060408701516001600160a01b03161561142a5760408088015190516323b872dd60e01b81526001600160a01b03888116600483015230602483015260448201859052909116906323b872dd906064016020604051808303816000875af11580156113c1573d6000803e3d6000fd5b505050506040513d601f19601f820116820180604052508101906113e591906148d7565b61142a5760405162461bcd60e51b8152602060048201526016602482015275151c985b9cd9995c881b5d5cdd081b9bdd0819985a5b60521b604482015260640161096c565b61143e88602001518860200151838e612ad5565b9c9b505050505050505050505050565b611456612bef565b6001600160a01b038116600081815260656020908152604091829020805460ff1916600117905590519182527f3ef8564460ada92419608d823c014975d98f8104d7d1e68c222967ac6814cd9791015b60405180910390a150565b60006114bb612a31565b600084815260d0602090815260408083205480845260ca909252909120600881015492935090916001600160a01b03808516600160301b909204161461154d5760405162461bcd60e51b815260206004820152602160248201527f5468652063616c6c6572206d757374206265207468652061726269747261746f6044820152603960f91b606482015260840161096c565b60036008820154600160d01b900460ff16600481111561156f5761156f613ec7565b146115ca5760405162461bcd60e51b815260206004820152602560248201527f54686520646973707574652068617320616c7265616479206265656e207265736044820152641bdb1d995960da1b606482015260840161096c565b84836001600160a01b03167f394027a5fa6e098a1191094d1719d6929b9abc535fcc0c8f448d6a4e756222768660405161160691815260200190565b60405180910390a36116188285612c68565b5050505050565b6001600160a01b037f00000000000000000000000000000000000000000000000000000000000000001630036116675760405162461bcd60e51b815260040161096c906148f9565b7f00000000000000000000000000000000000000000000000000000000000000006001600160a01b03166116b0600080516020614d0f833981519152546001600160a01b031690565b6001600160a01b0316146116d65760405162461bcd60e51b815260040161096c90614945565b6116df81612ef2565b6040805160008082526020820190925261041791839190612efa565b611703612bef565b6001600160a01b038116600081815260656020908152604091829020805460ff1916905590519182527fd2d636efcad0cea42e170256f4c5d8b1cd81e47b855557edaf44014e6cc4cee691016114a6565b60cd5483906001600160a01b0316632fa117e582611770612a31565b6040516001600160e01b031960e085901b16815260048101929092526001600160a01b03166024820152604401602060405180830381865afa1580156117ba573d6000803e3d6000fd5b505050506040513d601f19601f820116820180604052508101906117de91906148d7565b6117fa5760405162461bcd60e51b815260040161096c90614991565b6118078360008685613065565b600083815260ca602052604081206004810180549192859261182a9084906149d6565b925050819055508281600501600082825461184591906149e9565b909155506116189050848461334f565b600081815260ca60205260409020600e810154600c82015461187790426149d6565b10156118c55760405162461bcd60e51b815260206004820152601f60248201527f54696d656f75742074696d6520686173206e6f74207061737365642079657400604482015260640161096c565b60016008820154600160d01b900460ff1660048111156118e7576118e7613ec7565b0361196a57600a8101541561195b57600a81018054600091829055600183015460405191926001600160a01b0390911691839181818185875af1925050503d8060008114611951576040519150601f19603f3d011682016040523d82523d6000602084013e611956565b606091505b505050505b611966826002612c68565b5050565b60026008820154600160d01b900460ff16600481111561198c5761198c613ec7565b0361196657600b81015415611a0057600b81018054600091829055600283015460405191926001600160a01b0390911691839181818185875af1925050503d80600081146119f6576040519150601f19603f3d011682016040523d82523d6000602084013e6119fb565b606091505b505050505b611966826001612c68565b6001600160a01b037f0000000000000000000000000000000000000000000000000000000000000000163003611a535760405162461bcd60e51b815260040161096c906148f9565b7f00000000000000000000000000000000000000000000000000000000000000006001600160a01b0316611a9c600080516020614d0f833981519152546001600160a01b031690565b6001600160a01b031614611ac25760405162461bcd60e51b815260040161096c90614945565b611acb82612ef2565b61196682826001612efa565b6000306001600160a01b037f00000000000000000000000000000000000000000000000000000000000000001614611b775760405162461bcd60e51b815260206004820152603860248201527f555550535570677261646561626c653a206d757374206e6f742062652063616c60448201527f6c6564207468726f7567682064656c656761746563616c6c0000000000000000606482015260840161096c565b50600080516020614d0f83398151915290565b600081815260ca602052604090206008810154600160301b90046001600160a01b0316611bc95760405162461bcd60e51b815260040161096c906149fc565b60036008820154600160d01b900460ff166004811115611beb57611beb613ec7565b10611c085760405162461bcd60e51b815260040161096c90614a28565b60028101546001600160a01b0316611c1e612a31565b6001600160a01b031614611c745760405162461bcd60e51b815260206004820152601f60248201527f5468652063616c6c6572206d7573742062652074686520726563656976657200604482015260640161096c565b600881015460405163f7434ea960e01b8152600091600160301b90046001600160a01b03169063f7434ea990611cb190600d860190600401614b18565b602060405180830381865afa158015611cce573d6000803e3d6000fd5b505050506040513d601f19601f82011682018060405250810190611cf29190614409565b90503482600b016000828254611d0891906149e9565b9091555050600b8201548114611d7f5760405162461bcd60e51b815260206004820152603660248201527f54686520726563656976657220666565206d75737420626520657175616c20746044820152751bc81d1a1948185c989a5d1c985d1a5bdb8818dbdcdd60521b606482015260840161096c565b42600c8301556040518390600080516020614d2f83398151915290611dab906000906001903490614b3b565b60405180910390a28082600a01541015611e145760088201805460ff60d01b1916600160d01b17905560405183907fc74b9f7dedf2887cd3c113b6d8da9cea19e55c1116e25f1f0e1b72d7543179b590611e0790600090614b65565b60405180910390a2505050565b611e1e8382613394565b505050565b611e2b612bef565b611e3560006135ec565b565b600081815260ca602052604090206008810154600160301b90046001600160a01b0316611e765760405162461bcd60e51b815260040161096c906149fc565b60036008820154600160d01b900460ff166004811115611e9857611e98613ec7565b10611eb55760405162461bcd60e51b815260040161096c90614a28565b60018101546001600160a01b0316611ecb612a31565b6001600160a01b031614611f215760405162461bcd60e51b815260206004820152601d60248201527f5468652063616c6c6572206d757374206265207468652073656e646572000000604482015260640161096c565b600881015460405163f7434ea960e01b8152600091600160301b90046001600160a01b03169063f7434ea990611f5e90600d860190600401614b18565b602060405180830381865afa158015611f7b573d6000803e3d6000fd5b505050506040513d601f19601f82011682018060405250810190611f9f9190614409565b90503482600a016000828254611fb591906149e9565b9091555050600a820154811461202a5760405162461bcd60e51b815260206004820152603460248201527f5468652073656e64657220666565206d75737420626520657175616c20746f206044820152731d1a1948185c989a5d1c985d1a5bdb8818dbdcdd60621b606482015260840161096c565b42600c8301556040518390600080516020614d2f833981519152906120559060009081903490614b3b565b60405180910390a28082600b01541015611e145760088201805460ff60d01b1916600160d11b17905560405183907fc74b9f7dedf2887cd3c113b6d8da9cea19e55c1116e25f1f0e1b72d7543179b590611e0790600190614b65565b600081815260ca602052604090206008810154600160301b90046001600160a01b03166120f05760405162461bcd60e51b815260040161096c906149fc565b6008810154600982015460405163093225f160e31b8152600160301b9092046001600160a01b0316916349912f889134916121339190600d870190600401614b78565b6000604051808303818588803b15801561214c57600080fd5b505af1158015612160573d6000803e3d6000fd5b50505050505050565b60cd5483906001600160a01b0316632fa117e582612185612a31565b6040516001600160e01b031960e085901b16815260048101929092526001600160a01b03166024820152604401602060405180830381865afa1580156121cf573d6000803e3d6000fd5b505050506040513d601f19601f820116820180604052508101906121f391906148d7565b61220f5760405162461bcd60e51b815260040161096c90614991565b8151602e1461224e5760405162461bcd60e51b815260206004820152600b60248201526a125b9d985b1a590818da5960aa1b604482015260640161096c565b600083815260ca602052604090206008810154600160301b90046001600160a01b031661228d5760405162461bcd60e51b815260040161096c906149fc565b60cd546040516331a9108f60e11b8152600481018790526000916001600160a01b031690636352211e90602401602060405180830381865afa1580156122d7573d6000803e3d6000fd5b505050506040513d601f19601f820116820180604052508101906122fb9190614645565b60018301549091506001600160a01b038083169116148061232b575060028201546001600160a01b038281169116145b61239f576040805162461bcd60e51b81526020600482015260248101919091527f5468652063616c6c6572206d757374206265207468652073656e646572206f7260448201527f20746865207265636569766572206f722074686569722064656c656761746573606482015260840161096c565b60046008830154600160d01b900460ff1660048111156123c1576123c1613ec7565b106124285760405162461bcd60e51b815260206004820152603160248201527f4d757374206e6f742073656e642065766964656e6365206966207468652064696044820152701cdc1d5d19481a5cc81c995cdbdb1d9959607a1b606482015260840161096c565b806001600160a01b0316858360080160069054906101000a90046001600160a01b03166001600160a01b03167fdccf2f8b2cc26eafcd61905cba744cff4b81d14740725f6376390dc6298a6a3c876040516124839190614b91565b60405180910390a485857fd998ce0f89c38b0f93256f0b843a404a3a3c5055b75265623f7cb9c369a1dd62866040516124bc9190614b91565b60405180910390a3505050505050565b60cd5483906001600160a01b0316632fa117e5826124e8612a31565b6040516001600160e01b031960e085901b16815260048101929092526001600160a01b03166024820152604401602060405180830381865afa158015612532573d6000803e3d6000fd5b505050506040513d601f19601f8201168201806040525081019061255691906148d7565b6125725760405162461bcd60e51b815260040161096c90614991565b61257f8360018685613065565b600083815260ca60205260408120600481018054919285926125a29084906149d6565b909155506116189050848461363e565b60006125bc612a31565b6001600160a01b03166125d76033546001600160a01b031690565b6001600160a01b0316036126155782156126035760405162461bcd60e51b815260040161096c9061478e565b5060cf546001600160a01b03166126e0565b60ce5460405162f577a560e81b8152600481018590526001600160a01b039091169063f577a5009060240160006040518083038186803b15801561265857600080fd5b505afa15801561266c573d6000803e3d6000fd5b505060ce546040516331a9108f60e11b8152600481018790526001600160a01b039091169250636352211e9150602401602060405180830381865afa1580156126b9573d6000803e3d6000fd5b505050506040513d601f19601f820116820180604052508101906126dd9190614645565b90505b600083815260cb602090815260408083206001600160a01b0386168452909152902054806127435760405162461bcd60e51b815260206004820152601060248201526f6e6f7468696e6720746f20636c61696d60801b604482015260640161096c565b600084815260cb602090815260408083206001600160a01b03871684529091528120556127718284836136a4565b60408051858152602081018390526001600160a01b038516917f2227733fc4c8a9034cb58087dcf6995128b9c0233b038b03366aaf30c92b92d6910160405180910390a250505050565b6127c3612bef565b60cf80546001600160a01b0319166001600160a01b0392909216919091179055565b6127ed612bef565b60cf805461ffff60a01b1916600160a01b61ffff8416908102919091179091556040519081527f8339189e972f7fba792126e752aa8485af08710bce4a041c5bc3f9858acd7130906020016114a6565b612845612bef565b6001600160a01b0381166128aa5760405162461bcd60e51b815260206004820152602660248201527f4f776e61626c653a206e6577206f776e657220697320746865207a65726f206160448201526564647265737360d01b606482015260840161096c565b610417816135ec565b600054610100900460ff16158080156128d35750600054600160ff909116105b806128ed5750303b1580156128ed575060005460ff166001145b6129505760405162461bcd60e51b815260206004820152602e60248201527f496e697469616c697a61626c653a20636f6e747261637420697320616c72656160448201526d191e481a5b9a5d1a585b1a5e995960921b606482015260840161096c565b6000805460ff191660011790558015612973576000805461ff0019166101001790555b61297b61377e565b6129836137ad565b60cc80546001600160a01b038088166001600160a01b03199283161790925560cd805487841690831617905560ce805486841690831617905560cf8054928516929091169190911790556129db60d180546001019055565b6129e560646127e5565b8015611618576000805461ff0019169055604051600181527f7f26b83ff96e1f2b6a682f133852f6798a09c465da95921460cefb38474024989060200160405180910390a15050505050565b600060143610801590612a5357503360009081526065602052604090205460ff165b15612a65575060131936013560601c90565b503390565b6000612710612a7d61ffff841686614ba4565b612a8b61ffff861687614ba4565b60cf54612aa390600160a01b900461ffff1688614ba4565b612aad91906149e9565b612ab791906149e9565b612ac19190614bbb565b612acb90856149e9565b90505b9392505050565b600060ca600084815260200190815260200160002090507f8b4f0e94aa0aee74c276abd2d92a5e2737a493b055e19d5b2d4c0ac573242a158386868460030160009054906101000a90046001600160a01b031685600401548660060154876007015460cf60149054906101000a900461ffff168960080160029054906101000a900461ffff168a60080160049054906101000a900461ffff168b60080160069054906101000a90046001600160a01b03168c600d018d600e0154604051612ba89d9c9b9a99989796959493929190614bdd565b60405180910390a1827f61606860eb6c87306811e2695215385101daab53bd6ab4e9f9049aead9363c7d83604051612be09190614b91565b60405180910390a25050505050565b612bf7612a31565b6001600160a01b0316612c126033546001600160a01b031690565b6001600160a01b031614611e355760405162461bcd60e51b815260206004820181905260248201527f4f776e61626c653a2063616c6c6572206973206e6f7420746865206f776e6572604482015260640161096c565b600082815260ca602052604090206002821115612cb85760405162461bcd60e51b815260206004820152600e60248201526d496e76616c69642072756c696e6760901b604482015260640161096c565b60018101546002820154600483018054600a85018054600b87018054600095869055928590559390935560088601805460ff60d01b1916600160d21b1790556001600160a01b0394851694909316929091906000198701612d73576040516001600160a01b038616908390600081818185875af1925050503d8060008114612d5c576040519150601f19603f3d011682016040523d82523d6000602084013e612d61565b606091505b505050612d6e888461363e565b612eae565b6001198701612dd7576040516001600160a01b038516908290600081818185875af1925050503d8060008114612dc5576040519150601f19603f3d011682016040523d82523d6000602084013e612dca565b606091505b505050612d6e888461334f565b6000612de4600284614bbb565b90506000612df3600286614bbb565b9050612dff8a8261363e565b612e098a8261334f565b6040516001600160a01b038816908390600081818185875af1925050503d8060008114612e52576040519150601f19603f3d011682016040523d82523d6000602084013e612e57565b606091505b50506040516001600160a01b03881691508390600081818185875af1925050503d8060008114612ea3576040519150601f19603f3d011682016040523d82523d6000602084013e612ea8565b606091505b50505050505b877f76b363d70472d47d20e4119f3625c05ed37ca51b1d9e1cd8b87d8c20530640f388604051612ee091815260200190565b60405180910390a25050505050505050565b610417612bef565b7f4910fdfa16fed3260ed0e7147f7cc6da11a60208b5b9406d12a635614ffd91435460ff1615612f2d57611e1e836137d4565b826001600160a01b03166352d1902d6040518163ffffffff1660e01b8152600401602060405180830381865afa925050508015612f87575060408051601f3d908101601f19168201909252612f8491810190614409565b60015b612fea5760405162461bcd60e51b815260206004820152602e60248201527f45524331393637557067726164653a206e657720696d706c656d656e7461746960448201526d6f6e206973206e6f74205555505360901b606482015260840161096c565b600080516020614d0f83398151915281146130595760405162461bcd60e51b815260206004820152602960248201527f45524331393637557067726164653a20756e737570706f727465642070726f786044820152681a58589b195555525160ba1b606482015260840161096c565b50611e1e838383613870565b600084815260ca602052604081209084600181111561308657613086613ec7565b0361312c5760cd546040516331a9108f60e11b8152600481018590526001600160a01b0390911690636352211e90602401602060405180830381865afa1580156130d4573d6000803e3d6000fd5b505050506040513d601f19601f820116820180604052508101906130f89190614645565b60018201546001600160a01b039081169116146131275760405162461bcd60e51b815260040161096c9061478e565b6131e1565b600184600181111561314057613140613ec7565b036131e15760cd546040516331a9108f60e11b8152600481018590526001600160a01b0390911690636352211e90602401602060405180830381865afa15801561318e573d6000803e3d6000fd5b505050506040513d601f19601f820116820180604052508101906131b29190614645565b60028201546001600160a01b039081169116146131e15760405162461bcd60e51b815260040161096c9061478e565b60d15481541061322c5760405162461bcd60e51b8152602060048201526016602482015275125b9d985b1a59081d1c985b9cd858dd1a5bdb881a5960521b604482015260640161096c565b60006008820154600160d01b900460ff16600481111561324e5761324e613ec7565b146132a95760405162461bcd60e51b815260206004820152602560248201527f546865207472616e73616374696f6e2073686f756c646e2774206265206469736044820152641c1d5d195960da1b606482015260840161096c565b81816004015410156132f25760405162461bcd60e51b8152602060048201526012602482015271496e73756666696369656e742066756e647360701b604482015260640161096c565b612710821015806133125750612710821080156133125750806004015482145b6116185760405162461bcd60e51b815260206004820152600e60248201526d416d6f756e7420746f6f206c6f7760901b604482015260640161096c565b6133598282613895565b600082815260ca6020526040902060028101546003820154613388916001600160a01b039081169116846136a4565b611e1e83600084613baf565b600082815260ca60205260409081902060088101805460ff60d01b1916600360d01b1790819055915163c13517e160e01b81529091600160301b90046001600160a01b031690819063c13517e19085906133f890600290600d880190600401614c6b565b60206040518083038185885af1158015613416573d6000803e3d6000fd5b50505050506040513d601f19601f8201168201806040525081019061343b9190614409565b60098301818155600091825260d0602090815260409283902087905590548251878152918201879052916001600160a01b038416917f74baab670a4015ab2f1b467c5252a96141a2573f2908e58a92081e80d3cfde3d910160405180910390a38282600a015411156135465760008383600a01546134b991906149d6565b600a840185905560018401546040519192506001600160a01b0316908290600081818185875af1925050503d8060008114613510576040519150601f19603f3d011682016040523d82523d6000602084013e613515565b606091505b50505084600080516020614d2f833981519152600160003460405161353c93929190614b3b565b60405180910390a2505b8282600b015411156135e65760008383600b015461356491906149d6565b600b840185905560028401546040519192506001600160a01b0316908290600081818185875af1925050503d80600081146135bb576040519150601f19603f3d011682016040523d82523d6000602084013e6135c0565b606091505b50505084600080516020614d2f83398151915260018034604051612be093929190614b3b565b50505050565b603380546001600160a01b038381166001600160a01b0319831681179093556040519116919082907f8be0079c531659141344cd1fd0a4f28419497f9722a3daafe3b4186f6b6457e090600090a35050565b600082815260ca60205260408120600881015490919061367490849061ffff620100008204811691640100000000900416612a6a565b60018301546003840154919250613698916001600160a01b039182169116836136a4565b6135e684600185613baf565b6001600160a01b03821660000361370b576040516001600160a01b038416908290600081818185875af1925050503d80600081146136fe576040519150601f19603f3d011682016040523d82523d6000602084013e613703565b606091505b505050505050565b60405163a9059cbb60e01b81526001600160a01b0384811660048301526024820183905283169063a9059cbb906044016020604051808303816000875af115801561375a573d6000803e3d6000fd5b505050506040513d601f19601f820116820180604052508101906135e691906148d7565b600054610100900460ff166137a55760405162461bcd60e51b815260040161096c90614c87565b611e35613cd1565b600054610100900460ff16611e355760405162461bcd60e51b815260040161096c90614c87565b6001600160a01b0381163b6138415760405162461bcd60e51b815260206004820152602d60248201527f455243313936373a206e657720696d706c656d656e746174696f6e206973206e60448201526c1bdd08184818dbdb9d1c9858dd609a1b606482015260840161096c565b600080516020614d0f83398151915280546001600160a01b0319166001600160a01b0392909216919091179055565b61387983613d08565b6000825111806138865750805b15611e1e576135e68383613d48565b600082815260ca602052604080822060cc546006820154925163ef0e239b60e01b81529193926001600160a01b039091169163ef0e239b916138dd9160040190815260200190565b600060405180830381865afa1580156138fa573d6000803e3d6000fd5b505050506040513d6000823e601f3d908101601f1916820160405261392291908101906144a9565b60a0015160cc546006840154600785015460405163aba2100960e01b8152600481019290925260248201529192506000916001600160a01b039091169063aba2100990604401600060405180830381865afa158015613985573d6000803e3d6000fd5b505050506040513d6000823e601f3d908101601f191682016040526139ad9190810190614584565b60800151600884015461ffff9182169250600091612710916139d191889116614ba4565b6139db9190614bbb565b6008850154909150600090612710906139ff90889062010000900461ffff16614ba4565b613a099190614bbb565b600886015490915060009061271090613a2f908990640100000000900461ffff16614ba4565b613a399190614bbb565b60038701546001600160a01b031660009081527f4239c2c8c3d9b94feb214b0f54d7c869ce1ceb63517be57644336cda4967a4686020526040812080549293508592909190613a899084906149e9565b9091555050600085815260cb6020908152604080832060038a01546001600160a01b0316845290915281208054849290613ac49084906149e9565b9091555050600084815260cb6020908152604080832060038a01546001600160a01b0316845290915281208054839290613aff9084906149e9565b90915550506003860154600687015460408051888152602081019290925281018490526001600160a01b03909116907f17c48ab8e1617182f35ae77fd7da7f4e15dedf7018aa371a4481c20c790b65469060600160405180910390a26003860154600687015460408051878152602081019290925281018490526001600160a01b03909116907f3476ed3eea2cdac584273bc8830824c8ca42ca2a99e9f144a87a1cdbbf9dd15a90606001612ee0565b600083815260ca602052604090819020805460038201546006830154935192937f2ab2a30b19f7bc6e386d4ee60aa21ed23c127ce9fe26903da97edd54bad0375a93613c0c939288926001600160a01b0390911691889190614cd2565b60405180910390a180600401546000036135e65760cc5460068201546005830154604051635ab9ae0f60e11b8152600481019290925260248201526001600160a01b039091169063b5735c1e90604401600060405180830381600087803b158015613c7657600080fd5b505af1158015613c8a573d6000803e3d6000fd5b505050507f6bef1b5e95b741d6e665eb9b5c2d3e1203c46a771451055a9d41e0b8ff4510b78160060154604051613cc391815260200190565b60405180910390a150505050565b600054610100900460ff16613cf85760405162461bcd60e51b815260040161096c90614c87565b611e35613d03612a31565b6135ec565b613d11816137d4565b6040516001600160a01b038216907fbc7cd75a20ee27fd9adebab32041f755214dbc6bffa90cc0225b39da2e5c2d3b90600090a250565b60606001600160a01b0383163b613db05760405162461bcd60e51b815260206004820152602660248201527f416464726573733a2064656c65676174652063616c6c20746f206e6f6e2d636f6044820152651b9d1c9858dd60d21b606482015260840161096c565b600080846001600160a01b031684604051613dcb91906147b5565b600060405180830381855af49150503d8060008114613e06576040519150601f19603f3d011682016040523d82523d6000602084013e613e0b565b606091505b5091509150613e338282604051806060016040528060278152602001614d4f60279139613e3e565b925050505b92915050565b60608315613e4d575081612ace565b612ace8383815115613e625781518083602001fd5b8060405162461bcd60e51b815260040161096c9190614b91565b6001600160a01b038116811461041757600080fd5b600060208284031215613ea357600080fd5b8135612ace81613e7c565b600060208284031215613ec057600080fd5b5035919050565b634e487b7160e01b600052602160045260246000fd5b60058110613eed57613eed613ec7565b9052565b60005b83811015613f0c578181015183820152602001613ef4565b50506000910152565b60008151808452613f2d816020860160208601613ef1565b601f01601f19169290920160200192915050565b602081528151602082015260006020830151613f6860408401826001600160a01b03169052565b5060408301516001600160a01b03811660608401525060608301516001600160a01b038116608084015250608083015160a083015260a083015160c083015260c083015160e083015260e0830151610100818185015280850151915050610120613fd78185018361ffff169052565b8401519050610140613fee8482018361ffff169052565b84015190506101606140058482018361ffff169052565b8401519050610180614021848201836001600160a01b03169052565b84015190506101a061403584820183613edd565b8401516101c0848101919091528401516101e08085019190915284015161020080850191909152840151610220808501919091528401516102606102408086018290529192509061408a610280860184613f15565b9501519301929092525090919050565b634e487b7160e01b600052604160045260246000fd5b60405160c0810167ffffffffffffffff811182821017156140d3576140d361409a565b60405290565b60405160e0810167ffffffffffffffff811182821017156140d3576140d361409a565b604051610160810167ffffffffffffffff811182821017156140d3576140d361409a565b604051601f8201601f1916810167ffffffffffffffff811182821017156141495761414961409a565b604052919050565b600067ffffffffffffffff82111561416b5761416b61409a565b50601f01601f191660200190565b600061418c61418784614151565b614120565b90508281528383830111156141a057600080fd5b828260208301376000602084830101529392505050565b600082601f8301126141c857600080fd5b612ace83833560208501614179565b600080600080608085870312156141ed57600080fd5b8435935060208501359250604085013567ffffffffffffffff8082111561421357600080fd5b61421f888389016141b7565b9350606087013591508082111561423557600080fd5b50614242878288016141b7565b91505092959194509250565b6000806040838503121561426157600080fd5b50508035926020909101359150565b60008060006060848603121561428557600080fd5b505081359360208301359350604090920135919050565b600080604083850312156142af57600080fd5b82356142ba81613e7c565b9150602083013567ffffffffffffffff8111156142d657600080fd5b8301601f810185136142e757600080fd5b6142f685823560208401614179565b9150509250929050565b60008060006060848603121561431557600080fd5b8335925060208401359150604084013567ffffffffffffffff81111561433a57600080fd5b614346868287016141b7565b9150509250925092565b6000806040838503121561436357600080fd5b82359150602083013561437581613e7c565b809150509250929050565b61ffff8116811461041757600080fd5b6000602082840312156143a257600080fd5b8135612ace81614380565b600080600080608085870312156143c357600080fd5b84356143ce81613e7c565b935060208501356143de81613e7c565b925060408501356143ee81613e7c565b915060608501356143fe81613e7c565b939692955090935050565b60006020828403121561441b57600080fd5b5051919050565b600181811c9082168061443657607f821691505b60208210810361445657634e487b7160e01b600052602260045260246000fd5b50919050565b600082601f83011261446d57600080fd5b815161447b61418782614151565b81815284602083860101111561449057600080fd5b6144a1826020830160208701613ef1565b949350505050565b6000602082840312156144bb57600080fd5b815167ffffffffffffffff808211156144d357600080fd5b9083019060c082860312156144e757600080fd5b6144ef6140b0565b8251600581106144fe57600080fd5b80825250602083015160208201526040830151604082015260608301518281111561452857600080fd5b6145348782860161445c565b6060830152506080830151608082015260a083015160a082015280935050505092915050565b80516002811061456957600080fd5b919050565b805161456981613e7c565b805161456981614380565b60006020828403121561459657600080fd5b815167ffffffffffffffff808211156145ae57600080fd5b9083019060e082860312156145c257600080fd5b6145ca6140d9565b6145d38361455a565b8152602083015160208201526145eb6040840161456e565b60408201526060830151606082015261460660808401614579565b608082015260a08301518281111561461d57600080fd5b6146298782860161445c565b60a08301525060c083015160c082015280935050505092915050565b60006020828403121561465757600080fd5b8151612ace81613e7c565b60006020828403121561467457600080fd5b815167ffffffffffffffff8082111561468c57600080fd5b9083019061016082860312156146a157600080fd5b6146a96140fc565b825181526020830151828111156146bf57600080fd5b6146cb8782860161445c565b6020830152506040830151828111156146e357600080fd5b6146ef8782860161445c565b60408301525061470160608401614579565b606082015261471260808401614579565b608082015260a083015160a082015260c083015160c082015261473760e0840161456e565b60e0820152610100808401518381111561475057600080fd5b61475c8882870161445c565b82840152505061012091508183015182820152610140915061477f82840161456e565b91810191909152949350505050565b6020808252600d908201526c1058d8d95cdcc819195b9a5959609a1b604082015260600190565b600082516147c7818460208701613ef1565b9190910192915050565b601f821115611e1e57600081815260208120601f850160051c810160208610156147f85750805b601f850160051c820191505b8181101561370357828155600101614804565b815167ffffffffffffffff8111156148315761483161409a565b6148458161483f8454614422565b846147d1565b602080601f83116001811461487a57600084156148625750858301515b600019600386901b1c1916600185901b178555613703565b600085815260208120601f198616915b828110156148a95788860151825594840194600190910190840161488a565b50858210156148c75787850151600019600388901b60f8161c191681555b5050505050600190811b01905550565b6000602082840312156148e957600080fd5b81518015158114612ace57600080fd5b6020808252602c908201527f46756e6374696f6e206d7573742062652063616c6c6564207468726f7567682060408201526b19195b1959d85d1958d85b1b60a21b606082015260800190565b6020808252602c908201527f46756e6374696f6e206d7573742062652063616c6c6564207468726f7567682060408201526b6163746976652070726f787960a01b606082015260800190565b6020808252601590820152744e6f74206f776e6572206f722064656c656761746560581b604082015260600190565b634e487b7160e01b600052601160045260246000fd5b81810381811115613e3857613e386149c0565b80820180821115613e3857613e386149c0565b602080825260129082015271105c989a5d1c985d1bdc881b9bdd081cd95d60721b604082015260600190565b6020808252604d908201527f446973707574652068617320616c7265616479206265656e206372656174656460408201527f206f72206265636175736520746865207472616e73616374696f6e206861732060608201526c1899595b88195e1958dd5d1959609a1b608082015260a00190565b60008154614aa881614422565b808552602060018381168015614ac55760018114614adf57614b0d565b60ff1985168884015283151560051b880183019550614b0d565b866000528260002060005b85811015614b055781548a8201860152908301908401614aea565b890184019650505b505050505092915050565b602081526000612ace6020830184614a9b565b6002811061041757610417613ec7565b60608101614b4885614b2b565b848252614b5484614b2b565b602082019390935260400152919050565b60208101614b7283614b2b565b91905290565b828152604060208201526000612acb6040830184614a9b565b602081526000612ace6020830184613f15565b8082028115828204841417613e3857613e386149c0565b600082614bd857634e487b7160e01b600052601260045260246000fd5b500490565b8d8152602081018d9052604081018c90526001600160a01b038b81166060830152608082018b905260a082018a905260c0820189905261ffff88811660e08401528781166101008401528616610120830152841661014082015260006101a080610160840152614c4f81840186614a9b565b915050826101808301529e9d5050505050505050505050505050565b60ff83168152604060208201526000612acb6040830184614a9b565b6020808252602b908201527f496e697469616c697a61626c653a20636f6e7472616374206973206e6f74206960408201526a6e697469616c697a696e6760a81b606082015260800190565b85815260a08101614ce286614b2b565b60208201959095526001600160a01b03939093166040840152606083019190915260809091015291905056fe360894a13ba1a3210667c828492db98dca3e2076cc3735a920a3ca505d382bbc73e533bc8a993eccbc1023beebad0020f6b6c3639f83062f00fc194b4d1172ba416464726573733a206c6f772d6c6576656c2064656c65676174652063616c6c206661696c6564a26469706673582212205abdfc2b5468e321129f50e5391babbce005d8b2f32798e0748585cc796816d064736f6c63430008110033",
  "linkReferences": {},
  "deployedLinkReferences": {}
}