{
  "_format": "hh-sol-artifact-1",
  "contractName": "TalentLayerEscrow",
  "sourceName": "contracts/TalentLayerEscrow.sol",
  "abi": [
    {
      "inputs": [
        {
          "internalType": "address",
          "name": "_serviceRegistryAddress",
          "type": "address"
        },
        {
          "internalType": "address",
          "name": "_talentLayerIDAddress",
          "type": "address"
        },
        {
          "internalType": "address",
          "name": "_talentLayerPlatformIDAddress",
          "type": "address"
        }
      ],
      "stateMutability": "nonpayable",
      "type": "constructor"
    },
    {
      "anonymous": false,
      "inputs": [
        {
          "indexed": true,
          "internalType": "uint256",
          "name": "_transactionId",
          "type": "uint256"
        },
        {
          "indexed": false,
          "internalType": "enum TalentLayerEscrow.ArbitrationFeePaymentType",
          "name": "_paymentType",
          "type": "uint8"
        },
        {
          "indexed": false,
          "internalType": "enum TalentLayerEscrow.Party",
          "name": "_party",
          "type": "uint8"
        },
        {
          "indexed": false,
          "internalType": "uint256",
          "name": "_amount",
          "type": "uint256"
        }
      ],
      "name": "ArbitrationFeePayment",
      "type": "event"
    },
    {
      "anonymous": false,
      "inputs": [
        {
          "indexed": true,
          "internalType": "contract Arbitrator",
          "name": "_arbitrator",
          "type": "address"
        },
        {
          "indexed": true,
          "internalType": "uint256",
          "name": "_disputeID",
          "type": "uint256"
        },
        {
          "indexed": false,
          "internalType": "uint256",
          "name": "_metaEvidenceID",
          "type": "uint256"
        },
        {
          "indexed": false,
          "internalType": "uint256",
          "name": "_evidenceGroupID",
          "type": "uint256"
        }
      ],
      "name": "Dispute",
      "type": "event"
    },
    {
      "anonymous": false,
      "inputs": [
        {
          "indexed": true,
          "internalType": "contract Arbitrator",
          "name": "_arbitrator",
          "type": "address"
        },
        {
          "indexed": true,
          "internalType": "uint256",
          "name": "_evidenceGroupID",
          "type": "uint256"
        },
        {
          "indexed": true,
          "internalType": "address",
          "name": "_party",
          "type": "address"
        },
        {
          "indexed": false,
          "internalType": "string",
          "name": "_evidence",
          "type": "string"
        }
      ],
      "name": "Evidence",
      "type": "event"
    },
    {
      "anonymous": false,
      "inputs": [
        {
          "indexed": true,
          "internalType": "uint256",
          "name": "_transactionId",
          "type": "uint256"
        },
        {
          "indexed": true,
          "internalType": "uint256",
          "name": "_partyId",
          "type": "uint256"
        },
        {
          "indexed": false,
          "internalType": "string",
          "name": "_evidenceUri",
          "type": "string"
        }
      ],
      "name": "EvidenceSubmitted",
      "type": "event"
    },
    {
      "anonymous": false,
      "inputs": [
        {
          "indexed": false,
          "internalType": "uint256",
          "name": "_platformId",
          "type": "uint256"
        },
        {
          "indexed": true,
          "internalType": "address",
          "name": "_token",
          "type": "address"
        },
        {
          "indexed": false,
          "internalType": "uint256",
          "name": "_amount",
          "type": "uint256"
        }
      ],
      "name": "FeesClaimed",
      "type": "event"
    },
    {
      "anonymous": false,
      "inputs": [
        {
          "indexed": true,
          "internalType": "uint256",
          "name": "_transactionId",
          "type": "uint256"
        },
        {
          "indexed": false,
          "internalType": "enum TalentLayerEscrow.Party",
          "name": "_party",
          "type": "uint8"
        }
      ],
      "name": "HasToPayFee",
      "type": "event"
    },
    {
      "anonymous": false,
      "inputs": [
        {
          "indexed": true,
          "internalType": "uint256",
          "name": "_metaEvidenceID",
          "type": "uint256"
        },
        {
          "indexed": false,
          "internalType": "string",
          "name": "_evidence",
          "type": "string"
        }
      ],
      "name": "MetaEvidence",
      "type": "event"
    },
    {
      "anonymous": false,
      "inputs": [
        {
          "indexed": false,
          "internalType": "uint16",
          "name": "_originPlatformEscrowFeeRate",
          "type": "uint16"
        }
      ],
      "name": "OriginPlatformEscrowFeeRateUpdated",
      "type": "event"
    },
    {
      "anonymous": false,
      "inputs": [
        {
          "indexed": false,
          "internalType": "uint256",
          "name": "_platformId",
          "type": "uint256"
        },
        {
          "indexed": false,
          "internalType": "uint256",
          "name": "_serviceId",
          "type": "uint256"
        },
        {
          "indexed": true,
          "internalType": "address",
          "name": "_token",
          "type": "address"
        },
        {
          "indexed": false,
          "internalType": "uint256",
          "name": "_amount",
          "type": "uint256"
        }
      ],
      "name": "OriginPlatformFeeReleased",
      "type": "event"
    },
    {
      "anonymous": false,
      "inputs": [
        {
          "indexed": true,
          "internalType": "address",
          "name": "previousOwner",
          "type": "address"
        },
        {
          "indexed": true,
          "internalType": "address",
          "name": "newOwner",
          "type": "address"
        }
      ],
      "name": "OwnershipTransferred",
      "type": "event"
    },
    {
      "anonymous": false,
      "inputs": [
        {
          "indexed": false,
          "internalType": "uint256",
          "name": "_transactionId",
          "type": "uint256"
        },
        {
          "indexed": false,
          "internalType": "enum TalentLayerEscrow.PaymentType",
          "name": "_paymentType",
          "type": "uint8"
        },
        {
          "indexed": false,
          "internalType": "uint256",
          "name": "_amount",
          "type": "uint256"
        },
        {
          "indexed": false,
          "internalType": "address",
          "name": "_token",
          "type": "address"
        },
        {
          "indexed": false,
          "internalType": "uint256",
          "name": "_serviceId",
          "type": "uint256"
        }
      ],
      "name": "Payment",
      "type": "event"
    },
    {
      "anonymous": false,
      "inputs": [
        {
          "indexed": false,
          "internalType": "uint256",
          "name": "_serviceId",
          "type": "uint256"
        }
      ],
      "name": "PaymentCompleted",
      "type": "event"
    },
    {
      "anonymous": false,
      "inputs": [
        {
          "indexed": false,
          "internalType": "uint256",
          "name": "_platformId",
          "type": "uint256"
        },
        {
          "indexed": false,
          "internalType": "uint256",
          "name": "_serviceId",
          "type": "uint256"
        },
        {
          "indexed": true,
          "internalType": "address",
          "name": "_token",
          "type": "address"
        },
        {
          "indexed": false,
          "internalType": "uint256",
          "name": "_amount",
          "type": "uint256"
        }
      ],
      "name": "PlatformFeeReleased",
      "type": "event"
    },
    {
      "anonymous": false,
      "inputs": [
        {
          "indexed": false,
          "internalType": "uint16",
          "name": "_protocolEscrowFeeRate",
          "type": "uint16"
        }
      ],
      "name": "ProtocolEscrowFeeRateUpdated",
      "type": "event"
    },
    {
      "anonymous": false,
      "inputs": [
        {
          "indexed": true,
          "internalType": "contract Arbitrator",
          "name": "_arbitrator",
          "type": "address"
        },
        {
          "indexed": true,
          "internalType": "uint256",
          "name": "_disputeID",
          "type": "uint256"
        },
        {
          "indexed": false,
          "internalType": "uint256",
          "name": "_ruling",
          "type": "uint256"
        }
      ],
      "name": "Ruling",
      "type": "event"
    },
    {
      "anonymous": false,
      "inputs": [
        {
          "indexed": true,
          "internalType": "uint256",
          "name": "_transactionId",
          "type": "uint256"
        },
        {
          "indexed": false,
          "internalType": "uint256",
          "name": "_ruling",
          "type": "uint256"
        }
      ],
      "name": "RulingExecuted",
      "type": "event"
    },
    {
      "anonymous": false,
      "inputs": [
        {
          "indexed": false,
          "internalType": "uint256",
          "name": "serviceId",
          "type": "uint256"
        },
        {
          "indexed": false,
          "internalType": "uint256",
          "name": "sellerId",
          "type": "uint256"
        },
        {
          "indexed": false,
          "internalType": "uint256",
          "name": "transactionId",
          "type": "uint256"
        }
      ],
      "name": "ServiceProposalConfirmedWithDeposit",
      "type": "event"
    },
    {
      "anonymous": false,
      "inputs": [
        {
          "indexed": false,
          "internalType": "uint256",
          "name": "_transactionId",
          "type": "uint256"
        },
        {
          "indexed": false,
          "internalType": "uint256",
          "name": "_senderId",
          "type": "uint256"
        },
        {
          "indexed": false,
          "internalType": "uint256",
          "name": "_receiverId",
          "type": "uint256"
        },
        {
          "indexed": false,
          "internalType": "address",
          "name": "_token",
          "type": "address"
        },
        {
          "indexed": false,
          "internalType": "uint256",
          "name": "_amount",
          "type": "uint256"
        },
        {
          "indexed": false,
          "internalType": "uint256",
          "name": "_serviceId",
          "type": "uint256"
        },
        {
          "indexed": false,
          "internalType": "uint16",
          "name": "_protocolEscrowFeeRate",
          "type": "uint16"
        },
        {
          "indexed": false,
          "internalType": "uint16",
          "name": "_originPlatformEscrowFeeRate",
          "type": "uint16"
        },
        {
          "indexed": false,
          "internalType": "uint16",
          "name": "_platformEscrowFeeRate",
          "type": "uint16"
        },
        {
          "indexed": false,
          "internalType": "contract Arbitrator",
          "name": "_arbitrator",
          "type": "address"
        },
        {
          "indexed": false,
          "internalType": "bytes",
          "name": "_arbitratorExtraData",
          "type": "bytes"
        },
        {
          "indexed": false,
          "internalType": "uint256",
          "name": "_arbitrationFeeTimeout",
          "type": "uint256"
        }
      ],
      "name": "TransactionCreated",
      "type": "event"
    },
    {
      "inputs": [
        {
          "internalType": "uint256",
          "name": "_transactionId",
          "type": "uint256"
        }
      ],
      "name": "appeal",
      "outputs": [],
      "stateMutability": "payable",
      "type": "function"
    },
    {
      "inputs": [
        {
          "internalType": "uint256",
          "name": "_platformId",
          "type": "uint256"
        },
        {
          "internalType": "address",
          "name": "_tokenAddress",
          "type": "address"
        }
      ],
      "name": "claim",
      "outputs": [],
      "stateMutability": "nonpayable",
      "type": "function"
    },
    {
      "inputs": [
        {
          "internalType": "uint256",
          "name": "_platformId",
          "type": "uint256"
        }
      ],
      "name": "claimAll",
      "outputs": [],
      "stateMutability": "nonpayable",
      "type": "function"
    },
    {
      "inputs": [
        {
          "internalType": "string",
          "name": "_metaEvidence",
          "type": "string"
        },
        {
          "internalType": "uint256",
          "name": "_serviceId",
          "type": "uint256"
        },
        {
          "internalType": "uint256",
          "name": "_proposalId",
          "type": "uint256"
        }
      ],
      "name": "createETHTransaction",
      "outputs": [
        {
          "internalType": "uint256",
          "name": "",
          "type": "uint256"
        }
      ],
      "stateMutability": "payable",
      "type": "function"
    },
    {
      "inputs": [
        {
          "internalType": "string",
          "name": "_metaEvidence",
          "type": "string"
        },
        {
          "internalType": "uint256",
          "name": "_serviceId",
          "type": "uint256"
        },
        {
          "internalType": "uint256",
          "name": "_proposalId",
          "type": "uint256"
        }
      ],
      "name": "createTokenTransaction",
      "outputs": [
        {
          "internalType": "uint256",
          "name": "",
          "type": "uint256"
        }
      ],
      "stateMutability": "nonpayable",
      "type": "function"
    },
    {
      "inputs": [
        {
          "internalType": "uint256",
          "name": "",
          "type": "uint256"
        }
      ],
      "name": "disputeIDtoTransactionID",
      "outputs": [
        {
          "internalType": "uint256",
          "name": "",
          "type": "uint256"
        }
      ],
      "stateMutability": "view",
      "type": "function"
    },
    {
      "inputs": [
        {
          "internalType": "address",
          "name": "_token",
          "type": "address"
        }
      ],
      "name": "getClaimableFeeBalance",
      "outputs": [
        {
          "internalType": "uint256",
          "name": "balance",
          "type": "uint256"
        }
      ],
      "stateMutability": "view",
      "type": "function"
    },
    {
      "inputs": [],
      "name": "getProtocolWallet",
      "outputs": [
        {
          "internalType": "address",
          "name": "",
          "type": "address"
        }
      ],
      "stateMutability": "view",
      "type": "function"
    },
    {
      "inputs": [
        {
          "internalType": "uint256",
          "name": "_transactionId",
          "type": "uint256"
        }
      ],
      "name": "getTransactionDetails",
      "outputs": [
        {
          "components": [
            {
              "internalType": "uint256",
              "name": "id",
              "type": "uint256"
            },
            {
              "internalType": "address",
              "name": "sender",
              "type": "address"
            },
            {
              "internalType": "address",
              "name": "receiver",
              "type": "address"
            },
            {
              "internalType": "address",
              "name": "token",
              "type": "address"
            },
            {
              "internalType": "uint256",
              "name": "amount",
              "type": "uint256"
            },
            {
              "internalType": "uint256",
              "name": "serviceId",
              "type": "uint256"
            },
            {
              "internalType": "uint16",
              "name": "protocolEscrowFeeRate",
              "type": "uint16"
            },
            {
              "internalType": "uint16",
              "name": "originPlatformEscrowFeeRate",
              "type": "uint16"
            },
            {
              "internalType": "uint16",
              "name": "platformEscrowFeeRate",
              "type": "uint16"
            },
            {
              "internalType": "uint256",
              "name": "disputeId",
              "type": "uint256"
            },
            {
              "internalType": "uint256",
              "name": "senderFee",
              "type": "uint256"
            },
            {
              "internalType": "uint256",
              "name": "receiverFee",
              "type": "uint256"
            },
            {
              "internalType": "uint256",
              "name": "lastInteraction",
              "type": "uint256"
            },
            {
              "internalType": "enum TalentLayerEscrow.Status",
              "name": "status",
              "type": "uint8"
            },
            {
              "internalType": "contract Arbitrator",
              "name": "arbitrator",
              "type": "address"
            },
            {
              "internalType": "bytes",
              "name": "arbitratorExtraData",
              "type": "bytes"
            },
            {
              "internalType": "uint256",
              "name": "arbitrationFeeTimeout",
              "type": "uint256"
            }
          ],
          "internalType": "struct TalentLayerEscrow.Transaction",
          "name": "transaction",
          "type": "tuple"
        }
      ],
      "stateMutability": "view",
      "type": "function"
    },
    {
      "inputs": [],
      "name": "originPlatformEscrowFeeRate",
      "outputs": [
        {
          "internalType": "uint16",
          "name": "",
          "type": "uint16"
        }
      ],
      "stateMutability": "view",
      "type": "function"
    },
    {
      "inputs": [],
      "name": "owner",
      "outputs": [
        {
          "internalType": "address",
          "name": "",
          "type": "address"
        }
      ],
      "stateMutability": "view",
      "type": "function"
    },
    {
      "inputs": [
        {
          "internalType": "uint256",
          "name": "_transactionId",
          "type": "uint256"
        }
      ],
      "name": "payArbitrationFeeByReceiver",
      "outputs": [],
      "stateMutability": "payable",
      "type": "function"
    },
    {
      "inputs": [
        {
          "internalType": "uint256",
          "name": "_transactionId",
          "type": "uint256"
        }
      ],
      "name": "payArbitrationFeeBySender",
      "outputs": [],
      "stateMutability": "payable",
      "type": "function"
    },
    {
      "inputs": [],
      "name": "protocolEscrowFeeRate",
      "outputs": [
        {
          "internalType": "uint16",
          "name": "",
          "type": "uint16"
        }
      ],
      "stateMutability": "view",
      "type": "function"
    },
    {
      "inputs": [
        {
          "internalType": "uint256",
          "name": "_transactionId",
          "type": "uint256"
        },
        {
          "internalType": "uint256",
          "name": "_amount",
          "type": "uint256"
        }
      ],
      "name": "reimburse",
      "outputs": [],
      "stateMutability": "nonpayable",
      "type": "function"
    },
    {
      "inputs": [
        {
          "internalType": "uint256",
          "name": "_transactionId",
          "type": "uint256"
        },
        {
          "internalType": "uint256",
          "name": "_amount",
          "type": "uint256"
        }
      ],
      "name": "release",
      "outputs": [],
      "stateMutability": "nonpayable",
      "type": "function"
    },
    {
      "inputs": [],
      "name": "renounceOwnership",
      "outputs": [],
      "stateMutability": "nonpayable",
      "type": "function"
    },
    {
      "inputs": [
        {
          "internalType": "uint256",
          "name": "_disputeID",
          "type": "uint256"
        },
        {
          "internalType": "uint256",
          "name": "_ruling",
          "type": "uint256"
        }
      ],
      "name": "rule",
      "outputs": [],
      "stateMutability": "nonpayable",
      "type": "function"
    },
    {
      "inputs": [
        {
          "internalType": "uint256",
          "name": "_transactionId",
          "type": "uint256"
        },
        {
          "internalType": "string",
          "name": "_evidence",
          "type": "string"
        }
      ],
      "name": "submitEvidence",
      "outputs": [],
      "stateMutability": "nonpayable",
      "type": "function"
    },
    {
      "inputs": [
        {
          "internalType": "uint256",
          "name": "_transactionId",
          "type": "uint256"
        }
      ],
      "name": "timeOutByReceiver",
      "outputs": [],
      "stateMutability": "nonpayable",
      "type": "function"
    },
    {
      "inputs": [
        {
          "internalType": "uint256",
          "name": "_transactionId",
          "type": "uint256"
        }
      ],
      "name": "timeOutBySender",
      "outputs": [],
      "stateMutability": "nonpayable",
      "type": "function"
    },
    {
      "inputs": [
        {
          "internalType": "address",
          "name": "newOwner",
          "type": "address"
        }
      ],
      "name": "transferOwnership",
      "outputs": [],
      "stateMutability": "nonpayable",
      "type": "function"
    },
    {
      "inputs": [
        {
          "internalType": "uint16",
          "name": "_originPlatformEscrowFeeRate",
          "type": "uint16"
        }
      ],
      "name": "updateOriginPlatformEscrowFeeRate",
      "outputs": [],
      "stateMutability": "nonpayable",
      "type": "function"
    },
    {
      "inputs": [
        {
          "internalType": "uint16",
          "name": "_protocolEscrowFeeRate",
          "type": "uint16"
        }
      ],
      "name": "updateProtocolEscrowFeeRate",
      "outputs": [],
      "stateMutability": "nonpayable",
      "type": "function"
    },
    {
      "inputs": [
        {
          "internalType": "address payable",
          "name": "_protocolWallet",
          "type": "address"
        }
      ],
      "name": "updateProtocolWallet",
      "outputs": [],
      "stateMutability": "nonpayable",
      "type": "function"
    }
  ],
  "bytecode": "0x60806040523480156200001157600080fd5b5060405162004f4e38038062004f4e833981016040819052620000349162000234565b6200003f33620000aa565b600380546001600160a01b03199081166001600160a01b038681169190911790925560048054821685841617905560058054821684841617905560005460068054919093169116179055620000956064620000fa565b620000a160c86200015b565b5050506200027e565b600080546001600160a01b038381166001600160a01b0319831681178455604051919092169283917f8be0079c531659141344cd1fd0a4f28419497f9722a3daafe3b4186f6b6457e09190a35050565b62000104620001b6565b6005805461ffff60a01b1916600160a01b61ffff8416908102919091179091556040519081527f8339189e972f7fba792126e752aa8485af08710bce4a041c5bc3f9858acd7130906020015b60405180910390a150565b62000165620001b6565b6005805461ffff60b01b1916600160b01b61ffff8416908102919091179091556040519081527f78767536bf48a9e89a8872ca83b572a79c615dac76748f6e47cd07f2e5e45f4e9060200162000150565b6000546001600160a01b03163314620002155760405162461bcd60e51b815260206004820181905260248201527f4f776e61626c653a2063616c6c6572206973206e6f7420746865206f776e6572604482015260640160405180910390fd5b565b80516001600160a01b03811681146200022f57600080fd5b919050565b6000806000606084860312156200024a57600080fd5b620002558462000217565b9250620002656020850162000217565b9150620002756040850162000217565b90509250925092565b614cc0806200028e6000396000f3fe6080604052600436106101665760003560e01c80637b44cdb5116100d1578063d9562b861161008a578063eb63612d11610064578063eb63612d1461041b578063f2fde38b1461043b578063f42cadc11461045b578063fe43a9921461047b57600080fd5b8063d9562b86146103b9578063ddd5e1b2146103db578063e308a099146103fb57600080fd5b80637b44cdb5146103225780637e69b7b0146103355780638363def4146103485780638da5cb5b1461035b578063a6a7f0eb14610379578063d0d3993b1461039957600080fd5b80633de0c7ef116101235780633de0c7ef14610267578063419f648f146102875780635a34257a146102a75780636930fd2a146102dc5780636e72b452146102fa578063715018a61461030d57600080fd5b80630a1a47d61461016b5780630fa683d31461019e57806311796434146101cb5780632fbe3b03146101f8578063311a6c5614610225578063366a412014610247575b600080fd5b34801561017757600080fd5b5061018b6101863660046140bc565b61049b565b6040519081526020015b60405180910390f35b3480156101aa57600080fd5b506101be6101b93660046140d9565b610602565b6040516101959190614174565b3480156101d757600080fd5b506101e0610900565b6040516001600160a01b039091168152602001610195565b34801561020457600080fd5b5061018b6102133660046140d9565b60076020526000908152604090205481565b34801561023157600080fd5b506102456102403660046142b2565b61091a565b005b34801561025357600080fd5b506102456102623660046142b2565b610a91565b34801561027357600080fd5b506102456102823660046140d9565b610d4c565b34801561029357600080fd5b5061018b6102a2366004614409565b610ed1565b3480156102b357600080fd5b506005546102c990600160a01b900461ffff1681565b60405161ffff9091168152602001610195565b3480156102e857600080fd5b506102456102f73660046140d9565b50565b6102456103083660046140d9565b61118c565b34801561031957600080fd5b50610245611430565b6102456103303660046140d9565b611444565b6102456103433660046140d9565b6116c8565b61018b610356366004614409565b611797565b34801561036757600080fd5b506000546001600160a01b03166101e0565b34801561038557600080fd5b50610245610394366004614457565b611ad5565b3480156103a557600080fd5b506102456103b43660046144ae565b611d4c565b3480156103c557600080fd5b506005546102c990600160b01b900461ffff1681565b3480156103e757600080fd5b506102456103f63660046144cb565b611dab565b34801561040757600080fd5b506102456104163660046140bc565b611f55565b34801561042757600080fd5b506102456104363660046144ae565b611f7f565b34801561044757600080fd5b506102456104563660046140bc565b611fd7565b34801561046757600080fd5b506102456104763660046140d9565b61204d565b34801561048757600080fd5b506102456104963660046142b2565b6121d0565b6000336104b06000546001600160a01b031690565b6001600160a01b031614156104fa57506001600160a01b031660009081527fac33ff75c19e70fe83507db0d683fd3465c996598dc972688b7ace676c89077b602052604090205490565b60055460405163aa44caaf60e01b81523360048201526000916001600160a01b03169063aa44caaf9060240160206040518083038186803b15801561053e57600080fd5b505afa158015610552573d6000803e3d6000fd5b505050506040513d601f19601f8201168201806040525081019061057691906144fb565b60055460405162f577a560e81b8152600481018390529192506001600160a01b03169063f577a5009060240160006040518083038186803b1580156105ba57600080fd5b505afa1580156105ce573d6000803e3d6000fd5b5050506000918252506002602090815260408083206001600160a01b0390951683529390529190912054919050565b919050565b604080516102208101825260008082526020820181905291810182905260608082018390526080820183905260a0820183905260c0820183905260e08201839052610100820183905261012082018390526101408201839052610160820183905261018082018390526101a082018390526101c082018390526101e082015261020081019190915260015482106106b45760405162461bcd60e51b81526004016106ab90614514565b60405180910390fd5b6000600183815481106106c9576106c961454b565b60009182526020909120600e9091020160018101549091506001600160a01b0316331480610703575060028101546001600160a01b031633145b6107605760405162461bcd60e51b815260206004820152602860248201527f596f7520617265206e6f742072656c6174656420746f2074686973207472616e60448201526739b0b1ba34b7b71760c11b60648201526084016106ab565b60408051610220810182528254815260018301546001600160a01b0390811660208301526002840154811692820192909252600383015490911660608201526004808301546080830152600583015460a0830152600683015461ffff80821660c0850152620100008204811660e0850152600160201b90910416610100830152600783015461012083015260088301546101408301526009830154610160830152600a830154610180830152600b83015483916101a084019160ff169081111561082c5761082c6140f2565b600481111561083d5761083d6140f2565b8152600b82015461010090046001600160a01b03166020820152600c8201805460409092019161086c90614561565b80601f016020809104026020016040519081016040528092919081815260200182805461089890614561565b80156108e55780601f106108ba576101008083540402835291602001916108e5565b820191906000526020600020905b8154815290600101906020018083116108c857829003601f168201915b50505050508152602001600d82015481525050915050919050565b600061090a612486565b506006546001600160a01b031690565b60008281526007602052604081205460018054919291839081106109405761094061454b565b90600052602060002090600e0201905080600b0160019054906101000a90046001600160a01b03166001600160a01b0316336001600160a01b0316146109d35760405162461bcd60e51b815260206004820152602260248201527f5468652063616c6c6572206d757374206265207468652061726269747261746f604482015261391760f11b60648201526084016106ab565b6003600b82015460ff1660048111156109ee576109ee6140f2565b14610a4a5760405162461bcd60e51b815260206004820152602660248201527f54686520646973707574652068617320616c7265616479206265656e2072657360448201526537b63b32b21760d11b60648201526084016106ab565b604051838152849033907f394027a5fa6e098a1191094d1719d6929b9abc535fcc0c8f448d6a4e756222769060200160405180910390a3610a8b82846124e0565b50505050565b6001548210610ab25760405162461bcd60e51b81526004016106ab90614514565b600060018381548110610ac757610ac761454b565b600091825260209091206001600e90920201908101549091506001600160a01b03163314610b075760405162461bcd60e51b81526004016106ab9061459c565b6000600b82015460ff166004811115610b2257610b226140f2565b14610b3f5760405162461bcd60e51b81526004016106ab906145c4565b8181600401541015610b895760405162461bcd60e51b815260206004820152601360248201527224b739bab33334b1b4b2b73a10333ab732399760691b60448201526064016106ab565b81816004016000828254610b9d9190614620565b909155505060408051610220810182528254815260018301546001600160a01b0390811660208301526002840154811692820192909252600383015490911660608201526004808301546080830152600583015460a0830152600683015461ffff80821660c0850152620100008204811660e0850152600160201b90910416610100830152600783015461012083015260088301546101408301526009830154610160830152600a830154610180830152600b830154610d47929184916101a084019160ff90911690811115610c7557610c756140f2565b6004811115610c8657610c866140f2565b8152600b82015461010090046001600160a01b03166020820152600c82018054604090920191610cb590614561565b80601f0160208091040260200160405190810160405280929190818152602001828054610ce190614561565b8015610d2e5780601f10610d0357610100808354040283529160200191610d2e565b820191906000526020600020905b815481529060010190602001808311610d1157829003601f168201915b50505050508152602001600d8201548152505083612de5565b505050565b600060018281548110610d6157610d6161454b565b60009182526020909120600e9091020190506001600b82015460ff166004811115610d8e57610d8e6140f2565b14610df15760405162461bcd60e51b815260206004820152602d60248201527f546865207472616e73616374696f6e206973206e6f742077616974696e67206f60448201526c37103a34329039b2b73232b91760991b60648201526084016106ab565b600d810154600a820154610e059042614620565b1015610e535760405162461bcd60e51b815260206004820181905260248201527f54696d656f75742074696d6520686173206e6f7420706173736564207965742e60448201526064016106ab565b600881015415610ec257600881018054600091829055600183015460405191926001600160a01b0390911691839181818185875af1925050503d8060008114610eb8576040519150601f19603f3d011682016040523d82523d6000602084013e610ebd565b606091505b505050505b610ecd8260026124e0565b5050565b6000610edb613f8f565b610ee3613fc8565b600080610ef08787613172565b60055460e0840151604051630b7a459360e31b8152600481019190915294985092965090945092506000916001600160a01b0390911690635bd22c989060240160006040518083038186803b158015610f4857600080fd5b505afa158015610f5c573d6000803e3d6000fd5b505050506040513d6000823e601f3d908101601f19168201604052610f84919081019061469a565b90506000610f9e8660600151836060015161ffff166132b6565b9050336001600160a01b03851614610fc85760405162461bcd60e51b81526004016106ab9061459c565b600485516004811115610fdd57610fdd6140f2565b146110255760405162461bcd60e51b815260206004820152601860248201527729b2b93b34b1b29039ba30ba3ab9903737ba1037b832b71760411b60448201526064016106ab565b60008651600281111561103a5761103a6140f2565b146110875760405162461bcd60e51b815260206004820152601c60248201527f50726f706f73616c20737461747573206e6f742070656e64696e672e0000000060448201526064016106ab565b878660200151146110d35760405162461bcd60e51b815260206004820152601660248201527524b731b7b93932b1ba10383937b837b9b0b61024a21760511b60448201526064016106ab565b60006110f38a8a856060015186608001518760a001518860c00151613324565b6003546040516353eaf57560e11b8152600481018d9052602481018c9052604481018390529192506001600160a01b03169063a7d5eaea90606401600060405180830381600087803b15801561114857600080fd5b505af115801561115c573d6000803e3d6000fd5b5050505061116f858860400151846135d0565b61117e818c896020015161369d565b9a9950505050505050505050565b6000600182815481106111a1576111a161454b565b60009182526020909120600b600e909202019081015490915061010090046001600160a01b03166111e45760405162461bcd60e51b81526004016106ab90614788565b6003600b82015460ff1660048111156111ff576111ff6140f2565b1061121c5760405162461bcd60e51b81526004016106ab906147b5565b60028101546001600160a01b031633146112785760405162461bcd60e51b815260206004820181905260248201527f5468652063616c6c6572206d757374206265207468652072656365697665722e60448201526064016106ab565b600b81015460405163f7434ea960e01b815260009161010090046001600160a01b03169063f7434ea9906112b390600c8601906004016148c9565b60206040518083038186803b1580156112cb57600080fd5b505afa1580156112df573d6000803e3d6000fd5b505050506040513d601f19601f8201168201806040525081019061130391906144fb565b90503482600901600082825461131991906148dc565b9091555050600982015481146113975760405162461bcd60e51b815260206004820152603760248201527f54686520726563656976657220666565206d75737420626520657175616c207460448201527f6f20746865206172626974726174696f6e20636f73742e00000000000000000060648201526084016106ab565b42600a8301556040518390600080516020614c6b833981519152906113c3906000906001903490614904565b60405180910390a2808260080154101561142657600b8201805460ff1916600117905560405183907fc74b9f7dedf2887cd3c113b6d8da9cea19e55c1116e25f1f0e1b72d7543179b5906114199060009061492e565b60405180910390a2505050565b610d478382613916565b611438612486565b6114426000613b95565b565b6000600182815481106114595761145961454b565b60009182526020909120600b600e909202019081015490915061010090046001600160a01b031661149c5760405162461bcd60e51b81526004016106ab90614788565b6003600b82015460ff1660048111156114b7576114b76140f2565b106114d45760405162461bcd60e51b81526004016106ab906147b5565b60018101546001600160a01b031633146115305760405162461bcd60e51b815260206004820152601e60248201527f5468652063616c6c6572206d757374206265207468652073656e6465722e000060448201526064016106ab565b600b81015460405163f7434ea960e01b815260009161010090046001600160a01b03169063f7434ea99061156b90600c8601906004016148c9565b60206040518083038186803b15801561158357600080fd5b505afa158015611597573d6000803e3d6000fd5b505050506040513d601f19601f820116820180604052508101906115bb91906144fb565b9050348260080160008282546115d191906148dc565b9091555050600882015481146116475760405162461bcd60e51b815260206004820152603560248201527f5468652073656e64657220666565206d75737420626520657175616c20746f206044820152743a34329030b93134ba3930ba34b7b71031b7b9ba1760591b60648201526084016106ab565b42600a8301556040518390600080516020614c6b833981519152906116729060009081903490614904565b60405180910390a2808260090154101561142657600b8201805460ff1916600217905560405183907fc74b9f7dedf2887cd3c113b6d8da9cea19e55c1116e25f1f0e1b72d7543179b5906114199060019061492e565b6000600182815481106116dd576116dd61454b565b60009182526020909120600b600e909202019081015490915061010090046001600160a01b03166117205760405162461bcd60e51b81526004016106ab90614788565b600b810154600782015460405163093225f160e31b81526101009092046001600160a01b0316916349912f889134916117619190600c870190600401614941565b6000604051808303818588803b15801561177a57600080fd5b505af115801561178e573d6000803e3d6000fd5b50505050505050565b60006117a1613f8f565b6117a9613fc8565b6000806117b68787613172565b60055460e0840151604051630b7a459360e31b8152600481019190915294985092965090945092506000916001600160a01b0390911690635bd22c989060240160006040518083038186803b15801561180e57600080fd5b505afa158015611822573d6000803e3d6000fd5b505050506040513d6000823e601f3d908101601f1916820160405261184a919081019061469a565b905060006118648660600151836060015161ffff166132b6565b9050336001600160a01b0385161461188e5760405162461bcd60e51b81526004016106ab9061459c565b8034146118d35760405162461bcd60e51b81526020600482015260136024820152722737b716b6b0ba31b434b73390333ab732399760691b60448201526064016106ab565b60408601516001600160a01b03161561192e5760405162461bcd60e51b815260206004820152601760248201527f50726f706f73616c20746f6b656e206e6f74204554482e00000000000000000060448201526064016106ab565b8786602001511461197a5760405162461bcd60e51b815260206004820152601660248201527524b731b7b93932b1ba10383937b837b9b0b61024a21760511b60448201526064016106ab565b60048551600481111561198f5761198f6140f2565b146119d75760405162461bcd60e51b815260206004820152601860248201527729b2b93b34b1b29039ba30ba3ab9903737ba1037b832b71760411b60448201526064016106ab565b6000865160028111156119ec576119ec6140f2565b14611a395760405162461bcd60e51b815260206004820152601c60248201527f50726f706f73616c20737461747573206e6f742070656e64696e672e0000000060448201526064016106ab565b6000611a598a8a856060015186608001518760a001518860c00151613324565b6003546040516353eaf57560e11b8152600481018d9052602481018c9052604481018390529192506001600160a01b03169063a7d5eaea90606401600060405180830381600087803b158015611aae57600080fd5b505af1158015611ac2573d6000803e3d6000fd5b5050505061117e818c896020015161369d565b600060018381548110611aea57611aea61454b565b60009182526020909120600b600e909202019081015490915061010090046001600160a01b0316611b2d5760405162461bcd60e51b81526004016106ab90614788565b60018101546001600160a01b0316331480611b54575060028101546001600160a01b031633145b611bb75760405162461bcd60e51b815260206004820152602e60248201527f5468652063616c6c6572206d757374206265207468652073656e646572206f7260448201526d103a3432903932b1b2b4bb32b91760911b60648201526084016106ab565b6004600b82015460ff166004811115611bd257611bd26140f2565b10611c3a5760405162461bcd60e51b815260206004820152603260248201527f4d757374206e6f742073656e642065766964656e63652069662074686520646960448201527139b83aba329034b9903932b9b7b63b32b21760711b60648201526084016106ab565b600b810154604051339185916101009091046001600160a01b0316907fdccf2f8b2cc26eafcd61905cba744cff4b81d14740725f6376390dc6298a6a3c90611c8390879061495a565b60405180910390a46004805460405162438b6360e81b815233928101929092526000916001600160a01b039091169063438b63009060240160206040518083038186803b158015611cd357600080fd5b505afa158015611ce7573d6000803e3d6000fd5b505050506040513d601f19601f82011682018060405250810190611d0b91906144fb565b905080847fd998ce0f89c38b0f93256f0b843a404a3a3c5055b75265623f7cb9c369a1dd6285604051611d3e919061495a565b60405180910390a350505050565b611d54612486565b6005805461ffff60b01b1916600160b01b61ffff8416908102919091179091556040519081527f78767536bf48a9e89a8872ca83b572a79c615dac76748f6e47cd07f2e5e45f4e906020015b60405180910390a150565b600033611dc06000546001600160a01b031690565b6001600160a01b03161415611dff578215611ded5760405162461bcd60e51b81526004016106ab9061459c565b506006546001600160a01b0316611ed9565b60055460405162f577a560e81b8152600481018590526001600160a01b039091169063f577a5009060240160006040518083038186803b158015611e4257600080fd5b505afa158015611e56573d6000803e3d6000fd5b50506005546040516331a9108f60e11b8152600481018790526001600160a01b039091169250636352211e915060240160206040518083038186803b158015611e9e57600080fd5b505afa158015611eb2573d6000803e3d6000fd5b505050506040513d601f19601f82011682018060405250810190611ed6919061496d565b90505b60008381526002602090815260408083206001600160a01b038616845290915281208054919055611f0b828483613be5565b60408051858152602081018390526001600160a01b038516917f2227733fc4c8a9034cb58087dcf6995128b9c0233b038b03366aaf30c92b92d6910160405180910390a250505050565b611f5d612486565b600680546001600160a01b0319166001600160a01b0392909216919091179055565b611f87612486565b6005805461ffff60a01b1916600160a01b61ffff8416908102919091179091556040519081527f8339189e972f7fba792126e752aa8485af08710bce4a041c5bc3f9858acd713090602001611da0565b611fdf612486565b6001600160a01b0381166120445760405162461bcd60e51b815260206004820152602660248201527f4f776e61626c653a206e6577206f776e657220697320746865207a65726f206160448201526564647265737360d01b60648201526084016106ab565b6102f781613b95565b6000600182815481106120625761206261454b565b60009182526020909120600e9091020190506002600b82015460ff16600481111561208f5761208f6140f2565b146120f45760405162461bcd60e51b815260206004820152602f60248201527f546865207472616e73616374696f6e206973206e6f742077616974696e67206f60448201526e37103a3432903932b1b2b4bb32b91760891b60648201526084016106ab565b600d810154600a8201546121089042614620565b10156121565760405162461bcd60e51b815260206004820181905260248201527f54696d656f75742074696d6520686173206e6f7420706173736564207965742e60448201526064016106ab565b6009810154156121c557600981018054600091829055600283015460405191926001600160a01b0390911691839181818185875af1925050503d80600081146121bb576040519150601f19603f3d011682016040523d82523d6000602084013e6121c0565b606091505b505050505b610ecd8260016124e0565b60015482106121f15760405162461bcd60e51b81526004016106ab90614514565b6000600183815481106122065761220661454b565b600091825260209091206002600e90920201908101549091506001600160a01b031633146122465760405162461bcd60e51b81526004016106ab9061459c565b6000600b82015460ff166004811115612261576122616140f2565b1461227e5760405162461bcd60e51b81526004016106ab906145c4565b81816004015410156122c85760405162461bcd60e51b815260206004820152601360248201527224b739bab33334b1b4b2b73a10333ab732399760691b60448201526064016106ab565b818160040160008282546122dc9190614620565b909155505060408051610220810182528254815260018301546001600160a01b0390811660208301526002840154811692820192909252600383015490911660608201526004808301546080830152600583015460a0830152600683015461ffff80821660c0850152620100008204811660e0850152600160201b90910416610100830152600783015461012083015260088301546101408301526009830154610160830152600a830154610180830152600b830154610d47929184916101a084019160ff909116908111156123b4576123b46140f2565b60048111156123c5576123c56140f2565b8152600b82015461010090046001600160a01b03166020820152600c820180546040909201916123f490614561565b80601f016020809104026020016040519081016040528092919081815260200182805461242090614561565b801561246d5780601f106124425761010080835404028352916020019161246d565b820191906000526020600020905b81548152906001019060200180831161245057829003601f168201915b50505050508152602001600d8201548152505083613cab565b6000546001600160a01b031633146114425760405162461bcd60e51b815260206004820181905260248201527f4f776e61626c653a2063616c6c6572206973206e6f7420746865206f776e657260448201526064016106ab565b6000600183815481106124f5576124f561454b565b90600052602060002090600e02019050600260ff1682111561254b5760405162461bcd60e51b815260206004820152600f60248201526e24b73b30b634b210393ab634b7339760891b60448201526064016106ab565b6001818101546002830154600480850180546008870180546009890180546000958690559285905593909355600b8801805460ff19169094179093556001600160a01b0394851695949093169390919087141561279a576040516001600160a01b038616908390600081818185875af1925050503d80600081146125eb576040519150601f19603f3d011682016040523d82523d6000602084013e6125f0565b606091505b505060408051610220810182528854815260018901546001600160a01b03908116602083015260028a0154811692820192909252600389015490911660608201526004808901546080830152600589015460a0830152600689015461ffff80821660c0850152620100008204811660e0850152600160201b90910416610100830152600789015461012083015260088901546101408301526009890154610160830152600a890154610180830152600b890154612795935089916101a084019160ff16908111156126c3576126c36140f2565b60048111156126d4576126d46140f2565b8152600b82015461010090046001600160a01b03166020820152600c8201805460409092019161270390614561565b80601f016020809104026020016040519081016040528092919081815260200182805461272f90614561565b801561277c5780601f106127515761010080835404028352916020019161277c565b820191906000526020600020905b81548152906001019060200180831161275f57829003601f168201915b50505050508152602001600d8201548152505084613cab565b612da1565b6002871415612996576040516001600160a01b038516908290600081818185875af1925050503d80600081146127ec576040519150601f19603f3d011682016040523d82523d6000602084013e6127f1565b606091505b505060408051610220810182528854815260018901546001600160a01b03908116602083015260028a0154811692820192909252600389015490911660608201526004808901546080830152600589015460a0830152600689015461ffff80821660c0850152620100008204811660e0850152600160201b90910416610100830152600789015461012083015260088901546101408301526009890154610160830152600a890154610180830152600b890154612795935089916101a084019160ff16908111156128c4576128c46140f2565b60048111156128d5576128d56140f2565b8152600b82015461010090046001600160a01b03166020820152600c8201805460409092019161290490614561565b80601f016020809104026020016040519081016040528092919081815260200182805461293090614561565b801561297d5780601f106129525761010080835404028352916020019161297d565b820191906000526020600020905b81548152906001019060200180831161296057829003601f168201915b50505050508152602001600d8201548152505084612de5565b60006129a360028461498a565b905060006129b260028661498a565b60408051610220810182528a54815260018b01546001600160a01b03908116602083015260028c015481169282019290925260038b015490911660608201526004808b0154608083015260058b015460a083015260068b015461ffff80821660c0850152620100008204811660e0850152600160201b9091041661010083015260078b015461012083015260088b015461014083015260098b0154610160830152600a8b0154610180830152600b8b0154929350612b57928b916101a084019160ff1690811115612a8557612a856140f2565b6004811115612a9657612a966140f2565b8152600b82015461010090046001600160a01b03166020820152600c82018054604090920191612ac590614561565b80601f0160208091040260200160405190810160405280929190818152602001828054612af190614561565b8015612b3e5780601f10612b1357610100808354040283529160200191612b3e565b820191906000526020600020905b815481529060010190602001808311612b2157829003601f168201915b50505050508152602001600d8201548152505082613cab565b60408051610220810182528954815260018a01546001600160a01b03908116602083015260028b015481169282019290925260038a015490911660608201526004808a0154608083015260058a015460a083015260068a015461ffff80821660c0850152620100008204811660e0850152600160201b9091041661010083015260078a015461012083015260088a015461014083015260098a0154610160830152600a8a0154610180830152600b8a0154612cfc92918b916101a084019160ff90911690811115612c2a57612c2a6140f2565b6004811115612c3b57612c3b6140f2565b8152600b82015461010090046001600160a01b03166020820152600c82018054604090920191612c6a90614561565b80601f0160208091040260200160405190810160405280929190818152602001828054612c9690614561565b8015612ce35780601f10612cb857610100808354040283529160200191612ce3565b820191906000526020600020905b815481529060010190602001808311612cc657829003601f168201915b50505050508152602001600d8201548152505082612de5565b6040516001600160a01b038816908390600081818185875af1925050503d8060008114612d45576040519150601f19603f3d011682016040523d82523d6000602084013e612d4a565b606091505b50506040516001600160a01b03881691508390600081818185875af1925050503d8060008114612d96576040519150601f19603f3d011682016040523d82523d6000602084013e612d9b565b606091505b50505050505b877f76b363d70472d47d20e4119f3625c05ed37ca51b1d9e1cd8b87d8c20530640f388604051612dd391815260200190565b60405180910390a25050505050505050565b60035460a083015160405163ef0e239b60e01b815260048101919091526000916001600160a01b03169063ef0e239b9060240160006040518083038186803b158015612e3057600080fd5b505afa158015612e44573d6000803e3d6000fd5b505050506040513d6000823e601f3d908101601f19168201604052612e6c91908101906149bb565b600480546040868101519051630b89606960e31b81526001600160a01b03918216938101939093529293506000921690635c4b03489060240160206040518083038186803b158015612ebd57600080fd5b505afa158015612ed1573d6000803e3d6000fd5b505050506040513d601f19601f82011682018060405250810190612ef591906144fb565b60e083015160c08601519192509060009061271090612f1990879061ffff16614a79565b612f23919061498a565b9050600061271061ffff16868860e0015161ffff16612f429190614a79565b612f4c919061498a565b9050600061271061ffff168789610100015161ffff16612f6c9190614a79565b612f76919061498a565b60008080526002602090815260608b01516001600160a01b031682527fac33ff75c19e70fe83507db0d683fd3465c996598dc972688b7ace676c89077b90526040812080549293508592909190612fce9084906148dc565b9091555050600085815260026020908152604080832060608c01516001600160a01b03168452909152812080548492906130099084906148dc565b9091555050600084815260026020908152604080832060608c01516001600160a01b03168452909152812080548392906130449084906148dc565b9250508190555061305e8860400151896060015189613d6e565b60608089015160a08a015160408051898152602081019290925281018590526001600160a01b03909116917f4295737fccf6c9fdb5562d08f53f32ea89040cee8648445f14b63e74ef2340c8910160405180910390a260608089015160a08a015160408051888152602081019290925281018490526001600160a01b03909116917ffb0b45a94ba5e6f6a5787f24ec1cca93129f52cb56ee72ce395736266051152e910160405180910390a27f7eb4d07819d8300e8f1d0a2a11814657be694ee6dbfd0208fdabed36a19e954f88600001516000898b606001518c60a0015160405161314e959493929190614a98565b60405180910390a16131688860a001518960800151613dd2565b5050505050505050565b61317a613f8f565b613182613fc8565b60008060006131918787613e72565b9050600061319e88613f01565b6004805460208301516040516331a9108f60e11b8152928301529192506000916001600160a01b031690636352211e9060240160206040518083038186803b1580156131e957600080fd5b505afa1580156131fd573d6000803e3d6000fd5b505050506040513d601f19601f82011682018060405250810190613221919061496d565b6004805460208601516040516331a9108f60e11b8152928301529192506000916001600160a01b031690636352211e9060240160206040518083038186803b15801561326c57600080fd5b505afa158015613280573d6000803e3d6000fd5b505050506040513d601f19601f820116820180604052508101906132a4919061496d565b939a9299509097509195509350505050565b60006127106132c58385614a79565b6005546132dd90600160b01b900461ffff1686614a79565b6005546132f590600160a01b900461ffff1687614a79565b6132ff91906148dc565b61330991906148dc565b613313919061498a565b61331d90846148dc565b9392505050565b600061332e613f8f565b613336613fc8565b6000806133438b8b613172565b80945081955082965083975050505050600060018054905090506001604051806102200160405280838152602001856001600160a01b03168152602001846001600160a01b0316815260200187604001516001600160a01b03168152602001876060015181526020018e8152602001600560149054906101000a900461ffff1661ffff168152602001600560169054906101000a900461ffff1661ffff1681526020018c61ffff1681526020016000815260200160008152602001600081526020014281526020016000600481111561341e5761341e6140f2565b81526001600160a01b03808d1660208084019190915260408084018e905260609384018d90528554600181810188556000978852968390208651600e909202019081559185015182870180549185166001600160a01b03199283161790559085015160028301805491851691831691909117905592840151600382018054919093169316929092179055608082015160048083019190915560a0830151600583015560c083015160068301805460e086015161010087015161ffff908116600160201b0265ffff0000000019928216620100000263ffffffff1990941691909516179190911716919091179055610120830151600783015561014083015160088301556101608301516009830155610180830151600a8301556101a0830151600b83018054949593949193909260ff19909216918490811115613563576135636140f2565b02179055506101c0820151600b820180546001600160a01b0390921661010002610100600160a81b03199092169190911790556101e082015180516135b291600c84019160209091019061400e565b506102009190910151600d909101559b9a5050505050505050505050565b6040516323b872dd60e01b81526001600160a01b038481166004830152306024830152604482018390528316906323b872dd90606401602060405180830381600087803b15801561362057600080fd5b505af1158015613634573d6000803e3d6000fd5b505050506040513d601f19601f820116820180604052508101906136589190614ad4565b610d475760405162461bcd60e51b8152602060048201526016602482015275151c985b9cd9995c881b5d5cdd081b9bdd0819985a5b60521b60448201526064016106ab565b6000600184815481106136b2576136b261454b565b60009182526020822060048054600e93909302909101600181015460405162438b6360e81b81526001600160a01b03918216938101939093529094509091169063438b63009060240160206040518083038186803b15801561371357600080fd5b505afa158015613727573d6000803e3d6000fd5b505050506040513d601f19601f8201168201806040525081019061374b91906144fb565b60048054600285015460405162438b6360e81b81526001600160a01b0391821693810193909352929350600092169063438b63009060240160206040518083038186803b15801561379b57600080fd5b505afa1580156137af573d6000803e3d6000fd5b505050506040513d601f19601f820116820180604052508101906137d391906144fb565b90507f1ccb16db9d1499f0b4e030d49bd6575a6ac51f3970af8752ac277fdf4505763b8683838660030160009054906101000a90046001600160a01b031687600401548860050154600560149054906101000a900461ffff16600560169054906101000a900461ffff168b60060160049054906101000a900461ffff168c600b0160019054906101000a90046001600160a01b03168d600c018e600d01546040516138899c9b9a99989796959493929190614af6565b60405180910390a1857f61606860eb6c87306811e2695215385101daab53bd6ab4e9f9049aead9363c7d866040516138c1919061495a565b60405180910390a26005830154604080519182526020820186905281018790527fffc7643b52fc7134d23e37eac3c5c4bdad5cf04655528f24663504e15adc4a4a9060600160405180910390a1505050505050565b60006001838154811061392b5761392b61454b565b60009182526020909120600b600e90920201908101805460ff19166003179081905560405163c13517e160e01b81529192506001600160a01b036101009091041690819063c13517e190859061398b90600290600c880190600401614b7d565b6020604051808303818588803b1580156139a457600080fd5b505af11580156139b8573d6000803e3d6000fd5b50505050506040513d601f19601f820116820180604052508101906139dd91906144fb565b600783810182815560009283526020918252604092839020879055548251878152918201879052916001600160a01b038416917f74baab670a4015ab2f1b467c5252a96141a2573f2908e58a92081e80d3cfde3d910160405180910390a38282600801541115613ae6576000838360080154613a599190614620565b6008840185905560018401546040519192506001600160a01b0316908290600081818185875af1925050503d8060008114613ab0576040519150601f19603f3d011682016040523d82523d6000602084013e613ab5565b606091505b50505084600080516020614c6b8339815191526001600034604051613adc93929190614904565b60405180910390a2505b8282600901541115610a8b576000838360090154613b049190614620565b6009840185905560028401546040519192506001600160a01b0316908290600081818185875af1925050503d8060008114613b5b576040519150601f19603f3d011682016040523d82523d6000602084013e613b60565b606091505b50505084600080516020614c6b83398151915260018034604051613b8693929190614904565b60405180910390a25050505050565b600080546001600160a01b038381166001600160a01b0319831681178455604051919092169283917f8be0079c531659141344cd1fd0a4f28419497f9722a3daafe3b4186f6b6457e09190a35050565b6001600160a01b038216613c29576040516001600160a01b0384169082156108fc029083906000818181858888f19350505050158015610a8b573d6000803e3d6000fd5b60405163a9059cbb60e01b81526001600160a01b0384811660048301526024820183905283169063a9059cbb90604401602060405180830381600087803b158015613c7357600080fd5b505af1158015613c87573d6000803e3d6000fd5b505050506040513d601f19601f82011682018060405250810190610a8b9190614ad4565b600061271061ffff16828461010001518560e001518660c00151613ccf9190614b99565b613cd99190614b99565b61ffff16613ce79190614a79565b613cf1919061498a565b613cfb90836148dc565b9050613d108360200151846060015183613d6e565b7f7eb4d07819d8300e8f1d0a2a11814657be694ee6dbfd0208fdabed36a19e954f836000015160018486606001518760a00151604051613d54959493929190614a98565b60405180910390a1610d478360a001518460800151613dd2565b6001600160a01b038216613c29576040516001600160a01b038416908290600081818185875af1925050503d8060008114613dc5576040519150601f19603f3d011682016040523d82523d6000602084013e613dca565b606091505b505050505050565b80610ecd57600354604051631271956760e21b8152600481018490526001600160a01b03909116906349c6559c90602401600060405180830381600087803b158015613e1d57600080fd5b505af1158015613e31573d6000803e3d6000fd5b505050507f6bef1b5e95b741d6e665eb9b5c2d3e1203c46a771451055a9d41e0b8ff4510b782604051613e6691815260200190565b60405180910390a15050565b613e7a613f8f565b60035460405163aba2100960e01b815260048101859052602481018490526001600160a01b039091169063aba210099060440160006040518083038186803b158015613ec557600080fd5b505afa158015613ed9573d6000803e3d6000fd5b505050506040513d6000823e601f3d908101601f1916820160405261331d9190810190614bbf565b613f09613fc8565b60035460405163ef0e239b60e01b8152600481018490526001600160a01b039091169063ef0e239b9060240160006040518083038186803b158015613f4d57600080fd5b505afa158015613f61573d6000803e3d6000fd5b505050506040513d6000823e601f3d908101601f19168201604052613f8991908101906149bb565b92915050565b6040805160a0810190915280600081526020016000815260200160006001600160a01b0316815260200160008152602001606081525090565b6040805161010081019091528060008152602001600081526020016000815260200160008152602001606081526020016000815260200160008152602001600081525090565b82805461401a90614561565b90600052602060002090601f01602090048101928261403c5760008555614082565b82601f1061405557805160ff1916838001178555614082565b82800160010185558215614082579182015b82811115614082578251825591602001919060010190614067565b5061408e929150614092565b5090565b5b8082111561408e5760008155600101614093565b6001600160a01b03811681146102f757600080fd5b6000602082840312156140ce57600080fd5b813561331d816140a7565b6000602082840312156140eb57600080fd5b5035919050565b634e487b7160e01b600052602160045260246000fd5b60058110614118576141186140f2565b9052565b60005b8381101561413757818101518382015260200161411f565b83811115610a8b5750506000910152565b6000815180845261416081602086016020860161411c565b601f01601f19169290920160200192915050565b60208152815160208201526000602083015161419b60408401826001600160a01b03169052565b5060408301516001600160a01b03811660608401525060608301516001600160a01b038116608084015250608083015160a083015260a083015160c083015260c08301516141ef60e084018261ffff169052565b5060e08301516101006142078185018361ffff169052565b840151905061012061421e8482018361ffff169052565b8401516101408481019190915284015161016080850191909152840151610180808501919091528401516101a08085019190915284015190506101c061426681850183614108565b84015190506101e0614282848201836001600160a01b03169052565b8085015191505061022061020081818601526142a2610240860184614148565b9501519301929092525090919050565b600080604083850312156142c557600080fd5b50508035926020909101359150565b634e487b7160e01b600052604160045260246000fd5b60405160e0810167ffffffffffffffff8111828210171561430d5761430d6142d4565b60405290565b604051610100810167ffffffffffffffff8111828210171561430d5761430d6142d4565b60405160a0810167ffffffffffffffff8111828210171561430d5761430d6142d4565b604051601f8201601f1916810167ffffffffffffffff81118282101715614383576143836142d4565b604052919050565b600067ffffffffffffffff8211156143a5576143a56142d4565b50601f01601f191660200190565b600082601f8301126143c457600080fd5b81356143d76143d28261438b565b61435a565b8181528460208386010111156143ec57600080fd5b816020850160208301376000918101602001919091529392505050565b60008060006060848603121561441e57600080fd5b833567ffffffffffffffff81111561443557600080fd5b614441868287016143b3565b9660208601359650604090950135949350505050565b6000806040838503121561446a57600080fd5b82359150602083013567ffffffffffffffff81111561448857600080fd5b614494858286016143b3565b9150509250929050565b61ffff811681146102f757600080fd5b6000602082840312156144c057600080fd5b813561331d8161449e565b600080604083850312156144de57600080fd5b8235915060208301356144f0816140a7565b809150509250929050565b60006020828403121561450d57600080fd5b5051919050565b6020808252601b908201527f4e6f7420612076616c6964207472616e73616374696f6e2069642e0000000000604082015260600190565b634e487b7160e01b600052603260045260246000fd5b600181811c9082168061457557607f821691505b6020821081141561459657634e487b7160e01b600052602260045260246000fd5b50919050565b6020808252600e908201526d20b1b1b2b9b9903232b734b2b21760911b604082015260600190565b60208082526026908201527f546865207472616e73616374696f6e2073686f756c646e277420626520646973604082015265383aba32b21760d11b606082015260800190565b634e487b7160e01b600052601160045260246000fd5b6000828210156146325761463261460a565b500390565b600082601f83011261464857600080fd5b81516146566143d28261438b565b81815284602083860101111561466b57600080fd5b61467c82602083016020870161411c565b949350505050565b80516105fd8161449e565b80516105fd816140a7565b6000602082840312156146ac57600080fd5b815167ffffffffffffffff808211156146c457600080fd5b9083019060e082860312156146d857600080fd5b6146e06142ea565b825181526020830151828111156146f657600080fd5b61470287828601614637565b60208301525060408301518281111561471a57600080fd5b61472687828601614637565b60408301525061473860608401614684565b60608201526147496080840161468f565b608082015260a08301518281111561476057600080fd5b61476c87828601614637565b60a08301525060c083015160c082015280935050505092915050565b60208082526013908201527220b93134ba3930ba37b9103737ba1039b2ba1760691b604082015260600190565b6020808252604e908201527f446973707574652068617320616c7265616479206265656e206372656174656460408201527f206f72206265636175736520746865207472616e73616374696f6e206861732060608201526d3132b2b71032bc32b1baba32b21760911b608082015260a00190565b8054600090600181811c908083168061484357607f831692505b602080841082141561486557634e487b7160e01b600052602260045260246000fd5b838852602088018280156148805760018114614891576148bc565b60ff198716825282820197506148bc565b60008981526020902060005b878110156148b65781548482015290860190840161489d565b83019850505b5050505050505092915050565b60208152600061331d6020830184614829565b600082198211156148ef576148ef61460a565b500190565b600281106102f7576102f76140f2565b60608101614911856148f4565b84825261491d846148f4565b602082019390935260400152919050565b6020810161493b836148f4565b91905290565b82815260406020820152600061467c6040830184614829565b60208152600061331d6020830184614148565b60006020828403121561497f57600080fd5b815161331d816140a7565b6000826149a757634e487b7160e01b600052601260045260246000fd5b500490565b8051600581106105fd57600080fd5b6000602082840312156149cd57600080fd5b815167ffffffffffffffff808211156149e557600080fd5b9083019061010082860312156149fa57600080fd5b614a02614313565b614a0b836149ac565b8152602083015160208201526040830151604082015260608301516060820152608083015182811115614a3d57600080fd5b614a4987828601614637565b60808301525060a083015160a082015260c083015160c082015260e083015160e082015280935050505092915050565b6000816000190483118215151615614a9357614a9361460a565b500290565b85815260a08101614aa8866148f4565b602082019590955260408101939093526001600160a01b03919091166060830152608090910152919050565b600060208284031215614ae657600080fd5b8151801515811461331d57600080fd5b8c8152602081018c9052604081018b90526001600160a01b038a81166060830152608082018a905260a0820189905261ffff88811660c084015287811660e0840152861661010083015284166101208201526101806101408201819052600090614b6283820186614829565b915050826101608301529d9c50505050505050505050505050565b60ff8316815260406020820152600061467c6040830184614829565b600061ffff808316818516808303821115614bb657614bb661460a565b01949350505050565b600060208284031215614bd157600080fd5b815167ffffffffffffffff80821115614be957600080fd5b9083019060a08286031215614bfd57600080fd5b614c05614337565b825160038110614c1457600080fd5b8152602083810151908201526040830151614c2e816140a7565b604082015260608381015190820152608083015182811115614c4f57600080fd5b614c5b87828601614637565b6080830152509594505050505056fe73e533bc8a993eccbc1023beebad0020f6b6c3639f83062f00fc194b4d1172baa2646970667358221220ad29ec9a1e75e90b394d86f16969abd501ec1bf5146dbea45e7b7d89cbd9d3d164736f6c63430008090033",
  "linkReferences": {},
  "deployedLinkReferences": {}
}