{
  "_format": "hh-sol-artifact-1",
  "contractName": "TalentLayerEscrow",
  "sourceName": "contracts/TalentLayerEscrow.sol",
  "abi": [
    {
      "inputs": [],
      "stateMutability": "nonpayable",
      "type": "constructor"
    },
    {
      "anonymous": false,
      "inputs": [
        {
          "indexed": false,
          "internalType": "address",
          "name": "previousAdmin",
          "type": "address"
        },
        {
          "indexed": false,
          "internalType": "address",
          "name": "newAdmin",
          "type": "address"
        }
      ],
      "name": "AdminChanged",
      "type": "event"
    },
    {
      "anonymous": false,
      "inputs": [
        {
          "indexed": true,
          "internalType": "uint256",
          "name": "_transactionId",
          "type": "uint256"
        },
        {
          "indexed": false,
          "internalType": "enum TalentLayerEscrow.ArbitrationFeePaymentType",
          "name": "_paymentType",
          "type": "uint8"
        },
        {
          "indexed": false,
          "internalType": "enum TalentLayerEscrow.Party",
          "name": "_party",
          "type": "uint8"
        },
        {
          "indexed": false,
          "internalType": "uint256",
          "name": "_amount",
          "type": "uint256"
        }
      ],
      "name": "ArbitrationFeePayment",
      "type": "event"
    },
    {
      "anonymous": false,
      "inputs": [
        {
          "indexed": true,
          "internalType": "address",
          "name": "beacon",
          "type": "address"
        }
      ],
      "name": "BeaconUpgraded",
      "type": "event"
    },
    {
      "anonymous": false,
      "inputs": [
        {
          "indexed": true,
          "internalType": "contract Arbitrator",
          "name": "_arbitrator",
          "type": "address"
        },
        {
          "indexed": true,
          "internalType": "uint256",
          "name": "_disputeID",
          "type": "uint256"
        },
        {
          "indexed": false,
          "internalType": "uint256",
          "name": "_metaEvidenceID",
          "type": "uint256"
        },
        {
          "indexed": false,
          "internalType": "uint256",
          "name": "_evidenceGroupID",
          "type": "uint256"
        }
      ],
      "name": "Dispute",
      "type": "event"
    },
    {
      "anonymous": false,
      "inputs": [
        {
          "indexed": true,
          "internalType": "contract Arbitrator",
          "name": "_arbitrator",
          "type": "address"
        },
        {
          "indexed": true,
          "internalType": "uint256",
          "name": "_evidenceGroupID",
          "type": "uint256"
        },
        {
          "indexed": true,
          "internalType": "address",
          "name": "_party",
          "type": "address"
        },
        {
          "indexed": false,
          "internalType": "string",
          "name": "_evidence",
          "type": "string"
        }
      ],
      "name": "Evidence",
      "type": "event"
    },
    {
      "anonymous": false,
      "inputs": [
        {
          "indexed": true,
          "internalType": "uint256",
          "name": "_transactionId",
          "type": "uint256"
        },
        {
          "indexed": true,
          "internalType": "uint256",
          "name": "_partyId",
          "type": "uint256"
        },
        {
          "indexed": false,
          "internalType": "string",
          "name": "_evidenceUri",
          "type": "string"
        }
      ],
      "name": "EvidenceSubmitted",
      "type": "event"
    },
    {
      "anonymous": false,
      "inputs": [
        {
          "indexed": false,
          "internalType": "uint256",
          "name": "_platformId",
          "type": "uint256"
        },
        {
          "indexed": true,
          "internalType": "address",
          "name": "_token",
          "type": "address"
        },
        {
          "indexed": false,
          "internalType": "uint256",
          "name": "_amount",
          "type": "uint256"
        }
      ],
      "name": "FeesClaimed",
      "type": "event"
    },
    {
      "anonymous": false,
      "inputs": [
        {
          "indexed": true,
          "internalType": "uint256",
          "name": "_transactionId",
          "type": "uint256"
        },
        {
          "indexed": false,
          "internalType": "enum TalentLayerEscrow.Party",
          "name": "_party",
          "type": "uint8"
        }
      ],
      "name": "HasToPayFee",
      "type": "event"
    },
    {
      "anonymous": false,
      "inputs": [
        {
          "indexed": false,
          "internalType": "uint8",
          "name": "version",
          "type": "uint8"
        }
      ],
      "name": "Initialized",
      "type": "event"
    },
    {
      "anonymous": false,
      "inputs": [
        {
          "indexed": true,
          "internalType": "uint256",
          "name": "_metaEvidenceID",
          "type": "uint256"
        },
        {
          "indexed": false,
          "internalType": "string",
          "name": "_evidence",
          "type": "string"
        }
      ],
      "name": "MetaEvidence",
      "type": "event"
    },
    {
      "anonymous": false,
      "inputs": [
        {
          "indexed": false,
          "internalType": "uint256",
          "name": "_platformId",
          "type": "uint256"
        },
        {
          "indexed": false,
          "internalType": "uint256",
          "name": "_serviceId",
          "type": "uint256"
        },
        {
          "indexed": true,
          "internalType": "address",
          "name": "_token",
          "type": "address"
        },
        {
          "indexed": false,
          "internalType": "uint256",
          "name": "_amount",
          "type": "uint256"
        }
      ],
      "name": "OriginServiceFeeRateReleased",
      "type": "event"
    },
    {
      "anonymous": false,
      "inputs": [
        {
          "indexed": false,
          "internalType": "uint256",
          "name": "_platformId",
          "type": "uint256"
        },
        {
          "indexed": false,
          "internalType": "uint256",
          "name": "_serviceId",
          "type": "uint256"
        },
        {
          "indexed": true,
          "internalType": "address",
          "name": "_token",
          "type": "address"
        },
        {
          "indexed": false,
          "internalType": "uint256",
          "name": "_amount",
          "type": "uint256"
        }
      ],
      "name": "OriginValidatedProposalFeeRateReleased",
      "type": "event"
    },
    {
      "anonymous": false,
      "inputs": [
        {
          "indexed": true,
          "internalType": "address",
          "name": "previousOwner",
          "type": "address"
        },
        {
          "indexed": true,
          "internalType": "address",
          "name": "newOwner",
          "type": "address"
        }
      ],
      "name": "OwnershipTransferred",
      "type": "event"
    },
    {
      "anonymous": false,
      "inputs": [
        {
          "indexed": false,
          "internalType": "address",
          "name": "account",
          "type": "address"
        }
      ],
      "name": "Paused",
      "type": "event"
    },
    {
      "anonymous": false,
      "inputs": [
        {
          "indexed": false,
          "internalType": "uint256",
          "name": "_transactionId",
          "type": "uint256"
        },
        {
          "indexed": false,
          "internalType": "enum TalentLayerEscrow.PaymentType",
          "name": "_paymentType",
          "type": "uint8"
        },
        {
          "indexed": false,
          "internalType": "address",
          "name": "_token",
          "type": "address"
        },
        {
          "indexed": false,
          "internalType": "uint256",
          "name": "_amount",
          "type": "uint256"
        },
        {
          "indexed": false,
          "internalType": "uint256",
          "name": "_serviceId",
          "type": "uint256"
        }
      ],
      "name": "Payment",
      "type": "event"
    },
    {
      "anonymous": false,
      "inputs": [
        {
          "indexed": false,
          "internalType": "uint256",
          "name": "_serviceId",
          "type": "uint256"
        }
      ],
      "name": "PaymentCompleted",
      "type": "event"
    },
    {
      "anonymous": false,
      "inputs": [
        {
          "indexed": false,
          "internalType": "uint16",
          "name": "_protocolEscrowFeeRate",
          "type": "uint16"
        }
      ],
      "name": "ProtocolEscrowFeeRateUpdated",
      "type": "event"
    },
    {
      "anonymous": false,
      "inputs": [
        {
          "indexed": true,
          "internalType": "uint256",
          "name": "_referrerId",
          "type": "uint256"
        },
        {
          "indexed": false,
          "internalType": "uint256",
          "name": "_serviceId",
          "type": "uint256"
        },
        {
          "indexed": true,
          "internalType": "address",
          "name": "_token",
          "type": "address"
        },
        {
          "indexed": false,
          "internalType": "uint256",
          "name": "_amount",
          "type": "uint256"
        }
      ],
      "name": "ReferralAmountReleased",
      "type": "event"
    },
    {
      "anonymous": false,
      "inputs": [
        {
          "indexed": true,
          "internalType": "contract Arbitrator",
          "name": "_arbitrator",
          "type": "address"
        },
        {
          "indexed": true,
          "internalType": "uint256",
          "name": "_disputeID",
          "type": "uint256"
        },
        {
          "indexed": false,
          "internalType": "uint256",
          "name": "_ruling",
          "type": "uint256"
        }
      ],
      "name": "Ruling",
      "type": "event"
    },
    {
      "anonymous": false,
      "inputs": [
        {
          "indexed": true,
          "internalType": "uint256",
          "name": "_transactionId",
          "type": "uint256"
        },
        {
          "indexed": false,
          "internalType": "uint256",
          "name": "_ruling",
          "type": "uint256"
        }
      ],
      "name": "RulingExecuted",
      "type": "event"
    },
    {
      "anonymous": false,
      "inputs": [
        {
          "indexed": false,
          "internalType": "uint256",
          "name": "_transactionId",
          "type": "uint256"
        },
        {
          "indexed": false,
          "internalType": "uint256",
          "name": "_senderId",
          "type": "uint256"
        },
        {
          "indexed": false,
          "internalType": "uint256",
          "name": "_receiverId",
          "type": "uint256"
        },
        {
          "indexed": false,
          "internalType": "address",
          "name": "_token",
          "type": "address"
        },
        {
          "indexed": false,
          "internalType": "uint256",
          "name": "_amount",
          "type": "uint256"
        },
        {
          "indexed": false,
          "internalType": "uint256",
          "name": "_serviceId",
          "type": "uint256"
        },
        {
          "indexed": false,
          "internalType": "uint256",
          "name": "_proposalId",
          "type": "uint256"
        },
        {
          "indexed": false,
          "internalType": "uint16",
          "name": "_protocolEscrowFeeRate",
          "type": "uint16"
        },
        {
          "indexed": false,
          "internalType": "uint16",
          "name": "_originServiceFeeRate",
          "type": "uint16"
        },
        {
          "indexed": false,
          "internalType": "uint16",
          "name": "_originValidatedProposalFeeRate",
          "type": "uint16"
        },
        {
          "indexed": false,
          "internalType": "contract Arbitrator",
          "name": "_arbitrator",
          "type": "address"
        },
        {
          "indexed": false,
          "internalType": "bytes",
          "name": "_arbitratorExtraData",
          "type": "bytes"
        },
        {
          "indexed": false,
          "internalType": "uint256",
          "name": "_arbitrationFeeTimeout",
          "type": "uint256"
        }
      ],
      "name": "TransactionCreated",
      "type": "event"
    },
    {
      "anonymous": false,
      "inputs": [
        {
          "indexed": false,
          "internalType": "address",
          "name": "forwarder",
          "type": "address"
        }
      ],
      "name": "TrustedForwarderAdded",
      "type": "event"
    },
    {
      "anonymous": false,
      "inputs": [
        {
          "indexed": false,
          "internalType": "address",
          "name": "forwarder",
          "type": "address"
        }
      ],
      "name": "TrustedForwarderRemoved",
      "type": "event"
    },
    {
      "anonymous": false,
      "inputs": [
        {
          "indexed": false,
          "internalType": "address",
          "name": "account",
          "type": "address"
        }
      ],
      "name": "Unpaused",
      "type": "event"
    },
    {
      "anonymous": false,
      "inputs": [
        {
          "indexed": true,
          "internalType": "address",
          "name": "implementation",
          "type": "address"
        }
      ],
      "name": "Upgraded",
      "type": "event"
    },
    {
      "inputs": [
        {
          "internalType": "address",
          "name": "_forwarder",
          "type": "address"
        }
      ],
      "name": "addTrustedForwarder",
      "outputs": [],
      "stateMutability": "nonpayable",
      "type": "function"
    },
    {
      "inputs": [
        {
          "internalType": "uint256",
          "name": "_transactionId",
          "type": "uint256"
        }
      ],
      "name": "appeal",
      "outputs": [],
      "stateMutability": "payable",
      "type": "function"
    },
    {
      "inputs": [
        {
          "internalType": "uint256",
          "name": "_transactionId",
          "type": "uint256"
        }
      ],
      "name": "arbitrationFeeTimeout",
      "outputs": [],
      "stateMutability": "nonpayable",
      "type": "function"
    },
    {
      "inputs": [
        {
          "internalType": "uint256",
          "name": "_platformId",
          "type": "uint256"
        },
        {
          "internalType": "address",
          "name": "_tokenAddress",
          "type": "address"
        }
      ],
      "name": "claim",
      "outputs": [],
      "stateMutability": "nonpayable",
      "type": "function"
    },
    {
      "inputs": [
        {
          "internalType": "uint256",
          "name": "_serviceId",
          "type": "uint256"
        },
        {
          "internalType": "uint256",
          "name": "_proposalId",
          "type": "uint256"
        },
        {
          "internalType": "string",
          "name": "_metaEvidence",
          "type": "string"
        },
        {
          "internalType": "string",
          "name": "_originDataUri",
          "type": "string"
        }
      ],
      "name": "createTransaction",
      "outputs": [
        {
          "internalType": "uint256",
          "name": "",
          "type": "uint256"
        }
      ],
      "stateMutability": "payable",
      "type": "function"
    },
    {
      "inputs": [
        {
          "internalType": "uint256",
          "name": "",
          "type": "uint256"
        }
      ],
      "name": "disputeIDtoTransactionID",
      "outputs": [
        {
          "internalType": "uint256",
          "name": "",
          "type": "uint256"
        }
      ],
      "stateMutability": "view",
      "type": "function"
    },
    {
      "inputs": [
        {
          "internalType": "address",
          "name": "_token",
          "type": "address"
        }
      ],
      "name": "getClaimableFeeBalance",
      "outputs": [
        {
          "internalType": "uint256",
          "name": "balance",
          "type": "uint256"
        }
      ],
      "stateMutability": "view",
      "type": "function"
    },
    {
      "inputs": [
        {
          "internalType": "uint256",
          "name": "_transactionId",
          "type": "uint256"
        }
      ],
      "name": "getTransactionDetails",
      "outputs": [
        {
          "components": [
            {
              "internalType": "uint256",
              "name": "id",
              "type": "uint256"
            },
            {
              "internalType": "address",
              "name": "sender",
              "type": "address"
            },
            {
              "internalType": "address",
              "name": "receiver",
              "type": "address"
            },
            {
              "internalType": "address",
              "name": "token",
              "type": "address"
            },
            {
              "internalType": "uint256",
              "name": "amount",
              "type": "uint256"
            },
            {
              "internalType": "uint256",
              "name": "releasedAmount",
              "type": "uint256"
            },
            {
              "internalType": "uint256",
              "name": "serviceId",
              "type": "uint256"
            },
            {
              "internalType": "uint256",
              "name": "proposalId",
              "type": "uint256"
            },
            {
              "internalType": "uint16",
              "name": "protocolEscrowFeeRate",
              "type": "uint16"
            },
            {
              "internalType": "uint16",
              "name": "originServiceFeeRate",
              "type": "uint16"
            },
            {
              "internalType": "uint16",
              "name": "originValidatedProposalFeeRate",
              "type": "uint16"
            },
            {
              "internalType": "contract Arbitrator",
              "name": "arbitrator",
              "type": "address"
            },
            {
              "internalType": "enum TalentLayerEscrow.Status",
              "name": "status",
              "type": "uint8"
            },
            {
              "internalType": "uint256",
              "name": "disputeId",
              "type": "uint256"
            },
            {
              "internalType": "uint256",
              "name": "senderFee",
              "type": "uint256"
            },
            {
              "internalType": "uint256",
              "name": "receiverFee",
              "type": "uint256"
            },
            {
              "internalType": "uint256",
              "name": "lastInteraction",
              "type": "uint256"
            },
            {
              "internalType": "bytes",
              "name": "arbitratorExtraData",
              "type": "bytes"
            },
            {
              "internalType": "uint256",
              "name": "arbitrationFeeTimeout",
              "type": "uint256"
            },
            {
              "internalType": "uint256",
              "name": "referrerId",
              "type": "uint256"
            },
            {
              "internalType": "uint256",
              "name": "referralAmount",
              "type": "uint256"
            },
            {
              "internalType": "uint256",
              "name": "totalAmount",
              "type": "uint256"
            }
          ],
          "internalType": "struct TalentLayerEscrow.Transaction",
          "name": "",
          "type": "tuple"
        }
      ],
      "stateMutability": "view",
      "type": "function"
    },
    {
      "inputs": [
        {
          "internalType": "address",
          "name": "_talentLayerServiceAddress",
          "type": "address"
        },
        {
          "internalType": "address",
          "name": "_talentLayerIDAddress",
          "type": "address"
        },
        {
          "internalType": "address",
          "name": "_talentLayerPlatformIDAddress",
          "type": "address"
        },
        {
          "internalType": "address",
          "name": "_protocolWallet",
          "type": "address"
        }
      ],
      "name": "initialize",
      "outputs": [],
      "stateMutability": "nonpayable",
      "type": "function"
    },
    {
      "inputs": [
        {
          "internalType": "address",
          "name": "forwarder",
          "type": "address"
        }
      ],
      "name": "isTrustedForwarder",
      "outputs": [
        {
          "internalType": "bool",
          "name": "",
          "type": "bool"
        }
      ],
      "stateMutability": "view",
      "type": "function"
    },
    {
      "inputs": [],
      "name": "owner",
      "outputs": [
        {
          "internalType": "address",
          "name": "",
          "type": "address"
        }
      ],
      "stateMutability": "view",
      "type": "function"
    },
    {
      "inputs": [],
      "name": "pause",
      "outputs": [],
      "stateMutability": "nonpayable",
      "type": "function"
    },
    {
      "inputs": [],
      "name": "paused",
      "outputs": [
        {
          "internalType": "bool",
          "name": "",
          "type": "bool"
        }
      ],
      "stateMutability": "view",
      "type": "function"
    },
    {
      "inputs": [
        {
          "internalType": "uint256",
          "name": "_transactionId",
          "type": "uint256"
        }
      ],
      "name": "payArbitrationFeeByReceiver",
      "outputs": [],
      "stateMutability": "payable",
      "type": "function"
    },
    {
      "inputs": [
        {
          "internalType": "uint256",
          "name": "_transactionId",
          "type": "uint256"
        }
      ],
      "name": "payArbitrationFeeBySender",
      "outputs": [],
      "stateMutability": "payable",
      "type": "function"
    },
    {
      "inputs": [],
      "name": "protocolEscrowFeeRate",
      "outputs": [
        {
          "internalType": "uint16",
          "name": "",
          "type": "uint16"
        }
      ],
      "stateMutability": "view",
      "type": "function"
    },
    {
      "inputs": [],
      "name": "protocolWallet",
      "outputs": [
        {
          "internalType": "address payable",
          "name": "",
          "type": "address"
        }
      ],
      "stateMutability": "view",
      "type": "function"
    },
    {
      "inputs": [],
      "name": "proxiableUUID",
      "outputs": [
        {
          "internalType": "bytes32",
          "name": "",
          "type": "bytes32"
        }
      ],
      "stateMutability": "view",
      "type": "function"
    },
    {
      "inputs": [
        {
          "internalType": "uint256",
          "name": "_profileId",
          "type": "uint256"
        },
        {
          "internalType": "uint256",
          "name": "_transactionId",
          "type": "uint256"
        },
        {
          "internalType": "uint256",
          "name": "_amount",
          "type": "uint256"
        }
      ],
      "name": "reimburse",
      "outputs": [],
      "stateMutability": "nonpayable",
      "type": "function"
    },
    {
      "inputs": [
        {
          "internalType": "uint256",
          "name": "_profileId",
          "type": "uint256"
        },
        {
          "internalType": "uint256",
          "name": "_transactionId",
          "type": "uint256"
        },
        {
          "internalType": "uint256",
          "name": "_amount",
          "type": "uint256"
        }
      ],
      "name": "release",
      "outputs": [],
      "stateMutability": "nonpayable",
      "type": "function"
    },
    {
      "inputs": [
        {
          "internalType": "address",
          "name": "_forwarder",
          "type": "address"
        }
      ],
      "name": "removeTrustedForwarder",
      "outputs": [],
      "stateMutability": "nonpayable",
      "type": "function"
    },
    {
      "inputs": [],
      "name": "renounceOwnership",
      "outputs": [],
      "stateMutability": "nonpayable",
      "type": "function"
    },
    {
      "inputs": [
        {
          "internalType": "uint256",
          "name": "_disputeID",
          "type": "uint256"
        },
        {
          "internalType": "uint256",
          "name": "_ruling",
          "type": "uint256"
        }
      ],
      "name": "rule",
      "outputs": [],
      "stateMutability": "nonpayable",
      "type": "function"
    },
    {
      "inputs": [
        {
          "internalType": "uint256",
          "name": "_profileId",
          "type": "uint256"
        },
        {
          "internalType": "uint256",
          "name": "_transactionId",
          "type": "uint256"
        },
        {
          "internalType": "string",
          "name": "_evidence",
          "type": "string"
        }
      ],
      "name": "submitEvidence",
      "outputs": [],
      "stateMutability": "nonpayable",
      "type": "function"
    },
    {
      "inputs": [
        {
          "internalType": "address",
          "name": "newOwner",
          "type": "address"
        }
      ],
      "name": "transferOwnership",
      "outputs": [],
      "stateMutability": "nonpayable",
      "type": "function"
    },
    {
      "inputs": [],
      "name": "unpause",
      "outputs": [],
      "stateMutability": "nonpayable",
      "type": "function"
    },
    {
      "inputs": [
        {
          "internalType": "uint16",
          "name": "_protocolEscrowFeeRate",
          "type": "uint16"
        }
      ],
      "name": "updateProtocolEscrowFeeRate",
      "outputs": [],
      "stateMutability": "nonpayable",
      "type": "function"
    },
    {
      "inputs": [
        {
          "internalType": "address payable",
          "name": "_protocolWallet",
          "type": "address"
        }
      ],
      "name": "updateProtocolWallet",
      "outputs": [],
      "stateMutability": "nonpayable",
      "type": "function"
    },
    {
      "inputs": [
        {
          "internalType": "address",
          "name": "newImplementation",
          "type": "address"
        }
      ],
      "name": "upgradeTo",
      "outputs": [],
      "stateMutability": "nonpayable",
      "type": "function"
    },
    {
      "inputs": [
        {
          "internalType": "address",
          "name": "newImplementation",
          "type": "address"
        },
        {
          "internalType": "bytes",
          "name": "data",
          "type": "bytes"
        }
      ],
      "name": "upgradeToAndCall",
      "outputs": [],
      "stateMutability": "payable",
      "type": "function"
    }
  ],
  "bytecode": "0x60a0604052306080523480156200001557600080fd5b506200002062000026565b620000e8565b600054610100900460ff1615620000935760405162461bcd60e51b815260206004820152602760248201527f496e697469616c697a61626c653a20636f6e747261637420697320696e697469604482015266616c697a696e6760c81b606482015260840160405180910390fd5b60005460ff9081161015620000e6576000805460ff191660ff9081179091556040519081527f7f26b83ff96e1f2b6a682f133852f6798a09c465da95921460cefb38474024989060200160405180910390a15b565b6080516152a162000120600039600081816115e301528181611623015281816119ec01528181611a2c0152611abb01526152a16000f3fe6080604052600436106101cd5760003560e01c80635a34257a116100f75780638b69fa0a11610095578063e308a09911610064578063e308a09914610523578063eb63612d14610543578063f2fde38b14610563578063f8c8765e1461058357600080fd5b80638b69fa0a146104a55780638da5cb5b146104c55780639dcc5daf146104e3578063ddd5e1b21461050357600080fd5b8063715018a6116100d1578063715018a6146104555780637b44cdb51461046a5780637e69b7b01461047d5780638456cb591461049057600080fd5b80635a34257a146103f45780635c975abb1461042a5780636e72b4521461044257600080fd5b80633659cfe61161016f5780633f4ba83a1161013e5780633f4ba83a1461036e5780634f1ef2861461038357806352d1902d14610396578063572b6c05146103ab57600080fd5b80633659cfe6146102ee5780633751d89c1461030e5780633a1121cd1461032e5780633ab4a6a41461034e57600080fd5b806315734fe7116101ab57806315734fe71461026b57806326d006681461027e5780632fbe3b03146102a0578063311a6c56146102ce57600080fd5b806306d6e63f146101d25780630a1a47d6146102105780630fa683d31461023e575b600080fd5b3480156101de57600080fd5b50610101546101f3906001600160a01b031681565b6040516001600160a01b0390911681526020015b60405180910390f35b34801561021c57600080fd5b5061023061022b366004614340565b6105a3565b604051908152602001610207565b34801561024a57600080fd5b5061025e61025936600461435d565b61070f565b60405161020791906143f0565b61023061027936600461468d565b610a90565b34801561028a57600080fd5b5061029e610299366004614340565b611407565b005b3480156102ac57600080fd5b506102306102bb36600461435d565b6101026020526000908152604090205481565b3480156102da57600080fd5b5061029e6102e9366004614704565b61146a565b3480156102fa57600080fd5b5061029e610309366004614340565b6115d9565b34801561031a57600080fd5b5061029e610329366004614340565b6116b8565b34801561033a57600080fd5b5061029e610349366004614726565b611711565b34801561035a57600080fd5b5061029e61036936600461435d565b61181a565b34801561037a57600080fd5b5061029e6119d0565b61029e610391366004614752565b6119e2565b3480156103a257600080fd5b50610230611aae565b3480156103b757600080fd5b506103e46103c6366004614340565b6001600160a01b031660009081526065602052604090205460ff1690565b6040519015158152602001610207565b34801561040057600080fd5b506101015461041790600160a01b900461ffff1681565b60405161ffff9091168152602001610207565b34801561043657600080fd5b5060665460ff166103e4565b61029e61045036600461435d565b611b61565b34801561046157600080fd5b5061029e611dfa565b61029e61047836600461435d565b611e0c565b61029e61048b36600461435d565b612086565b34801561049c57600080fd5b5061029e61213e565b3480156104b157600080fd5b5061029e6104c03660046147b6565b61214e565b3480156104d157600080fd5b506033546001600160a01b03166101f3565b3480156104ef57600080fd5b5061029e6104fe366004614726565b6124b1565b34801561050f57600080fd5b5061029e61051e366004614806565b61259f565b34801561052f57600080fd5b5061029e61053e366004614340565b6127b3565b34801561054f57600080fd5b5061029e61055e366004614846565b6127de565b34801561056f57600080fd5b5061029e61057e366004614340565b612837565b34801561058f57600080fd5b5061029e61059e366004614863565b6128ad565b6000806105ae612a2e565b9050806001600160a01b03166105cc6033546001600160a01b031690565b6001600160a01b0316036106165750506001600160a01b031660009081527fc34a738ec333e394a3927794cadc6dd0eb7d9eed0999d1e55021ea223ac362cc602052604090205490565b61010054604051631847c06b60e01b81526001600160a01b0383811660048301526000921690631847c06b90602401602060405180830381865afa158015610662573d6000803e3d6000fd5b505050506040513d601f19601f8201168201806040525081019061068691906148bf565b6101005460405162f577a560e81b8152600481018390529192506001600160a01b03169063f577a5009060240160006040518083038186803b1580156106cb57600080fd5b505afa1580156106df573d6000803e3d6000fd5b50505060009182525060fd602090815260408083206001600160a01b039096168352949052929092205492915050565b6107be604080516102c081018252600080825260208201819052918101829052606081018290526080810182905260a0810182905260c0810182905260e0810182905261010081018290526101208101829052610140810182905261016081018290529061018082019081526020016000815260200160008152602001600081526020016000815260200160608152602001600081526020016000815260200160008152602001600081525090565b600082815260fc6020908152604080832081516102c0810183528154815260018201546001600160a01b039081169482019490945260028201548416928101929092526003810154831660608301526004808201546080840152600582015460a0840152600682015460c0840152600782015460e0840152600882015461ffff8082166101008601526201000082048116610120860152640100000000820416610140850152600160301b810490941661016084015291929091610180840191600160d01b900460ff169081111561089857610898614376565b60048111156108a9576108a9614376565b815260200160098201548152602001600a8201548152602001600b8201548152602001600c8201548152602001600d820180546108e5906148d8565b80601f0160208091040260200160405190810160405280929190818152602001828054610911906148d8565b801561095e5780601f106109335761010080835404028352916020019161095e565b820191906000526020600020905b81548152906001019060200180831161094157829003601f168201915b50505050508152602001600e8201548152602001600f820154815260200160108201548152602001601182015481525050905061099b6101035490565b8151106109e85760405162461bcd60e51b8152602060048201526016602482015275125b9d985b1a59081d1c985b9cd858dd1a5bdb881a5960521b60448201526064015b60405180910390fd5b60006109f2612a2e565b905081602001516001600160a01b0316816001600160a01b03161480610a2d575081604001516001600160a01b0316816001600160a01b0316145b610a895760405162461bcd60e51b815260206004820152602760248201527f596f7520617265206e6f742072656c6174656420746f2074686973207472616e60448201526639b0b1ba34b7b760c91b60648201526084016109df565b5092915050565b6000610a9a612a3d565b60fe5460405163353bb87f60e21b8152600481018790526024810186905260009182916001600160a01b039091169063d4eee1fc90604401600060405180830381865afa158015610aef573d6000803e3d6000fd5b505050506040513d6000823e601f3d908101601f19168201604052610b179190810190614a22565b60ff54602083810151908301516040516303ef723760e61b81526004810192909252602482015292945090925060009182916001600160a01b03169063fbdc8dc0906044016040805180830381865afa158015610b78573d6000803e3d6000fd5b505050506040513d601f19601f82011682018060405250810190610b9c9190614b01565b6101005460a0870151604051630b7a459360e31b815260048101919091529294509092506000916001600160a01b0390911690635bd22c9890602401600060405180830381865afa158015610bf5573d6000803e3d6000fd5b505050506040513d6000823e601f3d908101601f19168201604052610c1d9190810190614b3b565b9050600084608001518660a0015103610c365781610cb3565b610100546080860151604051630b7a459360e31b81526001600160a01b0390921691635bd22c9891610c6e9160040190815260200190565b600060405180830381865afa158015610c8b573d6000803e3d6000fd5b505050506040513d6000823e601f3d908101601f19168201604052610cb39190810190614b3b565b905060008660e0015190508560e00151600003610cce575060005b6000610cec8760600151856060015185608001518b60e00151612a83565b60c08901519091506001600160a01b0316610d4a57803414610d455760405162461bcd60e51b81526020600482015260126024820152714e6f6e2d6d61746368696e672066756e647360701b60448201526064016109df565b610d8d565b3415610d8d5760405162461bcd60e51b81526020600482015260126024820152714e6f6e2d6d61746368696e672066756e647360701b60448201526064016109df565b856001600160a01b0316610d9f612a2e565b6001600160a01b031614610dc55760405162461bcd60e51b81526004016109df90614c67565b8b876020015114610e105760405162461bcd60e51b8152602060048201526015602482015274125b98dbdc9c9958dd081c1c9bdc1bdcd85b081251605a1b60448201526064016109df565b428760c001511015610e575760405162461bcd60e51b815260206004820152601060248201526f141c9bdc1bdcd85b08195e1c1a5c995960821b60448201526064016109df565b600088516004811115610e6c57610e6c614376565b14610eb95760405162461bcd60e51b815260206004820152601760248201527f5365727669636520737461747573206e6f74206f70656e00000000000000000060448201526064016109df565b600087516001811115610ece57610ece614376565b14610f1b5760405162461bcd60e51b815260206004820152601b60248201527f50726f706f73616c20737461747573206e6f742070656e64696e67000000000060448201526064016109df565b8a51602e14610f5a5760405162461bcd60e51b815260206004820152600b60248201526a125b9d985b1a590818da5960aa1b60448201526064016109df565b89604051602001610f6b9190614c8e565b604051602081830303815290604052805190602001208760a00151604051602001610f969190614c8e565b6040516020818303038152906040528051906020012014610ff95760405162461bcd60e51b815260206004820152601c60248201527f50726f706f73616c206461746155726920686173206368616e6765640000000060448201526064016109df565b60006110056101035490565b9050604051806102c00160405280828152602001886001600160a01b03168152602001876001600160a01b031681526020018a60c001516001600160a01b0316815260200189606001518152602001600081526020018f81526020018e815260200161010160149054906101000a900461ffff1661ffff168152602001866060015161ffff168152602001856080015161ffff1681526020018660e001516001600160a01b03168152602001600060048111156110c4576110c4614376565b8152602001600081526020016000815260200160008152602001428152602001866101000151815260200186610120015181526020018960e0015181526020018a60e001518152602001896060015181525060fc60008381526020019081526020016000206000820151816000015560208201518160010160006101000a8154816001600160a01b0302191690836001600160a01b0316021790555060408201518160020160006101000a8154816001600160a01b0302191690836001600160a01b0316021790555060608201518160030160006101000a8154816001600160a01b0302191690836001600160a01b031602179055506080820151816004015560a0820151816005015560c0820151816006015560e082015181600701556101008201518160080160006101000a81548161ffff021916908361ffff1602179055506101208201518160080160026101000a81548161ffff021916908361ffff1602179055506101408201518160080160046101000a81548161ffff021916908361ffff1602179055506101608201518160080160066101000a8154816001600160a01b0302191690836001600160a01b0316021790555061018082015181600801601a6101000a81548160ff021916908360048111156112a7576112a7614376565b02179055506101a082015160098201556101c0820151600a8201556101e0820151600b820155610200820151600c820155610220820151600d8201906112ed9082614cf0565b50610240820151600e820155610260820151600f82015561028082015160108201556102a09091015160119091015561132b61010380546001019055565b60fe60009054906101000a90046001600160a01b03166001600160a01b031663a7d5eaea8f8f846040518463ffffffff1660e01b8152600401611381939291909283526020830191909152604082015260600190565b600060405180830381600087803b15801561139b57600080fd5b505af11580156113af573d6000803e3d6000fd5b5050505060c08901516001600160a01b0316156113e05760c08901516113e0906001600160a01b0316883085612af9565b6113f489602001518960200151838f612b59565b985050505050505050505b949350505050565b61140f612c74565b6001600160a01b038116600081815260656020908152604091829020805460ff1916600117905590519182527f3ef8564460ada92419608d823c014975d98f8104d7d1e68c222967ac6814cd9791015b60405180910390a150565b6000611474612a2e565b6000848152610102602090815260408083205480845260fc909252909120600881015492935090916001600160a01b03808516600160301b90920416146115075760405162461bcd60e51b815260206004820152602160248201527f5468652063616c6c6572206d757374206265207468652061726269747261746f6044820152603960f91b60648201526084016109df565b60036008820154600160d01b900460ff16600481111561152957611529614376565b146115845760405162461bcd60e51b815260206004820152602560248201527f54686520646973707574652068617320616c7265616479206265656e207265736044820152641bdb1d995960da1b60648201526084016109df565b84836001600160a01b03167f394027a5fa6e098a1191094d1719d6929b9abc535fcc0c8f448d6a4e75622276866040516115c091815260200190565b60405180910390a36115d28285612ced565b5050505050565b6001600160a01b037f00000000000000000000000000000000000000000000000000000000000000001630036116215760405162461bcd60e51b81526004016109df90614db0565b7f00000000000000000000000000000000000000000000000000000000000000006001600160a01b031661166a600080516020615205833981519152546001600160a01b031690565b6001600160a01b0316146116905760405162461bcd60e51b81526004016109df90614dfc565b61169981612f77565b604080516000808252602082019092526116b591839190612f7f565b50565b6116c0612c74565b6001600160a01b038116600081815260656020908152604091829020805460ff1916905590519182527fd2d636efcad0cea42e170256f4c5d8b1cd81e47b855557edaf44014e6cc4cee6910161145f565b611719612a3d565b60ff5483906001600160a01b0316632fa117e582611735612a2e565b6040516001600160e01b031960e085901b16815260048101929092526001600160a01b03166024820152604401602060405180830381865afa15801561177f573d6000803e3d6000fd5b505050506040513d601f19601f820116820180604052508101906117a39190614e48565b6117bf5760405162461bcd60e51b81526004016109df90614e6a565b6117cc83600086856130ea565b600083815260fc60205260408120600481018054919285926117ef908490614eaf565b925050819055508281600501600082825461180a9190614ec2565b909155506115d2905084846133d5565b600081815260fc60205260409020600e810154600c82015461183c9042614eaf565b101561188a5760405162461bcd60e51b815260206004820152601f60248201527f54696d656f75742074696d6520686173206e6f7420706173736564207965740060448201526064016109df565b60016008820154600160d01b900460ff1660048111156118ac576118ac614376565b0361192f57600a8101541561192057600a81018054600091829055600183015460405191926001600160a01b0390911691839181818185875af1925050503d8060008114611916576040519150601f19603f3d011682016040523d82523d6000602084013e61191b565b606091505b505050505b61192b826002612ced565b5050565b60026008820154600160d01b900460ff16600481111561195157611951614376565b0361192b57600b810154156119c557600b81018054600091829055600283015460405191926001600160a01b0390911691839181818185875af1925050503d80600081146119bb576040519150601f19603f3d011682016040523d82523d6000602084013e6119c0565b606091505b505050505b61192b826001612ced565b6119d8612c74565b6119e061341a565b565b6001600160a01b037f0000000000000000000000000000000000000000000000000000000000000000163003611a2a5760405162461bcd60e51b81526004016109df90614db0565b7f00000000000000000000000000000000000000000000000000000000000000006001600160a01b0316611a73600080516020615205833981519152546001600160a01b031690565b6001600160a01b031614611a995760405162461bcd60e51b81526004016109df90614dfc565b611aa282612f77565b61192b82826001612f7f565b6000306001600160a01b037f00000000000000000000000000000000000000000000000000000000000000001614611b4e5760405162461bcd60e51b815260206004820152603860248201527f555550535570677261646561626c653a206d757374206e6f742062652063616c60448201527f6c6564207468726f7567682064656c656761746563616c6c000000000000000060648201526084016109df565b5060008051602061520583398151915290565b600081815260fc602052604090206008810154600160301b90046001600160a01b0316611ba05760405162461bcd60e51b81526004016109df90614ed5565b60036008820154600160d01b900460ff166004811115611bc257611bc2614376565b10611bdf5760405162461bcd60e51b81526004016109df90614f01565b60028101546001600160a01b0316611bf5612a2e565b6001600160a01b031614611c4b5760405162461bcd60e51b815260206004820152601f60248201527f5468652063616c6c6572206d757374206265207468652072656365697665720060448201526064016109df565b600881015460405163f7434ea960e01b8152600091600160301b90046001600160a01b03169063f7434ea990611c8890600d860190600401614ff1565b602060405180830381865afa158015611ca5573d6000803e3d6000fd5b505050506040513d601f19601f82011682018060405250810190611cc991906148bf565b90503482600b016000828254611cdf9190614ec2565b9091555050600b8201548114611d565760405162461bcd60e51b815260206004820152603660248201527f54686520726563656976657220666565206d75737420626520657175616c20746044820152751bc81d1a1948185c989a5d1c985d1a5bdb8818dbdcdd60521b60648201526084016109df565b42600c830155604051839060008051602061522583398151915290611d82906000906001903490615014565b60405180910390a28082600a01541015611deb5760088201805460ff60d01b1916600160d01b17905560405183907fc74b9f7dedf2887cd3c113b6d8da9cea19e55c1116e25f1f0e1b72d7543179b590611dde9060009061503e565b60405180910390a2505050565b611df58382613472565b505050565b611e02612c74565b6119e060006136c5565b600081815260fc602052604090206008810154600160301b90046001600160a01b0316611e4b5760405162461bcd60e51b81526004016109df90614ed5565b60036008820154600160d01b900460ff166004811115611e6d57611e6d614376565b10611e8a5760405162461bcd60e51b81526004016109df90614f01565b60018101546001600160a01b0316611ea0612a2e565b6001600160a01b031614611ef65760405162461bcd60e51b815260206004820152601d60248201527f5468652063616c6c6572206d757374206265207468652073656e64657200000060448201526064016109df565b600881015460405163f7434ea960e01b8152600091600160301b90046001600160a01b03169063f7434ea990611f3390600d860190600401614ff1565b602060405180830381865afa158015611f50573d6000803e3d6000fd5b505050506040513d601f19601f82011682018060405250810190611f7491906148bf565b90503482600a016000828254611f8a9190614ec2565b9091555050600a8201548114611fff5760405162461bcd60e51b815260206004820152603460248201527f5468652073656e64657220666565206d75737420626520657175616c20746f206044820152731d1a1948185c989a5d1c985d1a5bdb8818dbdcdd60621b60648201526084016109df565b42600c83015560405183906000805160206152258339815191529061202a9060009081903490615014565b60405180910390a28082600b01541015611deb5760088201805460ff60d01b1916600160d11b17905560405183907fc74b9f7dedf2887cd3c113b6d8da9cea19e55c1116e25f1f0e1b72d7543179b590611dde9060019061503e565b600081815260fc602052604090206008810154600160301b90046001600160a01b03166120c55760405162461bcd60e51b81526004016109df90614ed5565b6008810154600982015460405163093225f160e31b8152600160301b9092046001600160a01b0316916349912f889134916121089190600d870190600401615051565b6000604051808303818588803b15801561212157600080fd5b505af1158015612135573d6000803e3d6000fd5b50505050505050565b612146612c74565b6119e0613717565b60ff5483906001600160a01b0316632fa117e58261216a612a2e565b6040516001600160e01b031960e085901b16815260048101929092526001600160a01b03166024820152604401602060405180830381865afa1580156121b4573d6000803e3d6000fd5b505050506040513d601f19601f820116820180604052508101906121d89190614e48565b6121f45760405162461bcd60e51b81526004016109df90614e6a565b8151602e146122335760405162461bcd60e51b815260206004820152600b60248201526a125b9d985b1a590818da5960aa1b60448201526064016109df565b600083815260fc602052604090206008810154600160301b90046001600160a01b03166122725760405162461bcd60e51b81526004016109df90614ed5565b60ff546040516331a9108f60e11b8152600481018790526000916001600160a01b031690636352211e90602401602060405180830381865afa1580156122bc573d6000803e3d6000fd5b505050506040513d601f19601f820116820180604052508101906122e0919061506a565b60018301549091506001600160a01b0380831691161480612310575060028201546001600160a01b038281169116145b612384576040805162461bcd60e51b81526020600482015260248101919091527f5468652063616c6c6572206d757374206265207468652073656e646572206f7260448201527f20746865207265636569766572206f722074686569722064656c65676174657360648201526084016109df565b60046008830154600160d01b900460ff1660048111156123a6576123a6614376565b1061240d5760405162461bcd60e51b815260206004820152603160248201527f4d757374206e6f742073656e642065766964656e6365206966207468652064696044820152701cdc1d5d19481a5cc81c995cdbdb1d9959607a1b60648201526084016109df565b806001600160a01b0316858360080160069054906101000a90046001600160a01b03166001600160a01b03167fdccf2f8b2cc26eafcd61905cba744cff4b81d14740725f6376390dc6298a6a3c876040516124689190615087565b60405180910390a485857fd998ce0f89c38b0f93256f0b843a404a3a3c5055b75265623f7cb9c369a1dd62866040516124a19190615087565b60405180910390a3505050505050565b6124b9612a3d565b60ff5483906001600160a01b0316632fa117e5826124d5612a2e565b6040516001600160e01b031960e085901b16815260048101929092526001600160a01b03166024820152604401602060405180830381865afa15801561251f573d6000803e3d6000fd5b505050506040513d601f19601f820116820180604052508101906125439190614e48565b61255f5760405162461bcd60e51b81526004016109df90614e6a565b61256c83600186856130ea565b600083815260fc602052604081206004810180549192859261258f908490614eaf565b909155506115d290508484613755565b6125a7612a3d565b60006125b1612a2e565b6001600160a01b03166125cc6033546001600160a01b031690565b6001600160a01b03160361260b5782156125f85760405162461bcd60e51b81526004016109df90614c67565b50610101546001600160a01b03166126d8565b6101005460405162f577a560e81b8152600481018590526001600160a01b039091169063f577a5009060240160006040518083038186803b15801561264f57600080fd5b505afa158015612663573d6000803e3d6000fd5b5050610100546040516331a9108f60e11b8152600481018790526001600160a01b039091169250636352211e9150602401602060405180830381865afa1580156126b1573d6000803e3d6000fd5b505050506040513d601f19601f820116820180604052508101906126d5919061506a565b90505b600083815260fd602090815260408083206001600160a01b03861684529091529020548061273b5760405162461bcd60e51b815260206004820152601060248201526f6e6f7468696e6720746f20636c61696d60801b60448201526064016109df565b600084815260fd602090815260408083206001600160a01b03871684529091528120556127698284836137ea565b60408051858152602081018390526001600160a01b038516917f2227733fc4c8a9034cb58087dcf6995128b9c0233b038b03366aaf30c92b92d6910160405180910390a250505050565b6127bb612c74565b61010180546001600160a01b0319166001600160a01b0392909216919091179055565b6127e6612c74565b610101805461ffff60a01b1916600160a01b61ffff8416908102919091179091556040519081527f8339189e972f7fba792126e752aa8485af08710bce4a041c5bc3f9858acd71309060200161145f565b61283f612c74565b6001600160a01b0381166128a45760405162461bcd60e51b815260206004820152602660248201527f4f776e61626c653a206e6577206f776e657220697320746865207a65726f206160448201526564647265737360d01b60648201526084016109df565b6116b5816136c5565b600054610100900460ff16158080156128cd5750600054600160ff909116105b806128e75750303b1580156128e7575060005460ff166001145b61294a5760405162461bcd60e51b815260206004820152602e60248201527f496e697469616c697a61626c653a20636f6e747261637420697320616c72656160448201526d191e481a5b9a5d1a585b1a5e995960921b60648201526084016109df565b6000805460ff19166001179055801561296d576000805461ff0019166101001790555b6129756138c4565b61297d6138f3565b60fe80546001600160a01b038088166001600160a01b03199283161790925560ff805487841690831617905561010080548684169083161790556101018054928516929091169190911790556129d861010380546001019055565b6129e260646127de565b80156115d2576000805461ff0019169055604051600181527f7f26b83ff96e1f2b6a682f133852f6798a09c465da95921460cefb38474024989060200160405180910390a15050505050565b6000612a3861391a565b905090565b60665460ff16156119e05760405162461bcd60e51b815260206004820152601060248201526f14185d5cd8589b194e881c185d5cd95960821b60448201526064016109df565b600081612710612a9761ffff86168861509a565b612aa561ffff88168961509a565b61010154612abe90600160a01b900461ffff168a61509a565b612ac89190614ec2565b612ad29190614ec2565b612adc91906150b1565b612ae69087614ec2565b612af09190614ec2565b95945050505050565b604080516001600160a01b0385811660248301528416604482015260648082018490528251808303909101815260849091019091526020810180516001600160e01b03166323b872dd60e01b179052612b53908590613953565b50505050565b600060fc600084815260200190815260200160002090507f8b4f0e94aa0aee74c276abd2d92a5e2737a493b055e19d5b2d4c0ac573242a158386868460030160009054906101000a90046001600160a01b031685600401548660060154876007015461010160149054906101000a900461ffff168960080160029054906101000a900461ffff168a60080160049054906101000a900461ffff168b60080160069054906101000a90046001600160a01b03168c600d018d600e0154604051612c2d9d9c9b9a999897969594939291906150d3565b60405180910390a1827f61606860eb6c87306811e2695215385101daab53bd6ab4e9f9049aead9363c7d83604051612c659190615087565b60405180910390a25050505050565b612c7c612a2e565b6001600160a01b0316612c976033546001600160a01b031690565b6001600160a01b0316146119e05760405162461bcd60e51b815260206004820181905260248201527f4f776e61626c653a2063616c6c6572206973206e6f7420746865206f776e657260448201526064016109df565b600082815260fc602052604090206002821115612d3d5760405162461bcd60e51b815260206004820152600e60248201526d496e76616c69642072756c696e6760901b60448201526064016109df565b60018101546002820154600483018054600a85018054600b87018054600095869055928590559390935560088601805460ff60d01b1916600160d21b1790556001600160a01b0394851694909316929091906000198701612df8576040516001600160a01b038616908390600081818185875af1925050503d8060008114612de1576040519150601f19603f3d011682016040523d82523d6000602084013e612de6565b606091505b505050612df38884613755565b612f33565b6001198701612e5c576040516001600160a01b038516908290600081818185875af1925050503d8060008114612e4a576040519150601f19603f3d011682016040523d82523d6000602084013e612e4f565b606091505b505050612df388846133d5565b6000612e696002846150b1565b90506000612e786002866150b1565b9050612e848a82613755565b612e8e8a826133d5565b6040516001600160a01b038816908390600081818185875af1925050503d8060008114612ed7576040519150601f19603f3d011682016040523d82523d6000602084013e612edc565b606091505b50506040516001600160a01b03881691508390600081818185875af1925050503d8060008114612f28576040519150601f19603f3d011682016040523d82523d6000602084013e612f2d565b606091505b50505050505b877f76b363d70472d47d20e4119f3625c05ed37ca51b1d9e1cd8b87d8c20530640f388604051612f6591815260200190565b60405180910390a25050505050505050565b6116b5612c74565b7f4910fdfa16fed3260ed0e7147f7cc6da11a60208b5b9406d12a635614ffd91435460ff1615612fb257611df583613a25565b826001600160a01b03166352d1902d6040518163ffffffff1660e01b8152600401602060405180830381865afa92505050801561300c575060408051601f3d908101601f19168201909252613009918101906148bf565b60015b61306f5760405162461bcd60e51b815260206004820152602e60248201527f45524331393637557067726164653a206e657720696d706c656d656e7461746960448201526d6f6e206973206e6f74205555505360901b60648201526084016109df565b60008051602061520583398151915281146130de5760405162461bcd60e51b815260206004820152602960248201527f45524331393637557067726164653a20756e737570706f727465642070726f786044820152681a58589b195555525160ba1b60648201526084016109df565b50611df5838383613ac1565b600084815260fc602052604081209084600181111561310b5761310b614376565b036131b15760ff546040516331a9108f60e11b8152600481018590526001600160a01b0390911690636352211e90602401602060405180830381865afa158015613159573d6000803e3d6000fd5b505050506040513d601f19601f8201168201806040525081019061317d919061506a565b60018201546001600160a01b039081169116146131ac5760405162461bcd60e51b81526004016109df90614c67565b613266565b60018460018111156131c5576131c5614376565b036132665760ff546040516331a9108f60e11b8152600481018590526001600160a01b0390911690636352211e90602401602060405180830381865afa158015613213573d6000803e3d6000fd5b505050506040513d601f19601f82011682018060405250810190613237919061506a565b60028201546001600160a01b039081169116146132665760405162461bcd60e51b81526004016109df90614c67565b610103548154106132b25760405162461bcd60e51b8152602060048201526016602482015275125b9d985b1a59081d1c985b9cd858dd1a5bdb881a5960521b60448201526064016109df565b60006008820154600160d01b900460ff1660048111156132d4576132d4614376565b1461332f5760405162461bcd60e51b815260206004820152602560248201527f546865207472616e73616374696f6e2073686f756c646e2774206265206469736044820152641c1d5d195960da1b60648201526084016109df565b81816004015410156133785760405162461bcd60e51b8152602060048201526012602482015271496e73756666696369656e742066756e647360701b60448201526064016109df565b612710821015806133985750612710821080156133985750806004015482145b6115d25760405162461bcd60e51b815260206004820152600e60248201526d416d6f756e7420746f6f206c6f7760901b60448201526064016109df565b6133df8282613ae6565b600082815260fc602052604090206002810154600382015461340e916001600160a01b039081169116846137ea565b611df583600084613ea7565b613422613fc9565b6066805460ff191690557f5db9ee0a495bf2e6ff9c91a7834c1ba4fdd244a5e8aa4e537bd38aeae4b073aa613455612a2e565b6040516001600160a01b03909116815260200160405180910390a1565b600082815260fc60205260409081902060088101805460ff60d01b1916600360d01b1790819055915163c13517e160e01b81529091600160301b90046001600160a01b031690819063c13517e19085906134d690600290600d880190600401615161565b60206040518083038185885af11580156134f4573d6000803e3d6000fd5b50505050506040513d601f19601f8201168201806040525081019061351991906148bf565b600983018181556000918252610102602090815260409283902087905590548251878152918201879052916001600160a01b038416917f74baab670a4015ab2f1b467c5252a96141a2573f2908e58a92081e80d3cfde3d910160405180910390a38282600a015411156136255760008383600a01546135989190614eaf565b600a840185905560018401546040519192506001600160a01b0316908290600081818185875af1925050503d80600081146135ef576040519150601f19603f3d011682016040523d82523d6000602084013e6135f4565b606091505b50505084600080516020615225833981519152600160003460405161361b93929190615014565b60405180910390a2505b8282600b01541115612b535760008383600b01546136439190614eaf565b600b840185905560028401546040519192506001600160a01b0316908290600081818185875af1925050503d806000811461369a576040519150601f19603f3d011682016040523d82523d6000602084013e61369f565b606091505b5050508460008051602061522583398151915260018034604051612c6593929190615014565b603380546001600160a01b038381166001600160a01b0319831681179093556040519116919082907f8be0079c531659141344cd1fd0a4f28419497f9722a3daafe3b4186f6b6457e090600090a35050565b61371f612a3d565b6066805460ff191660011790557f62e78cea01bee320cd4e420270b5ea74000d11b0c9f74754ebdbfc544b05a258613455612a2e565b600082815260fc60205260408120600f810154909190156137915760118201546010830154613784908561509a565b61378e91906150b1565b90505b60088201546000906137ba90859061ffff62010000820481169164010000000090041685612a83565b600184015460038501549192506137de916001600160a01b039182169116836137ea565b6115d285600186613ea7565b6001600160a01b038216600003613851576040516001600160a01b038416908290600081818185875af1925050503d8060008114613844576040519150601f19603f3d011682016040523d82523d6000602084013e613849565b606091505b505050505050565b60405163a9059cbb60e01b81526001600160a01b0384811660048301526024820183905283169063a9059cbb906044016020604051808303816000875af11580156138a0573d6000803e3d6000fd5b505050506040513d601f19601f82011682018060405250810190612b539190614e48565b600054610100900460ff166138eb5760405162461bcd60e51b81526004016109df9061517d565b6119e0614012565b600054610100900460ff166119e05760405162461bcd60e51b81526004016109df9061517d565b60006014361080159061393c57503360009081526065602052604090205460ff165b1561394e575060131936013560601c90565b503390565b60006139a8826040518060400160405280602081526020017f5361666545524332303a206c6f772d6c6576656c2063616c6c206661696c6564815250856001600160a01b03166140499092919063ffffffff16565b805190915015611df557808060200190518101906139c69190614e48565b611df55760405162461bcd60e51b815260206004820152602a60248201527f5361666545524332303a204552433230206f7065726174696f6e20646964206e6044820152691bdd081cdd58d8d9595960b21b60648201526084016109df565b6001600160a01b0381163b613a925760405162461bcd60e51b815260206004820152602d60248201527f455243313936373a206e657720696d706c656d656e746174696f6e206973206e60448201526c1bdd08184818dbdb9d1c9858dd609a1b60648201526084016109df565b60008051602061520583398151915280546001600160a01b0319166001600160a01b0392909216919091179055565b613aca83614062565b600082511180613ad75750805b15611df557612b5383836140a2565b600082815260fc602052604080822060fe5460068201546007830154935163353bb87f60e21b81526004810191909152602481019390935290929182916001600160a01b03169063d4eee1fc90604401600060405180830381865afa158015613b53573d6000803e3d6000fd5b505050506040513d6000823e601f3d908101601f19168201604052613b7b9190810190614a22565b60a0820151608082015160088701549395509193509160009061271090613ba790899061ffff1661509a565b613bb191906150b1565b600887015490915060009061271090613bd5908a9062010000900461ffff1661509a565b613bdf91906150b1565b600888015490915060009061271090613c05908b90640100000000900461ffff1661509a565b613c0f91906150b1565b60038901546001600160a01b031660009081527fc34a738ec333e394a3927794cadc6dd0eb7d9eed0999d1e55021ea223ac362cc6020526040812080549293508592909190613c5f908490614ec2565b9091555050600085815260fd6020908152604080832060038c01546001600160a01b0316845290915281208054849290613c9a908490614ec2565b9091555050600084815260fd6020908152604080832060038c01546001600160a01b0316845290915281208054839290613cd5908490614ec2565b9091555050600f88015460009015613d9857601189015460108a0154613cfb908c61509a565b613d0591906150b1565b60ff54600f8b01546040516331a9108f60e11b8152929350613d98926001600160a01b0390921691636352211e91613d439160040190815260200190565b602060405180830381865afa158015613d60573d6000803e3d6000fd5b505050506040513d601f19601f82011682018060405250810190613d84919061506a565b60038b01546001600160a01b0316836137ea565b600389015460068a015460408051898152602081019290925281018590526001600160a01b03909116907f17c48ab8e1617182f35ae77fd7da7f4e15dedf7018aa371a4481c20c790b65469060600160405180910390a2600389015460068a015460408051888152602081019290925281018590526001600160a01b03909116907f3476ed3eea2cdac584273bc8830824c8ca42ca2a99e9f144a87a1cdbbf9dd15a9060600160405180910390a26003890154600f8a015460068b015460408051918252602082018590526001600160a01b03909316927f7be8d1d5def43ba21be043f0d166965a1c479d40c0fac41f9a9fe18f1a9a2863910160405180910390a35050505050505050505050565b600083815260fc602052604090819020805460038201546006830154935192937f2ab2a30b19f7bc6e386d4ee60aa21ed23c127ce9fe26903da97edd54bad0375a93613f04939288926001600160a01b03909116918891906151c8565b60405180910390a18060040154600003612b535760fe5460068201546005830154604051635ab9ae0f60e11b8152600481019290925260248201526001600160a01b039091169063b5735c1e90604401600060405180830381600087803b158015613f6e57600080fd5b505af1158015613f82573d6000803e3d6000fd5b505050507f6bef1b5e95b741d6e665eb9b5c2d3e1203c46a771451055a9d41e0b8ff4510b78160060154604051613fbb91815260200190565b60405180910390a150505050565b60665460ff166119e05760405162461bcd60e51b815260206004820152601460248201527314185d5cd8589b194e881b9bdd081c185d5cd95960621b60448201526064016109df565b600054610100900460ff166140395760405162461bcd60e51b81526004016109df9061517d565b6119e0614044612a2e565b6136c5565b60606140588484600085614198565b90505b9392505050565b61406b81613a25565b6040516001600160a01b038216907fbc7cd75a20ee27fd9adebab32041f755214dbc6bffa90cc0225b39da2e5c2d3b90600090a250565b60606001600160a01b0383163b61410a5760405162461bcd60e51b815260206004820152602660248201527f416464726573733a2064656c65676174652063616c6c20746f206e6f6e2d636f6044820152651b9d1c9858dd60d21b60648201526084016109df565b600080846001600160a01b0316846040516141259190614c8e565b600060405180830381855af49150503d8060008114614160576040519150601f19603f3d011682016040523d82523d6000602084013e614165565b606091505b509150915061418d828260405180606001604052806027815260200161524560279139614273565b925050505b92915050565b6060824710156141f95760405162461bcd60e51b815260206004820152602660248201527f416464726573733a20696e73756666696369656e742062616c616e636520666f6044820152651c8818d85b1b60d21b60648201526084016109df565b600080866001600160a01b031685876040516142159190614c8e565b60006040518083038185875af1925050503d8060008114614252576040519150601f19603f3d011682016040523d82523d6000602084013e614257565b606091505b50915091506142688783838761428c565b979650505050505050565b6060831561428257508161405b565b61405b8383614301565b606083156142fb5782516000036142f4576001600160a01b0385163b6142f45760405162461bcd60e51b815260206004820152601d60248201527f416464726573733a2063616c6c20746f206e6f6e2d636f6e747261637400000060448201526064016109df565b50816113ff565b6113ff83835b8151156143115781518083602001fd5b8060405162461bcd60e51b81526004016109df9190615087565b6001600160a01b03811681146116b557600080fd5b60006020828403121561435257600080fd5b813561405b8161432b565b60006020828403121561436f57600080fd5b5035919050565b634e487b7160e01b600052602160045260246000fd5b6005811061439c5761439c614376565b9052565b60005b838110156143bb5781810151838201526020016143a3565b50506000910152565b600081518084526143dc8160208601602086016143a0565b601f01601f19169290920160200192915050565b60208152815160208201526000602083015161441760408401826001600160a01b03169052565b5060408301516001600160a01b03811660608401525060608301516001600160a01b038116608084015250608083015160a083015260a083015160c083015260c083015160e083015260e08301516101008181850152808501519150506101206144868185018361ffff169052565b840151905061014061449d8482018361ffff169052565b84015190506101606144b48482018361ffff169052565b84015190506101806144d0848201836001600160a01b03169052565b84015190506101a06144e48482018361438c565b8401516101c0848101919091528401516101e08085019190915284015161020080850191909152840151610220808501919091528401516102c0610240808601829052919250906145396102e08601846143c4565b9086015161026086810191909152860151610280808701919091528601516102a080870191909152909501519301929092525090919050565b634e487b7160e01b600052604160045260246000fd5b604051610100810167ffffffffffffffff811182821017156145ac576145ac614572565b60405290565b604051610160810167ffffffffffffffff811182821017156145ac576145ac614572565b604051601f8201601f1916810167ffffffffffffffff811182821017156145ff576145ff614572565b604052919050565b600067ffffffffffffffff82111561462157614621614572565b50601f01601f191660200190565b600061464261463d84614607565b6145d6565b905082815283838301111561465657600080fd5b828260208301376000602084830101529392505050565b600082601f83011261467e57600080fd5b61405b8383356020850161462f565b600080600080608085870312156146a357600080fd5b8435935060208501359250604085013567ffffffffffffffff808211156146c957600080fd5b6146d58883890161466d565b935060608701359150808211156146eb57600080fd5b506146f88782880161466d565b91505092959194509250565b6000806040838503121561471757600080fd5b50508035926020909101359150565b60008060006060848603121561473b57600080fd5b505081359360208301359350604090920135919050565b6000806040838503121561476557600080fd5b82356147708161432b565b9150602083013567ffffffffffffffff81111561478c57600080fd5b8301601f8101851361479d57600080fd5b6147ac8582356020840161462f565b9150509250929050565b6000806000606084860312156147cb57600080fd5b8335925060208401359150604084013567ffffffffffffffff8111156147f057600080fd5b6147fc8682870161466d565b9150509250925092565b6000806040838503121561481957600080fd5b82359150602083013561482b8161432b565b809150509250929050565b61ffff811681146116b557600080fd5b60006020828403121561485857600080fd5b813561405b81614836565b6000806000806080858703121561487957600080fd5b84356148848161432b565b935060208501356148948161432b565b925060408501356148a48161432b565b915060608501356148b48161432b565b939692955090935050565b6000602082840312156148d157600080fd5b5051919050565b600181811c908216806148ec57607f821691505b60208210810361490c57634e487b7160e01b600052602260045260246000fd5b50919050565b80516005811061492157600080fd5b919050565b600082601f83011261493757600080fd5b815161494561463d82614607565b81815284602083860101111561495a57600080fd5b6113ff8260208301602087016143a0565b80516149218161432b565b80516002811061492157600080fd5b6000610100828403121561499857600080fd5b6149a0614588565b90506149ab82614976565b8152602082015160208201526149c36040830161496b565b6040820152606082015160608201526080820151608082015260a082015167ffffffffffffffff8111156149f657600080fd5b614a0284828501614926565b60a08301525060c082015160c082015260e082015160e082015292915050565b60008060408385031215614a3557600080fd5b825167ffffffffffffffff80821115614a4d57600080fd5b908401906101008287031215614a6257600080fd5b614a6a614588565b614a7383614912565b81526020830151602082015260408301516040820152606083015182811115614a9b57600080fd5b614aa788828601614926565b6060830152506080830151608082015260a083015160a0820152614acd60c0840161496b565b60c082015260e083015160e0820152809450506020850151915080821115614af457600080fd5b506147ac85828601614985565b60008060408385031215614b1457600080fd5b8251614b1f8161432b565b602084015190925061482b8161432b565b805161492181614836565b600060208284031215614b4d57600080fd5b815167ffffffffffffffff80821115614b6557600080fd5b908301906101608286031215614b7a57600080fd5b614b826145b2565b82518152602083015182811115614b9857600080fd5b614ba487828601614926565b602083015250604083015182811115614bbc57600080fd5b614bc887828601614926565b604083015250614bda60608401614b30565b6060820152614beb60808401614b30565b608082015260a083015160a082015260c083015160c0820152614c1060e0840161496b565b60e08201526101008084015183811115614c2957600080fd5b614c3588828701614926565b828401525050610120915081830151828201526101409150614c5882840161496b565b91810191909152949350505050565b6020808252600d908201526c1058d8d95cdcc819195b9a5959609a1b604082015260600190565b60008251614ca08184602087016143a0565b9190910192915050565b601f821115611df557600081815260208120601f850160051c81016020861015614cd15750805b601f850160051c820191505b8181101561384957828155600101614cdd565b815167ffffffffffffffff811115614d0a57614d0a614572565b614d1e81614d1884546148d8565b84614caa565b602080601f831160018114614d535760008415614d3b5750858301515b600019600386901b1c1916600185901b178555613849565b600085815260208120601f198616915b82811015614d8257888601518255948401946001909101908401614d63565b5085821015614da05787850151600019600388901b60f8161c191681555b5050505050600190811b01905550565b6020808252602c908201527f46756e6374696f6e206d7573742062652063616c6c6564207468726f7567682060408201526b19195b1959d85d1958d85b1b60a21b606082015260800190565b6020808252602c908201527f46756e6374696f6e206d7573742062652063616c6c6564207468726f7567682060408201526b6163746976652070726f787960a01b606082015260800190565b600060208284031215614e5a57600080fd5b8151801515811461405b57600080fd5b6020808252601590820152744e6f74206f776e6572206f722064656c656761746560581b604082015260600190565b634e487b7160e01b600052601160045260246000fd5b8181038181111561419257614192614e99565b8082018082111561419257614192614e99565b602080825260129082015271105c989a5d1c985d1bdc881b9bdd081cd95d60721b604082015260600190565b6020808252604d908201527f446973707574652068617320616c7265616479206265656e206372656174656460408201527f206f72206265636175736520746865207472616e73616374696f6e206861732060608201526c1899595b88195e1958dd5d1959609a1b608082015260a00190565b60008154614f81816148d8565b808552602060018381168015614f9e5760018114614fb857614fe6565b60ff1985168884015283151560051b880183019550614fe6565b866000528260002060005b85811015614fde5781548a8201860152908301908401614fc3565b890184019650505b505050505092915050565b60208152600061405b6020830184614f74565b600281106116b5576116b5614376565b6060810161502185615004565b84825261502d84615004565b602082019390935260400152919050565b6020810161504b83615004565b91905290565b8281526040602082015260006140586040830184614f74565b60006020828403121561507c57600080fd5b815161405b8161432b565b60208152600061405b60208301846143c4565b808202811582820484141761419257614192614e99565b6000826150ce57634e487b7160e01b600052601260045260246000fd5b500490565b8d8152602081018d9052604081018c90526001600160a01b038b81166060830152608082018b905260a082018a905260c0820189905261ffff88811660e08401528781166101008401528616610120830152841661014082015260006101a08061016084015261514581840186614f74565b915050826101808301529e9d5050505050505050505050505050565b60ff831681526040602082015260006140586040830184614f74565b6020808252602b908201527f496e697469616c697a61626c653a20636f6e7472616374206973206e6f74206960408201526a6e697469616c697a696e6760a81b606082015260800190565b85815260a081016151d886615004565b60208201959095526001600160a01b03939093166040840152606083019190915260809091015291905056fe360894a13ba1a3210667c828492db98dca3e2076cc3735a920a3ca505d382bbc73e533bc8a993eccbc1023beebad0020f6b6c3639f83062f00fc194b4d1172ba416464726573733a206c6f772d6c6576656c2064656c65676174652063616c6c206661696c6564a26469706673582212209cd484152de0f8ab5afef222ae458392a7baecda35d5409a9bb7a3267838ddba64736f6c63430008110033",
  "linkReferences": {},
  "deployedLinkReferences": {}
}