{
  "_format": "hh-sol-artifact-1",
  "contractName": "TalentLayerService",
  "sourceName": "contracts/TalentLayerService.sol",
  "abi": [
    {
      "inputs": [],
      "stateMutability": "nonpayable",
      "type": "constructor"
    },
    {
      "anonymous": false,
      "inputs": [
        {
          "indexed": false,
          "internalType": "address",
          "name": "previousAdmin",
          "type": "address"
        },
        {
          "indexed": false,
          "internalType": "address",
          "name": "newAdmin",
          "type": "address"
        }
      ],
      "name": "AdminChanged",
      "type": "event"
    },
    {
      "anonymous": false,
      "inputs": [
        {
          "indexed": false,
          "internalType": "address",
          "name": "_tokenAddress",
          "type": "address"
        },
        {
          "indexed": false,
          "internalType": "bool",
          "name": "_status",
          "type": "bool"
        }
      ],
      "name": "AllowedTokenListUpdated",
      "type": "event"
    },
    {
      "anonymous": false,
      "inputs": [
        {
          "indexed": true,
          "internalType": "address",
          "name": "beacon",
          "type": "address"
        }
      ],
      "name": "BeaconUpgraded",
      "type": "event"
    },
    {
      "anonymous": false,
      "inputs": [
        {
          "indexed": false,
          "internalType": "uint8",
          "name": "version",
          "type": "uint8"
        }
      ],
      "name": "Initialized",
      "type": "event"
    },
    {
      "anonymous": false,
      "inputs": [
        {
          "indexed": true,
          "internalType": "address",
          "name": "previousOwner",
          "type": "address"
        },
        {
          "indexed": true,
          "internalType": "address",
          "name": "newOwner",
          "type": "address"
        }
      ],
      "name": "OwnershipTransferred",
      "type": "event"
    },
    {
      "anonymous": false,
      "inputs": [
        {
          "indexed": false,
          "internalType": "uint256",
          "name": "serviceId",
          "type": "uint256"
        },
        {
          "indexed": false,
          "internalType": "uint256",
          "name": "ownerId",
          "type": "uint256"
        },
        {
          "indexed": false,
          "internalType": "string",
          "name": "dataUri",
          "type": "string"
        },
        {
          "indexed": false,
          "internalType": "enum TalentLayerService.ProposalStatus",
          "name": "status",
          "type": "uint8"
        },
        {
          "indexed": false,
          "internalType": "address",
          "name": "rateToken",
          "type": "address"
        },
        {
          "indexed": false,
          "internalType": "uint256",
          "name": "rateAmount",
          "type": "uint256"
        },
        {
          "indexed": false,
          "internalType": "uint16",
          "name": "platformId",
          "type": "uint16"
        },
        {
          "indexed": false,
          "internalType": "uint256",
          "name": "expirationDate",
          "type": "uint256"
        }
      ],
      "name": "ProposalCreated",
      "type": "event"
    },
    {
      "anonymous": false,
      "inputs": [
        {
          "indexed": false,
          "internalType": "uint256",
          "name": "serviceId",
          "type": "uint256"
        },
        {
          "indexed": false,
          "internalType": "uint256",
          "name": "ownerId",
          "type": "uint256"
        },
        {
          "indexed": false,
          "internalType": "string",
          "name": "dataUri",
          "type": "string"
        },
        {
          "indexed": false,
          "internalType": "address",
          "name": "rateToken",
          "type": "address"
        },
        {
          "indexed": false,
          "internalType": "uint256",
          "name": "rateAmount",
          "type": "uint256"
        },
        {
          "indexed": false,
          "internalType": "uint256",
          "name": "_expirationDate",
          "type": "uint256"
        }
      ],
      "name": "ProposalUpdated",
      "type": "event"
    },
    {
      "anonymous": false,
      "inputs": [
        {
          "indexed": true,
          "internalType": "bytes32",
          "name": "role",
          "type": "bytes32"
        },
        {
          "indexed": true,
          "internalType": "bytes32",
          "name": "previousAdminRole",
          "type": "bytes32"
        },
        {
          "indexed": true,
          "internalType": "bytes32",
          "name": "newAdminRole",
          "type": "bytes32"
        }
      ],
      "name": "RoleAdminChanged",
      "type": "event"
    },
    {
      "anonymous": false,
      "inputs": [
        {
          "indexed": true,
          "internalType": "bytes32",
          "name": "role",
          "type": "bytes32"
        },
        {
          "indexed": true,
          "internalType": "address",
          "name": "account",
          "type": "address"
        },
        {
          "indexed": true,
          "internalType": "address",
          "name": "sender",
          "type": "address"
        }
      ],
      "name": "RoleGranted",
      "type": "event"
    },
    {
      "anonymous": false,
      "inputs": [
        {
          "indexed": true,
          "internalType": "bytes32",
          "name": "role",
          "type": "bytes32"
        },
        {
          "indexed": true,
          "internalType": "address",
          "name": "account",
          "type": "address"
        },
        {
          "indexed": true,
          "internalType": "address",
          "name": "sender",
          "type": "address"
        }
      ],
      "name": "RoleRevoked",
      "type": "event"
    },
    {
      "anonymous": false,
      "inputs": [
        {
          "indexed": false,
          "internalType": "uint256",
          "name": "id",
          "type": "uint256"
        }
      ],
      "name": "ServiceCancelled",
      "type": "event"
    },
    {
      "anonymous": false,
      "inputs": [
        {
          "indexed": false,
          "internalType": "uint256",
          "name": "id",
          "type": "uint256"
        },
        {
          "indexed": false,
          "internalType": "uint256",
          "name": "ownerId",
          "type": "uint256"
        },
        {
          "indexed": false,
          "internalType": "uint256",
          "name": "platformId",
          "type": "uint256"
        },
        {
          "indexed": false,
          "internalType": "string",
          "name": "dataUri",
          "type": "string"
        }
      ],
      "name": "ServiceCreated",
      "type": "event"
    },
    {
      "anonymous": false,
      "inputs": [
        {
          "indexed": true,
          "internalType": "uint256",
          "name": "id",
          "type": "uint256"
        },
        {
          "indexed": false,
          "internalType": "string",
          "name": "dataUri",
          "type": "string"
        }
      ],
      "name": "ServiceDetailedUpdated",
      "type": "event"
    },
    {
      "anonymous": false,
      "inputs": [
        {
          "indexed": false,
          "internalType": "address",
          "name": "forwarder",
          "type": "address"
        }
      ],
      "name": "TrustedForwarderAdded",
      "type": "event"
    },
    {
      "anonymous": false,
      "inputs": [
        {
          "indexed": false,
          "internalType": "address",
          "name": "forwarder",
          "type": "address"
        }
      ],
      "name": "TrustedForwarderRemoved",
      "type": "event"
    },
    {
      "anonymous": false,
      "inputs": [
        {
          "indexed": true,
          "internalType": "address",
          "name": "implementation",
          "type": "address"
        }
      ],
      "name": "Upgraded",
      "type": "event"
    },
    {
      "inputs": [],
      "name": "DEFAULT_ADMIN_ROLE",
      "outputs": [
        {
          "internalType": "bytes32",
          "name": "",
          "type": "bytes32"
        }
      ],
      "stateMutability": "view",
      "type": "function"
    },
    {
      "inputs": [],
      "name": "ESCROW_ROLE",
      "outputs": [
        {
          "internalType": "bytes32",
          "name": "",
          "type": "bytes32"
        }
      ],
      "stateMutability": "view",
      "type": "function"
    },
    {
      "inputs": [
        {
          "internalType": "address",
          "name": "_forwarder",
          "type": "address"
        }
      ],
      "name": "addTrustedForwarder",
      "outputs": [],
      "stateMutability": "nonpayable",
      "type": "function"
    },
    {
      "inputs": [
        {
          "internalType": "uint256",
          "name": "_serviceId",
          "type": "uint256"
        },
        {
          "internalType": "uint256",
          "name": "_proposalId",
          "type": "uint256"
        },
        {
          "internalType": "uint256",
          "name": "_transactionId",
          "type": "uint256"
        }
      ],
      "name": "afterDeposit",
      "outputs": [],
      "stateMutability": "nonpayable",
      "type": "function"
    },
    {
      "inputs": [
        {
          "internalType": "uint256",
          "name": "_serviceId",
          "type": "uint256"
        }
      ],
      "name": "afterFullPayment",
      "outputs": [],
      "stateMutability": "nonpayable",
      "type": "function"
    },
    {
      "inputs": [
        {
          "internalType": "address",
          "name": "",
          "type": "address"
        }
      ],
      "name": "allowedTokenList",
      "outputs": [
        {
          "internalType": "bool",
          "name": "",
          "type": "bool"
        }
      ],
      "stateMutability": "view",
      "type": "function"
    },
    {
      "inputs": [
        {
          "internalType": "uint256",
          "name": "_profileId",
          "type": "uint256"
        },
        {
          "internalType": "uint256",
          "name": "_serviceId",
          "type": "uint256"
        }
      ],
      "name": "cancelService",
      "outputs": [],
      "stateMutability": "nonpayable",
      "type": "function"
    },
    {
      "inputs": [
        {
          "internalType": "uint256",
          "name": "_profileId",
          "type": "uint256"
        },
        {
          "internalType": "uint256",
          "name": "_serviceId",
          "type": "uint256"
        },
        {
          "internalType": "address",
          "name": "_rateToken",
          "type": "address"
        },
        {
          "internalType": "uint256",
          "name": "_rateAmount",
          "type": "uint256"
        },
        {
          "internalType": "uint16",
          "name": "_platformId",
          "type": "uint16"
        },
        {
          "internalType": "string",
          "name": "_dataUri",
          "type": "string"
        },
        {
          "internalType": "uint256",
          "name": "_expirationDate",
          "type": "uint256"
        }
      ],
      "name": "createProposal",
      "outputs": [],
      "stateMutability": "payable",
      "type": "function"
    },
    {
      "inputs": [
        {
          "internalType": "uint256",
          "name": "_profileId",
          "type": "uint256"
        },
        {
          "internalType": "uint256",
          "name": "_platformId",
          "type": "uint256"
        },
        {
          "internalType": "string",
          "name": "_dataUri",
          "type": "string"
        }
      ],
      "name": "createService",
      "outputs": [
        {
          "internalType": "uint256",
          "name": "",
          "type": "uint256"
        }
      ],
      "stateMutability": "payable",
      "type": "function"
    },
    {
      "inputs": [
        {
          "internalType": "uint256",
          "name": "_serviceId",
          "type": "uint256"
        },
        {
          "internalType": "uint256",
          "name": "_proposalId",
          "type": "uint256"
        }
      ],
      "name": "getProposal",
      "outputs": [
        {
          "components": [
            {
              "internalType": "enum TalentLayerService.ProposalStatus",
              "name": "status",
              "type": "uint8"
            },
            {
              "internalType": "uint256",
              "name": "ownerId",
              "type": "uint256"
            },
            {
              "internalType": "address",
              "name": "rateToken",
              "type": "address"
            },
            {
              "internalType": "uint256",
              "name": "rateAmount",
              "type": "uint256"
            },
            {
              "internalType": "uint16",
              "name": "platformId",
              "type": "uint16"
            },
            {
              "internalType": "string",
              "name": "dataUri",
              "type": "string"
            },
            {
              "internalType": "uint256",
              "name": "expirationDate",
              "type": "uint256"
            }
          ],
          "internalType": "struct TalentLayerService.Proposal",
          "name": "",
          "type": "tuple"
        }
      ],
      "stateMutability": "view",
      "type": "function"
    },
    {
      "inputs": [
        {
          "internalType": "bytes32",
          "name": "role",
          "type": "bytes32"
        }
      ],
      "name": "getRoleAdmin",
      "outputs": [
        {
          "internalType": "bytes32",
          "name": "",
          "type": "bytes32"
        }
      ],
      "stateMutability": "view",
      "type": "function"
    },
    {
      "inputs": [
        {
          "internalType": "uint256",
          "name": "_serviceId",
          "type": "uint256"
        }
      ],
      "name": "getService",
      "outputs": [
        {
          "components": [
            {
              "internalType": "enum TalentLayerService.Status",
              "name": "status",
              "type": "uint8"
            },
            {
              "internalType": "uint256",
              "name": "ownerId",
              "type": "uint256"
            },
            {
              "internalType": "uint256",
              "name": "acceptedProposalId",
              "type": "uint256"
            },
            {
              "internalType": "string",
              "name": "dataUri",
              "type": "string"
            },
            {
              "internalType": "uint256",
              "name": "transactionId",
              "type": "uint256"
            },
            {
              "internalType": "uint256",
              "name": "platformId",
              "type": "uint256"
            }
          ],
          "internalType": "struct TalentLayerService.Service",
          "name": "",
          "type": "tuple"
        }
      ],
      "stateMutability": "view",
      "type": "function"
    },
    {
      "inputs": [
        {
          "internalType": "bytes32",
          "name": "role",
          "type": "bytes32"
        },
        {
          "internalType": "address",
          "name": "account",
          "type": "address"
        }
      ],
      "name": "grantRole",
      "outputs": [],
      "stateMutability": "nonpayable",
      "type": "function"
    },
    {
      "inputs": [
        {
          "internalType": "bytes32",
          "name": "role",
          "type": "bytes32"
        },
        {
          "internalType": "address",
          "name": "account",
          "type": "address"
        }
      ],
      "name": "hasRole",
      "outputs": [
        {
          "internalType": "bool",
          "name": "",
          "type": "bool"
        }
      ],
      "stateMutability": "view",
      "type": "function"
    },
    {
      "inputs": [
        {
          "internalType": "address",
          "name": "_talentLayerIdAddress",
          "type": "address"
        },
        {
          "internalType": "address",
          "name": "_talentLayerPlatformIdAddress",
          "type": "address"
        }
      ],
      "name": "initialize",
      "outputs": [],
      "stateMutability": "nonpayable",
      "type": "function"
    },
    {
      "inputs": [
        {
          "internalType": "address",
          "name": "_tokenAddress",
          "type": "address"
        }
      ],
      "name": "isTokenAllowed",
      "outputs": [
        {
          "internalType": "bool",
          "name": "",
          "type": "bool"
        }
      ],
      "stateMutability": "view",
      "type": "function"
    },
    {
      "inputs": [
        {
          "internalType": "address",
          "name": "forwarder",
          "type": "address"
        }
      ],
      "name": "isTrustedForwarder",
      "outputs": [
        {
          "internalType": "bool",
          "name": "",
          "type": "bool"
        }
      ],
      "stateMutability": "view",
      "type": "function"
    },
    {
      "inputs": [],
      "name": "nextServiceId",
      "outputs": [
        {
          "internalType": "uint256",
          "name": "",
          "type": "uint256"
        }
      ],
      "stateMutability": "view",
      "type": "function"
    },
    {
      "inputs": [],
      "name": "owner",
      "outputs": [
        {
          "internalType": "address",
          "name": "",
          "type": "address"
        }
      ],
      "stateMutability": "view",
      "type": "function"
    },
    {
      "inputs": [
        {
          "internalType": "uint256",
          "name": "",
          "type": "uint256"
        },
        {
          "internalType": "uint256",
          "name": "",
          "type": "uint256"
        }
      ],
      "name": "proposals",
      "outputs": [
        {
          "internalType": "enum TalentLayerService.ProposalStatus",
          "name": "status",
          "type": "uint8"
        },
        {
          "internalType": "uint256",
          "name": "ownerId",
          "type": "uint256"
        },
        {
          "internalType": "address",
          "name": "rateToken",
          "type": "address"
        },
        {
          "internalType": "uint256",
          "name": "rateAmount",
          "type": "uint256"
        },
        {
          "internalType": "uint16",
          "name": "platformId",
          "type": "uint16"
        },
        {
          "internalType": "string",
          "name": "dataUri",
          "type": "string"
        },
        {
          "internalType": "uint256",
          "name": "expirationDate",
          "type": "uint256"
        }
      ],
      "stateMutability": "view",
      "type": "function"
    },
    {
      "inputs": [],
      "name": "proxiableUUID",
      "outputs": [
        {
          "internalType": "bytes32",
          "name": "",
          "type": "bytes32"
        }
      ],
      "stateMutability": "view",
      "type": "function"
    },
    {
      "inputs": [
        {
          "internalType": "address",
          "name": "_forwarder",
          "type": "address"
        }
      ],
      "name": "removeTrustedForwarder",
      "outputs": [],
      "stateMutability": "nonpayable",
      "type": "function"
    },
    {
      "inputs": [],
      "name": "renounceOwnership",
      "outputs": [],
      "stateMutability": "nonpayable",
      "type": "function"
    },
    {
      "inputs": [
        {
          "internalType": "bytes32",
          "name": "role",
          "type": "bytes32"
        },
        {
          "internalType": "address",
          "name": "account",
          "type": "address"
        }
      ],
      "name": "renounceRole",
      "outputs": [],
      "stateMutability": "nonpayable",
      "type": "function"
    },
    {
      "inputs": [
        {
          "internalType": "bytes32",
          "name": "role",
          "type": "bytes32"
        },
        {
          "internalType": "address",
          "name": "account",
          "type": "address"
        }
      ],
      "name": "revokeRole",
      "outputs": [],
      "stateMutability": "nonpayable",
      "type": "function"
    },
    {
      "inputs": [
        {
          "internalType": "uint256",
          "name": "",
          "type": "uint256"
        }
      ],
      "name": "services",
      "outputs": [
        {
          "internalType": "enum TalentLayerService.Status",
          "name": "status",
          "type": "uint8"
        },
        {
          "internalType": "uint256",
          "name": "ownerId",
          "type": "uint256"
        },
        {
          "internalType": "uint256",
          "name": "acceptedProposalId",
          "type": "uint256"
        },
        {
          "internalType": "string",
          "name": "dataUri",
          "type": "string"
        },
        {
          "internalType": "uint256",
          "name": "transactionId",
          "type": "uint256"
        },
        {
          "internalType": "uint256",
          "name": "platformId",
          "type": "uint256"
        }
      ],
      "stateMutability": "view",
      "type": "function"
    },
    {
      "inputs": [
        {
          "internalType": "bytes4",
          "name": "interfaceId",
          "type": "bytes4"
        }
      ],
      "name": "supportsInterface",
      "outputs": [
        {
          "internalType": "bool",
          "name": "",
          "type": "bool"
        }
      ],
      "stateMutability": "view",
      "type": "function"
    },
    {
      "inputs": [],
      "name": "talentLayerPlatformIdContract",
      "outputs": [
        {
          "internalType": "contract ITalentLayerPlatformID",
          "name": "",
          "type": "address"
        }
      ],
      "stateMutability": "view",
      "type": "function"
    },
    {
      "inputs": [
        {
          "internalType": "address",
          "name": "newOwner",
          "type": "address"
        }
      ],
      "name": "transferOwnership",
      "outputs": [],
      "stateMutability": "nonpayable",
      "type": "function"
    },
    {
      "inputs": [
        {
          "internalType": "address",
          "name": "_tokenAddress",
          "type": "address"
        },
        {
          "internalType": "bool",
          "name": "_status",
          "type": "bool"
        }
      ],
      "name": "updateAllowedTokenList",
      "outputs": [],
      "stateMutability": "nonpayable",
      "type": "function"
    },
    {
      "inputs": [
        {
          "internalType": "uint256",
          "name": "_profileId",
          "type": "uint256"
        },
        {
          "internalType": "uint256",
          "name": "_serviceId",
          "type": "uint256"
        },
        {
          "internalType": "address",
          "name": "_rateToken",
          "type": "address"
        },
        {
          "internalType": "uint256",
          "name": "_rateAmount",
          "type": "uint256"
        },
        {
          "internalType": "string",
          "name": "_dataUri",
          "type": "string"
        },
        {
          "internalType": "uint256",
          "name": "_expirationDate",
          "type": "uint256"
        }
      ],
      "name": "updateProposal",
      "outputs": [],
      "stateMutability": "nonpayable",
      "type": "function"
    },
    {
      "inputs": [
        {
          "internalType": "uint256",
          "name": "_profileId",
          "type": "uint256"
        },
        {
          "internalType": "uint256",
          "name": "_serviceId",
          "type": "uint256"
        },
        {
          "internalType": "string",
          "name": "_dataUri",
          "type": "string"
        }
      ],
      "name": "updateServiceData",
      "outputs": [],
      "stateMutability": "nonpayable",
      "type": "function"
    },
    {
      "inputs": [
        {
          "internalType": "address",
          "name": "newImplementation",
          "type": "address"
        }
      ],
      "name": "upgradeTo",
      "outputs": [],
      "stateMutability": "nonpayable",
      "type": "function"
    },
    {
      "inputs": [
        {
          "internalType": "address",
          "name": "newImplementation",
          "type": "address"
        },
        {
          "internalType": "bytes",
          "name": "data",
          "type": "bytes"
        }
      ],
      "name": "upgradeToAndCall",
      "outputs": [],
      "stateMutability": "payable",
      "type": "function"
    }
  ],
  "bytecode": "0x60a0604052306080523480156200001557600080fd5b506200002062000026565b620000e8565b600054610100900460ff1615620000935760405162461bcd60e51b815260206004820152602760248201527f496e697469616c697a61626c653a20636f6e747261637420697320696e697469604482015266616c697a696e6760c81b606482015260840160405180910390fd5b60005460ff9081161015620000e6576000805460ff191660ff9081179091556040519081527f7f26b83ff96e1f2b6a682f133852f6798a09c465da95921460cefb38474024989060200160405180910390a15b565b6080516135926200012060003960008181610bfc01528181610c3c01528181610ee701528181610f270152610fb601526135926000f3fe6080604052600436106101f95760003560e01c806371da85f91161010d578063c2cfee27116100a0578063d547741f1161006f578063d547741f14610612578063ef0e239b14610632578063f2fde38b1461065f578063f6c53d9b1461067f578063f9eaee0d1461069657600080fd5b8063c2cfee271461058c578063c65b4d05146105bf578063c75858d5146105d2578063c9016774146105f257600080fd5b8063a3be4da4116100dc578063a3be4da4146104fa578063a7d5eaea1461050d578063aba210091461052d578063c22c4f431461055a57600080fd5b806371da85f9146104765780638da5cb5b146104a757806391d14854146104c5578063a217fddf146104e557600080fd5b80633659cfe6116101905780634f1ef2861161015f5780634f1ef286146103cc57806352d1902d146103df578063572b6c05146103f45780636ce76f301461042d578063715018a61461046157600080fd5b80633659cfe61461034c5780633751d89c1461036c578063485cc9551461038c57806349c6559c146103ac57600080fd5b8063248a9ca3116101cc578063248a9ca3146102ae57806326d00668146102ec5780632f2ff15d1461030c57806336568abe1461032c57600080fd5b806301ffc9a7146101fe578063089b7c73146102335780630e066025146102555780631499f9e614610275575b600080fd5b34801561020a57600080fd5b5061021e610219366004612961565b6106d0565b60405190151581526020015b60405180910390f35b34801561023f57600080fd5b5061025361024e36600461298b565b610707565b005b34801561026157600080fd5b506102536102703660046129f6565b6108ec565b34801561028157600080fd5b5061013054610296906001600160a01b031681565b6040516001600160a01b03909116815260200161022a565b3480156102ba57600080fd5b506102de6102c9366004612a49565b600090815260fc602052604090206001015490565b60405190815260200161022a565b3480156102f857600080fd5b50610253610307366004612a7e565b610ad7565b34801561031857600080fd5b50610253610327366004612a99565b610b3a565b34801561033857600080fd5b50610253610347366004612a99565b610b64565b34801561035857600080fd5b50610253610367366004612a7e565b610bf2565b34801561037857600080fd5b50610253610387366004612a7e565b610cd1565b34801561039857600080fd5b506102536103a7366004612ac5565b610d2a565b3480156103b857600080fd5b506102536103c7366004612a49565b610e96565b6102536103da366004612b05565b610edd565b3480156103eb57600080fd5b506102de610fa9565b34801561040057600080fd5b5061021e61040f366004612a7e565b6001600160a01b031660009081526065602052604090205460ff1690565b34801561043957600080fd5b506102de7f2fdac322ee704ce09f0773f7f3f92eb98d5e7c836ee9c056cccd5f61041e5e3f81565b34801561046d57600080fd5b5061025361105c565b34801561048257600080fd5b5061021e610491366004612a7e565b6101336020526000908152604090205460ff1681565b3480156104b357600080fd5b506033546001600160a01b0316610296565b3480156104d157600080fd5b5061021e6104e0366004612a99565b611070565b3480156104f157600080fd5b506102de600081565b610253610508366004612bc7565b61109b565b34801561051957600080fd5b50610253610528366004612c59565b611554565b34801561053957600080fd5b5061054d61054836600461298b565b6115cd565b60405161022a9190612cff565b34801561056657600080fd5b5061057a610575366004612a49565b61172e565b60405161022a96959493929190612d87565b34801561059857600080fd5b506105ac6105a736600461298b565b6117f2565b60405161022a9796959493929190612dc8565b6102de6105cd3660046129f6565b6118d8565b3480156105de57600080fd5b506102536105ed366004612e20565b611aed565b3480156105fe57600080fd5b5061025361060d366004612ea8565b611dd0565b34801561061e57600080fd5b5061025361062d366004612a99565b611eb1565b34801561063e57600080fd5b5061065261064d366004612a49565b611ed6565b60405161022a9190612edf565b34801561066b57600080fd5b5061025361067a366004612a7e565b61206a565b34801561068b57600080fd5b506102de61012e5481565b3480156106a257600080fd5b5061021e6106b1366004612a7e565b6001600160a01b03166000908152610133602052604090205460ff1690565b60006001600160e01b03198216637965db0b60e01b148061070157506301ffc9a760e01b6001600160e01b03198316145b92915050565b61012f5482906001600160a01b0316632fa117e5826107246120e0565b6040516001600160e01b031960e085901b16815260048101929092526001600160a01b03166024820152604401602060405180830381865afa15801561076e573d6000803e3d6000fd5b505050506040513d601f19601f820116820180604052508101906107929190612f40565b6107b75760405162461bcd60e51b81526004016107ae90612f5d565b60405180910390fd5b600082815261013160205260409020600181015484146108275760405162461bcd60e51b815260206004820152602560248201527f4f6e6c7920746865206f776e65722063616e2063616e63656c20746865207365604482015264727669636560d81b60648201526084016107ae565b6000815460ff16600381111561083f5761083f612c85565b146108a85760405162461bcd60e51b815260206004820152603360248201527f4f6e6c79207365727669636573207769746820746865206f70656e20737461746044820152721d5cc818d85b8818994818d85b98d95b1b1959606a1b60648201526084016107ae565b805460ff191660031781556040518381527f853aa4be1ac86f37acfc91d42b57f1fe895205aa6f8f9b7caa77ca257049ab1a9060200160405180910390a150505050565b61012f5484906001600160a01b0316632fa117e5826109096120e0565b6040516001600160e01b031960e085901b16815260048101929092526001600160a01b03166024820152604401602060405180830381865afa158015610953573d6000803e3d6000fd5b505050506040513d601f19601f820116820180604052508101906109779190612f40565b6109935760405162461bcd60e51b81526004016107ae90612f5d565b60008481526101316020526040902060018101548614610a035760405162461bcd60e51b815260206004820152602560248201527f4f6e6c7920746865206f776e65722063616e2075706461746520746865207365604482015264727669636560d81b60648201526084016107ae565b6000815460ff166003811115610a1b57610a1b612c85565b14610a685760405162461bcd60e51b815260206004820152601f60248201527f53657276696365207374617475732073686f756c64206265206f70656e65640060448201526064016107ae565b82610a855760405162461bcd60e51b81526004016107ae90612f8c565b60038101610a9484868361304b565b50847f1cae99404f615a4039d85b1009cb70622aae6d64f671e8b1b191d9269847d43e8585604051610ac7929190613135565b60405180910390a2505050505050565b610adf6120ef565b6001600160a01b038116600081815260656020908152604091829020805460ff1916600117905590519182527f3ef8564460ada92419608d823c014975d98f8104d7d1e68c222967ac6814cd9791015b60405180910390a150565b600082815260fc6020526040902060010154610b5581612168565b610b5f8383612179565b505050565b610b6c6120e0565b6001600160a01b0316816001600160a01b031614610be45760405162461bcd60e51b815260206004820152602f60248201527f416363657373436f6e74726f6c3a2063616e206f6e6c792072656e6f756e636560448201526e103937b632b9903337b91039b2b63360891b60648201526084016107ae565b610bee8282612200565b5050565b6001600160a01b037f0000000000000000000000000000000000000000000000000000000000000000163003610c3a5760405162461bcd60e51b81526004016107ae90613151565b7f00000000000000000000000000000000000000000000000000000000000000006001600160a01b0316610c83600080516020613516833981519152546001600160a01b031690565b6001600160a01b031614610ca95760405162461bcd60e51b81526004016107ae9061319d565b610cb281612285565b60408051600080825260208201909252610cce9183919061228d565b50565b610cd96120ef565b6001600160a01b038116600081815260656020908152604091829020805460ff1916905590519182527fd2d636efcad0cea42e170256f4c5d8b1cd81e47b855557edaf44014e6cc4cee69101610b2f565b600054610100900460ff1615808015610d4a5750600054600160ff909116105b80610d645750303b158015610d64575060005460ff166001145b610dc75760405162461bcd60e51b815260206004820152602e60248201527f496e697469616c697a61626c653a20636f6e747261637420697320616c72656160448201526d191e481a5b9a5d1a585b1a5e995960921b60648201526084016107ae565b6000805460ff191660011790558015610dea576000805461ff0019166101001790555b610df26123f8565b610dfa612427565b610e02612427565b610e146000610e0f6120e0565b61244e565b61012f80546001600160a01b038086166001600160a01b031992831617909255610130805492851692909116919091179055600161012e558015610b5f576000805461ff0019169055604051600181527f7f26b83ff96e1f2b6a682f133852f6798a09c465da95921460cefb38474024989060200160405180910390a1505050565b7f2fdac322ee704ce09f0773f7f3f92eb98d5e7c836ee9c056cccd5f61041e5e3f610ec081612168565b50600090815261013160205260409020805460ff19166002179055565b6001600160a01b037f0000000000000000000000000000000000000000000000000000000000000000163003610f255760405162461bcd60e51b81526004016107ae90613151565b7f00000000000000000000000000000000000000000000000000000000000000006001600160a01b0316610f6e600080516020613516833981519152546001600160a01b031690565b6001600160a01b031614610f945760405162461bcd60e51b81526004016107ae9061319d565b610f9d82612285565b610bee8282600161228d565b6000306001600160a01b037f000000000000000000000000000000000000000000000000000000000000000016146110495760405162461bcd60e51b815260206004820152603860248201527f555550535570677261646561626c653a206d757374206e6f742062652063616c60448201527f6c6564207468726f7567682064656c656761746563616c6c000000000000000060648201526084016107ae565b5060008051602061351683398151915290565b6110646120ef565b61106e6000612458565b565b600091825260fc602090815260408084206001600160a01b0393909316845291905290205460ff1690565b61012f5488906001600160a01b0316632fa117e5826110b86120e0565b6040516001600160e01b031960e085901b16815260048101929092526001600160a01b03166024820152604401602060405180830381865afa158015611102573d6000803e3d6000fd5b505050506040513d601f19601f820116820180604052508101906111269190612f40565b6111425760405162461bcd60e51b81526004016107ae90612f5d565b6001600160a01b0387166000908152610133602052604090205460ff166111a75760405162461bcd60e51b8152602060048201526019602482015278151a1a5cc81d1bdad95b881a5cc81b9bdd08185b1b1bddd959603a1b60448201526064016107ae565b61013054604051634a7ab1d560e01b815261ffff871660048201526000916001600160a01b031690634a7ab1d590602401602060405180830381865afa1580156111f5573d6000803e3d6000fd5b505050506040513d601f19601f8201168201806040525081019061121991906131e9565b905080341461125f5760405162461bcd60e51b81526020600482015260126024820152714e6f6e2d6d61746368696e672066756e647360701b60448201526064016107ae565b60008981526101316020526040812090815460ff16600381111561128557611285612c85565b146112ca5760405162461bcd60e51b815260206004820152601560248201527414d95c9d9a58d9481a5cc81b9bdd081bdc195b9959605a1b60448201526064016107ae565b60008a8152610132602090815260408083208e84529091529020600101548b900361134f5760405162461bcd60e51b815260206004820152602f60248201527f596f7520616c7265616479206372656174656420612070726f706f73616c206660448201526e6f722074686973207365727669636560881b60648201526084016107ae565b8a8160010154036113bc5760405162461bcd60e51b815260206004820152603160248201527f596f7520636f756c646e2774206372656174652070726f706f73616c20666f7260448201527020796f7572206f776e207365727669636560781b60648201526084016107ae565b846113d95760405162461bcd60e51b81526004016107ae90612f8c565b6040805160e0810190915280600081526020018c81526020018a6001600160a01b031681526020018981526020018861ffff16815260200187878080601f016020809104026020016040519081016040528093929190818152602001838380828437600092018290525093855250505060209182018790528c8152610132825260408082208f83529092522081518154829060ff19166001838181111561148257611482612c85565b02179055506020820151600182015560408201516002820180546001600160a01b0319166001600160a01b0390921691909117905560608201516003820155608082015160048201805461ffff191661ffff90921691909117905560a082015160058201906114f19082613202565b5060c082015181600601559050507f1681c3e69e3dbb90d91fbd7df6e21e11a35daef0f91f6a6a0e2968999b5d100e8a8c888860008e8e8e8c60405161153f999897969594939291906132c2565b60405180910390a15050505050505050505050565b7f2fdac322ee704ce09f0773f7f3f92eb98d5e7c836ee9c056cccd5f61041e5e3f61157e81612168565b506000928352610131602090815260408085206101328352818620948652939091529092208154600160ff19918216811784558083015460028501556004909301939093558054909216179055565b6040805160e080820183526000808352602080840182905283850182905260608085018390526080850183905260a085015260c08401829052868252610132815284822086835290528390208351918201909352825491929091829060ff16600181111561163d5761163d612c85565b600181111561164e5761164e612c85565b81526001820154602082015260028201546001600160a01b0316604082015260038201546060820152600482015461ffff16608082015260058201805460a09092019161169a90612fc3565b80601f01602080910402602001604051908101604052809291908181526020018280546116c690612fc3565b80156117135780601f106116e857610100808354040283529160200191611713565b820191906000526020600020905b8154815290600101906020018083116116f657829003601f168201915b50505050508152602001600682015481525050905092915050565b61013160205260009081526040902080546001820154600283015460038401805460ff90941694929391929161176390612fc3565b80601f016020809104026020016040519081016040528092919081815260200182805461178f90612fc3565b80156117dc5780601f106117b1576101008083540402835291602001916117dc565b820191906000526020600020905b8154815290600101906020018083116117bf57829003601f168201915b5050505050908060040154908060050154905086565b61013260209081526000928352604080842090915290825290208054600182015460028301546003840154600485015460058601805460ff9096169694956001600160a01b0390941694929361ffff909216929161184f90612fc3565b80601f016020809104026020016040519081016040528092919081815260200182805461187b90612fc3565b80156118c85780601f1061189d576101008083540402835291602001916118c8565b820191906000526020600020905b8154815290600101906020018083116118ab57829003601f168201915b5050505050908060060154905087565b61012f5460009085906001600160a01b0316632fa117e5826118f86120e0565b6040516001600160e01b031960e085901b16815260048101929092526001600160a01b03166024820152604401602060405180830381865afa158015611942573d6000803e3d6000fd5b505050506040513d601f19601f820116820180604052508101906119669190612f40565b6119825760405162461bcd60e51b81526004016107ae90612f5d565b61013054604051638a98636360e01b8152600481018790526000916001600160a01b031690638a98636390602401602060405180830381865afa1580156119cd573d6000803e3d6000fd5b505050506040513d601f19601f820116820180604052508101906119f191906131e9565b9050803414611a375760405162461bcd60e51b81526020600482015260126024820152714e6f6e2d6d61746368696e672066756e647360701b60448201526064016107ae565b83611a545760405162461bcd60e51b81526004016107ae90612f8c565b61012e80549081906000611a678361333d565b9091555050600081815261013160205260409020805460ff191681556001810189905560038101611a9987898361304b565b50600581018890556040517f8f3fc1086abc1020f602edd700a9ae5801b250c9d110af9e54022d7cc5df7bee90611ad99084908c908c908c908c90613356565b60405180910390a150979650505050505050565b61012f5487906001600160a01b0316632fa117e582611b0a6120e0565b6040516001600160e01b031960e085901b16815260048101929092526001600160a01b03166024820152604401602060405180830381865afa158015611b54573d6000803e3d6000fd5b505050506040513d601f19601f82011682018060405250810190611b789190612f40565b611b945760405162461bcd60e51b81526004016107ae90612f5d565b6001600160a01b0386166000908152610133602052604090205460ff16611bf95760405162461bcd60e51b8152602060048201526019602482015278151a1a5cc81d1bdad95b881a5cc81b9bdd08185b1b1bddd959603a1b60448201526064016107ae565b60008781526101316020908152604080832061013283528184208c855290925282209091825460ff166003811115611c3357611c33612c85565b14611c785760405162461bcd60e51b815260206004820152601560248201527414d95c9d9a58d9481a5cc81b9bdd081bdc195b9959605a1b60448201526064016107ae565b89816001015414611ccb5760405162461bcd60e51b815260206004820152601f60248201527f546869732070726f706f73616c20646f65736e2774206578697374207965740060448201526064016107ae565b84611ce85760405162461bcd60e51b81526004016107ae90612f8c565b6001815460ff166001811115611d0057611d00612c85565b03611d4d5760405162461bcd60e51b815260206004820181905260248201527f546869732070726f706f73616c20697320616c7265616479207570646174656460448201526064016107ae565b6002810180546001600160a01b0319166001600160a01b038a161790556003810187905560058101611d8086888361304b565b507f0f68ab04ab4935c8598d30f2c12ec34265575059bb4cae481b4d632cc43db81e898b88888c8c8a604051611dbc9796959493929190613387565b60405180910390a150505050505050505050565b611dd86120ef565b6001600160a01b038216158015611dee57508015155b80611e0157506001600160a01b03821615155b611e4d5760405162461bcd60e51b815260206004820152601d60248201527f4f776e65722063616e27742072656d6f7665204f78206164647265737300000060448201526064016107ae565b6001600160a01b03821660008181526101336020908152604091829020805460ff19168515159081179091558251938452908301527fd138accc17a5df6552bf13624802a01fc56a160f1e6e6247743ccd07ed99a7c9910160405180910390a15050565b600082815260fc6020526040902060010154611ecc81612168565b610b5f8383612200565b611f106040805160c08101909152806000815260200160008152602001600081526020016060815260200160008152602001600081525090565b61012e548210611f625760405162461bcd60e51b815260206004820152601a60248201527f54686973207365727669636520646f65736e277420657869737400000000000060448201526064016107ae565b6000828152610131602052604090819020815160c081019092528054829060ff166003811115611f9457611f94612c85565b6003811115611fa557611fa5612c85565b81526020016001820154815260200160028201548152602001600382018054611fcd90612fc3565b80601f0160208091040260200160405190810160405280929190818152602001828054611ff990612fc3565b80156120465780601f1061201b57610100808354040283529160200191612046565b820191906000526020600020905b81548152906001019060200180831161202957829003601f168201915b50505050508152602001600482015481526020016005820154815250509050919050565b6120726120ef565b6001600160a01b0381166120d75760405162461bcd60e51b815260206004820152602660248201527f4f776e61626c653a206e6577206f776e657220697320746865207a65726f206160448201526564647265737360d01b60648201526084016107ae565b610cce81612458565b60006120ea6124aa565b905090565b6120f76120e0565b6001600160a01b03166121126033546001600160a01b031690565b6001600160a01b03161461106e5760405162461bcd60e51b815260206004820181905260248201527f4f776e61626c653a2063616c6c6572206973206e6f7420746865206f776e657260448201526064016107ae565b610cce816121746120e0565b6124e3565b6121838282611070565b610bee57600082815260fc602090815260408083206001600160a01b03851684529091529020805460ff191660011790556121bc6120e0565b6001600160a01b0316816001600160a01b0316837f2f8788117e7eff1d82e926ec794901d17c78024a50270940304540a733656f0d60405160405180910390a45050565b61220a8282611070565b15610bee57600082815260fc602090815260408083206001600160a01b03851684529091529020805460ff191690556122416120e0565b6001600160a01b0316816001600160a01b0316837ff6391f5c32d9c69d2a47ea670b442974b53935d1edc7fd64eb21e047a839171b60405160405180910390a45050565b610cce6120ef565b7f4910fdfa16fed3260ed0e7147f7cc6da11a60208b5b9406d12a635614ffd91435460ff16156122c057610b5f8361253c565b826001600160a01b03166352d1902d6040518163ffffffff1660e01b8152600401602060405180830381865afa92505050801561231a575060408051601f3d908101601f19168201909252612317918101906131e9565b60015b61237d5760405162461bcd60e51b815260206004820152602e60248201527f45524331393637557067726164653a206e657720696d706c656d656e7461746960448201526d6f6e206973206e6f74205555505360901b60648201526084016107ae565b60008051602061351683398151915281146123ec5760405162461bcd60e51b815260206004820152602960248201527f45524331393637557067726164653a20756e737570706f727465642070726f786044820152681a58589b195555525160ba1b60648201526084016107ae565b50610b5f8383836125d8565b600054610100900460ff1661241f5760405162461bcd60e51b81526004016107ae906133cf565b61106e612603565b600054610100900460ff1661106e5760405162461bcd60e51b81526004016107ae906133cf565b610bee8282612179565b603380546001600160a01b038381166001600160a01b0319831681179093556040519116919082907f8be0079c531659141344cd1fd0a4f28419497f9722a3daafe3b4186f6b6457e090600090a35050565b6000601436108015906124cc57503360009081526065602052604090205460ff165b156124de575060131936013560601c90565b503390565b6124ed8282611070565b610bee576124fa8161263a565b61250583602061264c565b60405160200161251692919061341a565b60408051601f198184030181529082905262461bcd60e51b82526107ae9160040161348f565b6001600160a01b0381163b6125a95760405162461bcd60e51b815260206004820152602d60248201527f455243313936373a206e657720696d706c656d656e746174696f6e206973206e60448201526c1bdd08184818dbdb9d1c9858dd609a1b60648201526084016107ae565b60008051602061351683398151915280546001600160a01b0319166001600160a01b0392909216919091179055565b6125e1836127ef565b6000825111806125ee5750805b15610b5f576125fd838361282f565b50505050565b600054610100900460ff1661262a5760405162461bcd60e51b81526004016107ae906133cf565b61106e6126356120e0565b612458565b60606107016001600160a01b03831660145b6060600061265b8360026134a2565b6126669060026134b9565b67ffffffffffffffff81111561267e5761267e612aef565b6040519080825280601f01601f1916602001820160405280156126a8576020820181803683370190505b509050600360fc1b816000815181106126c3576126c36134cc565b60200101906001600160f81b031916908160001a905350600f60fb1b816001815181106126f2576126f26134cc565b60200101906001600160f81b031916908160001a90535060006127168460026134a2565b6127219060016134b9565b90505b6001811115612799576f181899199a1a9b1b9c1cb0b131b232b360811b85600f1660108110612755576127556134cc565b1a60f81b82828151811061276b5761276b6134cc565b60200101906001600160f81b031916908160001a90535060049490941c93612792816134e2565b9050612724565b5083156127e85760405162461bcd60e51b815260206004820181905260248201527f537472696e67733a20686578206c656e67746820696e73756666696369656e7460448201526064016107ae565b9392505050565b6127f88161253c565b6040516001600160a01b038216907fbc7cd75a20ee27fd9adebab32041f755214dbc6bffa90cc0225b39da2e5c2d3b90600090a250565b60606001600160a01b0383163b6128975760405162461bcd60e51b815260206004820152602660248201527f416464726573733a2064656c65676174652063616c6c20746f206e6f6e2d636f6044820152651b9d1c9858dd60d21b60648201526084016107ae565b600080846001600160a01b0316846040516128b291906134f9565b600060405180830381855af49150503d80600081146128ed576040519150601f19603f3d011682016040523d82523d6000602084013e6128f2565b606091505b509150915061291a828260405180606001604052806027815260200161353660279139612923565b95945050505050565b606083156129325750816127e8565b6127e883838151156129475781518083602001fd5b8060405162461bcd60e51b81526004016107ae919061348f565b60006020828403121561297357600080fd5b81356001600160e01b0319811681146127e857600080fd5b6000806040838503121561299e57600080fd5b50508035926020909101359150565b60008083601f8401126129bf57600080fd5b50813567ffffffffffffffff8111156129d757600080fd5b6020830191508360208285010111156129ef57600080fd5b9250929050565b60008060008060608587031215612a0c57600080fd5b8435935060208501359250604085013567ffffffffffffffff811115612a3157600080fd5b612a3d878288016129ad565b95989497509550505050565b600060208284031215612a5b57600080fd5b5035919050565b80356001600160a01b0381168114612a7957600080fd5b919050565b600060208284031215612a9057600080fd5b6127e882612a62565b60008060408385031215612aac57600080fd5b82359150612abc60208401612a62565b90509250929050565b60008060408385031215612ad857600080fd5b612ae183612a62565b9150612abc60208401612a62565b634e487b7160e01b600052604160045260246000fd5b60008060408385031215612b1857600080fd5b612b2183612a62565b9150602083013567ffffffffffffffff80821115612b3e57600080fd5b818501915085601f830112612b5257600080fd5b813581811115612b6457612b64612aef565b604051601f8201601f19908116603f01168101908382118183101715612b8c57612b8c612aef565b81604052828152886020848701011115612ba557600080fd5b8260208601602083013760006020848301015280955050505050509250929050565b60008060008060008060008060e0898b031215612be357600080fd5b8835975060208901359650612bfa60408a01612a62565b955060608901359450608089013561ffff81168114612c1857600080fd5b935060a089013567ffffffffffffffff811115612c3457600080fd5b612c408b828c016129ad565b999c989b50969995989497949560c00135949350505050565b600080600060608486031215612c6e57600080fd5b505081359360208301359350604090920135919050565b634e487b7160e01b600052602160045260246000fd5b60028110612cab57612cab612c85565b9052565b60005b83811015612cca578181015183820152602001612cb2565b50506000910152565b60008151808452612ceb816020860160208601612caf565b601f01601f19169290920160200192915050565b60208152612d11602082018351612c9b565b6020820151604082015260018060a01b0360408301511660608201526060820151608082015261ffff60808301511660a0820152600060a083015160e060c0840152612d61610100840182612cd3565b905060c084015160e08401528091505092915050565b60048110612cab57612cab612c85565b612d918188612d77565b85602082015284604082015260c060608201526000612db360c0830186612cd3565b60808301949094525060a00152949350505050565b612dd28189612c9b565b86602082015260018060a01b038616604082015284606082015261ffff8416608082015260e060a08201526000612e0c60e0830185612cd3565b90508260c083015298975050505050505050565b600080600080600080600060c0888a031215612e3b57600080fd5b8735965060208801359550612e5260408901612a62565b945060608801359350608088013567ffffffffffffffff811115612e7557600080fd5b612e818a828b016129ad565b989b979a5095989497959660a090950135949350505050565b8015158114610cce57600080fd5b60008060408385031215612ebb57600080fd5b612ec483612a62565b91506020830135612ed481612e9a565b809150509250929050565b60208152612ef1602082018351612d77565b60208201516040820152604082015160608201526000606083015160c06080840152612f2060e0840182612cd3565b9050608084015160a084015260a084015160c08401528091505092915050565b600060208284031215612f5257600080fd5b81516127e881612e9a565b6020808252601590820152744e6f74206f776e6572206f722064656c656761746560581b604082015260600190565b6020808252601f908201527f53686f756c642070726f7669646520612076616c696420495046532055524900604082015260600190565b600181811c90821680612fd757607f821691505b602082108103612ff757634e487b7160e01b600052602260045260246000fd5b50919050565b601f821115610b5f57600081815260208120601f850160051c810160208610156130245750805b601f850160051c820191505b8181101561304357828155600101613030565b505050505050565b67ffffffffffffffff83111561306357613063612aef565b613077836130718354612fc3565b83612ffd565b6000601f8411600181146130ab57600085156130935750838201355b600019600387901b1c1916600186901b178355613105565b600083815260209020601f19861690835b828110156130dc57868501358255602094850194600190920191016130bc565b50868210156130f95760001960f88860031b161c19848701351681555b505060018560011b0183555b5050505050565b81835281816020850137506000828201602090810191909152601f909101601f19169091010190565b60208152600061314960208301848661310c565b949350505050565b6020808252602c908201527f46756e6374696f6e206d7573742062652063616c6c6564207468726f7567682060408201526b19195b1959d85d1958d85b1b60a21b606082015260800190565b6020808252602c908201527f46756e6374696f6e206d7573742062652063616c6c6564207468726f7567682060408201526b6163746976652070726f787960a01b606082015260800190565b6000602082840312156131fb57600080fd5b5051919050565b815167ffffffffffffffff81111561321c5761321c612aef565b6132308161322a8454612fc3565b84612ffd565b602080601f831160018114613265576000841561324d5750858301515b600019600386901b1c1916600185901b178555613043565b600085815260208120601f198616915b8281101561329457888601518255948401946001909101908401613275565b50858210156132b25787850151600019600388901b60f8161c191681555b5050505050600190811b01905550565b60006101008b83528a60208401528060408401526132e38184018a8c61310c565b9150506132f36060830188612c9b565b6001600160a01b0395909516608082015260a081019390935261ffff9190911660c083015260e09091015295945050505050565b634e487b7160e01b600052601160045260246000fd5b60006001820161334f5761334f613327565b5060010190565b85815284602082015283604082015260806060820152600061337c60808301848661310c565b979650505050505050565b87815286602082015260c0604082015260006133a760c08301878961310c565b6001600160a01b0395909516606083015250608081019290925260a090910152949350505050565b6020808252602b908201527f496e697469616c697a61626c653a20636f6e7472616374206973206e6f74206960408201526a6e697469616c697a696e6760a81b606082015260800190565b7f416363657373436f6e74726f6c3a206163636f756e7420000000000000000000815260008351613452816017850160208801612caf565b7001034b99036b4b9b9b4b733903937b6329607d1b6017918401918201528351613483816028840160208801612caf565b01602801949350505050565b6020815260006127e86020830184612cd3565b808202811582820484141761070157610701613327565b8082018082111561070157610701613327565b634e487b7160e01b600052603260045260246000fd5b6000816134f1576134f1613327565b506000190190565b6000825161350b818460208701612caf565b919091019291505056fe360894a13ba1a3210667c828492db98dca3e2076cc3735a920a3ca505d382bbc416464726573733a206c6f772d6c6576656c2064656c65676174652063616c6c206661696c6564a2646970667358221220f591dd081a9bf567b8f36802229a92735cb8c36b0e3c9fae242ae4be38d6910064736f6c63430008110033",
  "linkReferences": {},
  "deployedLinkReferences": {}
}