{
  "_format": "hh-sol-artifact-1",
  "contractName": "TalentLayerID",
  "sourceName": "contracts/TalentLayerID.sol",
  "abi": [
    {
      "inputs": [],
      "stateMutability": "nonpayable",
      "type": "constructor"
    },
    {
      "inputs": [],
      "name": "HandleContainsInvalidCharacters",
      "type": "error"
    },
    {
      "inputs": [],
      "name": "HandleFirstCharInvalid",
      "type": "error"
    },
    {
      "inputs": [],
      "name": "HandleLengthInvalid",
      "type": "error"
    },
    {
      "anonymous": false,
      "inputs": [
        {
          "indexed": false,
          "internalType": "address",
          "name": "previousAdmin",
          "type": "address"
        },
        {
          "indexed": false,
          "internalType": "address",
          "name": "newAdmin",
          "type": "address"
        }
      ],
      "name": "AdminChanged",
      "type": "event"
    },
    {
      "anonymous": false,
      "inputs": [
        {
          "indexed": true,
          "internalType": "address",
          "name": "owner",
          "type": "address"
        },
        {
          "indexed": true,
          "internalType": "address",
          "name": "approved",
          "type": "address"
        },
        {
          "indexed": true,
          "internalType": "uint256",
          "name": "tokenId",
          "type": "uint256"
        }
      ],
      "name": "Approval",
      "type": "event"
    },
    {
      "anonymous": false,
      "inputs": [
        {
          "indexed": true,
          "internalType": "address",
          "name": "owner",
          "type": "address"
        },
        {
          "indexed": true,
          "internalType": "address",
          "name": "operator",
          "type": "address"
        },
        {
          "indexed": false,
          "internalType": "bool",
          "name": "approved",
          "type": "bool"
        }
      ],
      "name": "ApprovalForAll",
      "type": "event"
    },
    {
      "anonymous": false,
      "inputs": [
        {
          "indexed": true,
          "internalType": "address",
          "name": "beacon",
          "type": "address"
        }
      ],
      "name": "BeaconUpgraded",
      "type": "event"
    },
    {
      "anonymous": false,
      "inputs": [
        {
          "indexed": true,
          "internalType": "uint256",
          "name": "profileId",
          "type": "uint256"
        },
        {
          "indexed": false,
          "internalType": "string",
          "name": "newCid",
          "type": "string"
        }
      ],
      "name": "CidUpdated",
      "type": "event"
    },
    {
      "anonymous": false,
      "inputs": [
        {
          "indexed": false,
          "internalType": "uint256",
          "name": "profileId",
          "type": "uint256"
        },
        {
          "indexed": false,
          "internalType": "address",
          "name": "delegate",
          "type": "address"
        }
      ],
      "name": "DelegateAdded",
      "type": "event"
    },
    {
      "anonymous": false,
      "inputs": [
        {
          "indexed": false,
          "internalType": "uint256",
          "name": "profileId",
          "type": "uint256"
        },
        {
          "indexed": false,
          "internalType": "address",
          "name": "delegate",
          "type": "address"
        }
      ],
      "name": "DelegateRemoved",
      "type": "event"
    },
    {
      "anonymous": false,
      "inputs": [
        {
          "indexed": false,
          "internalType": "uint8",
          "name": "version",
          "type": "uint8"
        }
      ],
      "name": "Initialized",
      "type": "event"
    },
    {
      "anonymous": false,
      "inputs": [
        {
          "indexed": true,
          "internalType": "address",
          "name": "user",
          "type": "address"
        },
        {
          "indexed": false,
          "internalType": "uint256",
          "name": "profileId",
          "type": "uint256"
        },
        {
          "indexed": false,
          "internalType": "string",
          "name": "handle",
          "type": "string"
        },
        {
          "indexed": false,
          "internalType": "uint256",
          "name": "platformId",
          "type": "uint256"
        },
        {
          "indexed": false,
          "internalType": "uint256",
          "name": "fee",
          "type": "uint256"
        }
      ],
      "name": "Mint",
      "type": "event"
    },
    {
      "anonymous": false,
      "inputs": [
        {
          "indexed": false,
          "internalType": "uint256",
          "name": "mintFee",
          "type": "uint256"
        }
      ],
      "name": "MintFeeUpdated",
      "type": "event"
    },
    {
      "anonymous": false,
      "inputs": [
        {
          "indexed": false,
          "internalType": "enum TalentLayerID.MintStatus",
          "name": "mintStatus",
          "type": "uint8"
        }
      ],
      "name": "MintStatusUpdated",
      "type": "event"
    },
    {
      "anonymous": false,
      "inputs": [
        {
          "indexed": true,
          "internalType": "address",
          "name": "previousOwner",
          "type": "address"
        },
        {
          "indexed": true,
          "internalType": "address",
          "name": "newOwner",
          "type": "address"
        }
      ],
      "name": "OwnershipTransferred",
      "type": "event"
    },
    {
      "anonymous": false,
      "inputs": [
        {
          "indexed": false,
          "internalType": "uint256",
          "name": "price",
          "type": "uint256"
        }
      ],
      "name": "ShortHandlesMaxPriceUpdated",
      "type": "event"
    },
    {
      "anonymous": false,
      "inputs": [
        {
          "indexed": true,
          "internalType": "address",
          "name": "from",
          "type": "address"
        },
        {
          "indexed": true,
          "internalType": "address",
          "name": "to",
          "type": "address"
        },
        {
          "indexed": true,
          "internalType": "uint256",
          "name": "tokenId",
          "type": "uint256"
        }
      ],
      "name": "Transfer",
      "type": "event"
    },
    {
      "anonymous": false,
      "inputs": [
        {
          "indexed": false,
          "internalType": "address",
          "name": "forwarder",
          "type": "address"
        }
      ],
      "name": "TrustedForwarderAdded",
      "type": "event"
    },
    {
      "anonymous": false,
      "inputs": [
        {
          "indexed": false,
          "internalType": "address",
          "name": "forwarder",
          "type": "address"
        }
      ],
      "name": "TrustedForwarderRemoved",
      "type": "event"
    },
    {
      "anonymous": false,
      "inputs": [
        {
          "indexed": true,
          "internalType": "address",
          "name": "implementation",
          "type": "address"
        }
      ],
      "name": "Upgraded",
      "type": "event"
    },
    {
      "inputs": [
        {
          "internalType": "uint256",
          "name": "_profileId",
          "type": "uint256"
        },
        {
          "internalType": "address",
          "name": "_delegate",
          "type": "address"
        }
      ],
      "name": "addDelegate",
      "outputs": [],
      "stateMutability": "nonpayable",
      "type": "function"
    },
    {
      "inputs": [
        {
          "internalType": "address",
          "name": "_forwarder",
          "type": "address"
        }
      ],
      "name": "addTrustedForwarder",
      "outputs": [],
      "stateMutability": "nonpayable",
      "type": "function"
    },
    {
      "inputs": [
        {
          "internalType": "address",
          "name": "to",
          "type": "address"
        },
        {
          "internalType": "uint256",
          "name": "tokenId",
          "type": "uint256"
        }
      ],
      "name": "approve",
      "outputs": [],
      "stateMutability": "nonpayable",
      "type": "function"
    },
    {
      "inputs": [
        {
          "internalType": "address",
          "name": "owner",
          "type": "address"
        }
      ],
      "name": "balanceOf",
      "outputs": [
        {
          "internalType": "uint256",
          "name": "",
          "type": "uint256"
        }
      ],
      "stateMutability": "view",
      "type": "function"
    },
    {
      "inputs": [
        {
          "internalType": "uint256",
          "name": "_platformId",
          "type": "uint256"
        },
        {
          "internalType": "address",
          "name": "_userAddress",
          "type": "address"
        },
        {
          "internalType": "string",
          "name": "_handle",
          "type": "string"
        }
      ],
      "name": "freeMint",
      "outputs": [
        {
          "internalType": "uint256",
          "name": "",
          "type": "uint256"
        }
      ],
      "stateMutability": "nonpayable",
      "type": "function"
    },
    {
      "inputs": [
        {
          "internalType": "uint256",
          "name": "tokenId",
          "type": "uint256"
        }
      ],
      "name": "getApproved",
      "outputs": [
        {
          "internalType": "address",
          "name": "",
          "type": "address"
        }
      ],
      "stateMutability": "view",
      "type": "function"
    },
    {
      "inputs": [
        {
          "internalType": "string",
          "name": "_handle",
          "type": "string"
        }
      ],
      "name": "getHandlePrice",
      "outputs": [
        {
          "internalType": "uint256",
          "name": "",
          "type": "uint256"
        }
      ],
      "stateMutability": "view",
      "type": "function"
    },
    {
      "inputs": [
        {
          "internalType": "address",
          "name": "_address",
          "type": "address"
        }
      ],
      "name": "getOriginatorPlatformIdByAddress",
      "outputs": [
        {
          "internalType": "uint256",
          "name": "",
          "type": "uint256"
        }
      ],
      "stateMutability": "view",
      "type": "function"
    },
    {
      "inputs": [
        {
          "internalType": "uint256",
          "name": "",
          "type": "uint256"
        }
      ],
      "name": "hasActivity",
      "outputs": [
        {
          "internalType": "bool",
          "name": "",
          "type": "bool"
        }
      ],
      "stateMutability": "view",
      "type": "function"
    },
    {
      "inputs": [
        {
          "internalType": "address",
          "name": "",
          "type": "address"
        }
      ],
      "name": "ids",
      "outputs": [
        {
          "internalType": "uint256",
          "name": "",
          "type": "uint256"
        }
      ],
      "stateMutability": "view",
      "type": "function"
    },
    {
      "inputs": [
        {
          "internalType": "address",
          "name": "_talentLayerPlatformIdAddress",
          "type": "address"
        }
      ],
      "name": "initialize",
      "outputs": [],
      "stateMutability": "nonpayable",
      "type": "function"
    },
    {
      "inputs": [
        {
          "internalType": "address",
          "name": "owner",
          "type": "address"
        },
        {
          "internalType": "address",
          "name": "operator",
          "type": "address"
        }
      ],
      "name": "isApprovedForAll",
      "outputs": [
        {
          "internalType": "bool",
          "name": "",
          "type": "bool"
        }
      ],
      "stateMutability": "view",
      "type": "function"
    },
    {
      "inputs": [
        {
          "internalType": "uint256",
          "name": "_profileId",
          "type": "uint256"
        },
        {
          "internalType": "address",
          "name": "_address",
          "type": "address"
        }
      ],
      "name": "isDelegate",
      "outputs": [
        {
          "internalType": "bool",
          "name": "",
          "type": "bool"
        }
      ],
      "stateMutability": "view",
      "type": "function"
    },
    {
      "inputs": [
        {
          "internalType": "uint256",
          "name": "_profileId",
          "type": "uint256"
        },
        {
          "internalType": "address",
          "name": "_address",
          "type": "address"
        }
      ],
      "name": "isOwnerOrDelegate",
      "outputs": [
        {
          "internalType": "bool",
          "name": "",
          "type": "bool"
        }
      ],
      "stateMutability": "view",
      "type": "function"
    },
    {
      "inputs": [
        {
          "internalType": "address",
          "name": "",
          "type": "address"
        }
      ],
      "name": "isServiceContract",
      "outputs": [
        {
          "internalType": "bool",
          "name": "",
          "type": "bool"
        }
      ],
      "stateMutability": "view",
      "type": "function"
    },
    {
      "inputs": [
        {
          "internalType": "address",
          "name": "forwarder",
          "type": "address"
        }
      ],
      "name": "isTrustedForwarder",
      "outputs": [
        {
          "internalType": "bool",
          "name": "",
          "type": "bool"
        }
      ],
      "stateMutability": "view",
      "type": "function"
    },
    {
      "inputs": [
        {
          "internalType": "uint256",
          "name": "_profileId",
          "type": "uint256"
        }
      ],
      "name": "isValid",
      "outputs": [],
      "stateMutability": "view",
      "type": "function"
    },
    {
      "inputs": [
        {
          "internalType": "address",
          "name": "_address",
          "type": "address"
        },
        {
          "internalType": "string",
          "name": "_handle",
          "type": "string"
        },
        {
          "internalType": "bytes32[]",
          "name": "_proof",
          "type": "bytes32[]"
        }
      ],
      "name": "isWhitelisted",
      "outputs": [
        {
          "internalType": "bool",
          "name": "",
          "type": "bool"
        }
      ],
      "stateMutability": "view",
      "type": "function"
    },
    {
      "inputs": [
        {
          "internalType": "uint256",
          "name": "_platformId",
          "type": "uint256"
        },
        {
          "internalType": "string",
          "name": "_handle",
          "type": "string"
        }
      ],
      "name": "mint",
      "outputs": [
        {
          "internalType": "uint256",
          "name": "",
          "type": "uint256"
        }
      ],
      "stateMutability": "payable",
      "type": "function"
    },
    {
      "inputs": [],
      "name": "mintFee",
      "outputs": [
        {
          "internalType": "uint256",
          "name": "",
          "type": "uint256"
        }
      ],
      "stateMutability": "view",
      "type": "function"
    },
    {
      "inputs": [
        {
          "internalType": "address",
          "name": "_address",
          "type": "address"
        },
        {
          "internalType": "uint256",
          "name": "_platformId",
          "type": "uint256"
        },
        {
          "internalType": "string",
          "name": "_handle",
          "type": "string"
        }
      ],
      "name": "mintForAddress",
      "outputs": [
        {
          "internalType": "uint256",
          "name": "",
          "type": "uint256"
        }
      ],
      "stateMutability": "payable",
      "type": "function"
    },
    {
      "inputs": [],
      "name": "mintStatus",
      "outputs": [
        {
          "internalType": "enum TalentLayerID.MintStatus",
          "name": "",
          "type": "uint8"
        }
      ],
      "stateMutability": "view",
      "type": "function"
    },
    {
      "inputs": [],
      "name": "name",
      "outputs": [
        {
          "internalType": "string",
          "name": "",
          "type": "string"
        }
      ],
      "stateMutability": "view",
      "type": "function"
    },
    {
      "inputs": [],
      "name": "owner",
      "outputs": [
        {
          "internalType": "address",
          "name": "",
          "type": "address"
        }
      ],
      "stateMutability": "view",
      "type": "function"
    },
    {
      "inputs": [
        {
          "internalType": "uint256",
          "name": "tokenId",
          "type": "uint256"
        }
      ],
      "name": "ownerOf",
      "outputs": [
        {
          "internalType": "address",
          "name": "",
          "type": "address"
        }
      ],
      "stateMutability": "view",
      "type": "function"
    },
    {
      "inputs": [
        {
          "internalType": "uint256",
          "name": "_tokenId1",
          "type": "uint256"
        },
        {
          "internalType": "uint256",
          "name": "_tokenId2",
          "type": "uint256"
        }
      ],
      "name": "ownersOf",
      "outputs": [
        {
          "internalType": "address",
          "name": "",
          "type": "address"
        },
        {
          "internalType": "address",
          "name": "",
          "type": "address"
        }
      ],
      "stateMutability": "view",
      "type": "function"
    },
    {
      "inputs": [
        {
          "internalType": "uint256",
          "name": "",
          "type": "uint256"
        }
      ],
      "name": "profiles",
      "outputs": [
        {
          "internalType": "uint256",
          "name": "id",
          "type": "uint256"
        },
        {
          "internalType": "string",
          "name": "handle",
          "type": "string"
        },
        {
          "internalType": "uint256",
          "name": "platformId",
          "type": "uint256"
        },
        {
          "internalType": "string",
          "name": "dataUri",
          "type": "string"
        }
      ],
      "stateMutability": "view",
      "type": "function"
    },
    {
      "inputs": [],
      "name": "proxiableUUID",
      "outputs": [
        {
          "internalType": "bytes32",
          "name": "",
          "type": "bytes32"
        }
      ],
      "stateMutability": "view",
      "type": "function"
    },
    {
      "inputs": [
        {
          "internalType": "uint256",
          "name": "_profileId",
          "type": "uint256"
        },
        {
          "internalType": "address",
          "name": "_delegate",
          "type": "address"
        }
      ],
      "name": "removeDelegate",
      "outputs": [],
      "stateMutability": "nonpayable",
      "type": "function"
    },
    {
      "inputs": [
        {
          "internalType": "address",
          "name": "_forwarder",
          "type": "address"
        }
      ],
      "name": "removeTrustedForwarder",
      "outputs": [],
      "stateMutability": "nonpayable",
      "type": "function"
    },
    {
      "inputs": [],
      "name": "renounceOwnership",
      "outputs": [],
      "stateMutability": "nonpayable",
      "type": "function"
    },
    {
      "inputs": [
        {
          "internalType": "address",
          "name": "from",
          "type": "address"
        },
        {
          "internalType": "address",
          "name": "to",
          "type": "address"
        },
        {
          "internalType": "uint256",
          "name": "tokenId",
          "type": "uint256"
        }
      ],
      "name": "safeTransferFrom",
      "outputs": [],
      "stateMutability": "nonpayable",
      "type": "function"
    },
    {
      "inputs": [
        {
          "internalType": "address",
          "name": "from",
          "type": "address"
        },
        {
          "internalType": "address",
          "name": "to",
          "type": "address"
        },
        {
          "internalType": "uint256",
          "name": "tokenId",
          "type": "uint256"
        },
        {
          "internalType": "bytes",
          "name": "data",
          "type": "bytes"
        }
      ],
      "name": "safeTransferFrom",
      "outputs": [],
      "stateMutability": "nonpayable",
      "type": "function"
    },
    {
      "inputs": [
        {
          "internalType": "address",
          "name": "operator",
          "type": "address"
        },
        {
          "internalType": "bool",
          "name": "approved",
          "type": "bool"
        }
      ],
      "name": "setApprovalForAll",
      "outputs": [],
      "stateMutability": "nonpayable",
      "type": "function"
    },
    {
      "inputs": [
        {
          "internalType": "uint256",
          "name": "_profileId",
          "type": "uint256"
        }
      ],
      "name": "setHasActivity",
      "outputs": [],
      "stateMutability": "nonpayable",
      "type": "function"
    },
    {
      "inputs": [
        {
          "internalType": "address",
          "name": "_address",
          "type": "address"
        },
        {
          "internalType": "bool",
          "name": "_isServiceContract",
          "type": "bool"
        }
      ],
      "name": "setIsServiceContract",
      "outputs": [],
      "stateMutability": "nonpayable",
      "type": "function"
    },
    {
      "inputs": [
        {
          "internalType": "bytes32",
          "name": "root",
          "type": "bytes32"
        }
      ],
      "name": "setWhitelistMerkleRoot",
      "outputs": [],
      "stateMutability": "nonpayable",
      "type": "function"
    },
    {
      "inputs": [
        {
          "internalType": "bytes4",
          "name": "interfaceId",
          "type": "bytes4"
        }
      ],
      "name": "supportsInterface",
      "outputs": [
        {
          "internalType": "bool",
          "name": "",
          "type": "bool"
        }
      ],
      "stateMutability": "view",
      "type": "function"
    },
    {
      "inputs": [],
      "name": "symbol",
      "outputs": [
        {
          "internalType": "string",
          "name": "",
          "type": "string"
        }
      ],
      "stateMutability": "view",
      "type": "function"
    },
    {
      "inputs": [
        {
          "internalType": "string",
          "name": "",
          "type": "string"
        }
      ],
      "name": "takenHandles",
      "outputs": [
        {
          "internalType": "bool",
          "name": "",
          "type": "bool"
        }
      ],
      "stateMutability": "view",
      "type": "function"
    },
    {
      "inputs": [],
      "name": "talentLayerPlatformIdContract",
      "outputs": [
        {
          "internalType": "contract ITalentLayerPlatformID",
          "name": "",
          "type": "address"
        }
      ],
      "stateMutability": "view",
      "type": "function"
    },
    {
      "inputs": [
        {
          "internalType": "uint256",
          "name": "tokenId",
          "type": "uint256"
        }
      ],
      "name": "tokenURI",
      "outputs": [
        {
          "internalType": "string",
          "name": "",
          "type": "string"
        }
      ],
      "stateMutability": "view",
      "type": "function"
    },
    {
      "inputs": [],
      "name": "totalSupply",
      "outputs": [
        {
          "internalType": "uint256",
          "name": "",
          "type": "uint256"
        }
      ],
      "stateMutability": "view",
      "type": "function"
    },
    {
      "inputs": [
        {
          "internalType": "address",
          "name": "from",
          "type": "address"
        },
        {
          "internalType": "address",
          "name": "to",
          "type": "address"
        },
        {
          "internalType": "uint256",
          "name": "tokenId",
          "type": "uint256"
        }
      ],
      "name": "transferFrom",
      "outputs": [],
      "stateMutability": "nonpayable",
      "type": "function"
    },
    {
      "inputs": [
        {
          "internalType": "address",
          "name": "newOwner",
          "type": "address"
        }
      ],
      "name": "transferOwnership",
      "outputs": [],
      "stateMutability": "nonpayable",
      "type": "function"
    },
    {
      "inputs": [
        {
          "internalType": "uint256",
          "name": "_mintFee",
          "type": "uint256"
        }
      ],
      "name": "updateMintFee",
      "outputs": [],
      "stateMutability": "nonpayable",
      "type": "function"
    },
    {
      "inputs": [
        {
          "internalType": "enum TalentLayerID.MintStatus",
          "name": "_mintStatus",
          "type": "uint8"
        }
      ],
      "name": "updateMintStatus",
      "outputs": [],
      "stateMutability": "nonpayable",
      "type": "function"
    },
    {
      "inputs": [
        {
          "internalType": "uint256",
          "name": "_profileId",
          "type": "uint256"
        },
        {
          "internalType": "string",
          "name": "_newCid",
          "type": "string"
        }
      ],
      "name": "updateProfileData",
      "outputs": [],
      "stateMutability": "nonpayable",
      "type": "function"
    },
    {
      "inputs": [
        {
          "internalType": "uint256",
          "name": "_shortHandlesMaxPrice",
          "type": "uint256"
        }
      ],
      "name": "updateShortHandlesMaxPrice",
      "outputs": [],
      "stateMutability": "nonpayable",
      "type": "function"
    },
    {
      "inputs": [
        {
          "internalType": "address",
          "name": "newImplementation",
          "type": "address"
        }
      ],
      "name": "upgradeTo",
      "outputs": [],
      "stateMutability": "nonpayable",
      "type": "function"
    },
    {
      "inputs": [
        {
          "internalType": "address",
          "name": "newImplementation",
          "type": "address"
        },
        {
          "internalType": "bytes",
          "name": "data",
          "type": "bytes"
        }
      ],
      "name": "upgradeToAndCall",
      "outputs": [],
      "stateMutability": "payable",
      "type": "function"
    },
    {
      "inputs": [
        {
          "internalType": "uint256",
          "name": "_platformId",
          "type": "uint256"
        },
        {
          "internalType": "string",
          "name": "_handle",
          "type": "string"
        },
        {
          "internalType": "bytes32[]",
          "name": "_proof",
          "type": "bytes32[]"
        }
      ],
      "name": "whitelistMint",
      "outputs": [
        {
          "internalType": "uint256",
          "name": "",
          "type": "uint256"
        }
      ],
      "stateMutability": "payable",
      "type": "function"
    },
    {
      "inputs": [],
      "name": "withdraw",
      "outputs": [],
      "stateMutability": "nonpayable",
      "type": "function"
    }
  ],
  "bytecode": "0x60a0604052306080523480156200001557600080fd5b506200002062000026565b620000e8565b600054610100900460ff1615620000935760405162461bcd60e51b815260206004820152602760248201527f496e697469616c697a61626c653a20636f6e747261637420697320696e697469604482015266616c697a696e6760c81b606482015260840160405180910390fd5b60005460ff9081161015620000e6576000805460ff191660ff9081179091556040519081527f7f26b83ff96e1f2b6a682f133852f6798a09c465da95921460cefb38474024989060200160405180910390a15b565b608051614c646200012060003960008181611232015281816112720152818161143701528181611477015261150a0152614c646000f3fe60806040526004361061031a5760003560e01c80636352211e116101ab578063b88d4fde116100f7578063eab5d42611610095578063f2fde38b1161006f578063f2fde38b146109fe578063f577a50014610a1e578063f905f15414610a3e578063fbdc8dc014610a5e57600080fd5b8063eab5d42614610977578063ebf247f9146109be578063f160068f146109de57600080fd5b8063c4d66de8116100d1578063c4d66de8146108db578063c87b56dd146108fb578063e985e9c51461091b578063ea17e5a81461096457600080fd5b8063b88d4fde1461086b578063bd32fb661461088b578063c36fe3d6146108ab57600080fd5b806384017e52116101645780638da5cb5b1161013e5780638da5cb5b146107f057806395d89b411461080e5780639da3f8fd14610823578063a22cb4651461084b57600080fd5b806384017e521461079057806389c1694c146107b05780638ced8ba3146107d057600080fd5b80636352211e146106e857806370a082311461070857806370e703dd14610728578063715018a61461074857806377097fc81461075d57806383ce205b1461077057600080fd5b806322039f891161026a5780633751d89c116102235780634f1ef286116101fd5780634f1ef2861461063f57806352d1902d14610652578063572b6c05146106675780635c4b0348146106a057600080fd5b80633751d89c146105ea5780633ccfd60b1461060a57806342842e0e1461061f57600080fd5b806322039f891461051957806323b872dd1461054a57806326d006681461056a5780632eefaa611461058a5780632fa117e5146105aa5780633659cfe6146105ca57600080fd5b80631499f9e6116102d75780631847c06b116102b15780631847c06b1461046f5780631cf6239b1461049d5780631f67fba6146104bd5780632106beec146104dd57600080fd5b80631499f9e61461042657806316afebe51461044757806318160ddd1461045a57600080fd5b806301ffc9a71461031f57806306fdde0314610354578063081812fc14610376578063095ea7b3146103ae5780630d283a25146103d057806313966db514610401575b600080fd5b34801561032b57600080fd5b5061033f61033a3660046138db565b610a9e565b60405190151581526020015b60405180910390f35b34801561036057600080fd5b50610369610af0565b60405161034b9190613948565b34801561038257600080fd5b5061039661039136600461395b565b610b82565b6040516001600160a01b03909116815260200161034b565b3480156103ba57600080fd5b506103ce6103c9366004613990565b610ba9565b005b3480156103dc57600080fd5b5061033f6103eb36600461395b565b6101386020526000908152604090205460ff1681565b34801561040d57600080fd5b506104186101325481565b60405190815260200161034b565b34801561043257600080fd5b5061012e54610396906001600160a01b031681565b6104186104553660046139fb565b610cd5565b34801561046657600080fd5b50610418610f90565b34801561047b57600080fd5b5061041861048a366004613aa1565b6101316020526000908152604090205481565b3480156104a957600080fd5b506103ce6104b8366004613abc565b610fad565b3480156104c957600080fd5b506103ce6104d836600461395b565b61107a565b3480156104e957600080fd5b5061033f6104f8366004613b9d565b805160208183018101805161012f8252928201919093012091525460ff1681565b34801561052557600080fd5b5061033f610534366004613aa1565b6101396020526000908152604090205460ff1681565b34801561055657600080fd5b506103ce610565366004613bd1565b6110bf565b34801561057657600080fd5b506103ce610585366004613aa1565b6110f7565b34801561059657600080fd5b5061033f6105a5366004613c0d565b611153565b3480156105b657600080fd5b5061033f6105c5366004613abc565b6111d6565b3480156105d657600080fd5b506103ce6105e5366004613aa1565b611228565b3480156105f657600080fd5b506103ce610605366004613aa1565b611307565b34801561061657600080fd5b506103ce611360565b34801561062b57600080fd5b506103ce61063a366004613bd1565b611412565b6103ce61064d366004613ce9565b61142d565b34801561065e57600080fd5b506104186114fd565b34801561067357600080fd5b5061033f610682366004613aa1565b6001600160a01b031660009081526065602052604090205460ff1690565b3480156106ac57600080fd5b506104186106bb366004613aa1565b6001600160a01b031660009081526101316020908152604080832054835261013090915290206002015490565b3480156106f457600080fd5b5061039661070336600461395b565b6115b0565b34801561071457600080fd5b50610418610723366004613aa1565b611610565b34801561073457600080fd5b506103ce610743366004613abc565b611696565b34801561075457600080fd5b506103ce611758565b61041861076b366004613d36565b61176c565b34801561077c57600080fd5b506103ce61078b36600461395b565b611959565b34801561079c57600080fd5b506103ce6107ab36600461395b565b611a16565b3480156107bc57600080fd5b506104186107cb366004613d81565b611a54565b3480156107dc57600080fd5b506103ce6107eb366004613dda565b611b95565b3480156107fc57600080fd5b506033546001600160a01b0316610396565b34801561081a57600080fd5b50610369611bc9565b34801561082f57600080fd5b506101365461083e9060ff1681565b60405161034b9190613e2c565b34801561085757600080fd5b506103ce610866366004613dda565b611bd8565b34801561087757600080fd5b506103ce610886366004613e54565b611bea565b34801561089757600080fd5b506103ce6108a636600461395b565b611c29565b3480156108b757600080fd5b506108cb6108c636600461395b565b611c37565b60405161034b9493929190613ebb565b3480156108e757600080fd5b506103ce6108f6366004613aa1565b611d71565b34801561090757600080fd5b5061036961091636600461395b565b611f14565b34801561092757600080fd5b5061033f610936366004613ef7565b6001600160a01b039182166000908152609d6020908152604080832093909416825291909152205460ff1690565b610418610972366004613f21565b611f1f565b34801561098357600080fd5b5061033f610992366004613abc565b6000918252610134602090815260408084206001600160a01b0393909316845291905290205460ff1690565b3480156109ca57600080fd5b506104186109d9366004613f62565b6120de565b3480156109ea57600080fd5b506103ce6109f9366004613fa3565b61211f565b348015610a0a57600080fd5b506103ce610a19366004613aa1565b612209565b348015610a2a57600080fd5b506103ce610a3936600461395b565b61227f565b348015610a4a57600080fd5b506103ce610a59366004613fd3565b6122c9565b348015610a6a57600080fd5b50610a7e610a79366004613ff4565b612325565b604080516001600160a01b0393841681529290911660208301520161034b565b60006001600160e01b031982166380ac58cd60e01b1480610acf57506001600160e01b03198216635b5e139f60e01b145b80610aea57506301ffc9a760e01b6001600160e01b03198316145b92915050565b606060988054610aff90614016565b80601f0160208091040260200160405190810160405280929190818152602001828054610b2b90614016565b8015610b785780601f10610b4d57610100808354040283529160200191610b78565b820191906000526020600020905b815481529060010190602001808311610b5b57829003601f168201915b5050505050905090565b6000610b8d82612346565b506000908152609c60205260409020546001600160a01b031690565b6000610bb4826115b0565b9050806001600160a01b0316836001600160a01b031603610c265760405162461bcd60e51b815260206004820152602160248201527f4552433732313a20617070726f76616c20746f2063757272656e74206f776e656044820152603960f91b60648201526084015b60405180910390fd5b806001600160a01b0316610c386123a5565b6001600160a01b03161480610c545750610c54816109366123a5565b610cc65760405162461bcd60e51b815260206004820152603d60248201527f4552433732313a20617070726f76652063616c6c6572206973206e6f7420746f60448201527f6b656e206f776e6572206f7220617070726f76656420666f7220616c6c0000006064820152608401610c1d565b610cd083836123af565b505050565b6000610cdf6123a5565b858588610ceb84611610565b15610d085760405162461bcd60e51b8152600401610c1d90614050565b61012f8383604051610d1b929190614085565b9081526040519081900360200190205460ff1615610d4b5760405162461bcd60e51b8152600401610c1d90614095565b8015610dae5761012e5460405162f577a560e81b8152600481018390526001600160a01b039091169063f577a5009060240160006040518083038186803b158015610d9557600080fd5b505afa158015610da9573d6000803e3d6000fd5b505050505b610db8838361241d565b8888610dc482826120de565b3414610de25760405162461bcd60e51b8152600401610c1d906140c3565b60016101365460ff166002811115610dfc57610dfc613e16565b14610e495760405162461bcd60e51b815260206004820152601d60248201527f57686974656c697374206d696e74206973206e6f7420656e61626c65640000006044820152606401610c1d565b6000610e536123a5565b9050610ed7818d8d8080601f016020809104026020016040519081016040528093929190818152602001838380828437600081840152601f19601f820116905080830192505050505050508c8c8080602002602001604051908101604052809392919081815260200183836020028082843760009201919091525061115392505050565b610f1c5760405162461bcd60e51b8152602060048201526016602482015275165bdd49dc99481b9bdd081dda1a5d195b1a5cdd195960521b6044820152606401610c1d565b610f2f81610f2a6101335490565b61263f565b610f7f818d8d8080601f016020809104026020016040519081016040528093929190818152602001838380828437600081840152601f19601f820116905080830192505050505050508f34612659565b9d9c50505050505050505050505050565b60006001610f9e6101335490565b610fa8919061411d565b905090565b610fb56123a5565b6001600160a01b0316610fc7836115b0565b6001600160a01b03161461100d5760405162461bcd60e51b815260206004820152600d60248201526c2737ba103a34329037bbb732b960991b6044820152606401610c1d565b6000828152610134602090815260408083206001600160a01b03851680855290835292819020805460ff191660011790558051858152918201929092527f2d678d15460f6ef62d6d85bfaf6a46d9d0d6498a0fd6ecd92d42bc2ab018103991015b60405180910390a15050565b611082612730565b6101378190556040518181527fa7c83a47a9702f7f1fc21a99b3be95dc10f5d00a4bca12cb54ed49b50bce1785906020015b60405180910390a150565b6110d06110ca6123a5565b826127a9565b6110ec5760405162461bcd60e51b8152600401610c1d90614130565b610cd0838383612827565b6110ff612730565b6001600160a01b038116600081815260656020908152604091829020805460ff1916600117905590519182527f3ef8564460ada92419608d823c014975d98f8104d7d1e68c222967ac6814cd9791016110b4565b60008061116a856001600160a01b0316601461291d565b8460405160200161117c929190614199565b60405160208183030381529060405290506111cb61013554826040516020016111a591906141d5565b6040516020818303038152906040528051906020012085612ab89092919063ffffffff16565b9150505b9392505050565b6000816001600160a01b03166111eb846115b0565b6001600160a01b031614806111cf5750506000918252610134602090815260408084206001600160a01b0393909316845291905290205460ff1690565b6001600160a01b037f00000000000000000000000000000000000000000000000000000000000000001630036112705760405162461bcd60e51b8152600401610c1d906141f1565b7f00000000000000000000000000000000000000000000000000000000000000006001600160a01b03166112b9600080516020614ba8833981519152546001600160a01b031690565b6001600160a01b0316146112df5760405162461bcd60e51b8152600401610c1d9061423d565b6112e881612ace565b6040805160008082526020820190925261130491839190612ad6565b50565b61130f612730565b6001600160a01b038116600081815260656020908152604091829020805460ff1916905590519182527fd2d636efcad0cea42e170256f4c5d8b1cd81e47b855557edaf44014e6cc4cee691016110b4565b611368612730565b60006113726123a5565b6001600160a01b03164760405160006040518083038185875af1925050503d80600081146113bc576040519150601f19603f3d011682016040523d82523d6000602084013e6113c1565b606091505b50509050806113045760405162461bcd60e51b815260206004820152601860248201527f4661696c656420746f20776974686472617720457468657200000000000000006044820152606401610c1d565b610cd083838360405180602001604052806000815250611bea565b6001600160a01b037f00000000000000000000000000000000000000000000000000000000000000001630036114755760405162461bcd60e51b8152600401610c1d906141f1565b7f00000000000000000000000000000000000000000000000000000000000000006001600160a01b03166114be600080516020614ba8833981519152546001600160a01b031690565b6001600160a01b0316146114e45760405162461bcd60e51b8152600401610c1d9061423d565b6114ed82612ace565b6114f982826001612ad6565b5050565b6000306001600160a01b037f0000000000000000000000000000000000000000000000000000000000000000161461159d5760405162461bcd60e51b815260206004820152603860248201527f555550535570677261646561626c653a206d757374206e6f742062652063616c60448201527f6c6564207468726f7567682064656c656761746563616c6c00000000000000006064820152608401610c1d565b50600080516020614ba883398151915290565b6000818152609a60205260408120546001600160a01b031680610aea5760405162461bcd60e51b8152602060048201526018602482015277115490cdcc8c4e881a5b9d985b1a59081d1bdad95b88125160421b6044820152606401610c1d565b60006001600160a01b03821661167a5760405162461bcd60e51b815260206004820152602960248201527f4552433732313a2061646472657373207a65726f206973206e6f7420612076616044820152683634b21037bbb732b960b91b6064820152608401610c1d565b506001600160a01b03166000908152609b602052604090205490565b61169e6123a5565b6001600160a01b03166116b0836115b0565b6001600160a01b0316146116f65760405162461bcd60e51b815260206004820152600d60248201526c2737ba103a34329037bbb732b960991b6044820152606401610c1d565b6000828152610134602090815260408083206001600160a01b03851680855290835292819020805460ff191690558051858152918201929092527f09f87139523b83583b15f476015dd9a27fae3a03f17202cdf77d063bef5d21c2910161106e565b611760612730565b61176a6000612c41565b565b60006117766123a5565b83838661178284611610565b1561179f5760405162461bcd60e51b8152600401610c1d90614050565b61012f83836040516117b2929190614085565b9081526040519081900360200190205460ff16156117e25760405162461bcd60e51b8152600401610c1d90614095565b80156118455761012e5460405162f577a560e81b8152600481018390526001600160a01b039091169063f577a5009060240160006040518083038186803b15801561182c57600080fd5b505afa158015611840573d6000803e3d6000fd5b505050505b61184f838361241d565b868661185b82826120de565b34146118795760405162461bcd60e51b8152600401610c1d906140c3565b60026101365460ff16600281111561189357611893613e16565b146118e05760405162461bcd60e51b815260206004820152601a60248201527f5075626c6963206d696e74206973206e6f7420656e61626c65640000000000006044820152606401610c1d565b60006118ea6123a5565b90506118fa81610f2a6101335490565b61194a818b8b8080601f016020809104026020016040519081016040528093929190818152602001838380828437600081840152601f19601f820116905080830192505050505050508d34612659565b9b9a5050505050505050505050565b61013960006119666123a5565b6001600160a01b0316815260208101919091526040016000205460ff1615156001146119fa5760405162461bcd60e51b815260206004820152603a60248201527f4f6e6c79207365727669636520636f6e7472616374732063616e20736574207760448201527f68657468657220612075736572206861732061637469766974790000000000006064820152608401610c1d565b600090815261013860205260409020805460ff19166001179055565b611a1e612730565b6101328190556040518181527f38fbb1c8b109c430f0c030e7ed076cf5611a307773a4e8e365601e8f8bceaec6906020016110b4565b600083838387611a6384611610565b15611a805760405162461bcd60e51b8152600401610c1d90614050565b61012f8383604051611a93929190614085565b9081526040519081900360200190205460ff1615611ac35760405162461bcd60e51b8152600401610c1d90614095565b8015611b265761012e5460405162f577a560e81b8152600481018390526001600160a01b039091169063f577a5009060240160006040518083038186803b158015611b0d57600080fd5b505afa158015611b21573d6000803e3d6000fd5b505050505b611b30838361241d565b611b38612730565b611b4688610f2a6101335490565b611b888888888080601f01602080910402602001604051908101604052809392919081815260200183838082843760009201829052508f935091506126599050565b9998505050505050505050565b611b9d612730565b6001600160a01b0391909116600090815261013960205260409020805460ff1916911515919091179055565b606060998054610aff90614016565b6114f9611be36123a5565b8383612c93565b611bfb611bf56123a5565b836127a9565b611c175760405162461bcd60e51b8152600401610c1d90614130565b611c2384848484612d61565b50505050565b611c31612730565b61013555565b6101306020526000908152604090208054600182018054919291611c5a90614016565b80601f0160208091040260200160405190810160405280929190818152602001828054611c8690614016565b8015611cd35780601f10611ca857610100808354040283529160200191611cd3565b820191906000526020600020905b815481529060010190602001808311611cb657829003601f168201915b505050505090806002015490806003018054611cee90614016565b80601f0160208091040260200160405190810160405280929190818152602001828054611d1a90614016565b8015611d675780601f10611d3c57610100808354040283529160200191611d67565b820191906000526020600020905b815481529060010190602001808311611d4a57829003601f168201915b5050505050905084565b600054610100900460ff1615808015611d915750600054600160ff909116105b80611dab5750303b158015611dab575060005460ff166001145b611e0e5760405162461bcd60e51b815260206004820152602e60248201527f496e697469616c697a61626c653a20636f6e747261637420697320616c72656160448201526d191e481a5b9a5d1a585b1a5e995960921b6064820152608401610c1d565b6000805460ff191660011790558015611e31576000805461ff0019166101001790555b611e39612d94565b611e846040518060400160405280600d81526020016c15185b195b9d13185e595c9251609a1b815250604051806040016040528060048152602001631513125160e21b815250612dc3565b611e8c612df4565b61012e80546001600160a01b0319166001600160a01b03841617905561013380546001019055610136805460ff19166001179055611ed2680ad78ebc5ac620000061107a565b80156114f9576000805461ff0019169055604051600181527f7f26b83ff96e1f2b6a682f133852f6798a09c465da95921460cefb38474024989060200161106e565b6060610aea82612e1b565b600084838386611f2e84611610565b15611f4b5760405162461bcd60e51b8152600401610c1d90614050565b61012f8383604051611f5e929190614085565b9081526040519081900360200190205460ff1615611f8e5760405162461bcd60e51b8152600401610c1d90614095565b8015611ff15761012e5460405162f577a560e81b8152600481018390526001600160a01b039091169063f577a5009060240160006040518083038186803b158015611fd857600080fd5b505afa158015611fec573d6000803e3d6000fd5b505050505b611ffb838361241d565b868661200782826120de565b34146120255760405162461bcd60e51b8152600401610c1d906140c3565b60026101365460ff16600281111561203f5761203f613e16565b1461208c5760405162461bcd60e51b815260206004820152601a60248201527f5075626c6963206d696e74206973206e6f7420656e61626c65640000000000006044820152606401610c1d565b61209a8b610f2a6101335490565b61194a8b8a8a8080601f0160208091040260200160405190810160405280939291908181526020018383808284376000920191909152508f92503491506126599050565b60008160048111612112576120f460018261411d565b6120ff90600261436d565b6101375461210d9190614379565b612117565b610132545b949350505050565b8161212c816105c56123a5565b6121705760405162461bcd60e51b81526020600482015260156024820152744e6f74206f776e6572206f722064656c656761746560581b6044820152606401610c1d565b8151602e146121af5760405162461bcd60e51b815260206004820152600b60248201526a125b9d985b1a590818da5960aa1b6044820152606401610c1d565b6000838152610130602052604090206003016121cb83826143e1565b50827f613807bd6768f626264e7eb664a65ca99a0d930f8fd8a5b868491a592eb57f72836040516121fc9190613948565b60405180910390a2505050565b612211612730565b6001600160a01b0381166122765760405162461bcd60e51b815260206004820152602660248201527f4f776e61626c653a206e6577206f776e657220697320746865207a65726f206160448201526564647265737360d01b6064820152608401610c1d565b61130481612c41565b60008111801561229157506101335481105b6113045760405162461bcd60e51b81526020600482015260096024820152681b9bdd081d985b1a5960ba1b6044820152606401610c1d565b6122d1612730565b610136805482919060ff191660018360028111156122f1576122f1613e16565b02179055507fbe5bfaa294dd4b792e98f2bcf8f597b2ead214107f9bc9e8392d6ec65e8d854f816040516110b49190613e2c565b600080612331846115b0565b61233a846115b0565b915091505b9250929050565b6000818152609a60205260409020546001600160a01b03166113045760405162461bcd60e51b8152602060048201526018602482015277115490cdcc8c4e881a5b9d985b1a59081d1bdad95b88125160421b6044820152606401610c1d565b6000610fa8612f4a565b6000818152609c6020526040902080546001600160a01b0319166001600160a01b03841690811790915581906123e4826115b0565b6001600160a01b03167f8c5be1e5ebec7d5bd14f71427d1e84f3dd0314c0f7b2291e5b200ac8c7c3b92560405160405180910390a45050565b600082828080601f016020809104026020016040519081016040528093929190818152602001838380828437600092019190915250508251929350506001821090508061246a5750601f81115b1561248857604051633eb64ab360e01b815260040160405180910390fd5b60008484600081811061249d5761249d6144a0565b909101356001600160f81b031916915050602d60f81b8114806124cd5750605f60f81b6001600160f81b03198216145b156124eb57604051632f2c22a760e11b815260040160405180910390fd5b60005b8281101561263757600360fc1b84828151811061250d5761250d6144a0565b01602001516001600160f81b031916108061254b5750603d60f91b84828151811061253a5761253a6144a0565b01602001516001600160f81b031916115b806125a75750603960f81b848281518110612568576125686144a0565b01602001516001600160f81b0319161180156125a75750606160f81b848281518110612596576125966144a0565b01602001516001600160f81b031916105b80156125d857508381815181106125c0576125c06144a0565b6020910101516001600160f81b031916602d60f81b14155b801561260957508381815181106125f1576125f16144a0565b6020910101516001600160f81b031916605f60f81b14155b1561262757604051630bb7f19b60e21b815260040160405180910390fd5b612630816144b6565b90506124ee565b505050505050565b6114f9828260405180602001604052806000815250612f83565b6000806126666101335490565b905061267761013380546001019055565b600081815261013060205260409020600281018590556001810161269b87826143e1565b50600161012f876040516126af91906141d5565b9081526040805160209281900383018120805460ff1916941515949094179093556001600160a01b038a1660008181526101319093529120849055907f8475f1ba3b06c1e11c870cbbf9753ca9a8292ea0b203262f682de476dc268f8c9061271e9085908a908a908a906144cf565b60405180910390a25095945050505050565b6127386123a5565b6001600160a01b03166127536033546001600160a01b031690565b6001600160a01b03161461176a5760405162461bcd60e51b815260206004820181905260248201527f4f776e61626c653a2063616c6c6572206973206e6f7420746865206f776e65726044820152606401610c1d565b6000806127b5836115b0565b9050806001600160a01b0316846001600160a01b031614806127fc57506001600160a01b038082166000908152609d602090815260408083209388168352929052205460ff165b806121175750836001600160a01b031661281584610b82565b6001600160a01b031614949350505050565b6000818152610138602052604090205460ff16156128875760405162461bcd60e51b815260206004820152601d60248201527f546f6b656e207472616e73666572206973206e6f7420616c6c6f7765640000006044820152606401610c1d565b61289082611610565b156128eb5760405162461bcd60e51b815260206004820152602560248201527f526563656976657220616c72656164792068617320612054616c656e744c6179604482015264195c88125160da1b6064820152608401610c1d565b6001600160a01b0380841660009081526101316020526040808220829055918416815220819055610cd0838383612fb6565b6060600061292c8360026144fb565b612937906002614512565b6001600160401b0381111561294e5761294e613ae8565b6040519080825280601f01601f191660200182016040528015612978576020820181803683370190505b509050600360fc1b81600081518110612993576129936144a0565b60200101906001600160f81b031916908160001a905350600f60fb1b816001815181106129c2576129c26144a0565b60200101906001600160f81b031916908160001a90535060006129e68460026144fb565b6129f1906001614512565b90505b6001811115612a69576f181899199a1a9b1b9c1cb0b131b232b360811b85600f1660108110612a2557612a256144a0565b1a60f81b828281518110612a3b57612a3b6144a0565b60200101906001600160f81b031916908160001a90535060049490941c93612a6281614525565b90506129f4565b5083156111cf5760405162461bcd60e51b815260206004820181905260248201527f537472696e67733a20686578206c656e67746820696e73756666696369656e746044820152606401610c1d565b600082612ac58584613127565b14949350505050565b611304612730565b7f4910fdfa16fed3260ed0e7147f7cc6da11a60208b5b9406d12a635614ffd91435460ff1615612b0957610cd083613174565b826001600160a01b03166352d1902d6040518163ffffffff1660e01b8152600401602060405180830381865afa925050508015612b63575060408051601f3d908101601f19168201909252612b609181019061453c565b60015b612bc65760405162461bcd60e51b815260206004820152602e60248201527f45524331393637557067726164653a206e657720696d706c656d656e7461746960448201526d6f6e206973206e6f74205555505360901b6064820152608401610c1d565b600080516020614ba88339815191528114612c355760405162461bcd60e51b815260206004820152602960248201527f45524331393637557067726164653a20756e737570706f727465642070726f786044820152681a58589b195555525160ba1b6064820152608401610c1d565b50610cd0838383613210565b603380546001600160a01b038381166001600160a01b0319831681179093556040519116919082907f8be0079c531659141344cd1fd0a4f28419497f9722a3daafe3b4186f6b6457e090600090a35050565b816001600160a01b0316836001600160a01b031603612cf45760405162461bcd60e51b815260206004820152601960248201527f4552433732313a20617070726f766520746f2063616c6c6572000000000000006044820152606401610c1d565b6001600160a01b038381166000818152609d6020908152604080832094871680845294825291829020805460ff191686151590811790915591519182527f17307eab39ab6107e8899845ad3d59bd9653f200f220920489ca2b5937696c31910160405180910390a3505050565b612d6c848484612827565b612d7884848484613235565b611c235760405162461bcd60e51b8152600401610c1d90614555565b600054610100900460ff16612dbb5760405162461bcd60e51b8152600401610c1d906145a7565b61176a61333a565b600054610100900460ff16612dea5760405162461bcd60e51b8152600401610c1d906145a7565b6114f98282613371565b600054610100900460ff1661176a5760405162461bcd60e51b8152600401610c1d906145a7565b600081815261013060209081526040808320905160609392612e419260010191016145f2565b60405160208183030381529060405290506000601461013060008681526020019081526020016000206001018054612e7890614016565b90501115612ea05760405180604001604052806002815260200161034360f41b815250612ebc565b60405180604001604052806002815260200161036360f41b8152505b90506000612eea8284604051602001612ed6929190614673565b6040516020818303038152906040526133b1565b604051602001612efa91906149eb565b6040516020818303038152906040529050612f218382604051602001612ed6929190614a30565b604051602001612f319190614ac3565b6040516020818303038152906040529350505050919050565b600060143610801590612f6c57503360009081526065602052604090205460ff165b15612f7e575060131936013560601c90565b503390565b612f8d8383613503565b612f9a6000848484613235565b610cd05760405162461bcd60e51b8152600401610c1d90614555565b826001600160a01b0316612fc9826115b0565b6001600160a01b031614612fef5760405162461bcd60e51b8152600401610c1d90614b08565b6001600160a01b0382166130515760405162461bcd60e51b8152602060048201526024808201527f4552433732313a207472616e7366657220746f20746865207a65726f206164646044820152637265737360e01b6064820152608401610c1d565b61305e838383600161369c565b826001600160a01b0316613071826115b0565b6001600160a01b0316146130975760405162461bcd60e51b8152600401610c1d90614b08565b6000818152609c6020908152604080832080546001600160a01b03199081169091556001600160a01b03878116808652609b8552838620805460001901905590871680865283862080546001019055868652609a90945282852080549092168417909155905184937fddf252ad1be2c89b69c2b068fc378daa952ba7f163c4a11628f55a4df523b3ef91a4505050565b600081815b845181101561316c576131588286838151811061314b5761314b6144a0565b6020026020010151613724565b915080613164816144b6565b91505061312c565b509392505050565b6001600160a01b0381163b6131e15760405162461bcd60e51b815260206004820152602d60248201527f455243313936373a206e657720696d706c656d656e746174696f6e206973206e60448201526c1bdd08184818dbdb9d1c9858dd609a1b6064820152608401610c1d565b600080516020614ba883398151915280546001600160a01b0319166001600160a01b0392909216919091179055565b61321983613753565b6000825111806132265750805b15610cd057611c238383613793565b60006001600160a01b0384163b1561333257836001600160a01b031663150b7a0261325e6123a5565b8786866040518563ffffffff1660e01b81526004016132809493929190614b4d565b6020604051808303816000875af19250505080156132bb575060408051601f3d908101601f191682019092526132b891810190614b8a565b60015b613318573d8080156132e9576040519150601f19603f3d011682016040523d82523d6000602084013e6132ee565b606091505b5080516000036133105760405162461bcd60e51b8152600401610c1d90614555565b805181602001fd5b6001600160e01b031916630a85bd0160e11b149050612117565b506001612117565b600054610100900460ff166133615760405162461bcd60e51b8152600401610c1d906145a7565b61176a61336c6123a5565b612c41565b600054610100900460ff166133985760405162461bcd60e51b8152600401610c1d906145a7565b60986133a483826143e1565b506099610cd082826143e1565b606081516000036133d057505060408051602081019091526000815290565b6000604051806060016040528060408152602001614bc860409139905060006003845160026133ff9190614512565b6134099190614379565b6134149060046144fb565b6001600160401b0381111561342b5761342b613ae8565b6040519080825280601f01601f191660200182016040528015613455576020820181803683370190505b509050600182016020820185865187015b808210156134c1576003820191508151603f8160121c168501518453600184019350603f81600c1c168501518453600184019350603f8160061c168501518453600184019350603f8116850151845350600183019250613466565b50506003865106600181146134dd57600281146134f0576134f8565b603d6001830353603d60028303536134f8565b603d60018303535b509195945050505050565b6001600160a01b0382166135595760405162461bcd60e51b815260206004820181905260248201527f4552433732313a206d696e7420746f20746865207a65726f20616464726573736044820152606401610c1d565b6000818152609a60205260409020546001600160a01b0316156135be5760405162461bcd60e51b815260206004820152601c60248201527f4552433732313a20746f6b656e20616c7265616479206d696e746564000000006044820152606401610c1d565b6135cc60008383600161369c565b6000818152609a60205260409020546001600160a01b0316156136315760405162461bcd60e51b815260206004820152601c60248201527f4552433732313a20746f6b656e20616c7265616479206d696e746564000000006044820152606401610c1d565b6001600160a01b0382166000818152609b6020908152604080832080546001019055848352609a90915280822080546001600160a01b0319168417905551839291907fddf252ad1be2c89b69c2b068fc378daa952ba7f163c4a11628f55a4df523b3ef908290a45050565b6001811115611c23576001600160a01b038416156136e2576001600160a01b0384166000908152609b6020526040812080548392906136dc90849061411d565b90915550505b6001600160a01b03831615611c23576001600160a01b0383166000908152609b602052604081208054839290613719908490614512565b909155505050505050565b60008183106137405760008281526020849052604090206111cf565b60008381526020839052604090206111cf565b61375c81613174565b6040516001600160a01b038216907fbc7cd75a20ee27fd9adebab32041f755214dbc6bffa90cc0225b39da2e5c2d3b90600090a250565b60606001600160a01b0383163b6137fb5760405162461bcd60e51b815260206004820152602660248201527f416464726573733a2064656c65676174652063616c6c20746f206e6f6e2d636f6044820152651b9d1c9858dd60d21b6064820152608401610c1d565b600080846001600160a01b03168460405161381691906141d5565b600060405180830381855af49150503d8060008114613851576040519150601f19603f3d011682016040523d82523d6000602084013e613856565b606091505b509150915061387e8282604051806060016040528060278152602001614c0860279139613887565b95945050505050565b606083156138965750816111cf565b6111cf83838151156138ab5781518083602001fd5b8060405162461bcd60e51b8152600401610c1d9190613948565b6001600160e01b03198116811461130457600080fd5b6000602082840312156138ed57600080fd5b81356111cf816138c5565b60005b838110156139135781810151838201526020016138fb565b50506000910152565b600081518084526139348160208601602086016138f8565b601f01601f19169290920160200192915050565b6020815260006111cf602083018461391c565b60006020828403121561396d57600080fd5b5035919050565b80356001600160a01b038116811461398b57600080fd5b919050565b600080604083850312156139a357600080fd5b6139ac83613974565b946020939093013593505050565b60008083601f8401126139cc57600080fd5b5081356001600160401b038111156139e357600080fd5b60208301915083602082850101111561233f57600080fd5b600080600080600060608688031215613a1357600080fd5b8535945060208601356001600160401b0380821115613a3157600080fd5b613a3d89838a016139ba565b90965094506040880135915080821115613a5657600080fd5b818801915088601f830112613a6a57600080fd5b813581811115613a7957600080fd5b8960208260051b8501011115613a8e57600080fd5b9699959850939650602001949392505050565b600060208284031215613ab357600080fd5b6111cf82613974565b60008060408385031215613acf57600080fd5b82359150613adf60208401613974565b90509250929050565b634e487b7160e01b600052604160045260246000fd5b604051601f8201601f191681016001600160401b0381118282101715613b2657613b26613ae8565b604052919050565b600082601f830112613b3f57600080fd5b81356001600160401b03811115613b5857613b58613ae8565b613b6b601f8201601f1916602001613afe565b818152846020838601011115613b8057600080fd5b816020850160208301376000918101602001919091529392505050565b600060208284031215613baf57600080fd5b81356001600160401b03811115613bc557600080fd5b61211784828501613b2e565b600080600060608486031215613be657600080fd5b613bef84613974565b9250613bfd60208501613974565b9150604084013590509250925092565b600080600060608486031215613c2257600080fd5b613c2b84613974565b92506020808501356001600160401b0380821115613c4857600080fd5b613c5488838901613b2e565b94506040870135915080821115613c6a57600080fd5b818701915087601f830112613c7e57600080fd5b813581811115613c9057613c90613ae8565b8060051b9150613ca1848301613afe565b818152918301840191848101908a841115613cbb57600080fd5b938501935b83851015613cd957843582529385019390850190613cc0565b8096505050505050509250925092565b60008060408385031215613cfc57600080fd5b613d0583613974565b915060208301356001600160401b03811115613d2057600080fd5b613d2c85828601613b2e565b9150509250929050565b600080600060408486031215613d4b57600080fd5b8335925060208401356001600160401b03811115613d6857600080fd5b613d74868287016139ba565b9497909650939450505050565b60008060008060608587031215613d9757600080fd5b84359350613da760208601613974565b925060408501356001600160401b03811115613dc257600080fd5b613dce878288016139ba565b95989497509550505050565b60008060408385031215613ded57600080fd5b613df683613974565b915060208301358015158114613e0b57600080fd5b809150509250929050565b634e487b7160e01b600052602160045260246000fd5b6020810160038310613e4e57634e487b7160e01b600052602160045260246000fd5b91905290565b60008060008060808587031215613e6a57600080fd5b613e7385613974565b9350613e8160208601613974565b92506040850135915060608501356001600160401b03811115613ea357600080fd5b613eaf87828801613b2e565b91505092959194509250565b848152608060208201526000613ed4608083018661391c565b8460408401528281036060840152613eec818561391c565b979650505050505050565b60008060408385031215613f0a57600080fd5b613f1383613974565b9150613adf60208401613974565b60008060008060608587031215613f3757600080fd5b613f4085613974565b93506020850135925060408501356001600160401b03811115613dc257600080fd5b60008060208385031215613f7557600080fd5b82356001600160401b03811115613f8b57600080fd5b613f97858286016139ba565b90969095509350505050565b60008060408385031215613fb657600080fd5b8235915060208301356001600160401b03811115613d2057600080fd5b600060208284031215613fe557600080fd5b8135600381106111cf57600080fd5b6000806040838503121561400757600080fd5b50508035926020909101359150565b600181811c9082168061402a57607f821691505b60208210810361404a57634e487b7160e01b600052602260045260246000fd5b50919050565b6020808252818101527f596f7520616c7265616479206861766520612054616c656e744c617965724944604082015260600190565b8183823760009101908152919050565b6020808252601490820152732430b73236329030b63932b0b23c903a30b5b2b760611b604082015260600190565b60208082526024908201527f496e636f727265637420616d6f756e74206f662045544820666f72206d696e746040820152632066656560e01b606082015260800190565b634e487b7160e01b600052601160045260246000fd5b81810381811115610aea57610aea614107565b6020808252602d908201527f4552433732313a2063616c6c6572206973206e6f7420746f6b656e206f776e6560408201526c1c881bdc88185c1c1c9bdd9959609a1b606082015260800190565b6000815161418f8185602086016138f8565b9290920192915050565b600083516141ab8184602088016138f8565b603b60f81b90830190815283516141c98160018401602088016138f8565b01600101949350505050565b600082516141e78184602087016138f8565b9190910192915050565b6020808252602c908201527f46756e6374696f6e206d7573742062652063616c6c6564207468726f7567682060408201526b19195b1959d85d1958d85b1b60a21b606082015260800190565b6020808252602c908201527f46756e6374696f6e206d7573742062652063616c6c6564207468726f7567682060408201526b6163746976652070726f787960a01b606082015260800190565b600181815b808511156142c45781600019048211156142aa576142aa614107565b808516156142b757918102915b93841c939080029061428e565b509250929050565b6000826142db57506001610aea565b816142e857506000610aea565b81600181146142fe576002811461430857614324565b6001915050610aea565b60ff84111561431957614319614107565b50506001821b610aea565b5060208310610133831016604e8410600b8410161715614347575081810a610aea565b6143518383614289565b806000190482111561436557614365614107565b029392505050565b60006111cf83836142cc565b60008261439657634e487b7160e01b600052601260045260246000fd5b500490565b601f821115610cd057600081815260208120601f850160051c810160208610156143c25750805b601f850160051c820191505b81811015612637578281556001016143ce565b81516001600160401b038111156143fa576143fa613ae8565b61440e816144088454614016565b8461439b565b602080601f831160018114614443576000841561442b5750858301515b600019600386901b1c1916600185901b178555612637565b600085815260208120601f198616915b8281101561447257888601518255948401946001909101908401614453565b50858210156144905787850151600019600388901b60f8161c191681555b5050505050600190811b01905550565b634e487b7160e01b600052603260045260246000fd5b6000600182016144c8576144c8614107565b5060010190565b8481526080602082015260006144e8608083018661391c565b6040830194909452506060015292915050565b8082028115828204841417610aea57610aea614107565b80820180821115610aea57610aea614107565b60008161453457614534614107565b506000190190565b60006020828403121561454e57600080fd5b5051919050565b60208082526032908201527f4552433732313a207472616e7366657220746f206e6f6e20455243373231526560408201527131b2b4bb32b91034b6b83632b6b2b73a32b960711b606082015260800190565b6020808252602b908201527f496e697469616c697a61626c653a20636f6e7472616374206973206e6f74206960408201526a6e697469616c697a696e6760a81b606082015260800190565b600080835461460081614016565b60018281168015614618576001811461462d5761465c565b60ff198416875282151583028701945061465c565b8760005260208060002060005b858110156146535781548a82015290840190820161463a565b50505082870194505b5050620b9d1b60ea1b835250506003019392505050565b7f3c73766720786d6c6e733d22687474703a2f2f7777772e77332e6f72672f323081527f30302f737667222077696474683d2237323022206865696768743d223732302260208201527f3e3c726563742077696474683d223130302522206865696768743d223130302560408201527f222f3e3c73766720786d6c6e733d22687474703a2f2f7777772e77332e6f726760608201527f2f323030302f737667222077696474683d2231353022206865696768743d223160808201527f3530222076657273696f6e3d22312e32222076696577426f783d222d3230302060a08201527f2d353020313030302031303030223e3c706174682066696c6c3d22234646464660c08201527f46462220643d224d3236342e35203139302e3563302d31332e382031312e322d60e08201527f32352032352d3235483536386331332e3820302032352031312e3220323520326101008201527f357634393063302031332e382d31312e322032352d3235203235483238392e356101208201527f632d31332e3820302d32352d31312e322d32352d32357a222f3e3c70617468206101408201527f66696c6c3d22234646464646462220643d224d3236352036323463302d31332e6101608201527f382031312e322d32352032352d3235683534336331332e3820302032352031316101808201527f2e322032352032357635362e3563302031332e382d31312e322032352d3235206101a08201527f323548323930632d31332e3820302d32352d31312e322d32352d32357a222f3e6101c08201527f3c706174682066696c6c3d22234646464646462220643d224d30203139302e356101e08201527f63302d31332e382031312e322d32352032352d3235683534336331332e3820306102008201527f2032352031312e322032352032355632343763302031332e382d31312e3220326102208201527f352d3235203235483235632d31332e3820302d32352d31312e322d32352d32356102408201527f7a222f3e3c2f7376673e3c7465787420783d2233302220793d223637302220736102608201526b03a3cb6329e913337b73a1d160a51b61028082015260006121176149d26149cc6149a361028c86018861417d565b7f70782073616e732d73657269663b66696c6c3a23666666223e00000000000000815260190190565b8561417d565b6c1e17ba32bc3a1f1e17b9bb339f60991b8152600d0190565b7f646174613a696d6167652f7376672b786d6c3b6261736536342c000000000000815260008251614a2381601a8501602087016138f8565b91909101601a0192915050565b683d913730b6b2911d1160b91b81528251600090614a558160098501602088016138f8565b6b1116101134b6b0b3b2911d1160a11b6009918401918201528351614a818160158401602088016138f8565b7f222c20226465736372697074696f6e223a202254616c656e744c617965722049601592909101918201526244227d60e81b6035820152603801949350505050565b7f646174613a6170706c69636174696f6e2f6a736f6e3b6261736536342c000000815260008251614afb81601d8501602087016138f8565b91909101601d0192915050565b60208082526025908201527f4552433732313a207472616e736665722066726f6d20696e636f72726563742060408201526437bbb732b960d91b606082015260800190565b6001600160a01b0385811682528416602082015260408101839052608060608201819052600090614b809083018461391c565b9695505050505050565b600060208284031215614b9c57600080fd5b81516111cf816138c556fe360894a13ba1a3210667c828492db98dca3e2076cc3735a920a3ca505d382bbc4142434445464748494a4b4c4d4e4f505152535455565758595a6162636465666768696a6b6c6d6e6f707172737475767778797a303132333435363738392b2f416464726573733a206c6f772d6c6576656c2064656c65676174652063616c6c206661696c6564a2646970667358221220322d628c32785285eaa05a9b909afd1050518786aec97c7c76a531bbe733518364736f6c63430008110033",
  "linkReferences": {},
  "deployedLinkReferences": {}
}