{
  "_format": "hh-sol-artifact-1",
  "contractName": "TalentLayerService",
  "sourceName": "contracts/TalentLayerService.sol",
  "abi": [
    {
      "inputs": [],
      "stateMutability": "nonpayable",
      "type": "constructor"
    },
    {
      "anonymous": false,
      "inputs": [
        {
          "indexed": false,
          "internalType": "address",
          "name": "previousAdmin",
          "type": "address"
        },
        {
          "indexed": false,
          "internalType": "address",
          "name": "newAdmin",
          "type": "address"
        }
      ],
      "name": "AdminChanged",
      "type": "event"
    },
    {
      "anonymous": false,
      "inputs": [
        {
          "indexed": false,
          "internalType": "address",
          "name": "_tokenAddress",
          "type": "address"
        },
        {
          "indexed": false,
          "internalType": "bool",
          "name": "_status",
          "type": "bool"
        },
        {
          "indexed": false,
          "internalType": "uint256",
          "name": "_minimumTransactionAmount",
          "type": "uint256"
        }
      ],
      "name": "AllowedTokenListUpdated",
      "type": "event"
    },
    {
      "anonymous": false,
      "inputs": [
        {
          "indexed": true,
          "internalType": "address",
          "name": "beacon",
          "type": "address"
        }
      ],
      "name": "BeaconUpgraded",
      "type": "event"
    },
    {
      "anonymous": false,
      "inputs": [
        {
          "indexed": false,
          "internalType": "uint8",
          "name": "version",
          "type": "uint8"
        }
      ],
      "name": "Initialized",
      "type": "event"
    },
    {
      "anonymous": false,
      "inputs": [
        {
          "indexed": true,
          "internalType": "address",
          "name": "previousOwner",
          "type": "address"
        },
        {
          "indexed": true,
          "internalType": "address",
          "name": "newOwner",
          "type": "address"
        }
      ],
      "name": "OwnershipTransferred",
      "type": "event"
    },
    {
      "anonymous": false,
      "inputs": [
        {
          "indexed": false,
          "internalType": "uint256",
          "name": "serviceId",
          "type": "uint256"
        },
        {
          "indexed": false,
          "internalType": "uint256",
          "name": "ownerId",
          "type": "uint256"
        },
        {
          "indexed": false,
          "internalType": "string",
          "name": "dataUri",
          "type": "string"
        },
        {
          "indexed": false,
          "internalType": "enum TalentLayerService.ProposalStatus",
          "name": "status",
          "type": "uint8"
        },
        {
          "indexed": false,
          "internalType": "address",
          "name": "rateToken",
          "type": "address"
        },
        {
          "indexed": false,
          "internalType": "uint256",
          "name": "rateAmount",
          "type": "uint256"
        },
        {
          "indexed": false,
          "internalType": "uint16",
          "name": "platformId",
          "type": "uint16"
        },
        {
          "indexed": false,
          "internalType": "uint256",
          "name": "expirationDate",
          "type": "uint256"
        }
      ],
      "name": "ProposalCreated",
      "type": "event"
    },
    {
      "anonymous": false,
      "inputs": [
        {
          "indexed": false,
          "internalType": "uint256",
          "name": "serviceId",
          "type": "uint256"
        },
        {
          "indexed": false,
          "internalType": "uint256",
          "name": "ownerId",
          "type": "uint256"
        },
        {
          "indexed": false,
          "internalType": "string",
          "name": "dataUri",
          "type": "string"
        },
        {
          "indexed": false,
          "internalType": "address",
          "name": "rateToken",
          "type": "address"
        },
        {
          "indexed": false,
          "internalType": "uint256",
          "name": "rateAmount",
          "type": "uint256"
        },
        {
          "indexed": false,
          "internalType": "uint256",
          "name": "_expirationDate",
          "type": "uint256"
        }
      ],
      "name": "ProposalUpdated",
      "type": "event"
    },
    {
      "anonymous": false,
      "inputs": [
        {
          "indexed": true,
          "internalType": "bytes32",
          "name": "role",
          "type": "bytes32"
        },
        {
          "indexed": true,
          "internalType": "bytes32",
          "name": "previousAdminRole",
          "type": "bytes32"
        },
        {
          "indexed": true,
          "internalType": "bytes32",
          "name": "newAdminRole",
          "type": "bytes32"
        }
      ],
      "name": "RoleAdminChanged",
      "type": "event"
    },
    {
      "anonymous": false,
      "inputs": [
        {
          "indexed": true,
          "internalType": "bytes32",
          "name": "role",
          "type": "bytes32"
        },
        {
          "indexed": true,
          "internalType": "address",
          "name": "account",
          "type": "address"
        },
        {
          "indexed": true,
          "internalType": "address",
          "name": "sender",
          "type": "address"
        }
      ],
      "name": "RoleGranted",
      "type": "event"
    },
    {
      "anonymous": false,
      "inputs": [
        {
          "indexed": true,
          "internalType": "bytes32",
          "name": "role",
          "type": "bytes32"
        },
        {
          "indexed": true,
          "internalType": "address",
          "name": "account",
          "type": "address"
        },
        {
          "indexed": true,
          "internalType": "address",
          "name": "sender",
          "type": "address"
        }
      ],
      "name": "RoleRevoked",
      "type": "event"
    },
    {
      "anonymous": false,
      "inputs": [
        {
          "indexed": false,
          "internalType": "uint256",
          "name": "id",
          "type": "uint256"
        }
      ],
      "name": "ServiceCancelled",
      "type": "event"
    },
    {
      "anonymous": false,
      "inputs": [
        {
          "indexed": false,
          "internalType": "uint256",
          "name": "id",
          "type": "uint256"
        },
        {
          "indexed": false,
          "internalType": "uint256",
          "name": "ownerId",
          "type": "uint256"
        },
        {
          "indexed": false,
          "internalType": "uint256",
          "name": "platformId",
          "type": "uint256"
        },
        {
          "indexed": false,
          "internalType": "string",
          "name": "dataUri",
          "type": "string"
        }
      ],
      "name": "ServiceCreated",
      "type": "event"
    },
    {
      "anonymous": false,
      "inputs": [
        {
          "indexed": true,
          "internalType": "uint256",
          "name": "id",
          "type": "uint256"
        },
        {
          "indexed": false,
          "internalType": "string",
          "name": "dataUri",
          "type": "string"
        }
      ],
      "name": "ServiceDetailedUpdated",
      "type": "event"
    },
    {
      "anonymous": false,
      "inputs": [
        {
          "indexed": false,
          "internalType": "address",
          "name": "forwarder",
          "type": "address"
        }
      ],
      "name": "TrustedForwarderAdded",
      "type": "event"
    },
    {
      "anonymous": false,
      "inputs": [
        {
          "indexed": false,
          "internalType": "address",
          "name": "forwarder",
          "type": "address"
        }
      ],
      "name": "TrustedForwarderRemoved",
      "type": "event"
    },
    {
      "anonymous": false,
      "inputs": [
        {
          "indexed": true,
          "internalType": "address",
          "name": "implementation",
          "type": "address"
        }
      ],
      "name": "Upgraded",
      "type": "event"
    },
    {
      "inputs": [],
      "name": "DEFAULT_ADMIN_ROLE",
      "outputs": [
        {
          "internalType": "bytes32",
          "name": "",
          "type": "bytes32"
        }
      ],
      "stateMutability": "view",
      "type": "function"
    },
    {
      "inputs": [],
      "name": "ESCROW_ROLE",
      "outputs": [
        {
          "internalType": "bytes32",
          "name": "",
          "type": "bytes32"
        }
      ],
      "stateMutability": "view",
      "type": "function"
    },
    {
      "inputs": [
        {
          "internalType": "address",
          "name": "_forwarder",
          "type": "address"
        }
      ],
      "name": "addTrustedForwarder",
      "outputs": [],
      "stateMutability": "nonpayable",
      "type": "function"
    },
    {
      "inputs": [
        {
          "internalType": "uint256",
          "name": "_serviceId",
          "type": "uint256"
        },
        {
          "internalType": "uint256",
          "name": "_proposalId",
          "type": "uint256"
        },
        {
          "internalType": "uint256",
          "name": "_transactionId",
          "type": "uint256"
        }
      ],
      "name": "afterDeposit",
      "outputs": [],
      "stateMutability": "nonpayable",
      "type": "function"
    },
    {
      "inputs": [
        {
          "internalType": "uint256",
          "name": "_serviceId",
          "type": "uint256"
        }
      ],
      "name": "afterFullPayment",
      "outputs": [],
      "stateMutability": "nonpayable",
      "type": "function"
    },
    {
      "inputs": [
        {
          "internalType": "address",
          "name": "",
          "type": "address"
        }
      ],
      "name": "allowedTokenList",
      "outputs": [
        {
          "internalType": "bool",
          "name": "isWhitelisted",
          "type": "bool"
        },
        {
          "internalType": "uint256",
          "name": "minimumTransactionAmount",
          "type": "uint256"
        }
      ],
      "stateMutability": "view",
      "type": "function"
    },
    {
      "inputs": [
        {
          "internalType": "uint256",
          "name": "_profileId",
          "type": "uint256"
        },
        {
          "internalType": "uint256",
          "name": "_serviceId",
          "type": "uint256"
        }
      ],
      "name": "cancelService",
      "outputs": [],
      "stateMutability": "nonpayable",
      "type": "function"
    },
    {
      "inputs": [
        {
          "internalType": "uint256",
          "name": "_profileId",
          "type": "uint256"
        },
        {
          "internalType": "uint256",
          "name": "_serviceId",
          "type": "uint256"
        },
        {
          "internalType": "address",
          "name": "_rateToken",
          "type": "address"
        },
        {
          "internalType": "uint256",
          "name": "_rateAmount",
          "type": "uint256"
        },
        {
          "internalType": "uint16",
          "name": "_platformId",
          "type": "uint16"
        },
        {
          "internalType": "string",
          "name": "_dataUri",
          "type": "string"
        },
        {
          "internalType": "uint256",
          "name": "_expirationDate",
          "type": "uint256"
        },
        {
          "internalType": "bytes",
          "name": "_signature",
          "type": "bytes"
        }
      ],
      "name": "createProposal",
      "outputs": [],
      "stateMutability": "payable",
      "type": "function"
    },
    {
      "inputs": [
        {
          "internalType": "uint256",
          "name": "_profileId",
          "type": "uint256"
        },
        {
          "internalType": "uint256",
          "name": "_platformId",
          "type": "uint256"
        },
        {
          "internalType": "string",
          "name": "_dataUri",
          "type": "string"
        },
        {
          "internalType": "bytes",
          "name": "_signature",
          "type": "bytes"
        }
      ],
      "name": "createService",
      "outputs": [
        {
          "internalType": "uint256",
          "name": "",
          "type": "uint256"
        }
      ],
      "stateMutability": "payable",
      "type": "function"
    },
    {
      "inputs": [
        {
          "internalType": "uint256",
          "name": "_serviceId",
          "type": "uint256"
        },
        {
          "internalType": "uint256",
          "name": "_proposalId",
          "type": "uint256"
        }
      ],
      "name": "getProposal",
      "outputs": [
        {
          "components": [
            {
              "internalType": "enum TalentLayerService.ProposalStatus",
              "name": "status",
              "type": "uint8"
            },
            {
              "internalType": "uint256",
              "name": "ownerId",
              "type": "uint256"
            },
            {
              "internalType": "address",
              "name": "rateToken",
              "type": "address"
            },
            {
              "internalType": "uint256",
              "name": "rateAmount",
              "type": "uint256"
            },
            {
              "internalType": "uint16",
              "name": "platformId",
              "type": "uint16"
            },
            {
              "internalType": "string",
              "name": "dataUri",
              "type": "string"
            },
            {
              "internalType": "uint256",
              "name": "expirationDate",
              "type": "uint256"
            }
          ],
          "internalType": "struct TalentLayerService.Proposal",
          "name": "",
          "type": "tuple"
        }
      ],
      "stateMutability": "view",
      "type": "function"
    },
    {
      "inputs": [
        {
          "internalType": "bytes32",
          "name": "role",
          "type": "bytes32"
        }
      ],
      "name": "getRoleAdmin",
      "outputs": [
        {
          "internalType": "bytes32",
          "name": "",
          "type": "bytes32"
        }
      ],
      "stateMutability": "view",
      "type": "function"
    },
    {
      "inputs": [
        {
          "internalType": "uint256",
          "name": "_serviceId",
          "type": "uint256"
        }
      ],
      "name": "getService",
      "outputs": [
        {
          "components": [
            {
              "internalType": "enum TalentLayerService.Status",
              "name": "status",
              "type": "uint8"
            },
            {
              "internalType": "uint256",
              "name": "ownerId",
              "type": "uint256"
            },
            {
              "internalType": "uint256",
              "name": "acceptedProposalId",
              "type": "uint256"
            },
            {
              "internalType": "string",
              "name": "dataUri",
              "type": "string"
            },
            {
              "internalType": "uint256",
              "name": "transactionId",
              "type": "uint256"
            },
            {
              "internalType": "uint256",
              "name": "platformId",
              "type": "uint256"
            }
          ],
          "internalType": "struct TalentLayerService.Service",
          "name": "",
          "type": "tuple"
        }
      ],
      "stateMutability": "view",
      "type": "function"
    },
    {
      "inputs": [
        {
          "internalType": "bytes32",
          "name": "role",
          "type": "bytes32"
        },
        {
          "internalType": "address",
          "name": "account",
          "type": "address"
        }
      ],
      "name": "grantRole",
      "outputs": [],
      "stateMutability": "nonpayable",
      "type": "function"
    },
    {
      "inputs": [
        {
          "internalType": "bytes32",
          "name": "role",
          "type": "bytes32"
        },
        {
          "internalType": "address",
          "name": "account",
          "type": "address"
        }
      ],
      "name": "hasRole",
      "outputs": [
        {
          "internalType": "bool",
          "name": "",
          "type": "bool"
        }
      ],
      "stateMutability": "view",
      "type": "function"
    },
    {
      "inputs": [
        {
          "internalType": "address",
          "name": "_talentLayerIdAddress",
          "type": "address"
        },
        {
          "internalType": "address",
          "name": "_talentLayerPlatformIdAddress",
          "type": "address"
        }
      ],
      "name": "initialize",
      "outputs": [],
      "stateMutability": "nonpayable",
      "type": "function"
    },
    {
      "inputs": [
        {
          "internalType": "address",
          "name": "_tokenAddress",
          "type": "address"
        }
      ],
      "name": "isTokenAllowed",
      "outputs": [
        {
          "internalType": "bool",
          "name": "",
          "type": "bool"
        }
      ],
      "stateMutability": "view",
      "type": "function"
    },
    {
      "inputs": [
        {
          "internalType": "address",
          "name": "forwarder",
          "type": "address"
        }
      ],
      "name": "isTrustedForwarder",
      "outputs": [
        {
          "internalType": "bool",
          "name": "",
          "type": "bool"
        }
      ],
      "stateMutability": "view",
      "type": "function"
    },
    {
      "inputs": [],
      "name": "nextServiceId",
      "outputs": [
        {
          "internalType": "uint256",
          "name": "",
          "type": "uint256"
        }
      ],
      "stateMutability": "view",
      "type": "function"
    },
    {
      "inputs": [
        {
          "internalType": "uint256",
          "name": "",
          "type": "uint256"
        }
      ],
      "name": "nonce",
      "outputs": [
        {
          "internalType": "uint256",
          "name": "",
          "type": "uint256"
        }
      ],
      "stateMutability": "view",
      "type": "function"
    },
    {
      "inputs": [],
      "name": "owner",
      "outputs": [
        {
          "internalType": "address",
          "name": "",
          "type": "address"
        }
      ],
      "stateMutability": "view",
      "type": "function"
    },
    {
      "inputs": [
        {
          "internalType": "uint256",
          "name": "",
          "type": "uint256"
        },
        {
          "internalType": "uint256",
          "name": "",
          "type": "uint256"
        }
      ],
      "name": "proposals",
      "outputs": [
        {
          "internalType": "enum TalentLayerService.ProposalStatus",
          "name": "status",
          "type": "uint8"
        },
        {
          "internalType": "uint256",
          "name": "ownerId",
          "type": "uint256"
        },
        {
          "internalType": "address",
          "name": "rateToken",
          "type": "address"
        },
        {
          "internalType": "uint256",
          "name": "rateAmount",
          "type": "uint256"
        },
        {
          "internalType": "uint16",
          "name": "platformId",
          "type": "uint16"
        },
        {
          "internalType": "string",
          "name": "dataUri",
          "type": "string"
        },
        {
          "internalType": "uint256",
          "name": "expirationDate",
          "type": "uint256"
        }
      ],
      "stateMutability": "view",
      "type": "function"
    },
    {
      "inputs": [],
      "name": "proxiableUUID",
      "outputs": [
        {
          "internalType": "bytes32",
          "name": "",
          "type": "bytes32"
        }
      ],
      "stateMutability": "view",
      "type": "function"
    },
    {
      "inputs": [
        {
          "internalType": "address",
          "name": "_forwarder",
          "type": "address"
        }
      ],
      "name": "removeTrustedForwarder",
      "outputs": [],
      "stateMutability": "nonpayable",
      "type": "function"
    },
    {
      "inputs": [],
      "name": "renounceOwnership",
      "outputs": [],
      "stateMutability": "nonpayable",
      "type": "function"
    },
    {
      "inputs": [
        {
          "internalType": "bytes32",
          "name": "role",
          "type": "bytes32"
        },
        {
          "internalType": "address",
          "name": "account",
          "type": "address"
        }
      ],
      "name": "renounceRole",
      "outputs": [],
      "stateMutability": "nonpayable",
      "type": "function"
    },
    {
      "inputs": [
        {
          "internalType": "bytes32",
          "name": "role",
          "type": "bytes32"
        },
        {
          "internalType": "address",
          "name": "account",
          "type": "address"
        }
      ],
      "name": "revokeRole",
      "outputs": [],
      "stateMutability": "nonpayable",
      "type": "function"
    },
    {
      "inputs": [
        {
          "internalType": "uint256",
          "name": "",
          "type": "uint256"
        }
      ],
      "name": "services",
      "outputs": [
        {
          "internalType": "enum TalentLayerService.Status",
          "name": "status",
          "type": "uint8"
        },
        {
          "internalType": "uint256",
          "name": "ownerId",
          "type": "uint256"
        },
        {
          "internalType": "uint256",
          "name": "acceptedProposalId",
          "type": "uint256"
        },
        {
          "internalType": "string",
          "name": "dataUri",
          "type": "string"
        },
        {
          "internalType": "uint256",
          "name": "transactionId",
          "type": "uint256"
        },
        {
          "internalType": "uint256",
          "name": "platformId",
          "type": "uint256"
        }
      ],
      "stateMutability": "view",
      "type": "function"
    },
    {
      "inputs": [
        {
          "internalType": "bytes4",
          "name": "interfaceId",
          "type": "bytes4"
        }
      ],
      "name": "supportsInterface",
      "outputs": [
        {
          "internalType": "bool",
          "name": "",
          "type": "bool"
        }
      ],
      "stateMutability": "view",
      "type": "function"
    },
    {
      "inputs": [],
      "name": "talentLayerPlatformIdContract",
      "outputs": [
        {
          "internalType": "contract ITalentLayerPlatformID",
          "name": "",
          "type": "address"
        }
      ],
      "stateMutability": "view",
      "type": "function"
    },
    {
      "inputs": [
        {
          "internalType": "address",
          "name": "newOwner",
          "type": "address"
        }
      ],
      "name": "transferOwnership",
      "outputs": [],
      "stateMutability": "nonpayable",
      "type": "function"
    },
    {
      "inputs": [
        {
          "internalType": "address",
          "name": "_tokenAddress",
          "type": "address"
        },
        {
          "internalType": "bool",
          "name": "_status",
          "type": "bool"
        },
        {
          "internalType": "uint256",
          "name": "_minimumTransactionAmount",
          "type": "uint256"
        }
      ],
      "name": "updateAllowedTokenList",
      "outputs": [],
      "stateMutability": "nonpayable",
      "type": "function"
    },
    {
      "inputs": [
        {
          "internalType": "uint256",
          "name": "_profileId",
          "type": "uint256"
        },
        {
          "internalType": "uint256",
          "name": "_serviceId",
          "type": "uint256"
        },
        {
          "internalType": "address",
          "name": "_rateToken",
          "type": "address"
        },
        {
          "internalType": "uint256",
          "name": "_rateAmount",
          "type": "uint256"
        },
        {
          "internalType": "string",
          "name": "_dataUri",
          "type": "string"
        },
        {
          "internalType": "uint256",
          "name": "_expirationDate",
          "type": "uint256"
        }
      ],
      "name": "updateProposal",
      "outputs": [],
      "stateMutability": "nonpayable",
      "type": "function"
    },
    {
      "inputs": [
        {
          "internalType": "uint256",
          "name": "_profileId",
          "type": "uint256"
        },
        {
          "internalType": "uint256",
          "name": "_serviceId",
          "type": "uint256"
        },
        {
          "internalType": "string",
          "name": "_dataUri",
          "type": "string"
        }
      ],
      "name": "updateServiceData",
      "outputs": [],
      "stateMutability": "nonpayable",
      "type": "function"
    },
    {
      "inputs": [
        {
          "internalType": "address",
          "name": "newImplementation",
          "type": "address"
        }
      ],
      "name": "upgradeTo",
      "outputs": [],
      "stateMutability": "nonpayable",
      "type": "function"
    },
    {
      "inputs": [
        {
          "internalType": "address",
          "name": "newImplementation",
          "type": "address"
        },
        {
          "internalType": "bytes",
          "name": "data",
          "type": "bytes"
        }
      ],
      "name": "upgradeToAndCall",
      "outputs": [],
      "stateMutability": "payable",
      "type": "function"
    }
  ],
  "bytecode": "0x60a0604052306080523480156200001557600080fd5b506200002062000026565b620000e8565b600054610100900460ff1615620000935760405162461bcd60e51b815260206004820152602760248201527f496e697469616c697a61626c653a20636f6e747261637420697320696e697469604482015266616c697a696e6760c81b606482015260840160405180910390fd5b60005460ff9081161015620000e6576000805460ff191660ff9081179091556040519081527f7f26b83ff96e1f2b6a682f133852f6798a09c465da95921460cefb38474024989060200160405180910390a15b565b608051613c846200012060003960008181610e8c01528181610ecc01528181611178015281816111b801526112470152613c846000f3fe6080604052600436106102045760003560e01c8063715018a611610118578063c2cfee27116100a0578063d547741f1161006f578063d547741f1461066c578063ef0e239b1461068c578063f2fde38b146106b9578063f6c53d9b146106d9578063f9eaee0d146106f057600080fd5b8063c2cfee27146105d8578063c75858d51461060b578063ce03fdab1461062b578063d338ec9a1461065957600080fd5b806391d14854116100e757806391d1485414610524578063a217fddf14610544578063a7d5eaea14610559578063aba2100914610579578063c22c4f43146105a657600080fd5b8063715018a61461047f57806371da85f9146104945780637c5a72cd146104e65780638da5cb5b1461050657600080fd5b806336568abe1161019b57806349c6559c1161016a57806349c6559c146103ca5780634f1ef286146103ea57806352d1902d146103fd578063572b6c05146104125780636ce76f301461044b57600080fd5b806336568abe1461034a5780633659cfe61461036a5780633751d89c1461038a578063485cc955146103aa57600080fd5b8063248a9ca3116101d7578063248a9ca3146102b95780632579c1c6146102f757806326d006681461030a5780632f2ff15d1461032a57600080fd5b806301ffc9a714610209578063089b7c731461023e5780630e066025146102605780631499f9e614610280575b600080fd5b34801561021557600080fd5b50610229610224366004612f34565b61072a565b60405190151581526020015b60405180910390f35b34801561024a57600080fd5b5061025e610259366004612f5e565b610761565b005b34801561026c57600080fd5b5061025e61027b366004612fc2565b610946565b34801561028c57600080fd5b50610130546102a1906001600160a01b031681565b6040516001600160a01b039091168152602001610235565b3480156102c557600080fd5b506102e96102d4366004613015565b600090815260fc602052604090206001015490565b604051908152602001610235565b61025e61030536600461304a565b610b34565b34801561031657600080fd5b5061025e61032536600461310e565b610d67565b34801561033657600080fd5b5061025e610345366004613129565b610dca565b34801561035657600080fd5b5061025e610365366004613129565b610df4565b34801561037657600080fd5b5061025e61038536600461310e565b610e82565b34801561039657600080fd5b5061025e6103a536600461310e565b610f61565b3480156103b657600080fd5b5061025e6103c5366004613155565b610fba565b3480156103d657600080fd5b5061025e6103e5366004613015565b611127565b61025e6103f8366004613195565b61116e565b34801561040957600080fd5b506102e961123a565b34801561041e57600080fd5b5061022961042d36600461310e565b6001600160a01b031660009081526065602052604090205460ff1690565b34801561045757600080fd5b506102e97f2fdac322ee704ce09f0773f7f3f92eb98d5e7c836ee9c056cccd5f61041e5e3f81565b34801561048b57600080fd5b5061025e6112ed565b3480156104a057600080fd5b506104cf6104af36600461310e565b610134602052600090815260409020805460019091015460ff9091169082565b604080519215158352602083019190915201610235565b3480156104f257600080fd5b5061025e610501366004613265565b611301565b34801561051257600080fd5b506033546001600160a01b03166102a1565b34801561053057600080fd5b5061022961053f366004613129565b6113d6565b34801561055057600080fd5b506102e9600081565b34801561056557600080fd5b5061025e6105743660046132a4565b611401565b34801561058557600080fd5b50610599610594366004612f5e565b61147a565b604051610235919061334a565b3480156105b257600080fd5b506105c66105c1366004613015565b6115db565b604051610235969594939291906133d2565b3480156105e457600080fd5b506105f86105f3366004612f5e565b61169f565b6040516102359796959493929190613413565b34801561061757600080fd5b5061025e61062636600461346b565b611785565b34801561063757600080fd5b506102e9610646366004613015565b6101336020526000908152604090205481565b6102e96106673660046134e5565b611acb565b34801561067857600080fd5b5061025e610687366004613129565b611c3c565b34801561069857600080fd5b506106ac6106a7366004613015565b611c61565b6040516102359190613568565b3480156106c557600080fd5b5061025e6106d436600461310e565b611df5565b3480156106e557600080fd5b506102e961012e5481565b3480156106fc57600080fd5b5061022961070b36600461310e565b6001600160a01b03166000908152610134602052604090205460ff1690565b60006001600160e01b03198216637965db0b60e01b148061075b57506301ffc9a760e01b6001600160e01b03198316145b92915050565b61012f5482906001600160a01b0316632fa117e58261077e611e6b565b6040516001600160e01b031960e085901b16815260048101929092526001600160a01b03166024820152604401602060405180830381865afa1580156107c8573d6000803e3d6000fd5b505050506040513d601f19601f820116820180604052508101906107ec91906135c9565b6108115760405162461bcd60e51b8152600401610808906135e6565b60405180910390fd5b600082815261013160205260409020600181015484146108815760405162461bcd60e51b815260206004820152602560248201527f4f6e6c7920746865206f776e65722063616e2063616e63656c20746865207365604482015264727669636560d81b6064820152608401610808565b6000815460ff166003811115610899576108996132d0565b146109025760405162461bcd60e51b815260206004820152603360248201527f4f6e6c79207365727669636573207769746820746865206f70656e20737461746044820152721d5cc818d85b8818994818d85b98d95b1b1959606a1b6064820152608401610808565b805460ff191660031781556040518381527f853aa4be1ac86f37acfc91d42b57f1fe895205aa6f8f9b7caa77ca257049ab1a9060200160405180910390a150505050565b61012f5484906001600160a01b0316632fa117e582610963611e6b565b6040516001600160e01b031960e085901b16815260048101929092526001600160a01b03166024820152604401602060405180830381865afa1580156109ad573d6000803e3d6000fd5b505050506040513d601f19601f820116820180604052508101906109d191906135c9565b6109ed5760405162461bcd60e51b8152600401610808906135e6565b60008481526101316020526040902060018101548614610a5d5760405162461bcd60e51b815260206004820152602560248201527f4f6e6c7920746865206f776e65722063616e2075706461746520746865207365604482015264727669636560d81b6064820152608401610808565b6000815460ff166003811115610a7557610a756132d0565b14610ac25760405162461bcd60e51b815260206004820152601f60248201527f53657276696365207374617475732073686f756c64206265206f70656e6564006044820152606401610808565b602e8314610ae25760405162461bcd60e51b815260040161080890613615565b60038101610af18486836136ba565b50847f1cae99404f615a4039d85b1009cb70622aae6d64f671e8b1b191d9269847d43e8585604051610b249291906137a4565b60405180910390a2505050505050565b61012f548a906001600160a01b0316632fa117e582610b51611e6b565b6040516001600160e01b031960e085901b16815260048101929092526001600160a01b03166024820152604401602060405180830381865afa158015610b9b573d6000803e3d6000fd5b505050506040513d601f19601f82011682018060405250810190610bbf91906135c9565b610bdb5760405162461bcd60e51b8152600401610808906135e6565b610bec8b8b8b8b8b8b8b8a8a611e7a565b6040805160e0810190915280600081526020018c81526020018a6001600160a01b031681526020018981526020018861ffff16815260200187878080601f016020809104026020016040519081016040528093929190818152602001838380828437600092018290525093855250505060209182018790528c8152610132825260408082208f83529092522081518154829060ff191660018381811115610c9557610c956132d0565b02179055506020820151600182015560408201516002820180546001600160a01b0319166001600160a01b0390921691909117905560608201516003820155608082015160048201805461ffff191661ffff90921691909117905560a08201516005820190610d0490826137c0565b5060c082015181600601559050507f1681c3e69e3dbb90d91fbd7df6e21e11a35daef0f91f6a6a0e2968999b5d100e8a8c888860008e8e8e8c604051610d5299989796959493929190613880565b60405180910390a15050505050505050505050565b610d6f6121c3565b6001600160a01b038116600081815260656020908152604091829020805460ff1916600117905590519182527f3ef8564460ada92419608d823c014975d98f8104d7d1e68c222967ac6814cd9791015b60405180910390a150565b600082815260fc6020526040902060010154610de58161223c565b610def838361224d565b505050565b610dfc611e6b565b6001600160a01b0316816001600160a01b031614610e745760405162461bcd60e51b815260206004820152602f60248201527f416363657373436f6e74726f6c3a2063616e206f6e6c792072656e6f756e636560448201526e103937b632b9903337b91039b2b63360891b6064820152608401610808565b610e7e82826122d4565b5050565b6001600160a01b037f0000000000000000000000000000000000000000000000000000000000000000163003610eca5760405162461bcd60e51b8152600401610808906138e5565b7f00000000000000000000000000000000000000000000000000000000000000006001600160a01b0316610f13600080516020613c08833981519152546001600160a01b031690565b6001600160a01b031614610f395760405162461bcd60e51b815260040161080890613931565b610f4281612359565b60408051600080825260208201909252610f5e91839190612361565b50565b610f696121c3565b6001600160a01b038116600081815260656020908152604091829020805460ff1916905590519182527fd2d636efcad0cea42e170256f4c5d8b1cd81e47b855557edaf44014e6cc4cee69101610dbf565b600054610100900460ff1615808015610fda5750600054600160ff909116105b80610ff45750303b158015610ff4575060005460ff166001145b6110575760405162461bcd60e51b815260206004820152602e60248201527f496e697469616c697a61626c653a20636f6e747261637420697320616c72656160448201526d191e481a5b9a5d1a585b1a5e995960921b6064820152608401610808565b6000805460ff19166001179055801561107a576000805461ff0019166101001790555b6110826124cc565b61108a6124fb565b6110926124fb565b6110a4600061109f611e6b565b612522565b61012f80546001600160a01b038086166001600160a01b031992831617909255610130805492851692909116919091179055600161012e558015610def576000805461ff0019169055604051600181527f7f26b83ff96e1f2b6a682f133852f6798a09c465da95921460cefb3847402498906020015b60405180910390a1505050565b7f2fdac322ee704ce09f0773f7f3f92eb98d5e7c836ee9c056cccd5f61041e5e3f6111518161223c565b50600090815261013160205260409020805460ff19166002179055565b6001600160a01b037f00000000000000000000000000000000000000000000000000000000000000001630036111b65760405162461bcd60e51b8152600401610808906138e5565b7f00000000000000000000000000000000000000000000000000000000000000006001600160a01b03166111ff600080516020613c08833981519152546001600160a01b031690565b6001600160a01b0316146112255760405162461bcd60e51b815260040161080890613931565b61122e82612359565b610e7e82826001612361565b6000306001600160a01b037f000000000000000000000000000000000000000000000000000000000000000016146112da5760405162461bcd60e51b815260206004820152603860248201527f555550535570677261646561626c653a206d757374206e6f742062652063616c60448201527f6c6564207468726f7567682064656c656761746563616c6c00000000000000006064820152608401610808565b50600080516020613c0883398151915290565b6112f56121c3565b6112ff600061252c565b565b6113096121c3565b6001600160a01b03831615801561131e575081155b1561136b5760405162461bcd60e51b815260206004820152601d60248201527f4f776e65722063616e27742072656d6f7665204f7820616464726573730000006044820152606401610808565b6001600160a01b03831660008181526101346020908152604091829020805460ff19168615159081178255600190910185905582519384529083015281018290527f42b585a1da1cff4b571e7a78aea1b4601b1d128de41a0feebd8a77aaf48b9d889060600161111a565b600091825260fc602090815260408084206001600160a01b0393909316845291905290205460ff1690565b7f2fdac322ee704ce09f0773f7f3f92eb98d5e7c836ee9c056cccd5f61041e5e3f61142b8161223c565b506000928352610131602090815260408085206101328352818620948652939091529092208154600160ff19918216811784558083015460028501556004909301939093558054909216179055565b6040805160e080820183526000808352602080840182905283850182905260608085018390526080850183905260a085015260c08401829052868252610132815284822086835290528390208351918201909352825491929091829060ff1660018111156114ea576114ea6132d0565b60018111156114fb576114fb6132d0565b81526001820154602082015260028201546001600160a01b0316604082015260038201546060820152600482015461ffff16608082015260058201805460a0909201916115479061363a565b80601f01602080910402602001604051908101604052809291908181526020018280546115739061363a565b80156115c05780601f10611595576101008083540402835291602001916115c0565b820191906000526020600020905b8154815290600101906020018083116115a357829003601f168201915b50505050508152602001600682015481525050905092915050565b61013160205260009081526040902080546001820154600283015460038401805460ff9094169492939192916116109061363a565b80601f016020809104026020016040519081016040528092919081815260200182805461163c9061363a565b80156116895780601f1061165e57610100808354040283529160200191611689565b820191906000526020600020905b81548152906001019060200180831161166c57829003601f168201915b5050505050908060040154908060050154905086565b61013260209081526000928352604080842090915290825290208054600182015460028301546003840154600485015460058601805460ff9096169694956001600160a01b0390941694929361ffff90921692916116fc9061363a565b80601f01602080910402602001604051908101604052809291908181526020018280546117289061363a565b80156117755780601f1061174a57610100808354040283529160200191611775565b820191906000526020600020905b81548152906001019060200180831161175857829003601f168201915b5050505050908060060154905087565b61012f5487906001600160a01b0316632fa117e5826117a2611e6b565b6040516001600160e01b031960e085901b16815260048101929092526001600160a01b03166024820152604401602060405180830381865afa1580156117ec573d6000803e3d6000fd5b505050506040513d601f19601f8201168201806040525081019061181091906135c9565b61182c5760405162461bcd60e51b8152600401610808906135e6565b6001600160a01b0386166000908152610134602052604090205460ff166118915760405162461bcd60e51b8152602060048201526019602482015278151a1a5cc81d1bdad95b881a5cc81b9bdd08185b1b1bddd959603a1b6044820152606401610808565b60008781526101316020908152604080832061013283528184208c855290925282209091825460ff1660038111156118cb576118cb6132d0565b146119105760405162461bcd60e51b815260206004820152601560248201527414d95c9d9a58d9481a5cc81b9bdd081bdc195b9959605a1b6044820152606401610808565b898160010154146119635760405162461bcd60e51b815260206004820152601f60248201527f546869732070726f706f73616c20646f65736e277420657869737420796574006044820152606401610808565b602e85146119835760405162461bcd60e51b815260040161080890613615565b6001815460ff16600181111561199b5761199b6132d0565b036119e85760405162461bcd60e51b815260206004820181905260248201527f546869732070726f706f73616c20697320616c726561647920757064617465646044820152606401610808565b6001600160a01b03881660009081526101346020526040902060010154871015611a485760405162461bcd60e51b8152602060048201526011602482015270416d6f756e7420697320746f6f206c6f7760781b6044820152606401610808565b6002810180546001600160a01b0319166001600160a01b038a161790556003810187905560058101611a7b8688836136ba565b507f0f68ab04ab4935c8598d30f2c12ec34265575059bb4cae481b4d632cc43db81e898b88888c8c8a604051611ab7979695949392919061397d565b60405180910390a150505050505050505050565b61012f5460009087906001600160a01b0316632fa117e582611aeb611e6b565b6040516001600160e01b031960e085901b16815260048101929092526001600160a01b03166024820152604401602060405180830381865afa158015611b35573d6000803e3d6000fd5b505050506040513d601f19601f82011682018060405250810190611b5991906135c9565b611b755760405162461bcd60e51b8152600401610808906135e6565b611b8388888888888861257e565b61012e80549081906000611b96836139db565b9091555050600081815261013160205260409020805460ff19168155600181018a905560038101611bc8888a836136ba565b506005810189905560008a815261013360205260408120805491611beb836139db565b91905055507f8f3fc1086abc1020f602edd700a9ae5801b250c9d110af9e54022d7cc5df7bee828b8b8b8b604051611c279594939291906139f4565b60405180910390a15098975050505050505050565b600082815260fc6020526040902060010154611c578161223c565b610def83836122d4565b611c9b6040805160c08101909152806000815260200160008152602001600081526020016060815260200160008152602001600081525090565b61012e548210611ced5760405162461bcd60e51b815260206004820152601a60248201527f54686973207365727669636520646f65736e27742065786973740000000000006044820152606401610808565b6000828152610131602052604090819020815160c081019092528054829060ff166003811115611d1f57611d1f6132d0565b6003811115611d3057611d306132d0565b81526020016001820154815260200160028201548152602001600382018054611d589061363a565b80601f0160208091040260200160405190810160405280929190818152602001828054611d849061363a565b8015611dd15780601f10611da657610100808354040283529160200191611dd1565b820191906000526020600020905b815481529060010190602001808311611db457829003601f168201915b50505050508152602001600482015481526020016005820154815250509050919050565b611dfd6121c3565b6001600160a01b038116611e625760405162461bcd60e51b815260206004820152602660248201527f4f776e61626c653a206e6577206f776e657220697320746865207a65726f206160448201526564647265737360d01b6064820152608401610808565b610f5e8161252c565b6000611e756126a7565b905090565b6001600160a01b0387166000908152610134602052604090205460ff16611edf5760405162461bcd60e51b8152602060048201526019602482015278151a1a5cc81d1bdad95b881a5cc81b9bdd08185b1b1bddd959603a1b6044820152606401610808565b61013054604051634a7ab1d560e01b815261ffff871660048201526000916001600160a01b031690634a7ab1d590602401602060405180830381865afa158015611f2d573d6000803e3d6000fd5b505050506040513d601f19601f82011682018060405250810190611f519190613a25565b9050803414611f975760405162461bcd60e51b81526020600482015260126024820152714e6f6e2d6d61746368696e672066756e647360701b6044820152606401610808565b6001600160a01b03881660009081526101346020526040902060010154871015611ff75760405162461bcd60e51b8152602060048201526011602482015270416d6f756e7420697320746f6f206c6f7760781b6044820152606401610808565b60008981526101316020526040812090815460ff16600381111561201d5761201d6132d0565b146120625760405162461bcd60e51b815260206004820152601560248201527414d95c9d9a58d9481a5cc81b9bdd081bdc195b9959605a1b6044820152606401610808565b60008a8152610132602090815260408083208e84529091529020600101548b90036120e75760405162461bcd60e51b815260206004820152602f60248201527f596f7520616c7265616479206372656174656420612070726f706f73616c206660448201526e6f722074686973207365727669636560881b6064820152608401610808565b8a8160010154036121545760405162461bcd60e51b815260206004820152603160248201527f596f7520636f756c646e2774206372656174652070726f706f73616c20666f7260448201527020796f7572206f776e207365727669636560781b6064820152608401610808565b602e85146121745760405162461bcd60e51b815260040161080890613615565b60008b8b888860405160200161218d9493929190613a3e565b6040516020818303038152906040528051906020012090506121b58585838b61ffff166126e0565b505050505050505050505050565b6121cb611e6b565b6001600160a01b03166121e66033546001600160a01b031690565b6001600160a01b0316146112ff5760405162461bcd60e51b815260206004820181905260248201527f4f776e61626c653a2063616c6c6572206973206e6f7420746865206f776e65726044820152606401610808565b610f5e81612248611e6b565b61283a565b61225782826113d6565b610e7e57600082815260fc602090815260408083206001600160a01b03851684529091529020805460ff19166001179055612290611e6b565b6001600160a01b0316816001600160a01b0316837f2f8788117e7eff1d82e926ec794901d17c78024a50270940304540a733656f0d60405160405180910390a45050565b6122de82826113d6565b15610e7e57600082815260fc602090815260408083206001600160a01b03851684529091529020805460ff19169055612315611e6b565b6001600160a01b0316816001600160a01b0316837ff6391f5c32d9c69d2a47ea670b442974b53935d1edc7fd64eb21e047a839171b60405160405180910390a45050565b610f5e6121c3565b7f4910fdfa16fed3260ed0e7147f7cc6da11a60208b5b9406d12a635614ffd91435460ff161561239457610def83612893565b826001600160a01b03166352d1902d6040518163ffffffff1660e01b8152600401602060405180830381865afa9250505080156123ee575060408051601f3d908101601f191682019092526123eb91810190613a25565b60015b6124515760405162461bcd60e51b815260206004820152602e60248201527f45524331393637557067726164653a206e657720696d706c656d656e7461746960448201526d6f6e206973206e6f74205555505360901b6064820152608401610808565b600080516020613c0883398151915281146124c05760405162461bcd60e51b815260206004820152602960248201527f45524331393637557067726164653a20756e737570706f727465642070726f786044820152681a58589b195555525160ba1b6064820152608401610808565b50610def83838361292f565b600054610100900460ff166124f35760405162461bcd60e51b815260040161080890613a80565b6112ff61295a565b600054610100900460ff166112ff5760405162461bcd60e51b815260040161080890613a80565b610e7e828261224d565b603380546001600160a01b038381166001600160a01b0319831681179093556040519116919082907f8be0079c531659141344cd1fd0a4f28419497f9722a3daafe3b4186f6b6457e090600090a35050565b61013054604051638a98636360e01b8152600481018790526000916001600160a01b031690638a98636390602401602060405180830381865afa1580156125c9573d6000803e3d6000fd5b505050506040513d601f19601f820116820180604052508101906125ed9190613a25565b90508034146126335760405162461bcd60e51b81526020600482015260126024820152714e6f6e2d6d61746368696e672066756e647360701b6044820152606401610808565b602e84146126535760405162461bcd60e51b815260040161080890613615565b600087815261013360209081526040808320549051612679928b92918a918a9101613acb565b60405160208183030381529060405280519060200120905061269d8484838a6126e0565b5050505050505050565b6000601436108015906126c957503360009081526065602052604090205460ff165b156126db575060131936013560601c90565b503390565b6000612739836040517f19457468657265756d205369676e6564204d6573736167653a0a3332000000006020820152603c8101829052600090605c01604051602081830303815290604052805190602001209050919050565b9050600061277d8287878080601f01602080910402602001604051908101604052809392919081815260200183838082843760009201919091525061299192505050565b61013054604051631847c06b60e01b81526001600160a01b038084166004830152929350859290911690631847c06b90602401602060405180830381865afa1580156127cd573d6000803e3d6000fd5b505050506040513d601f19601f820116820180604052508101906127f19190613a25565b146128325760405162461bcd60e51b8152602060048201526011602482015270696e76616c6964207369676e617475726560781b6044820152606401610808565b505050505050565b61284482826113d6565b610e7e57612851816129b5565b61285c8360206129c7565b60405160200161286d929190613b0c565b60408051601f198184030181529082905262461bcd60e51b825261080891600401613b81565b6001600160a01b0381163b6129005760405162461bcd60e51b815260206004820152602d60248201527f455243313936373a206e657720696d706c656d656e746174696f6e206973206e60448201526c1bdd08184818dbdb9d1c9858dd609a1b6064820152608401610808565b600080516020613c0883398151915280546001600160a01b0319166001600160a01b0392909216919091179055565b61293883612b6a565b6000825111806129455750805b15610def576129548383612baa565b50505050565b600054610100900460ff166129815760405162461bcd60e51b815260040161080890613a80565b6112ff61298c611e6b565b61252c565b60008060006129a08585612c9e565b915091506129ad81612ce3565b509392505050565b606061075b6001600160a01b03831660145b606060006129d6836002613b94565b6129e1906002613bab565b67ffffffffffffffff8111156129f9576129f961317f565b6040519080825280601f01601f191660200182016040528015612a23576020820181803683370190505b509050600360fc1b81600081518110612a3e57612a3e613bbe565b60200101906001600160f81b031916908160001a905350600f60fb1b81600181518110612a6d57612a6d613bbe565b60200101906001600160f81b031916908160001a9053506000612a91846002613b94565b612a9c906001613bab565b90505b6001811115612b14576f181899199a1a9b1b9c1cb0b131b232b360811b85600f1660108110612ad057612ad0613bbe565b1a60f81b828281518110612ae657612ae6613bbe565b60200101906001600160f81b031916908160001a90535060049490941c93612b0d81613bd4565b9050612a9f565b508315612b635760405162461bcd60e51b815260206004820181905260248201527f537472696e67733a20686578206c656e67746820696e73756666696369656e746044820152606401610808565b9392505050565b612b7381612893565b6040516001600160a01b038216907fbc7cd75a20ee27fd9adebab32041f755214dbc6bffa90cc0225b39da2e5c2d3b90600090a250565b60606001600160a01b0383163b612c125760405162461bcd60e51b815260206004820152602660248201527f416464726573733a2064656c65676174652063616c6c20746f206e6f6e2d636f6044820152651b9d1c9858dd60d21b6064820152608401610808565b600080846001600160a01b031684604051612c2d9190613beb565b600060405180830381855af49150503d8060008114612c68576040519150601f19603f3d011682016040523d82523d6000602084013e612c6d565b606091505b5091509150612c958282604051806060016040528060278152602001613c2860279139612e2d565b95945050505050565b6000808251604103612cd45760208301516040840151606085015160001a612cc887828585612e46565b94509450505050612cdc565b506000905060025b9250929050565b6000816004811115612cf757612cf76132d0565b03612cff5750565b6001816004811115612d1357612d136132d0565b03612d605760405162461bcd60e51b815260206004820152601860248201527f45434453413a20696e76616c6964207369676e617475726500000000000000006044820152606401610808565b6002816004811115612d7457612d746132d0565b03612dc15760405162461bcd60e51b815260206004820152601f60248201527f45434453413a20696e76616c6964207369676e6174757265206c656e677468006044820152606401610808565b6003816004811115612dd557612dd56132d0565b03610f5e5760405162461bcd60e51b815260206004820152602260248201527f45434453413a20696e76616c6964207369676e6174757265202773272076616c604482015261756560f01b6064820152608401610808565b60608315612e3c575081612b63565b612b638383612f0a565b6000807f7fffffffffffffffffffffffffffffff5d576e7357a4501ddfe92f46681b20a0831115612e7d5750600090506003612f01565b6040805160008082526020820180845289905260ff881692820192909252606081018690526080810185905260019060a0016020604051602081039080840390855afa158015612ed1573d6000803e3d6000fd5b5050604051601f1901519150506001600160a01b038116612efa57600060019250925050612f01565b9150600090505b94509492505050565b815115612f1a5781518083602001fd5b8060405162461bcd60e51b81526004016108089190613b81565b600060208284031215612f4657600080fd5b81356001600160e01b031981168114612b6357600080fd5b60008060408385031215612f7157600080fd5b50508035926020909101359150565b60008083601f840112612f9257600080fd5b50813567ffffffffffffffff811115612faa57600080fd5b602083019150836020828501011115612cdc57600080fd5b60008060008060608587031215612fd857600080fd5b8435935060208501359250604085013567ffffffffffffffff811115612ffd57600080fd5b61300987828801612f80565b95989497509550505050565b60006020828403121561302757600080fd5b5035919050565b80356001600160a01b038116811461304557600080fd5b919050565b6000806000806000806000806000806101008b8d03121561306a57600080fd5b8a35995060208b0135985061308160408c0161302e565b975060608b0135965060808b013561ffff8116811461309f57600080fd5b955060a08b013567ffffffffffffffff808211156130bc57600080fd5b6130c88e838f01612f80565b909750955060c08d0135945060e08d01359150808211156130e857600080fd5b506130f58d828e01612f80565b915080935050809150509295989b9194979a5092959850565b60006020828403121561312057600080fd5b612b638261302e565b6000806040838503121561313c57600080fd5b8235915061314c6020840161302e565b90509250929050565b6000806040838503121561316857600080fd5b6131718361302e565b915061314c6020840161302e565b634e487b7160e01b600052604160045260246000fd5b600080604083850312156131a857600080fd5b6131b18361302e565b9150602083013567ffffffffffffffff808211156131ce57600080fd5b818501915085601f8301126131e257600080fd5b8135818111156131f4576131f461317f565b604051601f8201601f19908116603f0116810190838211818310171561321c5761321c61317f565b8160405282815288602084870101111561323557600080fd5b8260208601602083013760006020848301015280955050505050509250929050565b8015158114610f5e57600080fd5b60008060006060848603121561327a57600080fd5b6132838461302e565b9250602084013561329381613257565b929592945050506040919091013590565b6000806000606084860312156132b957600080fd5b505081359360208301359350604090920135919050565b634e487b7160e01b600052602160045260246000fd5b600281106132f6576132f66132d0565b9052565b60005b838110156133155781810151838201526020016132fd565b50506000910152565b600081518084526133368160208601602086016132fa565b601f01601f19169290920160200192915050565b6020815261335c6020820183516132e6565b6020820151604082015260018060a01b0360408301511660608201526060820151608082015261ffff60808301511660a0820152600060a083015160e060c08401526133ac61010084018261331e565b905060c084015160e08401528091505092915050565b600481106132f6576132f66132d0565b6133dc81886133c2565b85602082015284604082015260c0606082015260006133fe60c083018661331e565b60808301949094525060a00152949350505050565b61341d81896132e6565b86602082015260018060a01b038616604082015284606082015261ffff8416608082015260e060a0820152600061345760e083018561331e565b90508260c083015298975050505050505050565b600080600080600080600060c0888a03121561348657600080fd5b873596506020880135955061349d6040890161302e565b945060608801359350608088013567ffffffffffffffff8111156134c057600080fd5b6134cc8a828b01612f80565b989b979a5095989497959660a090950135949350505050565b600080600080600080608087890312156134fe57600080fd5b8635955060208701359450604087013567ffffffffffffffff8082111561352457600080fd5b6135308a838b01612f80565b9096509450606089013591508082111561354957600080fd5b5061355689828a01612f80565b979a9699509497509295939492505050565b6020815261357a6020820183516133c2565b60208201516040820152604082015160608201526000606083015160c060808401526135a960e084018261331e565b9050608084015160a084015260a084015160c08401528091505092915050565b6000602082840312156135db57600080fd5b8151612b6381613257565b6020808252601590820152744e6f74206f776e6572206f722064656c656761746560581b604082015260600190565b6020808252600b908201526a125b9d985b1a590818da5960aa1b604082015260600190565b600181811c9082168061364e57607f821691505b60208210810361366e57634e487b7160e01b600052602260045260246000fd5b50919050565b601f821115610def57600081815260208120601f850160051c8101602086101561369b5750805b601f850160051c820191505b81811015612832578281556001016136a7565b67ffffffffffffffff8311156136d2576136d261317f565b6136e6836136e0835461363a565b83613674565b6000601f84116001811461371a57600085156137025750838201355b600019600387901b1c1916600186901b178355613774565b600083815260209020601f19861690835b8281101561374b578685013582556020948501946001909201910161372b565b50868210156137685760001960f88860031b161c19848701351681555b505060018560011b0183555b5050505050565b81835281816020850137506000828201602090810191909152601f909101601f19169091010190565b6020815260006137b860208301848661377b565b949350505050565b815167ffffffffffffffff8111156137da576137da61317f565b6137ee816137e8845461363a565b84613674565b602080601f831160018114613823576000841561380b5750858301515b600019600386901b1c1916600185901b178555612832565b600085815260208120601f198616915b8281101561385257888601518255948401946001909101908401613833565b50858210156138705787850151600019600388901b60f8161c191681555b5050505050600190811b01905550565b60006101008b83528a60208401528060408401526138a18184018a8c61377b565b9150506138b160608301886132e6565b6001600160a01b0395909516608082015260a081019390935261ffff9190911660c083015260e09091015295945050505050565b6020808252602c908201527f46756e6374696f6e206d7573742062652063616c6c6564207468726f7567682060408201526b19195b1959d85d1958d85b1b60a21b606082015260800190565b6020808252602c908201527f46756e6374696f6e206d7573742062652063616c6c6564207468726f7567682060408201526b6163746976652070726f787960a01b606082015260800190565b87815286602082015260c06040820152600061399d60c08301878961377b565b6001600160a01b0395909516606083015250608081019290925260a090910152949350505050565b634e487b7160e01b600052601160045260246000fd5b6000600182016139ed576139ed6139c5565b5060010190565b858152846020820152836040820152608060608201526000613a1a60808301848661377b565b979650505050505050565b600060208284031215613a3757600080fd5b5051919050565b6d18dc99585d19541c9bdc1bdcd85b60921b815284600e820152603b60f81b602e82015283602f8201528183604f83013760009101604f019081529392505050565b6020808252602b908201527f496e697469616c697a61626c653a20636f6e7472616374206973206e6f74206960408201526a6e697469616c697a696e6760a81b606082015260800190565b6c6372656174655365727669636560981b815284600d820152603b60f81b602d82015283602e8201528183604e83013760009101604e019081529392505050565b7f416363657373436f6e74726f6c3a206163636f756e7420000000000000000000815260008351613b448160178501602088016132fa565b7001034b99036b4b9b9b4b733903937b6329607d1b6017918401918201528351613b758160288401602088016132fa565b01602801949350505050565b602081526000612b63602083018461331e565b808202811582820484141761075b5761075b6139c5565b8082018082111561075b5761075b6139c5565b634e487b7160e01b600052603260045260246000fd5b600081613be357613be36139c5565b506000190190565b60008251613bfd8184602087016132fa565b919091019291505056fe360894a13ba1a3210667c828492db98dca3e2076cc3735a920a3ca505d382bbc416464726573733a206c6f772d6c6576656c2064656c65676174652063616c6c206661696c6564a26469706673582212209a768ba1e022611efd86b6a2f2813a65552dc362ad91b5e64a36a678c37430a764736f6c63430008110033",
  "linkReferences": {},
  "deployedLinkReferences": {}
}