{
  "_format": "hh-sol-artifact-1",
  "contractName": "TalentLayerReview",
  "sourceName": "contracts/TalentLayerReview.sol",
  "abi": [
    {
      "inputs": [],
      "stateMutability": "nonpayable",
      "type": "constructor"
    },
    {
      "inputs": [],
      "name": "ReviewAlreadyMinted",
      "type": "error"
    },
    {
      "anonymous": false,
      "inputs": [
        {
          "indexed": false,
          "internalType": "address",
          "name": "previousAdmin",
          "type": "address"
        },
        {
          "indexed": false,
          "internalType": "address",
          "name": "newAdmin",
          "type": "address"
        }
      ],
      "name": "AdminChanged",
      "type": "event"
    },
    {
      "anonymous": false,
      "inputs": [
        {
          "indexed": true,
          "internalType": "address",
          "name": "owner",
          "type": "address"
        },
        {
          "indexed": true,
          "internalType": "address",
          "name": "approved",
          "type": "address"
        },
        {
          "indexed": true,
          "internalType": "uint256",
          "name": "tokenId",
          "type": "uint256"
        }
      ],
      "name": "Approval",
      "type": "event"
    },
    {
      "anonymous": false,
      "inputs": [
        {
          "indexed": true,
          "internalType": "address",
          "name": "owner",
          "type": "address"
        },
        {
          "indexed": true,
          "internalType": "address",
          "name": "operator",
          "type": "address"
        },
        {
          "indexed": false,
          "internalType": "bool",
          "name": "approved",
          "type": "bool"
        }
      ],
      "name": "ApprovalForAll",
      "type": "event"
    },
    {
      "anonymous": false,
      "inputs": [
        {
          "indexed": true,
          "internalType": "address",
          "name": "beacon",
          "type": "address"
        }
      ],
      "name": "BeaconUpgraded",
      "type": "event"
    },
    {
      "anonymous": false,
      "inputs": [
        {
          "indexed": false,
          "internalType": "uint8",
          "name": "version",
          "type": "uint8"
        }
      ],
      "name": "Initialized",
      "type": "event"
    },
    {
      "anonymous": false,
      "inputs": [
        {
          "indexed": true,
          "internalType": "uint256",
          "name": "_serviceId",
          "type": "uint256"
        },
        {
          "indexed": true,
          "internalType": "uint256",
          "name": "_toId",
          "type": "uint256"
        },
        {
          "indexed": true,
          "internalType": "uint256",
          "name": "_tokenId",
          "type": "uint256"
        },
        {
          "indexed": false,
          "internalType": "uint256",
          "name": "_rating",
          "type": "uint256"
        },
        {
          "indexed": false,
          "internalType": "string",
          "name": "_reviewUri",
          "type": "string"
        },
        {
          "indexed": false,
          "internalType": "uint256",
          "name": "_platformId",
          "type": "uint256"
        }
      ],
      "name": "Mint",
      "type": "event"
    },
    {
      "anonymous": false,
      "inputs": [
        {
          "indexed": true,
          "internalType": "address",
          "name": "previousOwner",
          "type": "address"
        },
        {
          "indexed": true,
          "internalType": "address",
          "name": "newOwner",
          "type": "address"
        }
      ],
      "name": "OwnershipTransferred",
      "type": "event"
    },
    {
      "anonymous": false,
      "inputs": [
        {
          "indexed": true,
          "internalType": "address",
          "name": "from",
          "type": "address"
        },
        {
          "indexed": true,
          "internalType": "address",
          "name": "to",
          "type": "address"
        },
        {
          "indexed": true,
          "internalType": "uint256",
          "name": "tokenId",
          "type": "uint256"
        }
      ],
      "name": "Transfer",
      "type": "event"
    },
    {
      "anonymous": false,
      "inputs": [
        {
          "indexed": false,
          "internalType": "address",
          "name": "forwarder",
          "type": "address"
        }
      ],
      "name": "TrustedForwarderAdded",
      "type": "event"
    },
    {
      "anonymous": false,
      "inputs": [
        {
          "indexed": false,
          "internalType": "address",
          "name": "forwarder",
          "type": "address"
        }
      ],
      "name": "TrustedForwarderRemoved",
      "type": "event"
    },
    {
      "anonymous": false,
      "inputs": [
        {
          "indexed": true,
          "internalType": "address",
          "name": "implementation",
          "type": "address"
        }
      ],
      "name": "Upgraded",
      "type": "event"
    },
    {
      "inputs": [],
      "name": "_totalSupply",
      "outputs": [
        {
          "internalType": "uint256",
          "name": "",
          "type": "uint256"
        }
      ],
      "stateMutability": "view",
      "type": "function"
    },
    {
      "inputs": [
        {
          "internalType": "uint256",
          "name": "_tokenId",
          "type": "uint256"
        },
        {
          "internalType": "uint256",
          "name": "_serviceId",
          "type": "uint256"
        },
        {
          "internalType": "string",
          "name": "_reviewUri",
          "type": "string"
        },
        {
          "internalType": "uint256",
          "name": "_rating",
          "type": "uint256"
        },
        {
          "internalType": "uint256",
          "name": "_platformId",
          "type": "uint256"
        }
      ],
      "name": "addReview",
      "outputs": [],
      "stateMutability": "nonpayable",
      "type": "function"
    },
    {
      "inputs": [
        {
          "internalType": "address",
          "name": "_forwarder",
          "type": "address"
        }
      ],
      "name": "addTrustedForwarder",
      "outputs": [],
      "stateMutability": "nonpayable",
      "type": "function"
    },
    {
      "inputs": [
        {
          "internalType": "address",
          "name": "to",
          "type": "address"
        },
        {
          "internalType": "uint256",
          "name": "tokenId",
          "type": "uint256"
        }
      ],
      "name": "approve",
      "outputs": [],
      "stateMutability": "nonpayable",
      "type": "function"
    },
    {
      "inputs": [
        {
          "internalType": "address",
          "name": "owner",
          "type": "address"
        }
      ],
      "name": "balanceOf",
      "outputs": [
        {
          "internalType": "uint256",
          "name": "",
          "type": "uint256"
        }
      ],
      "stateMutability": "view",
      "type": "function"
    },
    {
      "inputs": [
        {
          "internalType": "uint256",
          "name": "_tokenId",
          "type": "uint256"
        }
      ],
      "name": "getApproved",
      "outputs": [
        {
          "internalType": "address",
          "name": "",
          "type": "address"
        }
      ],
      "stateMutability": "view",
      "type": "function"
    },
    {
      "inputs": [
        {
          "internalType": "uint256",
          "name": "_reviewId",
          "type": "uint256"
        }
      ],
      "name": "getReview",
      "outputs": [
        {
          "components": [
            {
              "internalType": "uint256",
              "name": "id",
              "type": "uint256"
            },
            {
              "internalType": "uint256",
              "name": "owner",
              "type": "uint256"
            },
            {
              "internalType": "string",
              "name": "dataUri",
              "type": "string"
            },
            {
              "internalType": "uint256",
              "name": "platformId",
              "type": "uint256"
            }
          ],
          "internalType": "struct TalentLayerReview.Review",
          "name": "",
          "type": "tuple"
        }
      ],
      "stateMutability": "view",
      "type": "function"
    },
    {
      "inputs": [
        {
          "internalType": "string",
          "name": "name_",
          "type": "string"
        },
        {
          "internalType": "string",
          "name": "symbol_",
          "type": "string"
        },
        {
          "internalType": "address",
          "name": "_talentLayerIdAddress",
          "type": "address"
        },
        {
          "internalType": "address",
          "name": "_serviceRegistryAddress",
          "type": "address"
        },
        {
          "internalType": "address",
          "name": "_talentLayerPlatformIdAddress",
          "type": "address"
        }
      ],
      "name": "initialize",
      "outputs": [],
      "stateMutability": "nonpayable",
      "type": "function"
    },
    {
      "inputs": [
        {
          "internalType": "address",
          "name": "owner",
          "type": "address"
        },
        {
          "internalType": "address",
          "name": "operator",
          "type": "address"
        }
      ],
      "name": "isApprovedForAll",
      "outputs": [
        {
          "internalType": "bool",
          "name": "",
          "type": "bool"
        }
      ],
      "stateMutability": "view",
      "type": "function"
    },
    {
      "inputs": [
        {
          "internalType": "address",
          "name": "forwarder",
          "type": "address"
        }
      ],
      "name": "isTrustedForwarder",
      "outputs": [
        {
          "internalType": "bool",
          "name": "",
          "type": "bool"
        }
      ],
      "stateMutability": "view",
      "type": "function"
    },
    {
      "inputs": [],
      "name": "name",
      "outputs": [
        {
          "internalType": "string",
          "name": "",
          "type": "string"
        }
      ],
      "stateMutability": "view",
      "type": "function"
    },
    {
      "inputs": [
        {
          "internalType": "uint256",
          "name": "",
          "type": "uint256"
        }
      ],
      "name": "nftMintedByServiceAndBuyerId",
      "outputs": [
        {
          "internalType": "uint256",
          "name": "",
          "type": "uint256"
        }
      ],
      "stateMutability": "view",
      "type": "function"
    },
    {
      "inputs": [
        {
          "internalType": "uint256",
          "name": "",
          "type": "uint256"
        }
      ],
      "name": "nftMintedByServiceAndSellerId",
      "outputs": [
        {
          "internalType": "uint256",
          "name": "",
          "type": "uint256"
        }
      ],
      "stateMutability": "view",
      "type": "function"
    },
    {
      "inputs": [],
      "name": "owner",
      "outputs": [
        {
          "internalType": "address",
          "name": "",
          "type": "address"
        }
      ],
      "stateMutability": "view",
      "type": "function"
    },
    {
      "inputs": [
        {
          "internalType": "uint256",
          "name": "tokenId",
          "type": "uint256"
        }
      ],
      "name": "ownerOf",
      "outputs": [
        {
          "internalType": "address",
          "name": "",
          "type": "address"
        }
      ],
      "stateMutability": "view",
      "type": "function"
    },
    {
      "inputs": [],
      "name": "proxiableUUID",
      "outputs": [
        {
          "internalType": "bytes32",
          "name": "",
          "type": "bytes32"
        }
      ],
      "stateMutability": "view",
      "type": "function"
    },
    {
      "inputs": [
        {
          "internalType": "address",
          "name": "_forwarder",
          "type": "address"
        }
      ],
      "name": "removeTrustedForwarder",
      "outputs": [],
      "stateMutability": "nonpayable",
      "type": "function"
    },
    {
      "inputs": [],
      "name": "renounceOwnership",
      "outputs": [],
      "stateMutability": "nonpayable",
      "type": "function"
    },
    {
      "inputs": [
        {
          "internalType": "uint256",
          "name": "",
          "type": "uint256"
        }
      ],
      "name": "reviews",
      "outputs": [
        {
          "internalType": "uint256",
          "name": "id",
          "type": "uint256"
        },
        {
          "internalType": "uint256",
          "name": "owner",
          "type": "uint256"
        },
        {
          "internalType": "string",
          "name": "dataUri",
          "type": "string"
        },
        {
          "internalType": "uint256",
          "name": "platformId",
          "type": "uint256"
        }
      ],
      "stateMutability": "view",
      "type": "function"
    },
    {
      "inputs": [
        {
          "internalType": "address",
          "name": "from",
          "type": "address"
        },
        {
          "internalType": "address",
          "name": "to",
          "type": "address"
        },
        {
          "internalType": "uint256",
          "name": "tokenId",
          "type": "uint256"
        }
      ],
      "name": "safeTransferFrom",
      "outputs": [],
      "stateMutability": "nonpayable",
      "type": "function"
    },
    {
      "inputs": [
        {
          "internalType": "address",
          "name": "from",
          "type": "address"
        },
        {
          "internalType": "address",
          "name": "to",
          "type": "address"
        },
        {
          "internalType": "uint256",
          "name": "tokenId",
          "type": "uint256"
        },
        {
          "internalType": "bytes",
          "name": "data",
          "type": "bytes"
        }
      ],
      "name": "safeTransferFrom",
      "outputs": [],
      "stateMutability": "nonpayable",
      "type": "function"
    },
    {
      "inputs": [
        {
          "internalType": "address",
          "name": "operator",
          "type": "address"
        },
        {
          "internalType": "bool",
          "name": "approved",
          "type": "bool"
        }
      ],
      "name": "setApprovalForAll",
      "outputs": [],
      "stateMutability": "nonpayable",
      "type": "function"
    },
    {
      "inputs": [
        {
          "internalType": "bytes4",
          "name": "interfaceId",
          "type": "bytes4"
        }
      ],
      "name": "supportsInterface",
      "outputs": [
        {
          "internalType": "bool",
          "name": "",
          "type": "bool"
        }
      ],
      "stateMutability": "view",
      "type": "function"
    },
    {
      "inputs": [],
      "name": "symbol",
      "outputs": [
        {
          "internalType": "string",
          "name": "",
          "type": "string"
        }
      ],
      "stateMutability": "view",
      "type": "function"
    },
    {
      "inputs": [],
      "name": "talentLayerPlatformIdContract",
      "outputs": [
        {
          "internalType": "contract ITalentLayerPlatformID",
          "name": "",
          "type": "address"
        }
      ],
      "stateMutability": "view",
      "type": "function"
    },
    {
      "inputs": [
        {
          "internalType": "uint256",
          "name": "tokenId",
          "type": "uint256"
        }
      ],
      "name": "tokenURI",
      "outputs": [
        {
          "internalType": "string",
          "name": "",
          "type": "string"
        }
      ],
      "stateMutability": "view",
      "type": "function"
    },
    {
      "inputs": [
        {
          "internalType": "address",
          "name": "from",
          "type": "address"
        },
        {
          "internalType": "address",
          "name": "to",
          "type": "address"
        },
        {
          "internalType": "uint256",
          "name": "tokenId",
          "type": "uint256"
        }
      ],
      "name": "transferFrom",
      "outputs": [],
      "stateMutability": "nonpayable",
      "type": "function"
    },
    {
      "inputs": [
        {
          "internalType": "address",
          "name": "newOwner",
          "type": "address"
        }
      ],
      "name": "transferOwnership",
      "outputs": [],
      "stateMutability": "nonpayable",
      "type": "function"
    },
    {
      "inputs": [
        {
          "internalType": "address",
          "name": "newImplementation",
          "type": "address"
        }
      ],
      "name": "upgradeTo",
      "outputs": [],
      "stateMutability": "nonpayable",
      "type": "function"
    },
    {
      "inputs": [
        {
          "internalType": "address",
          "name": "newImplementation",
          "type": "address"
        },
        {
          "internalType": "bytes",
          "name": "data",
          "type": "bytes"
        }
      ],
      "name": "upgradeToAndCall",
      "outputs": [],
      "stateMutability": "payable",
      "type": "function"
    }
  ],
  "bytecode": "0x60a0604052306080523480156200001557600080fd5b506200002062000026565b620000e8565b600054610100900460ff1615620000935760405162461bcd60e51b815260206004820152602760248201527f496e697469616c697a61626c653a20636f6e747261637420697320696e697469604482015266616c697a696e6760c81b606482015260840160405180910390fd5b60005460ff9081161015620000e6576000805460ff191660ff9081179091556040519081527f7f26b83ff96e1f2b6a682f133852f6798a09c465da95921460cefb38474024989060200160405180910390a15b565b608051612c0f62000120600039600081816109120152818161095201528181610a6501528181610aa50152610b380152612c0f6000f3fe6080604052600436106101cd5760003560e01c806359777524116100f7578063a22cb46511610095578063e087f7d211610064578063e087f7d21461054c578063e83ddcea1461057a578063e985e9c5146105aa578063f2fde38b146105ca57600080fd5b8063a22cb465146104cc578063b88d4fde146104ec578063c87b56dd1461050c578063db0ed6a01461052c57600080fd5b8063715018a6116100d1578063715018a6146104575780638da5cb5b1461046c57806395d89b411461048a578063990581b61461049f57600080fd5b806359777524146103f75780636352211e1461041757806370a082311461043757600080fd5b80633659cfe61161016f57806342842e0e1161013e57806342842e0e146103765780634f1ef2861461039657806352d1902d146103a9578063572b6c05146103be57600080fd5b80633659cfe6146102e45780633751d89c146103045780633c7b2760146103245780633eaaf86b1461036057600080fd5b8063095ea7b3116101ab578063095ea7b3146102615780631499f9e61461028357806323b872dd146102a457806326d00668146102c457600080fd5b806301ffc9a7146101d257806306fdde0314610207578063081812fc14610229575b600080fd5b3480156101de57600080fd5b506101f26101ed3660046120f4565b6105ea565b60405190151581526020015b60405180910390f35b34801561021357600080fd5b5061021c61063c565b6040516101fe9190612161565b34801561023557600080fd5b50610249610244366004612174565b6106ce565b6040516001600160a01b0390911681526020016101fe565b34801561026d57600080fd5b5061028161027c3660046121a2565b61072b565b005b34801561028f57600080fd5b5061010754610249906001600160a01b031681565b3480156102b057600080fd5b506102816102bf3660046121ce565b610873565b3480156102d057600080fd5b506102816102df36600461220f565b6108a5565b3480156102f057600080fd5b506102816102ff36600461220f565b610908565b34801561031057600080fd5b5061028161031f36600461220f565b6109e7565b34801561033057600080fd5b5061035261033f366004612174565b6101026020526000908152604090205481565b6040519081526020016101fe565b34801561036c57600080fd5b5061035260fe5481565b34801561038257600080fd5b506102816103913660046121ce565b610a40565b6102816103a436600461231b565b610a5b565b3480156103b557600080fd5b50610352610b2b565b3480156103ca57600080fd5b506101f26103d936600461220f565b6001600160a01b031660009081526065602052604090205460ff1690565b34801561040357600080fd5b5061028161041236600461236b565b610bde565b34801561042357600080fd5b50610249610432366004612174565b610f0c565b34801561044357600080fd5b5061035261045236600461220f565b610fb6565b34801561046357600080fd5b506102816110b4565b34801561047857600080fd5b506033546001600160a01b0316610249565b34801561049657600080fd5b5061021c6110c8565b3480156104ab57600080fd5b506104bf6104ba366004612174565b6110d7565b6040516101fe91906123fd565b3480156104d857600080fd5b506102816104e7366004612451565b6111d7565b3480156104f857600080fd5b5061028161050736600461248a565b6111e9565b34801561051857600080fd5b5061021c610527366004612174565b611222565b34801561053857600080fd5b506102816105473660046124f6565b6112a2565b34801561055857600080fd5b50610352610567366004612174565b6101016020526000908152604090205481565b34801561058657600080fd5b5061059a610595366004612174565b61141f565b6040516101fe9493929190612594565b3480156105b657600080fd5b506101f26105c53660046125c4565b6114d0565b3480156105d657600080fd5b506102816105e536600461220f565b6114ff565b60006001600160e01b031982166380ac58cd60e01b148061061b57506001600160e01b03198216635b5e139f60e01b145b8061063657506301ffc9a760e01b6001600160e01b03198316145b92915050565b606060fc805461064b906125f2565b80601f0160208091040260200160405190810160405280929190818152602001828054610677906125f2565b80156106c45780601f10610699576101008083540402835291602001916106c4565b820191906000526020600020905b8154815290600101906020018083116106a757829003601f168201915b5050505050905090565b600081815261010360205260409020546001600160a01b03168161070081600090815260ff6020526040902054151590565b6107255760405162461bcd60e51b815260040161071c90612626565b60405180910390fd5b50919050565b600061073682610f0c565b9050806001600160a01b0316836001600160a01b0316036107ae5760405162461bcd60e51b815260206004820152602c60248201527f54616c656e744c617965725265766965773a20617070726f76616c20746f206360448201526b3ab93932b73a1037bbb732b960a11b606482015260840161071c565b60006107b8611575565b9050816001600160a01b0316816001600160a01b031614806107df57506107df82826114d0565b6108635760405162461bcd60e51b815260206004820152604960248201527f54616c656e744c617965725265766965773a20617070726f76652063616c6c6560448201527f72206973206e6f7420746f6b656e206f776e6572206e6f7220617070726f76656064820152681908199bdc88185b1b60ba1b608482015260a40161071c565b61086d84846115ae565b50505050565b61088461087e611575565b8261161d565b6108a05760405162461bcd60e51b815260040161071c90612669565b505050565b6108ad61167c565b6001600160a01b038116600081815260656020908152604091829020805460ff1916600117905590519182527f3ef8564460ada92419608d823c014975d98f8104d7d1e68c222967ac6814cd9791015b60405180910390a150565b6001600160a01b037f00000000000000000000000000000000000000000000000000000000000000001630036109505760405162461bcd60e51b815260040161071c906126c6565b7f00000000000000000000000000000000000000000000000000000000000000006001600160a01b0316610999600080516020612b93833981519152546001600160a01b031690565b6001600160a01b0316146109bf5760405162461bcd60e51b815260040161071c90612712565b6109c8816116f5565b604080516000808252602082019092526109e4918391906116fd565b50565b6109ef61167c565b6001600160a01b038116600081815260656020908152604091829020805460ff1916905590519182527fd2d636efcad0cea42e170256f4c5d8b1cd81e47b855557edaf44014e6cc4cee691016108fd565b6108a0838383604051806020016040528060008152506111e9565b6001600160a01b037f0000000000000000000000000000000000000000000000000000000000000000163003610aa35760405162461bcd60e51b815260040161071c906126c6565b7f00000000000000000000000000000000000000000000000000000000000000006001600160a01b0316610aec600080516020612b93833981519152546001600160a01b031690565b6001600160a01b031614610b125760405162461bcd60e51b815260040161071c90612712565b610b1b826116f5565b610b27828260016116fd565b5050565b6000306001600160a01b037f00000000000000000000000000000000000000000000000000000000000000001614610bcb5760405162461bcd60e51b815260206004820152603860248201527f555550535570677261646561626c653a206d757374206e6f742062652063616c60448201527f6c6564207468726f7567682064656c656761746563616c6c0000000000000000606482015260840161071c565b50600080516020612b9383398151915290565b6101055486906001600160a01b0316632fa117e582610bfb611575565b6040516001600160e01b031960e085901b16815260048101929092526001600160a01b03166024820152604401602060405180830381865afa158015610c45573d6000803e3d6000fd5b505050506040513d601f19601f82011682018060405250810190610c69919061275e565b610cad5760405162461bcd60e51b81526020600482015260156024820152744e6f74206f776e6572206f722064656c656761746560581b604482015260640161071c565b6101065460405163ef0e239b60e01b8152600481018890526000916001600160a01b03169063ef0e239b90602401600060405180830381865afa158015610cf8573d6000803e3d6000fd5b505050506040513d6000823e601f3d908101601f19168201604052610d2091908101906127d4565b90508060200151881480610d375750806040015188145b610d8f5760405162461bcd60e51b815260206004820152602360248201527f596f75277265206e6f7420616e206163746f72206f662074686973207365727660448201526269636560e81b606482015260840161071c565b600281516004811115610da457610da4612892565b14610df15760405162461bcd60e51b815260206004820152601f60248201527f5468652073657276696365206973206e6f742066696e69736865642079657400604482015260640161071c565b6101075460405162f577a560e81b8152600481018590526001600160a01b039091169063f577a5009060240160006040518083038186803b158015610e3557600080fd5b505afa158015610e49573d6000803e3d6000fd5b50505050600081602001518903610ea8575060408082015160008981526101016020529190912054899003610e9157604051633d36d72960e01b815260040160405180910390fd5b600088815261010160205260409020899055610ef3565b506020808201516000898152610102909252604090912054899003610ee057604051633d36d72960e01b815260040160405180910390fd5b6000888152610102602052604090208990555b610f018882878a8a89611868565b505050505050505050565b61010554600082815260ff60205260408082205490516331a9108f60e11b81526004810191909152909182916001600160a01b0390911690636352211e90602401602060405180830381865afa158015610f6a573d6000803e3d6000fd5b505050506040513d601f19601f82011682018060405250810190610f8e91906128a8565b90506001600160a01b0381166106365760405162461bcd60e51b815260040161071c90612626565b60006001600160a01b0382166110295760405162461bcd60e51b815260206004820152603260248201527f54616c656e744c617965725265766965773a20746f6b656e207a65726f206973604482015271103737ba1030903b30b634b21037bbb732b960711b606482015260840161071c565b61010554604051631847c06b60e01b81526001600160a01b03848116600483015261010092600092911690631847c06b90602401602060405180830381865afa15801561107a573d6000803e3d6000fd5b505050506040513d601f19601f8201168201806040525081019061109e91906128c5565b8152602001908152602001600020549050919050565b6110bc61167c565b6110c66000611a4a565b565b606060fd805461064b906125f2565b6111026040518060800160405280600081526020016000815260200160608152602001600081525090565b60ff60008381526020019081526020016000206040518060800160405290816000820154815260200160018201548152602001600282018054611144906125f2565b80601f0160208091040260200160405190810160405280929190818152602001828054611170906125f2565b80156111bd5780601f10611192576101008083540402835291602001916111bd565b820191906000526020600020905b8154815290600101906020018083116111a057829003601f168201915b505050505081526020016003820154815250509050919050565b610b276111e2611575565b8383611a9c565b6111fa6111f4611575565b8361161d565b6112165760405162461bcd60e51b815260040161071c90612669565b61086d84848484611b77565b606081600061123c60408051602081019091526000815290565b9050600081511161125c5760405180602001604052806000815250611287565b8061126685611b9f565b6040516020016112779291906128de565b6040516020818303038152906040525b92505061070081600090815260ff6020526040902054151590565b600054610100900460ff16158080156112c25750600054600160ff909116105b806112dc5750303b1580156112dc575060005460ff166001145b61133f5760405162461bcd60e51b815260206004820152602e60248201527f496e697469616c697a61626c653a20636f6e747261637420697320616c72656160448201526d191e481a5b9a5d1a585b1a5e995960921b606482015260840161071c565b6000805460ff191660011790558015611362576000805461ff0019166101001790555b61136a611c32565b611372611c59565b600060fe5560fc6113838782612953565b5060fd6113908682612953565b5061010580546001600160a01b038087166001600160a01b03199283161790925561010680548684169083161790556101078054928516929091169190911790558015611417576000805461ff0019169055604051600181527f7f26b83ff96e1f2b6a682f133852f6798a09c465da95921460cefb38474024989060200160405180910390a15b505050505050565b60ff6020526000908152604090208054600182015460028301805492939192611447906125f2565b80601f0160208091040260200160405190810160405280929190818152602001828054611473906125f2565b80156114c05780601f10611495576101008083540402835291602001916114c0565b820191906000526020600020905b8154815290600101906020018083116114a357829003601f168201915b5050505050908060030154905084565b6001600160a01b0391821660009081526101046020908152604080832093909416825291909152205460ff1690565b61150761167c565b6001600160a01b03811661156c5760405162461bcd60e51b815260206004820152602660248201527f4f776e61626c653a206e6577206f776e657220697320746865207a65726f206160448201526564647265737360d01b606482015260840161071c565b6109e481611a4a565b60006014361080159061159757503360009081526065602052604090205460ff165b156115a9575060131936013560601c90565b503390565b60008181526101036020526040902080546001600160a01b0319166001600160a01b03841690811790915581906115e482610f0c565b6001600160a01b03167f8c5be1e5ebec7d5bd14f71427d1e84f3dd0314c0f7b2291e5b200ac8c7c3b92560405160405180910390a45050565b60008061162983610f0c565b9050806001600160a01b0316846001600160a01b03161480611650575061165081856114d0565b806116745750836001600160a01b0316611669846106ce565b6001600160a01b0316145b949350505050565b611684611575565b6001600160a01b031661169f6033546001600160a01b031690565b6001600160a01b0316146110c65760405162461bcd60e51b815260206004820181905260248201527f4f776e61626c653a2063616c6c6572206973206e6f7420746865206f776e6572604482015260640161071c565b6109e461167c565b7f4910fdfa16fed3260ed0e7147f7cc6da11a60208b5b9406d12a635614ffd91435460ff1615611730576108a083611c88565b826001600160a01b03166352d1902d6040518163ffffffff1660e01b8152600401602060405180830381865afa92505050801561178a575060408051601f3d908101601f19168201909252611787918101906128c5565b60015b6117ed5760405162461bcd60e51b815260206004820152602e60248201527f45524331393637557067726164653a206e657720696d706c656d656e7461746960448201526d6f6e206973206e6f74205555505360901b606482015260840161071c565b600080516020612b93833981519152811461185c5760405162461bcd60e51b815260206004820152602960248201527f45524331393637557067726164653a20756e737570706f727465642070726f786044820152681a58589b195555525160ba1b606482015260840161071c565b506108a0838383611d24565b846000036118cb5760405162461bcd60e51b815260206004820152602a60248201527f54616c656e744c617965725265766965773a206d696e7420746f20696e76616c6044820152696964206164647265737360b01b606482015260840161071c565b600584111580156118da575060015b6119305760405162461bcd60e51b815260206004820152602160248201527f54616c656e744c617965725265766965773a20696e76616c696420726174696e6044820152606760f81b606482015260840161071c565b600085815261010060205260408120805460019290611950908490612a13565b92505081905550604051806080016040528060fe54815260200186815260200184848080601f0160208091040260200160405190810160405280939291908181526020018383808284376000920182905250938552505050602091820184905260fe54815260ff82526040908190208351815591830151600183015582015160028201906119de9082612953565b506060919091015160039091015560fe546119fa906001612a13565b60fe8190555060fe5485877f1b4914b51c47432f333179cfae2f82cfeac795eb91cfac40a3e82e180748f2f587878787604051611a3a9493929190612a34565b60405180910390a4505050505050565b603380546001600160a01b038381166001600160a01b0319831681179093556040519116919082907f8be0079c531659141344cd1fd0a4f28419497f9722a3daafe3b4186f6b6457e090600090a35050565b816001600160a01b0316836001600160a01b031603611b095760405162461bcd60e51b8152602060048201526024808201527f54616c656e744c617965725265766965773a20617070726f766520746f206361604482015263363632b960e11b606482015260840161071c565b6001600160a01b0383811660008181526101046020908152604080832094871680845294825291829020805460ff191686151590811790915591519182527f17307eab39ab6107e8899845ad3d59bd9653f200f220920489ca2b5937696c31910160405180910390a3505050565b611b8384848484611d49565b61086d5760405162461bcd60e51b815260040161071c90612a74565b60606000611bac83611e51565b600101905060008167ffffffffffffffff811115611bcc57611bcc61222c565b6040519080825280601f01601f191660200182016040528015611bf6576020820181803683370190505b5090508181016020015b600019016f181899199a1a9b1b9c1cb0b131b232b360811b600a86061a8153600a8504945084611c0057509392505050565b600054610100900460ff166110c65760405162461bcd60e51b815260040161071c90612ad1565b600054610100900460ff16611c805760405162461bcd60e51b815260040161071c90612ad1565b6110c6611f29565b6001600160a01b0381163b611cf55760405162461bcd60e51b815260206004820152602d60248201527f455243313936373a206e657720696d706c656d656e746174696f6e206973206e60448201526c1bdd08184818dbdb9d1c9858dd609a1b606482015260840161071c565b600080516020612b9383398151915280546001600160a01b0319166001600160a01b0392909216919091179055565b611d2d83611f60565b600082511180611d3a5750805b156108a05761086d8383611fa0565b60006001600160a01b0384163b15611e4657836001600160a01b031663150b7a02611d72611575565b8786866040518563ffffffff1660e01b8152600401611d949493929190612b1c565b6020604051808303816000875af1925050508015611dcf575060408051601f3d908101601f19168201909252611dcc91810190612b59565b60015b611e2c573d808015611dfd576040519150601f19603f3d011682016040523d82523d6000602084013e611e02565b606091505b508051600003611e245760405162461bcd60e51b815260040161071c90612a74565b805181602001fd5b6001600160e01b031916630a85bd0160e11b149050611674565b506001949350505050565b60008072184f03e93ff9f4daa797ed6e38ed64bf6a1f0160401b8310611e905772184f03e93ff9f4daa797ed6e38ed64bf6a1f0160401b830492506040015b6d04ee2d6d415b85acef81000000008310611ebc576d04ee2d6d415b85acef8100000000830492506020015b662386f26fc100008310611eda57662386f26fc10000830492506010015b6305f5e1008310611ef2576305f5e100830492506008015b6127108310611f0657612710830492506004015b60648310611f18576064830492506002015b600a83106106365760010192915050565b600054610100900460ff16611f505760405162461bcd60e51b815260040161071c90612ad1565b6110c6611f5b611575565b611a4a565b611f6981611c88565b6040516001600160a01b038216907fbc7cd75a20ee27fd9adebab32041f755214dbc6bffa90cc0225b39da2e5c2d3b90600090a250565b60606001600160a01b0383163b6120085760405162461bcd60e51b815260206004820152602660248201527f416464726573733a2064656c65676174652063616c6c20746f206e6f6e2d636f6044820152651b9d1c9858dd60d21b606482015260840161071c565b600080846001600160a01b0316846040516120239190612b76565b600060405180830381855af49150503d806000811461205e576040519150601f19603f3d011682016040523d82523d6000602084013e612063565b606091505b509150915061208b8282604051806060016040528060278152602001612bb360279139612094565b95945050505050565b606083156120a35750816120ad565b6120ad83836120b4565b9392505050565b8151156120c45781518083602001fd5b8060405162461bcd60e51b815260040161071c9190612161565b6001600160e01b0319811681146109e457600080fd5b60006020828403121561210657600080fd5b81356120ad816120de565b60005b8381101561212c578181015183820152602001612114565b50506000910152565b6000815180845261214d816020860160208601612111565b601f01601f19169290920160200192915050565b6020815260006120ad6020830184612135565b60006020828403121561218657600080fd5b5035919050565b6001600160a01b03811681146109e457600080fd5b600080604083850312156121b557600080fd5b82356121c08161218d565b946020939093013593505050565b6000806000606084860312156121e357600080fd5b83356121ee8161218d565b925060208401356121fe8161218d565b929592945050506040919091013590565b60006020828403121561222157600080fd5b81356120ad8161218d565b634e487b7160e01b600052604160045260246000fd5b604051610100810167ffffffffffffffff811182821017156122665761226661222c565b60405290565b604051601f8201601f1916810167ffffffffffffffff811182821017156122955761229561222c565b604052919050565b600067ffffffffffffffff8211156122b7576122b761222c565b50601f01601f191660200190565b600082601f8301126122d657600080fd5b81356122e96122e48261229d565b61226c565b8181528460208386010111156122fe57600080fd5b816020850160208301376000918101602001919091529392505050565b6000806040838503121561232e57600080fd5b82356123398161218d565b9150602083013567ffffffffffffffff81111561235557600080fd5b612361858286016122c5565b9150509250929050565b60008060008060008060a0878903121561238457600080fd5b8635955060208701359450604087013567ffffffffffffffff808211156123aa57600080fd5b818901915089601f8301126123be57600080fd5b8135818111156123cd57600080fd5b8a60208285010111156123df57600080fd5b979a9699505060200196606081013595608090910135945092505050565b602081528151602082015260208201516040820152600060408301516080606084015261242d60a0840182612135565b9050606084015160808401528091505092915050565b80151581146109e457600080fd5b6000806040838503121561246457600080fd5b823561246f8161218d565b9150602083013561247f81612443565b809150509250929050565b600080600080608085870312156124a057600080fd5b84356124ab8161218d565b935060208501356124bb8161218d565b925060408501359150606085013567ffffffffffffffff8111156124de57600080fd5b6124ea878288016122c5565b91505092959194509250565b600080600080600060a0868803121561250e57600080fd5b853567ffffffffffffffff8082111561252657600080fd5b61253289838a016122c5565b9650602088013591508082111561254857600080fd5b50612555888289016122c5565b94505060408601356125668161218d565b925060608601356125768161218d565b915060808601356125868161218d565b809150509295509295909350565b8481528360208201526080604082015260006125b36080830185612135565b905082606083015295945050505050565b600080604083850312156125d757600080fd5b82356125e28161218d565b9150602083013561247f8161218d565b600181811c9082168061260657607f821691505b60208210810361072557634e487b7160e01b600052602260045260246000fd5b60208082526023908201527f54616c656e744c617965725265766965773a20696e76616c696420746f6b656e60408201526208125160ea1b606082015260800190565b60208082526039908201527f54616c656e744c617965725265766965773a2063616c6c6572206973206e6f7460408201527f20746f6b656e206f776e6572206e6f7220617070726f76656400000000000000606082015260800190565b6020808252602c908201527f46756e6374696f6e206d7573742062652063616c6c6564207468726f7567682060408201526b19195b1959d85d1958d85b1b60a21b606082015260800190565b6020808252602c908201527f46756e6374696f6e206d7573742062652063616c6c6564207468726f7567682060408201526b6163746976652070726f787960a01b606082015260800190565b60006020828403121561277057600080fd5b81516120ad81612443565b80516005811061278a57600080fd5b919050565b600082601f8301126127a057600080fd5b81516127ae6122e48261229d565b8181528460208386010111156127c357600080fd5b611674826020830160208701612111565b6000602082840312156127e657600080fd5b815167ffffffffffffffff808211156127fe57600080fd5b90830190610100828603121561281357600080fd5b61281b612242565b6128248361277b565b815260208301516020820152604083015160408201526060830151606082015260808301518281111561285657600080fd5b6128628782860161278f565b60808301525060a083015160a082015260c083015160c082015260e083015160e082015280935050505092915050565b634e487b7160e01b600052602160045260246000fd5b6000602082840312156128ba57600080fd5b81516120ad8161218d565b6000602082840312156128d757600080fd5b5051919050565b600083516128f0818460208801612111565b835190830190612904818360208801612111565b01949350505050565b601f8211156108a057600081815260208120601f850160051c810160208610156129345750805b601f850160051c820191505b8181101561141757828155600101612940565b815167ffffffffffffffff81111561296d5761296d61222c565b6129818161297b84546125f2565b8461290d565b602080601f8311600181146129b6576000841561299e5750858301515b600019600386901b1c1916600185901b178555611417565b600085815260208120601f198616915b828110156129e5578886015182559484019460019091019084016129c6565b5085821015612a035787850151600019600388901b60f8161c191681555b5050505050600190811b01905550565b8082018082111561063657634e487b7160e01b600052601160045260246000fd5b848152606060208201528260608201528284608083013760006080848301015260006080601f19601f860116830101905082604083015295945050505050565b6020808252603d908201527f54616c656e744c617965725265766965773a207472616e7366657220746f206e60408201527f6f6e20455243373231526563656976657220696d706c656d656e746572000000606082015260800190565b6020808252602b908201527f496e697469616c697a61626c653a20636f6e7472616374206973206e6f74206960408201526a6e697469616c697a696e6760a81b606082015260800190565b6001600160a01b0385811682528416602082015260408101839052608060608201819052600090612b4f90830184612135565b9695505050505050565b600060208284031215612b6b57600080fd5b81516120ad816120de565b60008251612b88818460208701612111565b919091019291505056fe360894a13ba1a3210667c828492db98dca3e2076cc3735a920a3ca505d382bbc416464726573733a206c6f772d6c6576656c2064656c65676174652063616c6c206661696c6564a26469706673582212205fffb57914ca808e6c5437948ea133364db45025ae36100778cd14f63c06994064736f6c63430008120033",
  "linkReferences": {},
  "deployedLinkReferences": {}
}