{
  "_format": "hh-sol-artifact-1",
  "contractName": "TalentLayerMultipleArbitrableTransaction",
  "sourceName": "contracts/kleros/TalentLayerMultipleArbitrableTransaction.sol",
  "abi": [
    {
      "inputs": [
        {
          "internalType": "address",
          "name": "_serviceRegistryAddress",
          "type": "address"
        },
        {
          "internalType": "address",
          "name": "_talentLayerIDAddress",
          "type": "address"
        },
        {
          "internalType": "address",
          "name": "_talentLayerPlatformIDAddress",
          "type": "address"
        },
        {
          "internalType": "contract Arbitrator",
          "name": "_arbitrator",
          "type": "address"
        },
        {
          "internalType": "bytes",
          "name": "_arbitratorExtraData",
          "type": "bytes"
        },
        {
          "internalType": "uint256",
          "name": "_feeTimeout",
          "type": "uint256"
        }
      ],
      "stateMutability": "nonpayable",
      "type": "constructor"
    },
    {
      "anonymous": false,
      "inputs": [
        {
          "indexed": false,
          "internalType": "uint256",
          "name": "_platformId",
          "type": "uint256"
        },
        {
          "indexed": true,
          "internalType": "address",
          "name": "_token",
          "type": "address"
        },
        {
          "indexed": false,
          "internalType": "uint256",
          "name": "_amount",
          "type": "uint256"
        }
      ],
      "name": "FeesClaimed",
      "type": "event"
    },
    {
      "anonymous": false,
      "inputs": [
        {
          "indexed": false,
          "internalType": "uint256",
          "name": "_platformId",
          "type": "uint256"
        },
        {
          "indexed": false,
          "internalType": "uint256",
          "name": "_serviceId",
          "type": "uint256"
        },
        {
          "indexed": true,
          "internalType": "address",
          "name": "_token",
          "type": "address"
        },
        {
          "indexed": false,
          "internalType": "uint256",
          "name": "_amount",
          "type": "uint256"
        }
      ],
      "name": "OriginPlatformFeeReleased",
      "type": "event"
    },
    {
      "anonymous": false,
      "inputs": [
        {
          "indexed": false,
          "internalType": "uint256",
          "name": "_originPlatformFee",
          "type": "uint256"
        }
      ],
      "name": "OriginPlatformFeeUpdated",
      "type": "event"
    },
    {
      "anonymous": false,
      "inputs": [
        {
          "indexed": true,
          "internalType": "address",
          "name": "previousOwner",
          "type": "address"
        },
        {
          "indexed": true,
          "internalType": "address",
          "name": "newOwner",
          "type": "address"
        }
      ],
      "name": "OwnershipTransferred",
      "type": "event"
    },
    {
      "anonymous": false,
      "inputs": [
        {
          "indexed": false,
          "internalType": "enum TalentLayerMultipleArbitrableTransaction.PaymentType",
          "name": "_paymentType",
          "type": "uint8"
        },
        {
          "indexed": false,
          "internalType": "uint256",
          "name": "_amount",
          "type": "uint256"
        },
        {
          "indexed": false,
          "internalType": "address",
          "name": "_token",
          "type": "address"
        },
        {
          "indexed": false,
          "internalType": "uint256",
          "name": "_serviceId",
          "type": "uint256"
        }
      ],
      "name": "Payment",
      "type": "event"
    },
    {
      "anonymous": false,
      "inputs": [
        {
          "indexed": false,
          "internalType": "uint256",
          "name": "_serviceId",
          "type": "uint256"
        }
      ],
      "name": "PaymentCompleted",
      "type": "event"
    },
    {
      "anonymous": false,
      "inputs": [
        {
          "indexed": false,
          "internalType": "uint256",
          "name": "_platformId",
          "type": "uint256"
        },
        {
          "indexed": false,
          "internalType": "uint256",
          "name": "_serviceId",
          "type": "uint256"
        },
        {
          "indexed": true,
          "internalType": "address",
          "name": "_token",
          "type": "address"
        },
        {
          "indexed": false,
          "internalType": "uint256",
          "name": "_amount",
          "type": "uint256"
        }
      ],
      "name": "PlatformFeeReleased",
      "type": "event"
    },
    {
      "anonymous": false,
      "inputs": [
        {
          "indexed": false,
          "internalType": "uint16",
          "name": "_protocolFee",
          "type": "uint16"
        }
      ],
      "name": "ProtocolFeeUpdated",
      "type": "event"
    },
    {
      "anonymous": false,
      "inputs": [
        {
          "indexed": false,
          "internalType": "uint256",
          "name": "serviceId",
          "type": "uint256"
        },
        {
          "indexed": false,
          "internalType": "uint256",
          "name": "sellerId",
          "type": "uint256"
        },
        {
          "indexed": false,
          "internalType": "uint256",
          "name": "transactionId",
          "type": "uint256"
        }
      ],
      "name": "ServiceProposalConfirmedWithDeposit",
      "type": "event"
    },
    {
      "inputs": [
        {
          "internalType": "uint256",
          "name": "_platformId",
          "type": "uint256"
        },
        {
          "internalType": "address",
          "name": "_tokenAddress",
          "type": "address"
        }
      ],
      "name": "claim",
      "outputs": [],
      "stateMutability": "nonpayable",
      "type": "function"
    },
    {
      "inputs": [
        {
          "internalType": "uint256",
          "name": "_platformId",
          "type": "uint256"
        }
      ],
      "name": "claimAll",
      "outputs": [],
      "stateMutability": "nonpayable",
      "type": "function"
    },
    {
      "inputs": [
        {
          "internalType": "uint256",
          "name": "_timeoutPayment",
          "type": "uint256"
        },
        {
          "internalType": "string",
          "name": "_metaEvidence",
          "type": "string"
        },
        {
          "internalType": "uint256",
          "name": "_serviceId",
          "type": "uint256"
        },
        {
          "internalType": "uint256",
          "name": "_proposalId",
          "type": "uint256"
        }
      ],
      "name": "createETHTransaction",
      "outputs": [],
      "stateMutability": "payable",
      "type": "function"
    },
    {
      "inputs": [
        {
          "internalType": "uint256",
          "name": "_timeoutPayment",
          "type": "uint256"
        },
        {
          "internalType": "string",
          "name": "_metaEvidence",
          "type": "string"
        },
        {
          "internalType": "uint256",
          "name": "_serviceId",
          "type": "uint256"
        },
        {
          "internalType": "uint256",
          "name": "_proposalId",
          "type": "uint256"
        }
      ],
      "name": "createTokenTransaction",
      "outputs": [],
      "stateMutability": "nonpayable",
      "type": "function"
    },
    {
      "inputs": [
        {
          "internalType": "address",
          "name": "_token",
          "type": "address"
        }
      ],
      "name": "getClaimableFeeBalance",
      "outputs": [
        {
          "internalType": "uint256",
          "name": "balance",
          "type": "uint256"
        }
      ],
      "stateMutability": "view",
      "type": "function"
    },
    {
      "inputs": [],
      "name": "getProtocolWallet",
      "outputs": [
        {
          "internalType": "address",
          "name": "",
          "type": "address"
        }
      ],
      "stateMutability": "view",
      "type": "function"
    },
    {
      "inputs": [
        {
          "internalType": "uint256",
          "name": "_transactionId",
          "type": "uint256"
        }
      ],
      "name": "getTransactionDetails",
      "outputs": [
        {
          "components": [
            {
              "internalType": "address",
              "name": "sender",
              "type": "address"
            },
            {
              "internalType": "address",
              "name": "receiver",
              "type": "address"
            },
            {
              "internalType": "address",
              "name": "token",
              "type": "address"
            },
            {
              "internalType": "uint256",
              "name": "amount",
              "type": "uint256"
            },
            {
              "internalType": "uint256",
              "name": "serviceId",
              "type": "uint256"
            },
            {
              "internalType": "uint16",
              "name": "protocolFee",
              "type": "uint16"
            },
            {
              "internalType": "uint16",
              "name": "originPlatformFee",
              "type": "uint16"
            },
            {
              "internalType": "uint16",
              "name": "platformFee",
              "type": "uint16"
            }
          ],
          "internalType": "struct TalentLayerMultipleArbitrableTransaction.Transaction",
          "name": "transaction",
          "type": "tuple"
        }
      ],
      "stateMutability": "view",
      "type": "function"
    },
    {
      "inputs": [],
      "name": "originPlatformFee",
      "outputs": [
        {
          "internalType": "uint16",
          "name": "",
          "type": "uint16"
        }
      ],
      "stateMutability": "view",
      "type": "function"
    },
    {
      "inputs": [],
      "name": "owner",
      "outputs": [
        {
          "internalType": "address",
          "name": "",
          "type": "address"
        }
      ],
      "stateMutability": "view",
      "type": "function"
    },
    {
      "inputs": [],
      "name": "protocolFee",
      "outputs": [
        {
          "internalType": "uint16",
          "name": "",
          "type": "uint16"
        }
      ],
      "stateMutability": "view",
      "type": "function"
    },
    {
      "inputs": [
        {
          "internalType": "uint256",
          "name": "_transactionId",
          "type": "uint256"
        },
        {
          "internalType": "uint256",
          "name": "_amount",
          "type": "uint256"
        }
      ],
      "name": "reimburse",
      "outputs": [],
      "stateMutability": "nonpayable",
      "type": "function"
    },
    {
      "inputs": [
        {
          "internalType": "uint256",
          "name": "_transactionId",
          "type": "uint256"
        },
        {
          "internalType": "uint256",
          "name": "_amount",
          "type": "uint256"
        }
      ],
      "name": "release",
      "outputs": [],
      "stateMutability": "nonpayable",
      "type": "function"
    },
    {
      "inputs": [],
      "name": "renounceOwnership",
      "outputs": [],
      "stateMutability": "nonpayable",
      "type": "function"
    },
    {
      "inputs": [
        {
          "internalType": "address",
          "name": "newOwner",
          "type": "address"
        }
      ],
      "name": "transferOwnership",
      "outputs": [],
      "stateMutability": "nonpayable",
      "type": "function"
    },
    {
      "inputs": [
        {
          "internalType": "uint16",
          "name": "_originPlatformFee",
          "type": "uint16"
        }
      ],
      "name": "updateOriginPlatformFee",
      "outputs": [],
      "stateMutability": "nonpayable",
      "type": "function"
    },
    {
      "inputs": [
        {
          "internalType": "uint16",
          "name": "_protocolFee",
          "type": "uint16"
        }
      ],
      "name": "updateProtocolFee",
      "outputs": [],
      "stateMutability": "nonpayable",
      "type": "function"
    },
    {
      "inputs": [
        {
          "internalType": "address payable",
          "name": "_protocolWallet",
          "type": "address"
        }
      ],
      "name": "updateProtocolWallet",
      "outputs": [],
      "stateMutability": "nonpayable",
      "type": "function"
    }
  ],
  "bytecode": "0x60806040523480156200001157600080fd5b50604051620029603803806200296083398101604081905262000034916200015a565b6200003f33620000db565b600380546001600160a01b03199081166001600160a01b038981169190911790925560048054909116878316179055600580549186166001600160b01b031990921691909117601960a21b1761ffff60b01b1916601960b31b179055620000ae6000546001600160a01b031690565b600680546001600160a01b0319166001600160a01b03929092169190911790555062000298945050505050565b600080546001600160a01b038381166001600160a01b0319831681178455604051919092169283917f8be0079c531659141344cd1fd0a4f28419497f9722a3daafe3b4186f6b6457e09190a35050565b6001600160a01b03811681146200014157600080fd5b50565b634e487b7160e01b600052604160045260246000fd5b60008060008060008060c087890312156200017457600080fd5b865162000181816200012b565b8096505060208088015162000196816200012b565b6040890151909650620001a9816200012b565b6060890151909550620001bc816200012b565b60808901519094506001600160401b0380821115620001da57600080fd5b818a0191508a601f830112620001ef57600080fd5b81518181111562000204576200020462000144565b604051601f8201601f19908116603f011681019083821181831017156200022f576200022f62000144565b816040528281528d868487010111156200024857600080fd5b600093505b828410156200026c57848401860151818501870152928501926200024d565b828411156200027e5760008684830101525b80975050505050505060a087015190509295509295509295565b6126b880620002a86000396000f3fe6080604052600436106100fe5760003560e01c8063715018a611610095578063b0e21e8a11610064578063b0e21e8a146102ab578063ddd5e1b2146102cd578063e308a099146102ed578063f2fde38b1461030d578063fe43a9921461032d57600080fd5b8063715018a614610245578063740bd56a1461025a578063885744461461027a5780638da5cb5b1461028d57600080fd5b8063366a4120116100d1578063366a4120146101b25780633a5b77fd146101d2578063574d6c71146102075780636930fd2a1461022757600080fd5b8063020624d2146101035780630a1a47d6146101255780630fa683d3146101585780631179643414610185575b600080fd5b34801561010f57600080fd5b5061012361011e36600461201b565b61034d565b005b34801561013157600080fd5b5061014561014036600461204d565b6103ac565b6040519081526020015b60405180910390f35b34801561016457600080fd5b5061017861017336600461206a565b610513565b60405161014f9190612083565b34801561019157600080fd5b5061019a6106a1565b6040516001600160a01b03909116815260200161014f565b3480156101be57600080fd5b506101236101cd366004612100565b6106bb565b3480156101de57600080fd5b506005546101f490600160b01b900461ffff1681565b60405161ffff909116815260200161014f565b34801561021357600080fd5b506101236102223660046121de565b610874565b34801561023357600080fd5b5061012361024236600461206a565b50565b34801561025157600080fd5b50610123610b2c565b34801561026657600080fd5b5061012361027536600461201b565b610b40565b6101236102883660046121de565b610b98565b34801561029957600080fd5b506000546001600160a01b031661019a565b3480156102b757600080fd5b506005546101f490600160a01b900461ffff1681565b3480156102d957600080fd5b506101236102e8366004612278565b610ef8565b3480156102f957600080fd5b5061012361030836600461204d565b6110a2565b34801561031957600080fd5b5061012361032836600461204d565b6110cc565b34801561033957600080fd5b50610123610348366004612100565b611142565b6103556112e0565b6005805461ffff60a01b1916600160a01b61ffff8416908102919091179091556040519081527f15189fb9f7333d3c2ac875339ddb50cd49f554b5ed014b4b06111a437ec0b0c5906020015b60405180910390a150565b6000336103c16000546001600160a01b031690565b6001600160a01b0316141561040b57506001600160a01b031660009081527fac33ff75c19e70fe83507db0d683fd3465c996598dc972688b7ace676c89077b602052604090205490565b60055460405163aa44caaf60e01b81523360048201526000916001600160a01b03169063aa44caaf9060240160206040518083038186803b15801561044f57600080fd5b505afa158015610463573d6000803e3d6000fd5b505050506040513d601f19601f8201168201806040525081019061048791906122a8565b60055460405162f577a560e81b8152600481018390529192506001600160a01b03169063f577a5009060240160006040518083038186803b1580156104cb57600080fd5b505afa1580156104df573d6000803e3d6000fd5b5050506000918252506002602090815260408083206001600160a01b0390951683529390529190912054919050565b919050565b6040805161010081018252600080825260208201819052918101829052606081018290526080810182905260a0810182905260c0810182905260e0810191909152600154821061057e5760405162461bcd60e51b8152600401610575906122c1565b60405180910390fd5b600060018381548110610593576105936122f8565b6000918252602090912060069091020180549091506001600160a01b03163314806105ca575060018101546001600160a01b031633145b6106275760405162461bcd60e51b815260206004820152602860248201527f596f7520617265206e6f742072656c6174656420746f2074686973207472616e60448201526739b0b1ba34b7b71760c11b6064820152608401610575565b604080516101008101825282546001600160a01b03908116825260018401548116602083015260028401541691810191909152600382015460608201526004820154608082015260059091015461ffff80821660a0840152620100008204811660c08401526401000000009091041660e082015292915050565b60006106ab6112e0565b506006546001600160a01b031690565b60015482106106dc5760405162461bcd60e51b8152600401610575906122c1565b6000600183815481106106f1576106f16122f8565b6000918252602090912060069091020180549091506001600160a01b0316331461072d5760405162461bcd60e51b81526004016105759061230e565b81816003015410156107775760405162461bcd60e51b815260206004820152601360248201527224b739bab33334b1b4b2b73a10333ab732399760691b6044820152606401610575565b8181600301600082825461078b919061234c565b9091555050604080516101008101825282546001600160a01b039081168252600184015481166020830152600284015416918101919091526003820154606082015260048201546080820152600582015461ffff80821660a0840152620100008204811660c08401526401000000009091041660e082015261080d908361133a565b600281015460048201546040517fdaa591b50a981113dacf06d6569df00c5b022da0ee70df9df0dfab17eaa24129926108559260009287926001600160a01b03169190612379565b60405180910390a161086f81600401548260030154611775565b505050565b61087c611f8c565b610884611fc5565b6000806108918686611816565b60055460e084015160405163d97939eb60e01b8152600481019190915294985092965090945092506000916001600160a01b039091169063d97939eb9060240160206040518083038186803b1580156108e957600080fd5b505afa1580156108fd573d6000803e3d6000fd5b505050506040513d601f19601f8201168201806040525081019061092191906123c0565b9050600061093786606001518361ffff1661195a565b905060048551600481111561094e5761094e612363565b146109965760405162461bcd60e51b815260206004820152601860248201527729b2b93b34b1b29039ba30ba3ab9903737ba1037b832b71760411b6044820152606401610575565b6000865160028111156109ab576109ab612363565b146109f85760405162461bcd60e51b815260206004820152601c60248201527f50726f706f73616c20737461747573206e6f742070656e64696e672e000000006044820152606401610575565b86866020015114610a445760405162461bcd60e51b815260206004820152601660248201527524b731b7b93932b1ba10383937b837b9b0b61024a21760511b6044820152606401610575565b6000610a5c858589604001518a606001518d886119c8565b6003546040516353eaf57560e11b8152600481018c9052602481018b9052604481018390529192506001600160a01b03169063a7d5eaea90606401600060405180830381600087803b158015610ab157600080fd5b505af1158015610ac5573d6000803e3d6000fd5b50505050610ad885886040015184611bac565b602080880151604080518c81529283019190915281018290527fffc7643b52fc7134d23e37eac3c5c4bdad5cf04655528f24663504e15adc4a4a906060015b60405180910390a15050505050505050505050565b610b346112e0565b610b3e6000611c7a565b565b610b486112e0565b6005805461ffff60b01b1916600160b01b61ffff8416908102919091179091556040519081527f3f96e18595b70057673fcff754fcba8d558da96a28e6476a8a13a1b7e6f2057a906020016103a1565b610ba0611f8c565b610ba8611fc5565b600080610bb58686611816565b60055460e084015160405163d97939eb60e01b8152600481019190915294985092965090945092506000916001600160a01b039091169063d97939eb9060240160206040518083038186803b158015610c0d57600080fd5b505afa158015610c21573d6000803e3d6000fd5b505050506040513d601f19601f82011682018060405250810190610c4591906123c0565b90506000610c5b86606001518361ffff1661195a565b9050336001600160a01b03851614610c855760405162461bcd60e51b81526004016105759061230e565b803414610cca5760405162461bcd60e51b81526020600482015260136024820152722737b716b6b0ba31b434b73390333ab732399760691b6044820152606401610575565b60408601516001600160a01b031615610d255760405162461bcd60e51b815260206004820152601760248201527f50726f706f73616c20746f6b656e206e6f74204554482e0000000000000000006044820152606401610575565b86866020015114610d715760405162461bcd60e51b815260206004820152601660248201527524b731b7b93932b1ba10383937b837b9b0b61024a21760511b6044820152606401610575565b600485516004811115610d8657610d86612363565b14610dce5760405162461bcd60e51b815260206004820152601860248201527729b2b93b34b1b29039ba30ba3ab9903737ba1037b832b71760411b6044820152606401610575565b600086516002811115610de357610de3612363565b14610e305760405162461bcd60e51b815260206004820152601c60248201527f50726f706f73616c20737461747573206e6f742070656e64696e672e000000006044820152606401610575565b6000610e48858589604001518a606001518d886119c8565b6003546040516353eaf57560e11b8152600481018c9052602481018b9052604481018390529192506001600160a01b03169063a7d5eaea90606401600060405180830381600087803b158015610e9d57600080fd5b505af1158015610eb1573d6000803e3d6000fd5b505050602080890151604080518d81529283019190915281018390527fffc7643b52fc7134d23e37eac3c5c4bdad5cf04655528f24663504e15adc4a4a9150606001610b17565b600033610f0d6000546001600160a01b031690565b6001600160a01b03161415610f4c578215610f3a5760405162461bcd60e51b81526004016105759061230e565b506006546001600160a01b0316611026565b60055460405162f577a560e81b8152600481018590526001600160a01b039091169063f577a5009060240160006040518083038186803b158015610f8f57600080fd5b505afa158015610fa3573d6000803e3d6000fd5b50506005546040516331a9108f60e11b8152600481018790526001600160a01b039091169250636352211e915060240160206040518083038186803b158015610feb57600080fd5b505afa158015610fff573d6000803e3d6000fd5b505050506040513d601f19601f8201168201806040525081019061102391906123dd565b90505b60008381526002602090815260408083206001600160a01b038616845290915281208054919055611058828483611cca565b60408051858152602081018390526001600160a01b038516917f2227733fc4c8a9034cb58087dcf6995128b9c0233b038b03366aaf30c92b92d6910160405180910390a250505050565b6110aa6112e0565b600680546001600160a01b0319166001600160a01b0392909216919091179055565b6110d46112e0565b6001600160a01b0381166111395760405162461bcd60e51b815260206004820152602660248201527f4f776e61626c653a206e6577206f776e657220697320746865207a65726f206160448201526564647265737360d01b6064820152608401610575565b61024281611c7a565b60015482106111635760405162461bcd60e51b8152600401610575906122c1565b600060018381548110611178576111786122f8565b600091825260209091206001600690920201908101549091506001600160a01b031633146111b85760405162461bcd60e51b81526004016105759061230e565b81816003015410156112025760405162461bcd60e51b815260206004820152601360248201527224b739bab33334b1b4b2b73a10333ab732399760691b6044820152606401610575565b81816003016000828254611216919061234c565b9091555050604080516101008101825282546001600160a01b039081168252600184015481166020830152600284015416918101919091526003820154606082015260048201546080820152600582015461ffff80821660a0840152620100008204811660c08401526401000000009091041660e08201526112989083611d96565b600281015460048201546040517fdaa591b50a981113dacf06d6569df00c5b022da0ee70df9df0dfab17eaa24129926108559260019287926001600160a01b03169190612379565b6000546001600160a01b03163314610b3e5760405162461bcd60e51b815260206004820181905260248201527f4f776e61626c653a2063616c6c6572206973206e6f7420746865206f776e65726044820152606401610575565b600354608083015160405163ef0e239b60e01b815260048101919091526000916001600160a01b03169063ef0e239b9060240160006040518083038186803b15801561138557600080fd5b505afa158015611399573d6000803e3d6000fd5b505050506040513d6000823e601f3d908101601f191682016040526113c19190810190612478565b600480546020860151604051630b89606960e31b81526001600160a01b03918216938101939093529293506000921690635c4b03489060240160206040518083038186803b15801561141257600080fd5b505afa158015611426573d6000803e3d6000fd5b505050506040513d601f19601f8201168201806040525081019061144a91906122a8565b60e083015160a0860151919250906000906127109061146e90879061ffff16612536565b6114789190612555565b9050600061271061ffff16868860c0015161ffff166114979190612536565b6114a19190612555565b9050600061271061ffff16878960e0015161ffff166114c09190612536565b6114ca9190612555565b60008080526002602090815260408b8101516001600160a01b031683527fac33ff75c19e70fe83507db0d683fd3465c996598dc972688b7ace676c89077b909152812080549293508592909190611522908490612577565b909155505060008581526002602090815260408083208b8201516001600160a01b031684529091528120805484929061155c908490612577565b909155505060008481526002602090815260408083208b8201516001600160a01b0316845290915281208054839290611596908490612577565b909155505060408801516001600160a01b03166115f05787602001516001600160a01b03166108fc889081150290604051600060405180830381858888f193505050501580156115ea573d6000803e3d6000fd5b506116c1565b60408089015160208a0151915163a9059cbb60e01b81526001600160a01b039283166004820152602481018a905291169063a9059cbb90604401602060405180830381600087803b15801561164457600080fd5b505af1158015611658573d6000803e3d6000fd5b505050506040513d601f19601f8201168201806040525081019061167c919061258f565b6116c15760405162461bcd60e51b8152602060048201526016602482015275151c985b9cd9995c881b5d5cdd081b9bdd0819985a5b60521b6044820152606401610575565b60408089015160808a0151825188815260208101919091529182018490526001600160a01b0316907f4295737fccf6c9fdb5562d08f53f32ea89040cee8648445f14b63e74ef2340c89060600160405180910390a260408089015160808a0151825187815260208101919091529182018390526001600160a01b0316907ffb0b45a94ba5e6f6a5787f24ec1cca93129f52cb56ee72ce395736266051152e9060600160405180910390a25050505050505050565b8061181257600354604051631271956760e21b8152600481018490526001600160a01b03909116906349c6559c90602401600060405180830381600087803b1580156117c057600080fd5b505af11580156117d4573d6000803e3d6000fd5b505050507f6bef1b5e95b741d6e665eb9b5c2d3e1203c46a771451055a9d41e0b8ff4510b78260405161180991815260200190565b60405180910390a15b5050565b61181e611f8c565b611826611fc5565b60008060006118358787611e6f565b9050600061184288611efe565b6004805460208301516040516331a9108f60e11b8152928301529192506000916001600160a01b031690636352211e9060240160206040518083038186803b15801561188d57600080fd5b505afa1580156118a1573d6000803e3d6000fd5b505050506040513d601f19601f820116820180604052508101906118c591906123dd565b6004805460208601516040516331a9108f60e11b8152928301529192506000916001600160a01b031690636352211e9060240160206040518083038186803b15801561191057600080fd5b505afa158015611924573d6000803e3d6000fd5b505050506040513d601f19601f8201168201806040525081019061194891906123dd565b939a9299509097509195509350505050565b60006127106119698385612536565b60055461198190600160b01b900461ffff1686612536565b60055461199990600160a01b900461ffff1687612536565b6119a39190612577565b6119ad9190612577565b6119b79190612555565b6119c19084612577565b9392505050565b60408051610100810182526001600160a01b03808916825287811660208301908152878216938301938452606083018781526080840187815260055461ffff600160a01b8204811660a08801908152600160b01b909204811660c0880190815289821660e0890190815260018054808201825560008281529a5160069091027fb10e2d527612073b26eecdfd717e6a320cf44b4afac2b0732d9fcbe2b7fa0cf681018054928c166001600160a01b031993841617905598517fb10e2d527612073b26eecdfd717e6a320cf44b4afac2b0732d9fcbe2b7fa0cf78a018054918c169183169190911790559a517fb10e2d527612073b26eecdfd717e6a320cf44b4afac2b0732d9fcbe2b7fa0cf88901805491909a169b169a909a1790975593517fb10e2d527612073b26eecdfd717e6a320cf44b4afac2b0732d9fcbe2b7fa0cf986015591517fb10e2d527612073b26eecdfd717e6a320cf44b4afac2b0732d9fcbe2b7fa0cfa850155517fb10e2d527612073b26eecdfd717e6a320cf44b4afac2b0732d9fcbe2b7fa0cfb90930180549251945182166401000000000265ffff0000000019958316620100000263ffffffff199094169490921693909317919091179290921691909117905581549091611ba19161234c565b979650505050505050565b6040516323b872dd60e01b81526001600160a01b038481166004830152306024830152604482018390528316906323b872dd906064015b602060405180830381600087803b158015611bfd57600080fd5b505af1158015611c11573d6000803e3d6000fd5b505050506040513d601f19601f82011682018060405250810190611c35919061258f565b61086f5760405162461bcd60e51b8152602060048201526016602482015275151c985b9cd9995c881b5d5cdd081b9bdd0819985a5b60521b6044820152606401610575565b600080546001600160a01b038381166001600160a01b0319831681178455604051919092169283917f8be0079c531659141344cd1fd0a4f28419497f9722a3daafe3b4186f6b6457e09190a35050565b6001600160a01b038216611d14576040516001600160a01b0384169082156108fc029083906000818181858888f19350505050158015611d0e573d6000803e3d6000fd5b50505050565b60405163a9059cbb60e01b81526001600160a01b0384811660048301526024820183905283169063a9059cbb90604401602060405180830381600087803b158015611d5e57600080fd5b505af1158015611d72573d6000803e3d6000fd5b505050506040513d601f19601f82011682018060405250810190611d0e919061258f565b600061271061ffff16828460e001518560c001518660a00151611db991906125b1565b611dc391906125b1565b61ffff16611dd19190612536565b611ddb9190612555565b611de59083612577565b60408401519091506001600160a01b0316611e335782516040516001600160a01b039091169082156108fc029083906000818181858888f19350505050158015611d0e573d6000803e3d6000fd5b6040838101518451915163a9059cbb60e01b81526001600160a01b0392831660048201526024810184905291169063a9059cbb90604401611be3565b611e77611f8c565b60035460405163aba2100960e01b815260048101859052602481018490526001600160a01b039091169063aba210099060440160006040518083038186803b158015611ec257600080fd5b505afa158015611ed6573d6000803e3d6000fd5b505050506040513d6000823e601f3d908101601f191682016040526119c191908101906125d7565b611f06611fc5565b60035460405163ef0e239b60e01b8152600481018490526001600160a01b039091169063ef0e239b9060240160006040518083038186803b158015611f4a57600080fd5b505afa158015611f5e573d6000803e3d6000fd5b505050506040513d6000823e601f3d908101601f19168201604052611f869190810190612478565b92915050565b6040805160a0810190915280600081526020016000815260200160006001600160a01b0316815260200160008152602001606081525090565b6040805161010081019091528060008152602001600081526020016000815260200160008152602001606081526020016000815260200160008152602001600081525090565b61ffff8116811461024257600080fd5b60006020828403121561202d57600080fd5b81356119c18161200b565b6001600160a01b038116811461024257600080fd5b60006020828403121561205f57600080fd5b81356119c181612038565b60006020828403121561207c57600080fd5b5035919050565b60006101008201905060018060a01b0380845116835280602085015116602084015280604085015116604084015250606083015160608301526080830151608083015260a083015161ffff80821660a08501528060c08601511660c0850152505060e08301516120f960e084018261ffff169052565b5092915050565b6000806040838503121561211357600080fd5b50508035926020909101359150565b634e487b7160e01b600052604160045260246000fd5b604051610100810167ffffffffffffffff8111828210171561215c5761215c612122565b60405290565b60405160a0810167ffffffffffffffff8111828210171561215c5761215c612122565b604051601f8201601f1916810167ffffffffffffffff811182821017156121ae576121ae612122565b604052919050565b600067ffffffffffffffff8211156121d0576121d0612122565b50601f01601f191660200190565b600080600080608085870312156121f457600080fd5b84359350602085013567ffffffffffffffff81111561221257600080fd5b8501601f8101871361222357600080fd5b8035612236612231826121b6565b612185565b81815288602083850101111561224b57600080fd5b81602084016020830137600091810160200191909152949794965050505060408301359260600135919050565b6000806040838503121561228b57600080fd5b82359150602083013561229d81612038565b809150509250929050565b6000602082840312156122ba57600080fd5b5051919050565b6020808252601b908201527f4e6f7420612076616c6964207472616e73616374696f6e2069642e0000000000604082015260600190565b634e487b7160e01b600052603260045260246000fd5b6020808252600e908201526d20b1b1b2b9b9903232b734b2b21760911b604082015260600190565b634e487b7160e01b600052601160045260246000fd5b60008282101561235e5761235e612336565b500390565b634e487b7160e01b600052602160045260246000fd5b608081016002861061239b57634e487b7160e01b600052602160045260246000fd5b94815260208101939093526001600160a01b0391909116604083015260609091015290565b6000602082840312156123d257600080fd5b81516119c18161200b565b6000602082840312156123ef57600080fd5b81516119c181612038565b80516005811061050e57600080fd5b600082601f83011261241a57600080fd5b8151612428612231826121b6565b8181526020858184870101111561243e57600080fd5b60005b8381101561245c578581018201518382018301528101612441565b8381111561246d5760008285850101525b509095945050505050565b60006020828403121561248a57600080fd5b815167ffffffffffffffff808211156124a257600080fd5b9083019061010082860312156124b757600080fd5b6124bf612138565b6124c8836123fa565b81526020830151602082015260408301516040820152606083015160608201526080830151828111156124fa57600080fd5b61250687828601612409565b60808301525060a083015160a082015260c083015160c082015260e083015160e082015280935050505092915050565b600081600019048311821515161561255057612550612336565b500290565b60008261257257634e487b7160e01b600052601260045260246000fd5b500490565b6000821982111561258a5761258a612336565b500190565b6000602082840312156125a157600080fd5b815180151581146119c157600080fd5b600061ffff8083168185168083038211156125ce576125ce612336565b01949350505050565b6000602082840312156125e957600080fd5b815167ffffffffffffffff8082111561260157600080fd5b9083019060a0828603121561261557600080fd5b61261d612162565b82516003811061262c57600080fd5b815260208381015190820152604083015161264681612038565b60408201526060838101519082015260808301518281111561266757600080fd5b61267387828601612409565b6080830152509594505050505056fea26469706673582212201538c99f688fd2f80753f6971578f375d0377d5859d2e20b202017a8024ab9ec64736f6c63430008090033",
  "linkReferences": {},
  "deployedLinkReferences": {}
}