{
  "_format": "hh-sol-artifact-1",
  "contractName": "TalentLayerID",
  "sourceName": "contracts/TalentLayerID.sol",
  "abi": [
    {
      "inputs": [],
      "stateMutability": "nonpayable",
      "type": "constructor"
    },
    {
      "inputs": [],
      "name": "HandleContainsInvalidCharacters",
      "type": "error"
    },
    {
      "inputs": [],
      "name": "HandleFirstCharInvalid",
      "type": "error"
    },
    {
      "inputs": [],
      "name": "HandleLengthInvalid",
      "type": "error"
    },
    {
      "anonymous": false,
      "inputs": [
        {
          "indexed": false,
          "internalType": "address",
          "name": "previousAdmin",
          "type": "address"
        },
        {
          "indexed": false,
          "internalType": "address",
          "name": "newAdmin",
          "type": "address"
        }
      ],
      "name": "AdminChanged",
      "type": "event"
    },
    {
      "anonymous": false,
      "inputs": [
        {
          "indexed": true,
          "internalType": "address",
          "name": "owner",
          "type": "address"
        },
        {
          "indexed": true,
          "internalType": "address",
          "name": "approved",
          "type": "address"
        },
        {
          "indexed": true,
          "internalType": "uint256",
          "name": "tokenId",
          "type": "uint256"
        }
      ],
      "name": "Approval",
      "type": "event"
    },
    {
      "anonymous": false,
      "inputs": [
        {
          "indexed": true,
          "internalType": "address",
          "name": "owner",
          "type": "address"
        },
        {
          "indexed": true,
          "internalType": "address",
          "name": "operator",
          "type": "address"
        },
        {
          "indexed": false,
          "internalType": "bool",
          "name": "approved",
          "type": "bool"
        }
      ],
      "name": "ApprovalForAll",
      "type": "event"
    },
    {
      "anonymous": false,
      "inputs": [
        {
          "indexed": true,
          "internalType": "address",
          "name": "beacon",
          "type": "address"
        }
      ],
      "name": "BeaconUpgraded",
      "type": "event"
    },
    {
      "anonymous": false,
      "inputs": [
        {
          "indexed": true,
          "internalType": "uint256",
          "name": "_profileId",
          "type": "uint256"
        },
        {
          "indexed": false,
          "internalType": "string",
          "name": "_newCid",
          "type": "string"
        }
      ],
      "name": "CidUpdated",
      "type": "event"
    },
    {
      "anonymous": false,
      "inputs": [
        {
          "indexed": false,
          "internalType": "uint256",
          "name": "_profileId",
          "type": "uint256"
        },
        {
          "indexed": false,
          "internalType": "address",
          "name": "_delegate",
          "type": "address"
        }
      ],
      "name": "DelegateAdded",
      "type": "event"
    },
    {
      "anonymous": false,
      "inputs": [
        {
          "indexed": false,
          "internalType": "uint256",
          "name": "_profileId",
          "type": "uint256"
        },
        {
          "indexed": false,
          "internalType": "address",
          "name": "_delegate",
          "type": "address"
        }
      ],
      "name": "DelegateRemoved",
      "type": "event"
    },
    {
      "anonymous": false,
      "inputs": [
        {
          "indexed": false,
          "internalType": "uint8",
          "name": "version",
          "type": "uint8"
        }
      ],
      "name": "Initialized",
      "type": "event"
    },
    {
      "anonymous": false,
      "inputs": [
        {
          "indexed": true,
          "internalType": "address",
          "name": "_user",
          "type": "address"
        },
        {
          "indexed": false,
          "internalType": "uint256",
          "name": "_profileId",
          "type": "uint256"
        },
        {
          "indexed": false,
          "internalType": "string",
          "name": "_handle",
          "type": "string"
        },
        {
          "indexed": false,
          "internalType": "uint256",
          "name": "_platformId",
          "type": "uint256"
        },
        {
          "indexed": false,
          "internalType": "uint256",
          "name": "_fee",
          "type": "uint256"
        }
      ],
      "name": "Mint",
      "type": "event"
    },
    {
      "anonymous": false,
      "inputs": [
        {
          "indexed": false,
          "internalType": "uint256",
          "name": "_mintFee",
          "type": "uint256"
        }
      ],
      "name": "MintFeeUpdated",
      "type": "event"
    },
    {
      "anonymous": false,
      "inputs": [
        {
          "indexed": false,
          "internalType": "enum TalentLayerID.MintStatus",
          "name": "_mintStatus",
          "type": "uint8"
        }
      ],
      "name": "MintStatusUpdated",
      "type": "event"
    },
    {
      "anonymous": false,
      "inputs": [
        {
          "indexed": true,
          "internalType": "address",
          "name": "previousOwner",
          "type": "address"
        },
        {
          "indexed": true,
          "internalType": "address",
          "name": "newOwner",
          "type": "address"
        }
      ],
      "name": "OwnershipTransferred",
      "type": "event"
    },
    {
      "anonymous": false,
      "inputs": [
        {
          "indexed": false,
          "internalType": "uint256",
          "name": "_price",
          "type": "uint256"
        }
      ],
      "name": "ShortHandlesMaxPriceUpdated",
      "type": "event"
    },
    {
      "anonymous": false,
      "inputs": [
        {
          "indexed": true,
          "internalType": "address",
          "name": "from",
          "type": "address"
        },
        {
          "indexed": true,
          "internalType": "address",
          "name": "to",
          "type": "address"
        },
        {
          "indexed": true,
          "internalType": "uint256",
          "name": "tokenId",
          "type": "uint256"
        }
      ],
      "name": "Transfer",
      "type": "event"
    },
    {
      "anonymous": false,
      "inputs": [
        {
          "indexed": false,
          "internalType": "address",
          "name": "forwarder",
          "type": "address"
        }
      ],
      "name": "TrustedForwarderAdded",
      "type": "event"
    },
    {
      "anonymous": false,
      "inputs": [
        {
          "indexed": false,
          "internalType": "address",
          "name": "forwarder",
          "type": "address"
        }
      ],
      "name": "TrustedForwarderRemoved",
      "type": "event"
    },
    {
      "anonymous": false,
      "inputs": [
        {
          "indexed": true,
          "internalType": "address",
          "name": "implementation",
          "type": "address"
        }
      ],
      "name": "Upgraded",
      "type": "event"
    },
    {
      "inputs": [
        {
          "internalType": "uint256",
          "name": "_profileId",
          "type": "uint256"
        },
        {
          "internalType": "address",
          "name": "_delegate",
          "type": "address"
        }
      ],
      "name": "addDelegate",
      "outputs": [],
      "stateMutability": "nonpayable",
      "type": "function"
    },
    {
      "inputs": [
        {
          "internalType": "address",
          "name": "_forwarder",
          "type": "address"
        }
      ],
      "name": "addTrustedForwarder",
      "outputs": [],
      "stateMutability": "nonpayable",
      "type": "function"
    },
    {
      "inputs": [
        {
          "internalType": "address",
          "name": "to",
          "type": "address"
        },
        {
          "internalType": "uint256",
          "name": "tokenId",
          "type": "uint256"
        }
      ],
      "name": "approve",
      "outputs": [],
      "stateMutability": "nonpayable",
      "type": "function"
    },
    {
      "inputs": [
        {
          "internalType": "address",
          "name": "owner",
          "type": "address"
        }
      ],
      "name": "balanceOf",
      "outputs": [
        {
          "internalType": "uint256",
          "name": "",
          "type": "uint256"
        }
      ],
      "stateMutability": "view",
      "type": "function"
    },
    {
      "inputs": [
        {
          "internalType": "uint256",
          "name": "_platformId",
          "type": "uint256"
        },
        {
          "internalType": "address",
          "name": "_userAddress",
          "type": "address"
        },
        {
          "internalType": "string",
          "name": "_handle",
          "type": "string"
        }
      ],
      "name": "freeMint",
      "outputs": [
        {
          "internalType": "uint256",
          "name": "",
          "type": "uint256"
        }
      ],
      "stateMutability": "nonpayable",
      "type": "function"
    },
    {
      "inputs": [
        {
          "internalType": "uint256",
          "name": "tokenId",
          "type": "uint256"
        }
      ],
      "name": "getApproved",
      "outputs": [
        {
          "internalType": "address",
          "name": "",
          "type": "address"
        }
      ],
      "stateMutability": "view",
      "type": "function"
    },
    {
      "inputs": [
        {
          "internalType": "string",
          "name": "_handle",
          "type": "string"
        }
      ],
      "name": "getHandlePrice",
      "outputs": [
        {
          "internalType": "uint256",
          "name": "",
          "type": "uint256"
        }
      ],
      "stateMutability": "view",
      "type": "function"
    },
    {
      "inputs": [
        {
          "internalType": "address",
          "name": "_address",
          "type": "address"
        }
      ],
      "name": "getOriginatorPlatformIdByAddress",
      "outputs": [
        {
          "internalType": "uint256",
          "name": "",
          "type": "uint256"
        }
      ],
      "stateMutability": "view",
      "type": "function"
    },
    {
      "inputs": [
        {
          "internalType": "uint256",
          "name": "",
          "type": "uint256"
        }
      ],
      "name": "hasActivity",
      "outputs": [
        {
          "internalType": "bool",
          "name": "",
          "type": "bool"
        }
      ],
      "stateMutability": "view",
      "type": "function"
    },
    {
      "inputs": [
        {
          "internalType": "address",
          "name": "",
          "type": "address"
        }
      ],
      "name": "ids",
      "outputs": [
        {
          "internalType": "uint256",
          "name": "",
          "type": "uint256"
        }
      ],
      "stateMutability": "view",
      "type": "function"
    },
    {
      "inputs": [
        {
          "internalType": "address",
          "name": "_talentLayerPlatformIdAddress",
          "type": "address"
        }
      ],
      "name": "initialize",
      "outputs": [],
      "stateMutability": "nonpayable",
      "type": "function"
    },
    {
      "inputs": [
        {
          "internalType": "address",
          "name": "owner",
          "type": "address"
        },
        {
          "internalType": "address",
          "name": "operator",
          "type": "address"
        }
      ],
      "name": "isApprovedForAll",
      "outputs": [
        {
          "internalType": "bool",
          "name": "",
          "type": "bool"
        }
      ],
      "stateMutability": "view",
      "type": "function"
    },
    {
      "inputs": [
        {
          "internalType": "uint256",
          "name": "_profileId",
          "type": "uint256"
        },
        {
          "internalType": "address",
          "name": "_address",
          "type": "address"
        }
      ],
      "name": "isDelegate",
      "outputs": [
        {
          "internalType": "bool",
          "name": "",
          "type": "bool"
        }
      ],
      "stateMutability": "view",
      "type": "function"
    },
    {
      "inputs": [
        {
          "internalType": "uint256",
          "name": "_profileId",
          "type": "uint256"
        },
        {
          "internalType": "address",
          "name": "_address",
          "type": "address"
        }
      ],
      "name": "isOwnerOrDelegate",
      "outputs": [
        {
          "internalType": "bool",
          "name": "",
          "type": "bool"
        }
      ],
      "stateMutability": "view",
      "type": "function"
    },
    {
      "inputs": [
        {
          "internalType": "address",
          "name": "",
          "type": "address"
        }
      ],
      "name": "isServiceContract",
      "outputs": [
        {
          "internalType": "bool",
          "name": "",
          "type": "bool"
        }
      ],
      "stateMutability": "view",
      "type": "function"
    },
    {
      "inputs": [
        {
          "internalType": "address",
          "name": "forwarder",
          "type": "address"
        }
      ],
      "name": "isTrustedForwarder",
      "outputs": [
        {
          "internalType": "bool",
          "name": "",
          "type": "bool"
        }
      ],
      "stateMutability": "view",
      "type": "function"
    },
    {
      "inputs": [
        {
          "internalType": "uint256",
          "name": "_profileId",
          "type": "uint256"
        }
      ],
      "name": "isValid",
      "outputs": [],
      "stateMutability": "view",
      "type": "function"
    },
    {
      "inputs": [
        {
          "internalType": "address",
          "name": "_address",
          "type": "address"
        },
        {
          "internalType": "string",
          "name": "_handle",
          "type": "string"
        },
        {
          "internalType": "bytes32[]",
          "name": "_proof",
          "type": "bytes32[]"
        }
      ],
      "name": "isWhitelisted",
      "outputs": [
        {
          "internalType": "bool",
          "name": "",
          "type": "bool"
        }
      ],
      "stateMutability": "view",
      "type": "function"
    },
    {
      "inputs": [
        {
          "internalType": "uint256",
          "name": "_platformId",
          "type": "uint256"
        },
        {
          "internalType": "string",
          "name": "_handle",
          "type": "string"
        }
      ],
      "name": "mint",
      "outputs": [
        {
          "internalType": "uint256",
          "name": "",
          "type": "uint256"
        }
      ],
      "stateMutability": "payable",
      "type": "function"
    },
    {
      "inputs": [],
      "name": "mintFee",
      "outputs": [
        {
          "internalType": "uint256",
          "name": "",
          "type": "uint256"
        }
      ],
      "stateMutability": "view",
      "type": "function"
    },
    {
      "inputs": [],
      "name": "mintStatus",
      "outputs": [
        {
          "internalType": "enum TalentLayerID.MintStatus",
          "name": "",
          "type": "uint8"
        }
      ],
      "stateMutability": "view",
      "type": "function"
    },
    {
      "inputs": [],
      "name": "name",
      "outputs": [
        {
          "internalType": "string",
          "name": "",
          "type": "string"
        }
      ],
      "stateMutability": "view",
      "type": "function"
    },
    {
      "inputs": [
        {
          "internalType": "address",
          "name": "_user",
          "type": "address"
        }
      ],
      "name": "numberMinted",
      "outputs": [
        {
          "internalType": "uint256",
          "name": "",
          "type": "uint256"
        }
      ],
      "stateMutability": "view",
      "type": "function"
    },
    {
      "inputs": [],
      "name": "owner",
      "outputs": [
        {
          "internalType": "address",
          "name": "",
          "type": "address"
        }
      ],
      "stateMutability": "view",
      "type": "function"
    },
    {
      "inputs": [
        {
          "internalType": "uint256",
          "name": "tokenId",
          "type": "uint256"
        }
      ],
      "name": "ownerOf",
      "outputs": [
        {
          "internalType": "address",
          "name": "",
          "type": "address"
        }
      ],
      "stateMutability": "view",
      "type": "function"
    },
    {
      "inputs": [
        {
          "internalType": "uint256",
          "name": "",
          "type": "uint256"
        }
      ],
      "name": "profiles",
      "outputs": [
        {
          "internalType": "uint256",
          "name": "id",
          "type": "uint256"
        },
        {
          "internalType": "string",
          "name": "handle",
          "type": "string"
        },
        {
          "internalType": "uint256",
          "name": "platformId",
          "type": "uint256"
        },
        {
          "internalType": "string",
          "name": "dataUri",
          "type": "string"
        }
      ],
      "stateMutability": "view",
      "type": "function"
    },
    {
      "inputs": [],
      "name": "proxiableUUID",
      "outputs": [
        {
          "internalType": "bytes32",
          "name": "",
          "type": "bytes32"
        }
      ],
      "stateMutability": "view",
      "type": "function"
    },
    {
      "inputs": [
        {
          "internalType": "uint256",
          "name": "_profileId",
          "type": "uint256"
        },
        {
          "internalType": "address",
          "name": "_delegate",
          "type": "address"
        }
      ],
      "name": "removeDelegate",
      "outputs": [],
      "stateMutability": "nonpayable",
      "type": "function"
    },
    {
      "inputs": [
        {
          "internalType": "address",
          "name": "_forwarder",
          "type": "address"
        }
      ],
      "name": "removeTrustedForwarder",
      "outputs": [],
      "stateMutability": "nonpayable",
      "type": "function"
    },
    {
      "inputs": [],
      "name": "renounceOwnership",
      "outputs": [],
      "stateMutability": "nonpayable",
      "type": "function"
    },
    {
      "inputs": [
        {
          "internalType": "address",
          "name": "from",
          "type": "address"
        },
        {
          "internalType": "address",
          "name": "to",
          "type": "address"
        },
        {
          "internalType": "uint256",
          "name": "tokenId",
          "type": "uint256"
        }
      ],
      "name": "safeTransferFrom",
      "outputs": [],
      "stateMutability": "nonpayable",
      "type": "function"
    },
    {
      "inputs": [
        {
          "internalType": "address",
          "name": "from",
          "type": "address"
        },
        {
          "internalType": "address",
          "name": "to",
          "type": "address"
        },
        {
          "internalType": "uint256",
          "name": "tokenId",
          "type": "uint256"
        },
        {
          "internalType": "bytes",
          "name": "data",
          "type": "bytes"
        }
      ],
      "name": "safeTransferFrom",
      "outputs": [],
      "stateMutability": "nonpayable",
      "type": "function"
    },
    {
      "inputs": [
        {
          "internalType": "address",
          "name": "operator",
          "type": "address"
        },
        {
          "internalType": "bool",
          "name": "approved",
          "type": "bool"
        }
      ],
      "name": "setApprovalForAll",
      "outputs": [],
      "stateMutability": "nonpayable",
      "type": "function"
    },
    {
      "inputs": [
        {
          "internalType": "uint256",
          "name": "_profileId",
          "type": "uint256"
        }
      ],
      "name": "setHasActivity",
      "outputs": [],
      "stateMutability": "nonpayable",
      "type": "function"
    },
    {
      "inputs": [
        {
          "internalType": "address",
          "name": "_address",
          "type": "address"
        },
        {
          "internalType": "bool",
          "name": "_isServiceContract",
          "type": "bool"
        }
      ],
      "name": "setIsServiceContract",
      "outputs": [],
      "stateMutability": "nonpayable",
      "type": "function"
    },
    {
      "inputs": [
        {
          "internalType": "bytes32",
          "name": "root",
          "type": "bytes32"
        }
      ],
      "name": "setWhitelistMerkleRoot",
      "outputs": [],
      "stateMutability": "nonpayable",
      "type": "function"
    },
    {
      "inputs": [
        {
          "internalType": "bytes4",
          "name": "interfaceId",
          "type": "bytes4"
        }
      ],
      "name": "supportsInterface",
      "outputs": [
        {
          "internalType": "bool",
          "name": "",
          "type": "bool"
        }
      ],
      "stateMutability": "view",
      "type": "function"
    },
    {
      "inputs": [],
      "name": "symbol",
      "outputs": [
        {
          "internalType": "string",
          "name": "",
          "type": "string"
        }
      ],
      "stateMutability": "view",
      "type": "function"
    },
    {
      "inputs": [
        {
          "internalType": "string",
          "name": "",
          "type": "string"
        }
      ],
      "name": "takenHandles",
      "outputs": [
        {
          "internalType": "bool",
          "name": "",
          "type": "bool"
        }
      ],
      "stateMutability": "view",
      "type": "function"
    },
    {
      "inputs": [],
      "name": "talentLayerPlatformIdContract",
      "outputs": [
        {
          "internalType": "contract ITalentLayerPlatformID",
          "name": "",
          "type": "address"
        }
      ],
      "stateMutability": "view",
      "type": "function"
    },
    {
      "inputs": [
        {
          "internalType": "uint256",
          "name": "tokenId",
          "type": "uint256"
        }
      ],
      "name": "tokenURI",
      "outputs": [
        {
          "internalType": "string",
          "name": "",
          "type": "string"
        }
      ],
      "stateMutability": "view",
      "type": "function"
    },
    {
      "inputs": [],
      "name": "totalSupply",
      "outputs": [
        {
          "internalType": "uint256",
          "name": "",
          "type": "uint256"
        }
      ],
      "stateMutability": "view",
      "type": "function"
    },
    {
      "inputs": [
        {
          "internalType": "address",
          "name": "from",
          "type": "address"
        },
        {
          "internalType": "address",
          "name": "to",
          "type": "address"
        },
        {
          "internalType": "uint256",
          "name": "tokenId",
          "type": "uint256"
        }
      ],
      "name": "transferFrom",
      "outputs": [],
      "stateMutability": "nonpayable",
      "type": "function"
    },
    {
      "inputs": [
        {
          "internalType": "address",
          "name": "newOwner",
          "type": "address"
        }
      ],
      "name": "transferOwnership",
      "outputs": [],
      "stateMutability": "nonpayable",
      "type": "function"
    },
    {
      "inputs": [
        {
          "internalType": "uint256",
          "name": "_mintFee",
          "type": "uint256"
        }
      ],
      "name": "updateMintFee",
      "outputs": [],
      "stateMutability": "nonpayable",
      "type": "function"
    },
    {
      "inputs": [
        {
          "internalType": "enum TalentLayerID.MintStatus",
          "name": "_mintStatus",
          "type": "uint8"
        }
      ],
      "name": "updateMintStatus",
      "outputs": [],
      "stateMutability": "nonpayable",
      "type": "function"
    },
    {
      "inputs": [
        {
          "internalType": "uint256",
          "name": "_profileId",
          "type": "uint256"
        },
        {
          "internalType": "string",
          "name": "_newCid",
          "type": "string"
        }
      ],
      "name": "updateProfileData",
      "outputs": [],
      "stateMutability": "nonpayable",
      "type": "function"
    },
    {
      "inputs": [
        {
          "internalType": "uint256",
          "name": "_shortHandlesMaxPrice",
          "type": "uint256"
        }
      ],
      "name": "updateShortHandlesMaxPrice",
      "outputs": [],
      "stateMutability": "nonpayable",
      "type": "function"
    },
    {
      "inputs": [
        {
          "internalType": "address",
          "name": "newImplementation",
          "type": "address"
        }
      ],
      "name": "upgradeTo",
      "outputs": [],
      "stateMutability": "nonpayable",
      "type": "function"
    },
    {
      "inputs": [
        {
          "internalType": "address",
          "name": "newImplementation",
          "type": "address"
        },
        {
          "internalType": "bytes",
          "name": "data",
          "type": "bytes"
        }
      ],
      "name": "upgradeToAndCall",
      "outputs": [],
      "stateMutability": "payable",
      "type": "function"
    },
    {
      "inputs": [
        {
          "internalType": "uint256",
          "name": "_platformId",
          "type": "uint256"
        },
        {
          "internalType": "string",
          "name": "_handle",
          "type": "string"
        },
        {
          "internalType": "bytes32[]",
          "name": "_proof",
          "type": "bytes32[]"
        }
      ],
      "name": "whitelistMint",
      "outputs": [
        {
          "internalType": "uint256",
          "name": "",
          "type": "uint256"
        }
      ],
      "stateMutability": "payable",
      "type": "function"
    },
    {
      "inputs": [],
      "name": "withdraw",
      "outputs": [],
      "stateMutability": "nonpayable",
      "type": "function"
    }
  ],
  "bytecode": "0x60a0604052306080523480156200001557600080fd5b506200002062000026565b620000e8565b600054610100900460ff1615620000935760405162461bcd60e51b815260206004820152602760248201527f496e697469616c697a61626c653a20636f6e747261637420697320696e697469604482015266616c697a696e6760c81b606482015260840160405180910390fd5b60005460ff9081161015620000e6576000805460ff191660ff9081179091556040519081527f7f26b83ff96e1f2b6a682f133852f6798a09c465da95921460cefb38474024989060200160405180910390a15b565b608051614a2662000120600039600081816111f401528181611234015281816113f90152818161143901526114cc0152614a266000f3fe6080604052600436106102ff5760003560e01c80636352211e11610190578063b88d4fde116100dc578063e985e9c511610095578063f160068f1161006f578063f160068f146109d0578063f2fde38b146109f0578063f577a50014610a10578063f905f15414610a3057600080fd5b8063e985e9c514610920578063eab5d42614610969578063ebf247f9146109b057600080fd5b8063b88d4fde14610850578063bd32fb6614610870578063c36fe3d614610890578063c4d66de8146108c0578063c87b56dd146108e0578063dc33e6811461090057600080fd5b806384017e52116101495780638da5cb5b116101235780638da5cb5b146107d557806395d89b41146107f35780639da3f8fd14610808578063a22cb4651461083057600080fd5b806384017e521461077557806389c1694c146107955780638ced8ba3146107b557600080fd5b80636352211e146106cd57806370a08231146106ed57806370e703dd1461070d578063715018a61461072d57806377097fc81461074257806383ce205b1461075557600080fd5b806322039f891161024f5780633751d89c116102085780634f1ef286116101e25780634f1ef2861461062457806352d1902d14610637578063572b6c051461064c5780635c4b03481461068557600080fd5b80633751d89c146105cf5780633ccfd60b146105ef57806342842e0e1461060457600080fd5b806322039f89146104fe57806323b872dd1461052f57806326d006681461054f5780632eefaa611461056f5780632fa117e51461058f5780633659cfe6146105af57600080fd5b80631499f9e6116102bc5780631847c06b116102965780631847c06b146104545780631cf6239b146104825780631f67fba6146104a25780632106beec146104c257600080fd5b80631499f9e61461040b57806316afebe51461042c57806318160ddd1461043f57600080fd5b806301ffc9a71461030457806306fdde0314610339578063081812fc1461035b578063095ea7b3146103935780630d283a25146103b557806313966db5146103e6575b600080fd5b34801561031057600080fd5b5061032461031f3660046136f9565b610a50565b60405190151581526020015b60405180910390f35b34801561034557600080fd5b5061034e610aa2565b6040516103309190613766565b34801561036757600080fd5b5061037b610376366004613779565b610b34565b6040516001600160a01b039091168152602001610330565b34801561039f57600080fd5b506103b36103ae3660046137ae565b610b5b565b005b3480156103c157600080fd5b506103246103d0366004613779565b6101386020526000908152604090205460ff1681565b3480156103f257600080fd5b506103fd6101325481565b604051908152602001610330565b34801561041757600080fd5b5061012e5461037b906001600160a01b031681565b6103fd61043a366004613820565b610c87565b34801561044b57600080fd5b506103fd610f42565b34801561046057600080fd5b506103fd61046f3660046138c6565b6101316020526000908152604090205481565b34801561048e57600080fd5b506103b361049d3660046138e1565b610f5f565b3480156104ae57600080fd5b506103b36104bd366004613779565b61103c565b3480156104ce57600080fd5b506103246104dd3660046139c2565b805160208183018101805161012f8252928201919093012091525460ff1681565b34801561050a57600080fd5b506103246105193660046138c6565b6101396020526000908152604090205460ff1681565b34801561053b57600080fd5b506103b361054a3660046139f6565b611081565b34801561055b57600080fd5b506103b361056a3660046138c6565b6110b9565b34801561057b57600080fd5b5061032461058a366004613a32565b611115565b34801561059b57600080fd5b506103246105aa3660046138e1565b611198565b3480156105bb57600080fd5b506103b36105ca3660046138c6565b6111ea565b3480156105db57600080fd5b506103b36105ea3660046138c6565b6112c9565b3480156105fb57600080fd5b506103b3611322565b34801561061057600080fd5b506103b361061f3660046139f6565b6113d4565b6103b3610632366004613b0e565b6113ef565b34801561064357600080fd5b506103fd6114bf565b34801561065857600080fd5b506103246106673660046138c6565b6001600160a01b031660009081526065602052604090205460ff1690565b34801561069157600080fd5b506103fd6106a03660046138c6565b6001600160a01b031660009081526101316020908152604080832054835261013090915290206002015490565b3480156106d957600080fd5b5061037b6106e8366004613779565b611572565b3480156106f957600080fd5b506103fd6107083660046138c6565b6115d2565b34801561071957600080fd5b506103b36107283660046138e1565b611658565b34801561073957600080fd5b506103b361172a565b6103fd610750366004613b5b565b61173e565b34801561076157600080fd5b506103b3610770366004613779565b61192b565b34801561078157600080fd5b506103b3610790366004613779565b6119e8565b3480156107a157600080fd5b506103fd6107b0366004613ba6565b611a26565b3480156107c157600080fd5b506103b36107d0366004613bff565b611b67565b3480156107e157600080fd5b506033546001600160a01b031661037b565b3480156107ff57600080fd5b5061034e611b9b565b34801561081457600080fd5b50610136546108239060ff1681565b6040516103309190613c51565b34801561083c57600080fd5b506103b361084b366004613bff565b611baa565b34801561085c57600080fd5b506103b361086b366004613c79565b611bbc565b34801561087c57600080fd5b506103b361088b366004613779565b611bfb565b34801561089c57600080fd5b506108b06108ab366004613779565b611c09565b6040516103309493929190613ce0565b3480156108cc57600080fd5b506103b36108db3660046138c6565b611d43565b3480156108ec57600080fd5b5061034e6108fb366004613779565b611ee5565b34801561090c57600080fd5b506103fd61091b3660046138c6565b611ef0565b34801561092c57600080fd5b5061032461093b366004613d1c565b6001600160a01b039182166000908152609d6020908152604080832093909416825291909152205460ff1690565b34801561097557600080fd5b506103246109843660046138e1565b6000918252610134602090815260408084206001600160a01b0393909316845291905290205460ff1690565b3480156109bc57600080fd5b506103fd6109cb366004613d46565b611efb565b3480156109dc57600080fd5b506103b36109eb366004613d87565b611f3c565b3480156109fc57600080fd5b506103b3610a0b3660046138c6565b612026565b348015610a1c57600080fd5b506103b3610a2b366004613779565b61209c565b348015610a3c57600080fd5b506103b3610a4b366004613db7565b612108565b60006001600160e01b031982166380ac58cd60e01b1480610a8157506001600160e01b03198216635b5e139f60e01b145b80610a9c57506301ffc9a760e01b6001600160e01b03198316145b92915050565b606060988054610ab190613dd8565b80601f0160208091040260200160405190810160405280929190818152602001828054610add90613dd8565b8015610b2a5780601f10610aff57610100808354040283529160200191610b2a565b820191906000526020600020905b815481529060010190602001808311610b0d57829003601f168201915b5050505050905090565b6000610b3f82612164565b506000908152609c60205260409020546001600160a01b031690565b6000610b6682611572565b9050806001600160a01b0316836001600160a01b031603610bd85760405162461bcd60e51b815260206004820152602160248201527f4552433732313a20617070726f76616c20746f2063757272656e74206f776e656044820152603960f91b60648201526084015b60405180910390fd5b806001600160a01b0316610bea6121c3565b6001600160a01b03161480610c065750610c068161093b6121c3565b610c785760405162461bcd60e51b815260206004820152603d60248201527f4552433732313a20617070726f76652063616c6c6572206973206e6f7420746f60448201527f6b656e206f776e6572206f7220617070726f76656420666f7220616c6c0000006064820152608401610bcf565b610c8283836121cd565b505050565b6000610c916121c3565b858588610c9d84611ef0565b15610cba5760405162461bcd60e51b8152600401610bcf90613e12565b61012f8383604051610ccd929190613e47565b9081526040519081900360200190205460ff1615610cfd5760405162461bcd60e51b8152600401610bcf90613e57565b8015610d605761012e5460405162f577a560e81b8152600481018390526001600160a01b039091169063f577a5009060240160006040518083038186803b158015610d4757600080fd5b505afa158015610d5b573d6000803e3d6000fd5b505050505b610d6a838361223b565b8888610d768282611efb565b3414610d945760405162461bcd60e51b8152600401610bcf90613e85565b60016101365460ff166002811115610dae57610dae613c3b565b14610dfb5760405162461bcd60e51b815260206004820152601d60248201527f57686974656c697374206d696e74206973206e6f7420656e61626c65640000006044820152606401610bcf565b6000610e056121c3565b9050610e89818d8d8080601f016020809104026020016040519081016040528093929190818152602001838380828437600081840152601f19601f820116905080830192505050505050508c8c8080602002602001604051908101604052809392919081815260200183836020028082843760009201919091525061111592505050565b610ece5760405162461bcd60e51b8152602060048201526016602482015275165bdd49dc99481b9bdd081dda1a5d195b1a5cdd195960521b6044820152606401610bcf565b610ee181610edc6101335490565b61245d565b610f31818d8d8080601f016020809104026020016040519081016040528093929190818152602001838380828437600081840152601f19601f820116905080830192505050505050508f34612477565b9d9c50505050505050505050505050565b60006001610f506101335490565b610f5a9190613edf565b905090565b610f676121c3565b6001600160a01b0316610f7983611572565b6001600160a01b031614610fcf5760405162461bcd60e51b815260206004820152601c60248201527f4f6e6c79206f776e65722063616e206164642064656c656761746573000000006044820152606401610bcf565b6000828152610134602090815260408083206001600160a01b03851680855290835292819020805460ff191660011790558051858152918201929092527f2d678d15460f6ef62d6d85bfaf6a46d9d0d6498a0fd6ecd92d42bc2ab018103991015b60405180910390a15050565b61104461254e565b6101378190556040518181527fa7c83a47a9702f7f1fc21a99b3be95dc10f5d00a4bca12cb54ed49b50bce1785906020015b60405180910390a150565b61109261108c6121c3565b826125c7565b6110ae5760405162461bcd60e51b8152600401610bcf90613ef2565b610c82838383612645565b6110c161254e565b6001600160a01b038116600081815260656020908152604091829020805460ff1916600117905590519182527f3ef8564460ada92419608d823c014975d98f8104d7d1e68c222967ac6814cd979101611076565b60008061112c856001600160a01b0316601461273b565b8460405160200161113e929190613f5b565b604051602081830303815290604052905061118d61013554826040516020016111679190613f97565b60405160208183030381529060405280519060200120856128d69092919063ffffffff16565b9150505b9392505050565b6000816001600160a01b03166111ad84611572565b6001600160a01b031614806111915750506000918252610134602090815260408084206001600160a01b0393909316845291905290205460ff1690565b6001600160a01b037f00000000000000000000000000000000000000000000000000000000000000001630036112325760405162461bcd60e51b8152600401610bcf90613fb3565b7f00000000000000000000000000000000000000000000000000000000000000006001600160a01b031661127b60008051602061496a833981519152546001600160a01b031690565b6001600160a01b0316146112a15760405162461bcd60e51b8152600401610bcf90613fff565b6112aa816128ec565b604080516000808252602082019092526112c6918391906128f4565b50565b6112d161254e565b6001600160a01b038116600081815260656020908152604091829020805460ff1916905590519182527fd2d636efcad0cea42e170256f4c5d8b1cd81e47b855557edaf44014e6cc4cee69101611076565b61132a61254e565b60006113346121c3565b6001600160a01b03164760405160006040518083038185875af1925050503d806000811461137e576040519150601f19603f3d011682016040523d82523d6000602084013e611383565b606091505b50509050806112c65760405162461bcd60e51b815260206004820152601860248201527f4661696c656420746f20776974686472617720457468657200000000000000006044820152606401610bcf565b610c8283838360405180602001604052806000815250611bbc565b6001600160a01b037f00000000000000000000000000000000000000000000000000000000000000001630036114375760405162461bcd60e51b8152600401610bcf90613fb3565b7f00000000000000000000000000000000000000000000000000000000000000006001600160a01b031661148060008051602061496a833981519152546001600160a01b031690565b6001600160a01b0316146114a65760405162461bcd60e51b8152600401610bcf90613fff565b6114af826128ec565b6114bb828260016128f4565b5050565b6000306001600160a01b037f0000000000000000000000000000000000000000000000000000000000000000161461155f5760405162461bcd60e51b815260206004820152603860248201527f555550535570677261646561626c653a206d757374206e6f742062652063616c60448201527f6c6564207468726f7567682064656c656761746563616c6c00000000000000006064820152608401610bcf565b5060008051602061496a83398151915290565b6000818152609a60205260408120546001600160a01b031680610a9c5760405162461bcd60e51b8152602060048201526018602482015277115490cdcc8c4e881a5b9d985b1a59081d1bdad95b88125160421b6044820152606401610bcf565b60006001600160a01b03821661163c5760405162461bcd60e51b815260206004820152602960248201527f4552433732313a2061646472657373207a65726f206973206e6f7420612076616044820152683634b21037bbb732b960b91b6064820152608401610bcf565b506001600160a01b03166000908152609b602052604090205490565b6116606121c3565b6001600160a01b031661167283611572565b6001600160a01b0316146116c85760405162461bcd60e51b815260206004820152601f60248201527f4f6e6c79206f776e65722063616e2072656d6f76652064656c656761746573006044820152606401610bcf565b6000828152610134602090815260408083206001600160a01b03851680855290835292819020805460ff191690558051858152918201929092527f09f87139523b83583b15f476015dd9a27fae3a03f17202cdf77d063bef5d21c29101611030565b61173261254e565b61173c6000612a5f565b565b60006117486121c3565b83838661175484611ef0565b156117715760405162461bcd60e51b8152600401610bcf90613e12565b61012f8383604051611784929190613e47565b9081526040519081900360200190205460ff16156117b45760405162461bcd60e51b8152600401610bcf90613e57565b80156118175761012e5460405162f577a560e81b8152600481018390526001600160a01b039091169063f577a5009060240160006040518083038186803b1580156117fe57600080fd5b505afa158015611812573d6000803e3d6000fd5b505050505b611821838361223b565b868661182d8282611efb565b341461184b5760405162461bcd60e51b8152600401610bcf90613e85565b60026101365460ff16600281111561186557611865613c3b565b146118b25760405162461bcd60e51b815260206004820152601a60248201527f5075626c6963206d696e74206973206e6f7420656e61626c65640000000000006044820152606401610bcf565b60006118bc6121c3565b90506118cc81610edc6101335490565b61191c818b8b8080601f016020809104026020016040519081016040528093929190818152602001838380828437600081840152601f19601f820116905080830192505050505050508d34612477565b9b9a5050505050505050505050565b61013960006119386121c3565b6001600160a01b0316815260208101919091526040016000205460ff1615156001146119cc5760405162461bcd60e51b815260206004820152603a60248201527f4f6e6c79207365727669636520636f6e7472616374732063616e20736574207760448201527f68657468657220612075736572206861732061637469766974790000000000006064820152608401610bcf565b600090815261013860205260409020805460ff19166001179055565b6119f061254e565b6101328190556040518181527f38fbb1c8b109c430f0c030e7ed076cf5611a307773a4e8e365601e8f8bceaec690602001611076565b600083838387611a3584611ef0565b15611a525760405162461bcd60e51b8152600401610bcf90613e12565b61012f8383604051611a65929190613e47565b9081526040519081900360200190205460ff1615611a955760405162461bcd60e51b8152600401610bcf90613e57565b8015611af85761012e5460405162f577a560e81b8152600481018390526001600160a01b039091169063f577a5009060240160006040518083038186803b158015611adf57600080fd5b505afa158015611af3573d6000803e3d6000fd5b505050505b611b02838361223b565b611b0a61254e565b611b1888610edc6101335490565b611b5a8888888080601f01602080910402602001604051908101604052809392919081815260200183838082843760009201829052508f935091506124779050565b9998505050505050505050565b611b6f61254e565b6001600160a01b0391909116600090815261013960205260409020805460ff1916911515919091179055565b606060998054610ab190613dd8565b6114bb611bb56121c3565b8383612ab1565b611bcd611bc76121c3565b836125c7565b611be95760405162461bcd60e51b8152600401610bcf90613ef2565b611bf584848484612b7f565b50505050565b611c0361254e565b61013555565b6101306020526000908152604090208054600182018054919291611c2c90613dd8565b80601f0160208091040260200160405190810160405280929190818152602001828054611c5890613dd8565b8015611ca55780601f10611c7a57610100808354040283529160200191611ca5565b820191906000526020600020905b815481529060010190602001808311611c8857829003601f168201915b505050505090806002015490806003018054611cc090613dd8565b80601f0160208091040260200160405190810160405280929190818152602001828054611cec90613dd8565b8015611d395780601f10611d0e57610100808354040283529160200191611d39565b820191906000526020600020905b815481529060010190602001808311611d1c57829003601f168201915b5050505050905084565b600054610100900460ff1615808015611d635750600054600160ff909116105b80611d7d5750303b158015611d7d575060005460ff166001145b611de05760405162461bcd60e51b815260206004820152602e60248201527f496e697469616c697a61626c653a20636f6e747261637420697320616c72656160448201526d191e481a5b9a5d1a585b1a5e995960921b6064820152608401610bcf565b6000805460ff191660011790558015611e03576000805461ff0019166101001790555b611e0b612bb2565b611e556040518060400160405280600d81526020016c15185b195b9d13185e595c9251609a1b8152506040518060400160405280600381526020016215125160ea1b815250612be1565b611e5d612c12565b61012e80546001600160a01b0319166001600160a01b03841617905561013380546001019055610136805460ff19166001179055611ea3680ad78ebc5ac620000061103c565b80156114bb576000805461ff0019169055604051600181527f7f26b83ff96e1f2b6a682f133852f6798a09c465da95921460cefb384740249890602001611030565b6060610a9c82612c39565b6000610a9c826115d2565b60008160048111611f2f57611f11600182613edf565b611f1c90600261412f565b61013754611f2a919061413b565b611f34565b610132545b949350505050565b81611f49816105aa6121c3565b611f8d5760405162461bcd60e51b81526020600482015260156024820152744e6f74206f776e6572206f722064656c656761746560581b6044820152606401610bcf565b8151602e14611fcc5760405162461bcd60e51b815260206004820152600b60248201526a125b9d985b1a590818da5960aa1b6044820152606401610bcf565b600083815261013060205260409020600301611fe883826141a3565b50827f613807bd6768f626264e7eb664a65ca99a0d930f8fd8a5b868491a592eb57f72836040516120199190613766565b60405180910390a2505050565b61202e61254e565b6001600160a01b0381166120935760405162461bcd60e51b815260206004820152602660248201527f4f776e61626c653a206e6577206f776e657220697320746865207a65726f206160448201526564647265737360d01b6064820152608401610bcf565b6112c681612a5f565b6000811180156120ae57506101335481105b6112c65760405162461bcd60e51b815260206004820152602560248201527f596f7572204944206973206e6f7420612076616c69642054616c656e744c6179604482015264195c88125160da1b6064820152608401610bcf565b61211061254e565b610136805482919060ff1916600183600281111561213057612130613c3b565b02179055507fbe5bfaa294dd4b792e98f2bcf8f597b2ead214107f9bc9e8392d6ec65e8d854f816040516110769190613c51565b6000818152609a60205260409020546001600160a01b03166112c65760405162461bcd60e51b8152602060048201526018602482015277115490cdcc8c4e881a5b9d985b1a59081d1bdad95b88125160421b6044820152606401610bcf565b6000610f5a612d68565b6000818152609c6020526040902080546001600160a01b0319166001600160a01b038416908117909155819061220282611572565b6001600160a01b03167f8c5be1e5ebec7d5bd14f71427d1e84f3dd0314c0f7b2291e5b200ac8c7c3b92560405160405180910390a45050565b600082828080601f01602080910402602001604051908101604052809392919081815260200183838082843760009201919091525050825192935050600182109050806122885750601f81115b156122a657604051633eb64ab360e01b815260040160405180910390fd5b6000848460008181106122bb576122bb614262565b909101356001600160f81b031916915050602d60f81b8114806122eb5750605f60f81b6001600160f81b03198216145b1561230957604051632f2c22a760e11b815260040160405180910390fd5b60005b8281101561245557600360fc1b84828151811061232b5761232b614262565b01602001516001600160f81b03191610806123695750603d60f91b84828151811061235857612358614262565b01602001516001600160f81b031916115b806123c55750603960f81b84828151811061238657612386614262565b01602001516001600160f81b0319161180156123c55750606160f81b8482815181106123b4576123b4614262565b01602001516001600160f81b031916105b80156123f657508381815181106123de576123de614262565b6020910101516001600160f81b031916602d60f81b14155b8015612427575083818151811061240f5761240f614262565b6020910101516001600160f81b031916605f60f81b14155b1561244557604051630bb7f19b60e21b815260040160405180910390fd5b61244e81614278565b905061230c565b505050505050565b6114bb828260405180602001604052806000815250612da1565b6000806124846101335490565b905061249561013380546001019055565b60008181526101306020526040902060028101859055600181016124b987826141a3565b50600161012f876040516124cd9190613f97565b9081526040805160209281900383018120805460ff1916941515949094179093556001600160a01b038a1660008181526101319093529120849055907f8475f1ba3b06c1e11c870cbbf9753ca9a8292ea0b203262f682de476dc268f8c9061253c9085908a908a908a90614291565b60405180910390a25095945050505050565b6125566121c3565b6001600160a01b03166125716033546001600160a01b031690565b6001600160a01b03161461173c5760405162461bcd60e51b815260206004820181905260248201527f4f776e61626c653a2063616c6c6572206973206e6f7420746865206f776e65726044820152606401610bcf565b6000806125d383611572565b9050806001600160a01b0316846001600160a01b0316148061261a57506001600160a01b038082166000908152609d602090815260408083209388168352929052205460ff165b80611f345750836001600160a01b031661263384610b34565b6001600160a01b031614949350505050565b6000818152610138602052604090205460ff16156126a55760405162461bcd60e51b815260206004820152601d60248201527f546f6b656e207472616e73666572206973206e6f7420616c6c6f7765640000006044820152606401610bcf565b6126ae826115d2565b156127095760405162461bcd60e51b815260206004820152602560248201527f526563656976657220616c72656164792068617320612054616c656e744c6179604482015264195c88125160da1b6064820152608401610bcf565b6001600160a01b0380841660009081526101316020526040808220829055918416815220819055610c82838383612dd4565b6060600061274a8360026142bd565b6127559060026142d4565b6001600160401b0381111561276c5761276c61390d565b6040519080825280601f01601f191660200182016040528015612796576020820181803683370190505b509050600360fc1b816000815181106127b1576127b1614262565b60200101906001600160f81b031916908160001a905350600f60fb1b816001815181106127e0576127e0614262565b60200101906001600160f81b031916908160001a90535060006128048460026142bd565b61280f9060016142d4565b90505b6001811115612887576f181899199a1a9b1b9c1cb0b131b232b360811b85600f166010811061284357612843614262565b1a60f81b82828151811061285957612859614262565b60200101906001600160f81b031916908160001a90535060049490941c93612880816142e7565b9050612812565b5083156111915760405162461bcd60e51b815260206004820181905260248201527f537472696e67733a20686578206c656e67746820696e73756666696369656e746044820152606401610bcf565b6000826128e38584612f45565b14949350505050565b6112c661254e565b7f4910fdfa16fed3260ed0e7147f7cc6da11a60208b5b9406d12a635614ffd91435460ff161561292757610c8283612f92565b826001600160a01b03166352d1902d6040518163ffffffff1660e01b8152600401602060405180830381865afa925050508015612981575060408051601f3d908101601f1916820190925261297e918101906142fe565b60015b6129e45760405162461bcd60e51b815260206004820152602e60248201527f45524331393637557067726164653a206e657720696d706c656d656e7461746960448201526d6f6e206973206e6f74205555505360901b6064820152608401610bcf565b60008051602061496a8339815191528114612a535760405162461bcd60e51b815260206004820152602960248201527f45524331393637557067726164653a20756e737570706f727465642070726f786044820152681a58589b195555525160ba1b6064820152608401610bcf565b50610c8283838361302e565b603380546001600160a01b038381166001600160a01b0319831681179093556040519116919082907f8be0079c531659141344cd1fd0a4f28419497f9722a3daafe3b4186f6b6457e090600090a35050565b816001600160a01b0316836001600160a01b031603612b125760405162461bcd60e51b815260206004820152601960248201527f4552433732313a20617070726f766520746f2063616c6c6572000000000000006044820152606401610bcf565b6001600160a01b038381166000818152609d6020908152604080832094871680845294825291829020805460ff191686151590811790915591519182527f17307eab39ab6107e8899845ad3d59bd9653f200f220920489ca2b5937696c31910160405180910390a3505050565b612b8a848484612645565b612b9684848484613053565b611bf55760405162461bcd60e51b8152600401610bcf90614317565b600054610100900460ff16612bd95760405162461bcd60e51b8152600401610bcf90614369565b61173c613158565b600054610100900460ff16612c085760405162461bcd60e51b8152600401610bcf90614369565b6114bb828261318f565b600054610100900460ff1661173c5760405162461bcd60e51b8152600401610bcf90614369565b600081815261013060209081526040808320905160609392612c5f9260010191016143b4565b60405160208183030381529060405290506000601461013060008681526020019081526020016000206001018054612c9690613dd8565b90501115612cbe5760405180604001604052806002815260200161034360f41b815250612cda565b60405180604001604052806002815260200161036360f41b8152505b90506000612d088284604051602001612cf4929190614435565b6040516020818303038152906040526131cf565b604051602001612d1891906147ad565b6040516020818303038152906040529050612d3f8382604051602001612cf49291906147f2565b604051602001612d4f9190614885565b6040516020818303038152906040529350505050919050565b600060143610801590612d8a57503360009081526065602052604090205460ff165b15612d9c575060131936013560601c90565b503390565b612dab8383613321565b612db86000848484613053565b610c825760405162461bcd60e51b8152600401610bcf90614317565b826001600160a01b0316612de782611572565b6001600160a01b031614612e0d5760405162461bcd60e51b8152600401610bcf906148ca565b6001600160a01b038216612e6f5760405162461bcd60e51b8152602060048201526024808201527f4552433732313a207472616e7366657220746f20746865207a65726f206164646044820152637265737360e01b6064820152608401610bcf565b612e7c83838360016134ba565b826001600160a01b0316612e8f82611572565b6001600160a01b031614612eb55760405162461bcd60e51b8152600401610bcf906148ca565b6000818152609c6020908152604080832080546001600160a01b03199081169091556001600160a01b03878116808652609b8552838620805460001901905590871680865283862080546001019055868652609a90945282852080549092168417909155905184937fddf252ad1be2c89b69c2b068fc378daa952ba7f163c4a11628f55a4df523b3ef91a4505050565b600081815b8451811015612f8a57612f7682868381518110612f6957612f69614262565b6020026020010151613542565b915080612f8281614278565b915050612f4a565b509392505050565b6001600160a01b0381163b612fff5760405162461bcd60e51b815260206004820152602d60248201527f455243313936373a206e657720696d706c656d656e746174696f6e206973206e60448201526c1bdd08184818dbdb9d1c9858dd609a1b6064820152608401610bcf565b60008051602061496a83398151915280546001600160a01b0319166001600160a01b0392909216919091179055565b61303783613571565b6000825111806130445750805b15610c8257611bf583836135b1565b60006001600160a01b0384163b1561315057836001600160a01b031663150b7a0261307c6121c3565b8786866040518563ffffffff1660e01b815260040161309e949392919061490f565b6020604051808303816000875af19250505080156130d9575060408051601f3d908101601f191682019092526130d69181019061494c565b60015b613136573d808015613107576040519150601f19603f3d011682016040523d82523d6000602084013e61310c565b606091505b50805160000361312e5760405162461bcd60e51b8152600401610bcf90614317565b805181602001fd5b6001600160e01b031916630a85bd0160e11b149050611f34565b506001611f34565b600054610100900460ff1661317f5760405162461bcd60e51b8152600401610bcf90614369565b61173c61318a6121c3565b612a5f565b600054610100900460ff166131b65760405162461bcd60e51b8152600401610bcf90614369565b60986131c283826141a3565b506099610c8282826141a3565b606081516000036131ee57505060408051602081019091526000815290565b600060405180606001604052806040815260200161498a604091399050600060038451600261321d91906142d4565b613227919061413b565b6132329060046142bd565b6001600160401b038111156132495761324961390d565b6040519080825280601f01601f191660200182016040528015613273576020820181803683370190505b509050600182016020820185865187015b808210156132df576003820191508151603f8160121c168501518453600184019350603f81600c1c168501518453600184019350603f8160061c168501518453600184019350603f8116850151845350600183019250613284565b50506003865106600181146132fb576002811461330e57613316565b603d6001830353603d6002830353613316565b603d60018303535b509195945050505050565b6001600160a01b0382166133775760405162461bcd60e51b815260206004820181905260248201527f4552433732313a206d696e7420746f20746865207a65726f20616464726573736044820152606401610bcf565b6000818152609a60205260409020546001600160a01b0316156133dc5760405162461bcd60e51b815260206004820152601c60248201527f4552433732313a20746f6b656e20616c7265616479206d696e746564000000006044820152606401610bcf565b6133ea6000838360016134ba565b6000818152609a60205260409020546001600160a01b03161561344f5760405162461bcd60e51b815260206004820152601c60248201527f4552433732313a20746f6b656e20616c7265616479206d696e746564000000006044820152606401610bcf565b6001600160a01b0382166000818152609b6020908152604080832080546001019055848352609a90915280822080546001600160a01b0319168417905551839291907fddf252ad1be2c89b69c2b068fc378daa952ba7f163c4a11628f55a4df523b3ef908290a45050565b6001811115611bf5576001600160a01b03841615613500576001600160a01b0384166000908152609b6020526040812080548392906134fa908490613edf565b90915550505b6001600160a01b03831615611bf5576001600160a01b0383166000908152609b6020526040812080548392906135379084906142d4565b909155505050505050565b600081831061355e576000828152602084905260409020611191565b6000838152602083905260409020611191565b61357a81612f92565b6040516001600160a01b038216907fbc7cd75a20ee27fd9adebab32041f755214dbc6bffa90cc0225b39da2e5c2d3b90600090a250565b60606001600160a01b0383163b6136195760405162461bcd60e51b815260206004820152602660248201527f416464726573733a2064656c65676174652063616c6c20746f206e6f6e2d636f6044820152651b9d1c9858dd60d21b6064820152608401610bcf565b600080846001600160a01b0316846040516136349190613f97565b600060405180830381855af49150503d806000811461366f576040519150601f19603f3d011682016040523d82523d6000602084013e613674565b606091505b509150915061369c82826040518060600160405280602781526020016149ca602791396136a5565b95945050505050565b606083156136b4575081611191565b61119183838151156136c95781518083602001fd5b8060405162461bcd60e51b8152600401610bcf9190613766565b6001600160e01b0319811681146112c657600080fd5b60006020828403121561370b57600080fd5b8135611191816136e3565b60005b83811015613731578181015183820152602001613719565b50506000910152565b60008151808452613752816020860160208601613716565b601f01601f19169290920160200192915050565b602081526000611191602083018461373a565b60006020828403121561378b57600080fd5b5035919050565b80356001600160a01b03811681146137a957600080fd5b919050565b600080604083850312156137c157600080fd5b6137ca83613792565b946020939093013593505050565b60008083601f8401126137ea57600080fd5b5081356001600160401b0381111561380157600080fd5b60208301915083602082850101111561381957600080fd5b9250929050565b60008060008060006060868803121561383857600080fd5b8535945060208601356001600160401b038082111561385657600080fd5b61386289838a016137d8565b9096509450604088013591508082111561387b57600080fd5b818801915088601f83011261388f57600080fd5b81358181111561389e57600080fd5b8960208260051b85010111156138b357600080fd5b9699959850939650602001949392505050565b6000602082840312156138d857600080fd5b61119182613792565b600080604083850312156138f457600080fd5b8235915061390460208401613792565b90509250929050565b634e487b7160e01b600052604160045260246000fd5b604051601f8201601f191681016001600160401b038111828210171561394b5761394b61390d565b604052919050565b600082601f83011261396457600080fd5b81356001600160401b0381111561397d5761397d61390d565b613990601f8201601f1916602001613923565b8181528460208386010111156139a557600080fd5b816020850160208301376000918101602001919091529392505050565b6000602082840312156139d457600080fd5b81356001600160401b038111156139ea57600080fd5b611f3484828501613953565b600080600060608486031215613a0b57600080fd5b613a1484613792565b9250613a2260208501613792565b9150604084013590509250925092565b600080600060608486031215613a4757600080fd5b613a5084613792565b92506020808501356001600160401b0380821115613a6d57600080fd5b613a7988838901613953565b94506040870135915080821115613a8f57600080fd5b818701915087601f830112613aa357600080fd5b813581811115613ab557613ab561390d565b8060051b9150613ac6848301613923565b818152918301840191848101908a841115613ae057600080fd5b938501935b83851015613afe57843582529385019390850190613ae5565b8096505050505050509250925092565b60008060408385031215613b2157600080fd5b613b2a83613792565b915060208301356001600160401b03811115613b4557600080fd5b613b5185828601613953565b9150509250929050565b600080600060408486031215613b7057600080fd5b8335925060208401356001600160401b03811115613b8d57600080fd5b613b99868287016137d8565b9497909650939450505050565b60008060008060608587031215613bbc57600080fd5b84359350613bcc60208601613792565b925060408501356001600160401b03811115613be757600080fd5b613bf3878288016137d8565b95989497509550505050565b60008060408385031215613c1257600080fd5b613c1b83613792565b915060208301358015158114613c3057600080fd5b809150509250929050565b634e487b7160e01b600052602160045260246000fd5b6020810160038310613c7357634e487b7160e01b600052602160045260246000fd5b91905290565b60008060008060808587031215613c8f57600080fd5b613c9885613792565b9350613ca660208601613792565b92506040850135915060608501356001600160401b03811115613cc857600080fd5b613cd487828801613953565b91505092959194509250565b848152608060208201526000613cf9608083018661373a565b8460408401528281036060840152613d11818561373a565b979650505050505050565b60008060408385031215613d2f57600080fd5b613d3883613792565b915061390460208401613792565b60008060208385031215613d5957600080fd5b82356001600160401b03811115613d6f57600080fd5b613d7b858286016137d8565b90969095509350505050565b60008060408385031215613d9a57600080fd5b8235915060208301356001600160401b03811115613b4557600080fd5b600060208284031215613dc957600080fd5b81356003811061119157600080fd5b600181811c90821680613dec57607f821691505b602082108103613e0c57634e487b7160e01b600052602260045260246000fd5b50919050565b6020808252818101527f596f7520616c7265616479206861766520612054616c656e744c617965724944604082015260600190565b8183823760009101908152919050565b6020808252601490820152732430b73236329030b63932b0b23c903a30b5b2b760611b604082015260600190565b60208082526024908201527f496e636f727265637420616d6f756e74206f662045544820666f72206d696e746040820152632066656560e01b606082015260800190565b634e487b7160e01b600052601160045260246000fd5b81810381811115610a9c57610a9c613ec9565b6020808252602d908201527f4552433732313a2063616c6c6572206973206e6f7420746f6b656e206f776e6560408201526c1c881bdc88185c1c1c9bdd9959609a1b606082015260800190565b60008151613f51818560208601613716565b9290920192915050565b60008351613f6d818460208801613716565b603b60f81b9083019081528351613f8b816001840160208801613716565b01600101949350505050565b60008251613fa9818460208701613716565b9190910192915050565b6020808252602c908201527f46756e6374696f6e206d7573742062652063616c6c6564207468726f7567682060408201526b19195b1959d85d1958d85b1b60a21b606082015260800190565b6020808252602c908201527f46756e6374696f6e206d7573742062652063616c6c6564207468726f7567682060408201526b6163746976652070726f787960a01b606082015260800190565b600181815b8085111561408657816000190482111561406c5761406c613ec9565b8085161561407957918102915b93841c9390800290614050565b509250929050565b60008261409d57506001610a9c565b816140aa57506000610a9c565b81600181146140c057600281146140ca576140e6565b6001915050610a9c565b60ff8411156140db576140db613ec9565b50506001821b610a9c565b5060208310610133831016604e8410600b8410161715614109575081810a610a9c565b614113838361404b565b806000190482111561412757614127613ec9565b029392505050565b6000611191838361408e565b60008261415857634e487b7160e01b600052601260045260246000fd5b500490565b601f821115610c8257600081815260208120601f850160051c810160208610156141845750805b601f850160051c820191505b8181101561245557828155600101614190565b81516001600160401b038111156141bc576141bc61390d565b6141d0816141ca8454613dd8565b8461415d565b602080601f83116001811461420557600084156141ed5750858301515b600019600386901b1c1916600185901b178555612455565b600085815260208120601f198616915b8281101561423457888601518255948401946001909101908401614215565b50858210156142525787850151600019600388901b60f8161c191681555b5050505050600190811b01905550565b634e487b7160e01b600052603260045260246000fd5b60006001820161428a5761428a613ec9565b5060010190565b8481526080602082015260006142aa608083018661373a565b6040830194909452506060015292915050565b8082028115828204841417610a9c57610a9c613ec9565b80820180821115610a9c57610a9c613ec9565b6000816142f6576142f6613ec9565b506000190190565b60006020828403121561431057600080fd5b5051919050565b60208082526032908201527f4552433732313a207472616e7366657220746f206e6f6e20455243373231526560408201527131b2b4bb32b91034b6b83632b6b2b73a32b960711b606082015260800190565b6020808252602b908201527f496e697469616c697a61626c653a20636f6e7472616374206973206e6f74206960408201526a6e697469616c697a696e6760a81b606082015260800190565b60008083546143c281613dd8565b600182811680156143da57600181146143ef5761441e565b60ff198416875282151583028701945061441e565b8760005260208060002060005b858110156144155781548a8201529084019082016143fc565b50505082870194505b5050620b9d1b60ea1b835250506003019392505050565b7f3c73766720786d6c6e733d22687474703a2f2f7777772e77332e6f72672f323081527f30302f737667222077696474683d2237323022206865696768743d223732302260208201527f3e3c726563742077696474683d223130302522206865696768743d223130302560408201527f222f3e3c73766720786d6c6e733d22687474703a2f2f7777772e77332e6f726760608201527f2f323030302f737667222077696474683d2231353022206865696768743d223160808201527f3530222076657273696f6e3d22312e32222076696577426f783d222d3230302060a08201527f2d353020313030302031303030223e3c706174682066696c6c3d22234646464660c08201527f46462220643d224d3236342e35203139302e3563302d31332e382031312e322d60e08201527f32352032352d3235483536386331332e3820302032352031312e3220323520326101008201527f357634393063302031332e382d31312e322032352d3235203235483238392e356101208201527f632d31332e3820302d32352d31312e322d32352d32357a222f3e3c70617468206101408201527f66696c6c3d22234646464646462220643d224d3236352036323463302d31332e6101608201527f382031312e322d32352032352d3235683534336331332e3820302032352031316101808201527f2e322032352032357635362e3563302031332e382d31312e322032352d3235206101a08201527f323548323930632d31332e3820302d32352d31312e322d32352d32357a222f3e6101c08201527f3c706174682066696c6c3d22234646464646462220643d224d30203139302e356101e08201527f63302d31332e382031312e322d32352032352d3235683534336331332e3820306102008201527f2032352031312e322032352032355632343763302031332e382d31312e3220326102208201527f352d3235203235483235632d31332e3820302d32352d31312e322d32352d32356102408201527f7a222f3e3c2f7376673e3c7465787420783d2233302220793d223637302220736102608201526b03a3cb6329e913337b73a1d160a51b6102808201526000611f3461479461478e61476561028c860188613f3f565b7f70782073616e732d73657269663b66696c6c3a23666666223e00000000000000815260190190565b85613f3f565b6c1e17ba32bc3a1f1e17b9bb339f60991b8152600d0190565b7f646174613a696d6167652f7376672b786d6c3b6261736536342c0000000000008152600082516147e581601a850160208701613716565b91909101601a0192915050565b683d913730b6b2911d1160b91b81528251600090614817816009850160208801613716565b6b1116101134b6b0b3b2911d1160a11b6009918401918201528351614843816015840160208801613716565b7f222c20226465736372697074696f6e223a202254616c656e744c617965722049601592909101918201526244227d60e81b6035820152603801949350505050565b7f646174613a6170706c69636174696f6e2f6a736f6e3b6261736536342c0000008152600082516148bd81601d850160208701613716565b91909101601d0192915050565b60208082526025908201527f4552433732313a207472616e736665722066726f6d20696e636f72726563742060408201526437bbb732b960d91b606082015260800190565b6001600160a01b03858116825284166020820152604081018390526080606082018190526000906149429083018461373a565b9695505050505050565b60006020828403121561495e57600080fd5b8151611191816136e356fe360894a13ba1a3210667c828492db98dca3e2076cc3735a920a3ca505d382bbc4142434445464748494a4b4c4d4e4f505152535455565758595a6162636465666768696a6b6c6d6e6f707172737475767778797a303132333435363738392b2f416464726573733a206c6f772d6c6576656c2064656c65676174652063616c6c206661696c6564a26469706673582212201509574a41b0db64b9ca0a93e4457f6e3674af668f719c000a0c0381bd21ac9864736f6c63430008110033",
  "linkReferences": {},
  "deployedLinkReferences": {}
}