{
  "_format": "hh-sol-artifact-1",
  "contractName": "TalentLayerEscrow",
  "sourceName": "contracts/TalentLayerEscrow.sol",
  "abi": [
    {
      "inputs": [],
      "stateMutability": "nonpayable",
      "type": "constructor"
    },
    {
      "anonymous": false,
      "inputs": [
        {
          "indexed": false,
          "internalType": "address",
          "name": "previousAdmin",
          "type": "address"
        },
        {
          "indexed": false,
          "internalType": "address",
          "name": "newAdmin",
          "type": "address"
        }
      ],
      "name": "AdminChanged",
      "type": "event"
    },
    {
      "anonymous": false,
      "inputs": [
        {
          "indexed": true,
          "internalType": "uint256",
          "name": "_transactionId",
          "type": "uint256"
        },
        {
          "indexed": false,
          "internalType": "enum TalentLayerEscrow.ArbitrationFeePaymentType",
          "name": "_paymentType",
          "type": "uint8"
        },
        {
          "indexed": false,
          "internalType": "enum TalentLayerEscrow.Party",
          "name": "_party",
          "type": "uint8"
        },
        {
          "indexed": false,
          "internalType": "uint256",
          "name": "_amount",
          "type": "uint256"
        }
      ],
      "name": "ArbitrationFeePayment",
      "type": "event"
    },
    {
      "anonymous": false,
      "inputs": [
        {
          "indexed": true,
          "internalType": "address",
          "name": "beacon",
          "type": "address"
        }
      ],
      "name": "BeaconUpgraded",
      "type": "event"
    },
    {
      "anonymous": false,
      "inputs": [
        {
          "indexed": true,
          "internalType": "contract Arbitrator",
          "name": "_arbitrator",
          "type": "address"
        },
        {
          "indexed": true,
          "internalType": "uint256",
          "name": "_disputeID",
          "type": "uint256"
        },
        {
          "indexed": false,
          "internalType": "uint256",
          "name": "_metaEvidenceID",
          "type": "uint256"
        },
        {
          "indexed": false,
          "internalType": "uint256",
          "name": "_evidenceGroupID",
          "type": "uint256"
        }
      ],
      "name": "Dispute",
      "type": "event"
    },
    {
      "anonymous": false,
      "inputs": [
        {
          "indexed": true,
          "internalType": "contract Arbitrator",
          "name": "_arbitrator",
          "type": "address"
        },
        {
          "indexed": true,
          "internalType": "uint256",
          "name": "_evidenceGroupID",
          "type": "uint256"
        },
        {
          "indexed": true,
          "internalType": "address",
          "name": "_party",
          "type": "address"
        },
        {
          "indexed": false,
          "internalType": "string",
          "name": "_evidence",
          "type": "string"
        }
      ],
      "name": "Evidence",
      "type": "event"
    },
    {
      "anonymous": false,
      "inputs": [
        {
          "indexed": true,
          "internalType": "uint256",
          "name": "_transactionId",
          "type": "uint256"
        },
        {
          "indexed": true,
          "internalType": "uint256",
          "name": "_partyId",
          "type": "uint256"
        },
        {
          "indexed": false,
          "internalType": "string",
          "name": "_evidenceUri",
          "type": "string"
        }
      ],
      "name": "EvidenceSubmitted",
      "type": "event"
    },
    {
      "anonymous": false,
      "inputs": [
        {
          "indexed": false,
          "internalType": "uint256",
          "name": "_platformId",
          "type": "uint256"
        },
        {
          "indexed": true,
          "internalType": "address",
          "name": "_token",
          "type": "address"
        },
        {
          "indexed": false,
          "internalType": "uint256",
          "name": "_amount",
          "type": "uint256"
        }
      ],
      "name": "FeesClaimed",
      "type": "event"
    },
    {
      "anonymous": false,
      "inputs": [
        {
          "indexed": true,
          "internalType": "uint256",
          "name": "_transactionId",
          "type": "uint256"
        },
        {
          "indexed": false,
          "internalType": "enum TalentLayerEscrow.Party",
          "name": "_party",
          "type": "uint8"
        }
      ],
      "name": "HasToPayFee",
      "type": "event"
    },
    {
      "anonymous": false,
      "inputs": [
        {
          "indexed": false,
          "internalType": "uint8",
          "name": "version",
          "type": "uint8"
        }
      ],
      "name": "Initialized",
      "type": "event"
    },
    {
      "anonymous": false,
      "inputs": [
        {
          "indexed": true,
          "internalType": "uint256",
          "name": "_metaEvidenceID",
          "type": "uint256"
        },
        {
          "indexed": false,
          "internalType": "string",
          "name": "_evidence",
          "type": "string"
        }
      ],
      "name": "MetaEvidence",
      "type": "event"
    },
    {
      "anonymous": false,
      "inputs": [
        {
          "indexed": false,
          "internalType": "uint256",
          "name": "_platformId",
          "type": "uint256"
        },
        {
          "indexed": false,
          "internalType": "uint256",
          "name": "_serviceId",
          "type": "uint256"
        },
        {
          "indexed": true,
          "internalType": "address",
          "name": "_token",
          "type": "address"
        },
        {
          "indexed": false,
          "internalType": "uint256",
          "name": "_amount",
          "type": "uint256"
        }
      ],
      "name": "OriginServiceFeeRateReleased",
      "type": "event"
    },
    {
      "anonymous": false,
      "inputs": [
        {
          "indexed": false,
          "internalType": "uint256",
          "name": "_platformId",
          "type": "uint256"
        },
        {
          "indexed": false,
          "internalType": "uint256",
          "name": "_serviceId",
          "type": "uint256"
        },
        {
          "indexed": true,
          "internalType": "address",
          "name": "_token",
          "type": "address"
        },
        {
          "indexed": false,
          "internalType": "uint256",
          "name": "_amount",
          "type": "uint256"
        }
      ],
      "name": "OriginValidatedProposalFeeRateReleased",
      "type": "event"
    },
    {
      "anonymous": false,
      "inputs": [
        {
          "indexed": true,
          "internalType": "address",
          "name": "previousOwner",
          "type": "address"
        },
        {
          "indexed": true,
          "internalType": "address",
          "name": "newOwner",
          "type": "address"
        }
      ],
      "name": "OwnershipTransferred",
      "type": "event"
    },
    {
      "anonymous": false,
      "inputs": [
        {
          "indexed": false,
          "internalType": "uint256",
          "name": "_transactionId",
          "type": "uint256"
        },
        {
          "indexed": false,
          "internalType": "enum TalentLayerEscrow.PaymentType",
          "name": "_paymentType",
          "type": "uint8"
        },
        {
          "indexed": false,
          "internalType": "uint256",
          "name": "_amount",
          "type": "uint256"
        },
        {
          "indexed": false,
          "internalType": "address",
          "name": "_token",
          "type": "address"
        },
        {
          "indexed": false,
          "internalType": "uint256",
          "name": "_serviceId",
          "type": "uint256"
        }
      ],
      "name": "Payment",
      "type": "event"
    },
    {
      "anonymous": false,
      "inputs": [
        {
          "indexed": false,
          "internalType": "uint256",
          "name": "_serviceId",
          "type": "uint256"
        }
      ],
      "name": "PaymentCompleted",
      "type": "event"
    },
    {
      "anonymous": false,
      "inputs": [
        {
          "indexed": false,
          "internalType": "uint16",
          "name": "_protocolEscrowFeeRate",
          "type": "uint16"
        }
      ],
      "name": "ProtocolEscrowFeeRateUpdated",
      "type": "event"
    },
    {
      "anonymous": false,
      "inputs": [
        {
          "indexed": true,
          "internalType": "contract Arbitrator",
          "name": "_arbitrator",
          "type": "address"
        },
        {
          "indexed": true,
          "internalType": "uint256",
          "name": "_disputeID",
          "type": "uint256"
        },
        {
          "indexed": false,
          "internalType": "uint256",
          "name": "_ruling",
          "type": "uint256"
        }
      ],
      "name": "Ruling",
      "type": "event"
    },
    {
      "anonymous": false,
      "inputs": [
        {
          "indexed": true,
          "internalType": "uint256",
          "name": "_transactionId",
          "type": "uint256"
        },
        {
          "indexed": false,
          "internalType": "uint256",
          "name": "_ruling",
          "type": "uint256"
        }
      ],
      "name": "RulingExecuted",
      "type": "event"
    },
    {
      "anonymous": false,
      "inputs": [
        {
          "indexed": false,
          "internalType": "uint256",
          "name": "serviceId",
          "type": "uint256"
        },
        {
          "indexed": false,
          "internalType": "uint256",
          "name": "sellerId",
          "type": "uint256"
        },
        {
          "indexed": false,
          "internalType": "uint256",
          "name": "transactionId",
          "type": "uint256"
        }
      ],
      "name": "ServiceProposalConfirmedWithDeposit",
      "type": "event"
    },
    {
      "anonymous": false,
      "inputs": [
        {
          "indexed": false,
          "internalType": "uint256",
          "name": "_transactionId",
          "type": "uint256"
        },
        {
          "indexed": false,
          "internalType": "uint256",
          "name": "_senderId",
          "type": "uint256"
        },
        {
          "indexed": false,
          "internalType": "uint256",
          "name": "_receiverId",
          "type": "uint256"
        },
        {
          "indexed": false,
          "internalType": "address",
          "name": "_token",
          "type": "address"
        },
        {
          "indexed": false,
          "internalType": "uint256",
          "name": "_amount",
          "type": "uint256"
        },
        {
          "indexed": false,
          "internalType": "uint256",
          "name": "_serviceId",
          "type": "uint256"
        },
        {
          "indexed": false,
          "internalType": "uint16",
          "name": "_protocolEscrowFeeRate",
          "type": "uint16"
        },
        {
          "indexed": false,
          "internalType": "uint16",
          "name": "_originServiceFeeRate",
          "type": "uint16"
        },
        {
          "indexed": false,
          "internalType": "uint16",
          "name": "_originValidatedProposalFeeRate",
          "type": "uint16"
        },
        {
          "indexed": false,
          "internalType": "contract Arbitrator",
          "name": "_arbitrator",
          "type": "address"
        },
        {
          "indexed": false,
          "internalType": "bytes",
          "name": "_arbitratorExtraData",
          "type": "bytes"
        },
        {
          "indexed": false,
          "internalType": "uint256",
          "name": "_arbitrationFeeTimeout",
          "type": "uint256"
        }
      ],
      "name": "TransactionCreated",
      "type": "event"
    },
    {
      "anonymous": false,
      "inputs": [
        {
          "indexed": false,
          "internalType": "address",
          "name": "forwarder",
          "type": "address"
        }
      ],
      "name": "TrustedForwarderAdded",
      "type": "event"
    },
    {
      "anonymous": false,
      "inputs": [
        {
          "indexed": false,
          "internalType": "address",
          "name": "forwarder",
          "type": "address"
        }
      ],
      "name": "TrustedForwarderRemoved",
      "type": "event"
    },
    {
      "anonymous": false,
      "inputs": [
        {
          "indexed": true,
          "internalType": "address",
          "name": "implementation",
          "type": "address"
        }
      ],
      "name": "Upgraded",
      "type": "event"
    },
    {
      "inputs": [
        {
          "internalType": "address",
          "name": "_forwarder",
          "type": "address"
        }
      ],
      "name": "addTrustedForwarder",
      "outputs": [],
      "stateMutability": "nonpayable",
      "type": "function"
    },
    {
      "inputs": [
        {
          "internalType": "uint256",
          "name": "_transactionId",
          "type": "uint256"
        }
      ],
      "name": "appeal",
      "outputs": [],
      "stateMutability": "payable",
      "type": "function"
    },
    {
      "inputs": [
        {
          "internalType": "uint256",
          "name": "_platformId",
          "type": "uint256"
        },
        {
          "internalType": "address",
          "name": "_tokenAddress",
          "type": "address"
        }
      ],
      "name": "claim",
      "outputs": [],
      "stateMutability": "nonpayable",
      "type": "function"
    },
    {
      "inputs": [
        {
          "internalType": "uint256",
          "name": "_platformId",
          "type": "uint256"
        }
      ],
      "name": "claimAll",
      "outputs": [],
      "stateMutability": "nonpayable",
      "type": "function"
    },
    {
      "inputs": [
        {
          "internalType": "string",
          "name": "_metaEvidence",
          "type": "string"
        },
        {
          "internalType": "uint256",
          "name": "_serviceId",
          "type": "uint256"
        },
        {
          "internalType": "uint256",
          "name": "_proposalId",
          "type": "uint256"
        }
      ],
      "name": "createETHTransaction",
      "outputs": [
        {
          "internalType": "uint256",
          "name": "",
          "type": "uint256"
        }
      ],
      "stateMutability": "payable",
      "type": "function"
    },
    {
      "inputs": [
        {
          "internalType": "string",
          "name": "_metaEvidence",
          "type": "string"
        },
        {
          "internalType": "uint256",
          "name": "_serviceId",
          "type": "uint256"
        },
        {
          "internalType": "uint256",
          "name": "_proposalId",
          "type": "uint256"
        }
      ],
      "name": "createTokenTransaction",
      "outputs": [
        {
          "internalType": "uint256",
          "name": "",
          "type": "uint256"
        }
      ],
      "stateMutability": "nonpayable",
      "type": "function"
    },
    {
      "inputs": [
        {
          "internalType": "uint256",
          "name": "",
          "type": "uint256"
        }
      ],
      "name": "disputeIDtoTransactionID",
      "outputs": [
        {
          "internalType": "uint256",
          "name": "",
          "type": "uint256"
        }
      ],
      "stateMutability": "view",
      "type": "function"
    },
    {
      "inputs": [
        {
          "internalType": "address",
          "name": "_token",
          "type": "address"
        }
      ],
      "name": "getClaimableFeeBalance",
      "outputs": [
        {
          "internalType": "uint256",
          "name": "balance",
          "type": "uint256"
        }
      ],
      "stateMutability": "view",
      "type": "function"
    },
    {
      "inputs": [],
      "name": "getProtocolWallet",
      "outputs": [
        {
          "internalType": "address",
          "name": "",
          "type": "address"
        }
      ],
      "stateMutability": "view",
      "type": "function"
    },
    {
      "inputs": [
        {
          "internalType": "uint256",
          "name": "_transactionId",
          "type": "uint256"
        }
      ],
      "name": "getTransactionDetails",
      "outputs": [
        {
          "components": [
            {
              "internalType": "uint256",
              "name": "id",
              "type": "uint256"
            },
            {
              "internalType": "address",
              "name": "sender",
              "type": "address"
            },
            {
              "internalType": "address",
              "name": "receiver",
              "type": "address"
            },
            {
              "internalType": "address",
              "name": "token",
              "type": "address"
            },
            {
              "internalType": "uint256",
              "name": "amount",
              "type": "uint256"
            },
            {
              "internalType": "uint256",
              "name": "serviceId",
              "type": "uint256"
            },
            {
              "internalType": "uint256",
              "name": "proposalId",
              "type": "uint256"
            },
            {
              "internalType": "uint16",
              "name": "protocolEscrowFeeRate",
              "type": "uint16"
            },
            {
              "internalType": "uint16",
              "name": "originServiceFeeRate",
              "type": "uint16"
            },
            {
              "internalType": "uint16",
              "name": "originValidatedProposalFeeRate",
              "type": "uint16"
            },
            {
              "internalType": "uint256",
              "name": "disputeId",
              "type": "uint256"
            },
            {
              "internalType": "uint256",
              "name": "senderFee",
              "type": "uint256"
            },
            {
              "internalType": "uint256",
              "name": "receiverFee",
              "type": "uint256"
            },
            {
              "internalType": "uint256",
              "name": "lastInteraction",
              "type": "uint256"
            },
            {
              "internalType": "enum TalentLayerEscrow.Status",
              "name": "status",
              "type": "uint8"
            },
            {
              "internalType": "contract Arbitrator",
              "name": "arbitrator",
              "type": "address"
            },
            {
              "internalType": "bytes",
              "name": "arbitratorExtraData",
              "type": "bytes"
            },
            {
              "internalType": "uint256",
              "name": "arbitrationFeeTimeout",
              "type": "uint256"
            }
          ],
          "internalType": "struct TalentLayerEscrow.Transaction",
          "name": "transaction",
          "type": "tuple"
        }
      ],
      "stateMutability": "view",
      "type": "function"
    },
    {
      "inputs": [
        {
          "internalType": "address",
          "name": "_serviceRegistryAddress",
          "type": "address"
        },
        {
          "internalType": "address",
          "name": "_talentLayerIDAddress",
          "type": "address"
        },
        {
          "internalType": "address",
          "name": "_talentLayerPlatformIDAddress",
          "type": "address"
        },
        {
          "internalType": "address",
          "name": "_protocolWallet",
          "type": "address"
        }
      ],
      "name": "initialize",
      "outputs": [],
      "stateMutability": "nonpayable",
      "type": "function"
    },
    {
      "inputs": [
        {
          "internalType": "address",
          "name": "forwarder",
          "type": "address"
        }
      ],
      "name": "isTrustedForwarder",
      "outputs": [
        {
          "internalType": "bool",
          "name": "",
          "type": "bool"
        }
      ],
      "stateMutability": "view",
      "type": "function"
    },
    {
      "inputs": [],
      "name": "owner",
      "outputs": [
        {
          "internalType": "address",
          "name": "",
          "type": "address"
        }
      ],
      "stateMutability": "view",
      "type": "function"
    },
    {
      "inputs": [
        {
          "internalType": "uint256",
          "name": "_transactionId",
          "type": "uint256"
        }
      ],
      "name": "payArbitrationFeeByReceiver",
      "outputs": [],
      "stateMutability": "payable",
      "type": "function"
    },
    {
      "inputs": [
        {
          "internalType": "uint256",
          "name": "_transactionId",
          "type": "uint256"
        }
      ],
      "name": "payArbitrationFeeBySender",
      "outputs": [],
      "stateMutability": "payable",
      "type": "function"
    },
    {
      "inputs": [],
      "name": "protocolEscrowFeeRate",
      "outputs": [
        {
          "internalType": "uint16",
          "name": "",
          "type": "uint16"
        }
      ],
      "stateMutability": "view",
      "type": "function"
    },
    {
      "inputs": [],
      "name": "proxiableUUID",
      "outputs": [
        {
          "internalType": "bytes32",
          "name": "",
          "type": "bytes32"
        }
      ],
      "stateMutability": "view",
      "type": "function"
    },
    {
      "inputs": [
        {
          "internalType": "uint256",
          "name": "_tokenId",
          "type": "uint256"
        },
        {
          "internalType": "uint256",
          "name": "_transactionId",
          "type": "uint256"
        },
        {
          "internalType": "uint256",
          "name": "_amount",
          "type": "uint256"
        }
      ],
      "name": "reimburse",
      "outputs": [],
      "stateMutability": "nonpayable",
      "type": "function"
    },
    {
      "inputs": [
        {
          "internalType": "uint256",
          "name": "_tokenId",
          "type": "uint256"
        },
        {
          "internalType": "uint256",
          "name": "_transactionId",
          "type": "uint256"
        },
        {
          "internalType": "uint256",
          "name": "_amount",
          "type": "uint256"
        }
      ],
      "name": "release",
      "outputs": [],
      "stateMutability": "nonpayable",
      "type": "function"
    },
    {
      "inputs": [
        {
          "internalType": "address",
          "name": "_forwarder",
          "type": "address"
        }
      ],
      "name": "removeTrustedForwarder",
      "outputs": [],
      "stateMutability": "nonpayable",
      "type": "function"
    },
    {
      "inputs": [],
      "name": "renounceOwnership",
      "outputs": [],
      "stateMutability": "nonpayable",
      "type": "function"
    },
    {
      "inputs": [
        {
          "internalType": "uint256",
          "name": "_disputeID",
          "type": "uint256"
        },
        {
          "internalType": "uint256",
          "name": "_ruling",
          "type": "uint256"
        }
      ],
      "name": "rule",
      "outputs": [],
      "stateMutability": "nonpayable",
      "type": "function"
    },
    {
      "inputs": [
        {
          "internalType": "uint256",
          "name": "_tokenId",
          "type": "uint256"
        },
        {
          "internalType": "uint256",
          "name": "_transactionId",
          "type": "uint256"
        },
        {
          "internalType": "string",
          "name": "_evidence",
          "type": "string"
        }
      ],
      "name": "submitEvidence",
      "outputs": [],
      "stateMutability": "nonpayable",
      "type": "function"
    },
    {
      "inputs": [
        {
          "internalType": "uint256",
          "name": "_transactionId",
          "type": "uint256"
        }
      ],
      "name": "timeOutByReceiver",
      "outputs": [],
      "stateMutability": "nonpayable",
      "type": "function"
    },
    {
      "inputs": [
        {
          "internalType": "uint256",
          "name": "_transactionId",
          "type": "uint256"
        }
      ],
      "name": "timeOutBySender",
      "outputs": [],
      "stateMutability": "nonpayable",
      "type": "function"
    },
    {
      "inputs": [
        {
          "internalType": "address",
          "name": "newOwner",
          "type": "address"
        }
      ],
      "name": "transferOwnership",
      "outputs": [],
      "stateMutability": "nonpayable",
      "type": "function"
    },
    {
      "inputs": [
        {
          "internalType": "uint16",
          "name": "_protocolEscrowFeeRate",
          "type": "uint16"
        }
      ],
      "name": "updateProtocolEscrowFeeRate",
      "outputs": [],
      "stateMutability": "nonpayable",
      "type": "function"
    },
    {
      "inputs": [
        {
          "internalType": "address payable",
          "name": "_protocolWallet",
          "type": "address"
        }
      ],
      "name": "updateProtocolWallet",
      "outputs": [],
      "stateMutability": "nonpayable",
      "type": "function"
    },
    {
      "inputs": [
        {
          "internalType": "address",
          "name": "newImplementation",
          "type": "address"
        }
      ],
      "name": "upgradeTo",
      "outputs": [],
      "stateMutability": "nonpayable",
      "type": "function"
    },
    {
      "inputs": [
        {
          "internalType": "address",
          "name": "newImplementation",
          "type": "address"
        },
        {
          "internalType": "bytes",
          "name": "data",
          "type": "bytes"
        }
      ],
      "name": "upgradeToAndCall",
      "outputs": [],
      "stateMutability": "payable",
      "type": "function"
    }
  ],
  "bytecode": "0x60a0604052306080523480156200001557600080fd5b506200002062000026565b620000e8565b600054610100900460ff1615620000935760405162461bcd60e51b815260206004820152602760248201527f496e697469616c697a61626c653a20636f6e747261637420697320696e697469604482015266616c697a696e6760c81b606482015260840160405180910390fd5b60005460ff9081161015620000e6576000805460ff191660ff9081179091556040519081527f7f26b83ff96e1f2b6a682f133852f6798a09c465da95921460cefb38474024989060200160405180910390a15b565b608051615c566200012060003960008181610bd301528181610c13015281816115c70152818161160701526116960152615c566000f3fe6080604052600436106101cd5760003560e01c80636930fd2a116100f75780638da5cb5b11610095578063eb63612d11610064578063eb63612d14610531578063f2fde38b14610551578063f42cadc114610571578063f8c8765e1461059157600080fd5b80638da5cb5b146104b35780639dcc5daf146104d1578063ddd5e1b2146104f1578063e308a0991461051157600080fd5b80637b44cdb5116100d15780637b44cdb51461045a5780637e69b7b01461046d5780638363def4146104805780638b69fa0a1461049357600080fd5b80636930fd2a146104145780636e72b45214610432578063715018a61461044557600080fd5b80633751d89c1161016f5780634f1ef2861161013e5780634f1ef2861461036e57806352d1902d14610381578063572b6c05146103965780635a34257a146103df57600080fd5b80633751d89c146102ee5780633a1121cd1461030e5780633de0c7ef1461032e578063419f648f1461034e57600080fd5b806326d00668116101ab57806326d006681461025f5780632fbe3b0314610281578063311a6c56146102ae5780633659cfe6146102ce57600080fd5b80630a1a47d6146101d25780630fa683d3146102055780631179643414610232575b600080fd5b3480156101de57600080fd5b506101f26101ed366004614cdf565b6105b1565b6040519081526020015b60405180910390f35b34801561021157600080fd5b50610225610220366004614cfc565b610721565b6040516101fc9190614d8f565b34801561023e57600080fd5b506102476109bb565b6040516001600160a01b0390911681526020016101fc565b34801561026b57600080fd5b5061027f61027a366004614cdf565b6109d5565b005b34801561028d57600080fd5b506101f261029c366004614cfc565b60d06020526000908152604090205481565b3480156102ba57600080fd5b5061027f6102c9366004614ed8565b610a38565b3480156102da57600080fd5b5061027f6102e9366004614cdf565b610bc9565b3480156102fa57600080fd5b5061027f610309366004614cdf565b610ca5565b34801561031a57600080fd5b5061027f610329366004614efa565b610cfe565b34801561033a57600080fd5b5061027f610349366004614cfc565b6110d3565b34801561035a57600080fd5b506101f2610369366004615064565b611258565b61027f61037c3660046150b2565b6115bd565b34801561038d57600080fd5b506101f2611689565b3480156103a257600080fd5b506103cf6103b1366004614cdf565b6001600160a01b031660009081526065602052604090205460ff1690565b60405190151581526020016101fc565b3480156103eb57600080fd5b5060ce5461040190600160a01b900461ffff1681565b60405161ffff90911681526020016101fc565b34801561042057600080fd5b5061027f61042f366004614cfc565b50565b61027f610440366004614cfc565b61173c565b34801561045157600080fd5b5061027f6119e6565b61027f610468366004614cfc565b6119fa565b61027f61047b366004614cfc565b611c7f565b6101f261048e366004615064565b611d4e565b34801561049f57600080fd5b5061027f6104ae366004615116565b612132565b3480156104bf57600080fd5b506033546001600160a01b0316610247565b3480156104dd57600080fd5b5061027f6104ec366004614efa565b612471565b3480156104fd57600080fd5b5061027f61050c366004615166565b612846565b34801561051d57600080fd5b5061027f61052c366004614cdf565b6129f0565b34801561053d57600080fd5b5061027f61054c3660046151a6565b612a1a565b34801561055d57600080fd5b5061027f61056c366004614cdf565b612a72565b34801561057d57600080fd5b5061027f61058c366004614cfc565b612ae8565b34801561059d57600080fd5b5061027f6105ac3660046151c3565b612c6b565b6000806105bc612ddb565b9050806001600160a01b03166105da6033546001600160a01b031690565b6001600160a01b0316036106245750506001600160a01b031660009081527f4239c2c8c3d9b94feb214b0f54d7c869ce1ceb63517be57644336cda4967a468602052604090205490565b60ce54604051631847c06b60e01b81526001600160a01b0383811660048301526000921690631847c06b90602401602060405180830381865afa15801561066f573d6000803e3d6000fd5b505050506040513d601f19601f82011682018060405250810190610693919061521f565b60ce5460405162f577a560e81b8152600481018390529192506001600160a01b03169063f577a5009060240160006040518083038186803b1580156106d757600080fd5b505afa1580156106eb573d6000803e3d6000fd5b50505060009182525060cb602090815260408083206001600160a01b039096168352949052929092205492915050565b50919050565b610729614b74565b60ca5482106107535760405162461bcd60e51b815260040161074a90615238565b60405180910390fd5b600060ca83815481106107685761076861526f565b90600052602060002090600f020190506000610782612ddb565b60018301549091506001600160a01b03808316911614806107b2575060028201546001600160a01b038281169116145b61080f5760405162461bcd60e51b815260206004820152602860248201527f596f7520617265206e6f742072656c6174656420746f2074686973207472616e60448201526739b0b1ba34b7b71760c11b606482015260840161074a565b60408051610240810182528354815260018401546001600160a01b0390811660208301526002850154811692820192909252600384015490911660608201526004808401546080830152600584015460a0830152600684015460c0830152600784015461ffff80821660e08501526201000082048116610100850152600160201b9091041661012083015260088401546101408301526009840154610160830152600a840154610180830152600b8401546101a0830152600c84015484916101c084019160ff16908111156108e6576108e6614d15565b60048111156108f7576108f7614d15565b8152600c82015461010090046001600160a01b03166020820152600d8201805460409092019161092690615285565b80601f016020809104026020016040519081016040528092919081815260200182805461095290615285565b801561099f5780601f106109745761010080835404028352916020019161099f565b820191906000526020600020905b81548152906001019060200180831161098257829003601f168201915b50505050508152602001600e8201548152505092505050919050565b60006109c5612e14565b5060cf546001600160a01b031690565b6109dd612e14565b6001600160a01b038116600081815260656020908152604091829020805460ff1916600117905590519182527f3ef8564460ada92419608d823c014975d98f8104d7d1e68c222967ac6814cd9791015b60405180910390a150565b6000610a42612ddb565b600084815260d0602052604081205460ca8054939450909283908110610a6a57610a6a61526f565b90600052602060002090600f0201905080600c0160019054906101000a90046001600160a01b03166001600160a01b0316836001600160a01b031614610afd5760405162461bcd60e51b815260206004820152602260248201527f5468652063616c6c6572206d757374206265207468652061726269747261746f604482015261391760f11b606482015260840161074a565b6003600c82015460ff166004811115610b1857610b18614d15565b14610b745760405162461bcd60e51b815260206004820152602660248201527f54686520646973707574652068617320616c7265616479206265656e2072657360448201526537b63b32b21760d11b606482015260840161074a565b84836001600160a01b03167f394027a5fa6e098a1191094d1719d6929b9abc535fcc0c8f448d6a4e7562227686604051610bb091815260200190565b60405180910390a3610bc28285612e8d565b5050505050565b6001600160a01b037f0000000000000000000000000000000000000000000000000000000000000000163003610c115760405162461bcd60e51b815260040161074a906152b9565b7f00000000000000000000000000000000000000000000000000000000000000006001600160a01b0316610c5a600080516020615bba833981519152546001600160a01b031690565b6001600160a01b031614610c805760405162461bcd60e51b815260040161074a90615305565b610c8981613618565b6040805160008082526020820190925261042f91839190613620565b610cad612e14565b6001600160a01b038116600081815260656020908152604091829020805460ff1916905590519182527fd2d636efcad0cea42e170256f4c5d8b1cd81e47b855557edaf44014e6cc4cee69101610a2d565b60cd5483906001600160a01b0316632fa117e582610d1a612ddb565b6040516001600160e01b031960e085901b16815260048101929092526001600160a01b03166024820152604401602060405180830381865afa158015610d64573d6000803e3d6000fd5b505050506040513d601f19601f82011682018060405250810190610d889190615351565b610da45760405162461bcd60e51b815260040161074a90615373565b60ca548310610dc55760405162461bcd60e51b815260040161074a90615238565b600060ca8481548110610dda57610dda61526f565b6000918252602090912060cd546040516331a9108f60e11b815260048101899052600f90930290910192506001600160a01b031690636352211e90602401602060405180830381865afa158015610e35573d6000803e3d6000fd5b505050506040513d601f19601f82011682018060405250810190610e5991906153b2565b60018201546001600160a01b03908116911614610e885760405162461bcd60e51b815260040161074a906153cf565b6000600c82015460ff166004811115610ea357610ea3614d15565b14610ec05760405162461bcd60e51b815260040161074a906153f7565b8281600401541015610f0a5760405162461bcd60e51b815260206004820152601360248201527224b739bab33334b1b4b2b73a10333ab732399760691b604482015260640161074a565b82816004016000828254610f1e9190615453565b909155505060408051610240810182528254815260018301546001600160a01b0390811660208301526002840154811692820192909252600383015490911660608201526004808301546080830152600583015460a0830152600683015460c0830152600783015461ffff80821660e08501526201000082048116610100850152600160201b9091041661012083015260088301546101408301526009830154610160830152600a830154610180830152600b8301546101a0830152600c830154610bc2929184916101c084019160ff9091169081111561100157611001614d15565b600481111561101257611012614d15565b8152600c82015461010090046001600160a01b03166020820152600d8201805460409092019161104190615285565b80601f016020809104026020016040519081016040528092919081815260200182805461106d90615285565b80156110ba5780601f1061108f576101008083540402835291602001916110ba565b820191906000526020600020905b81548152906001019060200180831161109d57829003601f168201915b50505050508152602001600e820154815250508461378b565b600060ca82815481106110e8576110e861526f565b60009182526020909120600f9091020190506001600c82015460ff16600481111561111557611115614d15565b146111785760405162461bcd60e51b815260206004820152602d60248201527f546865207472616e73616374696f6e206973206e6f742077616974696e67206f60448201526c37103a34329039b2b73232b91760991b606482015260840161074a565b600e810154600b82015461118c9042615453565b10156111da5760405162461bcd60e51b815260206004820181905260248201527f54696d656f75742074696d6520686173206e6f7420706173736564207965742e604482015260640161074a565b60098101541561124957600981018054600091829055600183015460405191926001600160a01b0390911691839181818185875af1925050503d806000811461123f576040519150601f19603f3d011682016040523d82523d6000602084013e611244565b606091505b505050505b611254826002612e8d565b5050565b6000611262614c40565b61126a614c84565b60008060008061127a8989613b05565b60ce5460e0840151604051630b7a459360e31b81526004810191909152949a5092985090965094506000916001600160a01b0390911690635bd22c9890602401600060405180830381865afa1580156112d7573d6000803e3d6000fd5b505050506040513d6000823e601f3d908101601f191682016040526112ff91908101906154b6565b905080606001519250866080015161ffff168660e00151146113a35760ce546080880151604051630b7a459360e31b815261ffff90911660048201526000916001600160a01b031690635bd22c9890602401600060405180830381865afa15801561136e573d6000803e3d6000fd5b505050506040513d6000823e601f3d908101601f1916820160405261139691908101906154b6565b6080015192506113ab9050565b806080015191505b60006113bc88606001518585613c3f565b9050856001600160a01b03166113d0612ddb565b6001600160a01b0316146113f65760405162461bcd60e51b815260040161074a906153cf565b60048751600481111561140b5761140b614d15565b146114535760405162461bcd60e51b815260206004820152601860248201527729b2b93b34b1b29039ba30ba3ab9903737ba1037b832b71760411b604482015260640161074a565b60008851600281111561146857611468614d15565b146114b55760405162461bcd60e51b815260206004820152601c60248201527f50726f706f73616c20737461747573206e6f742070656e64696e672e00000000604482015260640161074a565b898860200151146115015760405162461bcd60e51b815260206004820152601660248201527524b731b7b93932b1ba10383937b837b9b0b61024a21760511b604482015260640161074a565b60006115208c8c87878760e00151886101000151896101200151613ca8565b60cc546040516353eaf57560e11b8152600481018f9052602481018e9052604481018390529192506001600160a01b03169063a7d5eaea90606401600060405180830381600087803b15801561157557600080fd5b505af1158015611589573d6000803e3d6000fd5b5050505061159c878a6040015184613f4f565b6115ab818e8b6020015161400d565b985050505050505050505b9392505050565b6001600160a01b037f00000000000000000000000000000000000000000000000000000000000000001630036116055760405162461bcd60e51b815260040161074a906152b9565b7f00000000000000000000000000000000000000000000000000000000000000006001600160a01b031661164e600080516020615bba833981519152546001600160a01b031690565b6001600160a01b0316146116745760405162461bcd60e51b815260040161074a90615305565b61167d82613618565b61125482826001613620565b6000306001600160a01b037f000000000000000000000000000000000000000000000000000000000000000016146117295760405162461bcd60e51b815260206004820152603860248201527f555550535570677261646561626c653a206d757374206e6f742062652063616c60448201527f6c6564207468726f7567682064656c656761746563616c6c0000000000000000606482015260840161074a565b50600080516020615bba83398151915290565b600060ca82815481106117515761175161526f565b60009182526020909120600c600f909202019081015490915061010090046001600160a01b03166117945760405162461bcd60e51b815260040161074a906155ce565b6003600c82015460ff1660048111156117af576117af614d15565b106117cc5760405162461bcd60e51b815260040161074a906155fb565b60028101546001600160a01b03166117e2612ddb565b6001600160a01b0316146118385760405162461bcd60e51b815260206004820181905260248201527f5468652063616c6c6572206d757374206265207468652072656365697665722e604482015260640161074a565b600c81015460405163f7434ea960e01b815260009161010090046001600160a01b03169063f7434ea99061187390600d8601906004016156ec565b602060405180830381865afa158015611890573d6000803e3d6000fd5b505050506040513d601f19601f820116820180604052508101906118b4919061521f565b90503482600a0160008282546118ca91906156ff565b9091555050600a82015481146119485760405162461bcd60e51b815260206004820152603760248201527f54686520726563656976657220666565206d75737420626520657175616c207460448201527f6f20746865206172626974726174696f6e20636f73742e000000000000000000606482015260840161074a565b42600b8301556040518390600080516020615bda83398151915290611974906000906001903490615722565b60405180910390a280826009015410156119d757600c8201805460ff1916600117905560405183907fc74b9f7dedf2887cd3c113b6d8da9cea19e55c1116e25f1f0e1b72d7543179b5906119ca9060009061574c565b60405180910390a2505050565b6119e18382614265565b505050565b6119ee612e14565b6119f860006144d8565b565b600060ca8281548110611a0f57611a0f61526f565b60009182526020909120600c600f909202019081015490915061010090046001600160a01b0316611a525760405162461bcd60e51b815260040161074a906155ce565b6003600c82015460ff166004811115611a6d57611a6d614d15565b10611a8a5760405162461bcd60e51b815260040161074a906155fb565b60018101546001600160a01b0316611aa0612ddb565b6001600160a01b031614611af65760405162461bcd60e51b815260206004820152601e60248201527f5468652063616c6c6572206d757374206265207468652073656e6465722e0000604482015260640161074a565b600c81015460405163f7434ea960e01b815260009161010090046001600160a01b03169063f7434ea990611b3190600d8601906004016156ec565b602060405180830381865afa158015611b4e573d6000803e3d6000fd5b505050506040513d601f19601f82011682018060405250810190611b72919061521f565b905034826009016000828254611b8891906156ff565b909155505060098201548114611bfe5760405162461bcd60e51b815260206004820152603560248201527f5468652073656e64657220666565206d75737420626520657175616c20746f206044820152743a34329030b93134ba3930ba34b7b71031b7b9ba1760591b606482015260840161074a565b42600b8301556040518390600080516020615bda83398151915290611c299060009081903490615722565b60405180910390a28082600a015410156119d757600c8201805460ff1916600217905560405183907fc74b9f7dedf2887cd3c113b6d8da9cea19e55c1116e25f1f0e1b72d7543179b5906119ca9060019061574c565b600060ca8281548110611c9457611c9461526f565b60009182526020909120600c600f909202019081015490915061010090046001600160a01b0316611cd75760405162461bcd60e51b815260040161074a906155ce565b600c810154600882015460405163093225f160e31b81526101009092046001600160a01b0316916349912f88913491611d189190600d87019060040161575f565b6000604051808303818588803b158015611d3157600080fd5b505af1158015611d45573d6000803e3d6000fd5b50505050505050565b6000611d58614c40565b611d60614c84565b600080600080611d708989613b05565b60ce5460e0840151604051630b7a459360e31b81526004810191909152949a5092985090965094506000916001600160a01b0390911690635bd22c9890602401600060405180830381865afa158015611dcd573d6000803e3d6000fd5b505050506040513d6000823e601f3d908101601f19168201604052611df591908101906154b6565b905080606001519250866080015161ffff168660e0015114611e995760ce546080880151604051630b7a459360e31b815261ffff90911660048201526000916001600160a01b031690635bd22c9890602401600060405180830381865afa158015611e64573d6000803e3d6000fd5b505050506040513d6000823e601f3d908101601f19168201604052611e8c91908101906154b6565b608001519250611ea19050565b806080015191505b6000611eb288606001518585613c3f565b9050856001600160a01b0316611ec6612ddb565b6001600160a01b031614611eec5760405162461bcd60e51b815260040161074a906153cf565b803414611f315760405162461bcd60e51b81526020600482015260136024820152722737b716b6b0ba31b434b73390333ab732399760691b604482015260640161074a565b60408801516001600160a01b031615611f8c5760405162461bcd60e51b815260206004820152601760248201527f50726f706f73616c20746f6b656e206e6f74204554482e000000000000000000604482015260640161074a565b89886020015114611fd85760405162461bcd60e51b815260206004820152601660248201527524b731b7b93932b1ba10383937b837b9b0b61024a21760511b604482015260640161074a565b600487516004811115611fed57611fed614d15565b146120355760405162461bcd60e51b815260206004820152601860248201527729b2b93b34b1b29039ba30ba3ab9903737ba1037b832b71760411b604482015260640161074a565b60008851600281111561204a5761204a614d15565b146120975760405162461bcd60e51b815260206004820152601c60248201527f50726f706f73616c20737461747573206e6f742070656e64696e672e00000000604482015260640161074a565b60006120b68c8c87878760e00151886101000151896101200151613ca8565b60cc546040516353eaf57560e11b8152600481018f9052602481018e9052604481018390529192506001600160a01b03169063a7d5eaea90606401600060405180830381600087803b15801561210b57600080fd5b505af115801561211f573d6000803e3d6000fd5b505050506115ab818e8b6020015161400d565b60cd5483906001600160a01b0316632fa117e58261214e612ddb565b6040516001600160e01b031960e085901b16815260048101929092526001600160a01b03166024820152604401602060405180830381865afa158015612198573d6000803e3d6000fd5b505050506040513d601f19601f820116820180604052508101906121bc9190615351565b6121d85760405162461bcd60e51b815260040161074a90615373565b600060ca84815481106121ed576121ed61526f565b60009182526020909120600c600f909202019081015490915061010090046001600160a01b03166122305760405162461bcd60e51b815260040161074a906155ce565b60cd546040516331a9108f60e11b8152600481018790526000916001600160a01b031690636352211e90602401602060405180830381865afa15801561227a573d6000803e3d6000fd5b505050506040513d601f19601f8201168201806040525081019061229e91906153b2565b60018301549091506001600160a01b03808316911614806122ce575060028201546001600160a01b038281169116145b61234a5760405162461bcd60e51b815260206004820152604160248201527f5468652063616c6c6572206d757374206265207468652073656e646572206f7260448201527f20746865207265636569766572206f722074686569722064656c6567617465736064820152601760f91b608482015260a40161074a565b6004600c83015460ff16600481111561236557612365614d15565b106123cd5760405162461bcd60e51b815260206004820152603260248201527f4d757374206e6f742073656e642065766964656e63652069662074686520646960448201527139b83aba329034b9903932b9b7b63b32b21760711b606482015260840161074a565b806001600160a01b03168583600c0160019054906101000a90046001600160a01b03166001600160a01b03167fdccf2f8b2cc26eafcd61905cba744cff4b81d14740725f6376390dc6298a6a3c876040516124289190615778565b60405180910390a485857fd998ce0f89c38b0f93256f0b843a404a3a3c5055b75265623f7cb9c369a1dd62866040516124619190615778565b60405180910390a3505050505050565b60cd5483906001600160a01b0316632fa117e58261248d612ddb565b6040516001600160e01b031960e085901b16815260048101929092526001600160a01b03166024820152604401602060405180830381865afa1580156124d7573d6000803e3d6000fd5b505050506040513d601f19601f820116820180604052508101906124fb9190615351565b6125175760405162461bcd60e51b815260040161074a90615373565b60ca5483106125385760405162461bcd60e51b815260040161074a90615238565b600060ca848154811061254d5761254d61526f565b6000918252602090912060cd546040516331a9108f60e11b815260048101899052600f90930290910192506001600160a01b031690636352211e90602401602060405180830381865afa1580156125a8573d6000803e3d6000fd5b505050506040513d601f19601f820116820180604052508101906125cc91906153b2565b60028201546001600160a01b039081169116146125fb5760405162461bcd60e51b815260040161074a906153cf565b6000600c82015460ff16600481111561261657612616614d15565b146126335760405162461bcd60e51b815260040161074a906153f7565b828160040154101561267d5760405162461bcd60e51b815260206004820152601360248201527224b739bab33334b1b4b2b73a10333ab732399760691b604482015260640161074a565b828160040160008282546126919190615453565b909155505060408051610240810182528254815260018301546001600160a01b0390811660208301526002840154811692820192909252600383015490911660608201526004808301546080830152600583015460a0830152600683015460c0830152600783015461ffff80821660e08501526201000082048116610100850152600160201b9091041661012083015260088301546101408301526009830154610160830152600a830154610180830152600b8301546101a0830152600c830154610bc2929184916101c084019160ff9091169081111561277457612774614d15565b600481111561278557612785614d15565b8152600c82015461010090046001600160a01b03166020820152600d820180546040909201916127b490615285565b80601f01602080910402602001604051908101604052809291908181526020018280546127e090615285565b801561282d5780601f106128025761010080835404028352916020019161282d565b820191906000526020600020905b81548152906001019060200180831161281057829003601f168201915b50505050508152602001600e820154815250508461452a565b6000612850612ddb565b6001600160a01b031661286b6033546001600160a01b031690565b6001600160a01b0316036128a95782156128975760405162461bcd60e51b815260040161074a906153cf565b5060cf546001600160a01b0316612974565b60ce5460405162f577a560e81b8152600481018590526001600160a01b039091169063f577a5009060240160006040518083038186803b1580156128ec57600080fd5b505afa158015612900573d6000803e3d6000fd5b505060ce546040516331a9108f60e11b8152600481018790526001600160a01b039091169250636352211e9150602401602060405180830381865afa15801561294d573d6000803e3d6000fd5b505050506040513d601f19601f8201168201806040525081019061297191906153b2565b90505b600083815260cb602090815260408083206001600160a01b0386168452909152812080549190556129a68284836145ee565b60408051858152602081018390526001600160a01b038516917f2227733fc4c8a9034cb58087dcf6995128b9c0233b038b03366aaf30c92b92d6910160405180910390a250505050565b6129f8612e14565b60cf80546001600160a01b0319166001600160a01b0392909216919091179055565b612a22612e14565b60ce805461ffff60a01b1916600160a01b61ffff8416908102919091179091556040519081527f8339189e972f7fba792126e752aa8485af08710bce4a041c5bc3f9858acd713090602001610a2d565b612a7a612e14565b6001600160a01b038116612adf5760405162461bcd60e51b815260206004820152602660248201527f4f776e61626c653a206e6577206f776e657220697320746865207a65726f206160448201526564647265737360d01b606482015260840161074a565b61042f816144d8565b600060ca8281548110612afd57612afd61526f565b60009182526020909120600f9091020190506002600c82015460ff166004811115612b2a57612b2a614d15565b14612b8f5760405162461bcd60e51b815260206004820152602f60248201527f546865207472616e73616374696f6e206973206e6f742077616974696e67206f60448201526e37103a3432903932b1b2b4bb32b91760891b606482015260840161074a565b600e810154600b820154612ba39042615453565b1015612bf15760405162461bcd60e51b815260206004820181905260248201527f54696d656f75742074696d6520686173206e6f7420706173736564207965742e604482015260640161074a565b600a81015415612c6057600a81018054600091829055600283015460405191926001600160a01b0390911691839181818185875af1925050503d8060008114612c56576040519150601f19603f3d011682016040523d82523d6000602084013e612c5b565b606091505b505050505b611254826001612e8d565b600054610100900460ff1615808015612c8b5750600054600160ff909116105b80612ca55750303b158015612ca5575060005460ff166001145b612d085760405162461bcd60e51b815260206004820152602e60248201527f496e697469616c697a61626c653a20636f6e747261637420697320616c72656160448201526d191e481a5b9a5d1a585b1a5e995960921b606482015260840161074a565b6000805460ff191660011790558015612d2b576000805461ff0019166101001790555b612d336146a8565b612d3b6146d7565b60cc80546001600160a01b038088166001600160a01b03199283161790925560cd805487841690831617905560ce805486841690831617905560cf805492851692909116919091179055612d8f6064612a1a565b8015610bc2576000805461ff0019169055604051600181527f7f26b83ff96e1f2b6a682f133852f6798a09c465da95921460cefb38474024989060200160405180910390a15050505050565b600060143610801590612dfd57503360009081526065602052604090205460ff165b15612e0f575060131936013560601c90565b503390565b612e1c612ddb565b6001600160a01b0316612e376033546001600160a01b031690565b6001600160a01b0316146119f85760405162461bcd60e51b815260206004820181905260248201527f4f776e61626c653a2063616c6c6572206973206e6f7420746865206f776e6572604482015260640161074a565b600060ca8381548110612ea257612ea261526f565b90600052602060002090600f02019050600260ff16821115612ef85760405162461bcd60e51b815260206004820152600f60248201526e24b73b30b634b210393ab634b7339760891b604482015260640161074a565b6001810154600282015460048084018054600986018054600a880180546000958690559285905593909355600c8701805460ff19169094179093556001600160a01b03948516949093169291600019870161307e576040516001600160a01b038616908390600081818185875af1925050503d8060008114612f96576040519150601f19603f3d011682016040523d82523d6000602084013e612f9b565b606091505b505060408051610240810182528854815260018901546001600160a01b03908116602083015260028a0154811692820192909252600389015490911660608201526004808901546080830152600589015460a0830152600689015460c0830152600789015461ffff80821660e08501526201000082048116610100850152600160201b9091041661012083015260088901546101408301526009890154610160830152600a890154610180830152600b8901546101a0830152600c890154613079935089916101c084019160ff169081111561277457612774614d15565b6135d4565b60011987016131b3576040516001600160a01b038516908290600081818185875af1925050503d80600081146130d0576040519150601f19603f3d011682016040523d82523d6000602084013e6130d5565b606091505b505060408051610240810182528854815260018901546001600160a01b03908116602083015260028a0154811692820192909252600389015490911660608201526004808901546080830152600589015460a0830152600689015460c0830152600789015461ffff80821660e08501526201000082048116610100850152600160201b9091041661012083015260088901546101408301526009890154610160830152600a890154610180830152600b8901546101a0830152600c890154613079935089916101c084019160ff169081111561100157611001614d15565b60006131c060028461578b565b905060006131cf60028661578b565b60408051610240810182528a54815260018b01546001600160a01b03908116602083015260028c015481169282019290925260038b015490911660608201526004808b0154608083015260058b015460a083015260068b015460c083015260078b015461ffff80821660e08501526201000082048116610100850152600160201b9091041661012083015260088b015461014083015260098b0154610160830152600a8b0154610180830152600b8b01546101a0830152600c8b015492935061337f928b916101c084019160ff16908111156132ad576132ad614d15565b60048111156132be576132be614d15565b8152600c82015461010090046001600160a01b03166020820152600d820180546040909201916132ed90615285565b80601f016020809104026020016040519081016040528092919081815260200182805461331990615285565b80156133665780601f1061333b57610100808354040283529160200191613366565b820191906000526020600020905b81548152906001019060200180831161334957829003601f168201915b50505050508152602001600e820154815250508261452a565b60408051610240810182528954815260018a01546001600160a01b03908116602083015260028b015481169282019290925260038a015490911660608201526004808a0154608083015260058a015460a083015260068a015460c083015260078a015461ffff80821660e08501526201000082048116610100850152600160201b9091041661012083015260088a015461014083015260098a0154610160830152600a8a0154610180830152600b8a01546101a0830152600c8a015461352f92918b916101c084019160ff9091169081111561345d5761345d614d15565b600481111561346e5761346e614d15565b8152600c82015461010090046001600160a01b03166020820152600d8201805460409092019161349d90615285565b80601f01602080910402602001604051908101604052809291908181526020018280546134c990615285565b80156135165780601f106134eb57610100808354040283529160200191613516565b820191906000526020600020905b8154815290600101906020018083116134f957829003601f168201915b50505050508152602001600e820154815250508261378b565b6040516001600160a01b038816908390600081818185875af1925050503d8060008114613578576040519150601f19603f3d011682016040523d82523d6000602084013e61357d565b606091505b50506040516001600160a01b03881691508390600081818185875af1925050503d80600081146135c9576040519150601f19603f3d011682016040523d82523d6000602084013e6135ce565b606091505b50505050505b877f76b363d70472d47d20e4119f3625c05ed37ca51b1d9e1cd8b87d8c20530640f38860405161360691815260200190565b60405180910390a25050505050505050565b61042f612e14565b7f4910fdfa16fed3260ed0e7147f7cc6da11a60208b5b9406d12a635614ffd91435460ff1615613653576119e1836146fe565b826001600160a01b03166352d1902d6040518163ffffffff1660e01b8152600401602060405180830381865afa9250505080156136ad575060408051601f3d908101601f191682019092526136aa9181019061521f565b60015b6137105760405162461bcd60e51b815260206004820152602e60248201527f45524331393637557067726164653a206e657720696d706c656d656e7461746960448201526d6f6e206973206e6f74205555505360901b606482015260840161074a565b600080516020615bba833981519152811461377f5760405162461bcd60e51b815260206004820152602960248201527f45524331393637557067726164653a20756e737570706f727465642070726f786044820152681a58589b195555525160ba1b606482015260840161074a565b506119e183838361479a565b60cc5460a083015160405163ef0e239b60e01b815260048101919091526000916001600160a01b03169063ef0e239b90602401600060405180830381865afa1580156137db573d6000803e3d6000fd5b505050506040513d6000823e601f3d908101601f1916820160405261380391908101906157bc565b60e0015160cc5460a085015160c086015160405163aba2100960e01b8152600481019290925260248201529192506000916001600160a01b039091169063aba2100990604401600060405180830381865afa158015613866573d6000803e3d6000fd5b505050506040513d6000823e601f3d908101601f1916820160405261388e919081019061587a565b6080015161ffff169050600061271061ffff16848660e0015161ffff166138b59190615934565b6138bf919061578b565b9050600061271061ffff168587610100015161ffff166138df9190615934565b6138e9919061578b565b9050600061271061ffff168688610120015161ffff166139099190615934565b613913919061578b565b600080805260cb602090815260608a01516001600160a01b031682527f4239c2c8c3d9b94feb214b0f54d7c869ce1ceb63517be57644336cda4967a4689052604081208054929350859290919061396b9084906156ff565b9091555050600085815260cb6020908152604080832060608b01516001600160a01b03168452909152812080548492906139a69084906156ff565b9091555050600084815260cb6020908152604080832060608b01516001600160a01b03168452909152812080548392906139e19084906156ff565b925050819055506139fb87604001518860600151886147bf565b60608088015160a089015160408051898152602081019290925281018590526001600160a01b03909116917f17c48ab8e1617182f35ae77fd7da7f4e15dedf7018aa371a4481c20c790b6546910160405180910390a260608088015160a089015160408051888152602081019290925281018590526001600160a01b03909116917f3476ed3eea2cdac584273bc8830824c8ca42ca2a99e9f144a87a1cdbbf9dd15a910160405180910390a27f7eb4d07819d8300e8f1d0a2a11814657be694ee6dbfd0208fdabed36a19e954f87600001516000888a606001518b60a00151604051613aeb95949392919061594b565b60405180910390a1611d458760a001518860800151614826565b613b0d614c40565b613b15614c84565b6000806000613b2487876148c9565b90506000613b3188614952565b60cd5460208201516040516331a9108f60e11b81529293506000926001600160a01b0390921691636352211e91613b6e9160040190815260200190565b602060405180830381865afa158015613b8b573d6000803e3d6000fd5b505050506040513d601f19601f82011682018060405250810190613baf91906153b2565b60cd5460208501516040516331a9108f60e11b81529293506000926001600160a01b0390921691636352211e91613bec9160040190815260200190565b602060405180830381865afa158015613c09573d6000803e3d6000fd5b505050506040513d601f19601f82011682018060405250810190613c2d91906153b2565b939a9299509097509195509350505050565b6000612710613c5261ffff841686615934565b613c6061ffff861687615934565b60ce54613c7890600160a01b900461ffff1688615934565b613c8291906156ff565b613c8c91906156ff565b613c96919061578b565b613ca090856156ff565b949350505050565b6000613cb2614c40565b613cba614c84565b600080613cc78c8c613b05565b80945081955082965083975050505050600060ca80549050905060ca604051806102400160405280838152602001856001600160a01b03168152602001846001600160a01b0316815260200187604001516001600160a01b03168152602001876060015181526020018f81526020018e815260200160ce60149054906101000a900461ffff1661ffff1681526020018d61ffff1681526020018c61ffff16815260200160008152602001600081526020016000815260200142815260200160006004811115613d9857613d98614d15565b81526001600160a01b03808d1660208084019190915260408084018e905260609384018d90528554600181810188556000978852968390208651600f909202019081559185015182870180549185166001600160a01b03199283161790559085015160028301805491851691831691909117905592840151600382018054919093169316929092179055608082015160048083019190915560a0830151600583015560c0830151600683015560e083015160078301805461010086015161012087015161ffff908116600160201b0265ffff0000000019928216620100000263ffffffff199094169190951617919091171691909117905561014083015160088301556101608301516009830155610180830151600a8301556101a0830151600b8301556101c0830151600c83018054949593949193909260ff19909216918490811115613ee857613ee8614d15565b02179055506101e0820151600c820180546001600160a01b0390921661010002610100600160a81b0319909216919091179055610200820151600d820190613f3090826159cd565b506102209190910151600e909101559c9b505050505050505050505050565b6040516323b872dd60e01b81526001600160a01b038481166004830152306024830152604482018390528316906323b872dd906064016020604051808303816000875af1158015613fa4573d6000803e3d6000fd5b505050506040513d601f19601f82011682018060405250810190613fc89190615351565b6119e15760405162461bcd60e51b8152602060048201526016602482015275151c985b9cd9995c881b5d5cdd081b9bdd0819985a5b60521b604482015260640161074a565b600060ca84815481106140225761402261526f565b60009182526020822060cd54600f92909202016001810154604051631847c06b60e01b81526001600160a01b03918216600482015291945090911690631847c06b90602401602060405180830381865afa158015614084573d6000803e3d6000fd5b505050506040513d601f19601f820116820180604052508101906140a8919061521f565b60cd546002840154604051631847c06b60e01b81526001600160a01b039182166004820152929350600092911690631847c06b90602401602060405180830381865afa1580156140fc573d6000803e3d6000fd5b505050506040513d601f19601f82011682018060405250810190614120919061521f565b90507f1ccb16db9d1499f0b4e030d49bd6575a6ac51f3970af8752ac277fdf4505763b8683838660030160009054906101000a90046001600160a01b03168760040154886005015460ce60149054906101000a900461ffff168a60070160029054906101000a900461ffff168b60070160049054906101000a900461ffff168c600c0160019054906101000a90046001600160a01b03168d600d018e600e01546040516141d89c9b9a99989796959493929190615a8d565b60405180910390a1857f61606860eb6c87306811e2695215385101daab53bd6ab4e9f9049aead9363c7d866040516142109190615778565b60405180910390a26005830154604080519182526020820186905281018790527fffc7643b52fc7134d23e37eac3c5c4bdad5cf04655528f24663504e15adc4a4a9060600160405180910390a1505050505050565b600060ca838154811061427a5761427a61526f565b60009182526020909120600c600f90920201908101805460ff19166003179081905560405163c13517e160e01b81529192506001600160a01b036101009091041690819063c13517e19085906142da90600290600d880190600401615b14565b60206040518083038185885af11580156142f8573d6000803e3d6000fd5b50505050506040513d601f19601f8201168201806040525081019061431d919061521f565b60088301818155600091825260d0602090815260409283902087905590548251878152918201879052916001600160a01b038416917f74baab670a4015ab2f1b467c5252a96141a2573f2908e58a92081e80d3cfde3d910160405180910390a3828260090154111561442857600083836009015461439b9190615453565b6009840185905560018401546040519192506001600160a01b0316908290600081818185875af1925050503d80600081146143f2576040519150601f19603f3d011682016040523d82523d6000602084013e6143f7565b606091505b50505084600080516020615bda833981519152600160003460405161441e93929190615722565b60405180910390a2505b8282600a015411156144d25760008383600a01546144469190615453565b600a840185905560028401546040519192506001600160a01b0316908290600081818185875af1925050503d806000811461449d576040519150601f19603f3d011682016040523d82523d6000602084013e6144a2565b606091505b50505084600080516020615bda833981519152600180346040516144c893929190615722565b60405180910390a2505b50505050565b603380546001600160a01b038381166001600160a01b0319831681179093556040519116919082907f8be0079c531659141344cd1fd0a4f28419497f9722a3daafe3b4186f6b6457e090600090a35050565b600061271061ffff16828461010001518561012001518660e0015161454f9190615b30565b6145599190615b30565b61ffff166145679190615934565b614571919061578b565b61457b90836156ff565b905061459083602001518460600151836147bf565b7f7eb4d07819d8300e8f1d0a2a11814657be694ee6dbfd0208fdabed36a19e954f836000015160018486606001518760a001516040516145d495949392919061594b565b60405180910390a16119e18360a001518460800151614826565b6001600160a01b038216600003614635576040516001600160a01b0384169082156108fc029083906000818181858888f193505050501580156144d2573d6000803e3d6000fd5b60405163a9059cbb60e01b81526001600160a01b0384811660048301526024820183905283169063a9059cbb906044016020604051808303816000875af1158015614684573d6000803e3d6000fd5b505050506040513d601f19601f820116820180604052508101906144d29190615351565b600054610100900460ff166146cf5760405162461bcd60e51b815260040161074a90615b52565b6119f86149cb565b600054610100900460ff166119f85760405162461bcd60e51b815260040161074a90615b52565b6001600160a01b0381163b61476b5760405162461bcd60e51b815260206004820152602d60248201527f455243313936373a206e657720696d706c656d656e746174696f6e206973206e60448201526c1bdd08184818dbdb9d1c9858dd609a1b606482015260840161074a565b600080516020615bba83398151915280546001600160a01b0319166001600160a01b0392909216919091179055565b6147a383614a02565b6000825111806147b05750805b156119e1576144d28383614a42565b6001600160a01b038216600003614635576040516001600160a01b038416908290600081818185875af1925050503d8060008114614819576040519150601f19603f3d011682016040523d82523d6000602084013e61481e565b606091505b505050505050565b806000036112545760cc54604051631271956760e21b8152600481018490526001600160a01b03909116906349c6559c90602401600060405180830381600087803b15801561487457600080fd5b505af1158015614888573d6000803e3d6000fd5b505050507f6bef1b5e95b741d6e665eb9b5c2d3e1203c46a771451055a9d41e0b8ff4510b7826040516148bd91815260200190565b60405180910390a15050565b6148d1614c40565b60cc5460405163aba2100960e01b815260048101859052602481018490526001600160a01b039091169063aba2100990604401600060405180830381865afa158015614921573d6000803e3d6000fd5b505050506040513d6000823e601f3d908101601f19168201604052614949919081019061587a565b90505b92915050565b61495a614c84565b60cc5460405163ef0e239b60e01b8152600481018490526001600160a01b039091169063ef0e239b90602401600060405180830381865afa1580156149a3573d6000803e3d6000fd5b505050506040513d6000823e601f3d908101601f1916820160405261494c91908101906157bc565b600054610100900460ff166149f25760405162461bcd60e51b815260040161074a90615b52565b6119f86149fd612ddb565b6144d8565b614a0b816146fe565b6040516001600160a01b038216907fbc7cd75a20ee27fd9adebab32041f755214dbc6bffa90cc0225b39da2e5c2d3b90600090a250565b60606001600160a01b0383163b614aaa5760405162461bcd60e51b815260206004820152602660248201527f416464726573733a2064656c65676174652063616c6c20746f206e6f6e2d636f6044820152651b9d1c9858dd60d21b606482015260840161074a565b600080846001600160a01b031684604051614ac59190615b9d565b600060405180830381855af49150503d8060008114614b00576040519150601f19603f3d011682016040523d82523d6000602084013e614b05565b606091505b5091509150614b2d8282604051806060016040528060278152602001615bfa60279139614b36565b95945050505050565b60608315614b455750816115b6565b6115b68383815115614b5a5781518083602001fd5b8060405162461bcd60e51b815260040161074a9190615778565b6040518061024001604052806000815260200160006001600160a01b0316815260200160006001600160a01b0316815260200160006001600160a01b03168152602001600081526020016000815260200160008152602001600061ffff168152602001600061ffff168152602001600061ffff1681526020016000815260200160008152602001600081526020016000815260200160006004811115614c1c57614c1c614d15565b815260200160006001600160a01b0316815260200160608152602001600081525090565b6040805160c0810190915280600081526020016000815260200160006001600160a01b0316815260200160008152602001600061ffff168152602001606081525090565b6040805161010081019091528060008152602001600081526020016000815260200160008152602001606081526020016000815260200160008152602001600081525090565b6001600160a01b038116811461042f57600080fd5b600060208284031215614cf157600080fd5b81356115b681614cca565b600060208284031215614d0e57600080fd5b5035919050565b634e487b7160e01b600052602160045260246000fd5b60058110614d3b57614d3b614d15565b9052565b60005b83811015614d5a578181015183820152602001614d42565b50506000910152565b60008151808452614d7b816020860160208601614d3f565b601f01601f19169290920160200192915050565b602081528151602082015260006020830151614db660408401826001600160a01b03169052565b5060408301516001600160a01b03811660608401525060608301516001600160a01b038116608084015250608083015160a083015260a083015160c083015260c083015160e083015260e0830151610100614e168185018361ffff169052565b8401519050610120614e2d8482018361ffff169052565b8401519050610140614e448482018361ffff169052565b84015161016084810191909152840151610180808501919091528401516101a0808501919091528401516101c08085019190915284015190506101e0614e8c81850183614d2b565b8401519050610200614ea8848201836001600160a01b03169052565b808501519150506102406102208181860152614ec8610260860184614d63565b9501519301929092525090919050565b60008060408385031215614eeb57600080fd5b50508035926020909101359150565b600080600060608486031215614f0f57600080fd5b505081359360208301359350604090920135919050565b634e487b7160e01b600052604160045260246000fd5b604051610140810167ffffffffffffffff81118282101715614f6057614f60614f26565b60405290565b604051610100810167ffffffffffffffff81118282101715614f6057614f60614f26565b60405160c0810167ffffffffffffffff81118282101715614f6057614f60614f26565b604051601f8201601f1916810167ffffffffffffffff81118282101715614fd657614fd6614f26565b604052919050565b600067ffffffffffffffff821115614ff857614ff8614f26565b50601f01601f191660200190565b600061501961501484614fde565b614fad565b905082815283838301111561502d57600080fd5b828260208301376000602084830101529392505050565b600082601f83011261505557600080fd5b61494983833560208501615006565b60008060006060848603121561507957600080fd5b833567ffffffffffffffff81111561509057600080fd5b61509c86828701615044565b9660208601359650604090950135949350505050565b600080604083850312156150c557600080fd5b82356150d081614cca565b9150602083013567ffffffffffffffff8111156150ec57600080fd5b8301601f810185136150fd57600080fd5b61510c85823560208401615006565b9150509250929050565b60008060006060848603121561512b57600080fd5b8335925060208401359150604084013567ffffffffffffffff81111561515057600080fd5b61515c86828701615044565b9150509250925092565b6000806040838503121561517957600080fd5b82359150602083013561518b81614cca565b809150509250929050565b61ffff8116811461042f57600080fd5b6000602082840312156151b857600080fd5b81356115b681615196565b600080600080608085870312156151d957600080fd5b84356151e481614cca565b935060208501356151f481614cca565b9250604085013561520481614cca565b9150606085013561521481614cca565b939692955090935050565b60006020828403121561523157600080fd5b5051919050565b6020808252601b908201527f4e6f7420612076616c6964207472616e73616374696f6e2069642e0000000000604082015260600190565b634e487b7160e01b600052603260045260246000fd5b600181811c9082168061529957607f821691505b60208210810361071b57634e487b7160e01b600052602260045260246000fd5b6020808252602c908201527f46756e6374696f6e206d7573742062652063616c6c6564207468726f7567682060408201526b19195b1959d85d1958d85b1b60a21b606082015260800190565b6020808252602c908201527f46756e6374696f6e206d7573742062652063616c6c6564207468726f7567682060408201526b6163746976652070726f787960a01b606082015260800190565b60006020828403121561536357600080fd5b815180151581146115b657600080fd5b6020808252601590820152744e6f74206f776e6572206f722064656c656761746560581b604082015260600190565b80516153ad81614cca565b919050565b6000602082840312156153c457600080fd5b81516115b681614cca565b6020808252600e908201526d20b1b1b2b9b9903232b734b2b21760911b604082015260600190565b60208082526026908201527f546865207472616e73616374696f6e2073686f756c646e277420626520646973604082015265383aba32b21760d11b606082015260800190565b634e487b7160e01b600052601160045260246000fd5b8181038181111561494c5761494c61543d565b600082601f83011261547757600080fd5b815161548561501482614fde565b81815284602083860101111561549a57600080fd5b613ca0826020830160208701614d3f565b80516153ad81615196565b6000602082840312156154c857600080fd5b815167ffffffffffffffff808211156154e057600080fd5b9083019061014082860312156154f557600080fd5b6154fd614f3c565b8251815260208301518281111561551357600080fd5b61551f87828601615466565b60208301525060408301518281111561553757600080fd5b61554387828601615466565b604083015250615555606084016154ab565b6060820152615566608084016154ab565b608082015260a083015160a082015260c083015160c082015261558b60e084016153a2565b60e082015261010080840151838111156155a457600080fd5b6155b088828701615466565b91830191909152506101209283015192810192909252509392505050565b60208082526013908201527220b93134ba3930ba37b9103737ba1039b2ba1760691b604082015260600190565b6020808252604e908201527f446973707574652068617320616c7265616479206265656e206372656174656460408201527f206f72206265636175736520746865207472616e73616374696f6e206861732060608201526d3132b2b71032bc32b1baba32b21760911b608082015260a00190565b6000815461567c81615285565b80855260206001838116801561569957600181146156b3576156e1565b60ff1985168884015283151560051b8801830195506156e1565b866000528260002060005b858110156156d95781548a82018601529083019084016156be565b890184019650505b505050505092915050565b602081526000614949602083018461566f565b8082018082111561494c5761494c61543d565b6002811061042f5761042f614d15565b6060810161572f85615712565b84825261573b84615712565b602082019390935260400152919050565b6020810161575983615712565b91905290565b828152604060208201526000613ca0604083018461566f565b6020815260006149496020830184614d63565b6000826157a857634e487b7160e01b600052601260045260246000fd5b500490565b8051600581106153ad57600080fd5b6000602082840312156157ce57600080fd5b815167ffffffffffffffff808211156157e657600080fd5b9083019061010082860312156157fb57600080fd5b615803614f66565b61580c836157ad565b815260208301516020820152604083015160408201526060830151606082015260808301518281111561583e57600080fd5b61584a87828601615466565b60808301525060a083015160a082015260c083015160c082015260e083015160e082015280935050505092915050565b60006020828403121561588c57600080fd5b815167ffffffffffffffff808211156158a457600080fd5b9083019060c082860312156158b857600080fd5b6158c0614f8a565b8251600381106158cf57600080fd5b8152602083810151908201526158e7604084016153a2565b604082015260608301516060820152615902608084016154ab565b608082015260a08301518281111561591957600080fd5b61592587828601615466565b60a08301525095945050505050565b808202811582820484141761494c5761494c61543d565b85815260a0810161595b86615712565b602082019590955260408101939093526001600160a01b03919091166060830152608090910152919050565b601f8211156119e157600081815260208120601f850160051c810160208610156159ae5750805b601f850160051c820191505b8181101561481e578281556001016159ba565b815167ffffffffffffffff8111156159e7576159e7614f26565b6159fb816159f58454615285565b84615987565b602080601f831160018114615a305760008415615a185750858301515b600019600386901b1c1916600185901b17855561481e565b600085815260208120601f198616915b82811015615a5f57888601518255948401946001909101908401615a40565b5085821015615a7d5787850151600019600388901b60f8161c191681555b5050505050600190811b01905550565b8c8152602081018c9052604081018b90526001600160a01b038a81166060830152608082018a905260a0820189905261ffff88811660c084015287811660e0840152861661010083015284166101208201526101806101408201819052600090615af98382018661566f565b915050826101608301529d9c50505050505050505050505050565b60ff83168152604060208201526000613ca0604083018461566f565b61ffff818116838216019080821115615b4b57615b4b61543d565b5092915050565b6020808252602b908201527f496e697469616c697a61626c653a20636f6e7472616374206973206e6f74206960408201526a6e697469616c697a696e6760a81b606082015260800190565b60008251615baf818460208701614d3f565b919091019291505056fe360894a13ba1a3210667c828492db98dca3e2076cc3735a920a3ca505d382bbc73e533bc8a993eccbc1023beebad0020f6b6c3639f83062f00fc194b4d1172ba416464726573733a206c6f772d6c6576656c2064656c65676174652063616c6c206661696c6564a2646970667358221220550ba934606cf3fb6f7f73df0f895a7697ac8bf80bc75acda3a4ee5ef3e61a8f64736f6c63430008120033",
  "linkReferences": {},
  "deployedLinkReferences": {}
}