{
  "_format": "hh-sol-artifact-1",
  "contractName": "TalentLayerID",
  "sourceName": "contracts/TalentLayerID.sol",
  "abi": [
    {
      "inputs": [],
      "stateMutability": "nonpayable",
      "type": "constructor"
    },
    {
      "inputs": [],
      "name": "HandleContainsInvalidCharacters",
      "type": "error"
    },
    {
      "inputs": [],
      "name": "HandleFirstCharInvalid",
      "type": "error"
    },
    {
      "inputs": [],
      "name": "HandleLengthInvalid",
      "type": "error"
    },
    {
      "anonymous": false,
      "inputs": [
        {
          "indexed": false,
          "internalType": "address",
          "name": "previousAdmin",
          "type": "address"
        },
        {
          "indexed": false,
          "internalType": "address",
          "name": "newAdmin",
          "type": "address"
        }
      ],
      "name": "AdminChanged",
      "type": "event"
    },
    {
      "anonymous": false,
      "inputs": [
        {
          "indexed": true,
          "internalType": "address",
          "name": "owner",
          "type": "address"
        },
        {
          "indexed": true,
          "internalType": "address",
          "name": "approved",
          "type": "address"
        },
        {
          "indexed": true,
          "internalType": "uint256",
          "name": "tokenId",
          "type": "uint256"
        }
      ],
      "name": "Approval",
      "type": "event"
    },
    {
      "anonymous": false,
      "inputs": [
        {
          "indexed": true,
          "internalType": "address",
          "name": "owner",
          "type": "address"
        },
        {
          "indexed": true,
          "internalType": "address",
          "name": "operator",
          "type": "address"
        },
        {
          "indexed": false,
          "internalType": "bool",
          "name": "approved",
          "type": "bool"
        }
      ],
      "name": "ApprovalForAll",
      "type": "event"
    },
    {
      "anonymous": false,
      "inputs": [
        {
          "indexed": true,
          "internalType": "address",
          "name": "beacon",
          "type": "address"
        }
      ],
      "name": "BeaconUpgraded",
      "type": "event"
    },
    {
      "anonymous": false,
      "inputs": [
        {
          "indexed": true,
          "internalType": "uint256",
          "name": "_profileId",
          "type": "uint256"
        },
        {
          "indexed": false,
          "internalType": "string",
          "name": "_newCid",
          "type": "string"
        }
      ],
      "name": "CidUpdated",
      "type": "event"
    },
    {
      "anonymous": false,
      "inputs": [
        {
          "indexed": false,
          "internalType": "uint256",
          "name": "_profileId",
          "type": "uint256"
        },
        {
          "indexed": false,
          "internalType": "address",
          "name": "_delegate",
          "type": "address"
        }
      ],
      "name": "DelegateAdded",
      "type": "event"
    },
    {
      "anonymous": false,
      "inputs": [
        {
          "indexed": false,
          "internalType": "uint256",
          "name": "_profileId",
          "type": "uint256"
        },
        {
          "indexed": false,
          "internalType": "address",
          "name": "_delegate",
          "type": "address"
        }
      ],
      "name": "DelegateRemoved",
      "type": "event"
    },
    {
      "anonymous": false,
      "inputs": [
        {
          "indexed": false,
          "internalType": "uint8",
          "name": "version",
          "type": "uint8"
        }
      ],
      "name": "Initialized",
      "type": "event"
    },
    {
      "anonymous": false,
      "inputs": [
        {
          "indexed": true,
          "internalType": "address",
          "name": "_user",
          "type": "address"
        },
        {
          "indexed": false,
          "internalType": "uint256",
          "name": "_profileId",
          "type": "uint256"
        },
        {
          "indexed": false,
          "internalType": "string",
          "name": "_handle",
          "type": "string"
        },
        {
          "indexed": false,
          "internalType": "uint256",
          "name": "_platformId",
          "type": "uint256"
        },
        {
          "indexed": false,
          "internalType": "uint256",
          "name": "_fee",
          "type": "uint256"
        }
      ],
      "name": "Mint",
      "type": "event"
    },
    {
      "anonymous": false,
      "inputs": [
        {
          "indexed": false,
          "internalType": "uint256",
          "name": "_mintFee",
          "type": "uint256"
        }
      ],
      "name": "MintFeeUpdated",
      "type": "event"
    },
    {
      "anonymous": false,
      "inputs": [
        {
          "indexed": false,
          "internalType": "enum TalentLayerID.MintStatus",
          "name": "_mintStatus",
          "type": "uint8"
        }
      ],
      "name": "MintStatusUpdated",
      "type": "event"
    },
    {
      "anonymous": false,
      "inputs": [
        {
          "indexed": true,
          "internalType": "address",
          "name": "previousOwner",
          "type": "address"
        },
        {
          "indexed": true,
          "internalType": "address",
          "name": "newOwner",
          "type": "address"
        }
      ],
      "name": "OwnershipTransferred",
      "type": "event"
    },
    {
      "anonymous": false,
      "inputs": [
        {
          "indexed": false,
          "internalType": "uint256",
          "name": "_price",
          "type": "uint256"
        }
      ],
      "name": "ShortHandlesMaxPriceUpdated",
      "type": "event"
    },
    {
      "anonymous": false,
      "inputs": [
        {
          "indexed": true,
          "internalType": "address",
          "name": "from",
          "type": "address"
        },
        {
          "indexed": true,
          "internalType": "address",
          "name": "to",
          "type": "address"
        },
        {
          "indexed": true,
          "internalType": "uint256",
          "name": "tokenId",
          "type": "uint256"
        }
      ],
      "name": "Transfer",
      "type": "event"
    },
    {
      "anonymous": false,
      "inputs": [
        {
          "indexed": false,
          "internalType": "address",
          "name": "forwarder",
          "type": "address"
        }
      ],
      "name": "TrustedForwarderAdded",
      "type": "event"
    },
    {
      "anonymous": false,
      "inputs": [
        {
          "indexed": false,
          "internalType": "address",
          "name": "forwarder",
          "type": "address"
        }
      ],
      "name": "TrustedForwarderRemoved",
      "type": "event"
    },
    {
      "anonymous": false,
      "inputs": [
        {
          "indexed": true,
          "internalType": "address",
          "name": "implementation",
          "type": "address"
        }
      ],
      "name": "Upgraded",
      "type": "event"
    },
    {
      "inputs": [
        {
          "internalType": "uint256",
          "name": "_profileId",
          "type": "uint256"
        },
        {
          "internalType": "address",
          "name": "_delegate",
          "type": "address"
        }
      ],
      "name": "addDelegate",
      "outputs": [],
      "stateMutability": "nonpayable",
      "type": "function"
    },
    {
      "inputs": [
        {
          "internalType": "address",
          "name": "_forwarder",
          "type": "address"
        }
      ],
      "name": "addTrustedForwarder",
      "outputs": [],
      "stateMutability": "nonpayable",
      "type": "function"
    },
    {
      "inputs": [
        {
          "internalType": "address",
          "name": "to",
          "type": "address"
        },
        {
          "internalType": "uint256",
          "name": "tokenId",
          "type": "uint256"
        }
      ],
      "name": "approve",
      "outputs": [],
      "stateMutability": "nonpayable",
      "type": "function"
    },
    {
      "inputs": [
        {
          "internalType": "address",
          "name": "owner",
          "type": "address"
        }
      ],
      "name": "balanceOf",
      "outputs": [
        {
          "internalType": "uint256",
          "name": "",
          "type": "uint256"
        }
      ],
      "stateMutability": "view",
      "type": "function"
    },
    {
      "inputs": [
        {
          "internalType": "uint256",
          "name": "_platformId",
          "type": "uint256"
        },
        {
          "internalType": "address",
          "name": "_userAddress",
          "type": "address"
        },
        {
          "internalType": "string",
          "name": "_handle",
          "type": "string"
        }
      ],
      "name": "freeMint",
      "outputs": [
        {
          "internalType": "uint256",
          "name": "",
          "type": "uint256"
        }
      ],
      "stateMutability": "nonpayable",
      "type": "function"
    },
    {
      "inputs": [
        {
          "internalType": "uint256",
          "name": "tokenId",
          "type": "uint256"
        }
      ],
      "name": "getApproved",
      "outputs": [
        {
          "internalType": "address",
          "name": "",
          "type": "address"
        }
      ],
      "stateMutability": "view",
      "type": "function"
    },
    {
      "inputs": [
        {
          "internalType": "string",
          "name": "_handle",
          "type": "string"
        }
      ],
      "name": "getHandlePrice",
      "outputs": [
        {
          "internalType": "uint256",
          "name": "",
          "type": "uint256"
        }
      ],
      "stateMutability": "view",
      "type": "function"
    },
    {
      "inputs": [
        {
          "internalType": "address",
          "name": "_address",
          "type": "address"
        }
      ],
      "name": "getOriginatorPlatformIdByAddress",
      "outputs": [
        {
          "internalType": "uint256",
          "name": "",
          "type": "uint256"
        }
      ],
      "stateMutability": "view",
      "type": "function"
    },
    {
      "inputs": [
        {
          "internalType": "address",
          "name": "",
          "type": "address"
        }
      ],
      "name": "ids",
      "outputs": [
        {
          "internalType": "uint256",
          "name": "",
          "type": "uint256"
        }
      ],
      "stateMutability": "view",
      "type": "function"
    },
    {
      "inputs": [
        {
          "internalType": "address",
          "name": "_talentLayerPlatformIdAddress",
          "type": "address"
        }
      ],
      "name": "initialize",
      "outputs": [],
      "stateMutability": "nonpayable",
      "type": "function"
    },
    {
      "inputs": [
        {
          "internalType": "address",
          "name": "owner",
          "type": "address"
        },
        {
          "internalType": "address",
          "name": "operator",
          "type": "address"
        }
      ],
      "name": "isApprovedForAll",
      "outputs": [
        {
          "internalType": "bool",
          "name": "",
          "type": "bool"
        }
      ],
      "stateMutability": "view",
      "type": "function"
    },
    {
      "inputs": [
        {
          "internalType": "uint256",
          "name": "_profileId",
          "type": "uint256"
        },
        {
          "internalType": "address",
          "name": "_address",
          "type": "address"
        }
      ],
      "name": "isDelegate",
      "outputs": [
        {
          "internalType": "bool",
          "name": "",
          "type": "bool"
        }
      ],
      "stateMutability": "view",
      "type": "function"
    },
    {
      "inputs": [
        {
          "internalType": "uint256",
          "name": "_profileId",
          "type": "uint256"
        },
        {
          "internalType": "address",
          "name": "_address",
          "type": "address"
        }
      ],
      "name": "isOwnerOrDelegate",
      "outputs": [
        {
          "internalType": "bool",
          "name": "",
          "type": "bool"
        }
      ],
      "stateMutability": "view",
      "type": "function"
    },
    {
      "inputs": [
        {
          "internalType": "address",
          "name": "forwarder",
          "type": "address"
        }
      ],
      "name": "isTrustedForwarder",
      "outputs": [
        {
          "internalType": "bool",
          "name": "",
          "type": "bool"
        }
      ],
      "stateMutability": "view",
      "type": "function"
    },
    {
      "inputs": [
        {
          "internalType": "uint256",
          "name": "_profileId",
          "type": "uint256"
        }
      ],
      "name": "isValid",
      "outputs": [],
      "stateMutability": "view",
      "type": "function"
    },
    {
      "inputs": [
        {
          "internalType": "address",
          "name": "_address",
          "type": "address"
        },
        {
          "internalType": "string",
          "name": "_handle",
          "type": "string"
        },
        {
          "internalType": "bytes32[]",
          "name": "_proof",
          "type": "bytes32[]"
        }
      ],
      "name": "isWhitelisted",
      "outputs": [
        {
          "internalType": "bool",
          "name": "",
          "type": "bool"
        }
      ],
      "stateMutability": "view",
      "type": "function"
    },
    {
      "inputs": [
        {
          "internalType": "uint256",
          "name": "_platformId",
          "type": "uint256"
        },
        {
          "internalType": "string",
          "name": "_handle",
          "type": "string"
        }
      ],
      "name": "mint",
      "outputs": [
        {
          "internalType": "uint256",
          "name": "",
          "type": "uint256"
        }
      ],
      "stateMutability": "payable",
      "type": "function"
    },
    {
      "inputs": [],
      "name": "mintFee",
      "outputs": [
        {
          "internalType": "uint256",
          "name": "",
          "type": "uint256"
        }
      ],
      "stateMutability": "view",
      "type": "function"
    },
    {
      "inputs": [],
      "name": "mintStatus",
      "outputs": [
        {
          "internalType": "enum TalentLayerID.MintStatus",
          "name": "",
          "type": "uint8"
        }
      ],
      "stateMutability": "view",
      "type": "function"
    },
    {
      "inputs": [],
      "name": "name",
      "outputs": [
        {
          "internalType": "string",
          "name": "",
          "type": "string"
        }
      ],
      "stateMutability": "view",
      "type": "function"
    },
    {
      "inputs": [
        {
          "internalType": "address",
          "name": "_user",
          "type": "address"
        }
      ],
      "name": "numberMinted",
      "outputs": [
        {
          "internalType": "uint256",
          "name": "",
          "type": "uint256"
        }
      ],
      "stateMutability": "view",
      "type": "function"
    },
    {
      "inputs": [],
      "name": "owner",
      "outputs": [
        {
          "internalType": "address",
          "name": "",
          "type": "address"
        }
      ],
      "stateMutability": "view",
      "type": "function"
    },
    {
      "inputs": [
        {
          "internalType": "uint256",
          "name": "tokenId",
          "type": "uint256"
        }
      ],
      "name": "ownerOf",
      "outputs": [
        {
          "internalType": "address",
          "name": "",
          "type": "address"
        }
      ],
      "stateMutability": "view",
      "type": "function"
    },
    {
      "inputs": [
        {
          "internalType": "uint256",
          "name": "",
          "type": "uint256"
        }
      ],
      "name": "profiles",
      "outputs": [
        {
          "internalType": "uint256",
          "name": "id",
          "type": "uint256"
        },
        {
          "internalType": "string",
          "name": "handle",
          "type": "string"
        },
        {
          "internalType": "uint256",
          "name": "platformId",
          "type": "uint256"
        },
        {
          "internalType": "string",
          "name": "dataUri",
          "type": "string"
        }
      ],
      "stateMutability": "view",
      "type": "function"
    },
    {
      "inputs": [],
      "name": "proxiableUUID",
      "outputs": [
        {
          "internalType": "bytes32",
          "name": "",
          "type": "bytes32"
        }
      ],
      "stateMutability": "view",
      "type": "function"
    },
    {
      "inputs": [
        {
          "internalType": "uint256",
          "name": "_profileId",
          "type": "uint256"
        },
        {
          "internalType": "address",
          "name": "_delegate",
          "type": "address"
        }
      ],
      "name": "removeDelegate",
      "outputs": [],
      "stateMutability": "nonpayable",
      "type": "function"
    },
    {
      "inputs": [
        {
          "internalType": "address",
          "name": "_forwarder",
          "type": "address"
        }
      ],
      "name": "removeTrustedForwarder",
      "outputs": [],
      "stateMutability": "nonpayable",
      "type": "function"
    },
    {
      "inputs": [],
      "name": "renounceOwnership",
      "outputs": [],
      "stateMutability": "nonpayable",
      "type": "function"
    },
    {
      "inputs": [
        {
          "internalType": "address",
          "name": "",
          "type": "address"
        },
        {
          "internalType": "address",
          "name": "",
          "type": "address"
        },
        {
          "internalType": "uint256",
          "name": "",
          "type": "uint256"
        }
      ],
      "name": "safeTransferFrom",
      "outputs": [],
      "stateMutability": "nonpayable",
      "type": "function"
    },
    {
      "inputs": [
        {
          "internalType": "address",
          "name": "",
          "type": "address"
        },
        {
          "internalType": "address",
          "name": "",
          "type": "address"
        },
        {
          "internalType": "uint256",
          "name": "",
          "type": "uint256"
        },
        {
          "internalType": "bytes",
          "name": "",
          "type": "bytes"
        }
      ],
      "name": "safeTransferFrom",
      "outputs": [],
      "stateMutability": "nonpayable",
      "type": "function"
    },
    {
      "inputs": [
        {
          "internalType": "address",
          "name": "operator",
          "type": "address"
        },
        {
          "internalType": "bool",
          "name": "approved",
          "type": "bool"
        }
      ],
      "name": "setApprovalForAll",
      "outputs": [],
      "stateMutability": "nonpayable",
      "type": "function"
    },
    {
      "inputs": [
        {
          "internalType": "bytes32",
          "name": "root",
          "type": "bytes32"
        }
      ],
      "name": "setWhitelistMerkleRoot",
      "outputs": [],
      "stateMutability": "nonpayable",
      "type": "function"
    },
    {
      "inputs": [
        {
          "internalType": "bytes4",
          "name": "interfaceId",
          "type": "bytes4"
        }
      ],
      "name": "supportsInterface",
      "outputs": [
        {
          "internalType": "bool",
          "name": "",
          "type": "bool"
        }
      ],
      "stateMutability": "view",
      "type": "function"
    },
    {
      "inputs": [],
      "name": "symbol",
      "outputs": [
        {
          "internalType": "string",
          "name": "",
          "type": "string"
        }
      ],
      "stateMutability": "view",
      "type": "function"
    },
    {
      "inputs": [
        {
          "internalType": "string",
          "name": "",
          "type": "string"
        }
      ],
      "name": "takenHandles",
      "outputs": [
        {
          "internalType": "bool",
          "name": "",
          "type": "bool"
        }
      ],
      "stateMutability": "view",
      "type": "function"
    },
    {
      "inputs": [],
      "name": "talentLayerPlatformIdContract",
      "outputs": [
        {
          "internalType": "contract ITalentLayerPlatformID",
          "name": "",
          "type": "address"
        }
      ],
      "stateMutability": "view",
      "type": "function"
    },
    {
      "inputs": [
        {
          "internalType": "uint256",
          "name": "tokenId",
          "type": "uint256"
        }
      ],
      "name": "tokenURI",
      "outputs": [
        {
          "internalType": "string",
          "name": "",
          "type": "string"
        }
      ],
      "stateMutability": "view",
      "type": "function"
    },
    {
      "inputs": [],
      "name": "totalSupply",
      "outputs": [
        {
          "internalType": "uint256",
          "name": "",
          "type": "uint256"
        }
      ],
      "stateMutability": "view",
      "type": "function"
    },
    {
      "inputs": [
        {
          "internalType": "address",
          "name": "",
          "type": "address"
        },
        {
          "internalType": "address",
          "name": "",
          "type": "address"
        },
        {
          "internalType": "uint256",
          "name": "",
          "type": "uint256"
        }
      ],
      "name": "transferFrom",
      "outputs": [],
      "stateMutability": "nonpayable",
      "type": "function"
    },
    {
      "inputs": [
        {
          "internalType": "address",
          "name": "newOwner",
          "type": "address"
        }
      ],
      "name": "transferOwnership",
      "outputs": [],
      "stateMutability": "nonpayable",
      "type": "function"
    },
    {
      "inputs": [
        {
          "internalType": "uint256",
          "name": "_mintFee",
          "type": "uint256"
        }
      ],
      "name": "updateMintFee",
      "outputs": [],
      "stateMutability": "nonpayable",
      "type": "function"
    },
    {
      "inputs": [
        {
          "internalType": "enum TalentLayerID.MintStatus",
          "name": "_mintStatus",
          "type": "uint8"
        }
      ],
      "name": "updateMintStatus",
      "outputs": [],
      "stateMutability": "nonpayable",
      "type": "function"
    },
    {
      "inputs": [
        {
          "internalType": "uint256",
          "name": "_profileId",
          "type": "uint256"
        },
        {
          "internalType": "string",
          "name": "_newCid",
          "type": "string"
        }
      ],
      "name": "updateProfileData",
      "outputs": [],
      "stateMutability": "nonpayable",
      "type": "function"
    },
    {
      "inputs": [
        {
          "internalType": "uint256",
          "name": "_shortHandlesMaxPrice",
          "type": "uint256"
        }
      ],
      "name": "updateShortHandlesMaxPrice",
      "outputs": [],
      "stateMutability": "nonpayable",
      "type": "function"
    },
    {
      "inputs": [
        {
          "internalType": "address",
          "name": "newImplementation",
          "type": "address"
        }
      ],
      "name": "upgradeTo",
      "outputs": [],
      "stateMutability": "nonpayable",
      "type": "function"
    },
    {
      "inputs": [
        {
          "internalType": "address",
          "name": "newImplementation",
          "type": "address"
        },
        {
          "internalType": "bytes",
          "name": "data",
          "type": "bytes"
        }
      ],
      "name": "upgradeToAndCall",
      "outputs": [],
      "stateMutability": "payable",
      "type": "function"
    },
    {
      "inputs": [
        {
          "internalType": "uint256",
          "name": "_platformId",
          "type": "uint256"
        },
        {
          "internalType": "string",
          "name": "_handle",
          "type": "string"
        },
        {
          "internalType": "bytes32[]",
          "name": "_proof",
          "type": "bytes32[]"
        }
      ],
      "name": "whitelistMint",
      "outputs": [
        {
          "internalType": "uint256",
          "name": "",
          "type": "uint256"
        }
      ],
      "stateMutability": "payable",
      "type": "function"
    },
    {
      "inputs": [],
      "name": "withdraw",
      "outputs": [],
      "stateMutability": "nonpayable",
      "type": "function"
    }
  ],
  "bytecode": "0x60a0604052306080523480156200001557600080fd5b506200002062000026565b620000e8565b600054610100900460ff1615620000935760405162461bcd60e51b815260206004820152602760248201527f496e697469616c697a61626c653a20636f6e747261637420697320696e697469604482015266616c697a696e6760c81b606482015260840160405180910390fd5b60005460ff9081161015620000e6576000805460ff191660ff9081179091556040519081527f7f26b83ff96e1f2b6a682f133852f6798a09c465da95921460cefb38474024989060200160405180910390a15b565b60805161437b62000120600039600081816110d101528181611111015281816112bb015281816112fb015261138e015261437b6000f3fe6080604052600436106102935760003560e01c80636352211e1161015a578063bd32fb66116100c1578063eab5d4261161007a578063eab5d42614610836578063ebf247f91461087d578063f160068f1461089d578063f2fde38b146108bd578063f577a500146108dd578063f905f154146108fd57600080fd5b8063bd32fb661461073d578063c36fe3d61461075d578063c4d66de81461078d578063c87b56dd146107ad578063dc33e681146107cd578063e985e9c5146107ed57600080fd5b806389c1694c1161011357806389c1694c146106875780638da5cb5b146106a757806395d89b41146106c55780639da3f8fd146106da578063a22cb46514610702578063b88d4fde1461072257600080fd5b80636352211e146105df57806370a08231146105ff57806370e703dd1461061f578063715018a61461063f57806377097fc81461065457806384017e521461066757600080fd5b806323b872dd116101fe5780633ccfd60b116101b75780633ccfd60b1461052157806342842e0e146104615780634f1ef2861461053657806352d1902d14610549578063572b6c051461055e5780635c4b03481461059757600080fd5b806323b872dd1461046157806326d00668146104815780632eefaa61146104a15780632fa117e5146104c15780633659cfe6146104e15780633751d89c1461050157600080fd5b806316afebe51161025057806316afebe51461038f57806318160ddd146103a25780631847c06b146103b75780631cf6239b146103e55780631f67fba6146104055780632106beec1461042557600080fd5b806301ffc9a71461029857806306fdde03146102cd578063081812fc146102ef578063095ea7b31461032757806313966db5146103495780631499f9e61461036e575b600080fd5b3480156102a457600080fd5b506102b86102b3366004613175565b61091d565b60405190151581526020015b60405180910390f35b3480156102d957600080fd5b506102e261096f565b6040516102c491906131e2565b3480156102fb57600080fd5b5061030f61030a3660046131f5565b610a01565b6040516001600160a01b0390911681526020016102c4565b34801561033357600080fd5b5061034761034236600461322a565b610a28565b005b34801561035557600080fd5b506103606101325481565b6040519081526020016102c4565b34801561037a57600080fd5b5061012e5461030f906001600160a01b031681565b61036061039d36600461329c565b610b54565b3480156103ae57600080fd5b50610360610e0f565b3480156103c357600080fd5b506103606103d2366004613342565b6101316020526000908152604090205481565b3480156103f157600080fd5b5061034761040036600461335d565b610e2c565b34801561041157600080fd5b506103476104203660046131f5565b610f09565b34801561043157600080fd5b506102b861044036600461343e565b805160208183018101805161012f8252928201919093012091525460ff1681565b34801561046d57600080fd5b5061034761047c366004613472565b610f4e565b34801561048d57600080fd5b5061034761049c366004613342565b610f96565b3480156104ad57600080fd5b506102b86104bc3660046134ae565b610ff2565b3480156104cd57600080fd5b506102b86104dc36600461335d565b611075565b3480156104ed57600080fd5b506103476104fc366004613342565b6110c7565b34801561050d57600080fd5b5061034761051c366004613342565b6111a6565b34801561052d57600080fd5b506103476111ff565b61034761054436600461358a565b6112b1565b34801561055557600080fd5b50610360611381565b34801561056a57600080fd5b506102b8610579366004613342565b6001600160a01b031660009081526065602052604090205460ff1690565b3480156105a357600080fd5b506103606105b2366004613342565b6001600160a01b031660009081526101316020908152604080832054835261013090915290206002015490565b3480156105eb57600080fd5b5061030f6105fa3660046131f5565b611434565b34801561060b57600080fd5b5061036061061a366004613342565b611494565b34801561062b57600080fd5b5061034761063a36600461335d565b61151a565b34801561064b57600080fd5b506103476115ec565b6103606106623660046135d7565b611600565b34801561067357600080fd5b506103476106823660046131f5565b6117ed565b34801561069357600080fd5b506103606106a2366004613622565b61182b565b3480156106b357600080fd5b506033546001600160a01b031661030f565b3480156106d157600080fd5b506102e261196c565b3480156106e657600080fd5b50610136546106f59060ff1681565b6040516102c49190613691565b34801561070e57600080fd5b5061034761071d3660046136b9565b61197b565b34801561072e57600080fd5b5061034761047c3660046136f5565b34801561074957600080fd5b506103476107583660046131f5565b61198d565b34801561076957600080fd5b5061077d6107783660046131f5565b61199b565b6040516102c4949392919061375c565b34801561079957600080fd5b506103476107a8366004613342565b611ad5565b3480156107b957600080fd5b506102e26107c83660046131f5565b611c77565b3480156107d957600080fd5b506103606107e8366004613342565b611c82565b3480156107f957600080fd5b506102b8610808366004613798565b6001600160a01b039182166000908152609d6020908152604080832093909416825291909152205460ff1690565b34801561084257600080fd5b506102b861085136600461335d565b6000918252610134602090815260408084206001600160a01b0393909316845291905290205460ff1690565b34801561088957600080fd5b506103606108983660046137c2565b611c8d565b3480156108a957600080fd5b506103476108b8366004613803565b611cce565b3480156108c957600080fd5b506103476108d8366004613342565b611db8565b3480156108e957600080fd5b506103476108f83660046131f5565b611e2e565b34801561090957600080fd5b50610347610918366004613833565b611e9a565b60006001600160e01b031982166380ac58cd60e01b148061094e57506001600160e01b03198216635b5e139f60e01b145b8061096957506301ffc9a760e01b6001600160e01b03198316145b92915050565b60606098805461097e90613854565b80601f01602080910402602001604051908101604052809291908181526020018280546109aa90613854565b80156109f75780601f106109cc576101008083540402835291602001916109f7565b820191906000526020600020905b8154815290600101906020018083116109da57829003601f168201915b5050505050905090565b6000610a0c82611ef6565b506000908152609c60205260409020546001600160a01b031690565b6000610a3382611434565b9050806001600160a01b0316836001600160a01b031603610aa55760405162461bcd60e51b815260206004820152602160248201527f4552433732313a20617070726f76616c20746f2063757272656e74206f776e656044820152603960f91b60648201526084015b60405180910390fd5b806001600160a01b0316610ab7611f55565b6001600160a01b03161480610ad35750610ad381610808611f55565b610b455760405162461bcd60e51b815260206004820152603d60248201527f4552433732313a20617070726f76652063616c6c6572206973206e6f7420746f60448201527f6b656e206f776e6572206f7220617070726f76656420666f7220616c6c0000006064820152608401610a9c565b610b4f8383611f5f565b505050565b6000610b5e611f55565b858588610b6a84611c82565b15610b875760405162461bcd60e51b8152600401610a9c9061388e565b61012f8383604051610b9a9291906138c3565b9081526040519081900360200190205460ff1615610bca5760405162461bcd60e51b8152600401610a9c906138d3565b8015610c2d5761012e5460405162f577a560e81b8152600481018390526001600160a01b039091169063f577a5009060240160006040518083038186803b158015610c1457600080fd5b505afa158015610c28573d6000803e3d6000fd5b505050505b610c378383611fcd565b8888610c438282611c8d565b3414610c615760405162461bcd60e51b8152600401610a9c90613901565b60016101365460ff166002811115610c7b57610c7b61367b565b14610cc85760405162461bcd60e51b815260206004820152601d60248201527f57686974656c697374206d696e74206973206e6f7420656e61626c65640000006044820152606401610a9c565b6000610cd2611f55565b9050610d56818d8d8080601f016020809104026020016040519081016040528093929190818152602001838380828437600081840152601f19601f820116905080830192505050505050508c8c80806020026020016040519081016040528093929190818152602001838360200280828437600092019190915250610ff292505050565b610d9b5760405162461bcd60e51b8152602060048201526016602482015275165bdd49dc99481b9bdd081dda1a5d195b1a5cdd195960521b6044820152606401610a9c565b610dae81610da96101335490565b6121ef565b610dfe818d8d8080601f016020809104026020016040519081016040528093929190818152602001838380828437600081840152601f19601f820116905080830192505050505050508f34612209565b9d9c50505050505050505050505050565b60006001610e1d6101335490565b610e27919061395b565b905090565b610e34611f55565b6001600160a01b0316610e4683611434565b6001600160a01b031614610e9c5760405162461bcd60e51b815260206004820152601c60248201527f4f6e6c79206f776e65722063616e206164642064656c656761746573000000006044820152606401610a9c565b6000828152610134602090815260408083206001600160a01b03851680855290835292819020805460ff191660011790558051858152918201929092527f2d678d15460f6ef62d6d85bfaf6a46d9d0d6498a0fd6ecd92d42bc2ab018103991015b60405180910390a15050565b610f116122e0565b6101378190556040518181527fa7c83a47a9702f7f1fc21a99b3be95dc10f5d00a4bca12cb54ed49b50bce1785906020015b60405180910390a150565b60405162461bcd60e51b815260206004820152601d60248201527f546f6b656e207472616e73666572206973206e6f7420616c6c6f7765640000006044820152606401610a9c565b610f9e6122e0565b6001600160a01b038116600081815260656020908152604091829020805460ff1916600117905590519182527f3ef8564460ada92419608d823c014975d98f8104d7d1e68c222967ac6814cd979101610f43565b600080611009856001600160a01b03166014612359565b8460405160200161101b92919061398a565b604051602081830303815290604052905061106a610135548260405160200161104491906139c6565b60405160208183030381529060405280519060200120856124f49092919063ffffffff16565b9150505b9392505050565b6000816001600160a01b031661108a84611434565b6001600160a01b0316148061106e5750506000918252610134602090815260408084206001600160a01b0393909316845291905290205460ff1690565b6001600160a01b037f000000000000000000000000000000000000000000000000000000000000000016300361110f5760405162461bcd60e51b8152600401610a9c906139e2565b7f00000000000000000000000000000000000000000000000000000000000000006001600160a01b03166111586000805160206142bf833981519152546001600160a01b031690565b6001600160a01b03161461117e5760405162461bcd60e51b8152600401610a9c90613a2e565b6111878161250a565b604080516000808252602082019092526111a391839190612512565b50565b6111ae6122e0565b6001600160a01b038116600081815260656020908152604091829020805460ff1916905590519182527fd2d636efcad0cea42e170256f4c5d8b1cd81e47b855557edaf44014e6cc4cee69101610f43565b6112076122e0565b6000611211611f55565b6001600160a01b03164760405160006040518083038185875af1925050503d806000811461125b576040519150601f19603f3d011682016040523d82523d6000602084013e611260565b606091505b50509050806111a35760405162461bcd60e51b815260206004820152601860248201527f4661696c656420746f20776974686472617720457468657200000000000000006044820152606401610a9c565b6001600160a01b037f00000000000000000000000000000000000000000000000000000000000000001630036112f95760405162461bcd60e51b8152600401610a9c906139e2565b7f00000000000000000000000000000000000000000000000000000000000000006001600160a01b03166113426000805160206142bf833981519152546001600160a01b031690565b6001600160a01b0316146113685760405162461bcd60e51b8152600401610a9c90613a2e565b6113718261250a565b61137d82826001612512565b5050565b6000306001600160a01b037f000000000000000000000000000000000000000000000000000000000000000016146114215760405162461bcd60e51b815260206004820152603860248201527f555550535570677261646561626c653a206d757374206e6f742062652063616c60448201527f6c6564207468726f7567682064656c656761746563616c6c00000000000000006064820152608401610a9c565b506000805160206142bf83398151915290565b6000818152609a60205260408120546001600160a01b0316806109695760405162461bcd60e51b8152602060048201526018602482015277115490cdcc8c4e881a5b9d985b1a59081d1bdad95b88125160421b6044820152606401610a9c565b60006001600160a01b0382166114fe5760405162461bcd60e51b815260206004820152602960248201527f4552433732313a2061646472657373207a65726f206973206e6f7420612076616044820152683634b21037bbb732b960b91b6064820152608401610a9c565b506001600160a01b03166000908152609b602052604090205490565b611522611f55565b6001600160a01b031661153483611434565b6001600160a01b03161461158a5760405162461bcd60e51b815260206004820152601f60248201527f4f6e6c79206f776e65722063616e2072656d6f76652064656c656761746573006044820152606401610a9c565b6000828152610134602090815260408083206001600160a01b03851680855290835292819020805460ff191690558051858152918201929092527f09f87139523b83583b15f476015dd9a27fae3a03f17202cdf77d063bef5d21c29101610efd565b6115f46122e0565b6115fe600061267d565b565b600061160a611f55565b83838661161684611c82565b156116335760405162461bcd60e51b8152600401610a9c9061388e565b61012f83836040516116469291906138c3565b9081526040519081900360200190205460ff16156116765760405162461bcd60e51b8152600401610a9c906138d3565b80156116d95761012e5460405162f577a560e81b8152600481018390526001600160a01b039091169063f577a5009060240160006040518083038186803b1580156116c057600080fd5b505afa1580156116d4573d6000803e3d6000fd5b505050505b6116e38383611fcd565b86866116ef8282611c8d565b341461170d5760405162461bcd60e51b8152600401610a9c90613901565b60026101365460ff1660028111156117275761172761367b565b146117745760405162461bcd60e51b815260206004820152601a60248201527f5075626c6963206d696e74206973206e6f7420656e61626c65640000000000006044820152606401610a9c565b600061177e611f55565b905061178e81610da96101335490565b6117de818b8b8080601f016020809104026020016040519081016040528093929190818152602001838380828437600081840152601f19601f820116905080830192505050505050508d34612209565b9b9a5050505050505050505050565b6117f56122e0565b6101328190556040518181527f38fbb1c8b109c430f0c030e7ed076cf5611a307773a4e8e365601e8f8bceaec690602001610f43565b60008383838761183a84611c82565b156118575760405162461bcd60e51b8152600401610a9c9061388e565b61012f838360405161186a9291906138c3565b9081526040519081900360200190205460ff161561189a5760405162461bcd60e51b8152600401610a9c906138d3565b80156118fd5761012e5460405162f577a560e81b8152600481018390526001600160a01b039091169063f577a5009060240160006040518083038186803b1580156118e457600080fd5b505afa1580156118f8573d6000803e3d6000fd5b505050505b6119078383611fcd565b61190f6122e0565b61191d88610da96101335490565b61195f8888888080601f01602080910402602001604051908101604052809392919081815260200183838082843760009201829052508f935091506122099050565b9998505050505050505050565b60606099805461097e90613854565b61137d611986611f55565b83836126cf565b6119956122e0565b61013555565b61013060205260009081526040902080546001820180549192916119be90613854565b80601f01602080910402602001604051908101604052809291908181526020018280546119ea90613854565b8015611a375780601f10611a0c57610100808354040283529160200191611a37565b820191906000526020600020905b815481529060010190602001808311611a1a57829003601f168201915b505050505090806002015490806003018054611a5290613854565b80601f0160208091040260200160405190810160405280929190818152602001828054611a7e90613854565b8015611acb5780601f10611aa057610100808354040283529160200191611acb565b820191906000526020600020905b815481529060010190602001808311611aae57829003601f168201915b5050505050905084565b600054610100900460ff1615808015611af55750600054600160ff909116105b80611b0f5750303b158015611b0f575060005460ff166001145b611b725760405162461bcd60e51b815260206004820152602e60248201527f496e697469616c697a61626c653a20636f6e747261637420697320616c72656160448201526d191e481a5b9a5d1a585b1a5e995960921b6064820152608401610a9c565b6000805460ff191660011790558015611b95576000805461ff0019166101001790555b611b9d61279d565b611be76040518060400160405280600d81526020016c15185b195b9d13185e595c9251609a1b8152506040518060400160405280600381526020016215125160ea1b8152506127cc565b611bef6127fd565b61012e80546001600160a01b0319166001600160a01b03841617905561013380546001019055610136805460ff19166001179055611c35680ad78ebc5ac6200000610f09565b801561137d576000805461ff0019169055604051600181527f7f26b83ff96e1f2b6a682f133852f6798a09c465da95921460cefb384740249890602001610efd565b606061096982612824565b600061096982611494565b60008160048111611cc157611ca360018261395b565b611cae906002613b5e565b61013754611cbc9190613b6a565b611cc6565b610132545b949350505050565b81611cdb816104dc611f55565b611d1f5760405162461bcd60e51b81526020600482015260156024820152744e6f74206f776e6572206f722064656c656761746560581b6044820152606401610a9c565b8151602e14611d5e5760405162461bcd60e51b815260206004820152600b60248201526a125b9d985b1a590818da5960aa1b6044820152606401610a9c565b600083815261013060205260409020600301611d7a8382613bd2565b50827f613807bd6768f626264e7eb664a65ca99a0d930f8fd8a5b868491a592eb57f7283604051611dab91906131e2565b60405180910390a2505050565b611dc06122e0565b6001600160a01b038116611e255760405162461bcd60e51b815260206004820152602660248201527f4f776e61626c653a206e6577206f776e657220697320746865207a65726f206160448201526564647265737360d01b6064820152608401610a9c565b6111a38161267d565b600081118015611e4057506101335481105b6111a35760405162461bcd60e51b815260206004820152602560248201527f596f7572204944206973206e6f7420612076616c69642054616c656e744c6179604482015264195c88125160da1b6064820152608401610a9c565b611ea26122e0565b610136805482919060ff19166001836002811115611ec257611ec261367b565b02179055507fbe5bfaa294dd4b792e98f2bcf8f597b2ead214107f9bc9e8392d6ec65e8d854f81604051610f439190613691565b6000818152609a60205260409020546001600160a01b03166111a35760405162461bcd60e51b8152602060048201526018602482015277115490cdcc8c4e881a5b9d985b1a59081d1bdad95b88125160421b6044820152606401610a9c565b6000610e2761294f565b6000818152609c6020526040902080546001600160a01b0319166001600160a01b0384169081179091558190611f9482611434565b6001600160a01b03167f8c5be1e5ebec7d5bd14f71427d1e84f3dd0314c0f7b2291e5b200ac8c7c3b92560405160405180910390a45050565b600082828080601f016020809104026020016040519081016040528093929190818152602001838380828437600092019190915250508251929350506001821090508061201a5750601f81115b1561203857604051633eb64ab360e01b815260040160405180910390fd5b60008484600081811061204d5761204d613c91565b909101356001600160f81b031916915050602d60f81b81148061207d5750605f60f81b6001600160f81b03198216145b1561209b57604051632f2c22a760e11b815260040160405180910390fd5b60005b828110156121e757600360fc1b8482815181106120bd576120bd613c91565b01602001516001600160f81b03191610806120fb5750603d60f91b8482815181106120ea576120ea613c91565b01602001516001600160f81b031916115b806121575750603960f81b84828151811061211857612118613c91565b01602001516001600160f81b0319161180156121575750606160f81b84828151811061214657612146613c91565b01602001516001600160f81b031916105b8015612188575083818151811061217057612170613c91565b6020910101516001600160f81b031916602d60f81b14155b80156121b957508381815181106121a1576121a1613c91565b6020910101516001600160f81b031916605f60f81b14155b156121d757604051630bb7f19b60e21b815260040160405180910390fd5b6121e081613ca7565b905061209e565b505050505050565b61137d828260405180602001604052806000815250612988565b6000806122166101335490565b905061222761013380546001019055565b600081815261013060205260409020600281018590556001810161224b8782613bd2565b50600161012f8760405161225f91906139c6565b9081526040805160209281900383018120805460ff1916941515949094179093556001600160a01b038a1660008181526101319093529120849055907f8475f1ba3b06c1e11c870cbbf9753ca9a8292ea0b203262f682de476dc268f8c906122ce9085908a908a908a90613cc0565b60405180910390a25095945050505050565b6122e8611f55565b6001600160a01b03166123036033546001600160a01b031690565b6001600160a01b0316146115fe5760405162461bcd60e51b815260206004820181905260248201527f4f776e61626c653a2063616c6c6572206973206e6f7420746865206f776e65726044820152606401610a9c565b60606000612368836002613cec565b612373906002613d03565b6001600160401b0381111561238a5761238a613389565b6040519080825280601f01601f1916602001820160405280156123b4576020820181803683370190505b509050600360fc1b816000815181106123cf576123cf613c91565b60200101906001600160f81b031916908160001a905350600f60fb1b816001815181106123fe576123fe613c91565b60200101906001600160f81b031916908160001a9053506000612422846002613cec565b61242d906001613d03565b90505b60018111156124a5576f181899199a1a9b1b9c1cb0b131b232b360811b85600f166010811061246157612461613c91565b1a60f81b82828151811061247757612477613c91565b60200101906001600160f81b031916908160001a90535060049490941c9361249e81613d16565b9050612430565b50831561106e5760405162461bcd60e51b815260206004820181905260248201527f537472696e67733a20686578206c656e67746820696e73756666696369656e746044820152606401610a9c565b60008261250185846129bb565b14949350505050565b6111a36122e0565b7f4910fdfa16fed3260ed0e7147f7cc6da11a60208b5b9406d12a635614ffd91435460ff161561254557610b4f83612a08565b826001600160a01b03166352d1902d6040518163ffffffff1660e01b8152600401602060405180830381865afa92505050801561259f575060408051601f3d908101601f1916820190925261259c91810190613d2d565b60015b6126025760405162461bcd60e51b815260206004820152602e60248201527f45524331393637557067726164653a206e657720696d706c656d656e7461746960448201526d6f6e206973206e6f74205555505360901b6064820152608401610a9c565b6000805160206142bf83398151915281146126715760405162461bcd60e51b815260206004820152602960248201527f45524331393637557067726164653a20756e737570706f727465642070726f786044820152681a58589b195555525160ba1b6064820152608401610a9c565b50610b4f838383612aa4565b603380546001600160a01b038381166001600160a01b0319831681179093556040519116919082907f8be0079c531659141344cd1fd0a4f28419497f9722a3daafe3b4186f6b6457e090600090a35050565b816001600160a01b0316836001600160a01b0316036127305760405162461bcd60e51b815260206004820152601960248201527f4552433732313a20617070726f766520746f2063616c6c6572000000000000006044820152606401610a9c565b6001600160a01b038381166000818152609d6020908152604080832094871680845294825291829020805460ff191686151590811790915591519182527f17307eab39ab6107e8899845ad3d59bd9653f200f220920489ca2b5937696c31910160405180910390a3505050565b600054610100900460ff166127c45760405162461bcd60e51b8152600401610a9c90613d46565b6115fe612acf565b600054610100900460ff166127f35760405162461bcd60e51b8152600401610a9c90613d46565b61137d8282612b06565b600054610100900460ff166115fe5760405162461bcd60e51b8152600401610a9c90613d46565b6000818152610130602052604081206001018054606092919061284690613854565b80601f016020809104026020016040519081016040528092919081815260200182805461287290613854565b80156128bf5780601f10612894576101008083540402835291602001916128bf565b820191906000526020600020905b8154815290600101906020018083116128a257829003601f168201915b5050505050905060006128f0826040516020016128dc9190613d91565b604051602081830303815290604052612b46565b60405160200161290091906140f5565b604051602081830303815290604052905061292782826040516020016128dc92919061413a565b60405160200161293791906141cd565b60405160208183030381529060405292505050919050565b60006014361080159061297157503360009081526065602052604090205460ff165b15612983575060131936013560601c90565b503390565b6129928383612c98565b61299f6000848484612e31565b610b4f5760405162461bcd60e51b8152600401610a9c90614212565b600081815b8451811015612a00576129ec828683815181106129df576129df613c91565b6020026020010151612f36565b9150806129f881613ca7565b9150506129c0565b509392505050565b6001600160a01b0381163b612a755760405162461bcd60e51b815260206004820152602d60248201527f455243313936373a206e657720696d706c656d656e746174696f6e206973206e60448201526c1bdd08184818dbdb9d1c9858dd609a1b6064820152608401610a9c565b6000805160206142bf83398151915280546001600160a01b0319166001600160a01b0392909216919091179055565b612aad83612f65565b600082511180612aba5750805b15610b4f57612ac98383612fa5565b50505050565b600054610100900460ff16612af65760405162461bcd60e51b8152600401610a9c90613d46565b6115fe612b01611f55565b61267d565b600054610100900460ff16612b2d5760405162461bcd60e51b8152600401610a9c90613d46565b6098612b398382613bd2565b506099610b4f8282613bd2565b60608151600003612b6557505060408051602081019091526000815290565b60006040518060600160405280604081526020016142df6040913990506000600384516002612b949190613d03565b612b9e9190613b6a565b612ba9906004613cec565b6001600160401b03811115612bc057612bc0613389565b6040519080825280601f01601f191660200182016040528015612bea576020820181803683370190505b509050600182016020820185865187015b80821015612c56576003820191508151603f8160121c168501518453600184019350603f81600c1c168501518453600184019350603f8160061c168501518453600184019350603f8116850151845350600183019250612bfb565b5050600386510660018114612c725760028114612c8557612c8d565b603d6001830353603d6002830353612c8d565b603d60018303535b509195945050505050565b6001600160a01b038216612cee5760405162461bcd60e51b815260206004820181905260248201527f4552433732313a206d696e7420746f20746865207a65726f20616464726573736044820152606401610a9c565b6000818152609a60205260409020546001600160a01b031615612d535760405162461bcd60e51b815260206004820152601c60248201527f4552433732313a20746f6b656e20616c7265616479206d696e746564000000006044820152606401610a9c565b612d61600083836001613099565b6000818152609a60205260409020546001600160a01b031615612dc65760405162461bcd60e51b815260206004820152601c60248201527f4552433732313a20746f6b656e20616c7265616479206d696e746564000000006044820152606401610a9c565b6001600160a01b0382166000818152609b6020908152604080832080546001019055848352609a90915280822080546001600160a01b0319168417905551839291907fddf252ad1be2c89b69c2b068fc378daa952ba7f163c4a11628f55a4df523b3ef908290a45050565b60006001600160a01b0384163b15612f2e57836001600160a01b031663150b7a02612e5a611f55565b8786866040518563ffffffff1660e01b8152600401612e7c9493929190614264565b6020604051808303816000875af1925050508015612eb7575060408051601f3d908101601f19168201909252612eb4918101906142a1565b60015b612f14573d808015612ee5576040519150601f19603f3d011682016040523d82523d6000602084013e612eea565b606091505b508051600003612f0c5760405162461bcd60e51b8152600401610a9c90614212565b805181602001fd5b6001600160e01b031916630a85bd0160e11b149050611cc6565b506001611cc6565b6000818310612f5257600082815260208490526040902061106e565b600083815260208390526040902061106e565b612f6e81612a08565b6040516001600160a01b038216907fbc7cd75a20ee27fd9adebab32041f755214dbc6bffa90cc0225b39da2e5c2d3b90600090a250565b60606001600160a01b0383163b61300d5760405162461bcd60e51b815260206004820152602660248201527f416464726573733a2064656c65676174652063616c6c20746f206e6f6e2d636f6044820152651b9d1c9858dd60d21b6064820152608401610a9c565b600080846001600160a01b03168460405161302891906139c6565b600060405180830381855af49150503d8060008114613063576040519150601f19603f3d011682016040523d82523d6000602084013e613068565b606091505b5091509150613090828260405180606001604052806027815260200161431f60279139613121565b95945050505050565b6001811115612ac9576001600160a01b038416156130df576001600160a01b0384166000908152609b6020526040812080548392906130d990849061395b565b90915550505b6001600160a01b03831615612ac9576001600160a01b0383166000908152609b602052604081208054839290613116908490613d03565b909155505050505050565b6060831561313057508161106e565b61106e83838151156131455781518083602001fd5b8060405162461bcd60e51b8152600401610a9c91906131e2565b6001600160e01b0319811681146111a357600080fd5b60006020828403121561318757600080fd5b813561106e8161315f565b60005b838110156131ad578181015183820152602001613195565b50506000910152565b600081518084526131ce816020860160208601613192565b601f01601f19169290920160200192915050565b60208152600061106e60208301846131b6565b60006020828403121561320757600080fd5b5035919050565b80356001600160a01b038116811461322557600080fd5b919050565b6000806040838503121561323d57600080fd5b6132468361320e565b946020939093013593505050565b60008083601f84011261326657600080fd5b5081356001600160401b0381111561327d57600080fd5b60208301915083602082850101111561329557600080fd5b9250929050565b6000806000806000606086880312156132b457600080fd5b8535945060208601356001600160401b03808211156132d257600080fd5b6132de89838a01613254565b909650945060408801359150808211156132f757600080fd5b818801915088601f83011261330b57600080fd5b81358181111561331a57600080fd5b8960208260051b850101111561332f57600080fd5b9699959850939650602001949392505050565b60006020828403121561335457600080fd5b61106e8261320e565b6000806040838503121561337057600080fd5b823591506133806020840161320e565b90509250929050565b634e487b7160e01b600052604160045260246000fd5b604051601f8201601f191681016001600160401b03811182821017156133c7576133c7613389565b604052919050565b600082601f8301126133e057600080fd5b81356001600160401b038111156133f9576133f9613389565b61340c601f8201601f191660200161339f565b81815284602083860101111561342157600080fd5b816020850160208301376000918101602001919091529392505050565b60006020828403121561345057600080fd5b81356001600160401b0381111561346657600080fd5b611cc6848285016133cf565b60008060006060848603121561348757600080fd5b6134908461320e565b925061349e6020850161320e565b9150604084013590509250925092565b6000806000606084860312156134c357600080fd5b6134cc8461320e565b92506020808501356001600160401b03808211156134e957600080fd5b6134f5888389016133cf565b9450604087013591508082111561350b57600080fd5b818701915087601f83011261351f57600080fd5b81358181111561353157613531613389565b8060051b915061354284830161339f565b818152918301840191848101908a84111561355c57600080fd5b938501935b8385101561357a57843582529385019390850190613561565b8096505050505050509250925092565b6000806040838503121561359d57600080fd5b6135a68361320e565b915060208301356001600160401b038111156135c157600080fd5b6135cd858286016133cf565b9150509250929050565b6000806000604084860312156135ec57600080fd5b8335925060208401356001600160401b0381111561360957600080fd5b61361586828701613254565b9497909650939450505050565b6000806000806060858703121561363857600080fd5b843593506136486020860161320e565b925060408501356001600160401b0381111561366357600080fd5b61366f87828801613254565b95989497509550505050565b634e487b7160e01b600052602160045260246000fd5b60208101600383106136b357634e487b7160e01b600052602160045260246000fd5b91905290565b600080604083850312156136cc57600080fd5b6136d58361320e565b9150602083013580151581146136ea57600080fd5b809150509250929050565b6000806000806080858703121561370b57600080fd5b6137148561320e565b93506137226020860161320e565b92506040850135915060608501356001600160401b0381111561374457600080fd5b613750878288016133cf565b91505092959194509250565b84815260806020820152600061377560808301866131b6565b846040840152828103606084015261378d81856131b6565b979650505050505050565b600080604083850312156137ab57600080fd5b6137b48361320e565b91506133806020840161320e565b600080602083850312156137d557600080fd5b82356001600160401b038111156137eb57600080fd5b6137f785828601613254565b90969095509350505050565b6000806040838503121561381657600080fd5b8235915060208301356001600160401b038111156135c157600080fd5b60006020828403121561384557600080fd5b81356003811061106e57600080fd5b600181811c9082168061386857607f821691505b60208210810361388857634e487b7160e01b600052602260045260246000fd5b50919050565b6020808252818101527f596f7520616c7265616479206861766520612054616c656e744c617965724944604082015260600190565b8183823760009101908152919050565b6020808252601490820152732430b73236329030b63932b0b23c903a30b5b2b760611b604082015260600190565b60208082526024908201527f496e636f727265637420616d6f756e74206f662045544820666f72206d696e746040820152632066656560e01b606082015260800190565b634e487b7160e01b600052601160045260246000fd5b8181038181111561096957610969613945565b60008151613980818560208601613192565b9290920192915050565b6000835161399c818460208801613192565b603b60f81b90830190815283516139ba816001840160208801613192565b01600101949350505050565b600082516139d8818460208701613192565b9190910192915050565b6020808252602c908201527f46756e6374696f6e206d7573742062652063616c6c6564207468726f7567682060408201526b19195b1959d85d1958d85b1b60a21b606082015260800190565b6020808252602c908201527f46756e6374696f6e206d7573742062652063616c6c6564207468726f7567682060408201526b6163746976652070726f787960a01b606082015260800190565b600181815b80851115613ab5578160001904821115613a9b57613a9b613945565b80851615613aa857918102915b93841c9390800290613a7f565b509250929050565b600082613acc57506001610969565b81613ad957506000610969565b8160018114613aef5760028114613af957613b15565b6001915050610969565b60ff841115613b0a57613b0a613945565b50506001821b610969565b5060208310610133831016604e8410600b8410161715613b38575081810a610969565b613b428383613a7a565b8060001904821115613b5657613b56613945565b029392505050565b600061106e8383613abd565b600082613b8757634e487b7160e01b600052601260045260246000fd5b500490565b601f821115610b4f57600081815260208120601f850160051c81016020861015613bb35750805b601f850160051c820191505b818110156121e757828155600101613bbf565b81516001600160401b03811115613beb57613beb613389565b613bff81613bf98454613854565b84613b8c565b602080601f831160018114613c345760008415613c1c5750858301515b600019600386901b1c1916600185901b1785556121e7565b600085815260208120601f198616915b82811015613c6357888601518255948401946001909101908401613c44565b5085821015613c815787850151600019600388901b60f8161c191681555b5050505050600190811b01905550565b634e487b7160e01b600052603260045260246000fd5b600060018201613cb957613cb9613945565b5060010190565b848152608060208201526000613cd960808301866131b6565b6040830194909452506060015292915050565b808202811582820484141761096957610969613945565b8082018082111561096957610969613945565b600081613d2557613d25613945565b506000190190565b600060208284031215613d3f57600080fd5b5051919050565b6020808252602b908201527f496e697469616c697a61626c653a20636f6e7472616374206973206e6f74206960408201526a6e697469616c697a696e6760a81b606082015260800190565b7f3c73766720786d6c6e733d22687474703a2f2f7777772e77332e6f72672f323081527f30302f737667222077696474683d2237323022206865696768743d223732302260208201527f3e3c726563742077696474683d223130302522206865696768743d223130302560408201527f222f3e3c73766720786d6c6e733d22687474703a2f2f7777772e77332e6f726760608201527f2f323030302f737667222077696474683d2231353022206865696768743d223160808201527f3530222076657273696f6e3d22312e32222076696577426f783d222d3230302060a08201527f2d353020313030302031303030223e3c706174682066696c6c3d22234646464660c08201527f46462220643d224d3236342e35203139302e3563302d31332e382031312e322d60e08201527f32352032352d3235483536386331332e3820302032352031312e3220323520326101008201527f357634393063302031332e382d31312e322032352d3235203235483238392e356101208201527f632d31332e3820302d32352d31312e322d32352d32357a222f3e3c70617468206101408201527f66696c6c3d22234646464646462220643d224d3236352036323463302d31332e6101608201527f382031312e322d32352032352d3235683534336331332e3820302032352031316101808201527f2e322032352032357635362e3563302031332e382d31312e322032352d3235206101a08201527f323548323930632d31332e3820302d32352d31312e322d32352d32357a222f3e6101c08201527f3c706174682066696c6c3d22234646464646462220643d224d30203139302e356101e08201527f63302d31332e382031312e322d32352032352d3235683534336331332e3820306102008201527f2032352031312e322032352032355632343763302031332e382d31312e3220326102208201527f352d3235203235483235632d31332e3820302d32352d31312e322d32352d32356102408201527f7a222f3e3c2f7376673e3c7465787420783d2233302220793d223637302220736102608201527f74796c653d22666f6e743a363070782073616e732d73657269663b66696c6c3a6102808201526511b33333111f60d11b6102a0820152600061106e6140dc6102a684018561396e565b6c1e17ba32bc3a1f1e17b9bb339f60991b8152600d0190565b7f646174613a696d6167652f7376672b786d6c3b6261736536342c00000000000081526000825161412d81601a850160208701613192565b91909101601a0192915050565b683d913730b6b2911d1160b91b8152825160009061415f816009850160208801613192565b6b1116101134b6b0b3b2911d1160a11b600991840191820152835161418b816015840160208801613192565b7f222c20226465736372697074696f6e223a202254616c656e744c617965722049601592909101918201526244227d60e81b6035820152603801949350505050565b7f646174613a6170706c69636174696f6e2f6a736f6e3b6261736536342c00000081526000825161420581601d850160208701613192565b91909101601d0192915050565b60208082526032908201527f4552433732313a207472616e7366657220746f206e6f6e20455243373231526560408201527131b2b4bb32b91034b6b83632b6b2b73a32b960711b606082015260800190565b6001600160a01b0385811682528416602082015260408101839052608060608201819052600090614297908301846131b6565b9695505050505050565b6000602082840312156142b357600080fd5b815161106e8161315f56fe360894a13ba1a3210667c828492db98dca3e2076cc3735a920a3ca505d382bbc4142434445464748494a4b4c4d4e4f505152535455565758595a6162636465666768696a6b6c6d6e6f707172737475767778797a303132333435363738392b2f416464726573733a206c6f772d6c6576656c2064656c65676174652063616c6c206661696c6564a264697066735822122019ab630355dc11bdb7d1ca92afe7fa1d7f729d978685e4260c8b6aa0080f6e5564736f6c63430008110033",
  "linkReferences": {},
  "deployedLinkReferences": {}
}