{
  "_format": "hh-sol-artifact-1",
  "contractName": "TalentLayerPlatformID",
  "sourceName": "contracts/TalentLayerPlatformID.sol",
  "abi": [
    {
      "inputs": [],
      "stateMutability": "nonpayable",
      "type": "constructor"
    },
    {
      "inputs": [],
      "name": "HandleContainsInvalidCharacters",
      "type": "error"
    },
    {
      "inputs": [],
      "name": "HandleLengthInvalid",
      "type": "error"
    },
    {
      "anonymous": false,
      "inputs": [
        {
          "indexed": false,
          "internalType": "address",
          "name": "previousAdmin",
          "type": "address"
        },
        {
          "indexed": false,
          "internalType": "address",
          "name": "newAdmin",
          "type": "address"
        }
      ],
      "name": "AdminChanged",
      "type": "event"
    },
    {
      "anonymous": false,
      "inputs": [
        {
          "indexed": true,
          "internalType": "address",
          "name": "owner",
          "type": "address"
        },
        {
          "indexed": true,
          "internalType": "address",
          "name": "approved",
          "type": "address"
        },
        {
          "indexed": true,
          "internalType": "uint256",
          "name": "tokenId",
          "type": "uint256"
        }
      ],
      "name": "Approval",
      "type": "event"
    },
    {
      "anonymous": false,
      "inputs": [
        {
          "indexed": true,
          "internalType": "address",
          "name": "owner",
          "type": "address"
        },
        {
          "indexed": true,
          "internalType": "address",
          "name": "operator",
          "type": "address"
        },
        {
          "indexed": false,
          "internalType": "bool",
          "name": "approved",
          "type": "bool"
        }
      ],
      "name": "ApprovalForAll",
      "type": "event"
    },
    {
      "anonymous": false,
      "inputs": [
        {
          "indexed": false,
          "internalType": "uint256",
          "name": "_platformId",
          "type": "uint256"
        },
        {
          "indexed": false,
          "internalType": "uint256",
          "name": "_arbitrationFeeTimeout",
          "type": "uint256"
        }
      ],
      "name": "ArbitrationFeeTimeoutUpdated",
      "type": "event"
    },
    {
      "anonymous": false,
      "inputs": [
        {
          "indexed": false,
          "internalType": "uint256",
          "name": "_platformId",
          "type": "uint256"
        },
        {
          "indexed": false,
          "internalType": "contract Arbitrator",
          "name": "_arbitrator",
          "type": "address"
        },
        {
          "indexed": false,
          "internalType": "bytes",
          "name": "_extraData",
          "type": "bytes"
        }
      ],
      "name": "ArbitratorUpdated",
      "type": "event"
    },
    {
      "anonymous": false,
      "inputs": [
        {
          "indexed": true,
          "internalType": "address",
          "name": "beacon",
          "type": "address"
        }
      ],
      "name": "BeaconUpgraded",
      "type": "event"
    },
    {
      "anonymous": false,
      "inputs": [
        {
          "indexed": true,
          "internalType": "uint256",
          "name": "_platformId",
          "type": "uint256"
        },
        {
          "indexed": false,
          "internalType": "string",
          "name": "_newCid",
          "type": "string"
        }
      ],
      "name": "CidUpdated",
      "type": "event"
    },
    {
      "anonymous": false,
      "inputs": [
        {
          "indexed": false,
          "internalType": "uint8",
          "name": "version",
          "type": "uint8"
        }
      ],
      "name": "Initialized",
      "type": "event"
    },
    {
      "anonymous": false,
      "inputs": [
        {
          "indexed": false,
          "internalType": "uint256",
          "name": "_minArbitrationFeeTimeout",
          "type": "uint256"
        }
      ],
      "name": "MinArbitrationFeeTimeoutUpdated",
      "type": "event"
    },
    {
      "anonymous": false,
      "inputs": [
        {
          "indexed": true,
          "internalType": "address",
          "name": "_platformOwnerAddress",
          "type": "address"
        },
        {
          "indexed": false,
          "internalType": "uint256",
          "name": "_platformId",
          "type": "uint256"
        },
        {
          "indexed": false,
          "internalType": "string",
          "name": "_platformName",
          "type": "string"
        },
        {
          "indexed": false,
          "internalType": "uint256",
          "name": "_fee",
          "type": "uint256"
        },
        {
          "indexed": false,
          "internalType": "uint256",
          "name": "_arbitrationFeeTimeout",
          "type": "uint256"
        }
      ],
      "name": "Mint",
      "type": "event"
    },
    {
      "anonymous": false,
      "inputs": [
        {
          "indexed": false,
          "internalType": "uint256",
          "name": "_mintFee",
          "type": "uint256"
        }
      ],
      "name": "MintFeeUpdated",
      "type": "event"
    },
    {
      "anonymous": false,
      "inputs": [
        {
          "indexed": false,
          "internalType": "enum TalentLayerPlatformID.MintStatus",
          "name": "_mintStatus",
          "type": "uint8"
        }
      ],
      "name": "MintStatusUpdated",
      "type": "event"
    },
    {
      "anonymous": false,
      "inputs": [
        {
          "indexed": false,
          "internalType": "uint256",
          "name": "_platformId",
          "type": "uint256"
        },
        {
          "indexed": false,
          "internalType": "uint16",
          "name": "_originServiceFeeRate",
          "type": "uint16"
        }
      ],
      "name": "OriginServiceFeeRateUpdated",
      "type": "event"
    },
    {
      "anonymous": false,
      "inputs": [
        {
          "indexed": false,
          "internalType": "uint256",
          "name": "_platformId",
          "type": "uint256"
        },
        {
          "indexed": false,
          "internalType": "uint16",
          "name": "_originValidatedProposalFeeRate",
          "type": "uint16"
        }
      ],
      "name": "OriginValidatedProposalFeeRateUpdated",
      "type": "event"
    },
    {
      "anonymous": false,
      "inputs": [
        {
          "indexed": false,
          "internalType": "uint256",
          "name": "_platformId",
          "type": "uint256"
        },
        {
          "indexed": false,
          "internalType": "uint256",
          "name": "_proposalPostingFee",
          "type": "uint256"
        }
      ],
      "name": "ProposalPostingFeeUpdated",
      "type": "event"
    },
    {
      "anonymous": false,
      "inputs": [
        {
          "indexed": true,
          "internalType": "bytes32",
          "name": "role",
          "type": "bytes32"
        },
        {
          "indexed": true,
          "internalType": "bytes32",
          "name": "previousAdminRole",
          "type": "bytes32"
        },
        {
          "indexed": true,
          "internalType": "bytes32",
          "name": "newAdminRole",
          "type": "bytes32"
        }
      ],
      "name": "RoleAdminChanged",
      "type": "event"
    },
    {
      "anonymous": false,
      "inputs": [
        {
          "indexed": true,
          "internalType": "bytes32",
          "name": "role",
          "type": "bytes32"
        },
        {
          "indexed": true,
          "internalType": "address",
          "name": "account",
          "type": "address"
        },
        {
          "indexed": true,
          "internalType": "address",
          "name": "sender",
          "type": "address"
        }
      ],
      "name": "RoleGranted",
      "type": "event"
    },
    {
      "anonymous": false,
      "inputs": [
        {
          "indexed": true,
          "internalType": "bytes32",
          "name": "role",
          "type": "bytes32"
        },
        {
          "indexed": true,
          "internalType": "address",
          "name": "account",
          "type": "address"
        },
        {
          "indexed": true,
          "internalType": "address",
          "name": "sender",
          "type": "address"
        }
      ],
      "name": "RoleRevoked",
      "type": "event"
    },
    {
      "anonymous": false,
      "inputs": [
        {
          "indexed": false,
          "internalType": "uint256",
          "name": "_platformId",
          "type": "uint256"
        },
        {
          "indexed": false,
          "internalType": "uint256",
          "name": "_servicePostingFee",
          "type": "uint256"
        }
      ],
      "name": "ServicePostingFeeUpdated",
      "type": "event"
    },
    {
      "anonymous": false,
      "inputs": [
        {
          "indexed": true,
          "internalType": "address",
          "name": "from",
          "type": "address"
        },
        {
          "indexed": true,
          "internalType": "address",
          "name": "to",
          "type": "address"
        },
        {
          "indexed": true,
          "internalType": "uint256",
          "name": "tokenId",
          "type": "uint256"
        }
      ],
      "name": "Transfer",
      "type": "event"
    },
    {
      "anonymous": false,
      "inputs": [
        {
          "indexed": true,
          "internalType": "address",
          "name": "implementation",
          "type": "address"
        }
      ],
      "name": "Upgraded",
      "type": "event"
    },
    {
      "anonymous": false,
      "inputs": [
        {
          "indexed": true,
          "internalType": "address",
          "name": "_user",
          "type": "address"
        }
      ],
      "name": "UserWhitelisted",
      "type": "event"
    },
    {
      "inputs": [],
      "name": "DEFAULT_ADMIN_ROLE",
      "outputs": [
        {
          "internalType": "bytes32",
          "name": "",
          "type": "bytes32"
        }
      ],
      "stateMutability": "view",
      "type": "function"
    },
    {
      "inputs": [],
      "name": "MINT_ROLE",
      "outputs": [
        {
          "internalType": "bytes32",
          "name": "",
          "type": "bytes32"
        }
      ],
      "stateMutability": "view",
      "type": "function"
    },
    {
      "inputs": [],
      "name": "OWNER_ROLE",
      "outputs": [
        {
          "internalType": "bytes32",
          "name": "",
          "type": "bytes32"
        }
      ],
      "stateMutability": "view",
      "type": "function"
    },
    {
      "inputs": [
        {
          "internalType": "address",
          "name": "_arbitrator",
          "type": "address"
        },
        {
          "internalType": "bool",
          "name": "_isInternal",
          "type": "bool"
        }
      ],
      "name": "addArbitrator",
      "outputs": [],
      "stateMutability": "nonpayable",
      "type": "function"
    },
    {
      "inputs": [
        {
          "internalType": "address",
          "name": "to",
          "type": "address"
        },
        {
          "internalType": "uint256",
          "name": "tokenId",
          "type": "uint256"
        }
      ],
      "name": "approve",
      "outputs": [],
      "stateMutability": "nonpayable",
      "type": "function"
    },
    {
      "inputs": [
        {
          "internalType": "address",
          "name": "owner",
          "type": "address"
        }
      ],
      "name": "balanceOf",
      "outputs": [
        {
          "internalType": "uint256",
          "name": "",
          "type": "uint256"
        }
      ],
      "stateMutability": "view",
      "type": "function"
    },
    {
      "inputs": [
        {
          "internalType": "uint256",
          "name": "tokenId",
          "type": "uint256"
        }
      ],
      "name": "getApproved",
      "outputs": [
        {
          "internalType": "address",
          "name": "",
          "type": "address"
        }
      ],
      "stateMutability": "view",
      "type": "function"
    },
    {
      "inputs": [
        {
          "internalType": "uint256",
          "name": "_platformId",
          "type": "uint256"
        }
      ],
      "name": "getOriginServiceFeeRate",
      "outputs": [
        {
          "internalType": "uint16",
          "name": "",
          "type": "uint16"
        }
      ],
      "stateMutability": "view",
      "type": "function"
    },
    {
      "inputs": [
        {
          "internalType": "uint256",
          "name": "_platformId",
          "type": "uint256"
        }
      ],
      "name": "getOriginValidatedProposalFeeRate",
      "outputs": [
        {
          "internalType": "uint16",
          "name": "",
          "type": "uint16"
        }
      ],
      "stateMutability": "view",
      "type": "function"
    },
    {
      "inputs": [
        {
          "internalType": "uint256",
          "name": "_platformId",
          "type": "uint256"
        }
      ],
      "name": "getPlatform",
      "outputs": [
        {
          "components": [
            {
              "internalType": "uint256",
              "name": "id",
              "type": "uint256"
            },
            {
              "internalType": "string",
              "name": "name",
              "type": "string"
            },
            {
              "internalType": "string",
              "name": "dataUri",
              "type": "string"
            },
            {
              "internalType": "uint16",
              "name": "originServiceFeeRate",
              "type": "uint16"
            },
            {
              "internalType": "uint16",
              "name": "originValidatedProposalFeeRate",
              "type": "uint16"
            },
            {
              "internalType": "uint256",
              "name": "servicePostingFee",
              "type": "uint256"
            },
            {
              "internalType": "uint256",
              "name": "proposalPostingFee",
              "type": "uint256"
            },
            {
              "internalType": "contract Arbitrator",
              "name": "arbitrator",
              "type": "address"
            },
            {
              "internalType": "bytes",
              "name": "arbitratorExtraData",
              "type": "bytes"
            },
            {
              "internalType": "uint256",
              "name": "arbitrationFeeTimeout",
              "type": "uint256"
            }
          ],
          "internalType": "struct TalentLayerPlatformID.Platform",
          "name": "",
          "type": "tuple"
        }
      ],
      "stateMutability": "view",
      "type": "function"
    },
    {
      "inputs": [
        {
          "internalType": "uint256",
          "name": "_platformId",
          "type": "uint256"
        }
      ],
      "name": "getProposalPostingFee",
      "outputs": [
        {
          "internalType": "uint256",
          "name": "",
          "type": "uint256"
        }
      ],
      "stateMutability": "view",
      "type": "function"
    },
    {
      "inputs": [
        {
          "internalType": "bytes32",
          "name": "role",
          "type": "bytes32"
        }
      ],
      "name": "getRoleAdmin",
      "outputs": [
        {
          "internalType": "bytes32",
          "name": "",
          "type": "bytes32"
        }
      ],
      "stateMutability": "view",
      "type": "function"
    },
    {
      "inputs": [
        {
          "internalType": "uint256",
          "name": "_platformId",
          "type": "uint256"
        }
      ],
      "name": "getServicePostingFee",
      "outputs": [
        {
          "internalType": "uint256",
          "name": "",
          "type": "uint256"
        }
      ],
      "stateMutability": "view",
      "type": "function"
    },
    {
      "inputs": [
        {
          "internalType": "bytes32",
          "name": "role",
          "type": "bytes32"
        },
        {
          "internalType": "address",
          "name": "account",
          "type": "address"
        }
      ],
      "name": "grantRole",
      "outputs": [],
      "stateMutability": "nonpayable",
      "type": "function"
    },
    {
      "inputs": [
        {
          "internalType": "bytes32",
          "name": "role",
          "type": "bytes32"
        },
        {
          "internalType": "address",
          "name": "account",
          "type": "address"
        }
      ],
      "name": "hasRole",
      "outputs": [
        {
          "internalType": "bool",
          "name": "",
          "type": "bool"
        }
      ],
      "stateMutability": "view",
      "type": "function"
    },
    {
      "inputs": [
        {
          "internalType": "address",
          "name": "",
          "type": "address"
        }
      ],
      "name": "ids",
      "outputs": [
        {
          "internalType": "uint256",
          "name": "",
          "type": "uint256"
        }
      ],
      "stateMutability": "view",
      "type": "function"
    },
    {
      "inputs": [],
      "name": "initialize",
      "outputs": [],
      "stateMutability": "nonpayable",
      "type": "function"
    },
    {
      "inputs": [
        {
          "internalType": "address",
          "name": "",
          "type": "address"
        }
      ],
      "name": "internalArbitrators",
      "outputs": [
        {
          "internalType": "bool",
          "name": "",
          "type": "bool"
        }
      ],
      "stateMutability": "view",
      "type": "function"
    },
    {
      "inputs": [
        {
          "internalType": "address",
          "name": "owner",
          "type": "address"
        },
        {
          "internalType": "address",
          "name": "operator",
          "type": "address"
        }
      ],
      "name": "isApprovedForAll",
      "outputs": [
        {
          "internalType": "bool",
          "name": "",
          "type": "bool"
        }
      ],
      "stateMutability": "view",
      "type": "function"
    },
    {
      "inputs": [
        {
          "internalType": "uint256",
          "name": "_platformId",
          "type": "uint256"
        }
      ],
      "name": "isValid",
      "outputs": [],
      "stateMutability": "view",
      "type": "function"
    },
    {
      "inputs": [],
      "name": "minArbitrationFeeTimeout",
      "outputs": [
        {
          "internalType": "uint256",
          "name": "",
          "type": "uint256"
        }
      ],
      "stateMutability": "view",
      "type": "function"
    },
    {
      "inputs": [
        {
          "internalType": "string",
          "name": "_platformName",
          "type": "string"
        }
      ],
      "name": "mint",
      "outputs": [],
      "stateMutability": "payable",
      "type": "function"
    },
    {
      "inputs": [],
      "name": "mintFee",
      "outputs": [
        {
          "internalType": "uint256",
          "name": "",
          "type": "uint256"
        }
      ],
      "stateMutability": "view",
      "type": "function"
    },
    {
      "inputs": [
        {
          "internalType": "string",
          "name": "_platformName",
          "type": "string"
        },
        {
          "internalType": "address",
          "name": "_platformAddress",
          "type": "address"
        }
      ],
      "name": "mintForAddress",
      "outputs": [],
      "stateMutability": "payable",
      "type": "function"
    },
    {
      "inputs": [],
      "name": "mintStatus",
      "outputs": [
        {
          "internalType": "enum TalentLayerPlatformID.MintStatus",
          "name": "",
          "type": "uint8"
        }
      ],
      "stateMutability": "view",
      "type": "function"
    },
    {
      "inputs": [],
      "name": "name",
      "outputs": [
        {
          "internalType": "string",
          "name": "",
          "type": "string"
        }
      ],
      "stateMutability": "view",
      "type": "function"
    },
    {
      "inputs": [
        {
          "internalType": "address",
          "name": "_platformAddress",
          "type": "address"
        }
      ],
      "name": "numberMinted",
      "outputs": [
        {
          "internalType": "uint256",
          "name": "",
          "type": "uint256"
        }
      ],
      "stateMutability": "view",
      "type": "function"
    },
    {
      "inputs": [
        {
          "internalType": "uint256",
          "name": "tokenId",
          "type": "uint256"
        }
      ],
      "name": "ownerOf",
      "outputs": [
        {
          "internalType": "address",
          "name": "",
          "type": "address"
        }
      ],
      "stateMutability": "view",
      "type": "function"
    },
    {
      "inputs": [
        {
          "internalType": "uint256",
          "name": "",
          "type": "uint256"
        }
      ],
      "name": "platforms",
      "outputs": [
        {
          "internalType": "uint256",
          "name": "id",
          "type": "uint256"
        },
        {
          "internalType": "string",
          "name": "name",
          "type": "string"
        },
        {
          "internalType": "string",
          "name": "dataUri",
          "type": "string"
        },
        {
          "internalType": "uint16",
          "name": "originServiceFeeRate",
          "type": "uint16"
        },
        {
          "internalType": "uint16",
          "name": "originValidatedProposalFeeRate",
          "type": "uint16"
        },
        {
          "internalType": "uint256",
          "name": "servicePostingFee",
          "type": "uint256"
        },
        {
          "internalType": "uint256",
          "name": "proposalPostingFee",
          "type": "uint256"
        },
        {
          "internalType": "contract Arbitrator",
          "name": "arbitrator",
          "type": "address"
        },
        {
          "internalType": "bytes",
          "name": "arbitratorExtraData",
          "type": "bytes"
        },
        {
          "internalType": "uint256",
          "name": "arbitrationFeeTimeout",
          "type": "uint256"
        }
      ],
      "stateMutability": "view",
      "type": "function"
    },
    {
      "inputs": [],
      "name": "proxiableUUID",
      "outputs": [
        {
          "internalType": "bytes32",
          "name": "",
          "type": "bytes32"
        }
      ],
      "stateMutability": "view",
      "type": "function"
    },
    {
      "inputs": [
        {
          "internalType": "address",
          "name": "_arbitrator",
          "type": "address"
        }
      ],
      "name": "removeArbitrator",
      "outputs": [],
      "stateMutability": "nonpayable",
      "type": "function"
    },
    {
      "inputs": [
        {
          "internalType": "bytes32",
          "name": "role",
          "type": "bytes32"
        },
        {
          "internalType": "address",
          "name": "account",
          "type": "address"
        }
      ],
      "name": "renounceRole",
      "outputs": [],
      "stateMutability": "nonpayable",
      "type": "function"
    },
    {
      "inputs": [
        {
          "internalType": "bytes32",
          "name": "role",
          "type": "bytes32"
        },
        {
          "internalType": "address",
          "name": "account",
          "type": "address"
        }
      ],
      "name": "revokeRole",
      "outputs": [],
      "stateMutability": "nonpayable",
      "type": "function"
    },
    {
      "inputs": [
        {
          "internalType": "address",
          "name": "",
          "type": "address"
        },
        {
          "internalType": "address",
          "name": "",
          "type": "address"
        },
        {
          "internalType": "uint256",
          "name": "",
          "type": "uint256"
        }
      ],
      "name": "safeTransferFrom",
      "outputs": [],
      "stateMutability": "nonpayable",
      "type": "function"
    },
    {
      "inputs": [
        {
          "internalType": "address",
          "name": "from",
          "type": "address"
        },
        {
          "internalType": "address",
          "name": "to",
          "type": "address"
        },
        {
          "internalType": "uint256",
          "name": "tokenId",
          "type": "uint256"
        },
        {
          "internalType": "bytes",
          "name": "data",
          "type": "bytes"
        }
      ],
      "name": "safeTransferFrom",
      "outputs": [],
      "stateMutability": "nonpayable",
      "type": "function"
    },
    {
      "inputs": [
        {
          "internalType": "address",
          "name": "operator",
          "type": "address"
        },
        {
          "internalType": "bool",
          "name": "approved",
          "type": "bool"
        }
      ],
      "name": "setApprovalForAll",
      "outputs": [],
      "stateMutability": "nonpayable",
      "type": "function"
    },
    {
      "inputs": [
        {
          "internalType": "bytes4",
          "name": "interfaceId",
          "type": "bytes4"
        }
      ],
      "name": "supportsInterface",
      "outputs": [
        {
          "internalType": "bool",
          "name": "",
          "type": "bool"
        }
      ],
      "stateMutability": "view",
      "type": "function"
    },
    {
      "inputs": [],
      "name": "symbol",
      "outputs": [
        {
          "internalType": "string",
          "name": "",
          "type": "string"
        }
      ],
      "stateMutability": "view",
      "type": "function"
    },
    {
      "inputs": [
        {
          "internalType": "string",
          "name": "",
          "type": "string"
        }
      ],
      "name": "takenNames",
      "outputs": [
        {
          "internalType": "bool",
          "name": "",
          "type": "bool"
        }
      ],
      "stateMutability": "view",
      "type": "function"
    },
    {
      "inputs": [
        {
          "internalType": "uint256",
          "name": "tokenId",
          "type": "uint256"
        }
      ],
      "name": "tokenURI",
      "outputs": [
        {
          "internalType": "string",
          "name": "",
          "type": "string"
        }
      ],
      "stateMutability": "view",
      "type": "function"
    },
    {
      "inputs": [],
      "name": "totalSupply",
      "outputs": [
        {
          "internalType": "uint256",
          "name": "",
          "type": "uint256"
        }
      ],
      "stateMutability": "view",
      "type": "function"
    },
    {
      "inputs": [
        {
          "internalType": "address",
          "name": "",
          "type": "address"
        },
        {
          "internalType": "address",
          "name": "",
          "type": "address"
        },
        {
          "internalType": "uint256",
          "name": "",
          "type": "uint256"
        }
      ],
      "name": "transferFrom",
      "outputs": [],
      "stateMutability": "nonpayable",
      "type": "function"
    },
    {
      "inputs": [
        {
          "internalType": "uint256",
          "name": "_platformId",
          "type": "uint256"
        },
        {
          "internalType": "uint256",
          "name": "_arbitrationFeeTimeout",
          "type": "uint256"
        }
      ],
      "name": "updateArbitrationFeeTimeout",
      "outputs": [],
      "stateMutability": "nonpayable",
      "type": "function"
    },
    {
      "inputs": [
        {
          "internalType": "uint256",
          "name": "_platformId",
          "type": "uint256"
        },
        {
          "internalType": "contract Arbitrator",
          "name": "_arbitrator",
          "type": "address"
        },
        {
          "internalType": "bytes",
          "name": "_extraData",
          "type": "bytes"
        }
      ],
      "name": "updateArbitrator",
      "outputs": [],
      "stateMutability": "nonpayable",
      "type": "function"
    },
    {
      "inputs": [
        {
          "internalType": "uint256",
          "name": "_minArbitrationFeeTimeout",
          "type": "uint256"
        }
      ],
      "name": "updateMinArbitrationFeeTimeout",
      "outputs": [],
      "stateMutability": "nonpayable",
      "type": "function"
    },
    {
      "inputs": [
        {
          "internalType": "uint256",
          "name": "_mintFee",
          "type": "uint256"
        }
      ],
      "name": "updateMintFee",
      "outputs": [],
      "stateMutability": "nonpayable",
      "type": "function"
    },
    {
      "inputs": [
        {
          "internalType": "enum TalentLayerPlatformID.MintStatus",
          "name": "_mintStatus",
          "type": "uint8"
        }
      ],
      "name": "updateMintStatus",
      "outputs": [],
      "stateMutability": "nonpayable",
      "type": "function"
    },
    {
      "inputs": [
        {
          "internalType": "uint256",
          "name": "_platformId",
          "type": "uint256"
        },
        {
          "internalType": "uint16",
          "name": "_originServiceFeeRate",
          "type": "uint16"
        }
      ],
      "name": "updateOriginServiceFeeRate",
      "outputs": [],
      "stateMutability": "nonpayable",
      "type": "function"
    },
    {
      "inputs": [
        {
          "internalType": "uint256",
          "name": "_platformId",
          "type": "uint256"
        },
        {
          "internalType": "uint16",
          "name": "_originValidatedProposalFeeRate",
          "type": "uint16"
        }
      ],
      "name": "updateOriginValidatedProposalFeeRate",
      "outputs": [],
      "stateMutability": "nonpayable",
      "type": "function"
    },
    {
      "inputs": [
        {
          "internalType": "uint256",
          "name": "_platformId",
          "type": "uint256"
        },
        {
          "internalType": "string",
          "name": "_newCid",
          "type": "string"
        }
      ],
      "name": "updateProfileData",
      "outputs": [],
      "stateMutability": "nonpayable",
      "type": "function"
    },
    {
      "inputs": [
        {
          "internalType": "uint256",
          "name": "_platformId",
          "type": "uint256"
        },
        {
          "internalType": "uint256",
          "name": "_proposalPostingFee",
          "type": "uint256"
        }
      ],
      "name": "updateProposalPostingFee",
      "outputs": [],
      "stateMutability": "nonpayable",
      "type": "function"
    },
    {
      "inputs": [
        {
          "internalType": "uint256",
          "name": "_platformId",
          "type": "uint256"
        },
        {
          "internalType": "uint256",
          "name": "_servicePostingFee",
          "type": "uint256"
        }
      ],
      "name": "updateServicePostingFee",
      "outputs": [],
      "stateMutability": "nonpayable",
      "type": "function"
    },
    {
      "inputs": [
        {
          "internalType": "address",
          "name": "newImplementation",
          "type": "address"
        }
      ],
      "name": "upgradeTo",
      "outputs": [],
      "stateMutability": "nonpayable",
      "type": "function"
    },
    {
      "inputs": [
        {
          "internalType": "address",
          "name": "newImplementation",
          "type": "address"
        },
        {
          "internalType": "bytes",
          "name": "data",
          "type": "bytes"
        }
      ],
      "name": "upgradeToAndCall",
      "outputs": [],
      "stateMutability": "payable",
      "type": "function"
    },
    {
      "inputs": [
        {
          "internalType": "address",
          "name": "",
          "type": "address"
        }
      ],
      "name": "validArbitrators",
      "outputs": [
        {
          "internalType": "bool",
          "name": "",
          "type": "bool"
        }
      ],
      "stateMutability": "view",
      "type": "function"
    },
    {
      "inputs": [
        {
          "internalType": "address",
          "name": "",
          "type": "address"
        }
      ],
      "name": "whitelist",
      "outputs": [
        {
          "internalType": "bool",
          "name": "",
          "type": "bool"
        }
      ],
      "stateMutability": "view",
      "type": "function"
    },
    {
      "inputs": [
        {
          "internalType": "address",
          "name": "_user",
          "type": "address"
        }
      ],
      "name": "whitelistUser",
      "outputs": [],
      "stateMutability": "nonpayable",
      "type": "function"
    },
    {
      "inputs": [],
      "name": "withdraw",
      "outputs": [],
      "stateMutability": "nonpayable",
      "type": "function"
    }
  ],
  "bytecode": "0x60a0604052306080523480156200001557600080fd5b506200002062000026565b620000e8565b600054610100900460ff1615620000935760405162461bcd60e51b815260206004820152602760248201527f496e697469616c697a61626c653a20636f6e747261637420697320696e697469604482015266616c697a696e6760c81b606482015260840160405180910390fd5b60005460ff9081161015620000e6576000805460ff191660ff9081179091556040519081527f7f26b83ff96e1f2b6a682f133852f6798a09c465da95921460cefb38474024989060200160405180910390a15b565b608051614e046200012060003960008181610ec801528181610f08015281816112e50152818161132501526113b40152614e046000f3fe6080604052600436106103815760003560e01c80638e6e5397116101d1578063c6bf01ce11610102578063e58378bb116100a0578063f577a5001161006f578063f577a50014610ab5578063f6f3784414610ad5578063f905f15414610aec578063faa992d314610b0c57600080fd5b8063e58378bb14610a08578063e985e9c514610a2a578063e9a9c85014610a73578063f160068f14610a9557600080fd5b8063d547741f116100dc578063d547741f14610995578063d85d3d27146109b5578063dc33e681146109c8578063dce22638146109e857600080fd5b8063c6bf01ce14610935578063c87b56dd14610955578063cb8faafa1461097557600080fd5b8063a217fddf1161016f578063a4f524a911610149578063a4f524a9146108b1578063acd63f1b146108d1578063b88d4fde14610902578063c37e154e1461092257600080fd5b8063a217fddf14610840578063a22cb46514610855578063a383c6921461087557600080fd5b8063973ad270116101ab578063973ad270146107a757806399ded444146107c75780639b19251a146107e75780639da3f8fd1461081857600080fd5b80638e6e53971461075257806391d148541461077257806395d89b411461079257600080fd5b80633ccfd60b116102b65780634f1ef2861161025457806370a082311161022357806370a08231146106dd5780638129fc1c146106fd57806384017e52146107125780638a9863631461073257600080fd5b80634f1ef2861461066857806352d1902d1461067b5780635bd22c98146106905780636352211e146106bd57600080fd5b806342842e0e1161029057806342842e0e146104f257806348203b30146105f75780634a4c560d146106285780634a7ab1d51461064857600080fd5b80633ccfd60b146105a25780633d459389146105b75780633e6acfe0146105d757600080fd5b806318160ddd11610323578063248a9ca3116102fd578063248a9ca3146105125780632f2ff15d1461054257806336568abe146105625780633659cfe61461058257600080fd5b806318160ddd146104af5780631847c06b146104c457806323b872dd146104f257600080fd5b8063081812fc1161035f578063081812fc146103ff578063095ea7b31461043757806311f821921461045757806313966db51461048a57600080fd5b806301c32c851461038657806301ffc9a7146103a857806306fdde03146103dd575b600080fd5b34801561039257600080fd5b506103a66103a1366004613b1e565b610b42565b005b3480156103b457600080fd5b506103c86103c3366004613b4d565b610b8b565b60405190151581526020015b60405180910390f35b3480156103e957600080fd5b506103f2610bab565b6040516103d49190613bba565b34801561040b57600080fd5b5061041f61041a366004613b1e565b610c3d565b6040516001600160a01b0390911681526020016103d4565b34801561044357600080fd5b506103a6610452366004613be2565b610c64565b34801561046357600080fd5b50610477610472366004613b1e565b610d7e565b60405161ffff90911681526020016103d4565b34801561049657600080fd5b506104a16101335481565b6040519081526020016103d4565b3480156104bb57600080fd5b506104a1610dc8565b3480156104d057600080fd5b506104a16104df366004613c0e565b6101326020526000908152604090205481565b3480156104fe57600080fd5b506103a661050d366004613c2b565b610de5565b34801561051e57600080fd5b506104a161052d366004613b1e565b60009081526097602052604090206001015490565b34801561054e57600080fd5b506103a661055d366004613c6c565b610e1b565b34801561056e57600080fd5b506103a661057d366004613c6c565b610e40565b34801561058e57600080fd5b506103a661059d366004613c0e565b610ebe565b3480156105ae57600080fd5b506103a6610f9d565b3480156105c357600080fd5b506104776105d2366004613b1e565b611040565b3480156105e357600080fd5b506103a66105f2366004613d3f565b611090565b34801561060357600080fd5b506103c8610612366004613c0e565b61012f6020526000908152604090205460ff1681565b34801561063457600080fd5b506103a6610643366004613c0e565b61122f565b34801561065457600080fd5b506104a1610663366004613b1e565b611295565b6103a6610676366004613d98565b6112db565b34801561068757600080fd5b506104a16113a7565b34801561069c57600080fd5b506106b06106ab366004613b1e565b61145a565b6040516103d49190613de8565b3480156106c957600080fd5b5061041f6106d8366004613b1e565b611728565b3480156106e957600080fd5b506104a16106f8366004613c0e565b611788565b34801561070957600080fd5b506103a661180e565b34801561071e57600080fd5b506103a661072d366004613b1e565b611a19565b34801561073e57600080fd5b506104a161074d366004613b1e565b611a5a565b34801561075e57600080fd5b506103a661076d366004613ebc565b611aa0565b34801561077e57600080fd5b506103c861078d366004613c6c565b611b29565b34801561079e57600080fd5b506103f2611b54565b3480156107b357600080fd5b506103a66107c2366004613c0e565b611b63565b3480156107d357600080fd5b506103a66107e2366004613ebc565b611ba7565b3480156107f357600080fd5b506103c8610802366004613c0e565b6101306020526000908152604090205460ff1681565b34801561082457600080fd5b50610136546108339060ff1681565b6040516103d49190613efe565b34801561084c57600080fd5b506104a1600081565b34801561086157600080fd5b506103a6610870366004613f26565b611c3a565b34801561088157600080fd5b506103c8610890366004613f59565b805160208183018101805161012d8252928201919093012091525460ff1681565b3480156108bd57600080fd5b506103a66108cc366004613f8e565b611c45565b3480156108dd57600080fd5b506103c86108ec366004613c0e565b6101316020526000908152604090205460ff1681565b34801561090e57600080fd5b506103a661091d366004613fb0565b611d31565b6103a6610930366004614065565b611daf565b34801561094157600080fd5b506103a6610950366004613f8e565b611fdf565b34801561096157600080fd5b506103f2610970366004613b1e565b61205b565b34801561098157600080fd5b506103a6610990366004613f26565b612066565b3480156109a157600080fd5b506103a66109b0366004613c6c565b6120b7565b6103a66109c33660046140bc565b6120dc565b3480156109d457600080fd5b506104a16109e3366004613c0e565b612306565b3480156109f457600080fd5b506103a6610a03366004613f8e565b612311565b348015610a1457600080fd5b506104a1600080516020614d0883398151915281565b348015610a3657600080fd5b506103c8610a453660046140fe565b6001600160a01b039182166000908152606a6020908152604080832093909416825291909152205460ff1690565b348015610a7f57600080fd5b506104a1600080516020614d8883398151915281565b348015610aa157600080fd5b506103a6610ab036600461412c565b61238d565b348015610ac157600080fd5b506103a6610ad0366004613b1e565b612467565b348015610ae157600080fd5b506104a16101345481565b348015610af857600080fd5b506103a6610b0736600461415d565b612495565b348015610b1857600080fd5b50610b2c610b27366004613b1e565b612501565b6040516103d49a9998979695949392919061417e565b6000610b4d816126fe565b6101348290556040518281527fa39eb462f98ec2e2a17ca5c7f2a0a247d212213bf0c78a6e2a3df704911ef601906020015b60405180910390a15050565b6000610b9682612708565b80610ba55750610ba582612758565b92915050565b606060658054610bba90614209565b80601f0160208091040260200160405190810160405280929190818152602001828054610be690614209565b8015610c335780601f10610c0857610100808354040283529160200191610c33565b820191906000526020600020905b815481529060010190602001808311610c1657829003601f168201915b5050505050905090565b6000610c488261277d565b506000908152606960205260409020546001600160a01b031690565b6000610c6f82611728565b9050806001600160a01b0316836001600160a01b031603610ce15760405162461bcd60e51b815260206004820152602160248201527f4552433732313a20617070726f76616c20746f2063757272656e74206f776e656044820152603960f91b60648201526084015b60405180910390fd5b336001600160a01b0382161480610cfd5750610cfd8133610a45565b610d6f5760405162461bcd60e51b815260206004820152603d60248201527f4552433732313a20617070726f76652063616c6c6572206973206e6f7420746f60448201527f6b656e206f776e6572206f7220617070726f76656420666f7220616c6c0000006064820152608401610cd8565b610d7983836127dc565b505050565b60008082118015610d9157506101355482105b610dad5760405162461bcd60e51b8152600401610cd890614243565b50600090815261012e602052604090206003015461ffff1690565b60006001610dd66101355490565b610de09190614286565b905090565b60405162461bcd60e51b815260206004820152600b60248201526a139bdd08185b1b1bddd95960aa1b6044820152606401610cd8565b600082815260976020526040902060010154610e36816126fe565b610d79838361284a565b6001600160a01b0381163314610eb05760405162461bcd60e51b815260206004820152602f60248201527f416363657373436f6e74726f6c3a2063616e206f6e6c792072656e6f756e636560448201526e103937b632b9903337b91039b2b63360891b6064820152608401610cd8565b610eba82826128d0565b5050565b6001600160a01b037f0000000000000000000000000000000000000000000000000000000000000000163003610f065760405162461bcd60e51b8152600401610cd890614299565b7f00000000000000000000000000000000000000000000000000000000000000006001600160a01b0316610f4f600080516020614d28833981519152546001600160a01b031690565b6001600160a01b031614610f755760405162461bcd60e51b8152600401610cd8906142e5565b610f7e81612937565b60408051600080825260208201909252610f9a9183919061294f565b50565b6000610fa8816126fe565b604051600090339047908381818185875af1925050503d8060008114610fea576040519150601f19603f3d011682016040523d82523d6000602084013e610fef565b606091505b5050905080610eba5760405162461bcd60e51b815260206004820152601860248201527f4661696c656420746f20776974686472617720457468657200000000000000006044820152606401610cd8565b6000808211801561105357506101355482105b61106f5760405162461bcd60e51b8152600401610cd890614243565b50600090815261012e602052604090206003015462010000900461ffff1690565b3361109a84611728565b6001600160a01b0316146110c05760405162461bcd60e51b8152600401610cd890614331565b6001600160a01b038216600090815261012f602052604090205460ff1661113b5760405162461bcd60e51b815260206004820152602960248201527f5468652061646472657373206d757374206265206f6620612076616c69642061604482015268393134ba3930ba37b960b91b6064820152608401610cd8565b600083815261012e6020908152604080832060060180546001600160a01b0319166001600160a01b038716908117909155835261013190915290205460ff16156111bb5760408051602081018590520160408051601f19818403018152918152600085815261012e60205220600701906111b590826143c4565b506111d9565b600083815261012e602052604090206007016111d782826143c4565b505b7f4f1d179d53629f07a3ca3cde19840349df6dadc8fc11ac201c272ec77b8673d2838361012e600087815260200190815260200160002060070160405161122293929190614484565b60405180910390a1505050565b600080516020614d08833981519152611247816126fe565b6001600160a01b03821660008181526101306020526040808220805460ff19166001179055517f7409cb8e690bcd1487fd4fd27dad3fa92388d201ba6f953631d6d6b26299f8499190a25050565b600080821180156112a857506101355482105b6112c45760405162461bcd60e51b8152600401610cd890614243565b50600090815261012e602052604090206005015490565b6001600160a01b037f00000000000000000000000000000000000000000000000000000000000000001630036113235760405162461bcd60e51b8152600401610cd890614299565b7f00000000000000000000000000000000000000000000000000000000000000006001600160a01b031661136c600080516020614d28833981519152546001600160a01b031690565b6001600160a01b0316146113925760405162461bcd60e51b8152600401610cd8906142e5565b61139b82612937565b610eba8282600161294f565b6000306001600160a01b037f000000000000000000000000000000000000000000000000000000000000000016146114475760405162461bcd60e51b815260206004820152603860248201527f555550535570677261646561626c653a206d757374206e6f742062652063616c60448201527f6c6564207468726f7567682064656c656761746563616c6c00000000000000006064820152608401610cd8565b50600080516020614d2883398151915290565b6114c1604051806101400160405280600081526020016060815260200160608152602001600061ffff168152602001600061ffff168152602001600081526020016000815260200160006001600160a01b0316815260200160608152602001600081525090565b6000821180156114d357506101355482105b6114ef5760405162461bcd60e51b8152600401610cd890614243565b61012e6000838152602001908152602001600020604051806101400160405290816000820154815260200160018201805461152990614209565b80601f016020809104026020016040519081016040528092919081815260200182805461155590614209565b80156115a25780601f10611577576101008083540402835291602001916115a2565b820191906000526020600020905b81548152906001019060200180831161158557829003601f168201915b505050505081526020016002820180546115bb90614209565b80601f01602080910402602001604051908101604052809291908181526020018280546115e790614209565b80156116345780601f1061160957610100808354040283529160200191611634565b820191906000526020600020905b81548152906001019060200180831161161757829003601f168201915b5050509183525050600382015461ffff808216602084015262010000909104166040820152600482015460608201526005820154608082015260068201546001600160a01b031660a082015260078201805460c09092019161169590614209565b80601f01602080910402602001604051908101604052809291908181526020018280546116c190614209565b801561170e5780601f106116e35761010080835404028352916020019161170e565b820191906000526020600020905b8154815290600101906020018083116116f157829003601f168201915b505050505081526020016008820154815250509050919050565b6000818152606760205260408120546001600160a01b031680610ba55760405162461bcd60e51b8152602060048201526018602482015277115490cdcc8c4e881a5b9d985b1a59081d1bdad95b88125160421b6044820152606401610cd8565b60006001600160a01b0382166117f25760405162461bcd60e51b815260206004820152602960248201527f4552433732313a2061646472657373207a65726f206973206e6f7420612076616044820152683634b21037bbb732b960b91b6064820152608401610cd8565b506001600160a01b031660009081526068602052604090205490565b600054610100900460ff161580801561182e5750600054600160ff909116105b806118485750303b158015611848575060005460ff166001145b6118ab5760405162461bcd60e51b815260206004820152602e60248201527f496e697469616c697a61626c653a20636f6e747261637420697320616c72656160448201526d191e481a5b9a5d1a585b1a5e995960921b6064820152608401610cd8565b6000805460ff1916600117905580156118ce576000805461ff0019166101001790555b6119216040518060400160405280601581526020017415185b195b9d13185e595c941b185d199bdc9b5251605a1b815250604051806040016040528060048152602001631514125160e21b815250612aba565b611929612aeb565b611931612aeb565b61193c600033612b14565b611954600080516020614d8883398151915233612b14565b61196c600080516020614d0883398151915233612b14565b6000610133819055805261012f6020527fe9104285c6851efcbc5e0e70440200efbdcab556a1c8784776780f8bb44f2931805460ff191660011790556119b462015180610b42565b6119c361013580546001019055565b610136805460ff191660011790558015610f9a576000805461ff0019169055604051600181527f7f26b83ff96e1f2b6a682f133852f6798a09c465da95921460cefb38474024989060200160405180910390a150565b6000611a24816126fe565b6101338290556040518281527f38fbb1c8b109c430f0c030e7ed076cf5611a307773a4e8e365601e8f8bceaec690602001610b7f565b60008082118015611a6d57506101355482105b611a895760405162461bcd60e51b8152600401610cd890614243565b50600090815261012e602052604090206004015490565b33611aaa83611728565b6001600160a01b031614611ad05760405162461bcd60e51b8152600401610cd890614331565b600082815261012e6020908152604091829020600301805461ffff191661ffff85169081179091558251858152918201527f03c3aa7c7830e29d1571bfe33dc72a8b8e0297dd6fdf26ef720dee976e21125a9101610b7f565b60009182526097602090815260408084206001600160a01b0393909316845291905290205460ff1690565b606060668054610bba90614209565b6000611b6e816126fe565b506001600160a01b0316600090815261012f60209081526040808320805460ff1990811690915561013190925290912080549091169055565b33611bb183611728565b6001600160a01b031614611bd75760405162461bcd60e51b8152600401610cd890614331565b600082815261012e6020908152604091829020600301805463ffff000019166201000061ffff8616908102919091179091558251858152918201527fffeae29561efc186d4d5241d242f7e2b4a76f114ea5de0db37fbd19c3b1913a59101610b7f565b610eba338383612b1e565b33611c4f83611728565b6001600160a01b031614611c755760405162461bcd60e51b8152600401610cd890614331565b61013454811015611ce55760405162461bcd60e51b815260206004820152603460248201527f5468652074696d656f7574206d7573742062652067726561746572207468616e604482015273081d1a19481b5a5b9a5b5d5b481d1a5b595bdd5d60621b6064820152608401610cd8565b600082815261012e602090815260409182902060080183905581518481529081018390527face552c85eed7b5cf46330833e6f28b1f5ce696a4532e483192b5a64e4565e599101610b7f565b611d3b3383612bec565b611d9d5760405162461bcd60e51b815260206004820152602d60248201527f4552433732313a2063616c6c6572206973206e6f7420746f6b656e206f776e6560448201526c1c881bdc88185c1c1c9bdd9959609a1b6064820152608401610cd8565b611da984848484612c6b565b50505050565b82828260016101365460ff166002811115611dcc57611dcc613ee8565b1480611def575060026101365460ff166002811115611ded57611ded613ee8565b145b611e365760405162461bcd60e51b8152602060048201526018602482015277135a5b9d081cdd185d1d5cc81a5cc81b9bdd081d985b1a5960421b6044820152606401610cd8565b60016101365460ff166002811115611e5057611e50613ee8565b03611eaf57336000908152610130602052604090205460ff16611eaf5760405162461bcd60e51b8152602060048201526017602482015276165bdd48185c99481b9bdd081dda1a5d195b1a5cdd1959604a1b6044820152606401610cd8565b610133543414611ed15760405162461bcd60e51b8152600401610cd890614526565b611eda81612306565b15611ef75760405162461bcd60e51b8152600401610cd89061456a565b61012d8383604051611f0a9291906145ac565b9081526040519081900360200190205460ff1615611f5f5760405162461bcd60e51b81526020600482015260126024820152712730b6b29030b63932b0b23c903a30b5b2b760711b6044820152606401610cd8565b611f698383612c9e565b600080516020614d88833981519152611f81816126fe565b611f9485611f8f6101355490565b612e5d565b611fd587878080601f016020809104026020016040519081016040528093929190818152602001838380828437600092019190915250899250612e77915050565b5050505050505050565b33611fe983611728565b6001600160a01b03161461200f5760405162461bcd60e51b8152600401610cd890614331565b600082815261012e602090815260409182902060050183905581518481529081018390527f5cea455bfd7800a5b219f99906f1402cf18c09764b07b36821dc7285b86a77329101610b7f565b6060610ba582612f59565b6000612071816126fe565b506001600160a01b03909116600090815261012f60209081526040808320805460ff19908116600117909155610131909252909120805492151592909116919091179055565b6000828152609760205260409020600101546120d2816126fe565b610d7983836128d0565b81813360016101365460ff1660028111156120f9576120f9613ee8565b148061211c575060026101365460ff16600281111561211a5761211a613ee8565b145b6121635760405162461bcd60e51b8152602060048201526018602482015277135a5b9d081cdd185d1d5cc81a5cc81b9bdd081d985b1a5960421b6044820152606401610cd8565b60016101365460ff16600281111561217d5761217d613ee8565b036121dc57336000908152610130602052604090205460ff166121dc5760405162461bcd60e51b8152602060048201526017602482015276165bdd48185c99481b9bdd081dda1a5d195b1a5cdd1959604a1b6044820152606401610cd8565b6101335434146121fe5760405162461bcd60e51b8152600401610cd890614526565b61220781612306565b156122245760405162461bcd60e51b8152600401610cd89061456a565b61012d83836040516122379291906145ac565b9081526040519081900360200190205460ff161561228c5760405162461bcd60e51b81526020600482015260126024820152712730b6b29030b63932b0b23c903a30b5b2b760711b6044820152606401610cd8565b6122968383612c9e565b600080516020614d888339815191526122ae816126fe565b6122bc33611f8f6101355490565b6122fd86868080601f016020809104026020016040519081016040528093929190818152602001838380828437600092019190915250339250612e77915050565b50505050505050565b6000610ba582611788565b3361231b83611728565b6001600160a01b0316146123415760405162461bcd60e51b8152600401610cd890614331565b600082815261012e602090815260409182902060040183905581518481529081018390527fccc64c8fc3688d9eb2c0bb58ff0dfef1a8528bcc06528d991da400c83835838d9101610b7f565b3361239783611728565b6001600160a01b0316146123bd5760405162461bcd60e51b8152600401610cd890614331565b600081511161240e5760405162461bcd60e51b815260206004820152601f60248201527f53686f756c642070726f7669646520612076616c6964204950465320555249006044820152606401610cd8565b600082815261012e6020526040902060020161242a82826143c4565b50817f613807bd6768f626264e7eb664a65ca99a0d930f8fd8a5b868491a592eb57f728260405161245b9190613bba565b60405180910390a25050565b60008111801561247957506101355481105b610f9a5760405162461bcd60e51b8152600401610cd890614243565b600080516020614d088339815191526124ad816126fe565b610136805483919060ff191660018360028111156124cd576124cd613ee8565b02179055507fbe5bfaa294dd4b792e98f2bcf8f597b2ead214107f9bc9e8392d6ec65e8d854f82604051610b7f9190613efe565b61012e602052600090815260409020805460018201805491929161252490614209565b80601f016020809104026020016040519081016040528092919081815260200182805461255090614209565b801561259d5780601f106125725761010080835404028352916020019161259d565b820191906000526020600020905b81548152906001019060200180831161258057829003601f168201915b5050505050908060020180546125b290614209565b80601f01602080910402602001604051908101604052809291908181526020018280546125de90614209565b801561262b5780601f106126005761010080835404028352916020019161262b565b820191906000526020600020905b81548152906001019060200180831161260e57829003601f168201915b505050506003830154600484015460058501546006860154600787018054969761ffff8087169862010000909704169650939492936001600160a01b039092169261267590614209565b80601f01602080910402602001604051908101604052809291908181526020018280546126a190614209565b80156126ee5780601f106126c3576101008083540402835291602001916126ee565b820191906000526020600020905b8154815290600101906020018083116126d157829003601f168201915b505050505090806008015490508a565b610f9a8133613084565b60006001600160e01b031982166380ac58cd60e01b148061273957506001600160e01b03198216635b5e139f60e01b145b80610ba557506301ffc9a760e01b6001600160e01b0319831614610ba5565b60006001600160e01b03198216637965db0b60e01b1480610ba55750610ba582612708565b6000818152606760205260409020546001600160a01b0316610f9a5760405162461bcd60e51b8152602060048201526018602482015277115490cdcc8c4e881a5b9d985b1a59081d1bdad95b88125160421b6044820152606401610cd8565b600081815260696020526040902080546001600160a01b0319166001600160a01b038416908117909155819061281182611728565b6001600160a01b03167f8c5be1e5ebec7d5bd14f71427d1e84f3dd0314c0f7b2291e5b200ac8c7c3b92560405160405180910390a45050565b6128548282611b29565b610eba5760008281526097602090815260408083206001600160a01b03851684529091529020805460ff1916600117905561288c3390565b6001600160a01b0316816001600160a01b0316837f2f8788117e7eff1d82e926ec794901d17c78024a50270940304540a733656f0d60405160405180910390a45050565b6128da8282611b29565b15610eba5760008281526097602090815260408083206001600160a01b0385168085529252808320805460ff1916905551339285917ff6391f5c32d9c69d2a47ea670b442974b53935d1edc7fd64eb21e047a839171b9190a45050565b600080516020614d08833981519152610eba816126fe565b7f4910fdfa16fed3260ed0e7147f7cc6da11a60208b5b9406d12a635614ffd91435460ff161561298257610d79836130dd565b826001600160a01b03166352d1902d6040518163ffffffff1660e01b8152600401602060405180830381865afa9250505080156129dc575060408051601f3d908101601f191682019092526129d9918101906145bc565b60015b612a3f5760405162461bcd60e51b815260206004820152602e60248201527f45524331393637557067726164653a206e657720696d706c656d656e7461746960448201526d6f6e206973206e6f74205555505360901b6064820152608401610cd8565b600080516020614d288339815191528114612aae5760405162461bcd60e51b815260206004820152602960248201527f45524331393637557067726164653a20756e737570706f727465642070726f786044820152681a58589b195555525160ba1b6064820152608401610cd8565b50610d79838383613179565b600054610100900460ff16612ae15760405162461bcd60e51b8152600401610cd8906145d5565b610eba828261319e565b600054610100900460ff16612b125760405162461bcd60e51b8152600401610cd8906145d5565b565b610eba828261284a565b816001600160a01b0316836001600160a01b031603612b7f5760405162461bcd60e51b815260206004820152601960248201527f4552433732313a20617070726f766520746f2063616c6c6572000000000000006044820152606401610cd8565b6001600160a01b038381166000818152606a6020908152604080832094871680845294825291829020805460ff191686151590811790915591519182527f17307eab39ab6107e8899845ad3d59bd9653f200f220920489ca2b5937696c31910160405180910390a3505050565b600080612bf883611728565b9050806001600160a01b0316846001600160a01b03161480612c3f57506001600160a01b038082166000908152606a602090815260408083209388168352929052205460ff165b80612c635750836001600160a01b0316612c5884610c3d565b6001600160a01b0316145b949350505050565b612c768484846131de565b612c828484848461334f565b611da95760405162461bcd60e51b8152600401610cd890614620565b600082828080601f016020809104026020016040519081016040528093929190818152602001838380828437600092019190915250508251929350509015905080612cea57508051601f105b15612d0857604051633eb64ab360e01b815260040160405180910390fd5b805160005b81811015612e5657600360fc1b838281518110612d2c57612d2c614672565b01602001516001600160f81b0319161080612d6a5750603d60f91b838281518110612d5957612d59614672565b01602001516001600160f81b031916115b80612dc65750603960f81b838281518110612d8757612d87614672565b01602001516001600160f81b031916118015612dc65750606160f81b838281518110612db557612db5614672565b01602001516001600160f81b031916105b8015612df75750828181518110612ddf57612ddf614672565b6020910101516001600160f81b031916602d60f81b14155b8015612e285750828181518110612e1057612e10614672565b6020910101516001600160f81b031916605f60f81b14155b15612e4657604051630bb7f19b60e21b815260040160405180910390fd5b612e4f81614688565b9050612d0d565b5050505050565b610eba828260405180602001604052806000815250613450565b600080612e846101355490565b9050612e9561013580546001019055565b600081815261012e6020526040902060018101612eb286826143c4565b5081815561013454600882015560405160019061012d90612ed49088906146bd565b908152604080519182900360209081018320805494151560ff19909516949094179093556001600160a01b0387166000818152610132909452922084905561013354610134547f8475f1ba3b06c1e11c870cbbf9753ca9a8292ea0b203262f682de476dc268f8c92612f499287928b926146d9565b60405180910390a2509392505050565b600081815261012e6020526040812060010180546060929190612f7b90614209565b80601f0160208091040260200160405190810160405280929190818152602001828054612fa790614209565b8015612ff45780601f10612fc957610100808354040283529160200191612ff4565b820191906000526020600020905b815481529060010190602001808311612fd757829003601f168201915b505050505090506000613025826040516020016130119190614705565b604051602081830303815290604052613483565b6040516020016130359190614a69565b604051602081830303815290604052905061305c8282604051602001613011929190614aae565b60405160200161306c9190614b4b565b60405160208183030381529060405292505050919050565b61308e8282611b29565b610eba5761309b816135d6565b6130a68360206135e8565b6040516020016130b7929190614b90565b60408051601f198184030181529082905262461bcd60e51b8252610cd891600401613bba565b6001600160a01b0381163b61314a5760405162461bcd60e51b815260206004820152602d60248201527f455243313936373a206e657720696d706c656d656e746174696f6e206973206e60448201526c1bdd08184818dbdb9d1c9858dd609a1b6064820152608401610cd8565b600080516020614d2883398151915280546001600160a01b0319166001600160a01b0392909216919091179055565b6131828361378b565b60008251118061318f5750805b15610d7957611da983836137cb565b600054610100900460ff166131c55760405162461bcd60e51b8152600401610cd8906145d5565b60656131d183826143c4565b506066610d7982826143c4565b826001600160a01b03166131f182611728565b6001600160a01b0316146132175760405162461bcd60e51b8152600401610cd890614c05565b6001600160a01b0382166132795760405162461bcd60e51b8152602060048201526024808201527f4552433732313a207472616e7366657220746f20746865207a65726f206164646044820152637265737360e01b6064820152608401610cd8565b61328683838360016138bf565b826001600160a01b031661329982611728565b6001600160a01b0316146132bf5760405162461bcd60e51b8152600401610cd890614c05565b600081815260696020908152604080832080546001600160a01b03199081169091556001600160a01b0387811680865260688552838620805460001901905590871680865283862080546001019055868652606790945282852080549092168417909155905184937fddf252ad1be2c89b69c2b068fc378daa952ba7f163c4a11628f55a4df523b3ef91a4505050565b60006001600160a01b0384163b1561344557604051630a85bd0160e11b81526001600160a01b0385169063150b7a0290613393903390899088908890600401614c4a565b6020604051808303816000875af19250505080156133ce575060408051601f3d908101601f191682019092526133cb91810190614c87565b60015b61342b573d8080156133fc576040519150601f19603f3d011682016040523d82523d6000602084013e613401565b606091505b5080516000036134235760405162461bcd60e51b8152600401610cd890614620565b805181602001fd5b6001600160e01b031916630a85bd0160e11b149050612c63565b506001949350505050565b61345a8383613947565b613467600084848461334f565b610d795760405162461bcd60e51b8152600401610cd890614620565b606081516000036134a257505060408051602081019091526000815290565b6000604051806060016040528060408152602001614d4860409139905060006003845160026134d19190614ca4565b6134db9190614cb7565b6134e6906004614cd9565b67ffffffffffffffff8111156134fe576134fe613c9c565b6040519080825280601f01601f191660200182016040528015613528576020820181803683370190505b509050600182016020820185865187015b80821015613594576003820191508151603f8160121c168501518453600184019350603f81600c1c168501518453600184019350603f8160061c168501518453600184019350603f8116850151845350600183019250613539565b50506003865106600181146135b057600281146135c3576135cb565b603d6001830353603d60028303536135cb565b603d60018303535b509195945050505050565b6060610ba56001600160a01b03831660145b606060006135f7836002614cd9565b613602906002614ca4565b67ffffffffffffffff81111561361a5761361a613c9c565b6040519080825280601f01601f191660200182016040528015613644576020820181803683370190505b509050600360fc1b8160008151811061365f5761365f614672565b60200101906001600160f81b031916908160001a905350600f60fb1b8160018151811061368e5761368e614672565b60200101906001600160f81b031916908160001a90535060006136b2846002614cd9565b6136bd906001614ca4565b90505b6001811115613735576f181899199a1a9b1b9c1cb0b131b232b360811b85600f16601081106136f1576136f1614672565b1a60f81b82828151811061370757613707614672565b60200101906001600160f81b031916908160001a90535060049490941c9361372e81614cf0565b90506136c0565b5083156137845760405162461bcd60e51b815260206004820181905260248201527f537472696e67733a20686578206c656e67746820696e73756666696369656e746044820152606401610cd8565b9392505050565b613794816130dd565b6040516001600160a01b038216907fbc7cd75a20ee27fd9adebab32041f755214dbc6bffa90cc0225b39da2e5c2d3b90600090a250565b60606001600160a01b0383163b6138335760405162461bcd60e51b815260206004820152602660248201527f416464726573733a2064656c65676174652063616c6c20746f206e6f6e2d636f6044820152651b9d1c9858dd60d21b6064820152608401610cd8565b600080846001600160a01b03168460405161384e91906146bd565b600060405180830381855af49150503d8060008114613889576040519150601f19603f3d011682016040523d82523d6000602084013e61388e565b606091505b50915091506138b68282604051806060016040528060278152602001614da860279139613ae0565b95945050505050565b6001811115611da9576001600160a01b03841615613905576001600160a01b038416600090815260686020526040812080548392906138ff908490614286565b90915550505b6001600160a01b03831615611da9576001600160a01b0383166000908152606860205260408120805483929061393c908490614ca4565b909155505050505050565b6001600160a01b03821661399d5760405162461bcd60e51b815260206004820181905260248201527f4552433732313a206d696e7420746f20746865207a65726f20616464726573736044820152606401610cd8565b6000818152606760205260409020546001600160a01b031615613a025760405162461bcd60e51b815260206004820152601c60248201527f4552433732313a20746f6b656e20616c7265616479206d696e746564000000006044820152606401610cd8565b613a106000838360016138bf565b6000818152606760205260409020546001600160a01b031615613a755760405162461bcd60e51b815260206004820152601c60248201527f4552433732313a20746f6b656e20616c7265616479206d696e746564000000006044820152606401610cd8565b6001600160a01b038216600081815260686020908152604080832080546001019055848352606790915280822080546001600160a01b0319168417905551839291907fddf252ad1be2c89b69c2b068fc378daa952ba7f163c4a11628f55a4df523b3ef908290a45050565b60608315613aef575081613784565b6137848383815115613b045781518083602001fd5b8060405162461bcd60e51b8152600401610cd89190613bba565b600060208284031215613b3057600080fd5b5035919050565b6001600160e01b031981168114610f9a57600080fd5b600060208284031215613b5f57600080fd5b813561378481613b37565b60005b83811015613b85578181015183820152602001613b6d565b50506000910152565b60008151808452613ba6816020860160208601613b6a565b601f01601f19169290920160200192915050565b6020815260006137846020830184613b8e565b6001600160a01b0381168114610f9a57600080fd5b60008060408385031215613bf557600080fd5b8235613c0081613bcd565b946020939093013593505050565b600060208284031215613c2057600080fd5b813561378481613bcd565b600080600060608486031215613c4057600080fd5b8335613c4b81613bcd565b92506020840135613c5b81613bcd565b929592945050506040919091013590565b60008060408385031215613c7f57600080fd5b823591506020830135613c9181613bcd565b809150509250929050565b634e487b7160e01b600052604160045260246000fd5b600082601f830112613cc357600080fd5b813567ffffffffffffffff80821115613cde57613cde613c9c565b604051601f8301601f19908116603f01168101908282118183101715613d0657613d06613c9c565b81604052838152866020858801011115613d1f57600080fd5b836020870160208301376000602085830101528094505050505092915050565b600080600060608486031215613d5457600080fd5b833592506020840135613d6681613bcd565b9150604084013567ffffffffffffffff811115613d8257600080fd5b613d8e86828701613cb2565b9150509250925092565b60008060408385031215613dab57600080fd5b8235613db681613bcd565b9150602083013567ffffffffffffffff811115613dd257600080fd5b613dde85828601613cb2565b9150509250929050565b602081528151602082015260006020830151610140806040850152613e11610160850183613b8e565b91506040850151601f1980868503016060870152613e2f8483613b8e565b935060608701519150613e48608087018361ffff169052565b608087015161ffff811660a0880152915060a087015160c087015260c087015160e087015260e08701519150610100613e8b818801846001600160a01b03169052565b80880151925050610120818786030181880152613ea88584613b8e565b970151959092019490945250929392505050565b60008060408385031215613ecf57600080fd5b82359150602083013561ffff81168114613c9157600080fd5b634e487b7160e01b600052602160045260246000fd5b6020810160038310613f2057634e487b7160e01b600052602160045260246000fd5b91905290565b60008060408385031215613f3957600080fd5b8235613f4481613bcd565b915060208301358015158114613c9157600080fd5b600060208284031215613f6b57600080fd5b813567ffffffffffffffff811115613f8257600080fd5b612c6384828501613cb2565b60008060408385031215613fa157600080fd5b50508035926020909101359150565b60008060008060808587031215613fc657600080fd5b8435613fd181613bcd565b93506020850135613fe181613bcd565b925060408501359150606085013567ffffffffffffffff81111561400457600080fd5b61401087828801613cb2565b91505092959194509250565b60008083601f84011261402e57600080fd5b50813567ffffffffffffffff81111561404657600080fd5b60208301915083602082850101111561405e57600080fd5b9250929050565b60008060006040848603121561407a57600080fd5b833567ffffffffffffffff81111561409157600080fd5b61409d8682870161401c565b90945092505060208401356140b181613bcd565b809150509250925092565b600080602083850312156140cf57600080fd5b823567ffffffffffffffff8111156140e657600080fd5b6140f28582860161401c565b90969095509350505050565b6000806040838503121561411157600080fd5b823561411c81613bcd565b91506020830135613c9181613bcd565b6000806040838503121561413f57600080fd5b82359150602083013567ffffffffffffffff811115613dd257600080fd5b60006020828403121561416f57600080fd5b81356003811061378457600080fd5b60006101408c83528060208401526141988184018d613b8e565b905082810360408401526141ac818c613b8e565b61ffff8b811660608601528a16608085015260a0840189905260c084018890526001600160a01b03871660e085015283810361010085015290506141f08186613b8e565b915050826101208301529b9a5050505050505050505050565b600181811c9082168061421d57607f821691505b60208210810361423d57634e487b7160e01b600052602260045260246000fd5b50919050565b602080825260139082015272125b9d985b1a59081c1b185d199bdc9b481251606a1b604082015260600190565b634e487b7160e01b600052601160045260246000fd5b81810381811115610ba557610ba5614270565b6020808252602c908201527f46756e6374696f6e206d7573742062652063616c6c6564207468726f7567682060408201526b19195b1959d85d1958d85b1b60a21b606082015260800190565b6020808252602c908201527f46756e6374696f6e206d7573742062652063616c6c6564207468726f7567682060408201526b6163746976652070726f787960a01b606082015260800190565b60208082526025908201527f596f75277265206e6f7420746865206f776e6572206f66207468697320706c6160408201526474666f726d60d81b606082015260800190565b601f821115610d7957600081815260208120601f850160051c8101602086101561439d5750805b601f850160051c820191505b818110156143bc578281556001016143a9565b505050505050565b815167ffffffffffffffff8111156143de576143de613c9c565b6143f2816143ec8454614209565b84614376565b602080601f831160018114614427576000841561440f5750858301515b600019600386901b1c1916600185901b1785556143bc565b600085815260208120601f198616915b8281101561445657888601518255948401946001909101908401614437565b50858210156144745787850151600019600388901b60f8161c191681555b5050505050600190811b01905550565b8381526000602060018060a01b0385168184015260606040840152600084546144ac81614209565b80606087015260806001808416600081146144ce57600181146144e857614516565b60ff1985168984015283151560051b890183019550614516565b896000528660002060005b8581101561450e5781548b82018601529083019088016144f3565b8a0184019650505b50939a9950505050505050505050565b60208082526024908201527f496e636f727265637420616d6f756e74206f662045544820666f72206d696e746040820152632066656560e01b606082015260800190565b60208082526022908201527f506c6174666f726d20616c726561647920686173206120506c6174666f726d20604082015261125160f21b606082015260800190565b8183823760009101908152919050565b6000602082840312156145ce57600080fd5b5051919050565b6020808252602b908201527f496e697469616c697a61626c653a20636f6e7472616374206973206e6f74206960408201526a6e697469616c697a696e6760a81b606082015260800190565b60208082526032908201527f4552433732313a207472616e7366657220746f206e6f6e20455243373231526560408201527131b2b4bb32b91034b6b83632b6b2b73a32b960711b606082015260800190565b634e487b7160e01b600052603260045260246000fd5b60006001820161469a5761469a614270565b5060010190565b600081516146b3818560208601613b6a565b9290920192915050565b600082516146cf818460208701613b6a565b9190910192915050565b8481526080602082015260006146f26080830186613b8e565b6040830194909452506060015292915050565b7f3c73766720786d6c6e733d22687474703a2f2f7777772e77332e6f72672f323081527f30302f737667222077696474683d2237323022206865696768743d223732302260208201527f3e3c726563742077696474683d223130302522206865696768743d223130302560408201527f222f3e3c73766720786d6c6e733d22687474703a2f2f7777772e77332e6f726760608201527f2f323030302f737667222077696474683d2231353022206865696768743d223160808201527f3530222076657273696f6e3d22312e32222076696577426f783d222d3230302060a08201527f2d353020313030302031303030223e3c706174682066696c6c3d22234646464660c08201527f46462220643d224d3236342e35203139302e3563302d31332e382031312e322d60e08201527f32352032352d3235483536386331332e3820302032352031312e3220323520326101008201527f357634393063302031332e382d31312e322032352d3235203235483238392e356101208201527f632d31332e3820302d32352d31312e322d32352d32357a222f3e3c70617468206101408201527f66696c6c3d22234646464646462220643d224d3236352036323463302d31332e6101608201527f382031312e322d32352032352d3235683534336331332e3820302032352031316101808201527f2e322032352032357635362e3563302031332e382d31312e322032352d3235206101a08201527f323548323930632d31332e3820302d32352d31312e322d32352d32357a222f3e6101c08201527f3c706174682066696c6c3d22234646464646462220643d224d30203139302e356101e08201527f63302d31332e382031312e322d32352032352d3235683534336331332e3820306102008201527f2032352031312e322032352032355632343763302031332e382d31312e3220326102208201527f352d3235203235483235632d31332e3820302d32352d31312e322d32352d32356102408201527f7a222f3e3c2f7376673e3c7465787420783d2233302220793d223637302220736102608201527f74796c653d22666f6e743a363070782073616e732d73657269663b66696c6c3a6102808201526511b33333111f60d11b6102a08201526000613784614a506102a68401856146a1565b6c1e17ba32bc3a1f1e17b9bb339f60991b8152600d0190565b7f646174613a696d6167652f7376672b786d6c3b6261736536342c000000000000815260008251614aa181601a850160208701613b6a565b91909101601a0192915050565b683d913730b6b2911d1160b91b81528251600090614ad3816009850160208801613b6a565b6b1116101134b6b0b3b2911d1160a11b6009918401918201528351614aff816015840160208801613b6a565b7f222c20226465736372697074696f6e223a202254616c656e74204c6179657220601592909101918201526c506c6174666f726d204944227d60981b6035820152604201949350505050565b7f646174613a6170706c69636174696f6e2f6a736f6e3b6261736536342c000000815260008251614b8381601d850160208701613b6a565b91909101601d0192915050565b7f416363657373436f6e74726f6c3a206163636f756e7420000000000000000000815260008351614bc8816017850160208801613b6a565b7001034b99036b4b9b9b4b733903937b6329607d1b6017918401918201528351614bf9816028840160208801613b6a565b01602801949350505050565b60208082526025908201527f4552433732313a207472616e736665722066726f6d20696e636f72726563742060408201526437bbb732b960d91b606082015260800190565b6001600160a01b0385811682528416602082015260408101839052608060608201819052600090614c7d90830184613b8e565b9695505050505050565b600060208284031215614c9957600080fd5b815161378481613b37565b80820180821115610ba557610ba5614270565b600082614cd457634e487b7160e01b600052601260045260246000fd5b500490565b8082028115828204841417610ba557610ba5614270565b600081614cff57614cff614270565b50600019019056feb19546dff01e856fb3f010c267a7b1c60363cf8a4664e21cc89c26224620214e360894a13ba1a3210667c828492db98dca3e2076cc3735a920a3ca505d382bbc4142434445464748494a4b4c4d4e4f505152535455565758595a6162636465666768696a6b6c6d6e6f707172737475767778797a303132333435363738392b2f154c00819833dac601ee5ddded6fda79d9d8b506b911b3dbd54cdb95fe6c3686416464726573733a206c6f772d6c6576656c2064656c65676174652063616c6c206661696c6564a264697066735822122012c565af122ee25e57dd8071c1f419d142bff03a76300e7a25e46a12e977f06664736f6c63430008110033",
  "linkReferences": {},
  "deployedLinkReferences": {}
}