{
  "_format": "hh-sol-artifact-1",
  "contractName": "TalentLayerReview",
  "sourceName": "contracts/TalentLayerReview.sol",
  "abi": [
    {
      "inputs": [
        {
          "internalType": "string",
          "name": "name_",
          "type": "string"
        },
        {
          "internalType": "string",
          "name": "symbol_",
          "type": "string"
        },
        {
          "internalType": "address",
          "name": "_talentLayerIdAddress",
          "type": "address"
        },
        {
          "internalType": "address",
          "name": "_serviceRegistryAddress",
          "type": "address"
        },
        {
          "internalType": "address",
          "name": "_talentLayerPlatformIdAddress",
          "type": "address"
        }
      ],
      "stateMutability": "nonpayable",
      "type": "constructor"
    },
    {
      "inputs": [],
      "name": "ReviewAlreadyMinted",
      "type": "error"
    },
    {
      "anonymous": false,
      "inputs": [
        {
          "indexed": true,
          "internalType": "address",
          "name": "owner",
          "type": "address"
        },
        {
          "indexed": true,
          "internalType": "address",
          "name": "approved",
          "type": "address"
        },
        {
          "indexed": true,
          "internalType": "uint256",
          "name": "tokenId",
          "type": "uint256"
        }
      ],
      "name": "Approval",
      "type": "event"
    },
    {
      "anonymous": false,
      "inputs": [
        {
          "indexed": true,
          "internalType": "address",
          "name": "owner",
          "type": "address"
        },
        {
          "indexed": true,
          "internalType": "address",
          "name": "operator",
          "type": "address"
        },
        {
          "indexed": false,
          "internalType": "bool",
          "name": "approved",
          "type": "bool"
        }
      ],
      "name": "ApprovalForAll",
      "type": "event"
    },
    {
      "anonymous": false,
      "inputs": [
        {
          "indexed": true,
          "internalType": "uint256",
          "name": "_serviceId",
          "type": "uint256"
        },
        {
          "indexed": true,
          "internalType": "uint256",
          "name": "_toId",
          "type": "uint256"
        },
        {
          "indexed": true,
          "internalType": "uint256",
          "name": "_tokenId",
          "type": "uint256"
        },
        {
          "indexed": false,
          "internalType": "uint256",
          "name": "_rating",
          "type": "uint256"
        },
        {
          "indexed": false,
          "internalType": "string",
          "name": "_reviewUri",
          "type": "string"
        },
        {
          "indexed": false,
          "internalType": "uint256",
          "name": "_platformId",
          "type": "uint256"
        }
      ],
      "name": "Mint",
      "type": "event"
    },
    {
      "anonymous": false,
      "inputs": [
        {
          "indexed": true,
          "internalType": "address",
          "name": "from",
          "type": "address"
        },
        {
          "indexed": true,
          "internalType": "address",
          "name": "to",
          "type": "address"
        },
        {
          "indexed": true,
          "internalType": "uint256",
          "name": "tokenId",
          "type": "uint256"
        }
      ],
      "name": "Transfer",
      "type": "event"
    },
    {
      "inputs": [],
      "name": "_totalSupply",
      "outputs": [
        {
          "internalType": "uint256",
          "name": "",
          "type": "uint256"
        }
      ],
      "stateMutability": "view",
      "type": "function"
    },
    {
      "inputs": [
        {
          "internalType": "uint256",
          "name": "_serviceId",
          "type": "uint256"
        },
        {
          "internalType": "string",
          "name": "_reviewUri",
          "type": "string"
        },
        {
          "internalType": "uint256",
          "name": "_rating",
          "type": "uint256"
        },
        {
          "internalType": "uint256",
          "name": "_platformId",
          "type": "uint256"
        }
      ],
      "name": "addReview",
      "outputs": [],
      "stateMutability": "nonpayable",
      "type": "function"
    },
    {
      "inputs": [
        {
          "internalType": "address",
          "name": "to",
          "type": "address"
        },
        {
          "internalType": "uint256",
          "name": "tokenId",
          "type": "uint256"
        }
      ],
      "name": "approve",
      "outputs": [],
      "stateMutability": "nonpayable",
      "type": "function"
    },
    {
      "inputs": [
        {
          "internalType": "address",
          "name": "owner",
          "type": "address"
        }
      ],
      "name": "balanceOf",
      "outputs": [
        {
          "internalType": "uint256",
          "name": "",
          "type": "uint256"
        }
      ],
      "stateMutability": "view",
      "type": "function"
    },
    {
      "inputs": [
        {
          "internalType": "uint256",
          "name": "tokenId",
          "type": "uint256"
        }
      ],
      "name": "getApproved",
      "outputs": [
        {
          "internalType": "address",
          "name": "",
          "type": "address"
        }
      ],
      "stateMutability": "view",
      "type": "function"
    },
    {
      "inputs": [
        {
          "internalType": "address",
          "name": "owner",
          "type": "address"
        },
        {
          "internalType": "address",
          "name": "operator",
          "type": "address"
        }
      ],
      "name": "isApprovedForAll",
      "outputs": [
        {
          "internalType": "bool",
          "name": "",
          "type": "bool"
        }
      ],
      "stateMutability": "view",
      "type": "function"
    },
    {
      "inputs": [],
      "name": "name",
      "outputs": [
        {
          "internalType": "string",
          "name": "",
          "type": "string"
        }
      ],
      "stateMutability": "view",
      "type": "function"
    },
    {
      "inputs": [
        {
          "internalType": "uint256",
          "name": "",
          "type": "uint256"
        }
      ],
      "name": "nftMintedByServiceAndbuyerId",
      "outputs": [
        {
          "internalType": "uint256",
          "name": "",
          "type": "uint256"
        }
      ],
      "stateMutability": "view",
      "type": "function"
    },
    {
      "inputs": [
        {
          "internalType": "uint256",
          "name": "",
          "type": "uint256"
        }
      ],
      "name": "nftMintedByServiceAndsellerId",
      "outputs": [
        {
          "internalType": "uint256",
          "name": "",
          "type": "uint256"
        }
      ],
      "stateMutability": "view",
      "type": "function"
    },
    {
      "inputs": [
        {
          "internalType": "uint256",
          "name": "tokenId",
          "type": "uint256"
        }
      ],
      "name": "ownerOf",
      "outputs": [
        {
          "internalType": "address",
          "name": "",
          "type": "address"
        }
      ],
      "stateMutability": "view",
      "type": "function"
    },
    {
      "inputs": [
        {
          "internalType": "uint256",
          "name": "",
          "type": "uint256"
        }
      ],
      "name": "reviewDataUri",
      "outputs": [
        {
          "internalType": "string",
          "name": "",
          "type": "string"
        }
      ],
      "stateMutability": "view",
      "type": "function"
    },
    {
      "inputs": [
        {
          "internalType": "uint256",
          "name": "",
          "type": "uint256"
        }
      ],
      "name": "reviewIdToPlatformId",
      "outputs": [
        {
          "internalType": "uint256",
          "name": "",
          "type": "uint256"
        }
      ],
      "stateMutability": "view",
      "type": "function"
    },
    {
      "inputs": [
        {
          "internalType": "address",
          "name": "from",
          "type": "address"
        },
        {
          "internalType": "address",
          "name": "to",
          "type": "address"
        },
        {
          "internalType": "uint256",
          "name": "tokenId",
          "type": "uint256"
        }
      ],
      "name": "safeTransferFrom",
      "outputs": [],
      "stateMutability": "nonpayable",
      "type": "function"
    },
    {
      "inputs": [
        {
          "internalType": "address",
          "name": "from",
          "type": "address"
        },
        {
          "internalType": "address",
          "name": "to",
          "type": "address"
        },
        {
          "internalType": "uint256",
          "name": "tokenId",
          "type": "uint256"
        },
        {
          "internalType": "bytes",
          "name": "data",
          "type": "bytes"
        }
      ],
      "name": "safeTransferFrom",
      "outputs": [],
      "stateMutability": "nonpayable",
      "type": "function"
    },
    {
      "inputs": [
        {
          "internalType": "address",
          "name": "operator",
          "type": "address"
        },
        {
          "internalType": "bool",
          "name": "approved",
          "type": "bool"
        }
      ],
      "name": "setApprovalForAll",
      "outputs": [],
      "stateMutability": "nonpayable",
      "type": "function"
    },
    {
      "inputs": [
        {
          "internalType": "bytes4",
          "name": "interfaceId",
          "type": "bytes4"
        }
      ],
      "name": "supportsInterface",
      "outputs": [
        {
          "internalType": "bool",
          "name": "",
          "type": "bool"
        }
      ],
      "stateMutability": "view",
      "type": "function"
    },
    {
      "inputs": [],
      "name": "symbol",
      "outputs": [
        {
          "internalType": "string",
          "name": "",
          "type": "string"
        }
      ],
      "stateMutability": "view",
      "type": "function"
    },
    {
      "inputs": [],
      "name": "talentLayerPlatformIdContract",
      "outputs": [
        {
          "internalType": "contract ITalentLayerPlatformID",
          "name": "",
          "type": "address"
        }
      ],
      "stateMutability": "view",
      "type": "function"
    },
    {
      "inputs": [
        {
          "internalType": "uint256",
          "name": "tokenId",
          "type": "uint256"
        }
      ],
      "name": "tokenURI",
      "outputs": [
        {
          "internalType": "string",
          "name": "",
          "type": "string"
        }
      ],
      "stateMutability": "view",
      "type": "function"
    },
    {
      "inputs": [
        {
          "internalType": "address",
          "name": "from",
          "type": "address"
        },
        {
          "internalType": "address",
          "name": "to",
          "type": "address"
        },
        {
          "internalType": "uint256",
          "name": "tokenId",
          "type": "uint256"
        }
      ],
      "name": "transferFrom",
      "outputs": [],
      "stateMutability": "nonpayable",
      "type": "function"
    }
  ],
  "bytecode": "0x608060405260006002553480156200001657600080fd5b5060405162001d0538038062001d0583398101604081905262000039916200023b565b84516200004e906000906020880190620000ab565b50835162000064906001906020870190620000ab565b50600b80546001600160a01b039485166001600160a01b031991821617909155600c805493851693821693909317909255600d8054919093169116179055506200031a9050565b828054620000b990620002dd565b90600052602060002090601f016020900481019282620000dd576000855562000128565b82601f10620000f857805160ff191683800117855562000128565b8280016001018555821562000128579182015b82811115620001285782518255916020019190600101906200010b565b50620001369291506200013a565b5090565b5b808211156200013657600081556001016200013b565b634e487b7160e01b600052604160045260246000fd5b600082601f8301126200017957600080fd5b81516001600160401b038082111562000196576200019662000151565b604051601f8301601f19908116603f01168101908282118183101715620001c157620001c162000151565b81604052838152602092508683858801011115620001de57600080fd5b600091505b83821015620002025785820183015181830184015290820190620001e3565b83821115620002145760008385830101525b9695505050505050565b80516001600160a01b03811681146200023657600080fd5b919050565b600080600080600060a086880312156200025457600080fd5b85516001600160401b03808211156200026c57600080fd5b6200027a89838a0162000167565b965060208801519150808211156200029157600080fd5b50620002a08882890162000167565b945050620002b1604087016200021e565b9250620002c1606087016200021e565b9150620002d1608087016200021e565b90509295509295909350565b600181811c90821680620002f257607f821691505b602082108114156200031457634e487b7160e01b600052602260045260246000fd5b50919050565b6119db806200032a6000396000f3fe608060405234801561001057600080fd5b506004361061012c5760003560e01c80635708223b116100ad578063b88d4fde11610071578063b88d4fde14610292578063c87b56dd146102a5578063d56e06d6146102b8578063e985e9c5146102d8578063f252ff3f1461031457600080fd5b80635708223b146102315780636352211e1461025157806370a082311461026457806395d89b4114610277578063a22cb4651461027f57600080fd5b806323b872dd116100f457806323b872dd146101c15780632656c6e4146101d45780633eaaf86b1461020257806342842e0e1461020b57806352a2383b1461021e57600080fd5b806301ffc9a71461013157806306fdde0314610159578063081812fc1461016e578063095ea7b3146101995780631499f9e6146101ae575b600080fd5b61014461013f36600461121a565b610327565b60405190151581526020015b60405180910390f35b610161610379565b604051610150919061128f565b61018161017c3660046112a2565b61040b565b6040516001600160a01b039091168152602001610150565b6101ac6101a73660046112d0565b610432565b005b600d54610181906001600160a01b031681565b6101ac6101cf3660046112fc565b61056a565b6101f46101e23660046112a2565b60086020526000908152604090205481565b604051908152602001610150565b6101f460025481565b6101ac6102193660046112fc565b610590565b61016161022c3660046112a2565b6105ab565b6101f461023f3660046112a2565b60096020526000908152604090205481565b61018161025f3660046112a2565b610645565b6101f461027236600461133d565b6106fd565b610161610809565b6101ac61028d36600461135a565b610818565b6101ac6102a0366004611430565b610827565b6101616102b33660046112a2565b61085f565b6101f46102c63660046112a2565b600a6020526000908152604090205481565b6101446102e63660046114df565b6001600160a01b03918216600090815260066020908152604080832093909416825291909152205460ff1690565b6101ac61032236600461150d565b6108d3565b60006001600160e01b031982166380ac58cd60e01b148061035857506001600160e01b03198216635b5e139f60e01b145b8061037357506301ffc9a760e01b6001600160e01b03198316145b92915050565b60606000805461038890611598565b80601f01602080910402602001604051908101604052809291908181526020018280546103b490611598565b80156104015780601f106103d657610100808354040283529160200191610401565b820191906000526020600020905b8154815290600101906020018083116103e457829003601f168201915b5050505050905090565b600061041682610bbb565b506000908152600560205260409020546001600160a01b031690565b600061043d82610645565b9050806001600160a01b0316836001600160a01b031614156104bb5760405162461bcd60e51b815260206004820152602c60248201527f54616c656e744c617965725265766965773a20617070726f76616c20746f206360448201526b3ab93932b73a1037bbb732b960a11b60648201526084015b60405180910390fd5b336001600160a01b03821614806104d757506104d781336102e6565b61055b5760405162461bcd60e51b815260206004820152604960248201527f54616c656e744c617965725265766965773a20617070726f76652063616c6c6560448201527f72206973206e6f7420746f6b656e206f776e6572206e6f7220617070726f76656064820152681908199bdc88185b1b60ba1b608482015260a4016104b2565b6105658383610be9565b505050565b6105743382610c57565b6105655760405162461bcd60e51b81526004016104b2906115d3565b61056583838360405180602001604052806000815250610827565b600760205260009081526040902080546105c490611598565b80601f01602080910402602001604051908101604052809291908181526020018280546105f090611598565b801561063d5780601f106106125761010080835404028352916020019161063d565b820191906000526020600020905b81548152906001019060200180831161062057829003601f168201915b505050505081565b600b546000828152600360205260408082205490516331a9108f60e11b81526004810191909152909182916001600160a01b0390911690636352211e9060240160206040518083038186803b15801561069d57600080fd5b505afa1580156106b1573d6000803e3d6000fd5b505050506040513d601f19601f820116820180604052508101906106d59190611630565b90506001600160a01b0381166103735760405162461bcd60e51b81526004016104b29061164d565b60006001600160a01b0382166107705760405162461bcd60e51b815260206004820152603260248201527f54616c656e744c617965725265766965773a20746f6b656e207a65726f206973604482015271103737ba1030903b30b634b21037bbb732b960711b60648201526084016104b2565b600b5460405162438b6360e81b81526001600160a01b038481166004808401919091529260009291169063438b63009060240160206040518083038186803b1580156107bb57600080fd5b505afa1580156107cf573d6000803e3d6000fd5b505050506040513d601f19601f820116820180604052508101906107f39190611690565b8152602001908152602001600020549050919050565b60606001805461038890611598565b610823338383610cd6565b5050565b6108313383610c57565b61084d5760405162461bcd60e51b81526004016104b2906115d3565b61085984848484610db1565b50505050565b606061086a82610bbb565b600061088160408051602081019091526000815290565b905060008151116108a157604051806020016040528060008152506108cc565b806108ab84610dd9565b6040516020016108bc9291906116a9565b6040516020818303038152906040525b9392505050565b600c5460405163ef0e239b60e01b8152600481018790526000916001600160a01b03169063ef0e239b9060240160006040518083038186803b15801561091857600080fd5b505afa15801561092c573d6000803e3d6000fd5b505050506040513d6000823e601f3d908101601f191682016040526109549190810190611731565b600b5460405162438b6360e81b81523360048201529192506000916001600160a01b039091169063438b63009060240160206040518083038186803b15801561099c57600080fd5b505afa1580156109b0573d6000803e3d6000fd5b505050506040513d601f19601f820116820180604052508101906109d49190611690565b905081602001518114806109eb5750816040015181145b610a435760405162461bcd60e51b815260206004820152602360248201527f596f75277265206e6f7420616e206163746f72206f662074686973207365727660448201526269636560e81b60648201526084016104b2565b600282516004811115610a5857610a586117e4565b14610aa55760405162461bcd60e51b815260206004820152601f60248201527f5468652073657276696365206973206e6f742066696e6973686564207965740060448201526064016104b2565b600d5460405162f577a560e81b8152600481018590526001600160a01b039091169063f577a5009060240160006040518083038186803b158015610ae857600080fd5b505afa158015610afc573d6000803e3d6000fd5b5050505060008260200151821415610b5a5750604080830151600089815260086020529190912054821415610b4457604051633d36d72960e01b815260040160405180910390fd5b6000888152600860205260409020829055610ba3565b5060208083015160008981526009909252604090912054821415610b9157604051633d36d72960e01b815260040160405180910390fd5b60008881526009602052604090208290555b610bb18882878a8a89610ed7565b5050505050505050565b600081815260036020526040902054610be65760405162461bcd60e51b81526004016104b29061164d565b50565b600081815260056020526040902080546001600160a01b0319166001600160a01b0384169081179091558190610c1e82610645565b6001600160a01b03167f8c5be1e5ebec7d5bd14f71427d1e84f3dd0314c0f7b2291e5b200ac8c7c3b92560405160405180910390a45050565b600080610c6383610645565b9050806001600160a01b0316846001600160a01b03161480610caa57506001600160a01b0380821660009081526006602090815260408083209388168352929052205460ff165b80610cce5750836001600160a01b0316610cc38461040b565b6001600160a01b0316145b949350505050565b816001600160a01b0316836001600160a01b03161415610d445760405162461bcd60e51b8152602060048201526024808201527f54616c656e744c617965725265766965773a20617070726f766520746f206361604482015263363632b960e11b60648201526084016104b2565b6001600160a01b03838116600081815260066020908152604080832094871680845294825291829020805460ff191686151590811790915591519182527f17307eab39ab6107e8899845ad3d59bd9653f200f220920489ca2b5937696c31910160405180910390a3505050565b610dbd8484848461105e565b6108595760405162461bcd60e51b81526004016104b2906117fa565b606081610dfd5750506040805180820190915260018152600360fc1b602082015290565b8160005b8115610e275780610e118161186d565b9150610e209050600a8361189e565b9150610e01565b60008167ffffffffffffffff811115610e4257610e42611398565b6040519080825280601f01601f191660200182016040528015610e6c576020820181803683370190505b5090505b8415610cce57610e816001836118b2565b9150610e8e600a866118c9565b610e999060306118dd565b60f81b818381518110610eae57610eae6118f5565b60200101906001600160f81b031916908160001a905350610ed0600a8661189e565b9450610e70565b84610f375760405162461bcd60e51b815260206004820152602a60248201527f54616c656e744c617965725265766965773a206d696e7420746f20696e76616c6044820152696964206164647265737360b01b60648201526084016104b2565b60058411158015610f46575060015b610f9c5760405162461bcd60e51b815260206004820152602160248201527f54616c656e744c617965725265766965773a20696e76616c696420726174696e6044820152606760f81b60648201526084016104b2565b6000858152600460205260408120805460019290610fbb9084906118dd565b9091555050600280546000908152600360209081526040808320899055925482526007905220610fec90848461116b565b50600280546000908152600a602052604090208290555461100e9060016118dd565b60028190555060025485877f1b4914b51c47432f333179cfae2f82cfeac795eb91cfac40a3e82e180748f2f58787878760405161104e949392919061190b565b60405180910390a4505050505050565b60006001600160a01b0384163b1561116057604051630a85bd0160e11b81526001600160a01b0385169063150b7a02906110a290339089908890889060040161194b565b602060405180830381600087803b1580156110bc57600080fd5b505af19250505080156110ec575060408051601f3d908101601f191682019092526110e991810190611988565b60015b611146573d80801561111a576040519150601f19603f3d011682016040523d82523d6000602084013e61111f565b606091505b50805161113e5760405162461bcd60e51b81526004016104b2906117fa565b805181602001fd5b6001600160e01b031916630a85bd0160e11b149050610cce565b506001949350505050565b82805461117790611598565b90600052602060002090601f01602090048101928261119957600085556111df565b82601f106111b25782800160ff198235161785556111df565b828001600101855582156111df579182015b828111156111df5782358255916020019190600101906111c4565b506111eb9291506111ef565b5090565b5b808211156111eb57600081556001016111f0565b6001600160e01b031981168114610be657600080fd5b60006020828403121561122c57600080fd5b81356108cc81611204565b60005b8381101561125257818101518382015260200161123a565b838111156108595750506000910152565b6000815180845261127b816020860160208601611237565b601f01601f19169290920160200192915050565b6020815260006108cc6020830184611263565b6000602082840312156112b457600080fd5b5035919050565b6001600160a01b0381168114610be657600080fd5b600080604083850312156112e357600080fd5b82356112ee816112bb565b946020939093013593505050565b60008060006060848603121561131157600080fd5b833561131c816112bb565b9250602084013561132c816112bb565b929592945050506040919091013590565b60006020828403121561134f57600080fd5b81356108cc816112bb565b6000806040838503121561136d57600080fd5b8235611378816112bb565b91506020830135801515811461138d57600080fd5b809150509250929050565b634e487b7160e01b600052604160045260246000fd5b60405160e0810167ffffffffffffffff811182821017156113d1576113d1611398565b60405290565b604051601f8201601f1916810167ffffffffffffffff8111828210171561140057611400611398565b604052919050565b600067ffffffffffffffff82111561142257611422611398565b50601f01601f191660200190565b6000806000806080858703121561144657600080fd5b8435611451816112bb565b93506020850135611461816112bb565b925060408501359150606085013567ffffffffffffffff81111561148457600080fd5b8501601f8101871361149557600080fd5b80356114a86114a382611408565b6113d7565b8181528860208385010111156114bd57600080fd5b8160208401602083013760006020838301015280935050505092959194509250565b600080604083850312156114f257600080fd5b82356114fd816112bb565b9150602083013561138d816112bb565b60008060008060006080868803121561152557600080fd5b85359450602086013567ffffffffffffffff8082111561154457600080fd5b818801915088601f83011261155857600080fd5b81358181111561156757600080fd5b89602082850101111561157957600080fd5b9699602092909201985095966040810135965060600135945092505050565b600181811c908216806115ac57607f821691505b602082108114156115cd57634e487b7160e01b600052602260045260246000fd5b50919050565b60208082526039908201527f54616c656e744c617965725265766965773a2063616c6c6572206973206e6f7460408201527f20746f6b656e206f776e6572206e6f7220617070726f76656400000000000000606082015260800190565b60006020828403121561164257600080fd5b81516108cc816112bb565b60208082526023908201527f54616c656e744c617965725265766965773a20696e76616c696420746f6b656e60408201526208125160ea1b606082015260800190565b6000602082840312156116a257600080fd5b5051919050565b600083516116bb818460208801611237565b8351908301906116cf818360208801611237565b01949350505050565b8051600581106116e757600080fd5b919050565b600082601f8301126116fd57600080fd5b815161170b6114a382611408565b81815284602083860101111561172057600080fd5b610cce826020830160208701611237565b60006020828403121561174357600080fd5b815167ffffffffffffffff8082111561175b57600080fd5b9083019060e0828603121561176f57600080fd5b6117776113ae565b611780836116d8565b81526020830151602082015260408301516040820152606083015160608201526080830151828111156117b257600080fd5b6117be878286016116ec565b60808301525060a083015160a082015260c083015160c082015280935050505092915050565b634e487b7160e01b600052602160045260246000fd5b6020808252603d908201527f54616c656e744c617965725265766965773a207472616e7366657220746f206e60408201527f6f6e20455243373231526563656976657220696d706c656d656e746572000000606082015260800190565b634e487b7160e01b600052601160045260246000fd5b600060001982141561188157611881611857565b5060010190565b634e487b7160e01b600052601260045260246000fd5b6000826118ad576118ad611888565b500490565b6000828210156118c4576118c4611857565b500390565b6000826118d8576118d8611888565b500690565b600082198211156118f0576118f0611857565b500190565b634e487b7160e01b600052603260045260246000fd5b848152606060208201528260608201528284608083013760006080848301015260006080601f19601f860116830101905082604083015295945050505050565b6001600160a01b038581168252841660208201526040810183905260806060820181905260009061197e90830184611263565b9695505050505050565b60006020828403121561199a57600080fd5b81516108cc8161120456fea2646970667358221220f0b63b5a105d716b6739f3be68adfb085b40e0744899b096823fe06258464ef364736f6c63430008090033",
  "linkReferences": {},
  "deployedLinkReferences": {}
}