{
  "_format": "hh-sol-artifact-1",
  "contractName": "TalentLayerReview",
  "sourceName": "contracts/TalentLayerReview.sol",
  "abi": [
    {
      "inputs": [],
      "stateMutability": "nonpayable",
      "type": "constructor"
    },
    {
      "inputs": [],
      "name": "ReviewAlreadyMinted",
      "type": "error"
    },
    {
      "anonymous": false,
      "inputs": [
        {
          "indexed": false,
          "internalType": "address",
          "name": "previousAdmin",
          "type": "address"
        },
        {
          "indexed": false,
          "internalType": "address",
          "name": "newAdmin",
          "type": "address"
        }
      ],
      "name": "AdminChanged",
      "type": "event"
    },
    {
      "anonymous": false,
      "inputs": [
        {
          "indexed": true,
          "internalType": "address",
          "name": "owner",
          "type": "address"
        },
        {
          "indexed": true,
          "internalType": "address",
          "name": "approved",
          "type": "address"
        },
        {
          "indexed": true,
          "internalType": "uint256",
          "name": "tokenId",
          "type": "uint256"
        }
      ],
      "name": "Approval",
      "type": "event"
    },
    {
      "anonymous": false,
      "inputs": [
        {
          "indexed": true,
          "internalType": "address",
          "name": "owner",
          "type": "address"
        },
        {
          "indexed": true,
          "internalType": "address",
          "name": "operator",
          "type": "address"
        },
        {
          "indexed": false,
          "internalType": "bool",
          "name": "approved",
          "type": "bool"
        }
      ],
      "name": "ApprovalForAll",
      "type": "event"
    },
    {
      "anonymous": false,
      "inputs": [
        {
          "indexed": true,
          "internalType": "address",
          "name": "beacon",
          "type": "address"
        }
      ],
      "name": "BeaconUpgraded",
      "type": "event"
    },
    {
      "anonymous": false,
      "inputs": [
        {
          "indexed": false,
          "internalType": "uint8",
          "name": "version",
          "type": "uint8"
        }
      ],
      "name": "Initialized",
      "type": "event"
    },
    {
      "anonymous": false,
      "inputs": [
        {
          "indexed": true,
          "internalType": "uint256",
          "name": "_serviceId",
          "type": "uint256"
        },
        {
          "indexed": true,
          "internalType": "uint256",
          "name": "_toId",
          "type": "uint256"
        },
        {
          "indexed": true,
          "internalType": "uint256",
          "name": "_tokenId",
          "type": "uint256"
        },
        {
          "indexed": false,
          "internalType": "uint256",
          "name": "_rating",
          "type": "uint256"
        },
        {
          "indexed": false,
          "internalType": "string",
          "name": "_reviewUri",
          "type": "string"
        },
        {
          "indexed": false,
          "internalType": "uint256",
          "name": "_platformId",
          "type": "uint256"
        }
      ],
      "name": "Mint",
      "type": "event"
    },
    {
      "anonymous": false,
      "inputs": [
        {
          "indexed": true,
          "internalType": "address",
          "name": "previousOwner",
          "type": "address"
        },
        {
          "indexed": true,
          "internalType": "address",
          "name": "newOwner",
          "type": "address"
        }
      ],
      "name": "OwnershipTransferred",
      "type": "event"
    },
    {
      "anonymous": false,
      "inputs": [
        {
          "indexed": true,
          "internalType": "address",
          "name": "from",
          "type": "address"
        },
        {
          "indexed": true,
          "internalType": "address",
          "name": "to",
          "type": "address"
        },
        {
          "indexed": true,
          "internalType": "uint256",
          "name": "tokenId",
          "type": "uint256"
        }
      ],
      "name": "Transfer",
      "type": "event"
    },
    {
      "anonymous": false,
      "inputs": [
        {
          "indexed": false,
          "internalType": "address",
          "name": "forwarder",
          "type": "address"
        }
      ],
      "name": "TrustedForwarderAdded",
      "type": "event"
    },
    {
      "anonymous": false,
      "inputs": [
        {
          "indexed": false,
          "internalType": "address",
          "name": "forwarder",
          "type": "address"
        }
      ],
      "name": "TrustedForwarderRemoved",
      "type": "event"
    },
    {
      "anonymous": false,
      "inputs": [
        {
          "indexed": true,
          "internalType": "address",
          "name": "implementation",
          "type": "address"
        }
      ],
      "name": "Upgraded",
      "type": "event"
    },
    {
      "inputs": [],
      "name": "_totalSupply",
      "outputs": [
        {
          "internalType": "uint256",
          "name": "",
          "type": "uint256"
        }
      ],
      "stateMutability": "view",
      "type": "function"
    },
    {
      "inputs": [
        {
          "internalType": "uint256",
          "name": "_profileId",
          "type": "uint256"
        },
        {
          "internalType": "uint256",
          "name": "_serviceId",
          "type": "uint256"
        },
        {
          "internalType": "string",
          "name": "_reviewUri",
          "type": "string"
        },
        {
          "internalType": "uint256",
          "name": "_rating",
          "type": "uint256"
        },
        {
          "internalType": "uint256",
          "name": "_platformId",
          "type": "uint256"
        }
      ],
      "name": "addReview",
      "outputs": [],
      "stateMutability": "nonpayable",
      "type": "function"
    },
    {
      "inputs": [
        {
          "internalType": "address",
          "name": "_forwarder",
          "type": "address"
        }
      ],
      "name": "addTrustedForwarder",
      "outputs": [],
      "stateMutability": "nonpayable",
      "type": "function"
    },
    {
      "inputs": [
        {
          "internalType": "address",
          "name": "to",
          "type": "address"
        },
        {
          "internalType": "uint256",
          "name": "tokenId",
          "type": "uint256"
        }
      ],
      "name": "approve",
      "outputs": [],
      "stateMutability": "nonpayable",
      "type": "function"
    },
    {
      "inputs": [
        {
          "internalType": "address",
          "name": "owner",
          "type": "address"
        }
      ],
      "name": "balanceOf",
      "outputs": [
        {
          "internalType": "uint256",
          "name": "",
          "type": "uint256"
        }
      ],
      "stateMutability": "view",
      "type": "function"
    },
    {
      "inputs": [
        {
          "internalType": "uint256",
          "name": "_tokenId",
          "type": "uint256"
        }
      ],
      "name": "getApproved",
      "outputs": [
        {
          "internalType": "address",
          "name": "",
          "type": "address"
        }
      ],
      "stateMutability": "view",
      "type": "function"
    },
    {
      "inputs": [
        {
          "internalType": "uint256",
          "name": "_reviewId",
          "type": "uint256"
        }
      ],
      "name": "getReview",
      "outputs": [
        {
          "components": [
            {
              "internalType": "uint256",
              "name": "id",
              "type": "uint256"
            },
            {
              "internalType": "uint256",
              "name": "owner",
              "type": "uint256"
            },
            {
              "internalType": "string",
              "name": "dataUri",
              "type": "string"
            },
            {
              "internalType": "uint256",
              "name": "platformId",
              "type": "uint256"
            },
            {
              "internalType": "uint256",
              "name": "serviceId",
              "type": "uint256"
            },
            {
              "internalType": "uint256",
              "name": "rating",
              "type": "uint256"
            }
          ],
          "internalType": "struct TalentLayerReview.Review",
          "name": "",
          "type": "tuple"
        }
      ],
      "stateMutability": "view",
      "type": "function"
    },
    {
      "inputs": [
        {
          "internalType": "string",
          "name": "name_",
          "type": "string"
        },
        {
          "internalType": "string",
          "name": "symbol_",
          "type": "string"
        },
        {
          "internalType": "address",
          "name": "_talentLayerIdAddress",
          "type": "address"
        },
        {
          "internalType": "address",
          "name": "_talentLayerServiceAddress",
          "type": "address"
        },
        {
          "internalType": "address",
          "name": "_talentLayerPlatformIdAddress",
          "type": "address"
        }
      ],
      "name": "initialize",
      "outputs": [],
      "stateMutability": "nonpayable",
      "type": "function"
    },
    {
      "inputs": [
        {
          "internalType": "address",
          "name": "owner",
          "type": "address"
        },
        {
          "internalType": "address",
          "name": "operator",
          "type": "address"
        }
      ],
      "name": "isApprovedForAll",
      "outputs": [
        {
          "internalType": "bool",
          "name": "",
          "type": "bool"
        }
      ],
      "stateMutability": "view",
      "type": "function"
    },
    {
      "inputs": [
        {
          "internalType": "address",
          "name": "forwarder",
          "type": "address"
        }
      ],
      "name": "isTrustedForwarder",
      "outputs": [
        {
          "internalType": "bool",
          "name": "",
          "type": "bool"
        }
      ],
      "stateMutability": "view",
      "type": "function"
    },
    {
      "inputs": [],
      "name": "name",
      "outputs": [
        {
          "internalType": "string",
          "name": "",
          "type": "string"
        }
      ],
      "stateMutability": "view",
      "type": "function"
    },
    {
      "inputs": [
        {
          "internalType": "uint256",
          "name": "",
          "type": "uint256"
        }
      ],
      "name": "nftMintedByServiceAndBuyerId",
      "outputs": [
        {
          "internalType": "uint256",
          "name": "",
          "type": "uint256"
        }
      ],
      "stateMutability": "view",
      "type": "function"
    },
    {
      "inputs": [
        {
          "internalType": "uint256",
          "name": "",
          "type": "uint256"
        }
      ],
      "name": "nftMintedByServiceAndSellerId",
      "outputs": [
        {
          "internalType": "uint256",
          "name": "",
          "type": "uint256"
        }
      ],
      "stateMutability": "view",
      "type": "function"
    },
    {
      "inputs": [],
      "name": "owner",
      "outputs": [
        {
          "internalType": "address",
          "name": "",
          "type": "address"
        }
      ],
      "stateMutability": "view",
      "type": "function"
    },
    {
      "inputs": [
        {
          "internalType": "uint256",
          "name": "tokenId",
          "type": "uint256"
        }
      ],
      "name": "ownerOf",
      "outputs": [
        {
          "internalType": "address",
          "name": "",
          "type": "address"
        }
      ],
      "stateMutability": "view",
      "type": "function"
    },
    {
      "inputs": [],
      "name": "proxiableUUID",
      "outputs": [
        {
          "internalType": "bytes32",
          "name": "",
          "type": "bytes32"
        }
      ],
      "stateMutability": "view",
      "type": "function"
    },
    {
      "inputs": [
        {
          "internalType": "address",
          "name": "_forwarder",
          "type": "address"
        }
      ],
      "name": "removeTrustedForwarder",
      "outputs": [],
      "stateMutability": "nonpayable",
      "type": "function"
    },
    {
      "inputs": [],
      "name": "renounceOwnership",
      "outputs": [],
      "stateMutability": "nonpayable",
      "type": "function"
    },
    {
      "inputs": [
        {
          "internalType": "uint256",
          "name": "",
          "type": "uint256"
        }
      ],
      "name": "reviews",
      "outputs": [
        {
          "internalType": "uint256",
          "name": "id",
          "type": "uint256"
        },
        {
          "internalType": "uint256",
          "name": "owner",
          "type": "uint256"
        },
        {
          "internalType": "string",
          "name": "dataUri",
          "type": "string"
        },
        {
          "internalType": "uint256",
          "name": "platformId",
          "type": "uint256"
        },
        {
          "internalType": "uint256",
          "name": "serviceId",
          "type": "uint256"
        },
        {
          "internalType": "uint256",
          "name": "rating",
          "type": "uint256"
        }
      ],
      "stateMutability": "view",
      "type": "function"
    },
    {
      "inputs": [
        {
          "internalType": "address",
          "name": "from",
          "type": "address"
        },
        {
          "internalType": "address",
          "name": "to",
          "type": "address"
        },
        {
          "internalType": "uint256",
          "name": "tokenId",
          "type": "uint256"
        }
      ],
      "name": "safeTransferFrom",
      "outputs": [],
      "stateMutability": "nonpayable",
      "type": "function"
    },
    {
      "inputs": [
        {
          "internalType": "address",
          "name": "from",
          "type": "address"
        },
        {
          "internalType": "address",
          "name": "to",
          "type": "address"
        },
        {
          "internalType": "uint256",
          "name": "tokenId",
          "type": "uint256"
        },
        {
          "internalType": "bytes",
          "name": "data",
          "type": "bytes"
        }
      ],
      "name": "safeTransferFrom",
      "outputs": [],
      "stateMutability": "nonpayable",
      "type": "function"
    },
    {
      "inputs": [
        {
          "internalType": "address",
          "name": "operator",
          "type": "address"
        },
        {
          "internalType": "bool",
          "name": "approved",
          "type": "bool"
        }
      ],
      "name": "setApprovalForAll",
      "outputs": [],
      "stateMutability": "nonpayable",
      "type": "function"
    },
    {
      "inputs": [
        {
          "internalType": "bytes4",
          "name": "interfaceId",
          "type": "bytes4"
        }
      ],
      "name": "supportsInterface",
      "outputs": [
        {
          "internalType": "bool",
          "name": "",
          "type": "bool"
        }
      ],
      "stateMutability": "view",
      "type": "function"
    },
    {
      "inputs": [],
      "name": "symbol",
      "outputs": [
        {
          "internalType": "string",
          "name": "",
          "type": "string"
        }
      ],
      "stateMutability": "view",
      "type": "function"
    },
    {
      "inputs": [],
      "name": "talentLayerPlatformIdContract",
      "outputs": [
        {
          "internalType": "contract ITalentLayerPlatformID",
          "name": "",
          "type": "address"
        }
      ],
      "stateMutability": "view",
      "type": "function"
    },
    {
      "inputs": [
        {
          "internalType": "uint256",
          "name": "tokenId",
          "type": "uint256"
        }
      ],
      "name": "tokenURI",
      "outputs": [
        {
          "internalType": "string",
          "name": "",
          "type": "string"
        }
      ],
      "stateMutability": "view",
      "type": "function"
    },
    {
      "inputs": [
        {
          "internalType": "address",
          "name": "from",
          "type": "address"
        },
        {
          "internalType": "address",
          "name": "to",
          "type": "address"
        },
        {
          "internalType": "uint256",
          "name": "tokenId",
          "type": "uint256"
        }
      ],
      "name": "transferFrom",
      "outputs": [],
      "stateMutability": "nonpayable",
      "type": "function"
    },
    {
      "inputs": [
        {
          "internalType": "address",
          "name": "newOwner",
          "type": "address"
        }
      ],
      "name": "transferOwnership",
      "outputs": [],
      "stateMutability": "nonpayable",
      "type": "function"
    },
    {
      "inputs": [
        {
          "internalType": "address",
          "name": "newImplementation",
          "type": "address"
        }
      ],
      "name": "upgradeTo",
      "outputs": [],
      "stateMutability": "nonpayable",
      "type": "function"
    },
    {
      "inputs": [
        {
          "internalType": "address",
          "name": "newImplementation",
          "type": "address"
        },
        {
          "internalType": "bytes",
          "name": "data",
          "type": "bytes"
        }
      ],
      "name": "upgradeToAndCall",
      "outputs": [],
      "stateMutability": "payable",
      "type": "function"
    }
  ],
  "bytecode": "0x60a0604052306080523480156200001557600080fd5b506200002062000026565b620000e8565b600054610100900460ff1615620000935760405162461bcd60e51b815260206004820152602760248201527f496e697469616c697a61626c653a20636f6e747261637420697320696e697469604482015266616c697a696e6760c81b606482015260840160405180910390fd5b60005460ff9081161015620000e6576000805460ff191660ff9081179091556040519081527f7f26b83ff96e1f2b6a682f133852f6798a09c465da95921460cefb38474024989060200160405180910390a15b565b608051612c6062000120600039600081816109140152818161095401528181610a6701528181610aa70152610b3a0152612c606000f3fe6080604052600436106101cd5760003560e01c806359777524116100f7578063a22cb46511610095578063e087f7d211610064578063e087f7d21461054c578063e83ddcea1461057a578063e985e9c5146105ac578063f2fde38b146105cc57600080fd5b8063a22cb465146104cc578063b88d4fde146104ec578063c87b56dd1461050c578063db0ed6a01461052c57600080fd5b8063715018a6116100d1578063715018a6146104575780638da5cb5b1461046c57806395d89b411461048a578063990581b61461049f57600080fd5b806359777524146103f75780636352211e1461041757806370a082311461043757600080fd5b80633659cfe61161016f57806342842e0e1161013e57806342842e0e146103765780634f1ef2861461039657806352d1902d146103a9578063572b6c05146103be57600080fd5b80633659cfe6146102e45780633751d89c146103045780633c7b2760146103245780633eaaf86b1461036057600080fd5b8063095ea7b3116101ab578063095ea7b3146102615780631499f9e61461028357806323b872dd146102a457806326d00668146102c457600080fd5b806301ffc9a7146101d257806306fdde0314610207578063081812fc14610229575b600080fd5b3480156101de57600080fd5b506101f26101ed366004612146565b6105ec565b60405190151581526020015b60405180910390f35b34801561021357600080fd5b5061021c61063e565b6040516101fe91906121b3565b34801561023557600080fd5b506102496102443660046121c6565b6106d0565b6040516001600160a01b0390911681526020016101fe565b34801561026d57600080fd5b5061028161027c3660046121f4565b61072d565b005b34801561028f57600080fd5b5061010754610249906001600160a01b031681565b3480156102b057600080fd5b506102816102bf366004612220565b610875565b3480156102d057600080fd5b506102816102df366004612261565b6108a7565b3480156102f057600080fd5b506102816102ff366004612261565b61090a565b34801561031057600080fd5b5061028161031f366004612261565b6109e9565b34801561033057600080fd5b5061035261033f3660046121c6565b6101026020526000908152604090205481565b6040519081526020016101fe565b34801561036c57600080fd5b5061035260fe5481565b34801561038257600080fd5b50610281610391366004612220565b610a42565b6102816103a436600461236c565b610a5d565b3480156103b557600080fd5b50610352610b2d565b3480156103ca57600080fd5b506101f26103d9366004612261565b6001600160a01b031660009081526065602052604090205460ff1690565b34801561040357600080fd5b506102816104123660046123bc565b610be0565b34801561042357600080fd5b506102496104323660046121c6565b610f0e565b34801561044357600080fd5b50610352610452366004612261565b610fb8565b34801561046357600080fd5b506102816110b6565b34801561047857600080fd5b506033546001600160a01b0316610249565b34801561049657600080fd5b5061021c6110ca565b3480156104ab57600080fd5b506104bf6104ba3660046121c6565b6110d9565b6040516101fe919061244e565b3480156104d857600080fd5b506102816104e73660046124b6565b6111fb565b3480156104f857600080fd5b506102816105073660046124ef565b61120d565b34801561051857600080fd5b5061021c6105273660046121c6565b611246565b34801561053857600080fd5b5061028161054736600461255b565b6112c6565b34801561055857600080fd5b506103526105673660046121c6565b6101016020526000908152604090205481565b34801561058657600080fd5b5061059a6105953660046121c6565b611443565b6040516101fe969594939291906125f9565b3480156105b857600080fd5b506101f26105c7366004612636565b611500565b3480156105d857600080fd5b506102816105e7366004612261565b61152f565b60006001600160e01b031982166380ac58cd60e01b148061061d57506001600160e01b03198216635b5e139f60e01b145b8061063857506301ffc9a760e01b6001600160e01b03198316145b92915050565b606060fc805461064d90612664565b80601f016020809104026020016040519081016040528092919081815260200182805461067990612664565b80156106c65780601f1061069b576101008083540402835291602001916106c6565b820191906000526020600020905b8154815290600101906020018083116106a957829003601f168201915b5050505050905090565b600081815261010360205260409020546001600160a01b03168161070281600090815260ff6020526040902054151590565b6107275760405162461bcd60e51b815260040161071e90612698565b60405180910390fd5b50919050565b600061073882610f0e565b9050806001600160a01b0316836001600160a01b0316036107b05760405162461bcd60e51b815260206004820152602c60248201527f54616c656e744c617965725265766965773a20617070726f76616c20746f206360448201526b3ab93932b73a1037bbb732b960a11b606482015260840161071e565b60006107ba6115a5565b9050816001600160a01b0316816001600160a01b031614806107e157506107e18282611500565b6108655760405162461bcd60e51b815260206004820152604960248201527f54616c656e744c617965725265766965773a20617070726f76652063616c6c6560448201527f72206973206e6f7420746f6b656e206f776e6572206e6f7220617070726f76656064820152681908199bdc88185b1b60ba1b608482015260a40161071e565b61086f84846115de565b50505050565b6108866108806115a5565b8261164d565b6108a25760405162461bcd60e51b815260040161071e906126db565b505050565b6108af6116ac565b6001600160a01b038116600081815260656020908152604091829020805460ff1916600117905590519182527f3ef8564460ada92419608d823c014975d98f8104d7d1e68c222967ac6814cd9791015b60405180910390a150565b6001600160a01b037f00000000000000000000000000000000000000000000000000000000000000001630036109525760405162461bcd60e51b815260040161071e90612738565b7f00000000000000000000000000000000000000000000000000000000000000006001600160a01b031661099b600080516020612be4833981519152546001600160a01b031690565b6001600160a01b0316146109c15760405162461bcd60e51b815260040161071e90612784565b6109ca81611725565b604080516000808252602082019092526109e69183919061172d565b50565b6109f16116ac565b6001600160a01b038116600081815260656020908152604091829020805460ff1916905590519182527fd2d636efcad0cea42e170256f4c5d8b1cd81e47b855557edaf44014e6cc4cee691016108ff565b6108a28383836040518060200160405280600081525061120d565b6001600160a01b037f0000000000000000000000000000000000000000000000000000000000000000163003610aa55760405162461bcd60e51b815260040161071e90612738565b7f00000000000000000000000000000000000000000000000000000000000000006001600160a01b0316610aee600080516020612be4833981519152546001600160a01b031690565b6001600160a01b031614610b145760405162461bcd60e51b815260040161071e90612784565b610b1d82611725565b610b298282600161172d565b5050565b6000306001600160a01b037f00000000000000000000000000000000000000000000000000000000000000001614610bcd5760405162461bcd60e51b815260206004820152603860248201527f555550535570677261646561626c653a206d757374206e6f742062652063616c60448201527f6c6564207468726f7567682064656c656761746563616c6c0000000000000000606482015260840161071e565b50600080516020612be483398151915290565b6101055486906001600160a01b0316632fa117e582610bfd6115a5565b6040516001600160e01b031960e085901b16815260048101929092526001600160a01b03166024820152604401602060405180830381865afa158015610c47573d6000803e3d6000fd5b505050506040513d601f19601f82011682018060405250810190610c6b91906127d0565b610caf5760405162461bcd60e51b81526020600482015260156024820152744e6f74206f776e6572206f722064656c656761746560581b604482015260640161071e565b6101065460405163ef0e239b60e01b8152600481018890526000916001600160a01b03169063ef0e239b90602401600060405180830381865afa158015610cfa573d6000803e3d6000fd5b505050506040513d6000823e601f3d908101601f19168201604052610d229190810190612832565b90508060200151881480610d395750806040015188145b610d915760405162461bcd60e51b815260206004820152602360248201527f596f75277265206e6f7420616e206163746f72206f662074686973207365727660448201526269636560e81b606482015260840161071e565b600281516003811115610da657610da66128e3565b14610df35760405162461bcd60e51b815260206004820152601f60248201527f5468652073657276696365206973206e6f742066696e69736865642079657400604482015260640161071e565b6101075460405162f577a560e81b8152600481018590526001600160a01b039091169063f577a5009060240160006040518083038186803b158015610e3757600080fd5b505afa158015610e4b573d6000803e3d6000fd5b50505050600081602001518903610eaa575060408082015160008981526101016020529190912054899003610e9357604051633d36d72960e01b815260040160405180910390fd5b600088815261010160205260409020899055610ef5565b506020808201516000898152610102909252604090912054899003610ee257604051633d36d72960e01b815260040160405180910390fd5b6000888152610102602052604090208990555b610f038882878a8a89611898565b505050505050505050565b61010554600082815260ff60205260408082205490516331a9108f60e11b81526004810191909152909182916001600160a01b0390911690636352211e90602401602060405180830381865afa158015610f6c573d6000803e3d6000fd5b505050506040513d601f19601f82011682018060405250810190610f9091906128f9565b90506001600160a01b0381166106385760405162461bcd60e51b815260040161071e90612698565b60006001600160a01b03821661102b5760405162461bcd60e51b815260206004820152603260248201527f54616c656e744c617965725265766965773a20746f6b656e207a65726f206973604482015271103737ba1030903b30b634b21037bbb732b960711b606482015260840161071e565b61010554604051631847c06b60e01b81526001600160a01b03848116600483015261010092600092911690631847c06b90602401602060405180830381865afa15801561107c573d6000803e3d6000fd5b505050506040513d601f19601f820116820180604052508101906110a09190612916565b8152602001908152602001600020549050919050565b6110be6116ac565b6110c86000611a9c565b565b606060fd805461064d90612664565b6111126040518060c001604052806000815260200160008152602001606081526020016000815260200160008152602001600081525090565b60ff60008381526020019081526020016000206040518060c0016040529081600082015481526020016001820154815260200160028201805461115490612664565b80601f016020809104026020016040519081016040528092919081815260200182805461118090612664565b80156111cd5780601f106111a2576101008083540402835291602001916111cd565b820191906000526020600020905b8154815290600101906020018083116111b057829003601f168201915b5050505050815260200160038201548152602001600482015481526020016005820154815250509050919050565b610b296112066115a5565b8383611aee565b61121e6112186115a5565b8361164d565b61123a5760405162461bcd60e51b815260040161071e906126db565b61086f84848484611bc9565b606081600061126060408051602081019091526000815290565b9050600081511161128057604051806020016040528060008152506112ab565b8061128a85611bf1565b60405160200161129b92919061292f565b6040516020818303038152906040525b92505061070281600090815260ff6020526040902054151590565b600054610100900460ff16158080156112e65750600054600160ff909116105b806113005750303b158015611300575060005460ff166001145b6113635760405162461bcd60e51b815260206004820152602e60248201527f496e697469616c697a61626c653a20636f6e747261637420697320616c72656160448201526d191e481a5b9a5d1a585b1a5e995960921b606482015260840161071e565b6000805460ff191660011790558015611386576000805461ff0019166101001790555b61138e611c84565b611396611cab565b600060fe5560fc6113a787826129a4565b5060fd6113b486826129a4565b5061010580546001600160a01b038087166001600160a01b0319928316179092556101068054868416908316179055610107805492851692909116919091179055801561143b576000805461ff0019169055604051600181527f7f26b83ff96e1f2b6a682f133852f6798a09c465da95921460cefb38474024989060200160405180910390a15b505050505050565b60ff602052600090815260409020805460018201546002830180549293919261146b90612664565b80601f016020809104026020016040519081016040528092919081815260200182805461149790612664565b80156114e45780601f106114b9576101008083540402835291602001916114e4565b820191906000526020600020905b8154815290600101906020018083116114c757829003601f168201915b5050505050908060030154908060040154908060050154905086565b6001600160a01b0391821660009081526101046020908152604080832093909416825291909152205460ff1690565b6115376116ac565b6001600160a01b03811661159c5760405162461bcd60e51b815260206004820152602660248201527f4f776e61626c653a206e6577206f776e657220697320746865207a65726f206160448201526564647265737360d01b606482015260840161071e565b6109e681611a9c565b6000601436108015906115c757503360009081526065602052604090205460ff165b156115d9575060131936013560601c90565b503390565b60008181526101036020526040902080546001600160a01b0319166001600160a01b038416908117909155819061161482610f0e565b6001600160a01b03167f8c5be1e5ebec7d5bd14f71427d1e84f3dd0314c0f7b2291e5b200ac8c7c3b92560405160405180910390a45050565b60008061165983610f0e565b9050806001600160a01b0316846001600160a01b0316148061168057506116808185611500565b806116a45750836001600160a01b0316611699846106d0565b6001600160a01b0316145b949350505050565b6116b46115a5565b6001600160a01b03166116cf6033546001600160a01b031690565b6001600160a01b0316146110c85760405162461bcd60e51b815260206004820181905260248201527f4f776e61626c653a2063616c6c6572206973206e6f7420746865206f776e6572604482015260640161071e565b6109e66116ac565b7f4910fdfa16fed3260ed0e7147f7cc6da11a60208b5b9406d12a635614ffd91435460ff1615611760576108a283611cda565b826001600160a01b03166352d1902d6040518163ffffffff1660e01b8152600401602060405180830381865afa9250505080156117ba575060408051601f3d908101601f191682019092526117b791810190612916565b60015b61181d5760405162461bcd60e51b815260206004820152602e60248201527f45524331393637557067726164653a206e657720696d706c656d656e7461746960448201526d6f6e206973206e6f74205555505360901b606482015260840161071e565b600080516020612be4833981519152811461188c5760405162461bcd60e51b815260206004820152602960248201527f45524331393637557067726164653a20756e737570706f727465642070726f786044820152681a58589b195555525160ba1b606482015260840161071e565b506108a2838383611d76565b846000036118fb5760405162461bcd60e51b815260206004820152602a60248201527f54616c656e744c617965725265766965773a206d696e7420746f20696e76616c6044820152696964206164647265737360b01b606482015260840161071e565b6005841115801561190a575060015b6119605760405162461bcd60e51b815260206004820152602160248201527f54616c656e744c617965725265766965773a20696e76616c696420726174696e6044820152606760f81b606482015260840161071e565b600085815261010060205260408120805460019290611980908490612a64565b925050819055506040518060c0016040528060fe54815260200186815260200184848080601f0160208091040260200160405190810160405280939291908181526020018383808284376000920182905250938552505050602080830185905260408084018b9052606090930188905260fe54825260ff81529082902083518155908301516001820155908201516002820190611a1d90826129a4565b50606082015160038201556080820151600482015560a09091015160059091015560fe54611a4c906001612a64565b60fe8190555060fe5485877f1b4914b51c47432f333179cfae2f82cfeac795eb91cfac40a3e82e180748f2f587878787604051611a8c9493929190612a85565b60405180910390a4505050505050565b603380546001600160a01b038381166001600160a01b0319831681179093556040519116919082907f8be0079c531659141344cd1fd0a4f28419497f9722a3daafe3b4186f6b6457e090600090a35050565b816001600160a01b0316836001600160a01b031603611b5b5760405162461bcd60e51b8152602060048201526024808201527f54616c656e744c617965725265766965773a20617070726f766520746f206361604482015263363632b960e11b606482015260840161071e565b6001600160a01b0383811660008181526101046020908152604080832094871680845294825291829020805460ff191686151590811790915591519182527f17307eab39ab6107e8899845ad3d59bd9653f200f220920489ca2b5937696c31910160405180910390a3505050565b611bd584848484611d9b565b61086f5760405162461bcd60e51b815260040161071e90612ac5565b60606000611bfe83611ea3565b600101905060008167ffffffffffffffff811115611c1e57611c1e61227e565b6040519080825280601f01601f191660200182016040528015611c48576020820181803683370190505b5090508181016020015b600019016f181899199a1a9b1b9c1cb0b131b232b360811b600a86061a8153600a8504945084611c5257509392505050565b600054610100900460ff166110c85760405162461bcd60e51b815260040161071e90612b22565b600054610100900460ff16611cd25760405162461bcd60e51b815260040161071e90612b22565b6110c8611f7b565b6001600160a01b0381163b611d475760405162461bcd60e51b815260206004820152602d60248201527f455243313936373a206e657720696d706c656d656e746174696f6e206973206e60448201526c1bdd08184818dbdb9d1c9858dd609a1b606482015260840161071e565b600080516020612be483398151915280546001600160a01b0319166001600160a01b0392909216919091179055565b611d7f83611fb2565b600082511180611d8c5750805b156108a25761086f8383611ff2565b60006001600160a01b0384163b15611e9857836001600160a01b031663150b7a02611dc46115a5565b8786866040518563ffffffff1660e01b8152600401611de69493929190612b6d565b6020604051808303816000875af1925050508015611e21575060408051601f3d908101601f19168201909252611e1e91810190612baa565b60015b611e7e573d808015611e4f576040519150601f19603f3d011682016040523d82523d6000602084013e611e54565b606091505b508051600003611e765760405162461bcd60e51b815260040161071e90612ac5565b805181602001fd5b6001600160e01b031916630a85bd0160e11b1490506116a4565b506001949350505050565b60008072184f03e93ff9f4daa797ed6e38ed64bf6a1f0160401b8310611ee25772184f03e93ff9f4daa797ed6e38ed64bf6a1f0160401b830492506040015b6d04ee2d6d415b85acef81000000008310611f0e576d04ee2d6d415b85acef8100000000830492506020015b662386f26fc100008310611f2c57662386f26fc10000830492506010015b6305f5e1008310611f44576305f5e100830492506008015b6127108310611f5857612710830492506004015b60648310611f6a576064830492506002015b600a83106106385760010192915050565b600054610100900460ff16611fa25760405162461bcd60e51b815260040161071e90612b22565b6110c8611fad6115a5565b611a9c565b611fbb81611cda565b6040516001600160a01b038216907fbc7cd75a20ee27fd9adebab32041f755214dbc6bffa90cc0225b39da2e5c2d3b90600090a250565b60606001600160a01b0383163b61205a5760405162461bcd60e51b815260206004820152602660248201527f416464726573733a2064656c65676174652063616c6c20746f206e6f6e2d636f6044820152651b9d1c9858dd60d21b606482015260840161071e565b600080846001600160a01b0316846040516120759190612bc7565b600060405180830381855af49150503d80600081146120b0576040519150601f19603f3d011682016040523d82523d6000602084013e6120b5565b606091505b50915091506120dd8282604051806060016040528060278152602001612c04602791396120e6565b95945050505050565b606083156120f55750816120ff565b6120ff8383612106565b9392505050565b8151156121165781518083602001fd5b8060405162461bcd60e51b815260040161071e91906121b3565b6001600160e01b0319811681146109e657600080fd5b60006020828403121561215857600080fd5b81356120ff81612130565b60005b8381101561217e578181015183820152602001612166565b50506000910152565b6000815180845261219f816020860160208601612163565b601f01601f19169290920160200192915050565b6020815260006120ff6020830184612187565b6000602082840312156121d857600080fd5b5035919050565b6001600160a01b03811681146109e657600080fd5b6000806040838503121561220757600080fd5b8235612212816121df565b946020939093013593505050565b60008060006060848603121561223557600080fd5b8335612240816121df565b92506020840135612250816121df565b929592945050506040919091013590565b60006020828403121561227357600080fd5b81356120ff816121df565b634e487b7160e01b600052604160045260246000fd5b60405160c0810167ffffffffffffffff811182821017156122b7576122b761227e565b60405290565b604051601f8201601f1916810167ffffffffffffffff811182821017156122e6576122e661227e565b604052919050565b600067ffffffffffffffff8211156123085761230861227e565b50601f01601f191660200190565b600082601f83011261232757600080fd5b813561233a612335826122ee565b6122bd565b81815284602083860101111561234f57600080fd5b816020850160208301376000918101602001919091529392505050565b6000806040838503121561237f57600080fd5b823561238a816121df565b9150602083013567ffffffffffffffff8111156123a657600080fd5b6123b285828601612316565b9150509250929050565b60008060008060008060a087890312156123d557600080fd5b8635955060208701359450604087013567ffffffffffffffff808211156123fb57600080fd5b818901915089601f83011261240f57600080fd5b81358181111561241e57600080fd5b8a602082850101111561243057600080fd5b979a9699505060200196606081013595608090910135945092505050565b6020815281516020820152602082015160408201526000604083015160c0606084015261247e60e0840182612187565b905060608401516080840152608084015160a084015260a084015160c08401528091505092915050565b80151581146109e657600080fd5b600080604083850312156124c957600080fd5b82356124d4816121df565b915060208301356124e4816124a8565b809150509250929050565b6000806000806080858703121561250557600080fd5b8435612510816121df565b93506020850135612520816121df565b925060408501359150606085013567ffffffffffffffff81111561254357600080fd5b61254f87828801612316565b91505092959194509250565b600080600080600060a0868803121561257357600080fd5b853567ffffffffffffffff8082111561258b57600080fd5b61259789838a01612316565b965060208801359150808211156125ad57600080fd5b506125ba88828901612316565b94505060408601356125cb816121df565b925060608601356125db816121df565b915060808601356125eb816121df565b809150509295509295909350565b86815285602082015260c06040820152600061261860c0830187612187565b606083019590955250608081019290925260a0909101529392505050565b6000806040838503121561264957600080fd5b8235612654816121df565b915060208301356124e4816121df565b600181811c9082168061267857607f821691505b60208210810361072757634e487b7160e01b600052602260045260246000fd5b60208082526023908201527f54616c656e744c617965725265766965773a20696e76616c696420746f6b656e60408201526208125160ea1b606082015260800190565b60208082526039908201527f54616c656e744c617965725265766965773a2063616c6c6572206973206e6f7460408201527f20746f6b656e206f776e6572206e6f7220617070726f76656400000000000000606082015260800190565b6020808252602c908201527f46756e6374696f6e206d7573742062652063616c6c6564207468726f7567682060408201526b19195b1959d85d1958d85b1b60a21b606082015260800190565b6020808252602c908201527f46756e6374696f6e206d7573742062652063616c6c6564207468726f7567682060408201526b6163746976652070726f787960a01b606082015260800190565b6000602082840312156127e257600080fd5b81516120ff816124a8565b600082601f8301126127fe57600080fd5b815161280c612335826122ee565b81815284602083860101111561282157600080fd5b6116a4826020830160208701612163565b60006020828403121561284457600080fd5b815167ffffffffffffffff8082111561285c57600080fd5b9083019060c0828603121561287057600080fd5b612878612294565b82516004811061288757600080fd5b8082525060208301516020820152604083015160408201526060830151828111156128b157600080fd5b6128bd878286016127ed565b6060830152506080830151608082015260a083015160a082015280935050505092915050565b634e487b7160e01b600052602160045260246000fd5b60006020828403121561290b57600080fd5b81516120ff816121df565b60006020828403121561292857600080fd5b5051919050565b60008351612941818460208801612163565b835190830190612955818360208801612163565b01949350505050565b601f8211156108a257600081815260208120601f850160051c810160208610156129855750805b601f850160051c820191505b8181101561143b57828155600101612991565b815167ffffffffffffffff8111156129be576129be61227e565b6129d2816129cc8454612664565b8461295e565b602080601f831160018114612a0757600084156129ef5750858301515b600019600386901b1c1916600185901b17855561143b565b600085815260208120601f198616915b82811015612a3657888601518255948401946001909101908401612a17565b5085821015612a545787850151600019600388901b60f8161c191681555b5050505050600190811b01905550565b8082018082111561063857634e487b7160e01b600052601160045260246000fd5b848152606060208201528260608201528284608083013760006080848301015260006080601f19601f860116830101905082604083015295945050505050565b6020808252603d908201527f54616c656e744c617965725265766965773a207472616e7366657220746f206e60408201527f6f6e20455243373231526563656976657220696d706c656d656e746572000000606082015260800190565b6020808252602b908201527f496e697469616c697a61626c653a20636f6e7472616374206973206e6f74206960408201526a6e697469616c697a696e6760a81b606082015260800190565b6001600160a01b0385811682528416602082015260408101839052608060608201819052600090612ba090830184612187565b9695505050505050565b600060208284031215612bbc57600080fd5b81516120ff81612130565b60008251612bd9818460208701612163565b919091019291505056fe360894a13ba1a3210667c828492db98dca3e2076cc3735a920a3ca505d382bbc416464726573733a206c6f772d6c6576656c2064656c65676174652063616c6c206661696c6564a26469706673582212206bc7585c78aa2ffbdd7e278d1d17beed3d6682696a44897db4361294d019b87964736f6c63430008110033",
  "linkReferences": {},
  "deployedLinkReferences": {}
}