{
  "_format": "hh-sol-artifact-1",
  "contractName": "TalentLayerEscrow",
  "sourceName": "contracts/TalentLayerEscrow.sol",
  "abi": [
    {
      "inputs": [],
      "stateMutability": "nonpayable",
      "type": "constructor"
    },
    {
      "anonymous": false,
      "inputs": [
        {
          "indexed": false,
          "internalType": "address",
          "name": "previousAdmin",
          "type": "address"
        },
        {
          "indexed": false,
          "internalType": "address",
          "name": "newAdmin",
          "type": "address"
        }
      ],
      "name": "AdminChanged",
      "type": "event"
    },
    {
      "anonymous": false,
      "inputs": [
        {
          "indexed": true,
          "internalType": "uint256",
          "name": "_transactionId",
          "type": "uint256"
        },
        {
          "indexed": false,
          "internalType": "enum TalentLayerEscrow.ArbitrationFeePaymentType",
          "name": "_paymentType",
          "type": "uint8"
        },
        {
          "indexed": false,
          "internalType": "enum TalentLayerEscrow.Party",
          "name": "_party",
          "type": "uint8"
        },
        {
          "indexed": false,
          "internalType": "uint256",
          "name": "_amount",
          "type": "uint256"
        }
      ],
      "name": "ArbitrationFeePayment",
      "type": "event"
    },
    {
      "anonymous": false,
      "inputs": [
        {
          "indexed": true,
          "internalType": "address",
          "name": "beacon",
          "type": "address"
        }
      ],
      "name": "BeaconUpgraded",
      "type": "event"
    },
    {
      "anonymous": false,
      "inputs": [
        {
          "indexed": true,
          "internalType": "contract Arbitrator",
          "name": "_arbitrator",
          "type": "address"
        },
        {
          "indexed": true,
          "internalType": "uint256",
          "name": "_disputeID",
          "type": "uint256"
        },
        {
          "indexed": false,
          "internalType": "uint256",
          "name": "_metaEvidenceID",
          "type": "uint256"
        },
        {
          "indexed": false,
          "internalType": "uint256",
          "name": "_evidenceGroupID",
          "type": "uint256"
        }
      ],
      "name": "Dispute",
      "type": "event"
    },
    {
      "anonymous": false,
      "inputs": [
        {
          "indexed": true,
          "internalType": "contract Arbitrator",
          "name": "_arbitrator",
          "type": "address"
        },
        {
          "indexed": true,
          "internalType": "uint256",
          "name": "_evidenceGroupID",
          "type": "uint256"
        },
        {
          "indexed": true,
          "internalType": "address",
          "name": "_party",
          "type": "address"
        },
        {
          "indexed": false,
          "internalType": "string",
          "name": "_evidence",
          "type": "string"
        }
      ],
      "name": "Evidence",
      "type": "event"
    },
    {
      "anonymous": false,
      "inputs": [
        {
          "indexed": true,
          "internalType": "uint256",
          "name": "_transactionId",
          "type": "uint256"
        },
        {
          "indexed": true,
          "internalType": "uint256",
          "name": "_partyId",
          "type": "uint256"
        },
        {
          "indexed": false,
          "internalType": "string",
          "name": "_evidenceUri",
          "type": "string"
        }
      ],
      "name": "EvidenceSubmitted",
      "type": "event"
    },
    {
      "anonymous": false,
      "inputs": [
        {
          "indexed": false,
          "internalType": "uint256",
          "name": "_platformId",
          "type": "uint256"
        },
        {
          "indexed": true,
          "internalType": "address",
          "name": "_token",
          "type": "address"
        },
        {
          "indexed": false,
          "internalType": "uint256",
          "name": "_amount",
          "type": "uint256"
        }
      ],
      "name": "FeesClaimed",
      "type": "event"
    },
    {
      "anonymous": false,
      "inputs": [
        {
          "indexed": true,
          "internalType": "uint256",
          "name": "_transactionId",
          "type": "uint256"
        },
        {
          "indexed": false,
          "internalType": "enum TalentLayerEscrow.Party",
          "name": "_party",
          "type": "uint8"
        }
      ],
      "name": "HasToPayFee",
      "type": "event"
    },
    {
      "anonymous": false,
      "inputs": [
        {
          "indexed": false,
          "internalType": "uint8",
          "name": "version",
          "type": "uint8"
        }
      ],
      "name": "Initialized",
      "type": "event"
    },
    {
      "anonymous": false,
      "inputs": [
        {
          "indexed": true,
          "internalType": "uint256",
          "name": "_metaEvidenceID",
          "type": "uint256"
        },
        {
          "indexed": false,
          "internalType": "string",
          "name": "_evidence",
          "type": "string"
        }
      ],
      "name": "MetaEvidence",
      "type": "event"
    },
    {
      "anonymous": false,
      "inputs": [
        {
          "indexed": false,
          "internalType": "uint256",
          "name": "_platformId",
          "type": "uint256"
        },
        {
          "indexed": false,
          "internalType": "uint256",
          "name": "_serviceId",
          "type": "uint256"
        },
        {
          "indexed": true,
          "internalType": "address",
          "name": "_token",
          "type": "address"
        },
        {
          "indexed": false,
          "internalType": "uint256",
          "name": "_amount",
          "type": "uint256"
        }
      ],
      "name": "OriginServiceFeeRateReleased",
      "type": "event"
    },
    {
      "anonymous": false,
      "inputs": [
        {
          "indexed": false,
          "internalType": "uint256",
          "name": "_platformId",
          "type": "uint256"
        },
        {
          "indexed": false,
          "internalType": "uint256",
          "name": "_serviceId",
          "type": "uint256"
        },
        {
          "indexed": true,
          "internalType": "address",
          "name": "_token",
          "type": "address"
        },
        {
          "indexed": false,
          "internalType": "uint256",
          "name": "_amount",
          "type": "uint256"
        }
      ],
      "name": "OriginValidatedProposalFeeRateReleased",
      "type": "event"
    },
    {
      "anonymous": false,
      "inputs": [
        {
          "indexed": true,
          "internalType": "address",
          "name": "previousOwner",
          "type": "address"
        },
        {
          "indexed": true,
          "internalType": "address",
          "name": "newOwner",
          "type": "address"
        }
      ],
      "name": "OwnershipTransferred",
      "type": "event"
    },
    {
      "anonymous": false,
      "inputs": [
        {
          "indexed": false,
          "internalType": "uint256",
          "name": "_transactionId",
          "type": "uint256"
        },
        {
          "indexed": false,
          "internalType": "enum TalentLayerEscrow.PaymentType",
          "name": "_paymentType",
          "type": "uint8"
        },
        {
          "indexed": false,
          "internalType": "address",
          "name": "_token",
          "type": "address"
        },
        {
          "indexed": false,
          "internalType": "uint256",
          "name": "_amount",
          "type": "uint256"
        },
        {
          "indexed": false,
          "internalType": "uint256",
          "name": "_serviceId",
          "type": "uint256"
        }
      ],
      "name": "Payment",
      "type": "event"
    },
    {
      "anonymous": false,
      "inputs": [
        {
          "indexed": false,
          "internalType": "uint256",
          "name": "_serviceId",
          "type": "uint256"
        }
      ],
      "name": "PaymentCompleted",
      "type": "event"
    },
    {
      "anonymous": false,
      "inputs": [
        {
          "indexed": false,
          "internalType": "uint16",
          "name": "_protocolEscrowFeeRate",
          "type": "uint16"
        }
      ],
      "name": "ProtocolEscrowFeeRateUpdated",
      "type": "event"
    },
    {
      "anonymous": false,
      "inputs": [
        {
          "indexed": true,
          "internalType": "contract Arbitrator",
          "name": "_arbitrator",
          "type": "address"
        },
        {
          "indexed": true,
          "internalType": "uint256",
          "name": "_disputeID",
          "type": "uint256"
        },
        {
          "indexed": false,
          "internalType": "uint256",
          "name": "_ruling",
          "type": "uint256"
        }
      ],
      "name": "Ruling",
      "type": "event"
    },
    {
      "anonymous": false,
      "inputs": [
        {
          "indexed": true,
          "internalType": "uint256",
          "name": "_transactionId",
          "type": "uint256"
        },
        {
          "indexed": false,
          "internalType": "uint256",
          "name": "_ruling",
          "type": "uint256"
        }
      ],
      "name": "RulingExecuted",
      "type": "event"
    },
    {
      "anonymous": false,
      "inputs": [
        {
          "indexed": false,
          "internalType": "uint256",
          "name": "_transactionId",
          "type": "uint256"
        },
        {
          "indexed": false,
          "internalType": "uint256",
          "name": "_senderId",
          "type": "uint256"
        },
        {
          "indexed": false,
          "internalType": "uint256",
          "name": "_receiverId",
          "type": "uint256"
        },
        {
          "indexed": false,
          "internalType": "address",
          "name": "_token",
          "type": "address"
        },
        {
          "indexed": false,
          "internalType": "uint256",
          "name": "_amount",
          "type": "uint256"
        },
        {
          "indexed": false,
          "internalType": "uint256",
          "name": "_serviceId",
          "type": "uint256"
        },
        {
          "indexed": false,
          "internalType": "uint256",
          "name": "_proposalId",
          "type": "uint256"
        },
        {
          "indexed": false,
          "internalType": "uint16",
          "name": "_protocolEscrowFeeRate",
          "type": "uint16"
        },
        {
          "indexed": false,
          "internalType": "uint16",
          "name": "_originServiceFeeRate",
          "type": "uint16"
        },
        {
          "indexed": false,
          "internalType": "uint16",
          "name": "_originValidatedProposalFeeRate",
          "type": "uint16"
        },
        {
          "indexed": false,
          "internalType": "contract Arbitrator",
          "name": "_arbitrator",
          "type": "address"
        },
        {
          "indexed": false,
          "internalType": "bytes",
          "name": "_arbitratorExtraData",
          "type": "bytes"
        },
        {
          "indexed": false,
          "internalType": "uint256",
          "name": "_arbitrationFeeTimeout",
          "type": "uint256"
        }
      ],
      "name": "TransactionCreated",
      "type": "event"
    },
    {
      "anonymous": false,
      "inputs": [
        {
          "indexed": false,
          "internalType": "address",
          "name": "forwarder",
          "type": "address"
        }
      ],
      "name": "TrustedForwarderAdded",
      "type": "event"
    },
    {
      "anonymous": false,
      "inputs": [
        {
          "indexed": false,
          "internalType": "address",
          "name": "forwarder",
          "type": "address"
        }
      ],
      "name": "TrustedForwarderRemoved",
      "type": "event"
    },
    {
      "anonymous": false,
      "inputs": [
        {
          "indexed": true,
          "internalType": "address",
          "name": "implementation",
          "type": "address"
        }
      ],
      "name": "Upgraded",
      "type": "event"
    },
    {
      "inputs": [
        {
          "internalType": "address",
          "name": "_forwarder",
          "type": "address"
        }
      ],
      "name": "addTrustedForwarder",
      "outputs": [],
      "stateMutability": "nonpayable",
      "type": "function"
    },
    {
      "inputs": [
        {
          "internalType": "uint256",
          "name": "_transactionId",
          "type": "uint256"
        }
      ],
      "name": "appeal",
      "outputs": [],
      "stateMutability": "payable",
      "type": "function"
    },
    {
      "inputs": [
        {
          "internalType": "uint256",
          "name": "_platformId",
          "type": "uint256"
        },
        {
          "internalType": "address",
          "name": "_tokenAddress",
          "type": "address"
        }
      ],
      "name": "claim",
      "outputs": [],
      "stateMutability": "nonpayable",
      "type": "function"
    },
    {
      "inputs": [
        {
          "internalType": "uint256",
          "name": "_platformId",
          "type": "uint256"
        }
      ],
      "name": "claimAll",
      "outputs": [],
      "stateMutability": "nonpayable",
      "type": "function"
    },
    {
      "inputs": [
        {
          "internalType": "uint256",
          "name": "_serviceId",
          "type": "uint256"
        },
        {
          "internalType": "uint256",
          "name": "_proposalId",
          "type": "uint256"
        },
        {
          "internalType": "string",
          "name": "_metaEvidence",
          "type": "string"
        },
        {
          "internalType": "string",
          "name": "_originDataUri",
          "type": "string"
        }
      ],
      "name": "createTransaction",
      "outputs": [
        {
          "internalType": "uint256",
          "name": "",
          "type": "uint256"
        }
      ],
      "stateMutability": "payable",
      "type": "function"
    },
    {
      "inputs": [
        {
          "internalType": "uint256",
          "name": "",
          "type": "uint256"
        }
      ],
      "name": "disputeIDtoTransactionID",
      "outputs": [
        {
          "internalType": "uint256",
          "name": "",
          "type": "uint256"
        }
      ],
      "stateMutability": "view",
      "type": "function"
    },
    {
      "inputs": [
        {
          "internalType": "address",
          "name": "_token",
          "type": "address"
        }
      ],
      "name": "getClaimableFeeBalance",
      "outputs": [
        {
          "internalType": "uint256",
          "name": "balance",
          "type": "uint256"
        }
      ],
      "stateMutability": "view",
      "type": "function"
    },
    {
      "inputs": [
        {
          "internalType": "uint256",
          "name": "_transactionId",
          "type": "uint256"
        }
      ],
      "name": "getTransactionDetails",
      "outputs": [
        {
          "components": [
            {
              "internalType": "uint256",
              "name": "id",
              "type": "uint256"
            },
            {
              "internalType": "address",
              "name": "sender",
              "type": "address"
            },
            {
              "internalType": "address",
              "name": "receiver",
              "type": "address"
            },
            {
              "internalType": "address",
              "name": "token",
              "type": "address"
            },
            {
              "internalType": "uint256",
              "name": "amount",
              "type": "uint256"
            },
            {
              "internalType": "uint256",
              "name": "serviceId",
              "type": "uint256"
            },
            {
              "internalType": "uint256",
              "name": "proposalId",
              "type": "uint256"
            },
            {
              "internalType": "uint16",
              "name": "protocolEscrowFeeRate",
              "type": "uint16"
            },
            {
              "internalType": "uint16",
              "name": "originServiceFeeRate",
              "type": "uint16"
            },
            {
              "internalType": "uint16",
              "name": "originValidatedProposalFeeRate",
              "type": "uint16"
            },
            {
              "internalType": "contract Arbitrator",
              "name": "arbitrator",
              "type": "address"
            },
            {
              "internalType": "enum TalentLayerEscrow.Status",
              "name": "status",
              "type": "uint8"
            },
            {
              "internalType": "uint256",
              "name": "disputeId",
              "type": "uint256"
            },
            {
              "internalType": "uint256",
              "name": "senderFee",
              "type": "uint256"
            },
            {
              "internalType": "uint256",
              "name": "receiverFee",
              "type": "uint256"
            },
            {
              "internalType": "uint256",
              "name": "lastInteraction",
              "type": "uint256"
            },
            {
              "internalType": "bytes",
              "name": "arbitratorExtraData",
              "type": "bytes"
            },
            {
              "internalType": "uint256",
              "name": "arbitrationFeeTimeout",
              "type": "uint256"
            }
          ],
          "internalType": "struct TalentLayerEscrow.Transaction",
          "name": "",
          "type": "tuple"
        }
      ],
      "stateMutability": "view",
      "type": "function"
    },
    {
      "inputs": [
        {
          "internalType": "address",
          "name": "_talentLayerServiceAddress",
          "type": "address"
        },
        {
          "internalType": "address",
          "name": "_talentLayerIDAddress",
          "type": "address"
        },
        {
          "internalType": "address",
          "name": "_talentLayerPlatformIDAddress",
          "type": "address"
        },
        {
          "internalType": "address",
          "name": "_protocolWallet",
          "type": "address"
        }
      ],
      "name": "initialize",
      "outputs": [],
      "stateMutability": "nonpayable",
      "type": "function"
    },
    {
      "inputs": [
        {
          "internalType": "address",
          "name": "forwarder",
          "type": "address"
        }
      ],
      "name": "isTrustedForwarder",
      "outputs": [
        {
          "internalType": "bool",
          "name": "",
          "type": "bool"
        }
      ],
      "stateMutability": "view",
      "type": "function"
    },
    {
      "inputs": [],
      "name": "owner",
      "outputs": [
        {
          "internalType": "address",
          "name": "",
          "type": "address"
        }
      ],
      "stateMutability": "view",
      "type": "function"
    },
    {
      "inputs": [
        {
          "internalType": "uint256",
          "name": "_transactionId",
          "type": "uint256"
        }
      ],
      "name": "payArbitrationFeeByReceiver",
      "outputs": [],
      "stateMutability": "payable",
      "type": "function"
    },
    {
      "inputs": [
        {
          "internalType": "uint256",
          "name": "_transactionId",
          "type": "uint256"
        }
      ],
      "name": "payArbitrationFeeBySender",
      "outputs": [],
      "stateMutability": "payable",
      "type": "function"
    },
    {
      "inputs": [],
      "name": "protocolEscrowFeeRate",
      "outputs": [
        {
          "internalType": "uint16",
          "name": "",
          "type": "uint16"
        }
      ],
      "stateMutability": "view",
      "type": "function"
    },
    {
      "inputs": [],
      "name": "protocolWallet",
      "outputs": [
        {
          "internalType": "address payable",
          "name": "",
          "type": "address"
        }
      ],
      "stateMutability": "view",
      "type": "function"
    },
    {
      "inputs": [],
      "name": "proxiableUUID",
      "outputs": [
        {
          "internalType": "bytes32",
          "name": "",
          "type": "bytes32"
        }
      ],
      "stateMutability": "view",
      "type": "function"
    },
    {
      "inputs": [
        {
          "internalType": "uint256",
          "name": "_profileId",
          "type": "uint256"
        },
        {
          "internalType": "uint256",
          "name": "_transactionId",
          "type": "uint256"
        },
        {
          "internalType": "uint256",
          "name": "_amount",
          "type": "uint256"
        }
      ],
      "name": "reimburse",
      "outputs": [],
      "stateMutability": "nonpayable",
      "type": "function"
    },
    {
      "inputs": [
        {
          "internalType": "uint256",
          "name": "_profileId",
          "type": "uint256"
        },
        {
          "internalType": "uint256",
          "name": "_transactionId",
          "type": "uint256"
        },
        {
          "internalType": "uint256",
          "name": "_amount",
          "type": "uint256"
        }
      ],
      "name": "release",
      "outputs": [],
      "stateMutability": "nonpayable",
      "type": "function"
    },
    {
      "inputs": [
        {
          "internalType": "address",
          "name": "_forwarder",
          "type": "address"
        }
      ],
      "name": "removeTrustedForwarder",
      "outputs": [],
      "stateMutability": "nonpayable",
      "type": "function"
    },
    {
      "inputs": [],
      "name": "renounceOwnership",
      "outputs": [],
      "stateMutability": "nonpayable",
      "type": "function"
    },
    {
      "inputs": [
        {
          "internalType": "uint256",
          "name": "_disputeID",
          "type": "uint256"
        },
        {
          "internalType": "uint256",
          "name": "_ruling",
          "type": "uint256"
        }
      ],
      "name": "rule",
      "outputs": [],
      "stateMutability": "nonpayable",
      "type": "function"
    },
    {
      "inputs": [
        {
          "internalType": "uint256",
          "name": "_profileId",
          "type": "uint256"
        },
        {
          "internalType": "uint256",
          "name": "_transactionId",
          "type": "uint256"
        },
        {
          "internalType": "string",
          "name": "_evidence",
          "type": "string"
        }
      ],
      "name": "submitEvidence",
      "outputs": [],
      "stateMutability": "nonpayable",
      "type": "function"
    },
    {
      "inputs": [
        {
          "internalType": "uint256",
          "name": "_transactionId",
          "type": "uint256"
        }
      ],
      "name": "timeOutByReceiver",
      "outputs": [],
      "stateMutability": "nonpayable",
      "type": "function"
    },
    {
      "inputs": [
        {
          "internalType": "uint256",
          "name": "_transactionId",
          "type": "uint256"
        }
      ],
      "name": "timeOutBySender",
      "outputs": [],
      "stateMutability": "nonpayable",
      "type": "function"
    },
    {
      "inputs": [
        {
          "internalType": "address",
          "name": "newOwner",
          "type": "address"
        }
      ],
      "name": "transferOwnership",
      "outputs": [],
      "stateMutability": "nonpayable",
      "type": "function"
    },
    {
      "inputs": [
        {
          "internalType": "uint16",
          "name": "_protocolEscrowFeeRate",
          "type": "uint16"
        }
      ],
      "name": "updateProtocolEscrowFeeRate",
      "outputs": [],
      "stateMutability": "nonpayable",
      "type": "function"
    },
    {
      "inputs": [
        {
          "internalType": "address payable",
          "name": "_protocolWallet",
          "type": "address"
        }
      ],
      "name": "updateProtocolWallet",
      "outputs": [],
      "stateMutability": "nonpayable",
      "type": "function"
    },
    {
      "inputs": [
        {
          "internalType": "address",
          "name": "newImplementation",
          "type": "address"
        }
      ],
      "name": "upgradeTo",
      "outputs": [],
      "stateMutability": "nonpayable",
      "type": "function"
    },
    {
      "inputs": [
        {
          "internalType": "address",
          "name": "newImplementation",
          "type": "address"
        },
        {
          "internalType": "bytes",
          "name": "data",
          "type": "bytes"
        }
      ],
      "name": "upgradeToAndCall",
      "outputs": [],
      "stateMutability": "payable",
      "type": "function"
    }
  ],
  "bytecode": "0x60a0604052306080523480156200001557600080fd5b506200002062000026565b620000e8565b600054610100900460ff1615620000935760405162461bcd60e51b815260206004820152602760248201527f496e697469616c697a61626c653a20636f6e747261637420697320696e697469604482015266616c697a696e6760c81b606482015260840160405180910390fd5b60005460ff9081161015620000e6576000805460ff191660ff9081179091556040519081527f7f26b83ff96e1f2b6a682f133852f6798a09c465da95921460cefb38474024989060200160405180910390a15b565b60805161572c620001206000396000818161150c0152818161154c01528181611bd801528181611c180152611ca7015261572c6000f3fe6080604052600436106101c25760003560e01c80635a34257a116100f75780638da5cb5b11610095578063eb63612d11610064578063eb63612d14610511578063f2fde38b14610531578063f42cadc114610551578063f8c8765e1461057157600080fd5b80638da5cb5b146104935780639dcc5daf146104b1578063ddd5e1b2146104d1578063e308a099146104f157600080fd5b8063715018a6116100d1578063715018a6146104385780637b44cdb51461044d5780637e69b7b0146104605780638b69fa0a1461047357600080fd5b80635a34257a146103d25780636930fd2a146104075780636e72b4521461042557600080fd5b80633659cfe6116101645780633de0c7ef1161013e5780633de0c7ef146103415780634f1ef2861461036157806352d1902d14610374578063572b6c051461038957600080fd5b80633659cfe6146102e15780633751d89c146103015780633a1121cd1461032157600080fd5b806315734fe7116101a057806315734fe71461025f57806326d00668146102725780632fbe3b0314610294578063311a6c56146102c157600080fd5b806306d6e63f146101c75780630a1a47d6146102045780630fa683d314610232575b600080fd5b3480156101d357600080fd5b5060cf546101e7906001600160a01b031681565b6040516001600160a01b0390911681526020015b60405180910390f35b34801561021057600080fd5b5061022461021f3660046147c7565b610591565b6040519081526020016101fb565b34801561023e57600080fd5b5061025261024d3660046147e4565b610701565b6040516101fb9190614877565b61022461026d366004614adb565b610a28565b34801561027e57600080fd5b5061029261028d3660046147c7565b611309565b005b3480156102a057600080fd5b506102246102af3660046147e4565b60d06020526000908152604090205481565b3480156102cd57600080fd5b506102926102dc366004614b52565b61136c565b3480156102ed57600080fd5b506102926102fc3660046147c7565b611502565b34801561030d57600080fd5b5061029261031c3660046147c7565b6115de565b34801561032d57600080fd5b5061029261033c366004614b74565b611637565b34801561034d57600080fd5b5061029261035c3660046147e4565b611a43565b61029261036f366004614ba0565b611bce565b34801561038057600080fd5b50610224611c9a565b34801561039557600080fd5b506103c26103a43660046147c7565b6001600160a01b031660009081526065602052604090205460ff1690565b60405190151581526020016101fb565b3480156103de57600080fd5b5060cf546103f490600160a01b900461ffff1681565b60405161ffff90911681526020016101fb565b34801561041357600080fd5b506102926104223660046147e4565b50565b6102926104333660046147e4565b611d4d565b34801561044457600080fd5b50610292612001565b61029261045b3660046147e4565b612015565b61029261046e3660046147e4565b6122aa565b34801561047f57600080fd5b5061029261048e366004614c04565b61237d565b34801561049f57600080fd5b506033546001600160a01b03166101e7565b3480156104bd57600080fd5b506102926104cc366004614b74565b6126bc565b3480156104dd57600080fd5b506102926104ec366004614c54565b612ac8565b3480156104fd57600080fd5b5061029261050c3660046147c7565b612cd1565b34801561051d57600080fd5b5061029261052c366004614c94565b612cfb565b34801561053d57600080fd5b5061029261054c3660046147c7565b612d53565b34801561055d57600080fd5b5061029261056c3660046147e4565b612dc9565b34801561057d57600080fd5b5061029261058c366004614cb1565b612f56565b60008061059c6130c6565b9050806001600160a01b03166105ba6033546001600160a01b031690565b6001600160a01b0316036106045750506001600160a01b031660009081527f4239c2c8c3d9b94feb214b0f54d7c869ce1ceb63517be57644336cda4967a468602052604090205490565b60ce54604051631847c06b60e01b81526001600160a01b0383811660048301526000921690631847c06b90602401602060405180830381865afa15801561064f573d6000803e3d6000fd5b505050506040513d601f19601f820116820180604052508101906106739190614d0d565b60ce5460405162f577a560e81b8152600481018390529192506001600160a01b03169063f577a5009060240160006040518083038186803b1580156106b757600080fd5b505afa1580156106cb573d6000803e3d6000fd5b50505060009182525060cb602090815260408083206001600160a01b039096168352949052929092205492915050565b50919050565b6107936040805161024081018252600080825260208201819052918101829052606081018290526080810182905260a0810182905260c0810182905260e081018290526101008101829052610120810182905261014081018290529061016082019081526020016000815260200160008152602001600081526020016000815260200160608152602001600081525090565b60ca5482106107bd5760405162461bcd60e51b81526004016107b490614d26565b60405180910390fd5b600060ca83815481106107d2576107d2614d5d565b60009182526020918290206040805161024081018252600e9093029091018054835260018101546001600160a01b039081169484019490945260028101548416918301919091526003810154831660608301526004808201546080840152600582015460a0840152600682015460c0840152600782015461ffff80821660e08601526201000082048116610100860152600160201b820416610120850152600160301b81049094166101408401529192909161016084019160ff600160d01b90910416908111156108a5576108a56147fd565b60048111156108b6576108b66147fd565b81526020016008820154815260200160098201548152602001600a8201548152602001600b8201548152602001600c820180546108f290614d73565b80601f016020809104026020016040519081016040528092919081815260200182805461091e90614d73565b801561096b5780601f106109405761010080835404028352916020019161096b565b820191906000526020600020905b81548152906001019060200180831161094e57829003601f168201915b50505050508152602001600d820154815250509050600061098a6130c6565b905081602001516001600160a01b0316816001600160a01b031614806109c5575081604001516001600160a01b0316816001600160a01b0316145b610a215760405162461bcd60e51b815260206004820152602760248201527f596f7520617265206e6f742072656c6174656420746f2074686973207472616e60448201526639b0b1ba34b7b760c91b60648201526084016107b4565b5092915050565b60cc5460405163ef0e239b60e01b81526004810186905260009182916001600160a01b039091169063ef0e239b90602401600060405180830381865afa158015610a76573d6000803e3d6000fd5b505050506040513d6000823e601f3d908101601f19168201604052610a9e9190810190614df4565b60cc5460405163aba2100960e01b815260048101899052602481018890529192506000916001600160a01b039091169063aba2100990604401600060405180830381865afa158015610af4573d6000803e3d6000fd5b505050506040513d6000823e601f3d908101601f19168201604052610b1c9190810190614ec0565b60cd5460208401516040516331a9108f60e11b81529293506000926001600160a01b0390921691636352211e91610b599160040190815260200190565b602060405180830381865afa158015610b76573d6000803e3d6000fd5b505050506040513d601f19601f82011682018060405250810190610b9a9190614f7a565b60cd5460208401516040516331a9108f60e11b81529293506000926001600160a01b0390921691636352211e91610bd79160040190815260200190565b602060405180830381865afa158015610bf4573d6000803e3d6000fd5b505050506040513d601f19601f82011682018060405250810190610c189190614f7a565b60ce5460a0860151604051630b7a459360e31b81529293506000926001600160a01b0390921691635bd22c9891610c559160040190815260200190565b600060405180830381865afa158015610c72573d6000803e3d6000fd5b505050506040513d6000823e601f3d908101601f19168201604052610c9a9190810190614f97565b90506000846080015161ffff168660a0015103610cb75781610d31565b60ce546080860151604051630b7a459360e31b815261ffff90911660048201526001600160a01b0390911690635bd22c9890602401600060405180830381865afa158015610d09573d6000803e3d6000fd5b505050506040513d6000823e601f3d908101601f19168201604052610d319190810190614f97565b90506000610d4c8660600151846060015184608001516130ff565b60408701519091506001600160a01b0316610daa57803414610da55760405162461bcd60e51b81526020600482015260126024820152714e6f6e2d6d61746368696e672066756e647360701b60448201526064016107b4565b610ded565b3415610ded5760405162461bcd60e51b81526020600482015260126024820152714e6f6e2d6d61746368696e672066756e647360701b60448201526064016107b4565b846001600160a01b0316610dff6130c6565b6001600160a01b031614610e255760405162461bcd60e51b81526004016107b4906150af565b8a866020015114610e705760405162461bcd60e51b8152602060048201526015602482015274125b98dbdc9c9958dd081c1c9bdc1bdcd85b081251605a1b60448201526064016107b4565b600087516003811115610e8557610e856147fd565b14610ed25760405162461bcd60e51b815260206004820152601760248201527f5365727669636520737461747573206e6f74206f70656e00000000000000000060448201526064016107b4565b600086516001811115610ee757610ee76147fd565b14610f345760405162461bcd60e51b815260206004820152601b60248201527f50726f706f73616c20737461747573206e6f742070656e64696e67000000000060448201526064016107b4565b88604051602001610f4591906150d6565b604051602081830303815290604052805190602001208660a00151604051602001610f7091906150d6565b6040516020818303038152906040528051906020012014610fd35760405162461bcd60e51b815260206004820152601c60248201527f50726f706f73616c206461746155726920686173206368616e6765640000000060448201526064016107b4565b600060ca80549050905060ca604051806102400160405280838152602001886001600160a01b03168152602001876001600160a01b0316815260200189604001516001600160a01b03168152602001896060015181526020018f81526020018e815260200160cf60149054906101000a900461ffff1661ffff168152602001866060015161ffff168152602001856080015161ffff1681526020018660e001516001600160a01b0316815260200160006004811115611094576110946147fd565b8152600060208083018290526040808401839052606080850184905242608080870191909152610100808d015160a080890191909152610120808f015160c0998a01528a5460018181018d559b8952978790208a51600e909902019788559589015199870180546001600160a01b039b8c166001600160a01b03199182161790915594890151600288018054918c1691871691909117905592880151600387018054918b16919095161790935586015160048086019190915590860151600585015593850151600684015560e08501516007840180549287015193870151610140880151909816600160301b026601000000000000600160d01b031961ffff998a16600160201b0216640100000000600160d01b0319958a16620100000263ffffffff19909516999093169890981792909217929092169190911794909417808555610160840151939491939260ff60d01b1990911690600160d01b908490811115611202576112026147fd565b021790555061018082015160088201556101a082015160098201556101c0820151600a8201556101e0820151600b820155610200820151600c8201906112489082615138565b506102209190910151600d9091015560cc546040516353eaf57560e11b8152600481018f9052602481018e9052604481018390526001600160a01b039091169063a7d5eaea90606401600060405180830381600087803b1580156112ab57600080fd5b505af11580156112bf573d6000803e3d6000fd5b5050505060408701516001600160a01b0316156112e5576112e58688604001518461316a565b6112f988602001518860200151838e613228565b9c9b505050505050505050505050565b611311613350565b6001600160a01b038116600081815260656020908152604091829020805460ff1916600117905590519182527f3ef8564460ada92419608d823c014975d98f8104d7d1e68c222967ac6814cd9791015b60405180910390a150565b60006113766130c6565b600084815260d0602052604081205460ca805493945090928390811061139e5761139e614d5d565b90600052602060002090600e020190508060070160069054906101000a90046001600160a01b03166001600160a01b0316836001600160a01b0316146114305760405162461bcd60e51b815260206004820152602160248201527f5468652063616c6c6572206d757374206265207468652061726269747261746f6044820152603960f91b60648201526084016107b4565b60036007820154600160d01b900460ff166004811115611452576114526147fd565b146114ad5760405162461bcd60e51b815260206004820152602560248201527f54686520646973707574652068617320616c7265616479206265656e207265736044820152641bdb1d995960da1b60648201526084016107b4565b84836001600160a01b03167f394027a5fa6e098a1191094d1719d6929b9abc535fcc0c8f448d6a4e75622276866040516114e991815260200190565b60405180910390a36114fb82856133c9565b5050505050565b6001600160a01b037f000000000000000000000000000000000000000000000000000000000000000016300361154a5760405162461bcd60e51b81526004016107b4906151f8565b7f00000000000000000000000000000000000000000000000000000000000000006001600160a01b0316611593600080516020615690833981519152546001600160a01b031690565b6001600160a01b0316146115b95760405162461bcd60e51b81526004016107b490615244565b6115c281613b06565b6040805160008082526020820190925261042291839190613b0e565b6115e6613350565b6001600160a01b038116600081815260656020908152604091829020805460ff1916905590519182527fd2d636efcad0cea42e170256f4c5d8b1cd81e47b855557edaf44014e6cc4cee69101611361565b60cd5483906001600160a01b0316632fa117e5826116536130c6565b6040516001600160e01b031960e085901b16815260048101929092526001600160a01b03166024820152604401602060405180830381865afa15801561169d573d6000803e3d6000fd5b505050506040513d601f19601f820116820180604052508101906116c19190615290565b6116dd5760405162461bcd60e51b81526004016107b4906152b2565b6127108210156117205760405162461bcd60e51b815260206004820152600e60248201526d416d6f756e7420746f6f206c6f7760901b60448201526064016107b4565b60ca5483106117415760405162461bcd60e51b81526004016107b490614d26565b600060ca848154811061175657611756614d5d565b6000918252602090912060cd546040516331a9108f60e11b815260048101899052600e90930290910192506001600160a01b031690636352211e90602401602060405180830381865afa1580156117b1573d6000803e3d6000fd5b505050506040513d601f19601f820116820180604052508101906117d59190614f7a565b60018201546001600160a01b039081169116146118045760405162461bcd60e51b81526004016107b4906150af565b60006007820154600160d01b900460ff166004811115611826576118266147fd565b146118435760405162461bcd60e51b81526004016107b4906152e1565b828160040154101561188c5760405162461bcd60e51b8152602060048201526012602482015271496e73756666696369656e742066756e647360701b60448201526064016107b4565b828160040160008282546118a0919061533c565b909155505060408051610240810182528254815260018301546001600160a01b03908116602083015260028401548116928201929092526003830154821660608201526004808401546080830152600584015460a0830152600684015460c0830152600784015461ffff80821660e08501526201000082048116610100850152600160201b820416610120840152600160301b81049093166101408301526114fb928491610160840191600160d01b900460ff1690811115611964576119646147fd565b6004811115611975576119756147fd565b81526020016008820154815260200160098201548152602001600a8201548152602001600b8201548152602001600c820180546119b190614d73565b80601f01602080910402602001604051908101604052809291908181526020018280546119dd90614d73565b8015611a2a5780601f106119ff57610100808354040283529160200191611a2a565b820191906000526020600020905b815481529060010190602001808311611a0d57829003601f168201915b50505050508152602001600d8201548152505084613c79565b600060ca8281548110611a5857611a58614d5d565b60009182526020909120600e90910201905060016007820154600160d01b900460ff166004811115611a8c57611a8c6147fd565b14611aee5760405162461bcd60e51b815260206004820152602c60248201527f546865207472616e73616374696f6e206973206e6f742077616974696e67206f60448201526b37103a34329039b2b73232b960a11b60648201526084016107b4565b600d810154600b820154611b02904261533c565b1015611b505760405162461bcd60e51b815260206004820152601f60248201527f54696d656f75742074696d6520686173206e6f7420706173736564207965740060448201526064016107b4565b600981015415611bbf57600981018054600091829055600183015460405191926001600160a01b0390911691839181818185875af1925050503d8060008114611bb5576040519150601f19603f3d011682016040523d82523d6000602084013e611bba565b606091505b505050505b611bca8260026133c9565b5050565b6001600160a01b037f0000000000000000000000000000000000000000000000000000000000000000163003611c165760405162461bcd60e51b81526004016107b4906151f8565b7f00000000000000000000000000000000000000000000000000000000000000006001600160a01b0316611c5f600080516020615690833981519152546001600160a01b031690565b6001600160a01b031614611c855760405162461bcd60e51b81526004016107b490615244565b611c8e82613b06565b611bca82826001613b0e565b6000306001600160a01b037f00000000000000000000000000000000000000000000000000000000000000001614611d3a5760405162461bcd60e51b815260206004820152603860248201527f555550535570677261646561626c653a206d757374206e6f742062652063616c60448201527f6c6564207468726f7567682064656c656761746563616c6c000000000000000060648201526084016107b4565b5060008051602061569083398151915290565b600060ca8281548110611d6257611d62614d5d565b600091825260209091206007600e9092020190810154909150600160301b90046001600160a01b0316611da75760405162461bcd60e51b81526004016107b49061534f565b60036007820154600160d01b900460ff166004811115611dc957611dc96147fd565b10611de65760405162461bcd60e51b81526004016107b49061537b565b60028101546001600160a01b0316611dfc6130c6565b6001600160a01b031614611e525760405162461bcd60e51b815260206004820152601f60248201527f5468652063616c6c6572206d757374206265207468652072656365697665720060448201526064016107b4565b600781015460405163f7434ea960e01b8152600091600160301b90046001600160a01b03169063f7434ea990611e8f90600c86019060040161546b565b602060405180830381865afa158015611eac573d6000803e3d6000fd5b505050506040513d601f19601f82011682018060405250810190611ed09190614d0d565b90503482600a016000828254611ee6919061547e565b9091555050600a8201548114611f5d5760405162461bcd60e51b815260206004820152603660248201527f54686520726563656976657220666565206d75737420626520657175616c20746044820152751bc81d1a1948185c989a5d1c985d1a5bdb8818dbdcdd60521b60648201526084016107b4565b42600b83015560405183906000805160206156b083398151915290611f899060009060019034906154a1565b60405180910390a28082600901541015611ff25760078201805460ff60d01b1916600160d01b17905560405183907fc74b9f7dedf2887cd3c113b6d8da9cea19e55c1116e25f1f0e1b72d7543179b590611fe5906000906154cb565b60405180910390a2505050565b611ffc8382613ff0565b505050565b612009613350565b612013600061425f565b565b600060ca828154811061202a5761202a614d5d565b600091825260209091206007600e9092020190810154909150600160301b90046001600160a01b031661206f5760405162461bcd60e51b81526004016107b49061534f565b60036007820154600160d01b900460ff166004811115612091576120916147fd565b106120ae5760405162461bcd60e51b81526004016107b49061537b565b60018101546001600160a01b03166120c46130c6565b6001600160a01b03161461211a5760405162461bcd60e51b815260206004820152601d60248201527f5468652063616c6c6572206d757374206265207468652073656e64657200000060448201526064016107b4565b600781015460405163f7434ea960e01b8152600091600160301b90046001600160a01b03169063f7434ea99061215790600c86019060040161546b565b602060405180830381865afa158015612174573d6000803e3d6000fd5b505050506040513d601f19601f820116820180604052508101906121989190614d0d565b9050348260090160008282546121ae919061547e565b9091555050600982015481146122235760405162461bcd60e51b815260206004820152603460248201527f5468652073656e64657220666565206d75737420626520657175616c20746f206044820152731d1a1948185c989a5d1c985d1a5bdb8818dbdcdd60621b60648201526084016107b4565b42600b83015560405183906000805160206156b08339815191529061224e90600090819034906154a1565b60405180910390a28082600a01541015611ff25760078201805460ff60d01b1916600160d11b17905560405183907fc74b9f7dedf2887cd3c113b6d8da9cea19e55c1116e25f1f0e1b72d7543179b590611fe5906001906154cb565b600060ca82815481106122bf576122bf614d5d565b600091825260209091206007600e9092020190810154909150600160301b90046001600160a01b03166123045760405162461bcd60e51b81526004016107b49061534f565b6007810154600882015460405163093225f160e31b8152600160301b9092046001600160a01b0316916349912f889134916123479190600c8701906004016154de565b6000604051808303818588803b15801561236057600080fd5b505af1158015612374573d6000803e3d6000fd5b50505050505050565b60cd5483906001600160a01b0316632fa117e5826123996130c6565b6040516001600160e01b031960e085901b16815260048101929092526001600160a01b03166024820152604401602060405180830381865afa1580156123e3573d6000803e3d6000fd5b505050506040513d601f19601f820116820180604052508101906124079190615290565b6124235760405162461bcd60e51b81526004016107b4906152b2565b600060ca848154811061243857612438614d5d565b600091825260209091206007600e9092020190810154909150600160301b90046001600160a01b031661247d5760405162461bcd60e51b81526004016107b49061534f565b60cd546040516331a9108f60e11b8152600481018790526000916001600160a01b031690636352211e90602401602060405180830381865afa1580156124c7573d6000803e3d6000fd5b505050506040513d601f19601f820116820180604052508101906124eb9190614f7a565b60018301549091506001600160a01b038083169116148061251b575060028201546001600160a01b038281169116145b61258f576040805162461bcd60e51b81526020600482015260248101919091527f5468652063616c6c6572206d757374206265207468652073656e646572206f7260448201527f20746865207265636569766572206f722074686569722064656c65676174657360648201526084016107b4565b60046007830154600160d01b900460ff1660048111156125b1576125b16147fd565b106126185760405162461bcd60e51b815260206004820152603160248201527f4d757374206e6f742073656e642065766964656e6365206966207468652064696044820152701cdc1d5d19481a5cc81c995cdbdb1d9959607a1b60648201526084016107b4565b806001600160a01b0316858360070160069054906101000a90046001600160a01b03166001600160a01b03167fdccf2f8b2cc26eafcd61905cba744cff4b81d14740725f6376390dc6298a6a3c8760405161267391906154f7565b60405180910390a485857fd998ce0f89c38b0f93256f0b843a404a3a3c5055b75265623f7cb9c369a1dd62866040516126ac91906154f7565b60405180910390a3505050505050565b60cd5483906001600160a01b0316632fa117e5826126d86130c6565b6040516001600160e01b031960e085901b16815260048101929092526001600160a01b03166024820152604401602060405180830381865afa158015612722573d6000803e3d6000fd5b505050506040513d601f19601f820116820180604052508101906127469190615290565b6127625760405162461bcd60e51b81526004016107b4906152b2565b6127108210156127a55760405162461bcd60e51b815260206004820152600e60248201526d416d6f756e7420746f6f206c6f7760901b60448201526064016107b4565b60ca5483106127c65760405162461bcd60e51b81526004016107b490614d26565b600060ca84815481106127db576127db614d5d565b6000918252602090912060cd546040516331a9108f60e11b815260048101899052600e90930290910192506001600160a01b031690636352211e90602401602060405180830381865afa158015612836573d6000803e3d6000fd5b505050506040513d601f19601f8201168201806040525081019061285a9190614f7a565b60028201546001600160a01b039081169116146128895760405162461bcd60e51b81526004016107b4906150af565b60006007820154600160d01b900460ff1660048111156128ab576128ab6147fd565b146128c85760405162461bcd60e51b81526004016107b4906152e1565b82816004015410156129115760405162461bcd60e51b8152602060048201526012602482015271496e73756666696369656e742066756e647360701b60448201526064016107b4565b82816004016000828254612925919061533c565b909155505060408051610240810182528254815260018301546001600160a01b03908116602083015260028401548116928201929092526003830154821660608201526004808401546080830152600584015460a0830152600684015460c0830152600784015461ffff80821660e08501526201000082048116610100850152600160201b820416610120840152600160301b81049093166101408301526114fb928491610160840191600160d01b900460ff16908111156129e9576129e96147fd565b60048111156129fa576129fa6147fd565b81526020016008820154815260200160098201548152602001600a8201548152602001600b8201548152602001600c82018054612a3690614d73565b80601f0160208091040260200160405190810160405280929190818152602001828054612a6290614d73565b8015612aaf5780601f10612a8457610100808354040283529160200191612aaf565b820191906000526020600020905b815481529060010190602001808311612a9257829003601f168201915b50505050508152602001600d82015481525050846142b1565b6000612ad26130c6565b6001600160a01b0316612aed6033546001600160a01b031690565b6001600160a01b031603612b2b578215612b195760405162461bcd60e51b81526004016107b4906150af565b5060cf546001600160a01b0316612bf6565b60ce5460405162f577a560e81b8152600481018590526001600160a01b039091169063f577a5009060240160006040518083038186803b158015612b6e57600080fd5b505afa158015612b82573d6000803e3d6000fd5b505060ce546040516331a9108f60e11b8152600481018790526001600160a01b039091169250636352211e9150602401602060405180830381865afa158015612bcf573d6000803e3d6000fd5b505050506040513d601f19601f82011682018060405250810190612bf39190614f7a565b90505b600083815260cb602090815260408083206001600160a01b038616845290915290205480612c595760405162461bcd60e51b815260206004820152601060248201526f6e6f7468696e6720746f20636c61696d60801b60448201526064016107b4565b600084815260cb602090815260408083206001600160a01b0387168452909152812055612c87828483614373565b60408051858152602081018390526001600160a01b038516917f2227733fc4c8a9034cb58087dcf6995128b9c0233b038b03366aaf30c92b92d6910160405180910390a250505050565b612cd9613350565b60cf80546001600160a01b0319166001600160a01b0392909216919091179055565b612d03613350565b60cf805461ffff60a01b1916600160a01b61ffff8416908102919091179091556040519081527f8339189e972f7fba792126e752aa8485af08710bce4a041c5bc3f9858acd713090602001611361565b612d5b613350565b6001600160a01b038116612dc05760405162461bcd60e51b815260206004820152602660248201527f4f776e61626c653a206e6577206f776e657220697320746865207a65726f206160448201526564647265737360d01b60648201526084016107b4565b6104228161425f565b600060ca8281548110612dde57612dde614d5d565b60009182526020909120600e90910201905060026007820154600160d01b900460ff166004811115612e1257612e126147fd565b14612e765760405162461bcd60e51b815260206004820152602e60248201527f546865207472616e73616374696f6e206973206e6f742077616974696e67206f60448201526d37103a3432903932b1b2b4bb32b960911b60648201526084016107b4565b600d810154600b820154612e8a904261533c565b1015612ed85760405162461bcd60e51b815260206004820152601f60248201527f54696d656f75742074696d6520686173206e6f7420706173736564207965740060448201526064016107b4565b600081600a0154600014612f4b5750600a81018054600091829055600283015460405191926001600160a01b0390911691839181818185875af1925050503d8060008114612f42576040519150601f19603f3d011682016040523d82523d6000602084013e612f47565b606091505b5050505b611ffc8360016133c9565b600054610100900460ff1615808015612f765750600054600160ff909116105b80612f905750303b158015612f90575060005460ff166001145b612ff35760405162461bcd60e51b815260206004820152602e60248201527f496e697469616c697a61626c653a20636f6e747261637420697320616c72656160448201526d191e481a5b9a5d1a585b1a5e995960921b60648201526084016107b4565b6000805460ff191660011790558015613016576000805461ff0019166101001790555b61301e61444d565b61302661447c565b60cc80546001600160a01b038088166001600160a01b03199283161790925560cd805487841690831617905560ce805486841690831617905560cf80549285169290911691909117905561307a6064612cfb565b80156114fb576000805461ff0019169055604051600181527f7f26b83ff96e1f2b6a682f133852f6798a09c465da95921460cefb38474024989060200160405180910390a15050505050565b6000601436108015906130e857503360009081526065602052604090205460ff165b156130fa575060131936013560601c90565b503390565b600061271061311261ffff84168661550a565b61312061ffff86168761550a565b60cf5461313890600160a01b900461ffff168861550a565b613142919061547e565b61314c919061547e565b6131569190615521565b613160908561547e565b90505b9392505050565b6040516323b872dd60e01b81526001600160a01b038481166004830152306024830152604482018390528316906323b872dd906064016020604051808303816000875af11580156131bf573d6000803e3d6000fd5b505050506040513d601f19601f820116820180604052508101906131e39190615290565b611ffc5760405162461bcd60e51b8152602060048201526016602482015275151c985b9cd9995c881b5d5cdd081b9bdd0819985a5b60521b60448201526064016107b4565b600060ca838154811061323d5761323d614d5d565b90600052602060002090600e020190507f8b4f0e94aa0aee74c276abd2d92a5e2737a493b055e19d5b2d4c0ac573242a158386868460030160009054906101000a90046001600160a01b031685600401548660050154876006015460cf60149054906101000a900461ffff168960070160029054906101000a900461ffff168a60070160049054906101000a900461ffff168b60070160069054906101000a90046001600160a01b03168c600c018d600d01546040516133099d9c9b9a99989796959493929190615543565b60405180910390a1827f61606860eb6c87306811e2695215385101daab53bd6ab4e9f9049aead9363c7d8360405161334191906154f7565b60405180910390a25050505050565b6133586130c6565b6001600160a01b03166133736033546001600160a01b031690565b6001600160a01b0316146120135760405162461bcd60e51b815260206004820181905260248201527f4f776e61626c653a2063616c6c6572206973206e6f7420746865206f776e657260448201526064016107b4565b600060ca83815481106133de576133de614d5d565b90600052602060002090600e02019050600260ff168211156134335760405162461bcd60e51b815260206004820152600e60248201526d496e76616c69642072756c696e6760901b60448201526064016107b4565b60018101546002820154600483018054600985018054600a87018054600095869055928590559390935560078601805460ff60d01b1916600160d21b1790556001600160a01b03948516949093169290919060001987016135a5576040516001600160a01b038616908390600081818185875af1925050503d80600081146134d7576040519150601f19603f3d011682016040523d82523d6000602084013e6134dc565b606091505b505060408051610240810182528854815260018901546001600160a01b03908116602083015260028a01548116928201929092526003890154821660608201526004808a0154608083015260058a015460a083015260068a015460c083015260078a015461ffff80821660e08501526201000082048116610100850152600160201b820416610120840152600160301b81049093166101408301526135a0935090918991610160840191600160d01b900460ff16908111156129e9576129e96147fd565b613ac2565b60011987016136c0576040516001600160a01b038516908290600081818185875af1925050503d80600081146135f7576040519150601f19603f3d011682016040523d82523d6000602084013e6135fc565b606091505b505060408051610240810182528854815260018901546001600160a01b03908116602083015260028a01548116928201929092526003890154821660608201526004808a0154608083015260058a015460a083015260068a015460c083015260078a015461ffff80821660e08501526201000082048116610100850152600160201b820416610120840152600160301b81049093166101408301526135a0935090918991610160840191600160d01b900460ff1690811115611964576119646147fd565b60006136cd600284615521565b905060006136dc600286615521565b60408051610240810182528a54815260018b01546001600160a01b03908116602083015260028c015481169282019290925260038b0154821660608201526004808c0154608083015260058c015460a083015260068c015460c083015260078c015461ffff80821660e08501526201000082048116610100850152600160201b820416610120840152600160301b810490931661014083015292935061387f9290918b91610160840191600160d01b900460ff16908111156137a0576137a06147fd565b60048111156137b1576137b16147fd565b81526020016008820154815260200160098201548152602001600a8201548152602001600b8201548152602001600c820180546137ed90614d73565b80601f016020809104026020016040519081016040528092919081815260200182805461381990614d73565b80156138665780601f1061383b57610100808354040283529160200191613866565b820191906000526020600020905b81548152906001019060200180831161384957829003601f168201915b50505050508152602001600d82015481525050826142b1565b60408051610240810182528954815260018a01546001600160a01b03908116602083015260028b015481169282019290925260038a0154821660608201526004808b0154608083015260058b015460a083015260068b015460c083015260078b015461ffff80821660e08501526201000082048116610100850152600160201b820416610120840152600160301b8104909316610140830152613a1d928b91610160840191600160d01b900460ff169081111561393e5761393e6147fd565b600481111561394f5761394f6147fd565b81526020016008820154815260200160098201548152602001600a8201548152602001600b8201548152602001600c8201805461398b90614d73565b80601f01602080910402602001604051908101604052809291908181526020018280546139b790614d73565b8015613a045780601f106139d957610100808354040283529160200191613a04565b820191906000526020600020905b8154815290600101906020018083116139e757829003601f168201915b50505050508152602001600d8201548152505082613c79565b6040516001600160a01b038816908390600081818185875af1925050503d8060008114613a66576040519150601f19603f3d011682016040523d82523d6000602084013e613a6b565b606091505b50506040516001600160a01b03881691508390600081818185875af1925050503d8060008114613ab7576040519150601f19603f3d011682016040523d82523d6000602084013e613abc565b606091505b50505050505b877f76b363d70472d47d20e4119f3625c05ed37ca51b1d9e1cd8b87d8c20530640f388604051613af491815260200190565b60405180910390a25050505050505050565b610422613350565b7f4910fdfa16fed3260ed0e7147f7cc6da11a60208b5b9406d12a635614ffd91435460ff1615613b4157611ffc836144a3565b826001600160a01b03166352d1902d6040518163ffffffff1660e01b8152600401602060405180830381865afa925050508015613b9b575060408051601f3d908101601f19168201909252613b9891810190614d0d565b60015b613bfe5760405162461bcd60e51b815260206004820152602e60248201527f45524331393637557067726164653a206e657720696d706c656d656e7461746960448201526d6f6e206973206e6f74205555505360901b60648201526084016107b4565b6000805160206156908339815191528114613c6d5760405162461bcd60e51b815260206004820152602960248201527f45524331393637557067726164653a20756e737570706f727465642070726f786044820152681a58589b195555525160ba1b60648201526084016107b4565b50611ffc83838361453f565b60cc5460a083015160405163ef0e239b60e01b815260048101919091526000916001600160a01b03169063ef0e239b90602401600060405180830381865afa158015613cc9573d6000803e3d6000fd5b505050506040513d6000823e601f3d908101601f19168201604052613cf19190810190614df4565b60a09081015160cc549185015160c086015160405163aba2100960e01b8152600481019290925260248201529092506000916001600160a01b03169063aba2100990604401600060405180830381865afa158015613d53573d6000803e3d6000fd5b505050506040513d6000823e601f3d908101601f19168201604052613d7b9190810190614ec0565b6080015161ffff169050600061271061ffff16848660e0015161ffff16613da2919061550a565b613dac9190615521565b9050600061271061ffff168587610100015161ffff16613dcc919061550a565b613dd69190615521565b9050600061271061ffff168688610120015161ffff16613df6919061550a565b613e009190615521565b600080805260cb602090815260608a01516001600160a01b031682527f4239c2c8c3d9b94feb214b0f54d7c869ce1ceb63517be57644336cda4967a46890526040812080549293508592909190613e5890849061547e565b9091555050600085815260cb6020908152604080832060608b01516001600160a01b0316845290915281208054849290613e9390849061547e565b9091555050600084815260cb6020908152604080832060608b01516001600160a01b0316845290915281208054839290613ece90849061547e565b92505081905550613ee88760400151886060015188614373565b60608088015160a089015160408051898152602081019290925281018590526001600160a01b03909116917f17c48ab8e1617182f35ae77fd7da7f4e15dedf7018aa371a4481c20c790b6546910160405180910390a260608088015160a089015160408051888152602081019290925281018590526001600160a01b03909116917f3476ed3eea2cdac584273bc8830824c8ca42ca2a99e9f144a87a1cdbbf9dd15a910160405180910390a28651606088015160a08901516040517f2ab2a30b19f7bc6e386d4ee60aa21ed23c127ce9fe26903da97edd54bad0375a93613fd69390926000928c91906155d1565b60405180910390a16123748760a001518860800151614564565b600060ca838154811061400557614005614d5d565b60009182526020909120600e9091020160078101805460ff60d01b1916600360d01b179081905560405163c13517e160e01b8152919250600160301b90046001600160a01b031690819063c13517e190859061406b90600290600c88019060040161560d565b60206040518083038185885af1158015614089573d6000803e3d6000fd5b50505050506040513d601f19601f820116820180604052508101906140ae9190614d0d565b60088301818155600091825260d0602090815260409283902087905590548251878152918201879052916001600160a01b038416917f74baab670a4015ab2f1b467c5252a96141a2573f2908e58a92081e80d3cfde3d910160405180910390a382826009015411156141b957600083836009015461412c919061533c565b6009840185905560018401546040519192506001600160a01b0316908290600081818185875af1925050503d8060008114614183576040519150601f19603f3d011682016040523d82523d6000602084013e614188565b606091505b505050846000805160206156b083398151915260016000346040516141af939291906154a1565b60405180910390a2505b8282600a015411156142595760008383600a01546141d7919061533c565b600a840185905560028401546040519192506001600160a01b0316908290600081818185875af1925050503d806000811461422e576040519150601f19603f3d011682016040523d82523d6000602084013e614233565b606091505b505050846000805160206156b083398151915260018034604051613341939291906154a1565b50505050565b603380546001600160a01b038381166001600160a01b0319831681179093556040519116919082907f8be0079c531659141344cd1fd0a4f28419497f9722a3daafe3b4186f6b6457e090600090a35050565b600061271061ffff16828461010001518561012001518660e001516142d69190615629565b6142e09190615629565b61ffff166142ee919061550a565b6142f89190615521565b614302908361547e565b90506143178360200151846060015183614373565b8251606084015160a08501516040517f2ab2a30b19f7bc6e386d4ee60aa21ed23c127ce9fe26903da97edd54bad0375a936143599390926001928891906155d1565b60405180910390a1611ffc8360a001518460800151614564565b6001600160a01b0382166000036143da576040516001600160a01b038416908290600081818185875af1925050503d80600081146143cd576040519150601f19603f3d011682016040523d82523d6000602084013e6143d2565b606091505b505050505050565b60405163a9059cbb60e01b81526001600160a01b0384811660048301526024820183905283169063a9059cbb906044016020604051808303816000875af1158015614429573d6000803e3d6000fd5b505050506040513d601f19601f820116820180604052508101906142599190615290565b600054610100900460ff166144745760405162461bcd60e51b81526004016107b490615644565b612013614607565b600054610100900460ff166120135760405162461bcd60e51b81526004016107b490615644565b6001600160a01b0381163b6145105760405162461bcd60e51b815260206004820152602d60248201527f455243313936373a206e657720696d706c656d656e746174696f6e206973206e60448201526c1bdd08184818dbdb9d1c9858dd609a1b60648201526084016107b4565b60008051602061569083398151915280546001600160a01b0319166001600160a01b0392909216919091179055565b6145488361463e565b6000825111806145555750805b15611ffc57614259838361467e565b80600003611bca5760cc54604051631271956760e21b8152600481018490526001600160a01b03909116906349c6559c90602401600060405180830381600087803b1580156145b257600080fd5b505af11580156145c6573d6000803e3d6000fd5b505050507f6bef1b5e95b741d6e665eb9b5c2d3e1203c46a771451055a9d41e0b8ff4510b7826040516145fb91815260200190565b60405180910390a15050565b600054610100900460ff1661462e5760405162461bcd60e51b81526004016107b490615644565b6120136146396130c6565b61425f565b614647816144a3565b6040516001600160a01b038216907fbc7cd75a20ee27fd9adebab32041f755214dbc6bffa90cc0225b39da2e5c2d3b90600090a250565b60606001600160a01b0383163b6146e65760405162461bcd60e51b815260206004820152602660248201527f416464726573733a2064656c65676174652063616c6c20746f206e6f6e2d636f6044820152651b9d1c9858dd60d21b60648201526084016107b4565b600080846001600160a01b03168460405161470191906150d6565b600060405180830381855af49150503d806000811461473c576040519150601f19603f3d011682016040523d82523d6000602084013e614741565b606091505b509150915061476982826040518060600160405280602781526020016156d060279139614774565b925050505b92915050565b60608315614783575081613163565b61316383838151156147985781518083602001fd5b8060405162461bcd60e51b81526004016107b491906154f7565b6001600160a01b038116811461042257600080fd5b6000602082840312156147d957600080fd5b8135613163816147b2565b6000602082840312156147f657600080fd5b5035919050565b634e487b7160e01b600052602160045260246000fd5b60058110614823576148236147fd565b9052565b60005b8381101561484257818101518382015260200161482a565b50506000910152565b60008151808452614863816020860160208601614827565b601f01601f19169290920160200192915050565b60208152815160208201526000602083015161489e60408401826001600160a01b03169052565b5060408301516001600160a01b03811660608401525060608301516001600160a01b038116608084015250608083015160a083015260a083015160c083015260c083015160e083015260e08301516101006148fe8185018361ffff169052565b84015190506101206149158482018361ffff169052565b840151905061014061492c8482018361ffff169052565b8401519050610160614948848201836001600160a01b03169052565b840151905061018061495c84820183614813565b8401516101a0848101919091528401516101c0808501919091528401516101e08085019190915284015161020080850191909152840151610240610220808601829052919250906149b161026086018461484b565b9501519301929092525090919050565b634e487b7160e01b600052604160045260246000fd5b60405160c0810167ffffffffffffffff811182821017156149fa576149fa6149c1565b60405290565b604051610140810167ffffffffffffffff811182821017156149fa576149fa6149c1565b604051601f8201601f1916810167ffffffffffffffff81118282101715614a4d57614a4d6149c1565b604052919050565b600067ffffffffffffffff821115614a6f57614a6f6149c1565b50601f01601f191660200190565b6000614a90614a8b84614a55565b614a24565b9050828152838383011115614aa457600080fd5b828260208301376000602084830101529392505050565b600082601f830112614acc57600080fd5b61316383833560208501614a7d565b60008060008060808587031215614af157600080fd5b8435935060208501359250604085013567ffffffffffffffff80821115614b1757600080fd5b614b2388838901614abb565b93506060870135915080821115614b3957600080fd5b50614b4687828801614abb565b91505092959194509250565b60008060408385031215614b6557600080fd5b50508035926020909101359150565b600080600060608486031215614b8957600080fd5b505081359360208301359350604090920135919050565b60008060408385031215614bb357600080fd5b8235614bbe816147b2565b9150602083013567ffffffffffffffff811115614bda57600080fd5b8301601f81018513614beb57600080fd5b614bfa85823560208401614a7d565b9150509250929050565b600080600060608486031215614c1957600080fd5b8335925060208401359150604084013567ffffffffffffffff811115614c3e57600080fd5b614c4a86828701614abb565b9150509250925092565b60008060408385031215614c6757600080fd5b823591506020830135614c79816147b2565b809150509250929050565b61ffff8116811461042257600080fd5b600060208284031215614ca657600080fd5b813561316381614c84565b60008060008060808587031215614cc757600080fd5b8435614cd2816147b2565b93506020850135614ce2816147b2565b92506040850135614cf2816147b2565b91506060850135614d02816147b2565b939692955090935050565b600060208284031215614d1f57600080fd5b5051919050565b6020808252601a908201527f4e6f7420612076616c6964207472616e73616374696f6e206964000000000000604082015260600190565b634e487b7160e01b600052603260045260246000fd5b600181811c90821680614d8757607f821691505b6020821081036106fb57634e487b7160e01b600052602260045260246000fd5b600082601f830112614db857600080fd5b8151614dc6614a8b82614a55565b818152846020838601011115614ddb57600080fd5b614dec826020830160208701614827565b949350505050565b600060208284031215614e0657600080fd5b815167ffffffffffffffff80821115614e1e57600080fd5b9083019060c08286031215614e3257600080fd5b614e3a6149d7565b825160048110614e4957600080fd5b808252506020830151602082015260408301516040820152606083015182811115614e7357600080fd5b614e7f87828601614da7565b6060830152506080830151608082015260a083015160a082015280935050505092915050565b8051614eb0816147b2565b919050565b8051614eb081614c84565b600060208284031215614ed257600080fd5b815167ffffffffffffffff80821115614eea57600080fd5b9083019060c08286031215614efe57600080fd5b614f066149d7565b825160028110614f1557600080fd5b815260208381015190820152614f2d60408401614ea5565b604082015260608301516060820152614f4860808401614eb5565b608082015260a083015182811115614f5f57600080fd5b614f6b87828601614da7565b60a08301525095945050505050565b600060208284031215614f8c57600080fd5b8151613163816147b2565b600060208284031215614fa957600080fd5b815167ffffffffffffffff80821115614fc157600080fd5b908301906101408286031215614fd657600080fd5b614fde614a00565b82518152602083015182811115614ff457600080fd5b61500087828601614da7565b60208301525060408301518281111561501857600080fd5b61502487828601614da7565b60408301525061503660608401614eb5565b606082015261504760808401614eb5565b608082015260a083015160a082015260c083015160c082015261506c60e08401614ea5565b60e0820152610100808401518381111561508557600080fd5b61509188828701614da7565b91830191909152506101209283015192810192909252509392505050565b6020808252600d908201526c1058d8d95cdcc819195b9a5959609a1b604082015260600190565b600082516150e8818460208701614827565b9190910192915050565b601f821115611ffc57600081815260208120601f850160051c810160208610156151195750805b601f850160051c820191505b818110156143d257828155600101615125565b815167ffffffffffffffff811115615152576151526149c1565b615166816151608454614d73565b846150f2565b602080601f83116001811461519b57600084156151835750858301515b600019600386901b1c1916600185901b1785556143d2565b600085815260208120601f198616915b828110156151ca578886015182559484019460019091019084016151ab565b50858210156151e85787850151600019600388901b60f8161c191681555b5050505050600190811b01905550565b6020808252602c908201527f46756e6374696f6e206d7573742062652063616c6c6564207468726f7567682060408201526b19195b1959d85d1958d85b1b60a21b606082015260800190565b6020808252602c908201527f46756e6374696f6e206d7573742062652063616c6c6564207468726f7567682060408201526b6163746976652070726f787960a01b606082015260800190565b6000602082840312156152a257600080fd5b8151801515811461316357600080fd5b6020808252601590820152744e6f74206f776e6572206f722064656c656761746560581b604082015260600190565b60208082526025908201527f546865207472616e73616374696f6e2073686f756c646e2774206265206469736040820152641c1d5d195960da1b606082015260800190565b634e487b7160e01b600052601160045260246000fd5b8181038181111561476e5761476e615326565b602080825260129082015271105c989a5d1c985d1bdc881b9bdd081cd95d60721b604082015260600190565b6020808252604d908201527f446973707574652068617320616c7265616479206265656e206372656174656460408201527f206f72206265636175736520746865207472616e73616374696f6e206861732060608201526c1899595b88195e1958dd5d1959609a1b608082015260a00190565b600081546153fb81614d73565b808552602060018381168015615418576001811461543257615460565b60ff1985168884015283151560051b880183019550615460565b866000528260002060005b858110156154585781548a820186015290830190840161543d565b890184019650505b505050505092915050565b60208152600061316360208301846153ee565b8082018082111561476e5761476e615326565b60028110610422576104226147fd565b606081016154ae85615491565b8482526154ba84615491565b602082019390935260400152919050565b602081016154d883615491565b91905290565b82815260406020820152600061316060408301846153ee565b602081526000613163602083018461484b565b808202811582820484141761476e5761476e615326565b60008261553e57634e487b7160e01b600052601260045260246000fd5b500490565b8d8152602081018d9052604081018c90526001600160a01b038b81166060830152608082018b905260a082018a905260c0820189905261ffff88811660e08401528781166101008401528616610120830152841661014082015260006101a0806101608401526155b5818401866153ee565b915050826101808301529e9d5050505050505050505050505050565b85815260a081016155e186615491565b60208201959095526001600160a01b039390931660408401526060830191909152608090910152919050565b60ff8316815260406020820152600061316060408301846153ee565b61ffff818116838216019080821115610a2157610a21615326565b6020808252602b908201527f496e697469616c697a61626c653a20636f6e7472616374206973206e6f74206960408201526a6e697469616c697a696e6760a81b60608201526080019056fe360894a13ba1a3210667c828492db98dca3e2076cc3735a920a3ca505d382bbc73e533bc8a993eccbc1023beebad0020f6b6c3639f83062f00fc194b4d1172ba416464726573733a206c6f772d6c6576656c2064656c65676174652063616c6c206661696c6564a2646970667358221220a82118dbe55dcc512f0594b844b5128a8310015cab53245d6155458e2c32c60664736f6c63430008110033",
  "linkReferences": {},
  "deployedLinkReferences": {}
}