{
  "_format": "hh-sol-artifact-1",
  "contractName": "TalentLayerReview",
  "sourceName": "contracts/TalentLayerReview.sol",
  "abi": [
    {
      "inputs": [
        {
          "internalType": "string",
          "name": "name_",
          "type": "string"
        },
        {
          "internalType": "string",
          "name": "symbol_",
          "type": "string"
        },
        {
          "internalType": "address",
          "name": "_talentLayerIdAddress",
          "type": "address"
        },
        {
          "internalType": "address",
          "name": "_serviceRegistryAddress",
          "type": "address"
        },
        {
          "internalType": "address",
          "name": "_talentLayerPlatformIdAddress",
          "type": "address"
        }
      ],
      "stateMutability": "nonpayable",
      "type": "constructor"
    },
    {
      "inputs": [],
      "name": "ReviewAlreadyMinted",
      "type": "error"
    },
    {
      "anonymous": false,
      "inputs": [
        {
          "indexed": true,
          "internalType": "address",
          "name": "owner",
          "type": "address"
        },
        {
          "indexed": true,
          "internalType": "address",
          "name": "approved",
          "type": "address"
        },
        {
          "indexed": true,
          "internalType": "uint256",
          "name": "tokenId",
          "type": "uint256"
        }
      ],
      "name": "Approval",
      "type": "event"
    },
    {
      "anonymous": false,
      "inputs": [
        {
          "indexed": true,
          "internalType": "address",
          "name": "owner",
          "type": "address"
        },
        {
          "indexed": true,
          "internalType": "address",
          "name": "operator",
          "type": "address"
        },
        {
          "indexed": false,
          "internalType": "bool",
          "name": "approved",
          "type": "bool"
        }
      ],
      "name": "ApprovalForAll",
      "type": "event"
    },
    {
      "anonymous": false,
      "inputs": [
        {
          "indexed": true,
          "internalType": "uint256",
          "name": "_serviceId",
          "type": "uint256"
        },
        {
          "indexed": true,
          "internalType": "uint256",
          "name": "_toId",
          "type": "uint256"
        },
        {
          "indexed": true,
          "internalType": "uint256",
          "name": "_tokenId",
          "type": "uint256"
        },
        {
          "indexed": false,
          "internalType": "uint256",
          "name": "_rating",
          "type": "uint256"
        },
        {
          "indexed": false,
          "internalType": "string",
          "name": "_reviewUri",
          "type": "string"
        },
        {
          "indexed": false,
          "internalType": "uint256",
          "name": "_platformId",
          "type": "uint256"
        }
      ],
      "name": "Mint",
      "type": "event"
    },
    {
      "anonymous": false,
      "inputs": [
        {
          "indexed": true,
          "internalType": "address",
          "name": "from",
          "type": "address"
        },
        {
          "indexed": true,
          "internalType": "address",
          "name": "to",
          "type": "address"
        },
        {
          "indexed": true,
          "internalType": "uint256",
          "name": "tokenId",
          "type": "uint256"
        }
      ],
      "name": "Transfer",
      "type": "event"
    },
    {
      "inputs": [],
      "name": "_totalSupply",
      "outputs": [
        {
          "internalType": "uint256",
          "name": "",
          "type": "uint256"
        }
      ],
      "stateMutability": "view",
      "type": "function"
    },
    {
      "inputs": [
        {
          "internalType": "uint256",
          "name": "_serviceId",
          "type": "uint256"
        },
        {
          "internalType": "string",
          "name": "_reviewUri",
          "type": "string"
        },
        {
          "internalType": "uint256",
          "name": "_rating",
          "type": "uint256"
        },
        {
          "internalType": "uint256",
          "name": "_platformId",
          "type": "uint256"
        }
      ],
      "name": "addReview",
      "outputs": [],
      "stateMutability": "nonpayable",
      "type": "function"
    },
    {
      "inputs": [
        {
          "internalType": "address",
          "name": "to",
          "type": "address"
        },
        {
          "internalType": "uint256",
          "name": "tokenId",
          "type": "uint256"
        }
      ],
      "name": "approve",
      "outputs": [],
      "stateMutability": "nonpayable",
      "type": "function"
    },
    {
      "inputs": [
        {
          "internalType": "address",
          "name": "owner",
          "type": "address"
        }
      ],
      "name": "balanceOf",
      "outputs": [
        {
          "internalType": "uint256",
          "name": "",
          "type": "uint256"
        }
      ],
      "stateMutability": "view",
      "type": "function"
    },
    {
      "inputs": [
        {
          "internalType": "uint256",
          "name": "_tokenId",
          "type": "uint256"
        }
      ],
      "name": "getApproved",
      "outputs": [
        {
          "internalType": "address",
          "name": "",
          "type": "address"
        }
      ],
      "stateMutability": "view",
      "type": "function"
    },
    {
      "inputs": [
        {
          "internalType": "uint256",
          "name": "_reviewId",
          "type": "uint256"
        }
      ],
      "name": "getReview",
      "outputs": [
        {
          "components": [
            {
              "internalType": "uint256",
              "name": "id",
              "type": "uint256"
            },
            {
              "internalType": "uint256",
              "name": "owner",
              "type": "uint256"
            },
            {
              "internalType": "string",
              "name": "dataUri",
              "type": "string"
            },
            {
              "internalType": "uint256",
              "name": "platformId",
              "type": "uint256"
            }
          ],
          "internalType": "struct TalentLayerReview.Review",
          "name": "",
          "type": "tuple"
        }
      ],
      "stateMutability": "view",
      "type": "function"
    },
    {
      "inputs": [
        {
          "internalType": "address",
          "name": "owner",
          "type": "address"
        },
        {
          "internalType": "address",
          "name": "operator",
          "type": "address"
        }
      ],
      "name": "isApprovedForAll",
      "outputs": [
        {
          "internalType": "bool",
          "name": "",
          "type": "bool"
        }
      ],
      "stateMutability": "view",
      "type": "function"
    },
    {
      "inputs": [],
      "name": "name",
      "outputs": [
        {
          "internalType": "string",
          "name": "",
          "type": "string"
        }
      ],
      "stateMutability": "view",
      "type": "function"
    },
    {
      "inputs": [
        {
          "internalType": "uint256",
          "name": "",
          "type": "uint256"
        }
      ],
      "name": "nftMintedByServiceAndBuyerId",
      "outputs": [
        {
          "internalType": "uint256",
          "name": "",
          "type": "uint256"
        }
      ],
      "stateMutability": "view",
      "type": "function"
    },
    {
      "inputs": [
        {
          "internalType": "uint256",
          "name": "",
          "type": "uint256"
        }
      ],
      "name": "nftMintedByServiceAndSellerId",
      "outputs": [
        {
          "internalType": "uint256",
          "name": "",
          "type": "uint256"
        }
      ],
      "stateMutability": "view",
      "type": "function"
    },
    {
      "inputs": [
        {
          "internalType": "uint256",
          "name": "tokenId",
          "type": "uint256"
        }
      ],
      "name": "ownerOf",
      "outputs": [
        {
          "internalType": "address",
          "name": "",
          "type": "address"
        }
      ],
      "stateMutability": "view",
      "type": "function"
    },
    {
      "inputs": [
        {
          "internalType": "uint256",
          "name": "",
          "type": "uint256"
        }
      ],
      "name": "reviews",
      "outputs": [
        {
          "internalType": "uint256",
          "name": "id",
          "type": "uint256"
        },
        {
          "internalType": "uint256",
          "name": "owner",
          "type": "uint256"
        },
        {
          "internalType": "string",
          "name": "dataUri",
          "type": "string"
        },
        {
          "internalType": "uint256",
          "name": "platformId",
          "type": "uint256"
        }
      ],
      "stateMutability": "view",
      "type": "function"
    },
    {
      "inputs": [
        {
          "internalType": "address",
          "name": "from",
          "type": "address"
        },
        {
          "internalType": "address",
          "name": "to",
          "type": "address"
        },
        {
          "internalType": "uint256",
          "name": "tokenId",
          "type": "uint256"
        }
      ],
      "name": "safeTransferFrom",
      "outputs": [],
      "stateMutability": "nonpayable",
      "type": "function"
    },
    {
      "inputs": [
        {
          "internalType": "address",
          "name": "from",
          "type": "address"
        },
        {
          "internalType": "address",
          "name": "to",
          "type": "address"
        },
        {
          "internalType": "uint256",
          "name": "tokenId",
          "type": "uint256"
        },
        {
          "internalType": "bytes",
          "name": "data",
          "type": "bytes"
        }
      ],
      "name": "safeTransferFrom",
      "outputs": [],
      "stateMutability": "nonpayable",
      "type": "function"
    },
    {
      "inputs": [
        {
          "internalType": "address",
          "name": "operator",
          "type": "address"
        },
        {
          "internalType": "bool",
          "name": "approved",
          "type": "bool"
        }
      ],
      "name": "setApprovalForAll",
      "outputs": [],
      "stateMutability": "nonpayable",
      "type": "function"
    },
    {
      "inputs": [
        {
          "internalType": "bytes4",
          "name": "interfaceId",
          "type": "bytes4"
        }
      ],
      "name": "supportsInterface",
      "outputs": [
        {
          "internalType": "bool",
          "name": "",
          "type": "bool"
        }
      ],
      "stateMutability": "view",
      "type": "function"
    },
    {
      "inputs": [],
      "name": "symbol",
      "outputs": [
        {
          "internalType": "string",
          "name": "",
          "type": "string"
        }
      ],
      "stateMutability": "view",
      "type": "function"
    },
    {
      "inputs": [],
      "name": "talentLayerPlatformIdContract",
      "outputs": [
        {
          "internalType": "contract ITalentLayerPlatformID",
          "name": "",
          "type": "address"
        }
      ],
      "stateMutability": "view",
      "type": "function"
    },
    {
      "inputs": [
        {
          "internalType": "uint256",
          "name": "tokenId",
          "type": "uint256"
        }
      ],
      "name": "tokenURI",
      "outputs": [
        {
          "internalType": "string",
          "name": "",
          "type": "string"
        }
      ],
      "stateMutability": "view",
      "type": "function"
    },
    {
      "inputs": [
        {
          "internalType": "address",
          "name": "from",
          "type": "address"
        },
        {
          "internalType": "address",
          "name": "to",
          "type": "address"
        },
        {
          "internalType": "uint256",
          "name": "tokenId",
          "type": "uint256"
        }
      ],
      "name": "transferFrom",
      "outputs": [],
      "stateMutability": "nonpayable",
      "type": "function"
    }
  ],
  "bytecode": "0x608060405260006002553480156200001657600080fd5b5060405162001f1e38038062001f1e83398101604081905262000039916200023b565b84516200004e906000906020880190620000ab565b50835162000064906001906020870190620000ab565b50600980546001600160a01b039485166001600160a01b031991821617909155600a805493851693821693909317909255600b8054919093169116179055506200031a9050565b828054620000b990620002dd565b90600052602060002090601f016020900481019282620000dd576000855562000128565b82601f10620000f857805160ff191683800117855562000128565b8280016001018555821562000128579182015b82811115620001285782518255916020019190600101906200010b565b50620001369291506200013a565b5090565b5b808211156200013657600081556001016200013b565b634e487b7160e01b600052604160045260246000fd5b600082601f8301126200017957600080fd5b81516001600160401b038082111562000196576200019662000151565b604051601f8301601f19908116603f01168101908282118183101715620001c157620001c162000151565b81604052838152602092508683858801011115620001de57600080fd5b600091505b83821015620002025785820183015181830184015290820190620001e3565b83821115620002145760008385830101525b9695505050505050565b80516001600160a01b03811681146200023657600080fd5b919050565b600080600080600060a086880312156200025457600080fd5b85516001600160401b03808211156200026c57600080fd5b6200027a89838a0162000167565b965060208801519150808211156200029157600080fd5b50620002a08882890162000167565b945050620002b1604087016200021e565b9250620002c1606087016200021e565b9150620002d1608087016200021e565b90509295509295909350565b600181811c90821680620002f257607f821691505b602082108114156200031457634e487b7160e01b600052602260045260246000fd5b50919050565b611bf4806200032a6000396000f3fe608060405234801561001057600080fd5b506004361061012c5760003560e01c806370a08231116100ad578063c87b56dd11610071578063c87b56dd14610292578063e087f7d2146102a5578063e83ddcea146102c5578063e985e9c5146102e8578063f252ff3f1461032457600080fd5b806370a082311461023157806395d89b4114610244578063990581b61461024c578063a22cb4651461026c578063b88d4fde1461027f57600080fd5b806323b872dd116100f457806323b872dd146101c15780633c7b2760146101d45780633eaaf86b1461020257806342842e0e1461020b5780636352211e1461021e57600080fd5b806301ffc9a71461013157806306fdde0314610159578063081812fc1461016e578063095ea7b3146101995780631499f9e6146101ae575b600080fd5b61014461013f3660046113b0565b610337565b60405190151581526020015b60405180910390f35b610161610389565b604051610150919061142c565b61018161017c36600461143f565b61041b565b6040516001600160a01b039091168152602001610150565b6101ac6101a736600461146d565b610477565b005b600b54610181906001600160a01b031681565b6101ac6101cf366004611499565b6105aa565b6101f46101e236600461143f565b60066020526000908152604090205481565b604051908152602001610150565b6101f460025481565b6101ac610219366004611499565b6105d0565b61018161022c36600461143f565b6105eb565b6101f461023f3660046114da565b6106a3565b6101616107af565b61025f61025a36600461143f565b6107be565b60405161015091906114f7565b6101ac61027a36600461153d565b6108be565b6101ac61028d366004611614565b6108cd565b6101616102a036600461143f565b610905565b6101f46102b336600461143f565b60056020526000908152604090205481565b6102d86102d336600461143f565b610985565b60405161015094939291906116c3565b6101446102f63660046116f3565b6001600160a01b03918216600090815260086020908152604080832093909416825291909152205460ff1690565b6101ac610332366004611721565b610a36565b60006001600160e01b031982166380ac58cd60e01b148061036857506001600160e01b03198216635b5e139f60e01b145b8061038357506301ffc9a760e01b6001600160e01b03198316145b92915050565b606060008054610398906117ac565b80601f01602080910402602001604051908101604052809291908181526020018280546103c4906117ac565b80156104115780601f106103e657610100808354040283529160200191610411565b820191906000526020600020905b8154815290600101906020018083116103f457829003601f168201915b5050505050905090565b6000818152600760205260409020546001600160a01b03168161044c81600090815260036020526040902054151590565b6104715760405162461bcd60e51b8152600401610468906117e1565b60405180910390fd5b50919050565b6000610482826105eb565b9050806001600160a01b0316836001600160a01b031614156104fb5760405162461bcd60e51b815260206004820152602c60248201527f54616c656e744c617965725265766965773a20617070726f76616c20746f206360448201526b3ab93932b73a1037bbb732b960a11b6064820152608401610468565b336001600160a01b0382161480610517575061051781336102f6565b61059b5760405162461bcd60e51b815260206004820152604960248201527f54616c656e744c617965725265766965773a20617070726f76652063616c6c6560448201527f72206973206e6f7420746f6b656e206f776e6572206e6f7220617070726f76656064820152681908199bdc88185b1b60ba1b608482015260a401610468565b6105a58383610d1e565b505050565b6105b43382610d8c565b6105a55760405162461bcd60e51b815260040161046890611824565b6105a5838383604051806020016040528060008152506108cd565b6009546000828152600360205260408082205490516331a9108f60e11b81526004810191909152909182916001600160a01b0390911690636352211e9060240160206040518083038186803b15801561064357600080fd5b505afa158015610657573d6000803e3d6000fd5b505050506040513d601f19601f8201168201806040525081019061067b9190611881565b90506001600160a01b0381166103835760405162461bcd60e51b8152600401610468906117e1565b60006001600160a01b0382166107165760405162461bcd60e51b815260206004820152603260248201527f54616c656e744c617965725265766965773a20746f6b656e207a65726f206973604482015271103737ba1030903b30b634b21037bbb732b960711b6064820152608401610468565b60095460405162438b6360e81b81526001600160a01b038481166004808401919091529260009291169063438b63009060240160206040518083038186803b15801561076157600080fd5b505afa158015610775573d6000803e3d6000fd5b505050506040513d601f19601f82011682018060405250810190610799919061189e565b8152602001908152602001600020549050919050565b606060018054610398906117ac565b6107e96040518060800160405280600081526020016000815260200160608152602001600081525090565b60036000838152602001908152602001600020604051806080016040529081600082015481526020016001820154815260200160028201805461082b906117ac565b80601f0160208091040260200160405190810160405280929190818152602001828054610857906117ac565b80156108a45780601f10610879576101008083540402835291602001916108a4565b820191906000526020600020905b81548152906001019060200180831161088757829003601f168201915b505050505081526020016003820154815250509050919050565b6108c9338383610e0b565b5050565b6108d73383610d8c565b6108f35760405162461bcd60e51b815260040161046890611824565b6108ff84848484610ee6565b50505050565b606081600061091f60408051602081019091526000815290565b9050600081511161093f576040518060200160405280600081525061096a565b8061094985610f0e565b60405160200161095a9291906118b7565b6040516020818303038152906040525b92505061044c81600090815260036020526040902054151590565b600360205260009081526040902080546001820154600283018054929391926109ad906117ac565b80601f01602080910402602001604051908101604052809291908181526020018280546109d9906117ac565b8015610a265780601f106109fb57610100808354040283529160200191610a26565b820191906000526020600020905b815481529060010190602001808311610a0957829003601f168201915b5050505050908060030154905084565b600a5460405163ef0e239b60e01b8152600481018790526000916001600160a01b03169063ef0e239b9060240160006040518083038186803b158015610a7b57600080fd5b505afa158015610a8f573d6000803e3d6000fd5b505050506040513d6000823e601f3d908101601f19168201604052610ab7919081019061193f565b60095460405162438b6360e81b81523360048201529192506000916001600160a01b039091169063438b63009060240160206040518083038186803b158015610aff57600080fd5b505afa158015610b13573d6000803e3d6000fd5b505050506040513d601f19601f82011682018060405250810190610b37919061189e565b90508160200151811480610b4e5750816040015181145b610ba65760405162461bcd60e51b815260206004820152602360248201527f596f75277265206e6f7420616e206163746f72206f662074686973207365727660448201526269636560e81b6064820152608401610468565b600282516004811115610bbb57610bbb6119fd565b14610c085760405162461bcd60e51b815260206004820152601f60248201527f5468652073657276696365206973206e6f742066696e697368656420796574006044820152606401610468565b600b5460405162f577a560e81b8152600481018590526001600160a01b039091169063f577a5009060240160006040518083038186803b158015610c4b57600080fd5b505afa158015610c5f573d6000803e3d6000fd5b5050505060008260200151821415610cbd5750604080830151600089815260056020529190912054821415610ca757604051633d36d72960e01b815260040160405180910390fd5b6000888152600560205260409020829055610d06565b5060208083015160008981526006909252604090912054821415610cf457604051633d36d72960e01b815260040160405180910390fd5b60008881526006602052604090208290555b610d148882878a8a8961100c565b5050505050505050565b600081815260076020526040902080546001600160a01b0319166001600160a01b0384169081179091558190610d53826105eb565b6001600160a01b03167f8c5be1e5ebec7d5bd14f71427d1e84f3dd0314c0f7b2291e5b200ac8c7c3b92560405160405180910390a45050565b600080610d98836105eb565b9050806001600160a01b0316846001600160a01b03161480610ddf57506001600160a01b0380821660009081526008602090815260408083209388168352929052205460ff165b80610e035750836001600160a01b0316610df88461041b565b6001600160a01b0316145b949350505050565b816001600160a01b0316836001600160a01b03161415610e795760405162461bcd60e51b8152602060048201526024808201527f54616c656e744c617965725265766965773a20617070726f766520746f206361604482015263363632b960e11b6064820152608401610468565b6001600160a01b03838116600081815260086020908152604080832094871680845294825291829020805460ff191686151590811790915591519182527f17307eab39ab6107e8899845ad3d59bd9653f200f220920489ca2b5937696c31910160405180910390a3505050565b610ef2848484846111f1565b6108ff5760405162461bcd60e51b815260040161046890611a13565b606081610f325750506040805180820190915260018152600360fc1b602082015290565b8160005b8115610f5c5780610f4681611a86565b9150610f559050600a83611ab7565b9150610f36565b60008167ffffffffffffffff811115610f7757610f7761157b565b6040519080825280601f01601f191660200182016040528015610fa1576020820181803683370190505b5090505b8415610e0357610fb6600183611acb565b9150610fc3600a86611ae2565b610fce906030611af6565b60f81b818381518110610fe357610fe3611b0e565b60200101906001600160f81b031916908160001a905350611005600a86611ab7565b9450610fa5565b8461106c5760405162461bcd60e51b815260206004820152602a60248201527f54616c656e744c617965725265766965773a206d696e7420746f20696e76616c6044820152696964206164647265737360b01b6064820152608401610468565b6005841115801561107b575060015b6110d15760405162461bcd60e51b815260206004820152602160248201527f54616c656e744c617965725265766965773a20696e76616c696420726174696e6044820152606760f81b6064820152608401610468565b60008581526004602052604081208054600192906110f0908490611af6565b925050819055506040518060800160405280600254815260200186815260200184848080601f016020809104026020016040519081016040528093929190818152602001838380828437600092018290525093855250505060209182018490526002805482526003835260409182902084518155848401516001820155918401518051929361118593928501929101906112fe565b50606091909101516003909101556002546111a1906001611af6565b60028190555060025485877f1b4914b51c47432f333179cfae2f82cfeac795eb91cfac40a3e82e180748f2f5878787876040516111e19493929190611b24565b60405180910390a4505050505050565b60006001600160a01b0384163b156112f357604051630a85bd0160e11b81526001600160a01b0385169063150b7a0290611235903390899088908890600401611b64565b602060405180830381600087803b15801561124f57600080fd5b505af192505050801561127f575060408051601f3d908101601f1916820190925261127c91810190611ba1565b60015b6112d9573d8080156112ad576040519150601f19603f3d011682016040523d82523d6000602084013e6112b2565b606091505b5080516112d15760405162461bcd60e51b815260040161046890611a13565b805181602001fd5b6001600160e01b031916630a85bd0160e11b149050610e03565b506001949350505050565b82805461130a906117ac565b90600052602060002090601f01602090048101928261132c5760008555611372565b82601f1061134557805160ff1916838001178555611372565b82800160010185558215611372579182015b82811115611372578251825591602001919060010190611357565b5061137e929150611382565b5090565b5b8082111561137e5760008155600101611383565b6001600160e01b0319811681146113ad57600080fd5b50565b6000602082840312156113c257600080fd5b81356113cd81611397565b9392505050565b60005b838110156113ef5781810151838201526020016113d7565b838111156108ff5750506000910152565b600081518084526114188160208601602086016113d4565b601f01601f19169290920160200192915050565b6020815260006113cd6020830184611400565b60006020828403121561145157600080fd5b5035919050565b6001600160a01b03811681146113ad57600080fd5b6000806040838503121561148057600080fd5b823561148b81611458565b946020939093013593505050565b6000806000606084860312156114ae57600080fd5b83356114b981611458565b925060208401356114c981611458565b929592945050506040919091013590565b6000602082840312156114ec57600080fd5b81356113cd81611458565b602081528151602082015260208201516040820152600060408301516080606084015261152760a0840182611400565b9050606084015160808401528091505092915050565b6000806040838503121561155057600080fd5b823561155b81611458565b91506020830135801515811461157057600080fd5b809150509250929050565b634e487b7160e01b600052604160045260246000fd5b604051610100810167ffffffffffffffff811182821017156115b5576115b561157b565b60405290565b604051601f8201601f1916810167ffffffffffffffff811182821017156115e4576115e461157b565b604052919050565b600067ffffffffffffffff8211156116065761160661157b565b50601f01601f191660200190565b6000806000806080858703121561162a57600080fd5b843561163581611458565b9350602085013561164581611458565b925060408501359150606085013567ffffffffffffffff81111561166857600080fd5b8501601f8101871361167957600080fd5b803561168c611687826115ec565b6115bb565b8181528860208385010111156116a157600080fd5b8160208401602083013760006020838301015280935050505092959194509250565b8481528360208201526080604082015260006116e26080830185611400565b905082606083015295945050505050565b6000806040838503121561170657600080fd5b823561171181611458565b9150602083013561157081611458565b60008060008060006080868803121561173957600080fd5b85359450602086013567ffffffffffffffff8082111561175857600080fd5b818801915088601f83011261176c57600080fd5b81358181111561177b57600080fd5b89602082850101111561178d57600080fd5b9699602092909201985095966040810135965060600135945092505050565b600181811c908216806117c057607f821691505b6020821081141561047157634e487b7160e01b600052602260045260246000fd5b60208082526023908201527f54616c656e744c617965725265766965773a20696e76616c696420746f6b656e60408201526208125160ea1b606082015260800190565b60208082526039908201527f54616c656e744c617965725265766965773a2063616c6c6572206973206e6f7460408201527f20746f6b656e206f776e6572206e6f7220617070726f76656400000000000000606082015260800190565b60006020828403121561189357600080fd5b81516113cd81611458565b6000602082840312156118b057600080fd5b5051919050565b600083516118c98184602088016113d4565b8351908301906118dd8183602088016113d4565b01949350505050565b8051600581106118f557600080fd5b919050565b600082601f83011261190b57600080fd5b8151611919611687826115ec565b81815284602083860101111561192e57600080fd5b610e038260208301602087016113d4565b60006020828403121561195157600080fd5b815167ffffffffffffffff8082111561196957600080fd5b90830190610100828603121561197e57600080fd5b611986611591565b61198f836118e6565b81526020830151602082015260408301516040820152606083015160608201526080830151828111156119c157600080fd5b6119cd878286016118fa565b60808301525060a083015160a082015260c083015160c082015260e083015160e082015280935050505092915050565b634e487b7160e01b600052602160045260246000fd5b6020808252603d908201527f54616c656e744c617965725265766965773a207472616e7366657220746f206e60408201527f6f6e20455243373231526563656976657220696d706c656d656e746572000000606082015260800190565b634e487b7160e01b600052601160045260246000fd5b6000600019821415611a9a57611a9a611a70565b5060010190565b634e487b7160e01b600052601260045260246000fd5b600082611ac657611ac6611aa1565b500490565b600082821015611add57611add611a70565b500390565b600082611af157611af1611aa1565b500690565b60008219821115611b0957611b09611a70565b500190565b634e487b7160e01b600052603260045260246000fd5b848152606060208201528260608201528284608083013760006080848301015260006080601f19601f860116830101905082604083015295945050505050565b6001600160a01b0385811682528416602082015260408101839052608060608201819052600090611b9790830184611400565b9695505050505050565b600060208284031215611bb357600080fd5b81516113cd8161139756fea26469706673582212207bd56ab39d45d59f41dd7bd6df2e46a4ba2cfbf8b9c805d22e12fbabe934de1564736f6c63430008090033",
  "linkReferences": {},
  "deployedLinkReferences": {}
}