{
  "_format": "hh-sol-artifact-1",
  "contractName": "TalentLayerPlatformID",
  "sourceName": "contracts/TalentLayerPlatformID.sol",
  "abi": [
    {
      "inputs": [],
      "stateMutability": "nonpayable",
      "type": "constructor"
    },
    {
      "inputs": [],
      "name": "HandleContainsInvalidCharacters",
      "type": "error"
    },
    {
      "inputs": [],
      "name": "HandleFirstCharInvalid",
      "type": "error"
    },
    {
      "inputs": [],
      "name": "HandleLengthInvalid",
      "type": "error"
    },
    {
      "anonymous": false,
      "inputs": [
        {
          "indexed": false,
          "internalType": "address",
          "name": "previousAdmin",
          "type": "address"
        },
        {
          "indexed": false,
          "internalType": "address",
          "name": "newAdmin",
          "type": "address"
        }
      ],
      "name": "AdminChanged",
      "type": "event"
    },
    {
      "anonymous": false,
      "inputs": [
        {
          "indexed": true,
          "internalType": "address",
          "name": "owner",
          "type": "address"
        },
        {
          "indexed": true,
          "internalType": "address",
          "name": "approved",
          "type": "address"
        },
        {
          "indexed": true,
          "internalType": "uint256",
          "name": "tokenId",
          "type": "uint256"
        }
      ],
      "name": "Approval",
      "type": "event"
    },
    {
      "anonymous": false,
      "inputs": [
        {
          "indexed": true,
          "internalType": "address",
          "name": "owner",
          "type": "address"
        },
        {
          "indexed": true,
          "internalType": "address",
          "name": "operator",
          "type": "address"
        },
        {
          "indexed": false,
          "internalType": "bool",
          "name": "approved",
          "type": "bool"
        }
      ],
      "name": "ApprovalForAll",
      "type": "event"
    },
    {
      "anonymous": false,
      "inputs": [
        {
          "indexed": false,
          "internalType": "uint256",
          "name": "_platformId",
          "type": "uint256"
        },
        {
          "indexed": false,
          "internalType": "uint256",
          "name": "_arbitrationFeeTimeout",
          "type": "uint256"
        }
      ],
      "name": "ArbitrationFeeTimeoutUpdated",
      "type": "event"
    },
    {
      "anonymous": false,
      "inputs": [
        {
          "indexed": false,
          "internalType": "uint256",
          "name": "_platformId",
          "type": "uint256"
        },
        {
          "indexed": false,
          "internalType": "contract Arbitrator",
          "name": "_arbitrator",
          "type": "address"
        },
        {
          "indexed": false,
          "internalType": "bytes",
          "name": "_extraData",
          "type": "bytes"
        }
      ],
      "name": "ArbitratorUpdated",
      "type": "event"
    },
    {
      "anonymous": false,
      "inputs": [
        {
          "indexed": true,
          "internalType": "address",
          "name": "beacon",
          "type": "address"
        }
      ],
      "name": "BeaconUpgraded",
      "type": "event"
    },
    {
      "anonymous": false,
      "inputs": [
        {
          "indexed": true,
          "internalType": "uint256",
          "name": "_platformId",
          "type": "uint256"
        },
        {
          "indexed": false,
          "internalType": "string",
          "name": "_newCid",
          "type": "string"
        }
      ],
      "name": "CidUpdated",
      "type": "event"
    },
    {
      "anonymous": false,
      "inputs": [
        {
          "indexed": false,
          "internalType": "uint8",
          "name": "version",
          "type": "uint8"
        }
      ],
      "name": "Initialized",
      "type": "event"
    },
    {
      "anonymous": false,
      "inputs": [
        {
          "indexed": false,
          "internalType": "uint256",
          "name": "_minArbitrationFeeTimeout",
          "type": "uint256"
        }
      ],
      "name": "MinArbitrationFeeTimeoutUpdated",
      "type": "event"
    },
    {
      "anonymous": false,
      "inputs": [
        {
          "indexed": true,
          "internalType": "address",
          "name": "_platformOwnerAddress",
          "type": "address"
        },
        {
          "indexed": false,
          "internalType": "uint256",
          "name": "_platformId",
          "type": "uint256"
        },
        {
          "indexed": false,
          "internalType": "string",
          "name": "_platformName",
          "type": "string"
        },
        {
          "indexed": false,
          "internalType": "uint256",
          "name": "_fee",
          "type": "uint256"
        },
        {
          "indexed": false,
          "internalType": "uint256",
          "name": "_arbitrationFeeTimeout",
          "type": "uint256"
        }
      ],
      "name": "Mint",
      "type": "event"
    },
    {
      "anonymous": false,
      "inputs": [
        {
          "indexed": false,
          "internalType": "uint256",
          "name": "_mintFee",
          "type": "uint256"
        }
      ],
      "name": "MintFeeUpdated",
      "type": "event"
    },
    {
      "anonymous": false,
      "inputs": [
        {
          "indexed": false,
          "internalType": "enum TalentLayerPlatformID.MintStatus",
          "name": "_mintStatus",
          "type": "uint8"
        }
      ],
      "name": "MintStatusUpdated",
      "type": "event"
    },
    {
      "anonymous": false,
      "inputs": [
        {
          "indexed": false,
          "internalType": "uint256",
          "name": "_platformId",
          "type": "uint256"
        },
        {
          "indexed": false,
          "internalType": "uint16",
          "name": "_originServiceFeeRate",
          "type": "uint16"
        }
      ],
      "name": "OriginServiceFeeRateUpdated",
      "type": "event"
    },
    {
      "anonymous": false,
      "inputs": [
        {
          "indexed": false,
          "internalType": "uint256",
          "name": "_platformId",
          "type": "uint256"
        },
        {
          "indexed": false,
          "internalType": "uint16",
          "name": "_originValidatedProposalFeeRate",
          "type": "uint16"
        }
      ],
      "name": "OriginValidatedProposalFeeRateUpdated",
      "type": "event"
    },
    {
      "anonymous": false,
      "inputs": [
        {
          "indexed": false,
          "internalType": "uint256",
          "name": "_platformId",
          "type": "uint256"
        },
        {
          "indexed": false,
          "internalType": "uint256",
          "name": "_proposalPostingFee",
          "type": "uint256"
        }
      ],
      "name": "ProposalPostingFeeUpdated",
      "type": "event"
    },
    {
      "anonymous": false,
      "inputs": [
        {
          "indexed": true,
          "internalType": "bytes32",
          "name": "role",
          "type": "bytes32"
        },
        {
          "indexed": true,
          "internalType": "bytes32",
          "name": "previousAdminRole",
          "type": "bytes32"
        },
        {
          "indexed": true,
          "internalType": "bytes32",
          "name": "newAdminRole",
          "type": "bytes32"
        }
      ],
      "name": "RoleAdminChanged",
      "type": "event"
    },
    {
      "anonymous": false,
      "inputs": [
        {
          "indexed": true,
          "internalType": "bytes32",
          "name": "role",
          "type": "bytes32"
        },
        {
          "indexed": true,
          "internalType": "address",
          "name": "account",
          "type": "address"
        },
        {
          "indexed": true,
          "internalType": "address",
          "name": "sender",
          "type": "address"
        }
      ],
      "name": "RoleGranted",
      "type": "event"
    },
    {
      "anonymous": false,
      "inputs": [
        {
          "indexed": true,
          "internalType": "bytes32",
          "name": "role",
          "type": "bytes32"
        },
        {
          "indexed": true,
          "internalType": "address",
          "name": "account",
          "type": "address"
        },
        {
          "indexed": true,
          "internalType": "address",
          "name": "sender",
          "type": "address"
        }
      ],
      "name": "RoleRevoked",
      "type": "event"
    },
    {
      "anonymous": false,
      "inputs": [
        {
          "indexed": false,
          "internalType": "uint256",
          "name": "_platformId",
          "type": "uint256"
        },
        {
          "indexed": false,
          "internalType": "uint256",
          "name": "_servicePostingFee",
          "type": "uint256"
        }
      ],
      "name": "ServicePostingFeeUpdated",
      "type": "event"
    },
    {
      "anonymous": false,
      "inputs": [
        {
          "indexed": true,
          "internalType": "address",
          "name": "from",
          "type": "address"
        },
        {
          "indexed": true,
          "internalType": "address",
          "name": "to",
          "type": "address"
        },
        {
          "indexed": true,
          "internalType": "uint256",
          "name": "tokenId",
          "type": "uint256"
        }
      ],
      "name": "Transfer",
      "type": "event"
    },
    {
      "anonymous": false,
      "inputs": [
        {
          "indexed": true,
          "internalType": "address",
          "name": "implementation",
          "type": "address"
        }
      ],
      "name": "Upgraded",
      "type": "event"
    },
    {
      "anonymous": false,
      "inputs": [
        {
          "indexed": true,
          "internalType": "address",
          "name": "_user",
          "type": "address"
        }
      ],
      "name": "UserWhitelisted",
      "type": "event"
    },
    {
      "inputs": [],
      "name": "DEFAULT_ADMIN_ROLE",
      "outputs": [
        {
          "internalType": "bytes32",
          "name": "",
          "type": "bytes32"
        }
      ],
      "stateMutability": "view",
      "type": "function"
    },
    {
      "inputs": [],
      "name": "MINT_ROLE",
      "outputs": [
        {
          "internalType": "bytes32",
          "name": "",
          "type": "bytes32"
        }
      ],
      "stateMutability": "view",
      "type": "function"
    },
    {
      "inputs": [],
      "name": "OWNER_ROLE",
      "outputs": [
        {
          "internalType": "bytes32",
          "name": "",
          "type": "bytes32"
        }
      ],
      "stateMutability": "view",
      "type": "function"
    },
    {
      "inputs": [
        {
          "internalType": "address",
          "name": "_arbitrator",
          "type": "address"
        },
        {
          "internalType": "bool",
          "name": "_isInternal",
          "type": "bool"
        }
      ],
      "name": "addArbitrator",
      "outputs": [],
      "stateMutability": "nonpayable",
      "type": "function"
    },
    {
      "inputs": [
        {
          "internalType": "address",
          "name": "to",
          "type": "address"
        },
        {
          "internalType": "uint256",
          "name": "tokenId",
          "type": "uint256"
        }
      ],
      "name": "approve",
      "outputs": [],
      "stateMutability": "nonpayable",
      "type": "function"
    },
    {
      "inputs": [
        {
          "internalType": "address",
          "name": "owner",
          "type": "address"
        }
      ],
      "name": "balanceOf",
      "outputs": [
        {
          "internalType": "uint256",
          "name": "",
          "type": "uint256"
        }
      ],
      "stateMutability": "view",
      "type": "function"
    },
    {
      "inputs": [
        {
          "internalType": "uint256",
          "name": "tokenId",
          "type": "uint256"
        }
      ],
      "name": "getApproved",
      "outputs": [
        {
          "internalType": "address",
          "name": "",
          "type": "address"
        }
      ],
      "stateMutability": "view",
      "type": "function"
    },
    {
      "inputs": [
        {
          "internalType": "uint256",
          "name": "_platformId",
          "type": "uint256"
        }
      ],
      "name": "getOriginServiceFeeRate",
      "outputs": [
        {
          "internalType": "uint16",
          "name": "",
          "type": "uint16"
        }
      ],
      "stateMutability": "view",
      "type": "function"
    },
    {
      "inputs": [
        {
          "internalType": "uint256",
          "name": "_platformId",
          "type": "uint256"
        }
      ],
      "name": "getOriginValidatedProposalFeeRate",
      "outputs": [
        {
          "internalType": "uint16",
          "name": "",
          "type": "uint16"
        }
      ],
      "stateMutability": "view",
      "type": "function"
    },
    {
      "inputs": [
        {
          "internalType": "uint256",
          "name": "_platformId",
          "type": "uint256"
        }
      ],
      "name": "getPlatform",
      "outputs": [
        {
          "components": [
            {
              "internalType": "uint256",
              "name": "id",
              "type": "uint256"
            },
            {
              "internalType": "string",
              "name": "name",
              "type": "string"
            },
            {
              "internalType": "string",
              "name": "dataUri",
              "type": "string"
            },
            {
              "internalType": "uint16",
              "name": "originServiceFeeRate",
              "type": "uint16"
            },
            {
              "internalType": "uint16",
              "name": "originValidatedProposalFeeRate",
              "type": "uint16"
            },
            {
              "internalType": "uint256",
              "name": "servicePostingFee",
              "type": "uint256"
            },
            {
              "internalType": "uint256",
              "name": "proposalPostingFee",
              "type": "uint256"
            },
            {
              "internalType": "contract Arbitrator",
              "name": "arbitrator",
              "type": "address"
            },
            {
              "internalType": "bytes",
              "name": "arbitratorExtraData",
              "type": "bytes"
            },
            {
              "internalType": "uint256",
              "name": "arbitrationFeeTimeout",
              "type": "uint256"
            }
          ],
          "internalType": "struct TalentLayerPlatformID.Platform",
          "name": "",
          "type": "tuple"
        }
      ],
      "stateMutability": "view",
      "type": "function"
    },
    {
      "inputs": [
        {
          "internalType": "uint256",
          "name": "_platformId",
          "type": "uint256"
        }
      ],
      "name": "getProposalPostingFee",
      "outputs": [
        {
          "internalType": "uint256",
          "name": "",
          "type": "uint256"
        }
      ],
      "stateMutability": "view",
      "type": "function"
    },
    {
      "inputs": [
        {
          "internalType": "bytes32",
          "name": "role",
          "type": "bytes32"
        }
      ],
      "name": "getRoleAdmin",
      "outputs": [
        {
          "internalType": "bytes32",
          "name": "",
          "type": "bytes32"
        }
      ],
      "stateMutability": "view",
      "type": "function"
    },
    {
      "inputs": [
        {
          "internalType": "uint256",
          "name": "_platformId",
          "type": "uint256"
        }
      ],
      "name": "getServicePostingFee",
      "outputs": [
        {
          "internalType": "uint256",
          "name": "",
          "type": "uint256"
        }
      ],
      "stateMutability": "view",
      "type": "function"
    },
    {
      "inputs": [
        {
          "internalType": "bytes32",
          "name": "role",
          "type": "bytes32"
        },
        {
          "internalType": "address",
          "name": "account",
          "type": "address"
        }
      ],
      "name": "grantRole",
      "outputs": [],
      "stateMutability": "nonpayable",
      "type": "function"
    },
    {
      "inputs": [
        {
          "internalType": "bytes32",
          "name": "role",
          "type": "bytes32"
        },
        {
          "internalType": "address",
          "name": "account",
          "type": "address"
        }
      ],
      "name": "hasRole",
      "outputs": [
        {
          "internalType": "bool",
          "name": "",
          "type": "bool"
        }
      ],
      "stateMutability": "view",
      "type": "function"
    },
    {
      "inputs": [
        {
          "internalType": "address",
          "name": "",
          "type": "address"
        }
      ],
      "name": "ids",
      "outputs": [
        {
          "internalType": "uint256",
          "name": "",
          "type": "uint256"
        }
      ],
      "stateMutability": "view",
      "type": "function"
    },
    {
      "inputs": [],
      "name": "initialize",
      "outputs": [],
      "stateMutability": "nonpayable",
      "type": "function"
    },
    {
      "inputs": [
        {
          "internalType": "address",
          "name": "",
          "type": "address"
        }
      ],
      "name": "internalArbitrators",
      "outputs": [
        {
          "internalType": "bool",
          "name": "",
          "type": "bool"
        }
      ],
      "stateMutability": "view",
      "type": "function"
    },
    {
      "inputs": [
        {
          "internalType": "address",
          "name": "owner",
          "type": "address"
        },
        {
          "internalType": "address",
          "name": "operator",
          "type": "address"
        }
      ],
      "name": "isApprovedForAll",
      "outputs": [
        {
          "internalType": "bool",
          "name": "",
          "type": "bool"
        }
      ],
      "stateMutability": "view",
      "type": "function"
    },
    {
      "inputs": [
        {
          "internalType": "uint256",
          "name": "_platformId",
          "type": "uint256"
        }
      ],
      "name": "isValid",
      "outputs": [],
      "stateMutability": "view",
      "type": "function"
    },
    {
      "inputs": [],
      "name": "minArbitrationFeeTimeout",
      "outputs": [
        {
          "internalType": "uint256",
          "name": "",
          "type": "uint256"
        }
      ],
      "stateMutability": "view",
      "type": "function"
    },
    {
      "inputs": [
        {
          "internalType": "string",
          "name": "_platformName",
          "type": "string"
        }
      ],
      "name": "mint",
      "outputs": [
        {
          "internalType": "uint256",
          "name": "",
          "type": "uint256"
        }
      ],
      "stateMutability": "payable",
      "type": "function"
    },
    {
      "inputs": [],
      "name": "mintFee",
      "outputs": [
        {
          "internalType": "uint256",
          "name": "",
          "type": "uint256"
        }
      ],
      "stateMutability": "view",
      "type": "function"
    },
    {
      "inputs": [
        {
          "internalType": "string",
          "name": "_platformName",
          "type": "string"
        },
        {
          "internalType": "address",
          "name": "_platformAddress",
          "type": "address"
        }
      ],
      "name": "mintForAddress",
      "outputs": [
        {
          "internalType": "uint256",
          "name": "",
          "type": "uint256"
        }
      ],
      "stateMutability": "payable",
      "type": "function"
    },
    {
      "inputs": [],
      "name": "mintStatus",
      "outputs": [
        {
          "internalType": "enum TalentLayerPlatformID.MintStatus",
          "name": "",
          "type": "uint8"
        }
      ],
      "stateMutability": "view",
      "type": "function"
    },
    {
      "inputs": [],
      "name": "name",
      "outputs": [
        {
          "internalType": "string",
          "name": "",
          "type": "string"
        }
      ],
      "stateMutability": "view",
      "type": "function"
    },
    {
      "inputs": [
        {
          "internalType": "address",
          "name": "_platformAddress",
          "type": "address"
        }
      ],
      "name": "numberMinted",
      "outputs": [
        {
          "internalType": "uint256",
          "name": "",
          "type": "uint256"
        }
      ],
      "stateMutability": "view",
      "type": "function"
    },
    {
      "inputs": [
        {
          "internalType": "uint256",
          "name": "tokenId",
          "type": "uint256"
        }
      ],
      "name": "ownerOf",
      "outputs": [
        {
          "internalType": "address",
          "name": "",
          "type": "address"
        }
      ],
      "stateMutability": "view",
      "type": "function"
    },
    {
      "inputs": [
        {
          "internalType": "uint256",
          "name": "",
          "type": "uint256"
        }
      ],
      "name": "platforms",
      "outputs": [
        {
          "internalType": "uint256",
          "name": "id",
          "type": "uint256"
        },
        {
          "internalType": "string",
          "name": "name",
          "type": "string"
        },
        {
          "internalType": "string",
          "name": "dataUri",
          "type": "string"
        },
        {
          "internalType": "uint16",
          "name": "originServiceFeeRate",
          "type": "uint16"
        },
        {
          "internalType": "uint16",
          "name": "originValidatedProposalFeeRate",
          "type": "uint16"
        },
        {
          "internalType": "uint256",
          "name": "servicePostingFee",
          "type": "uint256"
        },
        {
          "internalType": "uint256",
          "name": "proposalPostingFee",
          "type": "uint256"
        },
        {
          "internalType": "contract Arbitrator",
          "name": "arbitrator",
          "type": "address"
        },
        {
          "internalType": "bytes",
          "name": "arbitratorExtraData",
          "type": "bytes"
        },
        {
          "internalType": "uint256",
          "name": "arbitrationFeeTimeout",
          "type": "uint256"
        }
      ],
      "stateMutability": "view",
      "type": "function"
    },
    {
      "inputs": [],
      "name": "proxiableUUID",
      "outputs": [
        {
          "internalType": "bytes32",
          "name": "",
          "type": "bytes32"
        }
      ],
      "stateMutability": "view",
      "type": "function"
    },
    {
      "inputs": [
        {
          "internalType": "address",
          "name": "_arbitrator",
          "type": "address"
        }
      ],
      "name": "removeArbitrator",
      "outputs": [],
      "stateMutability": "nonpayable",
      "type": "function"
    },
    {
      "inputs": [
        {
          "internalType": "bytes32",
          "name": "role",
          "type": "bytes32"
        },
        {
          "internalType": "address",
          "name": "account",
          "type": "address"
        }
      ],
      "name": "renounceRole",
      "outputs": [],
      "stateMutability": "nonpayable",
      "type": "function"
    },
    {
      "inputs": [
        {
          "internalType": "bytes32",
          "name": "role",
          "type": "bytes32"
        },
        {
          "internalType": "address",
          "name": "account",
          "type": "address"
        }
      ],
      "name": "revokeRole",
      "outputs": [],
      "stateMutability": "nonpayable",
      "type": "function"
    },
    {
      "inputs": [
        {
          "internalType": "address",
          "name": "",
          "type": "address"
        },
        {
          "internalType": "address",
          "name": "",
          "type": "address"
        },
        {
          "internalType": "uint256",
          "name": "",
          "type": "uint256"
        }
      ],
      "name": "safeTransferFrom",
      "outputs": [],
      "stateMutability": "nonpayable",
      "type": "function"
    },
    {
      "inputs": [
        {
          "internalType": "address",
          "name": "",
          "type": "address"
        },
        {
          "internalType": "address",
          "name": "",
          "type": "address"
        },
        {
          "internalType": "uint256",
          "name": "",
          "type": "uint256"
        },
        {
          "internalType": "bytes",
          "name": "",
          "type": "bytes"
        }
      ],
      "name": "safeTransferFrom",
      "outputs": [],
      "stateMutability": "nonpayable",
      "type": "function"
    },
    {
      "inputs": [
        {
          "internalType": "address",
          "name": "operator",
          "type": "address"
        },
        {
          "internalType": "bool",
          "name": "approved",
          "type": "bool"
        }
      ],
      "name": "setApprovalForAll",
      "outputs": [],
      "stateMutability": "nonpayable",
      "type": "function"
    },
    {
      "inputs": [
        {
          "internalType": "bytes4",
          "name": "interfaceId",
          "type": "bytes4"
        }
      ],
      "name": "supportsInterface",
      "outputs": [
        {
          "internalType": "bool",
          "name": "",
          "type": "bool"
        }
      ],
      "stateMutability": "view",
      "type": "function"
    },
    {
      "inputs": [],
      "name": "symbol",
      "outputs": [
        {
          "internalType": "string",
          "name": "",
          "type": "string"
        }
      ],
      "stateMutability": "view",
      "type": "function"
    },
    {
      "inputs": [
        {
          "internalType": "string",
          "name": "",
          "type": "string"
        }
      ],
      "name": "takenNames",
      "outputs": [
        {
          "internalType": "bool",
          "name": "",
          "type": "bool"
        }
      ],
      "stateMutability": "view",
      "type": "function"
    },
    {
      "inputs": [
        {
          "internalType": "uint256",
          "name": "tokenId",
          "type": "uint256"
        }
      ],
      "name": "tokenURI",
      "outputs": [
        {
          "internalType": "string",
          "name": "",
          "type": "string"
        }
      ],
      "stateMutability": "view",
      "type": "function"
    },
    {
      "inputs": [],
      "name": "totalSupply",
      "outputs": [
        {
          "internalType": "uint256",
          "name": "",
          "type": "uint256"
        }
      ],
      "stateMutability": "view",
      "type": "function"
    },
    {
      "inputs": [
        {
          "internalType": "address",
          "name": "",
          "type": "address"
        },
        {
          "internalType": "address",
          "name": "",
          "type": "address"
        },
        {
          "internalType": "uint256",
          "name": "",
          "type": "uint256"
        }
      ],
      "name": "transferFrom",
      "outputs": [],
      "stateMutability": "nonpayable",
      "type": "function"
    },
    {
      "inputs": [
        {
          "internalType": "uint256",
          "name": "_platformId",
          "type": "uint256"
        },
        {
          "internalType": "uint256",
          "name": "_arbitrationFeeTimeout",
          "type": "uint256"
        }
      ],
      "name": "updateArbitrationFeeTimeout",
      "outputs": [],
      "stateMutability": "nonpayable",
      "type": "function"
    },
    {
      "inputs": [
        {
          "internalType": "uint256",
          "name": "_platformId",
          "type": "uint256"
        },
        {
          "internalType": "contract Arbitrator",
          "name": "_arbitrator",
          "type": "address"
        },
        {
          "internalType": "bytes",
          "name": "_extraData",
          "type": "bytes"
        }
      ],
      "name": "updateArbitrator",
      "outputs": [],
      "stateMutability": "nonpayable",
      "type": "function"
    },
    {
      "inputs": [
        {
          "internalType": "uint256",
          "name": "_minArbitrationFeeTimeout",
          "type": "uint256"
        }
      ],
      "name": "updateMinArbitrationFeeTimeout",
      "outputs": [],
      "stateMutability": "nonpayable",
      "type": "function"
    },
    {
      "inputs": [
        {
          "internalType": "uint256",
          "name": "_mintFee",
          "type": "uint256"
        }
      ],
      "name": "updateMintFee",
      "outputs": [],
      "stateMutability": "nonpayable",
      "type": "function"
    },
    {
      "inputs": [
        {
          "internalType": "enum TalentLayerPlatformID.MintStatus",
          "name": "_mintStatus",
          "type": "uint8"
        }
      ],
      "name": "updateMintStatus",
      "outputs": [],
      "stateMutability": "nonpayable",
      "type": "function"
    },
    {
      "inputs": [
        {
          "internalType": "uint256",
          "name": "_platformId",
          "type": "uint256"
        },
        {
          "internalType": "uint16",
          "name": "_originServiceFeeRate",
          "type": "uint16"
        }
      ],
      "name": "updateOriginServiceFeeRate",
      "outputs": [],
      "stateMutability": "nonpayable",
      "type": "function"
    },
    {
      "inputs": [
        {
          "internalType": "uint256",
          "name": "_platformId",
          "type": "uint256"
        },
        {
          "internalType": "uint16",
          "name": "_originValidatedProposalFeeRate",
          "type": "uint16"
        }
      ],
      "name": "updateOriginValidatedProposalFeeRate",
      "outputs": [],
      "stateMutability": "nonpayable",
      "type": "function"
    },
    {
      "inputs": [
        {
          "internalType": "uint256",
          "name": "_platformId",
          "type": "uint256"
        },
        {
          "internalType": "string",
          "name": "_newCid",
          "type": "string"
        }
      ],
      "name": "updateProfileData",
      "outputs": [],
      "stateMutability": "nonpayable",
      "type": "function"
    },
    {
      "inputs": [
        {
          "internalType": "uint256",
          "name": "_platformId",
          "type": "uint256"
        },
        {
          "internalType": "uint256",
          "name": "_proposalPostingFee",
          "type": "uint256"
        }
      ],
      "name": "updateProposalPostingFee",
      "outputs": [],
      "stateMutability": "nonpayable",
      "type": "function"
    },
    {
      "inputs": [
        {
          "internalType": "uint256",
          "name": "_platformId",
          "type": "uint256"
        },
        {
          "internalType": "uint256",
          "name": "_servicePostingFee",
          "type": "uint256"
        }
      ],
      "name": "updateServicePostingFee",
      "outputs": [],
      "stateMutability": "nonpayable",
      "type": "function"
    },
    {
      "inputs": [
        {
          "internalType": "address",
          "name": "newImplementation",
          "type": "address"
        }
      ],
      "name": "upgradeTo",
      "outputs": [],
      "stateMutability": "nonpayable",
      "type": "function"
    },
    {
      "inputs": [
        {
          "internalType": "address",
          "name": "newImplementation",
          "type": "address"
        },
        {
          "internalType": "bytes",
          "name": "data",
          "type": "bytes"
        }
      ],
      "name": "upgradeToAndCall",
      "outputs": [],
      "stateMutability": "payable",
      "type": "function"
    },
    {
      "inputs": [
        {
          "internalType": "address",
          "name": "",
          "type": "address"
        }
      ],
      "name": "validArbitrators",
      "outputs": [
        {
          "internalType": "bool",
          "name": "",
          "type": "bool"
        }
      ],
      "stateMutability": "view",
      "type": "function"
    },
    {
      "inputs": [
        {
          "internalType": "address",
          "name": "",
          "type": "address"
        }
      ],
      "name": "whitelist",
      "outputs": [
        {
          "internalType": "bool",
          "name": "",
          "type": "bool"
        }
      ],
      "stateMutability": "view",
      "type": "function"
    },
    {
      "inputs": [
        {
          "internalType": "address",
          "name": "_user",
          "type": "address"
        }
      ],
      "name": "whitelistUser",
      "outputs": [],
      "stateMutability": "nonpayable",
      "type": "function"
    },
    {
      "inputs": [],
      "name": "withdraw",
      "outputs": [],
      "stateMutability": "nonpayable",
      "type": "function"
    }
  ],
  "bytecode": "0x60a0604052306080523480156200001557600080fd5b506200002062000026565b620000e8565b600054610100900460ff1615620000935760405162461bcd60e51b815260206004820152602760248201527f496e697469616c697a61626c653a20636f6e747261637420697320696e697469604482015266616c697a696e6760c81b606482015260840160405180910390fd5b60005460ff9081161015620000e6576000805460ff191660ff9081179091556040519081527f7f26b83ff96e1f2b6a682f133852f6798a09c465da95921460cefb38474024989060200160405180910390a15b565b608051614b886200012060003960008181610ed501528181610f15015281816112f20152818161133201526113c10152614b886000f3fe6080604052600436106103815760003560e01c80638e6e5397116101d1578063c6bf01ce11610102578063e58378bb116100a0578063f577a5001161006f578063f577a50014610ab0578063f6f3784414610ad0578063f905f15414610ae7578063faa992d314610b0757600080fd5b8063e58378bb14610a03578063e985e9c514610a25578063e9a9c85014610a6e578063f160068f14610a9057600080fd5b8063d547741f116100dc578063d547741f14610990578063d85d3d27146109b0578063dc33e681146109c3578063dce22638146109e357600080fd5b8063c6bf01ce14610930578063c87b56dd14610950578063cb8faafa1461097057600080fd5b8063a217fddf1161016f578063a4f524a911610149578063a4f524a9146108b1578063acd63f1b146108d1578063b88d4fde14610902578063c37e154e1461091d57600080fd5b8063a217fddf14610840578063a22cb46514610855578063a383c6921461087557600080fd5b8063973ad270116101ab578063973ad270146107a757806399ded444146107c75780639b19251a146107e75780639da3f8fd1461081857600080fd5b80638e6e53971461075257806391d148541461077257806395d89b411461079257600080fd5b80633ccfd60b116102b65780634f1ef2861161025457806370a082311161022357806370a08231146106dd5780638129fc1c146106fd57806384017e52146107125780638a9863631461073257600080fd5b80634f1ef2861461066857806352d1902d1461067b5780635bd22c98146106905780636352211e146106bd57600080fd5b806342842e0e1161029057806342842e0e146104f257806348203b30146105f75780634a4c560d146106285780634a7ab1d51461064857600080fd5b80633ccfd60b146105a25780633d459389146105b75780633e6acfe0146105d757600080fd5b806318160ddd11610323578063248a9ca3116102fd578063248a9ca3146105125780632f2ff15d1461054257806336568abe146105625780633659cfe61461058257600080fd5b806318160ddd146104af5780631847c06b146104c457806323b872dd146104f257600080fd5b8063081812fc1161035f578063081812fc146103ff578063095ea7b31461043757806311f821921461045757806313966db51461048a57600080fd5b806301c32c851461038657806301ffc9a7146103a857806306fdde03146103dd575b600080fd5b34801561039257600080fd5b506103a66103a13660046138ef565b610b3d565b005b3480156103b457600080fd5b506103c86103c336600461391e565b610b86565b60405190151581526020015b60405180910390f35b3480156103e957600080fd5b506103f2610ba6565b6040516103d4919061398b565b34801561040b57600080fd5b5061041f61041a3660046138ef565b610c38565b6040516001600160a01b0390911681526020016103d4565b34801561044357600080fd5b506103a66104523660046139b3565b610c5f565b34801561046357600080fd5b506104776104723660046138ef565b610d79565b60405161ffff90911681526020016103d4565b34801561049657600080fd5b506104a16101335481565b6040519081526020016103d4565b3480156104bb57600080fd5b506104a1610dc3565b3480156104d057600080fd5b506104a16104df3660046139df565b6101326020526000908152604090205481565b3480156104fe57600080fd5b506103a661050d3660046139fc565b610de0565b34801561051e57600080fd5b506104a161052d3660046138ef565b60009081526097602052604090206001015490565b34801561054e57600080fd5b506103a661055d366004613a3d565b610e28565b34801561056e57600080fd5b506103a661057d366004613a3d565b610e4d565b34801561058e57600080fd5b506103a661059d3660046139df565b610ecb565b3480156105ae57600080fd5b506103a6610faa565b3480156105c357600080fd5b506104776105d23660046138ef565b61104d565b3480156105e357600080fd5b506103a66105f2366004613b10565b61109d565b34801561060357600080fd5b506103c86106123660046139df565b61012f6020526000908152604090205460ff1681565b34801561063457600080fd5b506103a66106433660046139df565b61123c565b34801561065457600080fd5b506104a16106633660046138ef565b6112a2565b6103a6610676366004613b69565b6112e8565b34801561068757600080fd5b506104a16113b4565b34801561069c57600080fd5b506106b06106ab3660046138ef565b611467565b6040516103d49190613bb9565b3480156106c957600080fd5b5061041f6106d83660046138ef565b611735565b3480156106e957600080fd5b506104a16106f83660046139df565b611795565b34801561070957600080fd5b506103a661181b565b34801561071e57600080fd5b506103a661072d3660046138ef565b611a26565b34801561073e57600080fd5b506104a161074d3660046138ef565b611a67565b34801561075e57600080fd5b506103a661076d366004613c8d565b611aad565b34801561077e57600080fd5b506103c861078d366004613a3d565b611b36565b34801561079e57600080fd5b506103f2611b61565b3480156107b357600080fd5b506103a66107c23660046139df565b611b70565b3480156107d357600080fd5b506103a66107e2366004613c8d565b611bb4565b3480156107f357600080fd5b506103c86108023660046139df565b6101306020526000908152604090205460ff1681565b34801561082457600080fd5b50610136546108339060ff1681565b6040516103d49190613ccf565b34801561084c57600080fd5b506104a1600081565b34801561086157600080fd5b506103a6610870366004613cf7565b611c47565b34801561088157600080fd5b506103c8610890366004613d2a565b805160208183018101805161012d8252928201919093012091525460ff1681565b3480156108bd57600080fd5b506103a66108cc366004613d5f565b611c52565b3480156108dd57600080fd5b506103c86108ec3660046139df565b6101316020526000908152604090205460ff1681565b34801561090e57600080fd5b506103a661050d366004613d81565b6104a161092b366004613e36565b611d3e565b34801561093c57600080fd5b506103a661094b366004613d5f565b611f72565b34801561095c57600080fd5b506103f261096b3660046138ef565b611fee565b34801561097c57600080fd5b506103a661098b366004613cf7565b611ff9565b34801561099c57600080fd5b506103a66109ab366004613a3d565b61204a565b6104a16109be366004613e8d565b61206f565b3480156109cf57600080fd5b506104a16109de3660046139df565b61229d565b3480156109ef57600080fd5b506103a66109fe366004613d5f565b6122a8565b348015610a0f57600080fd5b506104a1600080516020614a8c83398151915281565b348015610a3157600080fd5b506103c8610a40366004613ecf565b6001600160a01b039182166000908152606a6020908152604080832093909416825291909152205460ff1690565b348015610a7a57600080fd5b506104a1600080516020614b0c83398151915281565b348015610a9c57600080fd5b506103a6610aab366004613efd565b612324565b348015610abc57600080fd5b506103a6610acb3660046138ef565b6123ec565b348015610adc57600080fd5b506104a16101345481565b348015610af357600080fd5b506103a6610b02366004613f2e565b61241a565b348015610b1357600080fd5b50610b27610b223660046138ef565b612486565b6040516103d49a99989796959493929190613f4f565b6000610b4881612683565b6101348290556040518281527fa39eb462f98ec2e2a17ca5c7f2a0a247d212213bf0c78a6e2a3df704911ef601906020015b60405180910390a15050565b6000610b918261268d565b80610ba05750610ba0826126dd565b92915050565b606060658054610bb590613fda565b80601f0160208091040260200160405190810160405280929190818152602001828054610be190613fda565b8015610c2e5780601f10610c0357610100808354040283529160200191610c2e565b820191906000526020600020905b815481529060010190602001808311610c1157829003601f168201915b5050505050905090565b6000610c4382612702565b506000908152606960205260409020546001600160a01b031690565b6000610c6a82611735565b9050806001600160a01b0316836001600160a01b031603610cdc5760405162461bcd60e51b815260206004820152602160248201527f4552433732313a20617070726f76616c20746f2063757272656e74206f776e656044820152603960f91b60648201526084015b60405180910390fd5b336001600160a01b0382161480610cf85750610cf88133610a40565b610d6a5760405162461bcd60e51b815260206004820152603d60248201527f4552433732313a20617070726f76652063616c6c6572206973206e6f7420746f60448201527f6b656e206f776e6572206f7220617070726f76656420666f7220616c6c0000006064820152608401610cd3565b610d748383612761565b505050565b60008082118015610d8c57506101355482105b610da85760405162461bcd60e51b8152600401610cd390614014565b50600090815261012e602052604090206003015461ffff1690565b60006001610dd16101355490565b610ddb9190614057565b905090565b60405162461bcd60e51b815260206004820152601d60248201527f546f6b656e207472616e73666572206973206e6f7420616c6c6f7765640000006044820152606401610cd3565b600082815260976020526040902060010154610e4381612683565b610d7483836127cf565b6001600160a01b0381163314610ebd5760405162461bcd60e51b815260206004820152602f60248201527f416363657373436f6e74726f6c3a2063616e206f6e6c792072656e6f756e636560448201526e103937b632b9903337b91039b2b63360891b6064820152608401610cd3565b610ec78282612855565b5050565b6001600160a01b037f0000000000000000000000000000000000000000000000000000000000000000163003610f135760405162461bcd60e51b8152600401610cd39061406a565b7f00000000000000000000000000000000000000000000000000000000000000006001600160a01b0316610f5c600080516020614aac833981519152546001600160a01b031690565b6001600160a01b031614610f825760405162461bcd60e51b8152600401610cd3906140b6565b610f8b816128bc565b60408051600080825260208201909252610fa7918391906128d4565b50565b6000610fb581612683565b604051600090339047908381818185875af1925050503d8060008114610ff7576040519150601f19603f3d011682016040523d82523d6000602084013e610ffc565b606091505b5050905080610ec75760405162461bcd60e51b815260206004820152601860248201527f4661696c656420746f20776974686472617720457468657200000000000000006044820152606401610cd3565b6000808211801561106057506101355482105b61107c5760405162461bcd60e51b8152600401610cd390614014565b50600090815261012e602052604090206003015462010000900461ffff1690565b336110a784611735565b6001600160a01b0316146110cd5760405162461bcd60e51b8152600401610cd390614102565b6001600160a01b038216600090815261012f602052604090205460ff166111485760405162461bcd60e51b815260206004820152602960248201527f5468652061646472657373206d757374206265206f6620612076616c69642061604482015268393134ba3930ba37b960b91b6064820152608401610cd3565b600083815261012e6020908152604080832060060180546001600160a01b0319166001600160a01b038716908117909155835261013190915290205460ff16156111c85760408051602081018590520160408051601f19818403018152918152600085815261012e60205220600701906111c2908261418d565b506111e6565b600083815261012e602052604090206007016111e4828261418d565b505b7f4f1d179d53629f07a3ca3cde19840349df6dadc8fc11ac201c272ec77b8673d2838361012e600087815260200190815260200160002060070160405161122f9392919061424d565b60405180910390a1505050565b600080516020614a8c83398151915261125481612683565b6001600160a01b03821660008181526101306020526040808220805460ff19166001179055517f7409cb8e690bcd1487fd4fd27dad3fa92388d201ba6f953631d6d6b26299f8499190a25050565b600080821180156112b557506101355482105b6112d15760405162461bcd60e51b8152600401610cd390614014565b50600090815261012e602052604090206005015490565b6001600160a01b037f00000000000000000000000000000000000000000000000000000000000000001630036113305760405162461bcd60e51b8152600401610cd39061406a565b7f00000000000000000000000000000000000000000000000000000000000000006001600160a01b0316611379600080516020614aac833981519152546001600160a01b031690565b6001600160a01b03161461139f5760405162461bcd60e51b8152600401610cd3906140b6565b6113a8826128bc565b610ec7828260016128d4565b6000306001600160a01b037f000000000000000000000000000000000000000000000000000000000000000016146114545760405162461bcd60e51b815260206004820152603860248201527f555550535570677261646561626c653a206d757374206e6f742062652063616c60448201527f6c6564207468726f7567682064656c656761746563616c6c00000000000000006064820152608401610cd3565b50600080516020614aac83398151915290565b6114ce604051806101400160405280600081526020016060815260200160608152602001600061ffff168152602001600061ffff168152602001600081526020016000815260200160006001600160a01b0316815260200160608152602001600081525090565b6000821180156114e057506101355482105b6114fc5760405162461bcd60e51b8152600401610cd390614014565b61012e6000838152602001908152602001600020604051806101400160405290816000820154815260200160018201805461153690613fda565b80601f016020809104026020016040519081016040528092919081815260200182805461156290613fda565b80156115af5780601f10611584576101008083540402835291602001916115af565b820191906000526020600020905b81548152906001019060200180831161159257829003601f168201915b505050505081526020016002820180546115c890613fda565b80601f01602080910402602001604051908101604052809291908181526020018280546115f490613fda565b80156116415780601f1061161657610100808354040283529160200191611641565b820191906000526020600020905b81548152906001019060200180831161162457829003601f168201915b5050509183525050600382015461ffff808216602084015262010000909104166040820152600482015460608201526005820154608082015260068201546001600160a01b031660a082015260078201805460c0909201916116a290613fda565b80601f01602080910402602001604051908101604052809291908181526020018280546116ce90613fda565b801561171b5780601f106116f05761010080835404028352916020019161171b565b820191906000526020600020905b8154815290600101906020018083116116fe57829003601f168201915b505050505081526020016008820154815250509050919050565b6000818152606760205260408120546001600160a01b031680610ba05760405162461bcd60e51b8152602060048201526018602482015277115490cdcc8c4e881a5b9d985b1a59081d1bdad95b88125160421b6044820152606401610cd3565b60006001600160a01b0382166117ff5760405162461bcd60e51b815260206004820152602960248201527f4552433732313a2061646472657373207a65726f206973206e6f7420612076616044820152683634b21037bbb732b960b91b6064820152608401610cd3565b506001600160a01b031660009081526068602052604090205490565b600054610100900460ff161580801561183b5750600054600160ff909116105b806118555750303b158015611855575060005460ff166001145b6118b85760405162461bcd60e51b815260206004820152602e60248201527f496e697469616c697a61626c653a20636f6e747261637420697320616c72656160448201526d191e481a5b9a5d1a585b1a5e995960921b6064820152608401610cd3565b6000805460ff1916600117905580156118db576000805461ff0019166101001790555b61192e6040518060400160405280601581526020017415185b195b9d13185e595c941b185d199bdc9b5251605a1b815250604051806040016040528060048152602001631514125160e21b815250612a3f565b611936612a70565b61193e612a70565b611949600033612a99565b611961600080516020614b0c83398151915233612a99565b611979600080516020614a8c83398151915233612a99565b6000610133819055805261012f6020527fe9104285c6851efcbc5e0e70440200efbdcab556a1c8784776780f8bb44f2931805460ff191660011790556119c162015180610b3d565b6119d061013580546001019055565b610136805460ff191660011790558015610fa7576000805461ff0019169055604051600181527f7f26b83ff96e1f2b6a682f133852f6798a09c465da95921460cefb38474024989060200160405180910390a150565b6000611a3181612683565b6101338290556040518281527f38fbb1c8b109c430f0c030e7ed076cf5611a307773a4e8e365601e8f8bceaec690602001610b7a565b60008082118015611a7a57506101355482105b611a965760405162461bcd60e51b8152600401610cd390614014565b50600090815261012e602052604090206004015490565b33611ab783611735565b6001600160a01b031614611add5760405162461bcd60e51b8152600401610cd390614102565b600082815261012e6020908152604091829020600301805461ffff191661ffff85169081179091558251858152918201527f03c3aa7c7830e29d1571bfe33dc72a8b8e0297dd6fdf26ef720dee976e21125a9101610b7a565b60009182526097602090815260408084206001600160a01b0393909316845291905290205460ff1690565b606060668054610bb590613fda565b6000611b7b81612683565b506001600160a01b0316600090815261012f60209081526040808320805460ff1990811690915561013190925290912080549091169055565b33611bbe83611735565b6001600160a01b031614611be45760405162461bcd60e51b8152600401610cd390614102565b600082815261012e6020908152604091829020600301805463ffff000019166201000061ffff8616908102919091179091558251858152918201527fffeae29561efc186d4d5241d242f7e2b4a76f114ea5de0db37fbd19c3b1913a59101610b7a565b610ec7338383612aa3565b33611c5c83611735565b6001600160a01b031614611c825760405162461bcd60e51b8152600401610cd390614102565b61013454811015611cf25760405162461bcd60e51b815260206004820152603460248201527f5468652074696d656f7574206d7573742062652067726561746572207468616e604482015273081d1a19481b5a5b9a5b5d5b481d1a5b595bdd5d60621b6064820152608401610cd3565b600082815261012e602090815260409182902060080183905581518481529081018390527face552c85eed7b5cf46330833e6f28b1f5ce696a4532e483192b5a64e4565e599101610b7a565b600083838360016101365460ff166002811115611d5d57611d5d613cb9565b1480611d80575060026101365460ff166002811115611d7e57611d7e613cb9565b145b611dc75760405162461bcd60e51b8152602060048201526018602482015277135a5b9d081cdd185d1d5cc81a5cc81b9bdd081d985b1a5960421b6044820152606401610cd3565b60016101365460ff166002811115611de157611de1613cb9565b03611e4057336000908152610130602052604090205460ff16611e405760405162461bcd60e51b8152602060048201526017602482015276165bdd48185c99481b9bdd081dda1a5d195b1a5cdd1959604a1b6044820152606401610cd3565b610133543414611e625760405162461bcd60e51b8152600401610cd3906142ef565b611e6b8161229d565b15611e885760405162461bcd60e51b8152600401610cd390614333565b61012d8383604051611e9b929190614375565b9081526040519081900360200190205460ff1615611ef05760405162461bcd60e51b81526020600482015260126024820152712730b6b29030b63932b0b23c903a30b5b2b760711b6044820152606401610cd3565b611efa8383612b71565b600080516020614b0c833981519152611f1281612683565b611f2586611f206101355490565b612d93565b611f6688888080601f0160208091040260200160405190810160405280939291908181526020018383808284376000920191909152508a9250612dad915050565b98975050505050505050565b33611f7c83611735565b6001600160a01b031614611fa25760405162461bcd60e51b8152600401610cd390614102565b600082815261012e602090815260409182902060050183905581518481529081018390527f5cea455bfd7800a5b219f99906f1402cf18c09764b07b36821dc7285b86a77329101610b7a565b6060610ba082612e8f565b600061200481612683565b506001600160a01b03909116600090815261012f60209081526040808320805460ff19908116600117909155610131909252909120805492151592909116919091179055565b60008281526097602052604090206001015461206581612683565b610d748383612855565b600082823360016101365460ff16600281111561208e5761208e613cb9565b14806120b1575060026101365460ff1660028111156120af576120af613cb9565b145b6120f85760405162461bcd60e51b8152602060048201526018602482015277135a5b9d081cdd185d1d5cc81a5cc81b9bdd081d985b1a5960421b6044820152606401610cd3565b60016101365460ff16600281111561211257612112613cb9565b0361217157336000908152610130602052604090205460ff166121715760405162461bcd60e51b8152602060048201526017602482015276165bdd48185c99481b9bdd081dda1a5d195b1a5cdd1959604a1b6044820152606401610cd3565b6101335434146121935760405162461bcd60e51b8152600401610cd3906142ef565b61219c8161229d565b156121b95760405162461bcd60e51b8152600401610cd390614333565b61012d83836040516121cc929190614375565b9081526040519081900360200190205460ff16156122215760405162461bcd60e51b81526020600482015260126024820152712730b6b29030b63932b0b23c903a30b5b2b760711b6044820152606401610cd3565b61222b8383612b71565b600080516020614b0c83398151915261224381612683565b61225133611f206101355490565b61229287878080601f016020809104026020016040519081016040528093929190818152602001838380828437600092019190915250339250612dad915050565b979650505050505050565b6000610ba082611795565b336122b283611735565b6001600160a01b0316146122d85760405162461bcd60e51b8152600401610cd390614102565b600082815261012e602090815260409182902060040183905581518481529081018390527fccc64c8fc3688d9eb2c0bb58ff0dfef1a8528bcc06528d991da400c83835838d9101610b7a565b3361232e83611735565b6001600160a01b0316146123545760405162461bcd60e51b8152600401610cd390614102565b8051602e146123935760405162461bcd60e51b815260206004820152600b60248201526a125b9d985b1a590818da5960aa1b6044820152606401610cd3565b600082815261012e602052604090206002016123af828261418d565b50817f613807bd6768f626264e7eb664a65ca99a0d930f8fd8a5b868491a592eb57f72826040516123e0919061398b565b60405180910390a25050565b6000811180156123fe57506101355481105b610fa75760405162461bcd60e51b8152600401610cd390614014565b600080516020614a8c83398151915261243281612683565b610136805483919060ff1916600183600281111561245257612452613cb9565b02179055507fbe5bfaa294dd4b792e98f2bcf8f597b2ead214107f9bc9e8392d6ec65e8d854f82604051610b7a9190613ccf565b61012e60205260009081526040902080546001820180549192916124a990613fda565b80601f01602080910402602001604051908101604052809291908181526020018280546124d590613fda565b80156125225780601f106124f757610100808354040283529160200191612522565b820191906000526020600020905b81548152906001019060200180831161250557829003601f168201915b50505050509080600201805461253790613fda565b80601f016020809104026020016040519081016040528092919081815260200182805461256390613fda565b80156125b05780601f10612585576101008083540402835291602001916125b0565b820191906000526020600020905b81548152906001019060200180831161259357829003601f168201915b505050506003830154600484015460058501546006860154600787018054969761ffff8087169862010000909704169650939492936001600160a01b03909216926125fa90613fda565b80601f016020809104026020016040519081016040528092919081815260200182805461262690613fda565b80156126735780601f1061264857610100808354040283529160200191612673565b820191906000526020600020905b81548152906001019060200180831161265657829003601f168201915b505050505090806008015490508a565b610fa78133612fba565b60006001600160e01b031982166380ac58cd60e01b14806126be57506001600160e01b03198216635b5e139f60e01b145b80610ba057506301ffc9a760e01b6001600160e01b0319831614610ba0565b60006001600160e01b03198216637965db0b60e01b1480610ba05750610ba08261268d565b6000818152606760205260409020546001600160a01b0316610fa75760405162461bcd60e51b8152602060048201526018602482015277115490cdcc8c4e881a5b9d985b1a59081d1bdad95b88125160421b6044820152606401610cd3565b600081815260696020526040902080546001600160a01b0319166001600160a01b038416908117909155819061279682611735565b6001600160a01b03167f8c5be1e5ebec7d5bd14f71427d1e84f3dd0314c0f7b2291e5b200ac8c7c3b92560405160405180910390a45050565b6127d98282611b36565b610ec75760008281526097602090815260408083206001600160a01b03851684529091529020805460ff191660011790556128113390565b6001600160a01b0316816001600160a01b0316837f2f8788117e7eff1d82e926ec794901d17c78024a50270940304540a733656f0d60405160405180910390a45050565b61285f8282611b36565b15610ec75760008281526097602090815260408083206001600160a01b0385168085529252808320805460ff1916905551339285917ff6391f5c32d9c69d2a47ea670b442974b53935d1edc7fd64eb21e047a839171b9190a45050565b600080516020614a8c833981519152610ec781612683565b7f4910fdfa16fed3260ed0e7147f7cc6da11a60208b5b9406d12a635614ffd91435460ff161561290757610d7483613013565b826001600160a01b03166352d1902d6040518163ffffffff1660e01b8152600401602060405180830381865afa925050508015612961575060408051601f3d908101601f1916820190925261295e91810190614385565b60015b6129c45760405162461bcd60e51b815260206004820152602e60248201527f45524331393637557067726164653a206e657720696d706c656d656e7461746960448201526d6f6e206973206e6f74205555505360901b6064820152608401610cd3565b600080516020614aac8339815191528114612a335760405162461bcd60e51b815260206004820152602960248201527f45524331393637557067726164653a20756e737570706f727465642070726f786044820152681a58589b195555525160ba1b6064820152608401610cd3565b50610d748383836130af565b600054610100900460ff16612a665760405162461bcd60e51b8152600401610cd39061439e565b610ec782826130da565b600054610100900460ff16612a975760405162461bcd60e51b8152600401610cd39061439e565b565b610ec782826127cf565b816001600160a01b0316836001600160a01b031603612b045760405162461bcd60e51b815260206004820152601960248201527f4552433732313a20617070726f766520746f2063616c6c6572000000000000006044820152606401610cd3565b6001600160a01b038381166000818152606a6020908152604080832094871680845294825291829020805460ff191686151590811790915591519182527f17307eab39ab6107e8899845ad3d59bd9653f200f220920489ca2b5937696c31910160405180910390a3505050565b600082828080601f0160208091040260200160405190810160405280939291908181526020018383808284376000920191909152505082519293505060058210905080612bbe5750601f81115b15612bdc57604051633eb64ab360e01b815260040160405180910390fd5b600084846000818110612bf157612bf16143e9565b909101356001600160f81b031916915050602d60f81b811480612c215750605f60f81b6001600160f81b03198216145b15612c3f57604051632f2c22a760e11b815260040160405180910390fd5b60005b82811015612d8b57600360fc1b848281518110612c6157612c616143e9565b01602001516001600160f81b0319161080612c9f5750603d60f91b848281518110612c8e57612c8e6143e9565b01602001516001600160f81b031916115b80612cfb5750603960f81b848281518110612cbc57612cbc6143e9565b01602001516001600160f81b031916118015612cfb5750606160f81b848281518110612cea57612cea6143e9565b01602001516001600160f81b031916105b8015612d2c5750838181518110612d1457612d146143e9565b6020910101516001600160f81b031916602d60f81b14155b8015612d5d5750838181518110612d4557612d456143e9565b6020910101516001600160f81b031916605f60f81b14155b15612d7b57604051630bb7f19b60e21b815260040160405180910390fd5b612d84816143ff565b9050612c42565b505050505050565b610ec782826040518060200160405280600081525061311a565b600080612dba6101355490565b9050612dcb61013580546001019055565b600081815261012e6020526040902060018101612de8868261418d565b5081815561013454600882015560405160019061012d90612e0a908890614434565b908152604080519182900360209081018320805494151560ff19909516949094179093556001600160a01b0387166000818152610132909452922084905561013354610134547f8475f1ba3b06c1e11c870cbbf9753ca9a8292ea0b203262f682de476dc268f8c92612e7f9287928b92614450565b60405180910390a2509392505050565b600081815261012e6020526040812060010180546060929190612eb190613fda565b80601f0160208091040260200160405190810160405280929190818152602001828054612edd90613fda565b8015612f2a5780601f10612eff57610100808354040283529160200191612f2a565b820191906000526020600020905b815481529060010190602001808311612f0d57829003601f168201915b505050505090506000612f5b82604051602001612f47919061447c565b60405160208183030381529060405261314d565b604051602001612f6b91906147e0565b6040516020818303038152906040529050612f928282604051602001612f47929190614825565b604051602001612fa291906148c2565b60405160208183030381529060405292505050919050565b612fc48282611b36565b610ec757612fd1816132a0565b612fdc8360206132b2565b604051602001612fed929190614907565b60408051601f198184030181529082905262461bcd60e51b8252610cd39160040161398b565b6001600160a01b0381163b6130805760405162461bcd60e51b815260206004820152602d60248201527f455243313936373a206e657720696d706c656d656e746174696f6e206973206e60448201526c1bdd08184818dbdb9d1c9858dd609a1b6064820152608401610cd3565b600080516020614aac83398151915280546001600160a01b0319166001600160a01b0392909216919091179055565b6130b883613455565b6000825111806130c55750805b15610d74576130d48383613495565b50505050565b600054610100900460ff166131015760405162461bcd60e51b8152600401610cd39061439e565b606561310d838261418d565b506066610d74828261418d565b6131248383613589565b6131316000848484613722565b610d745760405162461bcd60e51b8152600401610cd39061497c565b6060815160000361316c57505060408051602081019091526000815290565b6000604051806060016040528060408152602001614acc604091399050600060038451600261319b91906149ce565b6131a591906149e1565b6131b0906004614a03565b67ffffffffffffffff8111156131c8576131c8613a6d565b6040519080825280601f01601f1916602001820160405280156131f2576020820181803683370190505b509050600182016020820185865187015b8082101561325e576003820191508151603f8160121c168501518453600184019350603f81600c1c168501518453600184019350603f8160061c168501518453600184019350603f8116850151845350600183019250613203565b505060038651066001811461327a576002811461328d57613295565b603d6001830353603d6002830353613295565b603d60018303535b509195945050505050565b6060610ba06001600160a01b03831660145b606060006132c1836002614a03565b6132cc9060026149ce565b67ffffffffffffffff8111156132e4576132e4613a6d565b6040519080825280601f01601f19166020018201604052801561330e576020820181803683370190505b509050600360fc1b81600081518110613329576133296143e9565b60200101906001600160f81b031916908160001a905350600f60fb1b81600181518110613358576133586143e9565b60200101906001600160f81b031916908160001a905350600061337c846002614a03565b6133879060016149ce565b90505b60018111156133ff576f181899199a1a9b1b9c1cb0b131b232b360811b85600f16601081106133bb576133bb6143e9565b1a60f81b8282815181106133d1576133d16143e9565b60200101906001600160f81b031916908160001a90535060049490941c936133f881614a1a565b905061338a565b50831561344e5760405162461bcd60e51b815260206004820181905260248201527f537472696e67733a20686578206c656e67746820696e73756666696369656e746044820152606401610cd3565b9392505050565b61345e81613013565b6040516001600160a01b038216907fbc7cd75a20ee27fd9adebab32041f755214dbc6bffa90cc0225b39da2e5c2d3b90600090a250565b60606001600160a01b0383163b6134fd5760405162461bcd60e51b815260206004820152602660248201527f416464726573733a2064656c65676174652063616c6c20746f206e6f6e2d636f6044820152651b9d1c9858dd60d21b6064820152608401610cd3565b600080846001600160a01b0316846040516135189190614434565b600060405180830381855af49150503d8060008114613553576040519150601f19603f3d011682016040523d82523d6000602084013e613558565b606091505b50915091506135808282604051806060016040528060278152602001614b2c60279139613824565b95945050505050565b6001600160a01b0382166135df5760405162461bcd60e51b815260206004820181905260248201527f4552433732313a206d696e7420746f20746865207a65726f20616464726573736044820152606401610cd3565b6000818152606760205260409020546001600160a01b0316156136445760405162461bcd60e51b815260206004820152601c60248201527f4552433732313a20746f6b656e20616c7265616479206d696e746564000000006044820152606401610cd3565b61365260008383600161383d565b6000818152606760205260409020546001600160a01b0316156136b75760405162461bcd60e51b815260206004820152601c60248201527f4552433732313a20746f6b656e20616c7265616479206d696e746564000000006044820152606401610cd3565b6001600160a01b038216600081815260686020908152604080832080546001019055848352606790915280822080546001600160a01b0319168417905551839291907fddf252ad1be2c89b69c2b068fc378daa952ba7f163c4a11628f55a4df523b3ef908290a45050565b60006001600160a01b0384163b1561381857604051630a85bd0160e11b81526001600160a01b0385169063150b7a0290613766903390899088908890600401614a31565b6020604051808303816000875af19250505080156137a1575060408051601f3d908101601f1916820190925261379e91810190614a6e565b60015b6137fe573d8080156137cf576040519150601f19603f3d011682016040523d82523d6000602084013e6137d4565b606091505b5080516000036137f65760405162461bcd60e51b8152600401610cd39061497c565b805181602001fd5b6001600160e01b031916630a85bd0160e11b14905061381c565b5060015b949350505050565b6060831561383357508161344e565b61344e83836138c5565b60018111156130d4576001600160a01b03841615613883576001600160a01b0384166000908152606860205260408120805483929061387d908490614057565b90915550505b6001600160a01b038316156130d4576001600160a01b038316600090815260686020526040812080548392906138ba9084906149ce565b909155505050505050565b8151156138d55781518083602001fd5b8060405162461bcd60e51b8152600401610cd3919061398b565b60006020828403121561390157600080fd5b5035919050565b6001600160e01b031981168114610fa757600080fd5b60006020828403121561393057600080fd5b813561344e81613908565b60005b8381101561395657818101518382015260200161393e565b50506000910152565b6000815180845261397781602086016020860161393b565b601f01601f19169290920160200192915050565b60208152600061344e602083018461395f565b6001600160a01b0381168114610fa757600080fd5b600080604083850312156139c657600080fd5b82356139d18161399e565b946020939093013593505050565b6000602082840312156139f157600080fd5b813561344e8161399e565b600080600060608486031215613a1157600080fd5b8335613a1c8161399e565b92506020840135613a2c8161399e565b929592945050506040919091013590565b60008060408385031215613a5057600080fd5b823591506020830135613a628161399e565b809150509250929050565b634e487b7160e01b600052604160045260246000fd5b600082601f830112613a9457600080fd5b813567ffffffffffffffff80821115613aaf57613aaf613a6d565b604051601f8301601f19908116603f01168101908282118183101715613ad757613ad7613a6d565b81604052838152866020858801011115613af057600080fd5b836020870160208301376000602085830101528094505050505092915050565b600080600060608486031215613b2557600080fd5b833592506020840135613b378161399e565b9150604084013567ffffffffffffffff811115613b5357600080fd5b613b5f86828701613a83565b9150509250925092565b60008060408385031215613b7c57600080fd5b8235613b878161399e565b9150602083013567ffffffffffffffff811115613ba357600080fd5b613baf85828601613a83565b9150509250929050565b602081528151602082015260006020830151610140806040850152613be261016085018361395f565b91506040850151601f1980868503016060870152613c00848361395f565b935060608701519150613c19608087018361ffff169052565b608087015161ffff811660a0880152915060a087015160c087015260c087015160e087015260e08701519150610100613c5c818801846001600160a01b03169052565b80880151925050610120818786030181880152613c79858461395f565b970151959092019490945250929392505050565b60008060408385031215613ca057600080fd5b82359150602083013561ffff81168114613a6257600080fd5b634e487b7160e01b600052602160045260246000fd5b6020810160038310613cf157634e487b7160e01b600052602160045260246000fd5b91905290565b60008060408385031215613d0a57600080fd5b8235613d158161399e565b915060208301358015158114613a6257600080fd5b600060208284031215613d3c57600080fd5b813567ffffffffffffffff811115613d5357600080fd5b61381c84828501613a83565b60008060408385031215613d7257600080fd5b50508035926020909101359150565b60008060008060808587031215613d9757600080fd5b8435613da28161399e565b93506020850135613db28161399e565b925060408501359150606085013567ffffffffffffffff811115613dd557600080fd5b613de187828801613a83565b91505092959194509250565b60008083601f840112613dff57600080fd5b50813567ffffffffffffffff811115613e1757600080fd5b602083019150836020828501011115613e2f57600080fd5b9250929050565b600080600060408486031215613e4b57600080fd5b833567ffffffffffffffff811115613e6257600080fd5b613e6e86828701613ded565b9094509250506020840135613e828161399e565b809150509250925092565b60008060208385031215613ea057600080fd5b823567ffffffffffffffff811115613eb757600080fd5b613ec385828601613ded565b90969095509350505050565b60008060408385031215613ee257600080fd5b8235613eed8161399e565b91506020830135613a628161399e565b60008060408385031215613f1057600080fd5b82359150602083013567ffffffffffffffff811115613ba357600080fd5b600060208284031215613f4057600080fd5b81356003811061344e57600080fd5b60006101408c8352806020840152613f698184018d61395f565b90508281036040840152613f7d818c61395f565b61ffff8b811660608601528a16608085015260a0840189905260c084018890526001600160a01b03871660e08501528381036101008501529050613fc1818661395f565b915050826101208301529b9a5050505050505050505050565b600181811c90821680613fee57607f821691505b60208210810361400e57634e487b7160e01b600052602260045260246000fd5b50919050565b602080825260139082015272125b9d985b1a59081c1b185d199bdc9b481251606a1b604082015260600190565b634e487b7160e01b600052601160045260246000fd5b81810381811115610ba057610ba0614041565b6020808252602c908201527f46756e6374696f6e206d7573742062652063616c6c6564207468726f7567682060408201526b19195b1959d85d1958d85b1b60a21b606082015260800190565b6020808252602c908201527f46756e6374696f6e206d7573742062652063616c6c6564207468726f7567682060408201526b6163746976652070726f787960a01b606082015260800190565b60208082526025908201527f596f75277265206e6f7420746865206f776e6572206f66207468697320706c6160408201526474666f726d60d81b606082015260800190565b601f821115610d7457600081815260208120601f850160051c8101602086101561416e5750805b601f850160051c820191505b81811015612d8b5782815560010161417a565b815167ffffffffffffffff8111156141a7576141a7613a6d565b6141bb816141b58454613fda565b84614147565b602080601f8311600181146141f057600084156141d85750858301515b600019600386901b1c1916600185901b178555612d8b565b600085815260208120601f198616915b8281101561421f57888601518255948401946001909101908401614200565b508582101561423d5787850151600019600388901b60f8161c191681555b5050505050600190811b01905550565b8381526000602060018060a01b03851681840152606060408401526000845461427581613fda565b806060870152608060018084166000811461429757600181146142b1576142df565b60ff1985168984015283151560051b8901830195506142df565b896000528660002060005b858110156142d75781548b82018601529083019088016142bc565b8a0184019650505b50939a9950505050505050505050565b60208082526024908201527f496e636f727265637420616d6f756e74206f662045544820666f72206d696e746040820152632066656560e01b606082015260800190565b60208082526022908201527f506c6174666f726d20616c726561647920686173206120506c6174666f726d20604082015261125160f21b606082015260800190565b8183823760009101908152919050565b60006020828403121561439757600080fd5b5051919050565b6020808252602b908201527f496e697469616c697a61626c653a20636f6e7472616374206973206e6f74206960408201526a6e697469616c697a696e6760a81b606082015260800190565b634e487b7160e01b600052603260045260246000fd5b60006001820161441157614411614041565b5060010190565b6000815161442a81856020860161393b565b9290920192915050565b6000825161444681846020870161393b565b9190910192915050565b848152608060208201526000614469608083018661395f565b6040830194909452506060015292915050565b7f3c73766720786d6c6e733d22687474703a2f2f7777772e77332e6f72672f323081527f30302f737667222077696474683d2237323022206865696768743d223732302260208201527f3e3c726563742077696474683d223130302522206865696768743d223130302560408201527f222f3e3c73766720786d6c6e733d22687474703a2f2f7777772e77332e6f726760608201527f2f323030302f737667222077696474683d2231353022206865696768743d223160808201527f3530222076657273696f6e3d22312e32222076696577426f783d222d3230302060a08201527f2d353020313030302031303030223e3c706174682066696c6c3d22234646464660c08201527f46462220643d224d3236342e35203139302e3563302d31332e382031312e322d60e08201527f32352032352d3235483536386331332e3820302032352031312e3220323520326101008201527f357634393063302031332e382d31312e322032352d3235203235483238392e356101208201527f632d31332e3820302d32352d31312e322d32352d32357a222f3e3c70617468206101408201527f66696c6c3d22234646464646462220643d224d3236352036323463302d31332e6101608201527f382031312e322d32352032352d3235683534336331332e3820302032352031316101808201527f2e322032352032357635362e3563302031332e382d31312e322032352d3235206101a08201527f323548323930632d31332e3820302d32352d31312e322d32352d32357a222f3e6101c08201527f3c706174682066696c6c3d22234646464646462220643d224d30203139302e356101e08201527f63302d31332e382031312e322d32352032352d3235683534336331332e3820306102008201527f2032352031312e322032352032355632343763302031332e382d31312e3220326102208201527f352d3235203235483235632d31332e3820302d32352d31312e322d32352d32356102408201527f7a222f3e3c2f7376673e3c7465787420783d2233302220793d223637302220736102608201527f74796c653d22666f6e743a363070782073616e732d73657269663b66696c6c3a6102808201526511b33333111f60d11b6102a0820152600061344e6147c76102a6840185614418565b6c1e17ba32bc3a1f1e17b9bb339f60991b8152600d0190565b7f646174613a696d6167652f7376672b786d6c3b6261736536342c00000000000081526000825161481881601a85016020870161393b565b91909101601a0192915050565b683d913730b6b2911d1160b91b8152825160009061484a81600985016020880161393b565b6b1116101134b6b0b3b2911d1160a11b600991840191820152835161487681601584016020880161393b565b7f222c20226465736372697074696f6e223a202254616c656e74204c6179657220601592909101918201526c506c6174666f726d204944227d60981b6035820152604201949350505050565b7f646174613a6170706c69636174696f6e2f6a736f6e3b6261736536342c0000008152600082516148fa81601d85016020870161393b565b91909101601d0192915050565b7f416363657373436f6e74726f6c3a206163636f756e742000000000000000000081526000835161493f81601785016020880161393b565b7001034b99036b4b9b9b4b733903937b6329607d1b601791840191820152835161497081602884016020880161393b565b01602801949350505050565b60208082526032908201527f4552433732313a207472616e7366657220746f206e6f6e20455243373231526560408201527131b2b4bb32b91034b6b83632b6b2b73a32b960711b606082015260800190565b80820180821115610ba057610ba0614041565b6000826149fe57634e487b7160e01b600052601260045260246000fd5b500490565b8082028115828204841417610ba057610ba0614041565b600081614a2957614a29614041565b506000190190565b6001600160a01b0385811682528416602082015260408101839052608060608201819052600090614a649083018461395f565b9695505050505050565b600060208284031215614a8057600080fd5b815161344e8161390856feb19546dff01e856fb3f010c267a7b1c60363cf8a4664e21cc89c26224620214e360894a13ba1a3210667c828492db98dca3e2076cc3735a920a3ca505d382bbc4142434445464748494a4b4c4d4e4f505152535455565758595a6162636465666768696a6b6c6d6e6f707172737475767778797a303132333435363738392b2f154c00819833dac601ee5ddded6fda79d9d8b506b911b3dbd54cdb95fe6c3686416464726573733a206c6f772d6c6576656c2064656c65676174652063616c6c206661696c6564a2646970667358221220b42c7aed482b14cfd8825a102f7fda9cb4bced20a569d12a706cde9c2314174564736f6c63430008110033",
  "linkReferences": {},
  "deployedLinkReferences": {}
}