{
  "_format": "hh-sol-artifact-1",
  "contractName": "TalentLayerService",
  "sourceName": "contracts/TalentLayerService.sol",
  "abi": [
    {
      "inputs": [],
      "stateMutability": "nonpayable",
      "type": "constructor"
    },
    {
      "anonymous": false,
      "inputs": [
        {
          "indexed": false,
          "internalType": "address",
          "name": "previousAdmin",
          "type": "address"
        },
        {
          "indexed": false,
          "internalType": "address",
          "name": "newAdmin",
          "type": "address"
        }
      ],
      "name": "AdminChanged",
      "type": "event"
    },
    {
      "anonymous": false,
      "inputs": [
        {
          "indexed": false,
          "internalType": "address",
          "name": "tokenAddress",
          "type": "address"
        },
        {
          "indexed": false,
          "internalType": "bool",
          "name": "isWhitelisted",
          "type": "bool"
        },
        {
          "indexed": false,
          "internalType": "uint256",
          "name": "minimumTransactionAmount",
          "type": "uint256"
        }
      ],
      "name": "AllowedTokenListUpdated",
      "type": "event"
    },
    {
      "anonymous": false,
      "inputs": [
        {
          "indexed": true,
          "internalType": "address",
          "name": "beacon",
          "type": "address"
        }
      ],
      "name": "BeaconUpgraded",
      "type": "event"
    },
    {
      "anonymous": false,
      "inputs": [
        {
          "indexed": false,
          "internalType": "uint8",
          "name": "version",
          "type": "uint8"
        }
      ],
      "name": "Initialized",
      "type": "event"
    },
    {
      "anonymous": false,
      "inputs": [
        {
          "indexed": false,
          "internalType": "uint256",
          "name": "minCompletionPercentage",
          "type": "uint256"
        }
      ],
      "name": "MinCompletionPercentageUpdated",
      "type": "event"
    },
    {
      "anonymous": false,
      "inputs": [
        {
          "indexed": true,
          "internalType": "address",
          "name": "previousOwner",
          "type": "address"
        },
        {
          "indexed": true,
          "internalType": "address",
          "name": "newOwner",
          "type": "address"
        }
      ],
      "name": "OwnershipTransferred",
      "type": "event"
    },
    {
      "anonymous": false,
      "inputs": [
        {
          "indexed": false,
          "internalType": "uint256",
          "name": "serviceId",
          "type": "uint256"
        },
        {
          "indexed": false,
          "internalType": "uint256",
          "name": "ownerId",
          "type": "uint256"
        },
        {
          "indexed": false,
          "internalType": "string",
          "name": "dataUri",
          "type": "string"
        },
        {
          "indexed": false,
          "internalType": "enum TalentLayerService.ProposalStatus",
          "name": "status",
          "type": "uint8"
        },
        {
          "indexed": false,
          "internalType": "address",
          "name": "rateToken",
          "type": "address"
        },
        {
          "indexed": false,
          "internalType": "uint256",
          "name": "rateAmount",
          "type": "uint256"
        },
        {
          "indexed": false,
          "internalType": "uint256",
          "name": "platformId",
          "type": "uint256"
        },
        {
          "indexed": false,
          "internalType": "uint256",
          "name": "expirationDate",
          "type": "uint256"
        }
      ],
      "name": "ProposalCreated",
      "type": "event"
    },
    {
      "anonymous": false,
      "inputs": [
        {
          "indexed": false,
          "internalType": "uint256",
          "name": "serviceId",
          "type": "uint256"
        },
        {
          "indexed": false,
          "internalType": "uint256",
          "name": "ownerId",
          "type": "uint256"
        },
        {
          "indexed": false,
          "internalType": "string",
          "name": "dataUri",
          "type": "string"
        },
        {
          "indexed": false,
          "internalType": "enum TalentLayerService.ProposalStatus",
          "name": "status",
          "type": "uint8"
        },
        {
          "indexed": false,
          "internalType": "uint256",
          "name": "rateAmount",
          "type": "uint256"
        },
        {
          "indexed": false,
          "internalType": "uint256",
          "name": "platformId",
          "type": "uint256"
        },
        {
          "indexed": false,
          "internalType": "uint256",
          "name": "expirationDate",
          "type": "uint256"
        }
      ],
      "name": "ProposalCreatedWithoutToken",
      "type": "event"
    },
    {
      "anonymous": false,
      "inputs": [
        {
          "indexed": false,
          "internalType": "uint256",
          "name": "serviceId",
          "type": "uint256"
        },
        {
          "indexed": false,
          "internalType": "uint256",
          "name": "ownerId",
          "type": "uint256"
        },
        {
          "indexed": false,
          "internalType": "string",
          "name": "dataUri",
          "type": "string"
        },
        {
          "indexed": false,
          "internalType": "address",
          "name": "rateToken",
          "type": "address"
        },
        {
          "indexed": false,
          "internalType": "uint256",
          "name": "rateAmount",
          "type": "uint256"
        },
        {
          "indexed": false,
          "internalType": "uint256",
          "name": "expirationDate",
          "type": "uint256"
        }
      ],
      "name": "ProposalUpdated",
      "type": "event"
    },
    {
      "anonymous": false,
      "inputs": [
        {
          "indexed": false,
          "internalType": "uint256",
          "name": "serviceId",
          "type": "uint256"
        },
        {
          "indexed": false,
          "internalType": "uint256",
          "name": "ownerId",
          "type": "uint256"
        },
        {
          "indexed": false,
          "internalType": "string",
          "name": "dataUri",
          "type": "string"
        },
        {
          "indexed": false,
          "internalType": "uint256",
          "name": "rateAmount",
          "type": "uint256"
        },
        {
          "indexed": false,
          "internalType": "uint256",
          "name": "expirationDate",
          "type": "uint256"
        }
      ],
      "name": "ProposalUpdatedWithoutToken",
      "type": "event"
    },
    {
      "anonymous": false,
      "inputs": [
        {
          "indexed": true,
          "internalType": "bytes32",
          "name": "role",
          "type": "bytes32"
        },
        {
          "indexed": true,
          "internalType": "bytes32",
          "name": "previousAdminRole",
          "type": "bytes32"
        },
        {
          "indexed": true,
          "internalType": "bytes32",
          "name": "newAdminRole",
          "type": "bytes32"
        }
      ],
      "name": "RoleAdminChanged",
      "type": "event"
    },
    {
      "anonymous": false,
      "inputs": [
        {
          "indexed": true,
          "internalType": "bytes32",
          "name": "role",
          "type": "bytes32"
        },
        {
          "indexed": true,
          "internalType": "address",
          "name": "account",
          "type": "address"
        },
        {
          "indexed": true,
          "internalType": "address",
          "name": "sender",
          "type": "address"
        }
      ],
      "name": "RoleGranted",
      "type": "event"
    },
    {
      "anonymous": false,
      "inputs": [
        {
          "indexed": true,
          "internalType": "bytes32",
          "name": "role",
          "type": "bytes32"
        },
        {
          "indexed": true,
          "internalType": "address",
          "name": "account",
          "type": "address"
        },
        {
          "indexed": true,
          "internalType": "address",
          "name": "sender",
          "type": "address"
        }
      ],
      "name": "RoleRevoked",
      "type": "event"
    },
    {
      "anonymous": false,
      "inputs": [
        {
          "indexed": false,
          "internalType": "uint256",
          "name": "id",
          "type": "uint256"
        }
      ],
      "name": "ServiceCancelled",
      "type": "event"
    },
    {
      "anonymous": false,
      "inputs": [
        {
          "indexed": false,
          "internalType": "uint256",
          "name": "id",
          "type": "uint256"
        },
        {
          "indexed": false,
          "internalType": "uint256",
          "name": "ownerId",
          "type": "uint256"
        },
        {
          "indexed": false,
          "internalType": "uint256",
          "name": "platformId",
          "type": "uint256"
        },
        {
          "indexed": false,
          "internalType": "string",
          "name": "dataUri",
          "type": "string"
        }
      ],
      "name": "ServiceCreated",
      "type": "event"
    },
    {
      "anonymous": false,
      "inputs": [
        {
          "indexed": true,
          "internalType": "uint256",
          "name": "id",
          "type": "uint256"
        },
        {
          "indexed": false,
          "internalType": "uint256",
          "name": "ownerId",
          "type": "uint256"
        },
        {
          "indexed": false,
          "internalType": "uint256",
          "name": "platformId",
          "type": "uint256"
        },
        {
          "indexed": false,
          "internalType": "string",
          "name": "dataUri",
          "type": "string"
        },
        {
          "indexed": false,
          "internalType": "address",
          "name": "token",
          "type": "address"
        },
        {
          "indexed": false,
          "internalType": "uint256",
          "name": "referralAmount",
          "type": "uint256"
        }
      ],
      "name": "ServiceCreatedWithReferral",
      "type": "event"
    },
    {
      "anonymous": false,
      "inputs": [
        {
          "indexed": true,
          "internalType": "uint256",
          "name": "id",
          "type": "uint256"
        },
        {
          "indexed": false,
          "internalType": "string",
          "name": "dataUri",
          "type": "string"
        }
      ],
      "name": "ServiceDetailedUpdated",
      "type": "event"
    },
    {
      "anonymous": false,
      "inputs": [
        {
          "indexed": true,
          "internalType": "uint256",
          "name": "id",
          "type": "uint256"
        },
        {
          "indexed": false,
          "internalType": "string",
          "name": "dataUri",
          "type": "string"
        },
        {
          "indexed": false,
          "internalType": "uint256",
          "name": "referralAmount",
          "type": "uint256"
        },
        {
          "indexed": false,
          "internalType": "address",
          "name": "token",
          "type": "address"
        }
      ],
      "name": "ServiceUpdated",
      "type": "event"
    },
    {
      "anonymous": false,
      "inputs": [
        {
          "indexed": false,
          "internalType": "address",
          "name": "forwarder",
          "type": "address"
        }
      ],
      "name": "TrustedForwarderAdded",
      "type": "event"
    },
    {
      "anonymous": false,
      "inputs": [
        {
          "indexed": false,
          "internalType": "address",
          "name": "forwarder",
          "type": "address"
        }
      ],
      "name": "TrustedForwarderRemoved",
      "type": "event"
    },
    {
      "anonymous": false,
      "inputs": [
        {
          "indexed": true,
          "internalType": "address",
          "name": "implementation",
          "type": "address"
        }
      ],
      "name": "Upgraded",
      "type": "event"
    },
    {
      "inputs": [],
      "name": "DEFAULT_ADMIN_ROLE",
      "outputs": [
        {
          "internalType": "bytes32",
          "name": "",
          "type": "bytes32"
        }
      ],
      "stateMutability": "view",
      "type": "function"
    },
    {
      "inputs": [],
      "name": "ESCROW_ROLE",
      "outputs": [
        {
          "internalType": "bytes32",
          "name": "",
          "type": "bytes32"
        }
      ],
      "stateMutability": "view",
      "type": "function"
    },
    {
      "inputs": [
        {
          "internalType": "address",
          "name": "_forwarder",
          "type": "address"
        }
      ],
      "name": "addTrustedForwarder",
      "outputs": [],
      "stateMutability": "nonpayable",
      "type": "function"
    },
    {
      "inputs": [
        {
          "internalType": "uint256",
          "name": "_serviceId",
          "type": "uint256"
        },
        {
          "internalType": "uint256",
          "name": "_proposalId",
          "type": "uint256"
        },
        {
          "internalType": "uint256",
          "name": "_transactionId",
          "type": "uint256"
        }
      ],
      "name": "afterDeposit",
      "outputs": [],
      "stateMutability": "nonpayable",
      "type": "function"
    },
    {
      "inputs": [
        {
          "internalType": "uint256",
          "name": "_serviceId",
          "type": "uint256"
        },
        {
          "internalType": "uint256",
          "name": "_releasedAmount",
          "type": "uint256"
        }
      ],
      "name": "afterFullPayment",
      "outputs": [],
      "stateMutability": "nonpayable",
      "type": "function"
    },
    {
      "inputs": [
        {
          "internalType": "address",
          "name": "",
          "type": "address"
        }
      ],
      "name": "allowedTokenList",
      "outputs": [
        {
          "internalType": "bool",
          "name": "isWhitelisted",
          "type": "bool"
        },
        {
          "internalType": "uint256",
          "name": "minimumTransactionAmount",
          "type": "uint256"
        }
      ],
      "stateMutability": "view",
      "type": "function"
    },
    {
      "inputs": [
        {
          "internalType": "uint256",
          "name": "_profileId",
          "type": "uint256"
        },
        {
          "internalType": "uint256",
          "name": "_serviceId",
          "type": "uint256"
        }
      ],
      "name": "cancelService",
      "outputs": [],
      "stateMutability": "nonpayable",
      "type": "function"
    },
    {
      "inputs": [
        {
          "internalType": "uint256",
          "name": "_profileId",
          "type": "uint256"
        },
        {
          "internalType": "uint256",
          "name": "_serviceId",
          "type": "uint256"
        },
        {
          "internalType": "uint256",
          "name": "_rateAmount",
          "type": "uint256"
        },
        {
          "internalType": "uint256",
          "name": "_platformId",
          "type": "uint256"
        },
        {
          "internalType": "string",
          "name": "_dataUri",
          "type": "string"
        },
        {
          "internalType": "uint256",
          "name": "_expirationDate",
          "type": "uint256"
        },
        {
          "internalType": "bytes",
          "name": "_signature",
          "type": "bytes"
        }
      ],
      "name": "createProposal",
      "outputs": [],
      "stateMutability": "payable",
      "type": "function"
    },
    {
      "inputs": [
        {
          "internalType": "uint256",
          "name": "_profileId",
          "type": "uint256"
        },
        {
          "internalType": "uint256",
          "name": "_platformId",
          "type": "uint256"
        },
        {
          "internalType": "string",
          "name": "_dataUri",
          "type": "string"
        },
        {
          "internalType": "bytes",
          "name": "_signature",
          "type": "bytes"
        },
        {
          "internalType": "address",
          "name": "_token",
          "type": "address"
        }
      ],
      "name": "createService",
      "outputs": [
        {
          "internalType": "uint256",
          "name": "",
          "type": "uint256"
        }
      ],
      "stateMutability": "payable",
      "type": "function"
    },
    {
      "inputs": [
        {
          "internalType": "uint256",
          "name": "_profileId",
          "type": "uint256"
        },
        {
          "internalType": "uint256",
          "name": "_platformId",
          "type": "uint256"
        },
        {
          "internalType": "string",
          "name": "_dataUri",
          "type": "string"
        },
        {
          "internalType": "bytes",
          "name": "_signature",
          "type": "bytes"
        },
        {
          "internalType": "address",
          "name": "_token",
          "type": "address"
        },
        {
          "internalType": "uint256",
          "name": "_referralAmount",
          "type": "uint256"
        }
      ],
      "name": "createServiceWithReferral",
      "outputs": [
        {
          "internalType": "uint256",
          "name": "",
          "type": "uint256"
        }
      ],
      "stateMutability": "payable",
      "type": "function"
    },
    {
      "inputs": [
        {
          "internalType": "uint256",
          "name": "_serviceId",
          "type": "uint256"
        },
        {
          "internalType": "uint256",
          "name": "_proposalId",
          "type": "uint256"
        }
      ],
      "name": "getProposal",
      "outputs": [
        {
          "components": [
            {
              "internalType": "enum TalentLayerService.ProposalStatus",
              "name": "status",
              "type": "uint8"
            },
            {
              "internalType": "uint256",
              "name": "ownerId",
              "type": "uint256"
            },
            {
              "internalType": "address",
              "name": "rateToken",
              "type": "address"
            },
            {
              "internalType": "uint256",
              "name": "rateAmount",
              "type": "uint256"
            },
            {
              "internalType": "uint256",
              "name": "platformId",
              "type": "uint256"
            },
            {
              "internalType": "string",
              "name": "dataUri",
              "type": "string"
            },
            {
              "internalType": "uint256",
              "name": "expirationDate",
              "type": "uint256"
            }
          ],
          "internalType": "struct TalentLayerService.Proposal",
          "name": "",
          "type": "tuple"
        }
      ],
      "stateMutability": "view",
      "type": "function"
    },
    {
      "inputs": [
        {
          "internalType": "bytes32",
          "name": "role",
          "type": "bytes32"
        }
      ],
      "name": "getRoleAdmin",
      "outputs": [
        {
          "internalType": "bytes32",
          "name": "",
          "type": "bytes32"
        }
      ],
      "stateMutability": "view",
      "type": "function"
    },
    {
      "inputs": [
        {
          "internalType": "uint256",
          "name": "_serviceId",
          "type": "uint256"
        }
      ],
      "name": "getService",
      "outputs": [
        {
          "components": [
            {
              "internalType": "enum TalentLayerService.Status",
              "name": "status",
              "type": "uint8"
            },
            {
              "internalType": "uint256",
              "name": "ownerId",
              "type": "uint256"
            },
            {
              "internalType": "uint256",
              "name": "acceptedProposalId",
              "type": "uint256"
            },
            {
              "internalType": "string",
              "name": "dataUri",
              "type": "string"
            },
            {
              "internalType": "uint256",
              "name": "transactionId",
              "type": "uint256"
            },
            {
              "internalType": "uint256",
              "name": "platformId",
              "type": "uint256"
            },
            {
              "internalType": "address",
              "name": "token",
              "type": "address"
            },
            {
              "internalType": "uint256",
              "name": "referralAmount",
              "type": "uint256"
            }
          ],
          "internalType": "struct TalentLayerService.Service",
          "name": "",
          "type": "tuple"
        }
      ],
      "stateMutability": "view",
      "type": "function"
    },
    {
      "inputs": [
        {
          "internalType": "uint256",
          "name": "_serviceId",
          "type": "uint256"
        },
        {
          "internalType": "uint256",
          "name": "_proposalId",
          "type": "uint256"
        }
      ],
      "name": "getServiceAndProposal",
      "outputs": [
        {
          "components": [
            {
              "internalType": "enum TalentLayerService.Status",
              "name": "status",
              "type": "uint8"
            },
            {
              "internalType": "uint256",
              "name": "ownerId",
              "type": "uint256"
            },
            {
              "internalType": "uint256",
              "name": "acceptedProposalId",
              "type": "uint256"
            },
            {
              "internalType": "string",
              "name": "dataUri",
              "type": "string"
            },
            {
              "internalType": "uint256",
              "name": "transactionId",
              "type": "uint256"
            },
            {
              "internalType": "uint256",
              "name": "platformId",
              "type": "uint256"
            },
            {
              "internalType": "address",
              "name": "token",
              "type": "address"
            },
            {
              "internalType": "uint256",
              "name": "referralAmount",
              "type": "uint256"
            }
          ],
          "internalType": "struct TalentLayerService.Service",
          "name": "",
          "type": "tuple"
        },
        {
          "components": [
            {
              "internalType": "enum TalentLayerService.ProposalStatus",
              "name": "status",
              "type": "uint8"
            },
            {
              "internalType": "uint256",
              "name": "ownerId",
              "type": "uint256"
            },
            {
              "internalType": "address",
              "name": "rateToken",
              "type": "address"
            },
            {
              "internalType": "uint256",
              "name": "rateAmount",
              "type": "uint256"
            },
            {
              "internalType": "uint256",
              "name": "platformId",
              "type": "uint256"
            },
            {
              "internalType": "string",
              "name": "dataUri",
              "type": "string"
            },
            {
              "internalType": "uint256",
              "name": "expirationDate",
              "type": "uint256"
            }
          ],
          "internalType": "struct TalentLayerService.Proposal",
          "name": "",
          "type": "tuple"
        }
      ],
      "stateMutability": "view",
      "type": "function"
    },
    {
      "inputs": [
        {
          "internalType": "bytes32",
          "name": "role",
          "type": "bytes32"
        },
        {
          "internalType": "address",
          "name": "account",
          "type": "address"
        }
      ],
      "name": "grantRole",
      "outputs": [],
      "stateMutability": "nonpayable",
      "type": "function"
    },
    {
      "inputs": [
        {
          "internalType": "bytes32",
          "name": "role",
          "type": "bytes32"
        },
        {
          "internalType": "address",
          "name": "account",
          "type": "address"
        }
      ],
      "name": "hasRole",
      "outputs": [
        {
          "internalType": "bool",
          "name": "",
          "type": "bool"
        }
      ],
      "stateMutability": "view",
      "type": "function"
    },
    {
      "inputs": [
        {
          "internalType": "address",
          "name": "_talentLayerIdAddress",
          "type": "address"
        },
        {
          "internalType": "address",
          "name": "_talentLayerPlatformIdAddress",
          "type": "address"
        }
      ],
      "name": "initialize",
      "outputs": [],
      "stateMutability": "nonpayable",
      "type": "function"
    },
    {
      "inputs": [
        {
          "internalType": "address",
          "name": "_tokenAddress",
          "type": "address"
        }
      ],
      "name": "isTokenAllowed",
      "outputs": [
        {
          "internalType": "bool",
          "name": "",
          "type": "bool"
        }
      ],
      "stateMutability": "view",
      "type": "function"
    },
    {
      "inputs": [
        {
          "internalType": "address",
          "name": "forwarder",
          "type": "address"
        }
      ],
      "name": "isTrustedForwarder",
      "outputs": [
        {
          "internalType": "bool",
          "name": "",
          "type": "bool"
        }
      ],
      "stateMutability": "view",
      "type": "function"
    },
    {
      "inputs": [],
      "name": "minCompletionPercentage",
      "outputs": [
        {
          "internalType": "uint256",
          "name": "",
          "type": "uint256"
        }
      ],
      "stateMutability": "view",
      "type": "function"
    },
    {
      "inputs": [],
      "name": "nextServiceId",
      "outputs": [
        {
          "internalType": "uint256",
          "name": "",
          "type": "uint256"
        }
      ],
      "stateMutability": "view",
      "type": "function"
    },
    {
      "inputs": [],
      "name": "owner",
      "outputs": [
        {
          "internalType": "address",
          "name": "",
          "type": "address"
        }
      ],
      "stateMutability": "view",
      "type": "function"
    },
    {
      "inputs": [
        {
          "internalType": "uint256",
          "name": "",
          "type": "uint256"
        }
      ],
      "name": "proposalNonce",
      "outputs": [
        {
          "internalType": "uint256",
          "name": "",
          "type": "uint256"
        }
      ],
      "stateMutability": "view",
      "type": "function"
    },
    {
      "inputs": [
        {
          "internalType": "uint256",
          "name": "",
          "type": "uint256"
        },
        {
          "internalType": "uint256",
          "name": "",
          "type": "uint256"
        }
      ],
      "name": "proposals",
      "outputs": [
        {
          "internalType": "enum TalentLayerService.ProposalStatus",
          "name": "status",
          "type": "uint8"
        },
        {
          "internalType": "uint256",
          "name": "ownerId",
          "type": "uint256"
        },
        {
          "internalType": "address",
          "name": "rateToken",
          "type": "address"
        },
        {
          "internalType": "uint256",
          "name": "rateAmount",
          "type": "uint256"
        },
        {
          "internalType": "uint256",
          "name": "platformId",
          "type": "uint256"
        },
        {
          "internalType": "string",
          "name": "dataUri",
          "type": "string"
        },
        {
          "internalType": "uint256",
          "name": "expirationDate",
          "type": "uint256"
        }
      ],
      "stateMutability": "view",
      "type": "function"
    },
    {
      "inputs": [],
      "name": "proxiableUUID",
      "outputs": [
        {
          "internalType": "bytes32",
          "name": "",
          "type": "bytes32"
        }
      ],
      "stateMutability": "view",
      "type": "function"
    },
    {
      "inputs": [
        {
          "internalType": "address",
          "name": "_forwarder",
          "type": "address"
        }
      ],
      "name": "removeTrustedForwarder",
      "outputs": [],
      "stateMutability": "nonpayable",
      "type": "function"
    },
    {
      "inputs": [],
      "name": "renounceOwnership",
      "outputs": [],
      "stateMutability": "nonpayable",
      "type": "function"
    },
    {
      "inputs": [
        {
          "internalType": "bytes32",
          "name": "role",
          "type": "bytes32"
        },
        {
          "internalType": "address",
          "name": "account",
          "type": "address"
        }
      ],
      "name": "renounceRole",
      "outputs": [],
      "stateMutability": "nonpayable",
      "type": "function"
    },
    {
      "inputs": [
        {
          "internalType": "bytes32",
          "name": "role",
          "type": "bytes32"
        },
        {
          "internalType": "address",
          "name": "account",
          "type": "address"
        }
      ],
      "name": "revokeRole",
      "outputs": [],
      "stateMutability": "nonpayable",
      "type": "function"
    },
    {
      "inputs": [
        {
          "internalType": "uint256",
          "name": "",
          "type": "uint256"
        }
      ],
      "name": "serviceNonce",
      "outputs": [
        {
          "internalType": "uint256",
          "name": "",
          "type": "uint256"
        }
      ],
      "stateMutability": "view",
      "type": "function"
    },
    {
      "inputs": [
        {
          "internalType": "uint256",
          "name": "",
          "type": "uint256"
        }
      ],
      "name": "services",
      "outputs": [
        {
          "internalType": "enum TalentLayerService.Status",
          "name": "status",
          "type": "uint8"
        },
        {
          "internalType": "uint256",
          "name": "ownerId",
          "type": "uint256"
        },
        {
          "internalType": "uint256",
          "name": "acceptedProposalId",
          "type": "uint256"
        },
        {
          "internalType": "string",
          "name": "dataUri",
          "type": "string"
        },
        {
          "internalType": "uint256",
          "name": "transactionId",
          "type": "uint256"
        },
        {
          "internalType": "uint256",
          "name": "platformId",
          "type": "uint256"
        },
        {
          "internalType": "address",
          "name": "token",
          "type": "address"
        },
        {
          "internalType": "uint256",
          "name": "referralAmount",
          "type": "uint256"
        }
      ],
      "stateMutability": "view",
      "type": "function"
    },
    {
      "inputs": [
        {
          "internalType": "bytes4",
          "name": "interfaceId",
          "type": "bytes4"
        }
      ],
      "name": "supportsInterface",
      "outputs": [
        {
          "internalType": "bool",
          "name": "",
          "type": "bool"
        }
      ],
      "stateMutability": "view",
      "type": "function"
    },
    {
      "inputs": [],
      "name": "talentLayerPlatformIdContract",
      "outputs": [
        {
          "internalType": "contract ITalentLayerPlatformID",
          "name": "",
          "type": "address"
        }
      ],
      "stateMutability": "view",
      "type": "function"
    },
    {
      "inputs": [
        {
          "internalType": "address",
          "name": "newOwner",
          "type": "address"
        }
      ],
      "name": "transferOwnership",
      "outputs": [],
      "stateMutability": "nonpayable",
      "type": "function"
    },
    {
      "inputs": [
        {
          "internalType": "address",
          "name": "_tokenAddress",
          "type": "address"
        },
        {
          "internalType": "bool",
          "name": "_isWhitelisted",
          "type": "bool"
        },
        {
          "internalType": "uint256",
          "name": "_minimumTransactionAmount",
          "type": "uint256"
        }
      ],
      "name": "updateAllowedTokenList",
      "outputs": [],
      "stateMutability": "nonpayable",
      "type": "function"
    },
    {
      "inputs": [
        {
          "internalType": "uint256",
          "name": "_minCompletionPercentage",
          "type": "uint256"
        }
      ],
      "name": "updateMinCompletionPercentage",
      "outputs": [],
      "stateMutability": "nonpayable",
      "type": "function"
    },
    {
      "inputs": [
        {
          "internalType": "uint256",
          "name": "_profileId",
          "type": "uint256"
        },
        {
          "internalType": "uint256",
          "name": "_serviceId",
          "type": "uint256"
        },
        {
          "internalType": "uint256",
          "name": "_rateAmount",
          "type": "uint256"
        },
        {
          "internalType": "string",
          "name": "_dataUri",
          "type": "string"
        },
        {
          "internalType": "uint256",
          "name": "_expirationDate",
          "type": "uint256"
        }
      ],
      "name": "updateProposal",
      "outputs": [],
      "stateMutability": "nonpayable",
      "type": "function"
    },
    {
      "inputs": [
        {
          "internalType": "uint256",
          "name": "_profileId",
          "type": "uint256"
        },
        {
          "internalType": "uint256",
          "name": "_serviceId",
          "type": "uint256"
        },
        {
          "internalType": "uint256",
          "name": "_referralAmount",
          "type": "uint256"
        },
        {
          "internalType": "address",
          "name": "_token",
          "type": "address"
        },
        {
          "internalType": "string",
          "name": "_dataUri",
          "type": "string"
        }
      ],
      "name": "updateService",
      "outputs": [],
      "stateMutability": "nonpayable",
      "type": "function"
    },
    {
      "inputs": [
        {
          "internalType": "address",
          "name": "newImplementation",
          "type": "address"
        }
      ],
      "name": "upgradeTo",
      "outputs": [],
      "stateMutability": "nonpayable",
      "type": "function"
    },
    {
      "inputs": [
        {
          "internalType": "address",
          "name": "newImplementation",
          "type": "address"
        },
        {
          "internalType": "bytes",
          "name": "data",
          "type": "bytes"
        }
      ],
      "name": "upgradeToAndCall",
      "outputs": [],
      "stateMutability": "payable",
      "type": "function"
    }
  ],
  "bytecode": "0x60a0604052306080523480156200001557600080fd5b506200002062000026565b620000e8565b600054610100900460ff1615620000935760405162461bcd60e51b815260206004820152602760248201527f496e697469616c697a61626c653a20636f6e747261637420697320696e697469604482015266616c697a696e6760c81b606482015260840160405180910390fd5b60005460ff9081161015620000e6576000805460ff191660ff9081179091556040519081527f7f26b83ff96e1f2b6a682f133852f6798a09c465da95921460cefb38474024989060200160405180910390a15b565b6080516146076200012060003960008181610ff001528181611030015281816112e70152818161132701526113b601526146076000f3fe60806040526004361061023b5760003560e01c8063715018a61161012e578063c2cfee27116100ab578063ef0e239b1161006f578063ef0e239b1461074b578063f2fde38b14610778578063f6c53d9b14610798578063f79a94de146107af578063f9eaee0d146107cf57600080fd5b8063c2cfee2714610689578063ccaa7d2a146106bc578063d4eee1fc146106ea578063d547741f14610718578063ec3a05b81461073857600080fd5b8063a217fddf116100f2578063a217fddf146105d3578063a7d5eaea146105e8578063aba2100914610608578063b5735c1e14610635578063c22c4f431461065557600080fd5b8063715018a61461050e57806371da85f9146105235780637c5a72cd146105755780638da5cb5b1461059557806391d14854146105b357600080fd5b806336568abe116101bc5780634f1ef286116101805780634f1ef2861461045957806352d1902d1461046c578063572b6c05146104815780635cdb8435146104ba5780636ce76f30146104da57600080fd5b806336568abe146103b95780633659cfe6146103d95780633751d89c146103f95780633ca2ad6f14610419578063485cc9551461043957600080fd5b8063248a9ca311610203578063248a9ca31461032357806326d006681461035357806328d3c4fe146103735780632b6f2869146103865780632f2ff15d1461039957600080fd5b806301ffc9a714610240578063089b7c73146102755780631499f9e614610297578063156b39aa146102d05780631db087ff146102f5575b600080fd5b34801561024c57600080fd5b5061026061025b366004613736565b610809565b60405190151581526020015b60405180910390f35b34801561028157600080fd5b50610295610290366004613760565b610840565b005b3480156102a357600080fd5b50610130546102b8906001600160a01b031681565b6040516001600160a01b03909116815260200161026c565b3480156102dc57600080fd5b506102e76101365481565b60405190815260200161026c565b34801561030157600080fd5b506102e7610310366004613782565b6101336020526000908152604090205481565b34801561032f57600080fd5b506102e761033e366004613782565b600090815260fc602052604090206001015490565b34801561035f57600080fd5b5061029561036e3660046137b0565b6109e3565b6102e761038136600461380f565b610a46565b6102956103943660046138a6565b610c65565b3480156103a557600080fd5b506102956103b4366004613948565b610f2e565b3480156103c557600080fd5b506102956103d4366004613948565b610f58565b3480156103e557600080fd5b506102956103f43660046137b0565b610fe6565b34801561040557600080fd5b506102956104143660046137b0565b6110c5565b34801561042557600080fd5b50610295610434366004613782565b61111e565b34801561044557600080fd5b50610295610454366004613978565b611166565b6102956104673660046139bc565b6112dd565b34801561047857600080fd5b506102e76113a9565b34801561048d57600080fd5b5061026061049c3660046137b0565b6001600160a01b031660009081526065602052604090205460ff1690565b3480156104c657600080fd5b506102956104d5366004613a80565b61145c565b3480156104e657600080fd5b506102e77f2fdac322ee704ce09f0773f7f3f92eb98d5e7c836ee9c056cccd5f61041e5e3f81565b34801561051a57600080fd5b506102956116ad565b34801561052f57600080fd5b5061055e61053e3660046137b0565b610135602052600090815260409020805460019091015460ff9091169082565b60408051921515835260208301919091520161026c565b34801561058157600080fd5b50610295610590366004613b01565b6116c1565b3480156105a157600080fd5b506033546001600160a01b03166102b8565b3480156105bf57600080fd5b506102606105ce366004613948565b611796565b3480156105df57600080fd5b506102e7600081565b3480156105f457600080fd5b50610295610603366004613b42565b6117c1565b34801561061457600080fd5b50610628610623366004613760565b611843565b60405161026c9190613c52565b34801561064157600080fd5b50610295610650366004613760565b611975565b34801561066157600080fd5b50610675610670366004613782565b611a1a565b60405161026c989796959493929190613c75565b34801561069557600080fd5b506106a96106a4366004613760565b611af7565b60405161026c9796959493929190613cd3565b3480156106c857600080fd5b506102e76106d7366004613782565b6101346020526000908152604090205481565b3480156106f657600080fd5b5061070a610705366004613760565b611bd8565b60405161026c929190613d9f565b34801561072457600080fd5b50610295610733366004613948565b611e44565b6102e7610746366004613dc4565b611e69565b34801561075757600080fd5b5061076b610766366004613782565b612093565b60405161026c9190613e64565b34801561078457600080fd5b506102956107933660046137b0565b612213565b3480156107a457600080fd5b506102e761012e5481565b3480156107bb57600080fd5b506102956107ca366004613e77565b612289565b3480156107db57600080fd5b506102606107ea3660046137b0565b6001600160a01b03166000908152610135602052604090205460ff1690565b60006001600160e01b03198216637965db0b60e01b148061083a57506301ffc9a760e01b6001600160e01b03198316145b92915050565b61012f5482906001600160a01b0316632fa117e58261085d612534565b6040516001600160e01b031960e085901b16815260048101929092526001600160a01b03166024820152604401602060405180830381865afa1580156108a7573d6000803e3d6000fd5b505050506040513d601f19601f820116820180604052508101906108cb9190613ee0565b6108f05760405162461bcd60e51b81526004016108e790613efd565b60405180910390fd5b600082815261013160205260409020600181015484146109425760405162461bcd60e51b815260206004820152600d60248201526c3737ba103a34329037bbb732b960991b60448201526064016108e7565b6000815460ff16600481111561095a5761095a613b6e565b1461099f5760405162461bcd60e51b81526020600482015260156024820152741cdd185d1d5cc81b5d5cdd081899481bdc195b9959605a1b60448201526064016108e7565b805460ff191660031781556040518381527f853aa4be1ac86f37acfc91d42b57f1fe895205aa6f8f9b7caa77ca257049ab1a9060200160405180910390a150505050565b6109eb612543565b6001600160a01b038116600081815260656020908152604091829020805460ff1916600117905590519182527f3ef8564460ada92419608d823c014975d98f8104d7d1e68c222967ac6814cd9791015b60405180910390a150565b61012f5460009088906001600160a01b0316632fa117e582610a66612534565b6040516001600160e01b031960e085901b16815260048101929092526001600160a01b03166024820152604401602060405180830381865afa158015610ab0573d6000803e3d6000fd5b505050506040513d601f19601f82011682018060405250810190610ad49190613ee0565b610af05760405162461bcd60e51b81526004016108e790613efd565b610aff898989898989896125bc565b61012e80549081906000610b1283613f42565b9091555050600081815261013160205260409020805460ff19168155600181018b905560038101610b44898b83613fdb565b50600581018a90556006810180546001600160a01b0319166001600160a01b03871617905560008b81526101336020526040902054158015610b93575060008b81526101346020526040902054155b15610bf85761012f546040516383ce205b60e01b8152600481018d90526001600160a01b03909116906383ce205b90602401600060405180830381600087803b158015610bdf57600080fd5b505af1158015610bf3573d6000803e3d6000fd5b505050505b60008b815261013360205260408120805491610c1383613f42565b91905055507f8f3fc1086abc1020f602edd700a9ae5801b250c9d110af9e54022d7cc5df7bee828c8c8c8c604051610c4f9594939291906140c5565b60405180910390a1509998505050505050505050565b61012f5489906001600160a01b0316632fa117e582610c82612534565b6040516001600160e01b031960e085901b16815260048101929092526001600160a01b03166024820152604401602060405180830381865afa158015610ccc573d6000803e3d6000fd5b505050506040513d601f19601f82011682018060405250810190610cf09190613ee0565b610d0c5760405162461bcd60e51b81526004016108e790613efd565b610d1c8a8a8a8a8a8a89896127c5565b6040805160e0810190915280600081526020018b815260200160006001600160a01b0316815260200189815260200188815260200187878080601f016020809104026020016040519081016040528093929190818152602001838380828437600092018290525093855250505060209182018790528b8152610132825260408082208e83529092522081518154829060ff191660018381811115610dc257610dc2613b6e565b02179055506020820151600182015560408201516002820180546001600160a01b0319166001600160a01b03909216919091179055606082015160038201556080820151600482015560a08201516005820190610e1f90826140f6565b5060c0919091015160069091015560008a81526101336020526040902054158015610e57575060008a81526101346020526040902054155b15610ebc5761012f546040516383ce205b60e01b8152600481018c90526001600160a01b03909116906383ce205b90602401600060405180830381600087803b158015610ea357600080fd5b505af1158015610eb7573d6000803e3d6000fd5b505050505b60008a815261013460205260408120805491610ed783613f42565b91905055507fbe7aaac45c07bf560c3fb6792f172025d307c747aa45dae4cf1be47ffce964b1898b888860008d8d8b604051610f1a9897969594939291906141b6565b60405180910390a150505050505050505050565b600082815260fc6020526040902060010154610f4981612b3a565b610f538383612b4b565b505050565b610f60612534565b6001600160a01b0316816001600160a01b031614610fd85760405162461bcd60e51b815260206004820152602f60248201527f416363657373436f6e74726f6c3a2063616e206f6e6c792072656e6f756e636560448201526e103937b632b9903337b91039b2b63360891b60648201526084016108e7565b610fe28282612bd2565b5050565b6001600160a01b037f000000000000000000000000000000000000000000000000000000000000000016300361102e5760405162461bcd60e51b81526004016108e790614204565b7f00000000000000000000000000000000000000000000000000000000000000006001600160a01b031661107760008051602061458b833981519152546001600160a01b031690565b6001600160a01b03161461109d5760405162461bcd60e51b81526004016108e790614250565b6110a681612c57565b604080516000808252602082019092526110c291839190612c5f565b50565b6110cd612543565b6001600160a01b038116600081815260656020908152604091829020805460ff1916905590519182527fd2d636efcad0cea42e170256f4c5d8b1cd81e47b855557edaf44014e6cc4cee69101610a3b565b600061112981612b3a565b6101368290556040518281527f577d7afcf67637a2f602cba220bbb292c1d715380dd011bfec748c3f641b2fd29060200160405180910390a15050565b600054610100900460ff16158080156111865750600054600160ff909116105b806111a05750303b1580156111a0575060005460ff166001145b6112035760405162461bcd60e51b815260206004820152602e60248201527f496e697469616c697a61626c653a20636f6e747261637420697320616c72656160448201526d191e481a5b9a5d1a585b1a5e995960921b60648201526084016108e7565b6000805460ff191660011790558015611226576000805461ff0019166101001790555b61122e612dca565b611236612df9565b61123e612df9565b611250600061124b612534565b612e20565b61012f80546001600160a01b038086166001600160a01b031992831617909255610130805492851692909116919091179055600161012e55611292601e61111e565b8015610f53576000805461ff0019169055604051600181527f7f26b83ff96e1f2b6a682f133852f6798a09c465da95921460cefb3847402498906020015b60405180910390a1505050565b6001600160a01b037f00000000000000000000000000000000000000000000000000000000000000001630036113255760405162461bcd60e51b81526004016108e790614204565b7f00000000000000000000000000000000000000000000000000000000000000006001600160a01b031661136e60008051602061458b833981519152546001600160a01b031690565b6001600160a01b0316146113945760405162461bcd60e51b81526004016108e790614250565b61139d82612c57565b610fe282826001612c5f565b6000306001600160a01b037f000000000000000000000000000000000000000000000000000000000000000016146114495760405162461bcd60e51b815260206004820152603860248201527f555550535570677261646561626c653a206d757374206e6f742062652063616c60448201527f6c6564207468726f7567682064656c656761746563616c6c000000000000000060648201526084016108e7565b5060008051602061458b83398151915290565b61012f5486906001600160a01b0316632fa117e582611479612534565b6040516001600160e01b031960e085901b16815260048101929092526001600160a01b03166024820152604401602060405180830381865afa1580156114c3573d6000803e3d6000fd5b505050506040513d601f19601f820116820180604052508101906114e79190613ee0565b6115035760405162461bcd60e51b81526004016108e790613efd565b600086815261013160205260409020600181015488146115555760405162461bcd60e51b815260206004820152600d60248201526c2737ba103a34329037bbb732b960991b60448201526064016108e7565b6000815460ff16600481111561156d5761156d613b6e565b146115b25760405162461bcd60e51b81526020600482015260156024820152741cdd185d1d5cc81b5d5cdd081899481bdc195b9959605a1b60448201526064016108e7565b6001600160a01b0385166000908152610135602052604090205460ff1661160f5760405162461bcd60e51b8152602060048201526011602482015270151bdad95b881b9bdd08185b1b1bddd959607a1b60448201526064016108e7565b602e831461162f5760405162461bcd60e51b81526004016108e79061429c565b6003810161163e848683613fdb565b50600781018690556006810180546001600160a01b0319166001600160a01b03871617905560405187907f28fa829815f1b7211c44ade0050d3930f8833364c2ae0c18d77bedc2ced9c3ab9061169b90879087908b908b906142c1565b60405180910390a25050505050505050565b6116b5612543565b6116bf6000612e2a565b565b6116c9612543565b6001600160a01b0383161580156116de575081155b1561172b5760405162461bcd60e51b815260206004820152601d60248201527f4f776e65722063616e27742072656d6f7665204f78206164647265737300000060448201526064016108e7565b6001600160a01b03831660008181526101356020908152604091829020805460ff19168615159081178255600190910185905582519384529083015281018290527f42b585a1da1cff4b571e7a78aea1b4601b1d128de41a0feebd8a77aaf48b9d88906060016112d0565b600091825260fc602090815260408084206001600160a01b0393909316845291905290205460ff1690565b7f2fdac322ee704ce09f0773f7f3f92eb98d5e7c836ee9c056cccd5f61041e5e3f6117eb81612b3a565b60008481526101316020908152604080832061013283528184208785529092529091208154600160ff1991821681178455808301546002850155600484018690558254909183911682805b0217905550505050505050565b61184b6136a0565b60008381526101326020908152604080832085845290915290819020815160e081019092528054829060ff16600181111561188857611888613b6e565b600181111561189957611899613b6e565b81526001820154602082015260028201546001600160a01b03166040820152600382015460608201526004820154608082015260058201805460a0909201916118e190613f5b565b80601f016020809104026020016040519081016040528092919081815260200182805461190d90613f5b565b801561195a5780601f1061192f5761010080835404028352916020019161195a565b820191906000526020600020905b81548152906001019060200180831161193d57829003601f168201915b50505050508152602001600682015481525050905092915050565b7f2fdac322ee704ce09f0773f7f3f92eb98d5e7c836ee9c056cccd5f61041e5e3f61199f81612b3a565b60008381526101316020908152604080832061013283528184206002820154855290925282206003810154919290916119d98660646142f6565b6119e3919061430d565b90506101365481106119ff57825460ff19166002178355611a12565b8254600490849060ff1916600183611836565b505050505050565b61013160205260009081526040902080546001820154600283015460038401805460ff909416949293919291611a4f90613f5b565b80601f0160208091040260200160405190810160405280929190818152602001828054611a7b90613f5b565b8015611ac85780601f10611a9d57610100808354040283529160200191611ac8565b820191906000526020600020905b815481529060010190602001808311611aab57829003601f168201915b505050600484015460058501546006860154600790960154949591949093506001600160a01b03909116915088565b61013260209081526000928352604080842090915290825290208054600182015460028301546003840154600485015460058601805460ff9096169694956001600160a01b03909416949293919291611b4f90613f5b565b80601f0160208091040260200160405190810160405280929190818152602001828054611b7b90613f5b565b8015611bc85780601f10611b9d57610100808354040283529160200191611bc8565b820191906000526020600020905b815481529060010190602001808311611bab57829003601f168201915b5050505050908060060154905087565b611be06136e7565b611be86136a0565b60008481526101316020526040808220815161010081019092528054829060ff166004811115611c1a57611c1a613b6e565b6004811115611c2b57611c2b613b6e565b81526020016001820154815260200160028201548152602001600382018054611c5390613f5b565b80601f0160208091040260200160405190810160405280929190818152602001828054611c7f90613f5b565b8015611ccc5780601f10611ca157610100808354040283529160200191611ccc565b820191906000526020600020905b815481529060010190602001808311611caf57829003601f168201915b50505091835250506004820154602080830191909152600583015460408084019190915260068401546001600160a01b0316606084015260079093015460809092019190915260008881526101328252828120888252909152818120825160e0810190935280549394509092829060ff166001811115611d4e57611d4e613b6e565b6001811115611d5f57611d5f613b6e565b81526001820154602082015260028201546001600160a01b03166040820152600382015460608201526004820154608082015260058201805460a090920191611da790613f5b565b80601f0160208091040260200160405190810160405280929190818152602001828054611dd390613f5b565b8015611e205780601f10611df557610100808354040283529160200191611e20565b820191906000526020600020905b815481529060010190602001808311611e0357829003601f168201915b505050918352505060069190910154602090910152919350909150505b9250929050565b600082815260fc6020526040902060010154611e5f81612b3a565b610f538383612bd2565b61012f5460009089906001600160a01b0316632fa117e582611e89612534565b6040516001600160e01b031960e085901b16815260048101929092526001600160a01b03166024820152604401602060405180830381865afa158015611ed3573d6000803e3d6000fd5b505050506040513d601f19601f82011682018060405250810190611ef79190613ee0565b611f135760405162461bcd60e51b81526004016108e790613efd565b611f228a8a8a8a8a8a8a6125bc565b61012e80549081906000611f3583613f42565b9091555050600081815261013160205260409020805460ff19168155600181018c905560038101611f678a8c83613fdb565b50600581018b90556006810180546001600160a01b0319166001600160a01b0388161790556007810185905560008c81526101336020526040902054158015611fbd575060008c81526101346020526040902054155b156120225761012f546040516383ce205b60e01b8152600481018e90526001600160a01b03909116906383ce205b90602401600060405180830381600087803b15801561200957600080fd5b505af115801561201d573d6000803e3d6000fd5b505050505b60008c81526101336020526040812080549161203d83613f42565b9190505550817fd81631c5278947e7578ace67882f6a38af2d7e2fb4530b4b659c8e1cf1fe44728d8d8d8d8b8b60405161207c9695949392919061432f565b60405180910390a2509a9950505050505050505050565b61209b6136e7565b61012e5482106120ed5760405162461bcd60e51b815260206004820152601a60248201527f54686973207365727669636520646f65736e277420657869737400000000000060448201526064016108e7565b6000828152610131602052604090819020815161010081019092528054829060ff16600481111561212057612120613b6e565b600481111561213157612131613b6e565b8152602001600182015481526020016002820154815260200160038201805461215990613f5b565b80601f016020809104026020016040519081016040528092919081815260200182805461218590613f5b565b80156121d25780601f106121a7576101008083540402835291602001916121d2565b820191906000526020600020905b8154815290600101906020018083116121b557829003601f168201915b5050509183525050600482015460208201526005820154604082015260068201546001600160a01b0316606082015260079091015460809091015292915050565b61221b612543565b6001600160a01b0381166122805760405162461bcd60e51b815260206004820152602660248201527f4f776e61626c653a206e6577206f776e657220697320746865207a65726f206160448201526564647265737360d01b60648201526084016108e7565b6110c281612e2a565b61012f5486906001600160a01b0316632fa117e5826122a6612534565b6040516001600160e01b031960e085901b16815260048101929092526001600160a01b03166024820152604401602060405180830381865afa1580156122f0573d6000803e3d6000fd5b505050506040513d601f19601f820116820180604052508101906123149190613ee0565b6123305760405162461bcd60e51b81526004016108e790613efd565b60008681526101316020908152604080832061013283528184208b855290925282209091825460ff16600481111561236a5761236a613b6e565b146123ac5760405162461bcd60e51b815260206004820152601260248201527114d95c9d9a58d9481b9bdd081bdc195b995960721b60448201526064016108e7565b888160010154146123ef5760405162461bcd60e51b815260206004820152600d60248201526c2737ba103a34329037bbb732b960991b60448201526064016108e7565b602e851461240f5760405162461bcd60e51b81526004016108e79061429c565b6001815460ff16600181111561242757612427613b6e565b036124685760405162461bcd60e51b8152602060048201526011602482015270105b1c9958591e481d985b1a59185d1959607a1b60448201526064016108e7565b60068201546001600160a01b0316600090815261013560205260409020600101548710156124c95760405162461bcd60e51b815260206004820152600e60248201526d416d6f756e7420746f6f206c6f7760901b60448201526064016108e7565b60038101879055600581016124df868883613fdb565b50600681018490556040517f38a80921750dac60e35cf0125f427044847170fc3976394423f1f3ef5db9b1f690612521908a908c908a908a908d908b9061436d565b60405180910390a1505050505050505050565b600061253e612e7c565b905090565b61254b612534565b6001600160a01b03166125666033546001600160a01b031690565b6001600160a01b0316146116bf5760405162461bcd60e51b815260206004820181905260248201527f4f776e61626c653a2063616c6c6572206973206e6f7420746865206f776e657260448201526064016108e7565b61013054604051638a98636360e01b8152600481018890526000916001600160a01b031690638a98636390602401602060405180830381865afa158015612607573d6000803e3d6000fd5b505050506040513d601f19601f8201168201806040525081019061262b91906143a2565b90508034146126715760405162461bcd60e51b81526020600482015260126024820152714e6f6e2d6d61746368696e672066756e647360701b60448201526064016108e7565b602e85146126915760405162461bcd60e51b81526004016108e79061429c565b6001600160a01b0382166000908152610135602052604090205460ff166126ee5760405162461bcd60e51b8152602060048201526011602482015270151bdad95b881b9bdd08185b1b1bddd959607a1b60448201526064016108e7565b61013054604051631fff7f2760e11b8152600481018990526000916001600160a01b031690633ffefe4e90602401602060405180830381865afa158015612739573d6000803e3d6000fd5b505050506040513d601f19601f8201168201806040525081019061275d91906143bb565b90506001600160a01b038116156127ba57600089815261013360209081526040808320549051612794928d92918c918c91016143d8565b6040516020818303038152906040528051906020012090506127b886868385612eb5565b505b505050505050505050565b61013054604051634a7ab1d560e01b8152600481018790526000916001600160a01b031690634a7ab1d590602401602060405180830381865afa158015612810573d6000803e3d6000fd5b505050506040513d601f19601f8201168201806040525081019061283491906143a2565b905080341461287a5760405162461bcd60e51b81526020600482015260126024820152714e6f6e2d6d61746368696e672066756e647360701b60448201526064016108e7565b60008881526101316020908152604080832060068101546001600160a01b03168452610135909252909120600101548810156128e95760405162461bcd60e51b815260206004820152600e60248201526d416d6f756e7420746f6f206c6f7760901b60448201526064016108e7565b6000815460ff16600481111561290157612901613b6e565b146129435760405162461bcd60e51b815260206004820152601260248201527114d95c9d9a58d9481b9bdd081bdc195b995960721b60448201526064016108e7565b806001015460000361298b5760405162461bcd60e51b815260206004820152601160248201527014d95c9d9a58d9481b9bdd08195e1a5cdd607a1b60448201526064016108e7565b6000898152610132602090815260408083208d84529091529020600101548a90036129f15760405162461bcd60e51b81526020600482015260166024820152751c1c9bdc1bdcd85b08185b1c9958591e48195e1a5cdd60521b60448201526064016108e7565b89816001015403612a4e5760405162461bcd60e51b815260206004820152602160248201527f63616e27742063726561746520666f7220796f7572206f776e207365727669636044820152606560f81b60648201526084016108e7565b602e8514612a6e5760405162461bcd60e51b81526004016108e79061429c565b61013054604051631fff7f2760e11b8152600481018990526000916001600160a01b031690633ffefe4e90602401602060405180830381865afa158015612ab9573d6000803e3d6000fd5b505050506040513d601f19601f82011682018060405250810190612add91906143bb565b90506001600160a01b03811615612b2d5760008b8b8989604051602001612b079493929190614419565b604051602081830303815290604052805190602001209050612b2b86868385612eb5565b505b5050505050505050505050565b6110c281612b46612534565b612fa9565b612b558282611796565b610fe257600082815260fc602090815260408083206001600160a01b03851684529091529020805460ff19166001179055612b8e612534565b6001600160a01b0316816001600160a01b0316837f2f8788117e7eff1d82e926ec794901d17c78024a50270940304540a733656f0d60405160405180910390a45050565b612bdc8282611796565b15610fe257600082815260fc602090815260408083206001600160a01b03851684529091529020805460ff19169055612c13612534565b6001600160a01b0316816001600160a01b0316837ff6391f5c32d9c69d2a47ea670b442974b53935d1edc7fd64eb21e047a839171b60405160405180910390a45050565b6110c2612543565b7f4910fdfa16fed3260ed0e7147f7cc6da11a60208b5b9406d12a635614ffd91435460ff1615612c9257610f5383613002565b826001600160a01b03166352d1902d6040518163ffffffff1660e01b8152600401602060405180830381865afa925050508015612cec575060408051601f3d908101601f19168201909252612ce9918101906143a2565b60015b612d4f5760405162461bcd60e51b815260206004820152602e60248201527f45524331393637557067726164653a206e657720696d706c656d656e7461746960448201526d6f6e206973206e6f74205555505360901b60648201526084016108e7565b60008051602061458b8339815191528114612dbe5760405162461bcd60e51b815260206004820152602960248201527f45524331393637557067726164653a20756e737570706f727465642070726f786044820152681a58589b195555525160ba1b60648201526084016108e7565b50610f5383838361309e565b600054610100900460ff16612df15760405162461bcd60e51b81526004016108e79061445b565b6116bf6130c9565b600054610100900460ff166116bf5760405162461bcd60e51b81526004016108e79061445b565b610fe28282612b4b565b603380546001600160a01b038381166001600160a01b0319831681179093556040519116919082907f8be0079c531659141344cd1fd0a4f28419497f9722a3daafe3b4186f6b6457e090600090a35050565b600060143610801590612e9e57503360009081526065602052604090205460ff165b15612eb0575060131936013560601c90565b503390565b6000612f0e836040517f19457468657265756d205369676e6564204d6573736167653a0a3332000000006020820152603c8101829052600090605c01604051602081830303815290604052805190602001209050919050565b90506000612f528287878080601f01602080910402602001604051908101604052809392919081815260200183838082843760009201919091525061310092505050565b9050806001600160a01b0316836001600160a01b031614611a125760405162461bcd60e51b8152602060048201526011602482015270696e76616c6964207369676e617475726560781b60448201526064016108e7565b612fb38282611796565b610fe257612fc081613124565b612fcb836020613136565b604051602001612fdc9291906144a6565b60408051601f198184030181529082905262461bcd60e51b82526108e79160040161451b565b6001600160a01b0381163b61306f5760405162461bcd60e51b815260206004820152602d60248201527f455243313936373a206e657720696d706c656d656e746174696f6e206973206e60448201526c1bdd08184818dbdb9d1c9858dd609a1b60648201526084016108e7565b60008051602061458b83398151915280546001600160a01b0319166001600160a01b0392909216919091179055565b6130a7836132d9565b6000825111806130b45750805b15610f53576130c38383613319565b50505050565b600054610100900460ff166130f05760405162461bcd60e51b81526004016108e79061445b565b6116bf6130fb612534565b612e2a565b600080600061310f858561340d565b9150915061311c8161344f565b509392505050565b606061083a6001600160a01b03831660145b606060006131458360026142f6565b61315090600261452e565b67ffffffffffffffff811115613168576131686139a6565b6040519080825280601f01601f191660200182016040528015613192576020820181803683370190505b509050600360fc1b816000815181106131ad576131ad614541565b60200101906001600160f81b031916908160001a905350600f60fb1b816001815181106131dc576131dc614541565b60200101906001600160f81b031916908160001a90535060006132008460026142f6565b61320b90600161452e565b90505b6001811115613283576f181899199a1a9b1b9c1cb0b131b232b360811b85600f166010811061323f5761323f614541565b1a60f81b82828151811061325557613255614541565b60200101906001600160f81b031916908160001a90535060049490941c9361327c81614557565b905061320e565b5083156132d25760405162461bcd60e51b815260206004820181905260248201527f537472696e67733a20686578206c656e67746820696e73756666696369656e7460448201526064016108e7565b9392505050565b6132e281613002565b6040516001600160a01b038216907fbc7cd75a20ee27fd9adebab32041f755214dbc6bffa90cc0225b39da2e5c2d3b90600090a250565b60606001600160a01b0383163b6133815760405162461bcd60e51b815260206004820152602660248201527f416464726573733a2064656c65676174652063616c6c20746f206e6f6e2d636f6044820152651b9d1c9858dd60d21b60648201526084016108e7565b600080846001600160a01b03168460405161339c919061456e565b600060405180830381855af49150503d80600081146133d7576040519150601f19603f3d011682016040523d82523d6000602084013e6133dc565b606091505b509150915061340482826040518060600160405280602781526020016145ab60279139613599565b95945050505050565b60008082516041036134435760208301516040840151606085015160001a613437878285856135b2565b94509450505050611e3d565b50600090506002611e3d565b600081600481111561346357613463613b6e565b0361346b5750565b600181600481111561347f5761347f613b6e565b036134cc5760405162461bcd60e51b815260206004820152601860248201527f45434453413a20696e76616c6964207369676e6174757265000000000000000060448201526064016108e7565b60028160048111156134e0576134e0613b6e565b0361352d5760405162461bcd60e51b815260206004820152601f60248201527f45434453413a20696e76616c6964207369676e6174757265206c656e6774680060448201526064016108e7565b600381600481111561354157613541613b6e565b036110c25760405162461bcd60e51b815260206004820152602260248201527f45434453413a20696e76616c6964207369676e6174757265202773272076616c604482015261756560f01b60648201526084016108e7565b606083156135a85750816132d2565b6132d28383613676565b6000807f7fffffffffffffffffffffffffffffff5d576e7357a4501ddfe92f46681b20a08311156135e9575060009050600361366d565b6040805160008082526020820180845289905260ff881692820192909252606081018690526080810185905260019060a0016020604051602081039080840390855afa15801561363d573d6000803e3d6000fd5b5050604051601f1901519150506001600160a01b0381166136665760006001925092505061366d565b9150600090505b94509492505050565b8151156136865781518083602001fd5b8060405162461bcd60e51b81526004016108e7919061451b565b6040805160e0810190915280600081526020016000815260200160006001600160a01b03168152602001600081526020016000815260200160608152602001600081525090565b6040805161010081019091528060008152602001600081526020016000815260200160608152602001600081526020016000815260200160006001600160a01b03168152602001600081525090565b60006020828403121561374857600080fd5b81356001600160e01b0319811681146132d257600080fd5b6000806040838503121561377357600080fd5b50508035926020909101359150565b60006020828403121561379457600080fd5b5035919050565b6001600160a01b03811681146110c257600080fd5b6000602082840312156137c257600080fd5b81356132d28161379b565b60008083601f8401126137df57600080fd5b50813567ffffffffffffffff8111156137f757600080fd5b602083019150836020828501011115611e3d57600080fd5b600080600080600080600060a0888a03121561382a57600080fd5b8735965060208801359550604088013567ffffffffffffffff8082111561385057600080fd5b61385c8b838c016137cd565b909750955060608a013591508082111561387557600080fd5b506138828a828b016137cd565b90945092505060808801356138968161379b565b8091505092959891949750929550565b600080600080600080600080600060e08a8c0312156138c457600080fd5b8935985060208a0135975060408a0135965060608a0135955060808a013567ffffffffffffffff808211156138f857600080fd5b6139048d838e016137cd565b909750955060a08c0135945060c08c013591508082111561392457600080fd5b506139318c828d016137cd565b915080935050809150509295985092959850929598565b6000806040838503121561395b57600080fd5b82359150602083013561396d8161379b565b809150509250929050565b6000806040838503121561398b57600080fd5b82356139968161379b565b9150602083013561396d8161379b565b634e487b7160e01b600052604160045260246000fd5b600080604083850312156139cf57600080fd5b82356139da8161379b565b9150602083013567ffffffffffffffff808211156139f757600080fd5b818501915085601f830112613a0b57600080fd5b813581811115613a1d57613a1d6139a6565b604051601f8201601f19908116603f01168101908382118183101715613a4557613a456139a6565b81604052828152886020848701011115613a5e57600080fd5b8260208601602083013760006020848301015280955050505050509250929050565b60008060008060008060a08789031215613a9957600080fd5b8635955060208701359450604087013593506060870135613ab98161379b565b9250608087013567ffffffffffffffff811115613ad557600080fd5b613ae189828a016137cd565b979a9699509497509295939492505050565b80151581146110c257600080fd5b600080600060608486031215613b1657600080fd5b8335613b218161379b565b92506020840135613b3181613af3565b929592945050506040919091013590565b600080600060608486031215613b5757600080fd5b505081359360208301359350604090920135919050565b634e487b7160e01b600052602160045260246000fd5b60028110613b9457613b94613b6e565b9052565b60005b83811015613bb3578181015183820152602001613b9b565b50506000910152565b60008151808452613bd4816020860160208601613b98565b601f01601f19169290920160200192915050565b613bf3828251613b84565b6020810151602083015260018060a01b0360408201511660408301526060810151606083015260808101516080830152600060a082015160e060a0850152613c3e60e0850182613bbc565b60c093840151949093019390935250919050565b6020815260006132d26020830184613be8565b60058110613b9457613b94613b6e565b6000610100613c84838c613c65565b896020840152886040840152806060840152613ca281840189613bbc565b6080840197909752505060a08101939093526001600160a01b039190911660c083015260e090910152949350505050565b613cdd8189613b84565b86602082015260018060a01b038616604082015284606082015283608082015260e060a08201526000613d1360e0830185613bbc565b90508260c083015298975050505050505050565b6000610100613d37848451613c65565b60208301516020850152604083015160408501526060830151816060860152613d6282860182613bbc565b6080858101519087015260a0808601519087015260c0808601516001600160a01b03169087015260e0948501519490950193909352509192915050565b604081526000613db26040830185613d27565b82810360208401526134048185613be8565b60008060008060008060008060c0898b031215613de057600080fd5b8835975060208901359650604089013567ffffffffffffffff80821115613e0657600080fd5b613e128c838d016137cd565b909850965060608b0135915080821115613e2b57600080fd5b50613e388b828c016137cd565b9095509350506080890135613e4c8161379b565b8092505060a089013590509295985092959890939650565b6020815260006132d26020830184613d27565b60008060008060008060a08789031215613e9057600080fd5b863595506020870135945060408701359350606087013567ffffffffffffffff811115613ebc57600080fd5b613ec889828a016137cd565b979a9699509497949695608090950135949350505050565b600060208284031215613ef257600080fd5b81516132d281613af3565b6020808252601590820152744e6f74206f776e6572206f722064656c656761746560581b604082015260600190565b634e487b7160e01b600052601160045260246000fd5b600060018201613f5457613f54613f2c565b5060010190565b600181811c90821680613f6f57607f821691505b602082108103613f8f57634e487b7160e01b600052602260045260246000fd5b50919050565b601f821115610f5357600081815260208120601f850160051c81016020861015613fbc5750805b601f850160051c820191505b81811015611a1257828155600101613fc8565b67ffffffffffffffff831115613ff357613ff36139a6565b614007836140018354613f5b565b83613f95565b6000601f84116001811461403b57600085156140235750838201355b600019600387901b1c1916600186901b178355614095565b600083815260209020601f19861690835b8281101561406c578685013582556020948501946001909201910161404c565b50868210156140895760001960f88860031b161c19848701351681555b505060018560011b0183555b5050505050565b81835281816020850137506000828201602090810191909152601f909101601f19169091010190565b8581528460208201528360408201526080606082015260006140eb60808301848661409c565b979650505050505050565b815167ffffffffffffffff811115614110576141106139a6565b6141248161411e8454613f5b565b84613f95565b602080601f83116001811461415957600084156141415750858301515b600019600386901b1c1916600185901b178555611a12565b600085815260208120601f198616915b8281101561418857888601518255948401946001909101908401614169565b50858210156141a65787850151600019600388901b60f8161c191681555b5050505050600190811b01905550565b88815287602082015260e0604082015260006141d660e08301888a61409c565b90506141e56060830187613b84565b8460808301528360a08301528260c08301529998505050505050505050565b6020808252602c908201527f46756e6374696f6e206d7573742062652063616c6c6564207468726f7567682060408201526b19195b1959d85d1958d85b1b60a21b606082015260800190565b6020808252602c908201527f46756e6374696f6e206d7573742062652063616c6c6564207468726f7567682060408201526b6163746976652070726f787960a01b606082015260800190565b6020808252600b908201526a125b9d985b1a590818da5960aa1b604082015260600190565b6060815260006142d560608301868861409c565b6020830194909452506001600160a01b039190911660409091015292915050565b808202811582820484141761083a5761083a613f2c565b60008261432a57634e487b7160e01b600052601260045260246000fd5b500490565b86815285602082015260a06040820152600061434f60a08301868861409c565b6001600160a01b039490941660608301525060800152949350505050565b86815285602082015260a06040820152600061438d60a08301868861409c565b60608301949094525060800152949350505050565b6000602082840312156143b457600080fd5b5051919050565b6000602082840312156143cd57600080fd5b81516132d28161379b565b6c6372656174655365727669636560981b815284600d820152603b60f81b602d82015283602e8201528183604e83013760009101604e019081529392505050565b6d18dc99585d19541c9bdc1bdcd85b60921b815284600e820152603b60f81b602e82015283602f8201528183604f83013760009101604f019081529392505050565b6020808252602b908201527f496e697469616c697a61626c653a20636f6e7472616374206973206e6f74206960408201526a6e697469616c697a696e6760a81b606082015260800190565b7f416363657373436f6e74726f6c3a206163636f756e74200000000000000000008152600083516144de816017850160208801613b98565b7001034b99036b4b9b9b4b733903937b6329607d1b601791840191820152835161450f816028840160208801613b98565b01602801949350505050565b6020815260006132d26020830184613bbc565b8082018082111561083a5761083a613f2c565b634e487b7160e01b600052603260045260246000fd5b60008161456657614566613f2c565b506000190190565b60008251614580818460208701613b98565b919091019291505056fe360894a13ba1a3210667c828492db98dca3e2076cc3735a920a3ca505d382bbc416464726573733a206c6f772d6c6576656c2064656c65676174652063616c6c206661696c6564a26469706673582212200dcf3043239374ec73593f34310c6bb5439b37c39253d8686a0355797d5604f264736f6c63430008110033",
  "linkReferences": {},
  "deployedLinkReferences": {}
}