{
  "_format": "hh-sol-artifact-1",
  "contractName": "TalentLayerID",
  "sourceName": "contracts/TalentLayerID.sol",
  "abi": [
    {
      "inputs": [],
      "stateMutability": "nonpayable",
      "type": "constructor"
    },
    {
      "inputs": [],
      "name": "HandleContainsInvalidCharacters",
      "type": "error"
    },
    {
      "inputs": [],
      "name": "HandleLengthInvalid",
      "type": "error"
    },
    {
      "anonymous": false,
      "inputs": [
        {
          "indexed": false,
          "internalType": "address",
          "name": "previousAdmin",
          "type": "address"
        },
        {
          "indexed": false,
          "internalType": "address",
          "name": "newAdmin",
          "type": "address"
        }
      ],
      "name": "AdminChanged",
      "type": "event"
    },
    {
      "anonymous": false,
      "inputs": [
        {
          "indexed": true,
          "internalType": "address",
          "name": "owner",
          "type": "address"
        },
        {
          "indexed": true,
          "internalType": "address",
          "name": "approved",
          "type": "address"
        },
        {
          "indexed": true,
          "internalType": "uint256",
          "name": "tokenId",
          "type": "uint256"
        }
      ],
      "name": "Approval",
      "type": "event"
    },
    {
      "anonymous": false,
      "inputs": [
        {
          "indexed": true,
          "internalType": "address",
          "name": "owner",
          "type": "address"
        },
        {
          "indexed": true,
          "internalType": "address",
          "name": "operator",
          "type": "address"
        },
        {
          "indexed": false,
          "internalType": "bool",
          "name": "approved",
          "type": "bool"
        }
      ],
      "name": "ApprovalForAll",
      "type": "event"
    },
    {
      "anonymous": false,
      "inputs": [
        {
          "indexed": true,
          "internalType": "address",
          "name": "beacon",
          "type": "address"
        }
      ],
      "name": "BeaconUpgraded",
      "type": "event"
    },
    {
      "anonymous": false,
      "inputs": [
        {
          "indexed": true,
          "internalType": "uint256",
          "name": "_profileId",
          "type": "uint256"
        },
        {
          "indexed": false,
          "internalType": "string",
          "name": "_newCid",
          "type": "string"
        }
      ],
      "name": "CidUpdated",
      "type": "event"
    },
    {
      "anonymous": false,
      "inputs": [
        {
          "indexed": false,
          "internalType": "uint256",
          "name": "_profileId",
          "type": "uint256"
        },
        {
          "indexed": false,
          "internalType": "address",
          "name": "_delegate",
          "type": "address"
        }
      ],
      "name": "DelegateAdded",
      "type": "event"
    },
    {
      "anonymous": false,
      "inputs": [
        {
          "indexed": false,
          "internalType": "uint256",
          "name": "_profileId",
          "type": "uint256"
        },
        {
          "indexed": false,
          "internalType": "address",
          "name": "_delegate",
          "type": "address"
        }
      ],
      "name": "DelegateRemoved",
      "type": "event"
    },
    {
      "anonymous": false,
      "inputs": [
        {
          "indexed": false,
          "internalType": "uint8",
          "name": "version",
          "type": "uint8"
        }
      ],
      "name": "Initialized",
      "type": "event"
    },
    {
      "anonymous": false,
      "inputs": [
        {
          "indexed": true,
          "internalType": "address",
          "name": "_user",
          "type": "address"
        },
        {
          "indexed": false,
          "internalType": "uint256",
          "name": "_profileId",
          "type": "uint256"
        },
        {
          "indexed": false,
          "internalType": "string",
          "name": "_handle",
          "type": "string"
        },
        {
          "indexed": false,
          "internalType": "uint256",
          "name": "_platformId",
          "type": "uint256"
        },
        {
          "indexed": false,
          "internalType": "uint256",
          "name": "_fee",
          "type": "uint256"
        }
      ],
      "name": "Mint",
      "type": "event"
    },
    {
      "anonymous": false,
      "inputs": [
        {
          "indexed": false,
          "internalType": "uint256",
          "name": "_mintFee",
          "type": "uint256"
        }
      ],
      "name": "MintFeeUpdated",
      "type": "event"
    },
    {
      "anonymous": false,
      "inputs": [
        {
          "indexed": true,
          "internalType": "address",
          "name": "previousOwner",
          "type": "address"
        },
        {
          "indexed": true,
          "internalType": "address",
          "name": "newOwner",
          "type": "address"
        }
      ],
      "name": "OwnershipTransferred",
      "type": "event"
    },
    {
      "anonymous": false,
      "inputs": [
        {
          "indexed": true,
          "internalType": "address",
          "name": "from",
          "type": "address"
        },
        {
          "indexed": true,
          "internalType": "address",
          "name": "to",
          "type": "address"
        },
        {
          "indexed": true,
          "internalType": "uint256",
          "name": "tokenId",
          "type": "uint256"
        }
      ],
      "name": "Transfer",
      "type": "event"
    },
    {
      "anonymous": false,
      "inputs": [
        {
          "indexed": false,
          "internalType": "address",
          "name": "forwarder",
          "type": "address"
        }
      ],
      "name": "TrustedForwarderAdded",
      "type": "event"
    },
    {
      "anonymous": false,
      "inputs": [
        {
          "indexed": false,
          "internalType": "address",
          "name": "forwarder",
          "type": "address"
        }
      ],
      "name": "TrustedForwarderRemoved",
      "type": "event"
    },
    {
      "anonymous": false,
      "inputs": [
        {
          "indexed": true,
          "internalType": "address",
          "name": "implementation",
          "type": "address"
        }
      ],
      "name": "Upgraded",
      "type": "event"
    },
    {
      "inputs": [
        {
          "internalType": "uint256",
          "name": "_profileId",
          "type": "uint256"
        },
        {
          "internalType": "address",
          "name": "_delegate",
          "type": "address"
        }
      ],
      "name": "addDelegate",
      "outputs": [],
      "stateMutability": "nonpayable",
      "type": "function"
    },
    {
      "inputs": [
        {
          "internalType": "address",
          "name": "_forwarder",
          "type": "address"
        }
      ],
      "name": "addTrustedForwarder",
      "outputs": [],
      "stateMutability": "nonpayable",
      "type": "function"
    },
    {
      "inputs": [
        {
          "internalType": "address",
          "name": "to",
          "type": "address"
        },
        {
          "internalType": "uint256",
          "name": "tokenId",
          "type": "uint256"
        }
      ],
      "name": "approve",
      "outputs": [],
      "stateMutability": "nonpayable",
      "type": "function"
    },
    {
      "inputs": [
        {
          "internalType": "address",
          "name": "owner",
          "type": "address"
        }
      ],
      "name": "balanceOf",
      "outputs": [
        {
          "internalType": "uint256",
          "name": "",
          "type": "uint256"
        }
      ],
      "stateMutability": "view",
      "type": "function"
    },
    {
      "inputs": [
        {
          "internalType": "uint256",
          "name": "_platformId",
          "type": "uint256"
        },
        {
          "internalType": "address",
          "name": "_userAddress",
          "type": "address"
        },
        {
          "internalType": "string",
          "name": "_handle",
          "type": "string"
        }
      ],
      "name": "freeMint",
      "outputs": [],
      "stateMutability": "nonpayable",
      "type": "function"
    },
    {
      "inputs": [
        {
          "internalType": "uint256",
          "name": "tokenId",
          "type": "uint256"
        }
      ],
      "name": "getApproved",
      "outputs": [
        {
          "internalType": "address",
          "name": "",
          "type": "address"
        }
      ],
      "stateMutability": "view",
      "type": "function"
    },
    {
      "inputs": [
        {
          "internalType": "address",
          "name": "_address",
          "type": "address"
        }
      ],
      "name": "getOriginatorPlatformIdByAddress",
      "outputs": [
        {
          "internalType": "uint256",
          "name": "",
          "type": "uint256"
        }
      ],
      "stateMutability": "view",
      "type": "function"
    },
    {
      "inputs": [
        {
          "internalType": "uint256",
          "name": "_profileId",
          "type": "uint256"
        }
      ],
      "name": "getProfile",
      "outputs": [
        {
          "components": [
            {
              "internalType": "uint256",
              "name": "id",
              "type": "uint256"
            },
            {
              "internalType": "string",
              "name": "handle",
              "type": "string"
            },
            {
              "internalType": "uint256",
              "name": "platformId",
              "type": "uint256"
            },
            {
              "internalType": "string",
              "name": "dataUri",
              "type": "string"
            }
          ],
          "internalType": "struct TalentLayerID.Profile",
          "name": "",
          "type": "tuple"
        }
      ],
      "stateMutability": "view",
      "type": "function"
    },
    {
      "inputs": [
        {
          "internalType": "address",
          "name": "",
          "type": "address"
        }
      ],
      "name": "ids",
      "outputs": [
        {
          "internalType": "uint256",
          "name": "",
          "type": "uint256"
        }
      ],
      "stateMutability": "view",
      "type": "function"
    },
    {
      "inputs": [
        {
          "internalType": "address",
          "name": "_talentLayerPlatformIdAddress",
          "type": "address"
        }
      ],
      "name": "initialize",
      "outputs": [],
      "stateMutability": "nonpayable",
      "type": "function"
    },
    {
      "inputs": [
        {
          "internalType": "address",
          "name": "owner",
          "type": "address"
        },
        {
          "internalType": "address",
          "name": "operator",
          "type": "address"
        }
      ],
      "name": "isApprovedForAll",
      "outputs": [
        {
          "internalType": "bool",
          "name": "",
          "type": "bool"
        }
      ],
      "stateMutability": "view",
      "type": "function"
    },
    {
      "inputs": [
        {
          "internalType": "uint256",
          "name": "_profileId",
          "type": "uint256"
        },
        {
          "internalType": "address",
          "name": "_address",
          "type": "address"
        }
      ],
      "name": "isDelegate",
      "outputs": [
        {
          "internalType": "bool",
          "name": "",
          "type": "bool"
        }
      ],
      "stateMutability": "view",
      "type": "function"
    },
    {
      "inputs": [
        {
          "internalType": "uint256",
          "name": "_profileId",
          "type": "uint256"
        },
        {
          "internalType": "address",
          "name": "_address",
          "type": "address"
        }
      ],
      "name": "isOwnerOrDelegate",
      "outputs": [
        {
          "internalType": "bool",
          "name": "",
          "type": "bool"
        }
      ],
      "stateMutability": "view",
      "type": "function"
    },
    {
      "inputs": [
        {
          "internalType": "address",
          "name": "forwarder",
          "type": "address"
        }
      ],
      "name": "isTrustedForwarder",
      "outputs": [
        {
          "internalType": "bool",
          "name": "",
          "type": "bool"
        }
      ],
      "stateMutability": "view",
      "type": "function"
    },
    {
      "inputs": [
        {
          "internalType": "uint256",
          "name": "_profileId",
          "type": "uint256"
        }
      ],
      "name": "isValid",
      "outputs": [],
      "stateMutability": "view",
      "type": "function"
    },
    {
      "inputs": [
        {
          "internalType": "uint256",
          "name": "_platformId",
          "type": "uint256"
        },
        {
          "internalType": "string",
          "name": "_handle",
          "type": "string"
        }
      ],
      "name": "mint",
      "outputs": [],
      "stateMutability": "payable",
      "type": "function"
    },
    {
      "inputs": [],
      "name": "mintFee",
      "outputs": [
        {
          "internalType": "uint256",
          "name": "",
          "type": "uint256"
        }
      ],
      "stateMutability": "view",
      "type": "function"
    },
    {
      "inputs": [],
      "name": "name",
      "outputs": [
        {
          "internalType": "string",
          "name": "",
          "type": "string"
        }
      ],
      "stateMutability": "view",
      "type": "function"
    },
    {
      "inputs": [
        {
          "internalType": "address",
          "name": "_user",
          "type": "address"
        }
      ],
      "name": "numberMinted",
      "outputs": [
        {
          "internalType": "uint256",
          "name": "",
          "type": "uint256"
        }
      ],
      "stateMutability": "view",
      "type": "function"
    },
    {
      "inputs": [],
      "name": "owner",
      "outputs": [
        {
          "internalType": "address",
          "name": "",
          "type": "address"
        }
      ],
      "stateMutability": "view",
      "type": "function"
    },
    {
      "inputs": [
        {
          "internalType": "uint256",
          "name": "tokenId",
          "type": "uint256"
        }
      ],
      "name": "ownerOf",
      "outputs": [
        {
          "internalType": "address",
          "name": "",
          "type": "address"
        }
      ],
      "stateMutability": "view",
      "type": "function"
    },
    {
      "inputs": [
        {
          "internalType": "uint256",
          "name": "",
          "type": "uint256"
        }
      ],
      "name": "profiles",
      "outputs": [
        {
          "internalType": "uint256",
          "name": "id",
          "type": "uint256"
        },
        {
          "internalType": "string",
          "name": "handle",
          "type": "string"
        },
        {
          "internalType": "uint256",
          "name": "platformId",
          "type": "uint256"
        },
        {
          "internalType": "string",
          "name": "dataUri",
          "type": "string"
        }
      ],
      "stateMutability": "view",
      "type": "function"
    },
    {
      "inputs": [],
      "name": "proxiableUUID",
      "outputs": [
        {
          "internalType": "bytes32",
          "name": "",
          "type": "bytes32"
        }
      ],
      "stateMutability": "view",
      "type": "function"
    },
    {
      "inputs": [
        {
          "internalType": "uint256",
          "name": "_profileId",
          "type": "uint256"
        },
        {
          "internalType": "address",
          "name": "_delegate",
          "type": "address"
        }
      ],
      "name": "removeDelegate",
      "outputs": [],
      "stateMutability": "nonpayable",
      "type": "function"
    },
    {
      "inputs": [
        {
          "internalType": "address",
          "name": "_forwarder",
          "type": "address"
        }
      ],
      "name": "removeTrustedForwarder",
      "outputs": [],
      "stateMutability": "nonpayable",
      "type": "function"
    },
    {
      "inputs": [],
      "name": "renounceOwnership",
      "outputs": [],
      "stateMutability": "nonpayable",
      "type": "function"
    },
    {
      "inputs": [
        {
          "internalType": "address",
          "name": "from",
          "type": "address"
        },
        {
          "internalType": "address",
          "name": "to",
          "type": "address"
        },
        {
          "internalType": "uint256",
          "name": "tokenId",
          "type": "uint256"
        }
      ],
      "name": "safeTransferFrom",
      "outputs": [],
      "stateMutability": "nonpayable",
      "type": "function"
    },
    {
      "inputs": [
        {
          "internalType": "address",
          "name": "from",
          "type": "address"
        },
        {
          "internalType": "address",
          "name": "to",
          "type": "address"
        },
        {
          "internalType": "uint256",
          "name": "tokenId",
          "type": "uint256"
        },
        {
          "internalType": "bytes",
          "name": "data",
          "type": "bytes"
        }
      ],
      "name": "safeTransferFrom",
      "outputs": [],
      "stateMutability": "nonpayable",
      "type": "function"
    },
    {
      "inputs": [
        {
          "internalType": "address",
          "name": "operator",
          "type": "address"
        },
        {
          "internalType": "bool",
          "name": "approved",
          "type": "bool"
        }
      ],
      "name": "setApprovalForAll",
      "outputs": [],
      "stateMutability": "nonpayable",
      "type": "function"
    },
    {
      "inputs": [
        {
          "internalType": "bytes4",
          "name": "interfaceId",
          "type": "bytes4"
        }
      ],
      "name": "supportsInterface",
      "outputs": [
        {
          "internalType": "bool",
          "name": "",
          "type": "bool"
        }
      ],
      "stateMutability": "view",
      "type": "function"
    },
    {
      "inputs": [],
      "name": "symbol",
      "outputs": [
        {
          "internalType": "string",
          "name": "",
          "type": "string"
        }
      ],
      "stateMutability": "view",
      "type": "function"
    },
    {
      "inputs": [
        {
          "internalType": "string",
          "name": "",
          "type": "string"
        }
      ],
      "name": "takenHandles",
      "outputs": [
        {
          "internalType": "bool",
          "name": "",
          "type": "bool"
        }
      ],
      "stateMutability": "view",
      "type": "function"
    },
    {
      "inputs": [],
      "name": "talentLayerPlatformIdContract",
      "outputs": [
        {
          "internalType": "contract ITalentLayerPlatformID",
          "name": "",
          "type": "address"
        }
      ],
      "stateMutability": "view",
      "type": "function"
    },
    {
      "inputs": [
        {
          "internalType": "uint256",
          "name": "tokenId",
          "type": "uint256"
        }
      ],
      "name": "tokenURI",
      "outputs": [
        {
          "internalType": "string",
          "name": "",
          "type": "string"
        }
      ],
      "stateMutability": "view",
      "type": "function"
    },
    {
      "inputs": [],
      "name": "totalSupply",
      "outputs": [
        {
          "internalType": "uint256",
          "name": "",
          "type": "uint256"
        }
      ],
      "stateMutability": "view",
      "type": "function"
    },
    {
      "inputs": [
        {
          "internalType": "address",
          "name": "from",
          "type": "address"
        },
        {
          "internalType": "address",
          "name": "to",
          "type": "address"
        },
        {
          "internalType": "uint256",
          "name": "tokenId",
          "type": "uint256"
        }
      ],
      "name": "transferFrom",
      "outputs": [],
      "stateMutability": "nonpayable",
      "type": "function"
    },
    {
      "inputs": [
        {
          "internalType": "address",
          "name": "newOwner",
          "type": "address"
        }
      ],
      "name": "transferOwnership",
      "outputs": [],
      "stateMutability": "nonpayable",
      "type": "function"
    },
    {
      "inputs": [
        {
          "internalType": "uint256",
          "name": "_mintFee",
          "type": "uint256"
        }
      ],
      "name": "updateMintFee",
      "outputs": [],
      "stateMutability": "nonpayable",
      "type": "function"
    },
    {
      "inputs": [
        {
          "internalType": "uint256",
          "name": "_profileId",
          "type": "uint256"
        },
        {
          "internalType": "string",
          "name": "_newCid",
          "type": "string"
        }
      ],
      "name": "updateProfileData",
      "outputs": [],
      "stateMutability": "nonpayable",
      "type": "function"
    },
    {
      "inputs": [
        {
          "internalType": "address",
          "name": "newImplementation",
          "type": "address"
        }
      ],
      "name": "upgradeTo",
      "outputs": [],
      "stateMutability": "nonpayable",
      "type": "function"
    },
    {
      "inputs": [
        {
          "internalType": "address",
          "name": "newImplementation",
          "type": "address"
        },
        {
          "internalType": "bytes",
          "name": "data",
          "type": "bytes"
        }
      ],
      "name": "upgradeToAndCall",
      "outputs": [],
      "stateMutability": "payable",
      "type": "function"
    },
    {
      "inputs": [],
      "name": "withdraw",
      "outputs": [],
      "stateMutability": "nonpayable",
      "type": "function"
    }
  ],
  "bytecode": "0x60a0604052306080523480156200001557600080fd5b506200002062000026565b620000e8565b600054610100900460ff1615620000935760405162461bcd60e51b815260206004820152602760248201527f496e697469616c697a61626c653a20636f6e747261637420697320696e697469604482015266616c697a696e6760c81b606482015260840160405180910390fd5b60005460ff9081161015620000e6576000805460ff191660ff9081179091556040519081527f7f26b83ff96e1f2b6a682f133852f6798a09c465da95921460cefb38474024989060200160405180910390a15b565b608051613cf46200012060003960008181610c1f01528181610c5f01528181610e0901528181610e490152610edc0152613cf46000f3fe6080604052600436106102515760003560e01c80636352211e11610139578063b88d4fde116100b6578063e985e9c51161007a578063e985e9c514610715578063eab5d4261461075e578063f08f4f64146107a5578063f160068f146107d2578063f2fde38b146107f2578063f577a5001461081257600080fd5b8063b88d4fde14610665578063c36fe3d614610685578063c4d66de8146106b5578063c87b56dd146106d5578063dc33e681146106f557600080fd5b806384017e52116100fd57806384017e52146105d257806389c1694c146105f25780638da5cb5b1461061257806395d89b4114610630578063a22cb4651461064557600080fd5b80636352211e1461054a57806370a082311461056a57806370e703dd1461058a578063715018a6146105aa57806377097fc8146105bf57600080fd5b806323b872dd116101d25780633ccfd60b116101965780633ccfd60b1461048c57806342842e0e146103ec5780634f1ef286146104a157806352d1902d146104b4578063572b6c05146104c95780635c4b03481461050257600080fd5b806323b872dd146103ec57806326d006681461040c5780632fa117e51461042c5780633659cfe61461044c5780633751d89c1461046c57600080fd5b80631499f9e6116102195780631499f9e61461032c57806318160ddd1461034d5780631847c06b146103625780631cf6239b146103905780632106beec146103b057600080fd5b806301ffc9a71461025657806306fdde031461028b578063081812fc146102ad578063095ea7b3146102e557806313966db514610307575b600080fd5b34801561026257600080fd5b50610276610271366004612e6a565b610832565b60405190151581526020015b60405180910390f35b34801561029757600080fd5b506102a0610884565b6040516102829190612ed7565b3480156102b957600080fd5b506102cd6102c8366004612eea565b610916565b6040516001600160a01b039091168152602001610282565b3480156102f157600080fd5b50610305610300366004612f1f565b61093d565b005b34801561031357600080fd5b5061031e6101325481565b604051908152602001610282565b34801561033857600080fd5b5061012e546102cd906001600160a01b031681565b34801561035957600080fd5b5061031e610a64565b34801561036e57600080fd5b5061031e61037d366004612f49565b6101316020526000908152604090205481565b34801561039c57600080fd5b506103056103ab366004612f64565b610a81565b3480156103bc57600080fd5b506102766103cb366004613033565b805160208183018101805161012f8252928201919093012091525460ff1681565b3480156103f857600080fd5b50610305610407366004613068565b505050565b34801561041857600080fd5b50610305610427366004612f49565b610b5e565b34801561043857600080fd5b50610276610447366004612f64565b610bc1565b34801561045857600080fd5b50610305610467366004612f49565b610c15565b34801561047857600080fd5b50610305610487366004612f49565b610cf4565b34801561049857600080fd5b50610305610d4d565b6103056104af3660046130a4565b610dff565b3480156104c057600080fd5b5061031e610ecf565b3480156104d557600080fd5b506102766104e4366004612f49565b6001600160a01b031660009081526065602052604090205460ff1690565b34801561050e57600080fd5b5061031e61051d366004612f49565b6001600160a01b031660009081526101316020908152604080832054835261013090915290206002015490565b34801561055657600080fd5b506102cd610565366004612eea565b610f82565b34801561057657600080fd5b5061031e610585366004612f49565b610fe2565b34801561059657600080fd5b506103056105a5366004612f64565b611068565b3480156105b657600080fd5b5061030561113a565b6103056105cd36600461313b565b61114e565b3480156105de57600080fd5b506103056105ed366004612eea565b61134b565b3480156105fe57600080fd5b5061030561060d366004613187565b611389565b34801561061e57600080fd5b506033546001600160a01b03166102cd565b34801561063c57600080fd5b506102a061150b565b34801561065157600080fd5b506103056106603660046131e1565b61151a565b34801561067157600080fd5b5061030561068036600461321d565b61152c565b34801561069157600080fd5b506106a56106a0366004612eea565b6115b1565b6040516102829493929190613285565b3480156106c157600080fd5b506103056106d0366004612f49565b6116eb565b3480156106e157600080fd5b506102a06106f0366004612eea565b61186d565b34801561070157600080fd5b5061031e610710366004612f49565b611878565b34801561072157600080fd5b506102766107303660046132c1565b6001600160a01b039182166000908152609d6020908152604080832093909416825291909152205460ff1690565b34801561076a57600080fd5b50610276610779366004612f64565b6000918252610134602090815260408084206001600160a01b0393909316845291905290205460ff1690565b3480156107b157600080fd5b506107c56107c0366004612eea565b611883565b60405161028291906132eb565b3480156107de57600080fd5b506103056107ed366004613338565b611a7e565b3480156107fe57600080fd5b5061030561080d366004612f49565b611b7a565b34801561081e57600080fd5b5061030561082d366004612eea565b611bf0565b60006001600160e01b031982166380ac58cd60e01b148061086357506001600160e01b03198216635b5e139f60e01b145b8061087e57506301ffc9a760e01b6001600160e01b03198316145b92915050565b60606098805461089390613369565b80601f01602080910402602001604051908101604052809291908181526020018280546108bf90613369565b801561090c5780601f106108e15761010080835404028352916020019161090c565b820191906000526020600020905b8154815290600101906020018083116108ef57829003601f168201915b5050505050905090565b600061092182611c5c565b506000908152609c60205260409020546001600160a01b031690565b600061094882610f82565b9050806001600160a01b0316836001600160a01b0316036109ba5760405162461bcd60e51b815260206004820152602160248201527f4552433732313a20617070726f76616c20746f2063757272656e74206f776e656044820152603960f91b60648201526084015b60405180910390fd5b806001600160a01b03166109cc611cbb565b6001600160a01b031614806109e857506109e881610730611cbb565b610a5a5760405162461bcd60e51b815260206004820152603d60248201527f4552433732313a20617070726f76652063616c6c6572206973206e6f7420746f60448201527f6b656e206f776e6572206f7220617070726f76656420666f7220616c6c00000060648201526084016109b1565b6104078383611cc5565b60006001610a726101335490565b610a7c91906133b9565b905090565b610a89611cbb565b6001600160a01b0316610a9b83610f82565b6001600160a01b031614610af15760405162461bcd60e51b815260206004820152601c60248201527f4f6e6c79206f776e65722063616e206164642064656c6567617465730000000060448201526064016109b1565b6000828152610134602090815260408083206001600160a01b03851680855290835292819020805460ff191660011790558051858152918201929092527f2d678d15460f6ef62d6d85bfaf6a46d9d0d6498a0fd6ecd92d42bc2ab018103991015b60405180910390a15050565b610b66611d33565b6001600160a01b038116600081815260656020908152604091829020805460ff1916600117905590519182527f3ef8564460ada92419608d823c014975d98f8104d7d1e68c222967ac6814cd9791015b60405180910390a150565b6000816001600160a01b0316610bd684610f82565b6001600160a01b03161480610c0e57506000838152610134602090815260408083206001600160a01b038616845290915290205460ff165b9392505050565b6001600160a01b037f0000000000000000000000000000000000000000000000000000000000000000163003610c5d5760405162461bcd60e51b81526004016109b1906133cc565b7f00000000000000000000000000000000000000000000000000000000000000006001600160a01b0316610ca6600080516020613c38833981519152546001600160a01b031690565b6001600160a01b031614610ccc5760405162461bcd60e51b81526004016109b190613418565b610cd581611dac565b60408051600080825260208201909252610cf191839190611db4565b50565b610cfc611d33565b6001600160a01b038116600081815260656020908152604091829020805460ff1916905590519182527fd2d636efcad0cea42e170256f4c5d8b1cd81e47b855557edaf44014e6cc4cee69101610bb6565b610d55611d33565b6000610d5f611cbb565b6001600160a01b03164760405160006040518083038185875af1925050503d8060008114610da9576040519150601f19603f3d011682016040523d82523d6000602084013e610dae565b606091505b5050905080610cf15760405162461bcd60e51b815260206004820152601860248201527f4661696c656420746f207769746864726177204574686572000000000000000060448201526064016109b1565b6001600160a01b037f0000000000000000000000000000000000000000000000000000000000000000163003610e475760405162461bcd60e51b81526004016109b1906133cc565b7f00000000000000000000000000000000000000000000000000000000000000006001600160a01b0316610e90600080516020613c38833981519152546001600160a01b031690565b6001600160a01b031614610eb65760405162461bcd60e51b81526004016109b190613418565b610ebf82611dac565b610ecb82826001611db4565b5050565b6000306001600160a01b037f00000000000000000000000000000000000000000000000000000000000000001614610f6f5760405162461bcd60e51b815260206004820152603860248201527f555550535570677261646561626c653a206d757374206e6f742062652063616c60448201527f6c6564207468726f7567682064656c656761746563616c6c000000000000000060648201526084016109b1565b50600080516020613c3883398151915290565b6000818152609a60205260408120546001600160a01b03168061087e5760405162461bcd60e51b8152602060048201526018602482015277115490cdcc8c4e881a5b9d985b1a59081d1bdad95b88125160421b60448201526064016109b1565b60006001600160a01b03821661104c5760405162461bcd60e51b815260206004820152602960248201527f4552433732313a2061646472657373207a65726f206973206e6f7420612076616044820152683634b21037bbb732b960b91b60648201526084016109b1565b506001600160a01b03166000908152609b602052604090205490565b611070611cbb565b6001600160a01b031661108283610f82565b6001600160a01b0316146110d85760405162461bcd60e51b815260206004820152601f60248201527f4f6e6c79206f776e65722063616e2072656d6f76652064656c6567617465730060448201526064016109b1565b6000828152610134602090815260408083206001600160a01b03851680855290835292819020805460ff191690558051858152918201929092527f09f87139523b83583b15f476015dd9a27fae3a03f17202cdf77d063bef5d21c29101610b52565b611142611d33565b61114c6000611f1f565b565b611156611cbb565b82828561116284611878565b156111af5760405162461bcd60e51b815260206004820181905260248201527f596f7520616c7265616479206861766520612054616c656e744c61796572494460448201526064016109b1565b61012f83836040516111c2929190613464565b9081526040519081900360200190205460ff16156112195760405162461bcd60e51b81526020600482015260146024820152732430b73236329030b63932b0b23c903a30b5b2b760611b60448201526064016109b1565b61012e5460405162f577a560e81b8152600481018390526001600160a01b039091169063f577a5009060240160006040518083038186803b15801561125d57600080fd5b505afa158015611271573d6000803e3d6000fd5b5050505061127f8383611f71565b6101325434146112dd5760405162461bcd60e51b8152602060048201526024808201527f496e636f727265637420616d6f756e74206f662045544820666f72206d696e746044820152632066656560e01b60648201526084016109b1565b60006112e7611cbb565b90506112fc816112f76101335490565b612130565b6113408188888080601f0160208091040260200160405190810160405280939291908181526020018383808284376000920191909152508d925034915061214a9050565b505050505050505050565b611353611d33565b6101328190556040518181527f38fbb1c8b109c430f0c030e7ed076cf5611a307773a4e8e365601e8f8bceaec690602001610bb6565b8282828661139684611878565b156113e35760405162461bcd60e51b815260206004820181905260248201527f596f7520616c7265616479206861766520612054616c656e744c61796572494460448201526064016109b1565b61012f83836040516113f6929190613464565b9081526040519081900360200190205460ff161561144d5760405162461bcd60e51b81526020600482015260146024820152732430b73236329030b63932b0b23c903a30b5b2b760611b60448201526064016109b1565b61012e5460405162f577a560e81b8152600481018390526001600160a01b039091169063f577a5009060240160006040518083038186803b15801561149157600080fd5b505afa1580156114a5573d6000803e3d6000fd5b505050506114b38383611f71565b6114bb611d33565b6114c9876112f76101335490565b6113408787878080601f01602080910402602001604051908101604052809392919081815260200183838082843760009201829052508e9350915061214a9050565b60606099805461089390613369565b610ecb611525611cbb565b8383612223565b61153d611537611cbb565b836122f1565b61159f5760405162461bcd60e51b815260206004820152602d60248201527f4552433732313a2063616c6c6572206973206e6f7420746f6b656e206f776e6560448201526c1c881bdc88185c1c1c9bdd9959609a1b60648201526084016109b1565b6115ab8484848461236f565b50505050565b61013060205260009081526040902080546001820180549192916115d490613369565b80601f016020809104026020016040519081016040528092919081815260200182805461160090613369565b801561164d5780601f106116225761010080835404028352916020019161164d565b820191906000526020600020905b81548152906001019060200180831161163057829003601f168201915b50505050509080600201549080600301805461166890613369565b80601f016020809104026020016040519081016040528092919081815260200182805461169490613369565b80156116e15780601f106116b6576101008083540402835291602001916116e1565b820191906000526020600020905b8154815290600101906020018083116116c457829003601f168201915b5050505050905084565b600054610100900460ff161580801561170b5750600054600160ff909116105b806117255750303b158015611725575060005460ff166001145b6117885760405162461bcd60e51b815260206004820152602e60248201527f496e697469616c697a61626c653a20636f6e747261637420697320616c72656160448201526d191e481a5b9a5d1a585b1a5e995960921b60648201526084016109b1565b6000805460ff1916600117905580156117ab576000805461ff0019166101001790555b6117b36123a2565b6117fd6040518060400160405280600d81526020016c15185b195b9d13185e595c9251609a1b8152506040518060400160405280600381526020016215125160ea1b8152506123d1565b611805612402565b61012e80546001600160a01b0319166001600160a01b038416179055610133805460010190558015610ecb576000805461ff0019169055604051600181527f7f26b83ff96e1f2b6a682f133852f6798a09c465da95921460cefb384740249890602001610b52565b606061087e82612429565b600061087e82610fe2565b6118ae6040518060800160405280600081526020016060815260200160008152602001606081525090565b6000828152609a60205260409020546001600160a01b03166119205760405162461bcd60e51b815260206004820152602560248201527f54616c656e744c6179657249443a2050726f66696c6520646f6573206e6f7420604482015264195e1a5cdd60da1b60648201526084016109b1565b61013060008381526020019081526020016000206040518060800160405290816000820154815260200160018201805461195990613369565b80601f016020809104026020016040519081016040528092919081815260200182805461198590613369565b80156119d25780601f106119a7576101008083540402835291602001916119d2565b820191906000526020600020905b8154815290600101906020018083116119b557829003601f168201915b50505050508152602001600282015481526020016003820180546119f590613369565b80601f0160208091040260200160405190810160405280929190818152602001828054611a2190613369565b8015611a6e5780601f10611a4357610100808354040283529160200191611a6e565b820191906000526020600020905b815481529060010190602001808311611a5157829003601f168201915b5050505050815250509050919050565b81611a8b81610447611cbb565b611acf5760405162461bcd60e51b81526020600482015260156024820152744e6f74206f776e6572206f722064656c656761746560581b60448201526064016109b1565b6000825111611b205760405162461bcd60e51b815260206004820152601f60248201527f53686f756c642070726f7669646520612076616c69642049504653205552490060448201526064016109b1565b600083815261013060205260409020600301611b3c83826134c2565b50827f613807bd6768f626264e7eb664a65ca99a0d930f8fd8a5b868491a592eb57f7283604051611b6d9190612ed7565b60405180910390a2505050565b611b82611d33565b6001600160a01b038116611be75760405162461bcd60e51b815260206004820152602660248201527f4f776e61626c653a206e6577206f776e657220697320746865207a65726f206160448201526564647265737360d01b60648201526084016109b1565b610cf181611f1f565b600081118015611c0257506101335481105b610cf15760405162461bcd60e51b815260206004820152602560248201527f596f7572204944206973206e6f7420612076616c69642054616c656e744c6179604482015264195c88125160da1b60648201526084016109b1565b6000818152609a60205260409020546001600160a01b0316610cf15760405162461bcd60e51b8152602060048201526018602482015277115490cdcc8c4e881a5b9d985b1a59081d1bdad95b88125160421b60448201526064016109b1565b6000610a7c612554565b6000818152609c6020526040902080546001600160a01b0319166001600160a01b0384169081179091558190611cfa82610f82565b6001600160a01b03167f8c5be1e5ebec7d5bd14f71427d1e84f3dd0314c0f7b2291e5b200ac8c7c3b92560405160405180910390a45050565b611d3b611cbb565b6001600160a01b0316611d566033546001600160a01b031690565b6001600160a01b03161461114c5760405162461bcd60e51b815260206004820181905260248201527f4f776e61626c653a2063616c6c6572206973206e6f7420746865206f776e657260448201526064016109b1565b610cf1611d33565b7f4910fdfa16fed3260ed0e7147f7cc6da11a60208b5b9406d12a635614ffd91435460ff1615611de7576104078361258d565b826001600160a01b03166352d1902d6040518163ffffffff1660e01b8152600401602060405180830381865afa925050508015611e41575060408051601f3d908101601f19168201909252611e3e91810190613582565b60015b611ea45760405162461bcd60e51b815260206004820152602e60248201527f45524331393637557067726164653a206e657720696d706c656d656e7461746960448201526d6f6e206973206e6f74205555505360901b60648201526084016109b1565b600080516020613c388339815191528114611f135760405162461bcd60e51b815260206004820152602960248201527f45524331393637557067726164653a20756e737570706f727465642070726f786044820152681a58589b195555525160ba1b60648201526084016109b1565b50610407838383612629565b603380546001600160a01b038381166001600160a01b0319831681179093556040519116919082907f8be0079c531659141344cd1fd0a4f28419497f9722a3daafe3b4186f6b6457e090600090a35050565b600082828080601f016020809104026020016040519081016040528093929190818152602001838380828437600092019190915250508251929350509015905080611fbd57508051601f105b15611fdb57604051633eb64ab360e01b815260040160405180910390fd5b805160005b8181101561212957600360fc1b838281518110611fff57611fff61359b565b01602001516001600160f81b031916108061203d5750603d60f91b83828151811061202c5761202c61359b565b01602001516001600160f81b031916115b806120995750603960f81b83828151811061205a5761205a61359b565b01602001516001600160f81b0319161180156120995750606160f81b8382815181106120885761208861359b565b01602001516001600160f81b031916105b80156120ca57508281815181106120b2576120b261359b565b6020910101516001600160f81b031916602d60f81b14155b80156120fb57508281815181106120e3576120e361359b565b6020910101516001600160f81b031916605f60f81b14155b1561211957604051630bb7f19b60e21b815260040160405180910390fd5b612122816135b1565b9050611fe0565b5050505050565b610ecb82826040518060200160405280600081525061264e565b6000806121576101335490565b905061216861013380546001019055565b600081815261013060205260409020600281018590556001810161218c87826134c2565b50600161012f876040516121a091906135e6565b9081526040805160209281900383018120805460ff1916941515949094179093556001600160a01b038a1660008181526101319093529120849055907f8475f1ba3b06c1e11c870cbbf9753ca9a8292ea0b203262f682de476dc268f8c9061220f9085908a908a908a90613602565b60405180910390a25090505b949350505050565b816001600160a01b0316836001600160a01b0316036122845760405162461bcd60e51b815260206004820152601960248201527f4552433732313a20617070726f766520746f2063616c6c65720000000000000060448201526064016109b1565b6001600160a01b038381166000818152609d6020908152604080832094871680845294825291829020805460ff191686151590811790915591519182527f17307eab39ab6107e8899845ad3d59bd9653f200f220920489ca2b5937696c31910160405180910390a3505050565b6000806122fd83610f82565b9050806001600160a01b0316846001600160a01b0316148061234457506001600160a01b038082166000908152609d602090815260408083209388168352929052205460ff165b8061221b5750836001600160a01b031661235d84610916565b6001600160a01b031614949350505050565b61237a848484612681565b612386848484846127f2565b6115ab5760405162461bcd60e51b81526004016109b19061362e565b600054610100900460ff166123c95760405162461bcd60e51b81526004016109b190613680565b61114c6128f7565b600054610100900460ff166123f85760405162461bcd60e51b81526004016109b190613680565b610ecb828261292e565b600054610100900460ff1661114c5760405162461bcd60e51b81526004016109b190613680565b6000818152610130602052604081206001018054606092919061244b90613369565b80601f016020809104026020016040519081016040528092919081815260200182805461247790613369565b80156124c45780601f10612499576101008083540402835291602001916124c4565b820191906000526020600020905b8154815290600101906020018083116124a757829003601f168201915b5050505050905060006124f5826040516020016124e191906136cb565b60405160208183030381529060405261296e565b6040516020016125059190613a2f565b604051602081830303815290604052905061252c82826040516020016124e1929190613a74565b60405160200161253c9190613b07565b60405160208183030381529060405292505050919050565b60006014361080159061257657503360009081526065602052604090205460ff165b15612588575060131936013560601c90565b503390565b6001600160a01b0381163b6125fa5760405162461bcd60e51b815260206004820152602d60248201527f455243313936373a206e657720696d706c656d656e746174696f6e206973206e60448201526c1bdd08184818dbdb9d1c9858dd609a1b60648201526084016109b1565b600080516020613c3883398151915280546001600160a01b0319166001600160a01b0392909216919091179055565b61263283612ac1565b60008251118061263f5750805b15610407576115ab8383612b01565b6126588383612bf5565b61266560008484846127f2565b6104075760405162461bcd60e51b81526004016109b19061362e565b826001600160a01b031661269482610f82565b6001600160a01b0316146126ba5760405162461bcd60e51b81526004016109b190613b4c565b6001600160a01b03821661271c5760405162461bcd60e51b8152602060048201526024808201527f4552433732313a207472616e7366657220746f20746865207a65726f206164646044820152637265737360e01b60648201526084016109b1565b6127298383836001612d8e565b826001600160a01b031661273c82610f82565b6001600160a01b0316146127625760405162461bcd60e51b81526004016109b190613b4c565b6000818152609c6020908152604080832080546001600160a01b03199081169091556001600160a01b03878116808652609b8552838620805460001901905590871680865283862080546001019055868652609a90945282852080549092168417909155905184937fddf252ad1be2c89b69c2b068fc378daa952ba7f163c4a11628f55a4df523b3ef91a4505050565b60006001600160a01b0384163b156128ef57836001600160a01b031663150b7a0261281b611cbb565b8786866040518563ffffffff1660e01b815260040161283d9493929190613b91565b6020604051808303816000875af1925050508015612878575060408051601f3d908101601f1916820190925261287591810190613bce565b60015b6128d5573d8080156128a6576040519150601f19603f3d011682016040523d82523d6000602084013e6128ab565b606091505b5080516000036128cd5760405162461bcd60e51b81526004016109b19061362e565b805181602001fd5b6001600160e01b031916630a85bd0160e11b14905061221b565b50600161221b565b600054610100900460ff1661291e5760405162461bcd60e51b81526004016109b190613680565b61114c612929611cbb565b611f1f565b600054610100900460ff166129555760405162461bcd60e51b81526004016109b190613680565b609861296183826134c2565b50609961040782826134c2565b6060815160000361298d57505060408051602081019091526000815290565b6000604051806060016040528060408152602001613c5860409139905060006003845160026129bc9190613beb565b6129c69190613bfe565b6129d1906004613c20565b67ffffffffffffffff8111156129e9576129e9612f90565b6040519080825280601f01601f191660200182016040528015612a13576020820181803683370190505b509050600182016020820185865187015b80821015612a7f576003820191508151603f8160121c168501518453600184019350603f81600c1c168501518453600184019350603f8160061c168501518453600184019350603f8116850151845350600183019250612a24565b5050600386510660018114612a9b5760028114612aae57612ab6565b603d6001830353603d6002830353612ab6565b603d60018303535b509195945050505050565b612aca8161258d565b6040516001600160a01b038216907fbc7cd75a20ee27fd9adebab32041f755214dbc6bffa90cc0225b39da2e5c2d3b90600090a250565b60606001600160a01b0383163b612b695760405162461bcd60e51b815260206004820152602660248201527f416464726573733a2064656c65676174652063616c6c20746f206e6f6e2d636f6044820152651b9d1c9858dd60d21b60648201526084016109b1565b600080846001600160a01b031684604051612b8491906135e6565b600060405180830381855af49150503d8060008114612bbf576040519150601f19603f3d011682016040523d82523d6000602084013e612bc4565b606091505b5091509150612bec8282604051806060016040528060278152602001613c9860279139612e16565b95945050505050565b6001600160a01b038216612c4b5760405162461bcd60e51b815260206004820181905260248201527f4552433732313a206d696e7420746f20746865207a65726f206164647265737360448201526064016109b1565b6000818152609a60205260409020546001600160a01b031615612cb05760405162461bcd60e51b815260206004820152601c60248201527f4552433732313a20746f6b656e20616c7265616479206d696e7465640000000060448201526064016109b1565b612cbe600083836001612d8e565b6000818152609a60205260409020546001600160a01b031615612d235760405162461bcd60e51b815260206004820152601c60248201527f4552433732313a20746f6b656e20616c7265616479206d696e7465640000000060448201526064016109b1565b6001600160a01b0382166000818152609b6020908152604080832080546001019055848352609a90915280822080546001600160a01b0319168417905551839291907fddf252ad1be2c89b69c2b068fc378daa952ba7f163c4a11628f55a4df523b3ef908290a45050565b60018111156115ab576001600160a01b03841615612dd4576001600160a01b0384166000908152609b602052604081208054839290612dce9084906133b9565b90915550505b6001600160a01b038316156115ab576001600160a01b0383166000908152609b602052604081208054839290612e0b908490613beb565b909155505050505050565b60608315612e25575081610c0e565b610c0e8383815115612e3a5781518083602001fd5b8060405162461bcd60e51b81526004016109b19190612ed7565b6001600160e01b031981168114610cf157600080fd5b600060208284031215612e7c57600080fd5b8135610c0e81612e54565b60005b83811015612ea2578181015183820152602001612e8a565b50506000910152565b60008151808452612ec3816020860160208601612e87565b601f01601f19169290920160200192915050565b602081526000610c0e6020830184612eab565b600060208284031215612efc57600080fd5b5035919050565b80356001600160a01b0381168114612f1a57600080fd5b919050565b60008060408385031215612f3257600080fd5b612f3b83612f03565b946020939093013593505050565b600060208284031215612f5b57600080fd5b610c0e82612f03565b60008060408385031215612f7757600080fd5b82359150612f8760208401612f03565b90509250929050565b634e487b7160e01b600052604160045260246000fd5b600082601f830112612fb757600080fd5b813567ffffffffffffffff80821115612fd257612fd2612f90565b604051601f8301601f19908116603f01168101908282118183101715612ffa57612ffa612f90565b8160405283815286602085880101111561301357600080fd5b836020870160208301376000602085830101528094505050505092915050565b60006020828403121561304557600080fd5b813567ffffffffffffffff81111561305c57600080fd5b61221b84828501612fa6565b60008060006060848603121561307d57600080fd5b61308684612f03565b925061309460208501612f03565b9150604084013590509250925092565b600080604083850312156130b757600080fd5b6130c083612f03565b9150602083013567ffffffffffffffff8111156130dc57600080fd5b6130e885828601612fa6565b9150509250929050565b60008083601f84011261310457600080fd5b50813567ffffffffffffffff81111561311c57600080fd5b60208301915083602082850101111561313457600080fd5b9250929050565b60008060006040848603121561315057600080fd5b83359250602084013567ffffffffffffffff81111561316e57600080fd5b61317a868287016130f2565b9497909650939450505050565b6000806000806060858703121561319d57600080fd5b843593506131ad60208601612f03565b9250604085013567ffffffffffffffff8111156131c957600080fd5b6131d5878288016130f2565b95989497509550505050565b600080604083850312156131f457600080fd5b6131fd83612f03565b91506020830135801515811461321257600080fd5b809150509250929050565b6000806000806080858703121561323357600080fd5b61323c85612f03565b935061324a60208601612f03565b925060408501359150606085013567ffffffffffffffff81111561326d57600080fd5b61327987828801612fa6565b91505092959194509250565b84815260806020820152600061329e6080830186612eab565b84604084015282810360608401526132b68185612eab565b979650505050505050565b600080604083850312156132d457600080fd5b6132dd83612f03565b9150612f8760208401612f03565b6020815281516020820152600060208301516080604084015261331160a0840182612eab565b9050604084015160608401526060840151601f19848303016080850152612bec8282612eab565b6000806040838503121561334b57600080fd5b82359150602083013567ffffffffffffffff8111156130dc57600080fd5b600181811c9082168061337d57607f821691505b60208210810361339d57634e487b7160e01b600052602260045260246000fd5b50919050565b634e487b7160e01b600052601160045260246000fd5b8181038181111561087e5761087e6133a3565b6020808252602c908201527f46756e6374696f6e206d7573742062652063616c6c6564207468726f7567682060408201526b19195b1959d85d1958d85b1b60a21b606082015260800190565b6020808252602c908201527f46756e6374696f6e206d7573742062652063616c6c6564207468726f7567682060408201526b6163746976652070726f787960a01b606082015260800190565b8183823760009101908152919050565b601f82111561040757600081815260208120601f850160051c8101602086101561349b5750805b601f850160051c820191505b818110156134ba578281556001016134a7565b505050505050565b815167ffffffffffffffff8111156134dc576134dc612f90565b6134f0816134ea8454613369565b84613474565b602080601f831160018114613525576000841561350d5750858301515b600019600386901b1c1916600185901b1785556134ba565b600085815260208120601f198616915b8281101561355457888601518255948401946001909101908401613535565b50858210156135725787850151600019600388901b60f8161c191681555b5050505050600190811b01905550565b60006020828403121561359457600080fd5b5051919050565b634e487b7160e01b600052603260045260246000fd5b6000600182016135c3576135c36133a3565b5060010190565b600081516135dc818560208601612e87565b9290920192915050565b600082516135f8818460208701612e87565b9190910192915050565b84815260806020820152600061361b6080830186612eab565b6040830194909452506060015292915050565b60208082526032908201527f4552433732313a207472616e7366657220746f206e6f6e20455243373231526560408201527131b2b4bb32b91034b6b83632b6b2b73a32b960711b606082015260800190565b6020808252602b908201527f496e697469616c697a61626c653a20636f6e7472616374206973206e6f74206960408201526a6e697469616c697a696e6760a81b606082015260800190565b7f3c73766720786d6c6e733d22687474703a2f2f7777772e77332e6f72672f323081527f30302f737667222077696474683d2237323022206865696768743d223732302260208201527f3e3c726563742077696474683d223130302522206865696768743d223130302560408201527f222f3e3c73766720786d6c6e733d22687474703a2f2f7777772e77332e6f726760608201527f2f323030302f737667222077696474683d2231353022206865696768743d223160808201527f3530222076657273696f6e3d22312e32222076696577426f783d222d3230302060a08201527f2d353020313030302031303030223e3c706174682066696c6c3d22234646464660c08201527f46462220643d224d3236342e35203139302e3563302d31332e382031312e322d60e08201527f32352032352d3235483536386331332e3820302032352031312e3220323520326101008201527f357634393063302031332e382d31312e322032352d3235203235483238392e356101208201527f632d31332e3820302d32352d31312e322d32352d32357a222f3e3c70617468206101408201527f66696c6c3d22234646464646462220643d224d3236352036323463302d31332e6101608201527f382031312e322d32352032352d3235683534336331332e3820302032352031316101808201527f2e322032352032357635362e3563302031332e382d31312e322032352d3235206101a08201527f323548323930632d31332e3820302d32352d31312e322d32352d32357a222f3e6101c08201527f3c706174682066696c6c3d22234646464646462220643d224d30203139302e356101e08201527f63302d31332e382031312e322d32352032352d3235683534336331332e3820306102008201527f2032352031312e322032352032355632343763302031332e382d31312e3220326102208201527f352d3235203235483235632d31332e3820302d32352d31312e322d32352d32356102408201527f7a222f3e3c2f7376673e3c7465787420783d2233302220793d223637302220736102608201527f74796c653d22666f6e743a363070782073616e732d73657269663b66696c6c3a6102808201526511b33333111f60d11b6102a08201526000610c0e613a166102a68401856135ca565b6c1e17ba32bc3a1f1e17b9bb339f60991b8152600d0190565b7f646174613a696d6167652f7376672b786d6c3b6261736536342c000000000000815260008251613a6781601a850160208701612e87565b91909101601a0192915050565b683d913730b6b2911d1160b91b81528251600090613a99816009850160208801612e87565b6b1116101134b6b0b3b2911d1160a11b6009918401918201528351613ac5816015840160208801612e87565b7f222c20226465736372697074696f6e223a202254616c656e744c617965722049601592909101918201526244227d60e81b6035820152603801949350505050565b7f646174613a6170706c69636174696f6e2f6a736f6e3b6261736536342c000000815260008251613b3f81601d850160208701612e87565b91909101601d0192915050565b60208082526025908201527f4552433732313a207472616e736665722066726f6d20696e636f72726563742060408201526437bbb732b960d91b606082015260800190565b6001600160a01b0385811682528416602082015260408101839052608060608201819052600090613bc490830184612eab565b9695505050505050565b600060208284031215613be057600080fd5b8151610c0e81612e54565b8082018082111561087e5761087e6133a3565b600082613c1b57634e487b7160e01b600052601260045260246000fd5b500490565b808202811582820484141761087e5761087e6133a356fe360894a13ba1a3210667c828492db98dca3e2076cc3735a920a3ca505d382bbc4142434445464748494a4b4c4d4e4f505152535455565758595a6162636465666768696a6b6c6d6e6f707172737475767778797a303132333435363738392b2f416464726573733a206c6f772d6c6576656c2064656c65676174652063616c6c206661696c6564a264697066735822122030ea4c7d83b79f4dd7eb21315e9e86b75a36612b19159ee0d11f408dd79e8a6464736f6c63430008110033",
  "linkReferences": {},
  "deployedLinkReferences": {}
}