{
  "_format": "hh-sol-artifact-1",
  "contractName": "TalentLayerEscrow",
  "sourceName": "contracts/TalentLayerEscrow.sol",
  "abi": [
    {
      "inputs": [],
      "stateMutability": "nonpayable",
      "type": "constructor"
    },
    {
      "anonymous": false,
      "inputs": [
        {
          "indexed": false,
          "internalType": "address",
          "name": "previousAdmin",
          "type": "address"
        },
        {
          "indexed": false,
          "internalType": "address",
          "name": "newAdmin",
          "type": "address"
        }
      ],
      "name": "AdminChanged",
      "type": "event"
    },
    {
      "anonymous": false,
      "inputs": [
        {
          "indexed": true,
          "internalType": "uint256",
          "name": "_transactionId",
          "type": "uint256"
        },
        {
          "indexed": false,
          "internalType": "enum TalentLayerEscrow.ArbitrationFeePaymentType",
          "name": "_paymentType",
          "type": "uint8"
        },
        {
          "indexed": false,
          "internalType": "enum TalentLayerEscrow.Party",
          "name": "_party",
          "type": "uint8"
        },
        {
          "indexed": false,
          "internalType": "uint256",
          "name": "_amount",
          "type": "uint256"
        }
      ],
      "name": "ArbitrationFeePayment",
      "type": "event"
    },
    {
      "anonymous": false,
      "inputs": [
        {
          "indexed": true,
          "internalType": "address",
          "name": "beacon",
          "type": "address"
        }
      ],
      "name": "BeaconUpgraded",
      "type": "event"
    },
    {
      "anonymous": false,
      "inputs": [
        {
          "indexed": true,
          "internalType": "contract Arbitrator",
          "name": "_arbitrator",
          "type": "address"
        },
        {
          "indexed": true,
          "internalType": "uint256",
          "name": "_disputeID",
          "type": "uint256"
        },
        {
          "indexed": false,
          "internalType": "uint256",
          "name": "_metaEvidenceID",
          "type": "uint256"
        },
        {
          "indexed": false,
          "internalType": "uint256",
          "name": "_evidenceGroupID",
          "type": "uint256"
        }
      ],
      "name": "Dispute",
      "type": "event"
    },
    {
      "anonymous": false,
      "inputs": [
        {
          "indexed": true,
          "internalType": "contract Arbitrator",
          "name": "_arbitrator",
          "type": "address"
        },
        {
          "indexed": true,
          "internalType": "uint256",
          "name": "_evidenceGroupID",
          "type": "uint256"
        },
        {
          "indexed": true,
          "internalType": "address",
          "name": "_party",
          "type": "address"
        },
        {
          "indexed": false,
          "internalType": "string",
          "name": "_evidence",
          "type": "string"
        }
      ],
      "name": "Evidence",
      "type": "event"
    },
    {
      "anonymous": false,
      "inputs": [
        {
          "indexed": true,
          "internalType": "uint256",
          "name": "_transactionId",
          "type": "uint256"
        },
        {
          "indexed": true,
          "internalType": "uint256",
          "name": "_partyId",
          "type": "uint256"
        },
        {
          "indexed": false,
          "internalType": "string",
          "name": "_evidenceUri",
          "type": "string"
        }
      ],
      "name": "EvidenceSubmitted",
      "type": "event"
    },
    {
      "anonymous": false,
      "inputs": [
        {
          "indexed": false,
          "internalType": "uint256",
          "name": "_platformId",
          "type": "uint256"
        },
        {
          "indexed": true,
          "internalType": "address",
          "name": "_token",
          "type": "address"
        },
        {
          "indexed": false,
          "internalType": "uint256",
          "name": "_amount",
          "type": "uint256"
        }
      ],
      "name": "FeesClaimed",
      "type": "event"
    },
    {
      "anonymous": false,
      "inputs": [
        {
          "indexed": true,
          "internalType": "uint256",
          "name": "_transactionId",
          "type": "uint256"
        },
        {
          "indexed": false,
          "internalType": "enum TalentLayerEscrow.Party",
          "name": "_party",
          "type": "uint8"
        }
      ],
      "name": "HasToPayFee",
      "type": "event"
    },
    {
      "anonymous": false,
      "inputs": [
        {
          "indexed": false,
          "internalType": "uint8",
          "name": "version",
          "type": "uint8"
        }
      ],
      "name": "Initialized",
      "type": "event"
    },
    {
      "anonymous": false,
      "inputs": [
        {
          "indexed": true,
          "internalType": "uint256",
          "name": "_metaEvidenceID",
          "type": "uint256"
        },
        {
          "indexed": false,
          "internalType": "string",
          "name": "_evidence",
          "type": "string"
        }
      ],
      "name": "MetaEvidence",
      "type": "event"
    },
    {
      "anonymous": false,
      "inputs": [
        {
          "indexed": false,
          "internalType": "uint256",
          "name": "_platformId",
          "type": "uint256"
        },
        {
          "indexed": false,
          "internalType": "uint256",
          "name": "_serviceId",
          "type": "uint256"
        },
        {
          "indexed": true,
          "internalType": "address",
          "name": "_token",
          "type": "address"
        },
        {
          "indexed": false,
          "internalType": "uint256",
          "name": "_amount",
          "type": "uint256"
        }
      ],
      "name": "OriginServiceFeeRateReleased",
      "type": "event"
    },
    {
      "anonymous": false,
      "inputs": [
        {
          "indexed": false,
          "internalType": "uint256",
          "name": "_platformId",
          "type": "uint256"
        },
        {
          "indexed": false,
          "internalType": "uint256",
          "name": "_serviceId",
          "type": "uint256"
        },
        {
          "indexed": true,
          "internalType": "address",
          "name": "_token",
          "type": "address"
        },
        {
          "indexed": false,
          "internalType": "uint256",
          "name": "_amount",
          "type": "uint256"
        }
      ],
      "name": "OriginValidatedProposalFeeRateReleased",
      "type": "event"
    },
    {
      "anonymous": false,
      "inputs": [
        {
          "indexed": true,
          "internalType": "address",
          "name": "previousOwner",
          "type": "address"
        },
        {
          "indexed": true,
          "internalType": "address",
          "name": "newOwner",
          "type": "address"
        }
      ],
      "name": "OwnershipTransferred",
      "type": "event"
    },
    {
      "anonymous": false,
      "inputs": [
        {
          "indexed": false,
          "internalType": "address",
          "name": "account",
          "type": "address"
        }
      ],
      "name": "Paused",
      "type": "event"
    },
    {
      "anonymous": false,
      "inputs": [
        {
          "indexed": false,
          "internalType": "uint256",
          "name": "_transactionId",
          "type": "uint256"
        },
        {
          "indexed": false,
          "internalType": "enum TalentLayerEscrow.PaymentType",
          "name": "_paymentType",
          "type": "uint8"
        },
        {
          "indexed": false,
          "internalType": "address",
          "name": "_token",
          "type": "address"
        },
        {
          "indexed": false,
          "internalType": "uint256",
          "name": "_amount",
          "type": "uint256"
        },
        {
          "indexed": false,
          "internalType": "uint256",
          "name": "_serviceId",
          "type": "uint256"
        }
      ],
      "name": "Payment",
      "type": "event"
    },
    {
      "anonymous": false,
      "inputs": [
        {
          "indexed": false,
          "internalType": "uint256",
          "name": "_serviceId",
          "type": "uint256"
        }
      ],
      "name": "PaymentCompleted",
      "type": "event"
    },
    {
      "anonymous": false,
      "inputs": [
        {
          "indexed": false,
          "internalType": "uint16",
          "name": "_protocolEscrowFeeRate",
          "type": "uint16"
        }
      ],
      "name": "ProtocolEscrowFeeRateUpdated",
      "type": "event"
    },
    {
      "anonymous": false,
      "inputs": [
        {
          "indexed": true,
          "internalType": "contract Arbitrator",
          "name": "_arbitrator",
          "type": "address"
        },
        {
          "indexed": true,
          "internalType": "uint256",
          "name": "_disputeID",
          "type": "uint256"
        },
        {
          "indexed": false,
          "internalType": "uint256",
          "name": "_ruling",
          "type": "uint256"
        }
      ],
      "name": "Ruling",
      "type": "event"
    },
    {
      "anonymous": false,
      "inputs": [
        {
          "indexed": true,
          "internalType": "uint256",
          "name": "_transactionId",
          "type": "uint256"
        },
        {
          "indexed": false,
          "internalType": "uint256",
          "name": "_ruling",
          "type": "uint256"
        }
      ],
      "name": "RulingExecuted",
      "type": "event"
    },
    {
      "anonymous": false,
      "inputs": [
        {
          "indexed": false,
          "internalType": "uint256",
          "name": "_transactionId",
          "type": "uint256"
        },
        {
          "indexed": false,
          "internalType": "uint256",
          "name": "_senderId",
          "type": "uint256"
        },
        {
          "indexed": false,
          "internalType": "uint256",
          "name": "_receiverId",
          "type": "uint256"
        },
        {
          "indexed": false,
          "internalType": "address",
          "name": "_token",
          "type": "address"
        },
        {
          "indexed": false,
          "internalType": "uint256",
          "name": "_amount",
          "type": "uint256"
        },
        {
          "indexed": false,
          "internalType": "uint256",
          "name": "_serviceId",
          "type": "uint256"
        },
        {
          "indexed": false,
          "internalType": "uint256",
          "name": "_proposalId",
          "type": "uint256"
        },
        {
          "indexed": false,
          "internalType": "uint16",
          "name": "_protocolEscrowFeeRate",
          "type": "uint16"
        },
        {
          "indexed": false,
          "internalType": "uint16",
          "name": "_originServiceFeeRate",
          "type": "uint16"
        },
        {
          "indexed": false,
          "internalType": "uint16",
          "name": "_originValidatedProposalFeeRate",
          "type": "uint16"
        },
        {
          "indexed": false,
          "internalType": "contract Arbitrator",
          "name": "_arbitrator",
          "type": "address"
        },
        {
          "indexed": false,
          "internalType": "bytes",
          "name": "_arbitratorExtraData",
          "type": "bytes"
        },
        {
          "indexed": false,
          "internalType": "uint256",
          "name": "_arbitrationFeeTimeout",
          "type": "uint256"
        }
      ],
      "name": "TransactionCreated",
      "type": "event"
    },
    {
      "anonymous": false,
      "inputs": [
        {
          "indexed": false,
          "internalType": "address",
          "name": "forwarder",
          "type": "address"
        }
      ],
      "name": "TrustedForwarderAdded",
      "type": "event"
    },
    {
      "anonymous": false,
      "inputs": [
        {
          "indexed": false,
          "internalType": "address",
          "name": "forwarder",
          "type": "address"
        }
      ],
      "name": "TrustedForwarderRemoved",
      "type": "event"
    },
    {
      "anonymous": false,
      "inputs": [
        {
          "indexed": false,
          "internalType": "address",
          "name": "account",
          "type": "address"
        }
      ],
      "name": "Unpaused",
      "type": "event"
    },
    {
      "anonymous": false,
      "inputs": [
        {
          "indexed": true,
          "internalType": "address",
          "name": "implementation",
          "type": "address"
        }
      ],
      "name": "Upgraded",
      "type": "event"
    },
    {
      "inputs": [
        {
          "internalType": "address",
          "name": "_forwarder",
          "type": "address"
        }
      ],
      "name": "addTrustedForwarder",
      "outputs": [],
      "stateMutability": "nonpayable",
      "type": "function"
    },
    {
      "inputs": [
        {
          "internalType": "uint256",
          "name": "_transactionId",
          "type": "uint256"
        }
      ],
      "name": "appeal",
      "outputs": [],
      "stateMutability": "payable",
      "type": "function"
    },
    {
      "inputs": [
        {
          "internalType": "uint256",
          "name": "_transactionId",
          "type": "uint256"
        }
      ],
      "name": "arbitrationFeeTimeout",
      "outputs": [],
      "stateMutability": "nonpayable",
      "type": "function"
    },
    {
      "inputs": [
        {
          "internalType": "uint256",
          "name": "_platformId",
          "type": "uint256"
        },
        {
          "internalType": "address",
          "name": "_tokenAddress",
          "type": "address"
        }
      ],
      "name": "claim",
      "outputs": [],
      "stateMutability": "nonpayable",
      "type": "function"
    },
    {
      "inputs": [
        {
          "internalType": "uint256",
          "name": "_serviceId",
          "type": "uint256"
        },
        {
          "internalType": "uint256",
          "name": "_proposalId",
          "type": "uint256"
        },
        {
          "internalType": "string",
          "name": "_metaEvidence",
          "type": "string"
        },
        {
          "internalType": "string",
          "name": "_originDataUri",
          "type": "string"
        }
      ],
      "name": "createTransaction",
      "outputs": [
        {
          "internalType": "uint256",
          "name": "",
          "type": "uint256"
        }
      ],
      "stateMutability": "payable",
      "type": "function"
    },
    {
      "inputs": [
        {
          "internalType": "uint256",
          "name": "",
          "type": "uint256"
        }
      ],
      "name": "disputeIDtoTransactionID",
      "outputs": [
        {
          "internalType": "uint256",
          "name": "",
          "type": "uint256"
        }
      ],
      "stateMutability": "view",
      "type": "function"
    },
    {
      "inputs": [
        {
          "internalType": "address",
          "name": "_token",
          "type": "address"
        }
      ],
      "name": "getClaimableFeeBalance",
      "outputs": [
        {
          "internalType": "uint256",
          "name": "balance",
          "type": "uint256"
        }
      ],
      "stateMutability": "view",
      "type": "function"
    },
    {
      "inputs": [
        {
          "internalType": "uint256",
          "name": "_transactionId",
          "type": "uint256"
        }
      ],
      "name": "getTransactionDetails",
      "outputs": [
        {
          "components": [
            {
              "internalType": "uint256",
              "name": "id",
              "type": "uint256"
            },
            {
              "internalType": "address",
              "name": "sender",
              "type": "address"
            },
            {
              "internalType": "address",
              "name": "receiver",
              "type": "address"
            },
            {
              "internalType": "address",
              "name": "token",
              "type": "address"
            },
            {
              "internalType": "uint256",
              "name": "amount",
              "type": "uint256"
            },
            {
              "internalType": "uint256",
              "name": "releasedAmount",
              "type": "uint256"
            },
            {
              "internalType": "uint256",
              "name": "serviceId",
              "type": "uint256"
            },
            {
              "internalType": "uint256",
              "name": "proposalId",
              "type": "uint256"
            },
            {
              "internalType": "uint16",
              "name": "protocolEscrowFeeRate",
              "type": "uint16"
            },
            {
              "internalType": "uint16",
              "name": "originServiceFeeRate",
              "type": "uint16"
            },
            {
              "internalType": "uint16",
              "name": "originValidatedProposalFeeRate",
              "type": "uint16"
            },
            {
              "internalType": "contract Arbitrator",
              "name": "arbitrator",
              "type": "address"
            },
            {
              "internalType": "enum TalentLayerEscrow.Status",
              "name": "status",
              "type": "uint8"
            },
            {
              "internalType": "uint256",
              "name": "disputeId",
              "type": "uint256"
            },
            {
              "internalType": "uint256",
              "name": "senderFee",
              "type": "uint256"
            },
            {
              "internalType": "uint256",
              "name": "receiverFee",
              "type": "uint256"
            },
            {
              "internalType": "uint256",
              "name": "lastInteraction",
              "type": "uint256"
            },
            {
              "internalType": "bytes",
              "name": "arbitratorExtraData",
              "type": "bytes"
            },
            {
              "internalType": "uint256",
              "name": "arbitrationFeeTimeout",
              "type": "uint256"
            }
          ],
          "internalType": "struct TalentLayerEscrow.Transaction",
          "name": "",
          "type": "tuple"
        }
      ],
      "stateMutability": "view",
      "type": "function"
    },
    {
      "inputs": [
        {
          "internalType": "address",
          "name": "_talentLayerServiceAddress",
          "type": "address"
        },
        {
          "internalType": "address",
          "name": "_talentLayerIDAddress",
          "type": "address"
        },
        {
          "internalType": "address",
          "name": "_talentLayerPlatformIDAddress",
          "type": "address"
        },
        {
          "internalType": "address",
          "name": "_protocolWallet",
          "type": "address"
        }
      ],
      "name": "initialize",
      "outputs": [],
      "stateMutability": "nonpayable",
      "type": "function"
    },
    {
      "inputs": [
        {
          "internalType": "address",
          "name": "forwarder",
          "type": "address"
        }
      ],
      "name": "isTrustedForwarder",
      "outputs": [
        {
          "internalType": "bool",
          "name": "",
          "type": "bool"
        }
      ],
      "stateMutability": "view",
      "type": "function"
    },
    {
      "inputs": [],
      "name": "owner",
      "outputs": [
        {
          "internalType": "address",
          "name": "",
          "type": "address"
        }
      ],
      "stateMutability": "view",
      "type": "function"
    },
    {
      "inputs": [],
      "name": "pause",
      "outputs": [],
      "stateMutability": "nonpayable",
      "type": "function"
    },
    {
      "inputs": [],
      "name": "paused",
      "outputs": [
        {
          "internalType": "bool",
          "name": "",
          "type": "bool"
        }
      ],
      "stateMutability": "view",
      "type": "function"
    },
    {
      "inputs": [
        {
          "internalType": "uint256",
          "name": "_transactionId",
          "type": "uint256"
        }
      ],
      "name": "payArbitrationFeeByReceiver",
      "outputs": [],
      "stateMutability": "payable",
      "type": "function"
    },
    {
      "inputs": [
        {
          "internalType": "uint256",
          "name": "_transactionId",
          "type": "uint256"
        }
      ],
      "name": "payArbitrationFeeBySender",
      "outputs": [],
      "stateMutability": "payable",
      "type": "function"
    },
    {
      "inputs": [],
      "name": "protocolEscrowFeeRate",
      "outputs": [
        {
          "internalType": "uint16",
          "name": "",
          "type": "uint16"
        }
      ],
      "stateMutability": "view",
      "type": "function"
    },
    {
      "inputs": [],
      "name": "protocolWallet",
      "outputs": [
        {
          "internalType": "address payable",
          "name": "",
          "type": "address"
        }
      ],
      "stateMutability": "view",
      "type": "function"
    },
    {
      "inputs": [],
      "name": "proxiableUUID",
      "outputs": [
        {
          "internalType": "bytes32",
          "name": "",
          "type": "bytes32"
        }
      ],
      "stateMutability": "view",
      "type": "function"
    },
    {
      "inputs": [
        {
          "internalType": "uint256",
          "name": "_profileId",
          "type": "uint256"
        },
        {
          "internalType": "uint256",
          "name": "_transactionId",
          "type": "uint256"
        },
        {
          "internalType": "uint256",
          "name": "_amount",
          "type": "uint256"
        }
      ],
      "name": "reimburse",
      "outputs": [],
      "stateMutability": "nonpayable",
      "type": "function"
    },
    {
      "inputs": [
        {
          "internalType": "uint256",
          "name": "_profileId",
          "type": "uint256"
        },
        {
          "internalType": "uint256",
          "name": "_transactionId",
          "type": "uint256"
        },
        {
          "internalType": "uint256",
          "name": "_amount",
          "type": "uint256"
        }
      ],
      "name": "release",
      "outputs": [],
      "stateMutability": "nonpayable",
      "type": "function"
    },
    {
      "inputs": [
        {
          "internalType": "address",
          "name": "_forwarder",
          "type": "address"
        }
      ],
      "name": "removeTrustedForwarder",
      "outputs": [],
      "stateMutability": "nonpayable",
      "type": "function"
    },
    {
      "inputs": [],
      "name": "renounceOwnership",
      "outputs": [],
      "stateMutability": "nonpayable",
      "type": "function"
    },
    {
      "inputs": [
        {
          "internalType": "uint256",
          "name": "_disputeID",
          "type": "uint256"
        },
        {
          "internalType": "uint256",
          "name": "_ruling",
          "type": "uint256"
        }
      ],
      "name": "rule",
      "outputs": [],
      "stateMutability": "nonpayable",
      "type": "function"
    },
    {
      "inputs": [
        {
          "internalType": "uint256",
          "name": "_profileId",
          "type": "uint256"
        },
        {
          "internalType": "uint256",
          "name": "_transactionId",
          "type": "uint256"
        },
        {
          "internalType": "string",
          "name": "_evidence",
          "type": "string"
        }
      ],
      "name": "submitEvidence",
      "outputs": [],
      "stateMutability": "nonpayable",
      "type": "function"
    },
    {
      "inputs": [
        {
          "internalType": "address",
          "name": "newOwner",
          "type": "address"
        }
      ],
      "name": "transferOwnership",
      "outputs": [],
      "stateMutability": "nonpayable",
      "type": "function"
    },
    {
      "inputs": [],
      "name": "unpause",
      "outputs": [],
      "stateMutability": "nonpayable",
      "type": "function"
    },
    {
      "inputs": [
        {
          "internalType": "uint16",
          "name": "_protocolEscrowFeeRate",
          "type": "uint16"
        }
      ],
      "name": "updateProtocolEscrowFeeRate",
      "outputs": [],
      "stateMutability": "nonpayable",
      "type": "function"
    },
    {
      "inputs": [
        {
          "internalType": "address payable",
          "name": "_protocolWallet",
          "type": "address"
        }
      ],
      "name": "updateProtocolWallet",
      "outputs": [],
      "stateMutability": "nonpayable",
      "type": "function"
    },
    {
      "inputs": [
        {
          "internalType": "address",
          "name": "newImplementation",
          "type": "address"
        }
      ],
      "name": "upgradeTo",
      "outputs": [],
      "stateMutability": "nonpayable",
      "type": "function"
    },
    {
      "inputs": [
        {
          "internalType": "address",
          "name": "newImplementation",
          "type": "address"
        },
        {
          "internalType": "bytes",
          "name": "data",
          "type": "bytes"
        }
      ],
      "name": "upgradeToAndCall",
      "outputs": [],
      "stateMutability": "payable",
      "type": "function"
    }
  ],
  "bytecode": "0x60a0604052306080523480156200001557600080fd5b506200002062000026565b620000e8565b600054610100900460ff1615620000935760405162461bcd60e51b815260206004820152602760248201527f496e697469616c697a61626c653a20636f6e747261637420697320696e697469604482015266616c697a696e6760c81b606482015260840160405180910390fd5b60005460ff9081161015620000e6576000805460ff191660ff9081179091556040519081527f7f26b83ff96e1f2b6a682f133852f6798a09c465da95921460cefb38474024989060200160405180910390a15b565b60805161501262000120600039600081816114df0152818161151f015281816118e80152818161192801526119b701526150126000f3fe6080604052600436106101cd5760003560e01c80635a34257a116100f75780638b69fa0a11610095578063e308a09911610064578063e308a09914610523578063eb63612d14610543578063f2fde38b14610563578063f8c8765e1461058357600080fd5b80638b69fa0a146104a55780638da5cb5b146104c55780639dcc5daf146104e3578063ddd5e1b21461050357600080fd5b8063715018a6116100d1578063715018a6146104555780637b44cdb51461046a5780637e69b7b01461047d5780638456cb591461049057600080fd5b80635a34257a146103f45780635c975abb1461042a5780636e72b4521461044257600080fd5b80633659cfe61161016f5780633f4ba83a1161013e5780633f4ba83a1461036e5780634f1ef2861461038357806352d1902d14610396578063572b6c05146103ab57600080fd5b80633659cfe6146102ee5780633751d89c1461030e5780633a1121cd1461032e5780633ab4a6a41461034e57600080fd5b806315734fe7116101ab57806315734fe71461026b57806326d006681461027e5780632fbe3b03146102a0578063311a6c56146102ce57600080fd5b806306d6e63f146101d25780630a1a47d6146102105780630fa683d31461023e575b600080fd5b3480156101de57600080fd5b50610101546101f3906001600160a01b031681565b6040516001600160a01b0390911681526020015b60405180910390f35b34801561021c57600080fd5b5061023061022b3660046140e6565b6105a3565b604051908152602001610207565b34801561024a57600080fd5b5061025e610259366004614103565b61070f565b6040516102079190614196565b61023061027936600461442c565b610a5d565b34801561028a57600080fd5b5061029e6102993660046140e6565b611303565b005b3480156102ac57600080fd5b506102306102bb366004614103565b6101026020526000908152604090205481565b3480156102da57600080fd5b5061029e6102e93660046144a3565b611366565b3480156102fa57600080fd5b5061029e6103093660046140e6565b6114d5565b34801561031a57600080fd5b5061029e6103293660046140e6565b6115b4565b34801561033a57600080fd5b5061029e6103493660046144c5565b61160d565b34801561035a57600080fd5b5061029e610369366004614103565b611716565b34801561037a57600080fd5b5061029e6118cc565b61029e6103913660046144f1565b6118de565b3480156103a257600080fd5b506102306119aa565b3480156103b757600080fd5b506103e46103c63660046140e6565b6001600160a01b031660009081526065602052604090205460ff1690565b6040519015158152602001610207565b34801561040057600080fd5b506101015461041790600160a01b900461ffff1681565b60405161ffff9091168152602001610207565b34801561043657600080fd5b5060665460ff166103e4565b61029e610450366004614103565b611a5d565b34801561046157600080fd5b5061029e611cf6565b61029e610478366004614103565b611d08565b61029e61048b366004614103565b611f82565b34801561049c57600080fd5b5061029e61203a565b3480156104b157600080fd5b5061029e6104c0366004614555565b61204a565b3480156104d157600080fd5b506033546001600160a01b03166101f3565b3480156104ef57600080fd5b5061029e6104fe3660046144c5565b6123ad565b34801561050f57600080fd5b5061029e61051e3660046145a5565b61249b565b34801561052f57600080fd5b5061029e61053e3660046140e6565b6126af565b34801561054f57600080fd5b5061029e61055e3660046145e5565b6126da565b34801561056f57600080fd5b5061029e61057e3660046140e6565b612733565b34801561058f57600080fd5b5061029e61059e366004614602565b6127a9565b6000806105ae61292a565b9050806001600160a01b03166105cc6033546001600160a01b031690565b6001600160a01b0316036106165750506001600160a01b031660009081527fc34a738ec333e394a3927794cadc6dd0eb7d9eed0999d1e55021ea223ac362cc602052604090205490565b61010054604051631847c06b60e01b81526001600160a01b0383811660048301526000921690631847c06b90602401602060405180830381865afa158015610662573d6000803e3d6000fd5b505050506040513d601f19601f82011682018060405250810190610686919061465e565b6101005460405162f577a560e81b8152600481018390529192506001600160a01b03169063f577a5009060240160006040518083038186803b1580156106cb57600080fd5b505afa1580156106df573d6000803e3d6000fd5b50505060009182525060fd602090815260408083206001600160a01b039096168352949052929092205492915050565b6107a96040805161026081018252600080825260208201819052918101829052606081018290526080810182905260a0810182905260c0810182905260e0810182905261010081018290526101208101829052610140810182905261016081018290529061018082019081526020016000815260200160008152602001600081526020016000815260200160608152602001600081525090565b600082815260fc602090815260408083208151610260810183528154815260018201546001600160a01b039081169482019490945260028201548416928101929092526003810154831660608301526004808201546080840152600582015460a0840152600682015460c0840152600782015460e0840152600882015461ffff8082166101008601526201000082048116610120860152640100000000820416610140850152600160301b810490941661016084015291929091610180840191600160d01b900460ff16908111156108835761088361411c565b60048111156108945761089461411c565b815260200160098201548152602001600a8201548152602001600b8201548152602001600c8201548152602001600d820180546108d090614677565b80601f01602080910402602001604051908101604052809291908181526020018280546108fc90614677565b80156109495780601f1061091e57610100808354040283529160200191610949565b820191906000526020600020905b81548152906001019060200180831161092c57829003601f168201915b50505050508152602001600e8201548152505090506109686101035490565b8151106109b55760405162461bcd60e51b8152602060048201526016602482015275125b9d985b1a59081d1c985b9cd858dd1a5bdb881a5960521b60448201526064015b60405180910390fd5b60006109bf61292a565b905081602001516001600160a01b0316816001600160a01b031614806109fa575081604001516001600160a01b0316816001600160a01b0316145b610a565760405162461bcd60e51b815260206004820152602760248201527f596f7520617265206e6f742072656c6174656420746f2074686973207472616e60448201526639b0b1ba34b7b760c91b60648201526084016109ac565b5092915050565b6000610a67612939565b60fe5460405163353bb87f60e21b8152600481018790526024810186905260009182916001600160a01b039091169063d4eee1fc90604401600060405180830381865afa158015610abc573d6000803e3d6000fd5b505050506040513d6000823e601f3d908101601f19168201604052610ae491908101906147a7565b60ff54602083810151908301516040516303ef723760e61b81526004810192909252602482015292945090925060009182916001600160a01b03169063fbdc8dc0906044016040805180830381865afa158015610b45573d6000803e3d6000fd5b505050506040513d601f19601f82011682018060405250810190610b699190614872565b6101005460a0870151604051630b7a459360e31b815260048101919091529294509092506000916001600160a01b0390911690635bd22c9890602401600060405180830381865afa158015610bc2573d6000803e3d6000fd5b505050506040513d6000823e601f3d908101601f19168201604052610bea91908101906148ac565b9050600084608001518660a0015103610c035781610c80565b610100546080860151604051630b7a459360e31b81526001600160a01b0390921691635bd22c9891610c3b9160040190815260200190565b600060405180830381865afa158015610c58573d6000803e3d6000fd5b505050506040513d6000823e601f3d908101601f19168201604052610c8091908101906148ac565b90506000610c9b86606001518460600151846080015161297f565b60408701519091506001600160a01b0316610cf957803414610cf45760405162461bcd60e51b81526020600482015260126024820152714e6f6e2d6d61746368696e672066756e647360701b60448201526064016109ac565b610d3c565b3415610d3c5760405162461bcd60e51b81526020600482015260126024820152714e6f6e2d6d61746368696e672066756e647360701b60448201526064016109ac565b846001600160a01b0316610d4e61292a565b6001600160a01b031614610d745760405162461bcd60e51b81526004016109ac906149d8565b8a866020015114610dbf5760405162461bcd60e51b8152602060048201526015602482015274125b98dbdc9c9958dd081c1c9bdc1bdcd85b081251605a1b60448201526064016109ac565b428660c001511015610e065760405162461bcd60e51b815260206004820152601060248201526f141c9bdc1bdcd85b08195e1c1a5c995960821b60448201526064016109ac565b600087516004811115610e1b57610e1b61411c565b14610e685760405162461bcd60e51b815260206004820152601760248201527f5365727669636520737461747573206e6f74206f70656e00000000000000000060448201526064016109ac565b600086516001811115610e7d57610e7d61411c565b14610eca5760405162461bcd60e51b815260206004820152601b60248201527f50726f706f73616c20737461747573206e6f742070656e64696e67000000000060448201526064016109ac565b8951602e14610f095760405162461bcd60e51b815260206004820152600b60248201526a125b9d985b1a590818da5960aa1b60448201526064016109ac565b88604051602001610f1a91906149ff565b604051602081830303815290604052805190602001208660a00151604051602001610f4591906149ff565b6040516020818303038152906040528051906020012014610fa85760405162461bcd60e51b815260206004820152601c60248201527f50726f706f73616c206461746155726920686173206368616e6765640000000060448201526064016109ac565b6000610fb46101035490565b9050604051806102600160405280828152602001876001600160a01b03168152602001866001600160a01b0316815260200188604001516001600160a01b0316815260200188606001518152602001600081526020018e81526020018d815260200161010160149054906101000a900461ffff1661ffff168152602001856060015161ffff168152602001846080015161ffff1681526020018560e001516001600160a01b03168152602001600060048111156110735761107361411c565b8152600060208083018290526040808401839052606080850184905242608080870191909152610100808c015160a080890191909152610120808e015160c0998a01528a885260fc87529685902089518155958901516001870180546001600160a01b039283166001600160a01b031991821617909155958a01516002880180549183169188169190911790559389015160038701805491861691909616179094559087015160048086019190915592870151600585015594860151600684015560e086015160078401559385015160088301805494870151610140880151610160890151909716600160301b026601000000000000600160d01b031961ffff9889166401000000000216640100000000600160d01b0319928916620100000263ffffffff19909816989094169790971795909517949094161793909317808355610180850151919391929160ff60d01b1990911690600160d01b9084908111156111e0576111e061411c565b02179055506101a082015160098201556101c0820151600a8201556101e0820151600b820155610200820151600c820155610220820151600d8201906112269082614a61565b5061024082015181600e015590505061124461010380546001019055565b60fe546040516353eaf57560e11b8152600481018f9052602481018e9052604481018390526001600160a01b039091169063a7d5eaea90606401600060405180830381600087803b15801561129857600080fd5b505af11580156112ac573d6000803e3d6000fd5b5050505060408701516001600160a01b0316156112dd5760408701516112dd906001600160a01b03168730856129eb565b6112f188602001518860200151838e612a4b565b9750505050505050505b949350505050565b61130b612b66565b6001600160a01b038116600081815260656020908152604091829020805460ff1916600117905590519182527f3ef8564460ada92419608d823c014975d98f8104d7d1e68c222967ac6814cd9791015b60405180910390a150565b600061137061292a565b6000848152610102602090815260408083205480845260fc909252909120600881015492935090916001600160a01b03808516600160301b90920416146114035760405162461bcd60e51b815260206004820152602160248201527f5468652063616c6c6572206d757374206265207468652061726269747261746f6044820152603960f91b60648201526084016109ac565b60036008820154600160d01b900460ff1660048111156114255761142561411c565b146114805760405162461bcd60e51b815260206004820152602560248201527f54686520646973707574652068617320616c7265616479206265656e207265736044820152641bdb1d995960da1b60648201526084016109ac565b84836001600160a01b03167f394027a5fa6e098a1191094d1719d6929b9abc535fcc0c8f448d6a4e75622276866040516114bc91815260200190565b60405180910390a36114ce8285612bdf565b5050505050565b6001600160a01b037f000000000000000000000000000000000000000000000000000000000000000016300361151d5760405162461bcd60e51b81526004016109ac90614b21565b7f00000000000000000000000000000000000000000000000000000000000000006001600160a01b0316611566600080516020614f76833981519152546001600160a01b031690565b6001600160a01b03161461158c5760405162461bcd60e51b81526004016109ac90614b6d565b61159581612e69565b604080516000808252602082019092526115b191839190612e71565b50565b6115bc612b66565b6001600160a01b038116600081815260656020908152604091829020805460ff1916905590519182527fd2d636efcad0cea42e170256f4c5d8b1cd81e47b855557edaf44014e6cc4cee6910161135b565b611615612939565b60ff5483906001600160a01b0316632fa117e58261163161292a565b6040516001600160e01b031960e085901b16815260048101929092526001600160a01b03166024820152604401602060405180830381865afa15801561167b573d6000803e3d6000fd5b505050506040513d601f19601f8201168201806040525081019061169f9190614bb9565b6116bb5760405162461bcd60e51b81526004016109ac90614bdb565b6116c88360008685612fdc565b600083815260fc60205260408120600481018054919285926116eb908490614c20565b92505081905550828160050160008282546117069190614c33565b909155506114ce905084846132c7565b600081815260fc60205260409020600e810154600c8201546117389042614c20565b10156117865760405162461bcd60e51b815260206004820152601f60248201527f54696d656f75742074696d6520686173206e6f7420706173736564207965740060448201526064016109ac565b60016008820154600160d01b900460ff1660048111156117a8576117a861411c565b0361182b57600a8101541561181c57600a81018054600091829055600183015460405191926001600160a01b0390911691839181818185875af1925050503d8060008114611812576040519150601f19603f3d011682016040523d82523d6000602084013e611817565b606091505b505050505b611827826002612bdf565b5050565b60026008820154600160d01b900460ff16600481111561184d5761184d61411c565b0361182757600b810154156118c157600b81018054600091829055600283015460405191926001600160a01b0390911691839181818185875af1925050503d80600081146118b7576040519150601f19603f3d011682016040523d82523d6000602084013e6118bc565b606091505b505050505b611827826001612bdf565b6118d4612b66565b6118dc61330c565b565b6001600160a01b037f00000000000000000000000000000000000000000000000000000000000000001630036119265760405162461bcd60e51b81526004016109ac90614b21565b7f00000000000000000000000000000000000000000000000000000000000000006001600160a01b031661196f600080516020614f76833981519152546001600160a01b031690565b6001600160a01b0316146119955760405162461bcd60e51b81526004016109ac90614b6d565b61199e82612e69565b61182782826001612e71565b6000306001600160a01b037f00000000000000000000000000000000000000000000000000000000000000001614611a4a5760405162461bcd60e51b815260206004820152603860248201527f555550535570677261646561626c653a206d757374206e6f742062652063616c60448201527f6c6564207468726f7567682064656c656761746563616c6c000000000000000060648201526084016109ac565b50600080516020614f7683398151915290565b600081815260fc602052604090206008810154600160301b90046001600160a01b0316611a9c5760405162461bcd60e51b81526004016109ac90614c46565b60036008820154600160d01b900460ff166004811115611abe57611abe61411c565b10611adb5760405162461bcd60e51b81526004016109ac90614c72565b60028101546001600160a01b0316611af161292a565b6001600160a01b031614611b475760405162461bcd60e51b815260206004820152601f60248201527f5468652063616c6c6572206d757374206265207468652072656365697665720060448201526064016109ac565b600881015460405163f7434ea960e01b8152600091600160301b90046001600160a01b03169063f7434ea990611b8490600d860190600401614d62565b602060405180830381865afa158015611ba1573d6000803e3d6000fd5b505050506040513d601f19601f82011682018060405250810190611bc5919061465e565b90503482600b016000828254611bdb9190614c33565b9091555050600b8201548114611c525760405162461bcd60e51b815260206004820152603660248201527f54686520726563656976657220666565206d75737420626520657175616c20746044820152751bc81d1a1948185c989a5d1c985d1a5bdb8818dbdcdd60521b60648201526084016109ac565b42600c8301556040518390600080516020614f9683398151915290611c7e906000906001903490614d85565b60405180910390a28082600a01541015611ce75760088201805460ff60d01b1916600160d01b17905560405183907fc74b9f7dedf2887cd3c113b6d8da9cea19e55c1116e25f1f0e1b72d7543179b590611cda90600090614daf565b60405180910390a2505050565b611cf18382613364565b505050565b611cfe612b66565b6118dc60006135b7565b600081815260fc602052604090206008810154600160301b90046001600160a01b0316611d475760405162461bcd60e51b81526004016109ac90614c46565b60036008820154600160d01b900460ff166004811115611d6957611d6961411c565b10611d865760405162461bcd60e51b81526004016109ac90614c72565b60018101546001600160a01b0316611d9c61292a565b6001600160a01b031614611df25760405162461bcd60e51b815260206004820152601d60248201527f5468652063616c6c6572206d757374206265207468652073656e64657200000060448201526064016109ac565b600881015460405163f7434ea960e01b8152600091600160301b90046001600160a01b03169063f7434ea990611e2f90600d860190600401614d62565b602060405180830381865afa158015611e4c573d6000803e3d6000fd5b505050506040513d601f19601f82011682018060405250810190611e70919061465e565b90503482600a016000828254611e869190614c33565b9091555050600a8201548114611efb5760405162461bcd60e51b815260206004820152603460248201527f5468652073656e64657220666565206d75737420626520657175616c20746f206044820152731d1a1948185c989a5d1c985d1a5bdb8818dbdcdd60621b60648201526084016109ac565b42600c8301556040518390600080516020614f9683398151915290611f269060009081903490614d85565b60405180910390a28082600b01541015611ce75760088201805460ff60d01b1916600160d11b17905560405183907fc74b9f7dedf2887cd3c113b6d8da9cea19e55c1116e25f1f0e1b72d7543179b590611cda90600190614daf565b600081815260fc602052604090206008810154600160301b90046001600160a01b0316611fc15760405162461bcd60e51b81526004016109ac90614c46565b6008810154600982015460405163093225f160e31b8152600160301b9092046001600160a01b0316916349912f889134916120049190600d870190600401614dc2565b6000604051808303818588803b15801561201d57600080fd5b505af1158015612031573d6000803e3d6000fd5b50505050505050565b612042612b66565b6118dc613609565b60ff5483906001600160a01b0316632fa117e58261206661292a565b6040516001600160e01b031960e085901b16815260048101929092526001600160a01b03166024820152604401602060405180830381865afa1580156120b0573d6000803e3d6000fd5b505050506040513d601f19601f820116820180604052508101906120d49190614bb9565b6120f05760405162461bcd60e51b81526004016109ac90614bdb565b8151602e1461212f5760405162461bcd60e51b815260206004820152600b60248201526a125b9d985b1a590818da5960aa1b60448201526064016109ac565b600083815260fc602052604090206008810154600160301b90046001600160a01b031661216e5760405162461bcd60e51b81526004016109ac90614c46565b60ff546040516331a9108f60e11b8152600481018790526000916001600160a01b031690636352211e90602401602060405180830381865afa1580156121b8573d6000803e3d6000fd5b505050506040513d601f19601f820116820180604052508101906121dc9190614ddb565b60018301549091506001600160a01b038083169116148061220c575060028201546001600160a01b038281169116145b612280576040805162461bcd60e51b81526020600482015260248101919091527f5468652063616c6c6572206d757374206265207468652073656e646572206f7260448201527f20746865207265636569766572206f722074686569722064656c65676174657360648201526084016109ac565b60046008830154600160d01b900460ff1660048111156122a2576122a261411c565b106123095760405162461bcd60e51b815260206004820152603160248201527f4d757374206e6f742073656e642065766964656e6365206966207468652064696044820152701cdc1d5d19481a5cc81c995cdbdb1d9959607a1b60648201526084016109ac565b806001600160a01b0316858360080160069054906101000a90046001600160a01b03166001600160a01b03167fdccf2f8b2cc26eafcd61905cba744cff4b81d14740725f6376390dc6298a6a3c876040516123649190614df8565b60405180910390a485857fd998ce0f89c38b0f93256f0b843a404a3a3c5055b75265623f7cb9c369a1dd628660405161239d9190614df8565b60405180910390a3505050505050565b6123b5612939565b60ff5483906001600160a01b0316632fa117e5826123d161292a565b6040516001600160e01b031960e085901b16815260048101929092526001600160a01b03166024820152604401602060405180830381865afa15801561241b573d6000803e3d6000fd5b505050506040513d601f19601f8201168201806040525081019061243f9190614bb9565b61245b5760405162461bcd60e51b81526004016109ac90614bdb565b6124688360018685612fdc565b600083815260fc602052604081206004810180549192859261248b908490614c20565b909155506114ce90508484613647565b6124a3612939565b60006124ad61292a565b6001600160a01b03166124c86033546001600160a01b031690565b6001600160a01b0316036125075782156124f45760405162461bcd60e51b81526004016109ac906149d8565b50610101546001600160a01b03166125d4565b6101005460405162f577a560e81b8152600481018590526001600160a01b039091169063f577a5009060240160006040518083038186803b15801561254b57600080fd5b505afa15801561255f573d6000803e3d6000fd5b5050610100546040516331a9108f60e11b8152600481018790526001600160a01b039091169250636352211e9150602401602060405180830381865afa1580156125ad573d6000803e3d6000fd5b505050506040513d601f19601f820116820180604052508101906125d19190614ddb565b90505b600083815260fd602090815260408083206001600160a01b0386168452909152902054806126375760405162461bcd60e51b815260206004820152601060248201526f6e6f7468696e6720746f20636c61696d60801b60448201526064016109ac565b600084815260fd602090815260408083206001600160a01b03871684529091528120556126658284836136ad565b60408051858152602081018390526001600160a01b038516917f2227733fc4c8a9034cb58087dcf6995128b9c0233b038b03366aaf30c92b92d6910160405180910390a250505050565b6126b7612b66565b61010180546001600160a01b0319166001600160a01b0392909216919091179055565b6126e2612b66565b610101805461ffff60a01b1916600160a01b61ffff8416908102919091179091556040519081527f8339189e972f7fba792126e752aa8485af08710bce4a041c5bc3f9858acd71309060200161135b565b61273b612b66565b6001600160a01b0381166127a05760405162461bcd60e51b815260206004820152602660248201527f4f776e61626c653a206e6577206f776e657220697320746865207a65726f206160448201526564647265737360d01b60648201526084016109ac565b6115b1816135b7565b600054610100900460ff16158080156127c95750600054600160ff909116105b806127e35750303b1580156127e3575060005460ff166001145b6128465760405162461bcd60e51b815260206004820152602e60248201527f496e697469616c697a61626c653a20636f6e747261637420697320616c72656160448201526d191e481a5b9a5d1a585b1a5e995960921b60648201526084016109ac565b6000805460ff191660011790558015612869576000805461ff0019166101001790555b612871613787565b6128796137b6565b60fe80546001600160a01b038088166001600160a01b03199283161790925560ff805487841690831617905561010080548684169083161790556101018054928516929091169190911790556128d461010380546001019055565b6128de60646126da565b80156114ce576000805461ff0019169055604051600181527f7f26b83ff96e1f2b6a682f133852f6798a09c465da95921460cefb38474024989060200160405180910390a15050505050565b60006129346137dd565b905090565b60665460ff16156118dc5760405162461bcd60e51b815260206004820152601060248201526f14185d5cd8589b194e881c185d5cd95960821b60448201526064016109ac565b600061271061299261ffff841686614e0b565b6129a061ffff861687614e0b565b610101546129b990600160a01b900461ffff1688614e0b565b6129c39190614c33565b6129cd9190614c33565b6129d79190614e22565b6129e19085614c33565b90505b9392505050565b604080516001600160a01b0385811660248301528416604482015260648082018490528251808303909101815260849091019091526020810180516001600160e01b03166323b872dd60e01b179052612a45908590613816565b50505050565b600060fc600084815260200190815260200160002090507f8b4f0e94aa0aee74c276abd2d92a5e2737a493b055e19d5b2d4c0ac573242a158386868460030160009054906101000a90046001600160a01b031685600401548660060154876007015461010160149054906101000a900461ffff168960080160029054906101000a900461ffff168a60080160049054906101000a900461ffff168b60080160069054906101000a90046001600160a01b03168c600d018d600e0154604051612b1f9d9c9b9a99989796959493929190614e44565b60405180910390a1827f61606860eb6c87306811e2695215385101daab53bd6ab4e9f9049aead9363c7d83604051612b579190614df8565b60405180910390a25050505050565b612b6e61292a565b6001600160a01b0316612b896033546001600160a01b031690565b6001600160a01b0316146118dc5760405162461bcd60e51b815260206004820181905260248201527f4f776e61626c653a2063616c6c6572206973206e6f7420746865206f776e657260448201526064016109ac565b600082815260fc602052604090206002821115612c2f5760405162461bcd60e51b815260206004820152600e60248201526d496e76616c69642072756c696e6760901b60448201526064016109ac565b60018101546002820154600483018054600a85018054600b87018054600095869055928590559390935560088601805460ff60d01b1916600160d21b1790556001600160a01b0394851694909316929091906000198701612cea576040516001600160a01b038616908390600081818185875af1925050503d8060008114612cd3576040519150601f19603f3d011682016040523d82523d6000602084013e612cd8565b606091505b505050612ce58884613647565b612e25565b6001198701612d4e576040516001600160a01b038516908290600081818185875af1925050503d8060008114612d3c576040519150601f19603f3d011682016040523d82523d6000602084013e612d41565b606091505b505050612ce588846132c7565b6000612d5b600284614e22565b90506000612d6a600286614e22565b9050612d768a82613647565b612d808a826132c7565b6040516001600160a01b038816908390600081818185875af1925050503d8060008114612dc9576040519150601f19603f3d011682016040523d82523d6000602084013e612dce565b606091505b50506040516001600160a01b03881691508390600081818185875af1925050503d8060008114612e1a576040519150601f19603f3d011682016040523d82523d6000602084013e612e1f565b606091505b50505050505b877f76b363d70472d47d20e4119f3625c05ed37ca51b1d9e1cd8b87d8c20530640f388604051612e5791815260200190565b60405180910390a25050505050505050565b6115b1612b66565b7f4910fdfa16fed3260ed0e7147f7cc6da11a60208b5b9406d12a635614ffd91435460ff1615612ea457611cf1836138e8565b826001600160a01b03166352d1902d6040518163ffffffff1660e01b8152600401602060405180830381865afa925050508015612efe575060408051601f3d908101601f19168201909252612efb9181019061465e565b60015b612f615760405162461bcd60e51b815260206004820152602e60248201527f45524331393637557067726164653a206e657720696d706c656d656e7461746960448201526d6f6e206973206e6f74205555505360901b60648201526084016109ac565b600080516020614f768339815191528114612fd05760405162461bcd60e51b815260206004820152602960248201527f45524331393637557067726164653a20756e737570706f727465642070726f786044820152681a58589b195555525160ba1b60648201526084016109ac565b50611cf1838383613984565b600084815260fc6020526040812090846001811115612ffd57612ffd61411c565b036130a35760ff546040516331a9108f60e11b8152600481018590526001600160a01b0390911690636352211e90602401602060405180830381865afa15801561304b573d6000803e3d6000fd5b505050506040513d601f19601f8201168201806040525081019061306f9190614ddb565b60018201546001600160a01b0390811691161461309e5760405162461bcd60e51b81526004016109ac906149d8565b613158565b60018460018111156130b7576130b761411c565b036131585760ff546040516331a9108f60e11b8152600481018590526001600160a01b0390911690636352211e90602401602060405180830381865afa158015613105573d6000803e3d6000fd5b505050506040513d601f19601f820116820180604052508101906131299190614ddb565b60028201546001600160a01b039081169116146131585760405162461bcd60e51b81526004016109ac906149d8565b610103548154106131a45760405162461bcd60e51b8152602060048201526016602482015275125b9d985b1a59081d1c985b9cd858dd1a5bdb881a5960521b60448201526064016109ac565b60006008820154600160d01b900460ff1660048111156131c6576131c661411c565b146132215760405162461bcd60e51b815260206004820152602560248201527f546865207472616e73616374696f6e2073686f756c646e2774206265206469736044820152641c1d5d195960da1b60648201526084016109ac565b818160040154101561326a5760405162461bcd60e51b8152602060048201526012602482015271496e73756666696369656e742066756e647360701b60448201526064016109ac565b6127108210158061328a57506127108210801561328a5750806004015482145b6114ce5760405162461bcd60e51b815260206004820152600e60248201526d416d6f756e7420746f6f206c6f7760901b60448201526064016109ac565b6132d182826139a9565b600082815260fc6020526040902060028101546003820154613300916001600160a01b039081169116846136ad565b611cf183600084613c57565b613314613d79565b6066805460ff191690557f5db9ee0a495bf2e6ff9c91a7834c1ba4fdd244a5e8aa4e537bd38aeae4b073aa61334761292a565b6040516001600160a01b03909116815260200160405180910390a1565b600082815260fc60205260409081902060088101805460ff60d01b1916600360d01b1790819055915163c13517e160e01b81529091600160301b90046001600160a01b031690819063c13517e19085906133c890600290600d880190600401614ed2565b60206040518083038185885af11580156133e6573d6000803e3d6000fd5b50505050506040513d601f19601f8201168201806040525081019061340b919061465e565b600983018181556000918252610102602090815260409283902087905590548251878152918201879052916001600160a01b038416917f74baab670a4015ab2f1b467c5252a96141a2573f2908e58a92081e80d3cfde3d910160405180910390a38282600a015411156135175760008383600a015461348a9190614c20565b600a840185905560018401546040519192506001600160a01b0316908290600081818185875af1925050503d80600081146134e1576040519150601f19603f3d011682016040523d82523d6000602084013e6134e6565b606091505b50505084600080516020614f96833981519152600160003460405161350d93929190614d85565b60405180910390a2505b8282600b01541115612a455760008383600b01546135359190614c20565b600b840185905560028401546040519192506001600160a01b0316908290600081818185875af1925050503d806000811461358c576040519150601f19603f3d011682016040523d82523d6000602084013e613591565b606091505b50505084600080516020614f9683398151915260018034604051612b5793929190614d85565b603380546001600160a01b038381166001600160a01b0319831681179093556040519116919082907f8be0079c531659141344cd1fd0a4f28419497f9722a3daafe3b4186f6b6457e090600090a35050565b613611612939565b6066805460ff191660011790557f62e78cea01bee320cd4e420270b5ea74000d11b0c9f74754ebdbfc544b05a25861334761292a565b600082815260fc60205260408120600881015490919061367d90849061ffff62010000820481169164010000000090041661297f565b600183015460038401549192506136a1916001600160a01b039182169116836136ad565b612a4584600185613c57565b6001600160a01b038216600003613714576040516001600160a01b038416908290600081818185875af1925050503d8060008114613707576040519150601f19603f3d011682016040523d82523d6000602084013e61370c565b606091505b505050505050565b60405163a9059cbb60e01b81526001600160a01b0384811660048301526024820183905283169063a9059cbb906044016020604051808303816000875af1158015613763573d6000803e3d6000fd5b505050506040513d601f19601f82011682018060405250810190612a459190614bb9565b600054610100900460ff166137ae5760405162461bcd60e51b81526004016109ac90614eee565b6118dc613dc2565b600054610100900460ff166118dc5760405162461bcd60e51b81526004016109ac90614eee565b6000601436108015906137ff57503360009081526065602052604090205460ff165b15613811575060131936013560601c90565b503390565b600061386b826040518060400160405280602081526020017f5361666545524332303a206c6f772d6c6576656c2063616c6c206661696c6564815250856001600160a01b0316613df99092919063ffffffff16565b805190915015611cf157808060200190518101906138899190614bb9565b611cf15760405162461bcd60e51b815260206004820152602a60248201527f5361666545524332303a204552433230206f7065726174696f6e20646964206e6044820152691bdd081cdd58d8d9595960b21b60648201526084016109ac565b6001600160a01b0381163b6139555760405162461bcd60e51b815260206004820152602d60248201527f455243313936373a206e657720696d706c656d656e746174696f6e206973206e60448201526c1bdd08184818dbdb9d1c9858dd609a1b60648201526084016109ac565b600080516020614f7683398151915280546001600160a01b0319166001600160a01b0392909216919091179055565b61398d83613e08565b60008251118061399a5750805b15611cf157612a458383613e48565b600082815260fc602052604080822060fe5460068201546007830154935163353bb87f60e21b81526004810191909152602481019390935290929182916001600160a01b03169063d4eee1fc90604401600060405180830381865afa158015613a16573d6000803e3d6000fd5b505050506040513d6000823e601f3d908101601f19168201604052613a3e91908101906147a7565b60a0820151608082015160088701549395509193509160009061271090613a6a90899061ffff16614e0b565b613a749190614e22565b600887015490915060009061271090613a98908a9062010000900461ffff16614e0b565b613aa29190614e22565b600888015490915060009061271090613ac8908b90640100000000900461ffff16614e0b565b613ad29190614e22565b60038901546001600160a01b031660009081527fc34a738ec333e394a3927794cadc6dd0eb7d9eed0999d1e55021ea223ac362cc6020526040812080549293508592909190613b22908490614c33565b9091555050600085815260fd6020908152604080832060038c01546001600160a01b0316845290915281208054849290613b5d908490614c33565b9091555050600084815260fd6020908152604080832060038c01546001600160a01b0316845290915281208054839290613b98908490614c33565b90915550506003880154600689015460408051888152602081019290925281018490526001600160a01b03909116907f17c48ab8e1617182f35ae77fd7da7f4e15dedf7018aa371a4481c20c790b65469060600160405180910390a26003880154600689015460408051878152602081019290925281018490526001600160a01b03909116907f3476ed3eea2cdac584273bc8830824c8ca42ca2a99e9f144a87a1cdbbf9dd15a9060600160405180910390a250505050505050505050565b600083815260fc602052604090819020805460038201546006830154935192937f2ab2a30b19f7bc6e386d4ee60aa21ed23c127ce9fe26903da97edd54bad0375a93613cb4939288926001600160a01b0390911691889190614f39565b60405180910390a18060040154600003612a455760fe5460068201546005830154604051635ab9ae0f60e11b8152600481019290925260248201526001600160a01b039091169063b5735c1e90604401600060405180830381600087803b158015613d1e57600080fd5b505af1158015613d32573d6000803e3d6000fd5b505050507f6bef1b5e95b741d6e665eb9b5c2d3e1203c46a771451055a9d41e0b8ff4510b78160060154604051613d6b91815260200190565b60405180910390a150505050565b60665460ff166118dc5760405162461bcd60e51b815260206004820152601460248201527314185d5cd8589b194e881b9bdd081c185d5cd95960621b60448201526064016109ac565b600054610100900460ff16613de95760405162461bcd60e51b81526004016109ac90614eee565b6118dc613df461292a565b6135b7565b60606129e18484600085613f3e565b613e11816138e8565b6040516001600160a01b038216907fbc7cd75a20ee27fd9adebab32041f755214dbc6bffa90cc0225b39da2e5c2d3b90600090a250565b60606001600160a01b0383163b613eb05760405162461bcd60e51b815260206004820152602660248201527f416464726573733a2064656c65676174652063616c6c20746f206e6f6e2d636f6044820152651b9d1c9858dd60d21b60648201526084016109ac565b600080846001600160a01b031684604051613ecb91906149ff565b600060405180830381855af49150503d8060008114613f06576040519150601f19603f3d011682016040523d82523d6000602084013e613f0b565b606091505b5091509150613f338282604051806060016040528060278152602001614fb660279139614019565b925050505b92915050565b606082471015613f9f5760405162461bcd60e51b815260206004820152602660248201527f416464726573733a20696e73756666696369656e742062616c616e636520666f6044820152651c8818d85b1b60d21b60648201526084016109ac565b600080866001600160a01b03168587604051613fbb91906149ff565b60006040518083038185875af1925050503d8060008114613ff8576040519150601f19603f3d011682016040523d82523d6000602084013e613ffd565b606091505b509150915061400e87838387614032565b979650505050505050565b606083156140285750816129e4565b6129e483836140a7565b606083156140a157825160000361409a576001600160a01b0385163b61409a5760405162461bcd60e51b815260206004820152601d60248201527f416464726573733a2063616c6c20746f206e6f6e2d636f6e747261637400000060448201526064016109ac565b50816112fb565b6112fb83835b8151156140b75781518083602001fd5b8060405162461bcd60e51b81526004016109ac9190614df8565b6001600160a01b03811681146115b157600080fd5b6000602082840312156140f857600080fd5b81356129e4816140d1565b60006020828403121561411557600080fd5b5035919050565b634e487b7160e01b600052602160045260246000fd5b600581106141425761414261411c565b9052565b60005b83811015614161578181015183820152602001614149565b50506000910152565b60008151808452614182816020860160208601614146565b601f01601f19169290920160200192915050565b6020815281516020820152600060208301516141bd60408401826001600160a01b03169052565b5060408301516001600160a01b03811660608401525060608301516001600160a01b038116608084015250608083015160a083015260a083015160c083015260c083015160e083015260e083015161010081818501528085015191505061012061422c8185018361ffff169052565b84015190506101406142438482018361ffff169052565b840151905061016061425a8482018361ffff169052565b8401519050610180614276848201836001600160a01b03169052565b84015190506101a061428a84820183614132565b8401516101c0848101919091528401516101e0808501919091528401516102008085019190915284015161022080850191909152840151610260610240808601829052919250906142df61028086018461416a565b9501519301929092525090919050565b634e487b7160e01b600052604160045260246000fd5b60405160e0810167ffffffffffffffff81118282101715614328576143286142ef565b60405290565b60405160c0810167ffffffffffffffff81118282101715614328576143286142ef565b604051610160810167ffffffffffffffff81118282101715614328576143286142ef565b604051601f8201601f1916810167ffffffffffffffff8111828210171561439e5761439e6142ef565b604052919050565b600067ffffffffffffffff8211156143c0576143c06142ef565b50601f01601f191660200190565b60006143e16143dc846143a6565b614375565b90508281528383830111156143f557600080fd5b828260208301376000602084830101529392505050565b600082601f83011261441d57600080fd5b6129e4838335602085016143ce565b6000806000806080858703121561444257600080fd5b8435935060208501359250604085013567ffffffffffffffff8082111561446857600080fd5b6144748883890161440c565b9350606087013591508082111561448a57600080fd5b506144978782880161440c565b91505092959194509250565b600080604083850312156144b657600080fd5b50508035926020909101359150565b6000806000606084860312156144da57600080fd5b505081359360208301359350604090920135919050565b6000806040838503121561450457600080fd5b823561450f816140d1565b9150602083013567ffffffffffffffff81111561452b57600080fd5b8301601f8101851361453c57600080fd5b61454b858235602084016143ce565b9150509250929050565b60008060006060848603121561456a57600080fd5b8335925060208401359150604084013567ffffffffffffffff81111561458f57600080fd5b61459b8682870161440c565b9150509250925092565b600080604083850312156145b857600080fd5b8235915060208301356145ca816140d1565b809150509250929050565b61ffff811681146115b157600080fd5b6000602082840312156145f757600080fd5b81356129e4816145d5565b6000806000806080858703121561461857600080fd5b8435614623816140d1565b93506020850135614633816140d1565b92506040850135614643816140d1565b91506060850135614653816140d1565b939692955090935050565b60006020828403121561467057600080fd5b5051919050565b600181811c9082168061468b57607f821691505b6020821081036146ab57634e487b7160e01b600052602260045260246000fd5b50919050565b600082601f8301126146c257600080fd5b81516146d06143dc826143a6565b8181528460208386010111156146e557600080fd5b6112fb826020830160208701614146565b80516002811061470557600080fd5b919050565b8051614705816140d1565b600060e0828403121561472757600080fd5b61472f614305565b905061473a826146f6565b8152602082015160208201526147526040830161470a565b6040820152606082015160608201526080820151608082015260a082015167ffffffffffffffff81111561478557600080fd5b614791848285016146b1565b60a08301525060c082015160c082015292915050565b600080604083850312156147ba57600080fd5b825167ffffffffffffffff808211156147d257600080fd5b9084019060c082870312156147e657600080fd5b6147ee61432e565b8251600581106147fd57600080fd5b80825250602083015160208201526040830151604082015260608301518281111561482757600080fd5b614833888286016146b1565b6060830152506080830151608082015260a083015160a082015280945050602085015191508082111561486557600080fd5b5061454b85828601614715565b6000806040838503121561488557600080fd5b8251614890816140d1565b60208401519092506145ca816140d1565b8051614705816145d5565b6000602082840312156148be57600080fd5b815167ffffffffffffffff808211156148d657600080fd5b9083019061016082860312156148eb57600080fd5b6148f3614351565b8251815260208301518281111561490957600080fd5b614915878286016146b1565b60208301525060408301518281111561492d57600080fd5b614939878286016146b1565b60408301525061494b606084016148a1565b606082015261495c608084016148a1565b608082015260a083015160a082015260c083015160c082015261498160e0840161470a565b60e0820152610100808401518381111561499a57600080fd5b6149a6888287016146b1565b8284015250506101209150818301518282015261014091506149c982840161470a565b91810191909152949350505050565b6020808252600d908201526c1058d8d95cdcc819195b9a5959609a1b604082015260600190565b60008251614a11818460208701614146565b9190910192915050565b601f821115611cf157600081815260208120601f850160051c81016020861015614a425750805b601f850160051c820191505b8181101561370c57828155600101614a4e565b815167ffffffffffffffff811115614a7b57614a7b6142ef565b614a8f81614a898454614677565b84614a1b565b602080601f831160018114614ac45760008415614aac5750858301515b600019600386901b1c1916600185901b17855561370c565b600085815260208120601f198616915b82811015614af357888601518255948401946001909101908401614ad4565b5085821015614b115787850151600019600388901b60f8161c191681555b5050505050600190811b01905550565b6020808252602c908201527f46756e6374696f6e206d7573742062652063616c6c6564207468726f7567682060408201526b19195b1959d85d1958d85b1b60a21b606082015260800190565b6020808252602c908201527f46756e6374696f6e206d7573742062652063616c6c6564207468726f7567682060408201526b6163746976652070726f787960a01b606082015260800190565b600060208284031215614bcb57600080fd5b815180151581146129e457600080fd5b6020808252601590820152744e6f74206f776e6572206f722064656c656761746560581b604082015260600190565b634e487b7160e01b600052601160045260246000fd5b81810381811115613f3857613f38614c0a565b80820180821115613f3857613f38614c0a565b602080825260129082015271105c989a5d1c985d1bdc881b9bdd081cd95d60721b604082015260600190565b6020808252604d908201527f446973707574652068617320616c7265616479206265656e206372656174656460408201527f206f72206265636175736520746865207472616e73616374696f6e206861732060608201526c1899595b88195e1958dd5d1959609a1b608082015260a00190565b60008154614cf281614677565b808552602060018381168015614d0f5760018114614d2957614d57565b60ff1985168884015283151560051b880183019550614d57565b866000528260002060005b85811015614d4f5781548a8201860152908301908401614d34565b890184019650505b505050505092915050565b6020815260006129e46020830184614ce5565b600281106115b1576115b161411c565b60608101614d9285614d75565b848252614d9e84614d75565b602082019390935260400152919050565b60208101614dbc83614d75565b91905290565b8281526040602082015260006129e16040830184614ce5565b600060208284031215614ded57600080fd5b81516129e4816140d1565b6020815260006129e4602083018461416a565b8082028115828204841417613f3857613f38614c0a565b600082614e3f57634e487b7160e01b600052601260045260246000fd5b500490565b8d8152602081018d9052604081018c90526001600160a01b038b81166060830152608082018b905260a082018a905260c0820189905261ffff88811660e08401528781166101008401528616610120830152841661014082015260006101a080610160840152614eb681840186614ce5565b915050826101808301529e9d5050505050505050505050505050565b60ff831681526040602082015260006129e16040830184614ce5565b6020808252602b908201527f496e697469616c697a61626c653a20636f6e7472616374206973206e6f74206960408201526a6e697469616c697a696e6760a81b606082015260800190565b85815260a08101614f4986614d75565b60208201959095526001600160a01b03939093166040840152606083019190915260809091015291905056fe360894a13ba1a3210667c828492db98dca3e2076cc3735a920a3ca505d382bbc73e533bc8a993eccbc1023beebad0020f6b6c3639f83062f00fc194b4d1172ba416464726573733a206c6f772d6c6576656c2064656c65676174652063616c6c206661696c6564a2646970667358221220b69c2c919d42e5c2c9dd12ae4177551a44b8a442d59efd6afb644fcd58deae8d64736f6c63430008110033",
  "linkReferences": {},
  "deployedLinkReferences": {}
}