{
  "_format": "hh-sol-artifact-1",
  "contractName": "TalentLayerArbitrator",
  "sourceName": "contracts/TalentLayerArbitrator.sol",
  "abi": [
    {
      "inputs": [
        {
          "internalType": "address",
          "name": "_talentLayerPlatformIDAddress",
          "type": "address"
        }
      ],
      "stateMutability": "nonpayable",
      "type": "constructor"
    },
    {
      "anonymous": false,
      "inputs": [
        {
          "indexed": true,
          "internalType": "uint256",
          "name": "_disputeID",
          "type": "uint256"
        },
        {
          "indexed": true,
          "internalType": "contract Arbitrable",
          "name": "_arbitrable",
          "type": "address"
        }
      ],
      "name": "AppealDecision",
      "type": "event"
    },
    {
      "anonymous": false,
      "inputs": [
        {
          "indexed": true,
          "internalType": "uint256",
          "name": "_disputeID",
          "type": "uint256"
        },
        {
          "indexed": true,
          "internalType": "contract Arbitrable",
          "name": "_arbitrable",
          "type": "address"
        }
      ],
      "name": "AppealPossible",
      "type": "event"
    },
    {
      "anonymous": false,
      "inputs": [
        {
          "indexed": true,
          "internalType": "uint256",
          "name": "_disputeID",
          "type": "uint256"
        },
        {
          "indexed": true,
          "internalType": "contract Arbitrable",
          "name": "_arbitrable",
          "type": "address"
        }
      ],
      "name": "DisputeCreation",
      "type": "event"
    },
    {
      "inputs": [
        {
          "internalType": "uint256",
          "name": "_disputeID",
          "type": "uint256"
        },
        {
          "internalType": "bytes",
          "name": "_extraData",
          "type": "bytes"
        }
      ],
      "name": "appeal",
      "outputs": [],
      "stateMutability": "payable",
      "type": "function"
    },
    {
      "inputs": [
        {
          "internalType": "uint256",
          "name": "",
          "type": "uint256"
        },
        {
          "internalType": "bytes",
          "name": "",
          "type": "bytes"
        }
      ],
      "name": "appealCost",
      "outputs": [
        {
          "internalType": "uint256",
          "name": "fee",
          "type": "uint256"
        }
      ],
      "stateMutability": "pure",
      "type": "function"
    },
    {
      "inputs": [
        {
          "internalType": "uint256",
          "name": "_disputeID",
          "type": "uint256"
        }
      ],
      "name": "appealPeriod",
      "outputs": [
        {
          "internalType": "uint256",
          "name": "start",
          "type": "uint256"
        },
        {
          "internalType": "uint256",
          "name": "end",
          "type": "uint256"
        }
      ],
      "stateMutability": "view",
      "type": "function"
    },
    {
      "inputs": [
        {
          "internalType": "bytes",
          "name": "_extraData",
          "type": "bytes"
        }
      ],
      "name": "arbitrationCost",
      "outputs": [
        {
          "internalType": "uint256",
          "name": "fee",
          "type": "uint256"
        }
      ],
      "stateMutability": "view",
      "type": "function"
    },
    {
      "inputs": [
        {
          "internalType": "uint256",
          "name": "",
          "type": "uint256"
        }
      ],
      "name": "arbitrationPrice",
      "outputs": [
        {
          "internalType": "uint256",
          "name": "",
          "type": "uint256"
        }
      ],
      "stateMutability": "view",
      "type": "function"
    },
    {
      "inputs": [
        {
          "internalType": "uint256",
          "name": "_choices",
          "type": "uint256"
        },
        {
          "internalType": "bytes",
          "name": "_extraData",
          "type": "bytes"
        }
      ],
      "name": "createDispute",
      "outputs": [
        {
          "internalType": "uint256",
          "name": "disputeID",
          "type": "uint256"
        }
      ],
      "stateMutability": "payable",
      "type": "function"
    },
    {
      "inputs": [
        {
          "internalType": "uint256",
          "name": "_disputeID",
          "type": "uint256"
        }
      ],
      "name": "currentRuling",
      "outputs": [
        {
          "internalType": "uint256",
          "name": "ruling",
          "type": "uint256"
        }
      ],
      "stateMutability": "view",
      "type": "function"
    },
    {
      "inputs": [
        {
          "internalType": "uint256",
          "name": "_disputeID",
          "type": "uint256"
        }
      ],
      "name": "disputeStatus",
      "outputs": [
        {
          "internalType": "enum Arbitrator.DisputeStatus",
          "name": "status",
          "type": "uint8"
        }
      ],
      "stateMutability": "view",
      "type": "function"
    },
    {
      "inputs": [
        {
          "internalType": "uint256",
          "name": "",
          "type": "uint256"
        }
      ],
      "name": "disputes",
      "outputs": [
        {
          "internalType": "contract Arbitrable",
          "name": "arbitrated",
          "type": "address"
        },
        {
          "internalType": "uint256",
          "name": "choices",
          "type": "uint256"
        },
        {
          "internalType": "uint256",
          "name": "fee",
          "type": "uint256"
        },
        {
          "internalType": "uint256",
          "name": "ruling",
          "type": "uint256"
        },
        {
          "internalType": "uint256",
          "name": "platformId",
          "type": "uint256"
        },
        {
          "internalType": "enum Arbitrator.DisputeStatus",
          "name": "status",
          "type": "uint8"
        }
      ],
      "stateMutability": "view",
      "type": "function"
    },
    {
      "inputs": [
        {
          "internalType": "uint256",
          "name": "_disputeID",
          "type": "uint256"
        },
        {
          "internalType": "uint256",
          "name": "_ruling",
          "type": "uint256"
        }
      ],
      "name": "giveRuling",
      "outputs": [],
      "stateMutability": "nonpayable",
      "type": "function"
    },
    {
      "inputs": [],
      "name": "owner",
      "outputs": [
        {
          "internalType": "address",
          "name": "",
          "type": "address"
        }
      ],
      "stateMutability": "view",
      "type": "function"
    },
    {
      "inputs": [
        {
          "internalType": "uint256",
          "name": "_platformId",
          "type": "uint256"
        },
        {
          "internalType": "uint256",
          "name": "_arbitrationPrice",
          "type": "uint256"
        }
      ],
      "name": "setArbitrationPrice",
      "outputs": [],
      "stateMutability": "nonpayable",
      "type": "function"
    }
  ],
  "bytecode": "0x6080604052600080546001600160a01b0319163317905534801561002257600080fd5b50604051610c9e380380610c9e83398101604081905261004191610066565b600180546001600160a01b0319166001600160a01b0392909216919091179055610096565b60006020828403121561007857600080fd5b81516001600160a01b038116811461008f57600080fd5b9392505050565b610bf9806100a56000396000f3fe6080604052600436106100a75760003560e01c8063a85b5ef711610064578063a85b5ef7146101af578063afe15cfb146101dc578063c13517e114610214578063c97c4d5c14610227578063f23f16e614610247578063f7434ea91461026757600080fd5b806310f169e8146100ac5780631c3db16d146100e257806349912f8814610110578063564a565d14610125578063800510c5146101575780638da5cb5b14610177575b600080fd5b3480156100b857600080fd5b506100cc6100c736600461092c565b610287565b6040516100d9919061097d565b60405180910390f35b3480156100ee57600080fd5b506101026100fd36600461092c565b6102b9565b6040519081526020016100d9565b61012361011e366004610a2e565b6102e7565b005b34801561013157600080fd5b5061014561014036600461092c565b610388565b6040516100d996959493929190610a75565b34801561016357600080fd5b50610123610172366004610ab9565b6103db565b34801561018357600080fd5b50600054610197906001600160a01b031681565b6040516001600160a01b0390911681526020016100d9565b3480156101bb57600080fd5b506101026101ca36600461092c565b60026020526000908152604090205481565b3480156101e857600080fd5b506101ff6101f736600461092c565b600080915091565b604080519283526020830191909152016100d9565b610102610222366004610a2e565b61048a565b34801561023357600080fd5b50610123610242366004610ab9565b6105c9565b34801561025357600080fd5b50610102610262366004610a2e565b61069f565b34801561027357600080fd5b50610102610282366004610adb565b6106ae565b60006003828154811061029c5761029c610b18565b600091825260209091206005600690920201015460ff1692915050565b6000600382815481106102ce576102ce610b18565b9060005260206000209060060201600301549050919050565b81816102f3828261069f565b3410156103555760405162461bcd60e51b815260206004820152602560248201527f4e6f7420656e6f7567682045544820746f20636f7665722061707065616c206360448201526437b9ba399760d91b60648201526084015b60405180910390fd5b604051339085907f9c9b64db9e130f48381bf697abf638e73117dbfbfd7a4484f2da3ba188f4187d90600090a350505050565b6003818154811061039857600080fd5b60009182526020909120600690910201805460018201546002830154600384015460048501546005909501546001600160a01b0390941695509193909260ff1686565b6001546040516331a9108f60e11b8152600481018490526001600160a01b0390911690636352211e90602401602060405180830381865afa158015610424573d6000803e3d6000fd5b505050506040513d601f19601f820116820180604052508101906104489190610b2e565b6001600160a01b0316336001600160a01b0316146104785760405162461bcd60e51b815260040161034c90610b5e565b60009182526002602052604090912055565b600061049683836106d0565b5060006104a283610745565b905060036040518060c00160405280336001600160a01b0316815260200186815260200134815260200160008152602001838152602001600060028111156104ec576104ec610945565b90528154600180820184556000938452602093849020835160069093020180546001600160a01b0319166001600160a01b0390931692909217825592820151818401556040820151600280830191909155606083015160038301556080830151600483015560a0830151600583018054949593949193909260ff1990921691849081111561057c5761057c610945565b0217905550506003546105929150600190610ba2565b604051909250339083907f141dfc18aa6a56fc816f44f0e9e2f1ebc92b15ab167770e17db5b084c10ed99590600090a35092915050565b6000600383815481106105de576105de610b18565b6000918252602090912060015460046006909302909101828101546040516331a9108f60e11b81529384015292506001600160a01b031690636352211e90602401602060405180830381865afa15801561063c573d6000803e3d6000fd5b505050506040513d601f19601f820116820180604052508101906106609190610b2e565b6001600160a01b0316336001600160a01b0316146106905760405162461bcd60e51b815260040161034c90610b5e565b61069a8383610798565b505050565b6001600160ff1b035b92915050565b6000806106ba83610745565b6000908152600260205260409020549392505050565b6000816106dc816106ae565b34101561073e5760405162461bcd60e51b815260206004820152602a60248201527f4e6f7420656e6f7567682045544820746f20636f76657220617262697472617460448201526934b7b71031b7b9ba399760b11b606482015260840161034c565b5092915050565b60006020825110156107905760405162461bcd60e51b8152602060048201526014602482015273736c6963696e67206f7574206f662072616e676560601b604482015260640161034c565b506020015190565b6000600383815481106107ad576107ad610b18565b9060005260206000209060060201905080600101548211156108035760405162461bcd60e51b815260206004820152600f60248201526e24b73b30b634b210393ab634b7339760891b604482015260640161034c565b6002600582015460ff16600281111561081e5761081e610945565b0361087b5760405162461bcd60e51b815260206004820152602760248201527f5468652064697370757465206d757374206e6f7420626520736f6c7665642061604482015266363932b0b23c9760c91b606482015260840161034c565b6003810182905560058101805460ff1916600290811790915581015460405133916108fc811502916000818181858888f193505050501580156108c2573d6000803e3d6000fd5b50805460405163188d362b60e11b815260048101859052602481018490526001600160a01b039091169063311a6c5690604401600060405180830381600087803b15801561090f57600080fd5b505af1158015610923573d6000803e3d6000fd5b50505050505050565b60006020828403121561093e57600080fd5b5035919050565b634e487b7160e01b600052602160045260246000fd5b6003811061097957634e487b7160e01b600052602160045260246000fd5b9052565b602081016106a8828461095b565b634e487b7160e01b600052604160045260246000fd5b600082601f8301126109b257600080fd5b813567ffffffffffffffff808211156109cd576109cd61098b565b604051601f8301601f19908116603f011681019082821181831017156109f5576109f561098b565b81604052838152866020858801011115610a0e57600080fd5b836020870160208301376000602085830101528094505050505092915050565b60008060408385031215610a4157600080fd5b82359150602083013567ffffffffffffffff811115610a5f57600080fd5b610a6b858286016109a1565b9150509250929050565b6001600160a01b03871681526020810186905260408101859052606081018490526080810183905260c08101610aae60a083018461095b565b979650505050505050565b60008060408385031215610acc57600080fd5b50508035926020909101359150565b600060208284031215610aed57600080fd5b813567ffffffffffffffff811115610b0457600080fd5b610b10848285016109a1565b949350505050565b634e487b7160e01b600052603260045260246000fd5b600060208284031215610b4057600080fd5b81516001600160a01b0381168114610b5757600080fd5b9392505050565b60208082526024908201527f596f75277265206e6f7420746865206f776e6572206f662074686520706c6174604082015263666f726d60e01b606082015260800190565b818103818111156106a857634e487b7160e01b600052601160045260246000fdfea2646970667358221220d68445b2265f9ab4f854cc2e2162f80370018debee9f23dc9b55558c7cd0359a64736f6c63430008110033",
  "linkReferences": {},
  "deployedLinkReferences": {}
}