{
  "_format": "hh-sol-artifact-1",
  "contractName": "TalentLayerArbitrator",
  "sourceName": "contracts/TalentLayerArbitrator.sol",
  "abi": [
    {
      "inputs": [
        {
          "internalType": "address",
          "name": "_talentLayerPlatformIDAddress",
          "type": "address"
        }
      ],
      "stateMutability": "nonpayable",
      "type": "constructor"
    },
    {
      "anonymous": false,
      "inputs": [
        {
          "indexed": true,
          "internalType": "uint256",
          "name": "_disputeID",
          "type": "uint256"
        },
        {
          "indexed": true,
          "internalType": "contract IArbitrable",
          "name": "_arbitrable",
          "type": "address"
        }
      ],
      "name": "AppealDecision",
      "type": "event"
    },
    {
      "anonymous": false,
      "inputs": [
        {
          "indexed": true,
          "internalType": "uint256",
          "name": "_disputeID",
          "type": "uint256"
        },
        {
          "indexed": true,
          "internalType": "contract IArbitrable",
          "name": "_arbitrable",
          "type": "address"
        }
      ],
      "name": "AppealPossible",
      "type": "event"
    },
    {
      "anonymous": false,
      "inputs": [
        {
          "indexed": true,
          "internalType": "uint256",
          "name": "_disputeID",
          "type": "uint256"
        },
        {
          "indexed": true,
          "internalType": "contract IArbitrable",
          "name": "_arbitrable",
          "type": "address"
        }
      ],
      "name": "DisputeCreation",
      "type": "event"
    },
    {
      "inputs": [
        {
          "internalType": "uint256",
          "name": "_disputeID",
          "type": "uint256"
        },
        {
          "internalType": "bytes",
          "name": "_extraData",
          "type": "bytes"
        }
      ],
      "name": "appeal",
      "outputs": [],
      "stateMutability": "payable",
      "type": "function"
    },
    {
      "inputs": [
        {
          "internalType": "uint256",
          "name": "",
          "type": "uint256"
        },
        {
          "internalType": "bytes",
          "name": "",
          "type": "bytes"
        }
      ],
      "name": "appealCost",
      "outputs": [
        {
          "internalType": "uint256",
          "name": "fee",
          "type": "uint256"
        }
      ],
      "stateMutability": "pure",
      "type": "function"
    },
    {
      "inputs": [
        {
          "internalType": "uint256",
          "name": "_disputeID",
          "type": "uint256"
        }
      ],
      "name": "appealPeriod",
      "outputs": [
        {
          "internalType": "uint256",
          "name": "start",
          "type": "uint256"
        },
        {
          "internalType": "uint256",
          "name": "end",
          "type": "uint256"
        }
      ],
      "stateMutability": "view",
      "type": "function"
    },
    {
      "inputs": [
        {
          "internalType": "bytes",
          "name": "_extraData",
          "type": "bytes"
        }
      ],
      "name": "arbitrationCost",
      "outputs": [
        {
          "internalType": "uint256",
          "name": "fee",
          "type": "uint256"
        }
      ],
      "stateMutability": "view",
      "type": "function"
    },
    {
      "inputs": [
        {
          "internalType": "uint256",
          "name": "",
          "type": "uint256"
        }
      ],
      "name": "arbitrationPrice",
      "outputs": [
        {
          "internalType": "uint256",
          "name": "",
          "type": "uint256"
        }
      ],
      "stateMutability": "view",
      "type": "function"
    },
    {
      "inputs": [
        {
          "internalType": "uint256",
          "name": "_choices",
          "type": "uint256"
        },
        {
          "internalType": "bytes",
          "name": "_extraData",
          "type": "bytes"
        }
      ],
      "name": "createDispute",
      "outputs": [
        {
          "internalType": "uint256",
          "name": "disputeID",
          "type": "uint256"
        }
      ],
      "stateMutability": "payable",
      "type": "function"
    },
    {
      "inputs": [
        {
          "internalType": "uint256",
          "name": "_disputeID",
          "type": "uint256"
        }
      ],
      "name": "currentRuling",
      "outputs": [
        {
          "internalType": "uint256",
          "name": "ruling",
          "type": "uint256"
        }
      ],
      "stateMutability": "view",
      "type": "function"
    },
    {
      "inputs": [
        {
          "internalType": "uint256",
          "name": "_disputeID",
          "type": "uint256"
        }
      ],
      "name": "disputeStatus",
      "outputs": [
        {
          "internalType": "enum Arbitrator.DisputeStatus",
          "name": "status",
          "type": "uint8"
        }
      ],
      "stateMutability": "view",
      "type": "function"
    },
    {
      "inputs": [
        {
          "internalType": "uint256",
          "name": "",
          "type": "uint256"
        }
      ],
      "name": "disputes",
      "outputs": [
        {
          "internalType": "contract IArbitrable",
          "name": "arbitrated",
          "type": "address"
        },
        {
          "internalType": "uint256",
          "name": "choices",
          "type": "uint256"
        },
        {
          "internalType": "uint256",
          "name": "fee",
          "type": "uint256"
        },
        {
          "internalType": "uint256",
          "name": "ruling",
          "type": "uint256"
        },
        {
          "internalType": "uint256",
          "name": "platformId",
          "type": "uint256"
        },
        {
          "internalType": "enum Arbitrator.DisputeStatus",
          "name": "status",
          "type": "uint8"
        }
      ],
      "stateMutability": "view",
      "type": "function"
    },
    {
      "inputs": [
        {
          "internalType": "uint256",
          "name": "_disputeID",
          "type": "uint256"
        },
        {
          "internalType": "uint256",
          "name": "_ruling",
          "type": "uint256"
        }
      ],
      "name": "giveRuling",
      "outputs": [],
      "stateMutability": "nonpayable",
      "type": "function"
    },
    {
      "inputs": [
        {
          "internalType": "uint256",
          "name": "_platformId",
          "type": "uint256"
        },
        {
          "internalType": "uint256",
          "name": "_arbitrationPrice",
          "type": "uint256"
        }
      ],
      "name": "setArbitrationPrice",
      "outputs": [],
      "stateMutability": "nonpayable",
      "type": "function"
    }
  ],
  "bytecode": "0x608060405234801561001057600080fd5b50604051610c31380380610c3183398101604081905261002f91610054565b600080546001600160a01b0319166001600160a01b0392909216919091179055610084565b60006020828403121561006657600080fd5b81516001600160a01b038116811461007d57600080fd5b9392505050565b610b9e806100936000396000f3fe60806040526004361061009c5760003560e01c8063a85b5ef711610064578063a85b5ef71461016c578063afe15cfb14610199578063c13517e1146101d1578063c97c4d5c146101e4578063f23f16e614610204578063f7434ea91461022457600080fd5b806310f169e8146100a15780631c3db16d146100d757806349912f8814610105578063564a565d1461011a578063800510c51461014c575b600080fd5b3480156100ad57600080fd5b506100c16100bc3660046108d1565b610244565b6040516100ce9190610922565b60405180910390f35b3480156100e357600080fd5b506100f76100f23660046108d1565b610276565b6040519081526020016100ce565b6101186101133660046109d3565b6102a4565b005b34801561012657600080fd5b5061013a6101353660046108d1565b610345565b6040516100ce96959493929190610a1a565b34801561015857600080fd5b50610118610167366004610a5e565b610398565b34801561017857600080fd5b506100f76101873660046108d1565b60016020526000908152604090205481565b3480156101a557600080fd5b506101bc6101b43660046108d1565b600080915091565b604080519283526020830191909152016100ce565b6100f76101df3660046109d3565b610447565b3480156101f057600080fd5b506101186101ff366004610a5e565b610586565b34801561021057600080fd5b506100f761021f3660046109d3565b6107d8565b34801561023057600080fd5b506100f761023f366004610a80565b6107e7565b60006002828154811061025957610259610abd565b600091825260209091206005600690920201015460ff1692915050565b60006002828154811061028b5761028b610abd565b9060005260206000209060060201600301549050919050565b81816102b082826107d8565b3410156103125760405162461bcd60e51b815260206004820152602560248201527f4e6f7420656e6f7567682045544820746f20636f7665722061707065616c206360448201526437b9ba399760d91b60648201526084015b60405180910390fd5b604051339085907f9c9b64db9e130f48381bf697abf638e73117dbfbfd7a4484f2da3ba188f4187d90600090a350505050565b6002818154811061035557600080fd5b60009182526020909120600690910201805460018201546002830154600384015460048501546005909501546001600160a01b0390941695509193909260ff1686565b6000546040516331a9108f60e11b8152600481018490526001600160a01b0390911690636352211e90602401602060405180830381865afa1580156103e1573d6000803e3d6000fd5b505050506040513d601f19601f820116820180604052508101906104059190610ad3565b6001600160a01b0316336001600160a01b0316146104355760405162461bcd60e51b815260040161030990610b03565b60009182526001602052604090912055565b60006104538383610809565b50600061045f8361087e565b905060026040518060c00160405280336001600160a01b0316815260200186815260200134815260200160008152602001838152602001600060028111156104a9576104a96108ea565b90528154600180820184556000938452602093849020835160069093020180546001600160a01b0319166001600160a01b0390931692909217825592820151818401556040820151600280830191909155606083015160038301556080830151600483015560a0830151600583018054949593949193909260ff19909216918490811115610539576105396108ea565b02179055505060025461054f9150600190610b47565b604051909250339083907f141dfc18aa6a56fc816f44f0e9e2f1ebc92b15ab167770e17db5b084c10ed99590600090a35092915050565b60006002838154811061059b5761059b610abd565b60009182526020822091546004600692909202909201818101546040516331a9108f60e11b81529283015292506001600160a01b0390911690636352211e90602401602060405180830381865afa1580156105fa573d6000803e3d6000fd5b505050506040513d601f19601f8201168201806040525081019061061e9190610ad3565b6001600160a01b0316336001600160a01b03161461064e5760405162461bcd60e51b815260040161030990610b03565b80600101548211156106945760405162461bcd60e51b815260206004820152600f60248201526e24b73b30b634b210393ab634b7339760891b6044820152606401610309565b6002600582015460ff1660028111156106af576106af6108ea565b0361070c5760405162461bcd60e51b815260206004820152602760248201527f5468652064697370757465206d757374206e6f7420626520736f6c7665642061604482015266363932b0b23c9760c91b6064820152608401610309565b6003810182905560058101805460ff19166002908117909155810154604051339190600081818185875af1925050503d8060008114610767576040519150601f19603f3d011682016040523d82523d6000602084013e61076c565b606091505b5050815460405163188d362b60e11b815260048101869052602481018590526001600160a01b03909116915063311a6c5690604401600060405180830381600087803b1580156107bb57600080fd5b505af11580156107cf573d6000803e3d6000fd5b50505050505050565b6001600160ff1b035b92915050565b6000806107f38361087e565b6000908152600160205260409020549392505050565b600081610815816107e7565b3410156108775760405162461bcd60e51b815260206004820152602a60248201527f4e6f7420656e6f7567682045544820746f20636f76657220617262697472617460448201526934b7b71031b7b9ba399760b11b6064820152608401610309565b5092915050565b60006020825110156108c95760405162461bcd60e51b8152602060048201526014602482015273736c6963696e67206f7574206f662072616e676560601b6044820152606401610309565b506020015190565b6000602082840312156108e357600080fd5b5035919050565b634e487b7160e01b600052602160045260246000fd5b6003811061091e57634e487b7160e01b600052602160045260246000fd5b9052565b602081016107e18284610900565b634e487b7160e01b600052604160045260246000fd5b600082601f83011261095757600080fd5b813567ffffffffffffffff8082111561097257610972610930565b604051601f8301601f19908116603f0116810190828211818310171561099a5761099a610930565b816040528381528660208588010111156109b357600080fd5b836020870160208301376000602085830101528094505050505092915050565b600080604083850312156109e657600080fd5b82359150602083013567ffffffffffffffff811115610a0457600080fd5b610a1085828601610946565b9150509250929050565b6001600160a01b03871681526020810186905260408101859052606081018490526080810183905260c08101610a5360a0830184610900565b979650505050505050565b60008060408385031215610a7157600080fd5b50508035926020909101359150565b600060208284031215610a9257600080fd5b813567ffffffffffffffff811115610aa957600080fd5b610ab584828501610946565b949350505050565b634e487b7160e01b600052603260045260246000fd5b600060208284031215610ae557600080fd5b81516001600160a01b0381168114610afc57600080fd5b9392505050565b60208082526024908201527f596f75277265206e6f7420746865206f776e6572206f662074686520706c6174604082015263666f726d60e01b606082015260800190565b818103818111156107e157634e487b7160e01b600052601160045260246000fdfea2646970667358221220200c4ad379f188522ad505fbee8db5455a1bebcb163ad25864fdb3e75df8f28964736f6c63430008110033",
  "linkReferences": {},
  "deployedLinkReferences": {}
}