{
  "_format": "hh-sol-artifact-1",
  "contractName": "TalentLayerMultipleArbitrableTransaction",
  "sourceName": "contracts/kleros/TalentLayerMultipleArbitrableTransaction.sol",
  "abi": [
    {
      "inputs": [
        {
          "internalType": "address",
          "name": "_serviceRegistryAddress",
          "type": "address"
        },
        {
          "internalType": "address",
          "name": "_talentLayerIDAddress",
          "type": "address"
        },
        {
          "internalType": "contract Arbitrator",
          "name": "_arbitrator",
          "type": "address"
        },
        {
          "internalType": "bytes",
          "name": "_arbitratorExtraData",
          "type": "bytes"
        },
        {
          "internalType": "uint256",
          "name": "_feeTimeout",
          "type": "uint256"
        }
      ],
      "stateMutability": "nonpayable",
      "type": "constructor"
    },
    {
      "anonymous": false,
      "inputs": [
        {
          "indexed": false,
          "internalType": "uint256",
          "name": "serviceId",
          "type": "uint256"
        },
        {
          "indexed": false,
          "internalType": "uint256",
          "name": "sellerId",
          "type": "uint256"
        },
        {
          "indexed": false,
          "internalType": "uint256",
          "name": "transactionId",
          "type": "uint256"
        }
      ],
      "name": "ServiceProposalConfirmedWithDeposit",
      "type": "event"
    },
    {
      "anonymous": false,
      "inputs": [
        {
          "indexed": false,
          "internalType": "enum TalentLayerMultipleArbitrableTransaction.PaymentType",
          "name": "_paymentType",
          "type": "uint8"
        },
        {
          "indexed": false,
          "internalType": "uint256",
          "name": "_amount",
          "type": "uint256"
        },
        {
          "indexed": false,
          "internalType": "address",
          "name": "_token",
          "type": "address"
        },
        {
          "indexed": false,
          "internalType": "uint256",
          "name": "_serviceId",
          "type": "uint256"
        }
      ],
      "name": "Payment",
      "type": "event"
    },
    {
      "anonymous": false,
      "inputs": [
        {
          "indexed": false,
          "internalType": "uint256",
          "name": "_serviceId",
          "type": "uint256"
        }
      ],
      "name": "PaymentCompleted",
      "type": "event"
    },
    {
      "inputs": [
        {
          "internalType": "uint256",
          "name": "_timeoutPayment",
          "type": "uint256"
        },
        {
          "internalType": "string",
          "name": "_metaEvidence",
          "type": "string"
        },
        {
          "internalType": "address",
          "name": "_adminWallet",
          "type": "address"
        },
        {
          "internalType": "uint256",
          "name": "_adminFeeAmount",
          "type": "uint256"
        },
        {
          "internalType": "uint256",
          "name": "_serviceId",
          "type": "uint256"
        },
        {
          "internalType": "uint256",
          "name": "_proposalId",
          "type": "uint256"
        }
      ],
      "name": "createETHTransaction",
      "outputs": [],
      "stateMutability": "payable",
      "type": "function"
    },
    {
      "inputs": [
        {
          "internalType": "uint256",
          "name": "_timeoutPayment",
          "type": "uint256"
        },
        {
          "internalType": "string",
          "name": "_metaEvidence",
          "type": "string"
        },
        {
          "internalType": "address",
          "name": "_adminWallet",
          "type": "address"
        },
        {
          "internalType": "uint256",
          "name": "_adminFeeAmount",
          "type": "uint256"
        },
        {
          "internalType": "uint256",
          "name": "_serviceId",
          "type": "uint256"
        },
        {
          "internalType": "uint256",
          "name": "_proposalId",
          "type": "uint256"
        }
      ],
      "name": "createTokenTransaction",
      "outputs": [],
      "stateMutability": "nonpayable",
      "type": "function"
    },
    {
      "inputs": [
        {
          "internalType": "uint256",
          "name": "_transactionId",
          "type": "uint256"
        },
        {
          "internalType": "uint256",
          "name": "_amount",
          "type": "uint256"
        }
      ],
      "name": "reimburse",
      "outputs": [],
      "stateMutability": "nonpayable",
      "type": "function"
    },
    {
      "inputs": [
        {
          "internalType": "uint256",
          "name": "_transactionId",
          "type": "uint256"
        },
        {
          "internalType": "uint256",
          "name": "_amount",
          "type": "uint256"
        }
      ],
      "name": "release",
      "outputs": [],
      "stateMutability": "nonpayable",
      "type": "function"
    }
  ],
  "bytecode": "0x60806040523480156200001157600080fd5b5060405162001661380380620016618339810160408190526200003491620000a4565b600180546001600160a01b0319166001600160a01b038716179055600280546001600160a01b0319166001600160a01b0386161790555050505050620001ce565b6001600160a01b03811681146200008b57600080fd5b50565b634e487b7160e01b600052604160045260246000fd5b600080600080600060a08688031215620000bd57600080fd5b8551620000ca8162000075565b80955050602080870151620000df8162000075565b6040880151909550620000f28162000075565b60608801519094506001600160401b03808211156200011057600080fd5b818901915089601f8301126200012557600080fd5b8151818111156200013a576200013a6200008e565b604051601f8201601f19908116603f011681019083821181831017156200016557620001656200008e565b816040528281528c868487010111156200017e57600080fd5b600093505b82841015620001a2578484018601518185018701529285019262000183565b82841115620001b45760008684830101525b809750505050505050608086015190509295509295909350565b61148380620001de6000396000f3fe60806040526004361061003f5760003560e01c80631dabf6b114610044578063366a4120146100595780636613750314610079578063fe43a99214610099575b600080fd5b61005761005236600461103d565b6100b9565b005b34801561006557600080fd5b506100576100743660046110f3565b6103c6565b34801561008557600080fd5b5061005761009436600461103d565b610552565b3480156100a557600080fd5b506100576100b43660046110f3565b61075a565b6100c1610ee6565b6100c9610f1f565b6000806100f360405180604001604052806006815260200165636f75636f7560d01b8152506108c8565b6100fd868661090e565b92965090945092509050336001600160a01b038316146101385760405162461bcd60e51b815260040161012f90611115565b60405180910390fd5b8684606001516101489190611153565b341461018c5760405162461bcd60e51b81526020600482015260136024820152722737b716b6b0ba31b434b73390333ab732399760691b604482015260640161012f565b60408401516001600160a01b0316156101e75760405162461bcd60e51b815260206004820152601760248201527f50726f706f73616c20746f6b656e206e6f74204554482e000000000000000000604482015260640161012f565b848460200151146102335760405162461bcd60e51b815260206004820152601660248201527524b731b7b93932b1ba10383937b837b9b0b61024a21760511b604482015260640161012f565b6004835160048111156102485761024861116b565b1461028c5760405162461bcd60e51b81526020600482015260146024820152732537b11039ba30ba3ab9903737ba1037b832b71760611b604482015260640161012f565b6000845160028111156102a1576102a161116b565b146102ee5760405162461bcd60e51b815260206004820152601c60248201527f50726f706f73616c20737461747573206e6f742070656e64696e672e00000000604482015260640161012f565b60006103058383876040015188606001518b610a66565b6001546040516353eaf57560e11b8152600481018a905260248101899052604481018390529192506001600160a01b03169063a7d5eaea90606401600060405180830381600087803b15801561035a57600080fd5b505af115801561036e573d6000803e3d6000fd5b505050602080870151604080518b81529283019190915281018390527f8f2e14caf1895527942e50b5f4f88a777a469d3ea0122ec6d6ef38e80c13704891506060015b60405180910390a15050505050505050505050565b60005482106104175760405162461bcd60e51b815260206004820152601b60248201527f4e6f7420612076616c6964207472616e73616374696f6e2069642e0000000000604482015260640161012f565b600080838154811061042b5761042b611181565b6000918252602090912060059091020180549091506001600160a01b031633146104675760405162461bcd60e51b815260040161012f90611115565b81816003015410156104b15760405162461bcd60e51b815260206004820152601360248201527224b739bab33334b1b4b2b73a10333ab732399760691b604482015260640161012f565b818160030160008282546104c59190611197565b9091555050600181015460028201546104eb916001600160a01b03908116911684610bb3565b600281015460048201546040517fdaa591b50a981113dacf06d6569df00c5b022da0ee70df9df0dfab17eaa24129926105339260009287926001600160a01b031691906111ae565b60405180910390a161054d81600401548260030154610cc5565b505050565b61055a610ee6565b610562610f1f565b60008061056f868661090e565b9296509094509250905060048351600481111561058e5761058e61116b565b146105d25760405162461bcd60e51b81526020600482015260146024820152732537b11039ba30ba3ab9903737ba1037b832b71760611b604482015260640161012f565b6000845160028111156105e7576105e761116b565b146106345760405162461bcd60e51b815260206004820152601c60248201527f50726f706f73616c20737461747573206e6f742070656e64696e672e00000000604482015260640161012f565b848460200151146106805760405162461bcd60e51b815260206004820152601660248201527524b731b7b93932b1ba10383937b837b9b0b61024a21760511b604482015260640161012f565b60006106978383876040015188606001518b610a66565b6001546040516353eaf57560e11b8152600481018a905260248101899052604481018390529192506001600160a01b03169063a7d5eaea90606401600060405180830381600087803b1580156106ec57600080fd5b505af1158015610700573d6000803e3d6000fd5b505050506107178386604001518760600151610d66565b602080860151604080518a81529283019190915281018290527f8f2e14caf1895527942e50b5f4f88a777a469d3ea0122ec6d6ef38e80c137048906060016103b1565b60005482106107ab5760405162461bcd60e51b815260206004820152601b60248201527f4e6f7420612076616c6964207472616e73616374696f6e2069642e0000000000604482015260640161012f565b60008083815481106107bf576107bf611181565b600091825260209091206001600590920201908101549091506001600160a01b031633146107ff5760405162461bcd60e51b815260040161012f90611115565b81816003015410156108495760405162461bcd60e51b815260206004820152601360248201527224b739bab33334b1b4b2b73a10333ab732399760691b604482015260640161012f565b8181600301600082825461085d9190611197565b909155505080546002820154610880916001600160a01b03908116911684610bb3565b600281015460048201546040517fdaa591b50a981113dacf06d6569df00c5b022da0ee70df9df0dfab17eaa24129926105339260019287926001600160a01b031691906111ae565b61090b816040516024016108dc9190611221565b60408051601f198184030181529190526020810180516001600160e01b031663104c13eb60e21b179052610da1565b50565b610916610ee6565b61091e610f1f565b600080600061092d8787610dc2565b9050600061093a88610e58565b60025460208201516040516331a9108f60e11b81529293506000926001600160a01b0390921691636352211e916109779160040190815260200190565b60206040518083038186803b15801561098f57600080fd5b505afa1580156109a3573d6000803e3d6000fd5b505050506040513d601f19601f820116820180604052508101906109c79190611254565b60025460208501516040516331a9108f60e11b81529293506000926001600160a01b0390921691636352211e91610a049160040190815260200190565b60206040518083038186803b158015610a1c57600080fd5b505afa158015610a30573d6000803e3d6000fd5b505050506040513d601f19601f82011682018060405250810190610a549190611254565b939a9299509097509195509350505050565b6040805160a0810182526001600160a01b0380881682528681166020830190815286821693830193845260608301868152608084018681526000805460018181018355828052965160059091027f290decd9548b62a8d60345a988386fc84ba6bc95484008f6362f93160ef3e563810180549288166001600160a01b031993841617905594517f290decd9548b62a8d60345a988386fc84ba6bc95484008f6362f93160ef3e5648601805491881691831691909117905596517f290decd9548b62a8d60345a988386fc84ba6bc95484008f6362f93160ef3e5658501805491909616971696909617909355517f290decd9548b62a8d60345a988386fc84ba6bc95484008f6362f93160ef3e56682015590517f290decd9548b62a8d60345a988386fc84ba6bc95484008f6362f93160ef3e567909101558154610ba99190611197565b9695505050505050565b6001600160a01b038216610bfd576040516001600160a01b0384169082156108fc029083906000818181858888f19350505050158015610bf7573d6000803e3d6000fd5b50505050565b60405163a9059cbb60e01b81526001600160a01b0384811660048301526024820183905283169063a9059cbb906044015b602060405180830381600087803b158015610c4857600080fd5b505af1158015610c5c573d6000803e3d6000fd5b505050506040513d601f19601f82011682018060405250810190610c809190611271565b61054d5760405162461bcd60e51b8152602060048201526016602482015275151c985b9cd9995c881b5d5cdd081b9bdd0819985a5b60521b604482015260640161012f565b80610d6257600154604051631271956760e21b8152600481018490526001600160a01b03909116906349c6559c90602401600060405180830381600087803b158015610d1057600080fd5b505af1158015610d24573d6000803e3d6000fd5b505050507f6bef1b5e95b741d6e665eb9b5c2d3e1203c46a771451055a9d41e0b8ff4510b782604051610d5991815260200190565b60405180910390a15b5050565b6040516323b872dd60e01b81526001600160a01b038481166004830152306024830152604482018390528316906323b872dd90606401610c2e565b80516a636f6e736f6c652e6c6f67602083016000808483855afa5050505050565b610dca610ee6565b60015460405163aba2100960e01b815260048101859052602481018490526001600160a01b039091169063aba210099060440160006040518083038186803b158015610e1557600080fd5b505afa158015610e29573d6000803e3d6000fd5b505050506040513d6000823e601f3d908101601f19168201604052610e5191908101906112e0565b9392505050565b610e60610f1f565b60015460405163bf22c45760e01b8152600481018490526001600160a01b039091169063bf22c4579060240160006040518083038186803b158015610ea457600080fd5b505afa158015610eb8573d6000803e3d6000fd5b505050506040513d6000823e601f3d908101601f19168201604052610ee0919081019061139a565b92915050565b6040805160a0810190915280600081526020016000815260200160006001600160a01b0316815260200160008152602001606081525090565b6040805160e0810190915280600081526020016000815260200160008152602001600081526020016060815260200160008152602001600081525090565b634e487b7160e01b600052604160045260246000fd5b60405160a0810167ffffffffffffffff81118282101715610f9657610f96610f5d565b60405290565b60405160e0810167ffffffffffffffff81118282101715610f9657610f96610f5d565b604051601f8201601f1916810167ffffffffffffffff81118282101715610fe857610fe8610f5d565b604052919050565b600067ffffffffffffffff82111561100a5761100a610f5d565b50601f01601f191660200190565b6001600160a01b038116811461090b57600080fd5b803561103881611018565b919050565b60008060008060008060c0878903121561105657600080fd5b86359550602087013567ffffffffffffffff81111561107457600080fd5b8701601f8101891361108557600080fd5b803561109861109382610ff0565b610fbf565b8181528a60208385010111156110ad57600080fd5b816020840160208301376000602083830101528097505050506110d26040880161102d565b9350606087013592506080870135915060a087013590509295509295509295565b6000806040838503121561110657600080fd5b50508035926020909101359150565b6020808252600e908201526d20b1b1b2b9b9903232b734b2b21760911b604082015260600190565b634e487b7160e01b600052601160045260246000fd5b600082198211156111665761116661113d565b500190565b634e487b7160e01b600052602160045260246000fd5b634e487b7160e01b600052603260045260246000fd5b6000828210156111a9576111a961113d565b500390565b60808101600286106111d057634e487b7160e01b600052602160045260246000fd5b94815260208101939093526001600160a01b0391909116604083015260609091015290565b60005b838110156112105781810151838201526020016111f8565b83811115610bf75750506000910152565b60208152600082518060208401526112408160408501602087016111f5565b601f01601f19169190910160400192915050565b60006020828403121561126657600080fd5b8151610e5181611018565b60006020828403121561128357600080fd5b81518015158114610e5157600080fd5b600082601f8301126112a457600080fd5b81516112b261109382610ff0565b8181528460208386010111156112c757600080fd5b6112d88260208301602087016111f5565b949350505050565b6000602082840312156112f257600080fd5b815167ffffffffffffffff8082111561130a57600080fd5b9083019060a0828603121561131e57600080fd5b611326610f73565b82516003811061133557600080fd5b815260208381015190820152604083015161134f81611018565b60408201526060838101519082015260808301518281111561137057600080fd5b61137c87828601611293565b60808301525095945050505050565b80516005811061103857600080fd5b6000602082840312156113ac57600080fd5b815167ffffffffffffffff808211156113c457600080fd5b9083019060e082860312156113d857600080fd5b6113e0610f9c565b6113e98361138b565b815260208301516020820152604083015160408201526060830151606082015260808301518281111561141b57600080fd5b61142787828601611293565b60808301525060a083015160a082015260c083015160c08201528093505050509291505056fea26469706673582212209fef3b18cb36aeec5472172d307221cd9a564d47c8f25161ddaf5e2f2667204a64736f6c63430008090033",
  "linkReferences": {},
  "deployedLinkReferences": {}
}