{
  "_format": "hh-sol-artifact-1",
  "contractName": "TalentLayerReview",
  "sourceName": "contracts/TalentLayerReview.sol",
  "abi": [
    {
      "inputs": [],
      "stateMutability": "nonpayable",
      "type": "constructor"
    },
    {
      "anonymous": false,
      "inputs": [
        {
          "indexed": false,
          "internalType": "address",
          "name": "previousAdmin",
          "type": "address"
        },
        {
          "indexed": false,
          "internalType": "address",
          "name": "newAdmin",
          "type": "address"
        }
      ],
      "name": "AdminChanged",
      "type": "event"
    },
    {
      "anonymous": false,
      "inputs": [
        {
          "indexed": true,
          "internalType": "address",
          "name": "owner",
          "type": "address"
        },
        {
          "indexed": true,
          "internalType": "address",
          "name": "approved",
          "type": "address"
        },
        {
          "indexed": true,
          "internalType": "uint256",
          "name": "tokenId",
          "type": "uint256"
        }
      ],
      "name": "Approval",
      "type": "event"
    },
    {
      "anonymous": false,
      "inputs": [
        {
          "indexed": true,
          "internalType": "address",
          "name": "owner",
          "type": "address"
        },
        {
          "indexed": true,
          "internalType": "address",
          "name": "operator",
          "type": "address"
        },
        {
          "indexed": false,
          "internalType": "bool",
          "name": "approved",
          "type": "bool"
        }
      ],
      "name": "ApprovalForAll",
      "type": "event"
    },
    {
      "anonymous": false,
      "inputs": [
        {
          "indexed": true,
          "internalType": "address",
          "name": "beacon",
          "type": "address"
        }
      ],
      "name": "BeaconUpgraded",
      "type": "event"
    },
    {
      "anonymous": false,
      "inputs": [
        {
          "indexed": false,
          "internalType": "uint8",
          "name": "version",
          "type": "uint8"
        }
      ],
      "name": "Initialized",
      "type": "event"
    },
    {
      "anonymous": false,
      "inputs": [
        {
          "indexed": true,
          "internalType": "uint256",
          "name": "_serviceId",
          "type": "uint256"
        },
        {
          "indexed": true,
          "internalType": "uint256",
          "name": "_toId",
          "type": "uint256"
        },
        {
          "indexed": true,
          "internalType": "uint256",
          "name": "_tokenId",
          "type": "uint256"
        },
        {
          "indexed": false,
          "internalType": "uint256",
          "name": "_rating",
          "type": "uint256"
        },
        {
          "indexed": false,
          "internalType": "string",
          "name": "_reviewUri",
          "type": "string"
        }
      ],
      "name": "Mint",
      "type": "event"
    },
    {
      "anonymous": false,
      "inputs": [
        {
          "indexed": true,
          "internalType": "address",
          "name": "previousOwner",
          "type": "address"
        },
        {
          "indexed": true,
          "internalType": "address",
          "name": "newOwner",
          "type": "address"
        }
      ],
      "name": "OwnershipTransferred",
      "type": "event"
    },
    {
      "anonymous": false,
      "inputs": [
        {
          "indexed": true,
          "internalType": "address",
          "name": "from",
          "type": "address"
        },
        {
          "indexed": true,
          "internalType": "address",
          "name": "to",
          "type": "address"
        },
        {
          "indexed": true,
          "internalType": "uint256",
          "name": "tokenId",
          "type": "uint256"
        }
      ],
      "name": "Transfer",
      "type": "event"
    },
    {
      "anonymous": false,
      "inputs": [
        {
          "indexed": false,
          "internalType": "address",
          "name": "forwarder",
          "type": "address"
        }
      ],
      "name": "TrustedForwarderAdded",
      "type": "event"
    },
    {
      "anonymous": false,
      "inputs": [
        {
          "indexed": false,
          "internalType": "address",
          "name": "forwarder",
          "type": "address"
        }
      ],
      "name": "TrustedForwarderRemoved",
      "type": "event"
    },
    {
      "anonymous": false,
      "inputs": [
        {
          "indexed": true,
          "internalType": "address",
          "name": "implementation",
          "type": "address"
        }
      ],
      "name": "Upgraded",
      "type": "event"
    },
    {
      "inputs": [
        {
          "internalType": "address",
          "name": "_forwarder",
          "type": "address"
        }
      ],
      "name": "addTrustedForwarder",
      "outputs": [],
      "stateMutability": "nonpayable",
      "type": "function"
    },
    {
      "inputs": [
        {
          "internalType": "address",
          "name": "to",
          "type": "address"
        },
        {
          "internalType": "uint256",
          "name": "tokenId",
          "type": "uint256"
        }
      ],
      "name": "approve",
      "outputs": [],
      "stateMutability": "nonpayable",
      "type": "function"
    },
    {
      "inputs": [
        {
          "internalType": "address",
          "name": "owner",
          "type": "address"
        }
      ],
      "name": "balanceOf",
      "outputs": [
        {
          "internalType": "uint256",
          "name": "",
          "type": "uint256"
        }
      ],
      "stateMutability": "view",
      "type": "function"
    },
    {
      "inputs": [
        {
          "internalType": "uint256",
          "name": "tokenId",
          "type": "uint256"
        }
      ],
      "name": "getApproved",
      "outputs": [
        {
          "internalType": "address",
          "name": "",
          "type": "address"
        }
      ],
      "stateMutability": "view",
      "type": "function"
    },
    {
      "inputs": [
        {
          "internalType": "uint256",
          "name": "_reviewId",
          "type": "uint256"
        }
      ],
      "name": "getReview",
      "outputs": [
        {
          "components": [
            {
              "internalType": "uint256",
              "name": "id",
              "type": "uint256"
            },
            {
              "internalType": "uint256",
              "name": "ownerId",
              "type": "uint256"
            },
            {
              "internalType": "string",
              "name": "dataUri",
              "type": "string"
            },
            {
              "internalType": "uint256",
              "name": "serviceId",
              "type": "uint256"
            },
            {
              "internalType": "uint256",
              "name": "rating",
              "type": "uint256"
            }
          ],
          "internalType": "struct TalentLayerReview.Review",
          "name": "",
          "type": "tuple"
        }
      ],
      "stateMutability": "view",
      "type": "function"
    },
    {
      "inputs": [
        {
          "internalType": "uint256",
          "name": "",
          "type": "uint256"
        }
      ],
      "name": "hasBuyerBeenReviewed",
      "outputs": [
        {
          "internalType": "bool",
          "name": "",
          "type": "bool"
        }
      ],
      "stateMutability": "view",
      "type": "function"
    },
    {
      "inputs": [
        {
          "internalType": "uint256",
          "name": "",
          "type": "uint256"
        }
      ],
      "name": "hasSellerBeenReviewed",
      "outputs": [
        {
          "internalType": "bool",
          "name": "",
          "type": "bool"
        }
      ],
      "stateMutability": "view",
      "type": "function"
    },
    {
      "inputs": [
        {
          "internalType": "address",
          "name": "_talentLayerIdAddress",
          "type": "address"
        },
        {
          "internalType": "address",
          "name": "_talentLayerServiceAddress",
          "type": "address"
        }
      ],
      "name": "initialize",
      "outputs": [],
      "stateMutability": "nonpayable",
      "type": "function"
    },
    {
      "inputs": [
        {
          "internalType": "address",
          "name": "owner",
          "type": "address"
        },
        {
          "internalType": "address",
          "name": "operator",
          "type": "address"
        }
      ],
      "name": "isApprovedForAll",
      "outputs": [
        {
          "internalType": "bool",
          "name": "",
          "type": "bool"
        }
      ],
      "stateMutability": "view",
      "type": "function"
    },
    {
      "inputs": [
        {
          "internalType": "address",
          "name": "forwarder",
          "type": "address"
        }
      ],
      "name": "isTrustedForwarder",
      "outputs": [
        {
          "internalType": "bool",
          "name": "",
          "type": "bool"
        }
      ],
      "stateMutability": "view",
      "type": "function"
    },
    {
      "inputs": [
        {
          "internalType": "uint256",
          "name": "_profileId",
          "type": "uint256"
        },
        {
          "internalType": "uint256",
          "name": "_serviceId",
          "type": "uint256"
        },
        {
          "internalType": "string",
          "name": "_reviewUri",
          "type": "string"
        },
        {
          "internalType": "uint256",
          "name": "_rating",
          "type": "uint256"
        }
      ],
      "name": "mint",
      "outputs": [
        {
          "internalType": "uint256",
          "name": "",
          "type": "uint256"
        }
      ],
      "stateMutability": "nonpayable",
      "type": "function"
    },
    {
      "inputs": [],
      "name": "name",
      "outputs": [
        {
          "internalType": "string",
          "name": "",
          "type": "string"
        }
      ],
      "stateMutability": "view",
      "type": "function"
    },
    {
      "inputs": [],
      "name": "owner",
      "outputs": [
        {
          "internalType": "address",
          "name": "",
          "type": "address"
        }
      ],
      "stateMutability": "view",
      "type": "function"
    },
    {
      "inputs": [
        {
          "internalType": "uint256",
          "name": "tokenId",
          "type": "uint256"
        }
      ],
      "name": "ownerOf",
      "outputs": [
        {
          "internalType": "address",
          "name": "",
          "type": "address"
        }
      ],
      "stateMutability": "view",
      "type": "function"
    },
    {
      "inputs": [],
      "name": "proxiableUUID",
      "outputs": [
        {
          "internalType": "bytes32",
          "name": "",
          "type": "bytes32"
        }
      ],
      "stateMutability": "view",
      "type": "function"
    },
    {
      "inputs": [
        {
          "internalType": "address",
          "name": "_forwarder",
          "type": "address"
        }
      ],
      "name": "removeTrustedForwarder",
      "outputs": [],
      "stateMutability": "nonpayable",
      "type": "function"
    },
    {
      "inputs": [],
      "name": "renounceOwnership",
      "outputs": [],
      "stateMutability": "nonpayable",
      "type": "function"
    },
    {
      "inputs": [
        {
          "internalType": "uint256",
          "name": "",
          "type": "uint256"
        }
      ],
      "name": "reviews",
      "outputs": [
        {
          "internalType": "uint256",
          "name": "id",
          "type": "uint256"
        },
        {
          "internalType": "uint256",
          "name": "ownerId",
          "type": "uint256"
        },
        {
          "internalType": "string",
          "name": "dataUri",
          "type": "string"
        },
        {
          "internalType": "uint256",
          "name": "serviceId",
          "type": "uint256"
        },
        {
          "internalType": "uint256",
          "name": "rating",
          "type": "uint256"
        }
      ],
      "stateMutability": "view",
      "type": "function"
    },
    {
      "inputs": [
        {
          "internalType": "address",
          "name": "from",
          "type": "address"
        },
        {
          "internalType": "address",
          "name": "to",
          "type": "address"
        },
        {
          "internalType": "uint256",
          "name": "tokenId",
          "type": "uint256"
        }
      ],
      "name": "safeTransferFrom",
      "outputs": [],
      "stateMutability": "nonpayable",
      "type": "function"
    },
    {
      "inputs": [
        {
          "internalType": "address",
          "name": "from",
          "type": "address"
        },
        {
          "internalType": "address",
          "name": "to",
          "type": "address"
        },
        {
          "internalType": "uint256",
          "name": "tokenId",
          "type": "uint256"
        },
        {
          "internalType": "bytes",
          "name": "data",
          "type": "bytes"
        }
      ],
      "name": "safeTransferFrom",
      "outputs": [],
      "stateMutability": "nonpayable",
      "type": "function"
    },
    {
      "inputs": [
        {
          "internalType": "address",
          "name": "operator",
          "type": "address"
        },
        {
          "internalType": "bool",
          "name": "approved",
          "type": "bool"
        }
      ],
      "name": "setApprovalForAll",
      "outputs": [],
      "stateMutability": "nonpayable",
      "type": "function"
    },
    {
      "inputs": [
        {
          "internalType": "bytes4",
          "name": "interfaceId",
          "type": "bytes4"
        }
      ],
      "name": "supportsInterface",
      "outputs": [
        {
          "internalType": "bool",
          "name": "",
          "type": "bool"
        }
      ],
      "stateMutability": "view",
      "type": "function"
    },
    {
      "inputs": [],
      "name": "symbol",
      "outputs": [
        {
          "internalType": "string",
          "name": "",
          "type": "string"
        }
      ],
      "stateMutability": "view",
      "type": "function"
    },
    {
      "inputs": [
        {
          "internalType": "uint256",
          "name": "",
          "type": "uint256"
        }
      ],
      "name": "tokenURI",
      "outputs": [
        {
          "internalType": "string",
          "name": "",
          "type": "string"
        }
      ],
      "stateMutability": "view",
      "type": "function"
    },
    {
      "inputs": [],
      "name": "totalSupply",
      "outputs": [
        {
          "internalType": "uint256",
          "name": "",
          "type": "uint256"
        }
      ],
      "stateMutability": "view",
      "type": "function"
    },
    {
      "inputs": [
        {
          "internalType": "address",
          "name": "from",
          "type": "address"
        },
        {
          "internalType": "address",
          "name": "to",
          "type": "address"
        },
        {
          "internalType": "uint256",
          "name": "tokenId",
          "type": "uint256"
        }
      ],
      "name": "transferFrom",
      "outputs": [],
      "stateMutability": "nonpayable",
      "type": "function"
    },
    {
      "inputs": [
        {
          "internalType": "address",
          "name": "newOwner",
          "type": "address"
        }
      ],
      "name": "transferOwnership",
      "outputs": [],
      "stateMutability": "nonpayable",
      "type": "function"
    },
    {
      "inputs": [
        {
          "internalType": "address",
          "name": "newImplementation",
          "type": "address"
        }
      ],
      "name": "upgradeTo",
      "outputs": [],
      "stateMutability": "nonpayable",
      "type": "function"
    },
    {
      "inputs": [
        {
          "internalType": "address",
          "name": "newImplementation",
          "type": "address"
        },
        {
          "internalType": "bytes",
          "name": "data",
          "type": "bytes"
        }
      ],
      "name": "upgradeToAndCall",
      "outputs": [],
      "stateMutability": "payable",
      "type": "function"
    }
  ],
  "bytecode": "0x60a0604052306080523480156200001557600080fd5b506200002062000026565b620000e8565b600054610100900460ff1615620000935760405162461bcd60e51b815260206004820152602760248201527f496e697469616c697a61626c653a20636f6e747261637420697320696e697469604482015266616c697a696e6760c81b606482015260840160405180910390fd5b60005460ff9081161015620000e6576000805460ff191660ff9081179091556040519081527f7f26b83ff96e1f2b6a682f133852f6798a09c465da95921460cefb38474024989060200160405180910390a15b565b60805161323062000120600039600081816108e60152818161092601528181610be201528181610c220152610cb501526132306000f3fe6080604052600436106101c25760003560e01c8063572b6c05116100f7578063a22cb46511610095578063cf2ed32e11610064578063cf2ed32e14610533578063e83ddcea14610553578063e985e9c514610584578063f2fde38b146105cd57600080fd5b8063a22cb465146104a2578063a267724d146104c2578063b88d4fde146104f3578063c87b56dd1461051357600080fd5b8063715018a6116100d1578063715018a61461042d5780638da5cb5b1461044257806395d89b4114610460578063990581b61461047557600080fd5b8063572b6c05146103b45780636352211e146103ed57806370a082311461040d57600080fd5b80633659cfe61161016457806342842e0e1161013e57806342842e0e1461034c578063485cc9551461036c5780634f1ef2861461038c57806352d1902d1461039f57600080fd5b80633659cfe6146102db5780633751d89c146102fb578063404e9adc1461031b57600080fd5b8063095ea7b3116101a0578063095ea7b31461025657806318160ddd1461027857806323b872dd1461029b57806326d00668146102bb57600080fd5b806301ffc9a7146101c757806306fdde03146101fc578063081812fc1461021e575b600080fd5b3480156101d357600080fd5b506101e76101e23660046123cd565b6105ed565b60405190151581526020015b60405180910390f35b34801561020857600080fd5b5061021161063f565b6040516101f3919061243a565b34801561022a57600080fd5b5061023e61023936600461244d565b6106d1565b6040516001600160a01b0390911681526020016101f3565b34801561026257600080fd5b5061027661027136600461247b565b6106f8565b005b34801561028457600080fd5b5061028d610824565b6040519081526020016101f3565b3480156102a757600080fd5b506102766102b63660046124a7565b610841565b3480156102c757600080fd5b506102766102d63660046124e8565b610879565b3480156102e757600080fd5b506102766102f63660046124e8565b6108dc565b34801561030757600080fd5b506102766103163660046124e8565b6109bb565b34801561032757600080fd5b506101e761033636600461244d565b6101306020526000908152604090205460ff1681565b34801561035857600080fd5b506102766103673660046124a7565b610a14565b34801561037857600080fd5b50610276610387366004612505565b610a2f565b61027661039a36600461262c565b610bd8565b3480156103ab57600080fd5b5061028d610ca8565b3480156103c057600080fd5b506101e76103cf3660046124e8565b6001600160a01b031660009081526065602052604090205460ff1690565b3480156103f957600080fd5b5061023e61040836600461244d565b610d5b565b34801561041957600080fd5b5061028d6104283660046124e8565b610dbb565b34801561043957600080fd5b50610276610e41565b34801561044e57600080fd5b506033546001600160a01b031661023e565b34801561046c57600080fd5b50610211610e55565b34801561048157600080fd5b5061049561049036600461244d565b610e64565b6040516101f3919061267c565b3480156104ae57600080fd5b506102766104bd3660046126da565b610fbc565b3480156104ce57600080fd5b506101e76104dd36600461244d565b6101316020526000908152604090205460ff1681565b3480156104ff57600080fd5b5061027661050e366004612708565b610fce565b34801561051f57600080fd5b5061021161052e36600461244d565b61100d565b34801561053f57600080fd5b5061028d61054e366004612774565b611017565b34801561055f57600080fd5b5061057361056e36600461244d565b6113ce565b6040516101f39594939291906127fc565b34801561059057600080fd5b506101e761059f366004612505565b6001600160a01b039182166000908152609d6020908152604080832093909416825291909152205460ff1690565b3480156105d957600080fd5b506102766105e83660046124e8565b611486565b60006001600160e01b031982166380ac58cd60e01b148061061e57506001600160e01b03198216635b5e139f60e01b145b8061063957506301ffc9a760e01b6001600160e01b03198316145b92915050565b60606098805461064e9061282f565b80601f016020809104026020016040519081016040528092919081815260200182805461067a9061282f565b80156106c75780601f1061069c576101008083540402835291602001916106c7565b820191906000526020600020905b8154815290600101906020018083116106aa57829003601f168201915b5050505050905090565b60006106dc826114fc565b506000908152609c60205260409020546001600160a01b031690565b600061070382610d5b565b9050806001600160a01b0316836001600160a01b0316036107755760405162461bcd60e51b815260206004820152602160248201527f4552433732313a20617070726f76616c20746f2063757272656e74206f776e656044820152603960f91b60648201526084015b60405180910390fd5b806001600160a01b031661078761155b565b6001600160a01b031614806107a357506107a38161059f61155b565b6108155760405162461bcd60e51b815260206004820152603d60248201527f4552433732313a20617070726f76652063616c6c6572206973206e6f7420746f60448201527f6b656e206f776e6572206f7220617070726f76656420666f7220616c6c000000606482015260840161076c565b61081f8383611565565b505050565b6000600161083261012e5490565b61083c919061287f565b905090565b61085261084c61155b565b826115d3565b61086e5760405162461bcd60e51b815260040161076c90612892565b61081f838383611652565b61088161169a565b6001600160a01b038116600081815260656020908152604091829020805460ff1916600117905590519182527f3ef8564460ada92419608d823c014975d98f8104d7d1e68c222967ac6814cd9791015b60405180910390a150565b6001600160a01b037f00000000000000000000000000000000000000000000000000000000000000001630036109245760405162461bcd60e51b815260040161076c906128df565b7f00000000000000000000000000000000000000000000000000000000000000006001600160a01b031661096d600080516020613174833981519152546001600160a01b031690565b6001600160a01b0316146109935760405162461bcd60e51b815260040161076c9061292b565b61099c81611713565b604080516000808252602082019092526109b89183919061171b565b50565b6109c361169a565b6001600160a01b038116600081815260656020908152604091829020805460ff1916905590519182527fd2d636efcad0cea42e170256f4c5d8b1cd81e47b855557edaf44014e6cc4cee691016108d1565b61081f83838360405180602001604052806000815250610fce565b600054610100900460ff1615808015610a4f5750600054600160ff909116105b80610a695750303b158015610a69575060005460ff166001145b610acc5760405162461bcd60e51b815260206004820152602e60248201527f496e697469616c697a61626c653a20636f6e747261637420697320616c72656160448201526d191e481a5b9a5d1a585b1a5e995960921b606482015260840161076c565b6000805460ff191660011790558015610aef576000805461ff0019166101001790555b610b3d6040518060400160405280601181526020017054616c656e744c6179657252657669657760781b815250604051806040016040528060038152602001622a262960e91b815250611886565b610b456118b7565b610b4d6118de565b61013280546001600160a01b038086166001600160a01b031992831617909255610133805492851692909116919091179055610b8e61012e80546001019055565b801561081f576000805461ff0019169055604051600181527f7f26b83ff96e1f2b6a682f133852f6798a09c465da95921460cefb38474024989060200160405180910390a1505050565b6001600160a01b037f0000000000000000000000000000000000000000000000000000000000000000163003610c205760405162461bcd60e51b815260040161076c906128df565b7f00000000000000000000000000000000000000000000000000000000000000006001600160a01b0316610c69600080516020613174833981519152546001600160a01b031690565b6001600160a01b031614610c8f5760405162461bcd60e51b815260040161076c9061292b565b610c9882611713565b610ca48282600161171b565b5050565b6000306001600160a01b037f00000000000000000000000000000000000000000000000000000000000000001614610d485760405162461bcd60e51b815260206004820152603860248201527f555550535570677261646561626c653a206d757374206e6f742062652063616c60448201527f6c6564207468726f7567682064656c656761746563616c6c0000000000000000606482015260840161076c565b5060008051602061317483398151915290565b6000818152609a60205260408120546001600160a01b0316806106395760405162461bcd60e51b8152602060048201526018602482015277115490cdcc8c4e881a5b9d985b1a59081d1bdad95b88125160421b604482015260640161076c565b60006001600160a01b038216610e255760405162461bcd60e51b815260206004820152602960248201527f4552433732313a2061646472657373207a65726f206973206e6f7420612076616044820152683634b21037bbb732b960b91b606482015260840161076c565b506001600160a01b03166000908152609b602052604090205490565b610e4961169a565b610e53600061190d565b565b60606099805461064e9061282f565b610e966040518060a0016040528060008152602001600081526020016060815260200160008152602001600081525090565b61012e548210610edc5760405162461bcd60e51b8152602060048201526011602482015270125b9d985b1a59081c995d9a595dc81251607a1b604482015260640161076c565b61012f60008381526020019081526020016000206040518060a00160405290816000820154815260200160018201548152602001600282018054610f1f9061282f565b80601f0160208091040260200160405190810160405280929190818152602001828054610f4b9061282f565b8015610f985780601f10610f6d57610100808354040283529160200191610f98565b820191906000526020600020905b815481529060010190602001808311610f7b57829003601f168201915b50505050508152602001600382015481526020016004820154815250509050919050565b610ca4610fc761155b565b838361195f565b610fdf610fd961155b565b836115d3565b610ffb5760405162461bcd60e51b815260040161076c90612892565b61100784848484611a2d565b50505050565b6060610639611a60565b6101325460009086906001600160a01b0316632fa117e58261103761155b565b6040516001600160e01b031960e085901b16815260048101929092526001600160a01b03166024820152604401602060405180830381865afa158015611081573d6000803e3d6000fd5b505050506040513d601f19601f820116820180604052508101906110a59190612977565b6110e95760405162461bcd60e51b81526020600482015260156024820152744e6f74206f776e6572206f722064656c656761746560581b604482015260640161076c565b6101335460405163ef0e239b60e01b8152600481018890526000916001600160a01b03169063ef0e239b90602401600060405180830381865afa158015611134573d6000803e3d6000fd5b505050506040513d6000823e601f3d908101601f1916820160405261115c91908101906129d9565b905080602001518814806111735750806040015188145b6111cb5760405162461bcd60e51b815260206004820152602360248201527f596f75277265206e6f7420616e206163746f72206f662074686973207365727660448201526269636560e81b606482015260840161076c565b6002815160048111156111e0576111e0612a8a565b1461122d5760405162461bcd60e51b815260206004820152601f60248201527f5468652073657276696365206973206e6f742066696e69736865642079657400604482015260640161076c565b6005841115801561123c575060015b6112795760405162461bcd60e51b815260206004820152600e60248201526d496e76616c696420726174696e6760901b604482015260640161076c565b6000816020015189036112dc57506040808201516000898152610131602052919091205460ff16156112bd5760405162461bcd60e51b815260040161076c90612aa0565b600088815261013160205260409020805460ff1916600117905561132f565b50602080820151600089815261013090925260409091205460ff16156113145760405162461bcd60e51b815260040161076c90612aa0565b600088815261013060205260409020805460ff191660011790555b610132546040516331a9108f60e11b8152600481018390526000916001600160a01b031690636352211e90602401602060405180830381865afa15801561137a573d6000803e3d6000fd5b505050506040513d601f19601f8201168201806040525081019061139e9190612af1565b90506113b3816113ae61012e5490565b611af6565b6113c08983888b8b611b10565b9a9950505050505050505050565b61012f60205260009081526040902080546001820154600283018054929391926113f79061282f565b80601f01602080910402602001604051908101604052809291908181526020018280546114239061282f565b80156114705780601f1061144557610100808354040283529160200191611470565b820191906000526020600020905b81548152906001019060200180831161145357829003601f168201915b5050505050908060030154908060040154905085565b61148e61169a565b6001600160a01b0381166114f35760405162461bcd60e51b815260206004820152602660248201527f4f776e61626c653a206e6577206f776e657220697320746865207a65726f206160448201526564647265737360d01b606482015260840161076c565b6109b88161190d565b6000818152609a60205260409020546001600160a01b03166109b85760405162461bcd60e51b8152602060048201526018602482015277115490cdcc8c4e881a5b9d985b1a59081d1bdad95b88125160421b604482015260640161076c565b600061083c611c19565b6000818152609c6020526040902080546001600160a01b0319166001600160a01b038416908117909155819061159a82610d5b565b6001600160a01b03167f8c5be1e5ebec7d5bd14f71427d1e84f3dd0314c0f7b2291e5b200ac8c7c3b92560405160405180910390a45050565b6000806115df83610d5b565b9050806001600160a01b0316846001600160a01b0316148061162657506001600160a01b038082166000908152609d602090815260408083209388168352929052205460ff165b8061164a5750836001600160a01b031661163f846106d1565b6001600160a01b0316145b949350505050565b60405162461bcd60e51b815260206004820152601d60248201527f546f6b656e207472616e73666572206973206e6f7420616c6c6f776564000000604482015260640161076c565b6116a261155b565b6001600160a01b03166116bd6033546001600160a01b031690565b6001600160a01b031614610e535760405162461bcd60e51b815260206004820181905260248201527f4f776e61626c653a2063616c6c6572206973206e6f7420746865206f776e6572604482015260640161076c565b6109b861169a565b7f4910fdfa16fed3260ed0e7147f7cc6da11a60208b5b9406d12a635614ffd91435460ff161561174e5761081f83611c52565b826001600160a01b03166352d1902d6040518163ffffffff1660e01b8152600401602060405180830381865afa9250505080156117a8575060408051601f3d908101601f191682019092526117a591810190612b0e565b60015b61180b5760405162461bcd60e51b815260206004820152602e60248201527f45524331393637557067726164653a206e657720696d706c656d656e7461746960448201526d6f6e206973206e6f74205555505360901b606482015260840161076c565b600080516020613174833981519152811461187a5760405162461bcd60e51b815260206004820152602960248201527f45524331393637557067726164653a20756e737570706f727465642070726f786044820152681a58589b195555525160ba1b606482015260840161076c565b5061081f838383611cee565b600054610100900460ff166118ad5760405162461bcd60e51b815260040161076c90612b27565b610ca48282611d13565b600054610100900460ff16610e535760405162461bcd60e51b815260040161076c90612b27565b600054610100900460ff166119055760405162461bcd60e51b815260040161076c90612b27565b610e53611d53565b603380546001600160a01b038381166001600160a01b0319831681179093556040519116919082907f8be0079c531659141344cd1fd0a4f28419497f9722a3daafe3b4186f6b6457e090600090a35050565b816001600160a01b0316836001600160a01b0316036119c05760405162461bcd60e51b815260206004820152601960248201527f4552433732313a20617070726f766520746f2063616c6c657200000000000000604482015260640161076c565b6001600160a01b038381166000818152609d6020908152604080832094871680845294825291829020805460ff191686151590811790915591519182527f17307eab39ab6107e8899845ad3d59bd9653f200f220920489ca2b5937696c31910160405180910390a3505050565b611a38848484611652565b611a4484848484611d8a565b6110075760405162461bcd60e51b815260040161076c90612b72565b60606000611a88604051806102e001604052806102b98152602001612ebb6102b99139611e92565b604051602001611a989190612bc4565b6040516020818303038152906040529050611ad181604051602001611abd9190612c09565b604051602081830303815290604052611e92565b604051602001611ae19190612c6f565b60405160208183030381529060405291505090565b610ca4828260405180602001604052806000815250611fe5565b600080611b1d61012e5490565b9050611b2e61012e80546001019055565b6040518060a0016040528082815260200187815260200185858080601f016020809104026020016040519081016040528093929190818152602001838380828437600092018290525093855250505060208083018b9052604092830189905284825261012f81529082902083518155908301516001820155908201516002820190611bb99082612d02565b5060608201518160030155608082015181600401559050508086887fc2c042b6adb2203938cfaca37c0a5aef6b304eff65efd5e9177e882162cebe38888888604051611c0793929190612dc2565b60405180910390a49695505050505050565b600060143610801590611c3b57503360009081526065602052604090205460ff165b15611c4d575060131936013560601c90565b503390565b6001600160a01b0381163b611cbf5760405162461bcd60e51b815260206004820152602d60248201527f455243313936373a206e657720696d706c656d656e746174696f6e206973206e60448201526c1bdd08184818dbdb9d1c9858dd609a1b606482015260840161076c565b60008051602061317483398151915280546001600160a01b0319166001600160a01b0392909216919091179055565b611cf783612018565b600082511180611d045750805b1561081f576110078383612058565b600054610100900460ff16611d3a5760405162461bcd60e51b815260040161076c90612b27565b6098611d468382612d02565b50609961081f8282612d02565b600054610100900460ff16611d7a5760405162461bcd60e51b815260040161076c90612b27565b610e53611d8561155b565b61190d565b60006001600160a01b0384163b15611e8757836001600160a01b031663150b7a02611db361155b565b8786866040518563ffffffff1660e01b8152600401611dd59493929190612df8565b6020604051808303816000875af1925050508015611e10575060408051601f3d908101601f19168201909252611e0d91810190612e35565b60015b611e6d573d808015611e3e576040519150601f19603f3d011682016040523d82523d6000602084013e611e43565b606091505b508051600003611e655760405162461bcd60e51b815260040161076c90612b72565b805181602001fd5b6001600160e01b031916630a85bd0160e11b14905061164a565b506001949350505050565b60608151600003611eb157505060408051602081019091526000815290565b60006040518060600160405280604081526020016131946040913990506000600384516002611ee09190612e52565b611eea9190612e65565b611ef5906004612e87565b67ffffffffffffffff811115611f0d57611f0d61253e565b6040519080825280601f01601f191660200182016040528015611f37576020820181803683370190505b509050600182016020820185865187015b80821015611fa3576003820191508151603f8160121c168501518453600184019350603f81600c1c168501518453600184019350603f8160061c168501518453600184019350603f8116850151845350600183019250611f48565b5050600386510660018114611fbf5760028114611fd257611fda565b603d6001830353603d6002830353611fda565b603d60018303535b509195945050505050565b611fef838361214c565b611ffc6000848484611d8a565b61081f5760405162461bcd60e51b815260040161076c90612b72565b61202181611c52565b6040516001600160a01b038216907fbc7cd75a20ee27fd9adebab32041f755214dbc6bffa90cc0225b39da2e5c2d3b90600090a250565b60606001600160a01b0383163b6120c05760405162461bcd60e51b815260206004820152602660248201527f416464726573733a2064656c65676174652063616c6c20746f206e6f6e2d636f6044820152651b9d1c9858dd60d21b606482015260840161076c565b600080846001600160a01b0316846040516120db9190612e9e565b600060405180830381855af49150503d8060008114612116576040519150601f19603f3d011682016040523d82523d6000602084013e61211b565b606091505b509150915061214382826040518060600160405280602781526020016131d4602791396122e5565b95945050505050565b6001600160a01b0382166121a25760405162461bcd60e51b815260206004820181905260248201527f4552433732313a206d696e7420746f20746865207a65726f2061646472657373604482015260640161076c565b6000818152609a60205260409020546001600160a01b0316156122075760405162461bcd60e51b815260206004820152601c60248201527f4552433732313a20746f6b656e20616c7265616479206d696e74656400000000604482015260640161076c565b612215600083836001612305565b6000818152609a60205260409020546001600160a01b03161561227a5760405162461bcd60e51b815260206004820152601c60248201527f4552433732313a20746f6b656e20616c7265616479206d696e74656400000000604482015260640161076c565b6001600160a01b0382166000818152609b6020908152604080832080546001019055848352609a90915280822080546001600160a01b0319168417905551839291907fddf252ad1be2c89b69c2b068fc378daa952ba7f163c4a11628f55a4df523b3ef908290a45050565b606083156122f45750816122fe565b6122fe838361238d565b9392505050565b6001811115611007576001600160a01b0384161561234b576001600160a01b0384166000908152609b60205260408120805483929061234590849061287f565b90915550505b6001600160a01b03831615611007576001600160a01b0383166000908152609b602052604081208054839290612382908490612e52565b909155505050505050565b81511561239d5781518083602001fd5b8060405162461bcd60e51b815260040161076c919061243a565b6001600160e01b0319811681146109b857600080fd5b6000602082840312156123df57600080fd5b81356122fe816123b7565b60005b838110156124055781810151838201526020016123ed565b50506000910152565b600081518084526124268160208601602086016123ea565b601f01601f19169290920160200192915050565b6020815260006122fe602083018461240e565b60006020828403121561245f57600080fd5b5035919050565b6001600160a01b03811681146109b857600080fd5b6000806040838503121561248e57600080fd5b823561249981612466565b946020939093013593505050565b6000806000606084860312156124bc57600080fd5b83356124c781612466565b925060208401356124d781612466565b929592945050506040919091013590565b6000602082840312156124fa57600080fd5b81356122fe81612466565b6000806040838503121561251857600080fd5b823561252381612466565b9150602083013561253381612466565b809150509250929050565b634e487b7160e01b600052604160045260246000fd5b60405160c0810167ffffffffffffffff811182821017156125775761257761253e565b60405290565b604051601f8201601f1916810167ffffffffffffffff811182821017156125a6576125a661253e565b604052919050565b600067ffffffffffffffff8211156125c8576125c861253e565b50601f01601f191660200190565b600082601f8301126125e757600080fd5b81356125fa6125f5826125ae565b61257d565b81815284602083860101111561260f57600080fd5b816020850160208301376000918101602001919091529392505050565b6000806040838503121561263f57600080fd5b823561264a81612466565b9150602083013567ffffffffffffffff81111561266657600080fd5b612672858286016125d6565b9150509250929050565b6020815281516020820152602082015160408201526000604083015160a060608401526126ac60c084018261240e565b905060608401516080840152608084015160a08401528091505092915050565b80151581146109b857600080fd5b600080604083850312156126ed57600080fd5b82356126f881612466565b91506020830135612533816126cc565b6000806000806080858703121561271e57600080fd5b843561272981612466565b9350602085013561273981612466565b925060408501359150606085013567ffffffffffffffff81111561275c57600080fd5b612768878288016125d6565b91505092959194509250565b60008060008060006080868803121561278c57600080fd5b8535945060208601359350604086013567ffffffffffffffff808211156127b257600080fd5b818801915088601f8301126127c657600080fd5b8135818111156127d557600080fd5b8960208285010111156127e757600080fd5b96999598505060200195606001359392505050565b85815284602082015260a06040820152600061281b60a083018661240e565b606083019490945250608001529392505050565b600181811c9082168061284357607f821691505b60208210810361286357634e487b7160e01b600052602260045260246000fd5b50919050565b634e487b7160e01b600052601160045260246000fd5b8181038181111561063957610639612869565b6020808252602d908201527f4552433732313a2063616c6c6572206973206e6f7420746f6b656e206f776e6560408201526c1c881bdc88185c1c1c9bdd9959609a1b606082015260800190565b6020808252602c908201527f46756e6374696f6e206d7573742062652063616c6c6564207468726f7567682060408201526b19195b1959d85d1958d85b1b60a21b606082015260800190565b6020808252602c908201527f46756e6374696f6e206d7573742062652063616c6c6564207468726f7567682060408201526b6163746976652070726f787960a01b606082015260800190565b60006020828403121561298957600080fd5b81516122fe816126cc565b600082601f8301126129a557600080fd5b81516129b36125f5826125ae565b8181528460208386010111156129c857600080fd5b61164a8260208301602087016123ea565b6000602082840312156129eb57600080fd5b815167ffffffffffffffff80821115612a0357600080fd5b9083019060c08286031215612a1757600080fd5b612a1f612554565b825160058110612a2e57600080fd5b808252506020830151602082015260408301516040820152606083015182811115612a5857600080fd5b612a6487828601612994565b6060830152506080830151608082015260a083015160a082015280935050505092915050565b634e487b7160e01b600052602160045260246000fd5b60208082526031908201527f596f75206861766520616c7265616479206d696e74656420612072657669657760408201527020666f722074686973207365727669636560781b606082015260800190565b600060208284031215612b0357600080fd5b81516122fe81612466565b600060208284031215612b2057600080fd5b5051919050565b6020808252602b908201527f496e697469616c697a61626c653a20636f6e7472616374206973206e6f74206960408201526a6e697469616c697a696e6760a81b606082015260800190565b60208082526032908201527f4552433732313a207472616e7366657220746f206e6f6e20455243373231526560408201527131b2b4bb32b91034b6b83632b6b2b73a32b960711b606082015260800190565b7f646174613a696d6167652f7376672b786d6c3b6261736536342c000000000000815260008251612bfc81601a8501602087016123ea565b91909101601a0192915050565b7f7b226e616d65223a2254616c656e744c6179657220526576696577220000000081526a16101134b6b0b3b2911d1160a91b601c8201528151600090612c568160278501602087016123ea565b61227d60f01b6027939091019283015250602901919050565b7f646174613a6170706c69636174696f6e2f6a736f6e3b6261736536342c000000815260008251612ca781601d8501602087016123ea565b91909101601d0192915050565b601f82111561081f57600081815260208120601f850160051c81016020861015612cdb5750805b601f850160051c820191505b81811015612cfa57828155600101612ce7565b505050505050565b815167ffffffffffffffff811115612d1c57612d1c61253e565b612d3081612d2a845461282f565b84612cb4565b602080601f831160018114612d655760008415612d4d5750858301515b600019600386901b1c1916600185901b178555612cfa565b600085815260208120601f198616915b82811015612d9457888601518255948401946001909101908401612d75565b5085821015612db25787850151600019600388901b60f8161c191681555b5050505050600190811b01905550565b83815260406020820152816040820152818360608301376000818301606090810191909152601f909201601f1916010192915050565b6001600160a01b0385811682528416602082015260408101839052608060608201819052600090612e2b9083018461240e565b9695505050505050565b600060208284031215612e4757600080fd5b81516122fe816123b7565b8082018082111561063957610639612869565b600082612e8257634e487b7160e01b600052601260045260246000fd5b500490565b808202811582820484141761063957610639612869565b60008251612eb08184602087016123ea565b919091019291505056fe3c73766720786d6c6e733d22687474703a2f2f7777772e77332e6f72672f323030302f737667222077696474683d2237323022206865696768743d22373230223e3c726563742077696474683d223130302522206865696768743d2231303025222f3e3c73766720786d6c6e733d22687474703a2f2f7777772e77332e6f72672f323030302f737667222077696474683d2231353022206865696768743d22313530222076657273696f6e3d22312e32222076696577426f783d222d323030202d353020313030302031303030223e3c706174682066696c6c3d22234646464646462220643d224d3236342e35203139302e3563302d31332e382031312e322d32352032352d3235483536386331332e3820302032352031312e322032352032357634393063302031332e382d31312e322032352d3235203235483238392e35632d31332e3820302d32352d31312e322d32352d32357a222f3e3c706174682066696c6c3d22234646464646462220643d224d3236352036323463302d31332e382031312e322d32352032352d3235683534336331332e3820302032352031312e322032352032357635362e3563302031332e382d31312e322032352d323520323548323930632d31332e3820302d32352d31312e322d32352d32357a222f3e3c706174682066696c6c3d22234646464646462220643d224d30203139302e3563302d31332e382031312e322d32352032352d3235683534336331332e3820302032352031312e322032352032355632343763302031332e382d31312e322032352d3235203235483235632d31332e3820302d32352d31312e322d32352d32357a222f3e3c2f7376673e3c7465787420783d2233302220793d2236373022207374796c653d22666f6e743a363070782073616e732d73657269663b66696c6c3a23666666223e7265766965773c2f746578743e3c2f7376673e360894a13ba1a3210667c828492db98dca3e2076cc3735a920a3ca505d382bbc4142434445464748494a4b4c4d4e4f505152535455565758595a6162636465666768696a6b6c6d6e6f707172737475767778797a303132333435363738392b2f416464726573733a206c6f772d6c6576656c2064656c65676174652063616c6c206661696c6564a2646970667358221220dd1dcc0e945206bb6c97ae034b7d4f316a1efb656ef603940f67f5bd1fdec12864736f6c63430008110033",
  "linkReferences": {},
  "deployedLinkReferences": {}
}