{
  "_format": "hh-sol-artifact-1",
  "contractName": "TalentLayerService",
  "sourceName": "contracts/TalentLayerService.sol",
  "abi": [
    {
      "inputs": [],
      "stateMutability": "nonpayable",
      "type": "constructor"
    },
    {
      "anonymous": false,
      "inputs": [
        {
          "indexed": false,
          "internalType": "address",
          "name": "previousAdmin",
          "type": "address"
        },
        {
          "indexed": false,
          "internalType": "address",
          "name": "newAdmin",
          "type": "address"
        }
      ],
      "name": "AdminChanged",
      "type": "event"
    },
    {
      "anonymous": false,
      "inputs": [
        {
          "indexed": false,
          "internalType": "address",
          "name": "_tokenAddress",
          "type": "address"
        },
        {
          "indexed": false,
          "internalType": "bool",
          "name": "_status",
          "type": "bool"
        },
        {
          "indexed": false,
          "internalType": "uint256",
          "name": "_minimumTransactionAmount",
          "type": "uint256"
        }
      ],
      "name": "AllowedTokenListUpdated",
      "type": "event"
    },
    {
      "anonymous": false,
      "inputs": [
        {
          "indexed": true,
          "internalType": "address",
          "name": "beacon",
          "type": "address"
        }
      ],
      "name": "BeaconUpgraded",
      "type": "event"
    },
    {
      "anonymous": false,
      "inputs": [
        {
          "indexed": false,
          "internalType": "uint8",
          "name": "version",
          "type": "uint8"
        }
      ],
      "name": "Initialized",
      "type": "event"
    },
    {
      "anonymous": false,
      "inputs": [
        {
          "indexed": false,
          "internalType": "uint256",
          "name": "_minCompletionPercentage",
          "type": "uint256"
        }
      ],
      "name": "MinCompletionPercentageUpdated",
      "type": "event"
    },
    {
      "anonymous": false,
      "inputs": [
        {
          "indexed": true,
          "internalType": "address",
          "name": "previousOwner",
          "type": "address"
        },
        {
          "indexed": true,
          "internalType": "address",
          "name": "newOwner",
          "type": "address"
        }
      ],
      "name": "OwnershipTransferred",
      "type": "event"
    },
    {
      "anonymous": false,
      "inputs": [
        {
          "indexed": false,
          "internalType": "uint256",
          "name": "serviceId",
          "type": "uint256"
        },
        {
          "indexed": false,
          "internalType": "uint256",
          "name": "ownerId",
          "type": "uint256"
        },
        {
          "indexed": false,
          "internalType": "string",
          "name": "dataUri",
          "type": "string"
        },
        {
          "indexed": false,
          "internalType": "enum TalentLayerService.ProposalStatus",
          "name": "status",
          "type": "uint8"
        },
        {
          "indexed": false,
          "internalType": "address",
          "name": "rateToken",
          "type": "address"
        },
        {
          "indexed": false,
          "internalType": "uint256",
          "name": "rateAmount",
          "type": "uint256"
        },
        {
          "indexed": false,
          "internalType": "uint16",
          "name": "platformId",
          "type": "uint16"
        },
        {
          "indexed": false,
          "internalType": "uint256",
          "name": "expirationDate",
          "type": "uint256"
        }
      ],
      "name": "ProposalCreated",
      "type": "event"
    },
    {
      "anonymous": false,
      "inputs": [
        {
          "indexed": false,
          "internalType": "uint256",
          "name": "serviceId",
          "type": "uint256"
        },
        {
          "indexed": false,
          "internalType": "uint256",
          "name": "ownerId",
          "type": "uint256"
        },
        {
          "indexed": false,
          "internalType": "string",
          "name": "dataUri",
          "type": "string"
        },
        {
          "indexed": false,
          "internalType": "address",
          "name": "rateToken",
          "type": "address"
        },
        {
          "indexed": false,
          "internalType": "uint256",
          "name": "rateAmount",
          "type": "uint256"
        },
        {
          "indexed": false,
          "internalType": "uint256",
          "name": "_expirationDate",
          "type": "uint256"
        }
      ],
      "name": "ProposalUpdated",
      "type": "event"
    },
    {
      "anonymous": false,
      "inputs": [
        {
          "indexed": true,
          "internalType": "bytes32",
          "name": "role",
          "type": "bytes32"
        },
        {
          "indexed": true,
          "internalType": "bytes32",
          "name": "previousAdminRole",
          "type": "bytes32"
        },
        {
          "indexed": true,
          "internalType": "bytes32",
          "name": "newAdminRole",
          "type": "bytes32"
        }
      ],
      "name": "RoleAdminChanged",
      "type": "event"
    },
    {
      "anonymous": false,
      "inputs": [
        {
          "indexed": true,
          "internalType": "bytes32",
          "name": "role",
          "type": "bytes32"
        },
        {
          "indexed": true,
          "internalType": "address",
          "name": "account",
          "type": "address"
        },
        {
          "indexed": true,
          "internalType": "address",
          "name": "sender",
          "type": "address"
        }
      ],
      "name": "RoleGranted",
      "type": "event"
    },
    {
      "anonymous": false,
      "inputs": [
        {
          "indexed": true,
          "internalType": "bytes32",
          "name": "role",
          "type": "bytes32"
        },
        {
          "indexed": true,
          "internalType": "address",
          "name": "account",
          "type": "address"
        },
        {
          "indexed": true,
          "internalType": "address",
          "name": "sender",
          "type": "address"
        }
      ],
      "name": "RoleRevoked",
      "type": "event"
    },
    {
      "anonymous": false,
      "inputs": [
        {
          "indexed": false,
          "internalType": "uint256",
          "name": "id",
          "type": "uint256"
        }
      ],
      "name": "ServiceCancelled",
      "type": "event"
    },
    {
      "anonymous": false,
      "inputs": [
        {
          "indexed": false,
          "internalType": "uint256",
          "name": "id",
          "type": "uint256"
        },
        {
          "indexed": false,
          "internalType": "uint256",
          "name": "ownerId",
          "type": "uint256"
        },
        {
          "indexed": false,
          "internalType": "uint256",
          "name": "platformId",
          "type": "uint256"
        },
        {
          "indexed": false,
          "internalType": "string",
          "name": "dataUri",
          "type": "string"
        }
      ],
      "name": "ServiceCreated",
      "type": "event"
    },
    {
      "anonymous": false,
      "inputs": [
        {
          "indexed": true,
          "internalType": "uint256",
          "name": "id",
          "type": "uint256"
        },
        {
          "indexed": false,
          "internalType": "string",
          "name": "dataUri",
          "type": "string"
        }
      ],
      "name": "ServiceDetailedUpdated",
      "type": "event"
    },
    {
      "anonymous": false,
      "inputs": [
        {
          "indexed": false,
          "internalType": "address",
          "name": "forwarder",
          "type": "address"
        }
      ],
      "name": "TrustedForwarderAdded",
      "type": "event"
    },
    {
      "anonymous": false,
      "inputs": [
        {
          "indexed": false,
          "internalType": "address",
          "name": "forwarder",
          "type": "address"
        }
      ],
      "name": "TrustedForwarderRemoved",
      "type": "event"
    },
    {
      "anonymous": false,
      "inputs": [
        {
          "indexed": true,
          "internalType": "address",
          "name": "implementation",
          "type": "address"
        }
      ],
      "name": "Upgraded",
      "type": "event"
    },
    {
      "inputs": [],
      "name": "DEFAULT_ADMIN_ROLE",
      "outputs": [
        {
          "internalType": "bytes32",
          "name": "",
          "type": "bytes32"
        }
      ],
      "stateMutability": "view",
      "type": "function"
    },
    {
      "inputs": [],
      "name": "ESCROW_ROLE",
      "outputs": [
        {
          "internalType": "bytes32",
          "name": "",
          "type": "bytes32"
        }
      ],
      "stateMutability": "view",
      "type": "function"
    },
    {
      "inputs": [
        {
          "internalType": "address",
          "name": "_forwarder",
          "type": "address"
        }
      ],
      "name": "addTrustedForwarder",
      "outputs": [],
      "stateMutability": "nonpayable",
      "type": "function"
    },
    {
      "inputs": [
        {
          "internalType": "uint256",
          "name": "_serviceId",
          "type": "uint256"
        },
        {
          "internalType": "uint256",
          "name": "_proposalId",
          "type": "uint256"
        },
        {
          "internalType": "uint256",
          "name": "_transactionId",
          "type": "uint256"
        }
      ],
      "name": "afterDeposit",
      "outputs": [],
      "stateMutability": "nonpayable",
      "type": "function"
    },
    {
      "inputs": [
        {
          "internalType": "uint256",
          "name": "_serviceId",
          "type": "uint256"
        },
        {
          "internalType": "uint256",
          "name": "_releasedAmount",
          "type": "uint256"
        }
      ],
      "name": "afterFullPayment",
      "outputs": [],
      "stateMutability": "nonpayable",
      "type": "function"
    },
    {
      "inputs": [
        {
          "internalType": "address",
          "name": "",
          "type": "address"
        }
      ],
      "name": "allowedTokenList",
      "outputs": [
        {
          "internalType": "bool",
          "name": "isWhitelisted",
          "type": "bool"
        },
        {
          "internalType": "uint256",
          "name": "minimumTransactionAmount",
          "type": "uint256"
        }
      ],
      "stateMutability": "view",
      "type": "function"
    },
    {
      "inputs": [
        {
          "internalType": "uint256",
          "name": "_profileId",
          "type": "uint256"
        },
        {
          "internalType": "uint256",
          "name": "_serviceId",
          "type": "uint256"
        }
      ],
      "name": "cancelService",
      "outputs": [],
      "stateMutability": "nonpayable",
      "type": "function"
    },
    {
      "inputs": [
        {
          "internalType": "uint256",
          "name": "_profileId",
          "type": "uint256"
        },
        {
          "internalType": "uint256",
          "name": "_serviceId",
          "type": "uint256"
        },
        {
          "internalType": "address",
          "name": "_rateToken",
          "type": "address"
        },
        {
          "internalType": "uint256",
          "name": "_rateAmount",
          "type": "uint256"
        },
        {
          "internalType": "uint16",
          "name": "_platformId",
          "type": "uint16"
        },
        {
          "internalType": "string",
          "name": "_dataUri",
          "type": "string"
        },
        {
          "internalType": "uint256",
          "name": "_expirationDate",
          "type": "uint256"
        },
        {
          "internalType": "bytes",
          "name": "_signature",
          "type": "bytes"
        }
      ],
      "name": "createProposal",
      "outputs": [],
      "stateMutability": "payable",
      "type": "function"
    },
    {
      "inputs": [
        {
          "internalType": "uint256",
          "name": "_profileId",
          "type": "uint256"
        },
        {
          "internalType": "uint256",
          "name": "_platformId",
          "type": "uint256"
        },
        {
          "internalType": "string",
          "name": "_dataUri",
          "type": "string"
        },
        {
          "internalType": "bytes",
          "name": "_signature",
          "type": "bytes"
        }
      ],
      "name": "createService",
      "outputs": [
        {
          "internalType": "uint256",
          "name": "",
          "type": "uint256"
        }
      ],
      "stateMutability": "payable",
      "type": "function"
    },
    {
      "inputs": [
        {
          "internalType": "uint256",
          "name": "_serviceId",
          "type": "uint256"
        },
        {
          "internalType": "uint256",
          "name": "_proposalId",
          "type": "uint256"
        }
      ],
      "name": "getProposal",
      "outputs": [
        {
          "components": [
            {
              "internalType": "enum TalentLayerService.ProposalStatus",
              "name": "status",
              "type": "uint8"
            },
            {
              "internalType": "uint256",
              "name": "ownerId",
              "type": "uint256"
            },
            {
              "internalType": "address",
              "name": "rateToken",
              "type": "address"
            },
            {
              "internalType": "uint256",
              "name": "rateAmount",
              "type": "uint256"
            },
            {
              "internalType": "uint16",
              "name": "platformId",
              "type": "uint16"
            },
            {
              "internalType": "string",
              "name": "dataUri",
              "type": "string"
            },
            {
              "internalType": "uint256",
              "name": "expirationDate",
              "type": "uint256"
            }
          ],
          "internalType": "struct TalentLayerService.Proposal",
          "name": "",
          "type": "tuple"
        }
      ],
      "stateMutability": "view",
      "type": "function"
    },
    {
      "inputs": [
        {
          "internalType": "bytes32",
          "name": "role",
          "type": "bytes32"
        }
      ],
      "name": "getRoleAdmin",
      "outputs": [
        {
          "internalType": "bytes32",
          "name": "",
          "type": "bytes32"
        }
      ],
      "stateMutability": "view",
      "type": "function"
    },
    {
      "inputs": [
        {
          "internalType": "uint256",
          "name": "_serviceId",
          "type": "uint256"
        }
      ],
      "name": "getService",
      "outputs": [
        {
          "components": [
            {
              "internalType": "enum TalentLayerService.Status",
              "name": "status",
              "type": "uint8"
            },
            {
              "internalType": "uint256",
              "name": "ownerId",
              "type": "uint256"
            },
            {
              "internalType": "uint256",
              "name": "acceptedProposalId",
              "type": "uint256"
            },
            {
              "internalType": "string",
              "name": "dataUri",
              "type": "string"
            },
            {
              "internalType": "uint256",
              "name": "transactionId",
              "type": "uint256"
            },
            {
              "internalType": "uint256",
              "name": "platformId",
              "type": "uint256"
            }
          ],
          "internalType": "struct TalentLayerService.Service",
          "name": "",
          "type": "tuple"
        }
      ],
      "stateMutability": "view",
      "type": "function"
    },
    {
      "inputs": [
        {
          "internalType": "bytes32",
          "name": "role",
          "type": "bytes32"
        },
        {
          "internalType": "address",
          "name": "account",
          "type": "address"
        }
      ],
      "name": "grantRole",
      "outputs": [],
      "stateMutability": "nonpayable",
      "type": "function"
    },
    {
      "inputs": [
        {
          "internalType": "bytes32",
          "name": "role",
          "type": "bytes32"
        },
        {
          "internalType": "address",
          "name": "account",
          "type": "address"
        }
      ],
      "name": "hasRole",
      "outputs": [
        {
          "internalType": "bool",
          "name": "",
          "type": "bool"
        }
      ],
      "stateMutability": "view",
      "type": "function"
    },
    {
      "inputs": [
        {
          "internalType": "address",
          "name": "_talentLayerIdAddress",
          "type": "address"
        },
        {
          "internalType": "address",
          "name": "_talentLayerPlatformIdAddress",
          "type": "address"
        }
      ],
      "name": "initialize",
      "outputs": [],
      "stateMutability": "nonpayable",
      "type": "function"
    },
    {
      "inputs": [
        {
          "internalType": "address",
          "name": "_tokenAddress",
          "type": "address"
        }
      ],
      "name": "isTokenAllowed",
      "outputs": [
        {
          "internalType": "bool",
          "name": "",
          "type": "bool"
        }
      ],
      "stateMutability": "view",
      "type": "function"
    },
    {
      "inputs": [
        {
          "internalType": "address",
          "name": "forwarder",
          "type": "address"
        }
      ],
      "name": "isTrustedForwarder",
      "outputs": [
        {
          "internalType": "bool",
          "name": "",
          "type": "bool"
        }
      ],
      "stateMutability": "view",
      "type": "function"
    },
    {
      "inputs": [],
      "name": "minCompletionPercentage",
      "outputs": [
        {
          "internalType": "uint256",
          "name": "",
          "type": "uint256"
        }
      ],
      "stateMutability": "view",
      "type": "function"
    },
    {
      "inputs": [],
      "name": "nextServiceId",
      "outputs": [
        {
          "internalType": "uint256",
          "name": "",
          "type": "uint256"
        }
      ],
      "stateMutability": "view",
      "type": "function"
    },
    {
      "inputs": [
        {
          "internalType": "uint256",
          "name": "",
          "type": "uint256"
        }
      ],
      "name": "nonce",
      "outputs": [
        {
          "internalType": "uint256",
          "name": "",
          "type": "uint256"
        }
      ],
      "stateMutability": "view",
      "type": "function"
    },
    {
      "inputs": [],
      "name": "owner",
      "outputs": [
        {
          "internalType": "address",
          "name": "",
          "type": "address"
        }
      ],
      "stateMutability": "view",
      "type": "function"
    },
    {
      "inputs": [
        {
          "internalType": "uint256",
          "name": "",
          "type": "uint256"
        },
        {
          "internalType": "uint256",
          "name": "",
          "type": "uint256"
        }
      ],
      "name": "proposals",
      "outputs": [
        {
          "internalType": "enum TalentLayerService.ProposalStatus",
          "name": "status",
          "type": "uint8"
        },
        {
          "internalType": "uint256",
          "name": "ownerId",
          "type": "uint256"
        },
        {
          "internalType": "address",
          "name": "rateToken",
          "type": "address"
        },
        {
          "internalType": "uint256",
          "name": "rateAmount",
          "type": "uint256"
        },
        {
          "internalType": "uint16",
          "name": "platformId",
          "type": "uint16"
        },
        {
          "internalType": "string",
          "name": "dataUri",
          "type": "string"
        },
        {
          "internalType": "uint256",
          "name": "expirationDate",
          "type": "uint256"
        }
      ],
      "stateMutability": "view",
      "type": "function"
    },
    {
      "inputs": [],
      "name": "proxiableUUID",
      "outputs": [
        {
          "internalType": "bytes32",
          "name": "",
          "type": "bytes32"
        }
      ],
      "stateMutability": "view",
      "type": "function"
    },
    {
      "inputs": [
        {
          "internalType": "address",
          "name": "_forwarder",
          "type": "address"
        }
      ],
      "name": "removeTrustedForwarder",
      "outputs": [],
      "stateMutability": "nonpayable",
      "type": "function"
    },
    {
      "inputs": [],
      "name": "renounceOwnership",
      "outputs": [],
      "stateMutability": "nonpayable",
      "type": "function"
    },
    {
      "inputs": [
        {
          "internalType": "bytes32",
          "name": "role",
          "type": "bytes32"
        },
        {
          "internalType": "address",
          "name": "account",
          "type": "address"
        }
      ],
      "name": "renounceRole",
      "outputs": [],
      "stateMutability": "nonpayable",
      "type": "function"
    },
    {
      "inputs": [
        {
          "internalType": "bytes32",
          "name": "role",
          "type": "bytes32"
        },
        {
          "internalType": "address",
          "name": "account",
          "type": "address"
        }
      ],
      "name": "revokeRole",
      "outputs": [],
      "stateMutability": "nonpayable",
      "type": "function"
    },
    {
      "inputs": [
        {
          "internalType": "uint256",
          "name": "",
          "type": "uint256"
        }
      ],
      "name": "services",
      "outputs": [
        {
          "internalType": "enum TalentLayerService.Status",
          "name": "status",
          "type": "uint8"
        },
        {
          "internalType": "uint256",
          "name": "ownerId",
          "type": "uint256"
        },
        {
          "internalType": "uint256",
          "name": "acceptedProposalId",
          "type": "uint256"
        },
        {
          "internalType": "string",
          "name": "dataUri",
          "type": "string"
        },
        {
          "internalType": "uint256",
          "name": "transactionId",
          "type": "uint256"
        },
        {
          "internalType": "uint256",
          "name": "platformId",
          "type": "uint256"
        }
      ],
      "stateMutability": "view",
      "type": "function"
    },
    {
      "inputs": [
        {
          "internalType": "bytes4",
          "name": "interfaceId",
          "type": "bytes4"
        }
      ],
      "name": "supportsInterface",
      "outputs": [
        {
          "internalType": "bool",
          "name": "",
          "type": "bool"
        }
      ],
      "stateMutability": "view",
      "type": "function"
    },
    {
      "inputs": [],
      "name": "talentLayerPlatformIdContract",
      "outputs": [
        {
          "internalType": "contract ITalentLayerPlatformID",
          "name": "",
          "type": "address"
        }
      ],
      "stateMutability": "view",
      "type": "function"
    },
    {
      "inputs": [
        {
          "internalType": "address",
          "name": "newOwner",
          "type": "address"
        }
      ],
      "name": "transferOwnership",
      "outputs": [],
      "stateMutability": "nonpayable",
      "type": "function"
    },
    {
      "inputs": [
        {
          "internalType": "address",
          "name": "_tokenAddress",
          "type": "address"
        },
        {
          "internalType": "bool",
          "name": "_status",
          "type": "bool"
        },
        {
          "internalType": "uint256",
          "name": "_minimumTransactionAmount",
          "type": "uint256"
        }
      ],
      "name": "updateAllowedTokenList",
      "outputs": [],
      "stateMutability": "nonpayable",
      "type": "function"
    },
    {
      "inputs": [
        {
          "internalType": "uint256",
          "name": "_minCompletionPercentage",
          "type": "uint256"
        }
      ],
      "name": "updateMinCompletionPercentage",
      "outputs": [],
      "stateMutability": "nonpayable",
      "type": "function"
    },
    {
      "inputs": [
        {
          "internalType": "uint256",
          "name": "_profileId",
          "type": "uint256"
        },
        {
          "internalType": "uint256",
          "name": "_serviceId",
          "type": "uint256"
        },
        {
          "internalType": "address",
          "name": "_rateToken",
          "type": "address"
        },
        {
          "internalType": "uint256",
          "name": "_rateAmount",
          "type": "uint256"
        },
        {
          "internalType": "string",
          "name": "_dataUri",
          "type": "string"
        },
        {
          "internalType": "uint256",
          "name": "_expirationDate",
          "type": "uint256"
        }
      ],
      "name": "updateProposal",
      "outputs": [],
      "stateMutability": "nonpayable",
      "type": "function"
    },
    {
      "inputs": [
        {
          "internalType": "uint256",
          "name": "_profileId",
          "type": "uint256"
        },
        {
          "internalType": "uint256",
          "name": "_serviceId",
          "type": "uint256"
        },
        {
          "internalType": "string",
          "name": "_dataUri",
          "type": "string"
        }
      ],
      "name": "updateServiceData",
      "outputs": [],
      "stateMutability": "nonpayable",
      "type": "function"
    },
    {
      "inputs": [
        {
          "internalType": "address",
          "name": "newImplementation",
          "type": "address"
        }
      ],
      "name": "upgradeTo",
      "outputs": [],
      "stateMutability": "nonpayable",
      "type": "function"
    },
    {
      "inputs": [
        {
          "internalType": "address",
          "name": "newImplementation",
          "type": "address"
        },
        {
          "internalType": "bytes",
          "name": "data",
          "type": "bytes"
        }
      ],
      "name": "upgradeToAndCall",
      "outputs": [],
      "stateMutability": "payable",
      "type": "function"
    }
  ],
  "bytecode": "0x60a0604052306080523480156200001557600080fd5b506200002062000026565b620000e8565b600054610100900460ff1615620000935760405162461bcd60e51b815260206004820152602760248201527f496e697469616c697a61626c653a20636f6e747261637420697320696e697469604482015266616c697a696e6760c81b606482015260840160405180910390fd5b60005460ff9081161015620000e6576000805460ff191660ff9081179091556040519081527f7f26b83ff96e1f2b6a682f133852f6798a09c465da95921460cefb38474024989060200160405180910390a15b565b608051613df66200012060003960008181610ed901528181610f19015281816111d001528181611210015261129f0152613df66000f3fe60806040526004361061021a5760003560e01c8063715018a611610123578063c22c4f43116100ab578063d547741f1161006f578063d547741f146106b9578063ef0e239b146106d9578063f2fde38b14610706578063f6c53d9b14610726578063f9eaee0d1461073d57600080fd5b8063c22c4f43146105f3578063c2cfee2714610625578063c75858d514610658578063ce03fdab14610678578063d338ec9a146106a657600080fd5b806391d14854116100f257806391d1485414610551578063a217fddf14610571578063a7d5eaea14610586578063aba21009146105a6578063b5735c1e146105d357600080fd5b8063715018a6146104ac57806371da85f9146104c15780637c5a72cd146105135780638da5cb5b1461053357600080fd5b806336568abe116101a6578063485cc95511610175578063485cc955146103f75780634f1ef2861461041757806352d1902d1461042a578063572b6c051461043f5780636ce76f301461047857600080fd5b806336568abe146103775780633659cfe6146103975780633751d89c146103b75780633ca2ad6f146103d757600080fd5b8063156b39aa116101ed578063156b39aa146102cf578063248a9ca3146102f45780632579c1c61461032457806326d00668146103375780632f2ff15d1461035757600080fd5b806301ffc9a71461021f578063089b7c73146102545780630e066025146102765780631499f9e614610296575b600080fd5b34801561022b57600080fd5b5061023f61023a36600461305c565b610777565b60405190151581526020015b60405180910390f35b34801561026057600080fd5b5061027461026f366004613086565b6107ae565b005b34801561028257600080fd5b506102746102913660046130ea565b610993565b3480156102a257600080fd5b50610130546102b7906001600160a01b031681565b6040516001600160a01b03909116815260200161024b565b3480156102db57600080fd5b506102e66101355481565b60405190815260200161024b565b34801561030057600080fd5b506102e661030f36600461313d565b600090815260fc602052604090206001015490565b61027461033236600461316b565b610b81565b34801561034357600080fd5b50610274610352366004613231565b610db4565b34801561036357600080fd5b5061027461037236600461324e565b610e17565b34801561038357600080fd5b5061027461039236600461324e565b610e41565b3480156103a357600080fd5b506102746103b2366004613231565b610ecf565b3480156103c357600080fd5b506102746103d2366004613231565b610fae565b3480156103e357600080fd5b506102746103f236600461313d565b611007565b34801561040357600080fd5b5061027461041236600461327e565b61104f565b6102746104253660046132c2565b6111c6565b34801561043657600080fd5b506102e6611292565b34801561044b57600080fd5b5061023f61045a366004613231565b6001600160a01b031660009081526065602052604090205460ff1690565b34801561048457600080fd5b506102e67f2fdac322ee704ce09f0773f7f3f92eb98d5e7c836ee9c056cccd5f61041e5e3f81565b3480156104b857600080fd5b50610274611345565b3480156104cd57600080fd5b506104fc6104dc366004613231565b610134602052600090815260409020805460019091015460ff9091169082565b60408051921515835260208301919091520161024b565b34801561051f57600080fd5b5061027461052e366004613394565b611359565b34801561053f57600080fd5b506033546001600160a01b03166102b7565b34801561055d57600080fd5b5061023f61056c36600461324e565b61142e565b34801561057d57600080fd5b506102e6600081565b34801561059257600080fd5b506102746105a13660046133d5565b611459565b3480156105b257600080fd5b506105c66105c1366004613086565b6114db565b60405161024b919061347b565b3480156105df57600080fd5b506102746105ee366004613086565b61163c565b3480156105ff57600080fd5b5061061361060e36600461313d565b6116e1565b60405161024b96959493929190613503565b34801561063157600080fd5b50610645610640366004613086565b6117a5565b60405161024b9796959493929190613544565b34801561066457600080fd5b5061027461067336600461359c565b61188b565b34801561068457600080fd5b506102e661069336600461313d565b6101336020526000908152604090205481565b6102e66106b4366004613618565b611bdc565b3480156106c557600080fd5b506102746106d436600461324e565b611d4d565b3480156106e557600080fd5b506106f96106f436600461313d565b611d72565b60405161024b919061369b565b34801561071257600080fd5b50610274610721366004613231565b611f06565b34801561073257600080fd5b506102e661012e5481565b34801561074957600080fd5b5061023f610758366004613231565b6001600160a01b03166000908152610134602052604090205460ff1690565b60006001600160e01b03198216637965db0b60e01b14806107a857506301ffc9a760e01b6001600160e01b03198316145b92915050565b61012f5482906001600160a01b0316632fa117e5826107cb611f7c565b6040516001600160e01b031960e085901b16815260048101929092526001600160a01b03166024820152604401602060405180830381865afa158015610815573d6000803e3d6000fd5b505050506040513d601f19601f8201168201806040525081019061083991906136fc565b61085e5760405162461bcd60e51b815260040161085590613719565b60405180910390fd5b600082815261013160205260409020600181015484146108ce5760405162461bcd60e51b815260206004820152602560248201527f4f6e6c7920746865206f776e65722063616e2063616e63656c20746865207365604482015264727669636560d81b6064820152608401610855565b6000815460ff1660048111156108e6576108e6613401565b1461094f5760405162461bcd60e51b815260206004820152603360248201527f4f6e6c79207365727669636573207769746820746865206f70656e20737461746044820152721d5cc818d85b8818994818d85b98d95b1b1959606a1b6064820152608401610855565b805460ff191660031781556040518381527f853aa4be1ac86f37acfc91d42b57f1fe895205aa6f8f9b7caa77ca257049ab1a9060200160405180910390a150505050565b61012f5484906001600160a01b0316632fa117e5826109b0611f7c565b6040516001600160e01b031960e085901b16815260048101929092526001600160a01b03166024820152604401602060405180830381865afa1580156109fa573d6000803e3d6000fd5b505050506040513d601f19601f82011682018060405250810190610a1e91906136fc565b610a3a5760405162461bcd60e51b815260040161085590613719565b60008481526101316020526040902060018101548614610aaa5760405162461bcd60e51b815260206004820152602560248201527f4f6e6c7920746865206f776e65722063616e2075706461746520746865207365604482015264727669636560d81b6064820152608401610855565b6000815460ff166004811115610ac257610ac2613401565b14610b0f5760405162461bcd60e51b815260206004820152601f60248201527f53657276696365207374617475732073686f756c64206265206f70656e6564006044820152606401610855565b602e8314610b2f5760405162461bcd60e51b815260040161085590613748565b60038101610b3e8486836137ed565b50847f1cae99404f615a4039d85b1009cb70622aae6d64f671e8b1b191d9269847d43e8585604051610b719291906138d7565b60405180910390a2505050505050565b61012f548a906001600160a01b0316632fa117e582610b9e611f7c565b6040516001600160e01b031960e085901b16815260048101929092526001600160a01b03166024820152604401602060405180830381865afa158015610be8573d6000803e3d6000fd5b505050506040513d601f19601f82011682018060405250810190610c0c91906136fc565b610c285760405162461bcd60e51b815260040161085590613719565b610c398b8b8b8b8b8b8b8a8a611f8b565b6040805160e0810190915280600081526020018c81526020018a6001600160a01b031681526020018981526020018861ffff16815260200187878080601f016020809104026020016040519081016040528093929190818152602001838380828437600092018290525093855250505060209182018790528c8152610132825260408082208f83529092522081518154829060ff191660018381811115610ce257610ce2613401565b02179055506020820151600182015560408201516002820180546001600160a01b0319166001600160a01b0390921691909117905560608201516003820155608082015160048201805461ffff191661ffff90921691909117905560a08201516005820190610d5190826138f3565b5060c082015181600601559050507f1681c3e69e3dbb90d91fbd7df6e21e11a35daef0f91f6a6a0e2968999b5d100e8a8c888860008e8e8e8c604051610d9f999897969594939291906139b3565b60405180910390a15050505050505050505050565b610dbc6122d4565b6001600160a01b038116600081815260656020908152604091829020805460ff1916600117905590519182527f3ef8564460ada92419608d823c014975d98f8104d7d1e68c222967ac6814cd9791015b60405180910390a150565b600082815260fc6020526040902060010154610e328161234d565b610e3c838361235e565b505050565b610e49611f7c565b6001600160a01b0316816001600160a01b031614610ec15760405162461bcd60e51b815260206004820152602f60248201527f416363657373436f6e74726f6c3a2063616e206f6e6c792072656e6f756e636560448201526e103937b632b9903337b91039b2b63360891b6064820152608401610855565b610ecb82826123e5565b5050565b6001600160a01b037f0000000000000000000000000000000000000000000000000000000000000000163003610f175760405162461bcd60e51b815260040161085590613a18565b7f00000000000000000000000000000000000000000000000000000000000000006001600160a01b0316610f60600080516020613d7a833981519152546001600160a01b031690565b6001600160a01b031614610f865760405162461bcd60e51b815260040161085590613a64565b610f8f8161246a565b60408051600080825260208201909252610fab91839190612472565b50565b610fb66122d4565b6001600160a01b038116600081815260656020908152604091829020805460ff1916905590519182527fd2d636efcad0cea42e170256f4c5d8b1cd81e47b855557edaf44014e6cc4cee69101610e0c565b60006110128161234d565b6101358290556040518281527f577d7afcf67637a2f602cba220bbb292c1d715380dd011bfec748c3f641b2fd29060200160405180910390a15050565b600054610100900460ff161580801561106f5750600054600160ff909116105b806110895750303b158015611089575060005460ff166001145b6110ec5760405162461bcd60e51b815260206004820152602e60248201527f496e697469616c697a61626c653a20636f6e747261637420697320616c72656160448201526d191e481a5b9a5d1a585b1a5e995960921b6064820152608401610855565b6000805460ff19166001179055801561110f576000805461ff0019166101001790555b6111176125dd565b61111f61260c565b61112761260c565b6111396000611134611f7c565b612633565b61012f80546001600160a01b038086166001600160a01b031992831617909255610130805492851692909116919091179055600161012e5561117b601e611007565b8015610e3c576000805461ff0019169055604051600181527f7f26b83ff96e1f2b6a682f133852f6798a09c465da95921460cefb3847402498906020015b60405180910390a1505050565b6001600160a01b037f000000000000000000000000000000000000000000000000000000000000000016300361120e5760405162461bcd60e51b815260040161085590613a18565b7f00000000000000000000000000000000000000000000000000000000000000006001600160a01b0316611257600080516020613d7a833981519152546001600160a01b031690565b6001600160a01b03161461127d5760405162461bcd60e51b815260040161085590613a64565b6112868261246a565b610ecb82826001612472565b6000306001600160a01b037f000000000000000000000000000000000000000000000000000000000000000016146113325760405162461bcd60e51b815260206004820152603860248201527f555550535570677261646561626c653a206d757374206e6f742062652063616c60448201527f6c6564207468726f7567682064656c656761746563616c6c00000000000000006064820152608401610855565b50600080516020613d7a83398151915290565b61134d6122d4565b611357600061263d565b565b6113616122d4565b6001600160a01b038316158015611376575081155b156113c35760405162461bcd60e51b815260206004820152601d60248201527f4f776e65722063616e27742072656d6f7665204f7820616464726573730000006044820152606401610855565b6001600160a01b03831660008181526101346020908152604091829020805460ff19168615159081178255600190910185905582519384529083015281018290527f42b585a1da1cff4b571e7a78aea1b4601b1d128de41a0feebd8a77aaf48b9d88906060016111b9565b600091825260fc602090815260408084206001600160a01b0393909316845291905290205460ff1690565b7f2fdac322ee704ce09f0773f7f3f92eb98d5e7c836ee9c056cccd5f61041e5e3f6114838161234d565b60008481526101316020908152604080832061013283528184208785529092529091208154600160ff1991821681178455808301546002850155600484018690558254909183911682805b0217905550505050505050565b6040805160e080820183526000808352602080840182905283850182905260608085018390526080850183905260a085015260c08401829052868252610132815284822086835290528390208351918201909352825491929091829060ff16600181111561154b5761154b613401565b600181111561155c5761155c613401565b81526001820154602082015260028201546001600160a01b0316604082015260038201546060820152600482015461ffff16608082015260058201805460a0909201916115a89061376d565b80601f01602080910402602001604051908101604052809291908181526020018280546115d49061376d565b80156116215780601f106115f657610100808354040283529160200191611621565b820191906000526020600020905b81548152906001019060200180831161160457829003601f168201915b50505050508152602001600682015481525050905092915050565b7f2fdac322ee704ce09f0773f7f3f92eb98d5e7c836ee9c056cccd5f61041e5e3f6116668161234d565b60008381526101316020908152604080832061013283528184206002820154855290925282206003810154919290916116a0866064613ac6565b6116aa9190613add565b90506101355481106116c657825460ff191660021783556116d9565b8254600490849060ff19166001836114ce565b505050505050565b61013160205260009081526040902080546001820154600283015460038401805460ff9094169492939192916117169061376d565b80601f01602080910402602001604051908101604052809291908181526020018280546117429061376d565b801561178f5780601f106117645761010080835404028352916020019161178f565b820191906000526020600020905b81548152906001019060200180831161177257829003601f168201915b5050505050908060040154908060050154905086565b61013260209081526000928352604080842090915290825290208054600182015460028301546003840154600485015460058601805460ff9096169694956001600160a01b0390941694929361ffff90921692916118029061376d565b80601f016020809104026020016040519081016040528092919081815260200182805461182e9061376d565b801561187b5780601f106118505761010080835404028352916020019161187b565b820191906000526020600020905b81548152906001019060200180831161185e57829003601f168201915b5050505050908060060154905087565b61012f5487906001600160a01b0316632fa117e5826118a8611f7c565b6040516001600160e01b031960e085901b16815260048101929092526001600160a01b03166024820152604401602060405180830381865afa1580156118f2573d6000803e3d6000fd5b505050506040513d601f19601f8201168201806040525081019061191691906136fc565b6119325760405162461bcd60e51b815260040161085590613719565b6001600160a01b0386166000908152610134602052604090205460ff166119975760405162461bcd60e51b8152602060048201526019602482015278151a1a5cc81d1bdad95b881a5cc81b9bdd08185b1b1bddd959603a1b6044820152606401610855565b60008781526101316020908152604080832061013283528184208c855290925282209091825460ff1660048111156119d1576119d1613401565b14611a165760405162461bcd60e51b815260206004820152601560248201527414d95c9d9a58d9481a5cc81b9bdd081bdc195b9959605a1b6044820152606401610855565b89816001015414611a695760405162461bcd60e51b815260206004820152601f60248201527f546869732070726f706f73616c20646f65736e277420657869737420796574006044820152606401610855565b602e8514611a895760405162461bcd60e51b815260040161085590613748565b6001815460ff166001811115611aa157611aa1613401565b03611af95760405162461bcd60e51b815260206004820152602260248201527f546869732070726f706f73616c20697320616c72656164792076616c69646174604482015261195960f21b6064820152608401610855565b6001600160a01b03881660009081526101346020526040902060010154871015611b595760405162461bcd60e51b8152602060048201526011602482015270416d6f756e7420697320746f6f206c6f7760781b6044820152606401610855565b6002810180546001600160a01b0319166001600160a01b038a161790556003810187905560058101611b8c8688836137ed565b507f0f68ab04ab4935c8598d30f2c12ec34265575059bb4cae481b4d632cc43db81e898b88888c8c8a604051611bc89796959493929190613aff565b60405180910390a150505050505050505050565b61012f5460009087906001600160a01b0316632fa117e582611bfc611f7c565b6040516001600160e01b031960e085901b16815260048101929092526001600160a01b03166024820152604401602060405180830381865afa158015611c46573d6000803e3d6000fd5b505050506040513d601f19601f82011682018060405250810190611c6a91906136fc565b611c865760405162461bcd60e51b815260040161085590613719565b611c9488888888888861268f565b61012e80549081906000611ca783613b47565b9091555050600081815261013160205260409020805460ff19168155600181018a905560038101611cd9888a836137ed565b506005810189905560008a815261013360205260408120805491611cfc83613b47565b91905055507f8f3fc1086abc1020f602edd700a9ae5801b250c9d110af9e54022d7cc5df7bee828b8b8b8b604051611d38959493929190613b60565b60405180910390a15098975050505050505050565b600082815260fc6020526040902060010154611d688161234d565b610e3c83836123e5565b611dac6040805160c08101909152806000815260200160008152602001600081526020016060815260200160008152602001600081525090565b61012e548210611dfe5760405162461bcd60e51b815260206004820152601a60248201527f54686973207365727669636520646f65736e27742065786973740000000000006044820152606401610855565b6000828152610131602052604090819020815160c081019092528054829060ff166004811115611e3057611e30613401565b6004811115611e4157611e41613401565b81526020016001820154815260200160028201548152602001600382018054611e699061376d565b80601f0160208091040260200160405190810160405280929190818152602001828054611e959061376d565b8015611ee25780601f10611eb757610100808354040283529160200191611ee2565b820191906000526020600020905b815481529060010190602001808311611ec557829003601f168201915b50505050508152602001600482015481526020016005820154815250509050919050565b611f0e6122d4565b6001600160a01b038116611f735760405162461bcd60e51b815260206004820152602660248201527f4f776e61626c653a206e6577206f776e657220697320746865207a65726f206160448201526564647265737360d01b6064820152608401610855565b610fab8161263d565b6000611f866127b8565b905090565b6001600160a01b0387166000908152610134602052604090205460ff16611ff05760405162461bcd60e51b8152602060048201526019602482015278151a1a5cc81d1bdad95b881a5cc81b9bdd08185b1b1bddd959603a1b6044820152606401610855565b61013054604051634a7ab1d560e01b815261ffff871660048201526000916001600160a01b031690634a7ab1d590602401602060405180830381865afa15801561203e573d6000803e3d6000fd5b505050506040513d601f19601f820116820180604052508101906120629190613b91565b90508034146120a85760405162461bcd60e51b81526020600482015260126024820152714e6f6e2d6d61746368696e672066756e647360701b6044820152606401610855565b6001600160a01b038816600090815261013460205260409020600101548710156121085760405162461bcd60e51b8152602060048201526011602482015270416d6f756e7420697320746f6f206c6f7760781b6044820152606401610855565b60008981526101316020526040812090815460ff16600481111561212e5761212e613401565b146121735760405162461bcd60e51b815260206004820152601560248201527414d95c9d9a58d9481a5cc81b9bdd081bdc195b9959605a1b6044820152606401610855565b60008a8152610132602090815260408083208e84529091529020600101548b90036121f85760405162461bcd60e51b815260206004820152602f60248201527f596f7520616c7265616479206372656174656420612070726f706f73616c206660448201526e6f722074686973207365727669636560881b6064820152608401610855565b8a8160010154036122655760405162461bcd60e51b815260206004820152603160248201527f596f7520636f756c646e2774206372656174652070726f706f73616c20666f7260448201527020796f7572206f776e207365727669636560781b6064820152608401610855565b602e85146122855760405162461bcd60e51b815260040161085590613748565b60008b8b888860405160200161229e9493929190613baa565b6040516020818303038152906040528051906020012090506122c68585838b61ffff166127f1565b505050505050505050505050565b6122dc611f7c565b6001600160a01b03166122f76033546001600160a01b031690565b6001600160a01b0316146113575760405162461bcd60e51b815260206004820181905260248201527f4f776e61626c653a2063616c6c6572206973206e6f7420746865206f776e65726044820152606401610855565b610fab81612359611f7c565b612962565b612368828261142e565b610ecb57600082815260fc602090815260408083206001600160a01b03851684529091529020805460ff191660011790556123a1611f7c565b6001600160a01b0316816001600160a01b0316837f2f8788117e7eff1d82e926ec794901d17c78024a50270940304540a733656f0d60405160405180910390a45050565b6123ef828261142e565b15610ecb57600082815260fc602090815260408083206001600160a01b03851684529091529020805460ff19169055612426611f7c565b6001600160a01b0316816001600160a01b0316837ff6391f5c32d9c69d2a47ea670b442974b53935d1edc7fd64eb21e047a839171b60405160405180910390a45050565b610fab6122d4565b7f4910fdfa16fed3260ed0e7147f7cc6da11a60208b5b9406d12a635614ffd91435460ff16156124a557610e3c836129bb565b826001600160a01b03166352d1902d6040518163ffffffff1660e01b8152600401602060405180830381865afa9250505080156124ff575060408051601f3d908101601f191682019092526124fc91810190613b91565b60015b6125625760405162461bcd60e51b815260206004820152602e60248201527f45524331393637557067726164653a206e657720696d706c656d656e7461746960448201526d6f6e206973206e6f74205555505360901b6064820152608401610855565b600080516020613d7a83398151915281146125d15760405162461bcd60e51b815260206004820152602960248201527f45524331393637557067726164653a20756e737570706f727465642070726f786044820152681a58589b195555525160ba1b6064820152608401610855565b50610e3c838383612a57565b600054610100900460ff166126045760405162461bcd60e51b815260040161085590613bec565b611357612a82565b600054610100900460ff166113575760405162461bcd60e51b815260040161085590613bec565b610ecb828261235e565b603380546001600160a01b038381166001600160a01b0319831681179093556040519116919082907f8be0079c531659141344cd1fd0a4f28419497f9722a3daafe3b4186f6b6457e090600090a35050565b61013054604051638a98636360e01b8152600481018790526000916001600160a01b031690638a98636390602401602060405180830381865afa1580156126da573d6000803e3d6000fd5b505050506040513d601f19601f820116820180604052508101906126fe9190613b91565b90508034146127445760405162461bcd60e51b81526020600482015260126024820152714e6f6e2d6d61746368696e672066756e647360701b6044820152606401610855565b602e84146127645760405162461bcd60e51b815260040161085590613748565b60008781526101336020908152604080832054905161278a928b92918a918a9101613c37565b6040516020818303038152906040528051906020012090506127ae8484838a6127f1565b5050505050505050565b6000601436108015906127da57503360009081526065602052604090205460ff165b156127ec575060131936013560601c90565b503390565b600061284a836040517f19457468657265756d205369676e6564204d6573736167653a0a3332000000006020820152603c8101829052600090605c01604051602081830303815290604052805190602001209050919050565b9050600061288e8287878080601f016020809104026020016040519081016040528093929190818152602001838380828437600092019190915250612ab992505050565b61013054604051631fff7f2760e11b8152600481018690529192506000916001600160a01b0390911690633ffefe4e90602401602060405180830381865afa1580156128de573d6000803e3d6000fd5b505050506040513d601f19601f820116820180604052508101906129029190613c78565b9050816001600160a01b0316816001600160a01b0316146129595760405162461bcd60e51b8152602060048201526011602482015270696e76616c6964207369676e617475726560781b6044820152606401610855565b50505050505050565b61296c828261142e565b610ecb5761297981612add565b612984836020612aef565b604051602001612995929190613c95565b60408051601f198184030181529082905262461bcd60e51b825261085591600401613d0a565b6001600160a01b0381163b612a285760405162461bcd60e51b815260206004820152602d60248201527f455243313936373a206e657720696d706c656d656e746174696f6e206973206e60448201526c1bdd08184818dbdb9d1c9858dd609a1b6064820152608401610855565b600080516020613d7a83398151915280546001600160a01b0319166001600160a01b0392909216919091179055565b612a6083612c92565b600082511180612a6d5750805b15610e3c57612a7c8383612cd2565b50505050565b600054610100900460ff16612aa95760405162461bcd60e51b815260040161085590613bec565b611357612ab4611f7c565b61263d565b6000806000612ac88585612dc6565b91509150612ad581612e0b565b509392505050565b60606107a86001600160a01b03831660145b60606000612afe836002613ac6565b612b09906002613d1d565b67ffffffffffffffff811115612b2157612b216132ac565b6040519080825280601f01601f191660200182016040528015612b4b576020820181803683370190505b509050600360fc1b81600081518110612b6657612b66613d30565b60200101906001600160f81b031916908160001a905350600f60fb1b81600181518110612b9557612b95613d30565b60200101906001600160f81b031916908160001a9053506000612bb9846002613ac6565b612bc4906001613d1d565b90505b6001811115612c3c576f181899199a1a9b1b9c1cb0b131b232b360811b85600f1660108110612bf857612bf8613d30565b1a60f81b828281518110612c0e57612c0e613d30565b60200101906001600160f81b031916908160001a90535060049490941c93612c3581613d46565b9050612bc7565b508315612c8b5760405162461bcd60e51b815260206004820181905260248201527f537472696e67733a20686578206c656e67746820696e73756666696369656e746044820152606401610855565b9392505050565b612c9b816129bb565b6040516001600160a01b038216907fbc7cd75a20ee27fd9adebab32041f755214dbc6bffa90cc0225b39da2e5c2d3b90600090a250565b60606001600160a01b0383163b612d3a5760405162461bcd60e51b815260206004820152602660248201527f416464726573733a2064656c65676174652063616c6c20746f206e6f6e2d636f6044820152651b9d1c9858dd60d21b6064820152608401610855565b600080846001600160a01b031684604051612d559190613d5d565b600060405180830381855af49150503d8060008114612d90576040519150601f19603f3d011682016040523d82523d6000602084013e612d95565b606091505b5091509150612dbd8282604051806060016040528060278152602001613d9a60279139612f55565b95945050505050565b6000808251604103612dfc5760208301516040840151606085015160001a612df087828585612f6e565b94509450505050612e04565b506000905060025b9250929050565b6000816004811115612e1f57612e1f613401565b03612e275750565b6001816004811115612e3b57612e3b613401565b03612e885760405162461bcd60e51b815260206004820152601860248201527f45434453413a20696e76616c6964207369676e617475726500000000000000006044820152606401610855565b6002816004811115612e9c57612e9c613401565b03612ee95760405162461bcd60e51b815260206004820152601f60248201527f45434453413a20696e76616c6964207369676e6174757265206c656e677468006044820152606401610855565b6003816004811115612efd57612efd613401565b03610fab5760405162461bcd60e51b815260206004820152602260248201527f45434453413a20696e76616c6964207369676e6174757265202773272076616c604482015261756560f01b6064820152608401610855565b60608315612f64575081612c8b565b612c8b8383613032565b6000807f7fffffffffffffffffffffffffffffff5d576e7357a4501ddfe92f46681b20a0831115612fa55750600090506003613029565b6040805160008082526020820180845289905260ff881692820192909252606081018690526080810185905260019060a0016020604051602081039080840390855afa158015612ff9573d6000803e3d6000fd5b5050604051601f1901519150506001600160a01b03811661302257600060019250925050613029565b9150600090505b94509492505050565b8151156130425781518083602001fd5b8060405162461bcd60e51b81526004016108559190613d0a565b60006020828403121561306e57600080fd5b81356001600160e01b031981168114612c8b57600080fd5b6000806040838503121561309957600080fd5b50508035926020909101359150565b60008083601f8401126130ba57600080fd5b50813567ffffffffffffffff8111156130d257600080fd5b602083019150836020828501011115612e0457600080fd5b6000806000806060858703121561310057600080fd5b8435935060208501359250604085013567ffffffffffffffff81111561312557600080fd5b613131878288016130a8565b95989497509550505050565b60006020828403121561314f57600080fd5b5035919050565b6001600160a01b0381168114610fab57600080fd5b6000806000806000806000806000806101008b8d03121561318b57600080fd5b8a35995060208b0135985060408b01356131a481613156565b975060608b0135965060808b013561ffff811681146131c257600080fd5b955060a08b013567ffffffffffffffff808211156131df57600080fd5b6131eb8e838f016130a8565b909750955060c08d0135945060e08d013591508082111561320b57600080fd5b506132188d828e016130a8565b915080935050809150509295989b9194979a5092959850565b60006020828403121561324357600080fd5b8135612c8b81613156565b6000806040838503121561326157600080fd5b82359150602083013561327381613156565b809150509250929050565b6000806040838503121561329157600080fd5b823561329c81613156565b9150602083013561327381613156565b634e487b7160e01b600052604160045260246000fd5b600080604083850312156132d557600080fd5b82356132e081613156565b9150602083013567ffffffffffffffff808211156132fd57600080fd5b818501915085601f83011261331157600080fd5b813581811115613323576133236132ac565b604051601f8201601f19908116603f0116810190838211818310171561334b5761334b6132ac565b8160405282815288602084870101111561336457600080fd5b8260208601602083013760006020848301015280955050505050509250929050565b8015158114610fab57600080fd5b6000806000606084860312156133a957600080fd5b83356133b481613156565b925060208401356133c481613386565b929592945050506040919091013590565b6000806000606084860312156133ea57600080fd5b505081359360208301359350604090920135919050565b634e487b7160e01b600052602160045260246000fd5b6002811061342757613427613401565b9052565b60005b8381101561344657818101518382015260200161342e565b50506000910152565b6000815180845261346781602086016020860161342b565b601f01601f19169290920160200192915050565b6020815261348d602082018351613417565b6020820151604082015260018060a01b0360408301511660608201526060820151608082015261ffff60808301511660a0820152600060a083015160e060c08401526134dd61010084018261344f565b905060c084015160e08401528091505092915050565b6005811061342757613427613401565b61350d81886134f3565b85602082015284604082015260c06060820152600061352f60c083018661344f565b60808301949094525060a00152949350505050565b61354e8189613417565b86602082015260018060a01b038616604082015284606082015261ffff8416608082015260e060a0820152600061358860e083018561344f565b90508260c083015298975050505050505050565b600080600080600080600060c0888a0312156135b757600080fd5b873596506020880135955060408801356135d081613156565b945060608801359350608088013567ffffffffffffffff8111156135f357600080fd5b6135ff8a828b016130a8565b989b979a5095989497959660a090950135949350505050565b6000806000806000806080878903121561363157600080fd5b8635955060208701359450604087013567ffffffffffffffff8082111561365757600080fd5b6136638a838b016130a8565b9096509450606089013591508082111561367c57600080fd5b5061368989828a016130a8565b979a9699509497509295939492505050565b602081526136ad6020820183516134f3565b60208201516040820152604082015160608201526000606083015160c060808401526136dc60e084018261344f565b9050608084015160a084015260a084015160c08401528091505092915050565b60006020828403121561370e57600080fd5b8151612c8b81613386565b6020808252601590820152744e6f74206f776e6572206f722064656c656761746560581b604082015260600190565b6020808252600b908201526a125b9d985b1a590818da5960aa1b604082015260600190565b600181811c9082168061378157607f821691505b6020821081036137a157634e487b7160e01b600052602260045260246000fd5b50919050565b601f821115610e3c57600081815260208120601f850160051c810160208610156137ce5750805b601f850160051c820191505b818110156116d9578281556001016137da565b67ffffffffffffffff831115613805576138056132ac565b61381983613813835461376d565b836137a7565b6000601f84116001811461384d57600085156138355750838201355b600019600387901b1c1916600186901b1783556138a7565b600083815260209020601f19861690835b8281101561387e578685013582556020948501946001909201910161385e565b508682101561389b5760001960f88860031b161c19848701351681555b505060018560011b0183555b5050505050565b81835281816020850137506000828201602090810191909152601f909101601f19169091010190565b6020815260006138eb6020830184866138ae565b949350505050565b815167ffffffffffffffff81111561390d5761390d6132ac565b6139218161391b845461376d565b846137a7565b602080601f831160018114613956576000841561393e5750858301515b600019600386901b1c1916600185901b1785556116d9565b600085815260208120601f198616915b8281101561398557888601518255948401946001909101908401613966565b50858210156139a35787850151600019600388901b60f8161c191681555b5050505050600190811b01905550565b60006101008b83528a60208401528060408401526139d48184018a8c6138ae565b9150506139e46060830188613417565b6001600160a01b0395909516608082015260a081019390935261ffff9190911660c083015260e09091015295945050505050565b6020808252602c908201527f46756e6374696f6e206d7573742062652063616c6c6564207468726f7567682060408201526b19195b1959d85d1958d85b1b60a21b606082015260800190565b6020808252602c908201527f46756e6374696f6e206d7573742062652063616c6c6564207468726f7567682060408201526b6163746976652070726f787960a01b606082015260800190565b634e487b7160e01b600052601160045260246000fd5b80820281158282048414176107a8576107a8613ab0565b600082613afa57634e487b7160e01b600052601260045260246000fd5b500490565b87815286602082015260c060408201526000613b1f60c0830187896138ae565b6001600160a01b0395909516606083015250608081019290925260a090910152949350505050565b600060018201613b5957613b59613ab0565b5060010190565b858152846020820152836040820152608060608201526000613b866080830184866138ae565b979650505050505050565b600060208284031215613ba357600080fd5b5051919050565b6d18dc99585d19541c9bdc1bdcd85b60921b815284600e820152603b60f81b602e82015283602f8201528183604f83013760009101604f019081529392505050565b6020808252602b908201527f496e697469616c697a61626c653a20636f6e7472616374206973206e6f74206960408201526a6e697469616c697a696e6760a81b606082015260800190565b6c6372656174655365727669636560981b815284600d820152603b60f81b602d82015283602e8201528183604e83013760009101604e019081529392505050565b600060208284031215613c8a57600080fd5b8151612c8b81613156565b7f416363657373436f6e74726f6c3a206163636f756e7420000000000000000000815260008351613ccd81601785016020880161342b565b7001034b99036b4b9b9b4b733903937b6329607d1b6017918401918201528351613cfe81602884016020880161342b565b01602801949350505050565b602081526000612c8b602083018461344f565b808201808211156107a8576107a8613ab0565b634e487b7160e01b600052603260045260246000fd5b600081613d5557613d55613ab0565b506000190190565b60008251613d6f81846020870161342b565b919091019291505056fe360894a13ba1a3210667c828492db98dca3e2076cc3735a920a3ca505d382bbc416464726573733a206c6f772d6c6576656c2064656c65676174652063616c6c206661696c6564a2646970667358221220cbf914dd66fb282146595e1a4ac2d10164b156bece470ec8e7ab196cd870ce4b64736f6c63430008110033",
  "linkReferences": {},
  "deployedLinkReferences": {}
}