{
  "_format": "hh-sol-artifact-1",
  "contractName": "TalentLayerID",
  "sourceName": "contracts/TalentLayerID.sol",
  "abi": [
    {
      "inputs": [],
      "stateMutability": "nonpayable",
      "type": "constructor"
    },
    {
      "inputs": [],
      "name": "HandleContainsInvalidCharacters",
      "type": "error"
    },
    {
      "inputs": [],
      "name": "HandleLengthInvalid",
      "type": "error"
    },
    {
      "anonymous": false,
      "inputs": [
        {
          "indexed": false,
          "internalType": "address",
          "name": "previousAdmin",
          "type": "address"
        },
        {
          "indexed": false,
          "internalType": "address",
          "name": "newAdmin",
          "type": "address"
        }
      ],
      "name": "AdminChanged",
      "type": "event"
    },
    {
      "anonymous": false,
      "inputs": [
        {
          "indexed": true,
          "internalType": "address",
          "name": "owner",
          "type": "address"
        },
        {
          "indexed": true,
          "internalType": "address",
          "name": "approved",
          "type": "address"
        },
        {
          "indexed": true,
          "internalType": "uint256",
          "name": "tokenId",
          "type": "uint256"
        }
      ],
      "name": "Approval",
      "type": "event"
    },
    {
      "anonymous": false,
      "inputs": [
        {
          "indexed": true,
          "internalType": "address",
          "name": "owner",
          "type": "address"
        },
        {
          "indexed": true,
          "internalType": "address",
          "name": "operator",
          "type": "address"
        },
        {
          "indexed": false,
          "internalType": "bool",
          "name": "approved",
          "type": "bool"
        }
      ],
      "name": "ApprovalForAll",
      "type": "event"
    },
    {
      "anonymous": false,
      "inputs": [
        {
          "indexed": true,
          "internalType": "address",
          "name": "beacon",
          "type": "address"
        }
      ],
      "name": "BeaconUpgraded",
      "type": "event"
    },
    {
      "anonymous": false,
      "inputs": [
        {
          "indexed": true,
          "internalType": "uint256",
          "name": "_profileId",
          "type": "uint256"
        },
        {
          "indexed": false,
          "internalType": "string",
          "name": "_newCid",
          "type": "string"
        }
      ],
      "name": "CidUpdated",
      "type": "event"
    },
    {
      "anonymous": false,
      "inputs": [
        {
          "indexed": false,
          "internalType": "uint256",
          "name": "_profileId",
          "type": "uint256"
        },
        {
          "indexed": false,
          "internalType": "address",
          "name": "_delegate",
          "type": "address"
        }
      ],
      "name": "DelegateAdded",
      "type": "event"
    },
    {
      "anonymous": false,
      "inputs": [
        {
          "indexed": false,
          "internalType": "uint256",
          "name": "_profileId",
          "type": "uint256"
        },
        {
          "indexed": false,
          "internalType": "address",
          "name": "_delegate",
          "type": "address"
        }
      ],
      "name": "DelegateRemoved",
      "type": "event"
    },
    {
      "anonymous": false,
      "inputs": [
        {
          "indexed": false,
          "internalType": "uint8",
          "name": "version",
          "type": "uint8"
        }
      ],
      "name": "Initialized",
      "type": "event"
    },
    {
      "anonymous": false,
      "inputs": [
        {
          "indexed": true,
          "internalType": "address",
          "name": "_user",
          "type": "address"
        },
        {
          "indexed": false,
          "internalType": "uint256",
          "name": "_profileId",
          "type": "uint256"
        },
        {
          "indexed": false,
          "internalType": "string",
          "name": "_handle",
          "type": "string"
        },
        {
          "indexed": false,
          "internalType": "uint256",
          "name": "_platformId",
          "type": "uint256"
        },
        {
          "indexed": false,
          "internalType": "uint256",
          "name": "_fee",
          "type": "uint256"
        }
      ],
      "name": "Mint",
      "type": "event"
    },
    {
      "anonymous": false,
      "inputs": [
        {
          "indexed": false,
          "internalType": "uint256",
          "name": "_mintFee",
          "type": "uint256"
        }
      ],
      "name": "MintFeeUpdated",
      "type": "event"
    },
    {
      "anonymous": false,
      "inputs": [
        {
          "indexed": true,
          "internalType": "address",
          "name": "previousOwner",
          "type": "address"
        },
        {
          "indexed": true,
          "internalType": "address",
          "name": "newOwner",
          "type": "address"
        }
      ],
      "name": "OwnershipTransferred",
      "type": "event"
    },
    {
      "anonymous": false,
      "inputs": [
        {
          "indexed": true,
          "internalType": "address",
          "name": "from",
          "type": "address"
        },
        {
          "indexed": true,
          "internalType": "address",
          "name": "to",
          "type": "address"
        },
        {
          "indexed": true,
          "internalType": "uint256",
          "name": "tokenId",
          "type": "uint256"
        }
      ],
      "name": "Transfer",
      "type": "event"
    },
    {
      "anonymous": false,
      "inputs": [
        {
          "indexed": false,
          "internalType": "address",
          "name": "forwarder",
          "type": "address"
        }
      ],
      "name": "TrustedForwarderAdded",
      "type": "event"
    },
    {
      "anonymous": false,
      "inputs": [
        {
          "indexed": false,
          "internalType": "address",
          "name": "forwarder",
          "type": "address"
        }
      ],
      "name": "TrustedForwarderRemoved",
      "type": "event"
    },
    {
      "anonymous": false,
      "inputs": [
        {
          "indexed": true,
          "internalType": "address",
          "name": "implementation",
          "type": "address"
        }
      ],
      "name": "Upgraded",
      "type": "event"
    },
    {
      "inputs": [
        {
          "internalType": "uint256",
          "name": "_profileId",
          "type": "uint256"
        },
        {
          "internalType": "address",
          "name": "_delegate",
          "type": "address"
        }
      ],
      "name": "addDelegate",
      "outputs": [],
      "stateMutability": "nonpayable",
      "type": "function"
    },
    {
      "inputs": [
        {
          "internalType": "address",
          "name": "_forwarder",
          "type": "address"
        }
      ],
      "name": "addTrustedForwarder",
      "outputs": [],
      "stateMutability": "nonpayable",
      "type": "function"
    },
    {
      "inputs": [
        {
          "internalType": "address",
          "name": "to",
          "type": "address"
        },
        {
          "internalType": "uint256",
          "name": "tokenId",
          "type": "uint256"
        }
      ],
      "name": "approve",
      "outputs": [],
      "stateMutability": "nonpayable",
      "type": "function"
    },
    {
      "inputs": [
        {
          "internalType": "address",
          "name": "owner",
          "type": "address"
        }
      ],
      "name": "balanceOf",
      "outputs": [
        {
          "internalType": "uint256",
          "name": "",
          "type": "uint256"
        }
      ],
      "stateMutability": "view",
      "type": "function"
    },
    {
      "inputs": [
        {
          "internalType": "uint256",
          "name": "_platformId",
          "type": "uint256"
        },
        {
          "internalType": "address",
          "name": "_userAddress",
          "type": "address"
        },
        {
          "internalType": "string",
          "name": "_handle",
          "type": "string"
        }
      ],
      "name": "freeMint",
      "outputs": [
        {
          "internalType": "uint256",
          "name": "",
          "type": "uint256"
        }
      ],
      "stateMutability": "nonpayable",
      "type": "function"
    },
    {
      "inputs": [
        {
          "internalType": "uint256",
          "name": "tokenId",
          "type": "uint256"
        }
      ],
      "name": "getApproved",
      "outputs": [
        {
          "internalType": "address",
          "name": "",
          "type": "address"
        }
      ],
      "stateMutability": "view",
      "type": "function"
    },
    {
      "inputs": [
        {
          "internalType": "address",
          "name": "_address",
          "type": "address"
        }
      ],
      "name": "getOriginatorPlatformIdByAddress",
      "outputs": [
        {
          "internalType": "uint256",
          "name": "",
          "type": "uint256"
        }
      ],
      "stateMutability": "view",
      "type": "function"
    },
    {
      "inputs": [
        {
          "internalType": "address",
          "name": "",
          "type": "address"
        }
      ],
      "name": "ids",
      "outputs": [
        {
          "internalType": "uint256",
          "name": "",
          "type": "uint256"
        }
      ],
      "stateMutability": "view",
      "type": "function"
    },
    {
      "inputs": [
        {
          "internalType": "address",
          "name": "_talentLayerPlatformIdAddress",
          "type": "address"
        }
      ],
      "name": "initialize",
      "outputs": [],
      "stateMutability": "nonpayable",
      "type": "function"
    },
    {
      "inputs": [
        {
          "internalType": "address",
          "name": "owner",
          "type": "address"
        },
        {
          "internalType": "address",
          "name": "operator",
          "type": "address"
        }
      ],
      "name": "isApprovedForAll",
      "outputs": [
        {
          "internalType": "bool",
          "name": "",
          "type": "bool"
        }
      ],
      "stateMutability": "view",
      "type": "function"
    },
    {
      "inputs": [
        {
          "internalType": "uint256",
          "name": "_profileId",
          "type": "uint256"
        },
        {
          "internalType": "address",
          "name": "_address",
          "type": "address"
        }
      ],
      "name": "isDelegate",
      "outputs": [
        {
          "internalType": "bool",
          "name": "",
          "type": "bool"
        }
      ],
      "stateMutability": "view",
      "type": "function"
    },
    {
      "inputs": [
        {
          "internalType": "uint256",
          "name": "_profileId",
          "type": "uint256"
        },
        {
          "internalType": "address",
          "name": "_address",
          "type": "address"
        }
      ],
      "name": "isOwnerOrDelegate",
      "outputs": [
        {
          "internalType": "bool",
          "name": "",
          "type": "bool"
        }
      ],
      "stateMutability": "view",
      "type": "function"
    },
    {
      "inputs": [
        {
          "internalType": "address",
          "name": "forwarder",
          "type": "address"
        }
      ],
      "name": "isTrustedForwarder",
      "outputs": [
        {
          "internalType": "bool",
          "name": "",
          "type": "bool"
        }
      ],
      "stateMutability": "view",
      "type": "function"
    },
    {
      "inputs": [
        {
          "internalType": "uint256",
          "name": "_profileId",
          "type": "uint256"
        }
      ],
      "name": "isValid",
      "outputs": [],
      "stateMutability": "view",
      "type": "function"
    },
    {
      "inputs": [
        {
          "internalType": "uint256",
          "name": "_platformId",
          "type": "uint256"
        },
        {
          "internalType": "string",
          "name": "_handle",
          "type": "string"
        }
      ],
      "name": "mint",
      "outputs": [
        {
          "internalType": "uint256",
          "name": "",
          "type": "uint256"
        }
      ],
      "stateMutability": "payable",
      "type": "function"
    },
    {
      "inputs": [],
      "name": "mintFee",
      "outputs": [
        {
          "internalType": "uint256",
          "name": "",
          "type": "uint256"
        }
      ],
      "stateMutability": "view",
      "type": "function"
    },
    {
      "inputs": [],
      "name": "name",
      "outputs": [
        {
          "internalType": "string",
          "name": "",
          "type": "string"
        }
      ],
      "stateMutability": "view",
      "type": "function"
    },
    {
      "inputs": [
        {
          "internalType": "address",
          "name": "_user",
          "type": "address"
        }
      ],
      "name": "numberMinted",
      "outputs": [
        {
          "internalType": "uint256",
          "name": "",
          "type": "uint256"
        }
      ],
      "stateMutability": "view",
      "type": "function"
    },
    {
      "inputs": [],
      "name": "owner",
      "outputs": [
        {
          "internalType": "address",
          "name": "",
          "type": "address"
        }
      ],
      "stateMutability": "view",
      "type": "function"
    },
    {
      "inputs": [
        {
          "internalType": "uint256",
          "name": "tokenId",
          "type": "uint256"
        }
      ],
      "name": "ownerOf",
      "outputs": [
        {
          "internalType": "address",
          "name": "",
          "type": "address"
        }
      ],
      "stateMutability": "view",
      "type": "function"
    },
    {
      "inputs": [
        {
          "internalType": "uint256",
          "name": "",
          "type": "uint256"
        }
      ],
      "name": "profiles",
      "outputs": [
        {
          "internalType": "uint256",
          "name": "id",
          "type": "uint256"
        },
        {
          "internalType": "string",
          "name": "handle",
          "type": "string"
        },
        {
          "internalType": "uint256",
          "name": "platformId",
          "type": "uint256"
        },
        {
          "internalType": "string",
          "name": "dataUri",
          "type": "string"
        }
      ],
      "stateMutability": "view",
      "type": "function"
    },
    {
      "inputs": [],
      "name": "proxiableUUID",
      "outputs": [
        {
          "internalType": "bytes32",
          "name": "",
          "type": "bytes32"
        }
      ],
      "stateMutability": "view",
      "type": "function"
    },
    {
      "inputs": [
        {
          "internalType": "uint256",
          "name": "_profileId",
          "type": "uint256"
        },
        {
          "internalType": "address",
          "name": "_delegate",
          "type": "address"
        }
      ],
      "name": "removeDelegate",
      "outputs": [],
      "stateMutability": "nonpayable",
      "type": "function"
    },
    {
      "inputs": [
        {
          "internalType": "address",
          "name": "_forwarder",
          "type": "address"
        }
      ],
      "name": "removeTrustedForwarder",
      "outputs": [],
      "stateMutability": "nonpayable",
      "type": "function"
    },
    {
      "inputs": [],
      "name": "renounceOwnership",
      "outputs": [],
      "stateMutability": "nonpayable",
      "type": "function"
    },
    {
      "inputs": [
        {
          "internalType": "address",
          "name": "",
          "type": "address"
        },
        {
          "internalType": "address",
          "name": "",
          "type": "address"
        },
        {
          "internalType": "uint256",
          "name": "",
          "type": "uint256"
        }
      ],
      "name": "safeTransferFrom",
      "outputs": [],
      "stateMutability": "nonpayable",
      "type": "function"
    },
    {
      "inputs": [
        {
          "internalType": "address",
          "name": "",
          "type": "address"
        },
        {
          "internalType": "address",
          "name": "",
          "type": "address"
        },
        {
          "internalType": "uint256",
          "name": "",
          "type": "uint256"
        },
        {
          "internalType": "bytes",
          "name": "",
          "type": "bytes"
        }
      ],
      "name": "safeTransferFrom",
      "outputs": [],
      "stateMutability": "nonpayable",
      "type": "function"
    },
    {
      "inputs": [
        {
          "internalType": "address",
          "name": "operator",
          "type": "address"
        },
        {
          "internalType": "bool",
          "name": "approved",
          "type": "bool"
        }
      ],
      "name": "setApprovalForAll",
      "outputs": [],
      "stateMutability": "nonpayable",
      "type": "function"
    },
    {
      "inputs": [
        {
          "internalType": "bytes4",
          "name": "interfaceId",
          "type": "bytes4"
        }
      ],
      "name": "supportsInterface",
      "outputs": [
        {
          "internalType": "bool",
          "name": "",
          "type": "bool"
        }
      ],
      "stateMutability": "view",
      "type": "function"
    },
    {
      "inputs": [],
      "name": "symbol",
      "outputs": [
        {
          "internalType": "string",
          "name": "",
          "type": "string"
        }
      ],
      "stateMutability": "view",
      "type": "function"
    },
    {
      "inputs": [
        {
          "internalType": "string",
          "name": "",
          "type": "string"
        }
      ],
      "name": "takenHandles",
      "outputs": [
        {
          "internalType": "bool",
          "name": "",
          "type": "bool"
        }
      ],
      "stateMutability": "view",
      "type": "function"
    },
    {
      "inputs": [],
      "name": "talentLayerPlatformIdContract",
      "outputs": [
        {
          "internalType": "contract ITalentLayerPlatformID",
          "name": "",
          "type": "address"
        }
      ],
      "stateMutability": "view",
      "type": "function"
    },
    {
      "inputs": [
        {
          "internalType": "uint256",
          "name": "tokenId",
          "type": "uint256"
        }
      ],
      "name": "tokenURI",
      "outputs": [
        {
          "internalType": "string",
          "name": "",
          "type": "string"
        }
      ],
      "stateMutability": "view",
      "type": "function"
    },
    {
      "inputs": [],
      "name": "totalSupply",
      "outputs": [
        {
          "internalType": "uint256",
          "name": "",
          "type": "uint256"
        }
      ],
      "stateMutability": "view",
      "type": "function"
    },
    {
      "inputs": [
        {
          "internalType": "address",
          "name": "",
          "type": "address"
        },
        {
          "internalType": "address",
          "name": "",
          "type": "address"
        },
        {
          "internalType": "uint256",
          "name": "",
          "type": "uint256"
        }
      ],
      "name": "transferFrom",
      "outputs": [],
      "stateMutability": "nonpayable",
      "type": "function"
    },
    {
      "inputs": [
        {
          "internalType": "address",
          "name": "newOwner",
          "type": "address"
        }
      ],
      "name": "transferOwnership",
      "outputs": [],
      "stateMutability": "nonpayable",
      "type": "function"
    },
    {
      "inputs": [
        {
          "internalType": "uint256",
          "name": "_mintFee",
          "type": "uint256"
        }
      ],
      "name": "updateMintFee",
      "outputs": [],
      "stateMutability": "nonpayable",
      "type": "function"
    },
    {
      "inputs": [
        {
          "internalType": "uint256",
          "name": "_profileId",
          "type": "uint256"
        },
        {
          "internalType": "string",
          "name": "_newCid",
          "type": "string"
        }
      ],
      "name": "updateProfileData",
      "outputs": [],
      "stateMutability": "nonpayable",
      "type": "function"
    },
    {
      "inputs": [
        {
          "internalType": "address",
          "name": "newImplementation",
          "type": "address"
        }
      ],
      "name": "upgradeTo",
      "outputs": [],
      "stateMutability": "nonpayable",
      "type": "function"
    },
    {
      "inputs": [
        {
          "internalType": "address",
          "name": "newImplementation",
          "type": "address"
        },
        {
          "internalType": "bytes",
          "name": "data",
          "type": "bytes"
        }
      ],
      "name": "upgradeToAndCall",
      "outputs": [],
      "stateMutability": "payable",
      "type": "function"
    },
    {
      "inputs": [],
      "name": "withdraw",
      "outputs": [],
      "stateMutability": "nonpayable",
      "type": "function"
    }
  ],
  "bytecode": "0x60a0604052306080523480156200001557600080fd5b506200002062000026565b620000e8565b600054610100900460ff1615620000935760405162461bcd60e51b815260206004820152602760248201527f496e697469616c697a61626c653a20636f6e747261637420697320696e697469604482015266616c697a696e6760c81b606482015260840160405180910390fd5b60005460ff9081161015620000e6576000805460ff191660ff9081179091556040519081527f7f26b83ff96e1f2b6a682f133852f6798a09c465da95921460cefb38474024989060200160405180910390a15b565b6080516137de6200012060003960008181610c2f01528181610c6f01528181610e1901528181610e590152610eec01526137de6000f3fe6080604052600436106102465760003560e01c80635c4b034811610139578063a22cb465116100b6578063dc33e6811161007a578063dc33e681146106e5578063e985e9c514610705578063eab5d4261461074e578063f160068f14610795578063f2fde38b146107b5578063f577a500146107d557600080fd5b8063a22cb4651461063a578063b88d4fde1461065a578063c36fe3d614610675578063c4d66de8146106a5578063c87b56dd146106c557600080fd5b806377097fc8116100fd57806377097fc8146105b457806384017e52146105c757806389c1694c146105e75780638da5cb5b1461060757806395d89b411461062557600080fd5b80635c4b0348146104f75780636352211e1461053f57806370a082311461055f57806370e703dd1461057f578063715018a61461059f57600080fd5b806323b872dd116101c75780633ccfd60b1161018b5780633ccfd60b1461048157806342842e0e146103e15780634f1ef2861461049657806352d1902d146104a9578063572b6c05146104be57600080fd5b806323b872dd146103e157806326d00668146104015780632fa117e5146104215780633659cfe6146104415780633751d89c1461046157600080fd5b80631499f9e61161020e5780631499f9e61461032157806318160ddd146103425780631847c06b146103575780631cf6239b146103855780632106beec146103a557600080fd5b806301ffc9a71461024b57806306fdde0314610280578063081812fc146102a2578063095ea7b3146102da57806313966db5146102fc575b600080fd5b34801561025757600080fd5b5061026b6102663660046129e6565b6107f5565b60405190151581526020015b60405180910390f35b34801561028c57600080fd5b50610295610847565b6040516102779190612a53565b3480156102ae57600080fd5b506102c26102bd366004612a66565b6108d9565b6040516001600160a01b039091168152602001610277565b3480156102e657600080fd5b506102fa6102f5366004612a9b565b610900565b005b34801561030857600080fd5b506103136101325481565b604051908152602001610277565b34801561032d57600080fd5b5061012e546102c2906001600160a01b031681565b34801561034e57600080fd5b50610313610a2c565b34801561036357600080fd5b50610313610372366004612ac5565b6101316020526000908152604090205481565b34801561039157600080fd5b506102fa6103a0366004612ae0565b610a49565b3480156103b157600080fd5b5061026b6103c0366004612baf565b805160208183018101805161012f8252928201919093012091525460ff1681565b3480156103ed57600080fd5b506102fa6103fc366004612be4565b610b26565b34801561040d57600080fd5b506102fa61041c366004612ac5565b610b6e565b34801561042d57600080fd5b5061026b61043c366004612ae0565b610bd1565b34801561044d57600080fd5b506102fa61045c366004612ac5565b610c25565b34801561046d57600080fd5b506102fa61047c366004612ac5565b610d04565b34801561048d57600080fd5b506102fa610d5d565b6102fa6104a4366004612c20565b610e0f565b3480156104b557600080fd5b50610313610edf565b3480156104ca57600080fd5b5061026b6104d9366004612ac5565b6001600160a01b031660009081526065602052604090205460ff1690565b34801561050357600080fd5b50610313610512366004612ac5565b6001600160a01b031660009081526101316020908152604080832054835261013090915290206002015490565b34801561054b57600080fd5b506102c261055a366004612a66565b610f92565b34801561056b57600080fd5b5061031361057a366004612ac5565b610ff2565b34801561058b57600080fd5b506102fa61059a366004612ae0565b611078565b3480156105ab57600080fd5b506102fa61114a565b6103136105c2366004612cb7565b61115e565b3480156105d357600080fd5b506102fa6105e2366004612a66565b61135f565b3480156105f357600080fd5b50610313610602366004612d03565b61139d565b34801561061357600080fd5b506033546001600160a01b03166102c2565b34801561063157600080fd5b50610295611521565b34801561064657600080fd5b506102fa610655366004612d5d565b611530565b34801561066657600080fd5b506102fa6103fc366004612d99565b34801561068157600080fd5b50610695610690366004612a66565b611542565b6040516102779493929190612e01565b3480156106b157600080fd5b506102fa6106c0366004612ac5565b61167c565b3480156106d157600080fd5b506102956106e0366004612a66565b6117fe565b3480156106f157600080fd5b50610313610700366004612ac5565b611809565b34801561071157600080fd5b5061026b610720366004612e3d565b6001600160a01b039182166000908152609d6020908152604080832093909416825291909152205460ff1690565b34801561075a57600080fd5b5061026b610769366004612ae0565b6000918252610134602090815260408084206001600160a01b0393909316845291905290205460ff1690565b3480156107a157600080fd5b506102fa6107b0366004612e67565b611814565b3480156107c157600080fd5b506102fa6107d0366004612ac5565b611910565b3480156107e157600080fd5b506102fa6107f0366004612a66565b611986565b60006001600160e01b031982166380ac58cd60e01b148061082657506001600160e01b03198216635b5e139f60e01b145b8061084157506301ffc9a760e01b6001600160e01b03198316145b92915050565b60606098805461085690612e98565b80601f016020809104026020016040519081016040528092919081815260200182805461088290612e98565b80156108cf5780601f106108a4576101008083540402835291602001916108cf565b820191906000526020600020905b8154815290600101906020018083116108b257829003601f168201915b5050505050905090565b60006108e4826119f2565b506000908152609c60205260409020546001600160a01b031690565b600061090b82610f92565b9050806001600160a01b0316836001600160a01b03160361097d5760405162461bcd60e51b815260206004820152602160248201527f4552433732313a20617070726f76616c20746f2063757272656e74206f776e656044820152603960f91b60648201526084015b60405180910390fd5b806001600160a01b031661098f611a51565b6001600160a01b031614806109ab57506109ab81610720611a51565b610a1d5760405162461bcd60e51b815260206004820152603d60248201527f4552433732313a20617070726f76652063616c6c6572206973206e6f7420746f60448201527f6b656e206f776e6572206f7220617070726f76656420666f7220616c6c0000006064820152608401610974565b610a278383611a5b565b505050565b60006001610a3a6101335490565b610a449190612ee8565b905090565b610a51611a51565b6001600160a01b0316610a6383610f92565b6001600160a01b031614610ab95760405162461bcd60e51b815260206004820152601c60248201527f4f6e6c79206f776e65722063616e206164642064656c656761746573000000006044820152606401610974565b6000828152610134602090815260408083206001600160a01b03851680855290835292819020805460ff191660011790558051858152918201929092527f2d678d15460f6ef62d6d85bfaf6a46d9d0d6498a0fd6ecd92d42bc2ab018103991015b60405180910390a15050565b60405162461bcd60e51b815260206004820152601d60248201527f546f6b656e207472616e73666572206973206e6f7420616c6c6f7765640000006044820152606401610974565b610b76611ac9565b6001600160a01b038116600081815260656020908152604091829020805460ff1916600117905590519182527f3ef8564460ada92419608d823c014975d98f8104d7d1e68c222967ac6814cd9791015b60405180910390a150565b6000816001600160a01b0316610be684610f92565b6001600160a01b03161480610c1e57506000838152610134602090815260408083206001600160a01b038616845290915290205460ff165b9392505050565b6001600160a01b037f0000000000000000000000000000000000000000000000000000000000000000163003610c6d5760405162461bcd60e51b815260040161097490612efb565b7f00000000000000000000000000000000000000000000000000000000000000006001600160a01b0316610cb6600080516020613722833981519152546001600160a01b031690565b6001600160a01b031614610cdc5760405162461bcd60e51b815260040161097490612f47565b610ce581611b42565b60408051600080825260208201909252610d0191839190611b4a565b50565b610d0c611ac9565b6001600160a01b038116600081815260656020908152604091829020805460ff1916905590519182527fd2d636efcad0cea42e170256f4c5d8b1cd81e47b855557edaf44014e6cc4cee69101610bc6565b610d65611ac9565b6000610d6f611a51565b6001600160a01b03164760405160006040518083038185875af1925050503d8060008114610db9576040519150601f19603f3d011682016040523d82523d6000602084013e610dbe565b606091505b5050905080610d015760405162461bcd60e51b815260206004820152601860248201527f4661696c656420746f20776974686472617720457468657200000000000000006044820152606401610974565b6001600160a01b037f0000000000000000000000000000000000000000000000000000000000000000163003610e575760405162461bcd60e51b815260040161097490612efb565b7f00000000000000000000000000000000000000000000000000000000000000006001600160a01b0316610ea0600080516020613722833981519152546001600160a01b031690565b6001600160a01b031614610ec65760405162461bcd60e51b815260040161097490612f47565b610ecf82611b42565b610edb82826001611b4a565b5050565b6000306001600160a01b037f00000000000000000000000000000000000000000000000000000000000000001614610f7f5760405162461bcd60e51b815260206004820152603860248201527f555550535570677261646561626c653a206d757374206e6f742062652063616c60448201527f6c6564207468726f7567682064656c656761746563616c6c00000000000000006064820152608401610974565b5060008051602061372283398151915290565b6000818152609a60205260408120546001600160a01b0316806108415760405162461bcd60e51b8152602060048201526018602482015277115490cdcc8c4e881a5b9d985b1a59081d1bdad95b88125160421b6044820152606401610974565b60006001600160a01b03821661105c5760405162461bcd60e51b815260206004820152602960248201527f4552433732313a2061646472657373207a65726f206973206e6f7420612076616044820152683634b21037bbb732b960b91b6064820152608401610974565b506001600160a01b03166000908152609b602052604090205490565b611080611a51565b6001600160a01b031661109283610f92565b6001600160a01b0316146110e85760405162461bcd60e51b815260206004820152601f60248201527f4f6e6c79206f776e65722063616e2072656d6f76652064656c656761746573006044820152606401610974565b6000828152610134602090815260408083206001600160a01b03851680855290835292819020805460ff191690558051858152918201929092527f09f87139523b83583b15f476015dd9a27fae3a03f17202cdf77d063bef5d21c29101610b1a565b611152611ac9565b61115c6000611cb5565b565b6000611168611a51565b83838661117484611809565b156111c15760405162461bcd60e51b815260206004820181905260248201527f596f7520616c7265616479206861766520612054616c656e744c6179657249446044820152606401610974565b61012f83836040516111d4929190612f93565b9081526040519081900360200190205460ff161561122b5760405162461bcd60e51b81526020600482015260146024820152732430b73236329030b63932b0b23c903a30b5b2b760611b6044820152606401610974565b61012e5460405162f577a560e81b8152600481018390526001600160a01b039091169063f577a5009060240160006040518083038186803b15801561126f57600080fd5b505afa158015611283573d6000803e3d6000fd5b505050506112918383611d07565b6101325434146112ef5760405162461bcd60e51b8152602060048201526024808201527f496e636f727265637420616d6f756e74206f662045544820666f72206d696e746044820152632066656560e01b6064820152608401610974565b60006112f9611a51565b905061130e816113096101335490565b611ec3565b6113528189898080601f0160208091040260200160405190810160405280939291908181526020018383808284376000920191909152508e9250349150611edd9050565b9998505050505050505050565b611367611ac9565b6101328190556040518181527f38fbb1c8b109c430f0c030e7ed076cf5611a307773a4e8e365601e8f8bceaec690602001610bc6565b6000838383876113ac84611809565b156113f95760405162461bcd60e51b815260206004820181905260248201527f596f7520616c7265616479206861766520612054616c656e744c6179657249446044820152606401610974565b61012f838360405161140c929190612f93565b9081526040519081900360200190205460ff16156114635760405162461bcd60e51b81526020600482015260146024820152732430b73236329030b63932b0b23c903a30b5b2b760611b6044820152606401610974565b61012e5460405162f577a560e81b8152600481018390526001600160a01b039091169063f577a5009060240160006040518083038186803b1580156114a757600080fd5b505afa1580156114bb573d6000803e3d6000fd5b505050506114c98383611d07565b6114d1611ac9565b6114df886113096101335490565b6113528888888080601f01602080910402602001604051908101604052809392919081815260200183838082843760009201829052508f93509150611edd9050565b60606099805461085690612e98565b610edb61153b611a51565b8383611fb6565b610130602052600090815260409020805460018201805491929161156590612e98565b80601f016020809104026020016040519081016040528092919081815260200182805461159190612e98565b80156115de5780601f106115b3576101008083540402835291602001916115de565b820191906000526020600020905b8154815290600101906020018083116115c157829003601f168201915b5050505050908060020154908060030180546115f990612e98565b80601f016020809104026020016040519081016040528092919081815260200182805461162590612e98565b80156116725780601f1061164757610100808354040283529160200191611672565b820191906000526020600020905b81548152906001019060200180831161165557829003601f168201915b5050505050905084565b600054610100900460ff161580801561169c5750600054600160ff909116105b806116b65750303b1580156116b6575060005460ff166001145b6117195760405162461bcd60e51b815260206004820152602e60248201527f496e697469616c697a61626c653a20636f6e747261637420697320616c72656160448201526d191e481a5b9a5d1a585b1a5e995960921b6064820152608401610974565b6000805460ff19166001179055801561173c576000805461ff0019166101001790555b611744612084565b61178e6040518060400160405280600d81526020016c15185b195b9d13185e595c9251609a1b8152506040518060400160405280600381526020016215125160ea1b8152506120b3565b6117966120e4565b61012e80546001600160a01b0319166001600160a01b038416179055610133805460010190558015610edb576000805461ff0019169055604051600181527f7f26b83ff96e1f2b6a682f133852f6798a09c465da95921460cefb384740249890602001610b1a565b60606108418261210b565b600061084182610ff2565b816118218161043c611a51565b6118655760405162461bcd60e51b81526020600482015260156024820152744e6f74206f776e6572206f722064656c656761746560581b6044820152606401610974565b60008251116118b65760405162461bcd60e51b815260206004820152601f60248201527f53686f756c642070726f7669646520612076616c6964204950465320555249006044820152606401610974565b6000838152610130602052604090206003016118d28382612ff1565b50827f613807bd6768f626264e7eb664a65ca99a0d930f8fd8a5b868491a592eb57f72836040516119039190612a53565b60405180910390a2505050565b611918611ac9565b6001600160a01b03811661197d5760405162461bcd60e51b815260206004820152602660248201527f4f776e61626c653a206e6577206f776e657220697320746865207a65726f206160448201526564647265737360d01b6064820152608401610974565b610d0181611cb5565b60008111801561199857506101335481105b610d015760405162461bcd60e51b815260206004820152602560248201527f596f7572204944206973206e6f7420612076616c69642054616c656e744c6179604482015264195c88125160da1b6064820152608401610974565b6000818152609a60205260409020546001600160a01b0316610d015760405162461bcd60e51b8152602060048201526018602482015277115490cdcc8c4e881a5b9d985b1a59081d1bdad95b88125160421b6044820152606401610974565b6000610a44612236565b6000818152609c6020526040902080546001600160a01b0319166001600160a01b0384169081179091558190611a9082610f92565b6001600160a01b03167f8c5be1e5ebec7d5bd14f71427d1e84f3dd0314c0f7b2291e5b200ac8c7c3b92560405160405180910390a45050565b611ad1611a51565b6001600160a01b0316611aec6033546001600160a01b031690565b6001600160a01b03161461115c5760405162461bcd60e51b815260206004820181905260248201527f4f776e61626c653a2063616c6c6572206973206e6f7420746865206f776e65726044820152606401610974565b610d01611ac9565b7f4910fdfa16fed3260ed0e7147f7cc6da11a60208b5b9406d12a635614ffd91435460ff1615611b7d57610a278361226f565b826001600160a01b03166352d1902d6040518163ffffffff1660e01b8152600401602060405180830381865afa925050508015611bd7575060408051601f3d908101601f19168201909252611bd4918101906130b1565b60015b611c3a5760405162461bcd60e51b815260206004820152602e60248201527f45524331393637557067726164653a206e657720696d706c656d656e7461746960448201526d6f6e206973206e6f74205555505360901b6064820152608401610974565b6000805160206137228339815191528114611ca95760405162461bcd60e51b815260206004820152602960248201527f45524331393637557067726164653a20756e737570706f727465642070726f786044820152681a58589b195555525160ba1b6064820152608401610974565b50610a2783838361230b565b603380546001600160a01b038381166001600160a01b0319831681179093556040519116919082907f8be0079c531659141344cd1fd0a4f28419497f9722a3daafe3b4186f6b6457e090600090a35050565b600082828080601f016020809104026020016040519081016040528093929190818152602001838380828437600092019190915250508251929350508115905080611d525750601f81115b15611d7057604051633eb64ab360e01b815260040160405180910390fd5b60005b81811015611ebc57600360fc1b838281518110611d9257611d926130ca565b01602001516001600160f81b0319161080611dd05750603d60f91b838281518110611dbf57611dbf6130ca565b01602001516001600160f81b031916115b80611e2c5750603960f81b838281518110611ded57611ded6130ca565b01602001516001600160f81b031916118015611e2c5750606160f81b838281518110611e1b57611e1b6130ca565b01602001516001600160f81b031916105b8015611e5d5750828181518110611e4557611e456130ca565b6020910101516001600160f81b031916602d60f81b14155b8015611e8e5750828181518110611e7657611e766130ca565b6020910101516001600160f81b031916605f60f81b14155b15611eac57604051630bb7f19b60e21b815260040160405180910390fd5b611eb5816130e0565b9050611d73565b5050505050565b610edb828260405180602001604052806000815250612336565b600080611eea6101335490565b9050611efb61013380546001019055565b6000818152610130602052604090206002810185905560018101611f1f8782612ff1565b50600161012f87604051611f339190613115565b9081526040805160209281900383018120805460ff1916941515949094179093556001600160a01b038a1660008181526101319093529120849055907f8475f1ba3b06c1e11c870cbbf9753ca9a8292ea0b203262f682de476dc268f8c90611fa29085908a908a908a90613131565b60405180910390a25090505b949350505050565b816001600160a01b0316836001600160a01b0316036120175760405162461bcd60e51b815260206004820152601960248201527f4552433732313a20617070726f766520746f2063616c6c6572000000000000006044820152606401610974565b6001600160a01b038381166000818152609d6020908152604080832094871680845294825291829020805460ff191686151590811790915591519182527f17307eab39ab6107e8899845ad3d59bd9653f200f220920489ca2b5937696c31910160405180910390a3505050565b600054610100900460ff166120ab5760405162461bcd60e51b81526004016109749061315d565b61115c612369565b600054610100900460ff166120da5760405162461bcd60e51b81526004016109749061315d565b610edb82826123a0565b600054610100900460ff1661115c5760405162461bcd60e51b81526004016109749061315d565b6000818152610130602052604081206001018054606092919061212d90612e98565b80601f016020809104026020016040519081016040528092919081815260200182805461215990612e98565b80156121a65780601f1061217b576101008083540402835291602001916121a6565b820191906000526020600020905b81548152906001019060200180831161218957829003601f168201915b5050505050905060006121d7826040516020016121c391906131a8565b6040516020818303038152906040526123e0565b6040516020016121e7919061350c565b604051602081830303815290604052905061220e82826040516020016121c3929190613551565b60405160200161221e91906135e4565b60405160208183030381529060405292505050919050565b60006014361080159061225857503360009081526065602052604090205460ff165b1561226a575060131936013560601c90565b503390565b6001600160a01b0381163b6122dc5760405162461bcd60e51b815260206004820152602d60248201527f455243313936373a206e657720696d706c656d656e746174696f6e206973206e60448201526c1bdd08184818dbdb9d1c9858dd609a1b6064820152608401610974565b60008051602061372283398151915280546001600160a01b0319166001600160a01b0392909216919091179055565b61231483612533565b6000825111806123215750805b15610a27576123308383612573565b50505050565b6123408383612667565b61234d6000848484612800565b610a275760405162461bcd60e51b815260040161097490613629565b600054610100900460ff166123905760405162461bcd60e51b81526004016109749061315d565b61115c61239b611a51565b611cb5565b600054610100900460ff166123c75760405162461bcd60e51b81526004016109749061315d565b60986123d38382612ff1565b506099610a278282612ff1565b606081516000036123ff57505060408051602081019091526000815290565b6000604051806060016040528060408152602001613742604091399050600060038451600261242e919061367b565b612438919061368e565b6124439060046136b0565b67ffffffffffffffff81111561245b5761245b612b0c565b6040519080825280601f01601f191660200182016040528015612485576020820181803683370190505b509050600182016020820185865187015b808210156124f1576003820191508151603f8160121c168501518453600184019350603f81600c1c168501518453600184019350603f8160061c168501518453600184019350603f8116850151845350600183019250612496565b505060038651066001811461250d576002811461252057612528565b603d6001830353603d6002830353612528565b603d60018303535b509195945050505050565b61253c8161226f565b6040516001600160a01b038216907fbc7cd75a20ee27fd9adebab32041f755214dbc6bffa90cc0225b39da2e5c2d3b90600090a250565b60606001600160a01b0383163b6125db5760405162461bcd60e51b815260206004820152602660248201527f416464726573733a2064656c65676174652063616c6c20746f206e6f6e2d636f6044820152651b9d1c9858dd60d21b6064820152608401610974565b600080846001600160a01b0316846040516125f69190613115565b600060405180830381855af49150503d8060008114612631576040519150601f19603f3d011682016040523d82523d6000602084013e612636565b606091505b509150915061265e828260405180606001604052806027815260200161378260279139612905565b95945050505050565b6001600160a01b0382166126bd5760405162461bcd60e51b815260206004820181905260248201527f4552433732313a206d696e7420746f20746865207a65726f20616464726573736044820152606401610974565b6000818152609a60205260409020546001600160a01b0316156127225760405162461bcd60e51b815260206004820152601c60248201527f4552433732313a20746f6b656e20616c7265616479206d696e746564000000006044820152606401610974565b61273060008383600161291e565b6000818152609a60205260409020546001600160a01b0316156127955760405162461bcd60e51b815260206004820152601c60248201527f4552433732313a20746f6b656e20616c7265616479206d696e746564000000006044820152606401610974565b6001600160a01b0382166000818152609b6020908152604080832080546001019055848352609a90915280822080546001600160a01b0319168417905551839291907fddf252ad1be2c89b69c2b068fc378daa952ba7f163c4a11628f55a4df523b3ef908290a45050565b60006001600160a01b0384163b156128fd57836001600160a01b031663150b7a02612829611a51565b8786866040518563ffffffff1660e01b815260040161284b94939291906136c7565b6020604051808303816000875af1925050508015612886575060408051601f3d908101601f1916820190925261288391810190613704565b60015b6128e3573d8080156128b4576040519150601f19603f3d011682016040523d82523d6000602084013e6128b9565b606091505b5080516000036128db5760405162461bcd60e51b815260040161097490613629565b805181602001fd5b6001600160e01b031916630a85bd0160e11b149050611fae565b506001611fae565b60608315612914575081610c1e565b610c1e83836129a6565b6001811115612330576001600160a01b03841615612964576001600160a01b0384166000908152609b60205260408120805483929061295e908490612ee8565b90915550505b6001600160a01b03831615612330576001600160a01b0383166000908152609b60205260408120805483929061299b90849061367b565b909155505050505050565b8151156129b65781518083602001fd5b8060405162461bcd60e51b81526004016109749190612a53565b6001600160e01b031981168114610d0157600080fd5b6000602082840312156129f857600080fd5b8135610c1e816129d0565b60005b83811015612a1e578181015183820152602001612a06565b50506000910152565b60008151808452612a3f816020860160208601612a03565b601f01601f19169290920160200192915050565b602081526000610c1e6020830184612a27565b600060208284031215612a7857600080fd5b5035919050565b80356001600160a01b0381168114612a9657600080fd5b919050565b60008060408385031215612aae57600080fd5b612ab783612a7f565b946020939093013593505050565b600060208284031215612ad757600080fd5b610c1e82612a7f565b60008060408385031215612af357600080fd5b82359150612b0360208401612a7f565b90509250929050565b634e487b7160e01b600052604160045260246000fd5b600082601f830112612b3357600080fd5b813567ffffffffffffffff80821115612b4e57612b4e612b0c565b604051601f8301601f19908116603f01168101908282118183101715612b7657612b76612b0c565b81604052838152866020858801011115612b8f57600080fd5b836020870160208301376000602085830101528094505050505092915050565b600060208284031215612bc157600080fd5b813567ffffffffffffffff811115612bd857600080fd5b611fae84828501612b22565b600080600060608486031215612bf957600080fd5b612c0284612a7f565b9250612c1060208501612a7f565b9150604084013590509250925092565b60008060408385031215612c3357600080fd5b612c3c83612a7f565b9150602083013567ffffffffffffffff811115612c5857600080fd5b612c6485828601612b22565b9150509250929050565b60008083601f840112612c8057600080fd5b50813567ffffffffffffffff811115612c9857600080fd5b602083019150836020828501011115612cb057600080fd5b9250929050565b600080600060408486031215612ccc57600080fd5b83359250602084013567ffffffffffffffff811115612cea57600080fd5b612cf686828701612c6e565b9497909650939450505050565b60008060008060608587031215612d1957600080fd5b84359350612d2960208601612a7f565b9250604085013567ffffffffffffffff811115612d4557600080fd5b612d5187828801612c6e565b95989497509550505050565b60008060408385031215612d7057600080fd5b612d7983612a7f565b915060208301358015158114612d8e57600080fd5b809150509250929050565b60008060008060808587031215612daf57600080fd5b612db885612a7f565b9350612dc660208601612a7f565b925060408501359150606085013567ffffffffffffffff811115612de957600080fd5b612df587828801612b22565b91505092959194509250565b848152608060208201526000612e1a6080830186612a27565b8460408401528281036060840152612e328185612a27565b979650505050505050565b60008060408385031215612e5057600080fd5b612e5983612a7f565b9150612b0360208401612a7f565b60008060408385031215612e7a57600080fd5b82359150602083013567ffffffffffffffff811115612c5857600080fd5b600181811c90821680612eac57607f821691505b602082108103612ecc57634e487b7160e01b600052602260045260246000fd5b50919050565b634e487b7160e01b600052601160045260246000fd5b8181038181111561084157610841612ed2565b6020808252602c908201527f46756e6374696f6e206d7573742062652063616c6c6564207468726f7567682060408201526b19195b1959d85d1958d85b1b60a21b606082015260800190565b6020808252602c908201527f46756e6374696f6e206d7573742062652063616c6c6564207468726f7567682060408201526b6163746976652070726f787960a01b606082015260800190565b8183823760009101908152919050565b601f821115610a2757600081815260208120601f850160051c81016020861015612fca5750805b601f850160051c820191505b81811015612fe957828155600101612fd6565b505050505050565b815167ffffffffffffffff81111561300b5761300b612b0c565b61301f816130198454612e98565b84612fa3565b602080601f831160018114613054576000841561303c5750858301515b600019600386901b1c1916600185901b178555612fe9565b600085815260208120601f198616915b8281101561308357888601518255948401946001909101908401613064565b50858210156130a15787850151600019600388901b60f8161c191681555b5050505050600190811b01905550565b6000602082840312156130c357600080fd5b5051919050565b634e487b7160e01b600052603260045260246000fd5b6000600182016130f2576130f2612ed2565b5060010190565b6000815161310b818560208601612a03565b9290920192915050565b60008251613127818460208701612a03565b9190910192915050565b84815260806020820152600061314a6080830186612a27565b6040830194909452506060015292915050565b6020808252602b908201527f496e697469616c697a61626c653a20636f6e7472616374206973206e6f74206960408201526a6e697469616c697a696e6760a81b606082015260800190565b7f3c73766720786d6c6e733d22687474703a2f2f7777772e77332e6f72672f323081527f30302f737667222077696474683d2237323022206865696768743d223732302260208201527f3e3c726563742077696474683d223130302522206865696768743d223130302560408201527f222f3e3c73766720786d6c6e733d22687474703a2f2f7777772e77332e6f726760608201527f2f323030302f737667222077696474683d2231353022206865696768743d223160808201527f3530222076657273696f6e3d22312e32222076696577426f783d222d3230302060a08201527f2d353020313030302031303030223e3c706174682066696c6c3d22234646464660c08201527f46462220643d224d3236342e35203139302e3563302d31332e382031312e322d60e08201527f32352032352d3235483536386331332e3820302032352031312e3220323520326101008201527f357634393063302031332e382d31312e322032352d3235203235483238392e356101208201527f632d31332e3820302d32352d31312e322d32352d32357a222f3e3c70617468206101408201527f66696c6c3d22234646464646462220643d224d3236352036323463302d31332e6101608201527f382031312e322d32352032352d3235683534336331332e3820302032352031316101808201527f2e322032352032357635362e3563302031332e382d31312e322032352d3235206101a08201527f323548323930632d31332e3820302d32352d31312e322d32352d32357a222f3e6101c08201527f3c706174682066696c6c3d22234646464646462220643d224d30203139302e356101e08201527f63302d31332e382031312e322d32352032352d3235683534336331332e3820306102008201527f2032352031312e322032352032355632343763302031332e382d31312e3220326102208201527f352d3235203235483235632d31332e3820302d32352d31312e322d32352d32356102408201527f7a222f3e3c2f7376673e3c7465787420783d2233302220793d223637302220736102608201527f74796c653d22666f6e743a363070782073616e732d73657269663b66696c6c3a6102808201526511b33333111f60d11b6102a08201526000610c1e6134f36102a68401856130f9565b6c1e17ba32bc3a1f1e17b9bb339f60991b8152600d0190565b7f646174613a696d6167652f7376672b786d6c3b6261736536342c00000000000081526000825161354481601a850160208701612a03565b91909101601a0192915050565b683d913730b6b2911d1160b91b81528251600090613576816009850160208801612a03565b6b1116101134b6b0b3b2911d1160a11b60099184019182015283516135a2816015840160208801612a03565b7f222c20226465736372697074696f6e223a202254616c656e744c617965722049601592909101918201526244227d60e81b6035820152603801949350505050565b7f646174613a6170706c69636174696f6e2f6a736f6e3b6261736536342c00000081526000825161361c81601d850160208701612a03565b91909101601d0192915050565b60208082526032908201527f4552433732313a207472616e7366657220746f206e6f6e20455243373231526560408201527131b2b4bb32b91034b6b83632b6b2b73a32b960711b606082015260800190565b8082018082111561084157610841612ed2565b6000826136ab57634e487b7160e01b600052601260045260246000fd5b500490565b808202811582820484141761084157610841612ed2565b6001600160a01b03858116825284166020820152604081018390526080606082018190526000906136fa90830184612a27565b9695505050505050565b60006020828403121561371657600080fd5b8151610c1e816129d056fe360894a13ba1a3210667c828492db98dca3e2076cc3735a920a3ca505d382bbc4142434445464748494a4b4c4d4e4f505152535455565758595a6162636465666768696a6b6c6d6e6f707172737475767778797a303132333435363738392b2f416464726573733a206c6f772d6c6576656c2064656c65676174652063616c6c206661696c6564a2646970667358221220dafa702a5ea4db3f948d540c7de6408a204a8ec6a40a4c649da631d9dd0a0f6364736f6c63430008110033",
  "linkReferences": {},
  "deployedLinkReferences": {}
}