{
  "_format": "hh-sol-artifact-1",
  "contractName": "TalentLayerPlatformID",
  "sourceName": "contracts/TalentLayerPlatformID.sol",
  "abi": [
    {
      "inputs": [],
      "stateMutability": "nonpayable",
      "type": "constructor"
    },
    {
      "anonymous": false,
      "inputs": [
        {
          "indexed": false,
          "internalType": "address",
          "name": "previousAdmin",
          "type": "address"
        },
        {
          "indexed": false,
          "internalType": "address",
          "name": "newAdmin",
          "type": "address"
        }
      ],
      "name": "AdminChanged",
      "type": "event"
    },
    {
      "anonymous": false,
      "inputs": [
        {
          "indexed": true,
          "internalType": "address",
          "name": "owner",
          "type": "address"
        },
        {
          "indexed": true,
          "internalType": "address",
          "name": "approved",
          "type": "address"
        },
        {
          "indexed": true,
          "internalType": "uint256",
          "name": "tokenId",
          "type": "uint256"
        }
      ],
      "name": "Approval",
      "type": "event"
    },
    {
      "anonymous": false,
      "inputs": [
        {
          "indexed": true,
          "internalType": "address",
          "name": "owner",
          "type": "address"
        },
        {
          "indexed": true,
          "internalType": "address",
          "name": "operator",
          "type": "address"
        },
        {
          "indexed": false,
          "internalType": "bool",
          "name": "approved",
          "type": "bool"
        }
      ],
      "name": "ApprovalForAll",
      "type": "event"
    },
    {
      "anonymous": false,
      "inputs": [
        {
          "indexed": false,
          "internalType": "uint256",
          "name": "_platformId",
          "type": "uint256"
        },
        {
          "indexed": false,
          "internalType": "uint256",
          "name": "_arbitrationFeeTimeout",
          "type": "uint256"
        }
      ],
      "name": "ArbitrationFeeTimeoutUpdated",
      "type": "event"
    },
    {
      "anonymous": false,
      "inputs": [
        {
          "indexed": false,
          "internalType": "uint256",
          "name": "_platformId",
          "type": "uint256"
        },
        {
          "indexed": false,
          "internalType": "contract Arbitrator",
          "name": "_arbitrator",
          "type": "address"
        },
        {
          "indexed": false,
          "internalType": "bytes",
          "name": "_extraData",
          "type": "bytes"
        }
      ],
      "name": "ArbitratorUpdated",
      "type": "event"
    },
    {
      "anonymous": false,
      "inputs": [
        {
          "indexed": true,
          "internalType": "address",
          "name": "beacon",
          "type": "address"
        }
      ],
      "name": "BeaconUpgraded",
      "type": "event"
    },
    {
      "anonymous": false,
      "inputs": [
        {
          "indexed": true,
          "internalType": "uint256",
          "name": "_tokenId",
          "type": "uint256"
        },
        {
          "indexed": false,
          "internalType": "string",
          "name": "_newCid",
          "type": "string"
        }
      ],
      "name": "CidUpdated",
      "type": "event"
    },
    {
      "anonymous": false,
      "inputs": [
        {
          "indexed": false,
          "internalType": "uint8",
          "name": "version",
          "type": "uint8"
        }
      ],
      "name": "Initialized",
      "type": "event"
    },
    {
      "anonymous": false,
      "inputs": [
        {
          "indexed": false,
          "internalType": "uint256",
          "name": "_minArbitrationFeeTimeout",
          "type": "uint256"
        }
      ],
      "name": "MinArbitrationFeeTimeoutUpdated",
      "type": "event"
    },
    {
      "anonymous": false,
      "inputs": [
        {
          "indexed": true,
          "internalType": "address",
          "name": "_platformOwnerAddress",
          "type": "address"
        },
        {
          "indexed": false,
          "internalType": "uint256",
          "name": "_tokenId",
          "type": "uint256"
        },
        {
          "indexed": false,
          "internalType": "string",
          "name": "_platformName",
          "type": "string"
        },
        {
          "indexed": false,
          "internalType": "uint256",
          "name": "_fee",
          "type": "uint256"
        },
        {
          "indexed": false,
          "internalType": "uint256",
          "name": "_arbitrationFeeTimeout",
          "type": "uint256"
        }
      ],
      "name": "Mint",
      "type": "event"
    },
    {
      "anonymous": false,
      "inputs": [
        {
          "indexed": false,
          "internalType": "uint256",
          "name": "_mintFee",
          "type": "uint256"
        }
      ],
      "name": "MintFeeUpdated",
      "type": "event"
    },
    {
      "anonymous": false,
      "inputs": [
        {
          "indexed": false,
          "internalType": "uint256",
          "name": "_platformId",
          "type": "uint256"
        },
        {
          "indexed": false,
          "internalType": "uint16",
          "name": "_originServiceFeeRate",
          "type": "uint16"
        }
      ],
      "name": "OriginServiceFeeRateUpdated",
      "type": "event"
    },
    {
      "anonymous": false,
      "inputs": [
        {
          "indexed": false,
          "internalType": "uint256",
          "name": "_platformId",
          "type": "uint256"
        },
        {
          "indexed": false,
          "internalType": "uint16",
          "name": "_originValidatedProposalFeeRate",
          "type": "uint16"
        }
      ],
      "name": "OriginValidatedProposalFeeRateUpdated",
      "type": "event"
    },
    {
      "anonymous": false,
      "inputs": [
        {
          "indexed": true,
          "internalType": "bytes32",
          "name": "role",
          "type": "bytes32"
        },
        {
          "indexed": true,
          "internalType": "bytes32",
          "name": "previousAdminRole",
          "type": "bytes32"
        },
        {
          "indexed": true,
          "internalType": "bytes32",
          "name": "newAdminRole",
          "type": "bytes32"
        }
      ],
      "name": "RoleAdminChanged",
      "type": "event"
    },
    {
      "anonymous": false,
      "inputs": [
        {
          "indexed": true,
          "internalType": "bytes32",
          "name": "role",
          "type": "bytes32"
        },
        {
          "indexed": true,
          "internalType": "address",
          "name": "account",
          "type": "address"
        },
        {
          "indexed": true,
          "internalType": "address",
          "name": "sender",
          "type": "address"
        }
      ],
      "name": "RoleGranted",
      "type": "event"
    },
    {
      "anonymous": false,
      "inputs": [
        {
          "indexed": true,
          "internalType": "bytes32",
          "name": "role",
          "type": "bytes32"
        },
        {
          "indexed": true,
          "internalType": "address",
          "name": "account",
          "type": "address"
        },
        {
          "indexed": true,
          "internalType": "address",
          "name": "sender",
          "type": "address"
        }
      ],
      "name": "RoleRevoked",
      "type": "event"
    },
    {
      "anonymous": false,
      "inputs": [
        {
          "indexed": true,
          "internalType": "address",
          "name": "from",
          "type": "address"
        },
        {
          "indexed": true,
          "internalType": "address",
          "name": "to",
          "type": "address"
        },
        {
          "indexed": true,
          "internalType": "uint256",
          "name": "tokenId",
          "type": "uint256"
        }
      ],
      "name": "Transfer",
      "type": "event"
    },
    {
      "anonymous": false,
      "inputs": [
        {
          "indexed": true,
          "internalType": "address",
          "name": "implementation",
          "type": "address"
        }
      ],
      "name": "Upgraded",
      "type": "event"
    },
    {
      "inputs": [],
      "name": "DEFAULT_ADMIN_ROLE",
      "outputs": [
        {
          "internalType": "bytes32",
          "name": "",
          "type": "bytes32"
        }
      ],
      "stateMutability": "view",
      "type": "function"
    },
    {
      "inputs": [],
      "name": "MINT_ROLE",
      "outputs": [
        {
          "internalType": "bytes32",
          "name": "",
          "type": "bytes32"
        }
      ],
      "stateMutability": "view",
      "type": "function"
    },
    {
      "inputs": [],
      "name": "OWNER_ROLE",
      "outputs": [
        {
          "internalType": "bytes32",
          "name": "",
          "type": "bytes32"
        }
      ],
      "stateMutability": "view",
      "type": "function"
    },
    {
      "inputs": [
        {
          "internalType": "address",
          "name": "_arbitrator",
          "type": "address"
        },
        {
          "internalType": "bool",
          "name": "_isInternal",
          "type": "bool"
        }
      ],
      "name": "addArbitrator",
      "outputs": [],
      "stateMutability": "nonpayable",
      "type": "function"
    },
    {
      "inputs": [
        {
          "internalType": "address",
          "name": "to",
          "type": "address"
        },
        {
          "internalType": "uint256",
          "name": "tokenId",
          "type": "uint256"
        }
      ],
      "name": "approve",
      "outputs": [],
      "stateMutability": "nonpayable",
      "type": "function"
    },
    {
      "inputs": [
        {
          "internalType": "address",
          "name": "owner",
          "type": "address"
        }
      ],
      "name": "balanceOf",
      "outputs": [
        {
          "internalType": "uint256",
          "name": "",
          "type": "uint256"
        }
      ],
      "stateMutability": "view",
      "type": "function"
    },
    {
      "inputs": [
        {
          "internalType": "uint256",
          "name": "tokenId",
          "type": "uint256"
        }
      ],
      "name": "getApproved",
      "outputs": [
        {
          "internalType": "address",
          "name": "",
          "type": "address"
        }
      ],
      "stateMutability": "view",
      "type": "function"
    },
    {
      "inputs": [
        {
          "internalType": "uint256",
          "name": "_platformId",
          "type": "uint256"
        }
      ],
      "name": "getOriginServiceFeeRate",
      "outputs": [
        {
          "internalType": "uint16",
          "name": "",
          "type": "uint16"
        }
      ],
      "stateMutability": "view",
      "type": "function"
    },
    {
      "inputs": [
        {
          "internalType": "uint256",
          "name": "_platformId",
          "type": "uint256"
        }
      ],
      "name": "getOriginValidatedProposalFeeRate",
      "outputs": [
        {
          "internalType": "uint16",
          "name": "",
          "type": "uint16"
        }
      ],
      "stateMutability": "view",
      "type": "function"
    },
    {
      "inputs": [
        {
          "internalType": "uint256",
          "name": "_platformId",
          "type": "uint256"
        }
      ],
      "name": "getPlatform",
      "outputs": [
        {
          "components": [
            {
              "internalType": "uint256",
              "name": "id",
              "type": "uint256"
            },
            {
              "internalType": "string",
              "name": "name",
              "type": "string"
            },
            {
              "internalType": "string",
              "name": "dataUri",
              "type": "string"
            },
            {
              "internalType": "uint16",
              "name": "originServiceFeeRate",
              "type": "uint16"
            },
            {
              "internalType": "uint16",
              "name": "originValidatedProposalFeeRate",
              "type": "uint16"
            },
            {
              "internalType": "contract Arbitrator",
              "name": "arbitrator",
              "type": "address"
            },
            {
              "internalType": "bytes",
              "name": "arbitratorExtraData",
              "type": "bytes"
            },
            {
              "internalType": "uint256",
              "name": "arbitrationFeeTimeout",
              "type": "uint256"
            }
          ],
          "internalType": "struct TalentLayerPlatformID.Platform",
          "name": "",
          "type": "tuple"
        }
      ],
      "stateMutability": "view",
      "type": "function"
    },
    {
      "inputs": [
        {
          "internalType": "address",
          "name": "_owner",
          "type": "address"
        }
      ],
      "name": "getPlatformIdFromAddress",
      "outputs": [
        {
          "internalType": "uint256",
          "name": "",
          "type": "uint256"
        }
      ],
      "stateMutability": "view",
      "type": "function"
    },
    {
      "inputs": [
        {
          "internalType": "bytes32",
          "name": "role",
          "type": "bytes32"
        }
      ],
      "name": "getRoleAdmin",
      "outputs": [
        {
          "internalType": "bytes32",
          "name": "",
          "type": "bytes32"
        }
      ],
      "stateMutability": "view",
      "type": "function"
    },
    {
      "inputs": [
        {
          "internalType": "bytes32",
          "name": "role",
          "type": "bytes32"
        },
        {
          "internalType": "address",
          "name": "account",
          "type": "address"
        }
      ],
      "name": "grantRole",
      "outputs": [],
      "stateMutability": "nonpayable",
      "type": "function"
    },
    {
      "inputs": [
        {
          "internalType": "bytes32",
          "name": "role",
          "type": "bytes32"
        },
        {
          "internalType": "address",
          "name": "account",
          "type": "address"
        }
      ],
      "name": "hasRole",
      "outputs": [
        {
          "internalType": "bool",
          "name": "",
          "type": "bool"
        }
      ],
      "stateMutability": "view",
      "type": "function"
    },
    {
      "inputs": [],
      "name": "initialize",
      "outputs": [],
      "stateMutability": "nonpayable",
      "type": "function"
    },
    {
      "inputs": [
        {
          "internalType": "address",
          "name": "",
          "type": "address"
        }
      ],
      "name": "internalArbitrators",
      "outputs": [
        {
          "internalType": "bool",
          "name": "",
          "type": "bool"
        }
      ],
      "stateMutability": "view",
      "type": "function"
    },
    {
      "inputs": [
        {
          "internalType": "address",
          "name": "owner",
          "type": "address"
        },
        {
          "internalType": "address",
          "name": "operator",
          "type": "address"
        }
      ],
      "name": "isApprovedForAll",
      "outputs": [
        {
          "internalType": "bool",
          "name": "",
          "type": "bool"
        }
      ],
      "stateMutability": "view",
      "type": "function"
    },
    {
      "inputs": [
        {
          "internalType": "uint256",
          "name": "_platformId",
          "type": "uint256"
        }
      ],
      "name": "isValid",
      "outputs": [],
      "stateMutability": "view",
      "type": "function"
    },
    {
      "inputs": [],
      "name": "minArbitrationFeeTimeout",
      "outputs": [
        {
          "internalType": "uint256",
          "name": "",
          "type": "uint256"
        }
      ],
      "stateMutability": "view",
      "type": "function"
    },
    {
      "inputs": [
        {
          "internalType": "string",
          "name": "_platformName",
          "type": "string"
        }
      ],
      "name": "mint",
      "outputs": [],
      "stateMutability": "payable",
      "type": "function"
    },
    {
      "inputs": [],
      "name": "mintFee",
      "outputs": [
        {
          "internalType": "uint256",
          "name": "",
          "type": "uint256"
        }
      ],
      "stateMutability": "view",
      "type": "function"
    },
    {
      "inputs": [
        {
          "internalType": "string",
          "name": "_platformName",
          "type": "string"
        },
        {
          "internalType": "address",
          "name": "_platformAddress",
          "type": "address"
        }
      ],
      "name": "mintForAddress",
      "outputs": [],
      "stateMutability": "payable",
      "type": "function"
    },
    {
      "inputs": [],
      "name": "name",
      "outputs": [
        {
          "internalType": "string",
          "name": "",
          "type": "string"
        }
      ],
      "stateMutability": "view",
      "type": "function"
    },
    {
      "inputs": [
        {
          "internalType": "address",
          "name": "_platformAddress",
          "type": "address"
        }
      ],
      "name": "numberMinted",
      "outputs": [
        {
          "internalType": "uint256",
          "name": "",
          "type": "uint256"
        }
      ],
      "stateMutability": "view",
      "type": "function"
    },
    {
      "inputs": [
        {
          "internalType": "uint256",
          "name": "tokenId",
          "type": "uint256"
        }
      ],
      "name": "ownerOf",
      "outputs": [
        {
          "internalType": "address",
          "name": "",
          "type": "address"
        }
      ],
      "stateMutability": "view",
      "type": "function"
    },
    {
      "inputs": [
        {
          "internalType": "uint256",
          "name": "",
          "type": "uint256"
        }
      ],
      "name": "platforms",
      "outputs": [
        {
          "internalType": "uint256",
          "name": "id",
          "type": "uint256"
        },
        {
          "internalType": "string",
          "name": "name",
          "type": "string"
        },
        {
          "internalType": "string",
          "name": "dataUri",
          "type": "string"
        },
        {
          "internalType": "uint16",
          "name": "originServiceFeeRate",
          "type": "uint16"
        },
        {
          "internalType": "uint16",
          "name": "originValidatedProposalFeeRate",
          "type": "uint16"
        },
        {
          "internalType": "contract Arbitrator",
          "name": "arbitrator",
          "type": "address"
        },
        {
          "internalType": "bytes",
          "name": "arbitratorExtraData",
          "type": "bytes"
        },
        {
          "internalType": "uint256",
          "name": "arbitrationFeeTimeout",
          "type": "uint256"
        }
      ],
      "stateMutability": "view",
      "type": "function"
    },
    {
      "inputs": [],
      "name": "proxiableUUID",
      "outputs": [
        {
          "internalType": "bytes32",
          "name": "",
          "type": "bytes32"
        }
      ],
      "stateMutability": "view",
      "type": "function"
    },
    {
      "inputs": [
        {
          "internalType": "address",
          "name": "_arbitrator",
          "type": "address"
        }
      ],
      "name": "removeArbitrator",
      "outputs": [],
      "stateMutability": "nonpayable",
      "type": "function"
    },
    {
      "inputs": [
        {
          "internalType": "bytes32",
          "name": "role",
          "type": "bytes32"
        },
        {
          "internalType": "address",
          "name": "account",
          "type": "address"
        }
      ],
      "name": "renounceRole",
      "outputs": [],
      "stateMutability": "nonpayable",
      "type": "function"
    },
    {
      "inputs": [
        {
          "internalType": "bytes32",
          "name": "role",
          "type": "bytes32"
        },
        {
          "internalType": "address",
          "name": "account",
          "type": "address"
        }
      ],
      "name": "revokeRole",
      "outputs": [],
      "stateMutability": "nonpayable",
      "type": "function"
    },
    {
      "inputs": [
        {
          "internalType": "address",
          "name": "from",
          "type": "address"
        },
        {
          "internalType": "address",
          "name": "to",
          "type": "address"
        },
        {
          "internalType": "uint256",
          "name": "tokenId",
          "type": "uint256"
        }
      ],
      "name": "safeTransferFrom",
      "outputs": [],
      "stateMutability": "nonpayable",
      "type": "function"
    },
    {
      "inputs": [
        {
          "internalType": "address",
          "name": "from",
          "type": "address"
        },
        {
          "internalType": "address",
          "name": "to",
          "type": "address"
        },
        {
          "internalType": "uint256",
          "name": "tokenId",
          "type": "uint256"
        },
        {
          "internalType": "bytes",
          "name": "data",
          "type": "bytes"
        }
      ],
      "name": "safeTransferFrom",
      "outputs": [],
      "stateMutability": "nonpayable",
      "type": "function"
    },
    {
      "inputs": [
        {
          "internalType": "address",
          "name": "operator",
          "type": "address"
        },
        {
          "internalType": "bool",
          "name": "approved",
          "type": "bool"
        }
      ],
      "name": "setApprovalForAll",
      "outputs": [],
      "stateMutability": "nonpayable",
      "type": "function"
    },
    {
      "inputs": [
        {
          "internalType": "bytes4",
          "name": "interfaceId",
          "type": "bytes4"
        }
      ],
      "name": "supportsInterface",
      "outputs": [
        {
          "internalType": "bool",
          "name": "",
          "type": "bool"
        }
      ],
      "stateMutability": "view",
      "type": "function"
    },
    {
      "inputs": [],
      "name": "symbol",
      "outputs": [
        {
          "internalType": "string",
          "name": "",
          "type": "string"
        }
      ],
      "stateMutability": "view",
      "type": "function"
    },
    {
      "inputs": [
        {
          "internalType": "string",
          "name": "",
          "type": "string"
        }
      ],
      "name": "takenNames",
      "outputs": [
        {
          "internalType": "bool",
          "name": "",
          "type": "bool"
        }
      ],
      "stateMutability": "view",
      "type": "function"
    },
    {
      "inputs": [
        {
          "internalType": "uint256",
          "name": "tokenId",
          "type": "uint256"
        }
      ],
      "name": "tokenURI",
      "outputs": [
        {
          "internalType": "string",
          "name": "",
          "type": "string"
        }
      ],
      "stateMutability": "view",
      "type": "function"
    },
    {
      "inputs": [],
      "name": "totalSupply",
      "outputs": [
        {
          "internalType": "uint256",
          "name": "",
          "type": "uint256"
        }
      ],
      "stateMutability": "view",
      "type": "function"
    },
    {
      "inputs": [
        {
          "internalType": "address",
          "name": "from",
          "type": "address"
        },
        {
          "internalType": "address",
          "name": "to",
          "type": "address"
        },
        {
          "internalType": "uint256",
          "name": "tokenId",
          "type": "uint256"
        }
      ],
      "name": "transferFrom",
      "outputs": [],
      "stateMutability": "nonpayable",
      "type": "function"
    },
    {
      "inputs": [
        {
          "internalType": "uint256",
          "name": "_platformId",
          "type": "uint256"
        },
        {
          "internalType": "uint256",
          "name": "_arbitrationFeeTimeout",
          "type": "uint256"
        }
      ],
      "name": "updateArbitrationFeeTimeout",
      "outputs": [],
      "stateMutability": "nonpayable",
      "type": "function"
    },
    {
      "inputs": [
        {
          "internalType": "uint256",
          "name": "_platformId",
          "type": "uint256"
        },
        {
          "internalType": "contract Arbitrator",
          "name": "_arbitrator",
          "type": "address"
        },
        {
          "internalType": "bytes",
          "name": "_extraData",
          "type": "bytes"
        }
      ],
      "name": "updateArbitrator",
      "outputs": [],
      "stateMutability": "nonpayable",
      "type": "function"
    },
    {
      "inputs": [
        {
          "internalType": "uint256",
          "name": "_minArbitrationFeeTimeout",
          "type": "uint256"
        }
      ],
      "name": "updateMinArbitrationFeeTimeout",
      "outputs": [],
      "stateMutability": "nonpayable",
      "type": "function"
    },
    {
      "inputs": [
        {
          "internalType": "uint256",
          "name": "_mintFee",
          "type": "uint256"
        }
      ],
      "name": "updateMintFee",
      "outputs": [],
      "stateMutability": "nonpayable",
      "type": "function"
    },
    {
      "inputs": [
        {
          "internalType": "uint256",
          "name": "_platformId",
          "type": "uint256"
        },
        {
          "internalType": "uint16",
          "name": "_originServiceFeeRate",
          "type": "uint16"
        }
      ],
      "name": "updateOriginServiceFeeRate",
      "outputs": [],
      "stateMutability": "nonpayable",
      "type": "function"
    },
    {
      "inputs": [
        {
          "internalType": "uint256",
          "name": "_platformId",
          "type": "uint256"
        },
        {
          "internalType": "uint16",
          "name": "_originValidatedProposalFeeRate",
          "type": "uint16"
        }
      ],
      "name": "updateOriginValidatedProposalFeeRate",
      "outputs": [],
      "stateMutability": "nonpayable",
      "type": "function"
    },
    {
      "inputs": [
        {
          "internalType": "uint256",
          "name": "_platformId",
          "type": "uint256"
        },
        {
          "internalType": "string",
          "name": "_newCid",
          "type": "string"
        }
      ],
      "name": "updateProfileData",
      "outputs": [],
      "stateMutability": "nonpayable",
      "type": "function"
    },
    {
      "inputs": [
        {
          "internalType": "address",
          "name": "newImplementation",
          "type": "address"
        }
      ],
      "name": "upgradeTo",
      "outputs": [],
      "stateMutability": "nonpayable",
      "type": "function"
    },
    {
      "inputs": [
        {
          "internalType": "address",
          "name": "newImplementation",
          "type": "address"
        },
        {
          "internalType": "bytes",
          "name": "data",
          "type": "bytes"
        }
      ],
      "name": "upgradeToAndCall",
      "outputs": [],
      "stateMutability": "payable",
      "type": "function"
    },
    {
      "inputs": [
        {
          "internalType": "address",
          "name": "",
          "type": "address"
        }
      ],
      "name": "validArbitrators",
      "outputs": [
        {
          "internalType": "bool",
          "name": "",
          "type": "bool"
        }
      ],
      "stateMutability": "view",
      "type": "function"
    },
    {
      "inputs": [],
      "name": "withdraw",
      "outputs": [],
      "stateMutability": "nonpayable",
      "type": "function"
    }
  ],
  "bytecode": "0x60a0604052306080523480156200001557600080fd5b506200002062000026565b620000e8565b600054610100900460ff1615620000935760405162461bcd60e51b815260206004820152602760248201527f496e697469616c697a61626c653a20636f6e747261637420697320696e697469604482015266616c697a696e6760c81b606482015260840160405180910390fd5b60005460ff9081161015620000e6576000805460ff191660ff9081179091556040519081527f7f26b83ff96e1f2b6a682f133852f6798a09c465da95921460cefb38474024989060200160405180910390a15b565b608051615ad96200012060003960008181610cfb01528181610d3b01528181611090015281816110d0015261115f0152615ad96000f3fe6080604052600436106102c95760003560e01c80638e6e539711610175578063c37e154e116100dc578063e58378bb11610095578063f160068f1161006f578063f160068f146108e8578063f577a50014610908578063f6f3784414610928578063faa992d31461093f57600080fd5b8063e58378bb14610849578063e985e9c51461087d578063e9a9c850146108c657600080fd5b8063c37e154e146107a3578063c87b56dd146107b6578063cb8faafa146107d6578063d547741f146107f6578063d85d3d2714610816578063dc33e6811461082957600080fd5b8063a22cb4651161012e578063a22cb465146106b6578063a383c692146106d6578063a4f524a914610712578063aa44caaf14610732578063acd63f1b14610752578063b88d4fde1461078357600080fd5b80638e6e53971461060c57806391d148541461062c57806395d89b411461064c578063973ad2701461066157806399ded44414610681578063a217fddf146106a157600080fd5b80633659cfe6116102345780634f1ef286116101ed5780636352211e116101c75780636352211e1461059757806370a08231146105b75780638129fc1c146105d757806384017e52146105ec57600080fd5b80634f1ef2861461054257806352d1902d146105555780635bd22c981461056a57600080fd5b80633659cfe61461049c5780633ccfd60b146104bc5780633d459389146104d15780633e6acfe0146104f157806342842e0e1461040c57806348203b301461051157600080fd5b806313966db51161028657806313966db5146103d257806318160ddd146103f757806323b872dd1461040c578063248a9ca31461042c5780632f2ff15d1461045c57806336568abe1461047c57600080fd5b806301c32c85146102ce57806301ffc9a7146102f057806306fdde0314610325578063081812fc14610347578063095ea7b31461037f57806311f821921461039f575b600080fd5b3480156102da57600080fd5b506102ee6102e93660046134e2565b610973565b005b3480156102fc57600080fd5b5061031061030b366004613511565b6109bc565b60405190151581526020015b60405180910390f35b34801561033157600080fd5b5061033a6109dc565b60405161031c9190613586565b34801561035357600080fd5b506103676103623660046134e2565b610a6e565b6040516001600160a01b03909116815260200161031c565b34801561038b57600080fd5b506102ee61039a3660046135ae565b610a95565b3480156103ab57600080fd5b506103bf6103ba3660046134e2565b610bb0565b60405161ffff909116815260200161031c565b3480156103de57600080fd5b506103e96101315481565b60405190815260200161031c565b34801561040357600080fd5b506103e9610bfa565b34801561041857600080fd5b506102ee6104273660046135da565b610c17565b34801561043857600080fd5b506103e96104473660046134e2565b60009081526097602052604090206001015490565b34801561046857600080fd5b506102ee61047736600461361b565b610c4d565b34801561048857600080fd5b506102ee61049736600461361b565b610c72565b3480156104a857600080fd5b506102ee6104b736600461364b565b610cf0565b3480156104c857600080fd5b506102ee610dd0565b3480156104dd57600080fd5b506103bf6104ec3660046134e2565b610e73565b3480156104fd57600080fd5b506102ee61050c36600461370b565b610ec3565b34801561051d57600080fd5b5061031061052c36600461364b565b61012f6020526000908152604090205460ff1681565b6102ee610550366004613764565b611085565b34801561056157600080fd5b506103e9611152565b34801561057657600080fd5b5061058a6105853660046134e2565b611205565b60405161031c91906137b4565b3480156105a357600080fd5b506103676105b23660046134e2565b6114b3565b3480156105c357600080fd5b506103e96105d236600461364b565b611513565b3480156105e357600080fd5b506102ee611599565b3480156105f857600080fd5b506102ee6106073660046134e2565b6117a8565b34801561061857600080fd5b506102ee61062736600461386e565b6117e9565b34801561063857600080fd5b5061031061064736600461361b565b611872565b34801561065857600080fd5b5061033a61189d565b34801561066d57600080fd5b506102ee61067c36600461364b565b6118ac565b34801561068d57600080fd5b506102ee61069c36600461386e565b6118f0565b3480156106ad57600080fd5b506103e9600081565b3480156106c257600080fd5b506102ee6106d136600461389a565b611983565b3480156106e257600080fd5b506103106106f13660046138cd565b805160208183018101805161012d8252928201919093012091525460ff1681565b34801561071e57600080fd5b506102ee61072d366004613902565b61198e565b34801561073e57600080fd5b506103e961074d36600461364b565b611a7a565b34801561075e57600080fd5b5061031061076d36600461364b565b6101306020526000908152604090205460ff1681565b34801561078f57600080fd5b506102ee61079e366004613924565b611acd565b6102ee6107b1366004613990565b611b4b565b3480156107c257600080fd5b5061033a6107d13660046134e2565b611cbc565b3480156107e257600080fd5b506102ee6107f136600461389a565b611cc7565b34801561080257600080fd5b506102ee61081136600461361b565b611d18565b6102ee6108243660046138cd565b611d3d565b34801561083557600080fd5b506103e961084436600461364b565b611ea2565b34801561085557600080fd5b506103e97fb19546dff01e856fb3f010c267a7b1c60363cf8a4664e21cc89c26224620214e81565b34801561088957600080fd5b506103106108983660046139d7565b6001600160a01b039182166000908152606a6020908152604080832093909416825291909152205460ff1690565b3480156108d257600080fd5b506103e9600080516020615a5d83398151915281565b3480156108f457600080fd5b506102ee610903366004613a05565b611ead565b34801561091457600080fd5b506102ee6109233660046134e2565b611f91565b34801561093457600080fd5b506103e96101325481565b34801561094b57600080fd5b5061095f61095a3660046134e2565b611fbf565b60405161031c989796959493929190613a36565b600061097e816121b4565b6101328290556040518281527fa39eb462f98ec2e2a17ca5c7f2a0a247d212213bf0c78a6e2a3df704911ef601906020015b60405180910390a15050565b60006109c7826121be565b806109d657506109d68261220e565b92915050565b6060606580546109eb90613aaf565b80601f0160208091040260200160405190810160405280929190818152602001828054610a1790613aaf565b8015610a645780601f10610a3957610100808354040283529160200191610a64565b820191906000526020600020905b815481529060010190602001808311610a4757829003601f168201915b5050505050905090565b6000610a7982612233565b506000908152606960205260409020546001600160a01b031690565b6000610aa0826114b3565b9050806001600160a01b0316836001600160a01b03161415610b135760405162461bcd60e51b815260206004820152602160248201527f4552433732313a20617070726f76616c20746f2063757272656e74206f776e656044820152603960f91b60648201526084015b60405180910390fd5b336001600160a01b0382161480610b2f5750610b2f8133610898565b610ba15760405162461bcd60e51b815260206004820152603d60248201527f4552433732313a20617070726f76652063616c6c6572206973206e6f7420746f60448201527f6b656e206f776e6572206f7220617070726f76656420666f7220616c6c0000006064820152608401610b0a565b610bab8383612292565b505050565b60008082118015610bc357506101335482105b610bdf5760405162461bcd60e51b8152600401610b0a90613aea565b50600090815261012e602052604090206003015461ffff1690565b60006001610c086101335490565b610c129190613b2d565b905090565b60405162461bcd60e51b815260206004820152600b60248201526a139bdd08185b1b1bddd95960aa1b6044820152606401610b0a565b600082815260976020526040902060010154610c68816121b4565b610bab8383612300565b6001600160a01b0381163314610ce25760405162461bcd60e51b815260206004820152602f60248201527f416363657373436f6e74726f6c3a2063616e206f6e6c792072656e6f756e636560448201526e103937b632b9903337b91039b2b63360891b6064820152608401610b0a565b610cec8282612386565b5050565b306001600160a01b037f0000000000000000000000000000000000000000000000000000000000000000161415610d395760405162461bcd60e51b8152600401610b0a90613b44565b7f00000000000000000000000000000000000000000000000000000000000000006001600160a01b0316610d826000805160206159fd833981519152546001600160a01b031690565b6001600160a01b031614610da85760405162461bcd60e51b8152600401610b0a90613b90565b610db1816123ed565b60408051600080825260208201909252610dcd91839190612417565b50565b6000610ddb816121b4565b604051600090339047908381818185875af1925050503d8060008114610e1d576040519150601f19603f3d011682016040523d82523d6000602084013e610e22565b606091505b5050905080610cec5760405162461bcd60e51b815260206004820152601860248201527f4661696c656420746f20776974686472617720457468657200000000000000006044820152606401610b0a565b60008082118015610e8657506101335482105b610ea25760405162461bcd60e51b8152600401610b0a90613aea565b50600090815261012e602052604090206003015462010000900461ffff1690565b33610ecd846114b3565b6001600160a01b031614610ef35760405162461bcd60e51b8152600401610b0a90613bdc565b6001600160a01b038216600090815261012f602052604090205460ff16610f6e5760405162461bcd60e51b815260206004820152602960248201527f5468652061646472657373206d757374206265206f6620612076616c69642061604482015268393134ba3930ba37b960b91b6064820152608401610b0a565b600083815261012e602090815260408083206003018054640100000000600160c01b0319166401000000006001600160a01b03881690810291909117909155835261013090915290205460ff16156110075760408051602081018590520160408051601f19818403018152918152600085815261012e602090815291902082516110019360049092019290910190613449565b5061102f565b600083815261012e60209081526040909120825161102d92600490920191840190613449565b505b7f4f1d179d53629f07a3ca3cde19840349df6dadc8fc11ac201c272ec77b8673d2838361012e600087815260200190815260200160002060040160405161107893929190613c21565b60405180910390a1505050565b306001600160a01b037f00000000000000000000000000000000000000000000000000000000000000001614156110ce5760405162461bcd60e51b8152600401610b0a90613b44565b7f00000000000000000000000000000000000000000000000000000000000000006001600160a01b03166111176000805160206159fd833981519152546001600160a01b031690565b6001600160a01b03161461113d5760405162461bcd60e51b8152600401610b0a90613b90565b611146826123ed565b610cec82826001612417565b6000306001600160a01b037f000000000000000000000000000000000000000000000000000000000000000016146111f25760405162461bcd60e51b815260206004820152603860248201527f555550535570677261646561626c653a206d757374206e6f742062652063616c60448201527f6c6564207468726f7567682064656c656761746563616c6c00000000000000006064820152608401610b0a565b506000805160206159fd83398151915290565b61125e604051806101000160405280600081526020016060815260200160608152602001600061ffff168152602001600061ffff16815260200160006001600160a01b0316815260200160608152602001600081525090565b60008211801561127057506101335482105b61128c5760405162461bcd60e51b8152600401610b0a90613aea565b61012e600083815260200190815260200160002060405180610100016040529081600082015481526020016001820180546112c690613aaf565b80601f01602080910402602001604051908101604052809291908181526020018280546112f290613aaf565b801561133f5780601f106113145761010080835404028352916020019161133f565b820191906000526020600020905b81548152906001019060200180831161132257829003601f168201915b5050505050815260200160028201805461135890613aaf565b80601f016020809104026020016040519081016040528092919081815260200182805461138490613aaf565b80156113d15780601f106113a6576101008083540402835291602001916113d1565b820191906000526020600020905b8154815290600101906020018083116113b457829003601f168201915b5050509183525050600382015461ffff808216602084015262010000820416604083015264010000000090046001600160a01b0316606082015260048201805460809092019161142090613aaf565b80601f016020809104026020016040519081016040528092919081815260200182805461144c90613aaf565b80156114995780601f1061146e57610100808354040283529160200191611499565b820191906000526020600020905b81548152906001019060200180831161147c57829003601f168201915b505050505081526020016005820154815250509050919050565b6000818152606760205260408120546001600160a01b0316806109d65760405162461bcd60e51b8152602060048201526018602482015277115490cdcc8c4e881a5b9d985b1a59081d1bdad95b88125160421b6044820152606401610b0a565b60006001600160a01b03821661157d5760405162461bcd60e51b815260206004820152602960248201527f4552433732313a2061646472657373207a65726f206973206e6f7420612076616044820152683634b21037bbb732b960b91b6064820152608401610b0a565b506001600160a01b031660009081526068602052604090205490565b600054610100900460ff16158080156115b95750600054600160ff909116105b806115d35750303b1580156115d3575060005460ff166001145b6116365760405162461bcd60e51b815260206004820152602e60248201527f496e697469616c697a61626c653a20636f6e747261637420697320616c72656160448201526d191e481a5b9a5d1a585b1a5e995960921b6064820152608401610b0a565b6000805460ff191660011790558015611659576000805461ff0019166101001790555b6116ac6040518060400160405280601581526020017415185b195b9d13185e595c941b185d199bdc9b5251605a1b815250604051806040016040528060048152602001631514125160e21b815250612591565b6116b46125c2565b6116bc6125c2565b6116c76000336125eb565b6116df600080516020615a5d833981519152336125eb565b6117097fb19546dff01e856fb3f010c267a7b1c60363cf8a4664e21cc89c26224620214e336125eb565b6000610131819055805261012f6020527fe9104285c6851efcbc5e0e70440200efbdcab556a1c8784776780f8bb44f2931805460ff1916600117905561175162015180610973565b61176061013380546001019055565b8015610dcd576000805461ff0019169055604051600181527f7f26b83ff96e1f2b6a682f133852f6798a09c465da95921460cefb38474024989060200160405180910390a150565b60006117b3816121b4565b6101318290556040518281527f38fbb1c8b109c430f0c030e7ed076cf5611a307773a4e8e365601e8f8bceaec6906020016109b0565b336117f3836114b3565b6001600160a01b0316146118195760405162461bcd60e51b8152600401610b0a90613bdc565b600082815261012e6020908152604091829020600301805461ffff191661ffff85169081179091558251858152918201527f03c3aa7c7830e29d1571bfe33dc72a8b8e0297dd6fdf26ef720dee976e21125a91016109b0565b60009182526097602090815260408084206001600160a01b0393909316845291905290205460ff1690565b6060606680546109eb90613aaf565b60006118b7816121b4565b506001600160a01b0316600090815261012f60209081526040808320805460ff1990811690915561013090925290912080549091169055565b336118fa836114b3565b6001600160a01b0316146119205760405162461bcd60e51b8152600401610b0a90613bdc565b600082815261012e6020908152604091829020600301805463ffff000019166201000061ffff8616908102919091179091558251858152918201527fffeae29561efc186d4d5241d242f7e2b4a76f114ea5de0db37fbd19c3b1913a591016109b0565b610cec3383836125f5565b33611998836114b3565b6001600160a01b0316146119be5760405162461bcd60e51b8152600401610b0a90613bdc565b61013254811015611a2e5760405162461bcd60e51b815260206004820152603460248201527f5468652074696d656f7574206d7573742062652067726561746572207468616e604482015273081d1a19481b5a5b9a5b5d5b481d1a5b595bdd5d60621b6064820152608401610b0a565b600082815261012e602090815260409182902060050183905581518481529081018390527face552c85eed7b5cf46330833e6f28b1f5ce696a4532e483192b5a64e4565e5991016109b0565b600060015b61013354811015611ac4576000818152606760205260409020546001600160a01b0384811691161415611ab25792915050565b80611abc81613ce1565b915050611a7f565b50600092915050565b611ad733836126c4565b611b395760405162461bcd60e51b815260206004820152602d60248201527f4552433732313a2063616c6c6572206973206e6f7420746f6b656e206f776e6560448201526c1c881bdc88185c1c1c9bdd9959609a1b6064820152608401610b0a565b611b4584848484612743565b50505050565b8181610131543414611b6f5760405162461bcd60e51b8152600401610b0a90613cfc565b611b7881611ea2565b15611b955760405162461bcd60e51b8152600401610b0a90613d40565b600282511015611bd85760405162461bcd60e51b815260206004820152600e60248201526d13985b59481d1bdbc81cda1bdc9d60921b6044820152606401610b0a565b601482511115611c1a5760405162461bcd60e51b815260206004820152600d60248201526c4e616d6520746f6f206c6f6e6760981b6044820152606401610b0a565b61012d82604051611c2b9190613d9e565b9081526040519081900360200190205460ff1615611c805760405162461bcd60e51b81526020600482015260126024820152712730b6b29030b63932b0b23c903a30b5b2b760711b6044820152606401610b0a565b600080516020615a5d833981519152611c98816121b4565b611cab84611ca66101335490565b612776565b611cb58585612790565b5050505050565b60606109d682612869565b6000611cd2816121b4565b506001600160a01b03909116600090815261012f60209081526040808320805460ff19908116600117909155610130909252909120805492151592909116919091179055565b600082815260976020526040902060010154611d33816121b4565b610bab8383612386565b8033610131543414611d615760405162461bcd60e51b8152600401610b0a90613cfc565b611d6a81611ea2565b15611d875760405162461bcd60e51b8152600401610b0a90613d40565b600282511015611dca5760405162461bcd60e51b815260206004820152600e60248201526d13985b59481d1bdbc81cda1bdc9d60921b6044820152606401610b0a565b601482511115611e0c5760405162461bcd60e51b815260206004820152600d60248201526c4e616d6520746f6f206c6f6e6760981b6044820152606401610b0a565b61012d82604051611e1d9190613d9e565b9081526040519081900360200190205460ff1615611e725760405162461bcd60e51b81526020600482015260126024820152712730b6b29030b63932b0b23c903a30b5b2b760711b6044820152606401610b0a565b600080516020615a5d833981519152611e8a816121b4565b611e9833611ca66101335490565b611b458433612790565b60006109d682611513565b33611eb7836114b3565b6001600160a01b031614611edd5760405162461bcd60e51b8152600401610b0a90613bdc565b6000815111611f2e5760405162461bcd60e51b815260206004820152601f60248201527f53686f756c642070726f7669646520612076616c6964204950465320555249006044820152606401610b0a565b600082815261012e602090815260409091208251611f5492600290920191840190613449565b50817f613807bd6768f626264e7eb664a65ca99a0d930f8fd8a5b868491a592eb57f7282604051611f859190613586565b60405180910390a25050565b600081118015611fa357506101335481105b610dcd5760405162461bcd60e51b8152600401610b0a90613aea565b61012e6020526000908152604090208054600182018054919291611fe290613aaf565b80601f016020809104026020016040519081016040528092919081815260200182805461200e90613aaf565b801561205b5780601f106120305761010080835404028352916020019161205b565b820191906000526020600020905b81548152906001019060200180831161203e57829003601f168201915b50505050509080600201805461207090613aaf565b80601f016020809104026020016040519081016040528092919081815260200182805461209c90613aaf565b80156120e95780601f106120be576101008083540402835291602001916120e9565b820191906000526020600020905b8154815290600101906020018083116120cc57829003601f168201915b505050506003830154600484018054939461ffff8084169562010000850490911694506401000000009093046001600160a01b03169290919061212b90613aaf565b80601f016020809104026020016040519081016040528092919081815260200182805461215790613aaf565b80156121a45780601f10612179576101008083540402835291602001916121a4565b820191906000526020600020905b81548152906001019060200180831161218757829003601f168201915b5050505050908060050154905088565b610dcd8133612994565b60006001600160e01b031982166380ac58cd60e01b14806121ef57506001600160e01b03198216635b5e139f60e01b145b806109d657506301ffc9a760e01b6001600160e01b03198316146109d6565b60006001600160e01b03198216637965db0b60e01b14806109d657506109d6826121be565b6000818152606760205260409020546001600160a01b0316610dcd5760405162461bcd60e51b8152602060048201526018602482015277115490cdcc8c4e881a5b9d985b1a59081d1bdad95b88125160421b6044820152606401610b0a565b600081815260696020526040902080546001600160a01b0319166001600160a01b03841690811790915581906122c7826114b3565b6001600160a01b03167f8c5be1e5ebec7d5bd14f71427d1e84f3dd0314c0f7b2291e5b200ac8c7c3b92560405160405180910390a45050565b61230a8282611872565b610cec5760008281526097602090815260408083206001600160a01b03851684529091529020805460ff191660011790556123423390565b6001600160a01b0316816001600160a01b0316837f2f8788117e7eff1d82e926ec794901d17c78024a50270940304540a733656f0d60405160405180910390a45050565b6123908282611872565b15610cec5760008281526097602090815260408083206001600160a01b0385168085529252808320805460ff1916905551339285917ff6391f5c32d9c69d2a47ea670b442974b53935d1edc7fd64eb21e047a839171b9190a45050565b7fb19546dff01e856fb3f010c267a7b1c60363cf8a4664e21cc89c26224620214e610cec816121b4565b7f4910fdfa16fed3260ed0e7147f7cc6da11a60208b5b9406d12a635614ffd91435460ff161561244a57610bab836129ed565b826001600160a01b03166352d1902d6040518163ffffffff1660e01b815260040160206040518083038186803b15801561248357600080fd5b505afa9250505080156124b3575060408051601f3d908101601f191682019092526124b091810190613dba565b60015b6125165760405162461bcd60e51b815260206004820152602e60248201527f45524331393637557067726164653a206e657720696d706c656d656e7461746960448201526d6f6e206973206e6f74205555505360901b6064820152608401610b0a565b6000805160206159fd83398151915281146125855760405162461bcd60e51b815260206004820152602960248201527f45524331393637557067726164653a20756e737570706f727465642070726f786044820152681a58589b195555525160ba1b6064820152608401610b0a565b50610bab838383612a89565b600054610100900460ff166125b85760405162461bcd60e51b8152600401610b0a90613dd3565b610cec8282612aae565b600054610100900460ff166125e95760405162461bcd60e51b8152600401610b0a90613dd3565b565b610cec8282612300565b816001600160a01b0316836001600160a01b031614156126575760405162461bcd60e51b815260206004820152601960248201527f4552433732313a20617070726f766520746f2063616c6c6572000000000000006044820152606401610b0a565b6001600160a01b038381166000818152606a6020908152604080832094871680845294825291829020805460ff191686151590811790915591519182527f17307eab39ab6107e8899845ad3d59bd9653f200f220920489ca2b5937696c31910160405180910390a3505050565b6000806126d0836114b3565b9050806001600160a01b0316846001600160a01b0316148061271757506001600160a01b038082166000908152606a602090815260408083209388168352929052205460ff165b8061273b5750836001600160a01b031661273084610a6e565b6001600160a01b0316145b949350505050565b61274e848484612afc565b61275a84848484612c6d565b611b455760405162461bcd60e51b8152600401610b0a90613e1e565b610cec828260405180602001604052806000815250612d7a565b600061279c6101335490565b90506127ad61013380546001019055565b600081815261012e60209081526040909120845190916127d4916001840191870190613449565b5081815561013254600582015560405160019061012d906127f6908790613d9e565b908152604051908190036020018120805492151560ff199093169290921790915561013154610132546001600160a01b038616927f8475f1ba3b06c1e11c870cbbf9753ca9a8292ea0b203262f682de476dc268f8c9261285b9287928a929190613e70565b60405180910390a250505050565b600081815261012e602052604081206001018054606092919061288b90613aaf565b80601f01602080910402602001604051908101604052809291908181526020018280546128b790613aaf565b80156129045780601f106128d957610100808354040283529160200191612904565b820191906000526020600020905b8154815290600101906020018083116128e757829003601f168201915b505050505090506000612935826040516020016129219190613e9c565b604051602081830303815290604052612dad565b604051602001612945919061573b565b604051602081830303815290604052905061296c8282604051602001612921929190615780565b60405160200161297c919061581d565b60405160208183030381529060405292505050919050565b61299e8282611872565b610cec576129ab81612f01565b6129b6836020612f13565b6040516020016129c7929190615862565b60408051601f198184030181529082905262461bcd60e51b8252610b0a91600401613586565b6001600160a01b0381163b612a5a5760405162461bcd60e51b815260206004820152602d60248201527f455243313936373a206e657720696d706c656d656e746174696f6e206973206e60448201526c1bdd08184818dbdb9d1c9858dd609a1b6064820152608401610b0a565b6000805160206159fd83398151915280546001600160a01b0319166001600160a01b0392909216919091179055565b612a92836130b6565b600082511180612a9f5750805b15610bab57611b4583836130f6565b600054610100900460ff16612ad55760405162461bcd60e51b8152600401610b0a90613dd3565b8151612ae8906065906020850190613449565b508051610bab906066906020840190613449565b826001600160a01b0316612b0f826114b3565b6001600160a01b031614612b355760405162461bcd60e51b8152600401610b0a906158d7565b6001600160a01b038216612b975760405162461bcd60e51b8152602060048201526024808201527f4552433732313a207472616e7366657220746f20746865207a65726f206164646044820152637265737360e01b6064820152608401610b0a565b612ba483838360016131ea565b826001600160a01b0316612bb7826114b3565b6001600160a01b031614612bdd5760405162461bcd60e51b8152600401610b0a906158d7565b600081815260696020908152604080832080546001600160a01b03199081169091556001600160a01b0387811680865260688552838620805460001901905590871680865283862080546001019055868652606790945282852080549092168417909155905184937fddf252ad1be2c89b69c2b068fc378daa952ba7f163c4a11628f55a4df523b3ef91a4505050565b60006001600160a01b0384163b15612d6f57604051630a85bd0160e11b81526001600160a01b0385169063150b7a0290612cb190339089908890889060040161591c565b602060405180830381600087803b158015612ccb57600080fd5b505af1925050508015612cfb575060408051601f3d908101601f19168201909252612cf891810190615959565b60015b612d55573d808015612d29576040519150601f19603f3d011682016040523d82523d6000602084013e612d2e565b606091505b508051612d4d5760405162461bcd60e51b8152600401610b0a90613e1e565b805181602001fd5b6001600160e01b031916630a85bd0160e11b14905061273b565b506001949350505050565b612d848383613272565b612d916000848484612c6d565b610bab5760405162461bcd60e51b8152600401610b0a90613e1e565b6060815160001415612dcd57505060408051602081019091526000815290565b6000604051806060016040528060408152602001615a1d6040913990506000600384516002612dfc9190615976565b612e06919061598e565b612e119060046159b0565b67ffffffffffffffff811115612e2957612e29613668565b6040519080825280601f01601f191660200182016040528015612e53576020820181803683370190505b509050600182016020820185865187015b80821015612ebf576003820191508151603f8160121c168501518453600184019350603f81600c1c168501518453600184019350603f8160061c168501518453600184019350603f8116850151845350600183019250612e64565b5050600386510660018114612edb5760028114612eee57612ef6565b603d6001830353603d6002830353612ef6565b603d60018303535b509195945050505050565b60606109d66001600160a01b03831660145b60606000612f228360026159b0565b612f2d906002615976565b67ffffffffffffffff811115612f4557612f45613668565b6040519080825280601f01601f191660200182016040528015612f6f576020820181803683370190505b509050600360fc1b81600081518110612f8a57612f8a6159cf565b60200101906001600160f81b031916908160001a905350600f60fb1b81600181518110612fb957612fb96159cf565b60200101906001600160f81b031916908160001a9053506000612fdd8460026159b0565b612fe8906001615976565b90505b6001811115613060576f181899199a1a9b1b9c1cb0b131b232b360811b85600f166010811061301c5761301c6159cf565b1a60f81b828281518110613032576130326159cf565b60200101906001600160f81b031916908160001a90535060049490941c93613059816159e5565b9050612feb565b5083156130af5760405162461bcd60e51b815260206004820181905260248201527f537472696e67733a20686578206c656e67746820696e73756666696369656e746044820152606401610b0a565b9392505050565b6130bf816129ed565b6040516001600160a01b038216907fbc7cd75a20ee27fd9adebab32041f755214dbc6bffa90cc0225b39da2e5c2d3b90600090a250565b60606001600160a01b0383163b61315e5760405162461bcd60e51b815260206004820152602660248201527f416464726573733a2064656c65676174652063616c6c20746f206e6f6e2d636f6044820152651b9d1c9858dd60d21b6064820152608401610b0a565b600080846001600160a01b0316846040516131799190613d9e565b600060405180830381855af49150503d80600081146131b4576040519150601f19603f3d011682016040523d82523d6000602084013e6131b9565b606091505b50915091506131e18282604051806060016040528060278152602001615a7d6027913961340b565b95945050505050565b6001811115611b45576001600160a01b03841615613230576001600160a01b0384166000908152606860205260408120805483929061322a908490613b2d565b90915550505b6001600160a01b03831615611b45576001600160a01b03831660009081526068602052604081208054839290613267908490615976565b909155505050505050565b6001600160a01b0382166132c85760405162461bcd60e51b815260206004820181905260248201527f4552433732313a206d696e7420746f20746865207a65726f20616464726573736044820152606401610b0a565b6000818152606760205260409020546001600160a01b03161561332d5760405162461bcd60e51b815260206004820152601c60248201527f4552433732313a20746f6b656e20616c7265616479206d696e746564000000006044820152606401610b0a565b61333b6000838360016131ea565b6000818152606760205260409020546001600160a01b0316156133a05760405162461bcd60e51b815260206004820152601c60248201527f4552433732313a20746f6b656e20616c7265616479206d696e746564000000006044820152606401610b0a565b6001600160a01b038216600081815260686020908152604080832080546001019055848352606790915280822080546001600160a01b0319168417905551839291907fddf252ad1be2c89b69c2b068fc378daa952ba7f163c4a11628f55a4df523b3ef908290a45050565b6060831561341a5750816130af565b6130af838381511561342f5781518083602001fd5b8060405162461bcd60e51b8152600401610b0a9190613586565b82805461345590613aaf565b90600052602060002090601f01602090048101928261347757600085556134bd565b82601f1061349057805160ff19168380011785556134bd565b828001600101855582156134bd579182015b828111156134bd5782518255916020019190600101906134a2565b506134c99291506134cd565b5090565b5b808211156134c957600081556001016134ce565b6000602082840312156134f457600080fd5b5035919050565b6001600160e01b031981168114610dcd57600080fd5b60006020828403121561352357600080fd5b81356130af816134fb565b60005b83811015613549578181015183820152602001613531565b83811115611b455750506000910152565b6000815180845261357281602086016020860161352e565b601f01601f19169290920160200192915050565b6020815260006130af602083018461355a565b6001600160a01b0381168114610dcd57600080fd5b600080604083850312156135c157600080fd5b82356135cc81613599565b946020939093013593505050565b6000806000606084860312156135ef57600080fd5b83356135fa81613599565b9250602084013561360a81613599565b929592945050506040919091013590565b6000806040838503121561362e57600080fd5b82359150602083013561364081613599565b809150509250929050565b60006020828403121561365d57600080fd5b81356130af81613599565b634e487b7160e01b600052604160045260246000fd5b600082601f83011261368f57600080fd5b813567ffffffffffffffff808211156136aa576136aa613668565b604051601f8301601f19908116603f011681019082821181831017156136d2576136d2613668565b816040528381528660208588010111156136eb57600080fd5b836020870160208301376000602085830101528094505050505092915050565b60008060006060848603121561372057600080fd5b83359250602084013561373281613599565b9150604084013567ffffffffffffffff81111561374e57600080fd5b61375a8682870161367e565b9150509250925092565b6000806040838503121561377757600080fd5b823561378281613599565b9150602083013567ffffffffffffffff81111561379e57600080fd5b6137aa8582860161367e565b9150509250929050565b6020815281516020820152600060208301516101008060408501526137dd61012085018361355a565b91506040850151601f19808685030160608701526137fb848361355a565b935060608701519150613814608087018361ffff169052565b608087015161ffff811660a0880152915060a08701516001600160a01b03811660c0880152915060c08701519150808685030160e087015250613857838261355a565b92505060e085015181850152508091505092915050565b6000806040838503121561388157600080fd5b82359150602083013561ffff8116811461364057600080fd5b600080604083850312156138ad57600080fd5b82356138b881613599565b91506020830135801515811461364057600080fd5b6000602082840312156138df57600080fd5b813567ffffffffffffffff8111156138f657600080fd5b61273b8482850161367e565b6000806040838503121561391557600080fd5b50508035926020909101359150565b6000806000806080858703121561393a57600080fd5b843561394581613599565b9350602085013561395581613599565b925060408501359150606085013567ffffffffffffffff81111561397857600080fd5b6139848782880161367e565b91505092959194509250565b600080604083850312156139a357600080fd5b823567ffffffffffffffff8111156139ba57600080fd5b6139c68582860161367e565b925050602083013561364081613599565b600080604083850312156139ea57600080fd5b82356139f581613599565b9150602083013561364081613599565b60008060408385031215613a1857600080fd5b82359150602083013567ffffffffffffffff81111561379e57600080fd5b60006101008a8352806020840152613a508184018b61355a565b90508281036040840152613a64818a61355a565b61ffff8981166060860152881660808501526001600160a01b03871660a085015283810360c08501529050613a99818661355a565b9150508260e08301529998505050505050505050565b600181811c90821680613ac357607f821691505b60208210811415613ae457634e487b7160e01b600052602260045260246000fd5b50919050565b602080825260139082015272125b9d985b1a59081c1b185d199bdc9b481251606a1b604082015260600190565b634e487b7160e01b600052601160045260246000fd5b600082821015613b3f57613b3f613b17565b500390565b6020808252602c908201527f46756e6374696f6e206d7573742062652063616c6c6564207468726f7567682060408201526b19195b1959d85d1958d85b1b60a21b606082015260800190565b6020808252602c908201527f46756e6374696f6e206d7573742062652063616c6c6564207468726f7567682060408201526b6163746976652070726f787960a01b606082015260800190565b60208082526025908201527f596f75277265206e6f7420746865206f776e6572206f66207468697320706c6160408201526474666f726d60d81b606082015260800190565b8381526000602060018060a01b03851681840152606060408401526000845481600182811c915080831680613c5757607f831692505b858310811415613c7557634e487b7160e01b85526022600452602485fd5b6060880183905260808801818015613c945760018114613ca557613cd0565b60ff19861682528782019650613cd0565b60008b81526020902060005b86811015613cca57815484820152908501908901613cb1565b83019750505b50949b9a5050505050505050505050565b6000600019821415613cf557613cf5613b17565b5060010190565b60208082526024908201527f496e636f727265637420616d6f756e74206f662045544820666f72206d696e746040820152632066656560e01b606082015260800190565b60208082526022908201527f506c6174666f726d20616c726561647920686173206120506c6174666f726d20604082015261125160f21b606082015260800190565b60008151613d9481856020860161352e565b9290920192915050565b60008251613db081846020870161352e565b9190910192915050565b600060208284031215613dcc57600080fd5b5051919050565b6020808252602b908201527f496e697469616c697a61626c653a20636f6e7472616374206973206e6f74206960408201526a6e697469616c697a696e6760a81b606082015260800190565b60208082526032908201527f4552433732313a207472616e7366657220746f206e6f6e20455243373231526560408201527131b2b4bb32b91034b6b83632b6b2b73a32b960711b606082015260800190565b848152608060208201526000613e89608083018661355a565b6040830194909452506060015292915050565b7f3c73766720786d6c6e733d22687474703a2f2f7777772e77332e6f72672f323081527f30302f737667222076696577426f783d223020302037323020373230223e3c6460208201527f6566733e3c6c696e6561724772616469656e742069643d2261222078313d223660408201527f372e3934222079313d223136392e3438222078323d223637302e39382220793260608201527f3d223536322e383622206772616469656e74556e6974733d227573657253706160808201527f63654f6e557365223e3c73746f70206f66667365743d2230222073746f702d6360a08201527f6f6c6f723d2223313761396332222f3e3c73746f70206f66667365743d222e3160c08201527f32222073746f702d636f6c6f723d2223316161396263222f3e3c73746f70206f60e08201527f66667365743d222e3239222073746f702d636f6c6f723d2223323561626162226101008201527f2f3e3c73746f70206f66667365743d222e3438222073746f702d636f6c6f723d6101208201527f2223333561643866222f3e3c73746f70206f66667365743d222e3634222073746101408201527f6f702d636f6c6f723d2223343862303732222f3e3c73746f70206f66667365746101608201527f3d222e3738222073746f702d636f6c6f723d2223353962323534222f3e3c73746101808201527f6f70206f66667365743d2231222073746f702d636f6c6f723d222337616237326101a08201527f30222f3e3c2f6c696e6561724772616469656e743e3c2f646566733e3c7061746101c08201527f68207374796c653d2266696c6c3a75726c282361292220643d224d30203068376101e08201527f32307637323048307a222f3e3c7061746820643d224d34372e30352039322e336102008201527f375635332e38344833332e32395634366833362e383576372e38344835362e346102208201527f317633382e3532682d392e33365a6d33352e37312d32332e33342d382e30372d6102408201527f312e3436632e39312d332e323520322e34372d352e363520342e36382d372e326102608201527f3120322e32312d312e353620352e352d322e333420392e38372d322e333420336102808201527f2e3936203020362e39322e343720382e383620312e343120312e39342e3934206102a08201527f332e333120322e313320342e3120332e353773312e313920342e3120312e31396102c08201527f20372e39366c2d2e312031302e3337633020322e39352e313420352e31332e346102e08201527f3320362e35332e323820312e342e383220322e393120312e3620342e3531682d6103008201527f382e3739632d2e32332d2e35392d2e35322d312e34372d2e38352d322e36332d6103208201527f2e31352d2e35332d2e32352d2e38382d2e33322d312e30342d312e353220312e6103408201527f34382d332e313420322e35382d342e383720332e3332732d332e353720312e316103608201527f312d352e353420312e3131632d332e343620302d362e31382d2e39342d382e316103808201527f382d322e38322d312e39392d312e38382d322e39392d342e32352d322e39392d6103a08201527f372e313220302d312e392e34352d332e353920312e33362d352e303873322e316103c08201527f382d322e363320332e38312d332e343220332e39392d312e343820372e30372d6103e08201527f322e303763342e31352d2e373820372e30332d312e353120382e36332d322e316104008201527f38762d2e383963302d312e37312d2e34322d322e39332d312e32372d332e36356104208201527f732d322e34342d312e30392d342e37382d312e3039632d312e353820302d322e6104408201527f38322e33312d332e372e39332d2e38392e36322d312e3620312e37312d322e316104608201527f3520332e32375a6d31312e383920372e3231632d312e31342e33382d322e39346104808201527f2e38332d352e343120312e33362d322e34372e35332d342e303820312e30342d6104a08201527f342e383420312e35352d312e31362e38322d312e373420312e38372d312e37346104c08201527f20332e3133732e343620322e333220312e333920332e3233632e39332e3931206104e08201527f322e313120312e333620332e353420312e333620312e36203020332e31332d2e6105008201527f353320342e35392d312e353820312e30382d2e3820312e37382d312e373820326105208201527f2e31322d322e39342e32332d2e37362e33352d322e322e33352d342e3333762d6105408201527f312e37375a6d31372e34392031362e313356343668382e38397634362e3337686105608201527f2d382e38395a6d33372e34352d31302e363920382e383620312e3439632d312e6105808201527f313420332e32352d322e393420352e37322d352e333920372e3432732d352e356105a08201527f3320322e35352d392e323220322e3535632d352e383420302d31302e31362d316105c08201527f2e39312d31322e39372d352e37322d322e32312d332e30362d332e33322d362e6105e08201527f39322d332e33322d31312e353820302d352e353720312e34362d392e393320346106008201527f2e33362d31332e303820322e39312d332e313520362e35392d342e37332031316106208201527f2e30342d342e37332035203020382e393420312e36352031312e383320342e396106408201527f3573342e323720382e333620342e31342031352e3137682d32322e3237632e306106608201527f3620322e36342e373820342e363920322e313520362e313520312e333720312e6106808201527f343720332e303820322e3220352e313220322e3220312e3339203020322e35366106a08201527f2d2e333820332e35312d312e31342e39352d2e373620312e36372d312e3938206106c08201527f322e31352d332e36375a6d2e35312d382e3938632d2e30362d322e35372d2e376106e08201527f332d342e35332d312e39392d352e38372d312e32372d312e33342d322e38312d6107008201527f322e30312d342e36322d322e30312d312e393420302d332e35342e37312d342e6107208201527f383120322e31322d312e323720312e34312d312e383920332e33332d312e38376107408201527f20352e37366831332e32385a6d34362e36322031392e3637682d382e383956376107608201527f352e323363302d332e36332d2e31392d352e39372d2e35372d372e30342d2e336107808201527f382d312e30362d312d312e38392d312e38352d322e3438732d312e38382d2e386107a08201527f392d332e30382d2e3839632d312e353420302d322e39322e34322d342e3134206107c08201527f312e3237732d322e303620312e39362d322e353120332e3335632d2e343520316107e08201527f2e33392d2e363820332e39362d2e363820372e37327631352e3231682d382e386108008201527f395635382e373868382e323676342e393363322e39332d332e3820362e36322d6108208201527f352e36392031312e30372d352e363920312e3936203020332e37352e333520356108408201527f2e333820312e303620312e36322e373120322e383520312e363120332e3638206108608201527f322e372e383320312e3120312e343120322e333420312e373420332e3733732e6108808201527f343920332e33382e343920352e39387632302e38385a6d32342e34322d33332e6108a08201527f353976372e3038682d362e30375637392e34633020322e37342e303620342e336108c08201527f342e313720342e37392e31322e34352e33382e38332e373920312e31322e34316108e08201527f2e332e39312e343420312e352e34342e3832203020322e30312d2e323820332e6109008201527f35372d2e38356c2e373620362e39632d322e30372e38392d342e343120312e336109208201527f332d372e303220312e33332d312e3620302d332e30352d2e32372d342e33332d6109408201527f2e38312d312e32392d2e35342d322e32332d312e32332d322e38332d322e30396109608201527f2d2e362d2e38352d312e30322d322e30312d312e32352d332e34362d2e31392d6109808201527f312e30332d2e32382d332e31322d2e32382d362e32365636352e3836682d342e6109a08201527f3038762d372e303868342e3038762d362e36376c382e39322d352e31397631316109c08201527f2e383668362e30375a6d362e32362033332e353956343668362e31347634302e6109e08201527f396832322e383476352e3437682d32382e39375a6d35372e34372d342e313463610a008201527f2d322e313120312e37392d342e313420332e30362d362e303920332e382d312e610a208201527f39352e37342d342e303420312e31312d362e323820312e31312d332e36392030610a408201527f2d362e35332d2e392d382e35312d322e372d312e39382d312e382d322e39372d610a608201527f342e31312d322e39372d362e393120302d312e36342e33372d332e313520312e610a808201527f31322d342e353173312e37332d322e343520322e39342d332e323763312e3231610aa08201527f2d2e383220322e35382d312e343420342e312d312e383720312e31322d2e3320610ac08201527f322e382d2e353820352e30362d2e383520342e362d2e353520372e39382d312e610ae08201527f322031302e31352d312e39362e30322d2e37382e30332d312e32382e30332d31610b008201527f2e343920302d322e33322d2e35342d332e39352d312e36312d342e392d312e34610b208201527f362d312e32392d332e36322d312e39332d362e34382d312e39332d322e363820610b408201527f302d342e36352e34372d352e393320312e3431732d322e323220322e362d322e610b608201527f383320342e39386c2d352e35372d2e3736632e35312d322e333820312e33342d610b808201527f342e333120322e352d352e373720312e31362d312e343720322e38342d322e35610ba08201527f3920352e30332d332e333820322e31392d2e373920342e37332d312e31392037610bc08201527f2e36322d312e313973352e322e333420362e393920312e303163312e37392e36610be08201527f3820332e313120312e353220332e393520322e35352e383420312e303220312e610c008201527f343320322e333120312e373720332e38382e31392e39372e323820322e37322e610c208201527f323820352e323576372e3539633020352e32392e313220382e36342e33362031610c408201527f302e30342e323420312e342e373220322e373520312e343420342e3033682d35610c608201527f2e3935632d2e35392d312e31382d2e39372d322e35362d312e31342d342e3134610c808201527f5a6d2d2e34372d31322e3732632d322e30372e38342d352e313720312e35362d610ca08201527f392e3320322e31352d322e33342e33342d34202e37322d342e393720312e3134610cc08201527f2d2e39372e34322d312e373220312e30342d322e323520312e3835732d2e3739610ce08201527f20312e37312d2e373920322e37633020312e35322e353720322e373820312e37610d008201527f3220332e3820312e313520312e303120322e383320312e353220352e30352031610d208201527f2e353273342e31342d2e343820352e38352d312e343420322e39362d322e3237610d408201527f20332e37362d332e3934632e36312d312e32392e39322d332e31382e39322d35610d608201527f2e3639762d322e30395a6d31342e33332032392e382d2e36332d352e33356331610d808201527f2e32342e333420322e33332e353120332e32362e353120312e3237203020322e610da08201527f32382d2e323120332e30342d2e363373312e33382d312e303120312e38372d31610dc08201527f2e3737632e33362d2e35372e39342d312e393820312e37342d342e32342e3131610de08201527f2d2e33322e32372d2e37382e35312d312e33396c2d31322e37352d33332e3635610e008201527f68362e31346c362e39392031392e3435632e393120322e343720312e37322035610e208201527f2e303620322e343420372e37382e36352d322e363120312e34332d352e313720610e408201527f322e33342d372e36356c372e31382d31392e353868352e36396c2d31322e3738610e608201527f2033342e3136632d312e333720332e36392d322e343420362e32332d332e3139610e808201527f20372e36322d312e303120312e38382d322e313720332e32352d332e34382034610ea08201527f2e31332d312e33312e38382d322e383720312e33312d342e363820312e33312d610ec08201527f312e3120302d322e33322d2e32332d332e36372d2e375a6d35352e36332d3233610ee08201527f2e373620352e38382e3733632d2e393320332e34342d322e363520362e312d35610f008201527f2e313620382d322e353120312e392d352e373120322e38352d392e363220322e610f208201527f38352d342e393120302d382e38312d312e35312d31312e36392d342e35342d32610f408201527f2e38382d332e30332d342e33322d372e32372d342e33322d31322e373373312e610f608201527f34362d31302e303420342e33362d31332e313663322e39312d332e313220362e610f808201527f36382d342e36382031312e33322d342e363873382e313620312e35332031312e610fa08201527f303120342e353963322e383520332e303620342e323720372e333620342e3237610fc08201527f2031322e39312030202e33342d2e30312e38342d2e303320312e3532682d3235610fe08201527f2e3035632e323120332e363920312e323520362e353220332e313320382e34386110008201527f20312e383820312e393620342e323220322e393420372e303220322e393420326110208201527f2e3039203020332e38372d2e353520352e33352d312e363420312e34382d312e6110408201527f3120322e36352d322e383520332e35312d352e32355a6d2d31382e36392d392e6110608201527f326831382e3736632d2e32352d322e38332d2e39372d342e39342d322e31352d6110808201527f362e33362d312e38312d322e31392d342e31372d332e32392d372e30352d332e6110a08201527f32392d322e363120302d342e38312e38382d362e3620322e3633732d322e37376110c08201527f20342e30392d322e393620372e30325a6d33312e36362032302e30325635382e6110e08201527f373868352e313276352e303963312e33312d322e333820322e35312d332e39356111008201527f20332e36322d342e373173322e33322d312e313420332e36352d312e313463316111208201527f2e3932203020332e38372e363120352e383520312e38336c2d312e393620352e6111408201527f3238632d312e33392d2e38322d322e37382d312e32332d342e31382d312e32336111608201527f2d312e323420302d322e33362e33372d332e333520312e31322d2e39392e37356111808201527f2d312e3720312e37392d322e313220332e31322d2e363320322e30322d2e39356111a08201527f20342e32342d2e393520362e36347631372e3539682d352e36395a6d32312e376111c08201527f39203056343668392e33367634362e3337682d392e33365a4d3430372e3337206111e08201527f34366831372e313163332e3836203020362e382e3320382e38332e383920322e6112008201527f37322e3820352e303520322e323220362e393920342e323720312e393420322e6112208201527f303520332e343220342e353520342e343320372e353120312e303120322e39366112408201527f20312e353220362e363220312e35322031302e3936203020332e38322d2e34376112608201527f20372e31312d312e343220392e38372d312e313620332e33372d322e383220366112808201527f2e312d342e393720382e31392d312e363220312e35382d332e383220322e38326112a08201527f2d362e353820332e372d322e30372e36352d342e38332e39382d382e32392e396112c08201527f38682d31372e36325634365a6d392e333620372e38347633302e373168362e396112e08201527f3963322e3631203020342e352d2e313520352e36362d2e343420312e35322d2e6113008201527f333820322e37382d312e303220332e37382d312e393320312d2e393120312e386113208201527f322d322e3420322e34352d342e34382e36332d322e30382e39352d342e39312e6113408201527f39352d382e3439732d2e33322d362e33342d2e39352d382e32362d312e35322d6113608201527f332e34322d322e36362d342e34392d322e35382d312e382d342e33332d322e316113808201527f38632d312e33312d2e332d332e38372d2e34342d372e36392d2e3434682d342e6113a08201527f32315a22207374796c653d2266696c6c3a23666666222f3e3c7465787420793d6113c08201527f223637302220783d22333022207374796c653d22666f6e743a373070782073616113e082015273373996b9b2b934b31db334b6361d11b33333111f60611b61140082015260006130af615722611414840185613d82565b6c1e17ba32bc3a1f1e17b9bb339f60991b8152600d0190565b7f646174613a696d6167652f7376672b786d6c3b6261736536342c00000000000081526000825161577381601a85016020870161352e565b91909101601a0192915050565b683d913730b6b2911d1160b91b815282516000906157a581600985016020880161352e565b6b1116101134b6b0b3b2911d1160a11b60099184019182015283516157d181601584016020880161352e565b7f222c20226465736372697074696f6e223a202254616c656e74204c6179657220601592909101918201526c506c6174666f726d204944227d60981b6035820152604201949350505050565b7f646174613a6170706c69636174696f6e2f6a736f6e3b6261736536342c00000081526000825161585581601d85016020870161352e565b91909101601d0192915050565b7f416363657373436f6e74726f6c3a206163636f756e742000000000000000000081526000835161589a81601785016020880161352e565b7001034b99036b4b9b9b4b733903937b6329607d1b60179184019182015283516158cb81602884016020880161352e565b01602801949350505050565b60208082526025908201527f4552433732313a207472616e736665722066726f6d20696e636f72726563742060408201526437bbb732b960d91b606082015260800190565b6001600160a01b038581168252841660208201526040810183905260806060820181905260009061594f9083018461355a565b9695505050505050565b60006020828403121561596b57600080fd5b81516130af816134fb565b6000821982111561598957615989613b17565b500190565b6000826159ab57634e487b7160e01b600052601260045260246000fd5b500490565b60008160001904831182151516156159ca576159ca613b17565b500290565b634e487b7160e01b600052603260045260246000fd5b6000816159f4576159f4613b17565b50600019019056fe360894a13ba1a3210667c828492db98dca3e2076cc3735a920a3ca505d382bbc4142434445464748494a4b4c4d4e4f505152535455565758595a6162636465666768696a6b6c6d6e6f707172737475767778797a303132333435363738392b2f154c00819833dac601ee5ddded6fda79d9d8b506b911b3dbd54cdb95fe6c3686416464726573733a206c6f772d6c6576656c2064656c65676174652063616c6c206661696c6564a2646970667358221220e588c5f446945443a54ec2a9ceb6f48fba7b0fc19f03ffa5327495e87a94ba6564736f6c63430008090033",
  "linkReferences": {},
  "deployedLinkReferences": {}
}