{
  "_format": "hh-sol-artifact-1",
  "contractName": "TalentLayerEscrow",
  "sourceName": "contracts/TalentLayerEscrow.sol",
  "abi": [
    {
      "inputs": [],
      "stateMutability": "nonpayable",
      "type": "constructor"
    },
    {
      "anonymous": false,
      "inputs": [
        {
          "indexed": false,
          "internalType": "address",
          "name": "previousAdmin",
          "type": "address"
        },
        {
          "indexed": false,
          "internalType": "address",
          "name": "newAdmin",
          "type": "address"
        }
      ],
      "name": "AdminChanged",
      "type": "event"
    },
    {
      "anonymous": false,
      "inputs": [
        {
          "indexed": true,
          "internalType": "uint256",
          "name": "_transactionId",
          "type": "uint256"
        },
        {
          "indexed": false,
          "internalType": "enum TalentLayerEscrow.ArbitrationFeePaymentType",
          "name": "_paymentType",
          "type": "uint8"
        },
        {
          "indexed": false,
          "internalType": "enum TalentLayerEscrow.Party",
          "name": "_party",
          "type": "uint8"
        },
        {
          "indexed": false,
          "internalType": "uint256",
          "name": "_amount",
          "type": "uint256"
        }
      ],
      "name": "ArbitrationFeePayment",
      "type": "event"
    },
    {
      "anonymous": false,
      "inputs": [
        {
          "indexed": true,
          "internalType": "address",
          "name": "beacon",
          "type": "address"
        }
      ],
      "name": "BeaconUpgraded",
      "type": "event"
    },
    {
      "anonymous": false,
      "inputs": [
        {
          "indexed": true,
          "internalType": "contract Arbitrator",
          "name": "_arbitrator",
          "type": "address"
        },
        {
          "indexed": true,
          "internalType": "uint256",
          "name": "_disputeID",
          "type": "uint256"
        },
        {
          "indexed": false,
          "internalType": "uint256",
          "name": "_metaEvidenceID",
          "type": "uint256"
        },
        {
          "indexed": false,
          "internalType": "uint256",
          "name": "_evidenceGroupID",
          "type": "uint256"
        }
      ],
      "name": "Dispute",
      "type": "event"
    },
    {
      "anonymous": false,
      "inputs": [
        {
          "indexed": true,
          "internalType": "contract Arbitrator",
          "name": "_arbitrator",
          "type": "address"
        },
        {
          "indexed": true,
          "internalType": "uint256",
          "name": "_evidenceGroupID",
          "type": "uint256"
        },
        {
          "indexed": true,
          "internalType": "address",
          "name": "_party",
          "type": "address"
        },
        {
          "indexed": false,
          "internalType": "string",
          "name": "_evidence",
          "type": "string"
        }
      ],
      "name": "Evidence",
      "type": "event"
    },
    {
      "anonymous": false,
      "inputs": [
        {
          "indexed": true,
          "internalType": "uint256",
          "name": "_transactionId",
          "type": "uint256"
        },
        {
          "indexed": true,
          "internalType": "uint256",
          "name": "_partyId",
          "type": "uint256"
        },
        {
          "indexed": false,
          "internalType": "string",
          "name": "_evidenceUri",
          "type": "string"
        }
      ],
      "name": "EvidenceSubmitted",
      "type": "event"
    },
    {
      "anonymous": false,
      "inputs": [
        {
          "indexed": false,
          "internalType": "uint256",
          "name": "_platformId",
          "type": "uint256"
        },
        {
          "indexed": true,
          "internalType": "address",
          "name": "_token",
          "type": "address"
        },
        {
          "indexed": false,
          "internalType": "uint256",
          "name": "_amount",
          "type": "uint256"
        }
      ],
      "name": "FeesClaimed",
      "type": "event"
    },
    {
      "anonymous": false,
      "inputs": [
        {
          "indexed": true,
          "internalType": "uint256",
          "name": "_transactionId",
          "type": "uint256"
        },
        {
          "indexed": false,
          "internalType": "enum TalentLayerEscrow.Party",
          "name": "_party",
          "type": "uint8"
        }
      ],
      "name": "HasToPayFee",
      "type": "event"
    },
    {
      "anonymous": false,
      "inputs": [
        {
          "indexed": false,
          "internalType": "uint8",
          "name": "version",
          "type": "uint8"
        }
      ],
      "name": "Initialized",
      "type": "event"
    },
    {
      "anonymous": false,
      "inputs": [
        {
          "indexed": true,
          "internalType": "uint256",
          "name": "_metaEvidenceID",
          "type": "uint256"
        },
        {
          "indexed": false,
          "internalType": "string",
          "name": "_evidence",
          "type": "string"
        }
      ],
      "name": "MetaEvidence",
      "type": "event"
    },
    {
      "anonymous": false,
      "inputs": [
        {
          "indexed": false,
          "internalType": "uint256",
          "name": "_platformId",
          "type": "uint256"
        },
        {
          "indexed": false,
          "internalType": "uint256",
          "name": "_serviceId",
          "type": "uint256"
        },
        {
          "indexed": true,
          "internalType": "address",
          "name": "_token",
          "type": "address"
        },
        {
          "indexed": false,
          "internalType": "uint256",
          "name": "_amount",
          "type": "uint256"
        }
      ],
      "name": "OriginServiceFeeRateReleased",
      "type": "event"
    },
    {
      "anonymous": false,
      "inputs": [
        {
          "indexed": false,
          "internalType": "uint256",
          "name": "_platformId",
          "type": "uint256"
        },
        {
          "indexed": false,
          "internalType": "uint256",
          "name": "_serviceId",
          "type": "uint256"
        },
        {
          "indexed": true,
          "internalType": "address",
          "name": "_token",
          "type": "address"
        },
        {
          "indexed": false,
          "internalType": "uint256",
          "name": "_amount",
          "type": "uint256"
        }
      ],
      "name": "OriginValidatedProposalFeeRateReleased",
      "type": "event"
    },
    {
      "anonymous": false,
      "inputs": [
        {
          "indexed": true,
          "internalType": "address",
          "name": "previousOwner",
          "type": "address"
        },
        {
          "indexed": true,
          "internalType": "address",
          "name": "newOwner",
          "type": "address"
        }
      ],
      "name": "OwnershipTransferred",
      "type": "event"
    },
    {
      "anonymous": false,
      "inputs": [
        {
          "indexed": false,
          "internalType": "uint256",
          "name": "_transactionId",
          "type": "uint256"
        },
        {
          "indexed": false,
          "internalType": "enum TalentLayerEscrow.PaymentType",
          "name": "_paymentType",
          "type": "uint8"
        },
        {
          "indexed": false,
          "internalType": "uint256",
          "name": "_amount",
          "type": "uint256"
        },
        {
          "indexed": false,
          "internalType": "address",
          "name": "_token",
          "type": "address"
        },
        {
          "indexed": false,
          "internalType": "uint256",
          "name": "_serviceId",
          "type": "uint256"
        }
      ],
      "name": "Payment",
      "type": "event"
    },
    {
      "anonymous": false,
      "inputs": [
        {
          "indexed": false,
          "internalType": "uint256",
          "name": "_serviceId",
          "type": "uint256"
        }
      ],
      "name": "PaymentCompleted",
      "type": "event"
    },
    {
      "anonymous": false,
      "inputs": [
        {
          "indexed": false,
          "internalType": "uint16",
          "name": "_protocolEscrowFeeRate",
          "type": "uint16"
        }
      ],
      "name": "ProtocolEscrowFeeRateUpdated",
      "type": "event"
    },
    {
      "anonymous": false,
      "inputs": [
        {
          "indexed": true,
          "internalType": "contract Arbitrator",
          "name": "_arbitrator",
          "type": "address"
        },
        {
          "indexed": true,
          "internalType": "uint256",
          "name": "_disputeID",
          "type": "uint256"
        },
        {
          "indexed": false,
          "internalType": "uint256",
          "name": "_ruling",
          "type": "uint256"
        }
      ],
      "name": "Ruling",
      "type": "event"
    },
    {
      "anonymous": false,
      "inputs": [
        {
          "indexed": true,
          "internalType": "uint256",
          "name": "_transactionId",
          "type": "uint256"
        },
        {
          "indexed": false,
          "internalType": "uint256",
          "name": "_ruling",
          "type": "uint256"
        }
      ],
      "name": "RulingExecuted",
      "type": "event"
    },
    {
      "anonymous": false,
      "inputs": [
        {
          "indexed": false,
          "internalType": "uint256",
          "name": "serviceId",
          "type": "uint256"
        },
        {
          "indexed": false,
          "internalType": "uint256",
          "name": "sellerId",
          "type": "uint256"
        },
        {
          "indexed": false,
          "internalType": "uint256",
          "name": "transactionId",
          "type": "uint256"
        }
      ],
      "name": "ServiceProposalConfirmedWithDeposit",
      "type": "event"
    },
    {
      "anonymous": false,
      "inputs": [
        {
          "indexed": false,
          "internalType": "uint256",
          "name": "_transactionId",
          "type": "uint256"
        },
        {
          "indexed": false,
          "internalType": "uint256",
          "name": "_senderId",
          "type": "uint256"
        },
        {
          "indexed": false,
          "internalType": "uint256",
          "name": "_receiverId",
          "type": "uint256"
        },
        {
          "indexed": false,
          "internalType": "address",
          "name": "_token",
          "type": "address"
        },
        {
          "indexed": false,
          "internalType": "uint256",
          "name": "_amount",
          "type": "uint256"
        },
        {
          "indexed": false,
          "internalType": "uint256",
          "name": "_serviceId",
          "type": "uint256"
        },
        {
          "indexed": false,
          "internalType": "uint16",
          "name": "_protocolEscrowFeeRate",
          "type": "uint16"
        },
        {
          "indexed": false,
          "internalType": "uint16",
          "name": "_originServiceFeeRate",
          "type": "uint16"
        },
        {
          "indexed": false,
          "internalType": "uint16",
          "name": "_originValidatedProposalFeeRate",
          "type": "uint16"
        },
        {
          "indexed": false,
          "internalType": "contract Arbitrator",
          "name": "_arbitrator",
          "type": "address"
        },
        {
          "indexed": false,
          "internalType": "bytes",
          "name": "_arbitratorExtraData",
          "type": "bytes"
        },
        {
          "indexed": false,
          "internalType": "uint256",
          "name": "_arbitrationFeeTimeout",
          "type": "uint256"
        }
      ],
      "name": "TransactionCreated",
      "type": "event"
    },
    {
      "anonymous": false,
      "inputs": [
        {
          "indexed": false,
          "internalType": "address",
          "name": "forwarder",
          "type": "address"
        }
      ],
      "name": "TrustedForwarderAdded",
      "type": "event"
    },
    {
      "anonymous": false,
      "inputs": [
        {
          "indexed": false,
          "internalType": "address",
          "name": "forwarder",
          "type": "address"
        }
      ],
      "name": "TrustedForwarderRemoved",
      "type": "event"
    },
    {
      "anonymous": false,
      "inputs": [
        {
          "indexed": true,
          "internalType": "address",
          "name": "implementation",
          "type": "address"
        }
      ],
      "name": "Upgraded",
      "type": "event"
    },
    {
      "inputs": [
        {
          "internalType": "address",
          "name": "_forwarder",
          "type": "address"
        }
      ],
      "name": "addTrustedForwarder",
      "outputs": [],
      "stateMutability": "nonpayable",
      "type": "function"
    },
    {
      "inputs": [
        {
          "internalType": "uint256",
          "name": "_transactionId",
          "type": "uint256"
        }
      ],
      "name": "appeal",
      "outputs": [],
      "stateMutability": "payable",
      "type": "function"
    },
    {
      "inputs": [
        {
          "internalType": "uint256",
          "name": "_platformId",
          "type": "uint256"
        },
        {
          "internalType": "address",
          "name": "_tokenAddress",
          "type": "address"
        }
      ],
      "name": "claim",
      "outputs": [],
      "stateMutability": "nonpayable",
      "type": "function"
    },
    {
      "inputs": [
        {
          "internalType": "uint256",
          "name": "_platformId",
          "type": "uint256"
        }
      ],
      "name": "claimAll",
      "outputs": [],
      "stateMutability": "nonpayable",
      "type": "function"
    },
    {
      "inputs": [
        {
          "internalType": "string",
          "name": "_metaEvidence",
          "type": "string"
        },
        {
          "internalType": "uint256",
          "name": "_serviceId",
          "type": "uint256"
        },
        {
          "internalType": "uint256",
          "name": "_proposalId",
          "type": "uint256"
        }
      ],
      "name": "createETHTransaction",
      "outputs": [
        {
          "internalType": "uint256",
          "name": "",
          "type": "uint256"
        }
      ],
      "stateMutability": "payable",
      "type": "function"
    },
    {
      "inputs": [
        {
          "internalType": "string",
          "name": "_metaEvidence",
          "type": "string"
        },
        {
          "internalType": "uint256",
          "name": "_serviceId",
          "type": "uint256"
        },
        {
          "internalType": "uint256",
          "name": "_proposalId",
          "type": "uint256"
        }
      ],
      "name": "createTokenTransaction",
      "outputs": [
        {
          "internalType": "uint256",
          "name": "",
          "type": "uint256"
        }
      ],
      "stateMutability": "nonpayable",
      "type": "function"
    },
    {
      "inputs": [
        {
          "internalType": "uint256",
          "name": "",
          "type": "uint256"
        }
      ],
      "name": "disputeIDtoTransactionID",
      "outputs": [
        {
          "internalType": "uint256",
          "name": "",
          "type": "uint256"
        }
      ],
      "stateMutability": "view",
      "type": "function"
    },
    {
      "inputs": [
        {
          "internalType": "address",
          "name": "_token",
          "type": "address"
        }
      ],
      "name": "getClaimableFeeBalance",
      "outputs": [
        {
          "internalType": "uint256",
          "name": "balance",
          "type": "uint256"
        }
      ],
      "stateMutability": "view",
      "type": "function"
    },
    {
      "inputs": [],
      "name": "getProtocolWallet",
      "outputs": [
        {
          "internalType": "address",
          "name": "",
          "type": "address"
        }
      ],
      "stateMutability": "view",
      "type": "function"
    },
    {
      "inputs": [
        {
          "internalType": "uint256",
          "name": "_transactionId",
          "type": "uint256"
        }
      ],
      "name": "getTransactionDetails",
      "outputs": [
        {
          "components": [
            {
              "internalType": "uint256",
              "name": "id",
              "type": "uint256"
            },
            {
              "internalType": "address",
              "name": "sender",
              "type": "address"
            },
            {
              "internalType": "address",
              "name": "receiver",
              "type": "address"
            },
            {
              "internalType": "address",
              "name": "token",
              "type": "address"
            },
            {
              "internalType": "uint256",
              "name": "amount",
              "type": "uint256"
            },
            {
              "internalType": "uint256",
              "name": "serviceId",
              "type": "uint256"
            },
            {
              "internalType": "uint256",
              "name": "proposalId",
              "type": "uint256"
            },
            {
              "internalType": "uint16",
              "name": "protocolEscrowFeeRate",
              "type": "uint16"
            },
            {
              "internalType": "uint16",
              "name": "originServiceFeeRate",
              "type": "uint16"
            },
            {
              "internalType": "uint16",
              "name": "originValidatedProposalFeeRate",
              "type": "uint16"
            },
            {
              "internalType": "uint256",
              "name": "disputeId",
              "type": "uint256"
            },
            {
              "internalType": "uint256",
              "name": "senderFee",
              "type": "uint256"
            },
            {
              "internalType": "uint256",
              "name": "receiverFee",
              "type": "uint256"
            },
            {
              "internalType": "uint256",
              "name": "lastInteraction",
              "type": "uint256"
            },
            {
              "internalType": "enum TalentLayerEscrow.Status",
              "name": "status",
              "type": "uint8"
            },
            {
              "internalType": "contract Arbitrator",
              "name": "arbitrator",
              "type": "address"
            },
            {
              "internalType": "bytes",
              "name": "arbitratorExtraData",
              "type": "bytes"
            },
            {
              "internalType": "uint256",
              "name": "arbitrationFeeTimeout",
              "type": "uint256"
            }
          ],
          "internalType": "struct TalentLayerEscrow.Transaction",
          "name": "transaction",
          "type": "tuple"
        }
      ],
      "stateMutability": "view",
      "type": "function"
    },
    {
      "inputs": [
        {
          "internalType": "address",
          "name": "_serviceRegistryAddress",
          "type": "address"
        },
        {
          "internalType": "address",
          "name": "_talentLayerIDAddress",
          "type": "address"
        },
        {
          "internalType": "address",
          "name": "_talentLayerPlatformIDAddress",
          "type": "address"
        },
        {
          "internalType": "address",
          "name": "_protocolWallet",
          "type": "address"
        }
      ],
      "name": "initialize",
      "outputs": [],
      "stateMutability": "nonpayable",
      "type": "function"
    },
    {
      "inputs": [
        {
          "internalType": "address",
          "name": "forwarder",
          "type": "address"
        }
      ],
      "name": "isTrustedForwarder",
      "outputs": [
        {
          "internalType": "bool",
          "name": "",
          "type": "bool"
        }
      ],
      "stateMutability": "view",
      "type": "function"
    },
    {
      "inputs": [],
      "name": "owner",
      "outputs": [
        {
          "internalType": "address",
          "name": "",
          "type": "address"
        }
      ],
      "stateMutability": "view",
      "type": "function"
    },
    {
      "inputs": [
        {
          "internalType": "uint256",
          "name": "_transactionId",
          "type": "uint256"
        }
      ],
      "name": "payArbitrationFeeByReceiver",
      "outputs": [],
      "stateMutability": "payable",
      "type": "function"
    },
    {
      "inputs": [
        {
          "internalType": "uint256",
          "name": "_transactionId",
          "type": "uint256"
        }
      ],
      "name": "payArbitrationFeeBySender",
      "outputs": [],
      "stateMutability": "payable",
      "type": "function"
    },
    {
      "inputs": [],
      "name": "protocolEscrowFeeRate",
      "outputs": [
        {
          "internalType": "uint16",
          "name": "",
          "type": "uint16"
        }
      ],
      "stateMutability": "view",
      "type": "function"
    },
    {
      "inputs": [],
      "name": "proxiableUUID",
      "outputs": [
        {
          "internalType": "bytes32",
          "name": "",
          "type": "bytes32"
        }
      ],
      "stateMutability": "view",
      "type": "function"
    },
    {
      "inputs": [
        {
          "internalType": "uint256",
          "name": "_transactionId",
          "type": "uint256"
        },
        {
          "internalType": "uint256",
          "name": "_amount",
          "type": "uint256"
        }
      ],
      "name": "reimburse",
      "outputs": [],
      "stateMutability": "nonpayable",
      "type": "function"
    },
    {
      "inputs": [
        {
          "internalType": "uint256",
          "name": "_transactionId",
          "type": "uint256"
        },
        {
          "internalType": "uint256",
          "name": "_amount",
          "type": "uint256"
        }
      ],
      "name": "release",
      "outputs": [],
      "stateMutability": "nonpayable",
      "type": "function"
    },
    {
      "inputs": [
        {
          "internalType": "address",
          "name": "_forwarder",
          "type": "address"
        }
      ],
      "name": "removeTrustedForwarder",
      "outputs": [],
      "stateMutability": "nonpayable",
      "type": "function"
    },
    {
      "inputs": [],
      "name": "renounceOwnership",
      "outputs": [],
      "stateMutability": "nonpayable",
      "type": "function"
    },
    {
      "inputs": [
        {
          "internalType": "uint256",
          "name": "_disputeID",
          "type": "uint256"
        },
        {
          "internalType": "uint256",
          "name": "_ruling",
          "type": "uint256"
        }
      ],
      "name": "rule",
      "outputs": [],
      "stateMutability": "nonpayable",
      "type": "function"
    },
    {
      "inputs": [
        {
          "internalType": "uint256",
          "name": "_transactionId",
          "type": "uint256"
        },
        {
          "internalType": "string",
          "name": "_evidence",
          "type": "string"
        }
      ],
      "name": "submitEvidence",
      "outputs": [],
      "stateMutability": "nonpayable",
      "type": "function"
    },
    {
      "inputs": [
        {
          "internalType": "uint256",
          "name": "_transactionId",
          "type": "uint256"
        }
      ],
      "name": "timeOutByReceiver",
      "outputs": [],
      "stateMutability": "nonpayable",
      "type": "function"
    },
    {
      "inputs": [
        {
          "internalType": "uint256",
          "name": "_transactionId",
          "type": "uint256"
        }
      ],
      "name": "timeOutBySender",
      "outputs": [],
      "stateMutability": "nonpayable",
      "type": "function"
    },
    {
      "inputs": [
        {
          "internalType": "address",
          "name": "newOwner",
          "type": "address"
        }
      ],
      "name": "transferOwnership",
      "outputs": [],
      "stateMutability": "nonpayable",
      "type": "function"
    },
    {
      "inputs": [
        {
          "internalType": "uint16",
          "name": "_protocolEscrowFeeRate",
          "type": "uint16"
        }
      ],
      "name": "updateProtocolEscrowFeeRate",
      "outputs": [],
      "stateMutability": "nonpayable",
      "type": "function"
    },
    {
      "inputs": [
        {
          "internalType": "address payable",
          "name": "_protocolWallet",
          "type": "address"
        }
      ],
      "name": "updateProtocolWallet",
      "outputs": [],
      "stateMutability": "nonpayable",
      "type": "function"
    },
    {
      "inputs": [
        {
          "internalType": "address",
          "name": "newImplementation",
          "type": "address"
        }
      ],
      "name": "upgradeTo",
      "outputs": [],
      "stateMutability": "nonpayable",
      "type": "function"
    },
    {
      "inputs": [
        {
          "internalType": "address",
          "name": "newImplementation",
          "type": "address"
        },
        {
          "internalType": "bytes",
          "name": "data",
          "type": "bytes"
        }
      ],
      "name": "upgradeToAndCall",
      "outputs": [],
      "stateMutability": "payable",
      "type": "function"
    }
  ],
  "bytecode": "0x60a0604052306080523480156200001557600080fd5b506200002062000026565b620000e8565b600054610100900460ff1615620000935760405162461bcd60e51b815260206004820152602760248201527f496e697469616c697a61626c653a20636f6e747261637420697320696e697469604482015266616c697a696e6760c81b606482015260840160405180910390fd5b60005460ff9081161015620000e6576000805460ff191660ff9081179091556040519081527f7f26b83ff96e1f2b6a682f133852f6798a09c465da95921460cefb38474024989060200160405180910390a15b565b608051615b8b6200012060003960008181610be401528181610c24015281816114ed0152818161152d01526115bc0152615b8b6000f3fe6080604052600436106101cd5760003560e01c80636930fd2a116100f7578063a6a7f0eb11610095578063f2fde38b11610064578063f2fde38b14610531578063f42cadc114610551578063f8c8765e14610571578063fe43a9921461059157600080fd5b8063a6a7f0eb146104b1578063ddd5e1b2146104d1578063e308a099146104f1578063eb63612d1461051157600080fd5b80637b44cdb5116100d15780637b44cdb51461045a5780637e69b7b01461046d5780638363def4146104805780638da5cb5b1461049357600080fd5b80636930fd2a146104145780636e72b45214610432578063715018a61461044557600080fd5b8063366a41201161016f5780634f1ef2861161013e5780634f1ef2861461036e57806352d1902d14610381578063572b6c05146103965780635a34257a146103df57600080fd5b8063366a4120146102ee5780633751d89c1461030e5780633de0c7ef1461032e578063419f648f1461034e57600080fd5b806326d00668116101ab57806326d006681461025f5780632fbe3b0314610281578063311a6c56146102ae5780633659cfe6146102ce57600080fd5b80630a1a47d6146101d25780630fa683d3146102055780631179643414610232575b600080fd5b3480156101de57600080fd5b506101f26101ed366004614d83565b6105b1565b6040519081526020015b60405180910390f35b34801561021157600080fd5b50610225610220366004614da0565b610731565b6040516101fc9190614e3b565b34801561023e57600080fd5b506102476109cb565b6040516001600160a01b0390911681526020016101fc565b34801561026b57600080fd5b5061027f61027a366004614d83565b6109e5565b005b34801561028d57600080fd5b506101f261029c366004614da0565b60d06020526000908152604090205481565b3480156102ba57600080fd5b5061027f6102c9366004614f84565b610a48565b3480156102da57600080fd5b5061027f6102e9366004614d83565b610bd9565b3480156102fa57600080fd5b5061027f610309366004614f84565b610cb6565b34801561031a57600080fd5b5061027f610329366004614d83565b610f83565b34801561033a57600080fd5b5061027f610349366004614da0565b610fdc565b34801561035a57600080fd5b506101f26103693660046150c0565b611161565b61027f61037c36600461510e565b6114e2565b34801561038d57600080fd5b506101f26115af565b3480156103a257600080fd5b506103cf6103b1366004614d83565b6001600160a01b031660009081526065602052604090205460ff1690565b60405190151581526020016101fc565b3480156103eb57600080fd5b5060ce5461040190600160a01b900461ffff1681565b60405161ffff90911681526020016101fc565b34801561042057600080fd5b5061027f61042f366004614da0565b50565b61027f610440366004614da0565b611662565b34801561045157600080fd5b5061027f611916565b61027f610468366004614da0565b61192a565b61027f61047b366004614da0565b611bbe565b6101f261048e3660046150c0565b611c8d565b34801561049f57600080fd5b506033546001600160a01b0316610247565b3480156104bd57600080fd5b5061027f6104cc366004615172565b61208d565b3480156104dd57600080fd5b5061027f6104ec3660046151af565b612326565b3480156104fd57600080fd5b5061027f61050c366004614d83565b6124e0565b34801561051d57600080fd5b5061027f61052c3660046151ef565b61250a565b34801561053d57600080fd5b5061027f61054c366004614d83565b612562565b34801561055d57600080fd5b5061027f61056c366004614da0565b6125d8565b34801561057d57600080fd5b5061027f61058c36600461520c565b61275b565b34801561059d57600080fd5b5061027f6105ac366004614f84565b6128cb565b6000806105bc612b93565b9050806001600160a01b03166105da6033546001600160a01b031690565b6001600160a01b031614156106255750506001600160a01b031660009081527f4239c2c8c3d9b94feb214b0f54d7c869ce1ceb63517be57644336cda4967a468602052604090205490565b60ce5460405163aa44caaf60e01b81526001600160a01b038381166004830152600092169063aa44caaf9060240160206040518083038186803b15801561066b57600080fd5b505afa15801561067f573d6000803e3d6000fd5b505050506040513d601f19601f820116820180604052508101906106a39190615268565b60ce5460405162f577a560e81b8152600481018390529192506001600160a01b03169063f577a5009060240160006040518083038186803b1580156106e757600080fd5b505afa1580156106fb573d6000803e3d6000fd5b50505060009182525060cb602090815260408083206001600160a01b039096168352949052929092205492915050565b50919050565b610739614b7f565b60ca5482106107635760405162461bcd60e51b815260040161075a90615281565b60405180910390fd5b600060ca8381548110610778576107786152b8565b90600052602060002090600f020190506000610792612b93565b60018301549091506001600160a01b03808316911614806107c2575060028201546001600160a01b038281169116145b61081f5760405162461bcd60e51b815260206004820152602860248201527f596f7520617265206e6f742072656c6174656420746f2074686973207472616e60448201526739b0b1ba34b7b71760c11b606482015260840161075a565b60408051610240810182528354815260018401546001600160a01b0390811660208301526002850154811692820192909252600384015490911660608201526004808401546080830152600584015460a0830152600684015460c0830152600784015461ffff80821660e08501526201000082048116610100850152600160201b9091041661012083015260088401546101408301526009840154610160830152600a840154610180830152600b8401546101a0830152600c84015484916101c084019160ff16908111156108f6576108f6614db9565b600481111561090757610907614db9565b8152600c82015461010090046001600160a01b03166020820152600d82018054604090920191610936906152ce565b80601f0160208091040260200160405190810160405280929190818152602001828054610962906152ce565b80156109af5780601f10610984576101008083540402835291602001916109af565b820191906000526020600020905b81548152906001019060200180831161099257829003601f168201915b50505050508152602001600e8201548152505092505050919050565b60006109d5612bcc565b5060cf546001600160a01b031690565b6109ed612bcc565b6001600160a01b038116600081815260656020908152604091829020805460ff1916600117905590519182527f3ef8564460ada92419608d823c014975d98f8104d7d1e68c222967ac6814cd9791015b60405180910390a150565b6000610a52612b93565b600084815260d0602052604081205460ca8054939450909283908110610a7a57610a7a6152b8565b90600052602060002090600f0201905080600c0160019054906101000a90046001600160a01b03166001600160a01b0316836001600160a01b031614610b0d5760405162461bcd60e51b815260206004820152602260248201527f5468652063616c6c6572206d757374206265207468652061726269747261746f604482015261391760f11b606482015260840161075a565b6003600c82015460ff166004811115610b2857610b28614db9565b14610b845760405162461bcd60e51b815260206004820152602660248201527f54686520646973707574652068617320616c7265616479206265656e2072657360448201526537b63b32b21760d11b606482015260840161075a565b84836001600160a01b03167f394027a5fa6e098a1191094d1719d6929b9abc535fcc0c8f448d6a4e7562227686604051610bc091815260200190565b60405180910390a3610bd28285612c45565b5050505050565b306001600160a01b037f0000000000000000000000000000000000000000000000000000000000000000161415610c225760405162461bcd60e51b815260040161075a90615303565b7f00000000000000000000000000000000000000000000000000000000000000006001600160a01b0316610c6b600080516020615aef833981519152546001600160a01b031690565b6001600160a01b031614610c915760405162461bcd60e51b815260040161075a9061534f565b610c9a81613576565b6040805160008082526020820190925261042f9183919061357e565b60ca548210610cd75760405162461bcd60e51b815260040161075a90615281565b600060ca8381548110610cec57610cec6152b8565b90600052602060002090600f02019050610d04612b93565b60018201546001600160a01b03908116911614610d335760405162461bcd60e51b815260040161075a9061539b565b6000600c82015460ff166004811115610d4e57610d4e614db9565b14610d6b5760405162461bcd60e51b815260040161075a906153c3565b8181600401541015610db55760405162461bcd60e51b815260206004820152601360248201527224b739bab33334b1b4b2b73a10333ab732399760691b604482015260640161075a565b81816004016000828254610dc9919061541f565b909155505060408051610240810182528254815260018301546001600160a01b0390811660208301526002840154811692820192909252600383015490911660608201526004808301546080830152600583015460a0830152600683015460c0830152600783015461ffff80821660e08501526201000082048116610100850152600160201b9091041661012083015260088301546101408301526009830154610160830152600a830154610180830152600b8301546101a0830152600c830154610f7e929184916101c084019160ff90911690811115610eac57610eac614db9565b6004811115610ebd57610ebd614db9565b8152600c82015461010090046001600160a01b03166020820152600d82018054604090920191610eec906152ce565b80601f0160208091040260200160405190810160405280929190818152602001828054610f18906152ce565b8015610f655780601f10610f3a57610100808354040283529160200191610f65565b820191906000526020600020905b815481529060010190602001808311610f4857829003601f168201915b50505050508152602001600e82015481525050836136f8565b505050565b610f8b612bcc565b6001600160a01b038116600081815260656020908152604091829020805460ff1916905590519182527fd2d636efcad0cea42e170256f4c5d8b1cd81e47b855557edaf44014e6cc4cee69101610a3d565b600060ca8281548110610ff157610ff16152b8565b60009182526020909120600f9091020190506001600c82015460ff16600481111561101e5761101e614db9565b146110815760405162461bcd60e51b815260206004820152602d60248201527f546865207472616e73616374696f6e206973206e6f742077616974696e67206f60448201526c37103a34329039b2b73232b91760991b606482015260840161075a565b600e810154600b820154611095904261541f565b10156110e35760405162461bcd60e51b815260206004820181905260248201527f54696d656f75742074696d6520686173206e6f7420706173736564207965742e604482015260640161075a565b60098101541561115257600981018054600091829055600183015460405191926001600160a01b0390911691839181818185875af1925050503d8060008114611148576040519150601f19603f3d011682016040523d82523d6000602084013e61114d565b606091505b505050505b61115d826002612c45565b5050565b600061116b614c4b565b611173614c8f565b6000806000806111838989613a90565b60ce5460e0840151604051630b7a459360e31b81526004810191909152949a5092985090965094506000916001600160a01b0390911690635bd22c989060240160006040518083038186803b1580156111db57600080fd5b505afa1580156111ef573d6000803e3d6000fd5b505050506040513d6000823e601f3d908101601f191682016040526112179190810190615496565b905080606001519250866080015161ffff168660e00151146112ca5760ce546080880151604051630b7a459360e31b815261ffff90911660048201526000916001600160a01b031690635bd22c989060240160006040518083038186803b15801561128157600080fd5b505afa158015611295573d6000803e3d6000fd5b505050506040513d6000823e601f3d908101601f191682016040526112bd9190810190615496565b6080015192506112d29050565b806080015191505b60006112e388606001518585613be8565b9050856001600160a01b03166112f7612b93565b6001600160a01b03161461131d5760405162461bcd60e51b815260040161075a9061539b565b60048751600481111561133257611332614db9565b1461137a5760405162461bcd60e51b815260206004820152601860248201527729b2b93b34b1b29039ba30ba3ab9903737ba1037b832b71760411b604482015260640161075a565b60008851600281111561138f5761138f614db9565b146113dc5760405162461bcd60e51b815260206004820152601c60248201527f50726f706f73616c20737461747573206e6f742070656e64696e672e00000000604482015260640161075a565b898860200151146114285760405162461bcd60e51b815260206004820152601660248201527524b731b7b93932b1ba10383937b837b9b0b61024a21760511b604482015260640161075a565b60006114458c8c87878760a001518860c001518960e00151613c51565b60cc546040516353eaf57560e11b8152600481018f9052602481018e9052604481018390529192506001600160a01b03169063a7d5eaea90606401600060405180830381600087803b15801561149a57600080fd5b505af11580156114ae573d6000803e3d6000fd5b505050506114c1878a6040015184613eff565b6114d0818e8b60200151613fcc565b985050505050505050505b9392505050565b306001600160a01b037f000000000000000000000000000000000000000000000000000000000000000016141561152b5760405162461bcd60e51b815260040161075a90615303565b7f00000000000000000000000000000000000000000000000000000000000000006001600160a01b0316611574600080516020615aef833981519152546001600160a01b031690565b6001600160a01b03161461159a5760405162461bcd60e51b815260040161075a9061534f565b6115a382613576565b61115d8282600161357e565b6000306001600160a01b037f0000000000000000000000000000000000000000000000000000000000000000161461164f5760405162461bcd60e51b815260206004820152603860248201527f555550535570677261646561626c653a206d757374206e6f742062652063616c60448201527f6c6564207468726f7567682064656c656761746563616c6c0000000000000000606482015260840161075a565b50600080516020615aef83398151915290565b600060ca8281548110611677576116776152b8565b60009182526020909120600c600f909202019081015490915061010090046001600160a01b03166116ba5760405162461bcd60e51b815260040161075a90615596565b6003600c82015460ff1660048111156116d5576116d5614db9565b106116f25760405162461bcd60e51b815260040161075a906155c3565b60028101546001600160a01b0316611708612b93565b6001600160a01b03161461175e5760405162461bcd60e51b815260206004820181905260248201527f5468652063616c6c6572206d757374206265207468652072656365697665722e604482015260640161075a565b600c81015460405163f7434ea960e01b815260009161010090046001600160a01b03169063f7434ea99061179990600d8601906004016156d7565b60206040518083038186803b1580156117b157600080fd5b505afa1580156117c5573d6000803e3d6000fd5b505050506040513d601f19601f820116820180604052508101906117e99190615268565b90503482600a0160008282546117ff91906156ea565b9091555050600a820154811461187d5760405162461bcd60e51b815260206004820152603760248201527f54686520726563656976657220666565206d75737420626520657175616c207460448201527f6f20746865206172626974726174696f6e20636f73742e000000000000000000606482015260840161075a565b42600b8301556040518390600080516020615b0f833981519152906118a9906000906001903490615712565b60405180910390a2808260090154101561190c57600c8201805460ff1916600117905560405183907fc74b9f7dedf2887cd3c113b6d8da9cea19e55c1116e25f1f0e1b72d7543179b5906118ff9060009061573c565b60405180910390a2505050565b610f7e8382614240565b61191e612bcc565b61192860006144c2565b565b600060ca828154811061193f5761193f6152b8565b60009182526020909120600c600f909202019081015490915061010090046001600160a01b03166119825760405162461bcd60e51b815260040161075a90615596565b6003600c82015460ff16600481111561199d5761199d614db9565b106119ba5760405162461bcd60e51b815260040161075a906155c3565b60018101546001600160a01b03166119d0612b93565b6001600160a01b031614611a265760405162461bcd60e51b815260206004820152601e60248201527f5468652063616c6c6572206d757374206265207468652073656e6465722e0000604482015260640161075a565b600c81015460405163f7434ea960e01b815260009161010090046001600160a01b03169063f7434ea990611a6190600d8601906004016156d7565b60206040518083038186803b158015611a7957600080fd5b505afa158015611a8d573d6000803e3d6000fd5b505050506040513d601f19601f82011682018060405250810190611ab19190615268565b905034826009016000828254611ac791906156ea565b909155505060098201548114611b3d5760405162461bcd60e51b815260206004820152603560248201527f5468652073656e64657220666565206d75737420626520657175616c20746f206044820152743a34329030b93134ba3930ba34b7b71031b7b9ba1760591b606482015260840161075a565b42600b8301556040518390600080516020615b0f83398151915290611b689060009081903490615712565b60405180910390a28082600a0154101561190c57600c8201805460ff1916600217905560405183907fc74b9f7dedf2887cd3c113b6d8da9cea19e55c1116e25f1f0e1b72d7543179b5906118ff9060019061573c565b600060ca8281548110611bd357611bd36152b8565b60009182526020909120600c600f909202019081015490915061010090046001600160a01b0316611c165760405162461bcd60e51b815260040161075a90615596565b600c810154600882015460405163093225f160e31b81526101009092046001600160a01b0316916349912f88913491611c579190600d87019060040161574f565b6000604051808303818588803b158015611c7057600080fd5b505af1158015611c84573d6000803e3d6000fd5b50505050505050565b6000611c97614c4b565b611c9f614c8f565b600080600080611caf8989613a90565b60ce5460e0840151604051630b7a459360e31b81526004810191909152949a5092985090965094506000916001600160a01b0390911690635bd22c989060240160006040518083038186803b158015611d0757600080fd5b505afa158015611d1b573d6000803e3d6000fd5b505050506040513d6000823e601f3d908101601f19168201604052611d439190810190615496565b905080606001519250866080015161ffff168660e0015114611df65760ce546080880151604051630b7a459360e31b815261ffff90911660048201526000916001600160a01b031690635bd22c989060240160006040518083038186803b158015611dad57600080fd5b505afa158015611dc1573d6000803e3d6000fd5b505050506040513d6000823e601f3d908101601f19168201604052611de99190810190615496565b608001519250611dfe9050565b806080015191505b6000611e0f88606001518585613be8565b9050856001600160a01b0316611e23612b93565b6001600160a01b031614611e495760405162461bcd60e51b815260040161075a9061539b565b803414611e8e5760405162461bcd60e51b81526020600482015260136024820152722737b716b6b0ba31b434b73390333ab732399760691b604482015260640161075a565b60408801516001600160a01b031615611ee95760405162461bcd60e51b815260206004820152601760248201527f50726f706f73616c20746f6b656e206e6f74204554482e000000000000000000604482015260640161075a565b89886020015114611f355760405162461bcd60e51b815260206004820152601660248201527524b731b7b93932b1ba10383937b837b9b0b61024a21760511b604482015260640161075a565b600487516004811115611f4a57611f4a614db9565b14611f925760405162461bcd60e51b815260206004820152601860248201527729b2b93b34b1b29039ba30ba3ab9903737ba1037b832b71760411b604482015260640161075a565b600088516002811115611fa757611fa7614db9565b14611ff45760405162461bcd60e51b815260206004820152601c60248201527f50726f706f73616c20737461747573206e6f742070656e64696e672e00000000604482015260640161075a565b60006120118c8c87878760a001518860c001518960e00151613c51565b60cc546040516353eaf57560e11b8152600481018f9052602481018e9052604481018390529192506001600160a01b03169063a7d5eaea90606401600060405180830381600087803b15801561206657600080fd5b505af115801561207a573d6000803e3d6000fd5b505050506114d0818e8b60200151613fcc565b6000612097612b93565b9050600060ca84815481106120ae576120ae6152b8565b60009182526020909120600c600f909202019081015490915061010090046001600160a01b03166120f15760405162461bcd60e51b815260040161075a90615596565b60018101546001600160a01b038381169116148061211e575060028101546001600160a01b038381169116145b6121815760405162461bcd60e51b815260206004820152602e60248201527f5468652063616c6c6572206d757374206265207468652073656e646572206f7260448201526d103a3432903932b1b2b4bb32b91760911b606482015260840161075a565b6004600c82015460ff16600481111561219c5761219c614db9565b106122045760405162461bcd60e51b815260206004820152603260248201527f4d757374206e6f742073656e642065766964656e63652069662074686520646960448201527139b83aba329034b9903932b9b7b63b32b21760711b606482015260840161075a565b816001600160a01b03168482600c0160019054906101000a90046001600160a01b03166001600160a01b03167fdccf2f8b2cc26eafcd61905cba744cff4b81d14740725f6376390dc6298a6a3c8660405161225f9190615768565b60405180910390a460cd5460405162438b6360e81b81526001600160a01b038481166004830152600092169063438b63009060240160206040518083038186803b1580156122ac57600080fd5b505afa1580156122c0573d6000803e3d6000fd5b505050506040513d601f19601f820116820180604052508101906122e49190615268565b905080857fd998ce0f89c38b0f93256f0b843a404a3a3c5055b75265623f7cb9c369a1dd62866040516123179190615768565b60405180910390a35050505050565b6000612330612b93565b6001600160a01b031661234b6033546001600160a01b031690565b6001600160a01b0316141561238a5782156123785760405162461bcd60e51b815260040161075a9061539b565b5060cf546001600160a01b0316612464565b60ce5460405162f577a560e81b8152600481018590526001600160a01b039091169063f577a5009060240160006040518083038186803b1580156123cd57600080fd5b505afa1580156123e1573d6000803e3d6000fd5b505060ce546040516331a9108f60e11b8152600481018790526001600160a01b039091169250636352211e915060240160206040518083038186803b15801561242957600080fd5b505afa15801561243d573d6000803e3d6000fd5b505050506040513d601f19601f82011682018060405250810190612461919061577b565b90505b600083815260cb602090815260408083206001600160a01b038616845290915281208054919055612496828483614514565b60408051858152602081018390526001600160a01b038516917f2227733fc4c8a9034cb58087dcf6995128b9c0233b038b03366aaf30c92b92d6910160405180910390a250505050565b6124e8612bcc565b60cf80546001600160a01b0319166001600160a01b0392909216919091179055565b612512612bcc565b60ce805461ffff60a01b1916600160a01b61ffff8416908102919091179091556040519081527f8339189e972f7fba792126e752aa8485af08710bce4a041c5bc3f9858acd713090602001610a3d565b61256a612bcc565b6001600160a01b0381166125cf5760405162461bcd60e51b815260206004820152602660248201527f4f776e61626c653a206e6577206f776e657220697320746865207a65726f206160448201526564647265737360d01b606482015260840161075a565b61042f816144c2565b600060ca82815481106125ed576125ed6152b8565b60009182526020909120600f9091020190506002600c82015460ff16600481111561261a5761261a614db9565b1461267f5760405162461bcd60e51b815260206004820152602f60248201527f546865207472616e73616374696f6e206973206e6f742077616974696e67206f60448201526e37103a3432903932b1b2b4bb32b91760891b606482015260840161075a565b600e810154600b820154612693904261541f565b10156126e15760405162461bcd60e51b815260206004820181905260248201527f54696d656f75742074696d6520686173206e6f7420706173736564207965742e604482015260640161075a565b600a8101541561275057600a81018054600091829055600283015460405191926001600160a01b0390911691839181818185875af1925050503d8060008114612746576040519150601f19603f3d011682016040523d82523d6000602084013e61274b565b606091505b505050505b61115d826001612c45565b600054610100900460ff161580801561277b5750600054600160ff909116105b806127955750303b158015612795575060005460ff166001145b6127f85760405162461bcd60e51b815260206004820152602e60248201527f496e697469616c697a61626c653a20636f6e747261637420697320616c72656160448201526d191e481a5b9a5d1a585b1a5e995960921b606482015260840161075a565b6000805460ff19166001179055801561281b576000805461ff0019166101001790555b6128236145da565b61282b614609565b60cc80546001600160a01b038088166001600160a01b03199283161790925560cd805487841690831617905560ce805486841690831617905560cf80549285169290911691909117905561287f606461250a565b8015610bd2576000805461ff0019169055604051600181527f7f26b83ff96e1f2b6a682f133852f6798a09c465da95921460cefb38474024989060200160405180910390a15050505050565b60ca5482106128ec5760405162461bcd60e51b815260040161075a90615281565b600060ca8381548110612901576129016152b8565b90600052602060002090600f02019050612919612b93565b60028201546001600160a01b039081169116146129485760405162461bcd60e51b815260040161075a9061539b565b6000600c82015460ff16600481111561296357612963614db9565b146129805760405162461bcd60e51b815260040161075a906153c3565b81816004015410156129ca5760405162461bcd60e51b815260206004820152601360248201527224b739bab33334b1b4b2b73a10333ab732399760691b604482015260640161075a565b818160040160008282546129de919061541f565b909155505060408051610240810182528254815260018301546001600160a01b0390811660208301526002840154811692820192909252600383015490911660608201526004808301546080830152600583015460a0830152600683015460c0830152600783015461ffff80821660e08501526201000082048116610100850152600160201b9091041661012083015260088301546101408301526009830154610160830152600a830154610180830152600b8301546101a0830152600c830154610f7e929184916101c084019160ff90911690811115612ac157612ac1614db9565b6004811115612ad257612ad2614db9565b8152600c82015461010090046001600160a01b03166020820152600d82018054604090920191612b01906152ce565b80601f0160208091040260200160405190810160405280929190818152602001828054612b2d906152ce565b8015612b7a5780601f10612b4f57610100808354040283529160200191612b7a565b820191906000526020600020905b815481529060010190602001808311612b5d57829003601f168201915b50505050508152602001600e8201548152505083614630565b600060143610801590612bb557503360009081526065602052604090205460ff165b15612bc7575060131936013560601c90565b503390565b612bd4612b93565b6001600160a01b0316612bef6033546001600160a01b031690565b6001600160a01b0316146119285760405162461bcd60e51b815260206004820181905260248201527f4f776e61626c653a2063616c6c6572206973206e6f7420746865206f776e6572604482015260640161075a565b600060ca8381548110612c5a57612c5a6152b8565b90600052602060002090600f02019050600260ff16821115612cb05760405162461bcd60e51b815260206004820152600f60248201526e24b73b30b634b210393ab634b7339760891b604482015260640161075a565b600181810154600283015460048085018054600987018054600a890180546000958690559285905593909355600c8801805460ff19169094179093556001600160a01b03948516959490931693909190871415612f0a576040516001600160a01b038616908390600081818185875af1925050503d8060008114612d50576040519150601f19603f3d011682016040523d82523d6000602084013e612d55565b606091505b505060408051610240810182528854815260018901546001600160a01b03908116602083015260028a0154811692820192909252600389015490911660608201526004808901546080830152600589015460a0830152600689015460c0830152600789015461ffff80821660e08501526201000082048116610100850152600160201b9091041661012083015260088901546101408301526009890154610160830152600a890154610180830152600b8901546101a0830152600c890154612f05935089916101c084019160ff1690811115612e3357612e33614db9565b6004811115612e4457612e44614db9565b8152600c82015461010090046001600160a01b03166020820152600d82018054604090920191612e73906152ce565b80601f0160208091040260200160405190810160405280929190818152602001828054612e9f906152ce565b8015612eec5780601f10612ec157610100808354040283529160200191612eec565b820191906000526020600020905b815481529060010190602001808311612ecf57829003601f168201915b50505050508152602001600e8201548152505084614630565b613532565b6002871415613111576040516001600160a01b038516908290600081818185875af1925050503d8060008114612f5c576040519150601f19603f3d011682016040523d82523d6000602084013e612f61565b606091505b505060408051610240810182528854815260018901546001600160a01b03908116602083015260028a0154811692820192909252600389015490911660608201526004808901546080830152600589015460a0830152600689015460c0830152600789015461ffff80821660e08501526201000082048116610100850152600160201b9091041661012083015260088901546101408301526009890154610160830152600a890154610180830152600b8901546101a0830152600c890154612f05935089916101c084019160ff169081111561303f5761303f614db9565b600481111561305057613050614db9565b8152600c82015461010090046001600160a01b03166020820152600d8201805460409092019161307f906152ce565b80601f01602080910402602001604051908101604052809291908181526020018280546130ab906152ce565b80156130f85780601f106130cd576101008083540402835291602001916130f8565b820191906000526020600020905b8154815290600101906020018083116130db57829003601f168201915b50505050508152602001600e82015481525050846136f8565b600061311e600284615798565b9050600061312d600286615798565b60408051610240810182528a54815260018b01546001600160a01b03908116602083015260028c015481169282019290925260038b015490911660608201526004808b0154608083015260058b015460a083015260068b015460c083015260078b015461ffff80821660e08501526201000082048116610100850152600160201b9091041661012083015260088b015461014083015260098b0154610160830152600a8b0154610180830152600b8b01546101a0830152600c8b01549293506132dd928b916101c084019160ff169081111561320b5761320b614db9565b600481111561321c5761321c614db9565b8152600c82015461010090046001600160a01b03166020820152600d8201805460409092019161324b906152ce565b80601f0160208091040260200160405190810160405280929190818152602001828054613277906152ce565b80156132c45780601f10613299576101008083540402835291602001916132c4565b820191906000526020600020905b8154815290600101906020018083116132a757829003601f168201915b50505050508152602001600e8201548152505082614630565b60408051610240810182528954815260018a01546001600160a01b03908116602083015260028b015481169282019290925260038a015490911660608201526004808a0154608083015260058a015460a083015260068a015460c083015260078a015461ffff80821660e08501526201000082048116610100850152600160201b9091041661012083015260088a015461014083015260098a0154610160830152600a8a0154610180830152600b8a01546101a0830152600c8a015461348d92918b916101c084019160ff909116908111156133bb576133bb614db9565b60048111156133cc576133cc614db9565b8152600c82015461010090046001600160a01b03166020820152600d820180546040909201916133fb906152ce565b80601f0160208091040260200160405190810160405280929190818152602001828054613427906152ce565b80156134745780601f1061344957610100808354040283529160200191613474565b820191906000526020600020905b81548152906001019060200180831161345757829003601f168201915b50505050508152602001600e82015481525050826136f8565b6040516001600160a01b038816908390600081818185875af1925050503d80600081146134d6576040519150601f19603f3d011682016040523d82523d6000602084013e6134db565b606091505b50506040516001600160a01b03881691508390600081818185875af1925050503d8060008114613527576040519150601f19603f3d011682016040523d82523d6000602084013e61352c565b606091505b50505050505b877f76b363d70472d47d20e4119f3625c05ed37ca51b1d9e1cd8b87d8c20530640f38860405161356491815260200190565b60405180910390a25050505050505050565b61042f612bcc565b7f4910fdfa16fed3260ed0e7147f7cc6da11a60208b5b9406d12a635614ffd91435460ff16156135b157610f7e836146f4565b826001600160a01b03166352d1902d6040518163ffffffff1660e01b815260040160206040518083038186803b1580156135ea57600080fd5b505afa92505050801561361a575060408051601f3d908101601f1916820190925261361791810190615268565b60015b61367d5760405162461bcd60e51b815260206004820152602e60248201527f45524331393637557067726164653a206e657720696d706c656d656e7461746960448201526d6f6e206973206e6f74205555505360901b606482015260840161075a565b600080516020615aef83398151915281146136ec5760405162461bcd60e51b815260206004820152602960248201527f45524331393637557067726164653a20756e737570706f727465642070726f786044820152681a58589b195555525160ba1b606482015260840161075a565b50610f7e838383614790565b60cc5460a083015160405163ef0e239b60e01b815260048101919091526000916001600160a01b03169063ef0e239b9060240160006040518083038186803b15801561374357600080fd5b505afa158015613757573d6000803e3d6000fd5b505050506040513d6000823e601f3d908101601f1916820160405261377f91908101906157c9565b60e0015160cc5460a085015160c086015160405163aba2100960e01b8152600481019290925260248201529192506000916001600160a01b039091169063aba210099060440160006040518083038186803b1580156137dd57600080fd5b505afa1580156137f1573d6000803e3d6000fd5b505050506040513d6000823e601f3d908101601f191682016040526138199190810190615887565b6080015161ffff169050600061271061ffff16848660e0015161ffff166138409190615941565b61384a9190615798565b9050600061271061ffff168587610100015161ffff1661386a9190615941565b6138749190615798565b9050600061271061ffff168688610120015161ffff166138949190615941565b61389e9190615798565b600080805260cb602090815260608a01516001600160a01b031682527f4239c2c8c3d9b94feb214b0f54d7c869ce1ceb63517be57644336cda4967a468905260408120805492935085929091906138f69084906156ea565b9091555050600085815260cb6020908152604080832060608b01516001600160a01b03168452909152812080548492906139319084906156ea565b9091555050600084815260cb6020908152604080832060608b01516001600160a01b031684529091528120805483929061396c9084906156ea565b9250508190555061398687604001518860600151886147b5565b60608088015160a089015160408051898152602081019290925281018590526001600160a01b03909116917f17c48ab8e1617182f35ae77fd7da7f4e15dedf7018aa371a4481c20c790b6546910160405180910390a260608088015160a089015160408051888152602081019290925281018590526001600160a01b03909116917f3476ed3eea2cdac584273bc8830824c8ca42ca2a99e9f144a87a1cdbbf9dd15a910160405180910390a27f7eb4d07819d8300e8f1d0a2a11814657be694ee6dbfd0208fdabed36a19e954f87600001516000888a606001518b60a00151604051613a76959493929190615960565b60405180910390a1611c848760a001518860800151614819565b613a98614c4b565b613aa0614c8f565b6000806000613aaf87876148b9565b90506000613abc88614948565b60cd5460208201516040516331a9108f60e11b81529293506000926001600160a01b0390921691636352211e91613af99160040190815260200190565b60206040518083038186803b158015613b1157600080fd5b505afa158015613b25573d6000803e3d6000fd5b505050506040513d601f19601f82011682018060405250810190613b49919061577b565b60cd5460208501516040516331a9108f60e11b81529293506000926001600160a01b0390921691636352211e91613b869160040190815260200190565b60206040518083038186803b158015613b9e57600080fd5b505afa158015613bb2573d6000803e3d6000fd5b505050506040513d601f19601f82011682018060405250810190613bd6919061577b565b939a9299509097509195509350505050565b6000612710613bfb61ffff841686615941565b613c0961ffff861687615941565b60ce54613c2190600160a01b900461ffff1688615941565b613c2b91906156ea565b613c3591906156ea565b613c3f9190615798565b613c4990856156ea565b949350505050565b6000613c5b614c4b565b613c63614c8f565b600080613c708c8c613a90565b80945081955082965083975050505050600060ca80549050905060ca604051806102400160405280838152602001856001600160a01b03168152602001846001600160a01b0316815260200187604001516001600160a01b03168152602001876060015181526020018f81526020018e815260200160ce60149054906101000a900461ffff1661ffff1681526020018d61ffff1681526020018c61ffff16815260200160008152602001600081526020016000815260200142815260200160006004811115613d4157613d41614db9565b81526001600160a01b03808d1660208084019190915260408084018e905260609384018d90528554600181810188556000978852968390208651600f909202019081559185015182870180549185166001600160a01b03199283161790559085015160028301805491851691831691909117905592840151600382018054919093169316929092179055608082015160048083019190915560a0830151600583015560c0830151600683015560e083015160078301805461010086015161012087015161ffff908116600160201b0265ffff0000000019928216620100000263ffffffff199094169190951617919091171691909117905561014083015160088301556101608301516009830155610180830151600a8301556101a0830151600b8301556101c0830151600c83018054949593949193909260ff19909216918490811115613e9157613e91614db9565b02179055506101e0820151600c820180546001600160a01b0390921661010002610100600160a81b03199092169190911790556102008201518051613ee091600d840191602090910190614cd5565b506102209190910151600e909101559c9b505050505050505050505050565b6040516323b872dd60e01b81526001600160a01b038481166004830152306024830152604482018390528316906323b872dd90606401602060405180830381600087803b158015613f4f57600080fd5b505af1158015613f63573d6000803e3d6000fd5b505050506040513d601f19601f82011682018060405250810190613f87919061599c565b610f7e5760405162461bcd60e51b8152602060048201526016602482015275151c985b9cd9995c881b5d5cdd081b9bdd0819985a5b60521b604482015260640161075a565b600060ca8481548110613fe157613fe16152b8565b60009182526020822060cd54600f9290920201600181015460405162438b6360e81b81526001600160a01b0391821660048201529194509091169063438b63009060240160206040518083038186803b15801561403d57600080fd5b505afa158015614051573d6000803e3d6000fd5b505050506040513d601f19601f820116820180604052508101906140759190615268565b60cd54600284015460405162438b6360e81b81526001600160a01b03918216600482015292935060009291169063438b63009060240160206040518083038186803b1580156140c357600080fd5b505afa1580156140d7573d6000803e3d6000fd5b505050506040513d601f19601f820116820180604052508101906140fb9190615268565b90507f1ccb16db9d1499f0b4e030d49bd6575a6ac51f3970af8752ac277fdf4505763b8683838660030160009054906101000a90046001600160a01b03168760040154886005015460ce60149054906101000a900461ffff168a60070160029054906101000a900461ffff168b60070160049054906101000a900461ffff168c600c0160019054906101000a90046001600160a01b03168d600d018e600e01546040516141b39c9b9a999897969594939291906159be565b60405180910390a1857f61606860eb6c87306811e2695215385101daab53bd6ab4e9f9049aead9363c7d866040516141eb9190615768565b60405180910390a26005830154604080519182526020820186905281018790527fffc7643b52fc7134d23e37eac3c5c4bdad5cf04655528f24663504e15adc4a4a9060600160405180910390a1505050505050565b600060ca8381548110614255576142556152b8565b60009182526020909120600c600f90920201908101805460ff19166003179081905560405163c13517e160e01b81529192506001600160a01b036101009091041690819063c13517e19085906142b590600290600d880190600401615a45565b6020604051808303818588803b1580156142ce57600080fd5b505af11580156142e2573d6000803e3d6000fd5b50505050506040513d601f19601f820116820180604052508101906143079190615268565b60088301818155600091825260d0602090815260409283902087905590548251878152918201879052916001600160a01b038416917f74baab670a4015ab2f1b467c5252a96141a2573f2908e58a92081e80d3cfde3d910160405180910390a38282600901541115614412576000838360090154614385919061541f565b6009840185905560018401546040519192506001600160a01b0316908290600081818185875af1925050503d80600081146143dc576040519150601f19603f3d011682016040523d82523d6000602084013e6143e1565b606091505b50505084600080516020615b0f833981519152600160003460405161440893929190615712565b60405180910390a2505b8282600a015411156144bc5760008383600a0154614430919061541f565b600a840185905560028401546040519192506001600160a01b0316908290600081818185875af1925050503d8060008114614487576040519150601f19603f3d011682016040523d82523d6000602084013e61448c565b606091505b50505084600080516020615b0f833981519152600180346040516144b293929190615712565b60405180910390a2505b50505050565b603380546001600160a01b038381166001600160a01b0319831681179093556040519116919082907f8be0079c531659141344cd1fd0a4f28419497f9722a3daafe3b4186f6b6457e090600090a35050565b6001600160a01b038216614558576040516001600160a01b0384169082156108fc029083906000818181858888f193505050501580156144bc573d6000803e3d6000fd5b60405163a9059cbb60e01b81526001600160a01b0384811660048301526024820183905283169063a9059cbb90604401602060405180830381600087803b1580156145a257600080fd5b505af11580156145b6573d6000803e3d6000fd5b505050506040513d601f19601f820116820180604052508101906144bc919061599c565b600054610100900460ff166146015760405162461bcd60e51b815260040161075a90615a61565b6119286149d6565b600054610100900460ff166119285760405162461bcd60e51b815260040161075a90615a61565b600061271061ffff16828461010001518561012001518660e001516146559190615aac565b61465f9190615aac565b61ffff1661466d9190615941565b6146779190615798565b61468190836156ea565b905061469683602001518460600151836147b5565b7f7eb4d07819d8300e8f1d0a2a11814657be694ee6dbfd0208fdabed36a19e954f836000015160018486606001518760a001516040516146da959493929190615960565b60405180910390a1610f7e8360a001518460800151614819565b6001600160a01b0381163b6147615760405162461bcd60e51b815260206004820152602d60248201527f455243313936373a206e657720696d706c656d656e746174696f6e206973206e60448201526c1bdd08184818dbdb9d1c9858dd609a1b606482015260840161075a565b600080516020615aef83398151915280546001600160a01b0319166001600160a01b0392909216919091179055565b61479983614a0d565b6000825111806147a65750805b15610f7e576144bc8383614a4d565b6001600160a01b038216614558576040516001600160a01b038416908290600081818185875af1925050503d806000811461480c576040519150601f19603f3d011682016040523d82523d6000602084013e614811565b606091505b505050505050565b8061115d5760cc54604051631271956760e21b8152600481018490526001600160a01b03909116906349c6559c90602401600060405180830381600087803b15801561486457600080fd5b505af1158015614878573d6000803e3d6000fd5b505050507f6bef1b5e95b741d6e665eb9b5c2d3e1203c46a771451055a9d41e0b8ff4510b7826040516148ad91815260200190565b60405180910390a15050565b6148c1614c4b565b60cc5460405163aba2100960e01b815260048101859052602481018490526001600160a01b039091169063aba210099060440160006040518083038186803b15801561490c57600080fd5b505afa158015614920573d6000803e3d6000fd5b505050506040513d6000823e601f3d908101601f191682016040526114db9190810190615887565b614950614c8f565b60cc5460405163ef0e239b60e01b8152600481018490526001600160a01b039091169063ef0e239b9060240160006040518083038186803b15801561499457600080fd5b505afa1580156149a8573d6000803e3d6000fd5b505050506040513d6000823e601f3d908101601f191682016040526149d091908101906157c9565b92915050565b600054610100900460ff166149fd5760405162461bcd60e51b815260040161075a90615a61565b611928614a08612b93565b6144c2565b614a16816146f4565b6040516001600160a01b038216907fbc7cd75a20ee27fd9adebab32041f755214dbc6bffa90cc0225b39da2e5c2d3b90600090a250565b60606001600160a01b0383163b614ab55760405162461bcd60e51b815260206004820152602660248201527f416464726573733a2064656c65676174652063616c6c20746f206e6f6e2d636f6044820152651b9d1c9858dd60d21b606482015260840161075a565b600080846001600160a01b031684604051614ad09190615ad2565b600060405180830381855af49150503d8060008114614b0b576040519150601f19603f3d011682016040523d82523d6000602084013e614b10565b606091505b5091509150614b388282604051806060016040528060278152602001615b2f60279139614b41565b95945050505050565b60608315614b505750816114db565b6114db8383815115614b655781518083602001fd5b8060405162461bcd60e51b815260040161075a9190615768565b6040518061024001604052806000815260200160006001600160a01b0316815260200160006001600160a01b0316815260200160006001600160a01b03168152602001600081526020016000815260200160008152602001600061ffff168152602001600061ffff168152602001600061ffff1681526020016000815260200160008152602001600081526020016000815260200160006004811115614c2757614c27614db9565b815260200160006001600160a01b0316815260200160608152602001600081525090565b6040805160c0810190915280600081526020016000815260200160006001600160a01b0316815260200160008152602001600061ffff168152602001606081525090565b6040805161010081019091528060008152602001600081526020016000815260200160008152602001606081526020016000815260200160008152602001600081525090565b828054614ce1906152ce565b90600052602060002090601f016020900481019282614d035760008555614d49565b82601f10614d1c57805160ff1916838001178555614d49565b82800160010185558215614d49579182015b82811115614d49578251825591602001919060010190614d2e565b50614d55929150614d59565b5090565b5b80821115614d555760008155600101614d5a565b6001600160a01b038116811461042f57600080fd5b600060208284031215614d9557600080fd5b81356114db81614d6e565b600060208284031215614db257600080fd5b5035919050565b634e487b7160e01b600052602160045260246000fd5b60058110614ddf57614ddf614db9565b9052565b60005b83811015614dfe578181015183820152602001614de6565b838111156144bc5750506000910152565b60008151808452614e27816020860160208601614de3565b601f01601f19169290920160200192915050565b602081528151602082015260006020830151614e6260408401826001600160a01b03169052565b5060408301516001600160a01b03811660608401525060608301516001600160a01b038116608084015250608083015160a083015260a083015160c083015260c083015160e083015260e0830151610100614ec28185018361ffff169052565b8401519050610120614ed98482018361ffff169052565b8401519050610140614ef08482018361ffff169052565b84015161016084810191909152840151610180808501919091528401516101a0808501919091528401516101c08085019190915284015190506101e0614f3881850183614dcf565b8401519050610200614f54848201836001600160a01b03169052565b808501519150506102406102208181860152614f74610260860184614e0f565b9501519301929092525090919050565b60008060408385031215614f9757600080fd5b50508035926020909101359150565b634e487b7160e01b600052604160045260246000fd5b604051610100810167ffffffffffffffff81118282101715614fe057614fe0614fa6565b60405290565b60405160c0810167ffffffffffffffff81118282101715614fe057614fe0614fa6565b604051601f8201601f1916810167ffffffffffffffff8111828210171561503257615032614fa6565b604052919050565b600067ffffffffffffffff82111561505457615054614fa6565b50601f01601f191660200190565b60006150756150708461503a565b615009565b905082815283838301111561508957600080fd5b828260208301376000602084830101529392505050565b600082601f8301126150b157600080fd5b6114db83833560208501615062565b6000806000606084860312156150d557600080fd5b833567ffffffffffffffff8111156150ec57600080fd5b6150f8868287016150a0565b9660208601359650604090950135949350505050565b6000806040838503121561512157600080fd5b823561512c81614d6e565b9150602083013567ffffffffffffffff81111561514857600080fd5b8301601f8101851361515957600080fd5b61516885823560208401615062565b9150509250929050565b6000806040838503121561518557600080fd5b82359150602083013567ffffffffffffffff8111156151a357600080fd5b615168858286016150a0565b600080604083850312156151c257600080fd5b8235915060208301356151d481614d6e565b809150509250929050565b61ffff8116811461042f57600080fd5b60006020828403121561520157600080fd5b81356114db816151df565b6000806000806080858703121561522257600080fd5b843561522d81614d6e565b9350602085013561523d81614d6e565b9250604085013561524d81614d6e565b9150606085013561525d81614d6e565b939692955090935050565b60006020828403121561527a57600080fd5b5051919050565b6020808252601b908201527f4e6f7420612076616c6964207472616e73616374696f6e2069642e0000000000604082015260600190565b634e487b7160e01b600052603260045260246000fd5b600181811c908216806152e257607f821691505b6020821081141561072b57634e487b7160e01b600052602260045260246000fd5b6020808252602c908201527f46756e6374696f6e206d7573742062652063616c6c6564207468726f7567682060408201526b19195b1959d85d1958d85b1b60a21b606082015260800190565b6020808252602c908201527f46756e6374696f6e206d7573742062652063616c6c6564207468726f7567682060408201526b6163746976652070726f787960a01b606082015260800190565b6020808252600e908201526d20b1b1b2b9b9903232b734b2b21760911b604082015260600190565b60208082526026908201527f546865207472616e73616374696f6e2073686f756c646e277420626520646973604082015265383aba32b21760d11b606082015260800190565b634e487b7160e01b600052601160045260246000fd5b60008282101561543157615431615409565b500390565b600082601f83011261544757600080fd5b81516154556150708261503a565b81815284602083860101111561546a57600080fd5b613c49826020830160208701614de3565b8051615486816151df565b919050565b805161548681614d6e565b6000602082840312156154a857600080fd5b815167ffffffffffffffff808211156154c057600080fd5b9083019061010082860312156154d557600080fd5b6154dd614fbc565b825181526020830151828111156154f357600080fd5b6154ff87828601615436565b60208301525060408301518281111561551757600080fd5b61552387828601615436565b6040830152506155356060840161547b565b60608201526155466080840161547b565b608082015261555760a0840161548b565b60a082015260c08301518281111561556e57600080fd5b61557a87828601615436565b60c08301525060e083015160e082015280935050505092915050565b60208082526013908201527220b93134ba3930ba37b9103737ba1039b2ba1760691b604082015260600190565b6020808252604e908201527f446973707574652068617320616c7265616479206265656e206372656174656460408201527f206f72206265636175736520746865207472616e73616374696f6e206861732060608201526d3132b2b71032bc32b1baba32b21760911b608082015260a00190565b8054600090600181811c908083168061565157607f831692505b602080841082141561567357634e487b7160e01b600052602260045260246000fd5b8388526020880182801561568e576001811461569f576156ca565b60ff198716825282820197506156ca565b60008981526020902060005b878110156156c4578154848201529086019084016156ab565b83019850505b5050505050505092915050565b6020815260006114db6020830184615637565b600082198211156156fd576156fd615409565b500190565b6002811061042f5761042f614db9565b6060810161571f85615702565b84825261572b84615702565b602082019390935260400152919050565b6020810161574983615702565b91905290565b828152604060208201526000613c496040830184615637565b6020815260006114db6020830184614e0f565b60006020828403121561578d57600080fd5b81516114db81614d6e565b6000826157b557634e487b7160e01b600052601260045260246000fd5b500490565b80516005811061548657600080fd5b6000602082840312156157db57600080fd5b815167ffffffffffffffff808211156157f357600080fd5b90830190610100828603121561580857600080fd5b615810614fbc565b615819836157ba565b815260208301516020820152604083015160408201526060830151606082015260808301518281111561584b57600080fd5b61585787828601615436565b60808301525060a083015160a082015260c083015160c082015260e083015160e082015280935050505092915050565b60006020828403121561589957600080fd5b815167ffffffffffffffff808211156158b157600080fd5b9083019060c082860312156158c557600080fd5b6158cd614fe6565b8251600381106158dc57600080fd5b8152602083810151908201526158f46040840161548b565b60408201526060830151606082015261590f6080840161547b565b608082015260a08301518281111561592657600080fd5b61593287828601615436565b60a08301525095945050505050565b600081600019048311821515161561595b5761595b615409565b500290565b85815260a0810161597086615702565b602082019590955260408101939093526001600160a01b03919091166060830152608090910152919050565b6000602082840312156159ae57600080fd5b815180151581146114db57600080fd5b8c8152602081018c9052604081018b90526001600160a01b038a81166060830152608082018a905260a0820189905261ffff88811660c084015287811660e0840152861661010083015284166101208201526101806101408201819052600090615a2a83820186615637565b915050826101608301529d9c50505050505050505050505050565b60ff83168152604060208201526000613c496040830184615637565b6020808252602b908201527f496e697469616c697a61626c653a20636f6e7472616374206973206e6f74206960408201526a6e697469616c697a696e6760a81b606082015260800190565b600061ffff808316818516808303821115615ac957615ac9615409565b01949350505050565b60008251615ae4818460208701614de3565b919091019291505056fe360894a13ba1a3210667c828492db98dca3e2076cc3735a920a3ca505d382bbc73e533bc8a993eccbc1023beebad0020f6b6c3639f83062f00fc194b4d1172ba416464726573733a206c6f772d6c6576656c2064656c65676174652063616c6c206661696c6564a2646970667358221220469bc8404ceb9ef33c7e03994f9fdc6a2dfc9de89b7bd7bd203d937fbb4b0a4264736f6c63430008090033",
  "linkReferences": {},
  "deployedLinkReferences": {}
}