{
  "_format": "hh-sol-artifact-1",
  "contractName": "TalentLayerPlatformID",
  "sourceName": "contracts/TalentLayerPlatformID.sol",
  "abi": [
    {
      "inputs": [],
      "stateMutability": "nonpayable",
      "type": "constructor"
    },
    {
      "inputs": [],
      "name": "HandleContainsInvalidCharacters",
      "type": "error"
    },
    {
      "inputs": [],
      "name": "HandleFirstCharInvalid",
      "type": "error"
    },
    {
      "inputs": [],
      "name": "HandleLengthInvalid",
      "type": "error"
    },
    {
      "anonymous": false,
      "inputs": [
        {
          "indexed": false,
          "internalType": "address",
          "name": "previousAdmin",
          "type": "address"
        },
        {
          "indexed": false,
          "internalType": "address",
          "name": "newAdmin",
          "type": "address"
        }
      ],
      "name": "AdminChanged",
      "type": "event"
    },
    {
      "anonymous": false,
      "inputs": [
        {
          "indexed": true,
          "internalType": "address",
          "name": "owner",
          "type": "address"
        },
        {
          "indexed": true,
          "internalType": "address",
          "name": "approved",
          "type": "address"
        },
        {
          "indexed": true,
          "internalType": "uint256",
          "name": "tokenId",
          "type": "uint256"
        }
      ],
      "name": "Approval",
      "type": "event"
    },
    {
      "anonymous": false,
      "inputs": [
        {
          "indexed": true,
          "internalType": "address",
          "name": "owner",
          "type": "address"
        },
        {
          "indexed": true,
          "internalType": "address",
          "name": "operator",
          "type": "address"
        },
        {
          "indexed": false,
          "internalType": "bool",
          "name": "approved",
          "type": "bool"
        }
      ],
      "name": "ApprovalForAll",
      "type": "event"
    },
    {
      "anonymous": false,
      "inputs": [
        {
          "indexed": false,
          "internalType": "uint256",
          "name": "_platformId",
          "type": "uint256"
        },
        {
          "indexed": false,
          "internalType": "uint256",
          "name": "_arbitrationFeeTimeout",
          "type": "uint256"
        }
      ],
      "name": "ArbitrationFeeTimeoutUpdated",
      "type": "event"
    },
    {
      "anonymous": false,
      "inputs": [
        {
          "indexed": false,
          "internalType": "uint256",
          "name": "_platformId",
          "type": "uint256"
        },
        {
          "indexed": false,
          "internalType": "contract Arbitrator",
          "name": "_arbitrator",
          "type": "address"
        },
        {
          "indexed": false,
          "internalType": "bytes",
          "name": "_extraData",
          "type": "bytes"
        }
      ],
      "name": "ArbitratorUpdated",
      "type": "event"
    },
    {
      "anonymous": false,
      "inputs": [
        {
          "indexed": true,
          "internalType": "address",
          "name": "beacon",
          "type": "address"
        }
      ],
      "name": "BeaconUpgraded",
      "type": "event"
    },
    {
      "anonymous": false,
      "inputs": [
        {
          "indexed": true,
          "internalType": "uint256",
          "name": "_platformId",
          "type": "uint256"
        },
        {
          "indexed": false,
          "internalType": "string",
          "name": "_newCid",
          "type": "string"
        }
      ],
      "name": "CidUpdated",
      "type": "event"
    },
    {
      "anonymous": false,
      "inputs": [
        {
          "indexed": false,
          "internalType": "uint8",
          "name": "version",
          "type": "uint8"
        }
      ],
      "name": "Initialized",
      "type": "event"
    },
    {
      "anonymous": false,
      "inputs": [
        {
          "indexed": false,
          "internalType": "uint256",
          "name": "_minArbitrationFeeTimeout",
          "type": "uint256"
        }
      ],
      "name": "MinArbitrationFeeTimeoutUpdated",
      "type": "event"
    },
    {
      "anonymous": false,
      "inputs": [
        {
          "indexed": true,
          "internalType": "address",
          "name": "_platformOwnerAddress",
          "type": "address"
        },
        {
          "indexed": false,
          "internalType": "uint256",
          "name": "_platformId",
          "type": "uint256"
        },
        {
          "indexed": false,
          "internalType": "string",
          "name": "_platformName",
          "type": "string"
        },
        {
          "indexed": false,
          "internalType": "uint256",
          "name": "_fee",
          "type": "uint256"
        },
        {
          "indexed": false,
          "internalType": "uint256",
          "name": "_arbitrationFeeTimeout",
          "type": "uint256"
        }
      ],
      "name": "Mint",
      "type": "event"
    },
    {
      "anonymous": false,
      "inputs": [
        {
          "indexed": false,
          "internalType": "uint256",
          "name": "_mintFee",
          "type": "uint256"
        }
      ],
      "name": "MintFeeUpdated",
      "type": "event"
    },
    {
      "anonymous": false,
      "inputs": [
        {
          "indexed": false,
          "internalType": "enum TalentLayerPlatformID.MintStatus",
          "name": "_mintStatus",
          "type": "uint8"
        }
      ],
      "name": "MintStatusUpdated",
      "type": "event"
    },
    {
      "anonymous": false,
      "inputs": [
        {
          "indexed": false,
          "internalType": "uint256",
          "name": "_platformId",
          "type": "uint256"
        },
        {
          "indexed": false,
          "internalType": "uint16",
          "name": "_originServiceFeeRate",
          "type": "uint16"
        }
      ],
      "name": "OriginServiceFeeRateUpdated",
      "type": "event"
    },
    {
      "anonymous": false,
      "inputs": [
        {
          "indexed": false,
          "internalType": "uint256",
          "name": "_platformId",
          "type": "uint256"
        },
        {
          "indexed": false,
          "internalType": "uint16",
          "name": "_originValidatedProposalFeeRate",
          "type": "uint16"
        }
      ],
      "name": "OriginValidatedProposalFeeRateUpdated",
      "type": "event"
    },
    {
      "anonymous": false,
      "inputs": [
        {
          "indexed": false,
          "internalType": "uint256",
          "name": "_platformId",
          "type": "uint256"
        },
        {
          "indexed": false,
          "internalType": "uint256",
          "name": "_proposalPostingFee",
          "type": "uint256"
        }
      ],
      "name": "ProposalPostingFeeUpdated",
      "type": "event"
    },
    {
      "anonymous": false,
      "inputs": [
        {
          "indexed": true,
          "internalType": "bytes32",
          "name": "role",
          "type": "bytes32"
        },
        {
          "indexed": true,
          "internalType": "bytes32",
          "name": "previousAdminRole",
          "type": "bytes32"
        },
        {
          "indexed": true,
          "internalType": "bytes32",
          "name": "newAdminRole",
          "type": "bytes32"
        }
      ],
      "name": "RoleAdminChanged",
      "type": "event"
    },
    {
      "anonymous": false,
      "inputs": [
        {
          "indexed": true,
          "internalType": "bytes32",
          "name": "role",
          "type": "bytes32"
        },
        {
          "indexed": true,
          "internalType": "address",
          "name": "account",
          "type": "address"
        },
        {
          "indexed": true,
          "internalType": "address",
          "name": "sender",
          "type": "address"
        }
      ],
      "name": "RoleGranted",
      "type": "event"
    },
    {
      "anonymous": false,
      "inputs": [
        {
          "indexed": true,
          "internalType": "bytes32",
          "name": "role",
          "type": "bytes32"
        },
        {
          "indexed": true,
          "internalType": "address",
          "name": "account",
          "type": "address"
        },
        {
          "indexed": true,
          "internalType": "address",
          "name": "sender",
          "type": "address"
        }
      ],
      "name": "RoleRevoked",
      "type": "event"
    },
    {
      "anonymous": false,
      "inputs": [
        {
          "indexed": false,
          "internalType": "uint256",
          "name": "_platformId",
          "type": "uint256"
        },
        {
          "indexed": false,
          "internalType": "uint256",
          "name": "_servicePostingFee",
          "type": "uint256"
        }
      ],
      "name": "ServicePostingFeeUpdated",
      "type": "event"
    },
    {
      "anonymous": false,
      "inputs": [
        {
          "indexed": false,
          "internalType": "uint256",
          "name": "_platformId",
          "type": "uint256"
        },
        {
          "indexed": false,
          "internalType": "address",
          "name": "_signer",
          "type": "address"
        }
      ],
      "name": "SignerUpdated",
      "type": "event"
    },
    {
      "anonymous": false,
      "inputs": [
        {
          "indexed": true,
          "internalType": "address",
          "name": "from",
          "type": "address"
        },
        {
          "indexed": true,
          "internalType": "address",
          "name": "to",
          "type": "address"
        },
        {
          "indexed": true,
          "internalType": "uint256",
          "name": "tokenId",
          "type": "uint256"
        }
      ],
      "name": "Transfer",
      "type": "event"
    },
    {
      "anonymous": false,
      "inputs": [
        {
          "indexed": true,
          "internalType": "address",
          "name": "implementation",
          "type": "address"
        }
      ],
      "name": "Upgraded",
      "type": "event"
    },
    {
      "anonymous": false,
      "inputs": [
        {
          "indexed": true,
          "internalType": "address",
          "name": "_user",
          "type": "address"
        }
      ],
      "name": "UserWhitelisted",
      "type": "event"
    },
    {
      "inputs": [],
      "name": "DEFAULT_ADMIN_ROLE",
      "outputs": [
        {
          "internalType": "bytes32",
          "name": "",
          "type": "bytes32"
        }
      ],
      "stateMutability": "view",
      "type": "function"
    },
    {
      "inputs": [],
      "name": "MINT_ROLE",
      "outputs": [
        {
          "internalType": "bytes32",
          "name": "",
          "type": "bytes32"
        }
      ],
      "stateMutability": "view",
      "type": "function"
    },
    {
      "inputs": [],
      "name": "OWNER_ROLE",
      "outputs": [
        {
          "internalType": "bytes32",
          "name": "",
          "type": "bytes32"
        }
      ],
      "stateMutability": "view",
      "type": "function"
    },
    {
      "inputs": [
        {
          "internalType": "address",
          "name": "_arbitrator",
          "type": "address"
        },
        {
          "internalType": "bool",
          "name": "_isInternal",
          "type": "bool"
        }
      ],
      "name": "addArbitrator",
      "outputs": [],
      "stateMutability": "nonpayable",
      "type": "function"
    },
    {
      "inputs": [
        {
          "internalType": "address",
          "name": "to",
          "type": "address"
        },
        {
          "internalType": "uint256",
          "name": "tokenId",
          "type": "uint256"
        }
      ],
      "name": "approve",
      "outputs": [],
      "stateMutability": "nonpayable",
      "type": "function"
    },
    {
      "inputs": [
        {
          "internalType": "address",
          "name": "owner",
          "type": "address"
        }
      ],
      "name": "balanceOf",
      "outputs": [
        {
          "internalType": "uint256",
          "name": "",
          "type": "uint256"
        }
      ],
      "stateMutability": "view",
      "type": "function"
    },
    {
      "inputs": [
        {
          "internalType": "uint256",
          "name": "tokenId",
          "type": "uint256"
        }
      ],
      "name": "getApproved",
      "outputs": [
        {
          "internalType": "address",
          "name": "",
          "type": "address"
        }
      ],
      "stateMutability": "view",
      "type": "function"
    },
    {
      "inputs": [
        {
          "internalType": "uint256",
          "name": "_platformId",
          "type": "uint256"
        }
      ],
      "name": "getOriginServiceFeeRate",
      "outputs": [
        {
          "internalType": "uint16",
          "name": "",
          "type": "uint16"
        }
      ],
      "stateMutability": "view",
      "type": "function"
    },
    {
      "inputs": [
        {
          "internalType": "uint256",
          "name": "_platformId",
          "type": "uint256"
        }
      ],
      "name": "getOriginValidatedProposalFeeRate",
      "outputs": [
        {
          "internalType": "uint16",
          "name": "",
          "type": "uint16"
        }
      ],
      "stateMutability": "view",
      "type": "function"
    },
    {
      "inputs": [
        {
          "internalType": "uint256",
          "name": "_platformId",
          "type": "uint256"
        }
      ],
      "name": "getPlatform",
      "outputs": [
        {
          "components": [
            {
              "internalType": "uint256",
              "name": "id",
              "type": "uint256"
            },
            {
              "internalType": "string",
              "name": "name",
              "type": "string"
            },
            {
              "internalType": "string",
              "name": "dataUri",
              "type": "string"
            },
            {
              "internalType": "uint16",
              "name": "originServiceFeeRate",
              "type": "uint16"
            },
            {
              "internalType": "uint16",
              "name": "originValidatedProposalFeeRate",
              "type": "uint16"
            },
            {
              "internalType": "uint256",
              "name": "servicePostingFee",
              "type": "uint256"
            },
            {
              "internalType": "uint256",
              "name": "proposalPostingFee",
              "type": "uint256"
            },
            {
              "internalType": "contract Arbitrator",
              "name": "arbitrator",
              "type": "address"
            },
            {
              "internalType": "bytes",
              "name": "arbitratorExtraData",
              "type": "bytes"
            },
            {
              "internalType": "uint256",
              "name": "arbitrationFeeTimeout",
              "type": "uint256"
            },
            {
              "internalType": "address",
              "name": "signer",
              "type": "address"
            }
          ],
          "internalType": "struct TalentLayerPlatformID.Platform",
          "name": "",
          "type": "tuple"
        }
      ],
      "stateMutability": "view",
      "type": "function"
    },
    {
      "inputs": [
        {
          "internalType": "uint256",
          "name": "_platformId",
          "type": "uint256"
        }
      ],
      "name": "getProposalPostingFee",
      "outputs": [
        {
          "internalType": "uint256",
          "name": "",
          "type": "uint256"
        }
      ],
      "stateMutability": "view",
      "type": "function"
    },
    {
      "inputs": [
        {
          "internalType": "bytes32",
          "name": "role",
          "type": "bytes32"
        }
      ],
      "name": "getRoleAdmin",
      "outputs": [
        {
          "internalType": "bytes32",
          "name": "",
          "type": "bytes32"
        }
      ],
      "stateMutability": "view",
      "type": "function"
    },
    {
      "inputs": [
        {
          "internalType": "uint256",
          "name": "_platformId",
          "type": "uint256"
        }
      ],
      "name": "getServicePostingFee",
      "outputs": [
        {
          "internalType": "uint256",
          "name": "",
          "type": "uint256"
        }
      ],
      "stateMutability": "view",
      "type": "function"
    },
    {
      "inputs": [
        {
          "internalType": "uint256",
          "name": "_platformId",
          "type": "uint256"
        }
      ],
      "name": "getSigner",
      "outputs": [
        {
          "internalType": "address",
          "name": "",
          "type": "address"
        }
      ],
      "stateMutability": "view",
      "type": "function"
    },
    {
      "inputs": [
        {
          "internalType": "bytes32",
          "name": "role",
          "type": "bytes32"
        },
        {
          "internalType": "address",
          "name": "account",
          "type": "address"
        }
      ],
      "name": "grantRole",
      "outputs": [],
      "stateMutability": "nonpayable",
      "type": "function"
    },
    {
      "inputs": [
        {
          "internalType": "bytes32",
          "name": "role",
          "type": "bytes32"
        },
        {
          "internalType": "address",
          "name": "account",
          "type": "address"
        }
      ],
      "name": "hasRole",
      "outputs": [
        {
          "internalType": "bool",
          "name": "",
          "type": "bool"
        }
      ],
      "stateMutability": "view",
      "type": "function"
    },
    {
      "inputs": [
        {
          "internalType": "address",
          "name": "",
          "type": "address"
        }
      ],
      "name": "ids",
      "outputs": [
        {
          "internalType": "uint256",
          "name": "",
          "type": "uint256"
        }
      ],
      "stateMutability": "view",
      "type": "function"
    },
    {
      "inputs": [],
      "name": "initialize",
      "outputs": [],
      "stateMutability": "nonpayable",
      "type": "function"
    },
    {
      "inputs": [
        {
          "internalType": "address",
          "name": "",
          "type": "address"
        }
      ],
      "name": "internalArbitrators",
      "outputs": [
        {
          "internalType": "bool",
          "name": "",
          "type": "bool"
        }
      ],
      "stateMutability": "view",
      "type": "function"
    },
    {
      "inputs": [
        {
          "internalType": "address",
          "name": "owner",
          "type": "address"
        },
        {
          "internalType": "address",
          "name": "operator",
          "type": "address"
        }
      ],
      "name": "isApprovedForAll",
      "outputs": [
        {
          "internalType": "bool",
          "name": "",
          "type": "bool"
        }
      ],
      "stateMutability": "view",
      "type": "function"
    },
    {
      "inputs": [
        {
          "internalType": "uint256",
          "name": "_platformId",
          "type": "uint256"
        }
      ],
      "name": "isValid",
      "outputs": [],
      "stateMutability": "view",
      "type": "function"
    },
    {
      "inputs": [],
      "name": "minArbitrationFeeTimeout",
      "outputs": [
        {
          "internalType": "uint256",
          "name": "",
          "type": "uint256"
        }
      ],
      "stateMutability": "view",
      "type": "function"
    },
    {
      "inputs": [
        {
          "internalType": "string",
          "name": "_platformName",
          "type": "string"
        }
      ],
      "name": "mint",
      "outputs": [
        {
          "internalType": "uint256",
          "name": "",
          "type": "uint256"
        }
      ],
      "stateMutability": "payable",
      "type": "function"
    },
    {
      "inputs": [],
      "name": "mintFee",
      "outputs": [
        {
          "internalType": "uint256",
          "name": "",
          "type": "uint256"
        }
      ],
      "stateMutability": "view",
      "type": "function"
    },
    {
      "inputs": [
        {
          "internalType": "string",
          "name": "_platformName",
          "type": "string"
        },
        {
          "internalType": "address",
          "name": "_platformAddress",
          "type": "address"
        }
      ],
      "name": "mintForAddress",
      "outputs": [
        {
          "internalType": "uint256",
          "name": "",
          "type": "uint256"
        }
      ],
      "stateMutability": "payable",
      "type": "function"
    },
    {
      "inputs": [],
      "name": "mintStatus",
      "outputs": [
        {
          "internalType": "enum TalentLayerPlatformID.MintStatus",
          "name": "",
          "type": "uint8"
        }
      ],
      "stateMutability": "view",
      "type": "function"
    },
    {
      "inputs": [],
      "name": "name",
      "outputs": [
        {
          "internalType": "string",
          "name": "",
          "type": "string"
        }
      ],
      "stateMutability": "view",
      "type": "function"
    },
    {
      "inputs": [
        {
          "internalType": "address",
          "name": "_platformAddress",
          "type": "address"
        }
      ],
      "name": "numberMinted",
      "outputs": [
        {
          "internalType": "uint256",
          "name": "",
          "type": "uint256"
        }
      ],
      "stateMutability": "view",
      "type": "function"
    },
    {
      "inputs": [
        {
          "internalType": "uint256",
          "name": "tokenId",
          "type": "uint256"
        }
      ],
      "name": "ownerOf",
      "outputs": [
        {
          "internalType": "address",
          "name": "",
          "type": "address"
        }
      ],
      "stateMutability": "view",
      "type": "function"
    },
    {
      "inputs": [
        {
          "internalType": "uint256",
          "name": "",
          "type": "uint256"
        }
      ],
      "name": "platforms",
      "outputs": [
        {
          "internalType": "uint256",
          "name": "id",
          "type": "uint256"
        },
        {
          "internalType": "string",
          "name": "name",
          "type": "string"
        },
        {
          "internalType": "string",
          "name": "dataUri",
          "type": "string"
        },
        {
          "internalType": "uint16",
          "name": "originServiceFeeRate",
          "type": "uint16"
        },
        {
          "internalType": "uint16",
          "name": "originValidatedProposalFeeRate",
          "type": "uint16"
        },
        {
          "internalType": "uint256",
          "name": "servicePostingFee",
          "type": "uint256"
        },
        {
          "internalType": "uint256",
          "name": "proposalPostingFee",
          "type": "uint256"
        },
        {
          "internalType": "contract Arbitrator",
          "name": "arbitrator",
          "type": "address"
        },
        {
          "internalType": "bytes",
          "name": "arbitratorExtraData",
          "type": "bytes"
        },
        {
          "internalType": "uint256",
          "name": "arbitrationFeeTimeout",
          "type": "uint256"
        },
        {
          "internalType": "address",
          "name": "signer",
          "type": "address"
        }
      ],
      "stateMutability": "view",
      "type": "function"
    },
    {
      "inputs": [],
      "name": "proxiableUUID",
      "outputs": [
        {
          "internalType": "bytes32",
          "name": "",
          "type": "bytes32"
        }
      ],
      "stateMutability": "view",
      "type": "function"
    },
    {
      "inputs": [
        {
          "internalType": "address",
          "name": "_arbitrator",
          "type": "address"
        }
      ],
      "name": "removeArbitrator",
      "outputs": [],
      "stateMutability": "nonpayable",
      "type": "function"
    },
    {
      "inputs": [
        {
          "internalType": "bytes32",
          "name": "role",
          "type": "bytes32"
        },
        {
          "internalType": "address",
          "name": "account",
          "type": "address"
        }
      ],
      "name": "renounceRole",
      "outputs": [],
      "stateMutability": "nonpayable",
      "type": "function"
    },
    {
      "inputs": [
        {
          "internalType": "bytes32",
          "name": "role",
          "type": "bytes32"
        },
        {
          "internalType": "address",
          "name": "account",
          "type": "address"
        }
      ],
      "name": "revokeRole",
      "outputs": [],
      "stateMutability": "nonpayable",
      "type": "function"
    },
    {
      "inputs": [
        {
          "internalType": "address",
          "name": "",
          "type": "address"
        },
        {
          "internalType": "address",
          "name": "",
          "type": "address"
        },
        {
          "internalType": "uint256",
          "name": "",
          "type": "uint256"
        }
      ],
      "name": "safeTransferFrom",
      "outputs": [],
      "stateMutability": "nonpayable",
      "type": "function"
    },
    {
      "inputs": [
        {
          "internalType": "address",
          "name": "",
          "type": "address"
        },
        {
          "internalType": "address",
          "name": "",
          "type": "address"
        },
        {
          "internalType": "uint256",
          "name": "",
          "type": "uint256"
        },
        {
          "internalType": "bytes",
          "name": "",
          "type": "bytes"
        }
      ],
      "name": "safeTransferFrom",
      "outputs": [],
      "stateMutability": "nonpayable",
      "type": "function"
    },
    {
      "inputs": [
        {
          "internalType": "address",
          "name": "operator",
          "type": "address"
        },
        {
          "internalType": "bool",
          "name": "approved",
          "type": "bool"
        }
      ],
      "name": "setApprovalForAll",
      "outputs": [],
      "stateMutability": "nonpayable",
      "type": "function"
    },
    {
      "inputs": [
        {
          "internalType": "bytes4",
          "name": "interfaceId",
          "type": "bytes4"
        }
      ],
      "name": "supportsInterface",
      "outputs": [
        {
          "internalType": "bool",
          "name": "",
          "type": "bool"
        }
      ],
      "stateMutability": "view",
      "type": "function"
    },
    {
      "inputs": [],
      "name": "symbol",
      "outputs": [
        {
          "internalType": "string",
          "name": "",
          "type": "string"
        }
      ],
      "stateMutability": "view",
      "type": "function"
    },
    {
      "inputs": [
        {
          "internalType": "string",
          "name": "",
          "type": "string"
        }
      ],
      "name": "takenNames",
      "outputs": [
        {
          "internalType": "bool",
          "name": "",
          "type": "bool"
        }
      ],
      "stateMutability": "view",
      "type": "function"
    },
    {
      "inputs": [
        {
          "internalType": "uint256",
          "name": "tokenId",
          "type": "uint256"
        }
      ],
      "name": "tokenURI",
      "outputs": [
        {
          "internalType": "string",
          "name": "",
          "type": "string"
        }
      ],
      "stateMutability": "view",
      "type": "function"
    },
    {
      "inputs": [],
      "name": "totalSupply",
      "outputs": [
        {
          "internalType": "uint256",
          "name": "",
          "type": "uint256"
        }
      ],
      "stateMutability": "view",
      "type": "function"
    },
    {
      "inputs": [
        {
          "internalType": "address",
          "name": "",
          "type": "address"
        },
        {
          "internalType": "address",
          "name": "",
          "type": "address"
        },
        {
          "internalType": "uint256",
          "name": "",
          "type": "uint256"
        }
      ],
      "name": "transferFrom",
      "outputs": [],
      "stateMutability": "nonpayable",
      "type": "function"
    },
    {
      "inputs": [
        {
          "internalType": "uint256",
          "name": "_platformId",
          "type": "uint256"
        },
        {
          "internalType": "uint256",
          "name": "_arbitrationFeeTimeout",
          "type": "uint256"
        }
      ],
      "name": "updateArbitrationFeeTimeout",
      "outputs": [],
      "stateMutability": "nonpayable",
      "type": "function"
    },
    {
      "inputs": [
        {
          "internalType": "uint256",
          "name": "_platformId",
          "type": "uint256"
        },
        {
          "internalType": "contract Arbitrator",
          "name": "_arbitrator",
          "type": "address"
        },
        {
          "internalType": "bytes",
          "name": "_extraData",
          "type": "bytes"
        }
      ],
      "name": "updateArbitrator",
      "outputs": [],
      "stateMutability": "nonpayable",
      "type": "function"
    },
    {
      "inputs": [
        {
          "internalType": "uint256",
          "name": "_minArbitrationFeeTimeout",
          "type": "uint256"
        }
      ],
      "name": "updateMinArbitrationFeeTimeout",
      "outputs": [],
      "stateMutability": "nonpayable",
      "type": "function"
    },
    {
      "inputs": [
        {
          "internalType": "uint256",
          "name": "_mintFee",
          "type": "uint256"
        }
      ],
      "name": "updateMintFee",
      "outputs": [],
      "stateMutability": "nonpayable",
      "type": "function"
    },
    {
      "inputs": [
        {
          "internalType": "enum TalentLayerPlatformID.MintStatus",
          "name": "_mintStatus",
          "type": "uint8"
        }
      ],
      "name": "updateMintStatus",
      "outputs": [],
      "stateMutability": "nonpayable",
      "type": "function"
    },
    {
      "inputs": [
        {
          "internalType": "uint256",
          "name": "_platformId",
          "type": "uint256"
        },
        {
          "internalType": "uint16",
          "name": "_originServiceFeeRate",
          "type": "uint16"
        }
      ],
      "name": "updateOriginServiceFeeRate",
      "outputs": [],
      "stateMutability": "nonpayable",
      "type": "function"
    },
    {
      "inputs": [
        {
          "internalType": "uint256",
          "name": "_platformId",
          "type": "uint256"
        },
        {
          "internalType": "uint16",
          "name": "_originValidatedProposalFeeRate",
          "type": "uint16"
        }
      ],
      "name": "updateOriginValidatedProposalFeeRate",
      "outputs": [],
      "stateMutability": "nonpayable",
      "type": "function"
    },
    {
      "inputs": [
        {
          "internalType": "uint256",
          "name": "_platformId",
          "type": "uint256"
        },
        {
          "internalType": "string",
          "name": "_newCid",
          "type": "string"
        }
      ],
      "name": "updateProfileData",
      "outputs": [],
      "stateMutability": "nonpayable",
      "type": "function"
    },
    {
      "inputs": [
        {
          "internalType": "uint256",
          "name": "_platformId",
          "type": "uint256"
        },
        {
          "internalType": "uint256",
          "name": "_proposalPostingFee",
          "type": "uint256"
        }
      ],
      "name": "updateProposalPostingFee",
      "outputs": [],
      "stateMutability": "nonpayable",
      "type": "function"
    },
    {
      "inputs": [
        {
          "internalType": "uint256",
          "name": "_platformId",
          "type": "uint256"
        },
        {
          "internalType": "uint256",
          "name": "_servicePostingFee",
          "type": "uint256"
        }
      ],
      "name": "updateServicePostingFee",
      "outputs": [],
      "stateMutability": "nonpayable",
      "type": "function"
    },
    {
      "inputs": [
        {
          "internalType": "uint256",
          "name": "_platformId",
          "type": "uint256"
        },
        {
          "internalType": "address",
          "name": "_signer",
          "type": "address"
        }
      ],
      "name": "updateSigner",
      "outputs": [],
      "stateMutability": "nonpayable",
      "type": "function"
    },
    {
      "inputs": [
        {
          "internalType": "address",
          "name": "newImplementation",
          "type": "address"
        }
      ],
      "name": "upgradeTo",
      "outputs": [],
      "stateMutability": "nonpayable",
      "type": "function"
    },
    {
      "inputs": [
        {
          "internalType": "address",
          "name": "newImplementation",
          "type": "address"
        },
        {
          "internalType": "bytes",
          "name": "data",
          "type": "bytes"
        }
      ],
      "name": "upgradeToAndCall",
      "outputs": [],
      "stateMutability": "payable",
      "type": "function"
    },
    {
      "inputs": [
        {
          "internalType": "address",
          "name": "",
          "type": "address"
        }
      ],
      "name": "validArbitrators",
      "outputs": [
        {
          "internalType": "bool",
          "name": "",
          "type": "bool"
        }
      ],
      "stateMutability": "view",
      "type": "function"
    },
    {
      "inputs": [
        {
          "internalType": "address",
          "name": "",
          "type": "address"
        }
      ],
      "name": "whitelist",
      "outputs": [
        {
          "internalType": "bool",
          "name": "",
          "type": "bool"
        }
      ],
      "stateMutability": "view",
      "type": "function"
    },
    {
      "inputs": [
        {
          "internalType": "address",
          "name": "_user",
          "type": "address"
        }
      ],
      "name": "whitelistUser",
      "outputs": [],
      "stateMutability": "nonpayable",
      "type": "function"
    },
    {
      "inputs": [],
      "name": "withdraw",
      "outputs": [],
      "stateMutability": "nonpayable",
      "type": "function"
    }
  ],
  "bytecode": "0x60a0604052306080523480156200001557600080fd5b506200002062000026565b620000e8565b600054610100900460ff1615620000935760405162461bcd60e51b815260206004820152602760248201527f496e697469616c697a61626c653a20636f6e747261637420697320696e697469604482015266616c697a696e6760c81b606482015260840160405180910390fd5b60005460ff9081161015620000e6576000805460ff191660ff9081179091556040519081527f7f26b83ff96e1f2b6a682f133852f6798a09c465da95921460cefb38474024989060200160405180910390a15b565b608051614dd86200012060003960008181610f2c01528181610f6c01528181611398015281816113d801526114670152614dd86000f3fe6080604052600436106103975760003560e01c80638e6e5397116101dc578063c6bf01ce11610102578063e58378bb116100a0578063f577a5001161006f578063f577a50014610b06578063f6f3784414610b26578063f905f15414610b3d578063faa992d314610b5d57600080fd5b8063e58378bb14610a59578063e985e9c514610a7b578063e9a9c85014610ac4578063f160068f14610ae657600080fd5b8063d547741f116100dc578063d547741f146109e6578063d85d3d2714610a06578063dc33e68114610a19578063dce2263814610a3957600080fd5b8063c6bf01ce14610986578063c87b56dd146109a6578063cb8faafa146109c657600080fd5b80639da3f8fd1161017a578063a4f524a911610149578063a4f524a914610907578063acd63f1b14610927578063b88d4fde14610958578063c37e154e1461097357600080fd5b80639da3f8fd1461086e578063a217fddf14610896578063a22cb465146108ab578063a383c692146108cb57600080fd5b806395d89b41116101b657806395d89b41146107e8578063973ad270146107fd57806399ded4441461081d5780639b19251a1461083d57600080fd5b80638e6e5397146107885780638f283a86146107a857806391d14854146107c857600080fd5b80633d459389116102c15780634f1ef2861161025f57806370a082311161022e57806370a08231146107135780638129fc1c1461073357806384017e52146107485780638a9863631461076857600080fd5b80634f1ef2861461069e57806352d1902d146106b15780635bd22c98146106c65780636352211e146106f357600080fd5b806342842e0e1161029b57806342842e0e1461050857806348203b301461062d5780634a4c560d1461065e5780634a7ab1d51461067e57600080fd5b80633d459389146105cd5780633e6acfe0146105ed5780633ffefe4e1461060d57600080fd5b806318160ddd116103395780632f2ff15d116103085780632f2ff15d1461055857806336568abe146105785780633659cfe6146105985780633ccfd60b146105b857600080fd5b806318160ddd146104c55780631847c06b146104da57806323b872dd14610508578063248a9ca31461052857600080fd5b8063081812fc11610375578063081812fc14610415578063095ea7b31461044d57806311f821921461046d57806313966db5146104a057600080fd5b806301c32c851461039c57806301ffc9a7146103be57806306fdde03146103f3575b600080fd5b3480156103a857600080fd5b506103bc6103b7366004613a7c565b610b94565b005b3480156103ca57600080fd5b506103de6103d9366004613aab565b610bdd565b60405190151581526020015b60405180910390f35b3480156103ff57600080fd5b50610408610bfd565b6040516103ea9190613b18565b34801561042157600080fd5b50610435610430366004613a7c565b610c8f565b6040516001600160a01b0390911681526020016103ea565b34801561045957600080fd5b506103bc610468366004613b40565b610cb6565b34801561047957600080fd5b5061048d610488366004613a7c565b610dd0565b60405161ffff90911681526020016103ea565b3480156104ac57600080fd5b506104b76101335481565b6040519081526020016103ea565b3480156104d157600080fd5b506104b7610e1a565b3480156104e657600080fd5b506104b76104f5366004613b6c565b6101326020526000908152604090205481565b34801561051457600080fd5b506103bc610523366004613b89565b610e37565b34801561053457600080fd5b506104b7610543366004613a7c565b60009081526097602052604090206001015490565b34801561056457600080fd5b506103bc610573366004613bca565b610e7f565b34801561058457600080fd5b506103bc610593366004613bca565b610ea4565b3480156105a457600080fd5b506103bc6105b3366004613b6c565b610f22565b3480156105c457600080fd5b506103bc611001565b3480156105d957600080fd5b5061048d6105e8366004613a7c565b6110a4565b3480156105f957600080fd5b506103bc610608366004613c9d565b6110f4565b34801561061957600080fd5b50610435610628366004613a7c565b611293565b34801561063957600080fd5b506103de610648366004613b6c565b61012f6020526000908152604090205460ff1681565b34801561066a57600080fd5b506103bc610679366004613b6c565b6112e2565b34801561068a57600080fd5b506104b7610699366004613a7c565b611348565b6103bc6106ac366004613cf6565b61138e565b3480156106bd57600080fd5b506104b761145a565b3480156106d257600080fd5b506106e66106e1366004613a7c565b61150d565b6040516103ea9190613d46565b3480156106ff57600080fd5b5061043561070e366004613a7c565b6117fe565b34801561071f57600080fd5b506104b761072e366004613b6c565b61185e565b34801561073f57600080fd5b506103bc6118e4565b34801561075457600080fd5b506103bc610763366004613a7c565b611aef565b34801561077457600080fd5b506104b7610783366004613a7c565b611b30565b34801561079457600080fd5b506103bc6107a3366004613e3b565b611b76565b3480156107b457600080fd5b506103bc6107c3366004613bca565b611bff565b3480156107d457600080fd5b506103de6107e3366004613bca565b611c92565b3480156107f457600080fd5b50610408611cbd565b34801561080957600080fd5b506103bc610818366004613b6c565b611ccc565b34801561082957600080fd5b506103bc610838366004613e3b565b611d10565b34801561084957600080fd5b506103de610858366004613b6c565b6101306020526000908152604090205460ff1681565b34801561087a57600080fd5b50610136546108899060ff1681565b6040516103ea9190613e7d565b3480156108a257600080fd5b506104b7600081565b3480156108b757600080fd5b506103bc6108c6366004613ea5565b611da3565b3480156108d757600080fd5b506103de6108e6366004613ed8565b805160208183018101805161012d8252928201919093012091525460ff1681565b34801561091357600080fd5b506103bc610922366004613f0d565b611dae565b34801561093357600080fd5b506103de610942366004613b6c565b6101316020526000908152604090205460ff1681565b34801561096457600080fd5b506103bc610523366004613f2f565b6104b7610981366004613fe4565b611e9a565b34801561099257600080fd5b506103bc6109a1366004613f0d565b6120ce565b3480156109b257600080fd5b506104086109c1366004613a7c565b61214a565b3480156109d257600080fd5b506103bc6109e1366004613ea5565b612155565b3480156109f257600080fd5b506103bc610a01366004613bca565b6121a6565b6104b7610a1436600461403b565b6121cb565b348015610a2557600080fd5b506104b7610a34366004613b6c565b6123f9565b348015610a4557600080fd5b506103bc610a54366004613f0d565b612404565b348015610a6557600080fd5b506104b7600080516020614cdc83398151915281565b348015610a8757600080fd5b506103de610a9636600461407d565b6001600160a01b039182166000908152606a6020908152604080832093909416825291909152205460ff1690565b348015610ad057600080fd5b506104b7600080516020614d5c83398151915281565b348015610af257600080fd5b506103bc610b013660046140ab565b612480565b348015610b1257600080fd5b506103bc610b21366004613a7c565b612548565b348015610b3257600080fd5b506104b76101345481565b348015610b4957600080fd5b506103bc610b583660046140dc565b612576565b348015610b6957600080fd5b50610b7d610b78366004613a7c565b6125e2565b6040516103ea9b9a999897969594939291906140fd565b6000610b9f816127ef565b6101348290556040518281527fa39eb462f98ec2e2a17ca5c7f2a0a247d212213bf0c78a6e2a3df704911ef601906020015b60405180910390a15050565b6000610be8826127f9565b80610bf75750610bf782612849565b92915050565b606060658054610c0c90614195565b80601f0160208091040260200160405190810160405280929190818152602001828054610c3890614195565b8015610c855780601f10610c5a57610100808354040283529160200191610c85565b820191906000526020600020905b815481529060010190602001808311610c6857829003601f168201915b5050505050905090565b6000610c9a8261286e565b506000908152606960205260409020546001600160a01b031690565b6000610cc1826117fe565b9050806001600160a01b0316836001600160a01b031603610d335760405162461bcd60e51b815260206004820152602160248201527f4552433732313a20617070726f76616c20746f2063757272656e74206f776e656044820152603960f91b60648201526084015b60405180910390fd5b336001600160a01b0382161480610d4f5750610d4f8133610a96565b610dc15760405162461bcd60e51b815260206004820152603d60248201527f4552433732313a20617070726f76652063616c6c6572206973206e6f7420746f60448201527f6b656e206f776e6572206f7220617070726f76656420666f7220616c6c0000006064820152608401610d2a565b610dcb83836128cd565b505050565b60008082118015610de357506101355482105b610dff5760405162461bcd60e51b8152600401610d2a906141cf565b50600090815261012e602052604090206003015461ffff1690565b60006001610e286101355490565b610e329190614212565b905090565b60405162461bcd60e51b815260206004820152601d60248201527f546f6b656e207472616e73666572206973206e6f7420616c6c6f7765640000006044820152606401610d2a565b600082815260976020526040902060010154610e9a816127ef565b610dcb838361293b565b6001600160a01b0381163314610f145760405162461bcd60e51b815260206004820152602f60248201527f416363657373436f6e74726f6c3a2063616e206f6e6c792072656e6f756e636560448201526e103937b632b9903337b91039b2b63360891b6064820152608401610d2a565b610f1e82826129c1565b5050565b6001600160a01b037f0000000000000000000000000000000000000000000000000000000000000000163003610f6a5760405162461bcd60e51b8152600401610d2a90614225565b7f00000000000000000000000000000000000000000000000000000000000000006001600160a01b0316610fb3600080516020614cfc833981519152546001600160a01b031690565b6001600160a01b031614610fd95760405162461bcd60e51b8152600401610d2a90614271565b610fe281612a28565b60408051600080825260208201909252610ffe91839190612a40565b50565b600061100c816127ef565b604051600090339047908381818185875af1925050503d806000811461104e576040519150601f19603f3d011682016040523d82523d6000602084013e611053565b606091505b5050905080610f1e5760405162461bcd60e51b815260206004820152601860248201527f4661696c656420746f20776974686472617720457468657200000000000000006044820152606401610d2a565b600080821180156110b757506101355482105b6110d35760405162461bcd60e51b8152600401610d2a906141cf565b50600090815261012e602052604090206003015462010000900461ffff1690565b336110fe846117fe565b6001600160a01b0316146111245760405162461bcd60e51b8152600401610d2a906142bd565b6001600160a01b038216600090815261012f602052604090205460ff1661119f5760405162461bcd60e51b815260206004820152602960248201527f5468652061646472657373206d757374206265206f6620612076616c69642061604482015268393134ba3930ba37b960b91b6064820152608401610d2a565b600083815261012e6020908152604080832060060180546001600160a01b0319166001600160a01b038716908117909155835261013190915290205460ff161561121f5760408051602081018590520160408051601f19818403018152918152600085815261012e60205220600701906112199082614348565b5061123d565b600083815261012e6020526040902060070161123b8282614348565b505b7f4f1d179d53629f07a3ca3cde19840349df6dadc8fc11ac201c272ec77b8673d2838361012e600087815260200190815260200160002060070160405161128693929190614408565b60405180910390a1505050565b600080821180156112a657506101355482105b6112c25760405162461bcd60e51b8152600401610d2a906141cf565b50600090815261012e60205260409020600901546001600160a01b031690565b600080516020614cdc8339815191526112fa816127ef565b6001600160a01b03821660008181526101306020526040808220805460ff19166001179055517f7409cb8e690bcd1487fd4fd27dad3fa92388d201ba6f953631d6d6b26299f8499190a25050565b6000808211801561135b57506101355482105b6113775760405162461bcd60e51b8152600401610d2a906141cf565b50600090815261012e602052604090206005015490565b6001600160a01b037f00000000000000000000000000000000000000000000000000000000000000001630036113d65760405162461bcd60e51b8152600401610d2a90614225565b7f00000000000000000000000000000000000000000000000000000000000000006001600160a01b031661141f600080516020614cfc833981519152546001600160a01b031690565b6001600160a01b0316146114455760405162461bcd60e51b8152600401610d2a90614271565b61144e82612a28565b610f1e82826001612a40565b6000306001600160a01b037f000000000000000000000000000000000000000000000000000000000000000016146114fa5760405162461bcd60e51b815260206004820152603860248201527f555550535570677261646561626c653a206d757374206e6f742062652063616c60448201527f6c6564207468726f7567682064656c656761746563616c6c00000000000000006064820152608401610d2a565b50600080516020614cfc83398151915290565b611584604051806101600160405280600081526020016060815260200160608152602001600061ffff168152602001600061ffff168152602001600081526020016000815260200160006001600160a01b03168152602001606081526020016000815260200160006001600160a01b031681525090565b60008211801561159657506101355482105b6115b25760405162461bcd60e51b8152600401610d2a906141cf565b61012e600083815260200190815260200160002060405180610160016040529081600082015481526020016001820180546115ec90614195565b80601f016020809104026020016040519081016040528092919081815260200182805461161890614195565b80156116655780601f1061163a57610100808354040283529160200191611665565b820191906000526020600020905b81548152906001019060200180831161164857829003601f168201915b5050505050815260200160028201805461167e90614195565b80601f01602080910402602001604051908101604052809291908181526020018280546116aa90614195565b80156116f75780601f106116cc576101008083540402835291602001916116f7565b820191906000526020600020905b8154815290600101906020018083116116da57829003601f168201915b5050509183525050600382015461ffff808216602084015262010000909104166040820152600482015460608201526005820154608082015260068201546001600160a01b031660a082015260078201805460c09092019161175890614195565b80601f016020809104026020016040519081016040528092919081815260200182805461178490614195565b80156117d15780601f106117a6576101008083540402835291602001916117d1565b820191906000526020600020905b8154815290600101906020018083116117b457829003601f168201915b5050509183525050600882015460208201526009909101546001600160a01b031660409091015292915050565b6000818152606760205260408120546001600160a01b031680610bf75760405162461bcd60e51b8152602060048201526018602482015277115490cdcc8c4e881a5b9d985b1a59081d1bdad95b88125160421b6044820152606401610d2a565b60006001600160a01b0382166118c85760405162461bcd60e51b815260206004820152602960248201527f4552433732313a2061646472657373207a65726f206973206e6f7420612076616044820152683634b21037bbb732b960b91b6064820152608401610d2a565b506001600160a01b031660009081526068602052604090205490565b600054610100900460ff16158080156119045750600054600160ff909116105b8061191e5750303b15801561191e575060005460ff166001145b6119815760405162461bcd60e51b815260206004820152602e60248201527f496e697469616c697a61626c653a20636f6e747261637420697320616c72656160448201526d191e481a5b9a5d1a585b1a5e995960921b6064820152608401610d2a565b6000805460ff1916600117905580156119a4576000805461ff0019166101001790555b6119f76040518060400160405280601581526020017415185b195b9d13185e595c941b185d199bdc9b5251605a1b815250604051806040016040528060048152602001631514125160e21b815250612bab565b6119ff612bdc565b611a07612bdc565b611a12600033612c05565b611a2a600080516020614d5c83398151915233612c05565b611a42600080516020614cdc83398151915233612c05565b6000610133819055805261012f6020527fe9104285c6851efcbc5e0e70440200efbdcab556a1c8784776780f8bb44f2931805460ff19166001179055611a8a62015180610b94565b611a9961013580546001019055565b610136805460ff191660011790558015610ffe576000805461ff0019169055604051600181527f7f26b83ff96e1f2b6a682f133852f6798a09c465da95921460cefb38474024989060200160405180910390a150565b6000611afa816127ef565b6101338290556040518281527f38fbb1c8b109c430f0c030e7ed076cf5611a307773a4e8e365601e8f8bceaec690602001610bd1565b60008082118015611b4357506101355482105b611b5f5760405162461bcd60e51b8152600401610d2a906141cf565b50600090815261012e602052604090206004015490565b33611b80836117fe565b6001600160a01b031614611ba65760405162461bcd60e51b8152600401610d2a906142bd565b600082815261012e6020908152604091829020600301805461ffff191661ffff85169081179091558251858152918201527f03c3aa7c7830e29d1571bfe33dc72a8b8e0297dd6fdf26ef720dee976e21125a9101610bd1565b33611c09836117fe565b6001600160a01b031614611c2f5760405162461bcd60e51b8152600401610d2a906142bd565b600082815261012e602090815260409182902060090180546001600160a01b0319166001600160a01b0385169081179091558251858152918201527f793c7e64f530286f5392e4266e68cf1d6d1f08a9c5494c8b916d4b86f546cb3e9101610bd1565b60009182526097602090815260408084206001600160a01b0393909316845291905290205460ff1690565b606060668054610c0c90614195565b6000611cd7816127ef565b506001600160a01b0316600090815261012f60209081526040808320805460ff1990811690915561013190925290912080549091169055565b33611d1a836117fe565b6001600160a01b031614611d405760405162461bcd60e51b8152600401610d2a906142bd565b600082815261012e6020908152604091829020600301805463ffff000019166201000061ffff8616908102919091179091558251858152918201527fffeae29561efc186d4d5241d242f7e2b4a76f114ea5de0db37fbd19c3b1913a59101610bd1565b610f1e338383612c0f565b33611db8836117fe565b6001600160a01b031614611dde5760405162461bcd60e51b8152600401610d2a906142bd565b61013454811015611e4e5760405162461bcd60e51b815260206004820152603460248201527f5468652074696d656f7574206d7573742062652067726561746572207468616e604482015273081d1a19481b5a5b9a5b5d5b481d1a5b595bdd5d60621b6064820152608401610d2a565b600082815261012e602090815260409182902060080183905581518481529081018390527face552c85eed7b5cf46330833e6f28b1f5ce696a4532e483192b5a64e4565e599101610bd1565b600083838360016101365460ff166002811115611eb957611eb9613e67565b1480611edc575060026101365460ff166002811115611eda57611eda613e67565b145b611f235760405162461bcd60e51b8152602060048201526018602482015277135a5b9d081cdd185d1d5cc81a5cc81b9bdd081d985b1a5960421b6044820152606401610d2a565b60016101365460ff166002811115611f3d57611f3d613e67565b03611f9c57336000908152610130602052604090205460ff16611f9c5760405162461bcd60e51b8152602060048201526017602482015276165bdd48185c99481b9bdd081dda1a5d195b1a5cdd1959604a1b6044820152606401610d2a565b610133543414611fbe5760405162461bcd60e51b8152600401610d2a906144aa565b611fc7816123f9565b15611fe45760405162461bcd60e51b8152600401610d2a906144ee565b61012d8383604051611ff7929190614530565b9081526040519081900360200190205460ff161561204c5760405162461bcd60e51b81526020600482015260126024820152712730b6b29030b63932b0b23c903a30b5b2b760711b6044820152606401610d2a565b6120568383612cdd565b600080516020614d5c83398151915261206e816127ef565b6120818661207c6101355490565b612eff565b6120c288888080601f0160208091040260200160405190810160405280939291908181526020018383808284376000920191909152508a9250612f19915050565b98975050505050505050565b336120d8836117fe565b6001600160a01b0316146120fe5760405162461bcd60e51b8152600401610d2a906142bd565b600082815261012e602090815260409182902060050183905581518481529081018390527f5cea455bfd7800a5b219f99906f1402cf18c09764b07b36821dc7285b86a77329101610bd1565b6060610bf782613018565b6000612160816127ef565b506001600160a01b03909116600090815261012f60209081526040808320805460ff19908116600117909155610131909252909120805492151592909116919091179055565b6000828152609760205260409020600101546121c1816127ef565b610dcb83836129c1565b600082823360016101365460ff1660028111156121ea576121ea613e67565b148061220d575060026101365460ff16600281111561220b5761220b613e67565b145b6122545760405162461bcd60e51b8152602060048201526018602482015277135a5b9d081cdd185d1d5cc81a5cc81b9bdd081d985b1a5960421b6044820152606401610d2a565b60016101365460ff16600281111561226e5761226e613e67565b036122cd57336000908152610130602052604090205460ff166122cd5760405162461bcd60e51b8152602060048201526017602482015276165bdd48185c99481b9bdd081dda1a5d195b1a5cdd1959604a1b6044820152606401610d2a565b6101335434146122ef5760405162461bcd60e51b8152600401610d2a906144aa565b6122f8816123f9565b156123155760405162461bcd60e51b8152600401610d2a906144ee565b61012d8383604051612328929190614530565b9081526040519081900360200190205460ff161561237d5760405162461bcd60e51b81526020600482015260126024820152712730b6b29030b63932b0b23c903a30b5b2b760711b6044820152606401610d2a565b6123878383612cdd565b600080516020614d5c83398151915261239f816127ef565b6123ad3361207c6101355490565b6123ee87878080601f016020809104026020016040519081016040528093929190818152602001838380828437600092019190915250339250612f19915050565b979650505050505050565b6000610bf78261185e565b3361240e836117fe565b6001600160a01b0316146124345760405162461bcd60e51b8152600401610d2a906142bd565b600082815261012e602090815260409182902060040183905581518481529081018390527fccc64c8fc3688d9eb2c0bb58ff0dfef1a8528bcc06528d991da400c83835838d9101610bd1565b3361248a836117fe565b6001600160a01b0316146124b05760405162461bcd60e51b8152600401610d2a906142bd565b8051602e146124ef5760405162461bcd60e51b815260206004820152600b60248201526a125b9d985b1a590818da5960aa1b6044820152606401610d2a565b600082815261012e6020526040902060020161250b8282614348565b50817f613807bd6768f626264e7eb664a65ca99a0d930f8fd8a5b868491a592eb57f728260405161253c9190613b18565b60405180910390a25050565b60008111801561255a57506101355481105b610ffe5760405162461bcd60e51b8152600401610d2a906141cf565b600080516020614cdc83398151915261258e816127ef565b610136805483919060ff191660018360028111156125ae576125ae613e67565b02179055507fbe5bfaa294dd4b792e98f2bcf8f597b2ead214107f9bc9e8392d6ec65e8d854f82604051610bd19190613e7d565b61012e602052600090815260409020805460018201805491929161260590614195565b80601f016020809104026020016040519081016040528092919081815260200182805461263190614195565b801561267e5780601f106126535761010080835404028352916020019161267e565b820191906000526020600020905b81548152906001019060200180831161266157829003601f168201915b50505050509080600201805461269390614195565b80601f01602080910402602001604051908101604052809291908181526020018280546126bf90614195565b801561270c5780601f106126e15761010080835404028352916020019161270c565b820191906000526020600020905b8154815290600101906020018083116126ef57829003601f168201915b505050506003830154600484015460058501546006860154600787018054969761ffff8087169862010000909704169650939492936001600160a01b039092169261275690614195565b80601f016020809104026020016040519081016040528092919081815260200182805461278290614195565b80156127cf5780601f106127a4576101008083540402835291602001916127cf565b820191906000526020600020905b8154815290600101906020018083116127b257829003601f168201915b5050505060088301546009909301549192916001600160a01b031690508b565b610ffe8133613147565b60006001600160e01b031982166380ac58cd60e01b148061282a57506001600160e01b03198216635b5e139f60e01b145b80610bf757506301ffc9a760e01b6001600160e01b0319831614610bf7565b60006001600160e01b03198216637965db0b60e01b1480610bf75750610bf7826127f9565b6000818152606760205260409020546001600160a01b0316610ffe5760405162461bcd60e51b8152602060048201526018602482015277115490cdcc8c4e881a5b9d985b1a59081d1bdad95b88125160421b6044820152606401610d2a565b600081815260696020526040902080546001600160a01b0319166001600160a01b0384169081179091558190612902826117fe565b6001600160a01b03167f8c5be1e5ebec7d5bd14f71427d1e84f3dd0314c0f7b2291e5b200ac8c7c3b92560405160405180910390a45050565b6129458282611c92565b610f1e5760008281526097602090815260408083206001600160a01b03851684529091529020805460ff1916600117905561297d3390565b6001600160a01b0316816001600160a01b0316837f2f8788117e7eff1d82e926ec794901d17c78024a50270940304540a733656f0d60405160405180910390a45050565b6129cb8282611c92565b15610f1e5760008281526097602090815260408083206001600160a01b0385168085529252808320805460ff1916905551339285917ff6391f5c32d9c69d2a47ea670b442974b53935d1edc7fd64eb21e047a839171b9190a45050565b600080516020614cdc833981519152610f1e816127ef565b7f4910fdfa16fed3260ed0e7147f7cc6da11a60208b5b9406d12a635614ffd91435460ff1615612a7357610dcb836131a0565b826001600160a01b03166352d1902d6040518163ffffffff1660e01b8152600401602060405180830381865afa925050508015612acd575060408051601f3d908101601f19168201909252612aca91810190614540565b60015b612b305760405162461bcd60e51b815260206004820152602e60248201527f45524331393637557067726164653a206e657720696d706c656d656e7461746960448201526d6f6e206973206e6f74205555505360901b6064820152608401610d2a565b600080516020614cfc8339815191528114612b9f5760405162461bcd60e51b815260206004820152602960248201527f45524331393637557067726164653a20756e737570706f727465642070726f786044820152681a58589b195555525160ba1b6064820152608401610d2a565b50610dcb83838361323c565b600054610100900460ff16612bd25760405162461bcd60e51b8152600401610d2a90614559565b610f1e8282613267565b600054610100900460ff16612c035760405162461bcd60e51b8152600401610d2a90614559565b565b610f1e828261293b565b816001600160a01b0316836001600160a01b031603612c705760405162461bcd60e51b815260206004820152601960248201527f4552433732313a20617070726f766520746f2063616c6c6572000000000000006044820152606401610d2a565b6001600160a01b038381166000818152606a6020908152604080832094871680845294825291829020805460ff191686151590811790915591519182527f17307eab39ab6107e8899845ad3d59bd9653f200f220920489ca2b5937696c31910160405180910390a3505050565b600082828080601f0160208091040260200160405190810160405280939291908181526020018383808284376000920191909152505082519293505060058210905080612d2a5750601f81115b15612d4857604051633eb64ab360e01b815260040160405180910390fd5b600084846000818110612d5d57612d5d6145a4565b909101356001600160f81b031916915050602d60f81b811480612d8d5750605f60f81b6001600160f81b03198216145b15612dab57604051632f2c22a760e11b815260040160405180910390fd5b60005b82811015612ef757600360fc1b848281518110612dcd57612dcd6145a4565b01602001516001600160f81b0319161080612e0b5750603d60f91b848281518110612dfa57612dfa6145a4565b01602001516001600160f81b031916115b80612e675750603960f81b848281518110612e2857612e286145a4565b01602001516001600160f81b031916118015612e675750606160f81b848281518110612e5657612e566145a4565b01602001516001600160f81b031916105b8015612e985750838181518110612e8057612e806145a4565b6020910101516001600160f81b031916602d60f81b14155b8015612ec95750838181518110612eb157612eb16145a4565b6020910101516001600160f81b031916605f60f81b14155b15612ee757604051630bb7f19b60e21b815260040160405180910390fd5b612ef0816145ba565b9050612dae565b505050505050565b610f1e8282604051806020016040528060008152506132a7565b600080612f266101355490565b9050612f3761013580546001019055565b600081815261012e6020526040902060018101612f548682614348565b508181556101345460088201556009810180546001600160a01b0319166001600160a01b03861617905560405160019061012d90612f939088906145ef565b908152604080519182900360209081018320805494151560ff19909516949094179093556001600160a01b0387166000818152610132909452922084905561013354610134547f8475f1ba3b06c1e11c870cbbf9753ca9a8292ea0b203262f682de476dc268f8c926130089287928b9261460b565b60405180910390a2509392505050565b600081815261012e6020908152604080832090516060939261303e926001019101614637565b60405160208183030381529060405290506000601461012e6000868152602001908152602001600020600101805461307590614195565b9050111561309d5760405180604001604052806002815260200161034360f41b8152506130b9565b60405180604001604052806002815260200161036360f41b8152505b905060006130e782846040516020016130d39291906146b8565b6040516020818303038152906040526132da565b6040516020016130f79190614a30565b604051602081830303815290604052905061311e83826040516020016130d3929190614a75565b60405160200161312e9190614b12565b6040516020818303038152906040529350505050919050565b6131518282611c92565b610f1e5761315e8161342d565b61316983602061343f565b60405160200161317a929190614b57565b60408051601f198184030181529082905262461bcd60e51b8252610d2a91600401613b18565b6001600160a01b0381163b61320d5760405162461bcd60e51b815260206004820152602d60248201527f455243313936373a206e657720696d706c656d656e746174696f6e206973206e60448201526c1bdd08184818dbdb9d1c9858dd609a1b6064820152608401610d2a565b600080516020614cfc83398151915280546001600160a01b0319166001600160a01b0392909216919091179055565b613245836135e2565b6000825111806132525750805b15610dcb576132618383613622565b50505050565b600054610100900460ff1661328e5760405162461bcd60e51b8152600401610d2a90614559565b606561329a8382614348565b506066610dcb8282614348565b6132b18383613716565b6132be60008484846138af565b610dcb5760405162461bcd60e51b8152600401610d2a90614bcc565b606081516000036132f957505060408051602081019091526000815290565b6000604051806060016040528060408152602001614d1c60409139905060006003845160026133289190614c1e565b6133329190614c31565b61333d906004614c53565b67ffffffffffffffff81111561335557613355613bfa565b6040519080825280601f01601f19166020018201604052801561337f576020820181803683370190505b509050600182016020820185865187015b808210156133eb576003820191508151603f8160121c168501518453600184019350603f81600c1c168501518453600184019350603f8160061c168501518453600184019350603f8116850151845350600183019250613390565b5050600386510660018114613407576002811461341a57613422565b603d6001830353603d6002830353613422565b603d60018303535b509195945050505050565b6060610bf76001600160a01b03831660145b6060600061344e836002614c53565b613459906002614c1e565b67ffffffffffffffff81111561347157613471613bfa565b6040519080825280601f01601f19166020018201604052801561349b576020820181803683370190505b509050600360fc1b816000815181106134b6576134b66145a4565b60200101906001600160f81b031916908160001a905350600f60fb1b816001815181106134e5576134e56145a4565b60200101906001600160f81b031916908160001a9053506000613509846002614c53565b613514906001614c1e565b90505b600181111561358c576f181899199a1a9b1b9c1cb0b131b232b360811b85600f1660108110613548576135486145a4565b1a60f81b82828151811061355e5761355e6145a4565b60200101906001600160f81b031916908160001a90535060049490941c9361358581614c6a565b9050613517565b5083156135db5760405162461bcd60e51b815260206004820181905260248201527f537472696e67733a20686578206c656e67746820696e73756666696369656e746044820152606401610d2a565b9392505050565b6135eb816131a0565b6040516001600160a01b038216907fbc7cd75a20ee27fd9adebab32041f755214dbc6bffa90cc0225b39da2e5c2d3b90600090a250565b60606001600160a01b0383163b61368a5760405162461bcd60e51b815260206004820152602660248201527f416464726573733a2064656c65676174652063616c6c20746f206e6f6e2d636f6044820152651b9d1c9858dd60d21b6064820152608401610d2a565b600080846001600160a01b0316846040516136a591906145ef565b600060405180830381855af49150503d80600081146136e0576040519150601f19603f3d011682016040523d82523d6000602084013e6136e5565b606091505b509150915061370d8282604051806060016040528060278152602001614d7c602791396139b1565b95945050505050565b6001600160a01b03821661376c5760405162461bcd60e51b815260206004820181905260248201527f4552433732313a206d696e7420746f20746865207a65726f20616464726573736044820152606401610d2a565b6000818152606760205260409020546001600160a01b0316156137d15760405162461bcd60e51b815260206004820152601c60248201527f4552433732313a20746f6b656e20616c7265616479206d696e746564000000006044820152606401610d2a565b6137df6000838360016139ca565b6000818152606760205260409020546001600160a01b0316156138445760405162461bcd60e51b815260206004820152601c60248201527f4552433732313a20746f6b656e20616c7265616479206d696e746564000000006044820152606401610d2a565b6001600160a01b038216600081815260686020908152604080832080546001019055848352606790915280822080546001600160a01b0319168417905551839291907fddf252ad1be2c89b69c2b068fc378daa952ba7f163c4a11628f55a4df523b3ef908290a45050565b60006001600160a01b0384163b156139a557604051630a85bd0160e11b81526001600160a01b0385169063150b7a02906138f3903390899088908890600401614c81565b6020604051808303816000875af192505050801561392e575060408051601f3d908101601f1916820190925261392b91810190614cbe565b60015b61398b573d80801561395c576040519150601f19603f3d011682016040523d82523d6000602084013e613961565b606091505b5080516000036139835760405162461bcd60e51b8152600401610d2a90614bcc565b805181602001fd5b6001600160e01b031916630a85bd0160e11b1490506139a9565b5060015b949350505050565b606083156139c05750816135db565b6135db8383613a52565b6001811115613261576001600160a01b03841615613a10576001600160a01b03841660009081526068602052604081208054839290613a0a908490614212565b90915550505b6001600160a01b03831615613261576001600160a01b03831660009081526068602052604081208054839290613a47908490614c1e565b909155505050505050565b815115613a625781518083602001fd5b8060405162461bcd60e51b8152600401610d2a9190613b18565b600060208284031215613a8e57600080fd5b5035919050565b6001600160e01b031981168114610ffe57600080fd5b600060208284031215613abd57600080fd5b81356135db81613a95565b60005b83811015613ae3578181015183820152602001613acb565b50506000910152565b60008151808452613b04816020860160208601613ac8565b601f01601f19169290920160200192915050565b6020815260006135db6020830184613aec565b6001600160a01b0381168114610ffe57600080fd5b60008060408385031215613b5357600080fd5b8235613b5e81613b2b565b946020939093013593505050565b600060208284031215613b7e57600080fd5b81356135db81613b2b565b600080600060608486031215613b9e57600080fd5b8335613ba981613b2b565b92506020840135613bb981613b2b565b929592945050506040919091013590565b60008060408385031215613bdd57600080fd5b823591506020830135613bef81613b2b565b809150509250929050565b634e487b7160e01b600052604160045260246000fd5b600082601f830112613c2157600080fd5b813567ffffffffffffffff80821115613c3c57613c3c613bfa565b604051601f8301601f19908116603f01168101908282118183101715613c6457613c64613bfa565b81604052838152866020858801011115613c7d57600080fd5b836020870160208301376000602085830101528094505050505092915050565b600080600060608486031215613cb257600080fd5b833592506020840135613cc481613b2b565b9150604084013567ffffffffffffffff811115613ce057600080fd5b613cec86828701613c10565b9150509250925092565b60008060408385031215613d0957600080fd5b8235613d1481613b2b565b9150602083013567ffffffffffffffff811115613d3057600080fd5b613d3c85828601613c10565b9150509250929050565b602081528151602082015260006020830151610160806040850152613d6f610180850183613aec565b91506040850151601f1980868503016060870152613d8d8483613aec565b935060608701519150613da6608087018361ffff169052565b608087015161ffff811660a0880152915060a087015160c087015260c087015160e087015260e08701519150610100613de9818801846001600160a01b03169052565b80880151925050610120818786030181880152613e068584613aec565b90880151610140888101919091528801516001600160a01b038116858901529094509150613e319050565b5090949350505050565b60008060408385031215613e4e57600080fd5b82359150602083013561ffff81168114613bef57600080fd5b634e487b7160e01b600052602160045260246000fd5b6020810160038310613e9f57634e487b7160e01b600052602160045260246000fd5b91905290565b60008060408385031215613eb857600080fd5b8235613ec381613b2b565b915060208301358015158114613bef57600080fd5b600060208284031215613eea57600080fd5b813567ffffffffffffffff811115613f0157600080fd5b6139a984828501613c10565b60008060408385031215613f2057600080fd5b50508035926020909101359150565b60008060008060808587031215613f4557600080fd5b8435613f5081613b2b565b93506020850135613f6081613b2b565b925060408501359150606085013567ffffffffffffffff811115613f8357600080fd5b613f8f87828801613c10565b91505092959194509250565b60008083601f840112613fad57600080fd5b50813567ffffffffffffffff811115613fc557600080fd5b602083019150836020828501011115613fdd57600080fd5b9250929050565b600080600060408486031215613ff957600080fd5b833567ffffffffffffffff81111561401057600080fd5b61401c86828701613f9b565b909450925050602084013561403081613b2b565b809150509250925092565b6000806020838503121561404e57600080fd5b823567ffffffffffffffff81111561406557600080fd5b61407185828601613f9b565b90969095509350505050565b6000806040838503121561409057600080fd5b823561409b81613b2b565b91506020830135613bef81613b2b565b600080604083850312156140be57600080fd5b82359150602083013567ffffffffffffffff811115613d3057600080fd5b6000602082840312156140ee57600080fd5b8135600381106135db57600080fd5b60006101608d83528060208401526141178184018e613aec565b9050828103604084015261412b818d613aec565b61ffff8c811660608601528b16608085015260a084018a905260c084018990526001600160a01b0388811660e08601528482036101008601529091506141718288613aec565b92508561012085015280851661014085015250509c9b505050505050505050505050565b600181811c908216806141a957607f821691505b6020821081036141c957634e487b7160e01b600052602260045260246000fd5b50919050565b602080825260139082015272125b9d985b1a59081c1b185d199bdc9b481251606a1b604082015260600190565b634e487b7160e01b600052601160045260246000fd5b81810381811115610bf757610bf76141fc565b6020808252602c908201527f46756e6374696f6e206d7573742062652063616c6c6564207468726f7567682060408201526b19195b1959d85d1958d85b1b60a21b606082015260800190565b6020808252602c908201527f46756e6374696f6e206d7573742062652063616c6c6564207468726f7567682060408201526b6163746976652070726f787960a01b606082015260800190565b60208082526025908201527f596f75277265206e6f7420746865206f776e6572206f66207468697320706c6160408201526474666f726d60d81b606082015260800190565b601f821115610dcb57600081815260208120601f850160051c810160208610156143295750805b601f850160051c820191505b81811015612ef757828155600101614335565b815167ffffffffffffffff81111561436257614362613bfa565b614376816143708454614195565b84614302565b602080601f8311600181146143ab57600084156143935750858301515b600019600386901b1c1916600185901b178555612ef7565b600085815260208120601f198616915b828110156143da578886015182559484019460019091019084016143bb565b50858210156143f85787850151600019600388901b60f8161c191681555b5050505050600190811b01905550565b8381526000602060018060a01b03851681840152606060408401526000845461443081614195565b8060608701526080600180841660008114614452576001811461446c5761449a565b60ff1985168984015283151560051b89018301955061449a565b896000528660002060005b858110156144925781548b8201860152908301908801614477565b8a0184019650505b50939a9950505050505050505050565b60208082526024908201527f496e636f727265637420616d6f756e74206f662045544820666f72206d696e746040820152632066656560e01b606082015260800190565b60208082526022908201527f506c6174666f726d20616c726561647920686173206120506c6174666f726d20604082015261125160f21b606082015260800190565b8183823760009101908152919050565b60006020828403121561455257600080fd5b5051919050565b6020808252602b908201527f496e697469616c697a61626c653a20636f6e7472616374206973206e6f74206960408201526a6e697469616c697a696e6760a81b606082015260800190565b634e487b7160e01b600052603260045260246000fd5b6000600182016145cc576145cc6141fc565b5060010190565b600081516145e5818560208601613ac8565b9290920192915050565b60008251614601818460208701613ac8565b9190910192915050565b8481526080602082015260006146246080830186613aec565b6040830194909452506060015292915050565b600080835461464581614195565b6001828116801561465d5760018114614672576146a1565b60ff19841687528215158302870194506146a1565b8760005260208060002060005b858110156146985781548a82015290840190820161467f565b50505082870194505b5050620b9d1b60ea1b835250506003019392505050565b7f3c73766720786d6c6e733d22687474703a2f2f7777772e77332e6f72672f323081527f30302f737667222077696474683d2237323022206865696768743d223732302260208201527f3e3c726563742077696474683d223130302522206865696768743d223130302560408201527f222f3e3c73766720786d6c6e733d22687474703a2f2f7777772e77332e6f726760608201527f2f323030302f737667222077696474683d2231353022206865696768743d223160808201527f3530222076657273696f6e3d22312e32222076696577426f783d222d3230302060a08201527f2d353020313030302031303030223e3c706174682066696c6c3d22234646464660c08201527f46462220643d224d3236342e35203139302e3563302d31332e382031312e322d60e08201527f32352032352d3235483536386331332e3820302032352031312e3220323520326101008201527f357634393063302031332e382d31312e322032352d3235203235483238392e356101208201527f632d31332e3820302d32352d31312e322d32352d32357a222f3e3c70617468206101408201527f66696c6c3d22234646464646462220643d224d3236352036323463302d31332e6101608201527f382031312e322d32352032352d3235683534336331332e3820302032352031316101808201527f2e322032352032357635362e3563302031332e382d31312e322032352d3235206101a08201527f323548323930632d31332e3820302d32352d31312e322d32352d32357a222f3e6101c08201527f3c706174682066696c6c3d22234646464646462220643d224d30203139302e356101e08201527f63302d31332e382031312e322d32352032352d3235683534336331332e3820306102008201527f2032352031312e322032352032355632343763302031332e382d31312e3220326102208201527f352d3235203235483235632d31332e3820302d32352d31312e322d32352d32356102408201527f7a222f3e3c2f7376673e3c7465787420783d2233302220793d223637302220736102608201526b03a3cb6329e913337b73a1d160a51b61028082015260006139a9614a17614a116149e861028c8601886145d3565b7f70782073616e732d73657269663b66696c6c3a23666666223e00000000000000815260190190565b856145d3565b6c1e17ba32bc3a1f1e17b9bb339f60991b8152600d0190565b7f646174613a696d6167652f7376672b786d6c3b6261736536342c000000000000815260008251614a6881601a850160208701613ac8565b91909101601a0192915050565b683d913730b6b2911d1160b91b81528251600090614a9a816009850160208801613ac8565b6b1116101134b6b0b3b2911d1160a11b6009918401918201528351614ac6816015840160208801613ac8565b7f222c20226465736372697074696f6e223a202254616c656e74204c6179657220601592909101918201526c506c6174666f726d204944227d60981b6035820152604201949350505050565b7f646174613a6170706c69636174696f6e2f6a736f6e3b6261736536342c000000815260008251614b4a81601d850160208701613ac8565b91909101601d0192915050565b7f416363657373436f6e74726f6c3a206163636f756e7420000000000000000000815260008351614b8f816017850160208801613ac8565b7001034b99036b4b9b9b4b733903937b6329607d1b6017918401918201528351614bc0816028840160208801613ac8565b01602801949350505050565b60208082526032908201527f4552433732313a207472616e7366657220746f206e6f6e20455243373231526560408201527131b2b4bb32b91034b6b83632b6b2b73a32b960711b606082015260800190565b80820180821115610bf757610bf76141fc565b600082614c4e57634e487b7160e01b600052601260045260246000fd5b500490565b8082028115828204841417610bf757610bf76141fc565b600081614c7957614c796141fc565b506000190190565b6001600160a01b0385811682528416602082015260408101839052608060608201819052600090614cb490830184613aec565b9695505050505050565b600060208284031215614cd057600080fd5b81516135db81613a9556feb19546dff01e856fb3f010c267a7b1c60363cf8a4664e21cc89c26224620214e360894a13ba1a3210667c828492db98dca3e2076cc3735a920a3ca505d382bbc4142434445464748494a4b4c4d4e4f505152535455565758595a6162636465666768696a6b6c6d6e6f707172737475767778797a303132333435363738392b2f154c00819833dac601ee5ddded6fda79d9d8b506b911b3dbd54cdb95fe6c3686416464726573733a206c6f772d6c6576656c2064656c65676174652063616c6c206661696c6564a2646970667358221220c5104cc7ade5c43e2207bcf5a5a4c46fd1bfe6ab89cc4e4dbb787e03f4fad81364736f6c63430008110033",
  "linkReferences": {},
  "deployedLinkReferences": {}
}