{
  "_format": "hh-sol-artifact-1",
  "contractName": "TalentLayerID",
  "sourceName": "contracts/TalentLayerID.sol",
  "abi": [
    {
      "inputs": [
        {
          "internalType": "address",
          "name": "_pohAddress",
          "type": "address"
        },
        {
          "internalType": "address",
          "name": "_talentLayerPlatformIdAddress",
          "type": "address"
        }
      ],
      "stateMutability": "nonpayable",
      "type": "constructor"
    },
    {
      "inputs": [],
      "name": "ApprovalCallerNotOwnerNorApproved",
      "type": "error"
    },
    {
      "inputs": [],
      "name": "ApprovalQueryForNonexistentToken",
      "type": "error"
    },
    {
      "inputs": [],
      "name": "ApproveToCaller",
      "type": "error"
    },
    {
      "inputs": [],
      "name": "BalanceQueryForZeroAddress",
      "type": "error"
    },
    {
      "inputs": [],
      "name": "MintERC2309QuantityExceedsLimit",
      "type": "error"
    },
    {
      "inputs": [],
      "name": "MintToZeroAddress",
      "type": "error"
    },
    {
      "inputs": [],
      "name": "MintZeroQuantity",
      "type": "error"
    },
    {
      "inputs": [],
      "name": "OwnerQueryForNonexistentToken",
      "type": "error"
    },
    {
      "inputs": [],
      "name": "OwnershipNotInitializedForExtraData",
      "type": "error"
    },
    {
      "inputs": [],
      "name": "TransferCallerNotOwnerNorApproved",
      "type": "error"
    },
    {
      "inputs": [],
      "name": "TransferFromIncorrectOwner",
      "type": "error"
    },
    {
      "inputs": [],
      "name": "TransferToNonERC721ReceiverImplementer",
      "type": "error"
    },
    {
      "inputs": [],
      "name": "TransferToZeroAddress",
      "type": "error"
    },
    {
      "inputs": [],
      "name": "URIQueryForNonexistentToken",
      "type": "error"
    },
    {
      "anonymous": false,
      "inputs": [
        {
          "indexed": true,
          "internalType": "address",
          "name": "_newAddress",
          "type": "address"
        },
        {
          "indexed": true,
          "internalType": "address",
          "name": "_oldAddress",
          "type": "address"
        },
        {
          "indexed": false,
          "internalType": "string",
          "name": "_handle",
          "type": "string"
        },
        {
          "indexed": false,
          "internalType": "uint256",
          "name": "_tokenId",
          "type": "uint256"
        }
      ],
      "name": "AccountRecovered",
      "type": "event"
    },
    {
      "anonymous": false,
      "inputs": [
        {
          "indexed": true,
          "internalType": "address",
          "name": "owner",
          "type": "address"
        },
        {
          "indexed": true,
          "internalType": "address",
          "name": "approved",
          "type": "address"
        },
        {
          "indexed": true,
          "internalType": "uint256",
          "name": "tokenId",
          "type": "uint256"
        }
      ],
      "name": "Approval",
      "type": "event"
    },
    {
      "anonymous": false,
      "inputs": [
        {
          "indexed": true,
          "internalType": "address",
          "name": "owner",
          "type": "address"
        },
        {
          "indexed": true,
          "internalType": "address",
          "name": "operator",
          "type": "address"
        },
        {
          "indexed": false,
          "internalType": "bool",
          "name": "approved",
          "type": "bool"
        }
      ],
      "name": "ApprovalForAll",
      "type": "event"
    },
    {
      "anonymous": false,
      "inputs": [
        {
          "indexed": true,
          "internalType": "uint256",
          "name": "_tokenId",
          "type": "uint256"
        },
        {
          "indexed": false,
          "internalType": "string",
          "name": "_newCid",
          "type": "string"
        }
      ],
      "name": "CidUpdated",
      "type": "event"
    },
    {
      "anonymous": false,
      "inputs": [
        {
          "indexed": true,
          "internalType": "uint256",
          "name": "fromTokenId",
          "type": "uint256"
        },
        {
          "indexed": false,
          "internalType": "uint256",
          "name": "toTokenId",
          "type": "uint256"
        },
        {
          "indexed": true,
          "internalType": "address",
          "name": "from",
          "type": "address"
        },
        {
          "indexed": true,
          "internalType": "address",
          "name": "to",
          "type": "address"
        }
      ],
      "name": "ConsecutiveTransfer",
      "type": "event"
    },
    {
      "anonymous": false,
      "inputs": [
        {
          "indexed": true,
          "internalType": "address",
          "name": "_user",
          "type": "address"
        },
        {
          "indexed": false,
          "internalType": "uint256",
          "name": "_tokenId",
          "type": "uint256"
        },
        {
          "indexed": false,
          "internalType": "string",
          "name": "_handle",
          "type": "string"
        },
        {
          "indexed": false,
          "internalType": "bool",
          "name": "_withPoh",
          "type": "bool"
        },
        {
          "indexed": false,
          "internalType": "uint256",
          "name": "_platformId",
          "type": "uint256"
        },
        {
          "indexed": false,
          "internalType": "uint256",
          "name": "_fee",
          "type": "uint256"
        }
      ],
      "name": "Mint",
      "type": "event"
    },
    {
      "anonymous": false,
      "inputs": [
        {
          "indexed": false,
          "internalType": "uint256",
          "name": "_mintFee",
          "type": "uint256"
        }
      ],
      "name": "MintFeeUpdated",
      "type": "event"
    },
    {
      "anonymous": false,
      "inputs": [
        {
          "indexed": true,
          "internalType": "address",
          "name": "previousOwner",
          "type": "address"
        },
        {
          "indexed": true,
          "internalType": "address",
          "name": "newOwner",
          "type": "address"
        }
      ],
      "name": "OwnershipTransferred",
      "type": "event"
    },
    {
      "anonymous": false,
      "inputs": [
        {
          "indexed": true,
          "internalType": "address",
          "name": "_user",
          "type": "address"
        },
        {
          "indexed": false,
          "internalType": "uint256",
          "name": "_tokenId",
          "type": "uint256"
        },
        {
          "indexed": false,
          "internalType": "string",
          "name": "_handle",
          "type": "string"
        }
      ],
      "name": "PohActivated",
      "type": "event"
    },
    {
      "anonymous": false,
      "inputs": [
        {
          "indexed": true,
          "internalType": "address",
          "name": "from",
          "type": "address"
        },
        {
          "indexed": true,
          "internalType": "address",
          "name": "to",
          "type": "address"
        },
        {
          "indexed": true,
          "internalType": "uint256",
          "name": "tokenId",
          "type": "uint256"
        }
      ],
      "name": "Transfer",
      "type": "event"
    },
    {
      "inputs": [
        {
          "internalType": "uint256",
          "name": "_tokenId",
          "type": "uint256"
        }
      ],
      "name": "activatePoh",
      "outputs": [],
      "stateMutability": "nonpayable",
      "type": "function"
    },
    {
      "inputs": [
        {
          "internalType": "address",
          "name": "to",
          "type": "address"
        },
        {
          "internalType": "uint256",
          "name": "tokenId",
          "type": "uint256"
        }
      ],
      "name": "approve",
      "outputs": [],
      "stateMutability": "nonpayable",
      "type": "function"
    },
    {
      "inputs": [
        {
          "internalType": "address",
          "name": "owner",
          "type": "address"
        }
      ],
      "name": "balanceOf",
      "outputs": [
        {
          "internalType": "uint256",
          "name": "",
          "type": "uint256"
        }
      ],
      "stateMutability": "view",
      "type": "function"
    },
    {
      "inputs": [
        {
          "internalType": "uint256",
          "name": "tokenId",
          "type": "uint256"
        }
      ],
      "name": "getApproved",
      "outputs": [
        {
          "internalType": "address",
          "name": "",
          "type": "address"
        }
      ],
      "stateMutability": "view",
      "type": "function"
    },
    {
      "inputs": [
        {
          "internalType": "address",
          "name": "_address",
          "type": "address"
        }
      ],
      "name": "getOriginatorPlatformIdByAddress",
      "outputs": [
        {
          "internalType": "uint256",
          "name": "",
          "type": "uint256"
        }
      ],
      "stateMutability": "view",
      "type": "function"
    },
    {
      "inputs": [
        {
          "internalType": "uint256",
          "name": "_profileId",
          "type": "uint256"
        }
      ],
      "name": "getProfile",
      "outputs": [
        {
          "components": [
            {
              "internalType": "uint256",
              "name": "id",
              "type": "uint256"
            },
            {
              "internalType": "string",
              "name": "handle",
              "type": "string"
            },
            {
              "internalType": "address",
              "name": "pohAddress",
              "type": "address"
            },
            {
              "internalType": "uint256",
              "name": "platformId",
              "type": "uint256"
            },
            {
              "internalType": "string",
              "name": "dataUri",
              "type": "string"
            }
          ],
          "internalType": "struct TalentLayerID.Profile",
          "name": "",
          "type": "tuple"
        }
      ],
      "stateMutability": "view",
      "type": "function"
    },
    {
      "inputs": [
        {
          "internalType": "address",
          "name": "",
          "type": "address"
        }
      ],
      "name": "hasBeenRecovered",
      "outputs": [
        {
          "internalType": "bool",
          "name": "",
          "type": "bool"
        }
      ],
      "stateMutability": "view",
      "type": "function"
    },
    {
      "inputs": [
        {
          "internalType": "address",
          "name": "owner",
          "type": "address"
        },
        {
          "internalType": "address",
          "name": "operator",
          "type": "address"
        }
      ],
      "name": "isApprovedForAll",
      "outputs": [
        {
          "internalType": "bool",
          "name": "",
          "type": "bool"
        }
      ],
      "stateMutability": "view",
      "type": "function"
    },
    {
      "inputs": [
        {
          "internalType": "uint256",
          "name": "_tokenId",
          "type": "uint256"
        }
      ],
      "name": "isTokenPohRegistered",
      "outputs": [
        {
          "internalType": "bool",
          "name": "",
          "type": "bool"
        }
      ],
      "stateMutability": "view",
      "type": "function"
    },
    {
      "inputs": [
        {
          "internalType": "uint256",
          "name": "_tokenId",
          "type": "uint256"
        }
      ],
      "name": "isValid",
      "outputs": [],
      "stateMutability": "view",
      "type": "function"
    },
    {
      "inputs": [
        {
          "internalType": "uint256",
          "name": "_platformId",
          "type": "uint256"
        },
        {
          "internalType": "string",
          "name": "_handle",
          "type": "string"
        }
      ],
      "name": "mint",
      "outputs": [],
      "stateMutability": "payable",
      "type": "function"
    },
    {
      "inputs": [],
      "name": "mintFee",
      "outputs": [
        {
          "internalType": "uint256",
          "name": "",
          "type": "uint256"
        }
      ],
      "stateMutability": "view",
      "type": "function"
    },
    {
      "inputs": [
        {
          "internalType": "uint256",
          "name": "_platformId",
          "type": "uint256"
        },
        {
          "internalType": "string",
          "name": "_handle",
          "type": "string"
        }
      ],
      "name": "mintWithPoh",
      "outputs": [],
      "stateMutability": "payable",
      "type": "function"
    },
    {
      "inputs": [],
      "name": "name",
      "outputs": [
        {
          "internalType": "string",
          "name": "",
          "type": "string"
        }
      ],
      "stateMutability": "view",
      "type": "function"
    },
    {
      "inputs": [
        {
          "internalType": "address",
          "name": "_user",
          "type": "address"
        }
      ],
      "name": "numberMinted",
      "outputs": [
        {
          "internalType": "uint256",
          "name": "",
          "type": "uint256"
        }
      ],
      "stateMutability": "view",
      "type": "function"
    },
    {
      "inputs": [],
      "name": "owner",
      "outputs": [
        {
          "internalType": "address",
          "name": "",
          "type": "address"
        }
      ],
      "stateMutability": "view",
      "type": "function"
    },
    {
      "inputs": [
        {
          "internalType": "uint256",
          "name": "tokenId",
          "type": "uint256"
        }
      ],
      "name": "ownerOf",
      "outputs": [
        {
          "internalType": "address",
          "name": "",
          "type": "address"
        }
      ],
      "stateMutability": "view",
      "type": "function"
    },
    {
      "inputs": [],
      "name": "pohRegistry",
      "outputs": [
        {
          "internalType": "contract IProofOfHumanity",
          "name": "",
          "type": "address"
        }
      ],
      "stateMutability": "view",
      "type": "function"
    },
    {
      "inputs": [
        {
          "internalType": "uint256",
          "name": "",
          "type": "uint256"
        }
      ],
      "name": "profiles",
      "outputs": [
        {
          "internalType": "uint256",
          "name": "id",
          "type": "uint256"
        },
        {
          "internalType": "string",
          "name": "handle",
          "type": "string"
        },
        {
          "internalType": "address",
          "name": "pohAddress",
          "type": "address"
        },
        {
          "internalType": "uint256",
          "name": "platformId",
          "type": "uint256"
        },
        {
          "internalType": "string",
          "name": "dataUri",
          "type": "string"
        }
      ],
      "stateMutability": "view",
      "type": "function"
    },
    {
      "inputs": [
        {
          "internalType": "address",
          "name": "_oldAddress",
          "type": "address"
        },
        {
          "internalType": "uint256",
          "name": "_tokenId",
          "type": "uint256"
        },
        {
          "internalType": "uint256",
          "name": "_index",
          "type": "uint256"
        },
        {
          "internalType": "uint256",
          "name": "_recoveryKey",
          "type": "uint256"
        },
        {
          "internalType": "string",
          "name": "_handle",
          "type": "string"
        },
        {
          "internalType": "bytes32[]",
          "name": "_merkleProof",
          "type": "bytes32[]"
        }
      ],
      "name": "recoverAccount",
      "outputs": [],
      "stateMutability": "nonpayable",
      "type": "function"
    },
    {
      "inputs": [],
      "name": "recoveryRoot",
      "outputs": [
        {
          "internalType": "bytes32",
          "name": "",
          "type": "bytes32"
        }
      ],
      "stateMutability": "view",
      "type": "function"
    },
    {
      "inputs": [],
      "name": "renounceOwnership",
      "outputs": [],
      "stateMutability": "nonpayable",
      "type": "function"
    },
    {
      "inputs": [
        {
          "internalType": "address",
          "name": "from",
          "type": "address"
        },
        {
          "internalType": "address",
          "name": "to",
          "type": "address"
        },
        {
          "internalType": "uint256",
          "name": "tokenId",
          "type": "uint256"
        }
      ],
      "name": "safeTransferFrom",
      "outputs": [],
      "stateMutability": "nonpayable",
      "type": "function"
    },
    {
      "inputs": [
        {
          "internalType": "address",
          "name": "from",
          "type": "address"
        },
        {
          "internalType": "address",
          "name": "to",
          "type": "address"
        },
        {
          "internalType": "uint256",
          "name": "tokenId",
          "type": "uint256"
        },
        {
          "internalType": "bytes",
          "name": "_data",
          "type": "bytes"
        }
      ],
      "name": "safeTransferFrom",
      "outputs": [],
      "stateMutability": "nonpayable",
      "type": "function"
    },
    {
      "inputs": [
        {
          "internalType": "address",
          "name": "operator",
          "type": "address"
        },
        {
          "internalType": "bool",
          "name": "approved",
          "type": "bool"
        }
      ],
      "name": "setApprovalForAll",
      "outputs": [],
      "stateMutability": "nonpayable",
      "type": "function"
    },
    {
      "inputs": [
        {
          "internalType": "bytes4",
          "name": "interfaceId",
          "type": "bytes4"
        }
      ],
      "name": "supportsInterface",
      "outputs": [
        {
          "internalType": "bool",
          "name": "",
          "type": "bool"
        }
      ],
      "stateMutability": "view",
      "type": "function"
    },
    {
      "inputs": [],
      "name": "symbol",
      "outputs": [
        {
          "internalType": "string",
          "name": "",
          "type": "string"
        }
      ],
      "stateMutability": "view",
      "type": "function"
    },
    {
      "inputs": [
        {
          "internalType": "string",
          "name": "",
          "type": "string"
        }
      ],
      "name": "takenHandles",
      "outputs": [
        {
          "internalType": "bool",
          "name": "",
          "type": "bool"
        }
      ],
      "stateMutability": "view",
      "type": "function"
    },
    {
      "inputs": [],
      "name": "talentLayerPlatformIdContract",
      "outputs": [
        {
          "internalType": "contract ITalentLayerPlatformID",
          "name": "",
          "type": "address"
        }
      ],
      "stateMutability": "view",
      "type": "function"
    },
    {
      "inputs": [
        {
          "internalType": "uint256",
          "name": "tokenId",
          "type": "uint256"
        }
      ],
      "name": "tokenURI",
      "outputs": [
        {
          "internalType": "string",
          "name": "",
          "type": "string"
        }
      ],
      "stateMutability": "view",
      "type": "function"
    },
    {
      "inputs": [],
      "name": "totalSupply",
      "outputs": [
        {
          "internalType": "uint256",
          "name": "",
          "type": "uint256"
        }
      ],
      "stateMutability": "view",
      "type": "function"
    },
    {
      "inputs": [
        {
          "internalType": "address",
          "name": "from",
          "type": "address"
        },
        {
          "internalType": "address",
          "name": "to",
          "type": "address"
        },
        {
          "internalType": "uint256",
          "name": "tokenId",
          "type": "uint256"
        }
      ],
      "name": "transferFrom",
      "outputs": [],
      "stateMutability": "nonpayable",
      "type": "function"
    },
    {
      "inputs": [
        {
          "internalType": "address",
          "name": "newOwner",
          "type": "address"
        }
      ],
      "name": "transferOwnership",
      "outputs": [],
      "stateMutability": "nonpayable",
      "type": "function"
    },
    {
      "inputs": [
        {
          "internalType": "uint256",
          "name": "_mintFee",
          "type": "uint256"
        }
      ],
      "name": "updateMintFee",
      "outputs": [],
      "stateMutability": "nonpayable",
      "type": "function"
    },
    {
      "inputs": [
        {
          "internalType": "uint256",
          "name": "_tokenId",
          "type": "uint256"
        },
        {
          "internalType": "string",
          "name": "_newCid",
          "type": "string"
        }
      ],
      "name": "updateProfileData",
      "outputs": [],
      "stateMutability": "nonpayable",
      "type": "function"
    },
    {
      "inputs": [
        {
          "internalType": "bytes32",
          "name": "_newRoot",
          "type": "bytes32"
        }
      ],
      "name": "updateRecoveryRoot",
      "outputs": [],
      "stateMutability": "nonpayable",
      "type": "function"
    },
    {
      "inputs": [
        {
          "internalType": "address",
          "name": "_owner",
          "type": "address"
        }
      ],
      "name": "walletOfOwner",
      "outputs": [
        {
          "internalType": "uint256",
          "name": "",
          "type": "uint256"
        }
      ],
      "stateMutability": "view",
      "type": "function"
    },
    {
      "inputs": [],
      "name": "withdraw",
      "outputs": [],
      "stateMutability": "nonpayable",
      "type": "function"
    }
  ],
  "bytecode": "0x60806040523480156200001157600080fd5b5060405162004c1838038062004c188339810160408190526200003491620001f9565b604080518082018252600d81526c15185b195b9d13185e595c9251609a1b60208083019182528351808501909452600384526215125160ea1b908401528151919291620000849160029162000136565b5080516200009a90600390602084019062000136565b5050600160005550620000ad33620000e4565b600980546001600160a01b039384166001600160a01b031991821617909155600a80549290931691161790556000600f556200026e565b600880546001600160a01b038381166001600160a01b0319831681179093556040519116919082907f8be0079c531659141344cd1fd0a4f28419497f9722a3daafe3b4186f6b6457e090600090a35050565b828054620001449062000231565b90600052602060002090601f016020900481019282620001685760008555620001b3565b82601f106200018357805160ff1916838001178555620001b3565b82800160010185558215620001b3579182015b82811115620001b357825182559160200191906001019062000196565b50620001c1929150620001c5565b5090565b5b80821115620001c15760008155600101620001c6565b80516001600160a01b0381168114620001f457600080fd5b919050565b600080604083850312156200020d57600080fd5b6200021883620001dc565b91506200022860208401620001dc565b90509250929050565b600181811c908216806200024657607f821691505b602082108114156200026857634e487b7160e01b600052602260045260246000fd5b50919050565b61499a806200027e6000396000f3fe6080604052600436106102255760003560e01c80636352211e11610123578063b88d4fde116100ab578063e985e9c51161006f578063e985e9c514610651578063f08f4f641461069a578063f160068f146106c7578063f2fde38b146106e7578063f577a5001461070757600080fd5b8063b88d4fde14610590578063c36fe3d6146105b0578063c87b56dd146105e1578063dc33e68114610601578063de8295921461062157600080fd5b806384017e52116100f257806384017e52146104fd57806384c639371461051d5780638da5cb5b1461053d57806395d89b411461055b578063a22cb4651461057057600080fd5b80636352211e1461049557806370a08231146104b5578063715018a6146104d557806377097fc8146104ea57600080fd5b80632106beec116101b157806342842e0e1161017557806342842e0e146103ad578063438b63001461042257806346be141c1461044257806352fc54e1146104625780635c4b03481461047557600080fd5b80632106beec1461037257806323b872dd146103ad5780632567c4c6146103cd5780633ccfd60b146103ed5780633ce12f6d1461040257600080fd5b80630fb72ff6116101f85780630fb72ff6146102db57806313966db5146102fb5780631499f9e61461031f57806318160ddd1461033f57806319aeca931461035c57600080fd5b806301ffc9a71461022a57806306fdde031461025f578063081812fc14610281578063095ea7b3146102b9575b600080fd5b34801561023657600080fd5b5061024a610245366004612646565b610727565b60405190151581526020015b60405180910390f35b34801561026b57600080fd5b50610274610779565b60405161025691906126bb565b34801561028d57600080fd5b506102a161029c3660046126ce565b61080b565b6040516001600160a01b039091168152602001610256565b3480156102c557600080fd5b506102d96102d4366004612703565b61084f565b005b3480156102e757600080fd5b506102d96102f63660046126ce565b6108ef565b34801561030757600080fd5b50610311600f5481565b604051908152602001610256565b34801561032b57600080fd5b50600a546102a1906001600160a01b031681565b34801561034b57600080fd5b506001546000540360001901610311565b34801561036857600080fd5b50610311600d5481565b34801561037e57600080fd5b5061024a61038d3660046127d9565b8051602081830181018051600b8252928201919093012091525460ff1681565b3480156103b957600080fd5b506102d96103c836600461280e565b505050565b3480156103d957600080fd5b506102d96103e8366004612896565b610a4d565b3480156103f957600080fd5b506102d9610ede565b34801561040e57600080fd5b506102d961041d3660046126ce565b610f81565b34801561042e57600080fd5b5061031161043d366004612961565b610f8e565b34801561044e57600080fd5b5061024a61045d3660046126ce565b611017565b6102d961047036600461297c565b6110a6565b34801561048157600080fd5b50610311610490366004612961565b611359565b3480156104a157600080fd5b506102a16104b03660046126ce565b611381565b3480156104c157600080fd5b506103116104d0366004612961565b61138c565b3480156104e157600080fd5b506102d96113db565b6102d96104f836600461297c565b6113ef565b34801561050957600080fd5b506102d96105183660046126ce565b6115d0565b34801561052957600080fd5b506009546102a1906001600160a01b031681565b34801561054957600080fd5b506008546001600160a01b03166102a1565b34801561056757600080fd5b50610274611613565b34801561057c57600080fd5b506102d961058b3660046129d1565b611622565b34801561059c57600080fd5b506102d96105ab366004612a08565b6116b8565b3480156105bc57600080fd5b506105d06105cb3660046126ce565b6116f1565b604051610256959493929190612a84565b3480156105ed57600080fd5b506102746105fc3660046126ce565b61183e565b34801561060d57600080fd5b5061031161061c366004612961565b611849565b34801561062d57600080fd5b5061024a61063c366004612961565b600e6020526000908152604090205460ff1681565b34801561065d57600080fd5b5061024a61066c366004612ad1565b6001600160a01b03918216600090815260076020908152604080832093909416825291909152205460ff1690565b3480156106a657600080fd5b506106ba6106b53660046126ce565b611854565b6040516102569190612b04565b3480156106d357600080fd5b506102d96106e236600461297c565b611a66565b3480156106f357600080fd5b506102d9610702366004612961565b611b36565b34801561071357600080fd5b506102d96107223660046126ce565b611bac565b60006301ffc9a760e01b6001600160e01b03198316148061075857506380ac58cd60e01b6001600160e01b03198316145b806107735750635b5e139f60e01b6001600160e01b03198316145b92915050565b60606002805461078890612b6c565b80601f01602080910402602001604051908101604052809291908181526020018280546107b490612b6c565b80156108015780601f106107d657610100808354040283529160200191610801565b820191906000526020600020905b8154815290600101906020018083116107e457829003601f168201915b5050505050905090565b600061081682611c12565b610833576040516333d1c03960e21b815260040160405180910390fd5b506000908152600660205260409020546001600160a01b031690565b600061085a82611381565b9050336001600160a01b0382161461089357610876813361066c565b610893576040516367d9dca160e11b815260040160405180910390fd5b60008281526006602052604080822080546001600160a01b0319166001600160a01b0387811691821790925591518593918516917f8c5be1e5ebec7d5bd14f71427d1e84f3dd0314c0f7b2291e5b200ac8c7c3b92591a4505050565b336108f982611381565b6001600160a01b03161461090c57600080fd5b60095460405163c3c5a54760e01b81523360048201526001600160a01b039091169063c3c5a5479060240160206040518083038186803b15801561094f57600080fd5b505afa158015610963573d6000803e3d6000fd5b505050506040513d601f19601f820116820180604052508101906109879190612ba7565b6109e85760405162461bcd60e51b815260206004820152602760248201527f596f752772652061646472657373206973206e6f7420726567697374657264206044820152660ccdee440e0ded60cb1b60648201526084015b60405180910390fd5b6000818152600c6020526040908190206002810180546001600160a01b0319163390811790915591517ffcf318157300453509399d936c89c1eca423a389b4080c5c0ce3d9f86b1d199991610a4291859160010190612bc4565b60405180910390a250565b6001600160a01b0388166000908152600e602052604090205460ff1615610ac65760405162461bcd60e51b815260206004820152602760248201527f5468697320616464726573732068617320616c7265616479206265656e20726560448201526618dbdd995c995960ca1b60648201526084016109df565b876001600160a01b0316610ad988611381565b6001600160a01b031614610b3b5760405162461bcd60e51b815260206004820152602360248201527f596f7520617265206e6f7420746865206f776e6572206f66207468697320746f60448201526235b2b760e91b60648201526084016109df565b610b4433611849565b15610b915760405162461bcd60e51b815260206004820152601860248201527f596f7520616c72656164792068617665206120746f6b656e000000000000000060448201526064016109df565b6000878152600c60205260409020600201546001600160a01b031615610c165760405162461bcd60e51b815260206004820152603460248201527f596f7572206f6c64206164647265737320776173206e6f74206c696e6b656420604482015273746f2050726f6f66206f662048756d616e69747960601b60648201526084016109df565b8383604051602001610c29929190612c51565b60408051601f19818403018152828252805160209182012060008b8152600c8352929092209192610c5e926001019101612c61565b6040516020818303038152906040528051906020012014610cb25760405162461bcd60e51b815260206004820152600e60248201526d496e76616c69642068616e646c6560901b60448201526064016109df565b60095460405163c3c5a54760e01b81523360048201526001600160a01b039091169063c3c5a5479060240160206040518083038186803b158015610cf557600080fd5b505afa158015610d09573d6000803e3d6000fd5b505050506040513d601f19601f82011682018060405250810190610d2d9190612ba7565b610d495760405162461bcd60e51b81526004016109df90612cd3565b6000868686868c604051602001610d64959493929190612d30565b604051602081830303815290604052805190602001209050610dbd83838080602002602001604051908101604052809392919081815260200183836020028082843760009201919091525050600d549150849050611c47565b610e135760405162461bcd60e51b815260206004820152602160248201527f4d65726b6c654469737472696275746f723a20496e76616c69642070726f6f666044820152601760f91b60648201526084016109df565b6001600160a01b0389166000908152600e60209081526040808320805460ff191660019081179091558b8452600c909252909120610e5391018686612523565b506000888152600c6020526040902060020180546001600160a01b03191633908117909155610e84908a908a611c5d565b886001600160a01b0316336001600160a01b03167fe27a76891cb9f3da59f6b7d03f64aee72f85a390754515a420a189491dc795de87878c604051610ecb93929190612d6c565b60405180910390a3505050505050505050565b610ee6611d63565b604051600090339047908381818185875af1925050503d8060008114610f28576040519150601f19603f3d011682016040523d82523d6000602084013e610f2d565b606091505b5050905080610f7e5760405162461bcd60e51b815260206004820152601860248201527f4661696c656420746f207769746864726177204574686572000000000000000060448201526064016109df565b50565b610f89611d63565b600d55565b6000806001815b6001546000540360001901821161100e576000610fb183611dbd565b90508060400151158015610fce575080516001600160a01b031615155b15610fd857805191505b856001600160a01b0316826001600160a01b03161415610ffb578293505061100e565b8261100581612dbb565b93505050610f95565b50909392505050565b6009546000828152600c602052604080822060020154905163c3c5a54760e01b81526001600160a01b0391821660048201529192169063c3c5a5479060240160206040518083038186803b15801561106e57600080fd5b505afa158015611082573d6000803e3d6000fd5b505050506040513d601f19601f820116820180604052508101906107739190612ba7565b8082600f5434146110c95760405162461bcd60e51b81526004016109df90612dd6565b6110d233611849565b1561111f5760405162461bcd60e51b815260206004820181905260248201527f596f7520616c7265616479206861766520612054616c656e744c61796572494460448201526064016109df565b6002825110156111645760405162461bcd60e51b815260206004820152601060248201526f12185b991b19481d1bdbc81cda1bdc9d60821b60448201526064016109df565b600a825111156111a85760405162461bcd60e51b815260206004820152600f60248201526e48616e646c6520746f6f206c6f6e6760881b60448201526064016109df565b600b826040516111b89190612e36565b9081526040519081900360200190205460ff161561120f5760405162461bcd60e51b81526020600482015260146024820152732430b73236329030b63932b0b23c903a30b5b2b760611b60448201526064016109df565b600a5460405162f577a560e81b8152600481018390526001600160a01b039091169063f577a5009060240160006040518083038186803b15801561125257600080fd5b505afa158015611266573d6000803e3d6000fd5b505060095460405163c3c5a54760e01b81523360048201526001600160a01b03909116925063c3c5a547915060240160206040518083038186803b1580156112ad57600080fd5b505afa1580156112c1573d6000803e3d6000fd5b505050506040513d601f19601f820116820180604052508101906112e59190612ba7565b6113015760405162461bcd60e51b81526004016109df90612cd3565b61130c336001611e35565b6000600161131960005490565b6113239190612e52565b6000818152600c6020526040902060020180546001600160a01b03191633179055905061135284600187611e53565b5050505050565b6000600c600061136884610f8e565b8152602001908152602001600020600301549050919050565b600061077382611f15565b60006001600160a01b0382166113b5576040516323d3ad8160e21b815260040160405180910390fd5b506001600160a01b031660009081526005602052604090205467ffffffffffffffff1690565b6113e3611d63565b6113ed6000611f85565b565b8082600f5434146114125760405162461bcd60e51b81526004016109df90612dd6565b61141b33611849565b156114685760405162461bcd60e51b815260206004820181905260248201527f596f7520616c7265616479206861766520612054616c656e744c61796572494460448201526064016109df565b6002825110156114ad5760405162461bcd60e51b815260206004820152601060248201526f12185b991b19481d1bdbc81cda1bdc9d60821b60448201526064016109df565b600a825111156114f15760405162461bcd60e51b815260206004820152600f60248201526e48616e646c6520746f6f206c6f6e6760881b60448201526064016109df565b600b826040516115019190612e36565b9081526040519081900360200190205460ff16156115585760405162461bcd60e51b81526020600482015260146024820152732430b73236329030b63932b0b23c903a30b5b2b760611b60448201526064016109df565b600a5460405162f577a560e81b8152600481018390526001600160a01b039091169063f577a5009060240160006040518083038186803b15801561159b57600080fd5b505afa1580156115af573d6000803e3d6000fd5b505050506115be336001611e35565b6115ca83600086611e53565b50505050565b6115d8611d63565b600f8190556040518181527f38fbb1c8b109c430f0c030e7ed076cf5611a307773a4e8e365601e8f8bceaec69060200160405180910390a150565b60606003805461078890612b6c565b6001600160a01b03821633141561164c5760405163b06307db60e01b815260040160405180910390fd5b3360008181526007602090815260408083206001600160a01b03871680855290835292819020805460ff191686151590811790915590519081529192917f17307eab39ab6107e8899845ad3d59bd9653f200f220920489ca2b5937696c31910160405180910390a35050565b6001600160a01b0383163b156115ca576116d484848484611fd7565b6115ca576040516368d2bf6b60e11b815260040160405180910390fd5b600c602052600090815260409020805460018201805491929161171390612b6c565b80601f016020809104026020016040519081016040528092919081815260200182805461173f90612b6c565b801561178c5780601f106117615761010080835404028352916020019161178c565b820191906000526020600020905b81548152906001019060200180831161176f57829003601f168201915b505050506002830154600384015460048501805494956001600160a01b0390931694919350906117bb90612b6c565b80601f01602080910402602001604051908101604052809291908181526020018280546117e790612b6c565b80156118345780601f1061180957610100808354040283529160200191611834565b820191906000526020600020905b81548152906001019060200180831161181757829003601f168201915b5050505050905085565b6060610773826120cf565b60006107738261138c565b61188f6040518060a00160405280600081526020016060815260200160006001600160a01b0316815260200160008152602001606081525090565b61189882611c12565b6118f25760405162461bcd60e51b815260206004820152602560248201527f54616c656e744c6179657249443a2050726f66696c6520646f6573206e6f7420604482015264195e1a5cdd60da1b60648201526084016109df565b600c60008381526020019081526020016000206040518060a00160405290816000820154815260200160018201805461192a90612b6c565b80601f016020809104026020016040519081016040528092919081815260200182805461195690612b6c565b80156119a35780601f10611978576101008083540402835291602001916119a3565b820191906000526020600020905b81548152906001019060200180831161198657829003601f168201915b505050918352505060028201546001600160a01b03166020820152600382015460408201526004820180546060909201916119dd90612b6c565b80601f0160208091040260200160405190810160405280929190818152602001828054611a0990612b6c565b8015611a565780601f10611a2b57610100808354040283529160200191611a56565b820191906000526020600020905b815481529060010190602001808311611a3957829003601f168201915b5050505050815250509050919050565b33611a7083611381565b6001600160a01b031614611a8357600080fd5b6000815111611ad45760405162461bcd60e51b815260206004820152601f60248201527f53686f756c642070726f7669646520612076616c69642049504653205552490060448201526064016109df565b6000828152600c602090815260409091208251611af9926004909201918401906125a7565b50817f613807bd6768f626264e7eb664a65ca99a0d930f8fd8a5b868491a592eb57f7282604051611b2a91906126bb565b60405180910390a25050565b611b3e611d63565b6001600160a01b038116611ba35760405162461bcd60e51b815260206004820152602660248201527f4f776e61626c653a206e6577206f776e657220697320746865207a65726f206160448201526564647265737360d01b60648201526084016109df565b610f7e81611f85565b600081118015611bc6575060015460005403600019018111155b610f7e5760405162461bcd60e51b815260206004820152601f60248201527f596f7572204944206973206e6f7420612076616c696420746f6b656e2049440060448201526064016109df565b600081600111158015611c26575060005482105b8015610773575050600090815260046020526040902054600160e01b161590565b600082611c5485846121f9565b14949350505050565b6000611c6882611f15565b90506001600160a01b038316611c9157604051633a954ecd60e21b815260040160405180910390fd5b6001600160a01b038481166000908152600560205260408082208054600019019055918516808252919020805460010190554260a01b17600160e11b17600083815260046020526040902055600160e11b8116611d1c5760018201600081815260046020526040902054611d1a576000548114611d1a5760008181526004602052604090208290555b505b81836001600160a01b0316856001600160a01b03167fddf252ad1be2c89b69c2b068fc378daa952ba7f163c4a11628f55a4df523b3ef60405160405180910390a450505050565b6008546001600160a01b031633146113ed5760405162461bcd60e51b815260206004820181905260248201527f4f776e61626c653a2063616c6c6572206973206e6f7420746865206f776e657260448201526064016109df565b604080516080810182526000808252602082018190529181018290526060810191909152610773611ded83611f15565b604080516080810182526001600160a01b038316815260a083901c67ffffffffffffffff166020820152600160e01b831615159181019190915260e89190911c606082015290565b611e4f828260405180602001604052806000815250612246565b5050565b60006001611e6060005490565b611e6a9190612e52565b6000818152600c6020908152604090912060038101859055865192935091611e9a916001840191908801906125a7565b506001600b86604051611ead9190612e36565b908152604051908190036020018120805492151560ff1990931692909217909155600f5433917fb04779a1cbc204eb57d83e8b7da4a89e2bb550e71807dfcb8f312ee4d73b5f6f91611f069186918a918a918a91612e69565b60405180910390a25050505050565b60008180600111611f6c57600054811015611f6c57600081815260046020526040902054600160e01b8116611f6a575b80611f63575060001901600081815260046020526040902054611f45565b9392505050565b505b604051636f96cda160e11b815260040160405180910390fd5b600880546001600160a01b038381166001600160a01b0319831681179093556040519116919082907f8be0079c531659141344cd1fd0a4f28419497f9722a3daafe3b4186f6b6457e090600090a35050565b604051630a85bd0160e11b81526000906001600160a01b0385169063150b7a029061200c903390899088908890600401612e9f565b602060405180830381600087803b15801561202657600080fd5b505af1925050508015612056575060408051601f3d908101601f1916820190925261205391810190612edc565b60015b6120b1573d808015612084576040519150601f19603f3d011682016040523d82523d6000602084013e612089565b606091505b5080516120a9576040516368d2bf6b60e11b815260040160405180910390fd5b805181602001fd5b6001600160e01b031916630a85bd0160e11b1490505b949350505050565b6000818152600c60205260408120600101805460609291906120f090612b6c565b80601f016020809104026020016040519081016040528092919081815260200182805461211c90612b6c565b80156121695780601f1061213e57610100808354040283529160200191612169565b820191906000526020600020905b81548152906001019060200180831161214c57829003601f168201915b50505050509050600061219a826040516020016121869190612ef9565b6040516020818303038152906040526122ac565b6040516020016121aa9190614798565b60405160208183030381529060405290506121d182826040516020016121869291906147dd565b6040516020016121e19190614870565b60405160208183030381529060405292505050919050565b600081815b845181101561223e5761222a8286838151811061221d5761221d6148b5565b6020026020010151612400565b91508061223681612dbb565b9150506121fe565b509392505050565b612250838361242c565b6001600160a01b0383163b156103c8576000548281035b61227a6000868380600101945086611fd7565b612297576040516368d2bf6b60e11b815260040160405180910390fd5b81811061226757816000541461135257600080fd5b60608151600014156122cc57505060408051602081019091526000815290565b600060405180606001604052806040815260200161492560409139905060006003845160026122fb91906148cb565b61230591906148e3565b612310906004614905565b67ffffffffffffffff8111156123285761232861272d565b6040519080825280601f01601f191660200182016040528015612352576020820181803683370190505b509050600182016020820185865187015b808210156123be576003820191508151603f8160121c168501518453600184019350603f81600c1c168501518453600184019350603f8160061c168501518453600184019350603f8116850151845350600183019250612363565b50506003865106600181146123da57600281146123ed576123f5565b603d6001830353603d60028303536123f5565b603d60018303535b509195945050505050565b600081831061241c576000828152602084905260409020611f63565b5060009182526020526040902090565b6000548161244d5760405163b562e8dd60e01b815260040160405180910390fd5b6001600160a01b03831660008181526005602090815260408083208054680100000000000000018802019055848352600490915281206001851460e11b4260a01b178317905582840190839083907fddf252ad1be2c89b69c2b068fc378daa952ba7f163c4a11628f55a4df523b3ef8180a4600183015b8181146124fc57808360007fddf252ad1be2c89b69c2b068fc378daa952ba7f163c4a11628f55a4df523b3ef600080a46001016124c4565b508161251a57604051622e076360e81b815260040160405180910390fd5b60005550505050565b82805461252f90612b6c565b90600052602060002090601f0160209004810192826125515760008555612597565b82601f1061256a5782800160ff19823516178555612597565b82800160010185558215612597579182015b8281111561259757823582559160200191906001019061257c565b506125a392915061261b565b5090565b8280546125b390612b6c565b90600052602060002090601f0160209004810192826125d55760008555612597565b82601f106125ee57805160ff1916838001178555612597565b82800160010185558215612597579182015b82811115612597578251825591602001919060010190612600565b5b808211156125a3576000815560010161261c565b6001600160e01b031981168114610f7e57600080fd5b60006020828403121561265857600080fd5b8135611f6381612630565b60005b8381101561267e578181015183820152602001612666565b838111156115ca5750506000910152565b600081518084526126a7816020860160208601612663565b601f01601f19169290920160200192915050565b602081526000611f63602083018461268f565b6000602082840312156126e057600080fd5b5035919050565b80356001600160a01b03811681146126fe57600080fd5b919050565b6000806040838503121561271657600080fd5b61271f836126e7565b946020939093013593505050565b634e487b7160e01b600052604160045260246000fd5b600067ffffffffffffffff8084111561275e5761275e61272d565b604051601f8501601f19908116603f011681019082821181831017156127865761278661272d565b8160405280935085815286868601111561279f57600080fd5b858560208301376000602087830101525050509392505050565b600082601f8301126127ca57600080fd5b611f6383833560208501612743565b6000602082840312156127eb57600080fd5b813567ffffffffffffffff81111561280257600080fd5b6120c7848285016127b9565b60008060006060848603121561282357600080fd5b61282c846126e7565b925061283a602085016126e7565b9150604084013590509250925092565b60008083601f84011261285c57600080fd5b50813567ffffffffffffffff81111561287457600080fd5b6020830191508360208260051b850101111561288f57600080fd5b9250929050565b60008060008060008060008060c0898b0312156128b257600080fd5b6128bb896126e7565b9750602089013596506040890135955060608901359450608089013567ffffffffffffffff808211156128ed57600080fd5b818b0191508b601f83011261290157600080fd5b81358181111561291057600080fd5b8c602082850101111561292257600080fd5b6020830196508095505060a08b013591508082111561294057600080fd5b5061294d8b828c0161284a565b999c989b5096995094979396929594505050565b60006020828403121561297357600080fd5b611f63826126e7565b6000806040838503121561298f57600080fd5b82359150602083013567ffffffffffffffff8111156129ad57600080fd5b6129b9858286016127b9565b9150509250929050565b8015158114610f7e57600080fd5b600080604083850312156129e457600080fd5b6129ed836126e7565b915060208301356129fd816129c3565b809150509250929050565b60008060008060808587031215612a1e57600080fd5b612a27856126e7565b9350612a35602086016126e7565b925060408501359150606085013567ffffffffffffffff811115612a5857600080fd5b8501601f81018713612a6957600080fd5b612a7887823560208401612743565b91505092959194509250565b85815260a060208201526000612a9d60a083018761268f565b6001600160a01b0386166040840152606083018590528281036080840152612ac5818561268f565b98975050505050505050565b60008060408385031215612ae457600080fd5b612aed836126e7565b9150612afb602084016126e7565b90509250929050565b60208152815160208201526000602083015160a06040840152612b2a60c084018261268f565b905060018060a01b036040850151166060840152606084015160808401526080840151601f198483030160a0850152612b63828261268f565b95945050505050565b600181811c90821680612b8057607f821691505b60208210811415612ba157634e487b7160e01b600052602260045260246000fd5b50919050565b600060208284031215612bb957600080fd5b8151611f63816129c3565b8281526000602060408184015260008454612bde81612b6c565b8060408701526060600180841660008114612c005760018114612c1457612c42565b60ff19851689840152608089019550612c42565b896000528660002060005b85811015612c3a5781548b8201860152908301908801612c1f565b8a0184019650505b50939998505050505050505050565b8183823760009101908152919050565b6000808354612c6f81612b6c565b60018281168015612c875760018114612c9857612cc7565b60ff19841687528287019450612cc7565b8760005260208060002060005b85811015612cbe5781548a820152908401908201612ca5565b50505082870194505b50929695505050505050565b6020808252603a908201527f596f75206e65656420746f2075736520616e206164647265737320726567697360408201527f7465726564206f6e2050726f6f66206f662048756d616e697479000000000000606082015260800190565b8581528460208201528284604083013760609190911b6bffffffffffffffffffffffff1916604091909201908101919091526054019392505050565b604081528260408201528284606083013760006060848301015260006060601f19601f8601168301019050826020830152949350505050565b634e487b7160e01b600052601160045260246000fd5b6000600019821415612dcf57612dcf612da5565b5060010190565b60208082526024908201527f496e636f727265637420616d6f756e74206f662045544820666f72206d696e746040820152632066656560e01b606082015260800190565b60008151612e2c818560208601612663565b9290920192915050565b60008251612e48818460208701612663565b9190910192915050565b600082821015612e6457612e64612da5565b500390565b85815260a060208201526000612e8260a083018761268f565b941515604083015250606081019290925260809091015292915050565b6001600160a01b0385811682528416602082015260408101839052608060608201819052600090612ed29083018461268f565b9695505050505050565b600060208284031215612eee57600080fd5b8151611f6381612630565b7f3c73766720786d6c6e733d22687474703a2f2f7777772e77332e6f72672f323081527f30302f737667222076696577426f783d223020302037323020373230223e3c6460208201527f6566733e3c6c696e6561724772616469656e742069643d2261222078313d223660408201527f372e3934222079313d223136392e3438222078323d223637302e39382220793260608201527f3d223536322e383622206772616469656e74556e6974733d227573657253706160808201527f63654f6e557365223e3c73746f70206f66667365743d2230222073746f702d6360a08201527f6f6c6f723d2223313761396332222f3e3c73746f70206f66667365743d222e3160c08201527f32222073746f702d636f6c6f723d2223316161396263222f3e3c73746f70206f60e08201527f66667365743d222e3239222073746f702d636f6c6f723d2223323561626162226101008201527f2f3e3c73746f70206f66667365743d222e3438222073746f702d636f6c6f723d6101208201527f2223333561643866222f3e3c73746f70206f66667365743d222e3634222073746101408201527f6f702d636f6c6f723d2223343862303732222f3e3c73746f70206f66667365746101608201527f3d222e3738222073746f702d636f6c6f723d2223353962323534222f3e3c73746101808201527f6f70206f66667365743d2231222073746f702d636f6c6f723d222337616237326101a08201527f30222f3e3c2f6c696e6561724772616469656e743e3c2f646566733e3c7061746101c08201527f68207374796c653d2266696c6c3a75726c282361292220643d224d30203068376101e08201527f32307637323048307a222f3e3c7061746820643d224d34372e30352039322e336102008201527f375635332e38344833332e32395634366833362e383576372e38344835362e346102208201527f317633382e3532682d392e33365a6d33352e37312d32332e33342d382e30372d6102408201527f312e3436632e39312d332e323520322e34372d352e363520342e36382d372e326102608201527f3120322e32312d312e353620352e352d322e333420392e38372d322e333420336102808201527f2e3936203020362e39322e343720382e383620312e343120312e39342e3934206102a08201527f332e333120322e313320342e3120332e353773312e313920342e3120312e31396102c08201527f20372e39366c2d2e312031302e3337633020322e39352e313420352e31332e346102e08201527f3320362e35332e323820312e342e383220322e393120312e3620342e3531682d6103008201527f382e3739632d2e32332d2e35392d2e35322d312e34372d2e38352d322e36332d6103208201527f2e31352d2e35332d2e32352d2e38382d2e33322d312e30342d312e353220312e6103408201527f34382d332e313420322e35382d342e383720332e3332732d332e353720312e316103608201527f312d352e353420312e3131632d332e343620302d362e31382d2e39342d382e316103808201527f382d322e38322d312e39392d312e38382d322e39392d342e32352d322e39392d6103a08201527f372e313220302d312e392e34352d332e353920312e33362d352e303873322e316103c08201527f382d322e363320332e38312d332e343220332e39392d312e343820372e30372d6103e08201527f322e303763342e31352d2e373820372e30332d312e353120382e36332d322e316104008201527f38762d2e383963302d312e37312d2e34322d322e39332d312e32372d332e36356104208201527f732d322e34342d312e30392d342e37382d312e3039632d312e353820302d322e6104408201527f38322e33312d332e372e39332d2e38392e36322d312e3620312e37312d322e316104608201527f3520332e32375a6d31312e383920372e3231632d312e31342e33382d322e39346104808201527f2e38332d352e343120312e33362d322e34372e35332d342e303820312e30342d6104a08201527f342e383420312e35352d312e31362e38322d312e373420312e38372d312e37346104c08201527f20332e3133732e343620322e333220312e333920332e3233632e39332e3931206104e08201527f322e313120312e333620332e353420312e333620312e36203020332e31332d2e6105008201527f353320342e35392d312e353820312e30382d2e3820312e37382d312e373820326105208201527f2e31322d322e39342e32332d2e37362e33352d322e322e33352d342e3333762d6105408201527f312e37375a6d31372e34392031362e313356343668382e38397634362e3337686105608201527f2d382e38395a6d33372e34352d31302e363920382e383620312e3439632d312e6105808201527f313420332e32352d322e393420352e37322d352e333920372e3432732d352e356105a08201527f3320322e35352d392e323220322e3535632d352e383420302d31302e31362d316105c08201527f2e39312d31322e39372d352e37322d322e32312d332e30362d332e33322d362e6105e08201527f39322d332e33322d31312e353820302d352e353720312e34362d392e393320346106008201527f2e33362d31332e303820322e39312d332e313520362e35392d342e37332031316106208201527f2e30342d342e37332035203020382e393420312e36352031312e383320342e396106408201527f3573342e323720382e333620342e31342031352e3137682d32322e3237632e306106608201527f3620322e36342e373820342e363920322e313520362e313520312e333720312e6106808201527f343720332e303820322e3220352e313220322e3220312e3339203020322e35366106a08201527f2d2e333820332e35312d312e31342e39352d2e373620312e36372d312e3938206106c08201527f322e31352d332e36375a6d2e35312d382e3938632d2e30362d322e35372d2e376106e08201527f332d342e35332d312e39392d352e38372d312e32372d312e33342d322e38312d6107008201527f322e30312d342e36322d322e30312d312e393420302d332e35342e37312d342e6107208201527f383120322e31322d312e323720312e34312d312e383920332e33332d312e38376107408201527f20352e37366831332e32385a6d34362e36322031392e3637682d382e383956376107608201527f352e323363302d332e36332d2e31392d352e39372d2e35372d372e30342d2e336107808201527f382d312e30362d312d312e38392d312e38352d322e3438732d312e38382d2e386107a08201527f392d332e30382d2e3839632d312e353420302d322e39322e34322d342e3134206107c08201527f312e3237732d322e303620312e39362d322e353120332e3335632d2e343520316107e08201527f2e33392d2e363820332e39362d2e363820372e37327631352e3231682d382e386108008201527f395635382e373868382e323676342e393363322e39332d332e3820362e36322d6108208201527f352e36392031312e30372d352e363920312e3936203020332e37352e333520356108408201527f2e333820312e303620312e36322e373120322e383520312e363120332e3638206108608201527f322e372e383320312e3120312e343120322e333420312e373420332e3733732e6108808201527f343920332e33382e343920352e39387632302e38385a6d32342e34322d33332e6108a08201527f353976372e3038682d362e30375637392e34633020322e37342e303620342e336108c08201527f342e313720342e37392e31322e34352e33382e38332e373920312e31322e34316108e08201527f2e332e39312e343420312e352e34342e3832203020322e30312d2e323820332e6109008201527f35372d2e38356c2e373620362e39632d322e30372e38392d342e343120312e336109208201527f332d372e303220312e33332d312e3620302d332e30352d2e32372d342e33332d6109408201527f2e38312d312e32392d2e35342d322e32332d312e32332d322e38332d322e30396109608201527f2d2e362d2e38352d312e30322d322e30312d312e32352d332e34362d2e31392d6109808201527f312e30332d2e32382d332e31322d2e32382d362e32365636352e3836682d342e6109a08201527f3038762d372e303868342e3038762d362e36376c382e39322d352e31397631316109c08201527f2e383668362e30375a6d362e32362033332e353956343668362e31347634302e6109e08201527f396832322e383476352e3437682d32382e39375a6d35372e34372d342e313463610a008201527f2d322e313120312e37392d342e313420332e30362d362e303920332e382d312e610a208201527f39352e37342d342e303420312e31312d362e323820312e31312d332e36392030610a408201527f2d362e35332d2e392d382e35312d322e372d312e39382d312e382d322e39372d610a608201527f342e31312d322e39372d362e393120302d312e36342e33372d332e313520312e610a808201527f31322d342e353173312e37332d322e343520322e39342d332e323763312e3231610aa08201527f2d2e383220322e35382d312e343420342e312d312e383720312e31322d2e3320610ac08201527f322e382d2e353820352e30362d2e383520342e362d2e353520372e39382d312e610ae08201527f322031302e31352d312e39362e30322d2e37382e30332d312e32382e30332d31610b008201527f2e343920302d322e33322d2e35342d332e39352d312e36312d342e392d312e34610b208201527f362d312e32392d332e36322d312e39332d362e34382d312e39332d322e363820610b408201527f302d342e36352e34372d352e393320312e3431732d322e323220322e362d322e610b608201527f383320342e39386c2d352e35372d2e3736632e35312d322e333820312e33342d610b808201527f342e333120322e352d352e373720312e31362d312e343720322e38342d322e35610ba08201527f3920352e30332d332e333820322e31392d2e373920342e37332d312e31392037610bc08201527f2e36322d312e313973352e322e333420362e393920312e303163312e37392e36610be08201527f3820332e313120312e353220332e393520322e35352e383420312e303220312e610c008201527f343320322e333120312e373720332e38382e31392e39372e323820322e37322e610c208201527f323820352e323576372e3539633020352e32392e313220382e36342e33362031610c408201527f302e30342e323420312e342e373220322e373520312e343420342e3033682d35610c608201527f2e3935632d2e35392d312e31382d2e39372d322e35362d312e31342d342e3134610c808201527f5a6d2d2e34372d31322e3732632d322e30372e38342d352e313720312e35362d610ca08201527f392e3320322e31352d322e33342e33342d34202e37322d342e393720312e3134610cc08201527f2d2e39372e34322d312e373220312e30342d322e323520312e3835732d2e3739610ce08201527f20312e37312d2e373920322e37633020312e35322e353720322e373820312e37610d008201527f3220332e3820312e313520312e303120322e383320312e353220352e30352031610d208201527f2e353273342e31342d2e343820352e38352d312e343420322e39362d322e3237610d408201527f20332e37362d332e3934632e36312d312e32392e39322d332e31382e39322d35610d608201527f2e3639762d322e30395a6d31342e33332032392e382d2e36332d352e33356331610d808201527f2e32342e333420322e33332e353120332e32362e353120312e3237203020322e610da08201527f32382d2e323120332e30342d2e363373312e33382d312e303120312e38372d31610dc08201527f2e3737632e33362d2e35372e39342d312e393820312e37342d342e32342e3131610de08201527f2d2e33322e32372d2e37382e35312d312e33396c2d31322e37352d33332e3635610e008201527f68362e31346c362e39392031392e3435632e393120322e343720312e37322035610e208201527f2e303620322e343420372e37382e36352d322e363120312e34332d352e313720610e408201527f322e33342d372e36356c372e31382d31392e353868352e36396c2d31322e3738610e608201527f2033342e3136632d312e333720332e36392d322e343420362e32332d332e3139610e808201527f20372e36322d312e303120312e38382d322e313720332e32352d332e34382034610ea08201527f2e31332d312e33312e38382d322e383720312e33312d342e363820312e33312d610ec08201527f312e3120302d322e33322d2e32332d332e36372d2e375a6d35352e36332d3233610ee08201527f2e373620352e38382e3733632d2e393320332e34342d322e363520362e312d35610f008201527f2e313620382d322e353120312e392d352e373120322e38352d392e363220322e610f208201527f38352d342e393120302d382e38312d312e35312d31312e36392d342e35342d32610f408201527f2e38382d332e30332d342e33322d372e32372d342e33322d31322e373373312e610f608201527f34362d31302e303420342e33362d31332e313663322e39312d332e313220362e610f808201527f36382d342e36382031312e33322d342e363873382e313620312e35332031312e610fa08201527f303120342e353963322e383520332e303620342e323720372e333620342e3237610fc08201527f2031322e39312030202e33342d2e30312e38342d2e303320312e3532682d3235610fe08201527f2e3035632e323120332e363920312e323520362e353220332e313320382e34386110008201527f20312e383820312e393620342e323220322e393420372e303220322e393420326110208201527f2e3039203020332e38372d2e353520352e33352d312e363420312e34382d312e6110408201527f3120322e36352d322e383520332e35312d352e32355a6d2d31382e36392d392e6110608201527f326831382e3736632d2e32352d322e38332d2e39372d342e39342d322e31352d6110808201527f362e33362d312e38312d322e31392d342e31372d332e32392d372e30352d332e6110a08201527f32392d322e363120302d342e38312e38382d362e3620322e3633732d322e37376110c08201527f20342e30392d322e393620372e30325a6d33312e36362032302e30325635382e6110e08201527f373868352e313276352e303963312e33312d322e333820322e35312d332e39356111008201527f20332e36322d342e373173322e33322d312e313420332e36352d312e313463316111208201527f2e3932203020332e38372e363120352e383520312e38336c2d312e393620352e6111408201527f3238632d312e33392d2e38322d322e37382d312e32332d342e31382d312e32336111608201527f2d312e323420302d322e33362e33372d332e333520312e31322d2e39392e37356111808201527f2d312e3720312e37392d322e313220332e31322d2e363320322e30322d2e39356111a08201527f20342e32342d2e393520362e36347631372e3539682d352e36395a6d32312e376111c08201527f39203056343668392e33367634362e3337682d392e33365a4d3430372e3337206111e08201527f34366831372e313163332e3836203020362e382e3320382e38332e383920322e6112008201527f37322e3820352e303520322e323220362e393920342e323720312e393420322e6112208201527f303520332e343220342e353520342e343320372e353120312e303120322e39366112408201527f20312e353220362e363220312e35322031302e3936203020332e38322d2e34376112608201527f20372e31312d312e343220392e38372d312e313620332e33372d322e383220366112808201527f2e312d342e393720382e31392d312e363220312e35382d332e383220322e38326112a08201527f2d362e353820332e372d322e30372e36352d342e38332e39382d382e32392e396112c08201527f38682d31372e36325634365a6d392e333620372e38347633302e373168362e396112e08201527f3963322e3631203020342e352d2e313520352e36362d2e343420312e35322d2e6113008201527f333820322e37382d312e303220332e37382d312e393320312d2e393120312e386113208201527f322d322e3420322e34352d342e34382e36332d322e30382e39352d342e39312e6113408201527f39352d382e3439732d2e33322d362e33342d2e39352d382e32362d312e35322d6113608201527f332e34322d322e36362d342e34392d322e35382d312e382d342e33332d322e316113808201527f38632d312e33312d2e332d332e38372d2e34342d372e36392d2e3434682d342e6113a08201527f32315a22207374796c653d2266696c6c3a23666666222f3e3c7465787420793d6113c08201527f223637302220783d22333022207374796c653d22666f6e743a373070782073616113e082015273373996b9b2b934b31db334b6361d11b33333111f60611b6114008201526000611f6361477f611414840185612e1a565b6c1e17ba32bc3a1f1e17b9bb339f60991b8152600d0190565b7f646174613a696d6167652f7376672b786d6c3b6261736536342c0000000000008152600082516147d081601a850160208701612663565b91909101601a0192915050565b683d913730b6b2911d1160b91b81528251600090614802816009850160208801612663565b6b1116101134b6b0b3b2911d1160a11b600991840191820152835161482e816015840160208801612663565b7f222c20226465736372697074696f6e223a202254616c656e744c617965722049601592909101918201526244227d60e81b6035820152603801949350505050565b7f646174613a6170706c69636174696f6e2f6a736f6e3b6261736536342c0000008152600082516148a881601d850160208701612663565b91909101601d0192915050565b634e487b7160e01b600052603260045260246000fd5b600082198211156148de576148de612da5565b500190565b60008261490057634e487b7160e01b600052601260045260246000fd5b500490565b600081600019048311821515161561491f5761491f612da5565b50029056fe4142434445464748494a4b4c4d4e4f505152535455565758595a6162636465666768696a6b6c6d6e6f707172737475767778797a303132333435363738392b2fa264697066735822122026a4c35a332e8066ec3d3983206715b8788ad97d34eb4bf14b1768c65966d00764736f6c63430008090033",
  "linkReferences": {},
  "deployedLinkReferences": {}
}