{
  "_format": "hh-sol-artifact-1",
  "contractName": "TalentLayerReview",
  "sourceName": "contracts/TalentLayerReview.sol",
  "abi": [
    {
      "inputs": [
        {
          "internalType": "string",
          "name": "name_",
          "type": "string"
        },
        {
          "internalType": "string",
          "name": "symbol_",
          "type": "string"
        },
        {
          "internalType": "address",
          "name": "_talentLayerIdAddress",
          "type": "address"
        },
        {
          "internalType": "address",
          "name": "_serviceRegistryAddress",
          "type": "address"
        },
        {
          "internalType": "address",
          "name": "_talentLayerPlatformIdAddress",
          "type": "address"
        }
      ],
      "stateMutability": "nonpayable",
      "type": "constructor"
    },
    {
      "inputs": [],
      "name": "ReviewAlreadyMinted",
      "type": "error"
    },
    {
      "anonymous": false,
      "inputs": [
        {
          "indexed": true,
          "internalType": "address",
          "name": "owner",
          "type": "address"
        },
        {
          "indexed": true,
          "internalType": "address",
          "name": "approved",
          "type": "address"
        },
        {
          "indexed": true,
          "internalType": "uint256",
          "name": "tokenId",
          "type": "uint256"
        }
      ],
      "name": "Approval",
      "type": "event"
    },
    {
      "anonymous": false,
      "inputs": [
        {
          "indexed": true,
          "internalType": "address",
          "name": "owner",
          "type": "address"
        },
        {
          "indexed": true,
          "internalType": "address",
          "name": "operator",
          "type": "address"
        },
        {
          "indexed": false,
          "internalType": "bool",
          "name": "approved",
          "type": "bool"
        }
      ],
      "name": "ApprovalForAll",
      "type": "event"
    },
    {
      "anonymous": false,
      "inputs": [
        {
          "indexed": true,
          "internalType": "uint256",
          "name": "_serviceId",
          "type": "uint256"
        },
        {
          "indexed": true,
          "internalType": "uint256",
          "name": "_toId",
          "type": "uint256"
        },
        {
          "indexed": true,
          "internalType": "uint256",
          "name": "_tokenId",
          "type": "uint256"
        },
        {
          "indexed": false,
          "internalType": "uint256",
          "name": "_rating",
          "type": "uint256"
        },
        {
          "indexed": false,
          "internalType": "string",
          "name": "_reviewUri",
          "type": "string"
        },
        {
          "indexed": false,
          "internalType": "uint256",
          "name": "_platformId",
          "type": "uint256"
        }
      ],
      "name": "Mint",
      "type": "event"
    },
    {
      "anonymous": false,
      "inputs": [
        {
          "indexed": true,
          "internalType": "address",
          "name": "from",
          "type": "address"
        },
        {
          "indexed": true,
          "internalType": "address",
          "name": "to",
          "type": "address"
        },
        {
          "indexed": true,
          "internalType": "uint256",
          "name": "tokenId",
          "type": "uint256"
        }
      ],
      "name": "Transfer",
      "type": "event"
    },
    {
      "inputs": [],
      "name": "_totalSupply",
      "outputs": [
        {
          "internalType": "uint256",
          "name": "",
          "type": "uint256"
        }
      ],
      "stateMutability": "view",
      "type": "function"
    },
    {
      "inputs": [
        {
          "internalType": "uint256",
          "name": "_serviceId",
          "type": "uint256"
        },
        {
          "internalType": "string",
          "name": "_reviewUri",
          "type": "string"
        },
        {
          "internalType": "uint256",
          "name": "_rating",
          "type": "uint256"
        },
        {
          "internalType": "uint256",
          "name": "_platformId",
          "type": "uint256"
        }
      ],
      "name": "addReview",
      "outputs": [],
      "stateMutability": "nonpayable",
      "type": "function"
    },
    {
      "inputs": [
        {
          "internalType": "address",
          "name": "to",
          "type": "address"
        },
        {
          "internalType": "uint256",
          "name": "tokenId",
          "type": "uint256"
        }
      ],
      "name": "approve",
      "outputs": [],
      "stateMutability": "nonpayable",
      "type": "function"
    },
    {
      "inputs": [
        {
          "internalType": "address",
          "name": "owner",
          "type": "address"
        }
      ],
      "name": "balanceOf",
      "outputs": [
        {
          "internalType": "uint256",
          "name": "",
          "type": "uint256"
        }
      ],
      "stateMutability": "view",
      "type": "function"
    },
    {
      "inputs": [
        {
          "internalType": "uint256",
          "name": "_tokenId",
          "type": "uint256"
        }
      ],
      "name": "getApproved",
      "outputs": [
        {
          "internalType": "address",
          "name": "",
          "type": "address"
        }
      ],
      "stateMutability": "view",
      "type": "function"
    },
    {
      "inputs": [
        {
          "internalType": "address",
          "name": "owner",
          "type": "address"
        },
        {
          "internalType": "address",
          "name": "operator",
          "type": "address"
        }
      ],
      "name": "isApprovedForAll",
      "outputs": [
        {
          "internalType": "bool",
          "name": "",
          "type": "bool"
        }
      ],
      "stateMutability": "view",
      "type": "function"
    },
    {
      "inputs": [],
      "name": "name",
      "outputs": [
        {
          "internalType": "string",
          "name": "",
          "type": "string"
        }
      ],
      "stateMutability": "view",
      "type": "function"
    },
    {
      "inputs": [
        {
          "internalType": "uint256",
          "name": "",
          "type": "uint256"
        }
      ],
      "name": "nftMintedByServiceAndBuyerId",
      "outputs": [
        {
          "internalType": "uint256",
          "name": "",
          "type": "uint256"
        }
      ],
      "stateMutability": "view",
      "type": "function"
    },
    {
      "inputs": [
        {
          "internalType": "uint256",
          "name": "",
          "type": "uint256"
        }
      ],
      "name": "nftMintedByServiceAndSellerId",
      "outputs": [
        {
          "internalType": "uint256",
          "name": "",
          "type": "uint256"
        }
      ],
      "stateMutability": "view",
      "type": "function"
    },
    {
      "inputs": [
        {
          "internalType": "uint256",
          "name": "tokenId",
          "type": "uint256"
        }
      ],
      "name": "ownerOf",
      "outputs": [
        {
          "internalType": "address",
          "name": "",
          "type": "address"
        }
      ],
      "stateMutability": "view",
      "type": "function"
    },
    {
      "inputs": [
        {
          "internalType": "uint256",
          "name": "",
          "type": "uint256"
        }
      ],
      "name": "reviewDataUri",
      "outputs": [
        {
          "internalType": "string",
          "name": "",
          "type": "string"
        }
      ],
      "stateMutability": "view",
      "type": "function"
    },
    {
      "inputs": [
        {
          "internalType": "uint256",
          "name": "",
          "type": "uint256"
        }
      ],
      "name": "reviewIdToPlatformId",
      "outputs": [
        {
          "internalType": "uint256",
          "name": "",
          "type": "uint256"
        }
      ],
      "stateMutability": "view",
      "type": "function"
    },
    {
      "inputs": [
        {
          "internalType": "address",
          "name": "from",
          "type": "address"
        },
        {
          "internalType": "address",
          "name": "to",
          "type": "address"
        },
        {
          "internalType": "uint256",
          "name": "tokenId",
          "type": "uint256"
        }
      ],
      "name": "safeTransferFrom",
      "outputs": [],
      "stateMutability": "nonpayable",
      "type": "function"
    },
    {
      "inputs": [
        {
          "internalType": "address",
          "name": "from",
          "type": "address"
        },
        {
          "internalType": "address",
          "name": "to",
          "type": "address"
        },
        {
          "internalType": "uint256",
          "name": "tokenId",
          "type": "uint256"
        },
        {
          "internalType": "bytes",
          "name": "data",
          "type": "bytes"
        }
      ],
      "name": "safeTransferFrom",
      "outputs": [],
      "stateMutability": "nonpayable",
      "type": "function"
    },
    {
      "inputs": [
        {
          "internalType": "address",
          "name": "operator",
          "type": "address"
        },
        {
          "internalType": "bool",
          "name": "approved",
          "type": "bool"
        }
      ],
      "name": "setApprovalForAll",
      "outputs": [],
      "stateMutability": "nonpayable",
      "type": "function"
    },
    {
      "inputs": [
        {
          "internalType": "bytes4",
          "name": "interfaceId",
          "type": "bytes4"
        }
      ],
      "name": "supportsInterface",
      "outputs": [
        {
          "internalType": "bool",
          "name": "",
          "type": "bool"
        }
      ],
      "stateMutability": "view",
      "type": "function"
    },
    {
      "inputs": [],
      "name": "symbol",
      "outputs": [
        {
          "internalType": "string",
          "name": "",
          "type": "string"
        }
      ],
      "stateMutability": "view",
      "type": "function"
    },
    {
      "inputs": [],
      "name": "talentLayerPlatformIdContract",
      "outputs": [
        {
          "internalType": "contract ITalentLayerPlatformID",
          "name": "",
          "type": "address"
        }
      ],
      "stateMutability": "view",
      "type": "function"
    },
    {
      "inputs": [
        {
          "internalType": "uint256",
          "name": "tokenId",
          "type": "uint256"
        }
      ],
      "name": "tokenURI",
      "outputs": [
        {
          "internalType": "string",
          "name": "",
          "type": "string"
        }
      ],
      "stateMutability": "view",
      "type": "function"
    },
    {
      "inputs": [
        {
          "internalType": "address",
          "name": "from",
          "type": "address"
        },
        {
          "internalType": "address",
          "name": "to",
          "type": "address"
        },
        {
          "internalType": "uint256",
          "name": "tokenId",
          "type": "uint256"
        }
      ],
      "name": "transferFrom",
      "outputs": [],
      "stateMutability": "nonpayable",
      "type": "function"
    }
  ],
  "bytecode": "0x608060405260006002553480156200001657600080fd5b5060405162001d2338038062001d2383398101604081905262000039916200023b565b84516200004e906000906020880190620000ab565b50835162000064906001906020870190620000ab565b50600b80546001600160a01b039485166001600160a01b031991821617909155600c805493851693821693909317909255600d8054919093169116179055506200031a9050565b828054620000b990620002dd565b90600052602060002090601f016020900481019282620000dd576000855562000128565b82601f10620000f857805160ff191683800117855562000128565b8280016001018555821562000128579182015b82811115620001285782518255916020019190600101906200010b565b50620001369291506200013a565b5090565b5b808211156200013657600081556001016200013b565b634e487b7160e01b600052604160045260246000fd5b600082601f8301126200017957600080fd5b81516001600160401b038082111562000196576200019662000151565b604051601f8301601f19908116603f01168101908282118183101715620001c157620001c162000151565b81604052838152602092508683858801011115620001de57600080fd5b600091505b83821015620002025785820183015181830184015290820190620001e3565b83821115620002145760008385830101525b9695505050505050565b80516001600160a01b03811681146200023657600080fd5b919050565b600080600080600060a086880312156200025457600080fd5b85516001600160401b03808211156200026c57600080fd5b6200027a89838a0162000167565b965060208801519150808211156200029157600080fd5b50620002a08882890162000167565b945050620002b1604087016200021e565b9250620002c1606087016200021e565b9150620002d1608087016200021e565b90509295509295909350565b600181811c90821680620002f257607f821691505b602082108114156200031457634e487b7160e01b600052602260045260246000fd5b50919050565b6119f9806200032a6000396000f3fe608060405234801561001057600080fd5b506004361061012c5760003560e01c80636352211e116100ad578063c87b56dd11610071578063c87b56dd14610285578063d56e06d614610298578063e087f7d2146102b8578063e985e9c5146102d8578063f252ff3f1461031457600080fd5b80636352211e1461023157806370a082311461024457806395d89b4114610257578063a22cb4651461025f578063b88d4fde1461027257600080fd5b806323b872dd116100f457806323b872dd146101c15780633c7b2760146101d45780633eaaf86b1461020257806342842e0e1461020b57806352a2383b1461021e57600080fd5b806301ffc9a71461013157806306fdde0314610159578063081812fc1461016e578063095ea7b3146101995780631499f9e6146101ae575b600080fd5b61014461013f36600461122b565b610327565b60405190151581526020015b60405180910390f35b610161610379565b60405161015091906112a7565b61018161017c3660046112ba565b61040b565b6040516001600160a01b039091168152602001610150565b6101ac6101a73660046112e8565b610467565b005b600d54610181906001600160a01b031681565b6101ac6101cf366004611314565b61059a565b6101f46101e23660046112ba565b60076020526000908152604090205481565b604051908152602001610150565b6101f460025481565b6101ac610219366004611314565b6105c0565b61016161022c3660046112ba565b6105db565b61018161023f3660046112ba565b610675565b6101f4610252366004611355565b61072d565b610161610839565b6101ac61026d366004611372565b610848565b6101ac610280366004611449565b610857565b6101616102933660046112ba565b61088f565b6101f46102a63660046112ba565b60086020526000908152604090205481565b6101f46102c63660046112ba565b60066020526000908152604090205481565b6101446102e63660046114f8565b6001600160a01b039182166000908152600a6020908152604080832093909416825291909152205460ff1690565b6101ac610322366004611526565b61090f565b60006001600160e01b031982166380ac58cd60e01b148061035857506001600160e01b03198216635b5e139f60e01b145b8061037357506301ffc9a760e01b6001600160e01b03198316145b92915050565b606060008054610388906115b1565b80601f01602080910402602001604051908101604052809291908181526020018280546103b4906115b1565b80156104015780601f106103d657610100808354040283529160200191610401565b820191906000526020600020905b8154815290600101906020018083116103e457829003601f168201915b5050505050905090565b6000818152600960205260409020546001600160a01b03168161043c81600090815260036020526040902054151590565b6104615760405162461bcd60e51b8152600401610458906115e6565b60405180910390fd5b50919050565b600061047282610675565b9050806001600160a01b0316836001600160a01b031614156104eb5760405162461bcd60e51b815260206004820152602c60248201527f54616c656e744c617965725265766965773a20617070726f76616c20746f206360448201526b3ab93932b73a1037bbb732b960a11b6064820152608401610458565b336001600160a01b0382161480610507575061050781336102e6565b61058b5760405162461bcd60e51b815260206004820152604960248201527f54616c656e744c617965725265766965773a20617070726f76652063616c6c6560448201527f72206973206e6f7420746f6b656e206f776e6572206e6f7220617070726f76656064820152681908199bdc88185b1b60ba1b608482015260a401610458565b6105958383610bf7565b505050565b6105a43382610c65565b6105955760405162461bcd60e51b815260040161045890611629565b61059583838360405180602001604052806000815250610857565b600560205260009081526040902080546105f4906115b1565b80601f0160208091040260200160405190810160405280929190818152602001828054610620906115b1565b801561066d5780601f106106425761010080835404028352916020019161066d565b820191906000526020600020905b81548152906001019060200180831161065057829003601f168201915b505050505081565b600b546000828152600360205260408082205490516331a9108f60e11b81526004810191909152909182916001600160a01b0390911690636352211e9060240160206040518083038186803b1580156106cd57600080fd5b505afa1580156106e1573d6000803e3d6000fd5b505050506040513d601f19601f820116820180604052508101906107059190611686565b90506001600160a01b0381166103735760405162461bcd60e51b8152600401610458906115e6565b60006001600160a01b0382166107a05760405162461bcd60e51b815260206004820152603260248201527f54616c656e744c617965725265766965773a20746f6b656e207a65726f206973604482015271103737ba1030903b30b634b21037bbb732b960711b6064820152608401610458565b600b5460405162438b6360e81b81526001600160a01b038481166004808401919091529260009291169063438b63009060240160206040518083038186803b1580156107eb57600080fd5b505afa1580156107ff573d6000803e3d6000fd5b505050506040513d601f19601f8201168201806040525081019061082391906116a3565b8152602001908152602001600020549050919050565b606060018054610388906115b1565b610853338383610ce4565b5050565b6108613383610c65565b61087d5760405162461bcd60e51b815260040161045890611629565b61088984848484610dbf565b50505050565b60608160006108a960408051602081019091526000815290565b905060008151116108c957604051806020016040528060008152506108f4565b806108d385610de7565b6040516020016108e49291906116bc565b6040516020818303038152906040525b92505061043c81600090815260036020526040902054151590565b600c5460405163ef0e239b60e01b8152600481018790526000916001600160a01b03169063ef0e239b9060240160006040518083038186803b15801561095457600080fd5b505afa158015610968573d6000803e3d6000fd5b505050506040513d6000823e601f3d908101601f191682016040526109909190810190611744565b600b5460405162438b6360e81b81523360048201529192506000916001600160a01b039091169063438b63009060240160206040518083038186803b1580156109d857600080fd5b505afa1580156109ec573d6000803e3d6000fd5b505050506040513d601f19601f82011682018060405250810190610a1091906116a3565b90508160200151811480610a275750816040015181145b610a7f5760405162461bcd60e51b815260206004820152602360248201527f596f75277265206e6f7420616e206163746f72206f662074686973207365727660448201526269636560e81b6064820152608401610458565b600282516004811115610a9457610a94611802565b14610ae15760405162461bcd60e51b815260206004820152601f60248201527f5468652073657276696365206973206e6f742066696e697368656420796574006044820152606401610458565b600d5460405162f577a560e81b8152600481018590526001600160a01b039091169063f577a5009060240160006040518083038186803b158015610b2457600080fd5b505afa158015610b38573d6000803e3d6000fd5b5050505060008260200151821415610b965750604080830151600089815260066020529190912054821415610b8057604051633d36d72960e01b815260040160405180910390fd5b6000888152600660205260409020829055610bdf565b5060208083015160008981526007909252604090912054821415610bcd57604051633d36d72960e01b815260040160405180910390fd5b60008881526007602052604090208290555b610bed8882878a8a89610ee5565b5050505050505050565b600081815260096020526040902080546001600160a01b0319166001600160a01b0384169081179091558190610c2c82610675565b6001600160a01b03167f8c5be1e5ebec7d5bd14f71427d1e84f3dd0314c0f7b2291e5b200ac8c7c3b92560405160405180910390a45050565b600080610c7183610675565b9050806001600160a01b0316846001600160a01b03161480610cb857506001600160a01b038082166000908152600a602090815260408083209388168352929052205460ff165b80610cdc5750836001600160a01b0316610cd18461040b565b6001600160a01b0316145b949350505050565b816001600160a01b0316836001600160a01b03161415610d525760405162461bcd60e51b8152602060048201526024808201527f54616c656e744c617965725265766965773a20617070726f766520746f206361604482015263363632b960e11b6064820152608401610458565b6001600160a01b038381166000818152600a6020908152604080832094871680845294825291829020805460ff191686151590811790915591519182527f17307eab39ab6107e8899845ad3d59bd9653f200f220920489ca2b5937696c31910160405180910390a3505050565b610dcb8484848461106c565b6108895760405162461bcd60e51b815260040161045890611818565b606081610e0b5750506040805180820190915260018152600360fc1b602082015290565b8160005b8115610e355780610e1f8161188b565b9150610e2e9050600a836118bc565b9150610e0f565b60008167ffffffffffffffff811115610e5057610e506113b0565b6040519080825280601f01601f191660200182016040528015610e7a576020820181803683370190505b5090505b8415610cdc57610e8f6001836118d0565b9150610e9c600a866118e7565b610ea79060306118fb565b60f81b818381518110610ebc57610ebc611913565b60200101906001600160f81b031916908160001a905350610ede600a866118bc565b9450610e7e565b84610f455760405162461bcd60e51b815260206004820152602a60248201527f54616c656e744c617965725265766965773a206d696e7420746f20696e76616c6044820152696964206164647265737360b01b6064820152608401610458565b60058411158015610f54575060015b610faa5760405162461bcd60e51b815260206004820152602160248201527f54616c656e744c617965725265766965773a20696e76616c696420726174696e6044820152606760f81b6064820152608401610458565b6000858152600460205260408120805460019290610fc99084906118fb565b9091555050600280546000908152600360209081526040808320899055925482526005905220610ffa908484611179565b506002805460009081526008602052604090208290555461101c9060016118fb565b60028190555060025485877f1b4914b51c47432f333179cfae2f82cfeac795eb91cfac40a3e82e180748f2f58787878760405161105c9493929190611929565b60405180910390a4505050505050565b60006001600160a01b0384163b1561116e57604051630a85bd0160e11b81526001600160a01b0385169063150b7a02906110b0903390899088908890600401611969565b602060405180830381600087803b1580156110ca57600080fd5b505af19250505080156110fa575060408051601f3d908101601f191682019092526110f7918101906119a6565b60015b611154573d808015611128576040519150601f19603f3d011682016040523d82523d6000602084013e61112d565b606091505b50805161114c5760405162461bcd60e51b815260040161045890611818565b805181602001fd5b6001600160e01b031916630a85bd0160e11b149050610cdc565b506001949350505050565b828054611185906115b1565b90600052602060002090601f0160209004810192826111a757600085556111ed565b82601f106111c05782800160ff198235161785556111ed565b828001600101855582156111ed579182015b828111156111ed5782358255916020019190600101906111d2565b506111f99291506111fd565b5090565b5b808211156111f957600081556001016111fe565b6001600160e01b03198116811461122857600080fd5b50565b60006020828403121561123d57600080fd5b813561124881611212565b9392505050565b60005b8381101561126a578181015183820152602001611252565b838111156108895750506000910152565b6000815180845261129381602086016020860161124f565b601f01601f19169290920160200192915050565b602081526000611248602083018461127b565b6000602082840312156112cc57600080fd5b5035919050565b6001600160a01b038116811461122857600080fd5b600080604083850312156112fb57600080fd5b8235611306816112d3565b946020939093013593505050565b60008060006060848603121561132957600080fd5b8335611334816112d3565b92506020840135611344816112d3565b929592945050506040919091013590565b60006020828403121561136757600080fd5b8135611248816112d3565b6000806040838503121561138557600080fd5b8235611390816112d3565b9150602083013580151581146113a557600080fd5b809150509250929050565b634e487b7160e01b600052604160045260246000fd5b604051610100810167ffffffffffffffff811182821017156113ea576113ea6113b0565b60405290565b604051601f8201601f1916810167ffffffffffffffff81118282101715611419576114196113b0565b604052919050565b600067ffffffffffffffff82111561143b5761143b6113b0565b50601f01601f191660200190565b6000806000806080858703121561145f57600080fd5b843561146a816112d3565b9350602085013561147a816112d3565b925060408501359150606085013567ffffffffffffffff81111561149d57600080fd5b8501601f810187136114ae57600080fd5b80356114c16114bc82611421565b6113f0565b8181528860208385010111156114d657600080fd5b8160208401602083013760006020838301015280935050505092959194509250565b6000806040838503121561150b57600080fd5b8235611516816112d3565b915060208301356113a5816112d3565b60008060008060006080868803121561153e57600080fd5b85359450602086013567ffffffffffffffff8082111561155d57600080fd5b818801915088601f83011261157157600080fd5b81358181111561158057600080fd5b89602082850101111561159257600080fd5b9699602092909201985095966040810135965060600135945092505050565b600181811c908216806115c557607f821691505b6020821081141561046157634e487b7160e01b600052602260045260246000fd5b60208082526023908201527f54616c656e744c617965725265766965773a20696e76616c696420746f6b656e60408201526208125160ea1b606082015260800190565b60208082526039908201527f54616c656e744c617965725265766965773a2063616c6c6572206973206e6f7460408201527f20746f6b656e206f776e6572206e6f7220617070726f76656400000000000000606082015260800190565b60006020828403121561169857600080fd5b8151611248816112d3565b6000602082840312156116b557600080fd5b5051919050565b600083516116ce81846020880161124f565b8351908301906116e281836020880161124f565b01949350505050565b8051600581106116fa57600080fd5b919050565b600082601f83011261171057600080fd5b815161171e6114bc82611421565b81815284602083860101111561173357600080fd5b610cdc82602083016020870161124f565b60006020828403121561175657600080fd5b815167ffffffffffffffff8082111561176e57600080fd5b90830190610100828603121561178357600080fd5b61178b6113c6565b611794836116eb565b81526020830151602082015260408301516040820152606083015160608201526080830151828111156117c657600080fd5b6117d2878286016116ff565b60808301525060a083015160a082015260c083015160c082015260e083015160e082015280935050505092915050565b634e487b7160e01b600052602160045260246000fd5b6020808252603d908201527f54616c656e744c617965725265766965773a207472616e7366657220746f206e60408201527f6f6e20455243373231526563656976657220696d706c656d656e746572000000606082015260800190565b634e487b7160e01b600052601160045260246000fd5b600060001982141561189f5761189f611875565b5060010190565b634e487b7160e01b600052601260045260246000fd5b6000826118cb576118cb6118a6565b500490565b6000828210156118e2576118e2611875565b500390565b6000826118f6576118f66118a6565b500690565b6000821982111561190e5761190e611875565b500190565b634e487b7160e01b600052603260045260246000fd5b848152606060208201528260608201528284608083013760006080848301015260006080601f19601f860116830101905082604083015295945050505050565b6001600160a01b038581168252841660208201526040810183905260806060820181905260009061199c9083018461127b565b9695505050505050565b6000602082840312156119b857600080fd5b81516112488161121256fea2646970667358221220a7a7c870069314a677d5bc1d9f8123908c7523b1d33cf9c0cf58f787c7662c1964736f6c63430008090033",
  "linkReferences": {},
  "deployedLinkReferences": {}
}