{
  "_format": "hh-sol-artifact-1",
  "contractName": "TalentLayerEscrow",
  "sourceName": "contracts/TalentLayerEscrow.sol",
  "abi": [
    {
      "inputs": [],
      "stateMutability": "nonpayable",
      "type": "constructor"
    },
    {
      "anonymous": false,
      "inputs": [
        {
          "indexed": false,
          "internalType": "address",
          "name": "previousAdmin",
          "type": "address"
        },
        {
          "indexed": false,
          "internalType": "address",
          "name": "newAdmin",
          "type": "address"
        }
      ],
      "name": "AdminChanged",
      "type": "event"
    },
    {
      "anonymous": false,
      "inputs": [
        {
          "indexed": true,
          "internalType": "uint256",
          "name": "_transactionId",
          "type": "uint256"
        },
        {
          "indexed": false,
          "internalType": "enum TalentLayerEscrow.ArbitrationFeePaymentType",
          "name": "_paymentType",
          "type": "uint8"
        },
        {
          "indexed": false,
          "internalType": "enum TalentLayerEscrow.Party",
          "name": "_party",
          "type": "uint8"
        },
        {
          "indexed": false,
          "internalType": "uint256",
          "name": "_amount",
          "type": "uint256"
        }
      ],
      "name": "ArbitrationFeePayment",
      "type": "event"
    },
    {
      "anonymous": false,
      "inputs": [
        {
          "indexed": true,
          "internalType": "address",
          "name": "beacon",
          "type": "address"
        }
      ],
      "name": "BeaconUpgraded",
      "type": "event"
    },
    {
      "anonymous": false,
      "inputs": [
        {
          "indexed": true,
          "internalType": "contract Arbitrator",
          "name": "_arbitrator",
          "type": "address"
        },
        {
          "indexed": true,
          "internalType": "uint256",
          "name": "_disputeID",
          "type": "uint256"
        },
        {
          "indexed": false,
          "internalType": "uint256",
          "name": "_metaEvidenceID",
          "type": "uint256"
        },
        {
          "indexed": false,
          "internalType": "uint256",
          "name": "_evidenceGroupID",
          "type": "uint256"
        }
      ],
      "name": "Dispute",
      "type": "event"
    },
    {
      "anonymous": false,
      "inputs": [
        {
          "indexed": true,
          "internalType": "contract Arbitrator",
          "name": "_arbitrator",
          "type": "address"
        },
        {
          "indexed": true,
          "internalType": "uint256",
          "name": "_evidenceGroupID",
          "type": "uint256"
        },
        {
          "indexed": true,
          "internalType": "address",
          "name": "_party",
          "type": "address"
        },
        {
          "indexed": false,
          "internalType": "string",
          "name": "_evidence",
          "type": "string"
        }
      ],
      "name": "Evidence",
      "type": "event"
    },
    {
      "anonymous": false,
      "inputs": [
        {
          "indexed": true,
          "internalType": "uint256",
          "name": "_transactionId",
          "type": "uint256"
        },
        {
          "indexed": true,
          "internalType": "uint256",
          "name": "_partyId",
          "type": "uint256"
        },
        {
          "indexed": false,
          "internalType": "string",
          "name": "_evidenceUri",
          "type": "string"
        }
      ],
      "name": "EvidenceSubmitted",
      "type": "event"
    },
    {
      "anonymous": false,
      "inputs": [
        {
          "indexed": false,
          "internalType": "uint256",
          "name": "_platformId",
          "type": "uint256"
        },
        {
          "indexed": true,
          "internalType": "address",
          "name": "_token",
          "type": "address"
        },
        {
          "indexed": false,
          "internalType": "uint256",
          "name": "_amount",
          "type": "uint256"
        }
      ],
      "name": "FeesClaimed",
      "type": "event"
    },
    {
      "anonymous": false,
      "inputs": [
        {
          "indexed": true,
          "internalType": "uint256",
          "name": "_transactionId",
          "type": "uint256"
        },
        {
          "indexed": false,
          "internalType": "enum TalentLayerEscrow.Party",
          "name": "_party",
          "type": "uint8"
        }
      ],
      "name": "HasToPayFee",
      "type": "event"
    },
    {
      "anonymous": false,
      "inputs": [
        {
          "indexed": false,
          "internalType": "uint8",
          "name": "version",
          "type": "uint8"
        }
      ],
      "name": "Initialized",
      "type": "event"
    },
    {
      "anonymous": false,
      "inputs": [
        {
          "indexed": true,
          "internalType": "uint256",
          "name": "_metaEvidenceID",
          "type": "uint256"
        },
        {
          "indexed": false,
          "internalType": "string",
          "name": "_evidence",
          "type": "string"
        }
      ],
      "name": "MetaEvidence",
      "type": "event"
    },
    {
      "anonymous": false,
      "inputs": [
        {
          "indexed": false,
          "internalType": "uint256",
          "name": "_platformId",
          "type": "uint256"
        },
        {
          "indexed": false,
          "internalType": "uint256",
          "name": "_serviceId",
          "type": "uint256"
        },
        {
          "indexed": true,
          "internalType": "address",
          "name": "_token",
          "type": "address"
        },
        {
          "indexed": false,
          "internalType": "uint256",
          "name": "_amount",
          "type": "uint256"
        }
      ],
      "name": "OriginServiceFeeRateReleased",
      "type": "event"
    },
    {
      "anonymous": false,
      "inputs": [
        {
          "indexed": false,
          "internalType": "uint256",
          "name": "_platformId",
          "type": "uint256"
        },
        {
          "indexed": false,
          "internalType": "uint256",
          "name": "_serviceId",
          "type": "uint256"
        },
        {
          "indexed": true,
          "internalType": "address",
          "name": "_token",
          "type": "address"
        },
        {
          "indexed": false,
          "internalType": "uint256",
          "name": "_amount",
          "type": "uint256"
        }
      ],
      "name": "OriginValidatedProposalFeeRateReleased",
      "type": "event"
    },
    {
      "anonymous": false,
      "inputs": [
        {
          "indexed": true,
          "internalType": "address",
          "name": "previousOwner",
          "type": "address"
        },
        {
          "indexed": true,
          "internalType": "address",
          "name": "newOwner",
          "type": "address"
        }
      ],
      "name": "OwnershipTransferred",
      "type": "event"
    },
    {
      "anonymous": false,
      "inputs": [
        {
          "indexed": false,
          "internalType": "address",
          "name": "account",
          "type": "address"
        }
      ],
      "name": "Paused",
      "type": "event"
    },
    {
      "anonymous": false,
      "inputs": [
        {
          "indexed": false,
          "internalType": "uint256",
          "name": "_transactionId",
          "type": "uint256"
        },
        {
          "indexed": false,
          "internalType": "enum TalentLayerEscrow.PaymentType",
          "name": "_paymentType",
          "type": "uint8"
        },
        {
          "indexed": false,
          "internalType": "address",
          "name": "_token",
          "type": "address"
        },
        {
          "indexed": false,
          "internalType": "uint256",
          "name": "_amount",
          "type": "uint256"
        },
        {
          "indexed": false,
          "internalType": "uint256",
          "name": "_serviceId",
          "type": "uint256"
        }
      ],
      "name": "Payment",
      "type": "event"
    },
    {
      "anonymous": false,
      "inputs": [
        {
          "indexed": false,
          "internalType": "uint256",
          "name": "_serviceId",
          "type": "uint256"
        }
      ],
      "name": "PaymentCompleted",
      "type": "event"
    },
    {
      "anonymous": false,
      "inputs": [
        {
          "indexed": false,
          "internalType": "uint16",
          "name": "_protocolEscrowFeeRate",
          "type": "uint16"
        }
      ],
      "name": "ProtocolEscrowFeeRateUpdated",
      "type": "event"
    },
    {
      "anonymous": false,
      "inputs": [
        {
          "indexed": true,
          "internalType": "contract Arbitrator",
          "name": "_arbitrator",
          "type": "address"
        },
        {
          "indexed": true,
          "internalType": "uint256",
          "name": "_disputeID",
          "type": "uint256"
        },
        {
          "indexed": false,
          "internalType": "uint256",
          "name": "_ruling",
          "type": "uint256"
        }
      ],
      "name": "Ruling",
      "type": "event"
    },
    {
      "anonymous": false,
      "inputs": [
        {
          "indexed": true,
          "internalType": "uint256",
          "name": "_transactionId",
          "type": "uint256"
        },
        {
          "indexed": false,
          "internalType": "uint256",
          "name": "_ruling",
          "type": "uint256"
        }
      ],
      "name": "RulingExecuted",
      "type": "event"
    },
    {
      "anonymous": false,
      "inputs": [
        {
          "indexed": false,
          "internalType": "uint256",
          "name": "_transactionId",
          "type": "uint256"
        },
        {
          "indexed": false,
          "internalType": "uint256",
          "name": "_senderId",
          "type": "uint256"
        },
        {
          "indexed": false,
          "internalType": "uint256",
          "name": "_receiverId",
          "type": "uint256"
        },
        {
          "indexed": false,
          "internalType": "address",
          "name": "_token",
          "type": "address"
        },
        {
          "indexed": false,
          "internalType": "uint256",
          "name": "_amount",
          "type": "uint256"
        },
        {
          "indexed": false,
          "internalType": "uint256",
          "name": "_serviceId",
          "type": "uint256"
        },
        {
          "indexed": false,
          "internalType": "uint256",
          "name": "_proposalId",
          "type": "uint256"
        },
        {
          "indexed": false,
          "internalType": "uint16",
          "name": "_protocolEscrowFeeRate",
          "type": "uint16"
        },
        {
          "indexed": false,
          "internalType": "uint16",
          "name": "_originServiceFeeRate",
          "type": "uint16"
        },
        {
          "indexed": false,
          "internalType": "uint16",
          "name": "_originValidatedProposalFeeRate",
          "type": "uint16"
        },
        {
          "indexed": false,
          "internalType": "contract Arbitrator",
          "name": "_arbitrator",
          "type": "address"
        },
        {
          "indexed": false,
          "internalType": "bytes",
          "name": "_arbitratorExtraData",
          "type": "bytes"
        },
        {
          "indexed": false,
          "internalType": "uint256",
          "name": "_arbitrationFeeTimeout",
          "type": "uint256"
        }
      ],
      "name": "TransactionCreated",
      "type": "event"
    },
    {
      "anonymous": false,
      "inputs": [
        {
          "indexed": false,
          "internalType": "address",
          "name": "forwarder",
          "type": "address"
        }
      ],
      "name": "TrustedForwarderAdded",
      "type": "event"
    },
    {
      "anonymous": false,
      "inputs": [
        {
          "indexed": false,
          "internalType": "address",
          "name": "forwarder",
          "type": "address"
        }
      ],
      "name": "TrustedForwarderRemoved",
      "type": "event"
    },
    {
      "anonymous": false,
      "inputs": [
        {
          "indexed": false,
          "internalType": "address",
          "name": "account",
          "type": "address"
        }
      ],
      "name": "Unpaused",
      "type": "event"
    },
    {
      "anonymous": false,
      "inputs": [
        {
          "indexed": true,
          "internalType": "address",
          "name": "implementation",
          "type": "address"
        }
      ],
      "name": "Upgraded",
      "type": "event"
    },
    {
      "inputs": [
        {
          "internalType": "address",
          "name": "_forwarder",
          "type": "address"
        }
      ],
      "name": "addTrustedForwarder",
      "outputs": [],
      "stateMutability": "nonpayable",
      "type": "function"
    },
    {
      "inputs": [
        {
          "internalType": "uint256",
          "name": "_transactionId",
          "type": "uint256"
        }
      ],
      "name": "appeal",
      "outputs": [],
      "stateMutability": "payable",
      "type": "function"
    },
    {
      "inputs": [
        {
          "internalType": "uint256",
          "name": "_transactionId",
          "type": "uint256"
        }
      ],
      "name": "arbitrationFeeTimeout",
      "outputs": [],
      "stateMutability": "nonpayable",
      "type": "function"
    },
    {
      "inputs": [
        {
          "internalType": "uint256",
          "name": "_platformId",
          "type": "uint256"
        },
        {
          "internalType": "address",
          "name": "_tokenAddress",
          "type": "address"
        }
      ],
      "name": "claim",
      "outputs": [],
      "stateMutability": "nonpayable",
      "type": "function"
    },
    {
      "inputs": [
        {
          "internalType": "uint256",
          "name": "_platformId",
          "type": "uint256"
        }
      ],
      "name": "claimAll",
      "outputs": [],
      "stateMutability": "nonpayable",
      "type": "function"
    },
    {
      "inputs": [
        {
          "internalType": "uint256",
          "name": "_serviceId",
          "type": "uint256"
        },
        {
          "internalType": "uint256",
          "name": "_proposalId",
          "type": "uint256"
        },
        {
          "internalType": "string",
          "name": "_metaEvidence",
          "type": "string"
        },
        {
          "internalType": "string",
          "name": "_originDataUri",
          "type": "string"
        }
      ],
      "name": "createTransaction",
      "outputs": [
        {
          "internalType": "uint256",
          "name": "",
          "type": "uint256"
        }
      ],
      "stateMutability": "payable",
      "type": "function"
    },
    {
      "inputs": [
        {
          "internalType": "uint256",
          "name": "",
          "type": "uint256"
        }
      ],
      "name": "disputeIDtoTransactionID",
      "outputs": [
        {
          "internalType": "uint256",
          "name": "",
          "type": "uint256"
        }
      ],
      "stateMutability": "view",
      "type": "function"
    },
    {
      "inputs": [
        {
          "internalType": "address",
          "name": "_token",
          "type": "address"
        }
      ],
      "name": "getClaimableFeeBalance",
      "outputs": [
        {
          "internalType": "uint256",
          "name": "balance",
          "type": "uint256"
        }
      ],
      "stateMutability": "view",
      "type": "function"
    },
    {
      "inputs": [
        {
          "internalType": "uint256",
          "name": "_transactionId",
          "type": "uint256"
        }
      ],
      "name": "getTransactionDetails",
      "outputs": [
        {
          "components": [
            {
              "internalType": "uint256",
              "name": "id",
              "type": "uint256"
            },
            {
              "internalType": "address",
              "name": "sender",
              "type": "address"
            },
            {
              "internalType": "address",
              "name": "receiver",
              "type": "address"
            },
            {
              "internalType": "address",
              "name": "token",
              "type": "address"
            },
            {
              "internalType": "uint256",
              "name": "amount",
              "type": "uint256"
            },
            {
              "internalType": "uint256",
              "name": "releasedAmount",
              "type": "uint256"
            },
            {
              "internalType": "uint256",
              "name": "serviceId",
              "type": "uint256"
            },
            {
              "internalType": "uint256",
              "name": "proposalId",
              "type": "uint256"
            },
            {
              "internalType": "uint16",
              "name": "protocolEscrowFeeRate",
              "type": "uint16"
            },
            {
              "internalType": "uint16",
              "name": "originServiceFeeRate",
              "type": "uint16"
            },
            {
              "internalType": "uint16",
              "name": "originValidatedProposalFeeRate",
              "type": "uint16"
            },
            {
              "internalType": "contract Arbitrator",
              "name": "arbitrator",
              "type": "address"
            },
            {
              "internalType": "enum TalentLayerEscrow.Status",
              "name": "status",
              "type": "uint8"
            },
            {
              "internalType": "uint256",
              "name": "disputeId",
              "type": "uint256"
            },
            {
              "internalType": "uint256",
              "name": "senderFee",
              "type": "uint256"
            },
            {
              "internalType": "uint256",
              "name": "receiverFee",
              "type": "uint256"
            },
            {
              "internalType": "uint256",
              "name": "lastInteraction",
              "type": "uint256"
            },
            {
              "internalType": "bytes",
              "name": "arbitratorExtraData",
              "type": "bytes"
            },
            {
              "internalType": "uint256",
              "name": "arbitrationFeeTimeout",
              "type": "uint256"
            }
          ],
          "internalType": "struct TalentLayerEscrow.Transaction",
          "name": "",
          "type": "tuple"
        }
      ],
      "stateMutability": "view",
      "type": "function"
    },
    {
      "inputs": [
        {
          "internalType": "address",
          "name": "_talentLayerServiceAddress",
          "type": "address"
        },
        {
          "internalType": "address",
          "name": "_talentLayerIDAddress",
          "type": "address"
        },
        {
          "internalType": "address",
          "name": "_talentLayerPlatformIDAddress",
          "type": "address"
        },
        {
          "internalType": "address",
          "name": "_protocolWallet",
          "type": "address"
        }
      ],
      "name": "initialize",
      "outputs": [],
      "stateMutability": "nonpayable",
      "type": "function"
    },
    {
      "inputs": [
        {
          "internalType": "address",
          "name": "forwarder",
          "type": "address"
        }
      ],
      "name": "isTrustedForwarder",
      "outputs": [
        {
          "internalType": "bool",
          "name": "",
          "type": "bool"
        }
      ],
      "stateMutability": "view",
      "type": "function"
    },
    {
      "inputs": [],
      "name": "owner",
      "outputs": [
        {
          "internalType": "address",
          "name": "",
          "type": "address"
        }
      ],
      "stateMutability": "view",
      "type": "function"
    },
    {
      "inputs": [],
      "name": "pause",
      "outputs": [],
      "stateMutability": "nonpayable",
      "type": "function"
    },
    {
      "inputs": [],
      "name": "paused",
      "outputs": [
        {
          "internalType": "bool",
          "name": "",
          "type": "bool"
        }
      ],
      "stateMutability": "view",
      "type": "function"
    },
    {
      "inputs": [
        {
          "internalType": "uint256",
          "name": "_transactionId",
          "type": "uint256"
        }
      ],
      "name": "payArbitrationFeeByReceiver",
      "outputs": [],
      "stateMutability": "payable",
      "type": "function"
    },
    {
      "inputs": [
        {
          "internalType": "uint256",
          "name": "_transactionId",
          "type": "uint256"
        }
      ],
      "name": "payArbitrationFeeBySender",
      "outputs": [],
      "stateMutability": "payable",
      "type": "function"
    },
    {
      "inputs": [],
      "name": "protocolEscrowFeeRate",
      "outputs": [
        {
          "internalType": "uint16",
          "name": "",
          "type": "uint16"
        }
      ],
      "stateMutability": "view",
      "type": "function"
    },
    {
      "inputs": [],
      "name": "protocolWallet",
      "outputs": [
        {
          "internalType": "address payable",
          "name": "",
          "type": "address"
        }
      ],
      "stateMutability": "view",
      "type": "function"
    },
    {
      "inputs": [],
      "name": "proxiableUUID",
      "outputs": [
        {
          "internalType": "bytes32",
          "name": "",
          "type": "bytes32"
        }
      ],
      "stateMutability": "view",
      "type": "function"
    },
    {
      "inputs": [
        {
          "internalType": "uint256",
          "name": "_profileId",
          "type": "uint256"
        },
        {
          "internalType": "uint256",
          "name": "_transactionId",
          "type": "uint256"
        },
        {
          "internalType": "uint256",
          "name": "_amount",
          "type": "uint256"
        }
      ],
      "name": "reimburse",
      "outputs": [],
      "stateMutability": "nonpayable",
      "type": "function"
    },
    {
      "inputs": [
        {
          "internalType": "uint256",
          "name": "_profileId",
          "type": "uint256"
        },
        {
          "internalType": "uint256",
          "name": "_transactionId",
          "type": "uint256"
        },
        {
          "internalType": "uint256",
          "name": "_amount",
          "type": "uint256"
        }
      ],
      "name": "release",
      "outputs": [],
      "stateMutability": "nonpayable",
      "type": "function"
    },
    {
      "inputs": [
        {
          "internalType": "address",
          "name": "_forwarder",
          "type": "address"
        }
      ],
      "name": "removeTrustedForwarder",
      "outputs": [],
      "stateMutability": "nonpayable",
      "type": "function"
    },
    {
      "inputs": [],
      "name": "renounceOwnership",
      "outputs": [],
      "stateMutability": "nonpayable",
      "type": "function"
    },
    {
      "inputs": [
        {
          "internalType": "uint256",
          "name": "_disputeID",
          "type": "uint256"
        },
        {
          "internalType": "uint256",
          "name": "_ruling",
          "type": "uint256"
        }
      ],
      "name": "rule",
      "outputs": [],
      "stateMutability": "nonpayable",
      "type": "function"
    },
    {
      "inputs": [
        {
          "internalType": "uint256",
          "name": "_profileId",
          "type": "uint256"
        },
        {
          "internalType": "uint256",
          "name": "_transactionId",
          "type": "uint256"
        },
        {
          "internalType": "string",
          "name": "_evidence",
          "type": "string"
        }
      ],
      "name": "submitEvidence",
      "outputs": [],
      "stateMutability": "nonpayable",
      "type": "function"
    },
    {
      "inputs": [
        {
          "internalType": "address",
          "name": "newOwner",
          "type": "address"
        }
      ],
      "name": "transferOwnership",
      "outputs": [],
      "stateMutability": "nonpayable",
      "type": "function"
    },
    {
      "inputs": [],
      "name": "unpause",
      "outputs": [],
      "stateMutability": "nonpayable",
      "type": "function"
    },
    {
      "inputs": [
        {
          "internalType": "uint16",
          "name": "_protocolEscrowFeeRate",
          "type": "uint16"
        }
      ],
      "name": "updateProtocolEscrowFeeRate",
      "outputs": [],
      "stateMutability": "nonpayable",
      "type": "function"
    },
    {
      "inputs": [
        {
          "internalType": "address payable",
          "name": "_protocolWallet",
          "type": "address"
        }
      ],
      "name": "updateProtocolWallet",
      "outputs": [],
      "stateMutability": "nonpayable",
      "type": "function"
    },
    {
      "inputs": [
        {
          "internalType": "address",
          "name": "newImplementation",
          "type": "address"
        }
      ],
      "name": "upgradeTo",
      "outputs": [],
      "stateMutability": "nonpayable",
      "type": "function"
    },
    {
      "inputs": [
        {
          "internalType": "address",
          "name": "newImplementation",
          "type": "address"
        },
        {
          "internalType": "bytes",
          "name": "data",
          "type": "bytes"
        }
      ],
      "name": "upgradeToAndCall",
      "outputs": [],
      "stateMutability": "payable",
      "type": "function"
    }
  ],
  "bytecode": "0x60a0604052306080523480156200001557600080fd5b506200002062000026565b620000e8565b600054610100900460ff1615620000935760405162461bcd60e51b815260206004820152602760248201527f496e697469616c697a61626c653a20636f6e747261637420697320696e697469604482015266616c697a696e6760c81b606482015260840160405180910390fd5b60005460ff9081161015620000e6576000805460ff191660ff9081179091556040519081527f7f26b83ff96e1f2b6a682f133852f6798a09c465da95921460cefb38474024989060200160405180910390a15b565b608051614fa562000120600039600081816116a0015281816116e001528181611aa901528181611ae90152611b780152614fa56000f3fe6080604052600436106101d85760003560e01c80635a34257a116101025780638b69fa0a11610095578063e308a09911610064578063e308a0991461054e578063eb63612d1461056e578063f2fde38b1461058e578063f8c8765e146105ae57600080fd5b80638b69fa0a146104d05780638da5cb5b146104f05780639dcc5daf1461050e578063ddd5e1b21461052e57600080fd5b8063715018a6116100d1578063715018a6146104805780637b44cdb5146104955780637e69b7b0146104a85780638456cb59146104bb57600080fd5b80635a34257a146103ff5780635c975abb146104355780636930fd2a1461044d5780636e72b4521461046d57600080fd5b80633659cfe61161017a5780633f4ba83a116101495780633f4ba83a146103795780634f1ef2861461038e57806352d1902d146103a1578063572b6c05146103b657600080fd5b80633659cfe6146102f95780633751d89c146103195780633a1121cd146103395780633ab4a6a41461035957600080fd5b806315734fe7116101b657806315734fe71461027657806326d00668146102895780632fbe3b03146102ab578063311a6c56146102d957600080fd5b806306d6e63f146101dd5780630a1a47d61461021b5780630fa683d314610249575b600080fd5b3480156101e957600080fd5b50610101546101fe906001600160a01b031681565b6040516001600160a01b0390911681526020015b60405180910390f35b34801561022757600080fd5b5061023b61023636600461408b565b6105ce565b604051908152602001610212565b34801561025557600080fd5b506102696102643660046140a8565b61073a565b604051610212919061413b565b61023b6102843660046143d1565b610a88565b34801561029557600080fd5b506102a96102a436600461408b565b6114c4565b005b3480156102b757600080fd5b5061023b6102c63660046140a8565b6101026020526000908152604090205481565b3480156102e557600080fd5b506102a96102f4366004614448565b611527565b34801561030557600080fd5b506102a961031436600461408b565b611696565b34801561032557600080fd5b506102a961033436600461408b565b611775565b34801561034557600080fd5b506102a961035436600461446a565b6117ce565b34801561036557600080fd5b506102a96103743660046140a8565b6118d7565b34801561038557600080fd5b506102a9611a8d565b6102a961039c366004614496565b611a9f565b3480156103ad57600080fd5b5061023b611b6b565b3480156103c257600080fd5b506103ef6103d136600461408b565b6001600160a01b031660009081526065602052604090205460ff1690565b6040519015158152602001610212565b34801561040b57600080fd5b506101015461042290600160a01b900461ffff1681565b60405161ffff9091168152602001610212565b34801561044157600080fd5b5060665460ff166103ef565b34801561045957600080fd5b506102a96104683660046140a8565b611c1e565b6102a961047b3660046140a8565b611c26565b34801561048c57600080fd5b506102a9611ebf565b6102a96104a33660046140a8565b611ed1565b6102a96104b63660046140a8565b61214b565b3480156104c757600080fd5b506102a9612203565b3480156104dc57600080fd5b506102a96104eb3660046144fa565b612213565b3480156104fc57600080fd5b506033546001600160a01b03166101fe565b34801561051a57600080fd5b506102a961052936600461446a565b612576565b34801561053a57600080fd5b506102a961054936600461454a565b612664565b34801561055a57600080fd5b506102a961056936600461408b565b612878565b34801561057a57600080fd5b506102a961058936600461458a565b6128a3565b34801561059a57600080fd5b506102a96105a936600461408b565b6128fc565b3480156105ba57600080fd5b506102a96105c93660046145a7565b612972565b6000806105d9612af3565b9050806001600160a01b03166105f76033546001600160a01b031690565b6001600160a01b0316036106415750506001600160a01b031660009081527fc34a738ec333e394a3927794cadc6dd0eb7d9eed0999d1e55021ea223ac362cc602052604090205490565b61010054604051631847c06b60e01b81526001600160a01b0383811660048301526000921690631847c06b90602401602060405180830381865afa15801561068d573d6000803e3d6000fd5b505050506040513d601f19601f820116820180604052508101906106b19190614603565b6101005460405162f577a560e81b8152600481018390529192506001600160a01b03169063f577a5009060240160006040518083038186803b1580156106f657600080fd5b505afa15801561070a573d6000803e3d6000fd5b50505060009182525060fd602090815260408083206001600160a01b039096168352949052929092205492915050565b6107d46040805161026081018252600080825260208201819052918101829052606081018290526080810182905260a0810182905260c0810182905260e0810182905261010081018290526101208101829052610140810182905261016081018290529061018082019081526020016000815260200160008152602001600081526020016000815260200160608152602001600081525090565b600082815260fc602090815260408083208151610260810183528154815260018201546001600160a01b039081169482019490945260028201548416928101929092526003810154831660608301526004808201546080840152600582015460a0840152600682015460c0840152600782015460e0840152600882015461ffff8082166101008601526201000082048116610120860152640100000000820416610140850152600160301b810490941661016084015291929091610180840191600160d01b900460ff16908111156108ae576108ae6140c1565b60048111156108bf576108bf6140c1565b815260200160098201548152602001600a8201548152602001600b8201548152602001600c8201548152602001600d820180546108fb9061461c565b80601f01602080910402602001604051908101604052809291908181526020018280546109279061461c565b80156109745780601f1061094957610100808354040283529160200191610974565b820191906000526020600020905b81548152906001019060200180831161095757829003601f168201915b50505050508152602001600e8201548152505090506109936101035490565b8151106109e05760405162461bcd60e51b8152602060048201526016602482015275125b9d985b1a59081d1c985b9cd858dd1a5bdb881a5960521b60448201526064015b60405180910390fd5b60006109ea612af3565b905081602001516001600160a01b0316816001600160a01b03161480610a25575081604001516001600160a01b0316816001600160a01b0316145b610a815760405162461bcd60e51b815260206004820152602760248201527f596f7520617265206e6f742072656c6174656420746f2074686973207472616e60448201526639b0b1ba34b7b760c91b60648201526084016109d7565b5092915050565b6000610a92612b02565b60fe5460405163ef0e239b60e01b8152600481018790526000916001600160a01b03169063ef0e239b90602401600060405180830381865afa158015610adc573d6000803e3d6000fd5b505050506040513d6000823e601f3d908101601f19168201604052610b0491908101906146a3565b60fe5460405163aba2100960e01b815260048101899052602481018890529192506000916001600160a01b039091169063aba2100990604401600060405180830381865afa158015610b5a573d6000803e3d6000fd5b505050506040513d6000823e601f3d908101601f19168201604052610b82919081019061477e565b60ff5460208401516040516331a9108f60e11b81529293506000926001600160a01b0390921691636352211e91610bbf9160040190815260200190565b602060405180830381865afa158015610bdc573d6000803e3d6000fd5b505050506040513d601f19601f82011682018060405250810190610c00919061483f565b60ff5460208401516040516331a9108f60e11b81529293506000926001600160a01b0390921691636352211e91610c3d9160040190815260200190565b602060405180830381865afa158015610c5a573d6000803e3d6000fd5b505050506040513d601f19601f82011682018060405250810190610c7e919061483f565b6101005460a0860151604051630b7a459360e31b81529293506000926001600160a01b0390921691635bd22c9891610cbc9160040190815260200190565b600060405180830381865afa158015610cd9573d6000803e3d6000fd5b505050506040513d6000823e601f3d908101601f19168201604052610d01919081019061485c565b90506000846080015161ffff168660a0015103610d1e5781610d99565b610100546080860151604051630b7a459360e31b815261ffff90911660048201526001600160a01b0390911690635bd22c9890602401600060405180830381865afa158015610d71573d6000803e3d6000fd5b505050506040513d6000823e601f3d908101601f19168201604052610d99919081019061485c565b90506000610db4866060015184606001518460800151612b48565b60408701519091506001600160a01b0316610e1257803414610e0d5760405162461bcd60e51b81526020600482015260126024820152714e6f6e2d6d61746368696e672066756e647360701b60448201526064016109d7565b610e55565b3415610e555760405162461bcd60e51b81526020600482015260126024820152714e6f6e2d6d61746368696e672066756e647360701b60448201526064016109d7565b846001600160a01b0316610e67612af3565b6001600160a01b031614610e8d5760405162461bcd60e51b81526004016109d790614988565b8a866020015114610ed85760405162461bcd60e51b8152602060048201526015602482015274125b98dbdc9c9958dd081c1c9bdc1bdcd85b081251605a1b60448201526064016109d7565b428660c001511015610f1f5760405162461bcd60e51b815260206004820152601060248201526f141c9bdc1bdcd85b08195e1c1a5c995960821b60448201526064016109d7565b600087516004811115610f3457610f346140c1565b14610f815760405162461bcd60e51b815260206004820152601760248201527f5365727669636520737461747573206e6f74206f70656e00000000000000000060448201526064016109d7565b600086516001811115610f9657610f966140c1565b14610fe35760405162461bcd60e51b815260206004820152601b60248201527f50726f706f73616c20737461747573206e6f742070656e64696e67000000000060448201526064016109d7565b8951602e146110225760405162461bcd60e51b815260206004820152600b60248201526a125b9d985b1a590818da5960aa1b60448201526064016109d7565b8860405160200161103391906149af565b604051602081830303815290604052805190602001208660a0015160405160200161105e91906149af565b60405160208183030381529060405280519060200120146110c15760405162461bcd60e51b815260206004820152601c60248201527f50726f706f73616c206461746155726920686173206368616e6765640000000060448201526064016109d7565b60006110cd6101035490565b9050604051806102600160405280828152602001876001600160a01b03168152602001866001600160a01b0316815260200188604001516001600160a01b0316815260200188606001518152602001600081526020018e81526020018d815260200161010160149054906101000a900461ffff1661ffff168152602001856060015161ffff168152602001846080015161ffff1681526020018560e001516001600160a01b031681526020016000600481111561118c5761118c6140c1565b8152600060208083018290526040808401839052606080850184905242608080870191909152610100808c015160a080890191909152610120808e015160c0998a01528a885260fc87529685902089518155958901516001870180546001600160a01b039283166001600160a01b031991821617909155958a01516002880180549183169188169190911790559389015160038701805491861691909616179094559087015160048086019190915592870151600585015594860151600684015560e086015160078401559385015160088301805494870151610140880151610160890151909716600160301b026601000000000000600160d01b031961ffff9889166401000000000216640100000000600160d01b0319928916620100000263ffffffff19909816989094169790971795909517949094161793909317808355610180850151919391929160ff60d01b1990911690600160d01b9084908111156112f9576112f96140c1565b02179055506101a082015160098201556101c0820151600a8201556101e0820151600b820155610200820151600c820155610220820151600d82019061133f9082614a11565b5061024082015181600e015590505061135d61010380546001019055565b60fe546040516353eaf57560e11b8152600481018f9052602481018e9052604481018390526001600160a01b039091169063a7d5eaea90606401600060405180830381600087803b1580156113b157600080fd5b505af11580156113c5573d6000803e3d6000fd5b5050505060408701516001600160a01b0316156114a05760408088015190516323b872dd60e01b81526001600160a01b03888116600483015230602483015260448201859052909116906323b872dd906064016020604051808303816000875af1158015611437573d6000803e3d6000fd5b505050506040513d601f19601f8201168201806040525081019061145b9190614ad1565b6114a05760405162461bcd60e51b8152602060048201526016602482015275151c985b9cd9995c881b5d5cdd081b9bdd0819985a5b60521b60448201526064016109d7565b6114b488602001518860200151838e612bb4565b9c9b505050505050505050505050565b6114cc612ccf565b6001600160a01b038116600081815260656020908152604091829020805460ff1916600117905590519182527f3ef8564460ada92419608d823c014975d98f8104d7d1e68c222967ac6814cd9791015b60405180910390a150565b6000611531612af3565b6000848152610102602090815260408083205480845260fc909252909120600881015492935090916001600160a01b03808516600160301b90920416146115c45760405162461bcd60e51b815260206004820152602160248201527f5468652063616c6c6572206d757374206265207468652061726269747261746f6044820152603960f91b60648201526084016109d7565b60036008820154600160d01b900460ff1660048111156115e6576115e66140c1565b146116415760405162461bcd60e51b815260206004820152602560248201527f54686520646973707574652068617320616c7265616479206265656e207265736044820152641bdb1d995960da1b60648201526084016109d7565b84836001600160a01b03167f394027a5fa6e098a1191094d1719d6929b9abc535fcc0c8f448d6a4e756222768660405161167d91815260200190565b60405180910390a361168f8285612d48565b5050505050565b6001600160a01b037f00000000000000000000000000000000000000000000000000000000000000001630036116de5760405162461bcd60e51b81526004016109d790614af3565b7f00000000000000000000000000000000000000000000000000000000000000006001600160a01b0316611727600080516020614f09833981519152546001600160a01b031690565b6001600160a01b03161461174d5760405162461bcd60e51b81526004016109d790614b3f565b61175681612fd2565b6040805160008082526020820190925261177291839190612fda565b50565b61177d612ccf565b6001600160a01b038116600081815260656020908152604091829020805460ff1916905590519182527fd2d636efcad0cea42e170256f4c5d8b1cd81e47b855557edaf44014e6cc4cee6910161151c565b6117d6612b02565b60ff5483906001600160a01b0316632fa117e5826117f2612af3565b6040516001600160e01b031960e085901b16815260048101929092526001600160a01b03166024820152604401602060405180830381865afa15801561183c573d6000803e3d6000fd5b505050506040513d601f19601f820116820180604052508101906118609190614ad1565b61187c5760405162461bcd60e51b81526004016109d790614b8b565b6118898360008685613145565b600083815260fc60205260408120600481018054919285926118ac908490614bd0565b92505081905550828160050160008282546118c79190614be3565b9091555061168f90508484613430565b600081815260fc60205260409020600e810154600c8201546118f99042614bd0565b10156119475760405162461bcd60e51b815260206004820152601f60248201527f54696d656f75742074696d6520686173206e6f7420706173736564207965740060448201526064016109d7565b60016008820154600160d01b900460ff166004811115611969576119696140c1565b036119ec57600a810154156119dd57600a81018054600091829055600183015460405191926001600160a01b0390911691839181818185875af1925050503d80600081146119d3576040519150601f19603f3d011682016040523d82523d6000602084013e6119d8565b606091505b505050505b6119e8826002612d48565b5050565b60026008820154600160d01b900460ff166004811115611a0e57611a0e6140c1565b036119e857600b81015415611a8257600b81018054600091829055600283015460405191926001600160a01b0390911691839181818185875af1925050503d8060008114611a78576040519150601f19603f3d011682016040523d82523d6000602084013e611a7d565b606091505b505050505b6119e8826001612d48565b611a95612ccf565b611a9d613475565b565b6001600160a01b037f0000000000000000000000000000000000000000000000000000000000000000163003611ae75760405162461bcd60e51b81526004016109d790614af3565b7f00000000000000000000000000000000000000000000000000000000000000006001600160a01b0316611b30600080516020614f09833981519152546001600160a01b031690565b6001600160a01b031614611b565760405162461bcd60e51b81526004016109d790614b3f565b611b5f82612fd2565b6119e882826001612fda565b6000306001600160a01b037f00000000000000000000000000000000000000000000000000000000000000001614611c0b5760405162461bcd60e51b815260206004820152603860248201527f555550535570677261646561626c653a206d757374206e6f742062652063616c60448201527f6c6564207468726f7567682064656c656761746563616c6c000000000000000060648201526084016109d7565b50600080516020614f0983398151915290565b611772612b02565b600081815260fc602052604090206008810154600160301b90046001600160a01b0316611c655760405162461bcd60e51b81526004016109d790614bf6565b60036008820154600160d01b900460ff166004811115611c8757611c876140c1565b10611ca45760405162461bcd60e51b81526004016109d790614c22565b60028101546001600160a01b0316611cba612af3565b6001600160a01b031614611d105760405162461bcd60e51b815260206004820152601f60248201527f5468652063616c6c6572206d757374206265207468652072656365697665720060448201526064016109d7565b600881015460405163f7434ea960e01b8152600091600160301b90046001600160a01b03169063f7434ea990611d4d90600d860190600401614d12565b602060405180830381865afa158015611d6a573d6000803e3d6000fd5b505050506040513d601f19601f82011682018060405250810190611d8e9190614603565b90503482600b016000828254611da49190614be3565b9091555050600b8201548114611e1b5760405162461bcd60e51b815260206004820152603660248201527f54686520726563656976657220666565206d75737420626520657175616c20746044820152751bc81d1a1948185c989a5d1c985d1a5bdb8818dbdcdd60521b60648201526084016109d7565b42600c8301556040518390600080516020614f2983398151915290611e47906000906001903490614d35565b60405180910390a28082600a01541015611eb05760088201805460ff60d01b1916600160d01b17905560405183907fc74b9f7dedf2887cd3c113b6d8da9cea19e55c1116e25f1f0e1b72d7543179b590611ea390600090614d5f565b60405180910390a2505050565b611eba83826134cd565b505050565b611ec7612ccf565b611a9d6000613726565b600081815260fc602052604090206008810154600160301b90046001600160a01b0316611f105760405162461bcd60e51b81526004016109d790614bf6565b60036008820154600160d01b900460ff166004811115611f3257611f326140c1565b10611f4f5760405162461bcd60e51b81526004016109d790614c22565b60018101546001600160a01b0316611f65612af3565b6001600160a01b031614611fbb5760405162461bcd60e51b815260206004820152601d60248201527f5468652063616c6c6572206d757374206265207468652073656e64657200000060448201526064016109d7565b600881015460405163f7434ea960e01b8152600091600160301b90046001600160a01b03169063f7434ea990611ff890600d860190600401614d12565b602060405180830381865afa158015612015573d6000803e3d6000fd5b505050506040513d601f19601f820116820180604052508101906120399190614603565b90503482600a01600082825461204f9190614be3565b9091555050600a82015481146120c45760405162461bcd60e51b815260206004820152603460248201527f5468652073656e64657220666565206d75737420626520657175616c20746f206044820152731d1a1948185c989a5d1c985d1a5bdb8818dbdcdd60621b60648201526084016109d7565b42600c8301556040518390600080516020614f29833981519152906120ef9060009081903490614d35565b60405180910390a28082600b01541015611eb05760088201805460ff60d01b1916600160d11b17905560405183907fc74b9f7dedf2887cd3c113b6d8da9cea19e55c1116e25f1f0e1b72d7543179b590611ea390600190614d5f565b600081815260fc602052604090206008810154600160301b90046001600160a01b031661218a5760405162461bcd60e51b81526004016109d790614bf6565b6008810154600982015460405163093225f160e31b8152600160301b9092046001600160a01b0316916349912f889134916121cd9190600d870190600401614d72565b6000604051808303818588803b1580156121e657600080fd5b505af11580156121fa573d6000803e3d6000fd5b50505050505050565b61220b612ccf565b611a9d613778565b60ff5483906001600160a01b0316632fa117e58261222f612af3565b6040516001600160e01b031960e085901b16815260048101929092526001600160a01b03166024820152604401602060405180830381865afa158015612279573d6000803e3d6000fd5b505050506040513d601f19601f8201168201806040525081019061229d9190614ad1565b6122b95760405162461bcd60e51b81526004016109d790614b8b565b8151602e146122f85760405162461bcd60e51b815260206004820152600b60248201526a125b9d985b1a590818da5960aa1b60448201526064016109d7565b600083815260fc602052604090206008810154600160301b90046001600160a01b03166123375760405162461bcd60e51b81526004016109d790614bf6565b60ff546040516331a9108f60e11b8152600481018790526000916001600160a01b031690636352211e90602401602060405180830381865afa158015612381573d6000803e3d6000fd5b505050506040513d601f19601f820116820180604052508101906123a5919061483f565b60018301549091506001600160a01b03808316911614806123d5575060028201546001600160a01b038281169116145b612449576040805162461bcd60e51b81526020600482015260248101919091527f5468652063616c6c6572206d757374206265207468652073656e646572206f7260448201527f20746865207265636569766572206f722074686569722064656c65676174657360648201526084016109d7565b60046008830154600160d01b900460ff16600481111561246b5761246b6140c1565b106124d25760405162461bcd60e51b815260206004820152603160248201527f4d757374206e6f742073656e642065766964656e6365206966207468652064696044820152701cdc1d5d19481a5cc81c995cdbdb1d9959607a1b60648201526084016109d7565b806001600160a01b0316858360080160069054906101000a90046001600160a01b03166001600160a01b03167fdccf2f8b2cc26eafcd61905cba744cff4b81d14740725f6376390dc6298a6a3c8760405161252d9190614d8b565b60405180910390a485857fd998ce0f89c38b0f93256f0b843a404a3a3c5055b75265623f7cb9c369a1dd62866040516125669190614d8b565b60405180910390a3505050505050565b61257e612b02565b60ff5483906001600160a01b0316632fa117e58261259a612af3565b6040516001600160e01b031960e085901b16815260048101929092526001600160a01b03166024820152604401602060405180830381865afa1580156125e4573d6000803e3d6000fd5b505050506040513d601f19601f820116820180604052508101906126089190614ad1565b6126245760405162461bcd60e51b81526004016109d790614b8b565b6126318360018685613145565b600083815260fc6020526040812060048101805491928592612654908490614bd0565b9091555061168f905084846137b6565b61266c612b02565b6000612676612af3565b6001600160a01b03166126916033546001600160a01b031690565b6001600160a01b0316036126d05782156126bd5760405162461bcd60e51b81526004016109d790614988565b50610101546001600160a01b031661279d565b6101005460405162f577a560e81b8152600481018590526001600160a01b039091169063f577a5009060240160006040518083038186803b15801561271457600080fd5b505afa158015612728573d6000803e3d6000fd5b5050610100546040516331a9108f60e11b8152600481018790526001600160a01b039091169250636352211e9150602401602060405180830381865afa158015612776573d6000803e3d6000fd5b505050506040513d601f19601f8201168201806040525081019061279a919061483f565b90505b600083815260fd602090815260408083206001600160a01b0386168452909152902054806128005760405162461bcd60e51b815260206004820152601060248201526f6e6f7468696e6720746f20636c61696d60801b60448201526064016109d7565b600084815260fd602090815260408083206001600160a01b038716845290915281205561282e82848361381c565b60408051858152602081018390526001600160a01b038516917f2227733fc4c8a9034cb58087dcf6995128b9c0233b038b03366aaf30c92b92d6910160405180910390a250505050565b612880612ccf565b61010180546001600160a01b0319166001600160a01b0392909216919091179055565b6128ab612ccf565b610101805461ffff60a01b1916600160a01b61ffff8416908102919091179091556040519081527f8339189e972f7fba792126e752aa8485af08710bce4a041c5bc3f9858acd71309060200161151c565b612904612ccf565b6001600160a01b0381166129695760405162461bcd60e51b815260206004820152602660248201527f4f776e61626c653a206e6577206f776e657220697320746865207a65726f206160448201526564647265737360d01b60648201526084016109d7565b61177281613726565b600054610100900460ff16158080156129925750600054600160ff909116105b806129ac5750303b1580156129ac575060005460ff166001145b612a0f5760405162461bcd60e51b815260206004820152602e60248201527f496e697469616c697a61626c653a20636f6e747261637420697320616c72656160448201526d191e481a5b9a5d1a585b1a5e995960921b60648201526084016109d7565b6000805460ff191660011790558015612a32576000805461ff0019166101001790555b612a3a6138f6565b612a42613925565b60fe80546001600160a01b038088166001600160a01b03199283161790925560ff80548784169083161790556101008054868416908316179055610101805492851692909116919091179055612a9d61010380546001019055565b612aa760646128a3565b801561168f576000805461ff0019169055604051600181527f7f26b83ff96e1f2b6a682f133852f6798a09c465da95921460cefb38474024989060200160405180910390a15050505050565b6000612afd61394c565b905090565b60665460ff1615611a9d5760405162461bcd60e51b815260206004820152601060248201526f14185d5cd8589b194e881c185d5cd95960821b60448201526064016109d7565b6000612710612b5b61ffff841686614d9e565b612b6961ffff861687614d9e565b61010154612b8290600160a01b900461ffff1688614d9e565b612b8c9190614be3565b612b969190614be3565b612ba09190614db5565b612baa9085614be3565b90505b9392505050565b600060fc600084815260200190815260200160002090507f8b4f0e94aa0aee74c276abd2d92a5e2737a493b055e19d5b2d4c0ac573242a158386868460030160009054906101000a90046001600160a01b031685600401548660060154876007015461010160149054906101000a900461ffff168960080160029054906101000a900461ffff168a60080160049054906101000a900461ffff168b60080160069054906101000a90046001600160a01b03168c600d018d600e0154604051612c889d9c9b9a99989796959493929190614dd7565b60405180910390a1827f61606860eb6c87306811e2695215385101daab53bd6ab4e9f9049aead9363c7d83604051612cc09190614d8b565b60405180910390a25050505050565b612cd7612af3565b6001600160a01b0316612cf26033546001600160a01b031690565b6001600160a01b031614611a9d5760405162461bcd60e51b815260206004820181905260248201527f4f776e61626c653a2063616c6c6572206973206e6f7420746865206f776e657260448201526064016109d7565b600082815260fc602052604090206002821115612d985760405162461bcd60e51b815260206004820152600e60248201526d496e76616c69642072756c696e6760901b60448201526064016109d7565b60018101546002820154600483018054600a85018054600b87018054600095869055928590559390935560088601805460ff60d01b1916600160d21b1790556001600160a01b0394851694909316929091906000198701612e53576040516001600160a01b038616908390600081818185875af1925050503d8060008114612e3c576040519150601f19603f3d011682016040523d82523d6000602084013e612e41565b606091505b505050612e4e88846137b6565b612f8e565b6001198701612eb7576040516001600160a01b038516908290600081818185875af1925050503d8060008114612ea5576040519150601f19603f3d011682016040523d82523d6000602084013e612eaa565b606091505b505050612e4e8884613430565b6000612ec4600284614db5565b90506000612ed3600286614db5565b9050612edf8a826137b6565b612ee98a82613430565b6040516001600160a01b038816908390600081818185875af1925050503d8060008114612f32576040519150601f19603f3d011682016040523d82523d6000602084013e612f37565b606091505b50506040516001600160a01b03881691508390600081818185875af1925050503d8060008114612f83576040519150601f19603f3d011682016040523d82523d6000602084013e612f88565b606091505b50505050505b877f76b363d70472d47d20e4119f3625c05ed37ca51b1d9e1cd8b87d8c20530640f388604051612fc091815260200190565b60405180910390a25050505050505050565b611772612ccf565b7f4910fdfa16fed3260ed0e7147f7cc6da11a60208b5b9406d12a635614ffd91435460ff161561300d57611eba83613985565b826001600160a01b03166352d1902d6040518163ffffffff1660e01b8152600401602060405180830381865afa925050508015613067575060408051601f3d908101601f1916820190925261306491810190614603565b60015b6130ca5760405162461bcd60e51b815260206004820152602e60248201527f45524331393637557067726164653a206e657720696d706c656d656e7461746960448201526d6f6e206973206e6f74205555505360901b60648201526084016109d7565b600080516020614f0983398151915281146131395760405162461bcd60e51b815260206004820152602960248201527f45524331393637557067726164653a20756e737570706f727465642070726f786044820152681a58589b195555525160ba1b60648201526084016109d7565b50611eba838383613a21565b600084815260fc6020526040812090846001811115613166576131666140c1565b0361320c5760ff546040516331a9108f60e11b8152600481018590526001600160a01b0390911690636352211e90602401602060405180830381865afa1580156131b4573d6000803e3d6000fd5b505050506040513d601f19601f820116820180604052508101906131d8919061483f565b60018201546001600160a01b039081169116146132075760405162461bcd60e51b81526004016109d790614988565b6132c1565b6001846001811115613220576132206140c1565b036132c15760ff546040516331a9108f60e11b8152600481018590526001600160a01b0390911690636352211e90602401602060405180830381865afa15801561326e573d6000803e3d6000fd5b505050506040513d601f19601f82011682018060405250810190613292919061483f565b60028201546001600160a01b039081169116146132c15760405162461bcd60e51b81526004016109d790614988565b6101035481541061330d5760405162461bcd60e51b8152602060048201526016602482015275125b9d985b1a59081d1c985b9cd858dd1a5bdb881a5960521b60448201526064016109d7565b60006008820154600160d01b900460ff16600481111561332f5761332f6140c1565b1461338a5760405162461bcd60e51b815260206004820152602560248201527f546865207472616e73616374696f6e2073686f756c646e2774206265206469736044820152641c1d5d195960da1b60648201526084016109d7565b81816004015410156133d35760405162461bcd60e51b8152602060048201526012602482015271496e73756666696369656e742066756e647360701b60448201526064016109d7565b612710821015806133f35750612710821080156133f35750806004015482145b61168f5760405162461bcd60e51b815260206004820152600e60248201526d416d6f756e7420746f6f206c6f7760901b60448201526064016109d7565b61343a8282613a46565b600082815260fc6020526040902060028101546003820154613469916001600160a01b0390811691168461381c565b611eba83600084613d60565b61347d613e82565b6066805460ff191690557f5db9ee0a495bf2e6ff9c91a7834c1ba4fdd244a5e8aa4e537bd38aeae4b073aa6134b0612af3565b6040516001600160a01b03909116815260200160405180910390a1565b600082815260fc60205260409081902060088101805460ff60d01b1916600360d01b1790819055915163c13517e160e01b81529091600160301b90046001600160a01b031690819063c13517e190859061353190600290600d880190600401614e65565b60206040518083038185885af115801561354f573d6000803e3d6000fd5b50505050506040513d601f19601f820116820180604052508101906135749190614603565b600983018181556000918252610102602090815260409283902087905590548251878152918201879052916001600160a01b038416917f74baab670a4015ab2f1b467c5252a96141a2573f2908e58a92081e80d3cfde3d910160405180910390a38282600a015411156136805760008383600a01546135f39190614bd0565b600a840185905560018401546040519192506001600160a01b0316908290600081818185875af1925050503d806000811461364a576040519150601f19603f3d011682016040523d82523d6000602084013e61364f565b606091505b50505084600080516020614f29833981519152600160003460405161367693929190614d35565b60405180910390a2505b8282600b015411156137205760008383600b015461369e9190614bd0565b600b840185905560028401546040519192506001600160a01b0316908290600081818185875af1925050503d80600081146136f5576040519150601f19603f3d011682016040523d82523d6000602084013e6136fa565b606091505b50505084600080516020614f2983398151915260018034604051612cc093929190614d35565b50505050565b603380546001600160a01b038381166001600160a01b0319831681179093556040519116919082907f8be0079c531659141344cd1fd0a4f28419497f9722a3daafe3b4186f6b6457e090600090a35050565b613780612b02565b6066805460ff191660011790557f62e78cea01bee320cd4e420270b5ea74000d11b0c9f74754ebdbfc544b05a2586134b0612af3565b600082815260fc6020526040812060088101549091906137ec90849061ffff620100008204811691640100000000900416612b48565b60018301546003840154919250613810916001600160a01b0391821691168361381c565b61372084600185613d60565b6001600160a01b038216600003613883576040516001600160a01b038416908290600081818185875af1925050503d8060008114613876576040519150601f19603f3d011682016040523d82523d6000602084013e61387b565b606091505b505050505050565b60405163a9059cbb60e01b81526001600160a01b0384811660048301526024820183905283169063a9059cbb906044016020604051808303816000875af11580156138d2573d6000803e3d6000fd5b505050506040513d601f19601f820116820180604052508101906137209190614ad1565b600054610100900460ff1661391d5760405162461bcd60e51b81526004016109d790614e81565b611a9d613ecb565b600054610100900460ff16611a9d5760405162461bcd60e51b81526004016109d790614e81565b60006014361080159061396e57503360009081526065602052604090205460ff165b15613980575060131936013560601c90565b503390565b6001600160a01b0381163b6139f25760405162461bcd60e51b815260206004820152602d60248201527f455243313936373a206e657720696d706c656d656e746174696f6e206973206e60448201526c1bdd08184818dbdb9d1c9858dd609a1b60648201526084016109d7565b600080516020614f0983398151915280546001600160a01b0319166001600160a01b0392909216919091179055565b613a2a83613f02565b600082511180613a375750805b15611eba576137208383613f42565b600082815260fc602052604080822060fe546006820154925163ef0e239b60e01b81529193926001600160a01b039091169163ef0e239b91613a8e9160040190815260200190565b600060405180830381865afa158015613aab573d6000803e3d6000fd5b505050506040513d6000823e601f3d908101601f19168201604052613ad391908101906146a3565b60a0015160fe546006840154600785015460405163aba2100960e01b8152600481019290925260248201529192506000916001600160a01b039091169063aba2100990604401600060405180830381865afa158015613b36573d6000803e3d6000fd5b505050506040513d6000823e601f3d908101601f19168201604052613b5e919081019061477e565b60800151600884015461ffff918216925060009161271091613b8291889116614d9e565b613b8c9190614db5565b600885015490915060009061271090613bb090889062010000900461ffff16614d9e565b613bba9190614db5565b600886015490915060009061271090613be0908990640100000000900461ffff16614d9e565b613bea9190614db5565b60038701546001600160a01b031660009081527fc34a738ec333e394a3927794cadc6dd0eb7d9eed0999d1e55021ea223ac362cc6020526040812080549293508592909190613c3a908490614be3565b9091555050600085815260fd6020908152604080832060038a01546001600160a01b0316845290915281208054849290613c75908490614be3565b9091555050600084815260fd6020908152604080832060038a01546001600160a01b0316845290915281208054839290613cb0908490614be3565b90915550506003860154600687015460408051888152602081019290925281018490526001600160a01b03909116907f17c48ab8e1617182f35ae77fd7da7f4e15dedf7018aa371a4481c20c790b65469060600160405180910390a26003860154600687015460408051878152602081019290925281018490526001600160a01b03909116907f3476ed3eea2cdac584273bc8830824c8ca42ca2a99e9f144a87a1cdbbf9dd15a90606001612fc0565b600083815260fc602052604090819020805460038201546006830154935192937f2ab2a30b19f7bc6e386d4ee60aa21ed23c127ce9fe26903da97edd54bad0375a93613dbd939288926001600160a01b0390911691889190614ecc565b60405180910390a180600401546000036137205760fe5460068201546005830154604051635ab9ae0f60e11b8152600481019290925260248201526001600160a01b039091169063b5735c1e90604401600060405180830381600087803b158015613e2757600080fd5b505af1158015613e3b573d6000803e3d6000fd5b505050507f6bef1b5e95b741d6e665eb9b5c2d3e1203c46a771451055a9d41e0b8ff4510b78160060154604051613e7491815260200190565b60405180910390a150505050565b60665460ff16611a9d5760405162461bcd60e51b815260206004820152601460248201527314185d5cd8589b194e881b9bdd081c185d5cd95960621b60448201526064016109d7565b600054610100900460ff16613ef25760405162461bcd60e51b81526004016109d790614e81565b611a9d613efd612af3565b613726565b613f0b81613985565b6040516001600160a01b038216907fbc7cd75a20ee27fd9adebab32041f755214dbc6bffa90cc0225b39da2e5c2d3b90600090a250565b60606001600160a01b0383163b613faa5760405162461bcd60e51b815260206004820152602660248201527f416464726573733a2064656c65676174652063616c6c20746f206e6f6e2d636f6044820152651b9d1c9858dd60d21b60648201526084016109d7565b600080846001600160a01b031684604051613fc591906149af565b600060405180830381855af49150503d8060008114614000576040519150601f19603f3d011682016040523d82523d6000602084013e614005565b606091505b509150915061402d8282604051806060016040528060278152602001614f4960279139614038565b925050505b92915050565b60608315614047575081612bad565b612bad838381511561405c5781518083602001fd5b8060405162461bcd60e51b81526004016109d79190614d8b565b6001600160a01b038116811461177257600080fd5b60006020828403121561409d57600080fd5b8135612bad81614076565b6000602082840312156140ba57600080fd5b5035919050565b634e487b7160e01b600052602160045260246000fd5b600581106140e7576140e76140c1565b9052565b60005b838110156141065781810151838201526020016140ee565b50506000910152565b600081518084526141278160208601602086016140eb565b601f01601f19169290920160200192915050565b60208152815160208201526000602083015161416260408401826001600160a01b03169052565b5060408301516001600160a01b03811660608401525060608301516001600160a01b038116608084015250608083015160a083015260a083015160c083015260c083015160e083015260e08301516101008181850152808501519150506101206141d18185018361ffff169052565b84015190506101406141e88482018361ffff169052565b84015190506101606141ff8482018361ffff169052565b840151905061018061421b848201836001600160a01b03169052565b84015190506101a061422f848201836140d7565b8401516101c0848101919091528401516101e08085019190915284015161020080850191909152840151610220808501919091528401516102606102408086018290529192509061428461028086018461410f565b9501519301929092525090919050565b634e487b7160e01b600052604160045260246000fd5b60405160c0810167ffffffffffffffff811182821017156142cd576142cd614294565b60405290565b60405160e0810167ffffffffffffffff811182821017156142cd576142cd614294565b604051610160810167ffffffffffffffff811182821017156142cd576142cd614294565b604051601f8201601f1916810167ffffffffffffffff8111828210171561434357614343614294565b604052919050565b600067ffffffffffffffff82111561436557614365614294565b50601f01601f191660200190565b60006143866143818461434b565b61431a565b905082815283838301111561439a57600080fd5b828260208301376000602084830101529392505050565b600082601f8301126143c257600080fd5b612bad83833560208501614373565b600080600080608085870312156143e757600080fd5b8435935060208501359250604085013567ffffffffffffffff8082111561440d57600080fd5b614419888389016143b1565b9350606087013591508082111561442f57600080fd5b5061443c878288016143b1565b91505092959194509250565b6000806040838503121561445b57600080fd5b50508035926020909101359150565b60008060006060848603121561447f57600080fd5b505081359360208301359350604090920135919050565b600080604083850312156144a957600080fd5b82356144b481614076565b9150602083013567ffffffffffffffff8111156144d057600080fd5b8301601f810185136144e157600080fd5b6144f085823560208401614373565b9150509250929050565b60008060006060848603121561450f57600080fd5b8335925060208401359150604084013567ffffffffffffffff81111561453457600080fd5b614540868287016143b1565b9150509250925092565b6000806040838503121561455d57600080fd5b82359150602083013561456f81614076565b809150509250929050565b61ffff8116811461177257600080fd5b60006020828403121561459c57600080fd5b8135612bad8161457a565b600080600080608085870312156145bd57600080fd5b84356145c881614076565b935060208501356145d881614076565b925060408501356145e881614076565b915060608501356145f881614076565b939692955090935050565b60006020828403121561461557600080fd5b5051919050565b600181811c9082168061463057607f821691505b60208210810361465057634e487b7160e01b600052602260045260246000fd5b50919050565b600082601f83011261466757600080fd5b81516146756143818261434b565b81815284602083860101111561468a57600080fd5b61469b8260208301602087016140eb565b949350505050565b6000602082840312156146b557600080fd5b815167ffffffffffffffff808211156146cd57600080fd5b9083019060c082860312156146e157600080fd5b6146e96142aa565b8251600581106146f857600080fd5b80825250602083015160208201526040830151604082015260608301518281111561472257600080fd5b61472e87828601614656565b6060830152506080830151608082015260a083015160a082015280935050505092915050565b80516002811061476357600080fd5b919050565b805161476381614076565b80516147638161457a565b60006020828403121561479057600080fd5b815167ffffffffffffffff808211156147a857600080fd5b9083019060e082860312156147bc57600080fd5b6147c46142d3565b6147cd83614754565b8152602083015160208201526147e560408401614768565b60408201526060830151606082015261480060808401614773565b608082015260a08301518281111561481757600080fd5b61482387828601614656565b60a08301525060c083015160c082015280935050505092915050565b60006020828403121561485157600080fd5b8151612bad81614076565b60006020828403121561486e57600080fd5b815167ffffffffffffffff8082111561488657600080fd5b90830190610160828603121561489b57600080fd5b6148a36142f6565b825181526020830151828111156148b957600080fd5b6148c587828601614656565b6020830152506040830151828111156148dd57600080fd5b6148e987828601614656565b6040830152506148fb60608401614773565b606082015261490c60808401614773565b608082015260a083015160a082015260c083015160c082015261493160e08401614768565b60e0820152610100808401518381111561494a57600080fd5b61495688828701614656565b828401525050610120915081830151828201526101409150614979828401614768565b91810191909152949350505050565b6020808252600d908201526c1058d8d95cdcc819195b9a5959609a1b604082015260600190565b600082516149c18184602087016140eb565b9190910192915050565b601f821115611eba57600081815260208120601f850160051c810160208610156149f25750805b601f850160051c820191505b8181101561387b578281556001016149fe565b815167ffffffffffffffff811115614a2b57614a2b614294565b614a3f81614a39845461461c565b846149cb565b602080601f831160018114614a745760008415614a5c5750858301515b600019600386901b1c1916600185901b17855561387b565b600085815260208120601f198616915b82811015614aa357888601518255948401946001909101908401614a84565b5085821015614ac15787850151600019600388901b60f8161c191681555b5050505050600190811b01905550565b600060208284031215614ae357600080fd5b81518015158114612bad57600080fd5b6020808252602c908201527f46756e6374696f6e206d7573742062652063616c6c6564207468726f7567682060408201526b19195b1959d85d1958d85b1b60a21b606082015260800190565b6020808252602c908201527f46756e6374696f6e206d7573742062652063616c6c6564207468726f7567682060408201526b6163746976652070726f787960a01b606082015260800190565b6020808252601590820152744e6f74206f776e6572206f722064656c656761746560581b604082015260600190565b634e487b7160e01b600052601160045260246000fd5b8181038181111561403257614032614bba565b8082018082111561403257614032614bba565b602080825260129082015271105c989a5d1c985d1bdc881b9bdd081cd95d60721b604082015260600190565b6020808252604d908201527f446973707574652068617320616c7265616479206265656e206372656174656460408201527f206f72206265636175736520746865207472616e73616374696f6e206861732060608201526c1899595b88195e1958dd5d1959609a1b608082015260a00190565b60008154614ca28161461c565b808552602060018381168015614cbf5760018114614cd957614d07565b60ff1985168884015283151560051b880183019550614d07565b866000528260002060005b85811015614cff5781548a8201860152908301908401614ce4565b890184019650505b505050505092915050565b602081526000612bad6020830184614c95565b60028110611772576117726140c1565b60608101614d4285614d25565b848252614d4e84614d25565b602082019390935260400152919050565b60208101614d6c83614d25565b91905290565b828152604060208201526000612baa6040830184614c95565b602081526000612bad602083018461410f565b808202811582820484141761403257614032614bba565b600082614dd257634e487b7160e01b600052601260045260246000fd5b500490565b8d8152602081018d9052604081018c90526001600160a01b038b81166060830152608082018b905260a082018a905260c0820189905261ffff88811660e08401528781166101008401528616610120830152841661014082015260006101a080610160840152614e4981840186614c95565b915050826101808301529e9d5050505050505050505050505050565b60ff83168152604060208201526000612baa6040830184614c95565b6020808252602b908201527f496e697469616c697a61626c653a20636f6e7472616374206973206e6f74206960408201526a6e697469616c697a696e6760a81b606082015260800190565b85815260a08101614edc86614d25565b60208201959095526001600160a01b03939093166040840152606083019190915260809091015291905056fe360894a13ba1a3210667c828492db98dca3e2076cc3735a920a3ca505d382bbc73e533bc8a993eccbc1023beebad0020f6b6c3639f83062f00fc194b4d1172ba416464726573733a206c6f772d6c6576656c2064656c65676174652063616c6c206661696c6564a26469706673582212203cca29c58d8826a07b757dd8220aa958885864c635927f0d2e5c2b559a7ae89f64736f6c63430008110033",
  "linkReferences": {},
  "deployedLinkReferences": {}
}