{
  "_format": "hh-sol-artifact-1",
  "contractName": "TalentLayerService",
  "sourceName": "contracts/TalentLayerService.sol",
  "abi": [
    {
      "inputs": [],
      "stateMutability": "nonpayable",
      "type": "constructor"
    },
    {
      "anonymous": false,
      "inputs": [
        {
          "indexed": false,
          "internalType": "address",
          "name": "previousAdmin",
          "type": "address"
        },
        {
          "indexed": false,
          "internalType": "address",
          "name": "newAdmin",
          "type": "address"
        }
      ],
      "name": "AdminChanged",
      "type": "event"
    },
    {
      "anonymous": false,
      "inputs": [
        {
          "indexed": false,
          "internalType": "address",
          "name": "_tokenAddress",
          "type": "address"
        },
        {
          "indexed": false,
          "internalType": "bool",
          "name": "_status",
          "type": "bool"
        },
        {
          "indexed": false,
          "internalType": "uint256",
          "name": "_minimumTransactionAmount",
          "type": "uint256"
        }
      ],
      "name": "AllowedTokenListUpdated",
      "type": "event"
    },
    {
      "anonymous": false,
      "inputs": [
        {
          "indexed": true,
          "internalType": "address",
          "name": "beacon",
          "type": "address"
        }
      ],
      "name": "BeaconUpgraded",
      "type": "event"
    },
    {
      "anonymous": false,
      "inputs": [
        {
          "indexed": false,
          "internalType": "uint8",
          "name": "version",
          "type": "uint8"
        }
      ],
      "name": "Initialized",
      "type": "event"
    },
    {
      "anonymous": false,
      "inputs": [
        {
          "indexed": false,
          "internalType": "uint256",
          "name": "_minCompletionPercentage",
          "type": "uint256"
        }
      ],
      "name": "MinCompletionPercentageUpdated",
      "type": "event"
    },
    {
      "anonymous": false,
      "inputs": [
        {
          "indexed": true,
          "internalType": "address",
          "name": "previousOwner",
          "type": "address"
        },
        {
          "indexed": true,
          "internalType": "address",
          "name": "newOwner",
          "type": "address"
        }
      ],
      "name": "OwnershipTransferred",
      "type": "event"
    },
    {
      "anonymous": false,
      "inputs": [
        {
          "indexed": false,
          "internalType": "uint256",
          "name": "serviceId",
          "type": "uint256"
        },
        {
          "indexed": false,
          "internalType": "uint256",
          "name": "ownerId",
          "type": "uint256"
        },
        {
          "indexed": false,
          "internalType": "string",
          "name": "dataUri",
          "type": "string"
        },
        {
          "indexed": false,
          "internalType": "enum TalentLayerService.ProposalStatus",
          "name": "status",
          "type": "uint8"
        },
        {
          "indexed": false,
          "internalType": "address",
          "name": "rateToken",
          "type": "address"
        },
        {
          "indexed": false,
          "internalType": "uint256",
          "name": "rateAmount",
          "type": "uint256"
        },
        {
          "indexed": false,
          "internalType": "uint16",
          "name": "platformId",
          "type": "uint16"
        },
        {
          "indexed": false,
          "internalType": "uint256",
          "name": "expirationDate",
          "type": "uint256"
        }
      ],
      "name": "ProposalCreated",
      "type": "event"
    },
    {
      "anonymous": false,
      "inputs": [
        {
          "indexed": false,
          "internalType": "uint256",
          "name": "serviceId",
          "type": "uint256"
        },
        {
          "indexed": false,
          "internalType": "uint256",
          "name": "ownerId",
          "type": "uint256"
        },
        {
          "indexed": false,
          "internalType": "string",
          "name": "dataUri",
          "type": "string"
        },
        {
          "indexed": false,
          "internalType": "address",
          "name": "rateToken",
          "type": "address"
        },
        {
          "indexed": false,
          "internalType": "uint256",
          "name": "rateAmount",
          "type": "uint256"
        },
        {
          "indexed": false,
          "internalType": "uint256",
          "name": "_expirationDate",
          "type": "uint256"
        }
      ],
      "name": "ProposalUpdated",
      "type": "event"
    },
    {
      "anonymous": false,
      "inputs": [
        {
          "indexed": true,
          "internalType": "bytes32",
          "name": "role",
          "type": "bytes32"
        },
        {
          "indexed": true,
          "internalType": "bytes32",
          "name": "previousAdminRole",
          "type": "bytes32"
        },
        {
          "indexed": true,
          "internalType": "bytes32",
          "name": "newAdminRole",
          "type": "bytes32"
        }
      ],
      "name": "RoleAdminChanged",
      "type": "event"
    },
    {
      "anonymous": false,
      "inputs": [
        {
          "indexed": true,
          "internalType": "bytes32",
          "name": "role",
          "type": "bytes32"
        },
        {
          "indexed": true,
          "internalType": "address",
          "name": "account",
          "type": "address"
        },
        {
          "indexed": true,
          "internalType": "address",
          "name": "sender",
          "type": "address"
        }
      ],
      "name": "RoleGranted",
      "type": "event"
    },
    {
      "anonymous": false,
      "inputs": [
        {
          "indexed": true,
          "internalType": "bytes32",
          "name": "role",
          "type": "bytes32"
        },
        {
          "indexed": true,
          "internalType": "address",
          "name": "account",
          "type": "address"
        },
        {
          "indexed": true,
          "internalType": "address",
          "name": "sender",
          "type": "address"
        }
      ],
      "name": "RoleRevoked",
      "type": "event"
    },
    {
      "anonymous": false,
      "inputs": [
        {
          "indexed": false,
          "internalType": "uint256",
          "name": "id",
          "type": "uint256"
        }
      ],
      "name": "ServiceCancelled",
      "type": "event"
    },
    {
      "anonymous": false,
      "inputs": [
        {
          "indexed": false,
          "internalType": "uint256",
          "name": "id",
          "type": "uint256"
        },
        {
          "indexed": false,
          "internalType": "uint256",
          "name": "ownerId",
          "type": "uint256"
        },
        {
          "indexed": false,
          "internalType": "uint256",
          "name": "platformId",
          "type": "uint256"
        },
        {
          "indexed": false,
          "internalType": "string",
          "name": "dataUri",
          "type": "string"
        }
      ],
      "name": "ServiceCreated",
      "type": "event"
    },
    {
      "anonymous": false,
      "inputs": [
        {
          "indexed": true,
          "internalType": "uint256",
          "name": "id",
          "type": "uint256"
        },
        {
          "indexed": false,
          "internalType": "string",
          "name": "dataUri",
          "type": "string"
        }
      ],
      "name": "ServiceDetailedUpdated",
      "type": "event"
    },
    {
      "anonymous": false,
      "inputs": [
        {
          "indexed": false,
          "internalType": "address",
          "name": "forwarder",
          "type": "address"
        }
      ],
      "name": "TrustedForwarderAdded",
      "type": "event"
    },
    {
      "anonymous": false,
      "inputs": [
        {
          "indexed": false,
          "internalType": "address",
          "name": "forwarder",
          "type": "address"
        }
      ],
      "name": "TrustedForwarderRemoved",
      "type": "event"
    },
    {
      "anonymous": false,
      "inputs": [
        {
          "indexed": true,
          "internalType": "address",
          "name": "implementation",
          "type": "address"
        }
      ],
      "name": "Upgraded",
      "type": "event"
    },
    {
      "inputs": [],
      "name": "DEFAULT_ADMIN_ROLE",
      "outputs": [
        {
          "internalType": "bytes32",
          "name": "",
          "type": "bytes32"
        }
      ],
      "stateMutability": "view",
      "type": "function"
    },
    {
      "inputs": [],
      "name": "ESCROW_ROLE",
      "outputs": [
        {
          "internalType": "bytes32",
          "name": "",
          "type": "bytes32"
        }
      ],
      "stateMutability": "view",
      "type": "function"
    },
    {
      "inputs": [
        {
          "internalType": "address",
          "name": "_forwarder",
          "type": "address"
        }
      ],
      "name": "addTrustedForwarder",
      "outputs": [],
      "stateMutability": "nonpayable",
      "type": "function"
    },
    {
      "inputs": [
        {
          "internalType": "uint256",
          "name": "_serviceId",
          "type": "uint256"
        },
        {
          "internalType": "uint256",
          "name": "_proposalId",
          "type": "uint256"
        },
        {
          "internalType": "uint256",
          "name": "_transactionId",
          "type": "uint256"
        }
      ],
      "name": "afterDeposit",
      "outputs": [],
      "stateMutability": "nonpayable",
      "type": "function"
    },
    {
      "inputs": [
        {
          "internalType": "uint256",
          "name": "_serviceId",
          "type": "uint256"
        },
        {
          "internalType": "uint256",
          "name": "_releasedAmount",
          "type": "uint256"
        }
      ],
      "name": "afterFullPayment",
      "outputs": [],
      "stateMutability": "nonpayable",
      "type": "function"
    },
    {
      "inputs": [
        {
          "internalType": "address",
          "name": "",
          "type": "address"
        }
      ],
      "name": "allowedTokenList",
      "outputs": [
        {
          "internalType": "bool",
          "name": "isWhitelisted",
          "type": "bool"
        },
        {
          "internalType": "uint256",
          "name": "minimumTransactionAmount",
          "type": "uint256"
        }
      ],
      "stateMutability": "view",
      "type": "function"
    },
    {
      "inputs": [
        {
          "internalType": "uint256",
          "name": "_profileId",
          "type": "uint256"
        },
        {
          "internalType": "uint256",
          "name": "_serviceId",
          "type": "uint256"
        }
      ],
      "name": "cancelService",
      "outputs": [],
      "stateMutability": "nonpayable",
      "type": "function"
    },
    {
      "inputs": [
        {
          "internalType": "uint256",
          "name": "_profileId",
          "type": "uint256"
        },
        {
          "internalType": "uint256",
          "name": "_serviceId",
          "type": "uint256"
        },
        {
          "internalType": "address",
          "name": "_rateToken",
          "type": "address"
        },
        {
          "internalType": "uint256",
          "name": "_rateAmount",
          "type": "uint256"
        },
        {
          "internalType": "uint16",
          "name": "_platformId",
          "type": "uint16"
        },
        {
          "internalType": "string",
          "name": "_dataUri",
          "type": "string"
        },
        {
          "internalType": "uint256",
          "name": "_expirationDate",
          "type": "uint256"
        },
        {
          "internalType": "bytes",
          "name": "_signature",
          "type": "bytes"
        }
      ],
      "name": "createProposal",
      "outputs": [],
      "stateMutability": "payable",
      "type": "function"
    },
    {
      "inputs": [
        {
          "internalType": "uint256",
          "name": "_profileId",
          "type": "uint256"
        },
        {
          "internalType": "uint256",
          "name": "_platformId",
          "type": "uint256"
        },
        {
          "internalType": "string",
          "name": "_dataUri",
          "type": "string"
        },
        {
          "internalType": "bytes",
          "name": "_signature",
          "type": "bytes"
        }
      ],
      "name": "createService",
      "outputs": [
        {
          "internalType": "uint256",
          "name": "",
          "type": "uint256"
        }
      ],
      "stateMutability": "payable",
      "type": "function"
    },
    {
      "inputs": [
        {
          "internalType": "uint256",
          "name": "_serviceId",
          "type": "uint256"
        },
        {
          "internalType": "uint256",
          "name": "_proposalId",
          "type": "uint256"
        }
      ],
      "name": "getProposal",
      "outputs": [
        {
          "components": [
            {
              "internalType": "enum TalentLayerService.ProposalStatus",
              "name": "status",
              "type": "uint8"
            },
            {
              "internalType": "uint256",
              "name": "ownerId",
              "type": "uint256"
            },
            {
              "internalType": "address",
              "name": "rateToken",
              "type": "address"
            },
            {
              "internalType": "uint256",
              "name": "rateAmount",
              "type": "uint256"
            },
            {
              "internalType": "uint16",
              "name": "platformId",
              "type": "uint16"
            },
            {
              "internalType": "string",
              "name": "dataUri",
              "type": "string"
            },
            {
              "internalType": "uint256",
              "name": "expirationDate",
              "type": "uint256"
            }
          ],
          "internalType": "struct TalentLayerService.Proposal",
          "name": "",
          "type": "tuple"
        }
      ],
      "stateMutability": "view",
      "type": "function"
    },
    {
      "inputs": [
        {
          "internalType": "bytes32",
          "name": "role",
          "type": "bytes32"
        }
      ],
      "name": "getRoleAdmin",
      "outputs": [
        {
          "internalType": "bytes32",
          "name": "",
          "type": "bytes32"
        }
      ],
      "stateMutability": "view",
      "type": "function"
    },
    {
      "inputs": [
        {
          "internalType": "uint256",
          "name": "_serviceId",
          "type": "uint256"
        }
      ],
      "name": "getService",
      "outputs": [
        {
          "components": [
            {
              "internalType": "enum TalentLayerService.Status",
              "name": "status",
              "type": "uint8"
            },
            {
              "internalType": "uint256",
              "name": "ownerId",
              "type": "uint256"
            },
            {
              "internalType": "uint256",
              "name": "acceptedProposalId",
              "type": "uint256"
            },
            {
              "internalType": "string",
              "name": "dataUri",
              "type": "string"
            },
            {
              "internalType": "uint256",
              "name": "transactionId",
              "type": "uint256"
            },
            {
              "internalType": "uint256",
              "name": "platformId",
              "type": "uint256"
            }
          ],
          "internalType": "struct TalentLayerService.Service",
          "name": "",
          "type": "tuple"
        }
      ],
      "stateMutability": "view",
      "type": "function"
    },
    {
      "inputs": [
        {
          "internalType": "bytes32",
          "name": "role",
          "type": "bytes32"
        },
        {
          "internalType": "address",
          "name": "account",
          "type": "address"
        }
      ],
      "name": "grantRole",
      "outputs": [],
      "stateMutability": "nonpayable",
      "type": "function"
    },
    {
      "inputs": [
        {
          "internalType": "bytes32",
          "name": "role",
          "type": "bytes32"
        },
        {
          "internalType": "address",
          "name": "account",
          "type": "address"
        }
      ],
      "name": "hasRole",
      "outputs": [
        {
          "internalType": "bool",
          "name": "",
          "type": "bool"
        }
      ],
      "stateMutability": "view",
      "type": "function"
    },
    {
      "inputs": [
        {
          "internalType": "address",
          "name": "_talentLayerIdAddress",
          "type": "address"
        },
        {
          "internalType": "address",
          "name": "_talentLayerPlatformIdAddress",
          "type": "address"
        }
      ],
      "name": "initialize",
      "outputs": [],
      "stateMutability": "nonpayable",
      "type": "function"
    },
    {
      "inputs": [
        {
          "internalType": "address",
          "name": "_tokenAddress",
          "type": "address"
        }
      ],
      "name": "isTokenAllowed",
      "outputs": [
        {
          "internalType": "bool",
          "name": "",
          "type": "bool"
        }
      ],
      "stateMutability": "view",
      "type": "function"
    },
    {
      "inputs": [
        {
          "internalType": "address",
          "name": "forwarder",
          "type": "address"
        }
      ],
      "name": "isTrustedForwarder",
      "outputs": [
        {
          "internalType": "bool",
          "name": "",
          "type": "bool"
        }
      ],
      "stateMutability": "view",
      "type": "function"
    },
    {
      "inputs": [],
      "name": "minCompletionPercentage",
      "outputs": [
        {
          "internalType": "uint256",
          "name": "",
          "type": "uint256"
        }
      ],
      "stateMutability": "view",
      "type": "function"
    },
    {
      "inputs": [],
      "name": "nextServiceId",
      "outputs": [
        {
          "internalType": "uint256",
          "name": "",
          "type": "uint256"
        }
      ],
      "stateMutability": "view",
      "type": "function"
    },
    {
      "inputs": [],
      "name": "owner",
      "outputs": [
        {
          "internalType": "address",
          "name": "",
          "type": "address"
        }
      ],
      "stateMutability": "view",
      "type": "function"
    },
    {
      "inputs": [
        {
          "internalType": "uint256",
          "name": "",
          "type": "uint256"
        }
      ],
      "name": "proposalNonce",
      "outputs": [
        {
          "internalType": "uint256",
          "name": "",
          "type": "uint256"
        }
      ],
      "stateMutability": "view",
      "type": "function"
    },
    {
      "inputs": [
        {
          "internalType": "uint256",
          "name": "",
          "type": "uint256"
        },
        {
          "internalType": "uint256",
          "name": "",
          "type": "uint256"
        }
      ],
      "name": "proposals",
      "outputs": [
        {
          "internalType": "enum TalentLayerService.ProposalStatus",
          "name": "status",
          "type": "uint8"
        },
        {
          "internalType": "uint256",
          "name": "ownerId",
          "type": "uint256"
        },
        {
          "internalType": "address",
          "name": "rateToken",
          "type": "address"
        },
        {
          "internalType": "uint256",
          "name": "rateAmount",
          "type": "uint256"
        },
        {
          "internalType": "uint16",
          "name": "platformId",
          "type": "uint16"
        },
        {
          "internalType": "string",
          "name": "dataUri",
          "type": "string"
        },
        {
          "internalType": "uint256",
          "name": "expirationDate",
          "type": "uint256"
        }
      ],
      "stateMutability": "view",
      "type": "function"
    },
    {
      "inputs": [],
      "name": "proxiableUUID",
      "outputs": [
        {
          "internalType": "bytes32",
          "name": "",
          "type": "bytes32"
        }
      ],
      "stateMutability": "view",
      "type": "function"
    },
    {
      "inputs": [
        {
          "internalType": "address",
          "name": "_forwarder",
          "type": "address"
        }
      ],
      "name": "removeTrustedForwarder",
      "outputs": [],
      "stateMutability": "nonpayable",
      "type": "function"
    },
    {
      "inputs": [],
      "name": "renounceOwnership",
      "outputs": [],
      "stateMutability": "nonpayable",
      "type": "function"
    },
    {
      "inputs": [
        {
          "internalType": "bytes32",
          "name": "role",
          "type": "bytes32"
        },
        {
          "internalType": "address",
          "name": "account",
          "type": "address"
        }
      ],
      "name": "renounceRole",
      "outputs": [],
      "stateMutability": "nonpayable",
      "type": "function"
    },
    {
      "inputs": [
        {
          "internalType": "bytes32",
          "name": "role",
          "type": "bytes32"
        },
        {
          "internalType": "address",
          "name": "account",
          "type": "address"
        }
      ],
      "name": "revokeRole",
      "outputs": [],
      "stateMutability": "nonpayable",
      "type": "function"
    },
    {
      "inputs": [
        {
          "internalType": "uint256",
          "name": "",
          "type": "uint256"
        }
      ],
      "name": "serviceNonce",
      "outputs": [
        {
          "internalType": "uint256",
          "name": "",
          "type": "uint256"
        }
      ],
      "stateMutability": "view",
      "type": "function"
    },
    {
      "inputs": [
        {
          "internalType": "uint256",
          "name": "",
          "type": "uint256"
        }
      ],
      "name": "services",
      "outputs": [
        {
          "internalType": "enum TalentLayerService.Status",
          "name": "status",
          "type": "uint8"
        },
        {
          "internalType": "uint256",
          "name": "ownerId",
          "type": "uint256"
        },
        {
          "internalType": "uint256",
          "name": "acceptedProposalId",
          "type": "uint256"
        },
        {
          "internalType": "string",
          "name": "dataUri",
          "type": "string"
        },
        {
          "internalType": "uint256",
          "name": "transactionId",
          "type": "uint256"
        },
        {
          "internalType": "uint256",
          "name": "platformId",
          "type": "uint256"
        }
      ],
      "stateMutability": "view",
      "type": "function"
    },
    {
      "inputs": [
        {
          "internalType": "bytes4",
          "name": "interfaceId",
          "type": "bytes4"
        }
      ],
      "name": "supportsInterface",
      "outputs": [
        {
          "internalType": "bool",
          "name": "",
          "type": "bool"
        }
      ],
      "stateMutability": "view",
      "type": "function"
    },
    {
      "inputs": [],
      "name": "talentLayerPlatformIdContract",
      "outputs": [
        {
          "internalType": "contract ITalentLayerPlatformID",
          "name": "",
          "type": "address"
        }
      ],
      "stateMutability": "view",
      "type": "function"
    },
    {
      "inputs": [
        {
          "internalType": "address",
          "name": "newOwner",
          "type": "address"
        }
      ],
      "name": "transferOwnership",
      "outputs": [],
      "stateMutability": "nonpayable",
      "type": "function"
    },
    {
      "inputs": [
        {
          "internalType": "address",
          "name": "_tokenAddress",
          "type": "address"
        },
        {
          "internalType": "bool",
          "name": "_status",
          "type": "bool"
        },
        {
          "internalType": "uint256",
          "name": "_minimumTransactionAmount",
          "type": "uint256"
        }
      ],
      "name": "updateAllowedTokenList",
      "outputs": [],
      "stateMutability": "nonpayable",
      "type": "function"
    },
    {
      "inputs": [
        {
          "internalType": "uint256",
          "name": "_minCompletionPercentage",
          "type": "uint256"
        }
      ],
      "name": "updateMinCompletionPercentage",
      "outputs": [],
      "stateMutability": "nonpayable",
      "type": "function"
    },
    {
      "inputs": [
        {
          "internalType": "uint256",
          "name": "_profileId",
          "type": "uint256"
        },
        {
          "internalType": "uint256",
          "name": "_serviceId",
          "type": "uint256"
        },
        {
          "internalType": "address",
          "name": "_rateToken",
          "type": "address"
        },
        {
          "internalType": "uint256",
          "name": "_rateAmount",
          "type": "uint256"
        },
        {
          "internalType": "string",
          "name": "_dataUri",
          "type": "string"
        },
        {
          "internalType": "uint256",
          "name": "_expirationDate",
          "type": "uint256"
        }
      ],
      "name": "updateProposal",
      "outputs": [],
      "stateMutability": "nonpayable",
      "type": "function"
    },
    {
      "inputs": [
        {
          "internalType": "uint256",
          "name": "_profileId",
          "type": "uint256"
        },
        {
          "internalType": "uint256",
          "name": "_serviceId",
          "type": "uint256"
        },
        {
          "internalType": "string",
          "name": "_dataUri",
          "type": "string"
        }
      ],
      "name": "updateServiceData",
      "outputs": [],
      "stateMutability": "nonpayable",
      "type": "function"
    },
    {
      "inputs": [
        {
          "internalType": "address",
          "name": "newImplementation",
          "type": "address"
        }
      ],
      "name": "upgradeTo",
      "outputs": [],
      "stateMutability": "nonpayable",
      "type": "function"
    },
    {
      "inputs": [
        {
          "internalType": "address",
          "name": "newImplementation",
          "type": "address"
        },
        {
          "internalType": "bytes",
          "name": "data",
          "type": "bytes"
        }
      ],
      "name": "upgradeToAndCall",
      "outputs": [],
      "stateMutability": "payable",
      "type": "function"
    }
  ],
  "bytecode": "0x60a0604052306080523480156200001557600080fd5b506200002062000026565b620000e8565b600054610100900460ff1615620000935760405162461bcd60e51b815260206004820152602760248201527f496e697469616c697a61626c653a20636f6e747261637420697320696e697469604482015266616c697a696e6760c81b606482015260840160405180910390fd5b60005460ff9081161015620000e6576000805460ff191660ff9081179091556040519081527f7f26b83ff96e1f2b6a682f133852f6798a09c465da95921460cefb38474024989060200160405180910390a15b565b608051613f6d6200012060003960008181610fc101528181611001015281816112b8015281816112f801526113870152613f6d6000f3fe6080604052600436106102255760003560e01c8063715018a611610123578063c22c4f43116100ab578063d547741f1161006f578063d547741f146106f2578063ef0e239b14610712578063f2fde38b1461073f578063f6c53d9b1461075f578063f9eaee0d1461077657600080fd5b8063c22c4f431461062c578063c2cfee271461065e578063c75858d514610691578063ccaa7d2a146106b1578063d338ec9a146106df57600080fd5b806391d14854116100f257806391d148541461058a578063a217fddf146105aa578063a7d5eaea146105bf578063aba21009146105df578063b5735c1e1461060c57600080fd5b8063715018a6146104e557806371da85f9146104fa5780637c5a72cd1461054c5780638da5cb5b1461056c57600080fd5b80632f2ff15d116101b1578063485cc95511610175578063485cc955146104305780634f1ef2861461045057806352d1902d14610463578063572b6c05146104785780636ce76f30146104b157600080fd5b80632f2ff15d1461039057806336568abe146103b05780633659cfe6146103d05780633751d89c146103f05780633ca2ad6f1461041057600080fd5b8063156b39aa116101f8578063156b39aa146102da5780631db087ff146102ff578063248a9ca31461032d5780632579c1c61461035d57806326d006681461037057600080fd5b806301ffc9a71461022a578063089b7c731461025f5780630e066025146102815780631499f9e6146102a1575b600080fd5b34801561023657600080fd5b5061024a6102453660046131d3565b6107b0565b60405190151581526020015b60405180910390f35b34801561026b57600080fd5b5061027f61027a3660046131fd565b6107e7565b005b34801561028d57600080fd5b5061027f61029c366004613261565b6109cc565b3480156102ad57600080fd5b50610130546102c2906001600160a01b031681565b6040516001600160a01b039091168152602001610256565b3480156102e657600080fd5b506102f16101365481565b604051908152602001610256565b34801561030b57600080fd5b506102f161031a3660046132b4565b6101336020526000908152604090205481565b34801561033957600080fd5b506102f16103483660046132b4565b600090815260fc602052604090206001015490565b61027f61036b3660046132e2565b610bba565b34801561037c57600080fd5b5061027f61038b3660046133a8565b610e9c565b34801561039c57600080fd5b5061027f6103ab3660046133c5565b610eff565b3480156103bc57600080fd5b5061027f6103cb3660046133c5565b610f29565b3480156103dc57600080fd5b5061027f6103eb3660046133a8565b610fb7565b3480156103fc57600080fd5b5061027f61040b3660046133a8565b611096565b34801561041c57600080fd5b5061027f61042b3660046132b4565b6110ef565b34801561043c57600080fd5b5061027f61044b3660046133f5565b611137565b61027f61045e366004613439565b6112ae565b34801561046f57600080fd5b506102f161137a565b34801561048457600080fd5b5061024a6104933660046133a8565b6001600160a01b031660009081526065602052604090205460ff1690565b3480156104bd57600080fd5b506102f17f2fdac322ee704ce09f0773f7f3f92eb98d5e7c836ee9c056cccd5f61041e5e3f81565b3480156104f157600080fd5b5061027f61142d565b34801561050657600080fd5b506105356105153660046133a8565b610135602052600090815260409020805460019091015460ff9091169082565b604080519215158352602083019190915201610256565b34801561055857600080fd5b5061027f61056736600461350b565b611441565b34801561057857600080fd5b506033546001600160a01b03166102c2565b34801561059657600080fd5b5061024a6105a53660046133c5565b611516565b3480156105b657600080fd5b506102f1600081565b3480156105cb57600080fd5b5061027f6105da36600461354c565b611541565b3480156105eb57600080fd5b506105ff6105fa3660046131fd565b6115c3565b60405161025691906135f2565b34801561061857600080fd5b5061027f6106273660046131fd565b611724565b34801561063857600080fd5b5061064c6106473660046132b4565b6117c9565b6040516102569695949392919061367a565b34801561066a57600080fd5b5061067e6106793660046131fd565b61188d565b60405161025697969594939291906136bb565b34801561069d57600080fd5b5061027f6106ac366004613713565b611973565b3480156106bd57600080fd5b506102f16106cc3660046132b4565b6101346020526000908152604090205481565b6102f16106ed36600461378f565b611cc4565b3480156106fe57600080fd5b5061027f61070d3660046133c5565b611ec4565b34801561071e57600080fd5b5061073261072d3660046132b4565b611ee9565b6040516102569190613812565b34801561074b57600080fd5b5061027f61075a3660046133a8565b61207d565b34801561076b57600080fd5b506102f161012e5481565b34801561078257600080fd5b5061024a6107913660046133a8565b6001600160a01b03166000908152610135602052604090205460ff1690565b60006001600160e01b03198216637965db0b60e01b14806107e157506301ffc9a760e01b6001600160e01b03198316145b92915050565b61012f5482906001600160a01b0316632fa117e5826108046120f3565b6040516001600160e01b031960e085901b16815260048101929092526001600160a01b03166024820152604401602060405180830381865afa15801561084e573d6000803e3d6000fd5b505050506040513d601f19601f820116820180604052508101906108729190613873565b6108975760405162461bcd60e51b815260040161088e90613890565b60405180910390fd5b600082815261013160205260409020600181015484146109075760405162461bcd60e51b815260206004820152602560248201527f4f6e6c7920746865206f776e65722063616e2063616e63656c20746865207365604482015264727669636560d81b606482015260840161088e565b6000815460ff16600481111561091f5761091f613578565b146109885760405162461bcd60e51b815260206004820152603360248201527f4f6e6c79207365727669636573207769746820746865206f70656e20737461746044820152721d5cc818d85b8818994818d85b98d95b1b1959606a1b606482015260840161088e565b805460ff191660031781556040518381527f853aa4be1ac86f37acfc91d42b57f1fe895205aa6f8f9b7caa77ca257049ab1a9060200160405180910390a150505050565b61012f5484906001600160a01b0316632fa117e5826109e96120f3565b6040516001600160e01b031960e085901b16815260048101929092526001600160a01b03166024820152604401602060405180830381865afa158015610a33573d6000803e3d6000fd5b505050506040513d601f19601f82011682018060405250810190610a579190613873565b610a735760405162461bcd60e51b815260040161088e90613890565b60008481526101316020526040902060018101548614610ae35760405162461bcd60e51b815260206004820152602560248201527f4f6e6c7920746865206f776e65722063616e2075706461746520746865207365604482015264727669636560d81b606482015260840161088e565b6000815460ff166004811115610afb57610afb613578565b14610b485760405162461bcd60e51b815260206004820152601f60248201527f53657276696365207374617475732073686f756c64206265206f70656e656400604482015260640161088e565b602e8314610b685760405162461bcd60e51b815260040161088e906138bf565b60038101610b77848683613964565b50847f1cae99404f615a4039d85b1009cb70622aae6d64f671e8b1b191d9269847d43e8585604051610baa929190613a4e565b60405180910390a2505050505050565b61012f548a906001600160a01b0316632fa117e582610bd76120f3565b6040516001600160e01b031960e085901b16815260048101929092526001600160a01b03166024820152604401602060405180830381865afa158015610c21573d6000803e3d6000fd5b505050506040513d601f19601f82011682018060405250810190610c459190613873565b610c615760405162461bcd60e51b815260040161088e90613890565b610c728b8b8b8b8b8b8b8a8a612102565b6040805160e0810190915280600081526020018c81526020018a6001600160a01b031681526020018981526020018861ffff16815260200187878080601f016020809104026020016040519081016040528093929190818152602001838380828437600092018290525093855250505060209182018790528c8152610132825260408082208f83529092522081518154829060ff191660018381811115610d1b57610d1b613578565b02179055506020820151600182015560408201516002820180546001600160a01b0319166001600160a01b0390921691909117905560608201516003820155608082015160048201805461ffff191661ffff90921691909117905560a08201516005820190610d8a9082613a6a565b5060c0919091015160069091015560008b81526101336020526040902054158015610dc2575060008b81526101346020526040902054155b15610e275761012f546040516383ce205b60e01b8152600481018d90526001600160a01b03909116906383ce205b90602401600060405180830381600087803b158015610e0e57600080fd5b505af1158015610e22573d6000803e3d6000fd5b505050505b60008b815261013460205260408120805491610e4283613b40565b91905055507f1681c3e69e3dbb90d91fbd7df6e21e11a35daef0f91f6a6a0e2968999b5d100e8a8c888860008e8e8e8c604051610e8799989796959493929190613b59565b60405180910390a15050505050505050505050565b610ea461244b565b6001600160a01b038116600081815260656020908152604091829020805460ff1916600117905590519182527f3ef8564460ada92419608d823c014975d98f8104d7d1e68c222967ac6814cd9791015b60405180910390a150565b600082815260fc6020526040902060010154610f1a816124c4565b610f2483836124d5565b505050565b610f316120f3565b6001600160a01b0316816001600160a01b031614610fa95760405162461bcd60e51b815260206004820152602f60248201527f416363657373436f6e74726f6c3a2063616e206f6e6c792072656e6f756e636560448201526e103937b632b9903337b91039b2b63360891b606482015260840161088e565b610fb3828261255c565b5050565b6001600160a01b037f0000000000000000000000000000000000000000000000000000000000000000163003610fff5760405162461bcd60e51b815260040161088e90613bbe565b7f00000000000000000000000000000000000000000000000000000000000000006001600160a01b0316611048600080516020613ef1833981519152546001600160a01b031690565b6001600160a01b03161461106e5760405162461bcd60e51b815260040161088e90613c0a565b611077816125e1565b60408051600080825260208201909252611093918391906125e9565b50565b61109e61244b565b6001600160a01b038116600081815260656020908152604091829020805460ff1916905590519182527fd2d636efcad0cea42e170256f4c5d8b1cd81e47b855557edaf44014e6cc4cee69101610ef4565b60006110fa816124c4565b6101368290556040518281527f577d7afcf67637a2f602cba220bbb292c1d715380dd011bfec748c3f641b2fd29060200160405180910390a15050565b600054610100900460ff16158080156111575750600054600160ff909116105b806111715750303b158015611171575060005460ff166001145b6111d45760405162461bcd60e51b815260206004820152602e60248201527f496e697469616c697a61626c653a20636f6e747261637420697320616c72656160448201526d191e481a5b9a5d1a585b1a5e995960921b606482015260840161088e565b6000805460ff1916600117905580156111f7576000805461ff0019166101001790555b6111ff612754565b611207612783565b61120f612783565b611221600061121c6120f3565b6127aa565b61012f80546001600160a01b038086166001600160a01b031992831617909255610130805492851692909116919091179055600161012e55611263601e6110ef565b8015610f24576000805461ff0019169055604051600181527f7f26b83ff96e1f2b6a682f133852f6798a09c465da95921460cefb3847402498906020015b60405180910390a1505050565b6001600160a01b037f00000000000000000000000000000000000000000000000000000000000000001630036112f65760405162461bcd60e51b815260040161088e90613bbe565b7f00000000000000000000000000000000000000000000000000000000000000006001600160a01b031661133f600080516020613ef1833981519152546001600160a01b031690565b6001600160a01b0316146113655760405162461bcd60e51b815260040161088e90613c0a565b61136e826125e1565b610fb3828260016125e9565b6000306001600160a01b037f0000000000000000000000000000000000000000000000000000000000000000161461141a5760405162461bcd60e51b815260206004820152603860248201527f555550535570677261646561626c653a206d757374206e6f742062652063616c60448201527f6c6564207468726f7567682064656c656761746563616c6c0000000000000000606482015260840161088e565b50600080516020613ef183398151915290565b61143561244b565b61143f60006127b4565b565b61144961244b565b6001600160a01b03831615801561145e575081155b156114ab5760405162461bcd60e51b815260206004820152601d60248201527f4f776e65722063616e27742072656d6f7665204f782061646472657373000000604482015260640161088e565b6001600160a01b03831660008181526101356020908152604091829020805460ff19168615159081178255600190910185905582519384529083015281018290527f42b585a1da1cff4b571e7a78aea1b4601b1d128de41a0feebd8a77aaf48b9d88906060016112a1565b600091825260fc602090815260408084206001600160a01b0393909316845291905290205460ff1690565b7f2fdac322ee704ce09f0773f7f3f92eb98d5e7c836ee9c056cccd5f61041e5e3f61156b816124c4565b60008481526101316020908152604080832061013283528184208785529092529091208154600160ff1991821681178455808301546002850155600484018690558254909183911682805b0217905550505050505050565b6040805160e080820183526000808352602080840182905283850182905260608085018390526080850183905260a085015260c08401829052868252610132815284822086835290528390208351918201909352825491929091829060ff16600181111561163357611633613578565b600181111561164457611644613578565b81526001820154602082015260028201546001600160a01b0316604082015260038201546060820152600482015461ffff16608082015260058201805460a090920191611690906138e4565b80601f01602080910402602001604051908101604052809291908181526020018280546116bc906138e4565b80156117095780601f106116de57610100808354040283529160200191611709565b820191906000526020600020905b8154815290600101906020018083116116ec57829003601f168201915b50505050508152602001600682015481525050905092915050565b7f2fdac322ee704ce09f0773f7f3f92eb98d5e7c836ee9c056cccd5f61041e5e3f61174e816124c4565b6000838152610131602090815260408083206101328352818420600282015485529092528220600381015491929091611788866064613c56565b6117929190613c6d565b90506101365481106117ae57825460ff191660021783556117c1565b8254600490849060ff19166001836115b6565b505050505050565b61013160205260009081526040902080546001820154600283015460038401805460ff9094169492939192916117fe906138e4565b80601f016020809104026020016040519081016040528092919081815260200182805461182a906138e4565b80156118775780601f1061184c57610100808354040283529160200191611877565b820191906000526020600020905b81548152906001019060200180831161185a57829003601f168201915b5050505050908060040154908060050154905086565b61013260209081526000928352604080842090915290825290208054600182015460028301546003840154600485015460058601805460ff9096169694956001600160a01b0390941694929361ffff90921692916118ea906138e4565b80601f0160208091040260200160405190810160405280929190818152602001828054611916906138e4565b80156119635780601f1061193857610100808354040283529160200191611963565b820191906000526020600020905b81548152906001019060200180831161194657829003601f168201915b5050505050908060060154905087565b61012f5487906001600160a01b0316632fa117e5826119906120f3565b6040516001600160e01b031960e085901b16815260048101929092526001600160a01b03166024820152604401602060405180830381865afa1580156119da573d6000803e3d6000fd5b505050506040513d601f19601f820116820180604052508101906119fe9190613873565b611a1a5760405162461bcd60e51b815260040161088e90613890565b6001600160a01b0386166000908152610135602052604090205460ff16611a7f5760405162461bcd60e51b8152602060048201526019602482015278151a1a5cc81d1bdad95b881a5cc81b9bdd08185b1b1bddd959603a1b604482015260640161088e565b60008781526101316020908152604080832061013283528184208c855290925282209091825460ff166004811115611ab957611ab9613578565b14611afe5760405162461bcd60e51b815260206004820152601560248201527414d95c9d9a58d9481a5cc81b9bdd081bdc195b9959605a1b604482015260640161088e565b89816001015414611b515760405162461bcd60e51b815260206004820152601f60248201527f546869732070726f706f73616c20646f65736e27742065786973742079657400604482015260640161088e565b602e8514611b715760405162461bcd60e51b815260040161088e906138bf565b6001815460ff166001811115611b8957611b89613578565b03611be15760405162461bcd60e51b815260206004820152602260248201527f546869732070726f706f73616c20697320616c72656164792076616c69646174604482015261195960f21b606482015260840161088e565b6001600160a01b03881660009081526101356020526040902060010154871015611c415760405162461bcd60e51b8152602060048201526011602482015270416d6f756e7420697320746f6f206c6f7760781b604482015260640161088e565b6002810180546001600160a01b0319166001600160a01b038a161790556003810187905560058101611c74868883613964565b507f0f68ab04ab4935c8598d30f2c12ec34265575059bb4cae481b4d632cc43db81e898b88888c8c8a604051611cb09796959493929190613c8f565b60405180910390a150505050505050505050565b61012f5460009087906001600160a01b0316632fa117e582611ce46120f3565b6040516001600160e01b031960e085901b16815260048101929092526001600160a01b03166024820152604401602060405180830381865afa158015611d2e573d6000803e3d6000fd5b505050506040513d601f19601f82011682018060405250810190611d529190613873565b611d6e5760405162461bcd60e51b815260040161088e90613890565b611d7c888888888888612806565b61012e80549081906000611d8f83613b40565b9091555050600081815261013160205260409020805460ff19168155600181018a905560038101611dc1888a83613964565b506005810189905560008a81526101336020526040902054158015611df3575060008a81526101346020526040902054155b15611e585761012f546040516383ce205b60e01b8152600481018c90526001600160a01b03909116906383ce205b90602401600060405180830381600087803b158015611e3f57600080fd5b505af1158015611e53573d6000803e3d6000fd5b505050505b60008a815261013360205260408120805491611e7383613b40565b91905055507f8f3fc1086abc1020f602edd700a9ae5801b250c9d110af9e54022d7cc5df7bee828b8b8b8b604051611eaf959493929190613cd7565b60405180910390a15098975050505050505050565b600082815260fc6020526040902060010154611edf816124c4565b610f24838361255c565b611f236040805160c08101909152806000815260200160008152602001600081526020016060815260200160008152602001600081525090565b61012e548210611f755760405162461bcd60e51b815260206004820152601a60248201527f54686973207365727669636520646f65736e2774206578697374000000000000604482015260640161088e565b6000828152610131602052604090819020815160c081019092528054829060ff166004811115611fa757611fa7613578565b6004811115611fb857611fb8613578565b81526020016001820154815260200160028201548152602001600382018054611fe0906138e4565b80601f016020809104026020016040519081016040528092919081815260200182805461200c906138e4565b80156120595780601f1061202e57610100808354040283529160200191612059565b820191906000526020600020905b81548152906001019060200180831161203c57829003601f168201915b50505050508152602001600482015481526020016005820154815250509050919050565b61208561244b565b6001600160a01b0381166120ea5760405162461bcd60e51b815260206004820152602660248201527f4f776e61626c653a206e6577206f776e657220697320746865207a65726f206160448201526564647265737360d01b606482015260840161088e565b611093816127b4565b60006120fd61292f565b905090565b6001600160a01b0387166000908152610135602052604090205460ff166121675760405162461bcd60e51b8152602060048201526019602482015278151a1a5cc81d1bdad95b881a5cc81b9bdd08185b1b1bddd959603a1b604482015260640161088e565b61013054604051634a7ab1d560e01b815261ffff871660048201526000916001600160a01b031690634a7ab1d590602401602060405180830381865afa1580156121b5573d6000803e3d6000fd5b505050506040513d601f19601f820116820180604052508101906121d99190613d08565b905080341461221f5760405162461bcd60e51b81526020600482015260126024820152714e6f6e2d6d61746368696e672066756e647360701b604482015260640161088e565b6001600160a01b0388166000908152610135602052604090206001015487101561227f5760405162461bcd60e51b8152602060048201526011602482015270416d6f756e7420697320746f6f206c6f7760781b604482015260640161088e565b60008981526101316020526040812090815460ff1660048111156122a5576122a5613578565b146122ea5760405162461bcd60e51b815260206004820152601560248201527414d95c9d9a58d9481a5cc81b9bdd081bdc195b9959605a1b604482015260640161088e565b60008a8152610132602090815260408083208e84529091529020600101548b900361236f5760405162461bcd60e51b815260206004820152602f60248201527f596f7520616c7265616479206372656174656420612070726f706f73616c206660448201526e6f722074686973207365727669636560881b606482015260840161088e565b8a8160010154036123dc5760405162461bcd60e51b815260206004820152603160248201527f596f7520636f756c646e2774206372656174652070726f706f73616c20666f7260448201527020796f7572206f776e207365727669636560781b606482015260840161088e565b602e85146123fc5760405162461bcd60e51b815260040161088e906138bf565b60008b8b88886040516020016124159493929190613d21565b60405160208183030381529060405280519060200120905061243d8585838b61ffff16612968565b505050505050505050505050565b6124536120f3565b6001600160a01b031661246e6033546001600160a01b031690565b6001600160a01b03161461143f5760405162461bcd60e51b815260206004820181905260248201527f4f776e61626c653a2063616c6c6572206973206e6f7420746865206f776e6572604482015260640161088e565b611093816124d06120f3565b612ad9565b6124df8282611516565b610fb357600082815260fc602090815260408083206001600160a01b03851684529091529020805460ff191660011790556125186120f3565b6001600160a01b0316816001600160a01b0316837f2f8788117e7eff1d82e926ec794901d17c78024a50270940304540a733656f0d60405160405180910390a45050565b6125668282611516565b15610fb357600082815260fc602090815260408083206001600160a01b03851684529091529020805460ff1916905561259d6120f3565b6001600160a01b0316816001600160a01b0316837ff6391f5c32d9c69d2a47ea670b442974b53935d1edc7fd64eb21e047a839171b60405160405180910390a45050565b61109361244b565b7f4910fdfa16fed3260ed0e7147f7cc6da11a60208b5b9406d12a635614ffd91435460ff161561261c57610f2483612b32565b826001600160a01b03166352d1902d6040518163ffffffff1660e01b8152600401602060405180830381865afa925050508015612676575060408051601f3d908101601f1916820190925261267391810190613d08565b60015b6126d95760405162461bcd60e51b815260206004820152602e60248201527f45524331393637557067726164653a206e657720696d706c656d656e7461746960448201526d6f6e206973206e6f74205555505360901b606482015260840161088e565b600080516020613ef183398151915281146127485760405162461bcd60e51b815260206004820152602960248201527f45524331393637557067726164653a20756e737570706f727465642070726f786044820152681a58589b195555525160ba1b606482015260840161088e565b50610f24838383612bce565b600054610100900460ff1661277b5760405162461bcd60e51b815260040161088e90613d63565b61143f612bf9565b600054610100900460ff1661143f5760405162461bcd60e51b815260040161088e90613d63565b610fb382826124d5565b603380546001600160a01b038381166001600160a01b0319831681179093556040519116919082907f8be0079c531659141344cd1fd0a4f28419497f9722a3daafe3b4186f6b6457e090600090a35050565b61013054604051638a98636360e01b8152600481018790526000916001600160a01b031690638a98636390602401602060405180830381865afa158015612851573d6000803e3d6000fd5b505050506040513d601f19601f820116820180604052508101906128759190613d08565b90508034146128bb5760405162461bcd60e51b81526020600482015260126024820152714e6f6e2d6d61746368696e672066756e647360701b604482015260640161088e565b602e84146128db5760405162461bcd60e51b815260040161088e906138bf565b600087815261013360209081526040808320549051612901928b92918a918a9101613dae565b6040516020818303038152906040528051906020012090506129258484838a612968565b5050505050505050565b60006014361080159061295157503360009081526065602052604090205460ff165b15612963575060131936013560601c90565b503390565b60006129c1836040517f19457468657265756d205369676e6564204d6573736167653a0a3332000000006020820152603c8101829052600090605c01604051602081830303815290604052805190602001209050919050565b90506000612a058287878080601f016020809104026020016040519081016040528093929190818152602001838380828437600092019190915250612c3092505050565b61013054604051631fff7f2760e11b8152600481018690529192506000916001600160a01b0390911690633ffefe4e90602401602060405180830381865afa158015612a55573d6000803e3d6000fd5b505050506040513d601f19601f82011682018060405250810190612a799190613def565b9050816001600160a01b0316816001600160a01b031614612ad05760405162461bcd60e51b8152602060048201526011602482015270696e76616c6964207369676e617475726560781b604482015260640161088e565b50505050505050565b612ae38282611516565b610fb357612af081612c54565b612afb836020612c66565b604051602001612b0c929190613e0c565b60408051601f198184030181529082905262461bcd60e51b825261088e91600401613e81565b6001600160a01b0381163b612b9f5760405162461bcd60e51b815260206004820152602d60248201527f455243313936373a206e657720696d706c656d656e746174696f6e206973206e60448201526c1bdd08184818dbdb9d1c9858dd609a1b606482015260840161088e565b600080516020613ef183398151915280546001600160a01b0319166001600160a01b0392909216919091179055565b612bd783612e09565b600082511180612be45750805b15610f2457612bf38383612e49565b50505050565b600054610100900460ff16612c205760405162461bcd60e51b815260040161088e90613d63565b61143f612c2b6120f3565b6127b4565b6000806000612c3f8585612f3d565b91509150612c4c81612f82565b509392505050565b60606107e16001600160a01b03831660145b60606000612c75836002613c56565b612c80906002613e94565b67ffffffffffffffff811115612c9857612c98613423565b6040519080825280601f01601f191660200182016040528015612cc2576020820181803683370190505b509050600360fc1b81600081518110612cdd57612cdd613ea7565b60200101906001600160f81b031916908160001a905350600f60fb1b81600181518110612d0c57612d0c613ea7565b60200101906001600160f81b031916908160001a9053506000612d30846002613c56565b612d3b906001613e94565b90505b6001811115612db3576f181899199a1a9b1b9c1cb0b131b232b360811b85600f1660108110612d6f57612d6f613ea7565b1a60f81b828281518110612d8557612d85613ea7565b60200101906001600160f81b031916908160001a90535060049490941c93612dac81613ebd565b9050612d3e565b508315612e025760405162461bcd60e51b815260206004820181905260248201527f537472696e67733a20686578206c656e67746820696e73756666696369656e74604482015260640161088e565b9392505050565b612e1281612b32565b6040516001600160a01b038216907fbc7cd75a20ee27fd9adebab32041f755214dbc6bffa90cc0225b39da2e5c2d3b90600090a250565b60606001600160a01b0383163b612eb15760405162461bcd60e51b815260206004820152602660248201527f416464726573733a2064656c65676174652063616c6c20746f206e6f6e2d636f6044820152651b9d1c9858dd60d21b606482015260840161088e565b600080846001600160a01b031684604051612ecc9190613ed4565b600060405180830381855af49150503d8060008114612f07576040519150601f19603f3d011682016040523d82523d6000602084013e612f0c565b606091505b5091509150612f348282604051806060016040528060278152602001613f11602791396130cc565b95945050505050565b6000808251604103612f735760208301516040840151606085015160001a612f67878285856130e5565b94509450505050612f7b565b506000905060025b9250929050565b6000816004811115612f9657612f96613578565b03612f9e5750565b6001816004811115612fb257612fb2613578565b03612fff5760405162461bcd60e51b815260206004820152601860248201527f45434453413a20696e76616c6964207369676e61747572650000000000000000604482015260640161088e565b600281600481111561301357613013613578565b036130605760405162461bcd60e51b815260206004820152601f60248201527f45434453413a20696e76616c6964207369676e6174757265206c656e67746800604482015260640161088e565b600381600481111561307457613074613578565b036110935760405162461bcd60e51b815260206004820152602260248201527f45434453413a20696e76616c6964207369676e6174757265202773272076616c604482015261756560f01b606482015260840161088e565b606083156130db575081612e02565b612e0283836131a9565b6000807f7fffffffffffffffffffffffffffffff5d576e7357a4501ddfe92f46681b20a083111561311c57506000905060036131a0565b6040805160008082526020820180845289905260ff881692820192909252606081018690526080810185905260019060a0016020604051602081039080840390855afa158015613170573d6000803e3d6000fd5b5050604051601f1901519150506001600160a01b038116613199576000600192509250506131a0565b9150600090505b94509492505050565b8151156131b95781518083602001fd5b8060405162461bcd60e51b815260040161088e9190613e81565b6000602082840312156131e557600080fd5b81356001600160e01b031981168114612e0257600080fd5b6000806040838503121561321057600080fd5b50508035926020909101359150565b60008083601f84011261323157600080fd5b50813567ffffffffffffffff81111561324957600080fd5b602083019150836020828501011115612f7b57600080fd5b6000806000806060858703121561327757600080fd5b8435935060208501359250604085013567ffffffffffffffff81111561329c57600080fd5b6132a88782880161321f565b95989497509550505050565b6000602082840312156132c657600080fd5b5035919050565b6001600160a01b038116811461109357600080fd5b6000806000806000806000806000806101008b8d03121561330257600080fd5b8a35995060208b0135985060408b013561331b816132cd565b975060608b0135965060808b013561ffff8116811461333957600080fd5b955060a08b013567ffffffffffffffff8082111561335657600080fd5b6133628e838f0161321f565b909750955060c08d0135945060e08d013591508082111561338257600080fd5b5061338f8d828e0161321f565b915080935050809150509295989b9194979a5092959850565b6000602082840312156133ba57600080fd5b8135612e02816132cd565b600080604083850312156133d857600080fd5b8235915060208301356133ea816132cd565b809150509250929050565b6000806040838503121561340857600080fd5b8235613413816132cd565b915060208301356133ea816132cd565b634e487b7160e01b600052604160045260246000fd5b6000806040838503121561344c57600080fd5b8235613457816132cd565b9150602083013567ffffffffffffffff8082111561347457600080fd5b818501915085601f83011261348857600080fd5b81358181111561349a5761349a613423565b604051601f8201601f19908116603f011681019083821181831017156134c2576134c2613423565b816040528281528860208487010111156134db57600080fd5b8260208601602083013760006020848301015280955050505050509250929050565b801515811461109357600080fd5b60008060006060848603121561352057600080fd5b833561352b816132cd565b9250602084013561353b816134fd565b929592945050506040919091013590565b60008060006060848603121561356157600080fd5b505081359360208301359350604090920135919050565b634e487b7160e01b600052602160045260246000fd5b6002811061359e5761359e613578565b9052565b60005b838110156135bd5781810151838201526020016135a5565b50506000910152565b600081518084526135de8160208601602086016135a2565b601f01601f19169290920160200192915050565b6020815261360460208201835161358e565b6020820151604082015260018060a01b0360408301511660608201526060820151608082015261ffff60808301511660a0820152600060a083015160e060c08401526136546101008401826135c6565b905060c084015160e08401528091505092915050565b6005811061359e5761359e613578565b613684818861366a565b85602082015284604082015260c0606082015260006136a660c08301866135c6565b60808301949094525060a00152949350505050565b6136c5818961358e565b86602082015260018060a01b038616604082015284606082015261ffff8416608082015260e060a082015260006136ff60e08301856135c6565b90508260c083015298975050505050505050565b600080600080600080600060c0888a03121561372e57600080fd5b87359650602088013595506040880135613747816132cd565b945060608801359350608088013567ffffffffffffffff81111561376a57600080fd5b6137768a828b0161321f565b989b979a5095989497959660a090950135949350505050565b600080600080600080608087890312156137a857600080fd5b8635955060208701359450604087013567ffffffffffffffff808211156137ce57600080fd5b6137da8a838b0161321f565b909650945060608901359150808211156137f357600080fd5b5061380089828a0161321f565b979a9699509497509295939492505050565b6020815261382460208201835161366a565b60208201516040820152604082015160608201526000606083015160c0608084015261385360e08401826135c6565b9050608084015160a084015260a084015160c08401528091505092915050565b60006020828403121561388557600080fd5b8151612e02816134fd565b6020808252601590820152744e6f74206f776e6572206f722064656c656761746560581b604082015260600190565b6020808252600b908201526a125b9d985b1a590818da5960aa1b604082015260600190565b600181811c908216806138f857607f821691505b60208210810361391857634e487b7160e01b600052602260045260246000fd5b50919050565b601f821115610f2457600081815260208120601f850160051c810160208610156139455750805b601f850160051c820191505b818110156117c157828155600101613951565b67ffffffffffffffff83111561397c5761397c613423565b6139908361398a83546138e4565b8361391e565b6000601f8411600181146139c457600085156139ac5750838201355b600019600387901b1c1916600186901b178355613a1e565b600083815260209020601f19861690835b828110156139f557868501358255602094850194600190920191016139d5565b5086821015613a125760001960f88860031b161c19848701351681555b505060018560011b0183555b5050505050565b81835281816020850137506000828201602090810191909152601f909101601f19169091010190565b602081526000613a62602083018486613a25565b949350505050565b815167ffffffffffffffff811115613a8457613a84613423565b613a9881613a9284546138e4565b8461391e565b602080601f831160018114613acd5760008415613ab55750858301515b600019600386901b1c1916600185901b1785556117c1565b600085815260208120601f198616915b82811015613afc57888601518255948401946001909101908401613add565b5085821015613b1a5787850151600019600388901b60f8161c191681555b5050505050600190811b01905550565b634e487b7160e01b600052601160045260246000fd5b600060018201613b5257613b52613b2a565b5060010190565b60006101008b83528a6020840152806040840152613b7a8184018a8c613a25565b915050613b8a606083018861358e565b6001600160a01b0395909516608082015260a081019390935261ffff9190911660c083015260e09091015295945050505050565b6020808252602c908201527f46756e6374696f6e206d7573742062652063616c6c6564207468726f7567682060408201526b19195b1959d85d1958d85b1b60a21b606082015260800190565b6020808252602c908201527f46756e6374696f6e206d7573742062652063616c6c6564207468726f7567682060408201526b6163746976652070726f787960a01b606082015260800190565b80820281158282048414176107e1576107e1613b2a565b600082613c8a57634e487b7160e01b600052601260045260246000fd5b500490565b87815286602082015260c060408201526000613caf60c083018789613a25565b6001600160a01b0395909516606083015250608081019290925260a090910152949350505050565b858152846020820152836040820152608060608201526000613cfd608083018486613a25565b979650505050505050565b600060208284031215613d1a57600080fd5b5051919050565b6d18dc99585d19541c9bdc1bdcd85b60921b815284600e820152603b60f81b602e82015283602f8201528183604f83013760009101604f019081529392505050565b6020808252602b908201527f496e697469616c697a61626c653a20636f6e7472616374206973206e6f74206960408201526a6e697469616c697a696e6760a81b606082015260800190565b6c6372656174655365727669636560981b815284600d820152603b60f81b602d82015283602e8201528183604e83013760009101604e019081529392505050565b600060208284031215613e0157600080fd5b8151612e02816132cd565b7f416363657373436f6e74726f6c3a206163636f756e7420000000000000000000815260008351613e448160178501602088016135a2565b7001034b99036b4b9b9b4b733903937b6329607d1b6017918401918201528351613e758160288401602088016135a2565b01602801949350505050565b602081526000612e0260208301846135c6565b808201808211156107e1576107e1613b2a565b634e487b7160e01b600052603260045260246000fd5b600081613ecc57613ecc613b2a565b506000190190565b60008251613ee68184602087016135a2565b919091019291505056fe360894a13ba1a3210667c828492db98dca3e2076cc3735a920a3ca505d382bbc416464726573733a206c6f772d6c6576656c2064656c65676174652063616c6c206661696c6564a2646970667358221220a6f511602d27e51878324c75e2ff3616b21ab3558af7708c65fbc5b6555dc31e64736f6c63430008110033",
  "linkReferences": {},
  "deployedLinkReferences": {}
}