{
  "_format": "hh-sol-artifact-1",
  "contractName": "TalentLayerService",
  "sourceName": "contracts/TalentLayerService.sol",
  "abi": [
    {
      "inputs": [],
      "stateMutability": "nonpayable",
      "type": "constructor"
    },
    {
      "anonymous": false,
      "inputs": [
        {
          "indexed": false,
          "internalType": "address",
          "name": "previousAdmin",
          "type": "address"
        },
        {
          "indexed": false,
          "internalType": "address",
          "name": "newAdmin",
          "type": "address"
        }
      ],
      "name": "AdminChanged",
      "type": "event"
    },
    {
      "anonymous": false,
      "inputs": [
        {
          "indexed": false,
          "internalType": "address",
          "name": "tokenAddress",
          "type": "address"
        },
        {
          "indexed": false,
          "internalType": "bool",
          "name": "isWhitelisted",
          "type": "bool"
        },
        {
          "indexed": false,
          "internalType": "uint256",
          "name": "minimumTransactionAmount",
          "type": "uint256"
        }
      ],
      "name": "AllowedTokenListUpdated",
      "type": "event"
    },
    {
      "anonymous": false,
      "inputs": [
        {
          "indexed": true,
          "internalType": "address",
          "name": "beacon",
          "type": "address"
        }
      ],
      "name": "BeaconUpgraded",
      "type": "event"
    },
    {
      "anonymous": false,
      "inputs": [
        {
          "indexed": false,
          "internalType": "uint8",
          "name": "version",
          "type": "uint8"
        }
      ],
      "name": "Initialized",
      "type": "event"
    },
    {
      "anonymous": false,
      "inputs": [
        {
          "indexed": false,
          "internalType": "uint256",
          "name": "minCompletionPercentage",
          "type": "uint256"
        }
      ],
      "name": "MinCompletionPercentageUpdated",
      "type": "event"
    },
    {
      "anonymous": false,
      "inputs": [
        {
          "indexed": true,
          "internalType": "address",
          "name": "previousOwner",
          "type": "address"
        },
        {
          "indexed": true,
          "internalType": "address",
          "name": "newOwner",
          "type": "address"
        }
      ],
      "name": "OwnershipTransferred",
      "type": "event"
    },
    {
      "anonymous": false,
      "inputs": [
        {
          "indexed": false,
          "internalType": "uint256",
          "name": "serviceId",
          "type": "uint256"
        },
        {
          "indexed": false,
          "internalType": "uint256",
          "name": "ownerId",
          "type": "uint256"
        },
        {
          "indexed": false,
          "internalType": "string",
          "name": "dataUri",
          "type": "string"
        },
        {
          "indexed": false,
          "internalType": "enum TalentLayerService.ProposalStatus",
          "name": "status",
          "type": "uint8"
        },
        {
          "indexed": false,
          "internalType": "address",
          "name": "rateToken",
          "type": "address"
        },
        {
          "indexed": false,
          "internalType": "uint256",
          "name": "rateAmount",
          "type": "uint256"
        },
        {
          "indexed": false,
          "internalType": "uint256",
          "name": "platformId",
          "type": "uint256"
        },
        {
          "indexed": false,
          "internalType": "uint256",
          "name": "expirationDate",
          "type": "uint256"
        }
      ],
      "name": "ProposalCreated",
      "type": "event"
    },
    {
      "anonymous": false,
      "inputs": [
        {
          "indexed": false,
          "internalType": "uint256",
          "name": "serviceId",
          "type": "uint256"
        },
        {
          "indexed": false,
          "internalType": "uint256",
          "name": "ownerId",
          "type": "uint256"
        },
        {
          "indexed": false,
          "internalType": "string",
          "name": "dataUri",
          "type": "string"
        },
        {
          "indexed": false,
          "internalType": "enum TalentLayerService.ProposalStatus",
          "name": "status",
          "type": "uint8"
        },
        {
          "indexed": false,
          "internalType": "uint256",
          "name": "rateAmount",
          "type": "uint256"
        },
        {
          "indexed": false,
          "internalType": "uint256",
          "name": "platformId",
          "type": "uint256"
        },
        {
          "indexed": false,
          "internalType": "uint256",
          "name": "expirationDate",
          "type": "uint256"
        },
        {
          "indexed": false,
          "internalType": "uint256",
          "name": "referrerId",
          "type": "uint256"
        }
      ],
      "name": "ProposalCreatedWithoutToken",
      "type": "event"
    },
    {
      "anonymous": false,
      "inputs": [
        {
          "indexed": false,
          "internalType": "uint256",
          "name": "serviceId",
          "type": "uint256"
        },
        {
          "indexed": false,
          "internalType": "uint256",
          "name": "ownerId",
          "type": "uint256"
        },
        {
          "indexed": false,
          "internalType": "string",
          "name": "dataUri",
          "type": "string"
        },
        {
          "indexed": false,
          "internalType": "address",
          "name": "rateToken",
          "type": "address"
        },
        {
          "indexed": false,
          "internalType": "uint256",
          "name": "rateAmount",
          "type": "uint256"
        },
        {
          "indexed": false,
          "internalType": "uint256",
          "name": "expirationDate",
          "type": "uint256"
        }
      ],
      "name": "ProposalUpdated",
      "type": "event"
    },
    {
      "anonymous": false,
      "inputs": [
        {
          "indexed": false,
          "internalType": "uint256",
          "name": "serviceId",
          "type": "uint256"
        },
        {
          "indexed": false,
          "internalType": "uint256",
          "name": "ownerId",
          "type": "uint256"
        },
        {
          "indexed": false,
          "internalType": "string",
          "name": "dataUri",
          "type": "string"
        },
        {
          "indexed": false,
          "internalType": "uint256",
          "name": "rateAmount",
          "type": "uint256"
        },
        {
          "indexed": false,
          "internalType": "uint256",
          "name": "expirationDate",
          "type": "uint256"
        },
        {
          "indexed": false,
          "internalType": "uint256",
          "name": "referrerId",
          "type": "uint256"
        }
      ],
      "name": "ProposalUpdatedWithoutToken",
      "type": "event"
    },
    {
      "anonymous": false,
      "inputs": [
        {
          "indexed": true,
          "internalType": "bytes32",
          "name": "role",
          "type": "bytes32"
        },
        {
          "indexed": true,
          "internalType": "bytes32",
          "name": "previousAdminRole",
          "type": "bytes32"
        },
        {
          "indexed": true,
          "internalType": "bytes32",
          "name": "newAdminRole",
          "type": "bytes32"
        }
      ],
      "name": "RoleAdminChanged",
      "type": "event"
    },
    {
      "anonymous": false,
      "inputs": [
        {
          "indexed": true,
          "internalType": "bytes32",
          "name": "role",
          "type": "bytes32"
        },
        {
          "indexed": true,
          "internalType": "address",
          "name": "account",
          "type": "address"
        },
        {
          "indexed": true,
          "internalType": "address",
          "name": "sender",
          "type": "address"
        }
      ],
      "name": "RoleGranted",
      "type": "event"
    },
    {
      "anonymous": false,
      "inputs": [
        {
          "indexed": true,
          "internalType": "bytes32",
          "name": "role",
          "type": "bytes32"
        },
        {
          "indexed": true,
          "internalType": "address",
          "name": "account",
          "type": "address"
        },
        {
          "indexed": true,
          "internalType": "address",
          "name": "sender",
          "type": "address"
        }
      ],
      "name": "RoleRevoked",
      "type": "event"
    },
    {
      "anonymous": false,
      "inputs": [
        {
          "indexed": false,
          "internalType": "uint256",
          "name": "id",
          "type": "uint256"
        }
      ],
      "name": "ServiceCancelled",
      "type": "event"
    },
    {
      "anonymous": false,
      "inputs": [
        {
          "indexed": false,
          "internalType": "uint256",
          "name": "id",
          "type": "uint256"
        },
        {
          "indexed": false,
          "internalType": "uint256",
          "name": "ownerId",
          "type": "uint256"
        },
        {
          "indexed": false,
          "internalType": "uint256",
          "name": "platformId",
          "type": "uint256"
        },
        {
          "indexed": false,
          "internalType": "string",
          "name": "dataUri",
          "type": "string"
        }
      ],
      "name": "ServiceCreated",
      "type": "event"
    },
    {
      "anonymous": false,
      "inputs": [
        {
          "indexed": true,
          "internalType": "uint256",
          "name": "id",
          "type": "uint256"
        },
        {
          "indexed": false,
          "internalType": "uint256",
          "name": "ownerId",
          "type": "uint256"
        },
        {
          "indexed": false,
          "internalType": "uint256",
          "name": "platformId",
          "type": "uint256"
        },
        {
          "indexed": false,
          "internalType": "string",
          "name": "dataUri",
          "type": "string"
        },
        {
          "indexed": false,
          "internalType": "address",
          "name": "token",
          "type": "address"
        },
        {
          "indexed": false,
          "internalType": "uint256",
          "name": "referralAmount",
          "type": "uint256"
        }
      ],
      "name": "ServiceCreatedWithReferral",
      "type": "event"
    },
    {
      "anonymous": false,
      "inputs": [
        {
          "indexed": true,
          "internalType": "uint256",
          "name": "id",
          "type": "uint256"
        },
        {
          "indexed": false,
          "internalType": "string",
          "name": "dataUri",
          "type": "string"
        }
      ],
      "name": "ServiceDetailedUpdated",
      "type": "event"
    },
    {
      "anonymous": false,
      "inputs": [
        {
          "indexed": true,
          "internalType": "uint256",
          "name": "id",
          "type": "uint256"
        },
        {
          "indexed": false,
          "internalType": "string",
          "name": "dataUri",
          "type": "string"
        },
        {
          "indexed": false,
          "internalType": "uint256",
          "name": "referralAmount",
          "type": "uint256"
        },
        {
          "indexed": false,
          "internalType": "address",
          "name": "token",
          "type": "address"
        }
      ],
      "name": "ServiceUpdated",
      "type": "event"
    },
    {
      "anonymous": false,
      "inputs": [
        {
          "indexed": false,
          "internalType": "address",
          "name": "forwarder",
          "type": "address"
        }
      ],
      "name": "TrustedForwarderAdded",
      "type": "event"
    },
    {
      "anonymous": false,
      "inputs": [
        {
          "indexed": false,
          "internalType": "address",
          "name": "forwarder",
          "type": "address"
        }
      ],
      "name": "TrustedForwarderRemoved",
      "type": "event"
    },
    {
      "anonymous": false,
      "inputs": [
        {
          "indexed": true,
          "internalType": "address",
          "name": "implementation",
          "type": "address"
        }
      ],
      "name": "Upgraded",
      "type": "event"
    },
    {
      "inputs": [],
      "name": "DEFAULT_ADMIN_ROLE",
      "outputs": [
        {
          "internalType": "bytes32",
          "name": "",
          "type": "bytes32"
        }
      ],
      "stateMutability": "view",
      "type": "function"
    },
    {
      "inputs": [],
      "name": "ESCROW_ROLE",
      "outputs": [
        {
          "internalType": "bytes32",
          "name": "",
          "type": "bytes32"
        }
      ],
      "stateMutability": "view",
      "type": "function"
    },
    {
      "inputs": [
        {
          "internalType": "address",
          "name": "_forwarder",
          "type": "address"
        }
      ],
      "name": "addTrustedForwarder",
      "outputs": [],
      "stateMutability": "nonpayable",
      "type": "function"
    },
    {
      "inputs": [
        {
          "internalType": "uint256",
          "name": "_serviceId",
          "type": "uint256"
        },
        {
          "internalType": "uint256",
          "name": "_proposalId",
          "type": "uint256"
        },
        {
          "internalType": "uint256",
          "name": "_transactionId",
          "type": "uint256"
        }
      ],
      "name": "afterDeposit",
      "outputs": [],
      "stateMutability": "nonpayable",
      "type": "function"
    },
    {
      "inputs": [
        {
          "internalType": "uint256",
          "name": "_serviceId",
          "type": "uint256"
        },
        {
          "internalType": "uint256",
          "name": "_releasedAmount",
          "type": "uint256"
        }
      ],
      "name": "afterFullPayment",
      "outputs": [],
      "stateMutability": "nonpayable",
      "type": "function"
    },
    {
      "inputs": [
        {
          "internalType": "address",
          "name": "",
          "type": "address"
        }
      ],
      "name": "allowedTokenList",
      "outputs": [
        {
          "internalType": "bool",
          "name": "isWhitelisted",
          "type": "bool"
        },
        {
          "internalType": "uint256",
          "name": "minimumTransactionAmount",
          "type": "uint256"
        }
      ],
      "stateMutability": "view",
      "type": "function"
    },
    {
      "inputs": [
        {
          "internalType": "uint256",
          "name": "_profileId",
          "type": "uint256"
        },
        {
          "internalType": "uint256",
          "name": "_serviceId",
          "type": "uint256"
        }
      ],
      "name": "cancelService",
      "outputs": [],
      "stateMutability": "nonpayable",
      "type": "function"
    },
    {
      "inputs": [
        {
          "internalType": "uint256",
          "name": "_profileId",
          "type": "uint256"
        },
        {
          "internalType": "uint256",
          "name": "_serviceId",
          "type": "uint256"
        },
        {
          "internalType": "uint256",
          "name": "_rateAmount",
          "type": "uint256"
        },
        {
          "internalType": "uint256",
          "name": "_platformId",
          "type": "uint256"
        },
        {
          "internalType": "string",
          "name": "_dataUri",
          "type": "string"
        },
        {
          "internalType": "uint256",
          "name": "_expirationDate",
          "type": "uint256"
        },
        {
          "internalType": "bytes",
          "name": "_signature",
          "type": "bytes"
        }
      ],
      "name": "createProposal",
      "outputs": [],
      "stateMutability": "payable",
      "type": "function"
    },
    {
      "inputs": [
        {
          "internalType": "uint256",
          "name": "_profileId",
          "type": "uint256"
        },
        {
          "internalType": "uint256",
          "name": "_serviceId",
          "type": "uint256"
        },
        {
          "internalType": "uint256",
          "name": "_rateAmount",
          "type": "uint256"
        },
        {
          "internalType": "uint256",
          "name": "_platformId",
          "type": "uint256"
        },
        {
          "internalType": "string",
          "name": "_dataUri",
          "type": "string"
        },
        {
          "internalType": "uint256",
          "name": "_expirationDate",
          "type": "uint256"
        },
        {
          "internalType": "bytes",
          "name": "_signature",
          "type": "bytes"
        },
        {
          "internalType": "uint256",
          "name": "_referrerId",
          "type": "uint256"
        }
      ],
      "name": "createProposalWithReferrer",
      "outputs": [],
      "stateMutability": "payable",
      "type": "function"
    },
    {
      "inputs": [
        {
          "internalType": "uint256",
          "name": "_profileId",
          "type": "uint256"
        },
        {
          "internalType": "uint256",
          "name": "_platformId",
          "type": "uint256"
        },
        {
          "internalType": "string",
          "name": "_dataUri",
          "type": "string"
        },
        {
          "internalType": "bytes",
          "name": "_signature",
          "type": "bytes"
        },
        {
          "internalType": "address",
          "name": "_token",
          "type": "address"
        }
      ],
      "name": "createService",
      "outputs": [
        {
          "internalType": "uint256",
          "name": "",
          "type": "uint256"
        }
      ],
      "stateMutability": "payable",
      "type": "function"
    },
    {
      "inputs": [
        {
          "internalType": "uint256",
          "name": "_profileId",
          "type": "uint256"
        },
        {
          "internalType": "uint256",
          "name": "_platformId",
          "type": "uint256"
        },
        {
          "internalType": "string",
          "name": "_dataUri",
          "type": "string"
        },
        {
          "internalType": "bytes",
          "name": "_signature",
          "type": "bytes"
        },
        {
          "internalType": "address",
          "name": "_token",
          "type": "address"
        },
        {
          "internalType": "uint256",
          "name": "_referralAmount",
          "type": "uint256"
        }
      ],
      "name": "createServiceWithReferral",
      "outputs": [
        {
          "internalType": "uint256",
          "name": "",
          "type": "uint256"
        }
      ],
      "stateMutability": "payable",
      "type": "function"
    },
    {
      "inputs": [
        {
          "internalType": "uint256",
          "name": "_serviceId",
          "type": "uint256"
        },
        {
          "internalType": "uint256",
          "name": "_proposalId",
          "type": "uint256"
        }
      ],
      "name": "getProposal",
      "outputs": [
        {
          "components": [
            {
              "internalType": "enum TalentLayerService.ProposalStatus",
              "name": "status",
              "type": "uint8"
            },
            {
              "internalType": "uint256",
              "name": "ownerId",
              "type": "uint256"
            },
            {
              "internalType": "address",
              "name": "rateToken",
              "type": "address"
            },
            {
              "internalType": "uint256",
              "name": "rateAmount",
              "type": "uint256"
            },
            {
              "internalType": "uint256",
              "name": "platformId",
              "type": "uint256"
            },
            {
              "internalType": "string",
              "name": "dataUri",
              "type": "string"
            },
            {
              "internalType": "uint256",
              "name": "expirationDate",
              "type": "uint256"
            },
            {
              "internalType": "uint256",
              "name": "referrerId",
              "type": "uint256"
            }
          ],
          "internalType": "struct TalentLayerService.Proposal",
          "name": "",
          "type": "tuple"
        }
      ],
      "stateMutability": "view",
      "type": "function"
    },
    {
      "inputs": [
        {
          "internalType": "bytes32",
          "name": "role",
          "type": "bytes32"
        }
      ],
      "name": "getRoleAdmin",
      "outputs": [
        {
          "internalType": "bytes32",
          "name": "",
          "type": "bytes32"
        }
      ],
      "stateMutability": "view",
      "type": "function"
    },
    {
      "inputs": [
        {
          "internalType": "uint256",
          "name": "_serviceId",
          "type": "uint256"
        }
      ],
      "name": "getService",
      "outputs": [
        {
          "components": [
            {
              "internalType": "enum TalentLayerService.Status",
              "name": "status",
              "type": "uint8"
            },
            {
              "internalType": "uint256",
              "name": "ownerId",
              "type": "uint256"
            },
            {
              "internalType": "uint256",
              "name": "acceptedProposalId",
              "type": "uint256"
            },
            {
              "internalType": "string",
              "name": "dataUri",
              "type": "string"
            },
            {
              "internalType": "uint256",
              "name": "transactionId",
              "type": "uint256"
            },
            {
              "internalType": "uint256",
              "name": "platformId",
              "type": "uint256"
            },
            {
              "internalType": "address",
              "name": "token",
              "type": "address"
            },
            {
              "internalType": "uint256",
              "name": "referralAmount",
              "type": "uint256"
            }
          ],
          "internalType": "struct TalentLayerService.Service",
          "name": "",
          "type": "tuple"
        }
      ],
      "stateMutability": "view",
      "type": "function"
    },
    {
      "inputs": [
        {
          "internalType": "uint256",
          "name": "_serviceId",
          "type": "uint256"
        },
        {
          "internalType": "uint256",
          "name": "_proposalId",
          "type": "uint256"
        }
      ],
      "name": "getServiceAndProposal",
      "outputs": [
        {
          "components": [
            {
              "internalType": "enum TalentLayerService.Status",
              "name": "status",
              "type": "uint8"
            },
            {
              "internalType": "uint256",
              "name": "ownerId",
              "type": "uint256"
            },
            {
              "internalType": "uint256",
              "name": "acceptedProposalId",
              "type": "uint256"
            },
            {
              "internalType": "string",
              "name": "dataUri",
              "type": "string"
            },
            {
              "internalType": "uint256",
              "name": "transactionId",
              "type": "uint256"
            },
            {
              "internalType": "uint256",
              "name": "platformId",
              "type": "uint256"
            },
            {
              "internalType": "address",
              "name": "token",
              "type": "address"
            },
            {
              "internalType": "uint256",
              "name": "referralAmount",
              "type": "uint256"
            }
          ],
          "internalType": "struct TalentLayerService.Service",
          "name": "",
          "type": "tuple"
        },
        {
          "components": [
            {
              "internalType": "enum TalentLayerService.ProposalStatus",
              "name": "status",
              "type": "uint8"
            },
            {
              "internalType": "uint256",
              "name": "ownerId",
              "type": "uint256"
            },
            {
              "internalType": "address",
              "name": "rateToken",
              "type": "address"
            },
            {
              "internalType": "uint256",
              "name": "rateAmount",
              "type": "uint256"
            },
            {
              "internalType": "uint256",
              "name": "platformId",
              "type": "uint256"
            },
            {
              "internalType": "string",
              "name": "dataUri",
              "type": "string"
            },
            {
              "internalType": "uint256",
              "name": "expirationDate",
              "type": "uint256"
            },
            {
              "internalType": "uint256",
              "name": "referrerId",
              "type": "uint256"
            }
          ],
          "internalType": "struct TalentLayerService.Proposal",
          "name": "",
          "type": "tuple"
        }
      ],
      "stateMutability": "view",
      "type": "function"
    },
    {
      "inputs": [
        {
          "internalType": "bytes32",
          "name": "role",
          "type": "bytes32"
        },
        {
          "internalType": "address",
          "name": "account",
          "type": "address"
        }
      ],
      "name": "grantRole",
      "outputs": [],
      "stateMutability": "nonpayable",
      "type": "function"
    },
    {
      "inputs": [
        {
          "internalType": "bytes32",
          "name": "role",
          "type": "bytes32"
        },
        {
          "internalType": "address",
          "name": "account",
          "type": "address"
        }
      ],
      "name": "hasRole",
      "outputs": [
        {
          "internalType": "bool",
          "name": "",
          "type": "bool"
        }
      ],
      "stateMutability": "view",
      "type": "function"
    },
    {
      "inputs": [
        {
          "internalType": "address",
          "name": "_talentLayerIdAddress",
          "type": "address"
        },
        {
          "internalType": "address",
          "name": "_talentLayerPlatformIdAddress",
          "type": "address"
        }
      ],
      "name": "initialize",
      "outputs": [],
      "stateMutability": "nonpayable",
      "type": "function"
    },
    {
      "inputs": [
        {
          "internalType": "address",
          "name": "_tokenAddress",
          "type": "address"
        }
      ],
      "name": "isTokenAllowed",
      "outputs": [
        {
          "internalType": "bool",
          "name": "",
          "type": "bool"
        }
      ],
      "stateMutability": "view",
      "type": "function"
    },
    {
      "inputs": [
        {
          "internalType": "address",
          "name": "forwarder",
          "type": "address"
        }
      ],
      "name": "isTrustedForwarder",
      "outputs": [
        {
          "internalType": "bool",
          "name": "",
          "type": "bool"
        }
      ],
      "stateMutability": "view",
      "type": "function"
    },
    {
      "inputs": [],
      "name": "minCompletionPercentage",
      "outputs": [
        {
          "internalType": "uint256",
          "name": "",
          "type": "uint256"
        }
      ],
      "stateMutability": "view",
      "type": "function"
    },
    {
      "inputs": [],
      "name": "nextServiceId",
      "outputs": [
        {
          "internalType": "uint256",
          "name": "",
          "type": "uint256"
        }
      ],
      "stateMutability": "view",
      "type": "function"
    },
    {
      "inputs": [],
      "name": "owner",
      "outputs": [
        {
          "internalType": "address",
          "name": "",
          "type": "address"
        }
      ],
      "stateMutability": "view",
      "type": "function"
    },
    {
      "inputs": [
        {
          "internalType": "uint256",
          "name": "",
          "type": "uint256"
        }
      ],
      "name": "proposalNonce",
      "outputs": [
        {
          "internalType": "uint256",
          "name": "",
          "type": "uint256"
        }
      ],
      "stateMutability": "view",
      "type": "function"
    },
    {
      "inputs": [
        {
          "internalType": "uint256",
          "name": "",
          "type": "uint256"
        },
        {
          "internalType": "uint256",
          "name": "",
          "type": "uint256"
        }
      ],
      "name": "proposals",
      "outputs": [
        {
          "internalType": "enum TalentLayerService.ProposalStatus",
          "name": "status",
          "type": "uint8"
        },
        {
          "internalType": "uint256",
          "name": "ownerId",
          "type": "uint256"
        },
        {
          "internalType": "address",
          "name": "rateToken",
          "type": "address"
        },
        {
          "internalType": "uint256",
          "name": "rateAmount",
          "type": "uint256"
        },
        {
          "internalType": "uint256",
          "name": "platformId",
          "type": "uint256"
        },
        {
          "internalType": "string",
          "name": "dataUri",
          "type": "string"
        },
        {
          "internalType": "uint256",
          "name": "expirationDate",
          "type": "uint256"
        },
        {
          "internalType": "uint256",
          "name": "referrerId",
          "type": "uint256"
        }
      ],
      "stateMutability": "view",
      "type": "function"
    },
    {
      "inputs": [],
      "name": "proxiableUUID",
      "outputs": [
        {
          "internalType": "bytes32",
          "name": "",
          "type": "bytes32"
        }
      ],
      "stateMutability": "view",
      "type": "function"
    },
    {
      "inputs": [
        {
          "internalType": "address",
          "name": "_forwarder",
          "type": "address"
        }
      ],
      "name": "removeTrustedForwarder",
      "outputs": [],
      "stateMutability": "nonpayable",
      "type": "function"
    },
    {
      "inputs": [],
      "name": "renounceOwnership",
      "outputs": [],
      "stateMutability": "nonpayable",
      "type": "function"
    },
    {
      "inputs": [
        {
          "internalType": "bytes32",
          "name": "role",
          "type": "bytes32"
        },
        {
          "internalType": "address",
          "name": "account",
          "type": "address"
        }
      ],
      "name": "renounceRole",
      "outputs": [],
      "stateMutability": "nonpayable",
      "type": "function"
    },
    {
      "inputs": [
        {
          "internalType": "bytes32",
          "name": "role",
          "type": "bytes32"
        },
        {
          "internalType": "address",
          "name": "account",
          "type": "address"
        }
      ],
      "name": "revokeRole",
      "outputs": [],
      "stateMutability": "nonpayable",
      "type": "function"
    },
    {
      "inputs": [
        {
          "internalType": "uint256",
          "name": "",
          "type": "uint256"
        }
      ],
      "name": "serviceNonce",
      "outputs": [
        {
          "internalType": "uint256",
          "name": "",
          "type": "uint256"
        }
      ],
      "stateMutability": "view",
      "type": "function"
    },
    {
      "inputs": [
        {
          "internalType": "uint256",
          "name": "",
          "type": "uint256"
        }
      ],
      "name": "services",
      "outputs": [
        {
          "internalType": "enum TalentLayerService.Status",
          "name": "status",
          "type": "uint8"
        },
        {
          "internalType": "uint256",
          "name": "ownerId",
          "type": "uint256"
        },
        {
          "internalType": "uint256",
          "name": "acceptedProposalId",
          "type": "uint256"
        },
        {
          "internalType": "string",
          "name": "dataUri",
          "type": "string"
        },
        {
          "internalType": "uint256",
          "name": "transactionId",
          "type": "uint256"
        },
        {
          "internalType": "uint256",
          "name": "platformId",
          "type": "uint256"
        },
        {
          "internalType": "address",
          "name": "token",
          "type": "address"
        },
        {
          "internalType": "uint256",
          "name": "referralAmount",
          "type": "uint256"
        }
      ],
      "stateMutability": "view",
      "type": "function"
    },
    {
      "inputs": [
        {
          "internalType": "bytes4",
          "name": "interfaceId",
          "type": "bytes4"
        }
      ],
      "name": "supportsInterface",
      "outputs": [
        {
          "internalType": "bool",
          "name": "",
          "type": "bool"
        }
      ],
      "stateMutability": "view",
      "type": "function"
    },
    {
      "inputs": [],
      "name": "talentLayerPlatformIdContract",
      "outputs": [
        {
          "internalType": "contract ITalentLayerPlatformID",
          "name": "",
          "type": "address"
        }
      ],
      "stateMutability": "view",
      "type": "function"
    },
    {
      "inputs": [
        {
          "internalType": "address",
          "name": "newOwner",
          "type": "address"
        }
      ],
      "name": "transferOwnership",
      "outputs": [],
      "stateMutability": "nonpayable",
      "type": "function"
    },
    {
      "inputs": [
        {
          "internalType": "address",
          "name": "_tokenAddress",
          "type": "address"
        },
        {
          "internalType": "bool",
          "name": "_isWhitelisted",
          "type": "bool"
        },
        {
          "internalType": "uint256",
          "name": "_minimumTransactionAmount",
          "type": "uint256"
        }
      ],
      "name": "updateAllowedTokenList",
      "outputs": [],
      "stateMutability": "nonpayable",
      "type": "function"
    },
    {
      "inputs": [
        {
          "internalType": "uint256",
          "name": "_minCompletionPercentage",
          "type": "uint256"
        }
      ],
      "name": "updateMinCompletionPercentage",
      "outputs": [],
      "stateMutability": "nonpayable",
      "type": "function"
    },
    {
      "inputs": [
        {
          "internalType": "uint256",
          "name": "_profileId",
          "type": "uint256"
        },
        {
          "internalType": "uint256",
          "name": "_serviceId",
          "type": "uint256"
        },
        {
          "internalType": "uint256",
          "name": "_rateAmount",
          "type": "uint256"
        },
        {
          "internalType": "string",
          "name": "_dataUri",
          "type": "string"
        },
        {
          "internalType": "uint256",
          "name": "_expirationDate",
          "type": "uint256"
        },
        {
          "internalType": "uint256",
          "name": "_referrerId",
          "type": "uint256"
        }
      ],
      "name": "updateProposal",
      "outputs": [],
      "stateMutability": "nonpayable",
      "type": "function"
    },
    {
      "inputs": [
        {
          "internalType": "uint256",
          "name": "_profileId",
          "type": "uint256"
        },
        {
          "internalType": "uint256",
          "name": "_serviceId",
          "type": "uint256"
        },
        {
          "internalType": "uint256",
          "name": "_referralAmount",
          "type": "uint256"
        },
        {
          "internalType": "address",
          "name": "_token",
          "type": "address"
        },
        {
          "internalType": "string",
          "name": "_dataUri",
          "type": "string"
        }
      ],
      "name": "updateService",
      "outputs": [],
      "stateMutability": "nonpayable",
      "type": "function"
    },
    {
      "inputs": [
        {
          "internalType": "address",
          "name": "newImplementation",
          "type": "address"
        }
      ],
      "name": "upgradeTo",
      "outputs": [],
      "stateMutability": "nonpayable",
      "type": "function"
    },
    {
      "inputs": [
        {
          "internalType": "address",
          "name": "newImplementation",
          "type": "address"
        },
        {
          "internalType": "bytes",
          "name": "data",
          "type": "bytes"
        }
      ],
      "name": "upgradeToAndCall",
      "outputs": [],
      "stateMutability": "payable",
      "type": "function"
    }
  ],
  "bytecode": "0x60a0604052306080523480156200001557600080fd5b506200002062000026565b620000e8565b600054610100900460ff1615620000935760405162461bcd60e51b815260206004820152602760248201527f496e697469616c697a61626c653a20636f6e747261637420697320696e697469604482015266616c697a696e6760c81b606482015260840160405180910390fd5b60005460ff9081161015620000e6576000805460ff191660ff9081179091556040519081527f7f26b83ff96e1f2b6a682f133852f6798a09c465da95921460cefb38474024989060200160405180910390a15b565b608051614ad06200012060003960008181611327015281816113670152818161161e0152818161165e01526116ed0152614ad06000f3fe6080604052600436106102465760003560e01c80636ce76f3011610139578063c22c4f43116100b6578063ec3a05b81161007a578063ec3a05b814610764578063ef0e239b14610777578063f2fde38b146107a4578063f5df37c9146107c4578063f6c53d9b146107d7578063f9eaee0d146107ee57600080fd5b8063c22c4f4314610680578063c2cfee27146106b4578063ccaa7d2a146106e8578063d4eee1fc14610716578063d547741f1461074457600080fd5b806391d14854116100fd57806391d14854146105de578063a217fddf146105fe578063a7d5eaea14610613578063aba2100914610633578063b5735c1e1461066057600080fd5b80636ce76f3014610505578063715018a61461053957806371da85f91461054e5780637c5a72cd146105a05780638da5cb5b146105c057600080fd5b80632f2ff15d116101c7578063485cc9551161018b578063485cc955146104645780634f1ef2861461048457806352d1902d14610497578063572b6c05146104ac5780635cdb8435146104e557600080fd5b80632f2ff15d146103c457806336568abe146103e45780633659cfe6146104045780633751d89c146104245780633ca2ad6f1461044457600080fd5b80631db087ff1161020e5780631db087ff14610320578063248a9ca31461034e57806326d006681461037e57806328d3c4fe1461039e5780632b6f2869146103b157600080fd5b806301ffc9a71461024b578063089b7c73146102805780631499f9e6146102a2578063154664ed146102db578063156b39aa146102fb575b600080fd5b34801561025757600080fd5b5061026b610266366004613b25565b610828565b60405190151581526020015b60405180910390f35b34801561028c57600080fd5b506102a061029b366004613b4f565b61085f565b005b3480156102ae57600080fd5b50610130546102c3906001600160a01b031681565b6040516001600160a01b039091168152602001610277565b3480156102e757600080fd5b506102a06102f6366004613bb3565b610a02565b34801561030757600080fd5b506103126101365481565b604051908152602001610277565b34801561032c57600080fd5b5061031261033b366004613c23565b6101336020526000908152604090205481565b34801561035a57600080fd5b50610312610369366004613c23565b600090815260fc602052604090206001015490565b34801561038a57600080fd5b506102a0610399366004613c51565b610d1a565b6103126103ac366004613c6e565b610d7d565b6102a06103bf366004613d05565b610f9c565b3480156103d057600080fd5b506102a06103df366004613da7565b611265565b3480156103f057600080fd5b506102a06103ff366004613da7565b61128f565b34801561041057600080fd5b506102a061041f366004613c51565b61131d565b34801561043057600080fd5b506102a061043f366004613c51565b6113fc565b34801561045057600080fd5b506102a061045f366004613c23565b611455565b34801561047057600080fd5b506102a061047f366004613dd7565b61149d565b6102a0610492366004613e1b565b611614565b3480156104a357600080fd5b506103126116e0565b3480156104b857600080fd5b5061026b6104c7366004613c51565b6001600160a01b031660009081526065602052604090205460ff1690565b3480156104f157600080fd5b506102a0610500366004613edf565b611793565b34801561051157600080fd5b506103127f2fdac322ee704ce09f0773f7f3f92eb98d5e7c836ee9c056cccd5f61041e5e3f81565b34801561054557600080fd5b506102a06119e4565b34801561055a57600080fd5b50610589610569366004613c51565b610135602052600090815260409020805460019091015460ff9091169082565b604080519215158352602083019190915201610277565b3480156105ac57600080fd5b506102a06105bb366004613f60565b6119f8565b3480156105cc57600080fd5b506033546001600160a01b03166102c3565b3480156105ea57600080fd5b5061026b6105f9366004613da7565b611acd565b34801561060a57600080fd5b50610312600081565b34801561061f57600080fd5b506102a061062e366004613fa1565b611af8565b34801561063f57600080fd5b5061065361064e366004613b4f565b611b7a565b60405161027791906140bf565b34801561066c57600080fd5b506102a061067b366004613b4f565b611cb7565b34801561068c57600080fd5b506106a061069b366004613c23565b611d5c565b6040516102779897969594939291906140e2565b3480156106c057600080fd5b506106d46106cf366004613b4f565b611e39565b604051610277989796959493929190614140565b3480156106f457600080fd5b50610312610703366004613c23565b6101346020526000908152604090205481565b34801561072257600080fd5b50610736610731366004613b4f565b611f20565b604051610277929190614211565b34801561075057600080fd5b506102a061075f366004613da7565b612196565b610312610772366004614236565b6121bb565b34801561078357600080fd5b50610797610792366004613c23565b6123e5565b60405161027791906142d6565b3480156107b057600080fd5b506102a06107bf366004613c51565b612565565b6102a06107d23660046142e9565b6125db565b3480156107e357600080fd5b5061031261012e5481565b3480156107fa57600080fd5b5061026b610809366004613c51565b6001600160a01b03166000908152610135602052604090205460ff1690565b60006001600160e01b03198216637965db0b60e01b148061085957506301ffc9a760e01b6001600160e01b03198316145b92915050565b61012f5482906001600160a01b0316632fa117e58261087c6128b7565b6040516001600160e01b031960e085901b16815260048101929092526001600160a01b03166024820152604401602060405180830381865afa1580156108c6573d6000803e3d6000fd5b505050506040513d601f19601f820116820180604052508101906108ea9190614396565b61090f5760405162461bcd60e51b8152600401610906906143b3565b60405180910390fd5b600082815261013160205260409020600181015484146109615760405162461bcd60e51b815260206004820152600d60248201526c3737ba103a34329037bbb732b960991b6044820152606401610906565b6000815460ff16600481111561097957610979613fcd565b146109be5760405162461bcd60e51b81526020600482015260156024820152741cdd185d1d5cc81b5d5cdd081899481bdc195b9959605a1b6044820152606401610906565b805460ff191660031781556040518381527f853aa4be1ac86f37acfc91d42b57f1fe895205aa6f8f9b7caa77ca257049ab1a9060200160405180910390a150505050565b61012f5487906001600160a01b0316632fa117e582610a1f6128b7565b6040516001600160e01b031960e085901b16815260048101929092526001600160a01b03166024820152604401602060405180830381865afa158015610a69573d6000803e3d6000fd5b505050506040513d601f19601f82011682018060405250810190610a8d9190614396565b610aa95760405162461bcd60e51b8152600401610906906143b3565b60008781526101316020908152604080832061013283528184208c855290925282209091825460ff166004811115610ae357610ae3613fcd565b14610b255760405162461bcd60e51b815260206004820152601260248201527114d95c9d9a58d9481b9bdd081bdc195b995960721b6044820152606401610906565b89816001015414610b685760405162461bcd60e51b815260206004820152600d60248201526c2737ba103a34329037bbb732b960991b6044820152606401610906565b602e8614610b885760405162461bcd60e51b8152600401610906906143e2565b6001815460ff166001811115610ba057610ba0613fcd565b03610be15760405162461bcd60e51b8152602060048201526011602482015270105b1c9958591e481d985b1a59185d1959607a1b6044820152606401610906565b60068201546001600160a01b031660009081526101356020526040902060010154881015610c425760405162461bcd60e51b815260206004820152600e60248201526d416d6f756e7420746f6f206c6f7760901b6044820152606401610906565b8315610ca55761012f5460405162f577a560e81b8152600481018690526001600160a01b039091169063f577a5009060240160006040518083038186803b158015610c8c57600080fd5b505afa158015610ca0573d6000803e3d6000fd5b505050505b6003810188905560058101610cbb878983614487565b5060068101859055600781018490556040517fa88be037662d2f39c82fc0ded6550530e1271d417223b107c2ef4d5d38cc703d90610d06908b908d908b908b908e908c908c90614571565b60405180910390a150505050505050505050565b610d226128c6565b6001600160a01b038116600081815260656020908152604091829020805460ff1916600117905590519182527f3ef8564460ada92419608d823c014975d98f8104d7d1e68c222967ac6814cd9791015b60405180910390a150565b61012f5460009088906001600160a01b0316632fa117e582610d9d6128b7565b6040516001600160e01b031960e085901b16815260048101929092526001600160a01b03166024820152604401602060405180830381865afa158015610de7573d6000803e3d6000fd5b505050506040513d601f19601f82011682018060405250810190610e0b9190614396565b610e275760405162461bcd60e51b8152600401610906906143b3565b610e368989898989898961293f565b61012e80549081906000610e49836145c6565b9091555050600081815261013160205260409020805460ff19168155600181018b905560038101610e7b898b83614487565b50600581018a90556006810180546001600160a01b0319166001600160a01b03871617905560008b81526101336020526040902054158015610eca575060008b81526101346020526040902054155b15610f2f5761012f546040516383ce205b60e01b8152600481018d90526001600160a01b03909116906383ce205b90602401600060405180830381600087803b158015610f1657600080fd5b505af1158015610f2a573d6000803e3d6000fd5b505050505b60008b815261013360205260408120805491610f4a836145c6565b91905055507f8f3fc1086abc1020f602edd700a9ae5801b250c9d110af9e54022d7cc5df7bee828c8c8c8c604051610f869594939291906145df565b60405180910390a1509998505050505050505050565b61012f5489906001600160a01b0316632fa117e582610fb96128b7565b6040516001600160e01b031960e085901b16815260048101929092526001600160a01b03166024820152604401602060405180830381865afa158015611003573d6000803e3d6000fd5b505050506040513d601f19601f820116820180604052508101906110279190614396565b6110435760405162461bcd60e51b8152600401610906906143b3565b6110558a8a8a8a8a8a89896000612b48565b60408051610100810190915280600081526020018b815260200160006001600160a01b0316815260200189815260200188815260200187878080601f0160208091040260200160405190810160405280939291908181526020018383808284376000920182905250938552505050602080830188905260409283018290528c825261013281528282208e835290522081518154829060ff19166001838181111561110157611101613fcd565b02179055506020820151600182015560408201516002820180546001600160a01b0319166001600160a01b03909216919091179055606082015160038201556080820151600482015560a0820151600582019061115e9082614610565b5060c0820151600682015560e09091015160079091015560008a8152610133602052604090205415801561119f575060008a81526101346020526040902054155b156112045761012f546040516383ce205b60e01b8152600481018c90526001600160a01b03909116906383ce205b90602401600060405180830381600087803b1580156111eb57600080fd5b505af11580156111ff573d6000803e3d6000fd5b505050505b60008a81526101346020526040812080549161121f836145c6565b91905055507f16289a0cc7c29a09c916d6c3608c4e30344ccf2ea522ed2e3ad25c2b56c110be898b888860008d8d8b6000604051610d06999897969594939291906146d0565b600082815260fc602052604090206001015461128081612f21565b61128a8383612f32565b505050565b6112976128b7565b6001600160a01b0316816001600160a01b03161461130f5760405162461bcd60e51b815260206004820152602f60248201527f416363657373436f6e74726f6c3a2063616e206f6e6c792072656e6f756e636560448201526e103937b632b9903337b91039b2b63360891b6064820152608401610906565b6113198282612fb9565b5050565b6001600160a01b037f00000000000000000000000000000000000000000000000000000000000000001630036113655760405162461bcd60e51b815260040161090690614727565b7f00000000000000000000000000000000000000000000000000000000000000006001600160a01b03166113ae600080516020614a54833981519152546001600160a01b031690565b6001600160a01b0316146113d45760405162461bcd60e51b815260040161090690614773565b6113dd8161303e565b604080516000808252602082019092526113f991839190613046565b50565b6114046128c6565b6001600160a01b038116600081815260656020908152604091829020805460ff1916905590519182527fd2d636efcad0cea42e170256f4c5d8b1cd81e47b855557edaf44014e6cc4cee69101610d72565b600061146081612f21565b6101368290556040518281527f577d7afcf67637a2f602cba220bbb292c1d715380dd011bfec748c3f641b2fd29060200160405180910390a15050565b600054610100900460ff16158080156114bd5750600054600160ff909116105b806114d75750303b1580156114d7575060005460ff166001145b61153a5760405162461bcd60e51b815260206004820152602e60248201527f496e697469616c697a61626c653a20636f6e747261637420697320616c72656160448201526d191e481a5b9a5d1a585b1a5e995960921b6064820152608401610906565b6000805460ff19166001179055801561155d576000805461ff0019166101001790555b6115656131b1565b61156d6131e0565b6115756131e0565b61158760006115826128b7565b613207565b61012f80546001600160a01b038086166001600160a01b031992831617909255610130805492851692909116919091179055600161012e556115c9601e611455565b801561128a576000805461ff0019169055604051600181527f7f26b83ff96e1f2b6a682f133852f6798a09c465da95921460cefb3847402498906020015b60405180910390a1505050565b6001600160a01b037f000000000000000000000000000000000000000000000000000000000000000016300361165c5760405162461bcd60e51b815260040161090690614727565b7f00000000000000000000000000000000000000000000000000000000000000006001600160a01b03166116a5600080516020614a54833981519152546001600160a01b031690565b6001600160a01b0316146116cb5760405162461bcd60e51b815260040161090690614773565b6116d48261303e565b61131982826001613046565b6000306001600160a01b037f000000000000000000000000000000000000000000000000000000000000000016146117805760405162461bcd60e51b815260206004820152603860248201527f555550535570677261646561626c653a206d757374206e6f742062652063616c60448201527f6c6564207468726f7567682064656c656761746563616c6c00000000000000006064820152608401610906565b50600080516020614a5483398151915290565b61012f5486906001600160a01b0316632fa117e5826117b06128b7565b6040516001600160e01b031960e085901b16815260048101929092526001600160a01b03166024820152604401602060405180830381865afa1580156117fa573d6000803e3d6000fd5b505050506040513d601f19601f8201168201806040525081019061181e9190614396565b61183a5760405162461bcd60e51b8152600401610906906143b3565b6000868152610131602052604090206001810154881461188c5760405162461bcd60e51b815260206004820152600d60248201526c2737ba103a34329037bbb732b960991b6044820152606401610906565b6000815460ff1660048111156118a4576118a4613fcd565b146118e95760405162461bcd60e51b81526020600482015260156024820152741cdd185d1d5cc81b5d5cdd081899481bdc195b9959605a1b6044820152606401610906565b6001600160a01b0385166000908152610135602052604090205460ff166119465760405162461bcd60e51b8152602060048201526011602482015270151bdad95b881b9bdd08185b1b1bddd959607a1b6044820152606401610906565b602e83146119665760405162461bcd60e51b8152600401610906906143e2565b60038101611975848683614487565b50600781018690556006810180546001600160a01b0319166001600160a01b03871617905560405187907f28fa829815f1b7211c44ade0050d3930f8833364c2ae0c18d77bedc2ced9c3ab906119d290879087908b908b906147bf565b60405180910390a25050505050505050565b6119ec6128c6565b6119f66000613211565b565b611a006128c6565b6001600160a01b038316158015611a15575081155b15611a625760405162461bcd60e51b815260206004820152601d60248201527f4f776e65722063616e27742072656d6f7665204f7820616464726573730000006044820152606401610906565b6001600160a01b03831660008181526101356020908152604091829020805460ff19168615159081178255600190910185905582519384529083015281018290527f42b585a1da1cff4b571e7a78aea1b4601b1d128de41a0feebd8a77aaf48b9d8890606001611607565b600091825260fc602090815260408084206001600160a01b0393909316845291905290205460ff1690565b7f2fdac322ee704ce09f0773f7f3f92eb98d5e7c836ee9c056cccd5f61041e5e3f611b2281612f21565b60008481526101316020908152604080832061013283528184208785529092529091208154600160ff1991821681178455808301546002850155600484018690558254909183911682805b0217905550505050505050565b611b82613a87565b60008381526101326020908152604080832085845290915290819020815161010081019092528054829060ff166001811115611bc057611bc0613fcd565b6001811115611bd157611bd1613fcd565b81526001820154602082015260028201546001600160a01b03166040820152600382015460608201526004820154608082015260058201805460a090920191611c1990614407565b80601f0160208091040260200160405190810160405280929190818152602001828054611c4590614407565b8015611c925780601f10611c6757610100808354040283529160200191611c92565b820191906000526020600020905b815481529060010190602001808311611c7557829003601f168201915b5050505050815260200160068201548152602001600782015481525050905092915050565b7f2fdac322ee704ce09f0773f7f3f92eb98d5e7c836ee9c056cccd5f61041e5e3f611ce181612f21565b6000838152610131602090815260408083206101328352818420600282015485529092528220600381015491929091611d1b8660646147f4565b611d25919061480b565b9050610136548110611d4157825460ff19166002178355611d54565b8254600490849060ff1916600183611b6d565b505050505050565b61013160205260009081526040902080546001820154600283015460038401805460ff909416949293919291611d9190614407565b80601f0160208091040260200160405190810160405280929190818152602001828054611dbd90614407565b8015611e0a5780601f10611ddf57610100808354040283529160200191611e0a565b820191906000526020600020905b815481529060010190602001808311611ded57829003601f168201915b505050600484015460058501546006860154600790960154949591949093506001600160a01b03909116915088565b61013260209081526000928352604080842090915290825290208054600182015460028301546003840154600485015460058601805460ff9096169694956001600160a01b03909416949293919291611e9190614407565b80601f0160208091040260200160405190810160405280929190818152602001828054611ebd90614407565b8015611f0a5780601f10611edf57610100808354040283529160200191611f0a565b820191906000526020600020905b815481529060010190602001808311611eed57829003601f168201915b5050505050908060060154908060070154905088565b611f28613ad6565b611f30613a87565b60008481526101316020526040808220815161010081019092528054829060ff166004811115611f6257611f62613fcd565b6004811115611f7357611f73613fcd565b81526020016001820154815260200160028201548152602001600382018054611f9b90614407565b80601f0160208091040260200160405190810160405280929190818152602001828054611fc790614407565b80156120145780601f10611fe957610100808354040283529160200191612014565b820191906000526020600020905b815481529060010190602001808311611ff757829003601f168201915b50505091835250506004820154602080830191909152600583015460408084019190915260068401546001600160a01b03166060840152600790930154608090920191909152600088815261013282528281208882529091528181208251610100810190935280549394509092829060ff16600181111561209757612097613fcd565b60018111156120a8576120a8613fcd565b81526001820154602082015260028201546001600160a01b03166040820152600382015460608201526004820154608082015260058201805460a0909201916120f090614407565b80601f016020809104026020016040519081016040528092919081815260200182805461211c90614407565b80156121695780601f1061213e57610100808354040283529160200191612169565b820191906000526020600020905b81548152906001019060200180831161214c57829003601f168201915b505050918352505060068201546020820152600790910154604090910152919350909150505b9250929050565b600082815260fc60205260409020600101546121b181612f21565b61128a8383612fb9565b61012f5460009089906001600160a01b0316632fa117e5826121db6128b7565b6040516001600160e01b031960e085901b16815260048101929092526001600160a01b03166024820152604401602060405180830381865afa158015612225573d6000803e3d6000fd5b505050506040513d601f19601f820116820180604052508101906122499190614396565b6122655760405162461bcd60e51b8152600401610906906143b3565b6122748a8a8a8a8a8a8a61293f565b61012e80549081906000612287836145c6565b9091555050600081815261013160205260409020805460ff19168155600181018c9055600381016122b98a8c83614487565b50600581018b90556006810180546001600160a01b0319166001600160a01b0388161790556007810185905560008c8152610133602052604090205415801561230f575060008c81526101346020526040902054155b156123745761012f546040516383ce205b60e01b8152600481018e90526001600160a01b03909116906383ce205b90602401600060405180830381600087803b15801561235b57600080fd5b505af115801561236f573d6000803e3d6000fd5b505050505b60008c81526101336020526040812080549161238f836145c6565b9190505550817fd81631c5278947e7578ace67882f6a38af2d7e2fb4530b4b659c8e1cf1fe44728d8d8d8d8b8b6040516123ce9695949392919061482d565b60405180910390a2509a9950505050505050505050565b6123ed613ad6565b61012e54821061243f5760405162461bcd60e51b815260206004820152601a60248201527f54686973207365727669636520646f65736e27742065786973740000000000006044820152606401610906565b6000828152610131602052604090819020815161010081019092528054829060ff16600481111561247257612472613fcd565b600481111561248357612483613fcd565b815260200160018201548152602001600282015481526020016003820180546124ab90614407565b80601f01602080910402602001604051908101604052809291908181526020018280546124d790614407565b80156125245780601f106124f957610100808354040283529160200191612524565b820191906000526020600020905b81548152906001019060200180831161250757829003601f168201915b5050509183525050600482015460208201526005820154604082015260068201546001600160a01b0316606082015260079091015460809091015292915050565b61256d6128c6565b6001600160a01b0381166125d25760405162461bcd60e51b815260206004820152602660248201527f4f776e61626c653a206e6577206f776e657220697320746865207a65726f206160448201526564647265737360d01b6064820152608401610906565b6113f981613211565b61012f548a906001600160a01b0316632fa117e5826125f86128b7565b6040516001600160e01b031960e085901b16815260048101929092526001600160a01b03166024820152604401602060405180830381865afa158015612642573d6000803e3d6000fd5b505050506040513d601f19601f820116820180604052508101906126669190614396565b6126825760405162461bcd60e51b8152600401610906906143b3565b6126938b8b8b8b8b8b8a8a8a612b48565b60408051610100810190915280600081526020018c815260200160006001600160a01b031681526020018a815260200189815260200188888080601f0160208091040260200160405190810160405280939291908181526020018383808284376000920182905250938552505050602080830189905260409283018690528d825261013281528282208f835290522081518154829060ff19166001838181111561273f5761273f613fcd565b02179055506020820151600182015560408201516002820180546001600160a01b0319166001600160a01b03909216919091179055606082015160038201556080820151600482015560a0820151600582019061279c9082614610565b5060c0820151600682015560e09091015160079091015560008b815261013360205260409020541580156127dd575060008b81526101346020526040902054155b156128425761012f546040516383ce205b60e01b8152600481018d90526001600160a01b03909116906383ce205b90602401600060405180830381600087803b15801561282957600080fd5b505af115801561283d573d6000803e3d6000fd5b505050505b60008b81526101346020526040812080549161285d836145c6565b91905055507f16289a0cc7c29a09c916d6c3608c4e30344ccf2ea522ed2e3ad25c2b56c110be8a8c898960008e8e8c8a6040516128a2999897969594939291906146d0565b60405180910390a15050505050505050505050565b60006128c1613263565b905090565b6128ce6128b7565b6001600160a01b03166128e96033546001600160a01b031690565b6001600160a01b0316146119f65760405162461bcd60e51b815260206004820181905260248201527f4f776e61626c653a2063616c6c6572206973206e6f7420746865206f776e65726044820152606401610906565b61013054604051638a98636360e01b8152600481018890526000916001600160a01b031690638a98636390602401602060405180830381865afa15801561298a573d6000803e3d6000fd5b505050506040513d601f19601f820116820180604052508101906129ae919061486b565b90508034146129f45760405162461bcd60e51b81526020600482015260126024820152714e6f6e2d6d61746368696e672066756e647360701b6044820152606401610906565b602e8514612a145760405162461bcd60e51b8152600401610906906143e2565b6001600160a01b0382166000908152610135602052604090205460ff16612a715760405162461bcd60e51b8152602060048201526011602482015270151bdad95b881b9bdd08185b1b1bddd959607a1b6044820152606401610906565b61013054604051631fff7f2760e11b8152600481018990526000916001600160a01b031690633ffefe4e90602401602060405180830381865afa158015612abc573d6000803e3d6000fd5b505050506040513d601f19601f82011682018060405250810190612ae09190614884565b90506001600160a01b03811615612b3d57600089815261013360209081526040808320549051612b17928d92918c918c91016148a1565b604051602081830303815290604052805190602001209050612b3b8686838561329c565b505b505050505050505050565b61013054604051634a7ab1d560e01b8152600481018890526000916001600160a01b031690634a7ab1d590602401602060405180830381865afa158015612b93573d6000803e3d6000fd5b505050506040513d601f19601f82011682018060405250810190612bb7919061486b565b9050803414612bfd5760405162461bcd60e51b81526020600482015260126024820152714e6f6e2d6d61746368696e672066756e647360701b6044820152606401610906565b60008981526101316020908152604080832060068101546001600160a01b0316845261013590925290912060010154891015612c6c5760405162461bcd60e51b815260206004820152600e60248201526d416d6f756e7420746f6f206c6f7760901b6044820152606401610906565b6000815460ff166004811115612c8457612c84613fcd565b14612cc65760405162461bcd60e51b815260206004820152601260248201527114d95c9d9a58d9481b9bdd081bdc195b995960721b6044820152606401610906565b8060010154600003612d0e5760405162461bcd60e51b815260206004820152601160248201527014d95c9d9a58d9481b9bdd08195e1a5cdd607a1b6044820152606401610906565b60008a8152610132602090815260408083208e84529091529020600101548b9003612d745760405162461bcd60e51b81526020600482015260166024820152751c1c9bdc1bdcd85b08185b1c9958591e48195e1a5cdd60521b6044820152606401610906565b8a816001015403612dd15760405162461bcd60e51b815260206004820152602160248201527f63616e27742063726561746520666f7220796f7572206f776e207365727669636044820152606560f81b6064820152608401610906565b602e8614612df15760405162461bcd60e51b8152600401610906906143e2565b61013054604051631fff7f2760e11b8152600481018a90526000916001600160a01b031690633ffefe4e90602401602060405180830381865afa158015612e3c573d6000803e3d6000fd5b505050506040513d601f19601f82011682018060405250810190612e609190614884565b90506001600160a01b03811615612eb05760008c8c8a8a604051602001612e8a94939291906148e2565b604051602081830303815290604052805190602001209050612eae8787838561329c565b505b8315612f135761012f5460405162f577a560e81b8152600481018690526001600160a01b039091169063f577a5009060240160006040518083038186803b158015612efa57600080fd5b505afa158015612f0e573d6000803e3d6000fd5b505050505b505050505050505050505050565b6113f981612f2d6128b7565b613390565b612f3c8282611acd565b61131957600082815260fc602090815260408083206001600160a01b03851684529091529020805460ff19166001179055612f756128b7565b6001600160a01b0316816001600160a01b0316837f2f8788117e7eff1d82e926ec794901d17c78024a50270940304540a733656f0d60405160405180910390a45050565b612fc38282611acd565b1561131957600082815260fc602090815260408083206001600160a01b03851684529091529020805460ff19169055612ffa6128b7565b6001600160a01b0316816001600160a01b0316837ff6391f5c32d9c69d2a47ea670b442974b53935d1edc7fd64eb21e047a839171b60405160405180910390a45050565b6113f96128c6565b7f4910fdfa16fed3260ed0e7147f7cc6da11a60208b5b9406d12a635614ffd91435460ff16156130795761128a836133e9565b826001600160a01b03166352d1902d6040518163ffffffff1660e01b8152600401602060405180830381865afa9250505080156130d3575060408051601f3d908101601f191682019092526130d09181019061486b565b60015b6131365760405162461bcd60e51b815260206004820152602e60248201527f45524331393637557067726164653a206e657720696d706c656d656e7461746960448201526d6f6e206973206e6f74205555505360901b6064820152608401610906565b600080516020614a5483398151915281146131a55760405162461bcd60e51b815260206004820152602960248201527f45524331393637557067726164653a20756e737570706f727465642070726f786044820152681a58589b195555525160ba1b6064820152608401610906565b5061128a838383613485565b600054610100900460ff166131d85760405162461bcd60e51b815260040161090690614924565b6119f66134b0565b600054610100900460ff166119f65760405162461bcd60e51b815260040161090690614924565b6113198282612f32565b603380546001600160a01b038381166001600160a01b0319831681179093556040519116919082907f8be0079c531659141344cd1fd0a4f28419497f9722a3daafe3b4186f6b6457e090600090a35050565b60006014361080159061328557503360009081526065602052604090205460ff165b15613297575060131936013560601c90565b503390565b60006132f5836040517f19457468657265756d205369676e6564204d6573736167653a0a3332000000006020820152603c8101829052600090605c01604051602081830303815290604052805190602001209050919050565b905060006133398287878080601f0160208091040260200160405190810160405280939291908181526020018383808284376000920191909152506134e792505050565b9050806001600160a01b0316836001600160a01b031614611d545760405162461bcd60e51b8152602060048201526011602482015270696e76616c6964207369676e617475726560781b6044820152606401610906565b61339a8282611acd565b611319576133a78161350b565b6133b283602061351d565b6040516020016133c392919061496f565b60408051601f198184030181529082905262461bcd60e51b8252610906916004016149e4565b6001600160a01b0381163b6134565760405162461bcd60e51b815260206004820152602d60248201527f455243313936373a206e657720696d706c656d656e746174696f6e206973206e60448201526c1bdd08184818dbdb9d1c9858dd609a1b6064820152608401610906565b600080516020614a5483398151915280546001600160a01b0319166001600160a01b0392909216919091179055565b61348e836136c0565b60008251118061349b5750805b1561128a576134aa8383613700565b50505050565b600054610100900460ff166134d75760405162461bcd60e51b815260040161090690614924565b6119f66134e26128b7565b613211565b60008060006134f685856137f4565b9150915061350381613836565b509392505050565b60606108596001600160a01b03831660145b6060600061352c8360026147f4565b6135379060026149f7565b67ffffffffffffffff81111561354f5761354f613e05565b6040519080825280601f01601f191660200182016040528015613579576020820181803683370190505b509050600360fc1b8160008151811061359457613594614a0a565b60200101906001600160f81b031916908160001a905350600f60fb1b816001815181106135c3576135c3614a0a565b60200101906001600160f81b031916908160001a90535060006135e78460026147f4565b6135f29060016149f7565b90505b600181111561366a576f181899199a1a9b1b9c1cb0b131b232b360811b85600f166010811061362657613626614a0a565b1a60f81b82828151811061363c5761363c614a0a565b60200101906001600160f81b031916908160001a90535060049490941c9361366381614a20565b90506135f5565b5083156136b95760405162461bcd60e51b815260206004820181905260248201527f537472696e67733a20686578206c656e67746820696e73756666696369656e746044820152606401610906565b9392505050565b6136c9816133e9565b6040516001600160a01b038216907fbc7cd75a20ee27fd9adebab32041f755214dbc6bffa90cc0225b39da2e5c2d3b90600090a250565b60606001600160a01b0383163b6137685760405162461bcd60e51b815260206004820152602660248201527f416464726573733a2064656c65676174652063616c6c20746f206e6f6e2d636f6044820152651b9d1c9858dd60d21b6064820152608401610906565b600080846001600160a01b0316846040516137839190614a37565b600060405180830381855af49150503d80600081146137be576040519150601f19603f3d011682016040523d82523d6000602084013e6137c3565b606091505b50915091506137eb8282604051806060016040528060278152602001614a7460279139613980565b95945050505050565b600080825160410361382a5760208301516040840151606085015160001a61381e87828585613999565b9450945050505061218f565b5060009050600261218f565b600081600481111561384a5761384a613fcd565b036138525750565b600181600481111561386657613866613fcd565b036138b35760405162461bcd60e51b815260206004820152601860248201527f45434453413a20696e76616c6964207369676e617475726500000000000000006044820152606401610906565b60028160048111156138c7576138c7613fcd565b036139145760405162461bcd60e51b815260206004820152601f60248201527f45434453413a20696e76616c6964207369676e6174757265206c656e677468006044820152606401610906565b600381600481111561392857613928613fcd565b036113f95760405162461bcd60e51b815260206004820152602260248201527f45434453413a20696e76616c6964207369676e6174757265202773272076616c604482015261756560f01b6064820152608401610906565b6060831561398f5750816136b9565b6136b98383613a5d565b6000807f7fffffffffffffffffffffffffffffff5d576e7357a4501ddfe92f46681b20a08311156139d05750600090506003613a54565b6040805160008082526020820180845289905260ff881692820192909252606081018690526080810185905260019060a0016020604051602081039080840390855afa158015613a24573d6000803e3d6000fd5b5050604051601f1901519150506001600160a01b038116613a4d57600060019250925050613a54565b9150600090505b94509492505050565b815115613a6d5781518083602001fd5b8060405162461bcd60e51b815260040161090691906149e4565b60408051610100810190915280600081526020016000815260200160006001600160a01b0316815260200160008152602001600081526020016060815260200160008152602001600081525090565b6040805161010081019091528060008152602001600081526020016000815260200160608152602001600081526020016000815260200160006001600160a01b03168152602001600081525090565b600060208284031215613b3757600080fd5b81356001600160e01b0319811681146136b957600080fd5b60008060408385031215613b6257600080fd5b50508035926020909101359150565b60008083601f840112613b8357600080fd5b50813567ffffffffffffffff811115613b9b57600080fd5b60208301915083602082850101111561218f57600080fd5b600080600080600080600060c0888a031215613bce57600080fd5b873596506020880135955060408801359450606088013567ffffffffffffffff811115613bfa57600080fd5b613c068a828b01613b71565b989b979a50959895979660808701359660a0013595509350505050565b600060208284031215613c3557600080fd5b5035919050565b6001600160a01b03811681146113f957600080fd5b600060208284031215613c6357600080fd5b81356136b981613c3c565b600080600080600080600060a0888a031215613c8957600080fd5b8735965060208801359550604088013567ffffffffffffffff80821115613caf57600080fd5b613cbb8b838c01613b71565b909750955060608a0135915080821115613cd457600080fd5b50613ce18a828b01613b71565b9094509250506080880135613cf581613c3c565b8091505092959891949750929550565b600080600080600080600080600060e08a8c031215613d2357600080fd5b8935985060208a0135975060408a0135965060608a0135955060808a013567ffffffffffffffff80821115613d5757600080fd5b613d638d838e01613b71565b909750955060a08c0135945060c08c0135915080821115613d8357600080fd5b50613d908c828d01613b71565b915080935050809150509295985092959850929598565b60008060408385031215613dba57600080fd5b823591506020830135613dcc81613c3c565b809150509250929050565b60008060408385031215613dea57600080fd5b8235613df581613c3c565b91506020830135613dcc81613c3c565b634e487b7160e01b600052604160045260246000fd5b60008060408385031215613e2e57600080fd5b8235613e3981613c3c565b9150602083013567ffffffffffffffff80821115613e5657600080fd5b818501915085601f830112613e6a57600080fd5b813581811115613e7c57613e7c613e05565b604051601f8201601f19908116603f01168101908382118183101715613ea457613ea4613e05565b81604052828152886020848701011115613ebd57600080fd5b8260208601602083013760006020848301015280955050505050509250929050565b60008060008060008060a08789031215613ef857600080fd5b8635955060208701359450604087013593506060870135613f1881613c3c565b9250608087013567ffffffffffffffff811115613f3457600080fd5b613f4089828a01613b71565b979a9699509497509295939492505050565b80151581146113f957600080fd5b600080600060608486031215613f7557600080fd5b8335613f8081613c3c565b92506020840135613f9081613f52565b929592945050506040919091013590565b600080600060608486031215613fb657600080fd5b505081359360208301359350604090920135919050565b634e487b7160e01b600052602160045260246000fd5b60028110613ff357613ff3613fcd565b9052565b60005b83811015614012578181015183820152602001613ffa565b50506000910152565b60008151808452614033816020860160208601613ff7565b601f01601f19169290920160200192915050565b6000610100614057848451613fe3565b6020830151602085015260018060a01b036040840151166040850152606083015160608501526080830151608085015260a08301518160a086015261409e8286018261401b565b91505060c083015160c085015260e083015160e08501528091505092915050565b6020815260006136b96020830184614047565b60058110613ff357613ff3613fcd565b60006101006140f1838c6140d2565b89602084015288604084015280606084015261410f8184018961401b565b6080840197909752505060a08101939093526001600160a01b039190911660c083015260e090910152949350505050565b600061010061414f838c613fe3565b89602084015260018060a01b03891660408401528760608401528660808401528060a08401526141818184018761401b565b60c0840195909552505060e001529695505050505050565b60006101006141a98484516140d2565b602083015160208501526040830151604085015260608301518160608601526141d48286018261401b565b6080858101519087015260a0808601519087015260c0808601516001600160a01b03169087015260e0948501519490950193909352509192915050565b6040815260006142246040830185614199565b82810360208401526137eb8185614047565b60008060008060008060008060c0898b03121561425257600080fd5b8835975060208901359650604089013567ffffffffffffffff8082111561427857600080fd5b6142848c838d01613b71565b909850965060608b013591508082111561429d57600080fd5b506142aa8b828c01613b71565b90955093505060808901356142be81613c3c565b8092505060a089013590509295985092959890939650565b6020815260006136b96020830184614199565b6000806000806000806000806000806101008b8d03121561430957600080fd5b8a35995060208b0135985060408b0135975060608b0135965060808b013567ffffffffffffffff8082111561433d57600080fd5b6143498e838f01613b71565b909850965060a08d0135955060c08d013591508082111561436957600080fd5b506143768d828e01613b71565b9150809450508092505060e08b013590509295989b9194979a5092959850565b6000602082840312156143a857600080fd5b81516136b981613f52565b6020808252601590820152744e6f74206f776e6572206f722064656c656761746560581b604082015260600190565b6020808252600b908201526a125b9d985b1a590818da5960aa1b604082015260600190565b600181811c9082168061441b57607f821691505b60208210810361443b57634e487b7160e01b600052602260045260246000fd5b50919050565b601f82111561128a57600081815260208120601f850160051c810160208610156144685750805b601f850160051c820191505b81811015611d5457828155600101614474565b67ffffffffffffffff83111561449f5761449f613e05565b6144b3836144ad8354614407565b83614441565b6000601f8411600181146144e757600085156144cf5750838201355b600019600387901b1c1916600186901b178355614541565b600083815260209020601f19861690835b8281101561451857868501358255602094850194600190920191016144f8565b50868210156145355760001960f88860031b161c19848701351681555b505060018560011b0183555b5050505050565b81835281816020850137506000828201602090810191909152601f909101601f19169091010190565b87815286602082015260c06040820152600061459160c083018789614548565b606083019590955250608081019290925260a090910152949350505050565b634e487b7160e01b600052601160045260246000fd5b6000600182016145d8576145d86145b0565b5060010190565b858152846020820152836040820152608060608201526000614605608083018486614548565b979650505050505050565b815167ffffffffffffffff81111561462a5761462a613e05565b61463e816146388454614407565b84614441565b602080601f831160018114614673576000841561465b5750858301515b600019600386901b1c1916600185901b178555611d54565b600085815260208120601f198616915b828110156146a257888601518255948401946001909101908401614683565b50858210156146c05787850151600019600388901b60f8161c191681555b5050505050600190811b01905550565b60006101008b83528a60208401528060408401526146f18184018a8c614548565b9150506147016060830188613fe3565b8560808301528460a08301528360c08301528260e08301529a9950505050505050505050565b6020808252602c908201527f46756e6374696f6e206d7573742062652063616c6c6564207468726f7567682060408201526b19195b1959d85d1958d85b1b60a21b606082015260800190565b6020808252602c908201527f46756e6374696f6e206d7573742062652063616c6c6564207468726f7567682060408201526b6163746976652070726f787960a01b606082015260800190565b6060815260006147d3606083018688614548565b6020830194909452506001600160a01b039190911660409091015292915050565b8082028115828204841417610859576108596145b0565b60008261482857634e487b7160e01b600052601260045260246000fd5b500490565b86815285602082015260a06040820152600061484d60a083018688614548565b6001600160a01b039490941660608301525060800152949350505050565b60006020828403121561487d57600080fd5b5051919050565b60006020828403121561489657600080fd5b81516136b981613c3c565b6c6372656174655365727669636560981b815284600d820152603b60f81b602d82015283602e8201528183604e83013760009101604e019081529392505050565b6d18dc99585d19541c9bdc1bdcd85b60921b815284600e820152603b60f81b602e82015283602f8201528183604f83013760009101604f019081529392505050565b6020808252602b908201527f496e697469616c697a61626c653a20636f6e7472616374206973206e6f74206960408201526a6e697469616c697a696e6760a81b606082015260800190565b7f416363657373436f6e74726f6c3a206163636f756e74200000000000000000008152600083516149a7816017850160208801613ff7565b7001034b99036b4b9b9b4b733903937b6329607d1b60179184019182015283516149d8816028840160208801613ff7565b01602801949350505050565b6020815260006136b9602083018461401b565b80820180821115610859576108596145b0565b634e487b7160e01b600052603260045260246000fd5b600081614a2f57614a2f6145b0565b506000190190565b60008251614a49818460208701613ff7565b919091019291505056fe360894a13ba1a3210667c828492db98dca3e2076cc3735a920a3ca505d382bbc416464726573733a206c6f772d6c6576656c2064656c65676174652063616c6c206661696c6564a26469706673582212200558c7d2036cfb42b4903be20a6827c6d45839ff947eca7941f3fb9c36727d7664736f6c63430008110033",
  "linkReferences": {},
  "deployedLinkReferences": {}
}