{
  "_format": "hh-sol-artifact-1",
  "contractName": "TalentLayerEscrow",
  "sourceName": "contracts/TalentLayerEscrow.sol",
  "abi": [
    {
      "inputs": [],
      "stateMutability": "nonpayable",
      "type": "constructor"
    },
    {
      "anonymous": false,
      "inputs": [
        {
          "indexed": false,
          "internalType": "address",
          "name": "previousAdmin",
          "type": "address"
        },
        {
          "indexed": false,
          "internalType": "address",
          "name": "newAdmin",
          "type": "address"
        }
      ],
      "name": "AdminChanged",
      "type": "event"
    },
    {
      "anonymous": false,
      "inputs": [
        {
          "indexed": true,
          "internalType": "uint256",
          "name": "_transactionId",
          "type": "uint256"
        },
        {
          "indexed": false,
          "internalType": "enum TalentLayerEscrow.ArbitrationFeePaymentType",
          "name": "_paymentType",
          "type": "uint8"
        },
        {
          "indexed": false,
          "internalType": "enum TalentLayerEscrow.Party",
          "name": "_party",
          "type": "uint8"
        },
        {
          "indexed": false,
          "internalType": "uint256",
          "name": "_amount",
          "type": "uint256"
        }
      ],
      "name": "ArbitrationFeePayment",
      "type": "event"
    },
    {
      "anonymous": false,
      "inputs": [
        {
          "indexed": true,
          "internalType": "address",
          "name": "beacon",
          "type": "address"
        }
      ],
      "name": "BeaconUpgraded",
      "type": "event"
    },
    {
      "anonymous": false,
      "inputs": [
        {
          "indexed": true,
          "internalType": "contract Arbitrator",
          "name": "_arbitrator",
          "type": "address"
        },
        {
          "indexed": true,
          "internalType": "uint256",
          "name": "_disputeID",
          "type": "uint256"
        },
        {
          "indexed": false,
          "internalType": "uint256",
          "name": "_metaEvidenceID",
          "type": "uint256"
        },
        {
          "indexed": false,
          "internalType": "uint256",
          "name": "_evidenceGroupID",
          "type": "uint256"
        }
      ],
      "name": "Dispute",
      "type": "event"
    },
    {
      "anonymous": false,
      "inputs": [
        {
          "indexed": true,
          "internalType": "contract Arbitrator",
          "name": "_arbitrator",
          "type": "address"
        },
        {
          "indexed": true,
          "internalType": "uint256",
          "name": "_evidenceGroupID",
          "type": "uint256"
        },
        {
          "indexed": true,
          "internalType": "address",
          "name": "_party",
          "type": "address"
        },
        {
          "indexed": false,
          "internalType": "string",
          "name": "_evidence",
          "type": "string"
        }
      ],
      "name": "Evidence",
      "type": "event"
    },
    {
      "anonymous": false,
      "inputs": [
        {
          "indexed": true,
          "internalType": "uint256",
          "name": "_transactionId",
          "type": "uint256"
        },
        {
          "indexed": true,
          "internalType": "uint256",
          "name": "_partyId",
          "type": "uint256"
        },
        {
          "indexed": false,
          "internalType": "string",
          "name": "_evidenceUri",
          "type": "string"
        }
      ],
      "name": "EvidenceSubmitted",
      "type": "event"
    },
    {
      "anonymous": false,
      "inputs": [
        {
          "indexed": false,
          "internalType": "uint256",
          "name": "_platformId",
          "type": "uint256"
        },
        {
          "indexed": true,
          "internalType": "address",
          "name": "_token",
          "type": "address"
        },
        {
          "indexed": false,
          "internalType": "uint256",
          "name": "_amount",
          "type": "uint256"
        }
      ],
      "name": "FeesClaimed",
      "type": "event"
    },
    {
      "anonymous": false,
      "inputs": [
        {
          "indexed": true,
          "internalType": "uint256",
          "name": "_transactionId",
          "type": "uint256"
        },
        {
          "indexed": false,
          "internalType": "enum TalentLayerEscrow.Party",
          "name": "_party",
          "type": "uint8"
        }
      ],
      "name": "HasToPayFee",
      "type": "event"
    },
    {
      "anonymous": false,
      "inputs": [
        {
          "indexed": false,
          "internalType": "uint8",
          "name": "version",
          "type": "uint8"
        }
      ],
      "name": "Initialized",
      "type": "event"
    },
    {
      "anonymous": false,
      "inputs": [
        {
          "indexed": true,
          "internalType": "uint256",
          "name": "_metaEvidenceID",
          "type": "uint256"
        },
        {
          "indexed": false,
          "internalType": "string",
          "name": "_evidence",
          "type": "string"
        }
      ],
      "name": "MetaEvidence",
      "type": "event"
    },
    {
      "anonymous": false,
      "inputs": [
        {
          "indexed": false,
          "internalType": "uint256",
          "name": "_platformId",
          "type": "uint256"
        },
        {
          "indexed": false,
          "internalType": "uint256",
          "name": "_serviceId",
          "type": "uint256"
        },
        {
          "indexed": true,
          "internalType": "address",
          "name": "_token",
          "type": "address"
        },
        {
          "indexed": false,
          "internalType": "uint256",
          "name": "_amount",
          "type": "uint256"
        }
      ],
      "name": "OriginServiceFeeRateReleased",
      "type": "event"
    },
    {
      "anonymous": false,
      "inputs": [
        {
          "indexed": false,
          "internalType": "uint256",
          "name": "_platformId",
          "type": "uint256"
        },
        {
          "indexed": false,
          "internalType": "uint256",
          "name": "_serviceId",
          "type": "uint256"
        },
        {
          "indexed": true,
          "internalType": "address",
          "name": "_token",
          "type": "address"
        },
        {
          "indexed": false,
          "internalType": "uint256",
          "name": "_amount",
          "type": "uint256"
        }
      ],
      "name": "OriginValidatedProposalFeeRateReleased",
      "type": "event"
    },
    {
      "anonymous": false,
      "inputs": [
        {
          "indexed": true,
          "internalType": "address",
          "name": "previousOwner",
          "type": "address"
        },
        {
          "indexed": true,
          "internalType": "address",
          "name": "newOwner",
          "type": "address"
        }
      ],
      "name": "OwnershipTransferred",
      "type": "event"
    },
    {
      "anonymous": false,
      "inputs": [
        {
          "indexed": false,
          "internalType": "uint256",
          "name": "_transactionId",
          "type": "uint256"
        },
        {
          "indexed": false,
          "internalType": "enum TalentLayerEscrow.PaymentType",
          "name": "_paymentType",
          "type": "uint8"
        },
        {
          "indexed": false,
          "internalType": "address",
          "name": "_token",
          "type": "address"
        },
        {
          "indexed": false,
          "internalType": "uint256",
          "name": "_amount",
          "type": "uint256"
        },
        {
          "indexed": false,
          "internalType": "uint256",
          "name": "_serviceId",
          "type": "uint256"
        }
      ],
      "name": "Payment",
      "type": "event"
    },
    {
      "anonymous": false,
      "inputs": [
        {
          "indexed": false,
          "internalType": "uint256",
          "name": "_serviceId",
          "type": "uint256"
        }
      ],
      "name": "PaymentCompleted",
      "type": "event"
    },
    {
      "anonymous": false,
      "inputs": [
        {
          "indexed": false,
          "internalType": "uint16",
          "name": "_protocolEscrowFeeRate",
          "type": "uint16"
        }
      ],
      "name": "ProtocolEscrowFeeRateUpdated",
      "type": "event"
    },
    {
      "anonymous": false,
      "inputs": [
        {
          "indexed": true,
          "internalType": "contract Arbitrator",
          "name": "_arbitrator",
          "type": "address"
        },
        {
          "indexed": true,
          "internalType": "uint256",
          "name": "_disputeID",
          "type": "uint256"
        },
        {
          "indexed": false,
          "internalType": "uint256",
          "name": "_ruling",
          "type": "uint256"
        }
      ],
      "name": "Ruling",
      "type": "event"
    },
    {
      "anonymous": false,
      "inputs": [
        {
          "indexed": true,
          "internalType": "uint256",
          "name": "_transactionId",
          "type": "uint256"
        },
        {
          "indexed": false,
          "internalType": "uint256",
          "name": "_ruling",
          "type": "uint256"
        }
      ],
      "name": "RulingExecuted",
      "type": "event"
    },
    {
      "anonymous": false,
      "inputs": [
        {
          "indexed": false,
          "internalType": "uint256",
          "name": "_transactionId",
          "type": "uint256"
        },
        {
          "indexed": false,
          "internalType": "uint256",
          "name": "_senderId",
          "type": "uint256"
        },
        {
          "indexed": false,
          "internalType": "uint256",
          "name": "_receiverId",
          "type": "uint256"
        },
        {
          "indexed": false,
          "internalType": "address",
          "name": "_token",
          "type": "address"
        },
        {
          "indexed": false,
          "internalType": "uint256",
          "name": "_amount",
          "type": "uint256"
        },
        {
          "indexed": false,
          "internalType": "uint256",
          "name": "_serviceId",
          "type": "uint256"
        },
        {
          "indexed": false,
          "internalType": "uint256",
          "name": "_proposalId",
          "type": "uint256"
        },
        {
          "indexed": false,
          "internalType": "uint16",
          "name": "_protocolEscrowFeeRate",
          "type": "uint16"
        },
        {
          "indexed": false,
          "internalType": "uint16",
          "name": "_originServiceFeeRate",
          "type": "uint16"
        },
        {
          "indexed": false,
          "internalType": "uint16",
          "name": "_originValidatedProposalFeeRate",
          "type": "uint16"
        },
        {
          "indexed": false,
          "internalType": "contract Arbitrator",
          "name": "_arbitrator",
          "type": "address"
        },
        {
          "indexed": false,
          "internalType": "bytes",
          "name": "_arbitratorExtraData",
          "type": "bytes"
        },
        {
          "indexed": false,
          "internalType": "uint256",
          "name": "_arbitrationFeeTimeout",
          "type": "uint256"
        }
      ],
      "name": "TransactionCreated",
      "type": "event"
    },
    {
      "anonymous": false,
      "inputs": [
        {
          "indexed": false,
          "internalType": "address",
          "name": "forwarder",
          "type": "address"
        }
      ],
      "name": "TrustedForwarderAdded",
      "type": "event"
    },
    {
      "anonymous": false,
      "inputs": [
        {
          "indexed": false,
          "internalType": "address",
          "name": "forwarder",
          "type": "address"
        }
      ],
      "name": "TrustedForwarderRemoved",
      "type": "event"
    },
    {
      "anonymous": false,
      "inputs": [
        {
          "indexed": true,
          "internalType": "address",
          "name": "implementation",
          "type": "address"
        }
      ],
      "name": "Upgraded",
      "type": "event"
    },
    {
      "inputs": [
        {
          "internalType": "address",
          "name": "_forwarder",
          "type": "address"
        }
      ],
      "name": "addTrustedForwarder",
      "outputs": [],
      "stateMutability": "nonpayable",
      "type": "function"
    },
    {
      "inputs": [
        {
          "internalType": "uint256",
          "name": "_transactionId",
          "type": "uint256"
        }
      ],
      "name": "appeal",
      "outputs": [],
      "stateMutability": "payable",
      "type": "function"
    },
    {
      "inputs": [
        {
          "internalType": "uint256",
          "name": "_transactionId",
          "type": "uint256"
        }
      ],
      "name": "arbitrationFeeTimeout",
      "outputs": [],
      "stateMutability": "nonpayable",
      "type": "function"
    },
    {
      "inputs": [
        {
          "internalType": "uint256",
          "name": "_platformId",
          "type": "uint256"
        },
        {
          "internalType": "address",
          "name": "_tokenAddress",
          "type": "address"
        }
      ],
      "name": "claim",
      "outputs": [],
      "stateMutability": "nonpayable",
      "type": "function"
    },
    {
      "inputs": [
        {
          "internalType": "uint256",
          "name": "_platformId",
          "type": "uint256"
        }
      ],
      "name": "claimAll",
      "outputs": [],
      "stateMutability": "nonpayable",
      "type": "function"
    },
    {
      "inputs": [
        {
          "internalType": "uint256",
          "name": "_serviceId",
          "type": "uint256"
        },
        {
          "internalType": "uint256",
          "name": "_proposalId",
          "type": "uint256"
        },
        {
          "internalType": "string",
          "name": "_metaEvidence",
          "type": "string"
        },
        {
          "internalType": "string",
          "name": "_originDataUri",
          "type": "string"
        }
      ],
      "name": "createTransaction",
      "outputs": [
        {
          "internalType": "uint256",
          "name": "",
          "type": "uint256"
        }
      ],
      "stateMutability": "payable",
      "type": "function"
    },
    {
      "inputs": [
        {
          "internalType": "uint256",
          "name": "",
          "type": "uint256"
        }
      ],
      "name": "disputeIDtoTransactionID",
      "outputs": [
        {
          "internalType": "uint256",
          "name": "",
          "type": "uint256"
        }
      ],
      "stateMutability": "view",
      "type": "function"
    },
    {
      "inputs": [
        {
          "internalType": "address",
          "name": "_token",
          "type": "address"
        }
      ],
      "name": "getClaimableFeeBalance",
      "outputs": [
        {
          "internalType": "uint256",
          "name": "balance",
          "type": "uint256"
        }
      ],
      "stateMutability": "view",
      "type": "function"
    },
    {
      "inputs": [
        {
          "internalType": "uint256",
          "name": "_transactionId",
          "type": "uint256"
        }
      ],
      "name": "getTransactionDetails",
      "outputs": [
        {
          "components": [
            {
              "internalType": "uint256",
              "name": "id",
              "type": "uint256"
            },
            {
              "internalType": "address",
              "name": "sender",
              "type": "address"
            },
            {
              "internalType": "address",
              "name": "receiver",
              "type": "address"
            },
            {
              "internalType": "address",
              "name": "token",
              "type": "address"
            },
            {
              "internalType": "uint256",
              "name": "amount",
              "type": "uint256"
            },
            {
              "internalType": "uint256",
              "name": "serviceId",
              "type": "uint256"
            },
            {
              "internalType": "uint256",
              "name": "proposalId",
              "type": "uint256"
            },
            {
              "internalType": "uint16",
              "name": "protocolEscrowFeeRate",
              "type": "uint16"
            },
            {
              "internalType": "uint16",
              "name": "originServiceFeeRate",
              "type": "uint16"
            },
            {
              "internalType": "uint16",
              "name": "originValidatedProposalFeeRate",
              "type": "uint16"
            },
            {
              "internalType": "contract Arbitrator",
              "name": "arbitrator",
              "type": "address"
            },
            {
              "internalType": "enum TalentLayerEscrow.Status",
              "name": "status",
              "type": "uint8"
            },
            {
              "internalType": "uint256",
              "name": "disputeId",
              "type": "uint256"
            },
            {
              "internalType": "uint256",
              "name": "senderFee",
              "type": "uint256"
            },
            {
              "internalType": "uint256",
              "name": "receiverFee",
              "type": "uint256"
            },
            {
              "internalType": "uint256",
              "name": "lastInteraction",
              "type": "uint256"
            },
            {
              "internalType": "bytes",
              "name": "arbitratorExtraData",
              "type": "bytes"
            },
            {
              "internalType": "uint256",
              "name": "arbitrationFeeTimeout",
              "type": "uint256"
            }
          ],
          "internalType": "struct TalentLayerEscrow.Transaction",
          "name": "",
          "type": "tuple"
        }
      ],
      "stateMutability": "view",
      "type": "function"
    },
    {
      "inputs": [
        {
          "internalType": "address",
          "name": "_talentLayerServiceAddress",
          "type": "address"
        },
        {
          "internalType": "address",
          "name": "_talentLayerIDAddress",
          "type": "address"
        },
        {
          "internalType": "address",
          "name": "_talentLayerPlatformIDAddress",
          "type": "address"
        },
        {
          "internalType": "address",
          "name": "_protocolWallet",
          "type": "address"
        }
      ],
      "name": "initialize",
      "outputs": [],
      "stateMutability": "nonpayable",
      "type": "function"
    },
    {
      "inputs": [
        {
          "internalType": "address",
          "name": "forwarder",
          "type": "address"
        }
      ],
      "name": "isTrustedForwarder",
      "outputs": [
        {
          "internalType": "bool",
          "name": "",
          "type": "bool"
        }
      ],
      "stateMutability": "view",
      "type": "function"
    },
    {
      "inputs": [],
      "name": "owner",
      "outputs": [
        {
          "internalType": "address",
          "name": "",
          "type": "address"
        }
      ],
      "stateMutability": "view",
      "type": "function"
    },
    {
      "inputs": [
        {
          "internalType": "uint256",
          "name": "_transactionId",
          "type": "uint256"
        }
      ],
      "name": "payArbitrationFeeByReceiver",
      "outputs": [],
      "stateMutability": "payable",
      "type": "function"
    },
    {
      "inputs": [
        {
          "internalType": "uint256",
          "name": "_transactionId",
          "type": "uint256"
        }
      ],
      "name": "payArbitrationFeeBySender",
      "outputs": [],
      "stateMutability": "payable",
      "type": "function"
    },
    {
      "inputs": [],
      "name": "protocolEscrowFeeRate",
      "outputs": [
        {
          "internalType": "uint16",
          "name": "",
          "type": "uint16"
        }
      ],
      "stateMutability": "view",
      "type": "function"
    },
    {
      "inputs": [],
      "name": "protocolWallet",
      "outputs": [
        {
          "internalType": "address payable",
          "name": "",
          "type": "address"
        }
      ],
      "stateMutability": "view",
      "type": "function"
    },
    {
      "inputs": [],
      "name": "proxiableUUID",
      "outputs": [
        {
          "internalType": "bytes32",
          "name": "",
          "type": "bytes32"
        }
      ],
      "stateMutability": "view",
      "type": "function"
    },
    {
      "inputs": [
        {
          "internalType": "uint256",
          "name": "_profileId",
          "type": "uint256"
        },
        {
          "internalType": "uint256",
          "name": "_transactionId",
          "type": "uint256"
        },
        {
          "internalType": "uint256",
          "name": "_amount",
          "type": "uint256"
        }
      ],
      "name": "reimburse",
      "outputs": [],
      "stateMutability": "nonpayable",
      "type": "function"
    },
    {
      "inputs": [
        {
          "internalType": "uint256",
          "name": "_profileId",
          "type": "uint256"
        },
        {
          "internalType": "uint256",
          "name": "_transactionId",
          "type": "uint256"
        },
        {
          "internalType": "uint256",
          "name": "_amount",
          "type": "uint256"
        }
      ],
      "name": "release",
      "outputs": [],
      "stateMutability": "nonpayable",
      "type": "function"
    },
    {
      "inputs": [
        {
          "internalType": "address",
          "name": "_forwarder",
          "type": "address"
        }
      ],
      "name": "removeTrustedForwarder",
      "outputs": [],
      "stateMutability": "nonpayable",
      "type": "function"
    },
    {
      "inputs": [],
      "name": "renounceOwnership",
      "outputs": [],
      "stateMutability": "nonpayable",
      "type": "function"
    },
    {
      "inputs": [
        {
          "internalType": "uint256",
          "name": "_disputeID",
          "type": "uint256"
        },
        {
          "internalType": "uint256",
          "name": "_ruling",
          "type": "uint256"
        }
      ],
      "name": "rule",
      "outputs": [],
      "stateMutability": "nonpayable",
      "type": "function"
    },
    {
      "inputs": [
        {
          "internalType": "uint256",
          "name": "_profileId",
          "type": "uint256"
        },
        {
          "internalType": "uint256",
          "name": "_transactionId",
          "type": "uint256"
        },
        {
          "internalType": "string",
          "name": "_evidence",
          "type": "string"
        }
      ],
      "name": "submitEvidence",
      "outputs": [],
      "stateMutability": "nonpayable",
      "type": "function"
    },
    {
      "inputs": [
        {
          "internalType": "address",
          "name": "newOwner",
          "type": "address"
        }
      ],
      "name": "transferOwnership",
      "outputs": [],
      "stateMutability": "nonpayable",
      "type": "function"
    },
    {
      "inputs": [
        {
          "internalType": "uint16",
          "name": "_protocolEscrowFeeRate",
          "type": "uint16"
        }
      ],
      "name": "updateProtocolEscrowFeeRate",
      "outputs": [],
      "stateMutability": "nonpayable",
      "type": "function"
    },
    {
      "inputs": [
        {
          "internalType": "address payable",
          "name": "_protocolWallet",
          "type": "address"
        }
      ],
      "name": "updateProtocolWallet",
      "outputs": [],
      "stateMutability": "nonpayable",
      "type": "function"
    },
    {
      "inputs": [
        {
          "internalType": "address",
          "name": "newImplementation",
          "type": "address"
        }
      ],
      "name": "upgradeTo",
      "outputs": [],
      "stateMutability": "nonpayable",
      "type": "function"
    },
    {
      "inputs": [
        {
          "internalType": "address",
          "name": "newImplementation",
          "type": "address"
        },
        {
          "internalType": "bytes",
          "name": "data",
          "type": "bytes"
        }
      ],
      "name": "upgradeToAndCall",
      "outputs": [],
      "stateMutability": "payable",
      "type": "function"
    }
  ],
  "bytecode": "0x60a0604052306080523480156200001557600080fd5b506200002062000026565b620000e8565b600054610100900460ff1615620000935760405162461bcd60e51b815260206004820152602760248201527f496e697469616c697a61626c653a20636f6e747261637420697320696e697469604482015266616c697a696e6760c81b606482015260840160405180910390fd5b60005460ff9081161015620000e6576000805460ff191660ff9081179091556040519081527f7f26b83ff96e1f2b6a682f133852f6798a09c465da95921460cefb38474024989060200160405180910390a15b565b608051614e6e620001206000396000818161155101528181611591015281816119220152818161196201526119f10152614e6e6000f3fe6080604052600436106101b75760003560e01c80635a34257a116100ec5780638da5cb5b1161008a578063e308a09911610064578063e308a099146104e6578063eb63612d14610506578063f2fde38b14610526578063f8c8765e1461054657600080fd5b80638da5cb5b146104885780639dcc5daf146104a6578063ddd5e1b2146104c657600080fd5b8063715018a6116100c6578063715018a61461042d5780637b44cdb5146104425780637e69b7b0146104555780638b69fa0a1461046857600080fd5b80635a34257a146103c75780636930fd2a146103fc5780636e72b4521461041a57600080fd5b80633659cfe6116101595780633ab4a6a4116101335780633ab4a6a4146103365780634f1ef2861461035657806352d1902d14610369578063572b6c051461037e57600080fd5b80633659cfe6146102d65780633751d89c146102f65780633a1121cd1461031657600080fd5b806315734fe71161019557806315734fe71461025457806326d00668146102675780632fbe3b0314610289578063311a6c56146102b657600080fd5b806306d6e63f146101bc5780630a1a47d6146101f95780630fa683d314610227575b600080fd5b3480156101c857600080fd5b5060cf546101dc906001600160a01b031681565b6040516001600160a01b0390911681526020015b60405180910390f35b34801561020557600080fd5b50610219610214366004613f77565b610566565b6040519081526020016101f0565b34801561023357600080fd5b50610247610242366004613f94565b6106d0565b6040516101f09190614027565b6102196102623660046142ae565b610a0a565b34801561027357600080fd5b50610287610282366004613f77565b611376565b005b34801561029557600080fd5b506102196102a4366004613f94565b60d06020526000908152604090205481565b3480156102c257600080fd5b506102876102d1366004614325565b6113d9565b3480156102e257600080fd5b506102876102f1366004613f77565b611547565b34801561030257600080fd5b50610287610311366004613f77565b611623565b34801561032257600080fd5b50610287610331366004614347565b61167c565b34801561034257600080fd5b50610287610351366004613f94565b611762565b610287610364366004614373565b611918565b34801561037557600080fd5b506102196119e4565b34801561038a57600080fd5b506103b7610399366004613f77565b6001600160a01b031660009081526065602052604090205460ff1690565b60405190151581526020016101f0565b3480156103d357600080fd5b5060cf546103e990600160a01b900461ffff1681565b60405161ffff90911681526020016101f0565b34801561040857600080fd5b50610287610417366004613f94565b50565b610287610428366004613f94565b611a97565b34801561043957600080fd5b50610287611d30565b610287610450366004613f94565b611d44565b610287610463366004613f94565b611fbe565b34801561047457600080fd5b506102876104833660046143d7565b612076565b34801561049457600080fd5b506033546001600160a01b03166101dc565b3480156104b257600080fd5b506102876104c1366004614347565b6123d9565b3480156104d257600080fd5b506102876104e1366004614427565b6124bf565b3480156104f257600080fd5b50610287610501366004613f77565b6126c8565b34801561051257600080fd5b50610287610521366004614467565b6126f2565b34801561053257600080fd5b50610287610541366004613f77565b61274a565b34801561055257600080fd5b50610287610561366004614484565b6127c0565b60008061057161293e565b9050806001600160a01b031661058f6033546001600160a01b031690565b6001600160a01b0316036105d95750506001600160a01b031660009081527f4239c2c8c3d9b94feb214b0f54d7c869ce1ceb63517be57644336cda4967a468602052604090205490565b60ce54604051631847c06b60e01b81526001600160a01b0383811660048301526000921690631847c06b90602401602060405180830381865afa158015610624573d6000803e3d6000fd5b505050506040513d601f19601f8201168201806040525081019061064891906144e0565b60ce5460405162f577a560e81b8152600481018390529192506001600160a01b03169063f577a5009060240160006040518083038186803b15801561068c57600080fd5b505afa1580156106a0573d6000803e3d6000fd5b50505060009182525060cb602090815260408083206001600160a01b039096168352949052929092205492915050565b6107626040805161024081018252600080825260208201819052918101829052606081018290526080810182905260a0810182905260c0810182905260e081018290526101008101829052610120810182905261014081018290529061016082019081526020016000815260200160008152602001600081526020016000815260200160608152602001600081525090565b600082815260ca602090815260408083208151610240810183528154815260018201546001600160a01b039081169482019490945260028201548416928101929092526003810154831660608301526004808201546080840152600582015460a0840152600682015460c0840152600782015461ffff80821660e08601526201000082048116610100860152640100000000820416610120850152600160301b810490941661014084015291929091610160840191600160d01b900460ff169081111561083157610831613fad565b600481111561084257610842613fad565b81526020016008820154815260200160098201548152602001600a8201548152602001600b8201548152602001600c8201805461087e906144f9565b80601f01602080910402602001604051908101604052809291908181526020018280546108aa906144f9565b80156108f75780601f106108cc576101008083540402835291602001916108f7565b820191906000526020600020905b8154815290600101906020018083116108da57829003601f168201915b50505050508152602001600d82015481525050905061091560d15490565b8151106109625760405162461bcd60e51b8152602060048201526016602482015275125b9d985b1a59081d1c985b9cd858dd1a5bdb881a5960521b60448201526064015b60405180910390fd5b600061096c61293e565b905081602001516001600160a01b0316816001600160a01b031614806109a7575081604001516001600160a01b0316816001600160a01b0316145b610a035760405162461bcd60e51b815260206004820152602760248201527f596f7520617265206e6f742072656c6174656420746f2074686973207472616e60448201526639b0b1ba34b7b760c91b6064820152608401610959565b5092915050565b60cc5460405163ef0e239b60e01b81526004810186905260009182916001600160a01b039091169063ef0e239b90602401600060405180830381865afa158015610a58573d6000803e3d6000fd5b505050506040513d6000823e601f3d908101601f19168201604052610a809190810190614580565b60cc5460405163aba2100960e01b815260048101899052602481018890529192506000916001600160a01b039091169063aba2100990604401600060405180830381865afa158015610ad6573d6000803e3d6000fd5b505050506040513d6000823e601f3d908101601f19168201604052610afe919081019061465b565b60cd5460208401516040516331a9108f60e11b81529293506000926001600160a01b0390921691636352211e91610b3b9160040190815260200190565b602060405180830381865afa158015610b58573d6000803e3d6000fd5b505050506040513d601f19601f82011682018060405250810190610b7c919061471c565b60cd5460208401516040516331a9108f60e11b81529293506000926001600160a01b0390921691636352211e91610bb99160040190815260200190565b602060405180830381865afa158015610bd6573d6000803e3d6000fd5b505050506040513d601f19601f82011682018060405250810190610bfa919061471c565b60ce5460a0860151604051630b7a459360e31b81529293506000926001600160a01b0390921691635bd22c9891610c379160040190815260200190565b600060405180830381865afa158015610c54573d6000803e3d6000fd5b505050506040513d6000823e601f3d908101601f19168201604052610c7c9190810190614739565b90506000846080015161ffff168660a0015103610c995781610d13565b60ce546080860151604051630b7a459360e31b815261ffff90911660048201526001600160a01b0390911690635bd22c9890602401600060405180830381865afa158015610ceb573d6000803e3d6000fd5b505050506040513d6000823e601f3d908101601f19168201604052610d139190810190614739565b90506000610d2e866060015184606001518460800151612977565b60408701519091506001600160a01b0316610d8c57803414610d875760405162461bcd60e51b81526020600482015260126024820152714e6f6e2d6d61746368696e672066756e647360701b6044820152606401610959565b610dcf565b3415610dcf5760405162461bcd60e51b81526020600482015260126024820152714e6f6e2d6d61746368696e672066756e647360701b6044820152606401610959565b846001600160a01b0316610de161293e565b6001600160a01b031614610e075760405162461bcd60e51b815260040161095990614851565b8a866020015114610e525760405162461bcd60e51b8152602060048201526015602482015274125b98dbdc9c9958dd081c1c9bdc1bdcd85b081251605a1b6044820152606401610959565b428660c001511015610e995760405162461bcd60e51b815260206004820152601060248201526f141c9bdc1bdcd85b08195e1c1a5c995960821b6044820152606401610959565b600087516003811115610eae57610eae613fad565b14610efb5760405162461bcd60e51b815260206004820152601760248201527f5365727669636520737461747573206e6f74206f70656e0000000000000000006044820152606401610959565b600086516001811115610f1057610f10613fad565b14610f5d5760405162461bcd60e51b815260206004820152601b60248201527f50726f706f73616c20737461747573206e6f742070656e64696e6700000000006044820152606401610959565b8951602e14610f9c5760405162461bcd60e51b815260206004820152600b60248201526a125b9d985b1a590818da5960aa1b6044820152606401610959565b88604051602001610fad9190614878565b604051602081830303815290604052805190602001208660a00151604051602001610fd89190614878565b604051602081830303815290604052805190602001201461103b5760405162461bcd60e51b815260206004820152601c60248201527f50726f706f73616c206461746155726920686173206368616e676564000000006044820152606401610959565b600061104660d15490565b9050604051806102400160405280828152602001876001600160a01b03168152602001866001600160a01b0316815260200188604001516001600160a01b03168152602001886060015181526020018e81526020018d815260200160cf60149054906101000a900461ffff1661ffff168152602001856060015161ffff168152602001846080015161ffff1681526020018560e001516001600160a01b03168152602001600060048111156110fd576110fd613fad565b8152600060208083018290526040808401839052606080850184905242608080870191909152610100808c015160a080890191909152610120808e015160c0998a01528a885260ca87529685902089518155958901516001870180546001600160a01b039283166001600160a01b031991821617909155958a01516002880180549183169188169190911790559389015160038701805491861691909616179094559087015160048086019190915592870151600585015594860151600684015560e08601516007840180549688015195880151610140890151909316600160301b026601000000000000600160d01b031961ffff9485166401000000000216640100000000600160d01b0319978516620100000263ffffffff199099169490931693909317969096179490941693909317929092178084556101608501519193919260ff60d01b1990911690600160d01b90849081111561126157611261613fad565b021790555061018082015160088201556101a082015160098201556101c0820151600a8201556101e0820151600b820155610200820151600c8201906112a790826148da565b5061022082015181600d01559050506112c460d180546001019055565b60cc546040516353eaf57560e11b8152600481018f9052602481018e9052604481018390526001600160a01b039091169063a7d5eaea90606401600060405180830381600087803b15801561131857600080fd5b505af115801561132c573d6000803e3d6000fd5b5050505060408701516001600160a01b03161561135257611352876040015183886129e2565b61136688602001518860200151838e612bc6565b9c9b505050505050505050505050565b61137e612ce0565b6001600160a01b038116600081815260656020908152604091829020805460ff1916600117905590519182527f3ef8564460ada92419608d823c014975d98f8104d7d1e68c222967ac6814cd9791015b60405180910390a150565b60006113e361293e565b600084815260d0602090815260408083205480845260ca909252909120600781015492935090916001600160a01b03808516600160301b90920416146114755760405162461bcd60e51b815260206004820152602160248201527f5468652063616c6c6572206d757374206265207468652061726269747261746f6044820152603960f91b6064820152608401610959565b60036007820154600160d01b900460ff16600481111561149757611497613fad565b146114f25760405162461bcd60e51b815260206004820152602560248201527f54686520646973707574652068617320616c7265616479206265656e207265736044820152641bdb1d995960da1b6064820152608401610959565b84836001600160a01b03167f394027a5fa6e098a1191094d1719d6929b9abc535fcc0c8f448d6a4e756222768660405161152e91815260200190565b60405180910390a36115408285612d59565b5050505050565b6001600160a01b037f000000000000000000000000000000000000000000000000000000000000000016300361158f5760405162461bcd60e51b81526004016109599061499a565b7f00000000000000000000000000000000000000000000000000000000000000006001600160a01b03166115d8600080516020614dd2833981519152546001600160a01b031690565b6001600160a01b0316146115fe5760405162461bcd60e51b8152600401610959906149e6565b61160781612fe3565b6040805160008082526020820190925261041791839190612feb565b61162b612ce0565b6001600160a01b038116600081815260656020908152604091829020805460ff1916905590519182527fd2d636efcad0cea42e170256f4c5d8b1cd81e47b855557edaf44014e6cc4cee691016113ce565b60cd5483906001600160a01b0316632fa117e58261169861293e565b6040516001600160e01b031960e085901b16815260048101929092526001600160a01b03166024820152604401602060405180830381865afa1580156116e2573d6000803e3d6000fd5b505050506040513d601f19601f820116820180604052508101906117069190614a32565b6117225760405162461bcd60e51b815260040161095990614a54565b61172f8360008685613156565b600083815260ca6020526040812060048101805491928592611752908490614a99565b9091555061154090508484613440565b600081815260ca60205260409020600d810154600b8201546117849042614a99565b10156117d25760405162461bcd60e51b815260206004820152601f60248201527f54696d656f75742074696d6520686173206e6f742070617373656420796574006044820152606401610959565b60016007820154600160d01b900460ff1660048111156117f4576117f4613fad565b036118775760098101541561186857600981018054600091829055600183015460405191926001600160a01b0390911691839181818185875af1925050503d806000811461185e576040519150601f19603f3d011682016040523d82523d6000602084013e611863565b606091505b505050505b611873826002612d59565b5050565b60026007820154600160d01b900460ff16600481111561189957611899613fad565b0361187357600a8101541561190d57600a81018054600091829055600283015460405191926001600160a01b0390911691839181818185875af1925050503d8060008114611903576040519150601f19603f3d011682016040523d82523d6000602084013e611908565b606091505b505050505b611873826001612d59565b6001600160a01b037f00000000000000000000000000000000000000000000000000000000000000001630036119605760405162461bcd60e51b81526004016109599061499a565b7f00000000000000000000000000000000000000000000000000000000000000006001600160a01b03166119a9600080516020614dd2833981519152546001600160a01b031690565b6001600160a01b0316146119cf5760405162461bcd60e51b8152600401610959906149e6565b6119d882612fe3565b61187382826001612feb565b6000306001600160a01b037f00000000000000000000000000000000000000000000000000000000000000001614611a845760405162461bcd60e51b815260206004820152603860248201527f555550535570677261646561626c653a206d757374206e6f742062652063616c60448201527f6c6564207468726f7567682064656c656761746563616c6c00000000000000006064820152608401610959565b50600080516020614dd283398151915290565b600081815260ca602052604090206007810154600160301b90046001600160a01b0316611ad65760405162461bcd60e51b815260040161095990614aac565b60036007820154600160d01b900460ff166004811115611af857611af8613fad565b10611b155760405162461bcd60e51b815260040161095990614ad8565b60028101546001600160a01b0316611b2b61293e565b6001600160a01b031614611b815760405162461bcd60e51b815260206004820152601f60248201527f5468652063616c6c6572206d75737420626520746865207265636569766572006044820152606401610959565b600781015460405163f7434ea960e01b8152600091600160301b90046001600160a01b03169063f7434ea990611bbe90600c860190600401614bc8565b602060405180830381865afa158015611bdb573d6000803e3d6000fd5b505050506040513d601f19601f82011682018060405250810190611bff91906144e0565b90503482600a016000828254611c159190614bdb565b9091555050600a8201548114611c8c5760405162461bcd60e51b815260206004820152603660248201527f54686520726563656976657220666565206d75737420626520657175616c20746044820152751bc81d1a1948185c989a5d1c985d1a5bdb8818dbdcdd60521b6064820152608401610959565b42600b8301556040518390600080516020614df283398151915290611cb8906000906001903490614bfe565b60405180910390a28082600901541015611d215760078201805460ff60d01b1916600160d01b17905560405183907fc74b9f7dedf2887cd3c113b6d8da9cea19e55c1116e25f1f0e1b72d7543179b590611d1490600090614c28565b60405180910390a2505050565b611d2b8382613485565b505050565b611d38612ce0565b611d4260006136d7565b565b600081815260ca602052604090206007810154600160301b90046001600160a01b0316611d835760405162461bcd60e51b815260040161095990614aac565b60036007820154600160d01b900460ff166004811115611da557611da5613fad565b10611dc25760405162461bcd60e51b815260040161095990614ad8565b60018101546001600160a01b0316611dd861293e565b6001600160a01b031614611e2e5760405162461bcd60e51b815260206004820152601d60248201527f5468652063616c6c6572206d757374206265207468652073656e6465720000006044820152606401610959565b600781015460405163f7434ea960e01b8152600091600160301b90046001600160a01b03169063f7434ea990611e6b90600c860190600401614bc8565b602060405180830381865afa158015611e88573d6000803e3d6000fd5b505050506040513d601f19601f82011682018060405250810190611eac91906144e0565b905034826009016000828254611ec29190614bdb565b909155505060098201548114611f375760405162461bcd60e51b815260206004820152603460248201527f5468652073656e64657220666565206d75737420626520657175616c20746f206044820152731d1a1948185c989a5d1c985d1a5bdb8818dbdcdd60621b6064820152608401610959565b42600b8301556040518390600080516020614df283398151915290611f629060009081903490614bfe565b60405180910390a28082600a01541015611d215760078201805460ff60d01b1916600160d11b17905560405183907fc74b9f7dedf2887cd3c113b6d8da9cea19e55c1116e25f1f0e1b72d7543179b590611d1490600190614c28565b600081815260ca602052604090206007810154600160301b90046001600160a01b0316611ffd5760405162461bcd60e51b815260040161095990614aac565b6007810154600882015460405163093225f160e31b8152600160301b9092046001600160a01b0316916349912f889134916120409190600c870190600401614c3b565b6000604051808303818588803b15801561205957600080fd5b505af115801561206d573d6000803e3d6000fd5b50505050505050565b60cd5483906001600160a01b0316632fa117e58261209261293e565b6040516001600160e01b031960e085901b16815260048101929092526001600160a01b03166024820152604401602060405180830381865afa1580156120dc573d6000803e3d6000fd5b505050506040513d601f19601f820116820180604052508101906121009190614a32565b61211c5760405162461bcd60e51b815260040161095990614a54565b8151602e1461215b5760405162461bcd60e51b815260206004820152600b60248201526a125b9d985b1a590818da5960aa1b6044820152606401610959565b600083815260ca602052604090206007810154600160301b90046001600160a01b031661219a5760405162461bcd60e51b815260040161095990614aac565b60cd546040516331a9108f60e11b8152600481018790526000916001600160a01b031690636352211e90602401602060405180830381865afa1580156121e4573d6000803e3d6000fd5b505050506040513d601f19601f82011682018060405250810190612208919061471c565b60018301549091506001600160a01b0380831691161480612238575060028201546001600160a01b038281169116145b6122ac576040805162461bcd60e51b81526020600482015260248101919091527f5468652063616c6c6572206d757374206265207468652073656e646572206f7260448201527f20746865207265636569766572206f722074686569722064656c6567617465736064820152608401610959565b60046007830154600160d01b900460ff1660048111156122ce576122ce613fad565b106123355760405162461bcd60e51b815260206004820152603160248201527f4d757374206e6f742073656e642065766964656e6365206966207468652064696044820152701cdc1d5d19481a5cc81c995cdbdb1d9959607a1b6064820152608401610959565b806001600160a01b0316858360070160069054906101000a90046001600160a01b03166001600160a01b03167fdccf2f8b2cc26eafcd61905cba744cff4b81d14740725f6376390dc6298a6a3c876040516123909190614c54565b60405180910390a485857fd998ce0f89c38b0f93256f0b843a404a3a3c5055b75265623f7cb9c369a1dd62866040516123c99190614c54565b60405180910390a3505050505050565b60cd5483906001600160a01b0316632fa117e5826123f561293e565b6040516001600160e01b031960e085901b16815260048101929092526001600160a01b03166024820152604401602060405180830381865afa15801561243f573d6000803e3d6000fd5b505050506040513d601f19601f820116820180604052508101906124639190614a32565b61247f5760405162461bcd60e51b815260040161095990614a54565b61248c8360018685613156565b600083815260ca60205260408120600481018054919285926124af908490614a99565b9091555061154090508484613729565b60006124c961293e565b6001600160a01b03166124e46033546001600160a01b031690565b6001600160a01b0316036125225782156125105760405162461bcd60e51b815260040161095990614851565b5060cf546001600160a01b03166125ed565b60ce5460405162f577a560e81b8152600481018590526001600160a01b039091169063f577a5009060240160006040518083038186803b15801561256557600080fd5b505afa158015612579573d6000803e3d6000fd5b505060ce546040516331a9108f60e11b8152600481018790526001600160a01b039091169250636352211e9150602401602060405180830381865afa1580156125c6573d6000803e3d6000fd5b505050506040513d601f19601f820116820180604052508101906125ea919061471c565b90505b600083815260cb602090815260408083206001600160a01b0386168452909152902054806126505760405162461bcd60e51b815260206004820152601060248201526f6e6f7468696e6720746f20636c61696d60801b6044820152606401610959565b600084815260cb602090815260408083206001600160a01b038716845290915281205561267e82848361378f565b60408051858152602081018390526001600160a01b038516917f2227733fc4c8a9034cb58087dcf6995128b9c0233b038b03366aaf30c92b92d6910160405180910390a250505050565b6126d0612ce0565b60cf80546001600160a01b0319166001600160a01b0392909216919091179055565b6126fa612ce0565b60cf805461ffff60a01b1916600160a01b61ffff8416908102919091179091556040519081527f8339189e972f7fba792126e752aa8485af08710bce4a041c5bc3f9858acd7130906020016113ce565b612752612ce0565b6001600160a01b0381166127b75760405162461bcd60e51b815260206004820152602660248201527f4f776e61626c653a206e6577206f776e657220697320746865207a65726f206160448201526564647265737360d01b6064820152608401610959565b610417816136d7565b600054610100900460ff16158080156127e05750600054600160ff909116105b806127fa5750303b1580156127fa575060005460ff166001145b61285d5760405162461bcd60e51b815260206004820152602e60248201527f496e697469616c697a61626c653a20636f6e747261637420697320616c72656160448201526d191e481a5b9a5d1a585b1a5e995960921b6064820152608401610959565b6000805460ff191660011790558015612880576000805461ff0019166101001790555b612888613869565b612890613898565b60cc80546001600160a01b038088166001600160a01b03199283161790925560cd805487841690831617905560ce805486841690831617905560cf8054928516929091169190911790556128e860d180546001019055565b6128f260646126f2565b8015611540576000805461ff0019169055604051600181527f7f26b83ff96e1f2b6a682f133852f6798a09c465da95921460cefb38474024989060200160405180910390a15050505050565b60006014361080159061296057503360009081526065602052604090205460ff165b15612972575060131936013560601c90565b503390565b600061271061298a61ffff841686614c67565b61299861ffff861687614c67565b60cf546129b090600160a01b900461ffff1688614c67565b6129ba9190614bdb565b6129c49190614bdb565b6129ce9190614c7e565b6129d89085614bdb565b90505b9392505050565b6040516370a0823160e01b81523060048201526000906001600160a01b038516906370a0823190602401602060405180830381865afa158015612a29573d6000803e3d6000fd5b505050506040513d601f19601f82011682018060405250810190612a4d91906144e0565b6040516323b872dd60e01b81526001600160a01b03848116600483015230602483015260448201869052919250908516906323b872dd906064016020604051808303816000875af1158015612aa6573d6000803e3d6000fd5b505050506040513d601f19601f82011682018060405250810190612aca9190614a32565b612b0f5760405162461bcd60e51b8152602060048201526016602482015275151c985b9cd9995c881b5d5cdd081b9bdd0819985a5b60521b6044820152606401610959565b612b198382614bdb565b6040516370a0823160e01b81523060048201526001600160a01b038616906370a0823190602401602060405180830381865afa158015612b5d573d6000803e3d6000fd5b505050506040513d601f19601f82011682018060405250810190612b8191906144e0565b14612bc05760405162461bcd60e51b815260206004820152600f60248201526e496e76616c69642062616c616e636560881b6044820152606401610959565b50505050565b600060ca600084815260200190815260200160002090507f8b4f0e94aa0aee74c276abd2d92a5e2737a493b055e19d5b2d4c0ac573242a158386868460030160009054906101000a90046001600160a01b031685600401548660050154876006015460cf60149054906101000a900461ffff168960070160029054906101000a900461ffff168a60070160049054906101000a900461ffff168b60070160069054906101000a90046001600160a01b03168c600c018d600d0154604051612c999d9c9b9a99989796959493929190614ca0565b60405180910390a1827f61606860eb6c87306811e2695215385101daab53bd6ab4e9f9049aead9363c7d83604051612cd19190614c54565b60405180910390a25050505050565b612ce861293e565b6001600160a01b0316612d036033546001600160a01b031690565b6001600160a01b031614611d425760405162461bcd60e51b815260206004820181905260248201527f4f776e61626c653a2063616c6c6572206973206e6f7420746865206f776e65726044820152606401610959565b600082815260ca602052604090206002821115612da95760405162461bcd60e51b815260206004820152600e60248201526d496e76616c69642072756c696e6760901b6044820152606401610959565b60018101546002820154600483018054600985018054600a87018054600095869055928590559390935560078601805460ff60d01b1916600160d21b1790556001600160a01b0394851694909316929091906000198701612e64576040516001600160a01b038616908390600081818185875af1925050503d8060008114612e4d576040519150601f19603f3d011682016040523d82523d6000602084013e612e52565b606091505b505050612e5f8884613729565b612f9f565b6001198701612ec8576040516001600160a01b038516908290600081818185875af1925050503d8060008114612eb6576040519150601f19603f3d011682016040523d82523d6000602084013e612ebb565b606091505b505050612e5f8884613440565b6000612ed5600284614c7e565b90506000612ee4600286614c7e565b9050612ef08a82613729565b612efa8a82613440565b6040516001600160a01b038816908390600081818185875af1925050503d8060008114612f43576040519150601f19603f3d011682016040523d82523d6000602084013e612f48565b606091505b50506040516001600160a01b03881691508390600081818185875af1925050503d8060008114612f94576040519150601f19603f3d011682016040523d82523d6000602084013e612f99565b606091505b50505050505b877f76b363d70472d47d20e4119f3625c05ed37ca51b1d9e1cd8b87d8c20530640f388604051612fd191815260200190565b60405180910390a25050505050505050565b610417612ce0565b7f4910fdfa16fed3260ed0e7147f7cc6da11a60208b5b9406d12a635614ffd91435460ff161561301e57611d2b836138bf565b826001600160a01b03166352d1902d6040518163ffffffff1660e01b8152600401602060405180830381865afa925050508015613078575060408051601f3d908101601f19168201909252613075918101906144e0565b60015b6130db5760405162461bcd60e51b815260206004820152602e60248201527f45524331393637557067726164653a206e657720696d706c656d656e7461746960448201526d6f6e206973206e6f74205555505360901b6064820152608401610959565b600080516020614dd2833981519152811461314a5760405162461bcd60e51b815260206004820152602960248201527f45524331393637557067726164653a20756e737570706f727465642070726f786044820152681a58589b195555525160ba1b6064820152608401610959565b50611d2b83838361395b565b600084815260ca602052604081209084600181111561317757613177613fad565b0361321d5760cd546040516331a9108f60e11b8152600481018590526001600160a01b0390911690636352211e90602401602060405180830381865afa1580156131c5573d6000803e3d6000fd5b505050506040513d601f19601f820116820180604052508101906131e9919061471c565b60018201546001600160a01b039081169116146132185760405162461bcd60e51b815260040161095990614851565b6132d2565b600184600181111561323157613231613fad565b036132d25760cd546040516331a9108f60e11b8152600481018590526001600160a01b0390911690636352211e90602401602060405180830381865afa15801561327f573d6000803e3d6000fd5b505050506040513d601f19601f820116820180604052508101906132a3919061471c565b60028201546001600160a01b039081169116146132d25760405162461bcd60e51b815260040161095990614851565b60d15481541061331d5760405162461bcd60e51b8152602060048201526016602482015275125b9d985b1a59081d1c985b9cd858dd1a5bdb881a5960521b6044820152606401610959565b60006007820154600160d01b900460ff16600481111561333f5761333f613fad565b1461339a5760405162461bcd60e51b815260206004820152602560248201527f546865207472616e73616374696f6e2073686f756c646e2774206265206469736044820152641c1d5d195960da1b6064820152608401610959565b81816004015410156133e35760405162461bcd60e51b8152602060048201526012602482015271496e73756666696369656e742066756e647360701b6044820152606401610959565b612710821015806134035750612710821080156134035750806004015482145b6115405760405162461bcd60e51b815260206004820152600e60248201526d416d6f756e7420746f6f206c6f7760901b6044820152606401610959565b61344a8282613980565b600082815260ca6020526040902060028101546003820154613479916001600160a01b0390811691168461378f565b611d2b83600084613c9a565b600082815260ca60205260409081902060078101805460ff60d01b1916600360d01b1790819055915163c13517e160e01b81529091600160301b90046001600160a01b031690819063c13517e19085906134e990600290600c880190600401614d2e565b60206040518083038185885af1158015613507573d6000803e3d6000fd5b50505050506040513d601f19601f8201168201806040525081019061352c91906144e0565b60088301818155600091825260d0602090815260409283902087905590548251878152918201879052916001600160a01b038416917f74baab670a4015ab2f1b467c5252a96141a2573f2908e58a92081e80d3cfde3d910160405180910390a382826009015411156136375760008383600901546135aa9190614a99565b6009840185905560018401546040519192506001600160a01b0316908290600081818185875af1925050503d8060008114613601576040519150601f19603f3d011682016040523d82523d6000602084013e613606565b606091505b50505084600080516020614df2833981519152600160003460405161362d93929190614bfe565b60405180910390a2505b8282600a01541115612bc05760008383600a01546136559190614a99565b600a840185905560028401546040519192506001600160a01b0316908290600081818185875af1925050503d80600081146136ac576040519150601f19603f3d011682016040523d82523d6000602084013e6136b1565b606091505b50505084600080516020614df283398151915260018034604051612cd193929190614bfe565b603380546001600160a01b038381166001600160a01b0319831681179093556040519116919082907f8be0079c531659141344cd1fd0a4f28419497f9722a3daafe3b4186f6b6457e090600090a35050565b600082815260ca60205260408120600781015490919061375f90849061ffff620100008204811691640100000000900416612977565b60018301546003840154919250613783916001600160a01b0391821691168361378f565b612bc084600185613c9a565b6001600160a01b0382166000036137f6576040516001600160a01b038416908290600081818185875af1925050503d80600081146137e9576040519150601f19603f3d011682016040523d82523d6000602084013e6137ee565b606091505b505050505050565b60405163a9059cbb60e01b81526001600160a01b0384811660048301526024820183905283169063a9059cbb906044016020604051808303816000875af1158015613845573d6000803e3d6000fd5b505050506040513d601f19601f82011682018060405250810190612bc09190614a32565b600054610100900460ff166138905760405162461bcd60e51b815260040161095990614d4a565b611d42613db7565b600054610100900460ff16611d425760405162461bcd60e51b815260040161095990614d4a565b6001600160a01b0381163b61392c5760405162461bcd60e51b815260206004820152602d60248201527f455243313936373a206e657720696d706c656d656e746174696f6e206973206e60448201526c1bdd08184818dbdb9d1c9858dd609a1b6064820152608401610959565b600080516020614dd283398151915280546001600160a01b0319166001600160a01b0392909216919091179055565b61396483613dee565b6000825111806139715750805b15611d2b57612bc08383613e2e565b600082815260ca602052604080822060cc546005820154925163ef0e239b60e01b81529193926001600160a01b039091169163ef0e239b916139c89160040190815260200190565b600060405180830381865afa1580156139e5573d6000803e3d6000fd5b505050506040513d6000823e601f3d908101601f19168201604052613a0d9190810190614580565b60a0015160cc546005840154600685015460405163aba2100960e01b8152600481019290925260248201529192506000916001600160a01b039091169063aba2100990604401600060405180830381865afa158015613a70573d6000803e3d6000fd5b505050506040513d6000823e601f3d908101601f19168201604052613a98919081019061465b565b60800151600784015461ffff918216925060009161271091613abc91889116614c67565b613ac69190614c7e565b600785015490915060009061271090613aea90889062010000900461ffff16614c67565b613af49190614c7e565b600786015490915060009061271090613b1a908990640100000000900461ffff16614c67565b613b249190614c7e565b60038701546001600160a01b031660009081527f4239c2c8c3d9b94feb214b0f54d7c869ce1ceb63517be57644336cda4967a4686020526040812080549293508592909190613b74908490614bdb565b9091555050600085815260cb6020908152604080832060038a01546001600160a01b0316845290915281208054849290613baf908490614bdb565b9091555050600084815260cb6020908152604080832060038a01546001600160a01b0316845290915281208054839290613bea908490614bdb565b90915550506003860154600587015460408051888152602081019290925281018490526001600160a01b03909116907f17c48ab8e1617182f35ae77fd7da7f4e15dedf7018aa371a4481c20c790b65469060600160405180910390a26003860154600587015460408051878152602081019290925281018490526001600160a01b03909116907f3476ed3eea2cdac584273bc8830824c8ca42ca2a99e9f144a87a1cdbbf9dd15a90606001612fd1565b600083815260ca602052604090819020805460038201546005830154935192937f2ab2a30b19f7bc6e386d4ee60aa21ed23c127ce9fe26903da97edd54bad0375a93613cf7939288926001600160a01b0390911691889190614d95565b60405180910390a18060040154600003612bc05760cc546005820154604051631271956760e21b81526001600160a01b03909216916349c6559c91613d429160040190815260200190565b600060405180830381600087803b158015613d5c57600080fd5b505af1158015613d70573d6000803e3d6000fd5b505050507f6bef1b5e95b741d6e665eb9b5c2d3e1203c46a771451055a9d41e0b8ff4510b78160050154604051613da991815260200190565b60405180910390a150505050565b600054610100900460ff16613dde5760405162461bcd60e51b815260040161095990614d4a565b611d42613de961293e565b6136d7565b613df7816138bf565b6040516001600160a01b038216907fbc7cd75a20ee27fd9adebab32041f755214dbc6bffa90cc0225b39da2e5c2d3b90600090a250565b60606001600160a01b0383163b613e965760405162461bcd60e51b815260206004820152602660248201527f416464726573733a2064656c65676174652063616c6c20746f206e6f6e2d636f6044820152651b9d1c9858dd60d21b6064820152608401610959565b600080846001600160a01b031684604051613eb19190614878565b600060405180830381855af49150503d8060008114613eec576040519150601f19603f3d011682016040523d82523d6000602084013e613ef1565b606091505b5091509150613f198282604051806060016040528060278152602001614e1260279139613f24565b925050505b92915050565b60608315613f335750816129db565b6129db8383815115613f485781518083602001fd5b8060405162461bcd60e51b81526004016109599190614c54565b6001600160a01b038116811461041757600080fd5b600060208284031215613f8957600080fd5b81356129db81613f62565b600060208284031215613fa657600080fd5b5035919050565b634e487b7160e01b600052602160045260246000fd5b60058110613fd357613fd3613fad565b9052565b60005b83811015613ff2578181015183820152602001613fda565b50506000910152565b60008151808452614013816020860160208601613fd7565b601f01601f19169290920160200192915050565b60208152815160208201526000602083015161404e60408401826001600160a01b03169052565b5060408301516001600160a01b03811660608401525060608301516001600160a01b038116608084015250608083015160a083015260a083015160c083015260c083015160e083015260e08301516101006140ae8185018361ffff169052565b84015190506101206140c58482018361ffff169052565b84015190506101406140dc8482018361ffff169052565b84015190506101606140f8848201836001600160a01b03169052565b840151905061018061410c84820183613fc3565b8401516101a0848101919091528401516101c0808501919091528401516101e0808501919091528401516102008085019190915284015161024061022080860182905291925090614161610260860184613ffb565b9501519301929092525090919050565b634e487b7160e01b600052604160045260246000fd5b60405160c0810167ffffffffffffffff811182821017156141aa576141aa614171565b60405290565b60405160e0810167ffffffffffffffff811182821017156141aa576141aa614171565b604051610140810167ffffffffffffffff811182821017156141aa576141aa614171565b604051601f8201601f1916810167ffffffffffffffff8111828210171561422057614220614171565b604052919050565b600067ffffffffffffffff82111561424257614242614171565b50601f01601f191660200190565b600061426361425e84614228565b6141f7565b905082815283838301111561427757600080fd5b828260208301376000602084830101529392505050565b600082601f83011261429f57600080fd5b6129db83833560208501614250565b600080600080608085870312156142c457600080fd5b8435935060208501359250604085013567ffffffffffffffff808211156142ea57600080fd5b6142f68883890161428e565b9350606087013591508082111561430c57600080fd5b506143198782880161428e565b91505092959194509250565b6000806040838503121561433857600080fd5b50508035926020909101359150565b60008060006060848603121561435c57600080fd5b505081359360208301359350604090920135919050565b6000806040838503121561438657600080fd5b823561439181613f62565b9150602083013567ffffffffffffffff8111156143ad57600080fd5b8301601f810185136143be57600080fd5b6143cd85823560208401614250565b9150509250929050565b6000806000606084860312156143ec57600080fd5b8335925060208401359150604084013567ffffffffffffffff81111561441157600080fd5b61441d8682870161428e565b9150509250925092565b6000806040838503121561443a57600080fd5b82359150602083013561444c81613f62565b809150509250929050565b61ffff8116811461041757600080fd5b60006020828403121561447957600080fd5b81356129db81614457565b6000806000806080858703121561449a57600080fd5b84356144a581613f62565b935060208501356144b581613f62565b925060408501356144c581613f62565b915060608501356144d581613f62565b939692955090935050565b6000602082840312156144f257600080fd5b5051919050565b600181811c9082168061450d57607f821691505b60208210810361452d57634e487b7160e01b600052602260045260246000fd5b50919050565b600082601f83011261454457600080fd5b815161455261425e82614228565b81815284602083860101111561456757600080fd5b614578826020830160208701613fd7565b949350505050565b60006020828403121561459257600080fd5b815167ffffffffffffffff808211156145aa57600080fd5b9083019060c082860312156145be57600080fd5b6145c6614187565b8251600481106145d557600080fd5b8082525060208301516020820152604083015160408201526060830151828111156145ff57600080fd5b61460b87828601614533565b6060830152506080830151608082015260a083015160a082015280935050505092915050565b80516002811061464057600080fd5b919050565b805161464081613f62565b805161464081614457565b60006020828403121561466d57600080fd5b815167ffffffffffffffff8082111561468557600080fd5b9083019060e0828603121561469957600080fd5b6146a16141b0565b6146aa83614631565b8152602083015160208201526146c260408401614645565b6040820152606083015160608201526146dd60808401614650565b608082015260a0830151828111156146f457600080fd5b61470087828601614533565b60a08301525060c083015160c082015280935050505092915050565b60006020828403121561472e57600080fd5b81516129db81613f62565b60006020828403121561474b57600080fd5b815167ffffffffffffffff8082111561476357600080fd5b90830190610140828603121561477857600080fd5b6147806141d3565b8251815260208301518281111561479657600080fd5b6147a287828601614533565b6020830152506040830151828111156147ba57600080fd5b6147c687828601614533565b6040830152506147d860608401614650565b60608201526147e960808401614650565b608082015260a083015160a082015260c083015160c082015261480e60e08401614645565b60e0820152610100808401518381111561482757600080fd5b61483388828701614533565b91830191909152506101209283015192810192909252509392505050565b6020808252600d908201526c1058d8d95cdcc819195b9a5959609a1b604082015260600190565b6000825161488a818460208701613fd7565b9190910192915050565b601f821115611d2b57600081815260208120601f850160051c810160208610156148bb5750805b601f850160051c820191505b818110156137ee578281556001016148c7565b815167ffffffffffffffff8111156148f4576148f4614171565b6149088161490284546144f9565b84614894565b602080601f83116001811461493d57600084156149255750858301515b600019600386901b1c1916600185901b1785556137ee565b600085815260208120601f198616915b8281101561496c5788860151825594840194600190910190840161494d565b508582101561498a5787850151600019600388901b60f8161c191681555b5050505050600190811b01905550565b6020808252602c908201527f46756e6374696f6e206d7573742062652063616c6c6564207468726f7567682060408201526b19195b1959d85d1958d85b1b60a21b606082015260800190565b6020808252602c908201527f46756e6374696f6e206d7573742062652063616c6c6564207468726f7567682060408201526b6163746976652070726f787960a01b606082015260800190565b600060208284031215614a4457600080fd5b815180151581146129db57600080fd5b6020808252601590820152744e6f74206f776e6572206f722064656c656761746560581b604082015260600190565b634e487b7160e01b600052601160045260246000fd5b81810381811115613f1e57613f1e614a83565b602080825260129082015271105c989a5d1c985d1bdc881b9bdd081cd95d60721b604082015260600190565b6020808252604d908201527f446973707574652068617320616c7265616479206265656e206372656174656460408201527f206f72206265636175736520746865207472616e73616374696f6e206861732060608201526c1899595b88195e1958dd5d1959609a1b608082015260a00190565b60008154614b58816144f9565b808552602060018381168015614b755760018114614b8f57614bbd565b60ff1985168884015283151560051b880183019550614bbd565b866000528260002060005b85811015614bb55781548a8201860152908301908401614b9a565b890184019650505b505050505092915050565b6020815260006129db6020830184614b4b565b80820180821115613f1e57613f1e614a83565b6002811061041757610417613fad565b60608101614c0b85614bee565b848252614c1784614bee565b602082019390935260400152919050565b60208101614c3583614bee565b91905290565b8281526040602082015260006129d86040830184614b4b565b6020815260006129db6020830184613ffb565b8082028115828204841417613f1e57613f1e614a83565b600082614c9b57634e487b7160e01b600052601260045260246000fd5b500490565b8d8152602081018d9052604081018c90526001600160a01b038b81166060830152608082018b905260a082018a905260c0820189905261ffff88811660e08401528781166101008401528616610120830152841661014082015260006101a080610160840152614d1281840186614b4b565b915050826101808301529e9d5050505050505050505050505050565b60ff831681526040602082015260006129d86040830184614b4b565b6020808252602b908201527f496e697469616c697a61626c653a20636f6e7472616374206973206e6f74206960408201526a6e697469616c697a696e6760a81b606082015260800190565b85815260a08101614da586614bee565b60208201959095526001600160a01b03939093166040840152606083019190915260809091015291905056fe360894a13ba1a3210667c828492db98dca3e2076cc3735a920a3ca505d382bbc73e533bc8a993eccbc1023beebad0020f6b6c3639f83062f00fc194b4d1172ba416464726573733a206c6f772d6c6576656c2064656c65676174652063616c6c206661696c6564a2646970667358221220299a8787825113ae4e5e97a21eec2568a86e8e9893bc402463847cfc840d978764736f6c63430008110033",
  "linkReferences": {},
  "deployedLinkReferences": {}
}