{
  "_format": "hh-sol-artifact-1",
  "contractName": "TalentLayerEscrow",
  "sourceName": "contracts/TalentLayerEscrow.sol",
  "abi": [
    {
      "inputs": [],
      "stateMutability": "nonpayable",
      "type": "constructor"
    },
    {
      "anonymous": false,
      "inputs": [
        {
          "indexed": false,
          "internalType": "address",
          "name": "previousAdmin",
          "type": "address"
        },
        {
          "indexed": false,
          "internalType": "address",
          "name": "newAdmin",
          "type": "address"
        }
      ],
      "name": "AdminChanged",
      "type": "event"
    },
    {
      "anonymous": false,
      "inputs": [
        {
          "indexed": true,
          "internalType": "uint256",
          "name": "_transactionId",
          "type": "uint256"
        },
        {
          "indexed": false,
          "internalType": "enum TalentLayerEscrow.ArbitrationFeePaymentType",
          "name": "_paymentType",
          "type": "uint8"
        },
        {
          "indexed": false,
          "internalType": "enum TalentLayerEscrow.Party",
          "name": "_party",
          "type": "uint8"
        },
        {
          "indexed": false,
          "internalType": "uint256",
          "name": "_amount",
          "type": "uint256"
        }
      ],
      "name": "ArbitrationFeePayment",
      "type": "event"
    },
    {
      "anonymous": false,
      "inputs": [
        {
          "indexed": true,
          "internalType": "address",
          "name": "beacon",
          "type": "address"
        }
      ],
      "name": "BeaconUpgraded",
      "type": "event"
    },
    {
      "anonymous": false,
      "inputs": [
        {
          "indexed": true,
          "internalType": "contract Arbitrator",
          "name": "_arbitrator",
          "type": "address"
        },
        {
          "indexed": true,
          "internalType": "uint256",
          "name": "_disputeID",
          "type": "uint256"
        },
        {
          "indexed": false,
          "internalType": "uint256",
          "name": "_metaEvidenceID",
          "type": "uint256"
        },
        {
          "indexed": false,
          "internalType": "uint256",
          "name": "_evidenceGroupID",
          "type": "uint256"
        }
      ],
      "name": "Dispute",
      "type": "event"
    },
    {
      "anonymous": false,
      "inputs": [
        {
          "indexed": true,
          "internalType": "contract Arbitrator",
          "name": "_arbitrator",
          "type": "address"
        },
        {
          "indexed": true,
          "internalType": "uint256",
          "name": "_evidenceGroupID",
          "type": "uint256"
        },
        {
          "indexed": true,
          "internalType": "address",
          "name": "_party",
          "type": "address"
        },
        {
          "indexed": false,
          "internalType": "string",
          "name": "_evidence",
          "type": "string"
        }
      ],
      "name": "Evidence",
      "type": "event"
    },
    {
      "anonymous": false,
      "inputs": [
        {
          "indexed": true,
          "internalType": "uint256",
          "name": "_transactionId",
          "type": "uint256"
        },
        {
          "indexed": true,
          "internalType": "uint256",
          "name": "_partyId",
          "type": "uint256"
        },
        {
          "indexed": false,
          "internalType": "string",
          "name": "_evidenceUri",
          "type": "string"
        }
      ],
      "name": "EvidenceSubmitted",
      "type": "event"
    },
    {
      "anonymous": false,
      "inputs": [
        {
          "indexed": false,
          "internalType": "uint256",
          "name": "_platformId",
          "type": "uint256"
        },
        {
          "indexed": true,
          "internalType": "address",
          "name": "_token",
          "type": "address"
        },
        {
          "indexed": false,
          "internalType": "uint256",
          "name": "_amount",
          "type": "uint256"
        }
      ],
      "name": "FeesClaimed",
      "type": "event"
    },
    {
      "anonymous": false,
      "inputs": [
        {
          "indexed": true,
          "internalType": "uint256",
          "name": "_transactionId",
          "type": "uint256"
        },
        {
          "indexed": false,
          "internalType": "enum TalentLayerEscrow.Party",
          "name": "_party",
          "type": "uint8"
        }
      ],
      "name": "HasToPayFee",
      "type": "event"
    },
    {
      "anonymous": false,
      "inputs": [
        {
          "indexed": false,
          "internalType": "uint8",
          "name": "version",
          "type": "uint8"
        }
      ],
      "name": "Initialized",
      "type": "event"
    },
    {
      "anonymous": false,
      "inputs": [
        {
          "indexed": true,
          "internalType": "uint256",
          "name": "_metaEvidenceID",
          "type": "uint256"
        },
        {
          "indexed": false,
          "internalType": "string",
          "name": "_evidence",
          "type": "string"
        }
      ],
      "name": "MetaEvidence",
      "type": "event"
    },
    {
      "anonymous": false,
      "inputs": [
        {
          "indexed": false,
          "internalType": "uint256",
          "name": "_platformId",
          "type": "uint256"
        },
        {
          "indexed": false,
          "internalType": "uint256",
          "name": "_serviceId",
          "type": "uint256"
        },
        {
          "indexed": true,
          "internalType": "address",
          "name": "_token",
          "type": "address"
        },
        {
          "indexed": false,
          "internalType": "uint256",
          "name": "_amount",
          "type": "uint256"
        }
      ],
      "name": "OriginServiceFeeRateReleased",
      "type": "event"
    },
    {
      "anonymous": false,
      "inputs": [
        {
          "indexed": false,
          "internalType": "uint256",
          "name": "_platformId",
          "type": "uint256"
        },
        {
          "indexed": false,
          "internalType": "uint256",
          "name": "_serviceId",
          "type": "uint256"
        },
        {
          "indexed": true,
          "internalType": "address",
          "name": "_token",
          "type": "address"
        },
        {
          "indexed": false,
          "internalType": "uint256",
          "name": "_amount",
          "type": "uint256"
        }
      ],
      "name": "OriginValidatedProposalFeeRateReleased",
      "type": "event"
    },
    {
      "anonymous": false,
      "inputs": [
        {
          "indexed": true,
          "internalType": "address",
          "name": "previousOwner",
          "type": "address"
        },
        {
          "indexed": true,
          "internalType": "address",
          "name": "newOwner",
          "type": "address"
        }
      ],
      "name": "OwnershipTransferred",
      "type": "event"
    },
    {
      "anonymous": false,
      "inputs": [
        {
          "indexed": false,
          "internalType": "uint256",
          "name": "_transactionId",
          "type": "uint256"
        },
        {
          "indexed": false,
          "internalType": "enum TalentLayerEscrow.PaymentType",
          "name": "_paymentType",
          "type": "uint8"
        },
        {
          "indexed": false,
          "internalType": "address",
          "name": "_token",
          "type": "address"
        },
        {
          "indexed": false,
          "internalType": "uint256",
          "name": "_amount",
          "type": "uint256"
        },
        {
          "indexed": false,
          "internalType": "uint256",
          "name": "_serviceId",
          "type": "uint256"
        }
      ],
      "name": "Payment",
      "type": "event"
    },
    {
      "anonymous": false,
      "inputs": [
        {
          "indexed": false,
          "internalType": "uint256",
          "name": "_serviceId",
          "type": "uint256"
        }
      ],
      "name": "PaymentCompleted",
      "type": "event"
    },
    {
      "anonymous": false,
      "inputs": [
        {
          "indexed": false,
          "internalType": "uint16",
          "name": "_protocolEscrowFeeRate",
          "type": "uint16"
        }
      ],
      "name": "ProtocolEscrowFeeRateUpdated",
      "type": "event"
    },
    {
      "anonymous": false,
      "inputs": [
        {
          "indexed": true,
          "internalType": "contract Arbitrator",
          "name": "_arbitrator",
          "type": "address"
        },
        {
          "indexed": true,
          "internalType": "uint256",
          "name": "_disputeID",
          "type": "uint256"
        },
        {
          "indexed": false,
          "internalType": "uint256",
          "name": "_ruling",
          "type": "uint256"
        }
      ],
      "name": "Ruling",
      "type": "event"
    },
    {
      "anonymous": false,
      "inputs": [
        {
          "indexed": true,
          "internalType": "uint256",
          "name": "_transactionId",
          "type": "uint256"
        },
        {
          "indexed": false,
          "internalType": "uint256",
          "name": "_ruling",
          "type": "uint256"
        }
      ],
      "name": "RulingExecuted",
      "type": "event"
    },
    {
      "anonymous": false,
      "inputs": [
        {
          "indexed": false,
          "internalType": "uint256",
          "name": "_transactionId",
          "type": "uint256"
        },
        {
          "indexed": false,
          "internalType": "uint256",
          "name": "_senderId",
          "type": "uint256"
        },
        {
          "indexed": false,
          "internalType": "uint256",
          "name": "_receiverId",
          "type": "uint256"
        },
        {
          "indexed": false,
          "internalType": "address",
          "name": "_token",
          "type": "address"
        },
        {
          "indexed": false,
          "internalType": "uint256",
          "name": "_amount",
          "type": "uint256"
        },
        {
          "indexed": false,
          "internalType": "uint256",
          "name": "_serviceId",
          "type": "uint256"
        },
        {
          "indexed": false,
          "internalType": "uint256",
          "name": "_proposalId",
          "type": "uint256"
        },
        {
          "indexed": false,
          "internalType": "uint16",
          "name": "_protocolEscrowFeeRate",
          "type": "uint16"
        },
        {
          "indexed": false,
          "internalType": "uint16",
          "name": "_originServiceFeeRate",
          "type": "uint16"
        },
        {
          "indexed": false,
          "internalType": "uint16",
          "name": "_originValidatedProposalFeeRate",
          "type": "uint16"
        },
        {
          "indexed": false,
          "internalType": "contract Arbitrator",
          "name": "_arbitrator",
          "type": "address"
        },
        {
          "indexed": false,
          "internalType": "bytes",
          "name": "_arbitratorExtraData",
          "type": "bytes"
        },
        {
          "indexed": false,
          "internalType": "uint256",
          "name": "_arbitrationFeeTimeout",
          "type": "uint256"
        }
      ],
      "name": "TransactionCreated",
      "type": "event"
    },
    {
      "anonymous": false,
      "inputs": [
        {
          "indexed": false,
          "internalType": "address",
          "name": "forwarder",
          "type": "address"
        }
      ],
      "name": "TrustedForwarderAdded",
      "type": "event"
    },
    {
      "anonymous": false,
      "inputs": [
        {
          "indexed": false,
          "internalType": "address",
          "name": "forwarder",
          "type": "address"
        }
      ],
      "name": "TrustedForwarderRemoved",
      "type": "event"
    },
    {
      "anonymous": false,
      "inputs": [
        {
          "indexed": true,
          "internalType": "address",
          "name": "implementation",
          "type": "address"
        }
      ],
      "name": "Upgraded",
      "type": "event"
    },
    {
      "inputs": [
        {
          "internalType": "address",
          "name": "_forwarder",
          "type": "address"
        }
      ],
      "name": "addTrustedForwarder",
      "outputs": [],
      "stateMutability": "nonpayable",
      "type": "function"
    },
    {
      "inputs": [
        {
          "internalType": "uint256",
          "name": "_transactionId",
          "type": "uint256"
        }
      ],
      "name": "appeal",
      "outputs": [],
      "stateMutability": "payable",
      "type": "function"
    },
    {
      "inputs": [
        {
          "internalType": "uint256",
          "name": "_platformId",
          "type": "uint256"
        },
        {
          "internalType": "address",
          "name": "_tokenAddress",
          "type": "address"
        }
      ],
      "name": "claim",
      "outputs": [],
      "stateMutability": "nonpayable",
      "type": "function"
    },
    {
      "inputs": [
        {
          "internalType": "uint256",
          "name": "_platformId",
          "type": "uint256"
        }
      ],
      "name": "claimAll",
      "outputs": [],
      "stateMutability": "nonpayable",
      "type": "function"
    },
    {
      "inputs": [
        {
          "internalType": "uint256",
          "name": "_serviceId",
          "type": "uint256"
        },
        {
          "internalType": "uint256",
          "name": "_proposalId",
          "type": "uint256"
        },
        {
          "internalType": "string",
          "name": "_metaEvidence",
          "type": "string"
        },
        {
          "internalType": "string",
          "name": "_originDataUri",
          "type": "string"
        }
      ],
      "name": "createETHTransaction",
      "outputs": [
        {
          "internalType": "uint256",
          "name": "",
          "type": "uint256"
        }
      ],
      "stateMutability": "payable",
      "type": "function"
    },
    {
      "inputs": [
        {
          "internalType": "uint256",
          "name": "_serviceId",
          "type": "uint256"
        },
        {
          "internalType": "uint256",
          "name": "_proposalId",
          "type": "uint256"
        },
        {
          "internalType": "string",
          "name": "_metaEvidence",
          "type": "string"
        },
        {
          "internalType": "string",
          "name": "_originDataUri",
          "type": "string"
        }
      ],
      "name": "createTokenTransaction",
      "outputs": [
        {
          "internalType": "uint256",
          "name": "",
          "type": "uint256"
        }
      ],
      "stateMutability": "nonpayable",
      "type": "function"
    },
    {
      "inputs": [
        {
          "internalType": "uint256",
          "name": "",
          "type": "uint256"
        }
      ],
      "name": "disputeIDtoTransactionID",
      "outputs": [
        {
          "internalType": "uint256",
          "name": "",
          "type": "uint256"
        }
      ],
      "stateMutability": "view",
      "type": "function"
    },
    {
      "inputs": [
        {
          "internalType": "address",
          "name": "_token",
          "type": "address"
        }
      ],
      "name": "getClaimableFeeBalance",
      "outputs": [
        {
          "internalType": "uint256",
          "name": "balance",
          "type": "uint256"
        }
      ],
      "stateMutability": "view",
      "type": "function"
    },
    {
      "inputs": [
        {
          "internalType": "uint256",
          "name": "_transactionId",
          "type": "uint256"
        }
      ],
      "name": "getTransactionDetails",
      "outputs": [
        {
          "components": [
            {
              "internalType": "uint256",
              "name": "id",
              "type": "uint256"
            },
            {
              "internalType": "address",
              "name": "sender",
              "type": "address"
            },
            {
              "internalType": "address",
              "name": "receiver",
              "type": "address"
            },
            {
              "internalType": "address",
              "name": "token",
              "type": "address"
            },
            {
              "internalType": "uint256",
              "name": "amount",
              "type": "uint256"
            },
            {
              "internalType": "uint256",
              "name": "serviceId",
              "type": "uint256"
            },
            {
              "internalType": "uint256",
              "name": "proposalId",
              "type": "uint256"
            },
            {
              "internalType": "uint16",
              "name": "protocolEscrowFeeRate",
              "type": "uint16"
            },
            {
              "internalType": "uint16",
              "name": "originServiceFeeRate",
              "type": "uint16"
            },
            {
              "internalType": "uint16",
              "name": "originValidatedProposalFeeRate",
              "type": "uint16"
            },
            {
              "internalType": "contract Arbitrator",
              "name": "arbitrator",
              "type": "address"
            },
            {
              "internalType": "enum TalentLayerEscrow.Status",
              "name": "status",
              "type": "uint8"
            },
            {
              "internalType": "uint256",
              "name": "disputeId",
              "type": "uint256"
            },
            {
              "internalType": "uint256",
              "name": "senderFee",
              "type": "uint256"
            },
            {
              "internalType": "uint256",
              "name": "receiverFee",
              "type": "uint256"
            },
            {
              "internalType": "uint256",
              "name": "lastInteraction",
              "type": "uint256"
            },
            {
              "internalType": "bytes",
              "name": "arbitratorExtraData",
              "type": "bytes"
            },
            {
              "internalType": "uint256",
              "name": "arbitrationFeeTimeout",
              "type": "uint256"
            }
          ],
          "internalType": "struct TalentLayerEscrow.Transaction",
          "name": "",
          "type": "tuple"
        }
      ],
      "stateMutability": "view",
      "type": "function"
    },
    {
      "inputs": [
        {
          "internalType": "address",
          "name": "_talentLayerServiceAddress",
          "type": "address"
        },
        {
          "internalType": "address",
          "name": "_talentLayerIDAddress",
          "type": "address"
        },
        {
          "internalType": "address",
          "name": "_talentLayerPlatformIDAddress",
          "type": "address"
        },
        {
          "internalType": "address",
          "name": "_protocolWallet",
          "type": "address"
        }
      ],
      "name": "initialize",
      "outputs": [],
      "stateMutability": "nonpayable",
      "type": "function"
    },
    {
      "inputs": [
        {
          "internalType": "address",
          "name": "forwarder",
          "type": "address"
        }
      ],
      "name": "isTrustedForwarder",
      "outputs": [
        {
          "internalType": "bool",
          "name": "",
          "type": "bool"
        }
      ],
      "stateMutability": "view",
      "type": "function"
    },
    {
      "inputs": [],
      "name": "owner",
      "outputs": [
        {
          "internalType": "address",
          "name": "",
          "type": "address"
        }
      ],
      "stateMutability": "view",
      "type": "function"
    },
    {
      "inputs": [
        {
          "internalType": "uint256",
          "name": "_transactionId",
          "type": "uint256"
        }
      ],
      "name": "payArbitrationFeeByReceiver",
      "outputs": [],
      "stateMutability": "payable",
      "type": "function"
    },
    {
      "inputs": [
        {
          "internalType": "uint256",
          "name": "_transactionId",
          "type": "uint256"
        }
      ],
      "name": "payArbitrationFeeBySender",
      "outputs": [],
      "stateMutability": "payable",
      "type": "function"
    },
    {
      "inputs": [],
      "name": "protocolEscrowFeeRate",
      "outputs": [
        {
          "internalType": "uint16",
          "name": "",
          "type": "uint16"
        }
      ],
      "stateMutability": "view",
      "type": "function"
    },
    {
      "inputs": [],
      "name": "protocolWallet",
      "outputs": [
        {
          "internalType": "address payable",
          "name": "",
          "type": "address"
        }
      ],
      "stateMutability": "view",
      "type": "function"
    },
    {
      "inputs": [],
      "name": "proxiableUUID",
      "outputs": [
        {
          "internalType": "bytes32",
          "name": "",
          "type": "bytes32"
        }
      ],
      "stateMutability": "view",
      "type": "function"
    },
    {
      "inputs": [
        {
          "internalType": "uint256",
          "name": "_profileId",
          "type": "uint256"
        },
        {
          "internalType": "uint256",
          "name": "_transactionId",
          "type": "uint256"
        },
        {
          "internalType": "uint256",
          "name": "_amount",
          "type": "uint256"
        }
      ],
      "name": "reimburse",
      "outputs": [],
      "stateMutability": "nonpayable",
      "type": "function"
    },
    {
      "inputs": [
        {
          "internalType": "uint256",
          "name": "_profileId",
          "type": "uint256"
        },
        {
          "internalType": "uint256",
          "name": "_transactionId",
          "type": "uint256"
        },
        {
          "internalType": "uint256",
          "name": "_amount",
          "type": "uint256"
        }
      ],
      "name": "release",
      "outputs": [],
      "stateMutability": "nonpayable",
      "type": "function"
    },
    {
      "inputs": [
        {
          "internalType": "address",
          "name": "_forwarder",
          "type": "address"
        }
      ],
      "name": "removeTrustedForwarder",
      "outputs": [],
      "stateMutability": "nonpayable",
      "type": "function"
    },
    {
      "inputs": [],
      "name": "renounceOwnership",
      "outputs": [],
      "stateMutability": "nonpayable",
      "type": "function"
    },
    {
      "inputs": [
        {
          "internalType": "uint256",
          "name": "_disputeID",
          "type": "uint256"
        },
        {
          "internalType": "uint256",
          "name": "_ruling",
          "type": "uint256"
        }
      ],
      "name": "rule",
      "outputs": [],
      "stateMutability": "nonpayable",
      "type": "function"
    },
    {
      "inputs": [
        {
          "internalType": "uint256",
          "name": "_profileId",
          "type": "uint256"
        },
        {
          "internalType": "uint256",
          "name": "_transactionId",
          "type": "uint256"
        },
        {
          "internalType": "string",
          "name": "_evidence",
          "type": "string"
        }
      ],
      "name": "submitEvidence",
      "outputs": [],
      "stateMutability": "nonpayable",
      "type": "function"
    },
    {
      "inputs": [
        {
          "internalType": "uint256",
          "name": "_transactionId",
          "type": "uint256"
        }
      ],
      "name": "timeOutByReceiver",
      "outputs": [],
      "stateMutability": "nonpayable",
      "type": "function"
    },
    {
      "inputs": [
        {
          "internalType": "uint256",
          "name": "_transactionId",
          "type": "uint256"
        }
      ],
      "name": "timeOutBySender",
      "outputs": [],
      "stateMutability": "nonpayable",
      "type": "function"
    },
    {
      "inputs": [
        {
          "internalType": "address",
          "name": "newOwner",
          "type": "address"
        }
      ],
      "name": "transferOwnership",
      "outputs": [],
      "stateMutability": "nonpayable",
      "type": "function"
    },
    {
      "inputs": [
        {
          "internalType": "uint16",
          "name": "_protocolEscrowFeeRate",
          "type": "uint16"
        }
      ],
      "name": "updateProtocolEscrowFeeRate",
      "outputs": [],
      "stateMutability": "nonpayable",
      "type": "function"
    },
    {
      "inputs": [
        {
          "internalType": "address payable",
          "name": "_protocolWallet",
          "type": "address"
        }
      ],
      "name": "updateProtocolWallet",
      "outputs": [],
      "stateMutability": "nonpayable",
      "type": "function"
    },
    {
      "inputs": [
        {
          "internalType": "address",
          "name": "newImplementation",
          "type": "address"
        }
      ],
      "name": "upgradeTo",
      "outputs": [],
      "stateMutability": "nonpayable",
      "type": "function"
    },
    {
      "inputs": [
        {
          "internalType": "address",
          "name": "newImplementation",
          "type": "address"
        },
        {
          "internalType": "bytes",
          "name": "data",
          "type": "bytes"
        }
      ],
      "name": "upgradeToAndCall",
      "outputs": [],
      "stateMutability": "payable",
      "type": "function"
    }
  ],
  "bytecode": "0x60a0604052306080523480156200001557600080fd5b506200002062000026565b620000e8565b600054610100900460ff1615620000935760405162461bcd60e51b815260206004820152602760248201527f496e697469616c697a61626c653a20636f6e747261637420697320696e697469604482015266616c697a696e6760c81b606482015260840160405180910390fd5b60005460ff9081161015620000e6576000805460ff191660ff9081179091556040519081527f7f26b83ff96e1f2b6a682f133852f6798a09c465da95921460cefb38474024989060200160405180910390a15b565b608051615e556200012060003960008181610c5901528181610c99015281816112e40152818161132401526113b30152615e556000f3fe6080604052600436106101cd5760003560e01c80636e72b452116100f757806399a4a1e511610095578063eb63612d11610064578063eb63612d1461053c578063f2fde38b1461055c578063f42cadc11461057c578063f8c8765e1461059c57600080fd5b806399a4a1e5146104bc5780639dcc5daf146104dc578063ddd5e1b2146104fc578063e308a0991461051c57600080fd5b80637b44cdb5116100d15780637b44cdb5146104585780637e69b7b01461046b5780638b69fa0a1461047e5780638da5cb5b1461049e57600080fd5b80636e72b4521461041d578063702db1b014610430578063715018a61461044357600080fd5b80633751d89c1161016f57806352d1902d1161013e57806352d1902d1461036c578063572b6c05146103815780635a34257a146103ca5780636930fd2a146103ff57600080fd5b80633751d89c146102f95780633a1121cd146103195780633de0c7ef146103395780634f1ef2861461035957600080fd5b806326d00668116101ab57806326d006681461026a5780632fbe3b031461028c578063311a6c56146102b95780633659cfe6146102d957600080fd5b806306d6e63f146101d25780630a1a47d61461020f5780630fa683d31461023d575b600080fd5b3480156101de57600080fd5b5060cf546101f2906001600160a01b031681565b6040516001600160a01b0390911681526020015b60405180910390f35b34801561021b57600080fd5b5061022f61022a366004614ef4565b6105bc565b604051908152602001610206565b34801561024957600080fd5b5061025d610258366004614f11565b61072c565b6040516102069190614fa4565b34801561027657600080fd5b5061028a610285366004614ef4565b610a54565b005b34801561029857600080fd5b5061022f6102a7366004614f11565b60d06020526000908152604090205481565b3480156102c557600080fd5b5061028a6102d43660046150ee565b610ab7565b3480156102e557600080fd5b5061028a6102f4366004614ef4565b610c4f565b34801561030557600080fd5b5061028a610314366004614ef4565b610d2b565b34801561032557600080fd5b5061028a610334366004615110565b610d84565b34801561034557600080fd5b5061028a610354366004614f11565b61114e565b61028a610367366004615236565b6112da565b34801561037857600080fd5b5061022f6113a6565b34801561038d57600080fd5b506103ba61039c366004614ef4565b6001600160a01b031660009081526065602052604090205460ff1690565b6040519015158152602001610206565b3480156103d657600080fd5b5060cf546103ec90600160a01b900461ffff1681565b60405161ffff9091168152602001610206565b34801561040b57600080fd5b5061028a61041a366004614f11565b50565b61028a61042b366004614f11565b611459565b61022f61043e3660046152ba565b611714565b34801561044f57600080fd5b5061028a611ef7565b61028a610466366004614f11565b611f0b565b61028a610479366004614f11565b6121a1565b34801561048a57600080fd5b5061028a610499366004615331565b612274565b3480156104aa57600080fd5b506033546001600160a01b03166101f2565b3480156104c857600080fd5b5061022f6104d73660046152ba565b6125bc565b3480156104e857600080fd5b5061028a6104f7366004615110565b612cbb565b34801561050857600080fd5b5061028a610517366004615381565b613085565b34801561052857600080fd5b5061028a610537366004614ef4565b61328e565b34801561054857600080fd5b5061028a6105573660046153c1565b6132b8565b34801561056857600080fd5b5061028a610577366004614ef4565b613310565b34801561058857600080fd5b5061028a610597366004614f11565b613386565b3480156105a857600080fd5b5061028a6105b73660046153de565b613514565b6000806105c7613684565b9050806001600160a01b03166105e56033546001600160a01b031690565b6001600160a01b03160361062f5750506001600160a01b031660009081527f4239c2c8c3d9b94feb214b0f54d7c869ce1ceb63517be57644336cda4967a468602052604090205490565b60ce54604051631847c06b60e01b81526001600160a01b0383811660048301526000921690631847c06b90602401602060405180830381865afa15801561067a573d6000803e3d6000fd5b505050506040513d601f19601f8201168201806040525081019061069e919061543a565b60ce5460405162f577a560e81b8152600481018390529192506001600160a01b03169063f577a5009060240160006040518083038186803b1580156106e257600080fd5b505afa1580156106f6573d6000803e3d6000fd5b50505060009182525060cb602090815260408083206001600160a01b039096168352949052929092205492915050565b50919050565b6107be6040805161024081018252600080825260208201819052918101829052606081018290526080810182905260a0810182905260c0810182905260e081018290526101008101829052610120810182905261014081018290529061016082019081526020016000815260200160008152602001600081526020016000815260200160608152602001600081525090565b60ca5482106107e85760405162461bcd60e51b81526004016107df90615453565b60405180910390fd5b600060ca83815481106107fd576107fd61548a565b60009182526020918290206040805161024081018252600e9093029091018054835260018101546001600160a01b039081169484019490945260028101548416918301919091526003810154831660608301526004808201546080840152600582015460a0840152600682015460c0840152600782015461ffff80821660e08601526201000082048116610100860152600160201b820416610120850152600160301b81049094166101408401529192909161016084019160ff600160d01b90910416908111156108d0576108d0614f2a565b60048111156108e1576108e1614f2a565b81526020016008820154815260200160098201548152602001600a8201548152602001600b8201548152602001600c8201805461091d906154a0565b80601f0160208091040260200160405190810160405280929190818152602001828054610949906154a0565b80156109965780601f1061096b57610100808354040283529160200191610996565b820191906000526020600020905b81548152906001019060200180831161097957829003601f168201915b50505050508152602001600d82015481525050905060006109b5613684565b905081602001516001600160a01b0316816001600160a01b031614806109f0575081604001516001600160a01b0316816001600160a01b0316145b610a4d5760405162461bcd60e51b815260206004820152602860248201527f596f7520617265206e6f742072656c6174656420746f2074686973207472616e60448201526739b0b1ba34b7b71760c11b60648201526084016107df565b5092915050565b610a5c6136bd565b6001600160a01b038116600081815260656020908152604091829020805460ff1916600117905590519182527f3ef8564460ada92419608d823c014975d98f8104d7d1e68c222967ac6814cd9791015b60405180910390a150565b6000610ac1613684565b600084815260d0602052604081205460ca8054939450909283908110610ae957610ae961548a565b90600052602060002090600e020190508060070160069054906101000a90046001600160a01b03166001600160a01b0316836001600160a01b031614610b7c5760405162461bcd60e51b815260206004820152602260248201527f5468652063616c6c6572206d757374206265207468652061726269747261746f604482015261391760f11b60648201526084016107df565b60036007820154600160d01b900460ff166004811115610b9e57610b9e614f2a565b14610bfa5760405162461bcd60e51b815260206004820152602660248201527f54686520646973707574652068617320616c7265616479206265656e2072657360448201526537b63b32b21760d11b60648201526084016107df565b84836001600160a01b03167f394027a5fa6e098a1191094d1719d6929b9abc535fcc0c8f448d6a4e7562227686604051610c3691815260200190565b60405180910390a3610c488285613736565b5050505050565b6001600160a01b037f0000000000000000000000000000000000000000000000000000000000000000163003610c975760405162461bcd60e51b81526004016107df906154d4565b7f00000000000000000000000000000000000000000000000000000000000000006001600160a01b0316610ce0600080516020615db9833981519152546001600160a01b031690565b6001600160a01b031614610d065760405162461bcd60e51b81526004016107df90615520565b610d0f81613e74565b6040805160008082526020820190925261041a91839190613e7c565b610d336136bd565b6001600160a01b038116600081815260656020908152604091829020805460ff1916905590519182527fd2d636efcad0cea42e170256f4c5d8b1cd81e47b855557edaf44014e6cc4cee69101610aac565b60cd5483906001600160a01b0316632fa117e582610da0613684565b6040516001600160e01b031960e085901b16815260048101929092526001600160a01b03166024820152604401602060405180830381865afa158015610dea573d6000803e3d6000fd5b505050506040513d601f19601f82011682018060405250810190610e0e919061556c565b610e2a5760405162461bcd60e51b81526004016107df9061558e565b60ca548310610e4b5760405162461bcd60e51b81526004016107df90615453565b600060ca8481548110610e6057610e6061548a565b6000918252602090912060cd546040516331a9108f60e11b815260048101899052600e90930290910192506001600160a01b031690636352211e90602401602060405180830381865afa158015610ebb573d6000803e3d6000fd5b505050506040513d601f19601f82011682018060405250810190610edf91906155cd565b60018201546001600160a01b03908116911614610f0e5760405162461bcd60e51b81526004016107df906155ea565b60006007820154600160d01b900460ff166004811115610f3057610f30614f2a565b14610f4d5760405162461bcd60e51b81526004016107df90615612565b8281600401541015610f975760405162461bcd60e51b815260206004820152601360248201527224b739bab33334b1b4b2b73a10333ab732399760691b60448201526064016107df565b82816004016000828254610fab919061566e565b909155505060408051610240810182528254815260018301546001600160a01b03908116602083015260028401548116928201929092526003830154821660608201526004808401546080830152600584015460a0830152600684015460c0830152600784015461ffff80821660e08501526201000082048116610100850152600160201b820416610120840152600160301b8104909316610140830152610c48928491610160840191600160d01b900460ff169081111561106f5761106f614f2a565b600481111561108057611080614f2a565b81526020016008820154815260200160098201548152602001600a8201548152602001600b8201548152602001600c820180546110bc906154a0565b80601f01602080910402602001604051908101604052809291908181526020018280546110e8906154a0565b80156111355780601f1061110a57610100808354040283529160200191611135565b820191906000526020600020905b81548152906001019060200180831161111857829003601f168201915b50505050508152602001600d8201548152505084613fe7565b600060ca82815481106111635761116361548a565b60009182526020909120600e90910201905060016007820154600160d01b900460ff16600481111561119757611197614f2a565b146111fa5760405162461bcd60e51b815260206004820152602d60248201527f546865207472616e73616374696f6e206973206e6f742077616974696e67206f60448201526c37103a34329039b2b73232b91760991b60648201526084016107df565b600d810154600b82015461120e904261566e565b101561125c5760405162461bcd60e51b815260206004820181905260248201527f54696d656f75742074696d6520686173206e6f7420706173736564207965742e60448201526064016107df565b6009810154156112cb57600981018054600091829055600183015460405191926001600160a01b0390911691839181818185875af1925050503d80600081146112c1576040519150601f19603f3d011682016040523d82523d6000602084013e6112c6565b606091505b505050505b6112d6826002613736565b5050565b6001600160a01b037f00000000000000000000000000000000000000000000000000000000000000001630036113225760405162461bcd60e51b81526004016107df906154d4565b7f00000000000000000000000000000000000000000000000000000000000000006001600160a01b031661136b600080516020615db9833981519152546001600160a01b031690565b6001600160a01b0316146113915760405162461bcd60e51b81526004016107df90615520565b61139a82613e74565b6112d682826001613e7c565b6000306001600160a01b037f000000000000000000000000000000000000000000000000000000000000000016146114465760405162461bcd60e51b815260206004820152603860248201527f555550535570677261646561626c653a206d757374206e6f742062652063616c60448201527f6c6564207468726f7567682064656c656761746563616c6c000000000000000060648201526084016107df565b50600080516020615db983398151915290565b600060ca828154811061146e5761146e61548a565b600091825260209091206007600e9092020190810154909150600160301b90046001600160a01b03166114b35760405162461bcd60e51b81526004016107df90615681565b60036007820154600160d01b900460ff1660048111156114d5576114d5614f2a565b106114f25760405162461bcd60e51b81526004016107df906156ae565b60028101546001600160a01b0316611508613684565b6001600160a01b03161461155e5760405162461bcd60e51b815260206004820181905260248201527f5468652063616c6c6572206d757374206265207468652072656365697665722e60448201526064016107df565b600781015460405163f7434ea960e01b8152600091600160301b90046001600160a01b03169063f7434ea99061159b90600c86019060040161579f565b602060405180830381865afa1580156115b8573d6000803e3d6000fd5b505050506040513d601f19601f820116820180604052508101906115dc919061543a565b90503482600a0160008282546115f291906157b2565b9091555050600a82015481146116705760405162461bcd60e51b815260206004820152603760248201527f54686520726563656976657220666565206d75737420626520657175616c207460448201527f6f20746865206172626974726174696f6e20636f73742e00000000000000000060648201526084016107df565b42600b8301556040518390600080516020615dd98339815191529061169c9060009060019034906157d5565b60405180910390a280826009015410156117055760078201805460ff60d01b1916600160d01b17905560405183907fc74b9f7dedf2887cd3c113b6d8da9cea19e55c1116e25f1f0e1b72d7543179b5906116f8906000906157ff565b60405180910390a2505050565b61170f838261435e565b505050565b600080611720866145d7565b9050600061172e8787614688565b60cd5460208401516040516331a9108f60e11b81529293506000926001600160a01b0390921691636352211e9161176b9160040190815260200190565b602060405180830381865afa158015611788573d6000803e3d6000fd5b505050506040513d601f19601f820116820180604052508101906117ac91906155cd565b60cd5460208401516040516331a9108f60e11b81529293506000926001600160a01b0390921691636352211e916117e99160040190815260200190565b602060405180830381865afa158015611806573d6000803e3d6000fd5b505050506040513d601f19601f8201168201806040525081019061182a91906155cd565b60ce5460a0860151604051630b7a459360e31b81529293506000926001600160a01b0390921691635bd22c98916118679160040190815260200190565b600060405180830381865afa158015611884573d6000803e3d6000fd5b505050506040513d6000823e601f3d908101601f191682016040526118ac9190810190615862565b90506000846080015161ffff168660a00151036118c95781611943565b60ce546080860151604051630b7a459360e31b815261ffff90911660048201526001600160a01b0390911690635bd22c9890602401600060405180830381865afa15801561191b573d6000803e3d6000fd5b505050506040513d6000823e601f3d908101601f191682016040526119439190810190615862565b9050600061195e86606001518460600151846080015161474e565b9050846001600160a01b0316611972613684565b6001600160a01b0316146119985760405162461bcd60e51b81526004016107df906155ea565b8034146119dd5760405162461bcd60e51b81526020600482015260136024820152722737b716b6b0ba31b434b73390333ab732399760691b60448201526064016107df565b60408601516001600160a01b031615611a385760405162461bcd60e51b815260206004820152601760248201527f50726f706f73616c20746f6b656e206e6f74204554482e00000000000000000060448201526064016107df565b8a866020015114611a845760405162461bcd60e51b815260206004820152601660248201527524b731b7b93932b1ba10383937b837b9b0b61024a21760511b60448201526064016107df565b600087516003811115611a9957611a99614f2a565b14611ae15760405162461bcd60e51b815260206004820152601860248201527729b2b93b34b1b29039ba30ba3ab9903737ba1037b832b71760411b60448201526064016107df565b600086516001811115611af657611af6614f2a565b14611b435760405162461bcd60e51b815260206004820152601c60248201527f50726f706f73616c20737461747573206e6f742070656e64696e672e0000000060448201526064016107df565b88604051602001611b54919061597a565b604051602081830303815290604052805190602001208660a00151604051602001611b7f919061597a565b6040516020818303038152906040528051906020012014611be25760405162461bcd60e51b815260206004820152601d60248201527f50726f706f73616c206461746155726920686173206368616e6765642e00000060448201526064016107df565b600060ca80549050905060ca604051806102400160405280838152602001886001600160a01b03168152602001876001600160a01b0316815260200189604001516001600160a01b03168152602001896060015181526020018f81526020018e815260200160cf60149054906101000a900461ffff1661ffff168152602001866060015161ffff168152602001856080015161ffff1681526020018660e001516001600160a01b0316815260200160006004811115611ca357611ca3614f2a565b8152600060208083018290526040808401839052606080850184905242608080870191909152610100808d015160a080890191909152610120808f015160c0998a01528a5460018181018d559b8952978790208a51600e909902019788559589015199870180546001600160a01b039b8c166001600160a01b03199182161790915594890151600288018054918c1691871691909117905592880151600387018054918b16919095161790935586015160048086019190915590860151600585015593850151600684015560e08501516007840180549287015193870151610140880151909816600160301b026601000000000000600160d01b031961ffff998a16600160201b0216640100000000600160d01b0319958a16620100000263ffffffff19909516999093169890981792909217929092169190911794909417808555610160840151939491939260ff60d01b1990911690600160d01b908490811115611e1157611e11614f2a565b021790555061018082015160088201556101a082015160098201556101c0820151600a8201556101e0820151600b820155610200820151600c820190611e5790826159dc565b506102209190910151600d9091015560cc546040516353eaf57560e11b8152600481018f9052602481018e9052604481018390526001600160a01b039091169063a7d5eaea906064015b600060405180830381600087803b158015611ebb57600080fd5b505af1158015611ecf573d6000803e3d6000fd5b50505050611ee788602001518860200151838e6147b7565b9c9b505050505050505050505050565b611eff6136bd565b611f0960006148d0565b565b600060ca8281548110611f2057611f2061548a565b600091825260209091206007600e9092020190810154909150600160301b90046001600160a01b0316611f655760405162461bcd60e51b81526004016107df90615681565b60036007820154600160d01b900460ff166004811115611f8757611f87614f2a565b10611fa45760405162461bcd60e51b81526004016107df906156ae565b60018101546001600160a01b0316611fba613684565b6001600160a01b0316146120105760405162461bcd60e51b815260206004820152601e60248201527f5468652063616c6c6572206d757374206265207468652073656e6465722e000060448201526064016107df565b600781015460405163f7434ea960e01b8152600091600160301b90046001600160a01b03169063f7434ea99061204d90600c86019060040161579f565b602060405180830381865afa15801561206a573d6000803e3d6000fd5b505050506040513d601f19601f8201168201806040525081019061208e919061543a565b9050348260090160008282546120a491906157b2565b90915550506009820154811461211a5760405162461bcd60e51b815260206004820152603560248201527f5468652073656e64657220666565206d75737420626520657175616c20746f206044820152743a34329030b93134ba3930ba34b7b71031b7b9ba1760591b60648201526084016107df565b42600b8301556040518390600080516020615dd98339815191529061214590600090819034906157d5565b60405180910390a28082600a015410156117055760078201805460ff60d01b1916600160d11b17905560405183907fc74b9f7dedf2887cd3c113b6d8da9cea19e55c1116e25f1f0e1b72d7543179b5906116f8906001906157ff565b600060ca82815481106121b6576121b661548a565b600091825260209091206007600e9092020190810154909150600160301b90046001600160a01b03166121fb5760405162461bcd60e51b81526004016107df90615681565b6007810154600882015460405163093225f160e31b8152600160301b9092046001600160a01b0316916349912f8891349161223e9190600c870190600401615a9c565b6000604051808303818588803b15801561225757600080fd5b505af115801561226b573d6000803e3d6000fd5b50505050505050565b60cd5483906001600160a01b0316632fa117e582612290613684565b6040516001600160e01b031960e085901b16815260048101929092526001600160a01b03166024820152604401602060405180830381865afa1580156122da573d6000803e3d6000fd5b505050506040513d601f19601f820116820180604052508101906122fe919061556c565b61231a5760405162461bcd60e51b81526004016107df9061558e565b600060ca848154811061232f5761232f61548a565b600091825260209091206007600e9092020190810154909150600160301b90046001600160a01b03166123745760405162461bcd60e51b81526004016107df90615681565b60cd546040516331a9108f60e11b8152600481018790526000916001600160a01b031690636352211e90602401602060405180830381865afa1580156123be573d6000803e3d6000fd5b505050506040513d601f19601f820116820180604052508101906123e291906155cd565b60018301549091506001600160a01b0380831691161480612412575060028201546001600160a01b038281169116145b61248e5760405162461bcd60e51b815260206004820152604160248201527f5468652063616c6c6572206d757374206265207468652073656e646572206f7260448201527f20746865207265636569766572206f722074686569722064656c6567617465736064820152601760f91b608482015260a4016107df565b60046007830154600160d01b900460ff1660048111156124b0576124b0614f2a565b106125185760405162461bcd60e51b815260206004820152603260248201527f4d757374206e6f742073656e642065766964656e63652069662074686520646960448201527139b83aba329034b9903932b9b7b63b32b21760711b60648201526084016107df565b806001600160a01b0316858360070160069054906101000a90046001600160a01b03166001600160a01b03167fdccf2f8b2cc26eafcd61905cba744cff4b81d14740725f6376390dc6298a6a3c876040516125739190615ab5565b60405180910390a485857fd998ce0f89c38b0f93256f0b843a404a3a3c5055b75265623f7cb9c369a1dd62866040516125ac9190615ab5565b60405180910390a3505050505050565b6000806125c8866145d7565b905060006125d68787614688565b60cd5460208401516040516331a9108f60e11b81529293506000926001600160a01b0390921691636352211e916126139160040190815260200190565b602060405180830381865afa158015612630573d6000803e3d6000fd5b505050506040513d601f19601f8201168201806040525081019061265491906155cd565b60cd5460208401516040516331a9108f60e11b81529293506000926001600160a01b0390921691636352211e916126919160040190815260200190565b602060405180830381865afa1580156126ae573d6000803e3d6000fd5b505050506040513d601f19601f820116820180604052508101906126d291906155cd565b60ce5460a0860151604051630b7a459360e31b81529293506000926001600160a01b0390921691635bd22c989161270f9160040190815260200190565b600060405180830381865afa15801561272c573d6000803e3d6000fd5b505050506040513d6000823e601f3d908101601f191682016040526127549190810190615862565b90506000846080015161ffff168660a001510361277157816127eb565b60ce546080860151604051630b7a459360e31b815261ffff90911660048201526001600160a01b0390911690635bd22c9890602401600060405180830381865afa1580156127c3573d6000803e3d6000fd5b505050506040513d6000823e601f3d908101601f191682016040526127eb9190810190615862565b9050600061280686606001518460600151846080015161474e565b9050846001600160a01b031661281a613684565b6001600160a01b0316146128405760405162461bcd60e51b81526004016107df906155ea565b60008751600381111561285557612855614f2a565b1461289d5760405162461bcd60e51b815260206004820152601860248201527729b2b93b34b1b29039ba30ba3ab9903737ba1037b832b71760411b60448201526064016107df565b6000865160018111156128b2576128b2614f2a565b146128ff5760405162461bcd60e51b815260206004820152601c60248201527f50726f706f73616c20737461747573206e6f742070656e64696e672e0000000060448201526064016107df565b8a86602001511461294b5760405162461bcd60e51b815260206004820152601660248201527524b731b7b93932b1ba10383937b837b9b0b61024a21760511b60448201526064016107df565b8860405160200161295c919061597a565b604051602081830303815290604052805190602001208660a00151604051602001612987919061597a565b60405160208183030381529060405280519060200120146129ea5760405162461bcd60e51b815260206004820181905260248201527f50726f706f73616c20646174612055524920617265206e6f7420657175616c2e60448201526064016107df565b600060ca80549050905060ca604051806102400160405280838152602001886001600160a01b03168152602001876001600160a01b0316815260200189604001516001600160a01b03168152602001896060015181526020018f81526020018e815260200160cf60149054906101000a900461ffff1661ffff168152602001866060015161ffff168152602001856080015161ffff1681526020018660e001516001600160a01b0316815260200160006004811115612aab57612aab614f2a565b8152600060208083018290526040808401839052606080850184905242608080870191909152610100808d015160a080890191909152610120808f015160c0998a01528a5460018181018d559b8952978790208a51600e909902019788559589015199870180546001600160a01b039b8c166001600160a01b03199182161790915594890151600288018054918c1691871691909117905592880151600387018054918b16919095161790935586015160048086019190915590860151600585015593850151600684015560e08501516007840180549287015193870151610140880151909816600160301b026601000000000000600160d01b031961ffff998a16600160201b0216640100000000600160d01b0319958a16620100000263ffffffff19909516999093169890981792909217929092169190911794909417808555610160840151939491939260ff60d01b1990911690600160d01b908490811115612c1957612c19614f2a565b021790555061018082015160088201556101a082015160098201556101c0820151600a8201556101e0820151600b820155610200820151600c820190612c5f90826159dc565b5061022082015181600d01555050612c7c86886040015184614922565b60cc546040516353eaf57560e11b8152600481018f9052602481018e9052604481018390526001600160a01b039091169063a7d5eaea90606401611ea1565b60cd5483906001600160a01b0316632fa117e582612cd7613684565b6040516001600160e01b031960e085901b16815260048101929092526001600160a01b03166024820152604401602060405180830381865afa158015612d21573d6000803e3d6000fd5b505050506040513d601f19601f82011682018060405250810190612d45919061556c565b612d615760405162461bcd60e51b81526004016107df9061558e565b60ca548310612d825760405162461bcd60e51b81526004016107df90615453565b600060ca8481548110612d9757612d9761548a565b6000918252602090912060cd546040516331a9108f60e11b815260048101899052600e90930290910192506001600160a01b031690636352211e90602401602060405180830381865afa158015612df2573d6000803e3d6000fd5b505050506040513d601f19601f82011682018060405250810190612e1691906155cd565b60028201546001600160a01b03908116911614612e455760405162461bcd60e51b81526004016107df906155ea565b60006007820154600160d01b900460ff166004811115612e6757612e67614f2a565b14612e845760405162461bcd60e51b81526004016107df90615612565b8281600401541015612ece5760405162461bcd60e51b815260206004820152601360248201527224b739bab33334b1b4b2b73a10333ab732399760691b60448201526064016107df565b82816004016000828254612ee2919061566e565b909155505060408051610240810182528254815260018301546001600160a01b03908116602083015260028401548116928201929092526003830154821660608201526004808401546080830152600584015460a0830152600684015460c0830152600784015461ffff80821660e08501526201000082048116610100850152600160201b820416610120840152600160301b8104909316610140830152610c48928491610160840191600160d01b900460ff1690811115612fa657612fa6614f2a565b6004811115612fb757612fb7614f2a565b81526020016008820154815260200160098201548152602001600a8201548152602001600b8201548152602001600c82018054612ff3906154a0565b80601f016020809104026020016040519081016040528092919081815260200182805461301f906154a0565b801561306c5780601f106130415761010080835404028352916020019161306c565b820191906000526020600020905b81548152906001019060200180831161304f57829003601f168201915b50505050508152602001600d82015481525050846149e0565b600061308f613684565b6001600160a01b03166130aa6033546001600160a01b031690565b6001600160a01b0316036130e85782156130d65760405162461bcd60e51b81526004016107df906155ea565b5060cf546001600160a01b03166131b3565b60ce5460405162f577a560e81b8152600481018590526001600160a01b039091169063f577a5009060240160006040518083038186803b15801561312b57600080fd5b505afa15801561313f573d6000803e3d6000fd5b505060ce546040516331a9108f60e11b8152600481018790526001600160a01b039091169250636352211e9150602401602060405180830381865afa15801561318c573d6000803e3d6000fd5b505050506040513d601f19601f820116820180604052508101906131b091906155cd565b90505b600083815260cb602090815260408083206001600160a01b0386168452909152902054806132165760405162461bcd60e51b815260206004820152601060248201526f6e6f7468696e6720746f20636c61696d60801b60448201526064016107df565b600084815260cb602090815260408083206001600160a01b0387168452909152812055613244828483614aa2565b60408051858152602081018390526001600160a01b038516917f2227733fc4c8a9034cb58087dcf6995128b9c0233b038b03366aaf30c92b92d6910160405180910390a250505050565b6132966136bd565b60cf80546001600160a01b0319166001600160a01b0392909216919091179055565b6132c06136bd565b60cf805461ffff60a01b1916600160a01b61ffff8416908102919091179091556040519081527f8339189e972f7fba792126e752aa8485af08710bce4a041c5bc3f9858acd713090602001610aac565b6133186136bd565b6001600160a01b03811661337d5760405162461bcd60e51b815260206004820152602660248201527f4f776e61626c653a206e6577206f776e657220697320746865207a65726f206160448201526564647265737360d01b60648201526084016107df565b61041a816148d0565b600060ca828154811061339b5761339b61548a565b60009182526020909120600e90910201905060026007820154600160d01b900460ff1660048111156133cf576133cf614f2a565b146134345760405162461bcd60e51b815260206004820152602f60248201527f546865207472616e73616374696f6e206973206e6f742077616974696e67206f60448201526e37103a3432903932b1b2b4bb32b91760891b60648201526084016107df565b600d810154600b820154613448904261566e565b10156134965760405162461bcd60e51b815260206004820181905260248201527f54696d656f75742074696d6520686173206e6f7420706173736564207965742e60448201526064016107df565b600081600a01546000146135095750600a81018054600091829055600283015460405191926001600160a01b0390911691839181818185875af1925050503d8060008114613500576040519150601f19603f3d011682016040523d82523d6000602084013e613505565b606091505b5050505b61170f836001613736565b600054610100900460ff16158080156135345750600054600160ff909116105b8061354e5750303b15801561354e575060005460ff166001145b6135b15760405162461bcd60e51b815260206004820152602e60248201527f496e697469616c697a61626c653a20636f6e747261637420697320616c72656160448201526d191e481a5b9a5d1a585b1a5e995960921b60648201526084016107df565b6000805460ff1916600117905580156135d4576000805461ff0019166101001790555b6135dc614b7c565b6135e4614bab565b60cc80546001600160a01b038088166001600160a01b03199283161790925560cd805487841690831617905560ce805486841690831617905560cf80549285169290911691909117905561363860646132b8565b8015610c48576000805461ff0019169055604051600181527f7f26b83ff96e1f2b6a682f133852f6798a09c465da95921460cefb38474024989060200160405180910390a15050505050565b6000601436108015906136a657503360009081526065602052604090205460ff165b156136b8575060131936013560601c90565b503390565b6136c5613684565b6001600160a01b03166136e06033546001600160a01b031690565b6001600160a01b031614611f095760405162461bcd60e51b815260206004820181905260248201527f4f776e61626c653a2063616c6c6572206973206e6f7420746865206f776e657260448201526064016107df565b600060ca838154811061374b5761374b61548a565b90600052602060002090600e02019050600260ff168211156137a15760405162461bcd60e51b815260206004820152600f60248201526e24b73b30b634b210393ab634b7339760891b60448201526064016107df565b60018101546002820154600483018054600985018054600a87018054600095869055928590559390935560078601805460ff60d01b1916600160d21b1790556001600160a01b0394851694909316929091906000198701613913576040516001600160a01b038616908390600081818185875af1925050503d8060008114613845576040519150601f19603f3d011682016040523d82523d6000602084013e61384a565b606091505b505060408051610240810182528854815260018901546001600160a01b03908116602083015260028a01548116928201929092526003890154821660608201526004808a0154608083015260058a015460a083015260068a015460c083015260078a015461ffff80821660e08501526201000082048116610100850152600160201b820416610120840152600160301b810490931661014083015261390e935090918991610160840191600160d01b900460ff1690811115612fa657612fa6614f2a565b613e30565b6001198701613a2e576040516001600160a01b038516908290600081818185875af1925050503d8060008114613965576040519150601f19603f3d011682016040523d82523d6000602084013e61396a565b606091505b505060408051610240810182528854815260018901546001600160a01b03908116602083015260028a01548116928201929092526003890154821660608201526004808a0154608083015260058a015460a083015260068a015460c083015260078a015461ffff80821660e08501526201000082048116610100850152600160201b820416610120840152600160301b810490931661014083015261390e935090918991610160840191600160d01b900460ff169081111561106f5761106f614f2a565b6000613a3b600284615ac8565b90506000613a4a600286615ac8565b60408051610240810182528a54815260018b01546001600160a01b03908116602083015260028c015481169282019290925260038b0154821660608201526004808c0154608083015260058c015460a083015260068c015460c083015260078c015461ffff80821660e08501526201000082048116610100850152600160201b820416610120840152600160301b8104909316610140830152929350613bed9290918b91610160840191600160d01b900460ff1690811115613b0e57613b0e614f2a565b6004811115613b1f57613b1f614f2a565b81526020016008820154815260200160098201548152602001600a8201548152602001600b8201548152602001600c82018054613b5b906154a0565b80601f0160208091040260200160405190810160405280929190818152602001828054613b87906154a0565b8015613bd45780601f10613ba957610100808354040283529160200191613bd4565b820191906000526020600020905b815481529060010190602001808311613bb757829003601f168201915b50505050508152602001600d82015481525050826149e0565b60408051610240810182528954815260018a01546001600160a01b03908116602083015260028b015481169282019290925260038a0154821660608201526004808b0154608083015260058b015460a083015260068b015460c083015260078b015461ffff80821660e08501526201000082048116610100850152600160201b820416610120840152600160301b8104909316610140830152613d8b928b91610160840191600160d01b900460ff1690811115613cac57613cac614f2a565b6004811115613cbd57613cbd614f2a565b81526020016008820154815260200160098201548152602001600a8201548152602001600b8201548152602001600c82018054613cf9906154a0565b80601f0160208091040260200160405190810160405280929190818152602001828054613d25906154a0565b8015613d725780601f10613d4757610100808354040283529160200191613d72565b820191906000526020600020905b815481529060010190602001808311613d5557829003601f168201915b50505050508152602001600d8201548152505082613fe7565b6040516001600160a01b038816908390600081818185875af1925050503d8060008114613dd4576040519150601f19603f3d011682016040523d82523d6000602084013e613dd9565b606091505b50506040516001600160a01b03881691508390600081818185875af1925050503d8060008114613e25576040519150601f19603f3d011682016040523d82523d6000602084013e613e2a565b606091505b50505050505b877f76b363d70472d47d20e4119f3625c05ed37ca51b1d9e1cd8b87d8c20530640f388604051613e6291815260200190565b60405180910390a25050505050505050565b61041a6136bd565b7f4910fdfa16fed3260ed0e7147f7cc6da11a60208b5b9406d12a635614ffd91435460ff1615613eaf5761170f83614bd2565b826001600160a01b03166352d1902d6040518163ffffffff1660e01b8152600401602060405180830381865afa925050508015613f09575060408051601f3d908101601f19168201909252613f069181019061543a565b60015b613f6c5760405162461bcd60e51b815260206004820152602e60248201527f45524331393637557067726164653a206e657720696d706c656d656e7461746960448201526d6f6e206973206e6f74205555505360901b60648201526084016107df565b600080516020615db98339815191528114613fdb5760405162461bcd60e51b815260206004820152602960248201527f45524331393637557067726164653a20756e737570706f727465642070726f786044820152681a58589b195555525160ba1b60648201526084016107df565b5061170f838383614c6e565b60cc5460a083015160405163ef0e239b60e01b815260048101919091526000916001600160a01b03169063ef0e239b90602401600060405180830381865afa158015614037573d6000803e3d6000fd5b505050506040513d6000823e601f3d908101601f1916820160405261405f9190810190615aea565b60a09081015160cc549185015160c086015160405163aba2100960e01b8152600481019290925260248201529092506000916001600160a01b03169063aba2100990604401600060405180830381865afa1580156140c1573d6000803e3d6000fd5b505050506040513d6000823e601f3d908101601f191682016040526140e99190810190615b9b565b6080015161ffff169050600061271061ffff16848660e0015161ffff166141109190615c55565b61411a9190615ac8565b9050600061271061ffff168587610100015161ffff1661413a9190615c55565b6141449190615ac8565b9050600061271061ffff168688610120015161ffff166141649190615c55565b61416e9190615ac8565b600080805260cb602090815260608a01516001600160a01b031682527f4239c2c8c3d9b94feb214b0f54d7c869ce1ceb63517be57644336cda4967a468905260408120805492935085929091906141c69084906157b2565b9091555050600085815260cb6020908152604080832060608b01516001600160a01b03168452909152812080548492906142019084906157b2565b9091555050600084815260cb6020908152604080832060608b01516001600160a01b031684529091528120805483929061423c9084906157b2565b925050819055506142568760400151886060015188614aa2565b60608088015160a089015160408051898152602081019290925281018590526001600160a01b03909116917f17c48ab8e1617182f35ae77fd7da7f4e15dedf7018aa371a4481c20c790b6546910160405180910390a260608088015160a089015160408051888152602081019290925281018590526001600160a01b03909116917f3476ed3eea2cdac584273bc8830824c8ca42ca2a99e9f144a87a1cdbbf9dd15a910160405180910390a28651606088015160a08901516040517f2ab2a30b19f7bc6e386d4ee60aa21ed23c127ce9fe26903da97edd54bad0375a936143449390926000928c9190615c6c565b60405180910390a161226b8760a001518860800151614c93565b600060ca83815481106143735761437361548a565b60009182526020909120600e9091020160078101805460ff60d01b1916600360d01b179081905560405163c13517e160e01b8152919250600160301b90046001600160a01b031690819063c13517e19085906143d990600290600c880190600401615ca8565b60206040518083038185885af11580156143f7573d6000803e3d6000fd5b50505050506040513d601f19601f8201168201806040525081019061441c919061543a565b60088301818155600091825260d0602090815260409283902087905590548251878152918201879052916001600160a01b038416917f74baab670a4015ab2f1b467c5252a96141a2573f2908e58a92081e80d3cfde3d910160405180910390a3828260090154111561452757600083836009015461449a919061566e565b6009840185905560018401546040519192506001600160a01b0316908290600081818185875af1925050503d80600081146144f1576040519150601f19603f3d011682016040523d82523d6000602084013e6144f6565b606091505b50505084600080516020615dd9833981519152600160003460405161451d939291906157d5565b60405180910390a2505b8282600a015411156145d15760008383600a0154614545919061566e565b600a840185905560028401546040519192506001600160a01b0316908290600081818185875af1925050503d806000811461459c576040519150601f19603f3d011682016040523d82523d6000602084013e6145a1565b606091505b50505084600080516020615dd9833981519152600180346040516145c7939291906157d5565b60405180910390a2505b50505050565b6146116040805160c08101909152806000815260200160008152602001600081526020016060815260200160008152602001600081525090565b60cc5460405163ef0e239b60e01b8152600481018490526001600160a01b039091169063ef0e239b90602401600060405180830381865afa15801561465a573d6000803e3d6000fd5b505050506040513d6000823e601f3d908101601f191682016040526146829190810190615aea565b92915050565b6146cf6040805160c0810190915280600081526020016000815260200160006001600160a01b0316815260200160008152602001600061ffff168152602001606081525090565b60cc5460405163aba2100960e01b815260048101859052602481018490526001600160a01b039091169063aba2100990604401600060405180830381865afa15801561471f573d6000803e3d6000fd5b505050506040513d6000823e601f3d908101601f191682016040526147479190810190615b9b565b9392505050565b600061271061476161ffff841686615c55565b61476f61ffff861687615c55565b60cf5461478790600160a01b900461ffff1688615c55565b61479191906157b2565b61479b91906157b2565b6147a59190615ac8565b6147af90856157b2565b949350505050565b600060ca83815481106147cc576147cc61548a565b90600052602060002090600e020190507f8b4f0e94aa0aee74c276abd2d92a5e2737a493b055e19d5b2d4c0ac573242a158386868460030160009054906101000a90046001600160a01b031685600401548660050154876006015460cf60149054906101000a900461ffff168960070160029054906101000a900461ffff168a60070160049054906101000a900461ffff168b60070160069054906101000a90046001600160a01b03168c600c018d600d01546040516148989d9c9b9a99989796959493929190615cc4565b60405180910390a1827f61606860eb6c87306811e2695215385101daab53bd6ab4e9f9049aead9363c7d836040516145c79190615ab5565b603380546001600160a01b038381166001600160a01b0319831681179093556040519116919082907f8be0079c531659141344cd1fd0a4f28419497f9722a3daafe3b4186f6b6457e090600090a35050565b6040516323b872dd60e01b81526001600160a01b038481166004830152306024830152604482018390528316906323b872dd906064016020604051808303816000875af1158015614977573d6000803e3d6000fd5b505050506040513d601f19601f8201168201806040525081019061499b919061556c565b61170f5760405162461bcd60e51b8152602060048201526016602482015275151c985b9cd9995c881b5d5cdd081b9bdd0819985a5b60521b60448201526064016107df565b600061271061ffff16828461010001518561012001518660e00151614a059190615d52565b614a0f9190615d52565b61ffff16614a1d9190615c55565b614a279190615ac8565b614a3190836157b2565b9050614a468360200151846060015183614aa2565b8251606084015160a08501516040517f2ab2a30b19f7bc6e386d4ee60aa21ed23c127ce9fe26903da97edd54bad0375a93614a88939092600192889190615c6c565b60405180910390a161170f8360a001518460800151614c93565b6001600160a01b038216600003614b09576040516001600160a01b038416908290600081818185875af1925050503d8060008114614afc576040519150601f19603f3d011682016040523d82523d6000602084013e614b01565b606091505b505050505050565b60405163a9059cbb60e01b81526001600160a01b0384811660048301526024820183905283169063a9059cbb906044016020604051808303816000875af1158015614b58573d6000803e3d6000fd5b505050506040513d601f19601f820116820180604052508101906145d1919061556c565b600054610100900460ff16614ba35760405162461bcd60e51b81526004016107df90615d6d565b611f09614d36565b600054610100900460ff16611f095760405162461bcd60e51b81526004016107df90615d6d565b6001600160a01b0381163b614c3f5760405162461bcd60e51b815260206004820152602d60248201527f455243313936373a206e657720696d706c656d656e746174696f6e206973206e60448201526c1bdd08184818dbdb9d1c9858dd609a1b60648201526084016107df565b600080516020615db983398151915280546001600160a01b0319166001600160a01b0392909216919091179055565b614c7783614d6d565b600082511180614c845750805b1561170f576145d18383614dad565b806000036112d65760cc54604051631271956760e21b8152600481018490526001600160a01b03909116906349c6559c90602401600060405180830381600087803b158015614ce157600080fd5b505af1158015614cf5573d6000803e3d6000fd5b505050507f6bef1b5e95b741d6e665eb9b5c2d3e1203c46a771451055a9d41e0b8ff4510b782604051614d2a91815260200190565b60405180910390a15050565b600054610100900460ff16614d5d5760405162461bcd60e51b81526004016107df90615d6d565b611f09614d68613684565b6148d0565b614d7681614bd2565b6040516001600160a01b038216907fbc7cd75a20ee27fd9adebab32041f755214dbc6bffa90cc0225b39da2e5c2d3b90600090a250565b60606001600160a01b0383163b614e155760405162461bcd60e51b815260206004820152602660248201527f416464726573733a2064656c65676174652063616c6c20746f206e6f6e2d636f6044820152651b9d1c9858dd60d21b60648201526084016107df565b600080846001600160a01b031684604051614e30919061597a565b600060405180830381855af49150503d8060008114614e6b576040519150601f19603f3d011682016040523d82523d6000602084013e614e70565b606091505b5091509150614e988282604051806060016040528060278152602001615df960279139614ea1565b95945050505050565b60608315614eb0575081614747565b6147478383815115614ec55781518083602001fd5b8060405162461bcd60e51b81526004016107df9190615ab5565b6001600160a01b038116811461041a57600080fd5b600060208284031215614f0657600080fd5b813561474781614edf565b600060208284031215614f2357600080fd5b5035919050565b634e487b7160e01b600052602160045260246000fd5b60058110614f5057614f50614f2a565b9052565b60005b83811015614f6f578181015183820152602001614f57565b50506000910152565b60008151808452614f90816020860160208601614f54565b601f01601f19169290920160200192915050565b602081528151602082015260006020830151614fcb60408401826001600160a01b03169052565b5060408301516001600160a01b03811660608401525060608301516001600160a01b038116608084015250608083015160a083015260a083015160c083015260c083015160e083015260e083015161010061502b8185018361ffff169052565b84015190506101206150428482018361ffff169052565b84015190506101406150598482018361ffff169052565b8401519050610160615075848201836001600160a01b03169052565b840151905061018061508984820183614f40565b8401516101a0848101919091528401516101c0808501919091528401516101e08085019190915284015161020080850191909152840151610240610220808601829052919250906150de610260860184614f78565b9501519301929092525090919050565b6000806040838503121561510157600080fd5b50508035926020909101359150565b60008060006060848603121561512557600080fd5b505081359360208301359350604090920135919050565b634e487b7160e01b600052604160045260246000fd5b604051610140810167ffffffffffffffff811182821017156151765761517661513c565b60405290565b60405160c0810167ffffffffffffffff811182821017156151765761517661513c565b604051601f8201601f1916810167ffffffffffffffff811182821017156151c8576151c861513c565b604052919050565b600067ffffffffffffffff8211156151ea576151ea61513c565b50601f01601f191660200190565b600061520b615206846151d0565b61519f565b905082815283838301111561521f57600080fd5b828260208301376000602084830101529392505050565b6000806040838503121561524957600080fd5b823561525481614edf565b9150602083013567ffffffffffffffff81111561527057600080fd5b8301601f8101851361528157600080fd5b615290858235602084016151f8565b9150509250929050565b600082601f8301126152ab57600080fd5b614747838335602085016151f8565b600080600080608085870312156152d057600080fd5b8435935060208501359250604085013567ffffffffffffffff808211156152f657600080fd5b6153028883890161529a565b9350606087013591508082111561531857600080fd5b506153258782880161529a565b91505092959194509250565b60008060006060848603121561534657600080fd5b8335925060208401359150604084013567ffffffffffffffff81111561536b57600080fd5b6153778682870161529a565b9150509250925092565b6000806040838503121561539457600080fd5b8235915060208301356153a681614edf565b809150509250929050565b61ffff8116811461041a57600080fd5b6000602082840312156153d357600080fd5b8135614747816153b1565b600080600080608085870312156153f457600080fd5b84356153ff81614edf565b9350602085013561540f81614edf565b9250604085013561541f81614edf565b9150606085013561542f81614edf565b939692955090935050565b60006020828403121561544c57600080fd5b5051919050565b6020808252601b908201527f4e6f7420612076616c6964207472616e73616374696f6e2069642e0000000000604082015260600190565b634e487b7160e01b600052603260045260246000fd5b600181811c908216806154b457607f821691505b60208210810361072657634e487b7160e01b600052602260045260246000fd5b6020808252602c908201527f46756e6374696f6e206d7573742062652063616c6c6564207468726f7567682060408201526b19195b1959d85d1958d85b1b60a21b606082015260800190565b6020808252602c908201527f46756e6374696f6e206d7573742062652063616c6c6564207468726f7567682060408201526b6163746976652070726f787960a01b606082015260800190565b60006020828403121561557e57600080fd5b8151801515811461474757600080fd5b6020808252601590820152744e6f74206f776e6572206f722064656c656761746560581b604082015260600190565b80516155c881614edf565b919050565b6000602082840312156155df57600080fd5b815161474781614edf565b6020808252600e908201526d20b1b1b2b9b9903232b734b2b21760911b604082015260600190565b60208082526026908201527f546865207472616e73616374696f6e2073686f756c646e277420626520646973604082015265383aba32b21760d11b606082015260800190565b634e487b7160e01b600052601160045260246000fd5b8181038181111561468257614682615658565b60208082526013908201527220b93134ba3930ba37b9103737ba1039b2ba1760691b604082015260600190565b6020808252604e908201527f446973707574652068617320616c7265616479206265656e206372656174656460408201527f206f72206265636175736520746865207472616e73616374696f6e206861732060608201526d3132b2b71032bc32b1baba32b21760911b608082015260a00190565b6000815461572f816154a0565b80855260206001838116801561574c576001811461576657615794565b60ff1985168884015283151560051b880183019550615794565b866000528260002060005b8581101561578c5781548a8201860152908301908401615771565b890184019650505b505050505092915050565b6020815260006147476020830184615722565b8082018082111561468257614682615658565b6002811061041a5761041a614f2a565b606081016157e2856157c5565b8482526157ee846157c5565b602082019390935260400152919050565b6020810161580c836157c5565b91905290565b600082601f83011261582357600080fd5b8151615831615206826151d0565b81815284602083860101111561584657600080fd5b6147af826020830160208701614f54565b80516155c8816153b1565b60006020828403121561587457600080fd5b815167ffffffffffffffff8082111561588c57600080fd5b9083019061014082860312156158a157600080fd5b6158a9615152565b825181526020830151828111156158bf57600080fd5b6158cb87828601615812565b6020830152506040830151828111156158e357600080fd5b6158ef87828601615812565b60408301525061590160608401615857565b606082015261591260808401615857565b608082015260a083015160a082015260c083015160c082015261593760e084016155bd565b60e0820152610100808401518381111561595057600080fd5b61595c88828701615812565b91830191909152506101209283015192810192909252509392505050565b6000825161598c818460208701614f54565b9190910192915050565b601f82111561170f57600081815260208120601f850160051c810160208610156159bd5750805b601f850160051c820191505b81811015614b01578281556001016159c9565b815167ffffffffffffffff8111156159f6576159f661513c565b615a0a81615a0484546154a0565b84615996565b602080601f831160018114615a3f5760008415615a275750858301515b600019600386901b1c1916600185901b178555614b01565b600085815260208120601f198616915b82811015615a6e57888601518255948401946001909101908401615a4f565b5085821015615a8c5787850151600019600388901b60f8161c191681555b5050505050600190811b01905550565b8281526040602082015260006147af6040830184615722565b6020815260006147476020830184614f78565b600082615ae557634e487b7160e01b600052601260045260246000fd5b500490565b600060208284031215615afc57600080fd5b815167ffffffffffffffff80821115615b1457600080fd5b9083019060c08286031215615b2857600080fd5b615b3061517c565b825160048110615b3f57600080fd5b808252506020830151602082015260408301516040820152606083015182811115615b6957600080fd5b615b7587828601615812565b6060830152506080830151608082015260a083015160a082015280935050505092915050565b600060208284031215615bad57600080fd5b815167ffffffffffffffff80821115615bc557600080fd5b9083019060c08286031215615bd957600080fd5b615be161517c565b825160028110615bf057600080fd5b815260208381015190820152615c08604084016155bd565b604082015260608301516060820152615c2360808401615857565b608082015260a083015182811115615c3a57600080fd5b615c4687828601615812565b60a08301525095945050505050565b808202811582820484141761468257614682615658565b85815260a08101615c7c866157c5565b60208201959095526001600160a01b039390931660408401526060830191909152608090910152919050565b60ff831681526040602082015260006147af6040830184615722565b8d8152602081018d9052604081018c90526001600160a01b038b81166060830152608082018b905260a082018a905260c0820189905261ffff88811660e08401528781166101008401528616610120830152841661014082015260006101a080610160840152615d3681840186615722565b915050826101808301529e9d5050505050505050505050505050565b61ffff818116838216019080821115610a4d57610a4d615658565b6020808252602b908201527f496e697469616c697a61626c653a20636f6e7472616374206973206e6f74206960408201526a6e697469616c697a696e6760a81b60608201526080019056fe360894a13ba1a3210667c828492db98dca3e2076cc3735a920a3ca505d382bbc73e533bc8a993eccbc1023beebad0020f6b6c3639f83062f00fc194b4d1172ba416464726573733a206c6f772d6c6576656c2064656c65676174652063616c6c206661696c6564a26469706673582212200d52517d1cdc51b5da25fe6ab3fb6448ef9d434a31b1ddf2053c3dd399cbc9ec64736f6c63430008110033",
  "linkReferences": {},
  "deployedLinkReferences": {}
}