{
  "_format": "hh-sol-artifact-1",
  "contractName": "TalentLayerID",
  "sourceName": "contracts/TalentLayerID.sol",
  "abi": [
    {
      "inputs": [
        {
          "internalType": "address",
          "name": "_pohAddress",
          "type": "address"
        },
        {
          "internalType": "address",
          "name": "_talentLayerPlatformIdAddress",
          "type": "address"
        }
      ],
      "stateMutability": "nonpayable",
      "type": "constructor"
    },
    {
      "inputs": [],
      "name": "ApprovalCallerNotOwnerNorApproved",
      "type": "error"
    },
    {
      "inputs": [],
      "name": "ApprovalQueryForNonexistentToken",
      "type": "error"
    },
    {
      "inputs": [],
      "name": "ApproveToCaller",
      "type": "error"
    },
    {
      "inputs": [],
      "name": "BalanceQueryForZeroAddress",
      "type": "error"
    },
    {
      "inputs": [],
      "name": "MintERC2309QuantityExceedsLimit",
      "type": "error"
    },
    {
      "inputs": [],
      "name": "MintToZeroAddress",
      "type": "error"
    },
    {
      "inputs": [],
      "name": "MintZeroQuantity",
      "type": "error"
    },
    {
      "inputs": [],
      "name": "OwnerQueryForNonexistentToken",
      "type": "error"
    },
    {
      "inputs": [],
      "name": "OwnershipNotInitializedForExtraData",
      "type": "error"
    },
    {
      "inputs": [],
      "name": "TransferCallerNotOwnerNorApproved",
      "type": "error"
    },
    {
      "inputs": [],
      "name": "TransferFromIncorrectOwner",
      "type": "error"
    },
    {
      "inputs": [],
      "name": "TransferToNonERC721ReceiverImplementer",
      "type": "error"
    },
    {
      "inputs": [],
      "name": "TransferToZeroAddress",
      "type": "error"
    },
    {
      "inputs": [],
      "name": "URIQueryForNonexistentToken",
      "type": "error"
    },
    {
      "anonymous": false,
      "inputs": [
        {
          "indexed": true,
          "internalType": "address",
          "name": "_newAddress",
          "type": "address"
        },
        {
          "indexed": true,
          "internalType": "address",
          "name": "_oldAddress",
          "type": "address"
        },
        {
          "indexed": false,
          "internalType": "string",
          "name": "_handle",
          "type": "string"
        },
        {
          "indexed": false,
          "internalType": "uint256",
          "name": "_tokenId",
          "type": "uint256"
        }
      ],
      "name": "AccountRecovered",
      "type": "event"
    },
    {
      "anonymous": false,
      "inputs": [
        {
          "indexed": true,
          "internalType": "address",
          "name": "owner",
          "type": "address"
        },
        {
          "indexed": true,
          "internalType": "address",
          "name": "approved",
          "type": "address"
        },
        {
          "indexed": true,
          "internalType": "uint256",
          "name": "tokenId",
          "type": "uint256"
        }
      ],
      "name": "Approval",
      "type": "event"
    },
    {
      "anonymous": false,
      "inputs": [
        {
          "indexed": true,
          "internalType": "address",
          "name": "owner",
          "type": "address"
        },
        {
          "indexed": true,
          "internalType": "address",
          "name": "operator",
          "type": "address"
        },
        {
          "indexed": false,
          "internalType": "bool",
          "name": "approved",
          "type": "bool"
        }
      ],
      "name": "ApprovalForAll",
      "type": "event"
    },
    {
      "anonymous": false,
      "inputs": [
        {
          "indexed": true,
          "internalType": "uint256",
          "name": "_tokenId",
          "type": "uint256"
        },
        {
          "indexed": false,
          "internalType": "string",
          "name": "_newCid",
          "type": "string"
        }
      ],
      "name": "CidUpdated",
      "type": "event"
    },
    {
      "anonymous": false,
      "inputs": [
        {
          "indexed": true,
          "internalType": "uint256",
          "name": "fromTokenId",
          "type": "uint256"
        },
        {
          "indexed": false,
          "internalType": "uint256",
          "name": "toTokenId",
          "type": "uint256"
        },
        {
          "indexed": true,
          "internalType": "address",
          "name": "from",
          "type": "address"
        },
        {
          "indexed": true,
          "internalType": "address",
          "name": "to",
          "type": "address"
        }
      ],
      "name": "ConsecutiveTransfer",
      "type": "event"
    },
    {
      "anonymous": false,
      "inputs": [
        {
          "indexed": true,
          "internalType": "address",
          "name": "_user",
          "type": "address"
        },
        {
          "indexed": false,
          "internalType": "uint256",
          "name": "_tokenId",
          "type": "uint256"
        },
        {
          "indexed": false,
          "internalType": "string",
          "name": "_handle",
          "type": "string"
        },
        {
          "indexed": false,
          "internalType": "bool",
          "name": "_withPoh",
          "type": "bool"
        },
        {
          "indexed": false,
          "internalType": "uint256",
          "name": "_platformId",
          "type": "uint256"
        },
        {
          "indexed": false,
          "internalType": "uint256",
          "name": "_fee",
          "type": "uint256"
        }
      ],
      "name": "Mint",
      "type": "event"
    },
    {
      "anonymous": false,
      "inputs": [
        {
          "indexed": false,
          "internalType": "uint256",
          "name": "_mintFee",
          "type": "uint256"
        }
      ],
      "name": "MintFeeUpdated",
      "type": "event"
    },
    {
      "anonymous": false,
      "inputs": [
        {
          "indexed": true,
          "internalType": "address",
          "name": "previousOwner",
          "type": "address"
        },
        {
          "indexed": true,
          "internalType": "address",
          "name": "newOwner",
          "type": "address"
        }
      ],
      "name": "OwnershipTransferred",
      "type": "event"
    },
    {
      "anonymous": false,
      "inputs": [
        {
          "indexed": true,
          "internalType": "address",
          "name": "_user",
          "type": "address"
        },
        {
          "indexed": false,
          "internalType": "uint256",
          "name": "_tokenId",
          "type": "uint256"
        },
        {
          "indexed": false,
          "internalType": "string",
          "name": "_handle",
          "type": "string"
        }
      ],
      "name": "PohActivated",
      "type": "event"
    },
    {
      "anonymous": false,
      "inputs": [
        {
          "indexed": true,
          "internalType": "address",
          "name": "from",
          "type": "address"
        },
        {
          "indexed": true,
          "internalType": "address",
          "name": "to",
          "type": "address"
        },
        {
          "indexed": true,
          "internalType": "uint256",
          "name": "tokenId",
          "type": "uint256"
        }
      ],
      "name": "Transfer",
      "type": "event"
    },
    {
      "inputs": [
        {
          "internalType": "uint256",
          "name": "_tokenId",
          "type": "uint256"
        }
      ],
      "name": "activatePoh",
      "outputs": [],
      "stateMutability": "nonpayable",
      "type": "function"
    },
    {
      "inputs": [
        {
          "internalType": "address",
          "name": "to",
          "type": "address"
        },
        {
          "internalType": "uint256",
          "name": "tokenId",
          "type": "uint256"
        }
      ],
      "name": "approve",
      "outputs": [],
      "stateMutability": "nonpayable",
      "type": "function"
    },
    {
      "inputs": [
        {
          "internalType": "address",
          "name": "owner",
          "type": "address"
        }
      ],
      "name": "balanceOf",
      "outputs": [
        {
          "internalType": "uint256",
          "name": "",
          "type": "uint256"
        }
      ],
      "stateMutability": "view",
      "type": "function"
    },
    {
      "inputs": [
        {
          "internalType": "uint256",
          "name": "_platformId",
          "type": "uint256"
        },
        {
          "internalType": "address",
          "name": "_userAddress",
          "type": "address"
        },
        {
          "internalType": "string",
          "name": "_handle",
          "type": "string"
        }
      ],
      "name": "freeMint",
      "outputs": [],
      "stateMutability": "nonpayable",
      "type": "function"
    },
    {
      "inputs": [
        {
          "internalType": "uint256",
          "name": "tokenId",
          "type": "uint256"
        }
      ],
      "name": "getApproved",
      "outputs": [
        {
          "internalType": "address",
          "name": "",
          "type": "address"
        }
      ],
      "stateMutability": "view",
      "type": "function"
    },
    {
      "inputs": [
        {
          "internalType": "address",
          "name": "_address",
          "type": "address"
        }
      ],
      "name": "getOriginatorPlatformIdByAddress",
      "outputs": [
        {
          "internalType": "uint256",
          "name": "",
          "type": "uint256"
        }
      ],
      "stateMutability": "view",
      "type": "function"
    },
    {
      "inputs": [
        {
          "internalType": "uint256",
          "name": "_profileId",
          "type": "uint256"
        }
      ],
      "name": "getProfile",
      "outputs": [
        {
          "components": [
            {
              "internalType": "uint256",
              "name": "id",
              "type": "uint256"
            },
            {
              "internalType": "string",
              "name": "handle",
              "type": "string"
            },
            {
              "internalType": "address",
              "name": "pohAddress",
              "type": "address"
            },
            {
              "internalType": "uint256",
              "name": "platformId",
              "type": "uint256"
            },
            {
              "internalType": "string",
              "name": "dataUri",
              "type": "string"
            }
          ],
          "internalType": "struct TalentLayerID.Profile",
          "name": "",
          "type": "tuple"
        }
      ],
      "stateMutability": "view",
      "type": "function"
    },
    {
      "inputs": [
        {
          "internalType": "address",
          "name": "",
          "type": "address"
        }
      ],
      "name": "hasBeenRecovered",
      "outputs": [
        {
          "internalType": "bool",
          "name": "",
          "type": "bool"
        }
      ],
      "stateMutability": "view",
      "type": "function"
    },
    {
      "inputs": [
        {
          "internalType": "address",
          "name": "owner",
          "type": "address"
        },
        {
          "internalType": "address",
          "name": "operator",
          "type": "address"
        }
      ],
      "name": "isApprovedForAll",
      "outputs": [
        {
          "internalType": "bool",
          "name": "",
          "type": "bool"
        }
      ],
      "stateMutability": "view",
      "type": "function"
    },
    {
      "inputs": [
        {
          "internalType": "uint256",
          "name": "_tokenId",
          "type": "uint256"
        }
      ],
      "name": "isTokenPohRegistered",
      "outputs": [
        {
          "internalType": "bool",
          "name": "",
          "type": "bool"
        }
      ],
      "stateMutability": "view",
      "type": "function"
    },
    {
      "inputs": [
        {
          "internalType": "uint256",
          "name": "_tokenId",
          "type": "uint256"
        }
      ],
      "name": "isValid",
      "outputs": [],
      "stateMutability": "view",
      "type": "function"
    },
    {
      "inputs": [
        {
          "internalType": "uint256",
          "name": "_platformId",
          "type": "uint256"
        },
        {
          "internalType": "string",
          "name": "_handle",
          "type": "string"
        }
      ],
      "name": "mint",
      "outputs": [],
      "stateMutability": "payable",
      "type": "function"
    },
    {
      "inputs": [],
      "name": "mintFee",
      "outputs": [
        {
          "internalType": "uint256",
          "name": "",
          "type": "uint256"
        }
      ],
      "stateMutability": "view",
      "type": "function"
    },
    {
      "inputs": [
        {
          "internalType": "uint256",
          "name": "_platformId",
          "type": "uint256"
        },
        {
          "internalType": "string",
          "name": "_handle",
          "type": "string"
        }
      ],
      "name": "mintWithPoh",
      "outputs": [],
      "stateMutability": "payable",
      "type": "function"
    },
    {
      "inputs": [],
      "name": "name",
      "outputs": [
        {
          "internalType": "string",
          "name": "",
          "type": "string"
        }
      ],
      "stateMutability": "view",
      "type": "function"
    },
    {
      "inputs": [
        {
          "internalType": "address",
          "name": "_user",
          "type": "address"
        }
      ],
      "name": "numberMinted",
      "outputs": [
        {
          "internalType": "uint256",
          "name": "",
          "type": "uint256"
        }
      ],
      "stateMutability": "view",
      "type": "function"
    },
    {
      "inputs": [],
      "name": "owner",
      "outputs": [
        {
          "internalType": "address",
          "name": "",
          "type": "address"
        }
      ],
      "stateMutability": "view",
      "type": "function"
    },
    {
      "inputs": [
        {
          "internalType": "uint256",
          "name": "tokenId",
          "type": "uint256"
        }
      ],
      "name": "ownerOf",
      "outputs": [
        {
          "internalType": "address",
          "name": "",
          "type": "address"
        }
      ],
      "stateMutability": "view",
      "type": "function"
    },
    {
      "inputs": [],
      "name": "pohRegistry",
      "outputs": [
        {
          "internalType": "contract IProofOfHumanity",
          "name": "",
          "type": "address"
        }
      ],
      "stateMutability": "view",
      "type": "function"
    },
    {
      "inputs": [
        {
          "internalType": "uint256",
          "name": "",
          "type": "uint256"
        }
      ],
      "name": "profiles",
      "outputs": [
        {
          "internalType": "uint256",
          "name": "id",
          "type": "uint256"
        },
        {
          "internalType": "string",
          "name": "handle",
          "type": "string"
        },
        {
          "internalType": "address",
          "name": "pohAddress",
          "type": "address"
        },
        {
          "internalType": "uint256",
          "name": "platformId",
          "type": "uint256"
        },
        {
          "internalType": "string",
          "name": "dataUri",
          "type": "string"
        }
      ],
      "stateMutability": "view",
      "type": "function"
    },
    {
      "inputs": [
        {
          "internalType": "address",
          "name": "_oldAddress",
          "type": "address"
        },
        {
          "internalType": "uint256",
          "name": "_tokenId",
          "type": "uint256"
        },
        {
          "internalType": "uint256",
          "name": "_index",
          "type": "uint256"
        },
        {
          "internalType": "uint256",
          "name": "_recoveryKey",
          "type": "uint256"
        },
        {
          "internalType": "string",
          "name": "_handle",
          "type": "string"
        },
        {
          "internalType": "bytes32[]",
          "name": "_merkleProof",
          "type": "bytes32[]"
        }
      ],
      "name": "recoverAccount",
      "outputs": [],
      "stateMutability": "nonpayable",
      "type": "function"
    },
    {
      "inputs": [],
      "name": "recoveryRoot",
      "outputs": [
        {
          "internalType": "bytes32",
          "name": "",
          "type": "bytes32"
        }
      ],
      "stateMutability": "view",
      "type": "function"
    },
    {
      "inputs": [],
      "name": "renounceOwnership",
      "outputs": [],
      "stateMutability": "nonpayable",
      "type": "function"
    },
    {
      "inputs": [
        {
          "internalType": "address",
          "name": "from",
          "type": "address"
        },
        {
          "internalType": "address",
          "name": "to",
          "type": "address"
        },
        {
          "internalType": "uint256",
          "name": "tokenId",
          "type": "uint256"
        }
      ],
      "name": "safeTransferFrom",
      "outputs": [],
      "stateMutability": "nonpayable",
      "type": "function"
    },
    {
      "inputs": [
        {
          "internalType": "address",
          "name": "from",
          "type": "address"
        },
        {
          "internalType": "address",
          "name": "to",
          "type": "address"
        },
        {
          "internalType": "uint256",
          "name": "tokenId",
          "type": "uint256"
        },
        {
          "internalType": "bytes",
          "name": "_data",
          "type": "bytes"
        }
      ],
      "name": "safeTransferFrom",
      "outputs": [],
      "stateMutability": "nonpayable",
      "type": "function"
    },
    {
      "inputs": [
        {
          "internalType": "address",
          "name": "operator",
          "type": "address"
        },
        {
          "internalType": "bool",
          "name": "approved",
          "type": "bool"
        }
      ],
      "name": "setApprovalForAll",
      "outputs": [],
      "stateMutability": "nonpayable",
      "type": "function"
    },
    {
      "inputs": [
        {
          "internalType": "bytes4",
          "name": "interfaceId",
          "type": "bytes4"
        }
      ],
      "name": "supportsInterface",
      "outputs": [
        {
          "internalType": "bool",
          "name": "",
          "type": "bool"
        }
      ],
      "stateMutability": "view",
      "type": "function"
    },
    {
      "inputs": [],
      "name": "symbol",
      "outputs": [
        {
          "internalType": "string",
          "name": "",
          "type": "string"
        }
      ],
      "stateMutability": "view",
      "type": "function"
    },
    {
      "inputs": [
        {
          "internalType": "string",
          "name": "",
          "type": "string"
        }
      ],
      "name": "takenHandles",
      "outputs": [
        {
          "internalType": "bool",
          "name": "",
          "type": "bool"
        }
      ],
      "stateMutability": "view",
      "type": "function"
    },
    {
      "inputs": [],
      "name": "talentLayerPlatformIdContract",
      "outputs": [
        {
          "internalType": "contract ITalentLayerPlatformID",
          "name": "",
          "type": "address"
        }
      ],
      "stateMutability": "view",
      "type": "function"
    },
    {
      "inputs": [
        {
          "internalType": "uint256",
          "name": "tokenId",
          "type": "uint256"
        }
      ],
      "name": "tokenURI",
      "outputs": [
        {
          "internalType": "string",
          "name": "",
          "type": "string"
        }
      ],
      "stateMutability": "view",
      "type": "function"
    },
    {
      "inputs": [],
      "name": "totalSupply",
      "outputs": [
        {
          "internalType": "uint256",
          "name": "",
          "type": "uint256"
        }
      ],
      "stateMutability": "view",
      "type": "function"
    },
    {
      "inputs": [
        {
          "internalType": "address",
          "name": "from",
          "type": "address"
        },
        {
          "internalType": "address",
          "name": "to",
          "type": "address"
        },
        {
          "internalType": "uint256",
          "name": "tokenId",
          "type": "uint256"
        }
      ],
      "name": "transferFrom",
      "outputs": [],
      "stateMutability": "nonpayable",
      "type": "function"
    },
    {
      "inputs": [
        {
          "internalType": "address",
          "name": "newOwner",
          "type": "address"
        }
      ],
      "name": "transferOwnership",
      "outputs": [],
      "stateMutability": "nonpayable",
      "type": "function"
    },
    {
      "inputs": [
        {
          "internalType": "uint256",
          "name": "_mintFee",
          "type": "uint256"
        }
      ],
      "name": "updateMintFee",
      "outputs": [],
      "stateMutability": "nonpayable",
      "type": "function"
    },
    {
      "inputs": [
        {
          "internalType": "uint256",
          "name": "_tokenId",
          "type": "uint256"
        },
        {
          "internalType": "string",
          "name": "_newCid",
          "type": "string"
        }
      ],
      "name": "updateProfileData",
      "outputs": [],
      "stateMutability": "nonpayable",
      "type": "function"
    },
    {
      "inputs": [
        {
          "internalType": "bytes32",
          "name": "_newRoot",
          "type": "bytes32"
        }
      ],
      "name": "updateRecoveryRoot",
      "outputs": [],
      "stateMutability": "nonpayable",
      "type": "function"
    },
    {
      "inputs": [
        {
          "internalType": "address",
          "name": "_owner",
          "type": "address"
        }
      ],
      "name": "walletOfOwner",
      "outputs": [
        {
          "internalType": "uint256",
          "name": "",
          "type": "uint256"
        }
      ],
      "stateMutability": "view",
      "type": "function"
    },
    {
      "inputs": [],
      "name": "withdraw",
      "outputs": [],
      "stateMutability": "nonpayable",
      "type": "function"
    }
  ],
  "bytecode": "0x60806040523480156200001157600080fd5b5060405162004d5e38038062004d5e8339810160408190526200003491620001f9565b604080518082018252600d81526c15185b195b9d13185e595c9251609a1b60208083019182528351808501909452600384526215125160ea1b908401528151919291620000849160029162000136565b5080516200009a90600390602084019062000136565b5050600160005550620000ad33620000e4565b600980546001600160a01b039384166001600160a01b031991821617909155600a80549290931691161790556000600f556200026e565b600880546001600160a01b038381166001600160a01b0319831681179093556040519116919082907f8be0079c531659141344cd1fd0a4f28419497f9722a3daafe3b4186f6b6457e090600090a35050565b828054620001449062000231565b90600052602060002090601f016020900481019282620001685760008555620001b3565b82601f106200018357805160ff1916838001178555620001b3565b82800160010185558215620001b3579182015b82811115620001b357825182559160200191906001019062000196565b50620001c1929150620001c5565b5090565b5b80821115620001c15760008155600101620001c6565b80516001600160a01b0381168114620001f457600080fd5b919050565b600080604083850312156200020d57600080fd5b6200021883620001dc565b91506200022860208401620001dc565b90509250929050565b600181811c908216806200024657607f821691505b602082108114156200026857634e487b7160e01b600052602260045260246000fd5b50919050565b614ae0806200027e6000396000f3fe6080604052600436106102305760003560e01c80636352211e1161012e578063b88d4fde116100ab578063e985e9c51161006f578063e985e9c51461067c578063f08f4f64146106c5578063f160068f146106f2578063f2fde38b14610712578063f577a5001461073257600080fd5b8063b88d4fde146105bb578063c36fe3d6146105db578063c87b56dd1461060c578063dc33e6811461062c578063de8295921461064c57600080fd5b806384c63937116100f257806384c639371461052857806389c1694c146105485780638da5cb5b1461056857806395d89b4114610586578063a22cb4651461059b57600080fd5b80636352211e146104a057806370a08231146104c0578063715018a6146104e057806377097fc8146104f557806384017e521461050857600080fd5b80632106beec116101bc57806342842e0e1161018057806342842e0e146103b8578063438b63001461042d57806346be141c1461044d57806352fc54e11461046d5780635c4b03481461048057600080fd5b80632106beec1461037d57806323b872dd146103b85780632567c4c6146103d85780633ccfd60b146103f85780633ce12f6d1461040d57600080fd5b80630fb72ff6116102035780630fb72ff6146102e657806313966db5146103065780631499f9e61461032a57806318160ddd1461034a57806319aeca931461036757600080fd5b806301ffc9a71461023557806306fdde031461026a578063081812fc1461028c578063095ea7b3146102c4575b600080fd5b34801561024157600080fd5b5061025561025036600461267f565b610752565b60405190151581526020015b60405180910390f35b34801561027657600080fd5b5061027f6107a4565b60405161026191906126f4565b34801561029857600080fd5b506102ac6102a7366004612707565b610836565b6040516001600160a01b039091168152602001610261565b3480156102d057600080fd5b506102e46102df36600461273c565b61087a565b005b3480156102f257600080fd5b506102e4610301366004612707565b61091a565b34801561031257600080fd5b5061031c600f5481565b604051908152602001610261565b34801561033657600080fd5b50600a546102ac906001600160a01b031681565b34801561035657600080fd5b50600154600054036000190161031c565b34801561037357600080fd5b5061031c600d5481565b34801561038957600080fd5b50610255610398366004612812565b8051602081830181018051600b8252928201919093012091525460ff1681565b3480156103c457600080fd5b506102e46103d3366004612847565b505050565b3480156103e457600080fd5b506102e46103f33660046128cf565b610a78565b34801561040457600080fd5b506102e4610f09565b34801561041957600080fd5b506102e4610428366004612707565b610fac565b34801561043957600080fd5b5061031c61044836600461299a565b610fb9565b34801561045957600080fd5b50610255610468366004612707565b611042565b6102e461047b3660046129b5565b6110d1565b34801561048c57600080fd5b5061031c61049b36600461299a565b6112f0565b3480156104ac57600080fd5b506102ac6104bb366004612707565b611318565b3480156104cc57600080fd5b5061031c6104db36600461299a565b611323565b3480156104ec57600080fd5b506102e4611372565b6102e46105033660046129b5565b611386565b34801561051457600080fd5b506102e4610523366004612707565b6114cf565b34801561053457600080fd5b506009546102ac906001600160a01b031681565b34801561055457600080fd5b506102e46105633660046129fc565b611512565b34801561057457600080fd5b506008546001600160a01b03166102ac565b34801561059257600080fd5b5061027f61163c565b3480156105a757600080fd5b506102e46105b6366004612a61565b61164b565b3480156105c757600080fd5b506102e46105d6366004612a98565b6116e1565b3480156105e757600080fd5b506105fb6105f6366004612707565b611720565b604051610261959493929190612b14565b34801561061857600080fd5b5061027f610627366004612707565b61186d565b34801561063857600080fd5b5061031c61064736600461299a565b611878565b34801561065857600080fd5b5061025561066736600461299a565b600e6020526000908152604090205460ff1681565b34801561068857600080fd5b50610255610697366004612b61565b6001600160a01b03918216600090815260076020908152604080832093909416825291909152205460ff1690565b3480156106d157600080fd5b506106e56106e0366004612707565b611883565b6040516102619190612b94565b3480156106fe57600080fd5b506102e461070d3660046129b5565b611a95565b34801561071e57600080fd5b506102e461072d36600461299a565b611b65565b34801561073e57600080fd5b506102e461074d366004612707565b611bdb565b60006301ffc9a760e01b6001600160e01b03198316148061078357506380ac58cd60e01b6001600160e01b03198316145b8061079e5750635b5e139f60e01b6001600160e01b03198316145b92915050565b6060600280546107b390612bfc565b80601f01602080910402602001604051908101604052809291908181526020018280546107df90612bfc565b801561082c5780601f106108015761010080835404028352916020019161082c565b820191906000526020600020905b81548152906001019060200180831161080f57829003601f168201915b5050505050905090565b600061084182611c41565b61085e576040516333d1c03960e21b815260040160405180910390fd5b506000908152600660205260409020546001600160a01b031690565b600061088582611318565b9050336001600160a01b038216146108be576108a18133610697565b6108be576040516367d9dca160e11b815260040160405180910390fd5b60008281526006602052604080822080546001600160a01b0319166001600160a01b0387811691821790925591518593918516917f8c5be1e5ebec7d5bd14f71427d1e84f3dd0314c0f7b2291e5b200ac8c7c3b92591a4505050565b3361092482611318565b6001600160a01b03161461093757600080fd5b60095460405163c3c5a54760e01b81523360048201526001600160a01b039091169063c3c5a5479060240160206040518083038186803b15801561097a57600080fd5b505afa15801561098e573d6000803e3d6000fd5b505050506040513d601f19601f820116820180604052508101906109b29190612c37565b610a135760405162461bcd60e51b815260206004820152602760248201527f596f752772652061646472657373206973206e6f7420726567697374657264206044820152660ccdee440e0ded60cb1b60648201526084015b60405180910390fd5b6000818152600c6020526040908190206002810180546001600160a01b0319163390811790915591517ffcf318157300453509399d936c89c1eca423a389b4080c5c0ce3d9f86b1d199991610a6d91859160010190612c54565b60405180910390a250565b6001600160a01b0388166000908152600e602052604090205460ff1615610af15760405162461bcd60e51b815260206004820152602760248201527f5468697320616464726573732068617320616c7265616479206265656e20726560448201526618dbdd995c995960ca1b6064820152608401610a0a565b876001600160a01b0316610b0488611318565b6001600160a01b031614610b665760405162461bcd60e51b815260206004820152602360248201527f596f7520617265206e6f7420746865206f776e6572206f66207468697320746f60448201526235b2b760e91b6064820152608401610a0a565b610b6f33611878565b15610bbc5760405162461bcd60e51b815260206004820152601860248201527f596f7520616c72656164792068617665206120746f6b656e00000000000000006044820152606401610a0a565b6000878152600c60205260409020600201546001600160a01b031615610c415760405162461bcd60e51b815260206004820152603460248201527f596f7572206f6c64206164647265737320776173206e6f74206c696e6b656420604482015273746f2050726f6f66206f662048756d616e69747960601b6064820152608401610a0a565b8383604051602001610c54929190612ce1565b60408051601f19818403018152828252805160209182012060008b8152600c8352929092209192610c89926001019101612cf1565b6040516020818303038152906040528051906020012014610cdd5760405162461bcd60e51b815260206004820152600e60248201526d496e76616c69642068616e646c6560901b6044820152606401610a0a565b60095460405163c3c5a54760e01b81523360048201526001600160a01b039091169063c3c5a5479060240160206040518083038186803b158015610d2057600080fd5b505afa158015610d34573d6000803e3d6000fd5b505050506040513d601f19601f82011682018060405250810190610d589190612c37565b610d745760405162461bcd60e51b8152600401610a0a90612d63565b6000868686868c604051602001610d8f959493929190612dc0565b604051602081830303815290604052805190602001209050610de883838080602002602001604051908101604052809392919081815260200183836020028082843760009201919091525050600d549150849050611c76565b610e3e5760405162461bcd60e51b815260206004820152602160248201527f4d65726b6c654469737472696275746f723a20496e76616c69642070726f6f666044820152601760f91b6064820152608401610a0a565b6001600160a01b0389166000908152600e60209081526040808320805460ff191660019081179091558b8452600c909252909120610e7e9101868661255c565b506000888152600c6020526040902060020180546001600160a01b03191633908117909155610eaf908a908a611c8c565b886001600160a01b0316336001600160a01b03167fe27a76891cb9f3da59f6b7d03f64aee72f85a390754515a420a189491dc795de87878c604051610ef693929190612dfc565b60405180910390a3505050505050505050565b610f11611d92565b604051600090339047908381818185875af1925050503d8060008114610f53576040519150601f19603f3d011682016040523d82523d6000602084013e610f58565b606091505b5050905080610fa95760405162461bcd60e51b815260206004820152601860248201527f4661696c656420746f20776974686472617720457468657200000000000000006044820152606401610a0a565b50565b610fb4611d92565b600d55565b6000806001815b60015460005403600019018211611039576000610fdc83611dec565b90508060400151158015610ff9575080516001600160a01b031615155b1561100357805191505b856001600160a01b0316826001600160a01b031614156110265782935050611039565b8261103081612e4b565b93505050610fc0565b50909392505050565b6009546000828152600c602052604080822060020154905163c3c5a54760e01b81526001600160a01b0391821660048201529192169063c3c5a5479060240160206040518083038186803b15801561109957600080fd5b505afa1580156110ad573d6000803e3d6000fd5b505050506040513d601f19601f8201168201806040525081019061079e9190612c37565b600f5434146110f25760405162461bcd60e51b8152600401610a0a90612e66565b3381836110fe83611878565b1561111b5760405162461bcd60e51b8152600401610a0a90612eaa565b60028251101561113d5760405162461bcd60e51b8152600401610a0a90612edf565b600a8251111561115f5760405162461bcd60e51b8152600401610a0a90612f09565b600b8260405161116f9190612f4e565b9081526040519081900360200190205460ff161561119f5760405162461bcd60e51b8152600401610a0a90612f6a565b600a5460405162f577a560e81b8152600481018390526001600160a01b039091169063f577a5009060240160006040518083038186803b1580156111e257600080fd5b505afa1580156111f6573d6000803e3d6000fd5b505060095460405163c3c5a54760e01b81523360048201526001600160a01b03909116925063c3c5a547915060240160206040518083038186803b15801561123d57600080fd5b505afa158015611251573d6000803e3d6000fd5b505050506040513d601f19601f820116820180604052508101906112759190612c37565b6112915760405162461bcd60e51b8152600401610a0a90612d63565b61129c336001611e64565b600060016112a960005490565b6112b39190612f98565b6000818152600c6020526040902060020180546001600160a01b031916339081179091559091506112e8908660018934611e82565b505050505050565b6000600c60006112ff84610fb9565b8152602001908152602001600020600301549050919050565b600061079e82611f4e565b60006001600160a01b03821661134c576040516323d3ad8160e21b815260040160405180910390fd5b506001600160a01b031660009081526005602052604090205467ffffffffffffffff1690565b61137a611d92565b6113846000611fbe565b565b600f5434146113a75760405162461bcd60e51b8152600401610a0a90612e66565b3381836113b383611878565b156113d05760405162461bcd60e51b8152600401610a0a90612eaa565b6002825110156113f25760405162461bcd60e51b8152600401610a0a90612edf565b600a825111156114145760405162461bcd60e51b8152600401610a0a90612f09565b600b826040516114249190612f4e565b9081526040519081900360200190205460ff16156114545760405162461bcd60e51b8152600401610a0a90612f6a565b600a5460405162f577a560e81b8152600481018390526001600160a01b039091169063f577a5009060240160006040518083038186803b15801561149757600080fd5b505afa1580156114ab573d6000803e3d6000fd5b505050506114ba336001611e64565b6114c8338560008834611e82565b5050505050565b6114d7611d92565b600f8190556040518181527f38fbb1c8b109c430f0c030e7ed076cf5611a307773a4e8e365601e8f8bceaec69060200160405180910390a150565b81818461151e83611878565b1561153b5760405162461bcd60e51b8152600401610a0a90612eaa565b60028251101561155d5760405162461bcd60e51b8152600401610a0a90612edf565b600a8251111561157f5760405162461bcd60e51b8152600401610a0a90612f09565b600b8260405161158f9190612f4e565b9081526040519081900360200190205460ff16156115bf5760405162461bcd60e51b8152600401610a0a90612f6a565b600a5460405162f577a560e81b8152600481018390526001600160a01b039091169063f577a5009060240160006040518083038186803b15801561160257600080fd5b505afa158015611616573d6000803e3d6000fd5b50505050611622611d92565b61162d856001611e64565b6112e885856000896000611e82565b6060600380546107b390612bfc565b6001600160a01b0382163314156116755760405163b06307db60e01b815260040160405180910390fd5b3360008181526007602090815260408083206001600160a01b03871680855290835292819020805460ff191686151590811790915590519081529192917f17307eab39ab6107e8899845ad3d59bd9653f200f220920489ca2b5937696c31910160405180910390a35050565b6001600160a01b0383163b1561171a576116fd84848484612010565b61171a576040516368d2bf6b60e11b815260040160405180910390fd5b50505050565b600c602052600090815260409020805460018201805491929161174290612bfc565b80601f016020809104026020016040519081016040528092919081815260200182805461176e90612bfc565b80156117bb5780601f10611790576101008083540402835291602001916117bb565b820191906000526020600020905b81548152906001019060200180831161179e57829003601f168201915b505050506002830154600384015460048501805494956001600160a01b0390931694919350906117ea90612bfc565b80601f016020809104026020016040519081016040528092919081815260200182805461181690612bfc565b80156118635780601f1061183857610100808354040283529160200191611863565b820191906000526020600020905b81548152906001019060200180831161184657829003601f168201915b5050505050905085565b606061079e82612108565b600061079e82611323565b6118be6040518060a00160405280600081526020016060815260200160006001600160a01b0316815260200160008152602001606081525090565b6118c782611c41565b6119215760405162461bcd60e51b815260206004820152602560248201527f54616c656e744c6179657249443a2050726f66696c6520646f6573206e6f7420604482015264195e1a5cdd60da1b6064820152608401610a0a565b600c60008381526020019081526020016000206040518060a00160405290816000820154815260200160018201805461195990612bfc565b80601f016020809104026020016040519081016040528092919081815260200182805461198590612bfc565b80156119d25780601f106119a7576101008083540402835291602001916119d2565b820191906000526020600020905b8154815290600101906020018083116119b557829003601f168201915b505050918352505060028201546001600160a01b0316602082015260038201546040820152600482018054606090920191611a0c90612bfc565b80601f0160208091040260200160405190810160405280929190818152602001828054611a3890612bfc565b8015611a855780601f10611a5a57610100808354040283529160200191611a85565b820191906000526020600020905b815481529060010190602001808311611a6857829003601f168201915b5050505050815250509050919050565b33611a9f83611318565b6001600160a01b031614611ab257600080fd5b6000815111611b035760405162461bcd60e51b815260206004820152601f60248201527f53686f756c642070726f7669646520612076616c6964204950465320555249006044820152606401610a0a565b6000828152600c602090815260409091208251611b28926004909201918401906125e0565b50817f613807bd6768f626264e7eb664a65ca99a0d930f8fd8a5b868491a592eb57f7282604051611b5991906126f4565b60405180910390a25050565b611b6d611d92565b6001600160a01b038116611bd25760405162461bcd60e51b815260206004820152602660248201527f4f776e61626c653a206e6577206f776e657220697320746865207a65726f206160448201526564647265737360d01b6064820152608401610a0a565b610fa981611fbe565b600081118015611bf5575060015460005403600019018111155b610fa95760405162461bcd60e51b815260206004820152601f60248201527f596f7572204944206973206e6f7420612076616c696420746f6b656e204944006044820152606401610a0a565b600081600111158015611c55575060005482105b801561079e575050600090815260046020526040902054600160e01b161590565b600082611c838584612232565b14949350505050565b6000611c9782611f4e565b90506001600160a01b038316611cc057604051633a954ecd60e21b815260040160405180910390fd5b6001600160a01b038481166000908152600560205260408082208054600019019055918516808252919020805460010190554260a01b17600160e11b17600083815260046020526040902055600160e11b8116611d4b5760018201600081815260046020526040902054611d49576000548114611d495760008181526004602052604090208290555b505b81836001600160a01b0316856001600160a01b03167fddf252ad1be2c89b69c2b068fc378daa952ba7f163c4a11628f55a4df523b3ef60405160405180910390a450505050565b6008546001600160a01b031633146113845760405162461bcd60e51b815260206004820181905260248201527f4f776e61626c653a2063616c6c6572206973206e6f7420746865206f776e65726044820152606401610a0a565b60408051608081018252600080825260208201819052918101829052606081019190915261079e611e1c83611f4e565b604080516080810182526001600160a01b038316815260a083901c67ffffffffffffffff166020820152600160e01b831615159181019190915260e89190911c606082015290565b611e7e82826040518060200160405280600081525061227f565b5050565b60006001611e8f60005490565b611e999190612f98565b6000818152600c6020908152604090912060038101869055875192935091611ec9916001840191908901906125e0565b506001600b87604051611edc9190612f4e565b908152604051908190036020018120805492151560ff19909316929092179091556001600160a01b038816907fb04779a1cbc204eb57d83e8b7da4a89e2bb550e71807dfcb8f312ee4d73b5f6f90611f3d9085908a908a908a908a90612faf565b60405180910390a250505050505050565b60008180600111611fa557600054811015611fa557600081815260046020526040902054600160e01b8116611fa3575b80611f9c575060001901600081815260046020526040902054611f7e565b9392505050565b505b604051636f96cda160e11b815260040160405180910390fd5b600880546001600160a01b038381166001600160a01b0319831681179093556040519116919082907f8be0079c531659141344cd1fd0a4f28419497f9722a3daafe3b4186f6b6457e090600090a35050565b604051630a85bd0160e11b81526000906001600160a01b0385169063150b7a0290612045903390899088908890600401612fe5565b602060405180830381600087803b15801561205f57600080fd5b505af192505050801561208f575060408051601f3d908101601f1916820190925261208c91810190613022565b60015b6120ea573d8080156120bd576040519150601f19603f3d011682016040523d82523d6000602084013e6120c2565b606091505b5080516120e2576040516368d2bf6b60e11b815260040160405180910390fd5b805181602001fd5b6001600160e01b031916630a85bd0160e11b1490505b949350505050565b6000818152600c602052604081206001018054606092919061212990612bfc565b80601f016020809104026020016040519081016040528092919081815260200182805461215590612bfc565b80156121a25780601f10612177576101008083540402835291602001916121a2565b820191906000526020600020905b81548152906001019060200180831161218557829003601f168201915b5050505050905060006121d3826040516020016121bf919061303f565b6040516020818303038152906040526122e5565b6040516020016121e391906148de565b604051602081830303815290604052905061220a82826040516020016121bf929190614923565b60405160200161221a91906149b6565b60405160208183030381529060405292505050919050565b600081815b84518110156122775761226382868381518110612256576122566149fb565b6020026020010151612439565b91508061226f81612e4b565b915050612237565b509392505050565b6122898383612465565b6001600160a01b0383163b156103d3576000548281035b6122b36000868380600101945086612010565b6122d0576040516368d2bf6b60e11b815260040160405180910390fd5b8181106122a05781600054146114c857600080fd5b606081516000141561230557505060408051602081019091526000815290565b6000604051806060016040528060408152602001614a6b60409139905060006003845160026123349190614a11565b61233e9190614a29565b612349906004614a4b565b67ffffffffffffffff81111561236157612361612766565b6040519080825280601f01601f19166020018201604052801561238b576020820181803683370190505b509050600182016020820185865187015b808210156123f7576003820191508151603f8160121c168501518453600184019350603f81600c1c168501518453600184019350603f8160061c168501518453600184019350603f811685015184535060018301925061239c565b505060038651066001811461241357600281146124265761242e565b603d6001830353603d600283035361242e565b603d60018303535b509195945050505050565b6000818310612455576000828152602084905260409020611f9c565b5060009182526020526040902090565b600054816124865760405163b562e8dd60e01b815260040160405180910390fd5b6001600160a01b03831660008181526005602090815260408083208054680100000000000000018802019055848352600490915281206001851460e11b4260a01b178317905582840190839083907fddf252ad1be2c89b69c2b068fc378daa952ba7f163c4a11628f55a4df523b3ef8180a4600183015b81811461253557808360007fddf252ad1be2c89b69c2b068fc378daa952ba7f163c4a11628f55a4df523b3ef600080a46001016124fd565b508161255357604051622e076360e81b815260040160405180910390fd5b60005550505050565b82805461256890612bfc565b90600052602060002090601f01602090048101928261258a57600085556125d0565b82601f106125a35782800160ff198235161785556125d0565b828001600101855582156125d0579182015b828111156125d05782358255916020019190600101906125b5565b506125dc929150612654565b5090565b8280546125ec90612bfc565b90600052602060002090601f01602090048101928261260e57600085556125d0565b82601f1061262757805160ff19168380011785556125d0565b828001600101855582156125d0579182015b828111156125d0578251825591602001919060010190612639565b5b808211156125dc5760008155600101612655565b6001600160e01b031981168114610fa957600080fd5b60006020828403121561269157600080fd5b8135611f9c81612669565b60005b838110156126b757818101518382015260200161269f565b8381111561171a5750506000910152565b600081518084526126e081602086016020860161269c565b601f01601f19169290920160200192915050565b602081526000611f9c60208301846126c8565b60006020828403121561271957600080fd5b5035919050565b80356001600160a01b038116811461273757600080fd5b919050565b6000806040838503121561274f57600080fd5b61275883612720565b946020939093013593505050565b634e487b7160e01b600052604160045260246000fd5b600067ffffffffffffffff8084111561279757612797612766565b604051601f8501601f19908116603f011681019082821181831017156127bf576127bf612766565b816040528093508581528686860111156127d857600080fd5b858560208301376000602087830101525050509392505050565b600082601f83011261280357600080fd5b611f9c8383356020850161277c565b60006020828403121561282457600080fd5b813567ffffffffffffffff81111561283b57600080fd5b612100848285016127f2565b60008060006060848603121561285c57600080fd5b61286584612720565b925061287360208501612720565b9150604084013590509250925092565b60008083601f84011261289557600080fd5b50813567ffffffffffffffff8111156128ad57600080fd5b6020830191508360208260051b85010111156128c857600080fd5b9250929050565b60008060008060008060008060c0898b0312156128eb57600080fd5b6128f489612720565b9750602089013596506040890135955060608901359450608089013567ffffffffffffffff8082111561292657600080fd5b818b0191508b601f83011261293a57600080fd5b81358181111561294957600080fd5b8c602082850101111561295b57600080fd5b6020830196508095505060a08b013591508082111561297957600080fd5b506129868b828c01612883565b999c989b5096995094979396929594505050565b6000602082840312156129ac57600080fd5b611f9c82612720565b600080604083850312156129c857600080fd5b82359150602083013567ffffffffffffffff8111156129e657600080fd5b6129f2858286016127f2565b9150509250929050565b600080600060608486031215612a1157600080fd5b83359250612a2160208501612720565b9150604084013567ffffffffffffffff811115612a3d57600080fd5b612a49868287016127f2565b9150509250925092565b8015158114610fa957600080fd5b60008060408385031215612a7457600080fd5b612a7d83612720565b91506020830135612a8d81612a53565b809150509250929050565b60008060008060808587031215612aae57600080fd5b612ab785612720565b9350612ac560208601612720565b925060408501359150606085013567ffffffffffffffff811115612ae857600080fd5b8501601f81018713612af957600080fd5b612b088782356020840161277c565b91505092959194509250565b85815260a060208201526000612b2d60a08301876126c8565b6001600160a01b0386166040840152606083018590528281036080840152612b5581856126c8565b98975050505050505050565b60008060408385031215612b7457600080fd5b612b7d83612720565b9150612b8b60208401612720565b90509250929050565b60208152815160208201526000602083015160a06040840152612bba60c08401826126c8565b905060018060a01b036040850151166060840152606084015160808401526080840151601f198483030160a0850152612bf382826126c8565b95945050505050565b600181811c90821680612c1057607f821691505b60208210811415612c3157634e487b7160e01b600052602260045260246000fd5b50919050565b600060208284031215612c4957600080fd5b8151611f9c81612a53565b8281526000602060408184015260008454612c6e81612bfc565b8060408701526060600180841660008114612c905760018114612ca457612cd2565b60ff19851689840152608089019550612cd2565b896000528660002060005b85811015612cca5781548b8201860152908301908801612caf565b8a0184019650505b50939998505050505050505050565b8183823760009101908152919050565b6000808354612cff81612bfc565b60018281168015612d175760018114612d2857612d57565b60ff19841687528287019450612d57565b8760005260208060002060005b85811015612d4e5781548a820152908401908201612d35565b50505082870194505b50929695505050505050565b6020808252603a908201527f596f75206e65656420746f2075736520616e206164647265737320726567697360408201527f7465726564206f6e2050726f6f66206f662048756d616e697479000000000000606082015260800190565b8581528460208201528284604083013760609190911b6bffffffffffffffffffffffff1916604091909201908101919091526054019392505050565b604081528260408201528284606083013760006060848301015260006060601f19601f8601168301019050826020830152949350505050565b634e487b7160e01b600052601160045260246000fd5b6000600019821415612e5f57612e5f612e35565b5060010190565b60208082526024908201527f496e636f727265637420616d6f756e74206f662045544820666f72206d696e746040820152632066656560e01b606082015260800190565b6020808252818101527f596f7520616c7265616479206861766520612054616c656e744c617965724944604082015260600190565b60208082526010908201526f12185b991b19481d1bdbc81cda1bdc9d60821b604082015260600190565b6020808252600f908201526e48616e646c6520746f6f206c6f6e6760881b604082015260600190565b60008151612f4481856020860161269c565b9290920192915050565b60008251612f6081846020870161269c565b9190910192915050565b6020808252601490820152732430b73236329030b63932b0b23c903a30b5b2b760611b604082015260600190565b600082821015612faa57612faa612e35565b500390565b85815260a060208201526000612fc860a08301876126c8565b941515604083015250606081019290925260809091015292915050565b6001600160a01b0385811682528416602082015260408101839052608060608201819052600090613018908301846126c8565b9695505050505050565b60006020828403121561303457600080fd5b8151611f9c81612669565b7f3c73766720786d6c6e733d22687474703a2f2f7777772e77332e6f72672f323081527f30302f737667222076696577426f783d223020302037323020373230223e3c6460208201527f6566733e3c6c696e6561724772616469656e742069643d2261222078313d223660408201527f372e3934222079313d223136392e3438222078323d223637302e39382220793260608201527f3d223536322e383622206772616469656e74556e6974733d227573657253706160808201527f63654f6e557365223e3c73746f70206f66667365743d2230222073746f702d6360a08201527f6f6c6f723d2223313761396332222f3e3c73746f70206f66667365743d222e3160c08201527f32222073746f702d636f6c6f723d2223316161396263222f3e3c73746f70206f60e08201527f66667365743d222e3239222073746f702d636f6c6f723d2223323561626162226101008201527f2f3e3c73746f70206f66667365743d222e3438222073746f702d636f6c6f723d6101208201527f2223333561643866222f3e3c73746f70206f66667365743d222e3634222073746101408201527f6f702d636f6c6f723d2223343862303732222f3e3c73746f70206f66667365746101608201527f3d222e3738222073746f702d636f6c6f723d2223353962323534222f3e3c73746101808201527f6f70206f66667365743d2231222073746f702d636f6c6f723d222337616237326101a08201527f30222f3e3c2f6c696e6561724772616469656e743e3c2f646566733e3c7061746101c08201527f68207374796c653d2266696c6c3a75726c282361292220643d224d30203068376101e08201527f32307637323048307a222f3e3c7061746820643d224d34372e30352039322e336102008201527f375635332e38344833332e32395634366833362e383576372e38344835362e346102208201527f317633382e3532682d392e33365a6d33352e37312d32332e33342d382e30372d6102408201527f312e3436632e39312d332e323520322e34372d352e363520342e36382d372e326102608201527f3120322e32312d312e353620352e352d322e333420392e38372d322e333420336102808201527f2e3936203020362e39322e343720382e383620312e343120312e39342e3934206102a08201527f332e333120322e313320342e3120332e353773312e313920342e3120312e31396102c08201527f20372e39366c2d2e312031302e3337633020322e39352e313420352e31332e346102e08201527f3320362e35332e323820312e342e383220322e393120312e3620342e3531682d6103008201527f382e3739632d2e32332d2e35392d2e35322d312e34372d2e38352d322e36332d6103208201527f2e31352d2e35332d2e32352d2e38382d2e33322d312e30342d312e353220312e6103408201527f34382d332e313420322e35382d342e383720332e3332732d332e353720312e316103608201527f312d352e353420312e3131632d332e343620302d362e31382d2e39342d382e316103808201527f382d322e38322d312e39392d312e38382d322e39392d342e32352d322e39392d6103a08201527f372e313220302d312e392e34352d332e353920312e33362d352e303873322e316103c08201527f382d322e363320332e38312d332e343220332e39392d312e343820372e30372d6103e08201527f322e303763342e31352d2e373820372e30332d312e353120382e36332d322e316104008201527f38762d2e383963302d312e37312d2e34322d322e39332d312e32372d332e36356104208201527f732d322e34342d312e30392d342e37382d312e3039632d312e353820302d322e6104408201527f38322e33312d332e372e39332d2e38392e36322d312e3620312e37312d322e316104608201527f3520332e32375a6d31312e383920372e3231632d312e31342e33382d322e39346104808201527f2e38332d352e343120312e33362d322e34372e35332d342e303820312e30342d6104a08201527f342e383420312e35352d312e31362e38322d312e373420312e38372d312e37346104c08201527f20332e3133732e343620322e333220312e333920332e3233632e39332e3931206104e08201527f322e313120312e333620332e353420312e333620312e36203020332e31332d2e6105008201527f353320342e35392d312e353820312e30382d2e3820312e37382d312e373820326105208201527f2e31322d322e39342e32332d2e37362e33352d322e322e33352d342e3333762d6105408201527f312e37375a6d31372e34392031362e313356343668382e38397634362e3337686105608201527f2d382e38395a6d33372e34352d31302e363920382e383620312e3439632d312e6105808201527f313420332e32352d322e393420352e37322d352e333920372e3432732d352e356105a08201527f3320322e35352d392e323220322e3535632d352e383420302d31302e31362d316105c08201527f2e39312d31322e39372d352e37322d322e32312d332e30362d332e33322d362e6105e08201527f39322d332e33322d31312e353820302d352e353720312e34362d392e393320346106008201527f2e33362d31332e303820322e39312d332e313520362e35392d342e37332031316106208201527f2e30342d342e37332035203020382e393420312e36352031312e383320342e396106408201527f3573342e323720382e333620342e31342031352e3137682d32322e3237632e306106608201527f3620322e36342e373820342e363920322e313520362e313520312e333720312e6106808201527f343720332e303820322e3220352e313220322e3220312e3339203020322e35366106a08201527f2d2e333820332e35312d312e31342e39352d2e373620312e36372d312e3938206106c08201527f322e31352d332e36375a6d2e35312d382e3938632d2e30362d322e35372d2e376106e08201527f332d342e35332d312e39392d352e38372d312e32372d312e33342d322e38312d6107008201527f322e30312d342e36322d322e30312d312e393420302d332e35342e37312d342e6107208201527f383120322e31322d312e323720312e34312d312e383920332e33332d312e38376107408201527f20352e37366831332e32385a6d34362e36322031392e3637682d382e383956376107608201527f352e323363302d332e36332d2e31392d352e39372d2e35372d372e30342d2e336107808201527f382d312e30362d312d312e38392d312e38352d322e3438732d312e38382d2e386107a08201527f392d332e30382d2e3839632d312e353420302d322e39322e34322d342e3134206107c08201527f312e3237732d322e303620312e39362d322e353120332e3335632d2e343520316107e08201527f2e33392d2e363820332e39362d2e363820372e37327631352e3231682d382e386108008201527f395635382e373868382e323676342e393363322e39332d332e3820362e36322d6108208201527f352e36392031312e30372d352e363920312e3936203020332e37352e333520356108408201527f2e333820312e303620312e36322e373120322e383520312e363120332e3638206108608201527f322e372e383320312e3120312e343120322e333420312e373420332e3733732e6108808201527f343920332e33382e343920352e39387632302e38385a6d32342e34322d33332e6108a08201527f353976372e3038682d362e30375637392e34633020322e37342e303620342e336108c08201527f342e313720342e37392e31322e34352e33382e38332e373920312e31322e34316108e08201527f2e332e39312e343420312e352e34342e3832203020322e30312d2e323820332e6109008201527f35372d2e38356c2e373620362e39632d322e30372e38392d342e343120312e336109208201527f332d372e303220312e33332d312e3620302d332e30352d2e32372d342e33332d6109408201527f2e38312d312e32392d2e35342d322e32332d312e32332d322e38332d322e30396109608201527f2d2e362d2e38352d312e30322d322e30312d312e32352d332e34362d2e31392d6109808201527f312e30332d2e32382d332e31322d2e32382d362e32365636352e3836682d342e6109a08201527f3038762d372e303868342e3038762d362e36376c382e39322d352e31397631316109c08201527f2e383668362e30375a6d362e32362033332e353956343668362e31347634302e6109e08201527f396832322e383476352e3437682d32382e39375a6d35372e34372d342e313463610a008201527f2d322e313120312e37392d342e313420332e30362d362e303920332e382d312e610a208201527f39352e37342d342e303420312e31312d362e323820312e31312d332e36392030610a408201527f2d362e35332d2e392d382e35312d322e372d312e39382d312e382d322e39372d610a608201527f342e31312d322e39372d362e393120302d312e36342e33372d332e313520312e610a808201527f31322d342e353173312e37332d322e343520322e39342d332e323763312e3231610aa08201527f2d2e383220322e35382d312e343420342e312d312e383720312e31322d2e3320610ac08201527f322e382d2e353820352e30362d2e383520342e362d2e353520372e39382d312e610ae08201527f322031302e31352d312e39362e30322d2e37382e30332d312e32382e30332d31610b008201527f2e343920302d322e33322d2e35342d332e39352d312e36312d342e392d312e34610b208201527f362d312e32392d332e36322d312e39332d362e34382d312e39332d322e363820610b408201527f302d342e36352e34372d352e393320312e3431732d322e323220322e362d322e610b608201527f383320342e39386c2d352e35372d2e3736632e35312d322e333820312e33342d610b808201527f342e333120322e352d352e373720312e31362d312e343720322e38342d322e35610ba08201527f3920352e30332d332e333820322e31392d2e373920342e37332d312e31392037610bc08201527f2e36322d312e313973352e322e333420362e393920312e303163312e37392e36610be08201527f3820332e313120312e353220332e393520322e35352e383420312e303220312e610c008201527f343320322e333120312e373720332e38382e31392e39372e323820322e37322e610c208201527f323820352e323576372e3539633020352e32392e313220382e36342e33362031610c408201527f302e30342e323420312e342e373220322e373520312e343420342e3033682d35610c608201527f2e3935632d2e35392d312e31382d2e39372d322e35362d312e31342d342e3134610c808201527f5a6d2d2e34372d31322e3732632d322e30372e38342d352e313720312e35362d610ca08201527f392e3320322e31352d322e33342e33342d34202e37322d342e393720312e3134610cc08201527f2d2e39372e34322d312e373220312e30342d322e323520312e3835732d2e3739610ce08201527f20312e37312d2e373920322e37633020312e35322e353720322e373820312e37610d008201527f3220332e3820312e313520312e303120322e383320312e353220352e30352031610d208201527f2e353273342e31342d2e343820352e38352d312e343420322e39362d322e3237610d408201527f20332e37362d332e3934632e36312d312e32392e39322d332e31382e39322d35610d608201527f2e3639762d322e30395a6d31342e33332032392e382d2e36332d352e33356331610d808201527f2e32342e333420322e33332e353120332e32362e353120312e3237203020322e610da08201527f32382d2e323120332e30342d2e363373312e33382d312e303120312e38372d31610dc08201527f2e3737632e33362d2e35372e39342d312e393820312e37342d342e32342e3131610de08201527f2d2e33322e32372d2e37382e35312d312e33396c2d31322e37352d33332e3635610e008201527f68362e31346c362e39392031392e3435632e393120322e343720312e37322035610e208201527f2e303620322e343420372e37382e36352d322e363120312e34332d352e313720610e408201527f322e33342d372e36356c372e31382d31392e353868352e36396c2d31322e3738610e608201527f2033342e3136632d312e333720332e36392d322e343420362e32332d332e3139610e808201527f20372e36322d312e303120312e38382d322e313720332e32352d332e34382034610ea08201527f2e31332d312e33312e38382d322e383720312e33312d342e363820312e33312d610ec08201527f312e3120302d322e33322d2e32332d332e36372d2e375a6d35352e36332d3233610ee08201527f2e373620352e38382e3733632d2e393320332e34342d322e363520362e312d35610f008201527f2e313620382d322e353120312e392d352e373120322e38352d392e363220322e610f208201527f38352d342e393120302d382e38312d312e35312d31312e36392d342e35342d32610f408201527f2e38382d332e30332d342e33322d372e32372d342e33322d31322e373373312e610f608201527f34362d31302e303420342e33362d31332e313663322e39312d332e313220362e610f808201527f36382d342e36382031312e33322d342e363873382e313620312e35332031312e610fa08201527f303120342e353963322e383520332e303620342e323720372e333620342e3237610fc08201527f2031322e39312030202e33342d2e30312e38342d2e303320312e3532682d3235610fe08201527f2e3035632e323120332e363920312e323520362e353220332e313320382e34386110008201527f20312e383820312e393620342e323220322e393420372e303220322e393420326110208201527f2e3039203020332e38372d2e353520352e33352d312e363420312e34382d312e6110408201527f3120322e36352d322e383520332e35312d352e32355a6d2d31382e36392d392e6110608201527f326831382e3736632d2e32352d322e38332d2e39372d342e39342d322e31352d6110808201527f362e33362d312e38312d322e31392d342e31372d332e32392d372e30352d332e6110a08201527f32392d322e363120302d342e38312e38382d362e3620322e3633732d322e37376110c08201527f20342e30392d322e393620372e30325a6d33312e36362032302e30325635382e6110e08201527f373868352e313276352e303963312e33312d322e333820322e35312d332e39356111008201527f20332e36322d342e373173322e33322d312e313420332e36352d312e313463316111208201527f2e3932203020332e38372e363120352e383520312e38336c2d312e393620352e6111408201527f3238632d312e33392d2e38322d322e37382d312e32332d342e31382d312e32336111608201527f2d312e323420302d322e33362e33372d332e333520312e31322d2e39392e37356111808201527f2d312e3720312e37392d322e313220332e31322d2e363320322e30322d2e39356111a08201527f20342e32342d2e393520362e36347631372e3539682d352e36395a6d32312e376111c08201527f39203056343668392e33367634362e3337682d392e33365a4d3430372e3337206111e08201527f34366831372e313163332e3836203020362e382e3320382e38332e383920322e6112008201527f37322e3820352e303520322e323220362e393920342e323720312e393420322e6112208201527f303520332e343220342e353520342e343320372e353120312e303120322e39366112408201527f20312e353220362e363220312e35322031302e3936203020332e38322d2e34376112608201527f20372e31312d312e343220392e38372d312e313620332e33372d322e383220366112808201527f2e312d342e393720382e31392d312e363220312e35382d332e383220322e38326112a08201527f2d362e353820332e372d322e30372e36352d342e38332e39382d382e32392e396112c08201527f38682d31372e36325634365a6d392e333620372e38347633302e373168362e396112e08201527f3963322e3631203020342e352d2e313520352e36362d2e343420312e35322d2e6113008201527f333820322e37382d312e303220332e37382d312e393320312d2e393120312e386113208201527f322d322e3420322e34352d342e34382e36332d322e30382e39352d342e39312e6113408201527f39352d382e3439732d2e33322d362e33342d2e39352d382e32362d312e35322d6113608201527f332e34322d322e36362d342e34392d322e35382d312e382d342e33332d322e316113808201527f38632d312e33312d2e332d332e38372d2e34342d372e36392d2e3434682d342e6113a08201527f32315a22207374796c653d2266696c6c3a23666666222f3e3c7465787420793d6113c08201527f223637302220783d22333022207374796c653d22666f6e743a373070782073616113e082015273373996b9b2b934b31db334b6361d11b33333111f60611b6114008201526000611f9c6148c5611414840185612f32565b6c1e17ba32bc3a1f1e17b9bb339f60991b8152600d0190565b7f646174613a696d6167652f7376672b786d6c3b6261736536342c00000000000081526000825161491681601a85016020870161269c565b91909101601a0192915050565b683d913730b6b2911d1160b91b8152825160009061494881600985016020880161269c565b6b1116101134b6b0b3b2911d1160a11b600991840191820152835161497481601584016020880161269c565b7f222c20226465736372697074696f6e223a202254616c656e744c617965722049601592909101918201526244227d60e81b6035820152603801949350505050565b7f646174613a6170706c69636174696f6e2f6a736f6e3b6261736536342c0000008152600082516149ee81601d85016020870161269c565b91909101601d0192915050565b634e487b7160e01b600052603260045260246000fd5b60008219821115614a2457614a24612e35565b500190565b600082614a4657634e487b7160e01b600052601260045260246000fd5b500490565b6000816000190483118215151615614a6557614a65612e35565b50029056fe4142434445464748494a4b4c4d4e4f505152535455565758595a6162636465666768696a6b6c6d6e6f707172737475767778797a303132333435363738392b2fa26469706673582212207365173a4a44f5f803f469fe4ef3f3f8060c9df75ea28e36124a8a987683abb764736f6c63430008090033",
  "linkReferences": {},
  "deployedLinkReferences": {}
}