{
  "_format": "hh-sol-artifact-1",
  "contractName": "TalentLayerService",
  "sourceName": "contracts/TalentLayerService.sol",
  "abi": [
    {
      "inputs": [],
      "stateMutability": "nonpayable",
      "type": "constructor"
    },
    {
      "anonymous": false,
      "inputs": [
        {
          "indexed": false,
          "internalType": "address",
          "name": "previousAdmin",
          "type": "address"
        },
        {
          "indexed": false,
          "internalType": "address",
          "name": "newAdmin",
          "type": "address"
        }
      ],
      "name": "AdminChanged",
      "type": "event"
    },
    {
      "anonymous": false,
      "inputs": [
        {
          "indexed": false,
          "internalType": "address",
          "name": "tokenAddress",
          "type": "address"
        },
        {
          "indexed": false,
          "internalType": "bool",
          "name": "isWhitelisted",
          "type": "bool"
        },
        {
          "indexed": false,
          "internalType": "uint256",
          "name": "minimumTransactionAmount",
          "type": "uint256"
        }
      ],
      "name": "AllowedTokenListUpdated",
      "type": "event"
    },
    {
      "anonymous": false,
      "inputs": [
        {
          "indexed": true,
          "internalType": "address",
          "name": "beacon",
          "type": "address"
        }
      ],
      "name": "BeaconUpgraded",
      "type": "event"
    },
    {
      "anonymous": false,
      "inputs": [
        {
          "indexed": false,
          "internalType": "uint8",
          "name": "version",
          "type": "uint8"
        }
      ],
      "name": "Initialized",
      "type": "event"
    },
    {
      "anonymous": false,
      "inputs": [
        {
          "indexed": false,
          "internalType": "uint256",
          "name": "minCompletionPercentage",
          "type": "uint256"
        }
      ],
      "name": "MinCompletionPercentageUpdated",
      "type": "event"
    },
    {
      "anonymous": false,
      "inputs": [
        {
          "indexed": true,
          "internalType": "address",
          "name": "previousOwner",
          "type": "address"
        },
        {
          "indexed": true,
          "internalType": "address",
          "name": "newOwner",
          "type": "address"
        }
      ],
      "name": "OwnershipTransferred",
      "type": "event"
    },
    {
      "anonymous": false,
      "inputs": [
        {
          "indexed": false,
          "internalType": "uint256",
          "name": "serviceId",
          "type": "uint256"
        },
        {
          "indexed": false,
          "internalType": "uint256",
          "name": "ownerId",
          "type": "uint256"
        },
        {
          "indexed": false,
          "internalType": "string",
          "name": "dataUri",
          "type": "string"
        },
        {
          "indexed": false,
          "internalType": "enum TalentLayerService.ProposalStatus",
          "name": "status",
          "type": "uint8"
        },
        {
          "indexed": false,
          "internalType": "uint256",
          "name": "amount",
          "type": "uint256"
        },
        {
          "indexed": false,
          "internalType": "uint256",
          "name": "platformId",
          "type": "uint256"
        },
        {
          "indexed": false,
          "internalType": "uint256",
          "name": "expirationDate",
          "type": "uint256"
        },
        {
          "indexed": false,
          "internalType": "uint256",
          "name": "referrerId",
          "type": "uint256"
        }
      ],
      "name": "ProposalCreatedWithReferrer",
      "type": "event"
    },
    {
      "anonymous": false,
      "inputs": [
        {
          "indexed": false,
          "internalType": "uint256",
          "name": "serviceId",
          "type": "uint256"
        },
        {
          "indexed": false,
          "internalType": "uint256",
          "name": "ownerId",
          "type": "uint256"
        },
        {
          "indexed": false,
          "internalType": "string",
          "name": "dataUri",
          "type": "string"
        },
        {
          "indexed": false,
          "internalType": "uint256",
          "name": "amount",
          "type": "uint256"
        },
        {
          "indexed": false,
          "internalType": "uint256",
          "name": "expirationDate",
          "type": "uint256"
        },
        {
          "indexed": false,
          "internalType": "uint256",
          "name": "referrerId",
          "type": "uint256"
        }
      ],
      "name": "ProposalUpdatedWithReferrer",
      "type": "event"
    },
    {
      "anonymous": false,
      "inputs": [
        {
          "indexed": true,
          "internalType": "bytes32",
          "name": "role",
          "type": "bytes32"
        },
        {
          "indexed": true,
          "internalType": "bytes32",
          "name": "previousAdminRole",
          "type": "bytes32"
        },
        {
          "indexed": true,
          "internalType": "bytes32",
          "name": "newAdminRole",
          "type": "bytes32"
        }
      ],
      "name": "RoleAdminChanged",
      "type": "event"
    },
    {
      "anonymous": false,
      "inputs": [
        {
          "indexed": true,
          "internalType": "bytes32",
          "name": "role",
          "type": "bytes32"
        },
        {
          "indexed": true,
          "internalType": "address",
          "name": "account",
          "type": "address"
        },
        {
          "indexed": true,
          "internalType": "address",
          "name": "sender",
          "type": "address"
        }
      ],
      "name": "RoleGranted",
      "type": "event"
    },
    {
      "anonymous": false,
      "inputs": [
        {
          "indexed": true,
          "internalType": "bytes32",
          "name": "role",
          "type": "bytes32"
        },
        {
          "indexed": true,
          "internalType": "address",
          "name": "account",
          "type": "address"
        },
        {
          "indexed": true,
          "internalType": "address",
          "name": "sender",
          "type": "address"
        }
      ],
      "name": "RoleRevoked",
      "type": "event"
    },
    {
      "anonymous": false,
      "inputs": [
        {
          "indexed": false,
          "internalType": "uint256",
          "name": "id",
          "type": "uint256"
        }
      ],
      "name": "ServiceCancelled",
      "type": "event"
    },
    {
      "anonymous": false,
      "inputs": [
        {
          "indexed": false,
          "internalType": "uint256",
          "name": "id",
          "type": "uint256"
        },
        {
          "indexed": false,
          "internalType": "uint256",
          "name": "ownerId",
          "type": "uint256"
        },
        {
          "indexed": false,
          "internalType": "uint256",
          "name": "platformId",
          "type": "uint256"
        },
        {
          "indexed": false,
          "internalType": "string",
          "name": "dataUri",
          "type": "string"
        },
        {
          "indexed": false,
          "internalType": "address",
          "name": "rateToken",
          "type": "address"
        },
        {
          "indexed": false,
          "internalType": "uint256",
          "name": "referralAmount",
          "type": "uint256"
        }
      ],
      "name": "ServiceCreatedWithReferral",
      "type": "event"
    },
    {
      "anonymous": false,
      "inputs": [
        {
          "indexed": false,
          "internalType": "uint256",
          "name": "id",
          "type": "uint256"
        },
        {
          "indexed": false,
          "internalType": "string",
          "name": "dataUri",
          "type": "string"
        },
        {
          "indexed": false,
          "internalType": "uint256",
          "name": "referralAmount",
          "type": "uint256"
        }
      ],
      "name": "ServiceUpdated",
      "type": "event"
    },
    {
      "anonymous": false,
      "inputs": [
        {
          "indexed": false,
          "internalType": "address",
          "name": "forwarder",
          "type": "address"
        }
      ],
      "name": "TrustedForwarderAdded",
      "type": "event"
    },
    {
      "anonymous": false,
      "inputs": [
        {
          "indexed": false,
          "internalType": "address",
          "name": "forwarder",
          "type": "address"
        }
      ],
      "name": "TrustedForwarderRemoved",
      "type": "event"
    },
    {
      "anonymous": false,
      "inputs": [
        {
          "indexed": true,
          "internalType": "address",
          "name": "implementation",
          "type": "address"
        }
      ],
      "name": "Upgraded",
      "type": "event"
    },
    {
      "inputs": [],
      "name": "DEFAULT_ADMIN_ROLE",
      "outputs": [
        {
          "internalType": "bytes32",
          "name": "",
          "type": "bytes32"
        }
      ],
      "stateMutability": "view",
      "type": "function"
    },
    {
      "inputs": [],
      "name": "ESCROW_ROLE",
      "outputs": [
        {
          "internalType": "bytes32",
          "name": "",
          "type": "bytes32"
        }
      ],
      "stateMutability": "view",
      "type": "function"
    },
    {
      "inputs": [
        {
          "internalType": "address",
          "name": "_forwarder",
          "type": "address"
        }
      ],
      "name": "addTrustedForwarder",
      "outputs": [],
      "stateMutability": "nonpayable",
      "type": "function"
    },
    {
      "inputs": [
        {
          "internalType": "uint256",
          "name": "_serviceId",
          "type": "uint256"
        },
        {
          "internalType": "uint256",
          "name": "_proposalId",
          "type": "uint256"
        },
        {
          "internalType": "uint256",
          "name": "_transactionId",
          "type": "uint256"
        }
      ],
      "name": "afterDeposit",
      "outputs": [],
      "stateMutability": "nonpayable",
      "type": "function"
    },
    {
      "inputs": [
        {
          "internalType": "uint256",
          "name": "_serviceId",
          "type": "uint256"
        },
        {
          "internalType": "uint256",
          "name": "_releasedAmount",
          "type": "uint256"
        }
      ],
      "name": "afterFullPayment",
      "outputs": [],
      "stateMutability": "nonpayable",
      "type": "function"
    },
    {
      "inputs": [
        {
          "internalType": "address",
          "name": "",
          "type": "address"
        }
      ],
      "name": "allowedTokenList",
      "outputs": [
        {
          "internalType": "bool",
          "name": "isWhitelisted",
          "type": "bool"
        },
        {
          "internalType": "uint256",
          "name": "minimumTransactionAmount",
          "type": "uint256"
        }
      ],
      "stateMutability": "view",
      "type": "function"
    },
    {
      "inputs": [
        {
          "internalType": "uint256",
          "name": "_profileId",
          "type": "uint256"
        },
        {
          "internalType": "uint256",
          "name": "_serviceId",
          "type": "uint256"
        }
      ],
      "name": "cancelService",
      "outputs": [],
      "stateMutability": "nonpayable",
      "type": "function"
    },
    {
      "inputs": [
        {
          "internalType": "uint256",
          "name": "_profileId",
          "type": "uint256"
        },
        {
          "internalType": "uint256",
          "name": "_serviceId",
          "type": "uint256"
        },
        {
          "internalType": "uint256",
          "name": "_rateAmount",
          "type": "uint256"
        },
        {
          "internalType": "uint256",
          "name": "_platformId",
          "type": "uint256"
        },
        {
          "internalType": "string",
          "name": "_dataUri",
          "type": "string"
        },
        {
          "internalType": "uint256",
          "name": "_expirationDate",
          "type": "uint256"
        },
        {
          "internalType": "bytes",
          "name": "_signature",
          "type": "bytes"
        },
        {
          "internalType": "uint256",
          "name": "_referrerId",
          "type": "uint256"
        }
      ],
      "name": "createProposal",
      "outputs": [],
      "stateMutability": "payable",
      "type": "function"
    },
    {
      "inputs": [
        {
          "internalType": "uint256",
          "name": "_profileId",
          "type": "uint256"
        },
        {
          "internalType": "uint256",
          "name": "_platformId",
          "type": "uint256"
        },
        {
          "internalType": "string",
          "name": "_dataUri",
          "type": "string"
        },
        {
          "internalType": "bytes",
          "name": "_signature",
          "type": "bytes"
        },
        {
          "internalType": "address",
          "name": "_rateToken",
          "type": "address"
        },
        {
          "internalType": "uint256",
          "name": "_referralAmount",
          "type": "uint256"
        }
      ],
      "name": "createService",
      "outputs": [
        {
          "internalType": "uint256",
          "name": "",
          "type": "uint256"
        }
      ],
      "stateMutability": "payable",
      "type": "function"
    },
    {
      "inputs": [
        {
          "internalType": "uint256",
          "name": "_serviceId",
          "type": "uint256"
        },
        {
          "internalType": "uint256",
          "name": "_proposalId",
          "type": "uint256"
        }
      ],
      "name": "getProposal",
      "outputs": [
        {
          "components": [
            {
              "internalType": "enum TalentLayerService.ProposalStatus",
              "name": "status",
              "type": "uint8"
            },
            {
              "internalType": "uint256",
              "name": "ownerId",
              "type": "uint256"
            },
            {
              "internalType": "address",
              "name": "rateToken",
              "type": "address"
            },
            {
              "internalType": "uint256",
              "name": "rateAmount",
              "type": "uint256"
            },
            {
              "internalType": "uint256",
              "name": "platformId",
              "type": "uint256"
            },
            {
              "internalType": "string",
              "name": "dataUri",
              "type": "string"
            },
            {
              "internalType": "uint256",
              "name": "expirationDate",
              "type": "uint256"
            },
            {
              "internalType": "uint256",
              "name": "referrerId",
              "type": "uint256"
            }
          ],
          "internalType": "struct TalentLayerService.Proposal",
          "name": "",
          "type": "tuple"
        }
      ],
      "stateMutability": "view",
      "type": "function"
    },
    {
      "inputs": [
        {
          "internalType": "bytes32",
          "name": "role",
          "type": "bytes32"
        }
      ],
      "name": "getRoleAdmin",
      "outputs": [
        {
          "internalType": "bytes32",
          "name": "",
          "type": "bytes32"
        }
      ],
      "stateMutability": "view",
      "type": "function"
    },
    {
      "inputs": [
        {
          "internalType": "uint256",
          "name": "_serviceId",
          "type": "uint256"
        }
      ],
      "name": "getService",
      "outputs": [
        {
          "components": [
            {
              "internalType": "enum TalentLayerService.Status",
              "name": "status",
              "type": "uint8"
            },
            {
              "internalType": "uint256",
              "name": "ownerId",
              "type": "uint256"
            },
            {
              "internalType": "uint256",
              "name": "acceptedProposalId",
              "type": "uint256"
            },
            {
              "internalType": "string",
              "name": "dataUri",
              "type": "string"
            },
            {
              "internalType": "uint256",
              "name": "transactionId",
              "type": "uint256"
            },
            {
              "internalType": "uint256",
              "name": "platformId",
              "type": "uint256"
            },
            {
              "internalType": "address",
              "name": "rateToken",
              "type": "address"
            },
            {
              "internalType": "uint256",
              "name": "referralAmount",
              "type": "uint256"
            }
          ],
          "internalType": "struct TalentLayerService.Service",
          "name": "",
          "type": "tuple"
        }
      ],
      "stateMutability": "view",
      "type": "function"
    },
    {
      "inputs": [
        {
          "internalType": "uint256",
          "name": "_serviceId",
          "type": "uint256"
        },
        {
          "internalType": "uint256",
          "name": "_proposalId",
          "type": "uint256"
        }
      ],
      "name": "getServiceAndProposal",
      "outputs": [
        {
          "components": [
            {
              "internalType": "enum TalentLayerService.Status",
              "name": "status",
              "type": "uint8"
            },
            {
              "internalType": "uint256",
              "name": "ownerId",
              "type": "uint256"
            },
            {
              "internalType": "uint256",
              "name": "acceptedProposalId",
              "type": "uint256"
            },
            {
              "internalType": "string",
              "name": "dataUri",
              "type": "string"
            },
            {
              "internalType": "uint256",
              "name": "transactionId",
              "type": "uint256"
            },
            {
              "internalType": "uint256",
              "name": "platformId",
              "type": "uint256"
            },
            {
              "internalType": "address",
              "name": "rateToken",
              "type": "address"
            },
            {
              "internalType": "uint256",
              "name": "referralAmount",
              "type": "uint256"
            }
          ],
          "internalType": "struct TalentLayerService.Service",
          "name": "",
          "type": "tuple"
        },
        {
          "components": [
            {
              "internalType": "enum TalentLayerService.ProposalStatus",
              "name": "status",
              "type": "uint8"
            },
            {
              "internalType": "uint256",
              "name": "ownerId",
              "type": "uint256"
            },
            {
              "internalType": "address",
              "name": "rateToken",
              "type": "address"
            },
            {
              "internalType": "uint256",
              "name": "rateAmount",
              "type": "uint256"
            },
            {
              "internalType": "uint256",
              "name": "platformId",
              "type": "uint256"
            },
            {
              "internalType": "string",
              "name": "dataUri",
              "type": "string"
            },
            {
              "internalType": "uint256",
              "name": "expirationDate",
              "type": "uint256"
            },
            {
              "internalType": "uint256",
              "name": "referrerId",
              "type": "uint256"
            }
          ],
          "internalType": "struct TalentLayerService.Proposal",
          "name": "",
          "type": "tuple"
        }
      ],
      "stateMutability": "view",
      "type": "function"
    },
    {
      "inputs": [
        {
          "internalType": "bytes32",
          "name": "role",
          "type": "bytes32"
        },
        {
          "internalType": "address",
          "name": "account",
          "type": "address"
        }
      ],
      "name": "grantRole",
      "outputs": [],
      "stateMutability": "nonpayable",
      "type": "function"
    },
    {
      "inputs": [
        {
          "internalType": "bytes32",
          "name": "role",
          "type": "bytes32"
        },
        {
          "internalType": "address",
          "name": "account",
          "type": "address"
        }
      ],
      "name": "hasRole",
      "outputs": [
        {
          "internalType": "bool",
          "name": "",
          "type": "bool"
        }
      ],
      "stateMutability": "view",
      "type": "function"
    },
    {
      "inputs": [
        {
          "internalType": "address",
          "name": "_talentLayerIdAddress",
          "type": "address"
        },
        {
          "internalType": "address",
          "name": "_talentLayerPlatformIdAddress",
          "type": "address"
        }
      ],
      "name": "initialize",
      "outputs": [],
      "stateMutability": "nonpayable",
      "type": "function"
    },
    {
      "inputs": [
        {
          "internalType": "address",
          "name": "_tokenAddress",
          "type": "address"
        }
      ],
      "name": "isTokenAllowed",
      "outputs": [
        {
          "internalType": "bool",
          "name": "",
          "type": "bool"
        }
      ],
      "stateMutability": "view",
      "type": "function"
    },
    {
      "inputs": [
        {
          "internalType": "address",
          "name": "forwarder",
          "type": "address"
        }
      ],
      "name": "isTrustedForwarder",
      "outputs": [
        {
          "internalType": "bool",
          "name": "",
          "type": "bool"
        }
      ],
      "stateMutability": "view",
      "type": "function"
    },
    {
      "inputs": [],
      "name": "minCompletionPercentage",
      "outputs": [
        {
          "internalType": "uint256",
          "name": "",
          "type": "uint256"
        }
      ],
      "stateMutability": "view",
      "type": "function"
    },
    {
      "inputs": [],
      "name": "nextServiceId",
      "outputs": [
        {
          "internalType": "uint256",
          "name": "",
          "type": "uint256"
        }
      ],
      "stateMutability": "view",
      "type": "function"
    },
    {
      "inputs": [],
      "name": "owner",
      "outputs": [
        {
          "internalType": "address",
          "name": "",
          "type": "address"
        }
      ],
      "stateMutability": "view",
      "type": "function"
    },
    {
      "inputs": [
        {
          "internalType": "uint256",
          "name": "",
          "type": "uint256"
        }
      ],
      "name": "proposalNonce",
      "outputs": [
        {
          "internalType": "uint256",
          "name": "",
          "type": "uint256"
        }
      ],
      "stateMutability": "view",
      "type": "function"
    },
    {
      "inputs": [
        {
          "internalType": "uint256",
          "name": "",
          "type": "uint256"
        },
        {
          "internalType": "uint256",
          "name": "",
          "type": "uint256"
        }
      ],
      "name": "proposals",
      "outputs": [
        {
          "internalType": "enum TalentLayerService.ProposalStatus",
          "name": "status",
          "type": "uint8"
        },
        {
          "internalType": "uint256",
          "name": "ownerId",
          "type": "uint256"
        },
        {
          "internalType": "address",
          "name": "rateToken",
          "type": "address"
        },
        {
          "internalType": "uint256",
          "name": "rateAmount",
          "type": "uint256"
        },
        {
          "internalType": "uint256",
          "name": "platformId",
          "type": "uint256"
        },
        {
          "internalType": "string",
          "name": "dataUri",
          "type": "string"
        },
        {
          "internalType": "uint256",
          "name": "expirationDate",
          "type": "uint256"
        },
        {
          "internalType": "uint256",
          "name": "referrerId",
          "type": "uint256"
        }
      ],
      "stateMutability": "view",
      "type": "function"
    },
    {
      "inputs": [],
      "name": "proxiableUUID",
      "outputs": [
        {
          "internalType": "bytes32",
          "name": "",
          "type": "bytes32"
        }
      ],
      "stateMutability": "view",
      "type": "function"
    },
    {
      "inputs": [
        {
          "internalType": "address",
          "name": "_forwarder",
          "type": "address"
        }
      ],
      "name": "removeTrustedForwarder",
      "outputs": [],
      "stateMutability": "nonpayable",
      "type": "function"
    },
    {
      "inputs": [],
      "name": "renounceOwnership",
      "outputs": [],
      "stateMutability": "nonpayable",
      "type": "function"
    },
    {
      "inputs": [
        {
          "internalType": "bytes32",
          "name": "role",
          "type": "bytes32"
        },
        {
          "internalType": "address",
          "name": "account",
          "type": "address"
        }
      ],
      "name": "renounceRole",
      "outputs": [],
      "stateMutability": "nonpayable",
      "type": "function"
    },
    {
      "inputs": [
        {
          "internalType": "bytes32",
          "name": "role",
          "type": "bytes32"
        },
        {
          "internalType": "address",
          "name": "account",
          "type": "address"
        }
      ],
      "name": "revokeRole",
      "outputs": [],
      "stateMutability": "nonpayable",
      "type": "function"
    },
    {
      "inputs": [
        {
          "internalType": "uint256",
          "name": "",
          "type": "uint256"
        }
      ],
      "name": "serviceNonce",
      "outputs": [
        {
          "internalType": "uint256",
          "name": "",
          "type": "uint256"
        }
      ],
      "stateMutability": "view",
      "type": "function"
    },
    {
      "inputs": [
        {
          "internalType": "uint256",
          "name": "",
          "type": "uint256"
        }
      ],
      "name": "services",
      "outputs": [
        {
          "internalType": "enum TalentLayerService.Status",
          "name": "status",
          "type": "uint8"
        },
        {
          "internalType": "uint256",
          "name": "ownerId",
          "type": "uint256"
        },
        {
          "internalType": "uint256",
          "name": "acceptedProposalId",
          "type": "uint256"
        },
        {
          "internalType": "string",
          "name": "dataUri",
          "type": "string"
        },
        {
          "internalType": "uint256",
          "name": "transactionId",
          "type": "uint256"
        },
        {
          "internalType": "uint256",
          "name": "platformId",
          "type": "uint256"
        },
        {
          "internalType": "address",
          "name": "rateToken",
          "type": "address"
        },
        {
          "internalType": "uint256",
          "name": "referralAmount",
          "type": "uint256"
        }
      ],
      "stateMutability": "view",
      "type": "function"
    },
    {
      "inputs": [
        {
          "internalType": "bytes4",
          "name": "interfaceId",
          "type": "bytes4"
        }
      ],
      "name": "supportsInterface",
      "outputs": [
        {
          "internalType": "bool",
          "name": "",
          "type": "bool"
        }
      ],
      "stateMutability": "view",
      "type": "function"
    },
    {
      "inputs": [],
      "name": "talentLayerPlatformIdContract",
      "outputs": [
        {
          "internalType": "contract ITalentLayerPlatformID",
          "name": "",
          "type": "address"
        }
      ],
      "stateMutability": "view",
      "type": "function"
    },
    {
      "inputs": [
        {
          "internalType": "address",
          "name": "newOwner",
          "type": "address"
        }
      ],
      "name": "transferOwnership",
      "outputs": [],
      "stateMutability": "nonpayable",
      "type": "function"
    },
    {
      "inputs": [
        {
          "internalType": "address",
          "name": "_tokenAddress",
          "type": "address"
        },
        {
          "internalType": "bool",
          "name": "_isWhitelisted",
          "type": "bool"
        },
        {
          "internalType": "uint256",
          "name": "_minimumTransactionAmount",
          "type": "uint256"
        }
      ],
      "name": "updateAllowedTokenList",
      "outputs": [],
      "stateMutability": "nonpayable",
      "type": "function"
    },
    {
      "inputs": [
        {
          "internalType": "uint256",
          "name": "_minCompletionPercentage",
          "type": "uint256"
        }
      ],
      "name": "updateMinCompletionPercentage",
      "outputs": [],
      "stateMutability": "nonpayable",
      "type": "function"
    },
    {
      "inputs": [
        {
          "internalType": "uint256",
          "name": "_profileId",
          "type": "uint256"
        },
        {
          "internalType": "uint256",
          "name": "_serviceId",
          "type": "uint256"
        },
        {
          "internalType": "uint256",
          "name": "_rateAmount",
          "type": "uint256"
        },
        {
          "internalType": "string",
          "name": "_dataUri",
          "type": "string"
        },
        {
          "internalType": "uint256",
          "name": "_expirationDate",
          "type": "uint256"
        },
        {
          "internalType": "uint256",
          "name": "_referrerId",
          "type": "uint256"
        }
      ],
      "name": "updateProposal",
      "outputs": [],
      "stateMutability": "nonpayable",
      "type": "function"
    },
    {
      "inputs": [
        {
          "internalType": "uint256",
          "name": "_profileId",
          "type": "uint256"
        },
        {
          "internalType": "uint256",
          "name": "_serviceId",
          "type": "uint256"
        },
        {
          "internalType": "uint256",
          "name": "_referralAmount",
          "type": "uint256"
        },
        {
          "internalType": "string",
          "name": "_dataUri",
          "type": "string"
        }
      ],
      "name": "updateService",
      "outputs": [],
      "stateMutability": "nonpayable",
      "type": "function"
    },
    {
      "inputs": [
        {
          "internalType": "address",
          "name": "newImplementation",
          "type": "address"
        }
      ],
      "name": "upgradeTo",
      "outputs": [],
      "stateMutability": "nonpayable",
      "type": "function"
    },
    {
      "inputs": [
        {
          "internalType": "address",
          "name": "newImplementation",
          "type": "address"
        },
        {
          "internalType": "bytes",
          "name": "data",
          "type": "bytes"
        }
      ],
      "name": "upgradeToAndCall",
      "outputs": [],
      "stateMutability": "payable",
      "type": "function"
    }
  ],
  "bytecode": "0x60a0604052306080523480156200001557600080fd5b506200002062000026565b620000e8565b600054610100900460ff1615620000935760405162461bcd60e51b815260206004820152602760248201527f496e697469616c697a61626c653a20636f6e747261637420697320696e697469604482015266616c697a696e6760c81b606482015260840160405180910390fd5b60005460ff9081161015620000e6576000805460ff191660ff9081179091556040519081527f7f26b83ff96e1f2b6a682f133852f6798a09c465da95921460cefb38474024989060200160405180910390a15b565b6080516144b7620001206000396000818161102e0152818161106e015281816113250152818161136501526113f401526144b76000f3fe6080604052600436106102305760003560e01c8063715018a61161012e578063c22c4f43116100ab578063ef0e239b1161006f578063ef0e239b1461072e578063f2fde38b1461075b578063f6c53d9b1461077b578063f9eaee0d14610792578063ff420375146107cc57600080fd5b8063c22c4f431461064a578063c2cfee271461067e578063ccaa7d2a146106b2578063d4eee1fc146106e0578063d547741f1461070e57600080fd5b8063a217fddf116100f2578063a217fddf146105b5578063a24bd889146105ca578063a7d5eaea146105dd578063aba21009146105fd578063b5735c1e1461062a57600080fd5b8063715018a6146104f057806371da85f9146105055780637c5a72cd146105575780638da5cb5b1461057757806391d148541461059557600080fd5b80632f2ff15d116101bc578063485cc95511610180578063485cc9551461043b5780634f1ef2861461045b57806352d1902d1461046e578063572b6c05146104835780636ce76f30146104bc57600080fd5b80632f2ff15d1461039b57806336568abe146103bb5780633659cfe6146103db5780633751d89c146103fb5780633ca2ad6f1461041b57600080fd5b8063156b39aa11610203578063156b39aa146102e55780631db087ff1461030a578063248a9ca31461033857806326d00668146103685780632afaf2201461038857600080fd5b806301ffc9a714610235578063089b7c731461026a5780631499f9e61461028c578063154664ed146102c5575b600080fd5b34801561024157600080fd5b5061025561025036600461368b565b6107ec565b60405190151581526020015b60405180910390f35b34801561027657600080fd5b5061028a6102853660046136b5565b610823565b005b34801561029857600080fd5b50610130546102ad906001600160a01b031681565b6040516001600160a01b039091168152602001610261565b3480156102d157600080fd5b5061028a6102e0366004613719565b6109c6565b3480156102f157600080fd5b506102fc6101365481565b604051908152602001610261565b34801561031657600080fd5b506102fc610325366004613789565b6101336020526000908152604090205481565b34801561034457600080fd5b506102fc610353366004613789565b600090815260fc602052604090206001015490565b34801561037457600080fd5b5061028a6103833660046137b7565b610cde565b6102fc6103963660046137d4565b610d41565b3480156103a757600080fd5b5061028a6103b6366004613874565b610f6c565b3480156103c757600080fd5b5061028a6103d6366004613874565b610f96565b3480156103e757600080fd5b5061028a6103f63660046137b7565b611024565b34801561040757600080fd5b5061028a6104163660046137b7565b611103565b34801561042757600080fd5b5061028a610436366004613789565b61115c565b34801561044757600080fd5b5061028a6104563660046138a4565b6111a4565b61028a6104693660046138e8565b61131b565b34801561047a57600080fd5b506102fc6113e7565b34801561048f57600080fd5b5061025561049e3660046137b7565b6001600160a01b031660009081526065602052604090205460ff1690565b3480156104c857600080fd5b506102fc7f2fdac322ee704ce09f0773f7f3f92eb98d5e7c836ee9c056cccd5f61041e5e3f81565b3480156104fc57600080fd5b5061028a61149a565b34801561051157600080fd5b506105406105203660046137b7565b610135602052600090815260409020805460019091015460ff9091169082565b604080519215158352602083019190915201610261565b34801561056357600080fd5b5061028a6105723660046139ba565b6114ae565b34801561058357600080fd5b506033546001600160a01b03166102ad565b3480156105a157600080fd5b506102556105b0366004613874565b611583565b3480156105c157600080fd5b506102fc600081565b61028a6105d83660046139fb565b6115ae565b3480156105e957600080fd5b5061028a6105f8366004613aa8565b6118c8565b34801561060957600080fd5b5061061d6106183660046136b5565b61194a565b6040516102619190613bc6565b34801561063657600080fd5b5061028a6106453660046136b5565b611a87565b34801561065657600080fd5b5061066a610665366004613789565b611b2c565b604051610261989796959493929190613be9565b34801561068a57600080fd5b5061069e6106993660046136b5565b611c09565b604051610261989796959493929190613c47565b3480156106be57600080fd5b506102fc6106cd366004613789565b6101346020526000908152604090205481565b3480156106ec57600080fd5b506107006106fb3660046136b5565b611cf0565b604051610261929190613d18565b34801561071a57600080fd5b5061028a610729366004613874565b611f66565b34801561073a57600080fd5b5061074e610749366004613789565b611f8b565b6040516102619190613d3d565b34801561076757600080fd5b5061028a6107763660046137b7565b61210b565b34801561078757600080fd5b506102fc61012e5481565b34801561079e57600080fd5b506102556107ad3660046137b7565b6001600160a01b03166000908152610135602052604090205460ff1690565b3480156107d857600080fd5b5061028a6107e7366004613d50565b612181565b60006001600160e01b03198216637965db0b60e01b148061081d57506301ffc9a760e01b6001600160e01b03198316145b92915050565b61012f5482906001600160a01b0316632fa117e5826108406123a9565b6040516001600160e01b031960e085901b16815260048101929092526001600160a01b03166024820152604401602060405180830381865afa15801561088a573d6000803e3d6000fd5b505050506040513d601f19601f820116820180604052508101906108ae9190613db1565b6108d35760405162461bcd60e51b81526004016108ca90613dce565b60405180910390fd5b600082815261013160205260409020600181015484146109255760405162461bcd60e51b815260206004820152600d60248201526c3737ba103a34329037bbb732b960991b60448201526064016108ca565b6000815460ff16600481111561093d5761093d613ad4565b146109825760405162461bcd60e51b81526020600482015260156024820152741cdd185d1d5cc81b5d5cdd081899481bdc195b9959605a1b60448201526064016108ca565b805460ff191660031781556040518381527f853aa4be1ac86f37acfc91d42b57f1fe895205aa6f8f9b7caa77ca257049ab1a9060200160405180910390a150505050565b61012f5487906001600160a01b0316632fa117e5826109e36123a9565b6040516001600160e01b031960e085901b16815260048101929092526001600160a01b03166024820152604401602060405180830381865afa158015610a2d573d6000803e3d6000fd5b505050506040513d601f19601f82011682018060405250810190610a519190613db1565b610a6d5760405162461bcd60e51b81526004016108ca90613dce565b60008781526101316020908152604080832061013283528184208c855290925282209091825460ff166004811115610aa757610aa7613ad4565b14610ae95760405162461bcd60e51b815260206004820152601260248201527114d95c9d9a58d9481b9bdd081bdc195b995960721b60448201526064016108ca565b89816001015414610b2c5760405162461bcd60e51b815260206004820152600d60248201526c2737ba103a34329037bbb732b960991b60448201526064016108ca565b602e8614610b4c5760405162461bcd60e51b81526004016108ca90613dfd565b6001815460ff166001811115610b6457610b64613ad4565b03610ba55760405162461bcd60e51b8152602060048201526011602482015270105b1c9958591e481d985b1a59185d1959607a1b60448201526064016108ca565b60068201546001600160a01b031660009081526101356020526040902060010154881015610c065760405162461bcd60e51b815260206004820152600e60248201526d416d6f756e7420746f6f206c6f7760901b60448201526064016108ca565b8315610c695761012f5460405162f577a560e81b8152600481018690526001600160a01b039091169063f577a5009060240160006040518083038186803b158015610c5057600080fd5b505afa158015610c64573d6000803e3d6000fd5b505050505b6003810188905560058101610c7f878983613ea2565b5060068101859055600781018490556040517f7efe706d9877ce9dba73191d78ce5e6af0a304df9e466ae44b189093927e6f2e90610cca908b908d908b908b908e908c908c90613f8c565b60405180910390a150505050505050505050565b610ce66123b8565b6001600160a01b038116600081815260656020908152604091829020805460ff1916600117905590519182527f3ef8564460ada92419608d823c014975d98f8104d7d1e68c222967ac6814cd9791015b60405180910390a150565b61012f5460009089906001600160a01b0316632fa117e582610d616123a9565b6040516001600160e01b031960e085901b16815260048101929092526001600160a01b03166024820152604401602060405180830381865afa158015610dab573d6000803e3d6000fd5b505050506040513d601f19601f82011682018060405250810190610dcf9190613db1565b610deb5760405162461bcd60e51b81526004016108ca90613dce565b610dfa8a8a8a8a8a8a8a612431565b61012e80549081906000610e0d83613fe1565b9091555050600081815261013160205260409020805460ff19168155600181018c905560038101610e3f8a8c83613ea2565b50600581018b90556006810180546001600160a01b0319166001600160a01b0388161790556007810185905560008c81526101336020526040902054158015610e95575060008c81526101346020526040902054155b15610efa5761012f546040516383ce205b60e01b8152600481018e90526001600160a01b03909116906383ce205b90602401600060405180830381600087803b158015610ee157600080fd5b505af1158015610ef5573d6000803e3d6000fd5b505050505b60008c815261013360205260408120805491610f1583613fe1565b91905055507fd81631c5278947e7578ace67882f6a38af2d7e2fb4530b4b659c8e1cf1fe4472828d8d8d8d8b8b604051610f559796959493929190613ffa565b60405180910390a1509a9950505050505050505050565b600082815260fc6020526040902060010154610f878161263a565b610f91838361264b565b505050565b610f9e6123a9565b6001600160a01b0316816001600160a01b0316146110165760405162461bcd60e51b815260206004820152602f60248201527f416363657373436f6e74726f6c3a2063616e206f6e6c792072656e6f756e636560448201526e103937b632b9903337b91039b2b63360891b60648201526084016108ca565b61102082826126d2565b5050565b6001600160a01b037f000000000000000000000000000000000000000000000000000000000000000016300361106c5760405162461bcd60e51b81526004016108ca9061403f565b7f00000000000000000000000000000000000000000000000000000000000000006001600160a01b03166110b560008051602061443b833981519152546001600160a01b031690565b6001600160a01b0316146110db5760405162461bcd60e51b81526004016108ca9061408b565b6110e481612757565b604080516000808252602082019092526111009183919061275f565b50565b61110b6123b8565b6001600160a01b038116600081815260656020908152604091829020805460ff1916905590519182527fd2d636efcad0cea42e170256f4c5d8b1cd81e47b855557edaf44014e6cc4cee69101610d36565b60006111678161263a565b6101368290556040518281527f577d7afcf67637a2f602cba220bbb292c1d715380dd011bfec748c3f641b2fd29060200160405180910390a15050565b600054610100900460ff16158080156111c45750600054600160ff909116105b806111de5750303b1580156111de575060005460ff166001145b6112415760405162461bcd60e51b815260206004820152602e60248201527f496e697469616c697a61626c653a20636f6e747261637420697320616c72656160448201526d191e481a5b9a5d1a585b1a5e995960921b60648201526084016108ca565b6000805460ff191660011790558015611264576000805461ff0019166101001790555b61126c6128ca565b6112746128f9565b61127c6128f9565b61128e60006112896123a9565b612920565b61012f80546001600160a01b038086166001600160a01b031992831617909255610130805492851692909116919091179055600161012e556112d0601e61115c565b8015610f91576000805461ff0019169055604051600181527f7f26b83ff96e1f2b6a682f133852f6798a09c465da95921460cefb3847402498906020015b60405180910390a1505050565b6001600160a01b037f00000000000000000000000000000000000000000000000000000000000000001630036113635760405162461bcd60e51b81526004016108ca9061403f565b7f00000000000000000000000000000000000000000000000000000000000000006001600160a01b03166113ac60008051602061443b833981519152546001600160a01b031690565b6001600160a01b0316146113d25760405162461bcd60e51b81526004016108ca9061408b565b6113db82612757565b6110208282600161275f565b6000306001600160a01b037f000000000000000000000000000000000000000000000000000000000000000016146114875760405162461bcd60e51b815260206004820152603860248201527f555550535570677261646561626c653a206d757374206e6f742062652063616c60448201527f6c6564207468726f7567682064656c656761746563616c6c000000000000000060648201526084016108ca565b5060008051602061443b83398151915290565b6114a26123b8565b6114ac600061292a565b565b6114b66123b8565b6001600160a01b0383161580156114cb575081155b156115185760405162461bcd60e51b815260206004820152601d60248201527f4f776e65722063616e27742072656d6f7665204f78206164647265737300000060448201526064016108ca565b6001600160a01b03831660008181526101356020908152604091829020805460ff19168615159081178255600190910185905582519384529083015281018290527f42b585a1da1cff4b571e7a78aea1b4601b1d128de41a0feebd8a77aaf48b9d889060600161130e565b600091825260fc602090815260408084206001600160a01b0393909316845291905290205460ff1690565b61012f548a906001600160a01b0316632fa117e5826115cb6123a9565b6040516001600160e01b031960e085901b16815260048101929092526001600160a01b03166024820152604401602060405180830381865afa158015611615573d6000803e3d6000fd5b505050506040513d601f19601f820116820180604052508101906116399190613db1565b6116555760405162461bcd60e51b81526004016108ca90613dce565b60008a8152610131602052604090206116758c8c8c8c8c8c8b8b8b61297c565b60408051610100810182526000815260208082018f905260068401546001600160a01b031682840152606082018d9052608082018c90528251601f8b01829004820281018201909352898352909160a08301918b908b9081908401838280828437600081840152601f19601f8201169050808301925050505050505081526020018781526020018481525061013260008d815260200190815260200160002060008e815260200190815260200160002060008201518160000160006101000a81548160ff0219169083600181111561174f5761174f613ad4565b02179055506020820151600182015560408201516002820180546001600160a01b0319166001600160a01b03909216919091179055606082015160038201556080820151600482015560a082015160058201906117ac90826140d7565b5060c0820151600682015560e09091015160079091015560008c815261013360205260409020541580156117ed575060008c81526101346020526040902054155b156118525761012f546040516383ce205b60e01b8152600481018e90526001600160a01b03909116906383ce205b90602401600060405180830381600087803b15801561183957600080fd5b505af115801561184d573d6000803e3d6000fd5b505050505b60008c81526101346020526040812080549161186d83613fe1565b91905055507f3320ad7c42c1969a026af1422e1000a474b0fa0a68f4e0984a8da61ce8305ca28b8d8a8a60008f8f8d8b6040516118b299989796959493929190614197565b60405180910390a1505050505050505050505050565b7f2fdac322ee704ce09f0773f7f3f92eb98d5e7c836ee9c056cccd5f61041e5e3f6118f28161263a565b60008481526101316020908152604080832061013283528184208785529092529091208154600160ff1991821681178455808301546002850155600484018690558254909183911682805b0217905550505050505050565b6119526135ed565b60008381526101326020908152604080832085845290915290819020815161010081019092528054829060ff16600181111561199057611990613ad4565b60018111156119a1576119a1613ad4565b81526001820154602082015260028201546001600160a01b03166040820152600382015460608201526004820154608082015260058201805460a0909201916119e990613e22565b80601f0160208091040260200160405190810160405280929190818152602001828054611a1590613e22565b8015611a625780601f10611a3757610100808354040283529160200191611a62565b820191906000526020600020905b815481529060010190602001808311611a4557829003601f168201915b5050505050815260200160068201548152602001600782015481525050905092915050565b7f2fdac322ee704ce09f0773f7f3f92eb98d5e7c836ee9c056cccd5f61041e5e3f611ab18161263a565b6000838152610131602090815260408083206101328352818420600282015485529092528220600381015491929091611aeb8660646141ee565b611af59190614205565b9050610136548110611b1157825460ff19166002178355611b24565b8254600490849060ff191660018361193d565b505050505050565b61013160205260009081526040902080546001820154600283015460038401805460ff909416949293919291611b6190613e22565b80601f0160208091040260200160405190810160405280929190818152602001828054611b8d90613e22565b8015611bda5780601f10611baf57610100808354040283529160200191611bda565b820191906000526020600020905b815481529060010190602001808311611bbd57829003601f168201915b505050600484015460058501546006860154600790960154949591949093506001600160a01b03909116915088565b61013260209081526000928352604080842090915290825290208054600182015460028301546003840154600485015460058601805460ff9096169694956001600160a01b03909416949293919291611c6190613e22565b80601f0160208091040260200160405190810160405280929190818152602001828054611c8d90613e22565b8015611cda5780601f10611caf57610100808354040283529160200191611cda565b820191906000526020600020905b815481529060010190602001808311611cbd57829003601f168201915b5050505050908060060154908060070154905088565b611cf861363c565b611d006135ed565b60008481526101316020526040808220815161010081019092528054829060ff166004811115611d3257611d32613ad4565b6004811115611d4357611d43613ad4565b81526020016001820154815260200160028201548152602001600382018054611d6b90613e22565b80601f0160208091040260200160405190810160405280929190818152602001828054611d9790613e22565b8015611de45780601f10611db957610100808354040283529160200191611de4565b820191906000526020600020905b815481529060010190602001808311611dc757829003601f168201915b50505091835250506004820154602080830191909152600583015460408084019190915260068401546001600160a01b03166060840152600790930154608090920191909152600088815261013282528281208882529091528181208251610100810190935280549394509092829060ff166001811115611e6757611e67613ad4565b6001811115611e7857611e78613ad4565b81526001820154602082015260028201546001600160a01b03166040820152600382015460608201526004820154608082015260058201805460a090920191611ec090613e22565b80601f0160208091040260200160405190810160405280929190818152602001828054611eec90613e22565b8015611f395780601f10611f0e57610100808354040283529160200191611f39565b820191906000526020600020905b815481529060010190602001808311611f1c57829003601f168201915b505050918352505060068201546020820152600790910154604090910152919350909150505b9250929050565b600082815260fc6020526040902060010154611f818161263a565b610f9183836126d2565b611f9361363c565b61012e548210611fe55760405162461bcd60e51b815260206004820152601a60248201527f54686973207365727669636520646f65736e277420657869737400000000000060448201526064016108ca565b6000828152610131602052604090819020815161010081019092528054829060ff16600481111561201857612018613ad4565b600481111561202957612029613ad4565b8152602001600182015481526020016002820154815260200160038201805461205190613e22565b80601f016020809104026020016040519081016040528092919081815260200182805461207d90613e22565b80156120ca5780601f1061209f576101008083540402835291602001916120ca565b820191906000526020600020905b8154815290600101906020018083116120ad57829003601f168201915b5050509183525050600482015460208201526005820154604082015260068201546001600160a01b0316606082015260079091015460809091015292915050565b6121136123b8565b6001600160a01b0381166121785760405162461bcd60e51b815260206004820152602660248201527f4f776e61626c653a206e6577206f776e657220697320746865207a65726f206160448201526564647265737360d01b60648201526084016108ca565b6111008161292a565b61012f5485906001600160a01b0316632fa117e58261219e6123a9565b6040516001600160e01b031960e085901b16815260048101929092526001600160a01b03166024820152604401602060405180830381865afa1580156121e8573d6000803e3d6000fd5b505050506040513d601f19601f8201168201806040525081019061220c9190613db1565b6122285760405162461bcd60e51b81526004016108ca90613dce565b6000858152610131602052604090206001810154871461227a5760405162461bcd60e51b815260206004820152600d60248201526c2737ba103a34329037bbb732b960991b60448201526064016108ca565b6000815460ff16600481111561229257612292613ad4565b146122d75760405162461bcd60e51b81526020600482015260156024820152741cdd185d1d5cc81b5d5cdd081899481bdc195b9959605a1b60448201526064016108ca565b602e83146122f75760405162461bcd60e51b81526004016108ca90613dfd565b806007015485101561234b5760405162461bcd60e51b815260206004820152601c60248201527f43616e27742072656475636520726566657272616c20616d6f756e740000000060448201526064016108ca565b6003810161235a848683613ea2565b50600781018590556040517fae55ce3c351e2400a1a143e7ed66668e581e1656ad1797a317e415d03588091690612398908890879087908a90614227565b60405180910390a150505050505050565b60006123b3612dc9565b905090565b6123c06123a9565b6001600160a01b03166123db6033546001600160a01b031690565b6001600160a01b0316146114ac5760405162461bcd60e51b815260206004820181905260248201527f4f776e61626c653a2063616c6c6572206973206e6f7420746865206f776e657260448201526064016108ca565b61013054604051638a98636360e01b8152600481018890526000916001600160a01b031690638a98636390602401602060405180830381865afa15801561247c573d6000803e3d6000fd5b505050506040513d601f19601f820116820180604052508101906124a09190614252565b90508034146124e65760405162461bcd60e51b81526020600482015260126024820152714e6f6e2d6d61746368696e672066756e647360701b60448201526064016108ca565b602e85146125065760405162461bcd60e51b81526004016108ca90613dfd565b6001600160a01b0382166000908152610135602052604090205460ff166125635760405162461bcd60e51b8152602060048201526011602482015270151bdad95b881b9bdd08185b1b1bddd959607a1b60448201526064016108ca565b61013054604051631fff7f2760e11b8152600481018990526000916001600160a01b031690633ffefe4e90602401602060405180830381865afa1580156125ae573d6000803e3d6000fd5b505050506040513d601f19601f820116820180604052508101906125d2919061426b565b90506001600160a01b0381161561262f57600089815261013360209081526040808320549051612609928d92918c918c9101614288565b60405160208183030381529060405280519060200120905061262d86868385612e02565b505b505050505050505050565b611100816126466123a9565b612ef6565b6126558282611583565b61102057600082815260fc602090815260408083206001600160a01b03851684529091529020805460ff1916600117905561268e6123a9565b6001600160a01b0316816001600160a01b0316837f2f8788117e7eff1d82e926ec794901d17c78024a50270940304540a733656f0d60405160405180910390a45050565b6126dc8282611583565b1561102057600082815260fc602090815260408083206001600160a01b03851684529091529020805460ff191690556127136123a9565b6001600160a01b0316816001600160a01b0316837ff6391f5c32d9c69d2a47ea670b442974b53935d1edc7fd64eb21e047a839171b60405160405180910390a45050565b6111006123b8565b7f4910fdfa16fed3260ed0e7147f7cc6da11a60208b5b9406d12a635614ffd91435460ff161561279257610f9183612f4f565b826001600160a01b03166352d1902d6040518163ffffffff1660e01b8152600401602060405180830381865afa9250505080156127ec575060408051601f3d908101601f191682019092526127e991810190614252565b60015b61284f5760405162461bcd60e51b815260206004820152602e60248201527f45524331393637557067726164653a206e657720696d706c656d656e7461746960448201526d6f6e206973206e6f74205555505360901b60648201526084016108ca565b60008051602061443b83398151915281146128be5760405162461bcd60e51b815260206004820152602960248201527f45524331393637557067726164653a20756e737570706f727465642070726f786044820152681a58589b195555525160ba1b60648201526084016108ca565b50610f91838383612feb565b600054610100900460ff166128f15760405162461bcd60e51b81526004016108ca906142c9565b6114ac613016565b600054610100900460ff166114ac5760405162461bcd60e51b81526004016108ca906142c9565b611020828261264b565b603380546001600160a01b038381166001600160a01b0319831681179093556040519116919082907f8be0079c531659141344cd1fd0a4f28419497f9722a3daafe3b4186f6b6457e090600090a35050565b61013054604051634a7ab1d560e01b8152600481018890526000916001600160a01b031690634a7ab1d590602401602060405180830381865afa1580156129c7573d6000803e3d6000fd5b505050506040513d601f19601f820116820180604052508101906129eb9190614252565b9050803414612a315760405162461bcd60e51b81526020600482015260126024820152714e6f6e2d6d61746368696e672066756e647360701b60448201526064016108ca565b60008981526101316020908152604080832060068101546001600160a01b03168452610135909252909120600101546007820154612a6f908b614314565b1015612aae5760405162461bcd60e51b815260206004820152600e60248201526d416d6f756e7420746f6f206c6f7760901b60448201526064016108ca565b6000815460ff166004811115612ac657612ac6613ad4565b14612b085760405162461bcd60e51b815260206004820152601260248201527114d95c9d9a58d9481b9bdd081bdc195b995960721b60448201526064016108ca565b8060010154600003612b505760405162461bcd60e51b815260206004820152601160248201527014d95c9d9a58d9481b9bdd08195e1a5cdd607a1b60448201526064016108ca565b60008a8152610132602090815260408083208e84529091529020600101548b9003612bb65760405162461bcd60e51b81526020600482015260166024820152751c1c9bdc1bdcd85b08185b1c9958591e48195e1a5cdd60521b60448201526064016108ca565b8215612c1c576000816007015411612c1c5760405162461bcd60e51b8152602060048201526024808201527f43616e277420726566657220736f6d656f6e6520666f722074686973207365726044820152637669636560e01b60648201526084016108ca565b8a816001015403612c795760405162461bcd60e51b815260206004820152602160248201527f63616e27742063726561746520666f7220796f7572206f776e207365727669636044820152606560f81b60648201526084016108ca565b602e8614612c995760405162461bcd60e51b81526004016108ca90613dfd565b61013054604051631fff7f2760e11b8152600481018a90526000916001600160a01b031690633ffefe4e90602401602060405180830381865afa158015612ce4573d6000803e3d6000fd5b505050506040513d601f19601f82011682018060405250810190612d08919061426b565b90506001600160a01b03811615612d585760008c8c8a8a604051602001612d329493929190614327565b604051602081830303815290604052805190602001209050612d5687878385612e02565b505b8315612dbb5761012f5460405162f577a560e81b8152600481018690526001600160a01b039091169063f577a5009060240160006040518083038186803b158015612da257600080fd5b505afa158015612db6573d6000803e3d6000fd5b505050505b505050505050505050505050565b600060143610801590612deb57503360009081526065602052604090205460ff165b15612dfd575060131936013560601c90565b503390565b6000612e5b836040517f19457468657265756d205369676e6564204d6573736167653a0a3332000000006020820152603c8101829052600090605c01604051602081830303815290604052805190602001209050919050565b90506000612e9f8287878080601f01602080910402602001604051908101604052809392919081815260200183838082843760009201919091525061304d92505050565b9050806001600160a01b0316836001600160a01b031614611b245760405162461bcd60e51b8152602060048201526011602482015270696e76616c6964207369676e617475726560781b60448201526064016108ca565b612f008282611583565b61102057612f0d81613071565b612f18836020613083565b604051602001612f29929190614369565b60408051601f198184030181529082905262461bcd60e51b82526108ca916004016143de565b6001600160a01b0381163b612fbc5760405162461bcd60e51b815260206004820152602d60248201527f455243313936373a206e657720696d706c656d656e746174696f6e206973206e60448201526c1bdd08184818dbdb9d1c9858dd609a1b60648201526084016108ca565b60008051602061443b83398151915280546001600160a01b0319166001600160a01b0392909216919091179055565b612ff483613226565b6000825111806130015750805b15610f91576130108383613266565b50505050565b600054610100900460ff1661303d5760405162461bcd60e51b81526004016108ca906142c9565b6114ac6130486123a9565b61292a565b600080600061305c858561335a565b915091506130698161339c565b509392505050565b606061081d6001600160a01b03831660145b606060006130928360026141ee565b61309d906002614314565b67ffffffffffffffff8111156130b5576130b56138d2565b6040519080825280601f01601f1916602001820160405280156130df576020820181803683370190505b509050600360fc1b816000815181106130fa576130fa6143f1565b60200101906001600160f81b031916908160001a905350600f60fb1b81600181518110613129576131296143f1565b60200101906001600160f81b031916908160001a905350600061314d8460026141ee565b613158906001614314565b90505b60018111156131d0576f181899199a1a9b1b9c1cb0b131b232b360811b85600f166010811061318c5761318c6143f1565b1a60f81b8282815181106131a2576131a26143f1565b60200101906001600160f81b031916908160001a90535060049490941c936131c981614407565b905061315b565b50831561321f5760405162461bcd60e51b815260206004820181905260248201527f537472696e67733a20686578206c656e67746820696e73756666696369656e7460448201526064016108ca565b9392505050565b61322f81612f4f565b6040516001600160a01b038216907fbc7cd75a20ee27fd9adebab32041f755214dbc6bffa90cc0225b39da2e5c2d3b90600090a250565b60606001600160a01b0383163b6132ce5760405162461bcd60e51b815260206004820152602660248201527f416464726573733a2064656c65676174652063616c6c20746f206e6f6e2d636f6044820152651b9d1c9858dd60d21b60648201526084016108ca565b600080846001600160a01b0316846040516132e9919061441e565b600060405180830381855af49150503d8060008114613324576040519150601f19603f3d011682016040523d82523d6000602084013e613329565b606091505b5091509150613351828260405180606001604052806027815260200161445b602791396134e6565b95945050505050565b60008082516041036133905760208301516040840151606085015160001a613384878285856134ff565b94509450505050611f5f565b50600090506002611f5f565b60008160048111156133b0576133b0613ad4565b036133b85750565b60018160048111156133cc576133cc613ad4565b036134195760405162461bcd60e51b815260206004820152601860248201527f45434453413a20696e76616c6964207369676e6174757265000000000000000060448201526064016108ca565b600281600481111561342d5761342d613ad4565b0361347a5760405162461bcd60e51b815260206004820152601f60248201527f45434453413a20696e76616c6964207369676e6174757265206c656e6774680060448201526064016108ca565b600381600481111561348e5761348e613ad4565b036111005760405162461bcd60e51b815260206004820152602260248201527f45434453413a20696e76616c6964207369676e6174757265202773272076616c604482015261756560f01b60648201526084016108ca565b606083156134f557508161321f565b61321f83836135c3565b6000807f7fffffffffffffffffffffffffffffff5d576e7357a4501ddfe92f46681b20a083111561353657506000905060036135ba565b6040805160008082526020820180845289905260ff881692820192909252606081018690526080810185905260019060a0016020604051602081039080840390855afa15801561358a573d6000803e3d6000fd5b5050604051601f1901519150506001600160a01b0381166135b3576000600192509250506135ba565b9150600090505b94509492505050565b8151156135d35781518083602001fd5b8060405162461bcd60e51b81526004016108ca91906143de565b60408051610100810190915280600081526020016000815260200160006001600160a01b0316815260200160008152602001600081526020016060815260200160008152602001600081525090565b6040805161010081019091528060008152602001600081526020016000815260200160608152602001600081526020016000815260200160006001600160a01b03168152602001600081525090565b60006020828403121561369d57600080fd5b81356001600160e01b03198116811461321f57600080fd5b600080604083850312156136c857600080fd5b50508035926020909101359150565b60008083601f8401126136e957600080fd5b50813567ffffffffffffffff81111561370157600080fd5b602083019150836020828501011115611f5f57600080fd5b600080600080600080600060c0888a03121561373457600080fd5b873596506020880135955060408801359450606088013567ffffffffffffffff81111561376057600080fd5b61376c8a828b016136d7565b989b979a50959895979660808701359660a0013595509350505050565b60006020828403121561379b57600080fd5b5035919050565b6001600160a01b038116811461110057600080fd5b6000602082840312156137c957600080fd5b813561321f816137a2565b60008060008060008060008060c0898b0312156137f057600080fd5b8835975060208901359650604089013567ffffffffffffffff8082111561381657600080fd5b6138228c838d016136d7565b909850965060608b013591508082111561383b57600080fd5b506138488b828c016136d7565b909550935050608089013561385c816137a2565b8092505060a089013590509295985092959890939650565b6000806040838503121561388757600080fd5b823591506020830135613899816137a2565b809150509250929050565b600080604083850312156138b757600080fd5b82356138c2816137a2565b91506020830135613899816137a2565b634e487b7160e01b600052604160045260246000fd5b600080604083850312156138fb57600080fd5b8235613906816137a2565b9150602083013567ffffffffffffffff8082111561392357600080fd5b818501915085601f83011261393757600080fd5b813581811115613949576139496138d2565b604051601f8201601f19908116603f01168101908382118183101715613971576139716138d2565b8160405282815288602084870101111561398a57600080fd5b8260208601602083013760006020848301015280955050505050509250929050565b801515811461110057600080fd5b6000806000606084860312156139cf57600080fd5b83356139da816137a2565b925060208401356139ea816139ac565b929592945050506040919091013590565b6000806000806000806000806000806101008b8d031215613a1b57600080fd5b8a35995060208b0135985060408b0135975060608b0135965060808b013567ffffffffffffffff80821115613a4f57600080fd5b613a5b8e838f016136d7565b909850965060a08d0135955060c08d0135915080821115613a7b57600080fd5b50613a888d828e016136d7565b9150809450508092505060e08b013590509295989b9194979a5092959850565b600080600060608486031215613abd57600080fd5b505081359360208301359350604090920135919050565b634e487b7160e01b600052602160045260246000fd5b60028110613afa57613afa613ad4565b9052565b60005b83811015613b19578181015183820152602001613b01565b50506000910152565b60008151808452613b3a816020860160208601613afe565b601f01601f19169290920160200192915050565b6000610100613b5e848451613aea565b6020830151602085015260018060a01b036040840151166040850152606083015160608501526080830151608085015260a08301518160a0860152613ba582860182613b22565b91505060c083015160c085015260e083015160e08501528091505092915050565b60208152600061321f6020830184613b4e565b60058110613afa57613afa613ad4565b6000610100613bf8838c613bd9565b896020840152886040840152806060840152613c1681840189613b22565b6080840197909752505060a08101939093526001600160a01b039190911660c083015260e090910152949350505050565b6000610100613c56838c613aea565b89602084015260018060a01b03891660408401528760608401528660808401528060a0840152613c8881840187613b22565b60c0840195909552505060e001529695505050505050565b6000610100613cb0848451613bd9565b60208301516020850152604083015160408501526060830151816060860152613cdb82860182613b22565b6080858101519087015260a0808601519087015260c0808601516001600160a01b03169087015260e0948501519490950193909352509192915050565b604081526000613d2b6040830185613ca0565b82810360208401526133518185613b4e565b60208152600061321f6020830184613ca0565b600080600080600060808688031215613d6857600080fd5b853594506020860135935060408601359250606086013567ffffffffffffffff811115613d9457600080fd5b613da0888289016136d7565b969995985093965092949392505050565b600060208284031215613dc357600080fd5b815161321f816139ac565b6020808252601590820152744e6f74206f776e6572206f722064656c656761746560581b604082015260600190565b6020808252600b908201526a125b9d985b1a590818da5960aa1b604082015260600190565b600181811c90821680613e3657607f821691505b602082108103613e5657634e487b7160e01b600052602260045260246000fd5b50919050565b601f821115610f9157600081815260208120601f850160051c81016020861015613e835750805b601f850160051c820191505b81811015611b2457828155600101613e8f565b67ffffffffffffffff831115613eba57613eba6138d2565b613ece83613ec88354613e22565b83613e5c565b6000601f841160018114613f025760008515613eea5750838201355b600019600387901b1c1916600186901b178355613f5c565b600083815260209020601f19861690835b82811015613f335786850135825560209485019460019092019101613f13565b5086821015613f505760001960f88860031b161c19848701351681555b505060018560011b0183555b5050505050565b81835281816020850137506000828201602090810191909152601f909101601f19169091010190565b87815286602082015260c060408201526000613fac60c083018789613f63565b606083019590955250608081019290925260a090910152949350505050565b634e487b7160e01b600052601160045260246000fd5b600060018201613ff357613ff3613fcb565b5060010190565b87815286602082015285604082015260c06060820152600061402060c083018688613f63565b6001600160a01b039490941660808301525060a0015295945050505050565b6020808252602c908201527f46756e6374696f6e206d7573742062652063616c6c6564207468726f7567682060408201526b19195b1959d85d1958d85b1b60a21b606082015260800190565b6020808252602c908201527f46756e6374696f6e206d7573742062652063616c6c6564207468726f7567682060408201526b6163746976652070726f787960a01b606082015260800190565b815167ffffffffffffffff8111156140f1576140f16138d2565b614105816140ff8454613e22565b84613e5c565b602080601f83116001811461413a57600084156141225750858301515b600019600386901b1c1916600185901b178555611b24565b600085815260208120601f198616915b828110156141695788860151825594840194600190910190840161414a565b50858210156141875787850151600019600388901b60f8161c191681555b5050505050600190811b01905550565b60006101008b83528a60208401528060408401526141b88184018a8c613f63565b9150506141c86060830188613aea565b8560808301528460a08301528360c08301528260e08301529a9950505050505050505050565b808202811582820484141761081d5761081d613fcb565b60008261422257634e487b7160e01b600052601260045260246000fd5b500490565b848152606060208201526000614241606083018587613f63565b905082604083015295945050505050565b60006020828403121561426457600080fd5b5051919050565b60006020828403121561427d57600080fd5b815161321f816137a2565b6c6372656174655365727669636560981b815284600d820152603b60f81b602d82015283602e8201528183604e83013760009101604e019081529392505050565b6020808252602b908201527f496e697469616c697a61626c653a20636f6e7472616374206973206e6f74206960408201526a6e697469616c697a696e6760a81b606082015260800190565b8082018082111561081d5761081d613fcb565b6d18dc99585d19541c9bdc1bdcd85b60921b815284600e820152603b60f81b602e82015283602f8201528183604f83013760009101604f019081529392505050565b7f416363657373436f6e74726f6c3a206163636f756e74200000000000000000008152600083516143a1816017850160208801613afe565b7001034b99036b4b9b9b4b733903937b6329607d1b60179184019182015283516143d2816028840160208801613afe565b01602801949350505050565b60208152600061321f6020830184613b22565b634e487b7160e01b600052603260045260246000fd5b60008161441657614416613fcb565b506000190190565b60008251614430818460208701613afe565b919091019291505056fe360894a13ba1a3210667c828492db98dca3e2076cc3735a920a3ca505d382bbc416464726573733a206c6f772d6c6576656c2064656c65676174652063616c6c206661696c6564a2646970667358221220c7fe3aa9c9b5c6e46eb9d91d91a929200b7838b6b4cf4b7f492769c9a97033b564736f6c63430008110033",
  "linkReferences": {},
  "deployedLinkReferences": {}
}