{
  "_format": "hh-sol-artifact-1",
  "contractName": "TalentLayerEscrow",
  "sourceName": "contracts/TalentLayerEscrow.sol",
  "abi": [
    {
      "inputs": [],
      "stateMutability": "nonpayable",
      "type": "constructor"
    },
    {
      "anonymous": false,
      "inputs": [
        {
          "indexed": false,
          "internalType": "address",
          "name": "previousAdmin",
          "type": "address"
        },
        {
          "indexed": false,
          "internalType": "address",
          "name": "newAdmin",
          "type": "address"
        }
      ],
      "name": "AdminChanged",
      "type": "event"
    },
    {
      "anonymous": false,
      "inputs": [
        {
          "indexed": true,
          "internalType": "uint256",
          "name": "_transactionId",
          "type": "uint256"
        },
        {
          "indexed": false,
          "internalType": "enum TalentLayerEscrow.ArbitrationFeePaymentType",
          "name": "_paymentType",
          "type": "uint8"
        },
        {
          "indexed": false,
          "internalType": "enum TalentLayerEscrow.Party",
          "name": "_party",
          "type": "uint8"
        },
        {
          "indexed": false,
          "internalType": "uint256",
          "name": "_amount",
          "type": "uint256"
        }
      ],
      "name": "ArbitrationFeePayment",
      "type": "event"
    },
    {
      "anonymous": false,
      "inputs": [
        {
          "indexed": true,
          "internalType": "address",
          "name": "beacon",
          "type": "address"
        }
      ],
      "name": "BeaconUpgraded",
      "type": "event"
    },
    {
      "anonymous": false,
      "inputs": [
        {
          "indexed": true,
          "internalType": "contract Arbitrator",
          "name": "_arbitrator",
          "type": "address"
        },
        {
          "indexed": true,
          "internalType": "uint256",
          "name": "_disputeID",
          "type": "uint256"
        },
        {
          "indexed": false,
          "internalType": "uint256",
          "name": "_metaEvidenceID",
          "type": "uint256"
        },
        {
          "indexed": false,
          "internalType": "uint256",
          "name": "_evidenceGroupID",
          "type": "uint256"
        }
      ],
      "name": "Dispute",
      "type": "event"
    },
    {
      "anonymous": false,
      "inputs": [
        {
          "indexed": true,
          "internalType": "contract Arbitrator",
          "name": "_arbitrator",
          "type": "address"
        },
        {
          "indexed": true,
          "internalType": "uint256",
          "name": "_evidenceGroupID",
          "type": "uint256"
        },
        {
          "indexed": true,
          "internalType": "address",
          "name": "_party",
          "type": "address"
        },
        {
          "indexed": false,
          "internalType": "string",
          "name": "_evidence",
          "type": "string"
        }
      ],
      "name": "Evidence",
      "type": "event"
    },
    {
      "anonymous": false,
      "inputs": [
        {
          "indexed": true,
          "internalType": "uint256",
          "name": "_transactionId",
          "type": "uint256"
        },
        {
          "indexed": true,
          "internalType": "uint256",
          "name": "_partyId",
          "type": "uint256"
        },
        {
          "indexed": false,
          "internalType": "string",
          "name": "_evidenceUri",
          "type": "string"
        }
      ],
      "name": "EvidenceSubmitted",
      "type": "event"
    },
    {
      "anonymous": false,
      "inputs": [
        {
          "indexed": false,
          "internalType": "uint256",
          "name": "_platformId",
          "type": "uint256"
        },
        {
          "indexed": true,
          "internalType": "address",
          "name": "_token",
          "type": "address"
        },
        {
          "indexed": false,
          "internalType": "uint256",
          "name": "_amount",
          "type": "uint256"
        }
      ],
      "name": "FeesClaimed",
      "type": "event"
    },
    {
      "anonymous": false,
      "inputs": [
        {
          "indexed": true,
          "internalType": "uint256",
          "name": "_transactionId",
          "type": "uint256"
        },
        {
          "indexed": false,
          "internalType": "enum TalentLayerEscrow.Party",
          "name": "_party",
          "type": "uint8"
        }
      ],
      "name": "HasToPayFee",
      "type": "event"
    },
    {
      "anonymous": false,
      "inputs": [
        {
          "indexed": false,
          "internalType": "uint8",
          "name": "version",
          "type": "uint8"
        }
      ],
      "name": "Initialized",
      "type": "event"
    },
    {
      "anonymous": false,
      "inputs": [
        {
          "indexed": true,
          "internalType": "uint256",
          "name": "_metaEvidenceID",
          "type": "uint256"
        },
        {
          "indexed": false,
          "internalType": "string",
          "name": "_evidence",
          "type": "string"
        }
      ],
      "name": "MetaEvidence",
      "type": "event"
    },
    {
      "anonymous": false,
      "inputs": [
        {
          "indexed": false,
          "internalType": "uint256",
          "name": "_platformId",
          "type": "uint256"
        },
        {
          "indexed": false,
          "internalType": "uint256",
          "name": "_serviceId",
          "type": "uint256"
        },
        {
          "indexed": true,
          "internalType": "address",
          "name": "_token",
          "type": "address"
        },
        {
          "indexed": false,
          "internalType": "uint256",
          "name": "_amount",
          "type": "uint256"
        }
      ],
      "name": "OriginServiceFeeRateReleased",
      "type": "event"
    },
    {
      "anonymous": false,
      "inputs": [
        {
          "indexed": false,
          "internalType": "uint256",
          "name": "_platformId",
          "type": "uint256"
        },
        {
          "indexed": false,
          "internalType": "uint256",
          "name": "_serviceId",
          "type": "uint256"
        },
        {
          "indexed": true,
          "internalType": "address",
          "name": "_token",
          "type": "address"
        },
        {
          "indexed": false,
          "internalType": "uint256",
          "name": "_amount",
          "type": "uint256"
        }
      ],
      "name": "OriginValidatedProposalFeeRateReleased",
      "type": "event"
    },
    {
      "anonymous": false,
      "inputs": [
        {
          "indexed": true,
          "internalType": "address",
          "name": "previousOwner",
          "type": "address"
        },
        {
          "indexed": true,
          "internalType": "address",
          "name": "newOwner",
          "type": "address"
        }
      ],
      "name": "OwnershipTransferred",
      "type": "event"
    },
    {
      "anonymous": false,
      "inputs": [
        {
          "indexed": false,
          "internalType": "uint256",
          "name": "_transactionId",
          "type": "uint256"
        },
        {
          "indexed": false,
          "internalType": "enum TalentLayerEscrow.PaymentType",
          "name": "_paymentType",
          "type": "uint8"
        },
        {
          "indexed": false,
          "internalType": "uint256",
          "name": "_amount",
          "type": "uint256"
        },
        {
          "indexed": false,
          "internalType": "address",
          "name": "_token",
          "type": "address"
        },
        {
          "indexed": false,
          "internalType": "uint256",
          "name": "_serviceId",
          "type": "uint256"
        }
      ],
      "name": "Payment",
      "type": "event"
    },
    {
      "anonymous": false,
      "inputs": [
        {
          "indexed": false,
          "internalType": "uint256",
          "name": "_serviceId",
          "type": "uint256"
        }
      ],
      "name": "PaymentCompleted",
      "type": "event"
    },
    {
      "anonymous": false,
      "inputs": [
        {
          "indexed": false,
          "internalType": "uint16",
          "name": "_protocolEscrowFeeRate",
          "type": "uint16"
        }
      ],
      "name": "ProtocolEscrowFeeRateUpdated",
      "type": "event"
    },
    {
      "anonymous": false,
      "inputs": [
        {
          "indexed": true,
          "internalType": "contract Arbitrator",
          "name": "_arbitrator",
          "type": "address"
        },
        {
          "indexed": true,
          "internalType": "uint256",
          "name": "_disputeID",
          "type": "uint256"
        },
        {
          "indexed": false,
          "internalType": "uint256",
          "name": "_ruling",
          "type": "uint256"
        }
      ],
      "name": "Ruling",
      "type": "event"
    },
    {
      "anonymous": false,
      "inputs": [
        {
          "indexed": true,
          "internalType": "uint256",
          "name": "_transactionId",
          "type": "uint256"
        },
        {
          "indexed": false,
          "internalType": "uint256",
          "name": "_ruling",
          "type": "uint256"
        }
      ],
      "name": "RulingExecuted",
      "type": "event"
    },
    {
      "anonymous": false,
      "inputs": [
        {
          "indexed": false,
          "internalType": "uint256",
          "name": "serviceId",
          "type": "uint256"
        },
        {
          "indexed": false,
          "internalType": "uint256",
          "name": "proposalId",
          "type": "uint256"
        },
        {
          "indexed": false,
          "internalType": "uint256",
          "name": "transactionId",
          "type": "uint256"
        }
      ],
      "name": "ServiceProposalConfirmedWithDeposit",
      "type": "event"
    },
    {
      "anonymous": false,
      "inputs": [
        {
          "indexed": false,
          "internalType": "uint256",
          "name": "_transactionId",
          "type": "uint256"
        },
        {
          "indexed": false,
          "internalType": "uint256",
          "name": "_senderId",
          "type": "uint256"
        },
        {
          "indexed": false,
          "internalType": "uint256",
          "name": "_receiverId",
          "type": "uint256"
        },
        {
          "indexed": false,
          "internalType": "address",
          "name": "_token",
          "type": "address"
        },
        {
          "indexed": false,
          "internalType": "uint256",
          "name": "_amount",
          "type": "uint256"
        },
        {
          "indexed": false,
          "internalType": "uint256",
          "name": "_serviceId",
          "type": "uint256"
        },
        {
          "indexed": false,
          "internalType": "uint16",
          "name": "_protocolEscrowFeeRate",
          "type": "uint16"
        },
        {
          "indexed": false,
          "internalType": "uint16",
          "name": "_originServiceFeeRate",
          "type": "uint16"
        },
        {
          "indexed": false,
          "internalType": "uint16",
          "name": "_originValidatedProposalFeeRate",
          "type": "uint16"
        },
        {
          "indexed": false,
          "internalType": "contract Arbitrator",
          "name": "_arbitrator",
          "type": "address"
        },
        {
          "indexed": false,
          "internalType": "bytes",
          "name": "_arbitratorExtraData",
          "type": "bytes"
        },
        {
          "indexed": false,
          "internalType": "uint256",
          "name": "_arbitrationFeeTimeout",
          "type": "uint256"
        }
      ],
      "name": "TransactionCreated",
      "type": "event"
    },
    {
      "anonymous": false,
      "inputs": [
        {
          "indexed": false,
          "internalType": "address",
          "name": "forwarder",
          "type": "address"
        }
      ],
      "name": "TrustedForwarderAdded",
      "type": "event"
    },
    {
      "anonymous": false,
      "inputs": [
        {
          "indexed": false,
          "internalType": "address",
          "name": "forwarder",
          "type": "address"
        }
      ],
      "name": "TrustedForwarderRemoved",
      "type": "event"
    },
    {
      "anonymous": false,
      "inputs": [
        {
          "indexed": true,
          "internalType": "address",
          "name": "implementation",
          "type": "address"
        }
      ],
      "name": "Upgraded",
      "type": "event"
    },
    {
      "inputs": [
        {
          "internalType": "address",
          "name": "_forwarder",
          "type": "address"
        }
      ],
      "name": "addTrustedForwarder",
      "outputs": [],
      "stateMutability": "nonpayable",
      "type": "function"
    },
    {
      "inputs": [
        {
          "internalType": "uint256",
          "name": "_transactionId",
          "type": "uint256"
        }
      ],
      "name": "appeal",
      "outputs": [],
      "stateMutability": "payable",
      "type": "function"
    },
    {
      "inputs": [
        {
          "internalType": "uint256",
          "name": "_platformId",
          "type": "uint256"
        },
        {
          "internalType": "address",
          "name": "_tokenAddress",
          "type": "address"
        }
      ],
      "name": "claim",
      "outputs": [],
      "stateMutability": "nonpayable",
      "type": "function"
    },
    {
      "inputs": [
        {
          "internalType": "uint256",
          "name": "_platformId",
          "type": "uint256"
        }
      ],
      "name": "claimAll",
      "outputs": [],
      "stateMutability": "nonpayable",
      "type": "function"
    },
    {
      "inputs": [
        {
          "internalType": "string",
          "name": "_metaEvidence",
          "type": "string"
        },
        {
          "internalType": "uint256",
          "name": "_serviceId",
          "type": "uint256"
        },
        {
          "internalType": "uint256",
          "name": "_proposalId",
          "type": "uint256"
        },
        {
          "internalType": "string",
          "name": "originDataUri",
          "type": "string"
        }
      ],
      "name": "createETHTransaction",
      "outputs": [
        {
          "internalType": "uint256",
          "name": "",
          "type": "uint256"
        }
      ],
      "stateMutability": "payable",
      "type": "function"
    },
    {
      "inputs": [
        {
          "internalType": "string",
          "name": "_metaEvidence",
          "type": "string"
        },
        {
          "internalType": "uint256",
          "name": "_serviceId",
          "type": "uint256"
        },
        {
          "internalType": "uint256",
          "name": "_proposalId",
          "type": "uint256"
        },
        {
          "internalType": "string",
          "name": "originDataUri",
          "type": "string"
        }
      ],
      "name": "createTokenTransaction",
      "outputs": [
        {
          "internalType": "uint256",
          "name": "",
          "type": "uint256"
        }
      ],
      "stateMutability": "nonpayable",
      "type": "function"
    },
    {
      "inputs": [
        {
          "internalType": "uint256",
          "name": "",
          "type": "uint256"
        }
      ],
      "name": "disputeIDtoTransactionID",
      "outputs": [
        {
          "internalType": "uint256",
          "name": "",
          "type": "uint256"
        }
      ],
      "stateMutability": "view",
      "type": "function"
    },
    {
      "inputs": [
        {
          "internalType": "address",
          "name": "_token",
          "type": "address"
        }
      ],
      "name": "getClaimableFeeBalance",
      "outputs": [
        {
          "internalType": "uint256",
          "name": "balance",
          "type": "uint256"
        }
      ],
      "stateMutability": "view",
      "type": "function"
    },
    {
      "inputs": [],
      "name": "getProtocolWallet",
      "outputs": [
        {
          "internalType": "address",
          "name": "",
          "type": "address"
        }
      ],
      "stateMutability": "view",
      "type": "function"
    },
    {
      "inputs": [
        {
          "internalType": "uint256",
          "name": "_transactionId",
          "type": "uint256"
        }
      ],
      "name": "getTransactionDetails",
      "outputs": [
        {
          "components": [
            {
              "internalType": "uint256",
              "name": "id",
              "type": "uint256"
            },
            {
              "internalType": "address",
              "name": "sender",
              "type": "address"
            },
            {
              "internalType": "address",
              "name": "receiver",
              "type": "address"
            },
            {
              "internalType": "address",
              "name": "token",
              "type": "address"
            },
            {
              "internalType": "uint256",
              "name": "amount",
              "type": "uint256"
            },
            {
              "internalType": "uint256",
              "name": "serviceId",
              "type": "uint256"
            },
            {
              "internalType": "uint256",
              "name": "proposalId",
              "type": "uint256"
            },
            {
              "internalType": "uint16",
              "name": "protocolEscrowFeeRate",
              "type": "uint16"
            },
            {
              "internalType": "uint16",
              "name": "originServiceFeeRate",
              "type": "uint16"
            },
            {
              "internalType": "uint16",
              "name": "originValidatedProposalFeeRate",
              "type": "uint16"
            },
            {
              "internalType": "uint256",
              "name": "disputeId",
              "type": "uint256"
            },
            {
              "internalType": "uint256",
              "name": "senderFee",
              "type": "uint256"
            },
            {
              "internalType": "uint256",
              "name": "receiverFee",
              "type": "uint256"
            },
            {
              "internalType": "uint256",
              "name": "lastInteraction",
              "type": "uint256"
            },
            {
              "internalType": "enum TalentLayerEscrow.Status",
              "name": "status",
              "type": "uint8"
            },
            {
              "internalType": "contract Arbitrator",
              "name": "arbitrator",
              "type": "address"
            },
            {
              "internalType": "bytes",
              "name": "arbitratorExtraData",
              "type": "bytes"
            },
            {
              "internalType": "uint256",
              "name": "arbitrationFeeTimeout",
              "type": "uint256"
            }
          ],
          "internalType": "struct TalentLayerEscrow.Transaction",
          "name": "",
          "type": "tuple"
        }
      ],
      "stateMutability": "view",
      "type": "function"
    },
    {
      "inputs": [
        {
          "internalType": "address",
          "name": "_talentLayerServiceAddress",
          "type": "address"
        },
        {
          "internalType": "address",
          "name": "_talentLayerIDAddress",
          "type": "address"
        },
        {
          "internalType": "address",
          "name": "_talentLayerPlatformIDAddress",
          "type": "address"
        },
        {
          "internalType": "address",
          "name": "_protocolWallet",
          "type": "address"
        }
      ],
      "name": "initialize",
      "outputs": [],
      "stateMutability": "nonpayable",
      "type": "function"
    },
    {
      "inputs": [
        {
          "internalType": "address",
          "name": "forwarder",
          "type": "address"
        }
      ],
      "name": "isTrustedForwarder",
      "outputs": [
        {
          "internalType": "bool",
          "name": "",
          "type": "bool"
        }
      ],
      "stateMutability": "view",
      "type": "function"
    },
    {
      "inputs": [],
      "name": "owner",
      "outputs": [
        {
          "internalType": "address",
          "name": "",
          "type": "address"
        }
      ],
      "stateMutability": "view",
      "type": "function"
    },
    {
      "inputs": [
        {
          "internalType": "uint256",
          "name": "_transactionId",
          "type": "uint256"
        }
      ],
      "name": "payArbitrationFeeByReceiver",
      "outputs": [],
      "stateMutability": "payable",
      "type": "function"
    },
    {
      "inputs": [
        {
          "internalType": "uint256",
          "name": "_transactionId",
          "type": "uint256"
        }
      ],
      "name": "payArbitrationFeeBySender",
      "outputs": [],
      "stateMutability": "payable",
      "type": "function"
    },
    {
      "inputs": [],
      "name": "protocolEscrowFeeRate",
      "outputs": [
        {
          "internalType": "uint16",
          "name": "",
          "type": "uint16"
        }
      ],
      "stateMutability": "view",
      "type": "function"
    },
    {
      "inputs": [],
      "name": "proxiableUUID",
      "outputs": [
        {
          "internalType": "bytes32",
          "name": "",
          "type": "bytes32"
        }
      ],
      "stateMutability": "view",
      "type": "function"
    },
    {
      "inputs": [
        {
          "internalType": "uint256",
          "name": "_profileId",
          "type": "uint256"
        },
        {
          "internalType": "uint256",
          "name": "_transactionId",
          "type": "uint256"
        },
        {
          "internalType": "uint256",
          "name": "_amount",
          "type": "uint256"
        }
      ],
      "name": "reimburse",
      "outputs": [],
      "stateMutability": "nonpayable",
      "type": "function"
    },
    {
      "inputs": [
        {
          "internalType": "uint256",
          "name": "_profileId",
          "type": "uint256"
        },
        {
          "internalType": "uint256",
          "name": "_transactionId",
          "type": "uint256"
        },
        {
          "internalType": "uint256",
          "name": "_amount",
          "type": "uint256"
        }
      ],
      "name": "release",
      "outputs": [],
      "stateMutability": "nonpayable",
      "type": "function"
    },
    {
      "inputs": [
        {
          "internalType": "address",
          "name": "_forwarder",
          "type": "address"
        }
      ],
      "name": "removeTrustedForwarder",
      "outputs": [],
      "stateMutability": "nonpayable",
      "type": "function"
    },
    {
      "inputs": [],
      "name": "renounceOwnership",
      "outputs": [],
      "stateMutability": "nonpayable",
      "type": "function"
    },
    {
      "inputs": [
        {
          "internalType": "uint256",
          "name": "_disputeID",
          "type": "uint256"
        },
        {
          "internalType": "uint256",
          "name": "_ruling",
          "type": "uint256"
        }
      ],
      "name": "rule",
      "outputs": [],
      "stateMutability": "nonpayable",
      "type": "function"
    },
    {
      "inputs": [
        {
          "internalType": "uint256",
          "name": "_profileId",
          "type": "uint256"
        },
        {
          "internalType": "uint256",
          "name": "_transactionId",
          "type": "uint256"
        },
        {
          "internalType": "string",
          "name": "_evidence",
          "type": "string"
        }
      ],
      "name": "submitEvidence",
      "outputs": [],
      "stateMutability": "nonpayable",
      "type": "function"
    },
    {
      "inputs": [
        {
          "internalType": "uint256",
          "name": "_transactionId",
          "type": "uint256"
        }
      ],
      "name": "timeOutByReceiver",
      "outputs": [],
      "stateMutability": "nonpayable",
      "type": "function"
    },
    {
      "inputs": [
        {
          "internalType": "uint256",
          "name": "_transactionId",
          "type": "uint256"
        }
      ],
      "name": "timeOutBySender",
      "outputs": [],
      "stateMutability": "nonpayable",
      "type": "function"
    },
    {
      "inputs": [
        {
          "internalType": "address",
          "name": "newOwner",
          "type": "address"
        }
      ],
      "name": "transferOwnership",
      "outputs": [],
      "stateMutability": "nonpayable",
      "type": "function"
    },
    {
      "inputs": [
        {
          "internalType": "uint16",
          "name": "_protocolEscrowFeeRate",
          "type": "uint16"
        }
      ],
      "name": "updateProtocolEscrowFeeRate",
      "outputs": [],
      "stateMutability": "nonpayable",
      "type": "function"
    },
    {
      "inputs": [
        {
          "internalType": "address payable",
          "name": "_protocolWallet",
          "type": "address"
        }
      ],
      "name": "updateProtocolWallet",
      "outputs": [],
      "stateMutability": "nonpayable",
      "type": "function"
    },
    {
      "inputs": [
        {
          "internalType": "address",
          "name": "newImplementation",
          "type": "address"
        }
      ],
      "name": "upgradeTo",
      "outputs": [],
      "stateMutability": "nonpayable",
      "type": "function"
    },
    {
      "inputs": [
        {
          "internalType": "address",
          "name": "newImplementation",
          "type": "address"
        },
        {
          "internalType": "bytes",
          "name": "data",
          "type": "bytes"
        }
      ],
      "name": "upgradeToAndCall",
      "outputs": [],
      "stateMutability": "payable",
      "type": "function"
    }
  ],
  "bytecode": "0x60a0604052306080523480156200001557600080fd5b506200002062000026565b620000e8565b600054610100900460ff1615620000935760405162461bcd60e51b815260206004820152602760248201527f496e697469616c697a61626c653a20636f6e747261637420697320696e697469604482015266616c697a696e6760c81b606482015260840160405180910390fd5b60005460ff9081161015620000e6576000805460ff191660ff9081179091556040519081527f7f26b83ff96e1f2b6a682f133852f6798a09c465da95921460cefb38474024989060200160405180910390a15b565b608051615dc06200012060003960008181610be601528181610c26015281816117260152818161176601526117f50152615dc06000f3fe6080604052600436106101cd5760003560e01c8063649d9ffa116100f75780638da5cb5b11610095578063eb63612d11610064578063eb63612d14610531578063f2fde38b14610551578063f42cadc114610571578063f8c8765e1461059157600080fd5b80638da5cb5b146104b35780639dcc5daf146104d1578063ddd5e1b2146104f1578063e308a0991461051157600080fd5b8063715018a6116100d1578063715018a6146104585780637b44cdb51461046d5780637e69b7b0146104805780638b69fa0a1461049357600080fd5b8063649d9ffa146104075780636930fd2a146104275780636e72b4521461044557600080fd5b80633751d89c1161016f5780634f1ef2861161013e5780634f1ef2861461036157806352d1902d14610374578063572b6c05146103895780635a34257a146103d257600080fd5b80633751d89c146102ee5780633a1121cd1461030e5780633de0c7ef1461032e57806343ede0e31461034e57600080fd5b806326d00668116101ab57806326d006681461025f5780632fbe3b0314610281578063311a6c56146102ae5780633659cfe6146102ce57600080fd5b80630a1a47d6146101d25780630fa683d3146102055780631179643414610232575b600080fd5b3480156101de57600080fd5b506101f26101ed366004614e5f565b6105b1565b6040519081526020015b60405180910390f35b34801561021157600080fd5b50610225610220366004614e7c565b610721565b6040516101fc9190614f0f565b34801561023e57600080fd5b506102476109ce565b6040516001600160a01b0390911681526020016101fc565b34801561026b57600080fd5b5061027f61027a366004614e5f565b6109e8565b005b34801561028d57600080fd5b506101f261029c366004614e7c565b60d06020526000908152604090205481565b3480156102ba57600080fd5b5061027f6102c9366004615058565b610a4b565b3480156102da57600080fd5b5061027f6102e9366004614e5f565b610bdc565b3480156102fa57600080fd5b5061027f610309366004614e5f565b610cb8565b34801561031a57600080fd5b5061027f61032936600461507a565b610d11565b34801561033a57600080fd5b5061027f610349366004614e7c565b6110e6565b6101f261035c3660046151c0565b61126b565b61027f61036f366004615237565b61171c565b34801561038057600080fd5b506101f26117e8565b34801561039557600080fd5b506103c26103a4366004614e5f565b6001600160a01b031660009081526065602052604090205460ff1690565b60405190151581526020016101fc565b3480156103de57600080fd5b5060ce546103f490600160a01b900461ffff1681565b60405161ffff90911681526020016101fc565b34801561041357600080fd5b506101f26104223660046151c0565b61189b565b34801561043357600080fd5b5061027f610442366004614e7c565b50565b61027f610453366004614e7c565b611caa565b34801561046457600080fd5b5061027f611f54565b61027f61047b366004614e7c565b611f68565b61027f61048e366004614e7c565b6121ed565b34801561049f57600080fd5b5061027f6104ae36600461529b565b6122bc565b3480156104bf57600080fd5b506033546001600160a01b0316610247565b3480156104dd57600080fd5b5061027f6104ec36600461507a565b6125fb565b3480156104fd57600080fd5b5061027f61050c3660046152eb565b6129d0565b34801561051d57600080fd5b5061027f61052c366004614e5f565b612b7a565b34801561053d57600080fd5b5061027f61054c36600461532b565b612ba4565b34801561055d57600080fd5b5061027f61056c366004614e5f565b612bfc565b34801561057d57600080fd5b5061027f61058c366004614e7c565b612c72565b34801561059d57600080fd5b5061027f6105ac366004615348565b612df9565b6000806105bc612f69565b9050806001600160a01b03166105da6033546001600160a01b031690565b6001600160a01b0316036106245750506001600160a01b031660009081527f4239c2c8c3d9b94feb214b0f54d7c869ce1ceb63517be57644336cda4967a468602052604090205490565b60ce54604051631847c06b60e01b81526001600160a01b0383811660048301526000921690631847c06b90602401602060405180830381865afa15801561066f573d6000803e3d6000fd5b505050506040513d601f19601f8201168201806040525081019061069391906153a4565b60ce5460405162f577a560e81b8152600481018390529192506001600160a01b03169063f577a5009060240160006040518083038186803b1580156106d757600080fd5b505afa1580156106eb573d6000803e3d6000fd5b50505060009182525060cb602090815260408083206001600160a01b039096168352949052929092205492915050565b50919050565b610729614d03565b60ca5482106107535760405162461bcd60e51b815260040161074a906153bd565b60405180910390fd5b600060ca8381548110610768576107686153f4565b60009182526020918290206040805161024081018252600f9093029091018054835260018101546001600160a01b03908116948401949094526002810154841691830191909152600381015490921660608201526004808301546080830152600583015460a0830152600683015460c0830152600783015461ffff80821660e08501526201000082048116610100850152600160201b9091041661012083015260088301546101408301526009830154610160830152600a830154610180830152600b8301546101a0830152600c8301549192916101c084019160ff9091169081111561085757610857614e95565b600481111561086857610868614e95565b8152600c82015461010090046001600160a01b03166020820152600d820180546040909201916108979061540a565b80601f01602080910402602001604051908101604052809291908181526020018280546108c39061540a565b80156109105780601f106108e557610100808354040283529160200191610910565b820191906000526020600020905b8154815290600101906020018083116108f357829003601f168201915b50505050508152602001600e820154815250509050600061092f612f69565b905081602001516001600160a01b0316816001600160a01b0316148061096a575081604001516001600160a01b0316816001600160a01b0316145b6109c75760405162461bcd60e51b815260206004820152602860248201527f596f7520617265206e6f742072656c6174656420746f2074686973207472616e60448201526739b0b1ba34b7b71760c11b606482015260840161074a565b5092915050565b60006109d8612fa2565b5060cf546001600160a01b031690565b6109f0612fa2565b6001600160a01b038116600081815260656020908152604091829020805460ff1916600117905590519182527f3ef8564460ada92419608d823c014975d98f8104d7d1e68c222967ac6814cd9791015b60405180910390a150565b6000610a55612f69565b600084815260d0602052604081205460ca8054939450909283908110610a7d57610a7d6153f4565b90600052602060002090600f0201905080600c0160019054906101000a90046001600160a01b03166001600160a01b0316836001600160a01b031614610b105760405162461bcd60e51b815260206004820152602260248201527f5468652063616c6c6572206d757374206265207468652061726269747261746f604482015261391760f11b606482015260840161074a565b6003600c82015460ff166004811115610b2b57610b2b614e95565b14610b875760405162461bcd60e51b815260206004820152602660248201527f54686520646973707574652068617320616c7265616479206265656e2072657360448201526537b63b32b21760d11b606482015260840161074a565b84836001600160a01b03167f394027a5fa6e098a1191094d1719d6929b9abc535fcc0c8f448d6a4e7562227686604051610bc391815260200190565b60405180910390a3610bd5828561301b565b5050505050565b6001600160a01b037f0000000000000000000000000000000000000000000000000000000000000000163003610c245760405162461bcd60e51b815260040161074a9061543e565b7f00000000000000000000000000000000000000000000000000000000000000006001600160a01b0316610c6d600080516020615d24833981519152546001600160a01b031690565b6001600160a01b031614610c935760405162461bcd60e51b815260040161074a9061548a565b610c9c816137a6565b60408051600080825260208201909252610442918391906137ae565b610cc0612fa2565b6001600160a01b038116600081815260656020908152604091829020805460ff1916905590519182527fd2d636efcad0cea42e170256f4c5d8b1cd81e47b855557edaf44014e6cc4cee69101610a40565b60cd5483906001600160a01b0316632fa117e582610d2d612f69565b6040516001600160e01b031960e085901b16815260048101929092526001600160a01b03166024820152604401602060405180830381865afa158015610d77573d6000803e3d6000fd5b505050506040513d601f19601f82011682018060405250810190610d9b91906154d6565b610db75760405162461bcd60e51b815260040161074a906154f8565b60ca548310610dd85760405162461bcd60e51b815260040161074a906153bd565b600060ca8481548110610ded57610ded6153f4565b6000918252602090912060cd546040516331a9108f60e11b815260048101899052600f90930290910192506001600160a01b031690636352211e90602401602060405180830381865afa158015610e48573d6000803e3d6000fd5b505050506040513d601f19601f82011682018060405250810190610e6c9190615537565b60018201546001600160a01b03908116911614610e9b5760405162461bcd60e51b815260040161074a90615554565b6000600c82015460ff166004811115610eb657610eb6614e95565b14610ed35760405162461bcd60e51b815260040161074a9061557c565b8281600401541015610f1d5760405162461bcd60e51b815260206004820152601360248201527224b739bab33334b1b4b2b73a10333ab732399760691b604482015260640161074a565b82816004016000828254610f3191906155d8565b909155505060408051610240810182528254815260018301546001600160a01b0390811660208301526002840154811692820192909252600383015490911660608201526004808301546080830152600583015460a0830152600683015460c0830152600783015461ffff80821660e08501526201000082048116610100850152600160201b9091041661012083015260088301546101408301526009830154610160830152600a830154610180830152600b8301546101a0830152600c830154610bd5929184916101c084019160ff9091169081111561101457611014614e95565b600481111561102557611025614e95565b8152600c82015461010090046001600160a01b03166020820152600d820180546040909201916110549061540a565b80601f01602080910402602001604051908101604052809291908181526020018280546110809061540a565b80156110cd5780601f106110a2576101008083540402835291602001916110cd565b820191906000526020600020905b8154815290600101906020018083116110b057829003601f168201915b50505050508152602001600e8201548152505084613919565b600060ca82815481106110fb576110fb6153f4565b60009182526020909120600f9091020190506001600c82015460ff16600481111561112857611128614e95565b1461118b5760405162461bcd60e51b815260206004820152602d60248201527f546865207472616e73616374696f6e206973206e6f742077616974696e67206f60448201526c37103a34329039b2b73232b91760991b606482015260840161074a565b600e810154600b82015461119f90426155d8565b10156111ed5760405162461bcd60e51b815260206004820181905260248201527f54696d656f75742074696d6520686173206e6f7420706173736564207965742e604482015260640161074a565b60098101541561125c57600981018054600091829055600183015460405191926001600160a01b0390911691839181818185875af1925050503d8060008114611252576040519150601f19603f3d011682016040523d82523d6000602084013e611257565b606091505b505050505b61126782600261301b565b5050565b6000611275614dcf565b61127d614e13565b60008060008061128d8a8a613c92565b60ce5460a0840151604051630b7a459360e31b81526004810191909152949a5092985090965094506000916001600160a01b0390911690635bd22c9890602401600060405180830381865afa1580156112ea573d6000803e3d6000fd5b505050506040513d6000823e601f3d908101601f191682016040526113129190810190615643565b905080606001519250866080015161ffff168660a00151146113b65760ce546080880151604051630b7a459360e31b815261ffff90911660048201526000916001600160a01b031690635bd22c9890602401600060405180830381865afa158015611381573d6000803e3d6000fd5b505050506040513d6000823e601f3d908101601f191682016040526113a99190810190615643565b6080015192506113be9050565b806080015191505b60006113cf88606001518585613dcc565b9050856001600160a01b03166113e3612f69565b6001600160a01b0316146114095760405162461bcd60e51b815260040161074a90615554565b80341461144e5760405162461bcd60e51b81526020600482015260136024820152722737b716b6b0ba31b434b73390333ab732399760691b604482015260640161074a565b60408801516001600160a01b0316156114a95760405162461bcd60e51b815260206004820152601760248201527f50726f706f73616c20746f6b656e206e6f74204554482e000000000000000000604482015260640161074a565b8a8860200151146114f55760405162461bcd60e51b815260206004820152601660248201527524b731b7b93932b1ba10383937b837b9b0b61024a21760511b604482015260640161074a565b89604051602001611506919061575b565b604051602081830303815290604052805190602001208860a00151604051602001611531919061575b565b60405160208183030381529060405280519060200120146115945760405162461bcd60e51b815260206004820152601d60248201527f50726f706f73616c206461746155726920686173206368616e6765642e000000604482015260640161074a565b6000875160038111156115a9576115a9614e95565b146115f15760405162461bcd60e51b815260206004820152601860248201527729b2b93b34b1b29039ba30ba3ab9903737ba1037b832b71760411b604482015260640161074a565b60008851600181111561160657611606614e95565b146116535760405162461bcd60e51b815260206004820152601c60248201527f50726f706f73616c20737461747573206e6f742070656e64696e672e00000000604482015260640161074a565b60006116728d8d87878760e00151886101000151896101200151613e37565b905060cc60009054906101000a90046001600160a01b03166001600160a01b031663a7d5eaea8e8e846040518463ffffffff1660e01b81526004016116ca939291909283526020830191909152604082015260600190565b600060405180830381600087803b1580156116e457600080fd5b505af11580156116f8573d6000803e3d6000fd5b5050505061170b818f8b602001516140de565b9d9c50505050505050505050505050565b6001600160a01b037f00000000000000000000000000000000000000000000000000000000000000001630036117645760405162461bcd60e51b815260040161074a9061543e565b7f00000000000000000000000000000000000000000000000000000000000000006001600160a01b03166117ad600080516020615d24833981519152546001600160a01b031690565b6001600160a01b0316146117d35760405162461bcd60e51b815260040161074a9061548a565b6117dc826137a6565b611267828260016137ae565b6000306001600160a01b037f000000000000000000000000000000000000000000000000000000000000000016146118885760405162461bcd60e51b815260206004820152603860248201527f555550535570677261646561626c653a206d757374206e6f742062652063616c60448201527f6c6564207468726f7567682064656c656761746563616c6c0000000000000000606482015260840161074a565b50600080516020615d2483398151915290565b60006118a5614dcf565b6118ad614e13565b6000806000806118bd8a8a613c92565b60ce5460a0840151604051630b7a459360e31b81526004810191909152949a5092985090965094506000916001600160a01b0390911690635bd22c9890602401600060405180830381865afa15801561191a573d6000803e3d6000fd5b505050506040513d6000823e601f3d908101601f191682016040526119429190810190615643565b905080606001519250866080015161ffff168660a00151146119e65760ce546080880151604051630b7a459360e31b815261ffff90911660048201526000916001600160a01b031690635bd22c9890602401600060405180830381865afa1580156119b1573d6000803e3d6000fd5b505050506040513d6000823e601f3d908101601f191682016040526119d99190810190615643565b6080015192506119ee9050565b806080015191505b60006119ff88606001518585613dcc565b9050856001600160a01b0316611a13612f69565b6001600160a01b031614611a395760405162461bcd60e51b815260040161074a90615554565b600087516003811115611a4e57611a4e614e95565b14611a965760405162461bcd60e51b815260206004820152601860248201527729b2b93b34b1b29039ba30ba3ab9903737ba1037b832b71760411b604482015260640161074a565b600088516001811115611aab57611aab614e95565b14611af85760405162461bcd60e51b815260206004820152601c60248201527f50726f706f73616c20737461747573206e6f742070656e64696e672e00000000604482015260640161074a565b8a886020015114611b445760405162461bcd60e51b815260206004820152601660248201527524b731b7b93932b1ba10383937b837b9b0b61024a21760511b604482015260640161074a565b89604051602001611b55919061575b565b604051602081830303815290604052805190602001208860a00151604051602001611b80919061575b565b6040516020818303038152906040528051906020012014611be35760405162461bcd60e51b815260206004820181905260248201527f50726f706f73616c20646174612055524920617265206e6f7420657175616c2e604482015260640161074a565b6000611c028d8d87878760e00151886101000151896101200151613e37565b905060cc60009054906101000a90046001600160a01b03166001600160a01b031663a7d5eaea8e8e846040518463ffffffff1660e01b8152600401611c5a939291909283526020830191909152604082015260600190565b600060405180830381600087803b158015611c7457600080fd5b505af1158015611c88573d6000803e3d6000fd5b50505050611c9b878a6040015184614336565b61170b818f8b602001516140de565b600060ca8281548110611cbf57611cbf6153f4565b60009182526020909120600c600f909202019081015490915061010090046001600160a01b0316611d025760405162461bcd60e51b815260040161074a90615777565b6003600c82015460ff166004811115611d1d57611d1d614e95565b10611d3a5760405162461bcd60e51b815260040161074a906157a4565b60028101546001600160a01b0316611d50612f69565b6001600160a01b031614611da65760405162461bcd60e51b815260206004820181905260248201527f5468652063616c6c6572206d757374206265207468652072656365697665722e604482015260640161074a565b600c81015460405163f7434ea960e01b815260009161010090046001600160a01b03169063f7434ea990611de190600d860190600401615895565b602060405180830381865afa158015611dfe573d6000803e3d6000fd5b505050506040513d601f19601f82011682018060405250810190611e2291906153a4565b90503482600a016000828254611e3891906158a8565b9091555050600a8201548114611eb65760405162461bcd60e51b815260206004820152603760248201527f54686520726563656976657220666565206d75737420626520657175616c207460448201527f6f20746865206172626974726174696f6e20636f73742e000000000000000000606482015260840161074a565b42600b8301556040518390600080516020615d4483398151915290611ee29060009060019034906158cb565b60405180910390a28082600901541015611f4557600c8201805460ff1916600117905560405183907fc74b9f7dedf2887cd3c113b6d8da9cea19e55c1116e25f1f0e1b72d7543179b590611f38906000906158f5565b60405180910390a2505050565b611f4f83826143f4565b505050565b611f5c612fa2565b611f666000614667565b565b600060ca8281548110611f7d57611f7d6153f4565b60009182526020909120600c600f909202019081015490915061010090046001600160a01b0316611fc05760405162461bcd60e51b815260040161074a90615777565b6003600c82015460ff166004811115611fdb57611fdb614e95565b10611ff85760405162461bcd60e51b815260040161074a906157a4565b60018101546001600160a01b031661200e612f69565b6001600160a01b0316146120645760405162461bcd60e51b815260206004820152601e60248201527f5468652063616c6c6572206d757374206265207468652073656e6465722e0000604482015260640161074a565b600c81015460405163f7434ea960e01b815260009161010090046001600160a01b03169063f7434ea99061209f90600d860190600401615895565b602060405180830381865afa1580156120bc573d6000803e3d6000fd5b505050506040513d601f19601f820116820180604052508101906120e091906153a4565b9050348260090160008282546120f691906158a8565b90915550506009820154811461216c5760405162461bcd60e51b815260206004820152603560248201527f5468652073656e64657220666565206d75737420626520657175616c20746f206044820152743a34329030b93134ba3930ba34b7b71031b7b9ba1760591b606482015260840161074a565b42600b8301556040518390600080516020615d448339815191529061219790600090819034906158cb565b60405180910390a28082600a01541015611f4557600c8201805460ff1916600217905560405183907fc74b9f7dedf2887cd3c113b6d8da9cea19e55c1116e25f1f0e1b72d7543179b590611f38906001906158f5565b600060ca8281548110612202576122026153f4565b60009182526020909120600c600f909202019081015490915061010090046001600160a01b03166122455760405162461bcd60e51b815260040161074a90615777565b600c810154600882015460405163093225f160e31b81526101009092046001600160a01b0316916349912f889134916122869190600d870190600401615908565b6000604051808303818588803b15801561229f57600080fd5b505af11580156122b3573d6000803e3d6000fd5b50505050505050565b60cd5483906001600160a01b0316632fa117e5826122d8612f69565b6040516001600160e01b031960e085901b16815260048101929092526001600160a01b03166024820152604401602060405180830381865afa158015612322573d6000803e3d6000fd5b505050506040513d601f19601f8201168201806040525081019061234691906154d6565b6123625760405162461bcd60e51b815260040161074a906154f8565b600060ca8481548110612377576123776153f4565b60009182526020909120600c600f909202019081015490915061010090046001600160a01b03166123ba5760405162461bcd60e51b815260040161074a90615777565b60cd546040516331a9108f60e11b8152600481018790526000916001600160a01b031690636352211e90602401602060405180830381865afa158015612404573d6000803e3d6000fd5b505050506040513d601f19601f820116820180604052508101906124289190615537565b60018301549091506001600160a01b0380831691161480612458575060028201546001600160a01b038281169116145b6124d45760405162461bcd60e51b815260206004820152604160248201527f5468652063616c6c6572206d757374206265207468652073656e646572206f7260448201527f20746865207265636569766572206f722074686569722064656c6567617465736064820152601760f91b608482015260a40161074a565b6004600c83015460ff1660048111156124ef576124ef614e95565b106125575760405162461bcd60e51b815260206004820152603260248201527f4d757374206e6f742073656e642065766964656e63652069662074686520646960448201527139b83aba329034b9903932b9b7b63b32b21760711b606482015260840161074a565b806001600160a01b03168583600c0160019054906101000a90046001600160a01b03166001600160a01b03167fdccf2f8b2cc26eafcd61905cba744cff4b81d14740725f6376390dc6298a6a3c876040516125b29190615921565b60405180910390a485857fd998ce0f89c38b0f93256f0b843a404a3a3c5055b75265623f7cb9c369a1dd62866040516125eb9190615921565b60405180910390a3505050505050565b60cd5483906001600160a01b0316632fa117e582612617612f69565b6040516001600160e01b031960e085901b16815260048101929092526001600160a01b03166024820152604401602060405180830381865afa158015612661573d6000803e3d6000fd5b505050506040513d601f19601f8201168201806040525081019061268591906154d6565b6126a15760405162461bcd60e51b815260040161074a906154f8565b60ca5483106126c25760405162461bcd60e51b815260040161074a906153bd565b600060ca84815481106126d7576126d76153f4565b6000918252602090912060cd546040516331a9108f60e11b815260048101899052600f90930290910192506001600160a01b031690636352211e90602401602060405180830381865afa158015612732573d6000803e3d6000fd5b505050506040513d601f19601f820116820180604052508101906127569190615537565b60028201546001600160a01b039081169116146127855760405162461bcd60e51b815260040161074a90615554565b6000600c82015460ff1660048111156127a0576127a0614e95565b146127bd5760405162461bcd60e51b815260040161074a9061557c565b82816004015410156128075760405162461bcd60e51b815260206004820152601360248201527224b739bab33334b1b4b2b73a10333ab732399760691b604482015260640161074a565b8281600401600082825461281b91906155d8565b909155505060408051610240810182528254815260018301546001600160a01b0390811660208301526002840154811692820192909252600383015490911660608201526004808301546080830152600583015460a0830152600683015460c0830152600783015461ffff80821660e08501526201000082048116610100850152600160201b9091041661012083015260088301546101408301526009830154610160830152600a830154610180830152600b8301546101a0830152600c830154610bd5929184916101c084019160ff909116908111156128fe576128fe614e95565b600481111561290f5761290f614e95565b8152600c82015461010090046001600160a01b03166020820152600d8201805460409092019161293e9061540a565b80601f016020809104026020016040519081016040528092919081815260200182805461296a9061540a565b80156129b75780601f1061298c576101008083540402835291602001916129b7565b820191906000526020600020905b81548152906001019060200180831161299a57829003601f168201915b50505050508152602001600e82015481525050846146b9565b60006129da612f69565b6001600160a01b03166129f56033546001600160a01b031690565b6001600160a01b031603612a33578215612a215760405162461bcd60e51b815260040161074a90615554565b5060cf546001600160a01b0316612afe565b60ce5460405162f577a560e81b8152600481018590526001600160a01b039091169063f577a5009060240160006040518083038186803b158015612a7657600080fd5b505afa158015612a8a573d6000803e3d6000fd5b505060ce546040516331a9108f60e11b8152600481018790526001600160a01b039091169250636352211e9150602401602060405180830381865afa158015612ad7573d6000803e3d6000fd5b505050506040513d601f19601f82011682018060405250810190612afb9190615537565b90505b600083815260cb602090815260408083206001600160a01b038616845290915281208054919055612b3082848361477d565b60408051858152602081018390526001600160a01b038516917f2227733fc4c8a9034cb58087dcf6995128b9c0233b038b03366aaf30c92b92d6910160405180910390a250505050565b612b82612fa2565b60cf80546001600160a01b0319166001600160a01b0392909216919091179055565b612bac612fa2565b60ce805461ffff60a01b1916600160a01b61ffff8416908102919091179091556040519081527f8339189e972f7fba792126e752aa8485af08710bce4a041c5bc3f9858acd713090602001610a40565b612c04612fa2565b6001600160a01b038116612c695760405162461bcd60e51b815260206004820152602660248201527f4f776e61626c653a206e6577206f776e657220697320746865207a65726f206160448201526564647265737360d01b606482015260840161074a565b61044281614667565b600060ca8281548110612c8757612c876153f4565b60009182526020909120600f9091020190506002600c82015460ff166004811115612cb457612cb4614e95565b14612d195760405162461bcd60e51b815260206004820152602f60248201527f546865207472616e73616374696f6e206973206e6f742077616974696e67206f60448201526e37103a3432903932b1b2b4bb32b91760891b606482015260840161074a565b600e810154600b820154612d2d90426155d8565b1015612d7b5760405162461bcd60e51b815260206004820181905260248201527f54696d656f75742074696d6520686173206e6f7420706173736564207965742e604482015260640161074a565b600081600a0154600014612dee5750600a81018054600091829055600283015460405191926001600160a01b0390911691839181818185875af1925050503d8060008114612de5576040519150601f19603f3d011682016040523d82523d6000602084013e612dea565b606091505b5050505b611f4f83600161301b565b600054610100900460ff1615808015612e195750600054600160ff909116105b80612e335750303b158015612e33575060005460ff166001145b612e965760405162461bcd60e51b815260206004820152602e60248201527f496e697469616c697a61626c653a20636f6e747261637420697320616c72656160448201526d191e481a5b9a5d1a585b1a5e995960921b606482015260840161074a565b6000805460ff191660011790558015612eb9576000805461ff0019166101001790555b612ec1614837565b612ec9614866565b60cc80546001600160a01b038088166001600160a01b03199283161790925560cd805487841690831617905560ce805486841690831617905560cf805492851692909116919091179055612f1d6064612ba4565b8015610bd5576000805461ff0019169055604051600181527f7f26b83ff96e1f2b6a682f133852f6798a09c465da95921460cefb38474024989060200160405180910390a15050505050565b600060143610801590612f8b57503360009081526065602052604090205460ff165b15612f9d575060131936013560601c90565b503390565b612faa612f69565b6001600160a01b0316612fc56033546001600160a01b031690565b6001600160a01b031614611f665760405162461bcd60e51b815260206004820181905260248201527f4f776e61626c653a2063616c6c6572206973206e6f7420746865206f776e6572604482015260640161074a565b600060ca8381548110613030576130306153f4565b90600052602060002090600f02019050600260ff168211156130865760405162461bcd60e51b815260206004820152600f60248201526e24b73b30b634b210393ab634b7339760891b604482015260640161074a565b6001810154600282015460048084018054600986018054600a880180546000958690559285905593909355600c8701805460ff19169094179093556001600160a01b03948516949093169291600019870161320c576040516001600160a01b038616908390600081818185875af1925050503d8060008114613124576040519150601f19603f3d011682016040523d82523d6000602084013e613129565b606091505b505060408051610240810182528854815260018901546001600160a01b03908116602083015260028a0154811692820192909252600389015490911660608201526004808901546080830152600589015460a0830152600689015460c0830152600789015461ffff80821660e08501526201000082048116610100850152600160201b9091041661012083015260088901546101408301526009890154610160830152600a890154610180830152600b8901546101a0830152600c890154613207935089916101c084019160ff16908111156128fe576128fe614e95565b613762565b6001198701613341576040516001600160a01b038516908290600081818185875af1925050503d806000811461325e576040519150601f19603f3d011682016040523d82523d6000602084013e613263565b606091505b505060408051610240810182528854815260018901546001600160a01b03908116602083015260028a0154811692820192909252600389015490911660608201526004808901546080830152600589015460a0830152600689015460c0830152600789015461ffff80821660e08501526201000082048116610100850152600160201b9091041661012083015260088901546101408301526009890154610160830152600a890154610180830152600b8901546101a0830152600c890154613207935089916101c084019160ff169081111561101457611014614e95565b600061334e600284615934565b9050600061335d600286615934565b60408051610240810182528a54815260018b01546001600160a01b03908116602083015260028c015481169282019290925260038b015490911660608201526004808b0154608083015260058b015460a083015260068b015460c083015260078b015461ffff80821660e08501526201000082048116610100850152600160201b9091041661012083015260088b015461014083015260098b0154610160830152600a8b0154610180830152600b8b01546101a0830152600c8b015492935061350d928b916101c084019160ff169081111561343b5761343b614e95565b600481111561344c5761344c614e95565b8152600c82015461010090046001600160a01b03166020820152600d8201805460409092019161347b9061540a565b80601f01602080910402602001604051908101604052809291908181526020018280546134a79061540a565b80156134f45780601f106134c9576101008083540402835291602001916134f4565b820191906000526020600020905b8154815290600101906020018083116134d757829003601f168201915b50505050508152602001600e82015481525050826146b9565b60408051610240810182528954815260018a01546001600160a01b03908116602083015260028b015481169282019290925260038a015490911660608201526004808a0154608083015260058a015460a083015260068a015460c083015260078a015461ffff80821660e08501526201000082048116610100850152600160201b9091041661012083015260088a015461014083015260098a0154610160830152600a8a0154610180830152600b8a01546101a0830152600c8a01546136bd92918b916101c084019160ff909116908111156135eb576135eb614e95565b60048111156135fc576135fc614e95565b8152600c82015461010090046001600160a01b03166020820152600d8201805460409092019161362b9061540a565b80601f01602080910402602001604051908101604052809291908181526020018280546136579061540a565b80156136a45780601f10613679576101008083540402835291602001916136a4565b820191906000526020600020905b81548152906001019060200180831161368757829003601f168201915b50505050508152602001600e8201548152505082613919565b6040516001600160a01b038816908390600081818185875af1925050503d8060008114613706576040519150601f19603f3d011682016040523d82523d6000602084013e61370b565b606091505b50506040516001600160a01b03881691508390600081818185875af1925050503d8060008114613757576040519150601f19603f3d011682016040523d82523d6000602084013e61375c565b606091505b50505050505b877f76b363d70472d47d20e4119f3625c05ed37ca51b1d9e1cd8b87d8c20530640f38860405161379491815260200190565b60405180910390a25050505050505050565b610442612fa2565b7f4910fdfa16fed3260ed0e7147f7cc6da11a60208b5b9406d12a635614ffd91435460ff16156137e157611f4f8361488d565b826001600160a01b03166352d1902d6040518163ffffffff1660e01b8152600401602060405180830381865afa92505050801561383b575060408051601f3d908101601f19168201909252613838918101906153a4565b60015b61389e5760405162461bcd60e51b815260206004820152602e60248201527f45524331393637557067726164653a206e657720696d706c656d656e7461746960448201526d6f6e206973206e6f74205555505360901b606482015260840161074a565b600080516020615d24833981519152811461390d5760405162461bcd60e51b815260206004820152602960248201527f45524331393637557067726164653a20756e737570706f727465642070726f786044820152681a58589b195555525160ba1b606482015260840161074a565b50611f4f838383614929565b60cc5460a083015160405163ef0e239b60e01b815260048101919091526000916001600160a01b03169063ef0e239b90602401600060405180830381865afa158015613969573d6000803e3d6000fd5b505050506040513d6000823e601f3d908101601f191682016040526139919190810190615956565b60a09081015160cc549185015160c086015160405163aba2100960e01b8152600481019290925260248201529092506000916001600160a01b03169063aba2100990604401600060405180830381865afa1580156139f3573d6000803e3d6000fd5b505050506040513d6000823e601f3d908101601f19168201604052613a1b9190810190615a07565b6080015161ffff169050600061271061ffff16848660e0015161ffff16613a429190615ac1565b613a4c9190615934565b9050600061271061ffff168587610100015161ffff16613a6c9190615ac1565b613a769190615934565b9050600061271061ffff168688610120015161ffff16613a969190615ac1565b613aa09190615934565b600080805260cb602090815260608a01516001600160a01b031682527f4239c2c8c3d9b94feb214b0f54d7c869ce1ceb63517be57644336cda4967a46890526040812080549293508592909190613af89084906158a8565b9091555050600085815260cb6020908152604080832060608b01516001600160a01b0316845290915281208054849290613b339084906158a8565b9091555050600084815260cb6020908152604080832060608b01516001600160a01b0316845290915281208054839290613b6e9084906158a8565b92505081905550613b88876040015188606001518861494e565b60608088015160a089015160408051898152602081019290925281018590526001600160a01b03909116917f17c48ab8e1617182f35ae77fd7da7f4e15dedf7018aa371a4481c20c790b6546910160405180910390a260608088015160a089015160408051888152602081019290925281018590526001600160a01b03909116917f3476ed3eea2cdac584273bc8830824c8ca42ca2a99e9f144a87a1cdbbf9dd15a910160405180910390a27f7eb4d07819d8300e8f1d0a2a11814657be694ee6dbfd0208fdabed36a19e954f87600001516000888a606001518b60a00151604051613c78959493929190615ad8565b60405180910390a16122b38760a0015188608001516149b5565b613c9a614dcf565b613ca2614e13565b6000806000613cb18787614a58565b90506000613cbe88614ae1565b60cd5460208201516040516331a9108f60e11b81529293506000926001600160a01b0390921691636352211e91613cfb9160040190815260200190565b602060405180830381865afa158015613d18573d6000803e3d6000fd5b505050506040513d601f19601f82011682018060405250810190613d3c9190615537565b60cd5460208501516040516331a9108f60e11b81529293506000926001600160a01b0390921691636352211e91613d799160040190815260200190565b602060405180830381865afa158015613d96573d6000803e3d6000fd5b505050506040513d601f19601f82011682018060405250810190613dba9190615537565b939a9299509097509195509350505050565b6000612710613ddf61ffff841686615ac1565b613ded61ffff861687615ac1565b60ce54613e0590600160a01b900461ffff1688615ac1565b613e0f91906158a8565b613e1991906158a8565b613e239190615934565b613e2d90856158a8565b90505b9392505050565b6000613e41614dcf565b613e49614e13565b600080613e568c8c613c92565b80945081955082965083975050505050600060ca80549050905060ca604051806102400160405280838152602001856001600160a01b03168152602001846001600160a01b0316815260200187604001516001600160a01b03168152602001876060015181526020018f81526020018e815260200160ce60149054906101000a900461ffff1661ffff1681526020018d61ffff1681526020018c61ffff16815260200160008152602001600081526020016000815260200142815260200160006004811115613f2757613f27614e95565b81526001600160a01b03808d1660208084019190915260408084018e905260609384018d90528554600181810188556000978852968390208651600f909202019081559185015182870180549185166001600160a01b03199283161790559085015160028301805491851691831691909117905592840151600382018054919093169316929092179055608082015160048083019190915560a0830151600583015560c0830151600683015560e083015160078301805461010086015161012087015161ffff908116600160201b0265ffff0000000019928216620100000263ffffffff199094169190951617919091171691909117905561014083015160088301556101608301516009830155610180830151600a8301556101a0830151600b8301556101c0830151600c83018054949593949193909260ff1990921691849081111561407757614077614e95565b02179055506101e0820151600c820180546001600160a01b0390921661010002610100600160a81b0319909216919091179055610200820151600d8201906140bf9082615b5a565b506102209190910151600e909101559c9b505050505050505050505050565b600060ca84815481106140f3576140f36153f4565b60009182526020822060cd54600f92909202016001810154604051631847c06b60e01b81526001600160a01b03918216600482015291945090911690631847c06b90602401602060405180830381865afa158015614155573d6000803e3d6000fd5b505050506040513d601f19601f8201168201806040525081019061417991906153a4565b60cd546002840154604051631847c06b60e01b81526001600160a01b039182166004820152929350600092911690631847c06b90602401602060405180830381865afa1580156141cd573d6000803e3d6000fd5b505050506040513d601f19601f820116820180604052508101906141f191906153a4565b90507f1ccb16db9d1499f0b4e030d49bd6575a6ac51f3970af8752ac277fdf4505763b8683838660030160009054906101000a90046001600160a01b03168760040154886005015460ce60149054906101000a900461ffff168a60070160029054906101000a900461ffff168b60070160049054906101000a900461ffff168c600c0160019054906101000a90046001600160a01b03168d600d018e600e01546040516142a99c9b9a99989796959493929190615c1a565b60405180910390a1857f61606860eb6c87306811e2695215385101daab53bd6ab4e9f9049aead9363c7d866040516142e19190615921565b60405180910390a26005830154604080519182526020820186905281018790527fffc7643b52fc7134d23e37eac3c5c4bdad5cf04655528f24663504e15adc4a4a9060600160405180910390a1505050505050565b6040516323b872dd60e01b81526001600160a01b038481166004830152306024830152604482018390528316906323b872dd906064016020604051808303816000875af115801561438b573d6000803e3d6000fd5b505050506040513d601f19601f820116820180604052508101906143af91906154d6565b611f4f5760405162461bcd60e51b8152602060048201526016602482015275151c985b9cd9995c881b5d5cdd081b9bdd0819985a5b60521b604482015260640161074a565b600060ca8381548110614409576144096153f4565b60009182526020909120600c600f90920201908101805460ff19166003179081905560405163c13517e160e01b81529192506001600160a01b036101009091041690819063c13517e190859061446990600290600d880190600401615ca1565b60206040518083038185885af1158015614487573d6000803e3d6000fd5b50505050506040513d601f19601f820116820180604052508101906144ac91906153a4565b60088301818155600091825260d0602090815260409283902087905590548251878152918201879052916001600160a01b038416917f74baab670a4015ab2f1b467c5252a96141a2573f2908e58a92081e80d3cfde3d910160405180910390a382826009015411156145b757600083836009015461452a91906155d8565b6009840185905560018401546040519192506001600160a01b0316908290600081818185875af1925050503d8060008114614581576040519150601f19603f3d011682016040523d82523d6000602084013e614586565b606091505b50505084600080516020615d4483398151915260016000346040516145ad939291906158cb565b60405180910390a2505b8282600a015411156146615760008383600a01546145d591906155d8565b600a840185905560028401546040519192506001600160a01b0316908290600081818185875af1925050503d806000811461462c576040519150601f19603f3d011682016040523d82523d6000602084013e614631565b606091505b50505084600080516020615d4483398151915260018034604051614657939291906158cb565b60405180910390a2505b50505050565b603380546001600160a01b038381166001600160a01b0319831681179093556040519116919082907f8be0079c531659141344cd1fd0a4f28419497f9722a3daafe3b4186f6b6457e090600090a35050565b600061271061ffff16828461010001518561012001518660e001516146de9190615cbd565b6146e89190615cbd565b61ffff166146f69190615ac1565b6147009190615934565b61470a90836158a8565b905061471f836020015184606001518361494e565b7f7eb4d07819d8300e8f1d0a2a11814657be694ee6dbfd0208fdabed36a19e954f836000015160018486606001518760a00151604051614763959493929190615ad8565b60405180910390a1611f4f8360a0015184608001516149b5565b6001600160a01b0382166000036147c4576040516001600160a01b0384169082156108fc029083906000818181858888f19350505050158015614661573d6000803e3d6000fd5b60405163a9059cbb60e01b81526001600160a01b0384811660048301526024820183905283169063a9059cbb906044016020604051808303816000875af1158015614813573d6000803e3d6000fd5b505050506040513d601f19601f8201168201806040525081019061466191906154d6565b600054610100900460ff1661485e5760405162461bcd60e51b815260040161074a90615cd8565b611f66614b5a565b600054610100900460ff16611f665760405162461bcd60e51b815260040161074a90615cd8565b6001600160a01b0381163b6148fa5760405162461bcd60e51b815260206004820152602d60248201527f455243313936373a206e657720696d706c656d656e746174696f6e206973206e60448201526c1bdd08184818dbdb9d1c9858dd609a1b606482015260840161074a565b600080516020615d2483398151915280546001600160a01b0319166001600160a01b0392909216919091179055565b61493283614b91565b60008251118061493f5750805b15611f4f576146618383614bd1565b6001600160a01b0382166000036147c4576040516001600160a01b038416908290600081818185875af1925050503d80600081146149a8576040519150601f19603f3d011682016040523d82523d6000602084013e6149ad565b606091505b505050505050565b806000036112675760cc54604051631271956760e21b8152600481018490526001600160a01b03909116906349c6559c90602401600060405180830381600087803b158015614a0357600080fd5b505af1158015614a17573d6000803e3d6000fd5b505050507f6bef1b5e95b741d6e665eb9b5c2d3e1203c46a771451055a9d41e0b8ff4510b782604051614a4c91815260200190565b60405180910390a15050565b614a60614dcf565b60cc5460405163aba2100960e01b815260048101859052602481018490526001600160a01b039091169063aba2100990604401600060405180830381865afa158015614ab0573d6000803e3d6000fd5b505050506040513d6000823e601f3d908101601f19168201604052614ad89190810190615a07565b90505b92915050565b614ae9614e13565b60cc5460405163ef0e239b60e01b8152600481018490526001600160a01b039091169063ef0e239b90602401600060405180830381865afa158015614b32573d6000803e3d6000fd5b505050506040513d6000823e601f3d908101601f19168201604052614adb9190810190615956565b600054610100900460ff16614b815760405162461bcd60e51b815260040161074a90615cd8565b611f66614b8c612f69565b614667565b614b9a8161488d565b6040516001600160a01b038216907fbc7cd75a20ee27fd9adebab32041f755214dbc6bffa90cc0225b39da2e5c2d3b90600090a250565b60606001600160a01b0383163b614c395760405162461bcd60e51b815260206004820152602660248201527f416464726573733a2064656c65676174652063616c6c20746f206e6f6e2d636f6044820152651b9d1c9858dd60d21b606482015260840161074a565b600080846001600160a01b031684604051614c54919061575b565b600060405180830381855af49150503d8060008114614c8f576040519150601f19603f3d011682016040523d82523d6000602084013e614c94565b606091505b5091509150614cbc8282604051806060016040528060278152602001615d6460279139614cc5565b95945050505050565b60608315614cd4575081613e30565b613e308383815115614ce95781518083602001fd5b8060405162461bcd60e51b815260040161074a9190615921565b6040518061024001604052806000815260200160006001600160a01b0316815260200160006001600160a01b0316815260200160006001600160a01b03168152602001600081526020016000815260200160008152602001600061ffff168152602001600061ffff168152602001600061ffff1681526020016000815260200160008152602001600081526020016000815260200160006004811115614dab57614dab614e95565b815260200160006001600160a01b0316815260200160608152602001600081525090565b6040805160c0810190915280600081526020016000815260200160006001600160a01b0316815260200160008152602001600061ffff168152602001606081525090565b6040805160c08101909152806000815260200160008152602001600081526020016060815260200160008152602001600081525090565b6001600160a01b038116811461044257600080fd5b600060208284031215614e7157600080fd5b8135613e3081614e4a565b600060208284031215614e8e57600080fd5b5035919050565b634e487b7160e01b600052602160045260246000fd5b60058110614ebb57614ebb614e95565b9052565b60005b83811015614eda578181015183820152602001614ec2565b50506000910152565b60008151808452614efb816020860160208601614ebf565b601f01601f19169290920160200192915050565b602081528151602082015260006020830151614f3660408401826001600160a01b03169052565b5060408301516001600160a01b03811660608401525060608301516001600160a01b038116608084015250608083015160a083015260a083015160c083015260c083015160e083015260e0830151610100614f968185018361ffff169052565b8401519050610120614fad8482018361ffff169052565b8401519050610140614fc48482018361ffff169052565b84015161016084810191909152840151610180808501919091528401516101a0808501919091528401516101c08085019190915284015190506101e061500c81850183614eab565b8401519050610200615028848201836001600160a01b03169052565b808501519150506102406102208181860152615048610260860184614ee3565b9501519301929092525090919050565b6000806040838503121561506b57600080fd5b50508035926020909101359150565b60008060006060848603121561508f57600080fd5b505081359360208301359350604090920135919050565b634e487b7160e01b600052604160045260246000fd5b604051610140810167ffffffffffffffff811182821017156150e0576150e06150a6565b60405290565b60405160c0810167ffffffffffffffff811182821017156150e0576150e06150a6565b604051601f8201601f1916810167ffffffffffffffff81118282101715615132576151326150a6565b604052919050565b600067ffffffffffffffff821115615154576151546150a6565b50601f01601f191660200190565b60006151756151708461513a565b615109565b905082815283838301111561518957600080fd5b828260208301376000602084830101529392505050565b600082601f8301126151b157600080fd5b614ad883833560208501615162565b600080600080608085870312156151d657600080fd5b843567ffffffffffffffff808211156151ee57600080fd5b6151fa888389016151a0565b95506020870135945060408701359350606087013591508082111561521e57600080fd5b5061522b878288016151a0565b91505092959194509250565b6000806040838503121561524a57600080fd5b823561525581614e4a565b9150602083013567ffffffffffffffff81111561527157600080fd5b8301601f8101851361528257600080fd5b61529185823560208401615162565b9150509250929050565b6000806000606084860312156152b057600080fd5b8335925060208401359150604084013567ffffffffffffffff8111156152d557600080fd5b6152e1868287016151a0565b9150509250925092565b600080604083850312156152fe57600080fd5b82359150602083013561531081614e4a565b809150509250929050565b61ffff8116811461044257600080fd5b60006020828403121561533d57600080fd5b8135613e308161531b565b6000806000806080858703121561535e57600080fd5b843561536981614e4a565b9350602085013561537981614e4a565b9250604085013561538981614e4a565b9150606085013561539981614e4a565b939692955090935050565b6000602082840312156153b657600080fd5b5051919050565b6020808252601b908201527f4e6f7420612076616c6964207472616e73616374696f6e2069642e0000000000604082015260600190565b634e487b7160e01b600052603260045260246000fd5b600181811c9082168061541e57607f821691505b60208210810361071b57634e487b7160e01b600052602260045260246000fd5b6020808252602c908201527f46756e6374696f6e206d7573742062652063616c6c6564207468726f7567682060408201526b19195b1959d85d1958d85b1b60a21b606082015260800190565b6020808252602c908201527f46756e6374696f6e206d7573742062652063616c6c6564207468726f7567682060408201526b6163746976652070726f787960a01b606082015260800190565b6000602082840312156154e857600080fd5b81518015158114613e3057600080fd5b6020808252601590820152744e6f74206f776e6572206f722064656c656761746560581b604082015260600190565b805161553281614e4a565b919050565b60006020828403121561554957600080fd5b8151613e3081614e4a565b6020808252600e908201526d20b1b1b2b9b9903232b734b2b21760911b604082015260600190565b60208082526026908201527f546865207472616e73616374696f6e2073686f756c646e277420626520646973604082015265383aba32b21760d11b606082015260800190565b634e487b7160e01b600052601160045260246000fd5b81810381811115614adb57614adb6155c2565b600082601f8301126155fc57600080fd5b815161560a6151708261513a565b81815284602083860101111561561f57600080fd5b615630826020830160208701614ebf565b949350505050565b80516155328161531b565b60006020828403121561565557600080fd5b815167ffffffffffffffff8082111561566d57600080fd5b90830190610140828603121561568257600080fd5b61568a6150bc565b825181526020830151828111156156a057600080fd5b6156ac878286016155eb565b6020830152506040830151828111156156c457600080fd5b6156d0878286016155eb565b6040830152506156e260608401615638565b60608201526156f360808401615638565b608082015260a083015160a082015260c083015160c082015261571860e08401615527565b60e0820152610100808401518381111561573157600080fd5b61573d888287016155eb565b91830191909152506101209283015192810192909252509392505050565b6000825161576d818460208701614ebf565b9190910192915050565b60208082526013908201527220b93134ba3930ba37b9103737ba1039b2ba1760691b604082015260600190565b6020808252604e908201527f446973707574652068617320616c7265616479206265656e206372656174656460408201527f206f72206265636175736520746865207472616e73616374696f6e206861732060608201526d3132b2b71032bc32b1baba32b21760911b608082015260a00190565b600081546158258161540a565b808552602060018381168015615842576001811461585c5761588a565b60ff1985168884015283151560051b88018301955061588a565b866000528260002060005b858110156158825781548a8201860152908301908401615867565b890184019650505b505050505092915050565b602081526000614ad86020830184615818565b80820180821115614adb57614adb6155c2565b6002811061044257610442614e95565b606081016158d8856158bb565b8482526158e4846158bb565b602082019390935260400152919050565b60208101615902836158bb565b91905290565b828152604060208201526000613e2d6040830184615818565b602081526000614ad86020830184614ee3565b60008261595157634e487b7160e01b600052601260045260246000fd5b500490565b60006020828403121561596857600080fd5b815167ffffffffffffffff8082111561598057600080fd5b9083019060c0828603121561599457600080fd5b61599c6150e6565b8251600481106159ab57600080fd5b8082525060208301516020820152604083015160408201526060830151828111156159d557600080fd5b6159e1878286016155eb565b6060830152506080830151608082015260a083015160a082015280935050505092915050565b600060208284031215615a1957600080fd5b815167ffffffffffffffff80821115615a3157600080fd5b9083019060c08286031215615a4557600080fd5b615a4d6150e6565b825160028110615a5c57600080fd5b815260208381015190820152615a7460408401615527565b604082015260608301516060820152615a8f60808401615638565b608082015260a083015182811115615aa657600080fd5b615ab2878286016155eb565b60a08301525095945050505050565b8082028115828204841417614adb57614adb6155c2565b85815260a08101615ae8866158bb565b602082019590955260408101939093526001600160a01b03919091166060830152608090910152919050565b601f821115611f4f57600081815260208120601f850160051c81016020861015615b3b5750805b601f850160051c820191505b818110156149ad57828155600101615b47565b815167ffffffffffffffff811115615b7457615b746150a6565b615b8881615b82845461540a565b84615b14565b602080601f831160018114615bbd5760008415615ba55750858301515b600019600386901b1c1916600185901b1785556149ad565b600085815260208120601f198616915b82811015615bec57888601518255948401946001909101908401615bcd565b5085821015615c0a5787850151600019600388901b60f8161c191681555b5050505050600190811b01905550565b8c8152602081018c9052604081018b90526001600160a01b038a81166060830152608082018a905260a0820189905261ffff88811660c084015287811660e0840152861661010083015284166101208201526101806101408201819052600090615c8683820186615818565b915050826101608301529d9c50505050505050505050505050565b60ff83168152604060208201526000613e2d6040830184615818565b61ffff8181168382160190808211156109c7576109c76155c2565b6020808252602b908201527f496e697469616c697a61626c653a20636f6e7472616374206973206e6f74206960408201526a6e697469616c697a696e6760a81b60608201526080019056fe360894a13ba1a3210667c828492db98dca3e2076cc3735a920a3ca505d382bbc73e533bc8a993eccbc1023beebad0020f6b6c3639f83062f00fc194b4d1172ba416464726573733a206c6f772d6c6576656c2064656c65676174652063616c6c206661696c6564a26469706673582212201a7f79455d999847030b03ff3da6ad474fb0ab377c2f31c35cf3d134842901d764736f6c63430008110033",
  "linkReferences": {},
  "deployedLinkReferences": {}
}