{
  "_format": "hh-sol-artifact-1",
  "contractName": "TalentLayerPlatformID",
  "sourceName": "contracts/TalentLayerPlatformID.sol",
  "abi": [
    {
      "inputs": [],
      "stateMutability": "nonpayable",
      "type": "constructor"
    },
    {
      "inputs": [],
      "name": "ApprovalCallerNotOwnerNorApproved",
      "type": "error"
    },
    {
      "inputs": [],
      "name": "ApprovalQueryForNonexistentToken",
      "type": "error"
    },
    {
      "inputs": [],
      "name": "ApproveToCaller",
      "type": "error"
    },
    {
      "inputs": [],
      "name": "BalanceQueryForZeroAddress",
      "type": "error"
    },
    {
      "inputs": [],
      "name": "MintERC2309QuantityExceedsLimit",
      "type": "error"
    },
    {
      "inputs": [],
      "name": "MintToZeroAddress",
      "type": "error"
    },
    {
      "inputs": [],
      "name": "MintZeroQuantity",
      "type": "error"
    },
    {
      "inputs": [],
      "name": "OwnerQueryForNonexistentToken",
      "type": "error"
    },
    {
      "inputs": [],
      "name": "OwnershipNotInitializedForExtraData",
      "type": "error"
    },
    {
      "inputs": [],
      "name": "TransferCallerNotOwnerNorApproved",
      "type": "error"
    },
    {
      "inputs": [],
      "name": "TransferFromIncorrectOwner",
      "type": "error"
    },
    {
      "inputs": [],
      "name": "TransferToNonERC721ReceiverImplementer",
      "type": "error"
    },
    {
      "inputs": [],
      "name": "TransferToZeroAddress",
      "type": "error"
    },
    {
      "inputs": [],
      "name": "URIQueryForNonexistentToken",
      "type": "error"
    },
    {
      "anonymous": false,
      "inputs": [
        {
          "indexed": true,
          "internalType": "address",
          "name": "owner",
          "type": "address"
        },
        {
          "indexed": true,
          "internalType": "address",
          "name": "approved",
          "type": "address"
        },
        {
          "indexed": true,
          "internalType": "uint256",
          "name": "tokenId",
          "type": "uint256"
        }
      ],
      "name": "Approval",
      "type": "event"
    },
    {
      "anonymous": false,
      "inputs": [
        {
          "indexed": true,
          "internalType": "address",
          "name": "owner",
          "type": "address"
        },
        {
          "indexed": true,
          "internalType": "address",
          "name": "operator",
          "type": "address"
        },
        {
          "indexed": false,
          "internalType": "bool",
          "name": "approved",
          "type": "bool"
        }
      ],
      "name": "ApprovalForAll",
      "type": "event"
    },
    {
      "anonymous": false,
      "inputs": [
        {
          "indexed": false,
          "internalType": "uint256",
          "name": "_platformId",
          "type": "uint256"
        },
        {
          "indexed": false,
          "internalType": "uint256",
          "name": "_arbitrationFeeTimeout",
          "type": "uint256"
        }
      ],
      "name": "ArbitrationFeeTimeoutUpdated",
      "type": "event"
    },
    {
      "anonymous": false,
      "inputs": [
        {
          "indexed": false,
          "internalType": "uint256",
          "name": "_platformId",
          "type": "uint256"
        },
        {
          "indexed": false,
          "internalType": "contract Arbitrator",
          "name": "_arbitrator",
          "type": "address"
        },
        {
          "indexed": false,
          "internalType": "bytes",
          "name": "_extraData",
          "type": "bytes"
        }
      ],
      "name": "ArbitratorUpdated",
      "type": "event"
    },
    {
      "anonymous": false,
      "inputs": [
        {
          "indexed": true,
          "internalType": "uint256",
          "name": "_tokenId",
          "type": "uint256"
        },
        {
          "indexed": false,
          "internalType": "string",
          "name": "_newCid",
          "type": "string"
        }
      ],
      "name": "CidUpdated",
      "type": "event"
    },
    {
      "anonymous": false,
      "inputs": [
        {
          "indexed": true,
          "internalType": "uint256",
          "name": "fromTokenId",
          "type": "uint256"
        },
        {
          "indexed": false,
          "internalType": "uint256",
          "name": "toTokenId",
          "type": "uint256"
        },
        {
          "indexed": true,
          "internalType": "address",
          "name": "from",
          "type": "address"
        },
        {
          "indexed": true,
          "internalType": "address",
          "name": "to",
          "type": "address"
        }
      ],
      "name": "ConsecutiveTransfer",
      "type": "event"
    },
    {
      "anonymous": false,
      "inputs": [
        {
          "indexed": false,
          "internalType": "uint256",
          "name": "_minArbitrationFeeTimeout",
          "type": "uint256"
        }
      ],
      "name": "MinArbitrationFeeTimeoutUpdated",
      "type": "event"
    },
    {
      "anonymous": false,
      "inputs": [
        {
          "indexed": true,
          "internalType": "address",
          "name": "_platformOwnerAddress",
          "type": "address"
        },
        {
          "indexed": false,
          "internalType": "uint256",
          "name": "_tokenId",
          "type": "uint256"
        },
        {
          "indexed": false,
          "internalType": "string",
          "name": "_platformName",
          "type": "string"
        },
        {
          "indexed": false,
          "internalType": "uint256",
          "name": "_fee",
          "type": "uint256"
        },
        {
          "indexed": false,
          "internalType": "uint256",
          "name": "_arbitrationFeeTimeout",
          "type": "uint256"
        }
      ],
      "name": "Mint",
      "type": "event"
    },
    {
      "anonymous": false,
      "inputs": [
        {
          "indexed": false,
          "internalType": "uint256",
          "name": "_mintFee",
          "type": "uint256"
        }
      ],
      "name": "MintFeeUpdated",
      "type": "event"
    },
    {
      "anonymous": false,
      "inputs": [
        {
          "indexed": false,
          "internalType": "uint256",
          "name": "_platformId",
          "type": "uint256"
        },
        {
          "indexed": false,
          "internalType": "uint16",
          "name": "_platformEscrowFeeRate",
          "type": "uint16"
        }
      ],
      "name": "PlatformEscrowFeeRateUpdated",
      "type": "event"
    },
    {
      "anonymous": false,
      "inputs": [
        {
          "indexed": true,
          "internalType": "bytes32",
          "name": "role",
          "type": "bytes32"
        },
        {
          "indexed": true,
          "internalType": "bytes32",
          "name": "previousAdminRole",
          "type": "bytes32"
        },
        {
          "indexed": true,
          "internalType": "bytes32",
          "name": "newAdminRole",
          "type": "bytes32"
        }
      ],
      "name": "RoleAdminChanged",
      "type": "event"
    },
    {
      "anonymous": false,
      "inputs": [
        {
          "indexed": true,
          "internalType": "bytes32",
          "name": "role",
          "type": "bytes32"
        },
        {
          "indexed": true,
          "internalType": "address",
          "name": "account",
          "type": "address"
        },
        {
          "indexed": true,
          "internalType": "address",
          "name": "sender",
          "type": "address"
        }
      ],
      "name": "RoleGranted",
      "type": "event"
    },
    {
      "anonymous": false,
      "inputs": [
        {
          "indexed": true,
          "internalType": "bytes32",
          "name": "role",
          "type": "bytes32"
        },
        {
          "indexed": true,
          "internalType": "address",
          "name": "account",
          "type": "address"
        },
        {
          "indexed": true,
          "internalType": "address",
          "name": "sender",
          "type": "address"
        }
      ],
      "name": "RoleRevoked",
      "type": "event"
    },
    {
      "anonymous": false,
      "inputs": [
        {
          "indexed": true,
          "internalType": "address",
          "name": "from",
          "type": "address"
        },
        {
          "indexed": true,
          "internalType": "address",
          "name": "to",
          "type": "address"
        },
        {
          "indexed": true,
          "internalType": "uint256",
          "name": "tokenId",
          "type": "uint256"
        }
      ],
      "name": "Transfer",
      "type": "event"
    },
    {
      "inputs": [],
      "name": "DEFAULT_ADMIN_ROLE",
      "outputs": [
        {
          "internalType": "bytes32",
          "name": "",
          "type": "bytes32"
        }
      ],
      "stateMutability": "view",
      "type": "function"
    },
    {
      "inputs": [],
      "name": "MINT_ROLE",
      "outputs": [
        {
          "internalType": "bytes32",
          "name": "",
          "type": "bytes32"
        }
      ],
      "stateMutability": "view",
      "type": "function"
    },
    {
      "inputs": [
        {
          "internalType": "address",
          "name": "_arbitrator",
          "type": "address"
        },
        {
          "internalType": "bool",
          "name": "_isInternal",
          "type": "bool"
        }
      ],
      "name": "addArbitrator",
      "outputs": [],
      "stateMutability": "nonpayable",
      "type": "function"
    },
    {
      "inputs": [
        {
          "internalType": "address",
          "name": "to",
          "type": "address"
        },
        {
          "internalType": "uint256",
          "name": "tokenId",
          "type": "uint256"
        }
      ],
      "name": "approve",
      "outputs": [],
      "stateMutability": "nonpayable",
      "type": "function"
    },
    {
      "inputs": [
        {
          "internalType": "address",
          "name": "owner",
          "type": "address"
        }
      ],
      "name": "balanceOf",
      "outputs": [
        {
          "internalType": "uint256",
          "name": "",
          "type": "uint256"
        }
      ],
      "stateMutability": "view",
      "type": "function"
    },
    {
      "inputs": [
        {
          "internalType": "uint256",
          "name": "tokenId",
          "type": "uint256"
        }
      ],
      "name": "getApproved",
      "outputs": [
        {
          "internalType": "address",
          "name": "",
          "type": "address"
        }
      ],
      "stateMutability": "view",
      "type": "function"
    },
    {
      "inputs": [
        {
          "internalType": "uint256",
          "name": "_platformId",
          "type": "uint256"
        }
      ],
      "name": "getPlatform",
      "outputs": [
        {
          "components": [
            {
              "internalType": "uint256",
              "name": "id",
              "type": "uint256"
            },
            {
              "internalType": "string",
              "name": "name",
              "type": "string"
            },
            {
              "internalType": "string",
              "name": "dataUri",
              "type": "string"
            },
            {
              "internalType": "uint16",
              "name": "fee",
              "type": "uint16"
            },
            {
              "internalType": "contract Arbitrator",
              "name": "arbitrator",
              "type": "address"
            },
            {
              "internalType": "bytes",
              "name": "arbitratorExtraData",
              "type": "bytes"
            },
            {
              "internalType": "uint256",
              "name": "arbitrationFeeTimeout",
              "type": "uint256"
            }
          ],
          "internalType": "struct TalentLayerPlatformID.Platform",
          "name": "",
          "type": "tuple"
        }
      ],
      "stateMutability": "view",
      "type": "function"
    },
    {
      "inputs": [
        {
          "internalType": "uint256",
          "name": "_platformId",
          "type": "uint256"
        }
      ],
      "name": "getPlatformEscrowFeeRate",
      "outputs": [
        {
          "internalType": "uint16",
          "name": "",
          "type": "uint16"
        }
      ],
      "stateMutability": "view",
      "type": "function"
    },
    {
      "inputs": [
        {
          "internalType": "address",
          "name": "_owner",
          "type": "address"
        }
      ],
      "name": "getPlatformIdFromAddress",
      "outputs": [
        {
          "internalType": "uint256",
          "name": "",
          "type": "uint256"
        }
      ],
      "stateMutability": "view",
      "type": "function"
    },
    {
      "inputs": [
        {
          "internalType": "bytes32",
          "name": "role",
          "type": "bytes32"
        }
      ],
      "name": "getRoleAdmin",
      "outputs": [
        {
          "internalType": "bytes32",
          "name": "",
          "type": "bytes32"
        }
      ],
      "stateMutability": "view",
      "type": "function"
    },
    {
      "inputs": [
        {
          "internalType": "bytes32",
          "name": "role",
          "type": "bytes32"
        },
        {
          "internalType": "address",
          "name": "account",
          "type": "address"
        }
      ],
      "name": "grantRole",
      "outputs": [],
      "stateMutability": "nonpayable",
      "type": "function"
    },
    {
      "inputs": [
        {
          "internalType": "address",
          "name": "",
          "type": "address"
        }
      ],
      "name": "hasBeenRecovered",
      "outputs": [
        {
          "internalType": "bool",
          "name": "",
          "type": "bool"
        }
      ],
      "stateMutability": "view",
      "type": "function"
    },
    {
      "inputs": [
        {
          "internalType": "bytes32",
          "name": "role",
          "type": "bytes32"
        },
        {
          "internalType": "address",
          "name": "account",
          "type": "address"
        }
      ],
      "name": "hasRole",
      "outputs": [
        {
          "internalType": "bool",
          "name": "",
          "type": "bool"
        }
      ],
      "stateMutability": "view",
      "type": "function"
    },
    {
      "inputs": [
        {
          "internalType": "address",
          "name": "",
          "type": "address"
        }
      ],
      "name": "internalArbitrators",
      "outputs": [
        {
          "internalType": "bool",
          "name": "",
          "type": "bool"
        }
      ],
      "stateMutability": "view",
      "type": "function"
    },
    {
      "inputs": [
        {
          "internalType": "address",
          "name": "owner",
          "type": "address"
        },
        {
          "internalType": "address",
          "name": "operator",
          "type": "address"
        }
      ],
      "name": "isApprovedForAll",
      "outputs": [
        {
          "internalType": "bool",
          "name": "",
          "type": "bool"
        }
      ],
      "stateMutability": "view",
      "type": "function"
    },
    {
      "inputs": [
        {
          "internalType": "uint256",
          "name": "_platformId",
          "type": "uint256"
        }
      ],
      "name": "isValid",
      "outputs": [],
      "stateMutability": "view",
      "type": "function"
    },
    {
      "inputs": [],
      "name": "minArbitrationFeeTimeout",
      "outputs": [
        {
          "internalType": "uint256",
          "name": "",
          "type": "uint256"
        }
      ],
      "stateMutability": "view",
      "type": "function"
    },
    {
      "inputs": [
        {
          "internalType": "string",
          "name": "_platformName",
          "type": "string"
        }
      ],
      "name": "mint",
      "outputs": [],
      "stateMutability": "payable",
      "type": "function"
    },
    {
      "inputs": [],
      "name": "mintFee",
      "outputs": [
        {
          "internalType": "uint256",
          "name": "",
          "type": "uint256"
        }
      ],
      "stateMutability": "view",
      "type": "function"
    },
    {
      "inputs": [
        {
          "internalType": "string",
          "name": "_platformName",
          "type": "string"
        },
        {
          "internalType": "address",
          "name": "_platformAddress",
          "type": "address"
        }
      ],
      "name": "mintForAddress",
      "outputs": [],
      "stateMutability": "payable",
      "type": "function"
    },
    {
      "inputs": [],
      "name": "name",
      "outputs": [
        {
          "internalType": "string",
          "name": "",
          "type": "string"
        }
      ],
      "stateMutability": "view",
      "type": "function"
    },
    {
      "inputs": [
        {
          "internalType": "address",
          "name": "_platformAddress",
          "type": "address"
        }
      ],
      "name": "numberMinted",
      "outputs": [
        {
          "internalType": "uint256",
          "name": "",
          "type": "uint256"
        }
      ],
      "stateMutability": "view",
      "type": "function"
    },
    {
      "inputs": [
        {
          "internalType": "uint256",
          "name": "tokenId",
          "type": "uint256"
        }
      ],
      "name": "ownerOf",
      "outputs": [
        {
          "internalType": "address",
          "name": "",
          "type": "address"
        }
      ],
      "stateMutability": "view",
      "type": "function"
    },
    {
      "inputs": [
        {
          "internalType": "uint256",
          "name": "",
          "type": "uint256"
        }
      ],
      "name": "platforms",
      "outputs": [
        {
          "internalType": "uint256",
          "name": "id",
          "type": "uint256"
        },
        {
          "internalType": "string",
          "name": "name",
          "type": "string"
        },
        {
          "internalType": "string",
          "name": "dataUri",
          "type": "string"
        },
        {
          "internalType": "uint16",
          "name": "fee",
          "type": "uint16"
        },
        {
          "internalType": "contract Arbitrator",
          "name": "arbitrator",
          "type": "address"
        },
        {
          "internalType": "bytes",
          "name": "arbitratorExtraData",
          "type": "bytes"
        },
        {
          "internalType": "uint256",
          "name": "arbitrationFeeTimeout",
          "type": "uint256"
        }
      ],
      "stateMutability": "view",
      "type": "function"
    },
    {
      "inputs": [],
      "name": "recoveryRoot",
      "outputs": [
        {
          "internalType": "bytes32",
          "name": "",
          "type": "bytes32"
        }
      ],
      "stateMutability": "view",
      "type": "function"
    },
    {
      "inputs": [
        {
          "internalType": "address",
          "name": "_arbitrator",
          "type": "address"
        }
      ],
      "name": "removeArbitrator",
      "outputs": [],
      "stateMutability": "nonpayable",
      "type": "function"
    },
    {
      "inputs": [
        {
          "internalType": "bytes32",
          "name": "role",
          "type": "bytes32"
        },
        {
          "internalType": "address",
          "name": "account",
          "type": "address"
        }
      ],
      "name": "renounceRole",
      "outputs": [],
      "stateMutability": "nonpayable",
      "type": "function"
    },
    {
      "inputs": [
        {
          "internalType": "bytes32",
          "name": "role",
          "type": "bytes32"
        },
        {
          "internalType": "address",
          "name": "account",
          "type": "address"
        }
      ],
      "name": "revokeRole",
      "outputs": [],
      "stateMutability": "nonpayable",
      "type": "function"
    },
    {
      "inputs": [
        {
          "internalType": "address",
          "name": "from",
          "type": "address"
        },
        {
          "internalType": "address",
          "name": "to",
          "type": "address"
        },
        {
          "internalType": "uint256",
          "name": "tokenId",
          "type": "uint256"
        }
      ],
      "name": "safeTransferFrom",
      "outputs": [],
      "stateMutability": "nonpayable",
      "type": "function"
    },
    {
      "inputs": [
        {
          "internalType": "address",
          "name": "from",
          "type": "address"
        },
        {
          "internalType": "address",
          "name": "to",
          "type": "address"
        },
        {
          "internalType": "uint256",
          "name": "tokenId",
          "type": "uint256"
        },
        {
          "internalType": "bytes",
          "name": "_data",
          "type": "bytes"
        }
      ],
      "name": "safeTransferFrom",
      "outputs": [],
      "stateMutability": "nonpayable",
      "type": "function"
    },
    {
      "inputs": [
        {
          "internalType": "address",
          "name": "operator",
          "type": "address"
        },
        {
          "internalType": "bool",
          "name": "approved",
          "type": "bool"
        }
      ],
      "name": "setApprovalForAll",
      "outputs": [],
      "stateMutability": "nonpayable",
      "type": "function"
    },
    {
      "inputs": [
        {
          "internalType": "bytes4",
          "name": "interfaceId",
          "type": "bytes4"
        }
      ],
      "name": "supportsInterface",
      "outputs": [
        {
          "internalType": "bool",
          "name": "",
          "type": "bool"
        }
      ],
      "stateMutability": "view",
      "type": "function"
    },
    {
      "inputs": [],
      "name": "symbol",
      "outputs": [
        {
          "internalType": "string",
          "name": "",
          "type": "string"
        }
      ],
      "stateMutability": "view",
      "type": "function"
    },
    {
      "inputs": [
        {
          "internalType": "string",
          "name": "",
          "type": "string"
        }
      ],
      "name": "takenNames",
      "outputs": [
        {
          "internalType": "bool",
          "name": "",
          "type": "bool"
        }
      ],
      "stateMutability": "view",
      "type": "function"
    },
    {
      "inputs": [
        {
          "internalType": "uint256",
          "name": "tokenId",
          "type": "uint256"
        }
      ],
      "name": "tokenURI",
      "outputs": [
        {
          "internalType": "string",
          "name": "",
          "type": "string"
        }
      ],
      "stateMutability": "view",
      "type": "function"
    },
    {
      "inputs": [],
      "name": "totalSupply",
      "outputs": [
        {
          "internalType": "uint256",
          "name": "",
          "type": "uint256"
        }
      ],
      "stateMutability": "view",
      "type": "function"
    },
    {
      "inputs": [
        {
          "internalType": "address",
          "name": "from",
          "type": "address"
        },
        {
          "internalType": "address",
          "name": "to",
          "type": "address"
        },
        {
          "internalType": "uint256",
          "name": "tokenId",
          "type": "uint256"
        }
      ],
      "name": "transferFrom",
      "outputs": [],
      "stateMutability": "nonpayable",
      "type": "function"
    },
    {
      "inputs": [
        {
          "internalType": "uint256",
          "name": "_platformId",
          "type": "uint256"
        },
        {
          "internalType": "uint256",
          "name": "_arbitrationFeeTimeout",
          "type": "uint256"
        }
      ],
      "name": "updateArbitrationFeeTimeout",
      "outputs": [],
      "stateMutability": "nonpayable",
      "type": "function"
    },
    {
      "inputs": [
        {
          "internalType": "uint256",
          "name": "_platformId",
          "type": "uint256"
        },
        {
          "internalType": "contract Arbitrator",
          "name": "_arbitrator",
          "type": "address"
        },
        {
          "internalType": "bytes",
          "name": "_extraData",
          "type": "bytes"
        }
      ],
      "name": "updateArbitrator",
      "outputs": [],
      "stateMutability": "nonpayable",
      "type": "function"
    },
    {
      "inputs": [
        {
          "internalType": "uint256",
          "name": "_minArbitrationFeeTimeout",
          "type": "uint256"
        }
      ],
      "name": "updateMinArbitrationFeeTimeout",
      "outputs": [],
      "stateMutability": "nonpayable",
      "type": "function"
    },
    {
      "inputs": [
        {
          "internalType": "uint256",
          "name": "_mintFee",
          "type": "uint256"
        }
      ],
      "name": "updateMintFee",
      "outputs": [],
      "stateMutability": "nonpayable",
      "type": "function"
    },
    {
      "inputs": [
        {
          "internalType": "uint256",
          "name": "_platformId",
          "type": "uint256"
        },
        {
          "internalType": "uint16",
          "name": "_platformEscrowFeeRate",
          "type": "uint16"
        }
      ],
      "name": "updatePlatformEscrowFeeRate",
      "outputs": [],
      "stateMutability": "nonpayable",
      "type": "function"
    },
    {
      "inputs": [
        {
          "internalType": "uint256",
          "name": "_platformId",
          "type": "uint256"
        },
        {
          "internalType": "string",
          "name": "_newCid",
          "type": "string"
        }
      ],
      "name": "updateProfileData",
      "outputs": [],
      "stateMutability": "nonpayable",
      "type": "function"
    },
    {
      "inputs": [
        {
          "internalType": "bytes32",
          "name": "_newRoot",
          "type": "bytes32"
        }
      ],
      "name": "updateRecoveryRoot",
      "outputs": [],
      "stateMutability": "nonpayable",
      "type": "function"
    },
    {
      "inputs": [
        {
          "internalType": "address",
          "name": "",
          "type": "address"
        }
      ],
      "name": "validArbitrators",
      "outputs": [
        {
          "internalType": "bool",
          "name": "",
          "type": "bool"
        }
      ],
      "stateMutability": "view",
      "type": "function"
    },
    {
      "inputs": [],
      "name": "withdraw",
      "outputs": [],
      "stateMutability": "nonpayable",
      "type": "function"
    }
  ],
  "bytecode": "0x60806040523480156200001157600080fd5b50604080518082018252601581527f54616c656e744c61796572506c6174666f726d494400000000000000000000006020808301918252835180850190945260048452631514125160e21b90840152815191929162000073916002916200049e565b508051620000899060039060208401906200049e565b5050600160009081556200009f91503362000119565b620000cb7f154c00819833dac601ee5ddded6fda79d9d8b506b911b3dbd54cdb95fe6c36863362000119565b6000600f8190558052600d6020527f81955a0a11e65eac625c29e8882660bae4e165a75d72780094acae8ece9a29ee805460ff19166001179055620001136201518062000129565b620006fb565b62000125828262000172565b5050565b6000620001368162000216565b60108290556040518281527fa39eb462f98ec2e2a17ca5c7f2a0a247d212213bf0c78a6e2a3df704911ef6019060200160405180910390a15050565b60008281526008602090815260408083206001600160a01b038516845290915290205460ff16620001255760008281526008602090815260408083206001600160a01b03851684529091529020805460ff19166001179055620001d23390565b6001600160a01b0316816001600160a01b0316837f2f8788117e7eff1d82e926ec794901d17c78024a50270940304540a733656f0d60405160405180910390a45050565b62000222813362000225565b50565b60008281526008602090815260408083206001600160a01b038516845290915290205460ff1662000125576200026681620002c060201b62001b671760201c565b6200027c83602062001b79620002de821b17811c565b6040516020016200028f92919062000577565b60408051601f198184030181529082905262461bcd60e51b8252620002b791600401620005f0565b60405180910390fd5b6060620002d86001600160a01b0383166014620002de565b92915050565b60606000620002ef8360026200063b565b620002fc9060026200065d565b6001600160401b0381111562000316576200031662000678565b6040519080825280601f01601f19166020018201604052801562000341576020820181803683370190505b509050600360fc1b816000815181106200035f576200035f6200068e565b60200101906001600160f81b031916908160001a905350600f60fb1b816001815181106200039157620003916200068e565b60200101906001600160f81b031916908160001a9053506000620003b78460026200063b565b620003c49060016200065d565b90505b600181111562000446576f181899199a1a9b1b9c1cb0b131b232b360811b85600f1660108110620003fc57620003fc6200068e565b1a60f81b8282815181106200041557620004156200068e565b60200101906001600160f81b031916908160001a90535060049490941c936200043e81620006a4565b9050620003c7565b508315620004975760405162461bcd60e51b815260206004820181905260248201527f537472696e67733a20686578206c656e67746820696e73756666696369656e746044820152606401620002b7565b9392505050565b828054620004ac90620006be565b90600052602060002090601f016020900481019282620004d057600085556200051b565b82601f10620004eb57805160ff19168380011785556200051b565b828001600101855582156200051b579182015b828111156200051b578251825591602001919060010190620004fe565b50620005299291506200052d565b5090565b5b808211156200052957600081556001016200052e565b60005b838110156200056157818101518382015260200162000547565b8381111562000571576000848401525b50505050565b7f416363657373436f6e74726f6c3a206163636f756e7420000000000000000000815260008351620005b181601785016020880162000544565b7001034b99036b4b9b9b4b733903937b6329607d1b6017918401918201528351620005e481602884016020880162000544565b01602801949350505050565b60208152600082518060208401526200061181604085016020870162000544565b601f01601f19169190910160400192915050565b634e487b7160e01b600052601160045260246000fd5b600081600019048311821515161562000658576200065862000625565b500290565b6000821982111562000673576200067362000625565b500190565b634e487b7160e01b600052604160045260246000fd5b634e487b7160e01b600052603260045260246000fd5b600081620006b657620006b662000625565b506000190190565b600181811c90821680620006d357607f821691505b60208210811415620006f557634e487b7160e01b600052602260045260246000fd5b50919050565b6149c6806200070b6000396000f3fe60806040526004361061027d5760003560e01c806395d89b411161014f578063cb8faafa116100c1578063e9a9c8501161007a578063e9a9c85014610808578063f160068f1461083c578063f53af22d1461085c578063f577a5001461087c578063f6f378441461089c578063faa992d3146108b257600080fd5b8063cb8faafa1461071c578063d547741f1461073c578063d85d3d271461075c578063dc33e6811461076f578063de8295921461078f578063e985e9c5146107bf57600080fd5b8063a4f524a911610113578063a4f524a914610659578063aa44caaf14610679578063acd63f1b14610699578063b88d4fde146106c9578063c37e154e146106e9578063c87b56dd146106fc57600080fd5b806395d89b41146105b4578063973ad270146105c9578063a217fddf146105e9578063a22cb465146105fe578063a383c6921461061e57600080fd5b806336568abe116101f35780634f7f0302116101ac5780634f7f0302146104c05780635bd22c98146105075780636352211e1461053457806370a082311461055457806384017e521461057457806391d148541461059457600080fd5b806336568abe1461041b5780633ccfd60b1461043b5780633ce12f6d146104505780633e6acfe01461047057806342842e0e146103ab57806348203b301461049057600080fd5b806313966db51161024557806313966db51461035357806318160ddd1461037757806319aeca931461039557806323b872dd146103ab578063248a9ca3146103cb5780632f2ff15d146103fb57600080fd5b806301c32c851461028257806301ffc9a7146102a457806306fdde03146102d9578063081812fc146102fb578063095ea7b314610333575b600080fd5b34801561028e57600080fd5b506102a261029d36600461265c565b6108e5565b005b3480156102b057600080fd5b506102c46102bf36600461268b565b61092d565b60405190151581526020015b60405180910390f35b3480156102e557600080fd5b506102ee61094d565b6040516102d09190612700565b34801561030757600080fd5b5061031b61031636600461265c565b6109df565b6040516001600160a01b0390911681526020016102d0565b34801561033f57600080fd5b506102a261034e366004612728565b610a23565b34801561035f57600080fd5b50610369600f5481565b6040519081526020016102d0565b34801561038357600080fd5b50610369600154600054036000190190565b3480156103a157600080fd5b5061036960095481565b3480156103b757600080fd5b506102a26103c6366004612754565b610ac3565b3480156103d757600080fd5b506103696103e636600461265c565b60009081526008602052604090206001015490565b34801561040757600080fd5b506102a2610416366004612795565b610afe565b34801561042757600080fd5b506102a2610436366004612795565b610b28565b34801561044757600080fd5b506102a2610ba6565b34801561045c57600080fd5b506102a261046b36600461265c565b610c49565b34801561047c57600080fd5b506102a261048b366004612868565b610c5a565b34801561049c57600080fd5b506102c46104ab3660046128c1565b600d6020526000908152604090205460ff1681565b3480156104cc57600080fd5b506104f46104db36600461265c565b6000908152600b602052604090206003015461ffff1690565b60405161ffff90911681526020016102d0565b34801561051357600080fd5b5061052761052236600461265c565b610e12565b6040516102d091906128de565b34801561054057600080fd5b5061031b61054f36600461265c565b6110e1565b34801561056057600080fd5b5061036961056f3660046128c1565b6110ec565b34801561058057600080fd5b506102a261058f36600461265c565b61113b565b3480156105a057600080fd5b506102c46105af366004612795565b61117b565b3480156105c057600080fd5b506102ee6111a6565b3480156105d557600080fd5b506102a26105e43660046128c1565b6111b5565b3480156105f557600080fd5b50610369600081565b34801561060a57600080fd5b506102a2610619366004612978565b6111f7565b34801561062a57600080fd5b506102c46106393660046129ab565b8051602081830181018051600a8252928201919093012091525460ff1681565b34801561066557600080fd5b506102a26106743660046129e0565b61128d565b34801561068557600080fd5b506103696106943660046128c1565b611377565b3480156106a557600080fd5b506102c46106b43660046128c1565b600e6020526000908152604090205460ff1681565b3480156106d557600080fd5b506102a26106e4366004612a02565b611406565b6102a26106f7366004612a6e565b611450565b34801561070857600080fd5b506102ee61071736600461265c565b6115c9565b34801561072857600080fd5b506102a2610737366004612978565b6115d4565b34801561074857600080fd5b506102a2610757366004612795565b611623565b6102a261076a3660046129ab565b611648565b34801561077b57600080fd5b5061036961078a3660046128c1565b6117ba565b34801561079b57600080fd5b506102c46107aa3660046128c1565b600c6020526000908152604090205460ff1681565b3480156107cb57600080fd5b506102c46107da366004612ab5565b6001600160a01b03918216600090815260076020908152604080832093909416825291909152205460ff1690565b34801561081457600080fd5b506103697f154c00819833dac601ee5ddded6fda79d9d8b506b911b3dbd54cdb95fe6c368681565b34801561084857600080fd5b506102a2610857366004612ae3565b6117c5565b34801561086857600080fd5b506102a2610877366004612b2a565b611895565b34801561088857600080fd5b506102a261089736600461265c565b61191d565b3480156108a857600080fd5b5061036960105481565b3480156108be57600080fd5b506108d26108cd36600461265c565b611982565b6040516102d09796959493929190612b56565b60006108f081611d1c565b60108290556040518281527fa39eb462f98ec2e2a17ca5c7f2a0a247d212213bf0c78a6e2a3df704911ef601906020015b60405180910390a15050565b600061093882611d26565b80610947575061094782611d74565b92915050565b60606002805461095c90612bc3565b80601f016020809104026020016040519081016040528092919081815260200182805461098890612bc3565b80156109d55780601f106109aa576101008083540402835291602001916109d5565b820191906000526020600020905b8154815290600101906020018083116109b857829003601f168201915b5050505050905090565b60006109ea82611da9565b610a07576040516333d1c03960e21b815260040160405180910390fd5b506000908152600660205260409020546001600160a01b031690565b6000610a2e826110e1565b9050336001600160a01b03821614610a6757610a4a81336107da565b610a67576040516367d9dca160e11b815260040160405180910390fd5b60008281526006602052604080822080546001600160a01b0319166001600160a01b0387811691821790925591518593918516917f8c5be1e5ebec7d5bd14f71427d1e84f3dd0314c0f7b2291e5b200ac8c7c3b92591a4505050565b60405162461bcd60e51b815260206004820152600b60248201526a139bdd08185b1b1bddd95960aa1b60448201526064015b60405180910390fd5b600082815260086020526040902060010154610b1981611d1c565b610b238383611dde565b505050565b6001600160a01b0381163314610b985760405162461bcd60e51b815260206004820152602f60248201527f416363657373436f6e74726f6c3a2063616e206f6e6c792072656e6f756e636560448201526e103937b632b9903337b91039b2b63360891b6064820152608401610af5565b610ba28282611e64565b5050565b6000610bb181611d1c565b604051600090339047908381818185875af1925050503d8060008114610bf3576040519150601f19603f3d011682016040523d82523d6000602084013e610bf8565b606091505b5050905080610ba25760405162461bcd60e51b815260206004820152601860248201527f4661696c656420746f20776974686472617720457468657200000000000000006044820152606401610af5565b6000610c5481611d1c565b50600955565b33610c64846110e1565b6001600160a01b031614610c8a5760405162461bcd60e51b8152600401610af590612bfe565b6001600160a01b0382166000908152600d602052604090205460ff16610d045760405162461bcd60e51b815260206004820152602960248201527f5468652061646472657373206d757374206265206f6620612076616c69642061604482015268393134ba3930ba37b960b91b6064820152608401610af5565b6000838152600b60209081526040808320600301805462010000600160b01b031916620100006001600160a01b038816908102919091179091558352600e90915290205460ff1615610d965760408051602081018590520160408051601f198184030181529181526000858152600b60209081529190208251610d9093600490920192909101906125c3565b50610dbd565b6000838152600b602090815260409091208251610dbb926004909201918401906125c3565b505b7f4f1d179d53629f07a3ca3cde19840349df6dadc8fc11ac201c272ec77b8673d28383600b6000878152602001908152602001600020600401604051610e0593929190612c43565b60405180910390a1505050565b610e5f6040518060e00160405280600081526020016060815260200160608152602001600061ffff16815260200160006001600160a01b0316815260200160608152602001600081525090565b600082118015610e7f5750610e7b600154600054036000190190565b8211155b610ecb5760405162461bcd60e51b815260206004820152601e60248201527f5468697320706c617465466f726d204964206973206e6f742076616c696400006044820152606401610af5565b600b60008381526020019081526020016000206040518060e001604052908160008201548152602001600182018054610f0390612bc3565b80601f0160208091040260200160405190810160405280929190818152602001828054610f2f90612bc3565b8015610f7c5780601f10610f5157610100808354040283529160200191610f7c565b820191906000526020600020905b815481529060010190602001808311610f5f57829003601f168201915b50505050508152602001600282018054610f9590612bc3565b80601f0160208091040260200160405190810160405280929190818152602001828054610fc190612bc3565b801561100e5780601f10610fe35761010080835404028352916020019161100e565b820191906000526020600020905b815481529060010190602001808311610ff157829003601f168201915b5050509183525050600382015461ffff811660208301526201000090046001600160a01b0316604082015260048201805460609092019161104e90612bc3565b80601f016020809104026020016040519081016040528092919081815260200182805461107a90612bc3565b80156110c75780601f1061109c576101008083540402835291602001916110c7565b820191906000526020600020905b8154815290600101906020018083116110aa57829003601f168201915b505050505081526020016005820154815250509050919050565b600061094782611ecb565b60006001600160a01b038216611115576040516323d3ad8160e21b815260040160405180910390fd5b506001600160a01b031660009081526005602052604090205467ffffffffffffffff1690565b600061114681611d1c565b600f8290556040518281527f38fbb1c8b109c430f0c030e7ed076cf5611a307773a4e8e365601e8f8bceaec690602001610921565b60009182526008602090815260408084206001600160a01b0393909316845291905290205460ff1690565b60606003805461095c90612bc3565b60006111c081611d1c565b506001600160a01b03166000908152600d60209081526040808320805460ff19908116909155600e90925290912080549091169055565b6001600160a01b0382163314156112215760405163b06307db60e01b815260040160405180910390fd5b3360008181526007602090815260408083206001600160a01b03871680855290835292819020805460ff191686151590811790915590519081529192917f17307eab39ab6107e8899845ad3d59bd9653f200f220920489ca2b5937696c31910160405180910390a35050565b33611297836110e1565b6001600160a01b0316146112bd5760405162461bcd60e51b8152600401610af590612bfe565b60105481101561132c5760405162461bcd60e51b815260206004820152603460248201527f5468652074696d656f7574206d7573742062652067726561746572207468616e604482015273081d1a19481b5a5b9a5b5d5b481d1a5b595bdd5d60621b6064820152608401610af5565b6000828152600b602090815260409182902060050183905581518481529081018390527face552c85eed7b5cf46330833e6f28b1f5ce696a4532e483192b5a64e4565e599101610921565b6000806001815b61138f600154600054036000190190565b82116113fd5760006113a083611f34565b905080604001511580156113bd575080516001600160a01b031615155b156113c757805191505b856001600160a01b0316826001600160a01b031614156113ea57829350506113fd565b826113f481612d19565b9350505061137e565b50909392505050565b611411848484610ac3565b6001600160a01b0383163b1561144a5761142d84848484611fac565b61144a576040516368d2bf6b60e11b815260040160405180910390fd5b50505050565b8181600f5434146114735760405162461bcd60e51b8152600401610af590612d34565b61147c816117ba565b156114995760405162461bcd60e51b8152600401610af590612d78565b6002825110156114dc5760405162461bcd60e51b815260206004820152600e60248201526d13985b59481d1bdbc81cda1bdc9d60921b6044820152606401610af5565b600a8251111561151e5760405162461bcd60e51b815260206004820152600d60248201526c4e616d6520746f6f206c6f6e6760981b6044820152606401610af5565b600a8260405161152e9190612dd6565b9081526040519081900360200190205460ff16156115835760405162461bcd60e51b81526020600482015260126024820152712730b6b29030b63932b0b23c903a30b5b2b760711b6044820152606401610af5565b7f154c00819833dac601ee5ddded6fda79d9d8b506b911b3dbd54cdb95fe6c36866115ad81611d1c565b6115b88460016120a4565b6115c285856120be565b5050505050565b60606109478261218f565b60006115df81611d1c565b506001600160a01b039091166000908152600d60209081526040808320805460ff19908116600117909155600e909252909120805492151592909116919091179055565b60008281526008602052604090206001015461163e81611d1c565b610b238383611e64565b8033600f54341461166b5760405162461bcd60e51b8152600401610af590612d34565b611674816117ba565b156116915760405162461bcd60e51b8152600401610af590612d78565b6002825110156116d45760405162461bcd60e51b815260206004820152600e60248201526d13985b59481d1bdbc81cda1bdc9d60921b6044820152606401610af5565b600a825111156117165760405162461bcd60e51b815260206004820152600d60248201526c4e616d6520746f6f206c6f6e6760981b6044820152606401610af5565b600a826040516117269190612dd6565b9081526040519081900360200190205460ff161561177b5760405162461bcd60e51b81526020600482015260126024820152712730b6b29030b63932b0b23c903a30b5b2b760711b6044820152606401610af5565b7f154c00819833dac601ee5ddded6fda79d9d8b506b911b3dbd54cdb95fe6c36866117a581611d1c565b6117b03360016120a4565b61144a84336120be565b6000610947826110ec565b336117cf836110e1565b6001600160a01b0316146117e257600080fd5b60008151116118335760405162461bcd60e51b815260206004820152601f60248201527f53686f756c642070726f7669646520612076616c6964204950465320555249006044820152606401610af5565b6000828152600b602090815260409091208251611858926002909201918401906125c3565b50817f613807bd6768f626264e7eb664a65ca99a0d930f8fd8a5b868491a592eb57f72826040516118899190612700565b60405180910390a25050565b3361189f836110e1565b6001600160a01b0316146118c55760405162461bcd60e51b8152600401610af590612bfe565b6000828152600b6020908152604091829020600301805461ffff191661ffff85169081179091558251858152918201527f23c7253d559359d164ea866065c1857f84edf5b53c96e2a2a3e11177bf526a239101610921565b60008111801561193d5750611939600154600054036000190190565b8111155b61197f5760405162461bcd60e51b8152602060048201526013602482015272125b9d985b1a59081c1b185d199bdc9b481251606a1b6044820152606401610af5565b50565b600b60205260009081526040902080546001820180549192916119a490612bc3565b80601f01602080910402602001604051908101604052809291908181526020018280546119d090612bc3565b8015611a1d5780601f106119f257610100808354040283529160200191611a1d565b820191906000526020600020905b815481529060010190602001808311611a0057829003601f168201915b505050505090806002018054611a3290612bc3565b80601f0160208091040260200160405190810160405280929190818152602001828054611a5e90612bc3565b8015611aab5780601f10611a8057610100808354040283529160200191611aab565b820191906000526020600020905b815481529060010190602001808311611a8e57829003601f168201915b505050506003830154600484018054939461ffff831694620100009093046001600160a01b0316935091611ade90612bc3565b80601f0160208091040260200160405190810160405280929190818152602001828054611b0a90612bc3565b8015611b575780601f10611b2c57610100808354040283529160200191611b57565b820191906000526020600020905b815481529060010190602001808311611b3a57829003601f168201915b5050505050908060050154905087565b60606109476001600160a01b03831660145b60606000611b88836002612df2565b611b93906002612e11565b67ffffffffffffffff811115611bab57611bab6127c5565b6040519080825280601f01601f191660200182016040528015611bd5576020820181803683370190505b509050600360fc1b81600081518110611bf057611bf0612e29565b60200101906001600160f81b031916908160001a905350600f60fb1b81600181518110611c1f57611c1f612e29565b60200101906001600160f81b031916908160001a9053506000611c43846002612df2565b611c4e906001612e11565b90505b6001811115611cc6576f181899199a1a9b1b9c1cb0b131b232b360811b85600f1660108110611c8257611c82612e29565b1a60f81b828281518110611c9857611c98612e29565b60200101906001600160f81b031916908160001a90535060049490941c93611cbf81612e3f565b9050611c51565b508315611d155760405162461bcd60e51b815260206004820181905260248201527f537472696e67733a20686578206c656e67746820696e73756666696369656e746044820152606401610af5565b9392505050565b61197f81336122b9565b60006301ffc9a760e01b6001600160e01b031983161480611d5757506380ac58cd60e01b6001600160e01b03198316145b806109475750506001600160e01b031916635b5e139f60e01b1490565b60006001600160e01b03198216637965db0b60e01b148061094757506301ffc9a760e01b6001600160e01b0319831614610947565b600081600111158015611dbd575060005482105b8015610947575050600090815260046020526040902054600160e01b161590565b611de8828261117b565b610ba25760008281526008602090815260408083206001600160a01b03851684529091529020805460ff19166001179055611e203390565b6001600160a01b0316816001600160a01b0316837f2f8788117e7eff1d82e926ec794901d17c78024a50270940304540a733656f0d60405160405180910390a45050565b611e6e828261117b565b15610ba25760008281526008602090815260408083206001600160a01b0385168085529252808320805460ff1916905551339285917ff6391f5c32d9c69d2a47ea670b442974b53935d1edc7fd64eb21e047a839171b9190a45050565b60008180600111611f1b57600054811015611f1b57600081815260046020526040902054600160e01b8116611f19575b80611d15575060001901600081815260046020526040902054611efb565b505b604051636f96cda160e11b815260040160405180910390fd5b604080516080810182526000808252602082018190529181018290526060810191909152610947611f6483611ecb565b604080516080810182526001600160a01b038316815260a083901c67ffffffffffffffff166020820152600160e01b831615159181019190915260e89190911c606082015290565b604051630a85bd0160e11b81526000906001600160a01b0385169063150b7a0290611fe1903390899088908890600401612e56565b602060405180830381600087803b158015611ffb57600080fd5b505af192505050801561202b575060408051601f3d908101601f1916820190925261202891810190612e93565b60015b612086573d808015612059576040519150601f19603f3d011682016040523d82523d6000602084013e61205e565b606091505b50805161207e576040516368d2bf6b60e11b815260040160405180910390fd5b805181602001fd5b6001600160e01b031916630a85bd0160e11b1490505b949350505050565b610ba2828260405180602001604052806000815250612312565b600060016120cb60005490565b6120d59190612eb0565b6000818152600b602090815260409091208551929350916120fe916001840191908701906125c3565b508181556010546005820155604051600190600a9061211e908790612dd6565b908152604051908190036020018120805492151560ff1990931692909217909155600f546010546001600160a01b038616927f8475f1ba3b06c1e11c870cbbf9753ca9a8292ea0b203262f682de476dc268f8c926121819287928a929190612ec7565b60405180910390a250505050565b6000818152600b60205260408120600101805460609291906121b090612bc3565b80601f01602080910402602001604051908101604052809291908181526020018280546121dc90612bc3565b80156122295780601f106121fe57610100808354040283529160200191612229565b820191906000526020600020905b81548152906001019060200180831161220c57829003601f168201915b50505050509050600061225a826040516020016122469190612ef3565b604051602081830303815290604052612378565b60405160200161226a9190614792565b604051602081830303815290604052905061229182826040516020016122469291906147d7565b6040516020016122a19190614874565b60405160208183030381529060405292505050919050565b6122c3828261117b565b610ba2576122d081611b67565b6122db836020611b79565b6040516020016122ec9291906148b9565b60408051601f198184030181529082905262461bcd60e51b8252610af591600401612700565b61231c83836124cc565b6001600160a01b0383163b15610b23576000548281035b6123466000868380600101945086611fac565b612363576040516368d2bf6b60e11b815260040160405180910390fd5b8181106123335781600054146115c257600080fd5b606081516000141561239857505060408051602081019091526000815290565b600060405180606001604052806040815260200161495160409139905060006003845160026123c79190612e11565b6123d1919061492e565b6123dc906004612df2565b67ffffffffffffffff8111156123f4576123f46127c5565b6040519080825280601f01601f19166020018201604052801561241e576020820181803683370190505b509050600182016020820185865187015b8082101561248a576003820191508151603f8160121c168501518453600184019350603f81600c1c168501518453600184019350603f8160061c168501518453600184019350603f811685015184535060018301925061242f565b50506003865106600181146124a657600281146124b9576124c1565b603d6001830353603d60028303536124c1565b603d60018303535b509195945050505050565b600054816124ed5760405163b562e8dd60e01b815260040160405180910390fd5b6001600160a01b03831660008181526005602090815260408083208054680100000000000000018802019055848352600490915281206001851460e11b4260a01b178317905582840190839083907fddf252ad1be2c89b69c2b068fc378daa952ba7f163c4a11628f55a4df523b3ef8180a4600183015b81811461259c57808360007fddf252ad1be2c89b69c2b068fc378daa952ba7f163c4a11628f55a4df523b3ef600080a4600101612564565b50816125ba57604051622e076360e81b815260040160405180910390fd5b60005550505050565b8280546125cf90612bc3565b90600052602060002090601f0160209004810192826125f15760008555612637565b82601f1061260a57805160ff1916838001178555612637565b82800160010185558215612637579182015b8281111561263757825182559160200191906001019061261c565b50612643929150612647565b5090565b5b808211156126435760008155600101612648565b60006020828403121561266e57600080fd5b5035919050565b6001600160e01b03198116811461197f57600080fd5b60006020828403121561269d57600080fd5b8135611d1581612675565b60005b838110156126c35781810151838201526020016126ab565b8381111561144a5750506000910152565b600081518084526126ec8160208601602086016126a8565b601f01601f19169290920160200192915050565b602081526000611d1560208301846126d4565b6001600160a01b038116811461197f57600080fd5b6000806040838503121561273b57600080fd5b823561274681612713565b946020939093013593505050565b60008060006060848603121561276957600080fd5b833561277481612713565b9250602084013561278481612713565b929592945050506040919091013590565b600080604083850312156127a857600080fd5b8235915060208301356127ba81612713565b809150509250929050565b634e487b7160e01b600052604160045260246000fd5b600082601f8301126127ec57600080fd5b813567ffffffffffffffff80821115612807576128076127c5565b604051601f8301601f19908116603f0116810190828211818310171561282f5761282f6127c5565b8160405283815286602085880101111561284857600080fd5b836020870160208301376000602085830101528094505050505092915050565b60008060006060848603121561287d57600080fd5b83359250602084013561288f81612713565b9150604084013567ffffffffffffffff8111156128ab57600080fd5b6128b7868287016127db565b9150509250925092565b6000602082840312156128d357600080fd5b8135611d1581612713565b60208152815160208201526000602083015160e060408401526129056101008401826126d4565b90506040840151601f198085840301606086015261292383836126d4565b925061ffff606087015116608086015260018060a01b0360808701511660a086015260a08601519150808584030160c08601525061296182826126d4565b91505060c084015160e08401528091505092915050565b6000806040838503121561298b57600080fd5b823561299681612713565b9150602083013580151581146127ba57600080fd5b6000602082840312156129bd57600080fd5b813567ffffffffffffffff8111156129d457600080fd5b61209c848285016127db565b600080604083850312156129f357600080fd5b50508035926020909101359150565b60008060008060808587031215612a1857600080fd5b8435612a2381612713565b93506020850135612a3381612713565b925060408501359150606085013567ffffffffffffffff811115612a5657600080fd5b612a62878288016127db565b91505092959194509250565b60008060408385031215612a8157600080fd5b823567ffffffffffffffff811115612a9857600080fd5b612aa4858286016127db565b92505060208301356127ba81612713565b60008060408385031215612ac857600080fd5b8235612ad381612713565b915060208301356127ba81612713565b60008060408385031215612af657600080fd5b82359150602083013567ffffffffffffffff811115612b1457600080fd5b612b20858286016127db565b9150509250929050565b60008060408385031215612b3d57600080fd5b82359150602083013561ffff811681146127ba57600080fd5b87815260e060208201526000612b6f60e08301896126d4565b8281036040840152612b8181896126d4565b61ffff881660608501526001600160a01b038716608085015283810360a08501529050612bae81866126d4565b9150508260c083015298975050505050505050565b600181811c90821680612bd757607f821691505b60208210811415612bf857634e487b7160e01b600052602260045260246000fd5b50919050565b60208082526025908201527f596f75277265206e6f7420746865206f776e6572206f66207468697320706c6160408201526474666f726d60d81b606082015260800190565b8381526000602060018060a01b03851681840152606060408401526000845481600182811c915080831680612c7957607f831692505b858310811415612c9757634e487b7160e01b85526022600452602485fd5b6060880183905260808801818015612cb65760018114612cc757612cf2565b60ff19861682528782019650612cf2565b60008b81526020902060005b86811015612cec57815484820152908501908901612cd3565b83019750505b50949b9a5050505050505050505050565b634e487b7160e01b600052601160045260246000fd5b6000600019821415612d2d57612d2d612d03565b5060010190565b60208082526024908201527f496e636f727265637420616d6f756e74206f662045544820666f72206d696e746040820152632066656560e01b606082015260800190565b60208082526022908201527f506c6174666f726d20616c726561647920686173206120506c6174666f726d20604082015261125160f21b606082015260800190565b60008151612dcc8185602086016126a8565b9290920192915050565b60008251612de88184602087016126a8565b9190910192915050565b6000816000190483118215151615612e0c57612e0c612d03565b500290565b60008219821115612e2457612e24612d03565b500190565b634e487b7160e01b600052603260045260246000fd5b600081612e4e57612e4e612d03565b506000190190565b6001600160a01b0385811682528416602082015260408101839052608060608201819052600090612e89908301846126d4565b9695505050505050565b600060208284031215612ea557600080fd5b8151611d1581612675565b600082821015612ec257612ec2612d03565b500390565b848152608060208201526000612ee060808301866126d4565b6040830194909452506060015292915050565b7f3c73766720786d6c6e733d22687474703a2f2f7777772e77332e6f72672f323081527f30302f737667222076696577426f783d223020302037323020373230223e3c6460208201527f6566733e3c6c696e6561724772616469656e742069643d2261222078313d223660408201527f372e3934222079313d223136392e3438222078323d223637302e39382220793260608201527f3d223536322e383622206772616469656e74556e6974733d227573657253706160808201527f63654f6e557365223e3c73746f70206f66667365743d2230222073746f702d6360a08201527f6f6c6f723d2223313761396332222f3e3c73746f70206f66667365743d222e3160c08201527f32222073746f702d636f6c6f723d2223316161396263222f3e3c73746f70206f60e08201527f66667365743d222e3239222073746f702d636f6c6f723d2223323561626162226101008201527f2f3e3c73746f70206f66667365743d222e3438222073746f702d636f6c6f723d6101208201527f2223333561643866222f3e3c73746f70206f66667365743d222e3634222073746101408201527f6f702d636f6c6f723d2223343862303732222f3e3c73746f70206f66667365746101608201527f3d222e3738222073746f702d636f6c6f723d2223353962323534222f3e3c73746101808201527f6f70206f66667365743d2231222073746f702d636f6c6f723d222337616237326101a08201527f30222f3e3c2f6c696e6561724772616469656e743e3c2f646566733e3c7061746101c08201527f68207374796c653d2266696c6c3a75726c282361292220643d224d30203068376101e08201527f32307637323048307a222f3e3c7061746820643d224d34372e30352039322e336102008201527f375635332e38344833332e32395634366833362e383576372e38344835362e346102208201527f317633382e3532682d392e33365a6d33352e37312d32332e33342d382e30372d6102408201527f312e3436632e39312d332e323520322e34372d352e363520342e36382d372e326102608201527f3120322e32312d312e353620352e352d322e333420392e38372d322e333420336102808201527f2e3936203020362e39322e343720382e383620312e343120312e39342e3934206102a08201527f332e333120322e313320342e3120332e353773312e313920342e3120312e31396102c08201527f20372e39366c2d2e312031302e3337633020322e39352e313420352e31332e346102e08201527f3320362e35332e323820312e342e383220322e393120312e3620342e3531682d6103008201527f382e3739632d2e32332d2e35392d2e35322d312e34372d2e38352d322e36332d6103208201527f2e31352d2e35332d2e32352d2e38382d2e33322d312e30342d312e353220312e6103408201527f34382d332e313420322e35382d342e383720332e3332732d332e353720312e316103608201527f312d352e353420312e3131632d332e343620302d362e31382d2e39342d382e316103808201527f382d322e38322d312e39392d312e38382d322e39392d342e32352d322e39392d6103a08201527f372e313220302d312e392e34352d332e353920312e33362d352e303873322e316103c08201527f382d322e363320332e38312d332e343220332e39392d312e343820372e30372d6103e08201527f322e303763342e31352d2e373820372e30332d312e353120382e36332d322e316104008201527f38762d2e383963302d312e37312d2e34322d322e39332d312e32372d332e36356104208201527f732d322e34342d312e30392d342e37382d312e3039632d312e353820302d322e6104408201527f38322e33312d332e372e39332d2e38392e36322d312e3620312e37312d322e316104608201527f3520332e32375a6d31312e383920372e3231632d312e31342e33382d322e39346104808201527f2e38332d352e343120312e33362d322e34372e35332d342e303820312e30342d6104a08201527f342e383420312e35352d312e31362e38322d312e373420312e38372d312e37346104c08201527f20332e3133732e343620322e333220312e333920332e3233632e39332e3931206104e08201527f322e313120312e333620332e353420312e333620312e36203020332e31332d2e6105008201527f353320342e35392d312e353820312e30382d2e3820312e37382d312e373820326105208201527f2e31322d322e39342e32332d2e37362e33352d322e322e33352d342e3333762d6105408201527f312e37375a6d31372e34392031362e313356343668382e38397634362e3337686105608201527f2d382e38395a6d33372e34352d31302e363920382e383620312e3439632d312e6105808201527f313420332e32352d322e393420352e37322d352e333920372e3432732d352e356105a08201527f3320322e35352d392e323220322e3535632d352e383420302d31302e31362d316105c08201527f2e39312d31322e39372d352e37322d322e32312d332e30362d332e33322d362e6105e08201527f39322d332e33322d31312e353820302d352e353720312e34362d392e393320346106008201527f2e33362d31332e303820322e39312d332e313520362e35392d342e37332031316106208201527f2e30342d342e37332035203020382e393420312e36352031312e383320342e396106408201527f3573342e323720382e333620342e31342031352e3137682d32322e3237632e306106608201527f3620322e36342e373820342e363920322e313520362e313520312e333720312e6106808201527f343720332e303820322e3220352e313220322e3220312e3339203020322e35366106a08201527f2d2e333820332e35312d312e31342e39352d2e373620312e36372d312e3938206106c08201527f322e31352d332e36375a6d2e35312d382e3938632d2e30362d322e35372d2e376106e08201527f332d342e35332d312e39392d352e38372d312e32372d312e33342d322e38312d6107008201527f322e30312d342e36322d322e30312d312e393420302d332e35342e37312d342e6107208201527f383120322e31322d312e323720312e34312d312e383920332e33332d312e38376107408201527f20352e37366831332e32385a6d34362e36322031392e3637682d382e383956376107608201527f352e323363302d332e36332d2e31392d352e39372d2e35372d372e30342d2e336107808201527f382d312e30362d312d312e38392d312e38352d322e3438732d312e38382d2e386107a08201527f392d332e30382d2e3839632d312e353420302d322e39322e34322d342e3134206107c08201527f312e3237732d322e303620312e39362d322e353120332e3335632d2e343520316107e08201527f2e33392d2e363820332e39362d2e363820372e37327631352e3231682d382e386108008201527f395635382e373868382e323676342e393363322e39332d332e3820362e36322d6108208201527f352e36392031312e30372d352e363920312e3936203020332e37352e333520356108408201527f2e333820312e303620312e36322e373120322e383520312e363120332e3638206108608201527f322e372e383320312e3120312e343120322e333420312e373420332e3733732e6108808201527f343920332e33382e343920352e39387632302e38385a6d32342e34322d33332e6108a08201527f353976372e3038682d362e30375637392e34633020322e37342e303620342e336108c08201527f342e313720342e37392e31322e34352e33382e38332e373920312e31322e34316108e08201527f2e332e39312e343420312e352e34342e3832203020322e30312d2e323820332e6109008201527f35372d2e38356c2e373620362e39632d322e30372e38392d342e343120312e336109208201527f332d372e303220312e33332d312e3620302d332e30352d2e32372d342e33332d6109408201527f2e38312d312e32392d2e35342d322e32332d312e32332d322e38332d322e30396109608201527f2d2e362d2e38352d312e30322d322e30312d312e32352d332e34362d2e31392d6109808201527f312e30332d2e32382d332e31322d2e32382d362e32365636352e3836682d342e6109a08201527f3038762d372e303868342e3038762d362e36376c382e39322d352e31397631316109c08201527f2e383668362e30375a6d362e32362033332e353956343668362e31347634302e6109e08201527f396832322e383476352e3437682d32382e39375a6d35372e34372d342e313463610a008201527f2d322e313120312e37392d342e313420332e30362d362e303920332e382d312e610a208201527f39352e37342d342e303420312e31312d362e323820312e31312d332e36392030610a408201527f2d362e35332d2e392d382e35312d322e372d312e39382d312e382d322e39372d610a608201527f342e31312d322e39372d362e393120302d312e36342e33372d332e313520312e610a808201527f31322d342e353173312e37332d322e343520322e39342d332e323763312e3231610aa08201527f2d2e383220322e35382d312e343420342e312d312e383720312e31322d2e3320610ac08201527f322e382d2e353820352e30362d2e383520342e362d2e353520372e39382d312e610ae08201527f322031302e31352d312e39362e30322d2e37382e30332d312e32382e30332d31610b008201527f2e343920302d322e33322d2e35342d332e39352d312e36312d342e392d312e34610b208201527f362d312e32392d332e36322d312e39332d362e34382d312e39332d322e363820610b408201527f302d342e36352e34372d352e393320312e3431732d322e323220322e362d322e610b608201527f383320342e39386c2d352e35372d2e3736632e35312d322e333820312e33342d610b808201527f342e333120322e352d352e373720312e31362d312e343720322e38342d322e35610ba08201527f3920352e30332d332e333820322e31392d2e373920342e37332d312e31392037610bc08201527f2e36322d312e313973352e322e333420362e393920312e303163312e37392e36610be08201527f3820332e313120312e353220332e393520322e35352e383420312e303220312e610c008201527f343320322e333120312e373720332e38382e31392e39372e323820322e37322e610c208201527f323820352e323576372e3539633020352e32392e313220382e36342e33362031610c408201527f302e30342e323420312e342e373220322e373520312e343420342e3033682d35610c608201527f2e3935632d2e35392d312e31382d2e39372d322e35362d312e31342d342e3134610c808201527f5a6d2d2e34372d31322e3732632d322e30372e38342d352e313720312e35362d610ca08201527f392e3320322e31352d322e33342e33342d34202e37322d342e393720312e3134610cc08201527f2d2e39372e34322d312e373220312e30342d322e323520312e3835732d2e3739610ce08201527f20312e37312d2e373920322e37633020312e35322e353720322e373820312e37610d008201527f3220332e3820312e313520312e303120322e383320312e353220352e30352031610d208201527f2e353273342e31342d2e343820352e38352d312e343420322e39362d322e3237610d408201527f20332e37362d332e3934632e36312d312e32392e39322d332e31382e39322d35610d608201527f2e3639762d322e30395a6d31342e33332032392e382d2e36332d352e33356331610d808201527f2e32342e333420322e33332e353120332e32362e353120312e3237203020322e610da08201527f32382d2e323120332e30342d2e363373312e33382d312e303120312e38372d31610dc08201527f2e3737632e33362d2e35372e39342d312e393820312e37342d342e32342e3131610de08201527f2d2e33322e32372d2e37382e35312d312e33396c2d31322e37352d33332e3635610e008201527f68362e31346c362e39392031392e3435632e393120322e343720312e37322035610e208201527f2e303620322e343420372e37382e36352d322e363120312e34332d352e313720610e408201527f322e33342d372e36356c372e31382d31392e353868352e36396c2d31322e3738610e608201527f2033342e3136632d312e333720332e36392d322e343420362e32332d332e3139610e808201527f20372e36322d312e303120312e38382d322e313720332e32352d332e34382034610ea08201527f2e31332d312e33312e38382d322e383720312e33312d342e363820312e33312d610ec08201527f312e3120302d322e33322d2e32332d332e36372d2e375a6d35352e36332d3233610ee08201527f2e373620352e38382e3733632d2e393320332e34342d322e363520362e312d35610f008201527f2e313620382d322e353120312e392d352e373120322e38352d392e363220322e610f208201527f38352d342e393120302d382e38312d312e35312d31312e36392d342e35342d32610f408201527f2e38382d332e30332d342e33322d372e32372d342e33322d31322e373373312e610f608201527f34362d31302e303420342e33362d31332e313663322e39312d332e313220362e610f808201527f36382d342e36382031312e33322d342e363873382e313620312e35332031312e610fa08201527f303120342e353963322e383520332e303620342e323720372e333620342e3237610fc08201527f2031322e39312030202e33342d2e30312e38342d2e303320312e3532682d3235610fe08201527f2e3035632e323120332e363920312e323520362e353220332e313320382e34386110008201527f20312e383820312e393620342e323220322e393420372e303220322e393420326110208201527f2e3039203020332e38372d2e353520352e33352d312e363420312e34382d312e6110408201527f3120322e36352d322e383520332e35312d352e32355a6d2d31382e36392d392e6110608201527f326831382e3736632d2e32352d322e38332d2e39372d342e39342d322e31352d6110808201527f362e33362d312e38312d322e31392d342e31372d332e32392d372e30352d332e6110a08201527f32392d322e363120302d342e38312e38382d362e3620322e3633732d322e37376110c08201527f20342e30392d322e393620372e30325a6d33312e36362032302e30325635382e6110e08201527f373868352e313276352e303963312e33312d322e333820322e35312d332e39356111008201527f20332e36322d342e373173322e33322d312e313420332e36352d312e313463316111208201527f2e3932203020332e38372e363120352e383520312e38336c2d312e393620352e6111408201527f3238632d312e33392d2e38322d322e37382d312e32332d342e31382d312e32336111608201527f2d312e323420302d322e33362e33372d332e333520312e31322d2e39392e37356111808201527f2d312e3720312e37392d322e313220332e31322d2e363320322e30322d2e39356111a08201527f20342e32342d2e393520362e36347631372e3539682d352e36395a6d32312e376111c08201527f39203056343668392e33367634362e3337682d392e33365a4d3430372e3337206111e08201527f34366831372e313163332e3836203020362e382e3320382e38332e383920322e6112008201527f37322e3820352e303520322e323220362e393920342e323720312e393420322e6112208201527f303520332e343220342e353520342e343320372e353120312e303120322e39366112408201527f20312e353220362e363220312e35322031302e3936203020332e38322d2e34376112608201527f20372e31312d312e343220392e38372d312e313620332e33372d322e383220366112808201527f2e312d342e393720382e31392d312e363220312e35382d332e383220322e38326112a08201527f2d362e353820332e372d322e30372e36352d342e38332e39382d382e32392e396112c08201527f38682d31372e36325634365a6d392e333620372e38347633302e373168362e396112e08201527f3963322e3631203020342e352d2e313520352e36362d2e343420312e35322d2e6113008201527f333820322e37382d312e303220332e37382d312e393320312d2e393120312e386113208201527f322d322e3420322e34352d342e34382e36332d322e30382e39352d342e39312e6113408201527f39352d382e3439732d2e33322d362e33342d2e39352d382e32362d312e35322d6113608201527f332e34322d322e36362d342e34392d322e35382d312e382d342e33332d322e316113808201527f38632d312e33312d2e332d332e38372d2e34342d372e36392d2e3434682d342e6113a08201527f32315a22207374796c653d2266696c6c3a23666666222f3e3c7465787420793d6113c08201527f223637302220783d22333022207374796c653d22666f6e743a373070782073616113e082015273373996b9b2b934b31db334b6361d11b33333111f60611b6114008201526000611d15614779611414840185612dba565b6c1e17ba32bc3a1f1e17b9bb339f60991b8152600d0190565b7f646174613a696d6167652f7376672b786d6c3b6261736536342c0000000000008152600082516147ca81601a8501602087016126a8565b91909101601a0192915050565b683d913730b6b2911d1160b91b815282516000906147fc8160098501602088016126a8565b6b1116101134b6b0b3b2911d1160a11b60099184019182015283516148288160158401602088016126a8565b7f222c20226465736372697074696f6e223a202254616c656e74204c6179657220601592909101918201526c506c6174666f726d204944227d60981b6035820152604201949350505050565b7f646174613a6170706c69636174696f6e2f6a736f6e3b6261736536342c0000008152600082516148ac81601d8501602087016126a8565b91909101601d0192915050565b7f416363657373436f6e74726f6c3a206163636f756e74200000000000000000008152600083516148f18160178501602088016126a8565b7001034b99036b4b9b9b4b733903937b6329607d1b60179184019182015283516149228160288401602088016126a8565b01602801949350505050565b60008261494b57634e487b7160e01b600052601260045260246000fd5b50049056fe4142434445464748494a4b4c4d4e4f505152535455565758595a6162636465666768696a6b6c6d6e6f707172737475767778797a303132333435363738392b2fa2646970667358221220413cf4e510c3347e71d29e7151c6f3cf5cbf928da8c24d1d1bea42677b6e0bdc64736f6c63430008090033",
  "linkReferences": {},
  "deployedLinkReferences": {}
}