{
  "_format": "hh-sol-artifact-1",
  "contractName": "MockProofOfHumanity",
  "sourceName": "contracts/Mocks/MockProofOfHumanity.sol",
  "abi": [
    {
      "inputs": [],
      "stateMutability": "nonpayable",
      "type": "constructor"
    },
    {
      "anonymous": false,
      "inputs": [
        {
          "indexed": true,
          "internalType": "address",
          "name": "previousOwner",
          "type": "address"
        },
        {
          "indexed": true,
          "internalType": "address",
          "name": "newOwner",
          "type": "address"
        }
      ],
      "name": "OwnershipTransferred",
      "type": "event"
    },
    {
      "inputs": [
        {
          "internalType": "address[]",
          "name": "_submissionIDs",
          "type": "address[]"
        }
      ],
      "name": "addSubmissionManually",
      "outputs": [],
      "stateMutability": "nonpayable",
      "type": "function"
    },
    {
      "inputs": [
        {
          "internalType": "address",
          "name": "_submissionID",
          "type": "address"
        }
      ],
      "name": "isRegistered",
      "outputs": [
        {
          "internalType": "bool",
          "name": "",
          "type": "bool"
        }
      ],
      "stateMutability": "view",
      "type": "function"
    },
    {
      "inputs": [],
      "name": "owner",
      "outputs": [
        {
          "internalType": "address",
          "name": "",
          "type": "address"
        }
      ],
      "stateMutability": "view",
      "type": "function"
    },
    {
      "inputs": [],
      "name": "renounceOwnership",
      "outputs": [],
      "stateMutability": "nonpayable",
      "type": "function"
    },
    {
      "inputs": [],
      "name": "submissionDuration",
      "outputs": [
        {
          "internalType": "uint64",
          "name": "",
          "type": "uint64"
        }
      ],
      "stateMutability": "view",
      "type": "function"
    },
    {
      "inputs": [
        {
          "internalType": "address",
          "name": "newOwner",
          "type": "address"
        }
      ],
      "name": "transferOwnership",
      "outputs": [],
      "stateMutability": "nonpayable",
      "type": "function"
    }
  ],
  "bytecode": "0x608060405234801561001057600080fd5b5061001a33610034565b600280546001600160401b03191662093a80179055610084565b600080546001600160a01b038381166001600160a01b0319831681178455604051919092169283917f8be0079c531659141344cd1fd0a4f28419497f9722a3daafe3b4186f6b6457e09190a35050565b610531806100936000396000f3fe608060405234801561001057600080fd5b50600436106100625760003560e01c8063715018a6146100675780638da5cb5b14610071578063c3c5a54714610091578063ce936740146100b4578063f2fde38b146100c7578063f633c293146100da575b600080fd5b61006f610107565b005b6000546040516001600160a01b0390911681526020015b60405180910390f35b6100a461009f3660046103e9565b61011b565b6040519015158152602001610088565b61006f6100c2366004610412565b610172565b61006f6100d53660046103e9565b6102c1565b6002546100ee9067ffffffffffffffff1681565b60405167ffffffffffffffff9091168152602001610088565b61010f61033f565b6101196000610399565b565b6001600160a01b03811660009081526001602052604081208054610100900460ff16801561016b5750600254815467ffffffffffffffff918216916101689163010000009004164261049d565b11155b9392505050565b61017a61033f565b60005b818110156102bc576040805160a08101825260008082526001602083018190529282018390524267ffffffffffffffff1660608301526101a460808301529091908585858181106101d0576101d06104ca565b90506020020160208101906101e591906103e9565b6001600160a01b03168152602081019190915260400160002081518154829060ff1916600183600381111561021c5761021c6104b4565b0217905550602082015181546040840151606085015160809095015167ffffffffffffffff908116600160581b0267ffffffffffffffff60581b19919096166301000000021672ffffffffffffffffffffffffffffffff00000019911515620100000262ff000019941515610100029490941662ffff001990931692909217929092179190911617919091179055806102b4816104e0565b91505061017d565b505050565b6102c961033f565b6001600160a01b0381166103335760405162461bcd60e51b815260206004820152602660248201527f4f776e61626c653a206e6577206f776e657220697320746865207a65726f206160448201526564647265737360d01b60648201526084015b60405180910390fd5b61033c81610399565b50565b6000546001600160a01b031633146101195760405162461bcd60e51b815260206004820181905260248201527f4f776e61626c653a2063616c6c6572206973206e6f7420746865206f776e6572604482015260640161032a565b600080546001600160a01b038381166001600160a01b0319831681178455604051919092169283917f8be0079c531659141344cd1fd0a4f28419497f9722a3daafe3b4186f6b6457e09190a35050565b6000602082840312156103fb57600080fd5b81356001600160a01b038116811461016b57600080fd5b6000806020838503121561042557600080fd5b823567ffffffffffffffff8082111561043d57600080fd5b818501915085601f83011261045157600080fd5b81358181111561046057600080fd5b8660208260051b850101111561047557600080fd5b60209290920196919550909350505050565b634e487b7160e01b600052601160045260246000fd5b6000828210156104af576104af610487565b500390565b634e487b7160e01b600052602160045260246000fd5b634e487b7160e01b600052603260045260246000fd5b60006000198214156104f4576104f4610487565b506001019056fea2646970667358221220f84e20ae150b7363296dff633fc1137bd11663da1424e4f120418e2f0b5e4d6164736f6c63430008090033",
  "linkReferences": {},
  "deployedLinkReferences": {}
}